{"contracts/abstracts/libs/utils/AtomicSwapMsgValidator.sol":{"AtomicSwapMsgValidator":{"abi":[{"inputs":[{"internalType":"address","name":"contractAddress","type":"address"}],"name":"InvalidContractAddress","type":"error"},{"inputs":[{"internalType":"uint256","name":"provided","type":"uint256"},{"internalType":"uint256","name":"maximum","type":"uint256"}],"name":"InvalidExpirationTime","type":"error"},{"inputs":[],"name":"InvalidMinimumBidLimit","type":"error"},{"inputs":[],"name":"InvalidReleasePercentage","type":"error"},{"inputs":[],"name":"InvalidTotalPercentage","type":"error"},{"inputs":[],"name":"OverMaximumReleaseStep","type":"error"},{"inputs":[],"name":"UnauthorizedCancelAction","type":"error"},{"inputs":[],"name":"UnauthorizedSender","type":"error"},{"inputs":[],"name":"UnauthorizedTakeAction","type":"error"},{"inputs":[],"name":"ZeroReleaseSchedule","type":"error"},{"inputs":[{"internalType":"address","name":"_addr","type":"address"}],"name":"isContract","outputs":[{"internalType":"bool","name":"","type":"bool"}],"stateMutability":"view","type":"function"},{"inputs":[{"components":[{"internalType":"bytes32","name":"uuid","type":"bytes32"},{"components":[{"internalType":"address","name":"token","type":"address"},{"internalType":"uint256","name":"amount","type":"uint256"}],"internalType":"struct IAtomicSwapBase.Coin","name":"sellToken","type":"tuple"},{"components":[{"internalType":"address","name":"token","type":"address"},{"internalType":"uint256","name":"amount","type":"uint256"}],"internalType":"struct IAtomicSwapBase.Coin","name":"buyToken","type":"tuple"},{"internalType":"address","name":"maker","type":"address"},{"internalType":"address","name":"desiredTaker","type":"address"},{"internalType":"uint256","name":"minBidAmount","type":"uint256"},{"internalType":"uint256","name":"expireAt","type":"uint256"},{"internalType":"bool","name":"acceptBid","type":"bool"}],"internalType":"struct IAtomicSwapBase.MakeSwapMsg","name":"makeswap","type":"tuple"}],"name":"validateMakeSwapParams","outputs":[],"stateMutability":"view","type":"function"},{"inputs":[{"components":[{"internalType":"bytes32","name":"orderID","type":"bytes32"},{"internalType":"address","name":"takerReceiver","type":"address"}],"internalType":"struct IAtomicSwapBase.TakeSwapMsg","name":"takeswap","type":"tuple"}],"name":"validateTakeSwapParams","outputs":[],"stateMutability":"pure","type":"function"},{"inputs":[{"components":[{"internalType":"uint256","name":"durationInHours","type":"uint256"},{"internalType":"uint256","name":"percentage","type":"uint256"}],"internalType":"struct IAtomicSwapBase.Release[]","name":"releases","type":"tuple[]"}],"name":"validateVestingParams","outputs":[],"stateMutability":"pure","type":"function"}],"evm":{"bytecode":{"linkReferences":{},"object":"611489610053600b82828239805160001a607314610046577f4e487b7100000000000000000000000000000000000000000000000000000000600052600060045260246000fd5b30600052607381538281f3fe730000000000000000000000000000000000000000301460806040526004361061006c5760003560e01c8063162790551461007157806333b988f5146100a15780637aa10b6a146100bd5780639a0ebe00146100d9578063c27eeaac146100f5578063c3aee15d14610111575b600080fd5b61008b60048036038101906100869190610dfb565b61012d565b6040516100989190610e43565b60405180910390f35b6100bb60048036038101906100b69190611042565b6101bf565b005b6100d760048036038101906100d291906110c1565b610583565b005b6100f360048036038101906100ee919061126c565b6106e6565b005b61010f600480360381019061010a91906112ea565b610b92565b005b61012b600480360381019061012691906110c1565b610c77565b005b6000610143675b4c45d3329eb43860c01b610d7b565b6101576750beae34d826e78060c01b610d7b565b61016b6776c139d8d301d16a60c01b610d7b565b600061018167d1a71a9d4df19dcd60c01b610d7b565b823b905061019967b1289c86d8b25f7e60c01b610d7b565b6101ad6736c4bcf58b83c79a60c01b610d7b565b60008163ffffffff1611915050919050565b6101d36767c73532ecab35da60c01b610d7b565b6101e76738ad17ced532a09c60c01b610d7b565b6101fb6719586cd41d6685f260c01b610d7b565b600081510361025e5761021867d565f861eba43d5960c01b610d7b565b61022c678cc15cbd5857699360c01b610d7b565b6040517ffd68e07a00000000000000000000000000000000000000000000000000000000815260040160405180910390fd5b61027267bc03002bc35fed2860c01b610d7b565b61028667435100b04bf4971a60c01b610d7b565b61029a674da44e058d8144f260c01b610d7b565b60006102b06751fd4365fbd3180d60c01b610d7b565b6102c4676f554e24381e0f6960c01b610d7b565b60005b825181101561043f576102e4676d4c6fa1870a7dc360c01b610d7b565b6102f867f6ee19ac69bc5ef760c01b610d7b565b600083828151811061030d5761030c611317565b5b602002602001015160200151905061032f67da1149aa5cf6895060c01b610d7b565b61034367209ef427472f165660c01b610d7b565b600081108015610363575061036267f67b5f7a706d25f660c01b610d7e565b5b8061039657506000821180156103795750600081145b801561039557506103946770be7a22637ad10d60c01b610d7e565b5b5b156103f5576103af6714e7d0ab8127f05460c01b610d7b565b6103c3670c02c4326488a32360c01b610d7b565b6040517f2b82b70d00000000000000000000000000000000000000000000000000000000815260040160405180910390fd5b61040967991ca455a8a84e8d60c01b610d7b565b61041d675130a34032e801c760c01b610d7b565b80836104299190611375565b9250508080610437906113a9565b9150506102c7565b506104546744ba011051292f4860c01b610d7b565b6104686782603bf6ab44275760c01b610d7b565b61271081146104cb5761048567c50373a75fa1b66b60c01b610d7b565b610499675d3781495bc15ef360c01b610d7b565b6040517f0b8ad7f100000000000000000000000000000000000000000000000000000000815260040160405180910390fd5b6104df67cafcbb129da54c6a60c01b610d7b565b6104f367f0208871e92f801360c01b610d7b565b610507674724cd1a14ded26560c01b610d7b565b60968251111561056b5761052567df9356f57cc63f3060c01b610d7b565b61053967e498554fa690f7b960c01b610d7b565b6040517f1531e37f00000000000000000000000000000000000000000000000000000000815260040160405180910390fd5b61057f67a87a7063f6d22a6860c01b610d7b565b5050565b610597674384c15004b5c11460c01b610d7b565b6105ab672b66ff9b8e8dca7960c01b610d7b565b6105bf67a076235c96f89f8e60c01b610d7b565b600073ffffffffffffffffffffffffffffffffffffffff168160040160009054906101000a900473ffffffffffffffffffffffffffffffffffffffff1673ffffffffffffffffffffffffffffffffffffffff161415801561067057503373ffffffffffffffffffffffffffffffffffffffff168160040160009054906101000a900473ffffffffffffffffffffffffffffffffffffffff1673ffffffffffffffffffffffffffffffffffffffff1614155b156106cf5761068967c1bf389306182c9060c01b610d7b565b61069d671b04126822dbf33d60c01b610d7b565b6040517fbe544a2b00000000000000000000000000000000000000000000000000000000815260040160405180910390fd5b6106e367d63b23d52f8d368a60c01b610d7b565b50565b6106fa678c0813353e78b7e460c01b610d7b565b61070e677e491f87a95ec46260c01b610d7b565b610722672350fb6ecdaab46060c01b610d7b565b600073ffffffffffffffffffffffffffffffffffffffff1681602001516000015173ffffffffffffffffffffffffffffffffffffffff1614158015610775575061077381602001516000015161012d565b155b156107e75761078e6741137b8b13922e0160c01b610d7b565b6107a2670fa1b2c0e6feb35360c01b610d7b565b8060200151600001516040517f19bb40290000000000000000000000000000000000000000000000000000000081526004016107de9190611400565b60405180910390fd5b6107fb67b1b2c24944f9198460c01b610d7b565b61080f671738033ac4743bc760c01b610d7b565b61082367369b263f9690876860c01b610d7b565b600073ffffffffffffffffffffffffffffffffffffffff1681604001516000015173ffffffffffffffffffffffffffffffffffffffff1614158015610876575061087481604001516000015161012d565b155b156108e85761088f67f938427120a6f3ff60c01b610d7b565b6108a3674d7f182039e6ee1e60c01b610d7b565b8060400151600001516040517f19bb40290000000000000000000000000000000000000000000000000000000081526004016108df9190611400565b60405180910390fd5b6108fc67f96f24f9b0319ad060c01b610d7b565b61091067ede1b52868e7d9b560c01b610d7b565b61092467ffbaecef789645c960c01b610d7b565b60008160a001511161098a5761094467dc292fbf9ac6823260c01b610d7b565b610958678084903cdd1eb77e60c01b610d7b565b6040517f5fe07c7d00000000000000000000000000000000000000000000000000000000815260040160405180910390fd5b61099e67deb730439fb0f50260c01b610d7b565b6109b2670645b817ba0ec2bd60c01b610d7b565b6109c667c5d25564715597b160c01b610d7b565b600073ffffffffffffffffffffffffffffffffffffffff163373ffffffffffffffffffffffffffffffffffffffff16148015610a125750610a11672d1720c60456eef360c01b610d7e565b5b80610a695750806060015173ffffffffffffffffffffffffffffffffffffffff163373ffffffffffffffffffffffffffffffffffffffff1614158015610a685750610a6767e6dc8579e07e218d60c01b610d7e565b5b5b15610ac857610a8267ef2c9124e4d6f92560c01b610d7b565b610a9667af3bae9488c6a6d960c01b610d7b565b6040517f0809490800000000000000000000000000000000000000000000000000000000815260040160405180910390fd5b610adc679f4fff4c5ab2306260c01b610d7b565b610af067587141bd0b0df3ac60c01b610d7b565b610b0467cb1beec6444d85e760c01b610d7b565b428160c001511015610b7b57610b2467a5ed61012fe0ad2660c01b610d7b565b610b3867874c6db9043f459060c01b610d7b565b8060c00151426040517ff00605cf000000000000000000000000000000000000000000000000000000008152600401610b7292919061142a565b60405180910390fd5b610b8f6728928cb232a8ae9360c01b610d7b565b50565b610ba66766c0977e62f4c97760c01b610d7b565b610bba673358d7ff7abc885f60c01b610d7b565b610bce67590a76e29da0f21a60c01b610d7b565b600073ffffffffffffffffffffffffffffffffffffffff16816020015173ffffffffffffffffffffffffffffffffffffffff1603610c6057610c1a673d6e3f948dfdd11660c01b610d7b565b610c2e6717f4f4a97a395e3360c01b610d7b565b6040517f0809490800000000000000000000000000000000000000000000000000000000815260040160405180910390fd5b610c7467d4368f17c4e0e87c60c01b610d7b565b50565b610c8b6791259554e8c34d6960c01b610d7b565b610c9f67d1505abbd9434ef360c01b610d7b565b610cb3671877d13b1c237c9060c01b610d7b565b3373ffffffffffffffffffffffffffffffffffffffff168160010160019054906101000a900473ffffffffffffffffffffffffffffffffffffffff1673ffffffffffffffffffffffffffffffffffffffff1614610d6457610d1e67a3711a6eee942f0760c01b610d7b565b610d3267a4ab9bf7edec2ae660c01b610d7b565b6040517f978f045600000000000000000000000000000000000000000000000000000000815260040160405180910390fd5b610d786786af009c8f9b232f60c01b610d7b565b50565b50565b600060019050919050565b6000604051905090565b600080fd5b600080fd5b600073ffffffffffffffffffffffffffffffffffffffff82169050919050565b6000610dc882610d9d565b9050919050565b610dd881610dbd565b8114610de357600080fd5b50565b600081359050610df581610dcf565b92915050565b600060208284031215610e1157610e10610d93565b5b6000610e1f84828501610de6565b91505092915050565b60008115159050919050565b610e3d81610e28565b82525050565b6000602082019050610e586000830184610e34565b92915050565b600080fd5b6000601f19601f8301169050919050565b7f4e487b7100000000000000000000000000000000000000000000000000000000600052604160045260246000fd5b610eac82610e63565b810181811067ffffffffffffffff82111715610ecb57610eca610e74565b5b80604052505050565b6000610ede610d89565b9050610eea8282610ea3565b919050565b600067ffffffffffffffff821115610f0a57610f09610e74565b5b602082029050602081019050919050565b600080fd5b600080fd5b6000819050919050565b610f3881610f25565b8114610f4357600080fd5b50565b600081359050610f5581610f2f565b92915050565b600060408284031215610f7157610f70610f20565b5b610f7b6040610ed4565b90506000610f8b84828501610f46565b6000830152506020610f9f84828501610f46565b60208301525092915050565b6000610fbe610fb984610eef565b610ed4565b90508083825260208201905060408402830185811115610fe157610fe0610f1b565b5b835b8181101561100a5780610ff68882610f5b565b845260208401935050604081019050610fe3565b5050509392505050565b600082601f83011261102957611028610e5e565b5b8135611039848260208601610fab565b91505092915050565b60006020828403121561105857611057610d93565b5b600082013567ffffffffffffffff81111561107657611075610d98565b5b61108284828501611014565b91505092915050565b6000819050919050565b61109e8161108b565b81146110a957600080fd5b50565b6000813590506110bb81611095565b92915050565b6000602082840312156110d7576110d6610d93565b5b60006110e5848285016110ac565b91505092915050565b6000819050919050565b611101816110ee565b811461110c57600080fd5b50565b60008135905061111e816110f8565b92915050565b60006040828403121561113a57611139610f20565b5b6111446040610ed4565b9050600061115484828501610de6565b600083015250602061116884828501610f46565b60208301525092915050565b61117d81610e28565b811461118857600080fd5b50565b60008135905061119a81611174565b92915050565b600061014082840312156111b7576111b6610f20565b5b6111c2610100610ed4565b905060006111d28482850161110f565b60008301525060206111e684828501611124565b60208301525060606111fa84828501611124565b60408301525060a061120e84828501610de6565b60608301525060c061122284828501610de6565b60808301525060e061123684828501610f46565b60a08301525061010061124b84828501610f46565b60c0830152506101206112608482850161118b565b60e08301525092915050565b6000610140828403121561128357611282610d93565b5b6000611291848285016111a0565b91505092915050565b6000604082840312156112b0576112af610f20565b5b6112ba6040610ed4565b905060006112ca8482850161110f565b60008301525060206112de84828501610de6565b60208301525092915050565b600060408284031215611300576112ff610d93565b5b600061130e8482850161129a565b91505092915050565b7f4e487b7100000000000000000000000000000000000000000000000000000000600052603260045260246000fd5b7f4e487b7100000000000000000000000000000000000000000000000000000000600052601160045260246000fd5b600061138082610f25565b915061138b83610f25565b92508282019050808211156113a3576113a2611346565b5b92915050565b60006113b482610f25565b91507fffffffffffffffffffffffffffffffffffffffffffffffffffffffffffffffff82036113e6576113e5611346565b5b600182019050919050565b6113fa81610dbd565b82525050565b600060208201905061141560008301846113f1565b92915050565b61142481610f25565b82525050565b600060408201905061143f600083018561141b565b61144c602083018461141b565b939250505056fea2646970667358221220ca17949f733b224cbfd7cf5e8e91529b9beb924d44dda0c6ce25734c4214a05e64736f6c63430008140033","opcodes":"PUSH2 0x1489 PUSH2 0x53 PUSH1 0xB DUP3 DUP3 DUP3 CODECOPY DUP1 MLOAD PUSH1 0x0 BYTE PUSH1 0x73 EQ PUSH2 0x46 JUMPI PUSH32 0x4E487B7100000000000000000000000000000000000000000000000000000000 PUSH1 0x0 MSTORE PUSH1 0x0 PUSH1 0x4 MSTORE PUSH1 0x24 PUSH1 0x0 REVERT JUMPDEST ADDRESS PUSH1 0x0 MSTORE PUSH1 0x73 DUP2 MSTORE8 DUP3 DUP2 RETURN INVALID PUSH20 0x0 ADDRESS EQ PUSH1 0x80 PUSH1 0x40 MSTORE PUSH1 0x4 CALLDATASIZE LT PUSH2 0x6C JUMPI PUSH1 0x0 CALLDATALOAD PUSH1 0xE0 SHR DUP1 PUSH4 0x16279055 EQ PUSH2 0x71 JUMPI DUP1 PUSH4 0x33B988F5 EQ PUSH2 0xA1 JUMPI DUP1 PUSH4 0x7AA10B6A EQ PUSH2 0xBD JUMPI DUP1 PUSH4 0x9A0EBE00 EQ PUSH2 0xD9 JUMPI DUP1 PUSH4 0xC27EEAAC EQ PUSH2 0xF5 JUMPI DUP1 PUSH4 0xC3AEE15D EQ PUSH2 0x111 JUMPI JUMPDEST PUSH1 0x0 DUP1 REVERT JUMPDEST PUSH2 0x8B PUSH1 0x4 DUP1 CALLDATASIZE SUB DUP2 ADD SWAP1 PUSH2 0x86 SWAP2 SWAP1 PUSH2 0xDFB JUMP JUMPDEST PUSH2 0x12D JUMP JUMPDEST PUSH1 0x40 MLOAD PUSH2 0x98 SWAP2 SWAP1 PUSH2 0xE43 JUMP JUMPDEST PUSH1 0x40 MLOAD DUP1 SWAP2 SUB SWAP1 RETURN JUMPDEST PUSH2 0xBB PUSH1 0x4 DUP1 CALLDATASIZE SUB DUP2 ADD SWAP1 PUSH2 0xB6 SWAP2 SWAP1 PUSH2 0x1042 JUMP JUMPDEST PUSH2 0x1BF JUMP JUMPDEST STOP JUMPDEST PUSH2 0xD7 PUSH1 0x4 DUP1 CALLDATASIZE SUB DUP2 ADD SWAP1 PUSH2 0xD2 SWAP2 SWAP1 PUSH2 0x10C1 JUMP JUMPDEST PUSH2 0x583 JUMP JUMPDEST STOP JUMPDEST PUSH2 0xF3 PUSH1 0x4 DUP1 CALLDATASIZE SUB DUP2 ADD SWAP1 PUSH2 0xEE SWAP2 SWAP1 PUSH2 0x126C JUMP JUMPDEST PUSH2 0x6E6 JUMP JUMPDEST STOP JUMPDEST PUSH2 0x10F PUSH1 0x4 DUP1 CALLDATASIZE SUB DUP2 ADD SWAP1 PUSH2 0x10A SWAP2 SWAP1 PUSH2 0x12EA JUMP JUMPDEST PUSH2 0xB92 JUMP JUMPDEST STOP JUMPDEST PUSH2 0x12B PUSH1 0x4 DUP1 CALLDATASIZE SUB DUP2 ADD SWAP1 PUSH2 0x126 SWAP2 SWAP1 PUSH2 0x10C1 JUMP JUMPDEST PUSH2 0xC77 JUMP JUMPDEST STOP JUMPDEST PUSH1 0x0 PUSH2 0x143 PUSH8 0x5B4C45D3329EB438 PUSH1 0xC0 SHL PUSH2 0xD7B JUMP JUMPDEST PUSH2 0x157 PUSH8 0x50BEAE34D826E780 PUSH1 0xC0 SHL PUSH2 0xD7B JUMP JUMPDEST PUSH2 0x16B PUSH8 0x76C139D8D301D16A PUSH1 0xC0 SHL PUSH2 0xD7B JUMP JUMPDEST PUSH1 0x0 PUSH2 0x181 PUSH8 0xD1A71A9D4DF19DCD PUSH1 0xC0 SHL PUSH2 0xD7B JUMP JUMPDEST DUP3 EXTCODESIZE SWAP1 POP PUSH2 0x199 PUSH8 0xB1289C86D8B25F7E PUSH1 0xC0 SHL PUSH2 0xD7B JUMP JUMPDEST PUSH2 0x1AD PUSH8 0x36C4BCF58B83C79A PUSH1 0xC0 SHL PUSH2 0xD7B JUMP JUMPDEST PUSH1 0x0 DUP2 PUSH4 0xFFFFFFFF AND GT SWAP2 POP POP SWAP2 SWAP1 POP JUMP JUMPDEST PUSH2 0x1D3 PUSH8 0x67C73532ECAB35DA PUSH1 0xC0 SHL PUSH2 0xD7B JUMP JUMPDEST PUSH2 0x1E7 PUSH8 0x38AD17CED532A09C PUSH1 0xC0 SHL PUSH2 0xD7B JUMP JUMPDEST PUSH2 0x1FB PUSH8 0x19586CD41D6685F2 PUSH1 0xC0 SHL PUSH2 0xD7B JUMP JUMPDEST PUSH1 0x0 DUP2 MLOAD SUB PUSH2 0x25E JUMPI PUSH2 0x218 PUSH8 0xD565F861EBA43D59 PUSH1 0xC0 SHL PUSH2 0xD7B JUMP JUMPDEST PUSH2 0x22C PUSH8 0x8CC15CBD58576993 PUSH1 0xC0 SHL PUSH2 0xD7B JUMP JUMPDEST PUSH1 0x40 MLOAD PUSH32 0xFD68E07A00000000000000000000000000000000000000000000000000000000 DUP2 MSTORE PUSH1 0x4 ADD PUSH1 0x40 MLOAD DUP1 SWAP2 SUB SWAP1 REVERT JUMPDEST PUSH2 0x272 PUSH8 0xBC03002BC35FED28 PUSH1 0xC0 SHL PUSH2 0xD7B JUMP JUMPDEST PUSH2 0x286 PUSH8 0x435100B04BF4971A PUSH1 0xC0 SHL PUSH2 0xD7B JUMP JUMPDEST PUSH2 0x29A PUSH8 0x4DA44E058D8144F2 PUSH1 0xC0 SHL PUSH2 0xD7B JUMP JUMPDEST PUSH1 0x0 PUSH2 0x2B0 PUSH8 0x51FD4365FBD3180D PUSH1 0xC0 SHL PUSH2 0xD7B JUMP JUMPDEST PUSH2 0x2C4 PUSH8 0x6F554E24381E0F69 PUSH1 0xC0 SHL PUSH2 0xD7B JUMP JUMPDEST PUSH1 0x0 JUMPDEST DUP3 MLOAD DUP2 LT ISZERO PUSH2 0x43F JUMPI PUSH2 0x2E4 PUSH8 0x6D4C6FA1870A7DC3 PUSH1 0xC0 SHL PUSH2 0xD7B JUMP JUMPDEST PUSH2 0x2F8 PUSH8 0xF6EE19AC69BC5EF7 PUSH1 0xC0 SHL PUSH2 0xD7B JUMP JUMPDEST PUSH1 0x0 DUP4 DUP3 DUP2 MLOAD DUP2 LT PUSH2 0x30D JUMPI PUSH2 0x30C PUSH2 0x1317 JUMP JUMPDEST JUMPDEST PUSH1 0x20 MUL PUSH1 0x20 ADD ADD MLOAD PUSH1 0x20 ADD MLOAD SWAP1 POP PUSH2 0x32F PUSH8 0xDA1149AA5CF68950 PUSH1 0xC0 SHL PUSH2 0xD7B JUMP JUMPDEST PUSH2 0x343 PUSH8 0x209EF427472F1656 PUSH1 0xC0 SHL PUSH2 0xD7B JUMP JUMPDEST PUSH1 0x0 DUP2 LT DUP1 ISZERO PUSH2 0x363 JUMPI POP PUSH2 0x362 PUSH8 0xF67B5F7A706D25F6 PUSH1 0xC0 SHL PUSH2 0xD7E JUMP JUMPDEST JUMPDEST DUP1 PUSH2 0x396 JUMPI POP PUSH1 0x0 DUP3 GT DUP1 ISZERO PUSH2 0x379 JUMPI POP PUSH1 0x0 DUP2 EQ JUMPDEST DUP1 ISZERO PUSH2 0x395 JUMPI POP PUSH2 0x394 PUSH8 0x70BE7A22637AD10D PUSH1 0xC0 SHL PUSH2 0xD7E JUMP JUMPDEST JUMPDEST JUMPDEST ISZERO PUSH2 0x3F5 JUMPI PUSH2 0x3AF PUSH8 0x14E7D0AB8127F054 PUSH1 0xC0 SHL PUSH2 0xD7B JUMP JUMPDEST PUSH2 0x3C3 PUSH8 0xC02C4326488A323 PUSH1 0xC0 SHL PUSH2 0xD7B JUMP JUMPDEST PUSH1 0x40 MLOAD PUSH32 0x2B82B70D00000000000000000000000000000000000000000000000000000000 DUP2 MSTORE PUSH1 0x4 ADD PUSH1 0x40 MLOAD DUP1 SWAP2 SUB SWAP1 REVERT JUMPDEST PUSH2 0x409 PUSH8 0x991CA455A8A84E8D PUSH1 0xC0 SHL PUSH2 0xD7B JUMP JUMPDEST PUSH2 0x41D PUSH8 0x5130A34032E801C7 PUSH1 0xC0 SHL PUSH2 0xD7B JUMP JUMPDEST DUP1 DUP4 PUSH2 0x429 SWAP2 SWAP1 PUSH2 0x1375 JUMP JUMPDEST SWAP3 POP POP DUP1 DUP1 PUSH2 0x437 SWAP1 PUSH2 0x13A9 JUMP JUMPDEST SWAP2 POP POP PUSH2 0x2C7 JUMP JUMPDEST POP PUSH2 0x454 PUSH8 0x44BA011051292F48 PUSH1 0xC0 SHL PUSH2 0xD7B JUMP JUMPDEST PUSH2 0x468 PUSH8 0x82603BF6AB442757 PUSH1 0xC0 SHL PUSH2 0xD7B JUMP JUMPDEST PUSH2 0x2710 DUP2 EQ PUSH2 0x4CB JUMPI PUSH2 0x485 PUSH8 0xC50373A75FA1B66B PUSH1 0xC0 SHL PUSH2 0xD7B JUMP JUMPDEST PUSH2 0x499 PUSH8 0x5D3781495BC15EF3 PUSH1 0xC0 SHL PUSH2 0xD7B JUMP JUMPDEST PUSH1 0x40 MLOAD PUSH32 0xB8AD7F100000000000000000000000000000000000000000000000000000000 DUP2 MSTORE PUSH1 0x4 ADD PUSH1 0x40 MLOAD DUP1 SWAP2 SUB SWAP1 REVERT JUMPDEST PUSH2 0x4DF PUSH8 0xCAFCBB129DA54C6A PUSH1 0xC0 SHL PUSH2 0xD7B JUMP JUMPDEST PUSH2 0x4F3 PUSH8 0xF0208871E92F8013 PUSH1 0xC0 SHL PUSH2 0xD7B JUMP JUMPDEST PUSH2 0x507 PUSH8 0x4724CD1A14DED265 PUSH1 0xC0 SHL PUSH2 0xD7B JUMP JUMPDEST PUSH1 0x96 DUP3 MLOAD GT ISZERO PUSH2 0x56B JUMPI PUSH2 0x525 PUSH8 0xDF9356F57CC63F30 PUSH1 0xC0 SHL PUSH2 0xD7B JUMP JUMPDEST PUSH2 0x539 PUSH8 0xE498554FA690F7B9 PUSH1 0xC0 SHL PUSH2 0xD7B JUMP JUMPDEST PUSH1 0x40 MLOAD PUSH32 0x1531E37F00000000000000000000000000000000000000000000000000000000 DUP2 MSTORE PUSH1 0x4 ADD PUSH1 0x40 MLOAD DUP1 SWAP2 SUB SWAP1 REVERT JUMPDEST PUSH2 0x57F PUSH8 0xA87A7063F6D22A68 PUSH1 0xC0 SHL PUSH2 0xD7B JUMP JUMPDEST POP POP JUMP JUMPDEST PUSH2 0x597 PUSH8 0x4384C15004B5C114 PUSH1 0xC0 SHL PUSH2 0xD7B JUMP JUMPDEST PUSH2 0x5AB PUSH8 0x2B66FF9B8E8DCA79 PUSH1 0xC0 SHL PUSH2 0xD7B JUMP JUMPDEST PUSH2 0x5BF PUSH8 0xA076235C96F89F8E PUSH1 0xC0 SHL PUSH2 0xD7B JUMP JUMPDEST PUSH1 0x0 PUSH20 0xFFFFFFFFFFFFFFFFFFFFFFFFFFFFFFFFFFFFFFFF AND DUP2 PUSH1 0x4 ADD PUSH1 0x0 SWAP1 SLOAD SWAP1 PUSH2 0x100 EXP SWAP1 DIV PUSH20 0xFFFFFFFFFFFFFFFFFFFFFFFFFFFFFFFFFFFFFFFF AND PUSH20 0xFFFFFFFFFFFFFFFFFFFFFFFFFFFFFFFFFFFFFFFF AND EQ ISZERO DUP1 ISZERO PUSH2 0x670 JUMPI POP CALLER PUSH20 0xFFFFFFFFFFFFFFFFFFFFFFFFFFFFFFFFFFFFFFFF AND DUP2 PUSH1 0x4 ADD PUSH1 0x0 SWAP1 SLOAD SWAP1 PUSH2 0x100 EXP SWAP1 DIV PUSH20 0xFFFFFFFFFFFFFFFFFFFFFFFFFFFFFFFFFFFFFFFF AND PUSH20 0xFFFFFFFFFFFFFFFFFFFFFFFFFFFFFFFFFFFFFFFF AND EQ ISZERO JUMPDEST ISZERO PUSH2 0x6CF JUMPI PUSH2 0x689 PUSH8 0xC1BF389306182C90 PUSH1 0xC0 SHL PUSH2 0xD7B JUMP JUMPDEST PUSH2 0x69D PUSH8 0x1B04126822DBF33D PUSH1 0xC0 SHL PUSH2 0xD7B JUMP JUMPDEST PUSH1 0x40 MLOAD PUSH32 0xBE544A2B00000000000000000000000000000000000000000000000000000000 DUP2 MSTORE PUSH1 0x4 ADD PUSH1 0x40 MLOAD DUP1 SWAP2 SUB SWAP1 REVERT JUMPDEST PUSH2 0x6E3 PUSH8 0xD63B23D52F8D368A PUSH1 0xC0 SHL PUSH2 0xD7B JUMP JUMPDEST POP JUMP JUMPDEST PUSH2 0x6FA PUSH8 0x8C0813353E78B7E4 PUSH1 0xC0 SHL PUSH2 0xD7B JUMP JUMPDEST PUSH2 0x70E PUSH8 0x7E491F87A95EC462 PUSH1 0xC0 SHL PUSH2 0xD7B JUMP JUMPDEST PUSH2 0x722 PUSH8 0x2350FB6ECDAAB460 PUSH1 0xC0 SHL PUSH2 0xD7B JUMP JUMPDEST PUSH1 0x0 PUSH20 0xFFFFFFFFFFFFFFFFFFFFFFFFFFFFFFFFFFFFFFFF AND DUP2 PUSH1 0x20 ADD MLOAD PUSH1 0x0 ADD MLOAD PUSH20 0xFFFFFFFFFFFFFFFFFFFFFFFFFFFFFFFFFFFFFFFF AND EQ ISZERO DUP1 ISZERO PUSH2 0x775 JUMPI POP PUSH2 0x773 DUP2 PUSH1 0x20 ADD MLOAD PUSH1 0x0 ADD MLOAD PUSH2 0x12D JUMP JUMPDEST ISZERO JUMPDEST ISZERO PUSH2 0x7E7 JUMPI PUSH2 0x78E PUSH8 0x41137B8B13922E01 PUSH1 0xC0 SHL PUSH2 0xD7B JUMP JUMPDEST PUSH2 0x7A2 PUSH8 0xFA1B2C0E6FEB353 PUSH1 0xC0 SHL PUSH2 0xD7B JUMP JUMPDEST DUP1 PUSH1 0x20 ADD MLOAD PUSH1 0x0 ADD MLOAD PUSH1 0x40 MLOAD PUSH32 0x19BB402900000000000000000000000000000000000000000000000000000000 DUP2 MSTORE PUSH1 0x4 ADD PUSH2 0x7DE SWAP2 SWAP1 PUSH2 0x1400 JUMP JUMPDEST PUSH1 0x40 MLOAD DUP1 SWAP2 SUB SWAP1 REVERT JUMPDEST PUSH2 0x7FB PUSH8 0xB1B2C24944F91984 PUSH1 0xC0 SHL PUSH2 0xD7B JUMP JUMPDEST PUSH2 0x80F PUSH8 0x1738033AC4743BC7 PUSH1 0xC0 SHL PUSH2 0xD7B JUMP JUMPDEST PUSH2 0x823 PUSH8 0x369B263F96908768 PUSH1 0xC0 SHL PUSH2 0xD7B JUMP JUMPDEST PUSH1 0x0 PUSH20 0xFFFFFFFFFFFFFFFFFFFFFFFFFFFFFFFFFFFFFFFF AND DUP2 PUSH1 0x40 ADD MLOAD PUSH1 0x0 ADD MLOAD PUSH20 0xFFFFFFFFFFFFFFFFFFFFFFFFFFFFFFFFFFFFFFFF AND EQ ISZERO DUP1 ISZERO PUSH2 0x876 JUMPI POP PUSH2 0x874 DUP2 PUSH1 0x40 ADD MLOAD PUSH1 0x0 ADD MLOAD PUSH2 0x12D JUMP JUMPDEST ISZERO JUMPDEST ISZERO PUSH2 0x8E8 JUMPI PUSH2 0x88F PUSH8 0xF938427120A6F3FF PUSH1 0xC0 SHL PUSH2 0xD7B JUMP JUMPDEST PUSH2 0x8A3 PUSH8 0x4D7F182039E6EE1E PUSH1 0xC0 SHL PUSH2 0xD7B JUMP JUMPDEST DUP1 PUSH1 0x40 ADD MLOAD PUSH1 0x0 ADD MLOAD PUSH1 0x40 MLOAD PUSH32 0x19BB402900000000000000000000000000000000000000000000000000000000 DUP2 MSTORE PUSH1 0x4 ADD PUSH2 0x8DF SWAP2 SWAP1 PUSH2 0x1400 JUMP JUMPDEST PUSH1 0x40 MLOAD DUP1 SWAP2 SUB SWAP1 REVERT JUMPDEST PUSH2 0x8FC PUSH8 0xF96F24F9B0319AD0 PUSH1 0xC0 SHL PUSH2 0xD7B JUMP JUMPDEST PUSH2 0x910 PUSH8 0xEDE1B52868E7D9B5 PUSH1 0xC0 SHL PUSH2 0xD7B JUMP JUMPDEST PUSH2 0x924 PUSH8 0xFFBAECEF789645C9 PUSH1 0xC0 SHL PUSH2 0xD7B JUMP JUMPDEST PUSH1 0x0 DUP2 PUSH1 0xA0 ADD MLOAD GT PUSH2 0x98A JUMPI PUSH2 0x944 PUSH8 0xDC292FBF9AC68232 PUSH1 0xC0 SHL PUSH2 0xD7B JUMP JUMPDEST PUSH2 0x958 PUSH8 0x8084903CDD1EB77E PUSH1 0xC0 SHL PUSH2 0xD7B JUMP JUMPDEST PUSH1 0x40 MLOAD PUSH32 0x5FE07C7D00000000000000000000000000000000000000000000000000000000 DUP2 MSTORE PUSH1 0x4 ADD PUSH1 0x40 MLOAD DUP1 SWAP2 SUB SWAP1 REVERT JUMPDEST PUSH2 0x99E PUSH8 0xDEB730439FB0F502 PUSH1 0xC0 SHL PUSH2 0xD7B JUMP JUMPDEST PUSH2 0x9B2 PUSH8 0x645B817BA0EC2BD PUSH1 0xC0 SHL PUSH2 0xD7B JUMP JUMPDEST PUSH2 0x9C6 PUSH8 0xC5D25564715597B1 PUSH1 0xC0 SHL PUSH2 0xD7B JUMP JUMPDEST PUSH1 0x0 PUSH20 0xFFFFFFFFFFFFFFFFFFFFFFFFFFFFFFFFFFFFFFFF AND CALLER PUSH20 0xFFFFFFFFFFFFFFFFFFFFFFFFFFFFFFFFFFFFFFFF AND EQ DUP1 ISZERO PUSH2 0xA12 JUMPI POP PUSH2 0xA11 PUSH8 0x2D1720C60456EEF3 PUSH1 0xC0 SHL PUSH2 0xD7E JUMP JUMPDEST JUMPDEST DUP1 PUSH2 0xA69 JUMPI POP DUP1 PUSH1 0x60 ADD MLOAD PUSH20 0xFFFFFFFFFFFFFFFFFFFFFFFFFFFFFFFFFFFFFFFF AND CALLER PUSH20 0xFFFFFFFFFFFFFFFFFFFFFFFFFFFFFFFFFFFFFFFF AND EQ ISZERO DUP1 ISZERO PUSH2 0xA68 JUMPI POP PUSH2 0xA67 PUSH8 0xE6DC8579E07E218D PUSH1 0xC0 SHL PUSH2 0xD7E JUMP JUMPDEST JUMPDEST JUMPDEST ISZERO PUSH2 0xAC8 JUMPI PUSH2 0xA82 PUSH8 0xEF2C9124E4D6F925 PUSH1 0xC0 SHL PUSH2 0xD7B JUMP JUMPDEST PUSH2 0xA96 PUSH8 0xAF3BAE9488C6A6D9 PUSH1 0xC0 SHL PUSH2 0xD7B JUMP JUMPDEST PUSH1 0x40 MLOAD PUSH32 0x809490800000000000000000000000000000000000000000000000000000000 DUP2 MSTORE PUSH1 0x4 ADD PUSH1 0x40 MLOAD DUP1 SWAP2 SUB SWAP1 REVERT JUMPDEST PUSH2 0xADC PUSH8 0x9F4FFF4C5AB23062 PUSH1 0xC0 SHL PUSH2 0xD7B JUMP JUMPDEST PUSH2 0xAF0 PUSH8 0x587141BD0B0DF3AC PUSH1 0xC0 SHL PUSH2 0xD7B JUMP JUMPDEST PUSH2 0xB04 PUSH8 0xCB1BEEC6444D85E7 PUSH1 0xC0 SHL PUSH2 0xD7B JUMP JUMPDEST TIMESTAMP DUP2 PUSH1 0xC0 ADD MLOAD LT ISZERO PUSH2 0xB7B JUMPI PUSH2 0xB24 PUSH8 0xA5ED61012FE0AD26 PUSH1 0xC0 SHL PUSH2 0xD7B JUMP JUMPDEST PUSH2 0xB38 PUSH8 0x874C6DB9043F4590 PUSH1 0xC0 SHL PUSH2 0xD7B JUMP JUMPDEST DUP1 PUSH1 0xC0 ADD MLOAD TIMESTAMP PUSH1 0x40 MLOAD PUSH32 0xF00605CF00000000000000000000000000000000000000000000000000000000 DUP2 MSTORE PUSH1 0x4 ADD PUSH2 0xB72 SWAP3 SWAP2 SWAP1 PUSH2 0x142A JUMP JUMPDEST PUSH1 0x40 MLOAD DUP1 SWAP2 SUB SWAP1 REVERT JUMPDEST PUSH2 0xB8F PUSH8 0x28928CB232A8AE93 PUSH1 0xC0 SHL PUSH2 0xD7B JUMP JUMPDEST POP JUMP JUMPDEST PUSH2 0xBA6 PUSH8 0x66C0977E62F4C977 PUSH1 0xC0 SHL PUSH2 0xD7B JUMP JUMPDEST PUSH2 0xBBA PUSH8 0x3358D7FF7ABC885F PUSH1 0xC0 SHL PUSH2 0xD7B JUMP JUMPDEST PUSH2 0xBCE PUSH8 0x590A76E29DA0F21A PUSH1 0xC0 SHL PUSH2 0xD7B JUMP JUMPDEST PUSH1 0x0 PUSH20 0xFFFFFFFFFFFFFFFFFFFFFFFFFFFFFFFFFFFFFFFF AND DUP2 PUSH1 0x20 ADD MLOAD PUSH20 0xFFFFFFFFFFFFFFFFFFFFFFFFFFFFFFFFFFFFFFFF AND SUB PUSH2 0xC60 JUMPI PUSH2 0xC1A PUSH8 0x3D6E3F948DFDD116 PUSH1 0xC0 SHL PUSH2 0xD7B JUMP JUMPDEST PUSH2 0xC2E PUSH8 0x17F4F4A97A395E33 PUSH1 0xC0 SHL PUSH2 0xD7B JUMP JUMPDEST PUSH1 0x40 MLOAD PUSH32 0x809490800000000000000000000000000000000000000000000000000000000 DUP2 MSTORE PUSH1 0x4 ADD PUSH1 0x40 MLOAD DUP1 SWAP2 SUB SWAP1 REVERT JUMPDEST PUSH2 0xC74 PUSH8 0xD4368F17C4E0E87C PUSH1 0xC0 SHL PUSH2 0xD7B JUMP JUMPDEST POP JUMP JUMPDEST PUSH2 0xC8B PUSH8 0x91259554E8C34D69 PUSH1 0xC0 SHL PUSH2 0xD7B JUMP JUMPDEST PUSH2 0xC9F PUSH8 0xD1505ABBD9434EF3 PUSH1 0xC0 SHL PUSH2 0xD7B JUMP JUMPDEST PUSH2 0xCB3 PUSH8 0x1877D13B1C237C90 PUSH1 0xC0 SHL PUSH2 0xD7B JUMP JUMPDEST CALLER PUSH20 0xFFFFFFFFFFFFFFFFFFFFFFFFFFFFFFFFFFFFFFFF AND DUP2 PUSH1 0x1 ADD PUSH1 0x1 SWAP1 SLOAD SWAP1 PUSH2 0x100 EXP SWAP1 DIV PUSH20 0xFFFFFFFFFFFFFFFFFFFFFFFFFFFFFFFFFFFFFFFF AND PUSH20 0xFFFFFFFFFFFFFFFFFFFFFFFFFFFFFFFFFFFFFFFF AND EQ PUSH2 0xD64 JUMPI PUSH2 0xD1E PUSH8 0xA3711A6EEE942F07 PUSH1 0xC0 SHL PUSH2 0xD7B JUMP JUMPDEST PUSH2 0xD32 PUSH8 0xA4AB9BF7EDEC2AE6 PUSH1 0xC0 SHL PUSH2 0xD7B JUMP JUMPDEST PUSH1 0x40 MLOAD PUSH32 0x978F045600000000000000000000000000000000000000000000000000000000 DUP2 MSTORE PUSH1 0x4 ADD PUSH1 0x40 MLOAD DUP1 SWAP2 SUB SWAP1 REVERT JUMPDEST PUSH2 0xD78 PUSH8 0x86AF009C8F9B232F PUSH1 0xC0 SHL PUSH2 0xD7B JUMP JUMPDEST POP JUMP JUMPDEST POP JUMP JUMPDEST PUSH1 0x0 PUSH1 0x1 SWAP1 POP SWAP2 SWAP1 POP JUMP JUMPDEST PUSH1 0x0 PUSH1 0x40 MLOAD SWAP1 POP SWAP1 JUMP JUMPDEST PUSH1 0x0 DUP1 REVERT JUMPDEST PUSH1 0x0 DUP1 REVERT JUMPDEST PUSH1 0x0 PUSH20 0xFFFFFFFFFFFFFFFFFFFFFFFFFFFFFFFFFFFFFFFF DUP3 AND SWAP1 POP SWAP2 SWAP1 POP JUMP JUMPDEST PUSH1 0x0 PUSH2 0xDC8 DUP3 PUSH2 0xD9D JUMP JUMPDEST SWAP1 POP SWAP2 SWAP1 POP JUMP JUMPDEST PUSH2 0xDD8 DUP2 PUSH2 0xDBD JUMP JUMPDEST DUP2 EQ PUSH2 0xDE3 JUMPI PUSH1 0x0 DUP1 REVERT JUMPDEST POP JUMP JUMPDEST PUSH1 0x0 DUP2 CALLDATALOAD SWAP1 POP PUSH2 0xDF5 DUP2 PUSH2 0xDCF JUMP JUMPDEST SWAP3 SWAP2 POP POP JUMP JUMPDEST PUSH1 0x0 PUSH1 0x20 DUP3 DUP5 SUB SLT ISZERO PUSH2 0xE11 JUMPI PUSH2 0xE10 PUSH2 0xD93 JUMP JUMPDEST JUMPDEST PUSH1 0x0 PUSH2 0xE1F DUP5 DUP3 DUP6 ADD PUSH2 0xDE6 JUMP JUMPDEST SWAP2 POP POP SWAP3 SWAP2 POP POP JUMP JUMPDEST PUSH1 0x0 DUP2 ISZERO ISZERO SWAP1 POP SWAP2 SWAP1 POP JUMP JUMPDEST PUSH2 0xE3D DUP2 PUSH2 0xE28 JUMP JUMPDEST DUP3 MSTORE POP POP JUMP JUMPDEST PUSH1 0x0 PUSH1 0x20 DUP3 ADD SWAP1 POP PUSH2 0xE58 PUSH1 0x0 DUP4 ADD DUP5 PUSH2 0xE34 JUMP JUMPDEST SWAP3 SWAP2 POP POP JUMP JUMPDEST PUSH1 0x0 DUP1 REVERT JUMPDEST PUSH1 0x0 PUSH1 0x1F NOT PUSH1 0x1F DUP4 ADD AND SWAP1 POP SWAP2 SWAP1 POP JUMP JUMPDEST PUSH32 0x4E487B7100000000000000000000000000000000000000000000000000000000 PUSH1 0x0 MSTORE PUSH1 0x41 PUSH1 0x4 MSTORE PUSH1 0x24 PUSH1 0x0 REVERT JUMPDEST PUSH2 0xEAC DUP3 PUSH2 0xE63 JUMP JUMPDEST DUP2 ADD DUP2 DUP2 LT PUSH8 0xFFFFFFFFFFFFFFFF DUP3 GT OR ISZERO PUSH2 0xECB JUMPI PUSH2 0xECA PUSH2 0xE74 JUMP JUMPDEST JUMPDEST DUP1 PUSH1 0x40 MSTORE POP POP POP JUMP JUMPDEST PUSH1 0x0 PUSH2 0xEDE PUSH2 0xD89 JUMP JUMPDEST SWAP1 POP PUSH2 0xEEA DUP3 DUP3 PUSH2 0xEA3 JUMP JUMPDEST SWAP2 SWAP1 POP JUMP JUMPDEST PUSH1 0x0 PUSH8 0xFFFFFFFFFFFFFFFF DUP3 GT ISZERO PUSH2 0xF0A JUMPI PUSH2 0xF09 PUSH2 0xE74 JUMP JUMPDEST JUMPDEST PUSH1 0x20 DUP3 MUL SWAP1 POP PUSH1 0x20 DUP2 ADD SWAP1 POP SWAP2 SWAP1 POP JUMP JUMPDEST PUSH1 0x0 DUP1 REVERT JUMPDEST PUSH1 0x0 DUP1 REVERT JUMPDEST PUSH1 0x0 DUP2 SWAP1 POP SWAP2 SWAP1 POP JUMP JUMPDEST PUSH2 0xF38 DUP2 PUSH2 0xF25 JUMP JUMPDEST DUP2 EQ PUSH2 0xF43 JUMPI PUSH1 0x0 DUP1 REVERT JUMPDEST POP JUMP JUMPDEST PUSH1 0x0 DUP2 CALLDATALOAD SWAP1 POP PUSH2 0xF55 DUP2 PUSH2 0xF2F JUMP JUMPDEST SWAP3 SWAP2 POP POP JUMP JUMPDEST PUSH1 0x0 PUSH1 0x40 DUP3 DUP5 SUB SLT ISZERO PUSH2 0xF71 JUMPI PUSH2 0xF70 PUSH2 0xF20 JUMP JUMPDEST JUMPDEST PUSH2 0xF7B PUSH1 0x40 PUSH2 0xED4 JUMP JUMPDEST SWAP1 POP PUSH1 0x0 PUSH2 0xF8B DUP5 DUP3 DUP6 ADD PUSH2 0xF46 JUMP JUMPDEST PUSH1 0x0 DUP4 ADD MSTORE POP PUSH1 0x20 PUSH2 0xF9F DUP5 DUP3 DUP6 ADD PUSH2 0xF46 JUMP JUMPDEST PUSH1 0x20 DUP4 ADD MSTORE POP SWAP3 SWAP2 POP POP JUMP JUMPDEST PUSH1 0x0 PUSH2 0xFBE PUSH2 0xFB9 DUP5 PUSH2 0xEEF JUMP JUMPDEST PUSH2 0xED4 JUMP JUMPDEST SWAP1 POP DUP1 DUP4 DUP3 MSTORE PUSH1 0x20 DUP3 ADD SWAP1 POP PUSH1 0x40 DUP5 MUL DUP4 ADD DUP6 DUP2 GT ISZERO PUSH2 0xFE1 JUMPI PUSH2 0xFE0 PUSH2 0xF1B JUMP JUMPDEST JUMPDEST DUP4 JUMPDEST DUP2 DUP2 LT ISZERO PUSH2 0x100A JUMPI DUP1 PUSH2 0xFF6 DUP9 DUP3 PUSH2 0xF5B JUMP JUMPDEST DUP5 MSTORE PUSH1 0x20 DUP5 ADD SWAP4 POP POP PUSH1 0x40 DUP2 ADD SWAP1 POP PUSH2 0xFE3 JUMP JUMPDEST POP POP POP SWAP4 SWAP3 POP POP POP JUMP JUMPDEST PUSH1 0x0 DUP3 PUSH1 0x1F DUP4 ADD SLT PUSH2 0x1029 JUMPI PUSH2 0x1028 PUSH2 0xE5E JUMP JUMPDEST JUMPDEST DUP2 CALLDATALOAD PUSH2 0x1039 DUP5 DUP3 PUSH1 0x20 DUP7 ADD PUSH2 0xFAB JUMP JUMPDEST SWAP2 POP POP SWAP3 SWAP2 POP POP JUMP JUMPDEST PUSH1 0x0 PUSH1 0x20 DUP3 DUP5 SUB SLT ISZERO PUSH2 0x1058 JUMPI PUSH2 0x1057 PUSH2 0xD93 JUMP JUMPDEST JUMPDEST PUSH1 0x0 DUP3 ADD CALLDATALOAD PUSH8 0xFFFFFFFFFFFFFFFF DUP2 GT ISZERO PUSH2 0x1076 JUMPI PUSH2 0x1075 PUSH2 0xD98 JUMP JUMPDEST JUMPDEST PUSH2 0x1082 DUP5 DUP3 DUP6 ADD PUSH2 0x1014 JUMP JUMPDEST SWAP2 POP POP SWAP3 SWAP2 POP POP JUMP JUMPDEST PUSH1 0x0 DUP2 SWAP1 POP SWAP2 SWAP1 POP JUMP JUMPDEST PUSH2 0x109E DUP2 PUSH2 0x108B JUMP JUMPDEST DUP2 EQ PUSH2 0x10A9 JUMPI PUSH1 0x0 DUP1 REVERT JUMPDEST POP JUMP JUMPDEST PUSH1 0x0 DUP2 CALLDATALOAD SWAP1 POP PUSH2 0x10BB DUP2 PUSH2 0x1095 JUMP JUMPDEST SWAP3 SWAP2 POP POP JUMP JUMPDEST PUSH1 0x0 PUSH1 0x20 DUP3 DUP5 SUB SLT ISZERO PUSH2 0x10D7 JUMPI PUSH2 0x10D6 PUSH2 0xD93 JUMP JUMPDEST JUMPDEST PUSH1 0x0 PUSH2 0x10E5 DUP5 DUP3 DUP6 ADD PUSH2 0x10AC JUMP JUMPDEST SWAP2 POP POP SWAP3 SWAP2 POP POP JUMP JUMPDEST PUSH1 0x0 DUP2 SWAP1 POP SWAP2 SWAP1 POP JUMP JUMPDEST PUSH2 0x1101 DUP2 PUSH2 0x10EE JUMP JUMPDEST DUP2 EQ PUSH2 0x110C JUMPI PUSH1 0x0 DUP1 REVERT JUMPDEST POP JUMP JUMPDEST PUSH1 0x0 DUP2 CALLDATALOAD SWAP1 POP PUSH2 0x111E DUP2 PUSH2 0x10F8 JUMP JUMPDEST SWAP3 SWAP2 POP POP JUMP JUMPDEST PUSH1 0x0 PUSH1 0x40 DUP3 DUP5 SUB SLT ISZERO PUSH2 0x113A JUMPI PUSH2 0x1139 PUSH2 0xF20 JUMP JUMPDEST JUMPDEST PUSH2 0x1144 PUSH1 0x40 PUSH2 0xED4 JUMP JUMPDEST SWAP1 POP PUSH1 0x0 PUSH2 0x1154 DUP5 DUP3 DUP6 ADD PUSH2 0xDE6 JUMP JUMPDEST PUSH1 0x0 DUP4 ADD MSTORE POP PUSH1 0x20 PUSH2 0x1168 DUP5 DUP3 DUP6 ADD PUSH2 0xF46 JUMP JUMPDEST PUSH1 0x20 DUP4 ADD MSTORE POP SWAP3 SWAP2 POP POP JUMP JUMPDEST PUSH2 0x117D DUP2 PUSH2 0xE28 JUMP JUMPDEST DUP2 EQ PUSH2 0x1188 JUMPI PUSH1 0x0 DUP1 REVERT JUMPDEST POP JUMP JUMPDEST PUSH1 0x0 DUP2 CALLDATALOAD SWAP1 POP PUSH2 0x119A DUP2 PUSH2 0x1174 JUMP JUMPDEST SWAP3 SWAP2 POP POP JUMP JUMPDEST PUSH1 0x0 PUSH2 0x140 DUP3 DUP5 SUB SLT ISZERO PUSH2 0x11B7 JUMPI PUSH2 0x11B6 PUSH2 0xF20 JUMP JUMPDEST JUMPDEST PUSH2 0x11C2 PUSH2 0x100 PUSH2 0xED4 JUMP JUMPDEST SWAP1 POP PUSH1 0x0 PUSH2 0x11D2 DUP5 DUP3 DUP6 ADD PUSH2 0x110F JUMP JUMPDEST PUSH1 0x0 DUP4 ADD MSTORE POP PUSH1 0x20 PUSH2 0x11E6 DUP5 DUP3 DUP6 ADD PUSH2 0x1124 JUMP JUMPDEST PUSH1 0x20 DUP4 ADD MSTORE POP PUSH1 0x60 PUSH2 0x11FA DUP5 DUP3 DUP6 ADD PUSH2 0x1124 JUMP JUMPDEST PUSH1 0x40 DUP4 ADD MSTORE POP PUSH1 0xA0 PUSH2 0x120E DUP5 DUP3 DUP6 ADD PUSH2 0xDE6 JUMP JUMPDEST PUSH1 0x60 DUP4 ADD MSTORE POP PUSH1 0xC0 PUSH2 0x1222 DUP5 DUP3 DUP6 ADD PUSH2 0xDE6 JUMP JUMPDEST PUSH1 0x80 DUP4 ADD MSTORE POP PUSH1 0xE0 PUSH2 0x1236 DUP5 DUP3 DUP6 ADD PUSH2 0xF46 JUMP JUMPDEST PUSH1 0xA0 DUP4 ADD MSTORE POP PUSH2 0x100 PUSH2 0x124B DUP5 DUP3 DUP6 ADD PUSH2 0xF46 JUMP JUMPDEST PUSH1 0xC0 DUP4 ADD MSTORE POP PUSH2 0x120 PUSH2 0x1260 DUP5 DUP3 DUP6 ADD PUSH2 0x118B JUMP JUMPDEST PUSH1 0xE0 DUP4 ADD MSTORE POP SWAP3 SWAP2 POP POP JUMP JUMPDEST PUSH1 0x0 PUSH2 0x140 DUP3 DUP5 SUB SLT ISZERO PUSH2 0x1283 JUMPI PUSH2 0x1282 PUSH2 0xD93 JUMP JUMPDEST JUMPDEST PUSH1 0x0 PUSH2 0x1291 DUP5 DUP3 DUP6 ADD PUSH2 0x11A0 JUMP JUMPDEST SWAP2 POP POP SWAP3 SWAP2 POP POP JUMP JUMPDEST PUSH1 0x0 PUSH1 0x40 DUP3 DUP5 SUB SLT ISZERO PUSH2 0x12B0 JUMPI PUSH2 0x12AF PUSH2 0xF20 JUMP JUMPDEST JUMPDEST PUSH2 0x12BA PUSH1 0x40 PUSH2 0xED4 JUMP JUMPDEST SWAP1 POP PUSH1 0x0 PUSH2 0x12CA DUP5 DUP3 DUP6 ADD PUSH2 0x110F JUMP JUMPDEST PUSH1 0x0 DUP4 ADD MSTORE POP PUSH1 0x20 PUSH2 0x12DE DUP5 DUP3 DUP6 ADD PUSH2 0xDE6 JUMP JUMPDEST PUSH1 0x20 DUP4 ADD MSTORE POP SWAP3 SWAP2 POP POP JUMP JUMPDEST PUSH1 0x0 PUSH1 0x40 DUP3 DUP5 SUB SLT ISZERO PUSH2 0x1300 JUMPI PUSH2 0x12FF PUSH2 0xD93 JUMP JUMPDEST JUMPDEST PUSH1 0x0 PUSH2 0x130E DUP5 DUP3 DUP6 ADD PUSH2 0x129A JUMP JUMPDEST SWAP2 POP POP SWAP3 SWAP2 POP POP JUMP JUMPDEST PUSH32 0x4E487B7100000000000000000000000000000000000000000000000000000000 PUSH1 0x0 MSTORE PUSH1 0x32 PUSH1 0x4 MSTORE PUSH1 0x24 PUSH1 0x0 REVERT JUMPDEST PUSH32 0x4E487B7100000000000000000000000000000000000000000000000000000000 PUSH1 0x0 MSTORE PUSH1 0x11 PUSH1 0x4 MSTORE PUSH1 0x24 PUSH1 0x0 REVERT JUMPDEST PUSH1 0x0 PUSH2 0x1380 DUP3 PUSH2 0xF25 JUMP JUMPDEST SWAP2 POP PUSH2 0x138B DUP4 PUSH2 0xF25 JUMP JUMPDEST SWAP3 POP DUP3 DUP3 ADD SWAP1 POP DUP1 DUP3 GT ISZERO PUSH2 0x13A3 JUMPI PUSH2 0x13A2 PUSH2 0x1346 JUMP JUMPDEST JUMPDEST SWAP3 SWAP2 POP POP JUMP JUMPDEST PUSH1 0x0 PUSH2 0x13B4 DUP3 PUSH2 0xF25 JUMP JUMPDEST SWAP2 POP PUSH32 0xFFFFFFFFFFFFFFFFFFFFFFFFFFFFFFFFFFFFFFFFFFFFFFFFFFFFFFFFFFFFFFFF DUP3 SUB PUSH2 0x13E6 JUMPI PUSH2 0x13E5 PUSH2 0x1346 JUMP JUMPDEST JUMPDEST PUSH1 0x1 DUP3 ADD SWAP1 POP SWAP2 SWAP1 POP JUMP JUMPDEST PUSH2 0x13FA DUP2 PUSH2 0xDBD JUMP JUMPDEST DUP3 MSTORE POP POP JUMP JUMPDEST PUSH1 0x0 PUSH1 0x20 DUP3 ADD SWAP1 POP PUSH2 0x1415 PUSH1 0x0 DUP4 ADD DUP5 PUSH2 0x13F1 JUMP JUMPDEST SWAP3 SWAP2 POP POP JUMP JUMPDEST PUSH2 0x1424 DUP2 PUSH2 0xF25 JUMP JUMPDEST DUP3 MSTORE POP POP JUMP JUMPDEST PUSH1 0x0 PUSH1 0x40 DUP3 ADD SWAP1 POP PUSH2 0x143F PUSH1 0x0 DUP4 ADD DUP6 PUSH2 0x141B JUMP JUMPDEST PUSH2 0x144C PUSH1 0x20 DUP4 ADD DUP5 PUSH2 0x141B JUMP JUMPDEST SWAP4 SWAP3 POP POP POP JUMP INVALID LOG2 PUSH5 0x6970667358 0x22 SLT KECCAK256 0xCA OR SWAP5 SWAP16 PUSH20 0x3B224CBFD7CF5E8E91529B9BEB924D44DDA0C6CE 0x25 PUSH20 0x4C4214A05E64736F6C6343000814003300000000 "},"methodIdentifiers":{"isContract(address)":"16279055","validateCancelSwap(IAtomicSwapBase.AtomicSwapOrder storage)":"c3aee15d","validateMakeSwapParams(IAtomicSwapBase.MakeSwapMsg)":"9a0ebe00","validateTakeSwap(IAtomicSwapBase.AtomicSwapOrder storage)":"7aa10b6a","validateTakeSwapParams(IAtomicSwapBase.TakeSwapMsg)":"c27eeaac","validateVestingParams(IAtomicSwapBase.Release[])":"33b988f5"}},"storageLayout":{"storage":[],"types":null}}}}