{"contracts/vesting/Vesting.sol":{"Vesting":{"abi":[{"inputs":[],"name":"InvalidInitialization","type":"error"},{"inputs":[],"name":"InvalidTotalPercentage","type":"error"},{"inputs":[],"name":"InvalidVesting","type":"error"},{"inputs":[],"name":"NoVestedTokensAvailable","type":"error"},{"inputs":[],"name":"NoVestedTokensForRelease","type":"error"},{"inputs":[{"internalType":"uint256","name":"amount","type":"uint256"},{"internalType":"uint256","name":"allowance","type":"uint256"}],"name":"NotAllowedTransferAmount","type":"error"},{"inputs":[{"internalType":"uint256","name":"real","type":"uint256"},{"internalType":"uint256","name":"expected","type":"uint256"}],"name":"NotEnoughFund","type":"error"},{"inputs":[],"name":"NotInitializing","type":"error"},{"inputs":[],"name":"OverMaximumReleaseStep","type":"error"},{"inputs":[{"internalType":"address","name":"owner","type":"address"}],"name":"OwnableInvalidOwner","type":"error"},{"inputs":[{"internalType":"address","name":"account","type":"address"}],"name":"OwnableUnauthorizedAccount","type":"error"},{"inputs":[],"name":"ReentrancyGuardReentrantCall","type":"error"},{"inputs":[{"internalType":"address","name":"to","type":"address"},{"internalType":"uint256","name":"amount","type":"uint256"}],"name":"TransferFailed","type":"error"},{"inputs":[{"internalType":"address","name":"from","type":"address"},{"internalType":"address","name":"to","type":"address"},{"internalType":"uint256","name":"amount","type":"uint256"}],"name":"TransferFromFailed","type":"error"},{"inputs":[{"internalType":"address","name":"recipient","type":"address"},{"internalType":"uint256","name":"amount","type":"uint256"}],"name":"TransferToRecipientFailed","type":"error"},{"inputs":[{"internalType":"address","name":"beneficiary","type":"address"}],"name":"VestingAlreadyStarted","type":"error"},{"inputs":[],"name":"VestingNotStarted","type":"error"},{"anonymous":false,"inputs":[{"indexed":false,"internalType":"uint64","name":"version","type":"uint64"}],"name":"Initialized","type":"event"},{"anonymous":false,"inputs":[{"components":[{"components":[{"internalType":"address","name":"from","type":"address"},{"internalType":"uint256","name":"start","type":"uint256"},{"internalType":"address","name":"token","type":"address"},{"internalType":"uint256","name":"totalAmount","type":"uint256"},{"internalType":"uint256","name":"amountReleased","type":"uint256"},{"internalType":"uint256","name":"lastReleasedStep","type":"uint256"}],"internalType":"struct IVesting.VestingSchedule","name":"schedule","type":"tuple"},{"components":[{"internalType":"uint256","name":"durationInHours","type":"uint256"},{"internalType":"uint256","name":"percentage","type":"uint256"}],"internalType":"struct IAtomicSwapBase.Release[]","name":"release","type":"tuple[]"},{"internalType":"address","name":"beneficiary","type":"address"},{"internalType":"bytes32","name":"orderId","type":"bytes32"}],"indexed":true,"internalType":"struct IVesting.VestingInfo","name":"vesting","type":"tuple"}],"name":"NewVesting","type":"event"},{"anonymous":false,"inputs":[{"indexed":true,"internalType":"address","name":"previousOwner","type":"address"},{"indexed":true,"internalType":"address","name":"newOwner","type":"address"}],"name":"OwnershipTransferred","type":"event"},{"anonymous":false,"inputs":[{"indexed":true,"internalType":"address","name":"sender","type":"address"},{"indexed":true,"internalType":"uint256","name":"amount","type":"uint256"}],"name":"Received","type":"event"},{"anonymous":false,"inputs":[{"indexed":true,"internalType":"address","name":"beneficiary","type":"address"},{"indexed":true,"internalType":"uint256","name":"amount","type":"uint256"}],"name":"Released","type":"event"},{"inputs":[{"internalType":"address","name":"_admin","type":"address"}],"name":"initialize","outputs":[],"stateMutability":"nonpayable","type":"function"},{"inputs":[],"name":"owner","outputs":[{"internalType":"address","name":"","type":"address"}],"stateMutability":"view","type":"function"},{"inputs":[{"internalType":"address","name":"beneficiary","type":"address"},{"internalType":"bytes32","name":"orderId","type":"bytes32"}],"name":"release","outputs":[],"stateMutability":"nonpayable","type":"function"},{"inputs":[{"internalType":"address","name":"","type":"address"},{"internalType":"bytes32","name":"","type":"bytes32"},{"internalType":"uint256","name":"","type":"uint256"}],"name":"releaseInfos","outputs":[{"internalType":"uint256","name":"durationInHours","type":"uint256"},{"internalType":"uint256","name":"percentage","type":"uint256"}],"stateMutability":"view","type":"function"},{"inputs":[],"name":"renounceOwnership","outputs":[],"stateMutability":"nonpayable","type":"function"},{"inputs":[{"internalType":"bytes32","name":"orderId","type":"bytes32"},{"internalType":"address","name":"beneficiary","type":"address"},{"internalType":"address","name":"token","type":"address"},{"internalType":"uint256","name":"totalAmount","type":"uint256"},{"components":[{"internalType":"uint256","name":"durationInHours","type":"uint256"},{"internalType":"uint256","name":"percentage","type":"uint256"}],"internalType":"struct IAtomicSwapBase.Release[]","name":"releases","type":"tuple[]"}],"name":"startVesting","outputs":[],"stateMutability":"payable","type":"function"},{"inputs":[{"internalType":"address","name":"newOwner","type":"address"}],"name":"transferOwnership","outputs":[],"stateMutability":"nonpayable","type":"function"},{"inputs":[{"internalType":"address","name":"","type":"address"},{"internalType":"bytes32","name":"","type":"bytes32"}],"name":"vestingSchedules","outputs":[{"internalType":"address","name":"from","type":"address"},{"internalType":"uint256","name":"start","type":"uint256"},{"internalType":"address","name":"token","type":"address"},{"internalType":"uint256","name":"totalAmount","type":"uint256"},{"internalType":"uint256","name":"amountReleased","type":"uint256"},{"internalType":"uint256","name":"lastReleasedStep","type":"uint256"}],"stateMutability":"view","type":"function"},{"stateMutability":"payable","type":"receive"}],"evm":{"bytecode":{"linkReferences":{},"object":"608060405234801561001057600080fd5b5061273b806100206000396000f3fe60806040526004361061007f5760003560e01c80638da5cb5b1161004e5780638da5cb5b14610196578063c4d66de8146101c1578063d7c2eec7146101ea578063f2fde38b14610213576100de565b8063715018a6146100e35780637623f00e146100fa5780637b00ffad1461011657806382a969e214610158576100de565b366100de5761009867626c14372c802ee660c01b61023c565b343373ffffffffffffffffffffffffffffffffffffffff167f88a5966d370b9919b20f3e2c13ff65706f196a4e32cc2c12bf57088f8852587460405160405180910390a3005b600080fd5b3480156100ef57600080fd5b506100f861023f565b005b610114600480360381019061010f9190611f2b565b610253565b005b34801561012257600080fd5b5061013d60048036038101906101389190611fc2565b6107b2565b60405161014f96959493929190612020565b60405180910390f35b34801561016457600080fd5b5061017f600480360381019061017a9190612081565b61083b565b60405161018d9291906120d4565b60405180910390f35b3480156101a257600080fd5b506101ab610889565b6040516101b891906120fd565b60405180910390f35b3480156101cd57600080fd5b506101e860048036038101906101e39190612118565b6108c1565b005b3480156101f657600080fd5b50610211600480360381019061020c9190611fc2565b610ab4565b005b34801561021f57600080fd5b5061023a60048036038101906102359190612118565b611354565b005b50565b6102476113da565b6102516000611461565b565b6102676764ce3547672f6b1f60c01b61023c565b61027b679d116e679729d01b60c01b61023c565b61028f6712e7a7f6e75a572b60c01b61023c565b600073ffffffffffffffffffffffffffffffffffffffff168373ffffffffffffffffffffffffffffffffffffffff1603610386576102d767174c9874765ed83860c01b61023c565b6102eb67060b00d450914fa760c01b61023c565b6102ff677fda6ed3d313f4f260c01b61023c565b81341461036d5761031a6708763aa591c5eee260c01b61023c565b61032e67cc6579f9796c65de60c01b61023c565b81346040517f04157bb40000000000000000000000000000000000000000000000000000000081526004016103649291906120d4565b60405180910390fd5b6103816726e2114294ca7ecc60c01b61023c565b6103f0565b61039a670d88a9f3e610ceed60c01b61023c565b6103ae67967701fce9a67fbf60c01b61023c565b6103c267d6a2bd0705e6a7cf60c01b61023c565b6103ef3330848673ffffffffffffffffffffffffffffffffffffffff16611538909392919063ffffffff16565b5b610404670a9af94e0e65fff360c01b61023c565b61041867ba653c1fb773c14160c01b61023c565b600042905061043167563cdfdf96bcb9e760c01b61023c565b61044567626ef6009750a13b60c01b61023c565b60006040518060c001604052803373ffffffffffffffffffffffffffffffffffffffff1681526020018381526020018673ffffffffffffffffffffffffffffffffffffffff16815260200185815260200160008152602001600081525090506104b867edf4fd815ba70d5d60c01b61023c565b806000808873ffffffffffffffffffffffffffffffffffffffff1673ffffffffffffffffffffffffffffffffffffffff168152602001908152602001600020600089815260200190815260200160002060008201518160000160006101000a81548173ffffffffffffffffffffffffffffffffffffffff021916908373ffffffffffffffffffffffffffffffffffffffff1602179055506020820151816001015560408201518160020160006101000a81548173ffffffffffffffffffffffffffffffffffffffff021916908373ffffffffffffffffffffffffffffffffffffffff160217905550606082015181600301556080820151816004015560a082015181600501559050506105d5673ce50746b132e6cd60c01b61023c565b6105e967191037c42923ca8160c01b61023c565b6000600160008873ffffffffffffffffffffffffffffffffffffffff1673ffffffffffffffffffffffffffffffffffffffff16815260200190815260200160002060008981526020019081526020016000209050610651676c409758cf0567c160c01b61023c565b610665671de87474d515cd4760c01b61023c565b60005b84518110156107075761068567cf9561ac1e8a354260c01b61023c565b610699674f9a2e46351ae1fc60c01b61023c565b818582815181106106ad576106ac612145565b5b602002602001015190806001815401808255809150506001900390600052602060002090600202016000909190919091506000820151816000015560208201518160010155505080806106ff906121a3565b915050610668565b5061071c674f6deb350bd0620460c01b61023c565b61073067d8fbe129f0398d1360c01b61023c565b60405180608001604052808381526020018581526020018873ffffffffffffffffffffffffffffffffffffffff16815260200189815250604051610774919061242e565b60405180910390207fb16abbea6ba3704f5f2a80a6e86817bd96545258a4bbe645becfc85ab722675260405160405180910390a25050505050505050565b6000602052816000526040600020602052806000526040600020600091509150508060000160009054906101000a900473ffffffffffffffffffffffffffffffffffffffff16908060010154908060020160009054906101000a900473ffffffffffffffffffffffffffffffffffffffff16908060030154908060040154908060050154905086565b6001602052826000526040600020602052816000526040600020818154811061086357600080fd5b906000526020600020906002020160009250925050508060000154908060010154905082565b60008061089461194f565b90508060000160009054906101000a900473ffffffffffffffffffffffffffffffffffffffff1691505090565b6108d56746dc4b68608d920d60c01b61023c565b60006108df611977565b905060008160000160089054906101000a900460ff1615905060008260000160009054906101000a900467ffffffffffffffff1690506000808267ffffffffffffffff1614801561092d5750825b9050600060018367ffffffffffffffff16148015610962575060003073ffffffffffffffffffffffffffffffffffffffff163b145b905081158015610970575080155b156109a7576040517ff92ee8a900000000000000000000000000000000000000000000000000000000815260040160405180910390fd5b60018560000160006101000a81548167ffffffffffffffff021916908367ffffffffffffffff16021790555083156109f75760018560000160086101000a81548160ff0219169083151502179055505b610a0b67076485d4d9c34b8260c01b61023c565b610a1f6784a310f45c070b0060c01b61023c565b610a3367690e9f74bdd95f0b60c01b61023c565b610a476721f15a17e18744c560c01b61023c565b610a508661199f565b8315610aac5760008560000160086101000a81548160ff0219169083151502179055507fc7f505b2f371ae2175ee4913f4499e1f2633a7b5936321eed1cdaeb6115181d26001604051610aa3919061249e565b60405180910390a15b505050505050565b610ac867c2ad1f8a748d091c60c01b61023c565b610ad0611a25565b610ae4676e9cded4ec78c91460c01b61023c565b610af8678d212f793f1446f560c01b61023c565b610b0c67b2a33b4eabcedf7660c01b61023c565b610b2067a5ab2c257dc3722960c01b61023c565b60008060008473ffffffffffffffffffffffffffffffffffffffff1673ffffffffffffffffffffffffffffffffffffffff16815260200190815260200160002060008381526020019081526020016000209050610b8767fa0318ec2d14460760c01b61023c565b610b9b6790c605381bf3787260c01b61023c565b6000600160008573ffffffffffffffffffffffffffffffffffffffff1673ffffffffffffffffffffffffffffffffffffffff16815260200190815260200160002060008481526020019081526020016000209050610c0367d4d233e2ddc3506460c01b61023c565b610c1767d7dfbf9bc845b7c660c01b61023c565b8160010154421015610c7d57610c3767d8050d480ca583fc60c01b61023c565b610c4b6766cb256f53dc550a60c01b61023c565b6040517f35549be800000000000000000000000000000000000000000000000000000000815260040160405180910390fd5b610c91675b6faf1ecbd04b2d60c01b61023c565b610ca5674190c232e5f4857a60c01b61023c565b610cb967656bd59471f39a0a60c01b61023c565b60008180549050148015610cdd5750610cdc67197dc519081d346960c01b611a7c565b5b80610d0c57508080549050826005015410158015610d0b5750610d0a67d9d591f25317779b60c01b611a7c565b5b5b15610d6b57610d256732ae366d8dcfbbca60c01b61023c565b610d3967b8d84165513d37b160c01b61023c565b6040517f8bdb538100000000000000000000000000000000000000000000000000000000815260040160405180910390fd5b610d7f671b4c099900fcc18c60c01b61023c565b610d936798279d5ba7c606da60c01b61023c565b610da767713082e1c6f5a7b060c01b61023c565b6000610dbd67ac28a9ade5cec69360c01b61023c565b610dd167baaa4fc732ce9b5360c01b61023c565b600083600101549050610dee6744638803f9ee2bcf60c01b61023c565b610e0267dc2a203cf63a5eac60c01b61023c565b6000846005015490505b8380549050811015610fa857610e2c67a0ccb692683e52aa60c01b61023c565b610e10848281548110610e4257610e41612145565b5b906000526020600020906002020160000154610e5e91906124b9565b82610e6991906124fb565b9150610e7f6751789acee37d71c360c01b61023c565b610e936705848bcd45c9ca6760c01b61023c565b81421015610ec857610eaf6720426a53772b012360c01b61023c565b610ec36705e5658b8ffab72160c01b61023c565b610fa8565b610edc67a808fe4aa1277e8a60c01b61023c565b610ef06750b80b22e691662760c01b61023c565b610f0467b3ab70738d9307cf60c01b61023c565b6000612710858381548110610f1c57610f1b612145565b5b9060005260206000209060020201600101548760030154610f3d91906124b9565b610f47919061255e565b9050610f5d67d5b4d623607a0b0860c01b61023c565b8084610f6991906124fb565b9350610f7f67943e5da236990e1060c01b61023c565b600182610f8c91906124fb565b8660050181905550508080610fa0906121a3565b915050610e0c565b50610fbd673c07df66f2bb5e4a60c01b61023c565b610fd1677494c9e3f399ea5960c01b61023c565b6000821161103357610fed67f8bd6bf00a04551160c01b61023c565b61100167f892925af9cd822860c01b61023c565b6040517f3507415000000000000000000000000000000000000000000000000000000000815260040160405180910390fd5b61104767c43072b3aaee685260c01b61023c565b61105b67051d4a041eeca15e60c01b61023c565b8184600401600082825461106f91906124fb565b9250508190555061108a677c892e5c80bc7d1d60c01b61023c565b61109e67b37e8466b07d884060c01b61023c565b600073ffffffffffffffffffffffffffffffffffffffff168460020160009054906101000a900473ffffffffffffffffffffffffffffffffffffffff1673ffffffffffffffffffffffffffffffffffffffff16146111865761110a67b8ea0ea9edba6a0460c01b61023c565b61111e6729556080f295801160c01b61023c565b61113267de94bb7392a3616060c01b61023c565b61118186838660020160009054906101000a900473ffffffffffffffffffffffffffffffffffffffff1673ffffffffffffffffffffffffffffffffffffffff16611a879092919063ffffffff16565b6112d8565b61119a67bd3f480f97e2c88160c01b61023c565b6111ae67e3eb6e909bdaa8d960c01b61023c565b6111c26710889d049e78a6ae60c01b61023c565b60008673ffffffffffffffffffffffffffffffffffffffff16836040516111e8906125c0565b60006040518083038185875af1925050503d8060008114611225576040519150601f19603f3d011682016040523d82523d6000602084013e61122a565b606091505b5050905061124267db1f75804fe1608760c01b61023c565b61125667eb2a03d2e885c84b60c01b61023c565b806112c25761126f678a2b25401adc715860c01b61023c565b611283675187465849efe27a60c01b61023c565b86836040517fbcaf58d00000000000000000000000000000000000000000000000000000000081526004016112b99291906125d5565b60405180910390fd5b6112d667abffdfb58e93328560c01b61023c565b505b6112ec67b9a938d5d99cf12860c01b61023c565b611300671704aaea6cfa94b560c01b61023c565b818673ffffffffffffffffffffffffffffffffffffffff167fb21fb52d5749b80f3182f8c6992236b5e5576681880914484d7f4c9b062e619e60405160405180910390a350505050611350611bf3565b5050565b61135c6113da565b600073ffffffffffffffffffffffffffffffffffffffff168173ffffffffffffffffffffffffffffffffffffffff16036113ce5760006040517f1e4fbdf70000000000000000000000000000000000000000000000000000000081526004016113c591906120fd565b60405180910390fd5b6113d781611461565b50565b6113e2611c0c565b73ffffffffffffffffffffffffffffffffffffffff16611400610889565b73ffffffffffffffffffffffffffffffffffffffff161461145f57611423611c0c565b6040517f118cdaa700000000000000000000000000000000000000000000000000000000815260040161145691906120fd565b60405180910390fd5b565b600061146b61194f565b905060008160000160009054906101000a900473ffffffffffffffffffffffffffffffffffffffff169050828260000160006101000a81548173ffffffffffffffffffffffffffffffffffffffff021916908373ffffffffffffffffffffffffffffffffffffffff1602179055508273ffffffffffffffffffffffffffffffffffffffff168173ffffffffffffffffffffffffffffffffffffffff167f8be0079c531659141344cd1fd0a4f28419497f9722a3daafe3b4186f6b6457e060405160405180910390a3505050565b61154c67d5bb11b40b8d85de60c01b611c14565b61156067e0c2ee17bb22d96c60c01b611c14565b611574676de994029db56a8160c01b611c14565b600084905061158d670260d199604f632360c01b611c14565b6115a167ff7443fc8f01649f60c01b611c14565b60008173ffffffffffffffffffffffffffffffffffffffff1663dd62ed3e86306040518363ffffffff1660e01b81526004016115de9291906125fe565b602060405180830381865afa1580156115fb573d6000803e3d6000fd5b505050506040513d601f19601f8201168201806040525081019061161f919061263c565b9050611635670eb73587eab1b39260c01b611c14565b611649670fe23579011748ec60c01b611c14565b828110156116b85761166567b8c562dbe1562d6260c01b611c14565b611679675483ff18762645e360c01b611c14565b80836040517f7c8db62f0000000000000000000000000000000000000000000000000000000081526004016116af9291906120d4565b60405180910390fd5b6116cc675e9099c83112ec5e60c01b611c14565b6116e06780b579eda42621de60c01b611c14565b6116f467f0be8341f779e4c560c01b611c14565b60008273ffffffffffffffffffffffffffffffffffffffff166370a08231876040518263ffffffff1660e01b815260040161172f91906120fd565b602060405180830381865afa15801561174c573d6000803e3d6000fd5b505050506040513d601f19601f82011682018060405250810190611770919061263c565b905061178667165099529f52e6aa60c01b611c14565b61179a6733dddeae6f26392460c01b611c14565b83811015611809576117b6675a4fd416a36b0ea960c01b611c14565b6117ca67b4190ea1c3f3fb8c60c01b611c14565b80846040517f04157bb40000000000000000000000000000000000000000000000000000000081526004016118009291906120d4565b60405180910390fd5b61181d67294d4201cb443c2b60c01b611c14565b611831672001196c2885b22a60c01b611c14565b611845677ea5c946caf682e860c01b611c14565b8273ffffffffffffffffffffffffffffffffffffffff166323b872dd8787876040518463ffffffff1660e01b815260040161188293929190612669565b6020604051808303816000875af11580156118a1573d6000803e3d6000fd5b505050506040513d601f19601f820116820180604052508101906118c591906126d8565b611932576118dd6794bddaae641e02da60c01b611c14565b6118f167fbf0ce16b7f9d5b860c01b611c14565b8585856040517fca7f5f0e00000000000000000000000000000000000000000000000000000000815260040161192993929190612669565b60405180910390fd5b611946679935c26a8ebc4c5960c01b611c14565b50505050505050565b60007f9016d09d72d40fdae2fd8ceac6b6234c7706214fd39c1cd1e609a0528c199300905090565b60007ff0c57e16840df040f15088dc2f81fe391c3923bec73e23a9662efc9c229c6a00905090565b6119a7611c17565b600073ffffffffffffffffffffffffffffffffffffffff168173ffffffffffffffffffffffffffffffffffffffff1603611a195760006040517f1e4fbdf7000000000000000000000000000000000000000000000000000000008152600401611a1091906120fd565b60405180910390fd5b611a2281611461565b50565b6000611a2f611c57565b90506002816000015403611a6f576040517f3ee5aeb500000000000000000000000000000000000000000000000000000000815260040160405180910390fd5b6002816000018190555050565b600060019050919050565b611a9b67acef6ba5cb7b0da460c01b611c14565b611aaf67547f2e2c49b2d62060c01b611c14565b611ac36740f0d2ae8d2efd0860c01b611c14565b6000839050611adc67617c27e05e4586ad60c01b611c14565b611af0679382a20c72ca1b2b60c01b611c14565b8073ffffffffffffffffffffffffffffffffffffffff1663a9059cbb84846040518363ffffffff1660e01b8152600401611b2b9291906125d5565b6020604051808303816000875af1158015611b4a573d6000803e3d6000fd5b505050506040513d601f19601f82011682018060405250810190611b6e91906126d8565b611bd957611b86673ab56001dc249f5860c01b611c14565b611b9a673cbbc04e9c19dc4260c01b611c14565b82826040517f1c43b976000000000000000000000000000000000000000000000000000000008152600401611bd09291906125d5565b60405180910390fd5b611bed67fda467ec834b964f60c01b611c14565b50505050565b6000611bfd611c57565b90506001816000018190555050565b600033905090565b50565b611c1f611c7f565b611c55576040517fd7e6bcf800000000000000000000000000000000000000000000000000000000815260040160405180910390fd5b565b60007f9b779b17422d0df92223018b32b4d1fa46e071723d6817e2486d003becc55f00905090565b6000611c89611977565b60000160089054906101000a900460ff16905090565b6000604051905090565b600080fd5b600080fd5b6000819050919050565b611cc681611cb3565b8114611cd157600080fd5b50565b600081359050611ce381611cbd565b92915050565b600073ffffffffffffffffffffffffffffffffffffffff82169050919050565b6000611d1482611ce9565b9050919050565b611d2481611d09565b8114611d2f57600080fd5b50565b600081359050611d4181611d1b565b92915050565b6000819050919050565b611d5a81611d47565b8114611d6557600080fd5b50565b600081359050611d7781611d51565b92915050565b600080fd5b6000601f19601f8301169050919050565b7f4e487b7100000000000000000000000000000000000000000000000000000000600052604160045260246000fd5b611dcb82611d82565b810181811067ffffffffffffffff82111715611dea57611de9611d93565b5b80604052505050565b6000611dfd611c9f565b9050611e098282611dc2565b919050565b600067ffffffffffffffff821115611e2957611e28611d93565b5b602082029050602081019050919050565b600080fd5b600080fd5b600060408284031215611e5a57611e59611e3f565b5b611e646040611df3565b90506000611e7484828501611d68565b6000830152506020611e8884828501611d68565b60208301525092915050565b6000611ea7611ea284611e0e565b611df3565b90508083825260208201905060408402830185811115611eca57611ec9611e3a565b5b835b81811015611ef35780611edf8882611e44565b845260208401935050604081019050611ecc565b5050509392505050565b600082601f830112611f1257611f11611d7d565b5b8135611f22848260208601611e94565b91505092915050565b600080600080600060a08688031215611f4757611f46611ca9565b5b6000611f5588828901611cd4565b9550506020611f6688828901611d32565b9450506040611f7788828901611d32565b9350506060611f8888828901611d68565b925050608086013567ffffffffffffffff811115611fa957611fa8611cae565b5b611fb588828901611efd565b9150509295509295909350565b60008060408385031215611fd957611fd8611ca9565b5b6000611fe785828601611d32565b9250506020611ff885828601611cd4565b9150509250929050565b61200b81611d09565b82525050565b61201a81611d47565b82525050565b600060c0820190506120356000830189612002565b6120426020830188612011565b61204f6040830187612002565b61205c6060830186612011565b6120696080830185612011565b61207660a0830184612011565b979650505050505050565b60008060006060848603121561209a57612099611ca9565b5b60006120a886828701611d32565b93505060206120b986828701611cd4565b92505060406120ca86828701611d68565b9150509250925092565b60006040820190506120e96000830185612011565b6120f66020830184612011565b9392505050565b60006020820190506121126000830184612002565b92915050565b60006020828403121561212e5761212d611ca9565b5b600061213c84828501611d32565b91505092915050565b7f4e487b7100000000000000000000000000000000000000000000000000000000600052603260045260246000fd5b7f4e487b7100000000000000000000000000000000000000000000000000000000600052601160045260246000fd5b60006121ae82611d47565b91507fffffffffffffffffffffffffffffffffffffffffffffffffffffffffffffffff82036121e0576121df612174565b5b600182019050919050565b6121f481611d09565b82525050565b600061220683836121eb565b60208301905092915050565b61221b81611d47565b82525050565b600061222d8383612212565b60208301905092915050565b60008201600082015161224c84826121fa565b935050602082015161225e8482612221565b935050604082015161227084826121fa565b93505060608201516122828482612221565b93505060808201516122948482612221565b93505060a08201516122a68482612221565b935050505050565b60006122ba8383612239565b60c08301905092915050565b600081519050919050565b600081905092915050565b6000819050602082019050919050565b6000820160008201516122ff8482612221565b93505060208201516123118482612221565b935050505050565b600061232583836122ec565b60408301905092915050565b6000602082019050919050565b6000612349826122c6565b61235381856122d1565b935061235e836122dc565b8060005b8381101561238f5781516123768882612319565b975061238183612331565b925050600181019050612362565b5085935050505092915050565b60006123a8838361233e565b905092915050565b6123b981611cb3565b82525050565b60006123cb83836123b0565b60208301905092915050565b600080830160008301516123eb85826122ae565b94505060208301516123fd858261239c565b945050604083015161240f85826121fa565b945050606083015161242185826123bf565b9450508391505092915050565b600061243a82846123d7565b915081905092915050565b6000819050919050565b600067ffffffffffffffff82169050919050565b6000819050919050565b600061248861248361247e84612445565b612463565b61244f565b9050919050565b6124988161246d565b82525050565b60006020820190506124b3600083018461248f565b92915050565b60006124c482611d47565b91506124cf83611d47565b92508282026124dd81611d47565b915082820484148315176124f4576124f3612174565b5b5092915050565b600061250682611d47565b915061251183611d47565b925082820190508082111561252957612528612174565b5b92915050565b7f4e487b7100000000000000000000000000000000000000000000000000000000600052601260045260246000fd5b600061256982611d47565b915061257483611d47565b9250826125845761258361252f565b5b828204905092915050565b600081905092915050565b50565b60006125aa60008361258f565b91506125b58261259a565b600082019050919050565b60006125cb8261259d565b9150819050919050565b60006040820190506125ea6000830185612002565b6125f76020830184612011565b9392505050565b60006040820190506126136000830185612002565b6126206020830184612002565b9392505050565b60008151905061263681611d51565b92915050565b60006020828403121561265257612651611ca9565b5b600061266084828501612627565b91505092915050565b600060608201905061267e6000830186612002565b61268b6020830185612002565b6126986040830184612011565b949350505050565b60008115159050919050565b6126b5816126a0565b81146126c057600080fd5b50565b6000815190506126d2816126ac565b92915050565b6000602082840312156126ee576126ed611ca9565b5b60006126fc848285016126c3565b9150509291505056fea26469706673582212207bc7185fb7f0fee2b5e0e23205f3afa3c0a152c0c714cf400cb416a7b9e8eac064736f6c63430008140033","opcodes":"PUSH1 0x80 PUSH1 0x40 MSTORE CALLVALUE DUP1 ISZERO PUSH2 0x10 JUMPI PUSH1 0x0 DUP1 REVERT JUMPDEST POP PUSH2 0x273B DUP1 PUSH2 0x20 PUSH1 0x0 CODECOPY PUSH1 0x0 RETURN INVALID PUSH1 0x80 PUSH1 0x40 MSTORE PUSH1 0x4 CALLDATASIZE LT PUSH2 0x7F JUMPI PUSH1 0x0 CALLDATALOAD PUSH1 0xE0 SHR DUP1 PUSH4 0x8DA5CB5B GT PUSH2 0x4E JUMPI DUP1 PUSH4 0x8DA5CB5B EQ PUSH2 0x196 JUMPI DUP1 PUSH4 0xC4D66DE8 EQ PUSH2 0x1C1 JUMPI DUP1 PUSH4 0xD7C2EEC7 EQ PUSH2 0x1EA JUMPI DUP1 PUSH4 0xF2FDE38B EQ PUSH2 0x213 JUMPI PUSH2 0xDE JUMP JUMPDEST DUP1 PUSH4 0x715018A6 EQ PUSH2 0xE3 JUMPI DUP1 PUSH4 0x7623F00E EQ PUSH2 0xFA JUMPI DUP1 PUSH4 0x7B00FFAD EQ PUSH2 0x116 JUMPI DUP1 PUSH4 0x82A969E2 EQ PUSH2 0x158 JUMPI PUSH2 0xDE JUMP JUMPDEST CALLDATASIZE PUSH2 0xDE JUMPI PUSH2 0x98 PUSH8 0x626C14372C802EE6 PUSH1 0xC0 SHL PUSH2 0x23C JUMP JUMPDEST CALLVALUE CALLER PUSH20 0xFFFFFFFFFFFFFFFFFFFFFFFFFFFFFFFFFFFFFFFF AND PUSH32 0x88A5966D370B9919B20F3E2C13FF65706F196A4E32CC2C12BF57088F88525874 PUSH1 0x40 MLOAD PUSH1 0x40 MLOAD DUP1 SWAP2 SUB SWAP1 LOG3 STOP JUMPDEST PUSH1 0x0 DUP1 REVERT JUMPDEST CALLVALUE DUP1 ISZERO PUSH2 0xEF JUMPI PUSH1 0x0 DUP1 REVERT JUMPDEST POP PUSH2 0xF8 PUSH2 0x23F JUMP JUMPDEST STOP JUMPDEST PUSH2 0x114 PUSH1 0x4 DUP1 CALLDATASIZE SUB DUP2 ADD SWAP1 PUSH2 0x10F SWAP2 SWAP1 PUSH2 0x1F2B JUMP JUMPDEST PUSH2 0x253 JUMP JUMPDEST STOP JUMPDEST CALLVALUE DUP1 ISZERO PUSH2 0x122 JUMPI PUSH1 0x0 DUP1 REVERT JUMPDEST POP PUSH2 0x13D PUSH1 0x4 DUP1 CALLDATASIZE SUB DUP2 ADD SWAP1 PUSH2 0x138 SWAP2 SWAP1 PUSH2 0x1FC2 JUMP JUMPDEST PUSH2 0x7B2 JUMP JUMPDEST PUSH1 0x40 MLOAD PUSH2 0x14F SWAP7 SWAP6 SWAP5 SWAP4 SWAP3 SWAP2 SWAP1 PUSH2 0x2020 JUMP JUMPDEST PUSH1 0x40 MLOAD DUP1 SWAP2 SUB SWAP1 RETURN JUMPDEST CALLVALUE DUP1 ISZERO PUSH2 0x164 JUMPI PUSH1 0x0 DUP1 REVERT JUMPDEST POP PUSH2 0x17F PUSH1 0x4 DUP1 CALLDATASIZE SUB DUP2 ADD SWAP1 PUSH2 0x17A SWAP2 SWAP1 PUSH2 0x2081 JUMP JUMPDEST PUSH2 0x83B JUMP JUMPDEST PUSH1 0x40 MLOAD PUSH2 0x18D SWAP3 SWAP2 SWAP1 PUSH2 0x20D4 JUMP JUMPDEST PUSH1 0x40 MLOAD DUP1 SWAP2 SUB SWAP1 RETURN JUMPDEST CALLVALUE DUP1 ISZERO PUSH2 0x1A2 JUMPI PUSH1 0x0 DUP1 REVERT JUMPDEST POP PUSH2 0x1AB PUSH2 0x889 JUMP JUMPDEST PUSH1 0x40 MLOAD PUSH2 0x1B8 SWAP2 SWAP1 PUSH2 0x20FD JUMP JUMPDEST PUSH1 0x40 MLOAD DUP1 SWAP2 SUB SWAP1 RETURN JUMPDEST CALLVALUE DUP1 ISZERO PUSH2 0x1CD JUMPI PUSH1 0x0 DUP1 REVERT JUMPDEST POP PUSH2 0x1E8 PUSH1 0x4 DUP1 CALLDATASIZE SUB DUP2 ADD SWAP1 PUSH2 0x1E3 SWAP2 SWAP1 PUSH2 0x2118 JUMP JUMPDEST PUSH2 0x8C1 JUMP JUMPDEST STOP JUMPDEST CALLVALUE DUP1 ISZERO PUSH2 0x1F6 JUMPI PUSH1 0x0 DUP1 REVERT JUMPDEST POP PUSH2 0x211 PUSH1 0x4 DUP1 CALLDATASIZE SUB DUP2 ADD SWAP1 PUSH2 0x20C SWAP2 SWAP1 PUSH2 0x1FC2 JUMP JUMPDEST PUSH2 0xAB4 JUMP JUMPDEST STOP JUMPDEST CALLVALUE DUP1 ISZERO PUSH2 0x21F JUMPI PUSH1 0x0 DUP1 REVERT JUMPDEST POP PUSH2 0x23A PUSH1 0x4 DUP1 CALLDATASIZE SUB DUP2 ADD SWAP1 PUSH2 0x235 SWAP2 SWAP1 PUSH2 0x2118 JUMP JUMPDEST PUSH2 0x1354 JUMP JUMPDEST STOP JUMPDEST POP JUMP JUMPDEST PUSH2 0x247 PUSH2 0x13DA JUMP JUMPDEST PUSH2 0x251 PUSH1 0x0 PUSH2 0x1461 JUMP JUMPDEST JUMP JUMPDEST PUSH2 0x267 PUSH8 0x64CE3547672F6B1F PUSH1 0xC0 SHL PUSH2 0x23C JUMP JUMPDEST PUSH2 0x27B PUSH8 0x9D116E679729D01B PUSH1 0xC0 SHL PUSH2 0x23C JUMP JUMPDEST PUSH2 0x28F PUSH8 0x12E7A7F6E75A572B PUSH1 0xC0 SHL PUSH2 0x23C JUMP JUMPDEST PUSH1 0x0 PUSH20 0xFFFFFFFFFFFFFFFFFFFFFFFFFFFFFFFFFFFFFFFF AND DUP4 PUSH20 0xFFFFFFFFFFFFFFFFFFFFFFFFFFFFFFFFFFFFFFFF AND SUB PUSH2 0x386 JUMPI PUSH2 0x2D7 PUSH8 0x174C9874765ED838 PUSH1 0xC0 SHL PUSH2 0x23C JUMP JUMPDEST PUSH2 0x2EB PUSH8 0x60B00D450914FA7 PUSH1 0xC0 SHL PUSH2 0x23C JUMP JUMPDEST PUSH2 0x2FF PUSH8 0x7FDA6ED3D313F4F2 PUSH1 0xC0 SHL PUSH2 0x23C JUMP JUMPDEST DUP2 CALLVALUE EQ PUSH2 0x36D JUMPI PUSH2 0x31A PUSH8 0x8763AA591C5EEE2 PUSH1 0xC0 SHL PUSH2 0x23C JUMP JUMPDEST PUSH2 0x32E PUSH8 0xCC6579F9796C65DE PUSH1 0xC0 SHL PUSH2 0x23C JUMP JUMPDEST DUP2 CALLVALUE PUSH1 0x40 MLOAD PUSH32 0x4157BB400000000000000000000000000000000000000000000000000000000 DUP2 MSTORE PUSH1 0x4 ADD PUSH2 0x364 SWAP3 SWAP2 SWAP1 PUSH2 0x20D4 JUMP JUMPDEST PUSH1 0x40 MLOAD DUP1 SWAP2 SUB SWAP1 REVERT JUMPDEST PUSH2 0x381 PUSH8 0x26E2114294CA7ECC PUSH1 0xC0 SHL PUSH2 0x23C JUMP JUMPDEST PUSH2 0x3F0 JUMP JUMPDEST PUSH2 0x39A PUSH8 0xD88A9F3E610CEED PUSH1 0xC0 SHL PUSH2 0x23C JUMP JUMPDEST PUSH2 0x3AE PUSH8 0x967701FCE9A67FBF PUSH1 0xC0 SHL PUSH2 0x23C JUMP JUMPDEST PUSH2 0x3C2 PUSH8 0xD6A2BD0705E6A7CF PUSH1 0xC0 SHL PUSH2 0x23C JUMP JUMPDEST PUSH2 0x3EF CALLER ADDRESS DUP5 DUP7 PUSH20 0xFFFFFFFFFFFFFFFFFFFFFFFFFFFFFFFFFFFFFFFF AND PUSH2 0x1538 SWAP1 SWAP4 SWAP3 SWAP2 SWAP1 PUSH4 0xFFFFFFFF AND JUMP JUMPDEST JUMPDEST PUSH2 0x404 PUSH8 0xA9AF94E0E65FFF3 PUSH1 0xC0 SHL PUSH2 0x23C JUMP JUMPDEST PUSH2 0x418 PUSH8 0xBA653C1FB773C141 PUSH1 0xC0 SHL PUSH2 0x23C JUMP JUMPDEST PUSH1 0x0 TIMESTAMP SWAP1 POP PUSH2 0x431 PUSH8 0x563CDFDF96BCB9E7 PUSH1 0xC0 SHL PUSH2 0x23C JUMP JUMPDEST PUSH2 0x445 PUSH8 0x626EF6009750A13B PUSH1 0xC0 SHL PUSH2 0x23C JUMP JUMPDEST PUSH1 0x0 PUSH1 0x40 MLOAD DUP1 PUSH1 0xC0 ADD PUSH1 0x40 MSTORE DUP1 CALLER PUSH20 0xFFFFFFFFFFFFFFFFFFFFFFFFFFFFFFFFFFFFFFFF AND DUP2 MSTORE PUSH1 0x20 ADD DUP4 DUP2 MSTORE PUSH1 0x20 ADD DUP7 PUSH20 0xFFFFFFFFFFFFFFFFFFFFFFFFFFFFFFFFFFFFFFFF AND DUP2 MSTORE PUSH1 0x20 ADD DUP6 DUP2 MSTORE PUSH1 0x20 ADD PUSH1 0x0 DUP2 MSTORE PUSH1 0x20 ADD PUSH1 0x0 DUP2 MSTORE POP SWAP1 POP PUSH2 0x4B8 PUSH8 0xEDF4FD815BA70D5D PUSH1 0xC0 SHL PUSH2 0x23C JUMP JUMPDEST DUP1 PUSH1 0x0 DUP1 DUP9 PUSH20 0xFFFFFFFFFFFFFFFFFFFFFFFFFFFFFFFFFFFFFFFF AND PUSH20 0xFFFFFFFFFFFFFFFFFFFFFFFFFFFFFFFFFFFFFFFF AND DUP2 MSTORE PUSH1 0x20 ADD SWAP1 DUP2 MSTORE PUSH1 0x20 ADD PUSH1 0x0 KECCAK256 PUSH1 0x0 DUP10 DUP2 MSTORE PUSH1 0x20 ADD SWAP1 DUP2 MSTORE PUSH1 0x20 ADD PUSH1 0x0 KECCAK256 PUSH1 0x0 DUP3 ADD MLOAD DUP2 PUSH1 0x0 ADD PUSH1 0x0 PUSH2 0x100 EXP DUP2 SLOAD DUP2 PUSH20 0xFFFFFFFFFFFFFFFFFFFFFFFFFFFFFFFFFFFFFFFF MUL NOT AND SWAP1 DUP4 PUSH20 0xFFFFFFFFFFFFFFFFFFFFFFFFFFFFFFFFFFFFFFFF AND MUL OR SWAP1 SSTORE POP PUSH1 0x20 DUP3 ADD MLOAD DUP2 PUSH1 0x1 ADD SSTORE PUSH1 0x40 DUP3 ADD MLOAD DUP2 PUSH1 0x2 ADD PUSH1 0x0 PUSH2 0x100 EXP DUP2 SLOAD DUP2 PUSH20 0xFFFFFFFFFFFFFFFFFFFFFFFFFFFFFFFFFFFFFFFF MUL NOT AND SWAP1 DUP4 PUSH20 0xFFFFFFFFFFFFFFFFFFFFFFFFFFFFFFFFFFFFFFFF AND MUL OR SWAP1 SSTORE POP PUSH1 0x60 DUP3 ADD MLOAD DUP2 PUSH1 0x3 ADD SSTORE PUSH1 0x80 DUP3 ADD MLOAD DUP2 PUSH1 0x4 ADD SSTORE PUSH1 0xA0 DUP3 ADD MLOAD DUP2 PUSH1 0x5 ADD SSTORE SWAP1 POP POP PUSH2 0x5D5 PUSH8 0x3CE50746B132E6CD PUSH1 0xC0 SHL PUSH2 0x23C JUMP JUMPDEST PUSH2 0x5E9 PUSH8 0x191037C42923CA81 PUSH1 0xC0 SHL PUSH2 0x23C JUMP JUMPDEST PUSH1 0x0 PUSH1 0x1 PUSH1 0x0 DUP9 PUSH20 0xFFFFFFFFFFFFFFFFFFFFFFFFFFFFFFFFFFFFFFFF AND PUSH20 0xFFFFFFFFFFFFFFFFFFFFFFFFFFFFFFFFFFFFFFFF AND DUP2 MSTORE PUSH1 0x20 ADD SWAP1 DUP2 MSTORE PUSH1 0x20 ADD PUSH1 0x0 KECCAK256 PUSH1 0x0 DUP10 DUP2 MSTORE PUSH1 0x20 ADD SWAP1 DUP2 MSTORE PUSH1 0x20 ADD PUSH1 0x0 KECCAK256 SWAP1 POP PUSH2 0x651 PUSH8 0x6C409758CF0567C1 PUSH1 0xC0 SHL PUSH2 0x23C JUMP JUMPDEST PUSH2 0x665 PUSH8 0x1DE87474D515CD47 PUSH1 0xC0 SHL PUSH2 0x23C JUMP JUMPDEST PUSH1 0x0 JUMPDEST DUP5 MLOAD DUP2 LT ISZERO PUSH2 0x707 JUMPI PUSH2 0x685 PUSH8 0xCF9561AC1E8A3542 PUSH1 0xC0 SHL PUSH2 0x23C JUMP JUMPDEST PUSH2 0x699 PUSH8 0x4F9A2E46351AE1FC PUSH1 0xC0 SHL PUSH2 0x23C JUMP JUMPDEST DUP2 DUP6 DUP3 DUP2 MLOAD DUP2 LT PUSH2 0x6AD JUMPI PUSH2 0x6AC PUSH2 0x2145 JUMP JUMPDEST JUMPDEST PUSH1 0x20 MUL PUSH1 0x20 ADD ADD MLOAD SWAP1 DUP1 PUSH1 0x1 DUP2 SLOAD ADD DUP1 DUP3 SSTORE DUP1 SWAP2 POP POP PUSH1 0x1 SWAP1 SUB SWAP1 PUSH1 0x0 MSTORE PUSH1 0x20 PUSH1 0x0 KECCAK256 SWAP1 PUSH1 0x2 MUL ADD PUSH1 0x0 SWAP1 SWAP2 SWAP1 SWAP2 SWAP1 SWAP2 POP PUSH1 0x0 DUP3 ADD MLOAD DUP2 PUSH1 0x0 ADD SSTORE PUSH1 0x20 DUP3 ADD MLOAD DUP2 PUSH1 0x1 ADD SSTORE POP POP DUP1 DUP1 PUSH2 0x6FF SWAP1 PUSH2 0x21A3 JUMP JUMPDEST SWAP2 POP POP PUSH2 0x668 JUMP JUMPDEST POP PUSH2 0x71C PUSH8 0x4F6DEB350BD06204 PUSH1 0xC0 SHL PUSH2 0x23C JUMP JUMPDEST PUSH2 0x730 PUSH8 0xD8FBE129F0398D13 PUSH1 0xC0 SHL PUSH2 0x23C JUMP JUMPDEST PUSH1 0x40 MLOAD DUP1 PUSH1 0x80 ADD PUSH1 0x40 MSTORE DUP1 DUP4 DUP2 MSTORE PUSH1 0x20 ADD DUP6 DUP2 MSTORE PUSH1 0x20 ADD DUP9 PUSH20 0xFFFFFFFFFFFFFFFFFFFFFFFFFFFFFFFFFFFFFFFF AND DUP2 MSTORE PUSH1 0x20 ADD DUP10 DUP2 MSTORE POP PUSH1 0x40 MLOAD PUSH2 0x774 SWAP2 SWAP1 PUSH2 0x242E JUMP JUMPDEST PUSH1 0x40 MLOAD DUP1 SWAP2 SUB SWAP1 KECCAK256 PUSH32 0xB16ABBEA6BA3704F5F2A80A6E86817BD96545258A4BBE645BECFC85AB7226752 PUSH1 0x40 MLOAD PUSH1 0x40 MLOAD DUP1 SWAP2 SUB SWAP1 LOG2 POP POP POP POP POP POP POP POP JUMP JUMPDEST PUSH1 0x0 PUSH1 0x20 MSTORE DUP2 PUSH1 0x0 MSTORE PUSH1 0x40 PUSH1 0x0 KECCAK256 PUSH1 0x20 MSTORE DUP1 PUSH1 0x0 MSTORE PUSH1 0x40 PUSH1 0x0 KECCAK256 PUSH1 0x0 SWAP2 POP SWAP2 POP POP DUP1 PUSH1 0x0 ADD PUSH1 0x0 SWAP1 SLOAD SWAP1 PUSH2 0x100 EXP SWAP1 DIV PUSH20 0xFFFFFFFFFFFFFFFFFFFFFFFFFFFFFFFFFFFFFFFF AND SWAP1 DUP1 PUSH1 0x1 ADD SLOAD SWAP1 DUP1 PUSH1 0x2 ADD PUSH1 0x0 SWAP1 SLOAD SWAP1 PUSH2 0x100 EXP SWAP1 DIV PUSH20 0xFFFFFFFFFFFFFFFFFFFFFFFFFFFFFFFFFFFFFFFF AND SWAP1 DUP1 PUSH1 0x3 ADD SLOAD SWAP1 DUP1 PUSH1 0x4 ADD SLOAD SWAP1 DUP1 PUSH1 0x5 ADD SLOAD SWAP1 POP DUP7 JUMP JUMPDEST PUSH1 0x1 PUSH1 0x20 MSTORE DUP3 PUSH1 0x0 MSTORE PUSH1 0x40 PUSH1 0x0 KECCAK256 PUSH1 0x20 MSTORE DUP2 PUSH1 0x0 MSTORE PUSH1 0x40 PUSH1 0x0 KECCAK256 DUP2 DUP2 SLOAD DUP2 LT PUSH2 0x863 JUMPI PUSH1 0x0 DUP1 REVERT JUMPDEST SWAP1 PUSH1 0x0 MSTORE PUSH1 0x20 PUSH1 0x0 KECCAK256 SWAP1 PUSH1 0x2 MUL ADD PUSH1 0x0 SWAP3 POP SWAP3 POP POP POP DUP1 PUSH1 0x0 ADD SLOAD SWAP1 DUP1 PUSH1 0x1 ADD SLOAD SWAP1 POP DUP3 JUMP JUMPDEST PUSH1 0x0 DUP1 PUSH2 0x894 PUSH2 0x194F JUMP JUMPDEST SWAP1 POP DUP1 PUSH1 0x0 ADD PUSH1 0x0 SWAP1 SLOAD SWAP1 PUSH2 0x100 EXP SWAP1 DIV PUSH20 0xFFFFFFFFFFFFFFFFFFFFFFFFFFFFFFFFFFFFFFFF AND SWAP2 POP POP SWAP1 JUMP JUMPDEST PUSH2 0x8D5 PUSH8 0x46DC4B68608D920D PUSH1 0xC0 SHL PUSH2 0x23C JUMP JUMPDEST PUSH1 0x0 PUSH2 0x8DF PUSH2 0x1977 JUMP JUMPDEST SWAP1 POP PUSH1 0x0 DUP2 PUSH1 0x0 ADD PUSH1 0x8 SWAP1 SLOAD SWAP1 PUSH2 0x100 EXP SWAP1 DIV PUSH1 0xFF AND ISZERO SWAP1 POP PUSH1 0x0 DUP3 PUSH1 0x0 ADD PUSH1 0x0 SWAP1 SLOAD SWAP1 PUSH2 0x100 EXP SWAP1 DIV PUSH8 0xFFFFFFFFFFFFFFFF AND SWAP1 POP PUSH1 0x0 DUP1 DUP3 PUSH8 0xFFFFFFFFFFFFFFFF AND EQ DUP1 ISZERO PUSH2 0x92D JUMPI POP DUP3 JUMPDEST SWAP1 POP PUSH1 0x0 PUSH1 0x1 DUP4 PUSH8 0xFFFFFFFFFFFFFFFF AND EQ DUP1 ISZERO PUSH2 0x962 JUMPI POP PUSH1 0x0 ADDRESS PUSH20 0xFFFFFFFFFFFFFFFFFFFFFFFFFFFFFFFFFFFFFFFF AND EXTCODESIZE EQ JUMPDEST SWAP1 POP DUP2 ISZERO DUP1 ISZERO PUSH2 0x970 JUMPI POP DUP1 ISZERO JUMPDEST ISZERO PUSH2 0x9A7 JUMPI PUSH1 0x40 MLOAD PUSH32 0xF92EE8A900000000000000000000000000000000000000000000000000000000 DUP2 MSTORE PUSH1 0x4 ADD PUSH1 0x40 MLOAD DUP1 SWAP2 SUB SWAP1 REVERT JUMPDEST PUSH1 0x1 DUP6 PUSH1 0x0 ADD PUSH1 0x0 PUSH2 0x100 EXP DUP2 SLOAD DUP2 PUSH8 0xFFFFFFFFFFFFFFFF MUL NOT AND SWAP1 DUP4 PUSH8 0xFFFFFFFFFFFFFFFF AND MUL OR SWAP1 SSTORE POP DUP4 ISZERO PUSH2 0x9F7 JUMPI PUSH1 0x1 DUP6 PUSH1 0x0 ADD PUSH1 0x8 PUSH2 0x100 EXP DUP2 SLOAD DUP2 PUSH1 0xFF MUL NOT AND SWAP1 DUP4 ISZERO ISZERO MUL OR SWAP1 SSTORE POP JUMPDEST PUSH2 0xA0B PUSH8 0x76485D4D9C34B82 PUSH1 0xC0 SHL PUSH2 0x23C JUMP JUMPDEST PUSH2 0xA1F PUSH8 0x84A310F45C070B00 PUSH1 0xC0 SHL PUSH2 0x23C JUMP JUMPDEST PUSH2 0xA33 PUSH8 0x690E9F74BDD95F0B PUSH1 0xC0 SHL PUSH2 0x23C JUMP JUMPDEST PUSH2 0xA47 PUSH8 0x21F15A17E18744C5 PUSH1 0xC0 SHL PUSH2 0x23C JUMP JUMPDEST PUSH2 0xA50 DUP7 PUSH2 0x199F JUMP JUMPDEST DUP4 ISZERO PUSH2 0xAAC JUMPI PUSH1 0x0 DUP6 PUSH1 0x0 ADD PUSH1 0x8 PUSH2 0x100 EXP DUP2 SLOAD DUP2 PUSH1 0xFF MUL NOT AND SWAP1 DUP4 ISZERO ISZERO MUL OR SWAP1 SSTORE POP PUSH32 0xC7F505B2F371AE2175EE4913F4499E1F2633A7B5936321EED1CDAEB6115181D2 PUSH1 0x1 PUSH1 0x40 MLOAD PUSH2 0xAA3 SWAP2 SWAP1 PUSH2 0x249E JUMP JUMPDEST PUSH1 0x40 MLOAD DUP1 SWAP2 SUB SWAP1 LOG1 JUMPDEST POP POP POP POP POP POP JUMP JUMPDEST PUSH2 0xAC8 PUSH8 0xC2AD1F8A748D091C PUSH1 0xC0 SHL PUSH2 0x23C JUMP JUMPDEST PUSH2 0xAD0 PUSH2 0x1A25 JUMP JUMPDEST PUSH2 0xAE4 PUSH8 0x6E9CDED4EC78C914 PUSH1 0xC0 SHL PUSH2 0x23C JUMP JUMPDEST PUSH2 0xAF8 PUSH8 0x8D212F793F1446F5 PUSH1 0xC0 SHL PUSH2 0x23C JUMP JUMPDEST PUSH2 0xB0C PUSH8 0xB2A33B4EABCEDF76 PUSH1 0xC0 SHL PUSH2 0x23C JUMP JUMPDEST PUSH2 0xB20 PUSH8 0xA5AB2C257DC37229 PUSH1 0xC0 SHL PUSH2 0x23C JUMP JUMPDEST PUSH1 0x0 DUP1 PUSH1 0x0 DUP5 PUSH20 0xFFFFFFFFFFFFFFFFFFFFFFFFFFFFFFFFFFFFFFFF AND PUSH20 0xFFFFFFFFFFFFFFFFFFFFFFFFFFFFFFFFFFFFFFFF AND DUP2 MSTORE PUSH1 0x20 ADD SWAP1 DUP2 MSTORE PUSH1 0x20 ADD PUSH1 0x0 KECCAK256 PUSH1 0x0 DUP4 DUP2 MSTORE PUSH1 0x20 ADD SWAP1 DUP2 MSTORE PUSH1 0x20 ADD PUSH1 0x0 KECCAK256 SWAP1 POP PUSH2 0xB87 PUSH8 0xFA0318EC2D144607 PUSH1 0xC0 SHL PUSH2 0x23C JUMP JUMPDEST PUSH2 0xB9B PUSH8 0x90C605381BF37872 PUSH1 0xC0 SHL PUSH2 0x23C JUMP JUMPDEST PUSH1 0x0 PUSH1 0x1 PUSH1 0x0 DUP6 PUSH20 0xFFFFFFFFFFFFFFFFFFFFFFFFFFFFFFFFFFFFFFFF AND PUSH20 0xFFFFFFFFFFFFFFFFFFFFFFFFFFFFFFFFFFFFFFFF AND DUP2 MSTORE PUSH1 0x20 ADD SWAP1 DUP2 MSTORE PUSH1 0x20 ADD PUSH1 0x0 KECCAK256 PUSH1 0x0 DUP5 DUP2 MSTORE PUSH1 0x20 ADD SWAP1 DUP2 MSTORE PUSH1 0x20 ADD PUSH1 0x0 KECCAK256 SWAP1 POP PUSH2 0xC03 PUSH8 0xD4D233E2DDC35064 PUSH1 0xC0 SHL PUSH2 0x23C JUMP JUMPDEST PUSH2 0xC17 PUSH8 0xD7DFBF9BC845B7C6 PUSH1 0xC0 SHL PUSH2 0x23C JUMP JUMPDEST DUP2 PUSH1 0x1 ADD SLOAD TIMESTAMP LT ISZERO PUSH2 0xC7D JUMPI PUSH2 0xC37 PUSH8 0xD8050D480CA583FC PUSH1 0xC0 SHL PUSH2 0x23C JUMP JUMPDEST PUSH2 0xC4B PUSH8 0x66CB256F53DC550A PUSH1 0xC0 SHL PUSH2 0x23C JUMP JUMPDEST PUSH1 0x40 MLOAD PUSH32 0x35549BE800000000000000000000000000000000000000000000000000000000 DUP2 MSTORE PUSH1 0x4 ADD PUSH1 0x40 MLOAD DUP1 SWAP2 SUB SWAP1 REVERT JUMPDEST PUSH2 0xC91 PUSH8 0x5B6FAF1ECBD04B2D PUSH1 0xC0 SHL PUSH2 0x23C JUMP JUMPDEST PUSH2 0xCA5 PUSH8 0x4190C232E5F4857A PUSH1 0xC0 SHL PUSH2 0x23C JUMP JUMPDEST PUSH2 0xCB9 PUSH8 0x656BD59471F39A0A PUSH1 0xC0 SHL PUSH2 0x23C JUMP JUMPDEST PUSH1 0x0 DUP2 DUP1 SLOAD SWAP1 POP EQ DUP1 ISZERO PUSH2 0xCDD JUMPI POP PUSH2 0xCDC PUSH8 0x197DC519081D3469 PUSH1 0xC0 SHL PUSH2 0x1A7C JUMP JUMPDEST JUMPDEST DUP1 PUSH2 0xD0C JUMPI POP DUP1 DUP1 SLOAD SWAP1 POP DUP3 PUSH1 0x5 ADD SLOAD LT ISZERO DUP1 ISZERO PUSH2 0xD0B JUMPI POP PUSH2 0xD0A PUSH8 0xD9D591F25317779B PUSH1 0xC0 SHL PUSH2 0x1A7C JUMP JUMPDEST JUMPDEST JUMPDEST ISZERO PUSH2 0xD6B JUMPI PUSH2 0xD25 PUSH8 0x32AE366D8DCFBBCA PUSH1 0xC0 SHL PUSH2 0x23C JUMP JUMPDEST PUSH2 0xD39 PUSH8 0xB8D84165513D37B1 PUSH1 0xC0 SHL PUSH2 0x23C JUMP JUMPDEST PUSH1 0x40 MLOAD PUSH32 0x8BDB538100000000000000000000000000000000000000000000000000000000 DUP2 MSTORE PUSH1 0x4 ADD PUSH1 0x40 MLOAD DUP1 SWAP2 SUB SWAP1 REVERT JUMPDEST PUSH2 0xD7F PUSH8 0x1B4C099900FCC18C PUSH1 0xC0 SHL PUSH2 0x23C JUMP JUMPDEST PUSH2 0xD93 PUSH8 0x98279D5BA7C606DA PUSH1 0xC0 SHL PUSH2 0x23C JUMP JUMPDEST PUSH2 0xDA7 PUSH8 0x713082E1C6F5A7B0 PUSH1 0xC0 SHL PUSH2 0x23C JUMP JUMPDEST PUSH1 0x0 PUSH2 0xDBD PUSH8 0xAC28A9ADE5CEC693 PUSH1 0xC0 SHL PUSH2 0x23C JUMP JUMPDEST PUSH2 0xDD1 PUSH8 0xBAAA4FC732CE9B53 PUSH1 0xC0 SHL PUSH2 0x23C JUMP JUMPDEST PUSH1 0x0 DUP4 PUSH1 0x1 ADD SLOAD SWAP1 POP PUSH2 0xDEE PUSH8 0x44638803F9EE2BCF PUSH1 0xC0 SHL PUSH2 0x23C JUMP JUMPDEST PUSH2 0xE02 PUSH8 0xDC2A203CF63A5EAC PUSH1 0xC0 SHL PUSH2 0x23C JUMP JUMPDEST PUSH1 0x0 DUP5 PUSH1 0x5 ADD SLOAD SWAP1 POP JUMPDEST DUP4 DUP1 SLOAD SWAP1 POP DUP2 LT ISZERO PUSH2 0xFA8 JUMPI PUSH2 0xE2C PUSH8 0xA0CCB692683E52AA PUSH1 0xC0 SHL PUSH2 0x23C JUMP JUMPDEST PUSH2 0xE10 DUP5 DUP3 DUP2 SLOAD DUP2 LT PUSH2 0xE42 JUMPI PUSH2 0xE41 PUSH2 0x2145 JUMP JUMPDEST JUMPDEST SWAP1 PUSH1 0x0 MSTORE PUSH1 0x20 PUSH1 0x0 KECCAK256 SWAP1 PUSH1 0x2 MUL ADD PUSH1 0x0 ADD SLOAD PUSH2 0xE5E SWAP2 SWAP1 PUSH2 0x24B9 JUMP JUMPDEST DUP3 PUSH2 0xE69 SWAP2 SWAP1 PUSH2 0x24FB JUMP JUMPDEST SWAP2 POP PUSH2 0xE7F PUSH8 0x51789ACEE37D71C3 PUSH1 0xC0 SHL PUSH2 0x23C JUMP JUMPDEST PUSH2 0xE93 PUSH8 0x5848BCD45C9CA67 PUSH1 0xC0 SHL PUSH2 0x23C JUMP JUMPDEST DUP2 TIMESTAMP LT ISZERO PUSH2 0xEC8 JUMPI PUSH2 0xEAF PUSH8 0x20426A53772B0123 PUSH1 0xC0 SHL PUSH2 0x23C JUMP JUMPDEST PUSH2 0xEC3 PUSH8 0x5E5658B8FFAB721 PUSH1 0xC0 SHL PUSH2 0x23C JUMP JUMPDEST PUSH2 0xFA8 JUMP JUMPDEST PUSH2 0xEDC PUSH8 0xA808FE4AA1277E8A PUSH1 0xC0 SHL PUSH2 0x23C JUMP JUMPDEST PUSH2 0xEF0 PUSH8 0x50B80B22E6916627 PUSH1 0xC0 SHL PUSH2 0x23C JUMP JUMPDEST PUSH2 0xF04 PUSH8 0xB3AB70738D9307CF PUSH1 0xC0 SHL PUSH2 0x23C JUMP JUMPDEST PUSH1 0x0 PUSH2 0x2710 DUP6 DUP4 DUP2 SLOAD DUP2 LT PUSH2 0xF1C JUMPI PUSH2 0xF1B PUSH2 0x2145 JUMP JUMPDEST JUMPDEST SWAP1 PUSH1 0x0 MSTORE PUSH1 0x20 PUSH1 0x0 KECCAK256 SWAP1 PUSH1 0x2 MUL ADD PUSH1 0x1 ADD SLOAD DUP8 PUSH1 0x3 ADD SLOAD PUSH2 0xF3D SWAP2 SWAP1 PUSH2 0x24B9 JUMP JUMPDEST PUSH2 0xF47 SWAP2 SWAP1 PUSH2 0x255E JUMP JUMPDEST SWAP1 POP PUSH2 0xF5D PUSH8 0xD5B4D623607A0B08 PUSH1 0xC0 SHL PUSH2 0x23C JUMP JUMPDEST DUP1 DUP5 PUSH2 0xF69 SWAP2 SWAP1 PUSH2 0x24FB JUMP JUMPDEST SWAP4 POP PUSH2 0xF7F PUSH8 0x943E5DA236990E10 PUSH1 0xC0 SHL PUSH2 0x23C JUMP JUMPDEST PUSH1 0x1 DUP3 PUSH2 0xF8C SWAP2 SWAP1 PUSH2 0x24FB JUMP JUMPDEST DUP7 PUSH1 0x5 ADD DUP2 SWAP1 SSTORE POP POP DUP1 DUP1 PUSH2 0xFA0 SWAP1 PUSH2 0x21A3 JUMP JUMPDEST SWAP2 POP POP PUSH2 0xE0C JUMP JUMPDEST POP PUSH2 0xFBD PUSH8 0x3C07DF66F2BB5E4A PUSH1 0xC0 SHL PUSH2 0x23C JUMP JUMPDEST PUSH2 0xFD1 PUSH8 0x7494C9E3F399EA59 PUSH1 0xC0 SHL PUSH2 0x23C JUMP JUMPDEST PUSH1 0x0 DUP3 GT PUSH2 0x1033 JUMPI PUSH2 0xFED PUSH8 0xF8BD6BF00A045511 PUSH1 0xC0 SHL PUSH2 0x23C JUMP JUMPDEST PUSH2 0x1001 PUSH8 0xF892925AF9CD8228 PUSH1 0xC0 SHL PUSH2 0x23C JUMP JUMPDEST PUSH1 0x40 MLOAD PUSH32 0x3507415000000000000000000000000000000000000000000000000000000000 DUP2 MSTORE PUSH1 0x4 ADD PUSH1 0x40 MLOAD DUP1 SWAP2 SUB SWAP1 REVERT JUMPDEST PUSH2 0x1047 PUSH8 0xC43072B3AAEE6852 PUSH1 0xC0 SHL PUSH2 0x23C JUMP JUMPDEST PUSH2 0x105B PUSH8 0x51D4A041EECA15E PUSH1 0xC0 SHL PUSH2 0x23C JUMP JUMPDEST DUP2 DUP5 PUSH1 0x4 ADD PUSH1 0x0 DUP3 DUP3 SLOAD PUSH2 0x106F SWAP2 SWAP1 PUSH2 0x24FB JUMP JUMPDEST SWAP3 POP POP DUP2 SWAP1 SSTORE POP PUSH2 0x108A PUSH8 0x7C892E5C80BC7D1D PUSH1 0xC0 SHL PUSH2 0x23C JUMP JUMPDEST PUSH2 0x109E PUSH8 0xB37E8466B07D8840 PUSH1 0xC0 SHL PUSH2 0x23C JUMP JUMPDEST PUSH1 0x0 PUSH20 0xFFFFFFFFFFFFFFFFFFFFFFFFFFFFFFFFFFFFFFFF AND DUP5 PUSH1 0x2 ADD PUSH1 0x0 SWAP1 SLOAD SWAP1 PUSH2 0x100 EXP SWAP1 DIV PUSH20 0xFFFFFFFFFFFFFFFFFFFFFFFFFFFFFFFFFFFFFFFF AND PUSH20 0xFFFFFFFFFFFFFFFFFFFFFFFFFFFFFFFFFFFFFFFF AND EQ PUSH2 0x1186 JUMPI PUSH2 0x110A PUSH8 0xB8EA0EA9EDBA6A04 PUSH1 0xC0 SHL PUSH2 0x23C JUMP JUMPDEST PUSH2 0x111E PUSH8 0x29556080F2958011 PUSH1 0xC0 SHL PUSH2 0x23C JUMP JUMPDEST PUSH2 0x1132 PUSH8 0xDE94BB7392A36160 PUSH1 0xC0 SHL PUSH2 0x23C JUMP JUMPDEST PUSH2 0x1181 DUP7 DUP4 DUP7 PUSH1 0x2 ADD PUSH1 0x0 SWAP1 SLOAD SWAP1 PUSH2 0x100 EXP SWAP1 DIV PUSH20 0xFFFFFFFFFFFFFFFFFFFFFFFFFFFFFFFFFFFFFFFF AND PUSH20 0xFFFFFFFFFFFFFFFFFFFFFFFFFFFFFFFFFFFFFFFF AND PUSH2 0x1A87 SWAP1 SWAP3 SWAP2 SWAP1 PUSH4 0xFFFFFFFF AND JUMP JUMPDEST PUSH2 0x12D8 JUMP JUMPDEST PUSH2 0x119A PUSH8 0xBD3F480F97E2C881 PUSH1 0xC0 SHL PUSH2 0x23C JUMP JUMPDEST PUSH2 0x11AE PUSH8 0xE3EB6E909BDAA8D9 PUSH1 0xC0 SHL PUSH2 0x23C JUMP JUMPDEST PUSH2 0x11C2 PUSH8 0x10889D049E78A6AE PUSH1 0xC0 SHL PUSH2 0x23C JUMP JUMPDEST PUSH1 0x0 DUP7 PUSH20 0xFFFFFFFFFFFFFFFFFFFFFFFFFFFFFFFFFFFFFFFF AND DUP4 PUSH1 0x40 MLOAD PUSH2 0x11E8 SWAP1 PUSH2 0x25C0 JUMP JUMPDEST PUSH1 0x0 PUSH1 0x40 MLOAD DUP1 DUP4 SUB DUP2 DUP6 DUP8 GAS CALL SWAP3 POP POP POP RETURNDATASIZE DUP1 PUSH1 0x0 DUP2 EQ PUSH2 0x1225 JUMPI PUSH1 0x40 MLOAD SWAP2 POP PUSH1 0x1F NOT PUSH1 0x3F RETURNDATASIZE ADD AND DUP3 ADD PUSH1 0x40 MSTORE RETURNDATASIZE DUP3 MSTORE RETURNDATASIZE PUSH1 0x0 PUSH1 0x20 DUP5 ADD RETURNDATACOPY PUSH2 0x122A JUMP JUMPDEST PUSH1 0x60 SWAP2 POP JUMPDEST POP POP SWAP1 POP PUSH2 0x1242 PUSH8 0xDB1F75804FE16087 PUSH1 0xC0 SHL PUSH2 0x23C JUMP JUMPDEST PUSH2 0x1256 PUSH8 0xEB2A03D2E885C84B PUSH1 0xC0 SHL PUSH2 0x23C JUMP JUMPDEST DUP1 PUSH2 0x12C2 JUMPI PUSH2 0x126F PUSH8 0x8A2B25401ADC7158 PUSH1 0xC0 SHL PUSH2 0x23C JUMP JUMPDEST PUSH2 0x1283 PUSH8 0x5187465849EFE27A PUSH1 0xC0 SHL PUSH2 0x23C JUMP JUMPDEST DUP7 DUP4 PUSH1 0x40 MLOAD PUSH32 0xBCAF58D000000000000000000000000000000000000000000000000000000000 DUP2 MSTORE PUSH1 0x4 ADD PUSH2 0x12B9 SWAP3 SWAP2 SWAP1 PUSH2 0x25D5 JUMP JUMPDEST PUSH1 0x40 MLOAD DUP1 SWAP2 SUB SWAP1 REVERT JUMPDEST PUSH2 0x12D6 PUSH8 0xABFFDFB58E933285 PUSH1 0xC0 SHL PUSH2 0x23C JUMP JUMPDEST POP JUMPDEST PUSH2 0x12EC PUSH8 0xB9A938D5D99CF128 PUSH1 0xC0 SHL PUSH2 0x23C JUMP JUMPDEST PUSH2 0x1300 PUSH8 0x1704AAEA6CFA94B5 PUSH1 0xC0 SHL PUSH2 0x23C JUMP JUMPDEST DUP2 DUP7 PUSH20 0xFFFFFFFFFFFFFFFFFFFFFFFFFFFFFFFFFFFFFFFF AND PUSH32 0xB21FB52D5749B80F3182F8C6992236B5E5576681880914484D7F4C9B062E619E PUSH1 0x40 MLOAD PUSH1 0x40 MLOAD DUP1 SWAP2 SUB SWAP1 LOG3 POP POP POP POP PUSH2 0x1350 PUSH2 0x1BF3 JUMP JUMPDEST POP POP JUMP JUMPDEST PUSH2 0x135C PUSH2 0x13DA JUMP JUMPDEST PUSH1 0x0 PUSH20 0xFFFFFFFFFFFFFFFFFFFFFFFFFFFFFFFFFFFFFFFF AND DUP2 PUSH20 0xFFFFFFFFFFFFFFFFFFFFFFFFFFFFFFFFFFFFFFFF AND SUB PUSH2 0x13CE JUMPI PUSH1 0x0 PUSH1 0x40 MLOAD PUSH32 0x1E4FBDF700000000000000000000000000000000000000000000000000000000 DUP2 MSTORE PUSH1 0x4 ADD PUSH2 0x13C5 SWAP2 SWAP1 PUSH2 0x20FD JUMP JUMPDEST PUSH1 0x40 MLOAD DUP1 SWAP2 SUB SWAP1 REVERT JUMPDEST PUSH2 0x13D7 DUP2 PUSH2 0x1461 JUMP JUMPDEST POP JUMP JUMPDEST PUSH2 0x13E2 PUSH2 0x1C0C JUMP JUMPDEST PUSH20 0xFFFFFFFFFFFFFFFFFFFFFFFFFFFFFFFFFFFFFFFF AND PUSH2 0x1400 PUSH2 0x889 JUMP JUMPDEST PUSH20 0xFFFFFFFFFFFFFFFFFFFFFFFFFFFFFFFFFFFFFFFF AND EQ PUSH2 0x145F JUMPI PUSH2 0x1423 PUSH2 0x1C0C JUMP JUMPDEST PUSH1 0x40 MLOAD PUSH32 0x118CDAA700000000000000000000000000000000000000000000000000000000 DUP2 MSTORE PUSH1 0x4 ADD PUSH2 0x1456 SWAP2 SWAP1 PUSH2 0x20FD JUMP JUMPDEST PUSH1 0x40 MLOAD DUP1 SWAP2 SUB SWAP1 REVERT JUMPDEST JUMP JUMPDEST PUSH1 0x0 PUSH2 0x146B PUSH2 0x194F JUMP JUMPDEST SWAP1 POP PUSH1 0x0 DUP2 PUSH1 0x0 ADD PUSH1 0x0 SWAP1 SLOAD SWAP1 PUSH2 0x100 EXP SWAP1 DIV PUSH20 0xFFFFFFFFFFFFFFFFFFFFFFFFFFFFFFFFFFFFFFFF AND SWAP1 POP DUP3 DUP3 PUSH1 0x0 ADD PUSH1 0x0 PUSH2 0x100 EXP DUP2 SLOAD DUP2 PUSH20 0xFFFFFFFFFFFFFFFFFFFFFFFFFFFFFFFFFFFFFFFF MUL NOT AND SWAP1 DUP4 PUSH20 0xFFFFFFFFFFFFFFFFFFFFFFFFFFFFFFFFFFFFFFFF AND MUL OR SWAP1 SSTORE POP DUP3 PUSH20 0xFFFFFFFFFFFFFFFFFFFFFFFFFFFFFFFFFFFFFFFF AND DUP2 PUSH20 0xFFFFFFFFFFFFFFFFFFFFFFFFFFFFFFFFFFFFFFFF AND PUSH32 0x8BE0079C531659141344CD1FD0A4F28419497F9722A3DAAFE3B4186F6B6457E0 PUSH1 0x40 MLOAD PUSH1 0x40 MLOAD DUP1 SWAP2 SUB SWAP1 LOG3 POP POP POP JUMP JUMPDEST PUSH2 0x154C PUSH8 0xD5BB11B40B8D85DE PUSH1 0xC0 SHL PUSH2 0x1C14 JUMP JUMPDEST PUSH2 0x1560 PUSH8 0xE0C2EE17BB22D96C PUSH1 0xC0 SHL PUSH2 0x1C14 JUMP JUMPDEST PUSH2 0x1574 PUSH8 0x6DE994029DB56A81 PUSH1 0xC0 SHL PUSH2 0x1C14 JUMP JUMPDEST PUSH1 0x0 DUP5 SWAP1 POP PUSH2 0x158D PUSH8 0x260D199604F6323 PUSH1 0xC0 SHL PUSH2 0x1C14 JUMP JUMPDEST PUSH2 0x15A1 PUSH8 0xFF7443FC8F01649F PUSH1 0xC0 SHL PUSH2 0x1C14 JUMP JUMPDEST PUSH1 0x0 DUP2 PUSH20 0xFFFFFFFFFFFFFFFFFFFFFFFFFFFFFFFFFFFFFFFF AND PUSH4 0xDD62ED3E DUP7 ADDRESS PUSH1 0x40 MLOAD DUP4 PUSH4 0xFFFFFFFF AND PUSH1 0xE0 SHL DUP2 MSTORE PUSH1 0x4 ADD PUSH2 0x15DE SWAP3 SWAP2 SWAP1 PUSH2 0x25FE JUMP JUMPDEST PUSH1 0x20 PUSH1 0x40 MLOAD DUP1 DUP4 SUB DUP2 DUP7 GAS STATICCALL ISZERO DUP1 ISZERO PUSH2 0x15FB JUMPI RETURNDATASIZE PUSH1 0x0 DUP1 RETURNDATACOPY RETURNDATASIZE PUSH1 0x0 REVERT JUMPDEST POP POP POP POP PUSH1 0x40 MLOAD RETURNDATASIZE PUSH1 0x1F NOT PUSH1 0x1F DUP3 ADD AND DUP3 ADD DUP1 PUSH1 0x40 MSTORE POP DUP2 ADD SWAP1 PUSH2 0x161F SWAP2 SWAP1 PUSH2 0x263C JUMP JUMPDEST SWAP1 POP PUSH2 0x1635 PUSH8 0xEB73587EAB1B392 PUSH1 0xC0 SHL PUSH2 0x1C14 JUMP JUMPDEST PUSH2 0x1649 PUSH8 0xFE23579011748EC PUSH1 0xC0 SHL PUSH2 0x1C14 JUMP JUMPDEST DUP3 DUP2 LT ISZERO PUSH2 0x16B8 JUMPI PUSH2 0x1665 PUSH8 0xB8C562DBE1562D62 PUSH1 0xC0 SHL PUSH2 0x1C14 JUMP JUMPDEST PUSH2 0x1679 PUSH8 0x5483FF18762645E3 PUSH1 0xC0 SHL PUSH2 0x1C14 JUMP JUMPDEST DUP1 DUP4 PUSH1 0x40 MLOAD PUSH32 0x7C8DB62F00000000000000000000000000000000000000000000000000000000 DUP2 MSTORE PUSH1 0x4 ADD PUSH2 0x16AF SWAP3 SWAP2 SWAP1 PUSH2 0x20D4 JUMP JUMPDEST PUSH1 0x40 MLOAD DUP1 SWAP2 SUB SWAP1 REVERT JUMPDEST PUSH2 0x16CC PUSH8 0x5E9099C83112EC5E PUSH1 0xC0 SHL PUSH2 0x1C14 JUMP JUMPDEST PUSH2 0x16E0 PUSH8 0x80B579EDA42621DE PUSH1 0xC0 SHL PUSH2 0x1C14 JUMP JUMPDEST PUSH2 0x16F4 PUSH8 0xF0BE8341F779E4C5 PUSH1 0xC0 SHL PUSH2 0x1C14 JUMP JUMPDEST PUSH1 0x0 DUP3 PUSH20 0xFFFFFFFFFFFFFFFFFFFFFFFFFFFFFFFFFFFFFFFF AND PUSH4 0x70A08231 DUP8 PUSH1 0x40 MLOAD DUP3 PUSH4 0xFFFFFFFF AND PUSH1 0xE0 SHL DUP2 MSTORE PUSH1 0x4 ADD PUSH2 0x172F SWAP2 SWAP1 PUSH2 0x20FD JUMP JUMPDEST PUSH1 0x20 PUSH1 0x40 MLOAD DUP1 DUP4 SUB DUP2 DUP7 GAS STATICCALL ISZERO DUP1 ISZERO PUSH2 0x174C JUMPI RETURNDATASIZE PUSH1 0x0 DUP1 RETURNDATACOPY RETURNDATASIZE PUSH1 0x0 REVERT JUMPDEST POP POP POP POP PUSH1 0x40 MLOAD RETURNDATASIZE PUSH1 0x1F NOT PUSH1 0x1F DUP3 ADD AND DUP3 ADD DUP1 PUSH1 0x40 MSTORE POP DUP2 ADD SWAP1 PUSH2 0x1770 SWAP2 SWAP1 PUSH2 0x263C JUMP JUMPDEST SWAP1 POP PUSH2 0x1786 PUSH8 0x165099529F52E6AA PUSH1 0xC0 SHL PUSH2 0x1C14 JUMP JUMPDEST PUSH2 0x179A PUSH8 0x33DDDEAE6F263924 PUSH1 0xC0 SHL PUSH2 0x1C14 JUMP JUMPDEST DUP4 DUP2 LT ISZERO PUSH2 0x1809 JUMPI PUSH2 0x17B6 PUSH8 0x5A4FD416A36B0EA9 PUSH1 0xC0 SHL PUSH2 0x1C14 JUMP JUMPDEST PUSH2 0x17CA PUSH8 0xB4190EA1C3F3FB8C PUSH1 0xC0 SHL PUSH2 0x1C14 JUMP JUMPDEST DUP1 DUP5 PUSH1 0x40 MLOAD PUSH32 0x4157BB400000000000000000000000000000000000000000000000000000000 DUP2 MSTORE PUSH1 0x4 ADD PUSH2 0x1800 SWAP3 SWAP2 SWAP1 PUSH2 0x20D4 JUMP JUMPDEST PUSH1 0x40 MLOAD DUP1 SWAP2 SUB SWAP1 REVERT JUMPDEST PUSH2 0x181D PUSH8 0x294D4201CB443C2B PUSH1 0xC0 SHL PUSH2 0x1C14 JUMP JUMPDEST PUSH2 0x1831 PUSH8 0x2001196C2885B22A PUSH1 0xC0 SHL PUSH2 0x1C14 JUMP JUMPDEST PUSH2 0x1845 PUSH8 0x7EA5C946CAF682E8 PUSH1 0xC0 SHL PUSH2 0x1C14 JUMP JUMPDEST DUP3 PUSH20 0xFFFFFFFFFFFFFFFFFFFFFFFFFFFFFFFFFFFFFFFF AND PUSH4 0x23B872DD DUP8 DUP8 DUP8 PUSH1 0x40 MLOAD DUP5 PUSH4 0xFFFFFFFF AND PUSH1 0xE0 SHL DUP2 MSTORE PUSH1 0x4 ADD PUSH2 0x1882 SWAP4 SWAP3 SWAP2 SWAP1 PUSH2 0x2669 JUMP JUMPDEST PUSH1 0x20 PUSH1 0x40 MLOAD DUP1 DUP4 SUB DUP2 PUSH1 0x0 DUP8 GAS CALL ISZERO DUP1 ISZERO PUSH2 0x18A1 JUMPI RETURNDATASIZE PUSH1 0x0 DUP1 RETURNDATACOPY RETURNDATASIZE PUSH1 0x0 REVERT JUMPDEST POP POP POP POP PUSH1 0x40 MLOAD RETURNDATASIZE PUSH1 0x1F NOT PUSH1 0x1F DUP3 ADD AND DUP3 ADD DUP1 PUSH1 0x40 MSTORE POP DUP2 ADD SWAP1 PUSH2 0x18C5 SWAP2 SWAP1 PUSH2 0x26D8 JUMP JUMPDEST PUSH2 0x1932 JUMPI PUSH2 0x18DD PUSH8 0x94BDDAAE641E02DA PUSH1 0xC0 SHL PUSH2 0x1C14 JUMP JUMPDEST PUSH2 0x18F1 PUSH8 0xFBF0CE16B7F9D5B8 PUSH1 0xC0 SHL PUSH2 0x1C14 JUMP JUMPDEST DUP6 DUP6 DUP6 PUSH1 0x40 MLOAD PUSH32 0xCA7F5F0E00000000000000000000000000000000000000000000000000000000 DUP2 MSTORE PUSH1 0x4 ADD PUSH2 0x1929 SWAP4 SWAP3 SWAP2 SWAP1 PUSH2 0x2669 JUMP JUMPDEST PUSH1 0x40 MLOAD DUP1 SWAP2 SUB SWAP1 REVERT JUMPDEST PUSH2 0x1946 PUSH8 0x9935C26A8EBC4C59 PUSH1 0xC0 SHL PUSH2 0x1C14 JUMP JUMPDEST POP POP POP POP POP POP POP JUMP JUMPDEST PUSH1 0x0 PUSH32 0x9016D09D72D40FDAE2FD8CEAC6B6234C7706214FD39C1CD1E609A0528C199300 SWAP1 POP SWAP1 JUMP JUMPDEST PUSH1 0x0 PUSH32 0xF0C57E16840DF040F15088DC2F81FE391C3923BEC73E23A9662EFC9C229C6A00 SWAP1 POP SWAP1 JUMP JUMPDEST PUSH2 0x19A7 PUSH2 0x1C17 JUMP JUMPDEST PUSH1 0x0 PUSH20 0xFFFFFFFFFFFFFFFFFFFFFFFFFFFFFFFFFFFFFFFF AND DUP2 PUSH20 0xFFFFFFFFFFFFFFFFFFFFFFFFFFFFFFFFFFFFFFFF AND SUB PUSH2 0x1A19 JUMPI PUSH1 0x0 PUSH1 0x40 MLOAD PUSH32 0x1E4FBDF700000000000000000000000000000000000000000000000000000000 DUP2 MSTORE PUSH1 0x4 ADD PUSH2 0x1A10 SWAP2 SWAP1 PUSH2 0x20FD JUMP JUMPDEST PUSH1 0x40 MLOAD DUP1 SWAP2 SUB SWAP1 REVERT JUMPDEST PUSH2 0x1A22 DUP2 PUSH2 0x1461 JUMP JUMPDEST POP JUMP JUMPDEST PUSH1 0x0 PUSH2 0x1A2F PUSH2 0x1C57 JUMP JUMPDEST SWAP1 POP PUSH1 0x2 DUP2 PUSH1 0x0 ADD SLOAD SUB PUSH2 0x1A6F JUMPI PUSH1 0x40 MLOAD PUSH32 0x3EE5AEB500000000000000000000000000000000000000000000000000000000 DUP2 MSTORE PUSH1 0x4 ADD PUSH1 0x40 MLOAD DUP1 SWAP2 SUB SWAP1 REVERT JUMPDEST PUSH1 0x2 DUP2 PUSH1 0x0 ADD DUP2 SWAP1 SSTORE POP POP JUMP JUMPDEST PUSH1 0x0 PUSH1 0x1 SWAP1 POP SWAP2 SWAP1 POP JUMP JUMPDEST PUSH2 0x1A9B PUSH8 0xACEF6BA5CB7B0DA4 PUSH1 0xC0 SHL PUSH2 0x1C14 JUMP JUMPDEST PUSH2 0x1AAF PUSH8 0x547F2E2C49B2D620 PUSH1 0xC0 SHL PUSH2 0x1C14 JUMP JUMPDEST PUSH2 0x1AC3 PUSH8 0x40F0D2AE8D2EFD08 PUSH1 0xC0 SHL PUSH2 0x1C14 JUMP JUMPDEST PUSH1 0x0 DUP4 SWAP1 POP PUSH2 0x1ADC PUSH8 0x617C27E05E4586AD PUSH1 0xC0 SHL PUSH2 0x1C14 JUMP JUMPDEST PUSH2 0x1AF0 PUSH8 0x9382A20C72CA1B2B PUSH1 0xC0 SHL PUSH2 0x1C14 JUMP JUMPDEST DUP1 PUSH20 0xFFFFFFFFFFFFFFFFFFFFFFFFFFFFFFFFFFFFFFFF AND PUSH4 0xA9059CBB DUP5 DUP5 PUSH1 0x40 MLOAD DUP4 PUSH4 0xFFFFFFFF AND PUSH1 0xE0 SHL DUP2 MSTORE PUSH1 0x4 ADD PUSH2 0x1B2B SWAP3 SWAP2 SWAP1 PUSH2 0x25D5 JUMP JUMPDEST PUSH1 0x20 PUSH1 0x40 MLOAD DUP1 DUP4 SUB DUP2 PUSH1 0x0 DUP8 GAS CALL ISZERO DUP1 ISZERO PUSH2 0x1B4A JUMPI RETURNDATASIZE PUSH1 0x0 DUP1 RETURNDATACOPY RETURNDATASIZE PUSH1 0x0 REVERT JUMPDEST POP POP POP POP PUSH1 0x40 MLOAD RETURNDATASIZE PUSH1 0x1F NOT PUSH1 0x1F DUP3 ADD AND DUP3 ADD DUP1 PUSH1 0x40 MSTORE POP DUP2 ADD SWAP1 PUSH2 0x1B6E SWAP2 SWAP1 PUSH2 0x26D8 JUMP JUMPDEST PUSH2 0x1BD9 JUMPI PUSH2 0x1B86 PUSH8 0x3AB56001DC249F58 PUSH1 0xC0 SHL PUSH2 0x1C14 JUMP JUMPDEST PUSH2 0x1B9A PUSH8 0x3CBBC04E9C19DC42 PUSH1 0xC0 SHL PUSH2 0x1C14 JUMP JUMPDEST DUP3 DUP3 PUSH1 0x40 MLOAD PUSH32 0x1C43B97600000000000000000000000000000000000000000000000000000000 DUP2 MSTORE PUSH1 0x4 ADD PUSH2 0x1BD0 SWAP3 SWAP2 SWAP1 PUSH2 0x25D5 JUMP JUMPDEST PUSH1 0x40 MLOAD DUP1 SWAP2 SUB SWAP1 REVERT JUMPDEST PUSH2 0x1BED PUSH8 0xFDA467EC834B964F PUSH1 0xC0 SHL PUSH2 0x1C14 JUMP JUMPDEST POP POP POP POP JUMP JUMPDEST PUSH1 0x0 PUSH2 0x1BFD PUSH2 0x1C57 JUMP JUMPDEST SWAP1 POP PUSH1 0x1 DUP2 PUSH1 0x0 ADD DUP2 SWAP1 SSTORE POP POP JUMP JUMPDEST PUSH1 0x0 CALLER SWAP1 POP SWAP1 JUMP JUMPDEST POP JUMP JUMPDEST PUSH2 0x1C1F PUSH2 0x1C7F JUMP JUMPDEST PUSH2 0x1C55 JUMPI PUSH1 0x40 MLOAD PUSH32 0xD7E6BCF800000000000000000000000000000000000000000000000000000000 DUP2 MSTORE PUSH1 0x4 ADD PUSH1 0x40 MLOAD DUP1 SWAP2 SUB SWAP1 REVERT JUMPDEST JUMP JUMPDEST PUSH1 0x0 PUSH32 0x9B779B17422D0DF92223018B32B4D1FA46E071723D6817E2486D003BECC55F00 SWAP1 POP SWAP1 JUMP JUMPDEST PUSH1 0x0 PUSH2 0x1C89 PUSH2 0x1977 JUMP JUMPDEST PUSH1 0x0 ADD PUSH1 0x8 SWAP1 SLOAD SWAP1 PUSH2 0x100 EXP SWAP1 DIV PUSH1 0xFF AND SWAP1 POP SWAP1 JUMP JUMPDEST PUSH1 0x0 PUSH1 0x40 MLOAD SWAP1 POP SWAP1 JUMP JUMPDEST PUSH1 0x0 DUP1 REVERT JUMPDEST PUSH1 0x0 DUP1 REVERT JUMPDEST PUSH1 0x0 DUP2 SWAP1 POP SWAP2 SWAP1 POP JUMP JUMPDEST PUSH2 0x1CC6 DUP2 PUSH2 0x1CB3 JUMP JUMPDEST DUP2 EQ PUSH2 0x1CD1 JUMPI PUSH1 0x0 DUP1 REVERT JUMPDEST POP JUMP JUMPDEST PUSH1 0x0 DUP2 CALLDATALOAD SWAP1 POP PUSH2 0x1CE3 DUP2 PUSH2 0x1CBD JUMP JUMPDEST SWAP3 SWAP2 POP POP JUMP JUMPDEST PUSH1 0x0 PUSH20 0xFFFFFFFFFFFFFFFFFFFFFFFFFFFFFFFFFFFFFFFF DUP3 AND SWAP1 POP SWAP2 SWAP1 POP JUMP JUMPDEST PUSH1 0x0 PUSH2 0x1D14 DUP3 PUSH2 0x1CE9 JUMP JUMPDEST SWAP1 POP SWAP2 SWAP1 POP JUMP JUMPDEST PUSH2 0x1D24 DUP2 PUSH2 0x1D09 JUMP JUMPDEST DUP2 EQ PUSH2 0x1D2F JUMPI PUSH1 0x0 DUP1 REVERT JUMPDEST POP JUMP JUMPDEST PUSH1 0x0 DUP2 CALLDATALOAD SWAP1 POP PUSH2 0x1D41 DUP2 PUSH2 0x1D1B JUMP JUMPDEST SWAP3 SWAP2 POP POP JUMP JUMPDEST PUSH1 0x0 DUP2 SWAP1 POP SWAP2 SWAP1 POP JUMP JUMPDEST PUSH2 0x1D5A DUP2 PUSH2 0x1D47 JUMP JUMPDEST DUP2 EQ PUSH2 0x1D65 JUMPI PUSH1 0x0 DUP1 REVERT JUMPDEST POP JUMP JUMPDEST PUSH1 0x0 DUP2 CALLDATALOAD SWAP1 POP PUSH2 0x1D77 DUP2 PUSH2 0x1D51 JUMP JUMPDEST SWAP3 SWAP2 POP POP JUMP JUMPDEST PUSH1 0x0 DUP1 REVERT JUMPDEST PUSH1 0x0 PUSH1 0x1F NOT PUSH1 0x1F DUP4 ADD AND SWAP1 POP SWAP2 SWAP1 POP JUMP JUMPDEST PUSH32 0x4E487B7100000000000000000000000000000000000000000000000000000000 PUSH1 0x0 MSTORE PUSH1 0x41 PUSH1 0x4 MSTORE PUSH1 0x24 PUSH1 0x0 REVERT JUMPDEST PUSH2 0x1DCB DUP3 PUSH2 0x1D82 JUMP JUMPDEST DUP2 ADD DUP2 DUP2 LT PUSH8 0xFFFFFFFFFFFFFFFF DUP3 GT OR ISZERO PUSH2 0x1DEA JUMPI PUSH2 0x1DE9 PUSH2 0x1D93 JUMP JUMPDEST JUMPDEST DUP1 PUSH1 0x40 MSTORE POP POP POP JUMP JUMPDEST PUSH1 0x0 PUSH2 0x1DFD PUSH2 0x1C9F JUMP JUMPDEST SWAP1 POP PUSH2 0x1E09 DUP3 DUP3 PUSH2 0x1DC2 JUMP JUMPDEST SWAP2 SWAP1 POP JUMP JUMPDEST PUSH1 0x0 PUSH8 0xFFFFFFFFFFFFFFFF DUP3 GT ISZERO PUSH2 0x1E29 JUMPI PUSH2 0x1E28 PUSH2 0x1D93 JUMP JUMPDEST JUMPDEST PUSH1 0x20 DUP3 MUL SWAP1 POP PUSH1 0x20 DUP2 ADD SWAP1 POP SWAP2 SWAP1 POP JUMP JUMPDEST PUSH1 0x0 DUP1 REVERT JUMPDEST PUSH1 0x0 DUP1 REVERT JUMPDEST PUSH1 0x0 PUSH1 0x40 DUP3 DUP5 SUB SLT ISZERO PUSH2 0x1E5A JUMPI PUSH2 0x1E59 PUSH2 0x1E3F JUMP JUMPDEST JUMPDEST PUSH2 0x1E64 PUSH1 0x40 PUSH2 0x1DF3 JUMP JUMPDEST SWAP1 POP PUSH1 0x0 PUSH2 0x1E74 DUP5 DUP3 DUP6 ADD PUSH2 0x1D68 JUMP JUMPDEST PUSH1 0x0 DUP4 ADD MSTORE POP PUSH1 0x20 PUSH2 0x1E88 DUP5 DUP3 DUP6 ADD PUSH2 0x1D68 JUMP JUMPDEST PUSH1 0x20 DUP4 ADD MSTORE POP SWAP3 SWAP2 POP POP JUMP JUMPDEST PUSH1 0x0 PUSH2 0x1EA7 PUSH2 0x1EA2 DUP5 PUSH2 0x1E0E JUMP JUMPDEST PUSH2 0x1DF3 JUMP JUMPDEST SWAP1 POP DUP1 DUP4 DUP3 MSTORE PUSH1 0x20 DUP3 ADD SWAP1 POP PUSH1 0x40 DUP5 MUL DUP4 ADD DUP6 DUP2 GT ISZERO PUSH2 0x1ECA JUMPI PUSH2 0x1EC9 PUSH2 0x1E3A JUMP JUMPDEST JUMPDEST DUP4 JUMPDEST DUP2 DUP2 LT ISZERO PUSH2 0x1EF3 JUMPI DUP1 PUSH2 0x1EDF DUP9 DUP3 PUSH2 0x1E44 JUMP JUMPDEST DUP5 MSTORE PUSH1 0x20 DUP5 ADD SWAP4 POP POP PUSH1 0x40 DUP2 ADD SWAP1 POP PUSH2 0x1ECC JUMP JUMPDEST POP POP POP SWAP4 SWAP3 POP POP POP JUMP JUMPDEST PUSH1 0x0 DUP3 PUSH1 0x1F DUP4 ADD SLT PUSH2 0x1F12 JUMPI PUSH2 0x1F11 PUSH2 0x1D7D JUMP JUMPDEST JUMPDEST DUP2 CALLDATALOAD PUSH2 0x1F22 DUP5 DUP3 PUSH1 0x20 DUP7 ADD PUSH2 0x1E94 JUMP JUMPDEST SWAP2 POP POP SWAP3 SWAP2 POP POP JUMP JUMPDEST PUSH1 0x0 DUP1 PUSH1 0x0 DUP1 PUSH1 0x0 PUSH1 0xA0 DUP7 DUP9 SUB SLT ISZERO PUSH2 0x1F47 JUMPI PUSH2 0x1F46 PUSH2 0x1CA9 JUMP JUMPDEST JUMPDEST PUSH1 0x0 PUSH2 0x1F55 DUP9 DUP3 DUP10 ADD PUSH2 0x1CD4 JUMP JUMPDEST SWAP6 POP POP PUSH1 0x20 PUSH2 0x1F66 DUP9 DUP3 DUP10 ADD PUSH2 0x1D32 JUMP JUMPDEST SWAP5 POP POP PUSH1 0x40 PUSH2 0x1F77 DUP9 DUP3 DUP10 ADD PUSH2 0x1D32 JUMP JUMPDEST SWAP4 POP POP PUSH1 0x60 PUSH2 0x1F88 DUP9 DUP3 DUP10 ADD PUSH2 0x1D68 JUMP JUMPDEST SWAP3 POP POP PUSH1 0x80 DUP7 ADD CALLDATALOAD PUSH8 0xFFFFFFFFFFFFFFFF DUP2 GT ISZERO PUSH2 0x1FA9 JUMPI PUSH2 0x1FA8 PUSH2 0x1CAE JUMP JUMPDEST JUMPDEST PUSH2 0x1FB5 DUP9 DUP3 DUP10 ADD PUSH2 0x1EFD JUMP JUMPDEST SWAP2 POP POP SWAP3 SWAP6 POP SWAP3 SWAP6 SWAP1 SWAP4 POP JUMP JUMPDEST PUSH1 0x0 DUP1 PUSH1 0x40 DUP4 DUP6 SUB SLT ISZERO PUSH2 0x1FD9 JUMPI PUSH2 0x1FD8 PUSH2 0x1CA9 JUMP JUMPDEST JUMPDEST PUSH1 0x0 PUSH2 0x1FE7 DUP6 DUP3 DUP7 ADD PUSH2 0x1D32 JUMP JUMPDEST SWAP3 POP POP PUSH1 0x20 PUSH2 0x1FF8 DUP6 DUP3 DUP7 ADD PUSH2 0x1CD4 JUMP JUMPDEST SWAP2 POP POP SWAP3 POP SWAP3 SWAP1 POP JUMP JUMPDEST PUSH2 0x200B DUP2 PUSH2 0x1D09 JUMP JUMPDEST DUP3 MSTORE POP POP JUMP JUMPDEST PUSH2 0x201A DUP2 PUSH2 0x1D47 JUMP JUMPDEST DUP3 MSTORE POP POP JUMP JUMPDEST PUSH1 0x0 PUSH1 0xC0 DUP3 ADD SWAP1 POP PUSH2 0x2035 PUSH1 0x0 DUP4 ADD DUP10 PUSH2 0x2002 JUMP JUMPDEST PUSH2 0x2042 PUSH1 0x20 DUP4 ADD DUP9 PUSH2 0x2011 JUMP JUMPDEST PUSH2 0x204F PUSH1 0x40 DUP4 ADD DUP8 PUSH2 0x2002 JUMP JUMPDEST PUSH2 0x205C PUSH1 0x60 DUP4 ADD DUP7 PUSH2 0x2011 JUMP JUMPDEST PUSH2 0x2069 PUSH1 0x80 DUP4 ADD DUP6 PUSH2 0x2011 JUMP JUMPDEST PUSH2 0x2076 PUSH1 0xA0 DUP4 ADD DUP5 PUSH2 0x2011 JUMP JUMPDEST SWAP8 SWAP7 POP POP POP POP POP POP POP JUMP JUMPDEST PUSH1 0x0 DUP1 PUSH1 0x0 PUSH1 0x60 DUP5 DUP7 SUB SLT ISZERO PUSH2 0x209A JUMPI PUSH2 0x2099 PUSH2 0x1CA9 JUMP JUMPDEST JUMPDEST PUSH1 0x0 PUSH2 0x20A8 DUP7 DUP3 DUP8 ADD PUSH2 0x1D32 JUMP JUMPDEST SWAP4 POP POP PUSH1 0x20 PUSH2 0x20B9 DUP7 DUP3 DUP8 ADD PUSH2 0x1CD4 JUMP JUMPDEST SWAP3 POP POP PUSH1 0x40 PUSH2 0x20CA DUP7 DUP3 DUP8 ADD PUSH2 0x1D68 JUMP JUMPDEST SWAP2 POP POP SWAP3 POP SWAP3 POP SWAP3 JUMP JUMPDEST PUSH1 0x0 PUSH1 0x40 DUP3 ADD SWAP1 POP PUSH2 0x20E9 PUSH1 0x0 DUP4 ADD DUP6 PUSH2 0x2011 JUMP JUMPDEST PUSH2 0x20F6 PUSH1 0x20 DUP4 ADD DUP5 PUSH2 0x2011 JUMP JUMPDEST SWAP4 SWAP3 POP POP POP JUMP JUMPDEST PUSH1 0x0 PUSH1 0x20 DUP3 ADD SWAP1 POP PUSH2 0x2112 PUSH1 0x0 DUP4 ADD DUP5 PUSH2 0x2002 JUMP JUMPDEST SWAP3 SWAP2 POP POP JUMP JUMPDEST PUSH1 0x0 PUSH1 0x20 DUP3 DUP5 SUB SLT ISZERO PUSH2 0x212E JUMPI PUSH2 0x212D PUSH2 0x1CA9 JUMP JUMPDEST JUMPDEST PUSH1 0x0 PUSH2 0x213C DUP5 DUP3 DUP6 ADD PUSH2 0x1D32 JUMP JUMPDEST SWAP2 POP POP SWAP3 SWAP2 POP POP JUMP JUMPDEST PUSH32 0x4E487B7100000000000000000000000000000000000000000000000000000000 PUSH1 0x0 MSTORE PUSH1 0x32 PUSH1 0x4 MSTORE PUSH1 0x24 PUSH1 0x0 REVERT JUMPDEST PUSH32 0x4E487B7100000000000000000000000000000000000000000000000000000000 PUSH1 0x0 MSTORE PUSH1 0x11 PUSH1 0x4 MSTORE PUSH1 0x24 PUSH1 0x0 REVERT JUMPDEST PUSH1 0x0 PUSH2 0x21AE DUP3 PUSH2 0x1D47 JUMP JUMPDEST SWAP2 POP PUSH32 0xFFFFFFFFFFFFFFFFFFFFFFFFFFFFFFFFFFFFFFFFFFFFFFFFFFFFFFFFFFFFFFFF DUP3 SUB PUSH2 0x21E0 JUMPI PUSH2 0x21DF PUSH2 0x2174 JUMP JUMPDEST JUMPDEST PUSH1 0x1 DUP3 ADD SWAP1 POP SWAP2 SWAP1 POP JUMP JUMPDEST PUSH2 0x21F4 DUP2 PUSH2 0x1D09 JUMP JUMPDEST DUP3 MSTORE POP POP JUMP JUMPDEST PUSH1 0x0 PUSH2 0x2206 DUP4 DUP4 PUSH2 0x21EB JUMP JUMPDEST PUSH1 0x20 DUP4 ADD SWAP1 POP SWAP3 SWAP2 POP POP JUMP JUMPDEST PUSH2 0x221B DUP2 PUSH2 0x1D47 JUMP JUMPDEST DUP3 MSTORE POP POP JUMP JUMPDEST PUSH1 0x0 PUSH2 0x222D DUP4 DUP4 PUSH2 0x2212 JUMP JUMPDEST PUSH1 0x20 DUP4 ADD SWAP1 POP SWAP3 SWAP2 POP POP JUMP JUMPDEST PUSH1 0x0 DUP3 ADD PUSH1 0x0 DUP3 ADD MLOAD PUSH2 0x224C DUP5 DUP3 PUSH2 0x21FA JUMP JUMPDEST SWAP4 POP POP PUSH1 0x20 DUP3 ADD MLOAD PUSH2 0x225E DUP5 DUP3 PUSH2 0x2221 JUMP JUMPDEST SWAP4 POP POP PUSH1 0x40 DUP3 ADD MLOAD PUSH2 0x2270 DUP5 DUP3 PUSH2 0x21FA JUMP JUMPDEST SWAP4 POP POP PUSH1 0x60 DUP3 ADD MLOAD PUSH2 0x2282 DUP5 DUP3 PUSH2 0x2221 JUMP JUMPDEST SWAP4 POP POP PUSH1 0x80 DUP3 ADD MLOAD PUSH2 0x2294 DUP5 DUP3 PUSH2 0x2221 JUMP JUMPDEST SWAP4 POP POP PUSH1 0xA0 DUP3 ADD MLOAD PUSH2 0x22A6 DUP5 DUP3 PUSH2 0x2221 JUMP JUMPDEST SWAP4 POP POP POP POP POP JUMP JUMPDEST PUSH1 0x0 PUSH2 0x22BA DUP4 DUP4 PUSH2 0x2239 JUMP JUMPDEST PUSH1 0xC0 DUP4 ADD SWAP1 POP SWAP3 SWAP2 POP POP JUMP JUMPDEST PUSH1 0x0 DUP2 MLOAD SWAP1 POP SWAP2 SWAP1 POP JUMP JUMPDEST PUSH1 0x0 DUP2 SWAP1 POP SWAP3 SWAP2 POP POP JUMP JUMPDEST PUSH1 0x0 DUP2 SWAP1 POP PUSH1 0x20 DUP3 ADD SWAP1 POP SWAP2 SWAP1 POP JUMP JUMPDEST PUSH1 0x0 DUP3 ADD PUSH1 0x0 DUP3 ADD MLOAD PUSH2 0x22FF DUP5 DUP3 PUSH2 0x2221 JUMP JUMPDEST SWAP4 POP POP PUSH1 0x20 DUP3 ADD MLOAD PUSH2 0x2311 DUP5 DUP3 PUSH2 0x2221 JUMP JUMPDEST SWAP4 POP POP POP POP POP JUMP JUMPDEST PUSH1 0x0 PUSH2 0x2325 DUP4 DUP4 PUSH2 0x22EC JUMP JUMPDEST PUSH1 0x40 DUP4 ADD SWAP1 POP SWAP3 SWAP2 POP POP JUMP JUMPDEST PUSH1 0x0 PUSH1 0x20 DUP3 ADD SWAP1 POP SWAP2 SWAP1 POP JUMP JUMPDEST PUSH1 0x0 PUSH2 0x2349 DUP3 PUSH2 0x22C6 JUMP JUMPDEST PUSH2 0x2353 DUP2 DUP6 PUSH2 0x22D1 JUMP JUMPDEST SWAP4 POP PUSH2 0x235E DUP4 PUSH2 0x22DC JUMP JUMPDEST DUP1 PUSH1 0x0 JUMPDEST DUP4 DUP2 LT ISZERO PUSH2 0x238F JUMPI DUP2 MLOAD PUSH2 0x2376 DUP9 DUP3 PUSH2 0x2319 JUMP JUMPDEST SWAP8 POP PUSH2 0x2381 DUP4 PUSH2 0x2331 JUMP JUMPDEST SWAP3 POP POP PUSH1 0x1 DUP2 ADD SWAP1 POP PUSH2 0x2362 JUMP JUMPDEST POP DUP6 SWAP4 POP POP POP POP SWAP3 SWAP2 POP POP JUMP JUMPDEST PUSH1 0x0 PUSH2 0x23A8 DUP4 DUP4 PUSH2 0x233E JUMP JUMPDEST SWAP1 POP SWAP3 SWAP2 POP POP JUMP JUMPDEST PUSH2 0x23B9 DUP2 PUSH2 0x1CB3 JUMP JUMPDEST DUP3 MSTORE POP POP JUMP JUMPDEST PUSH1 0x0 PUSH2 0x23CB DUP4 DUP4 PUSH2 0x23B0 JUMP JUMPDEST PUSH1 0x20 DUP4 ADD SWAP1 POP SWAP3 SWAP2 POP POP JUMP JUMPDEST PUSH1 0x0 DUP1 DUP4 ADD PUSH1 0x0 DUP4 ADD MLOAD PUSH2 0x23EB DUP6 DUP3 PUSH2 0x22AE JUMP JUMPDEST SWAP5 POP POP PUSH1 0x20 DUP4 ADD MLOAD PUSH2 0x23FD DUP6 DUP3 PUSH2 0x239C JUMP JUMPDEST SWAP5 POP POP PUSH1 0x40 DUP4 ADD MLOAD PUSH2 0x240F DUP6 DUP3 PUSH2 0x21FA JUMP JUMPDEST SWAP5 POP POP PUSH1 0x60 DUP4 ADD MLOAD PUSH2 0x2421 DUP6 DUP3 PUSH2 0x23BF JUMP JUMPDEST SWAP5 POP POP DUP4 SWAP2 POP POP SWAP3 SWAP2 POP POP JUMP JUMPDEST PUSH1 0x0 PUSH2 0x243A DUP3 DUP5 PUSH2 0x23D7 JUMP JUMPDEST SWAP2 POP DUP2 SWAP1 POP SWAP3 SWAP2 POP POP JUMP JUMPDEST PUSH1 0x0 DUP2 SWAP1 POP SWAP2 SWAP1 POP JUMP JUMPDEST PUSH1 0x0 PUSH8 0xFFFFFFFFFFFFFFFF DUP3 AND SWAP1 POP SWAP2 SWAP1 POP JUMP JUMPDEST PUSH1 0x0 DUP2 SWAP1 POP SWAP2 SWAP1 POP JUMP JUMPDEST PUSH1 0x0 PUSH2 0x2488 PUSH2 0x2483 PUSH2 0x247E DUP5 PUSH2 0x2445 JUMP JUMPDEST PUSH2 0x2463 JUMP JUMPDEST PUSH2 0x244F JUMP JUMPDEST SWAP1 POP SWAP2 SWAP1 POP JUMP JUMPDEST PUSH2 0x2498 DUP2 PUSH2 0x246D JUMP JUMPDEST DUP3 MSTORE POP POP JUMP JUMPDEST PUSH1 0x0 PUSH1 0x20 DUP3 ADD SWAP1 POP PUSH2 0x24B3 PUSH1 0x0 DUP4 ADD DUP5 PUSH2 0x248F JUMP JUMPDEST SWAP3 SWAP2 POP POP JUMP JUMPDEST PUSH1 0x0 PUSH2 0x24C4 DUP3 PUSH2 0x1D47 JUMP JUMPDEST SWAP2 POP PUSH2 0x24CF DUP4 PUSH2 0x1D47 JUMP JUMPDEST SWAP3 POP DUP3 DUP3 MUL PUSH2 0x24DD DUP2 PUSH2 0x1D47 JUMP JUMPDEST SWAP2 POP DUP3 DUP3 DIV DUP5 EQ DUP4 ISZERO OR PUSH2 0x24F4 JUMPI PUSH2 0x24F3 PUSH2 0x2174 JUMP JUMPDEST JUMPDEST POP SWAP3 SWAP2 POP POP JUMP JUMPDEST PUSH1 0x0 PUSH2 0x2506 DUP3 PUSH2 0x1D47 JUMP JUMPDEST SWAP2 POP PUSH2 0x2511 DUP4 PUSH2 0x1D47 JUMP JUMPDEST SWAP3 POP DUP3 DUP3 ADD SWAP1 POP DUP1 DUP3 GT ISZERO PUSH2 0x2529 JUMPI PUSH2 0x2528 PUSH2 0x2174 JUMP JUMPDEST JUMPDEST SWAP3 SWAP2 POP POP JUMP JUMPDEST PUSH32 0x4E487B7100000000000000000000000000000000000000000000000000000000 PUSH1 0x0 MSTORE PUSH1 0x12 PUSH1 0x4 MSTORE PUSH1 0x24 PUSH1 0x0 REVERT JUMPDEST PUSH1 0x0 PUSH2 0x2569 DUP3 PUSH2 0x1D47 JUMP JUMPDEST SWAP2 POP PUSH2 0x2574 DUP4 PUSH2 0x1D47 JUMP JUMPDEST SWAP3 POP DUP3 PUSH2 0x2584 JUMPI PUSH2 0x2583 PUSH2 0x252F JUMP JUMPDEST JUMPDEST DUP3 DUP3 DIV SWAP1 POP SWAP3 SWAP2 POP POP JUMP JUMPDEST PUSH1 0x0 DUP2 SWAP1 POP SWAP3 SWAP2 POP POP JUMP JUMPDEST POP JUMP JUMPDEST PUSH1 0x0 PUSH2 0x25AA PUSH1 0x0 DUP4 PUSH2 0x258F JUMP JUMPDEST SWAP2 POP PUSH2 0x25B5 DUP3 PUSH2 0x259A JUMP JUMPDEST PUSH1 0x0 DUP3 ADD SWAP1 POP SWAP2 SWAP1 POP JUMP JUMPDEST PUSH1 0x0 PUSH2 0x25CB DUP3 PUSH2 0x259D JUMP JUMPDEST SWAP2 POP DUP2 SWAP1 POP SWAP2 SWAP1 POP JUMP JUMPDEST PUSH1 0x0 PUSH1 0x40 DUP3 ADD SWAP1 POP PUSH2 0x25EA PUSH1 0x0 DUP4 ADD DUP6 PUSH2 0x2002 JUMP JUMPDEST PUSH2 0x25F7 PUSH1 0x20 DUP4 ADD DUP5 PUSH2 0x2011 JUMP JUMPDEST SWAP4 SWAP3 POP POP POP JUMP JUMPDEST PUSH1 0x0 PUSH1 0x40 DUP3 ADD SWAP1 POP PUSH2 0x2613 PUSH1 0x0 DUP4 ADD DUP6 PUSH2 0x2002 JUMP JUMPDEST PUSH2 0x2620 PUSH1 0x20 DUP4 ADD DUP5 PUSH2 0x2002 JUMP JUMPDEST SWAP4 SWAP3 POP POP POP JUMP JUMPDEST PUSH1 0x0 DUP2 MLOAD SWAP1 POP PUSH2 0x2636 DUP2 PUSH2 0x1D51 JUMP JUMPDEST SWAP3 SWAP2 POP POP JUMP JUMPDEST PUSH1 0x0 PUSH1 0x20 DUP3 DUP5 SUB SLT ISZERO PUSH2 0x2652 JUMPI PUSH2 0x2651 PUSH2 0x1CA9 JUMP JUMPDEST JUMPDEST PUSH1 0x0 PUSH2 0x2660 DUP5 DUP3 DUP6 ADD PUSH2 0x2627 JUMP JUMPDEST SWAP2 POP POP SWAP3 SWAP2 POP POP JUMP JUMPDEST PUSH1 0x0 PUSH1 0x60 DUP3 ADD SWAP1 POP PUSH2 0x267E PUSH1 0x0 DUP4 ADD DUP7 PUSH2 0x2002 JUMP JUMPDEST PUSH2 0x268B PUSH1 0x20 DUP4 ADD DUP6 PUSH2 0x2002 JUMP JUMPDEST PUSH2 0x2698 PUSH1 0x40 DUP4 ADD DUP5 PUSH2 0x2011 JUMP JUMPDEST SWAP5 SWAP4 POP POP POP POP JUMP JUMPDEST PUSH1 0x0 DUP2 ISZERO ISZERO SWAP1 POP SWAP2 SWAP1 POP JUMP JUMPDEST PUSH2 0x26B5 DUP2 PUSH2 0x26A0 JUMP JUMPDEST DUP2 EQ PUSH2 0x26C0 JUMPI PUSH1 0x0 DUP1 REVERT JUMPDEST POP JUMP JUMPDEST PUSH1 0x0 DUP2 MLOAD SWAP1 POP PUSH2 0x26D2 DUP2 PUSH2 0x26AC JUMP JUMPDEST SWAP3 SWAP2 POP POP JUMP JUMPDEST PUSH1 0x0 PUSH1 0x20 DUP3 DUP5 SUB SLT ISZERO PUSH2 0x26EE JUMPI PUSH2 0x26ED PUSH2 0x1CA9 JUMP JUMPDEST JUMPDEST PUSH1 0x0 PUSH2 0x26FC DUP5 DUP3 DUP6 ADD PUSH2 0x26C3 JUMP JUMPDEST SWAP2 POP POP SWAP3 SWAP2 POP POP JUMP INVALID LOG2 PUSH5 0x6970667358 0x22 SLT KECCAK256 PUSH28 0xC7185FB7F0FEE2B5E0E23205F3AFA3C0A152C0C714CF400CB416A7B9 0xE8 0xEA 0xC0 PUSH5 0x736F6C6343 STOP ADDMOD EQ STOP CALLER "},"methodIdentifiers":{"initialize(address)":"c4d66de8","owner()":"8da5cb5b","release(address,bytes32)":"d7c2eec7","releaseInfos(address,bytes32,uint256)":"82a969e2","renounceOwnership()":"715018a6","startVesting(bytes32,address,address,uint256,(uint256,uint256)[])":"7623f00e","transferOwnership(address)":"f2fde38b","vestingSchedules(address,bytes32)":"7b00ffad"}},"storageLayout":{"storage":[{"astId":6791,"contract":"contracts/vesting/Vesting.sol:Vesting","label":"vestingSchedules","offset":0,"slot":"0","type":"t_mapping(t_address,t_mapping(t_bytes32,t_struct(VestingSchedule)7521_storage))"},{"astId":6800,"contract":"contracts/vesting/Vesting.sol:Vesting","label":"releaseInfos","offset":0,"slot":"1","type":"t_mapping(t_address,t_mapping(t_bytes32,t_array(t_struct(Release)1730_storage)dyn_storage))"}],"types":{"t_address":{"encoding":"inplace","label":"address","numberOfBytes":"20"},"t_array(t_struct(Release)1730_storage)dyn_storage":{"base":"t_struct(Release)1730_storage","encoding":"dynamic_array","label":"struct IAtomicSwapBase.Release[]","numberOfBytes":"32"},"t_bytes32":{"encoding":"inplace","label":"bytes32","numberOfBytes":"32"},"t_mapping(t_address,t_mapping(t_bytes32,t_array(t_struct(Release)1730_storage)dyn_storage))":{"encoding":"mapping","key":"t_address","label":"mapping(address => mapping(bytes32 => struct IAtomicSwapBase.Release[]))","numberOfBytes":"32","value":"t_mapping(t_bytes32,t_array(t_struct(Release)1730_storage)dyn_storage)"},"t_mapping(t_address,t_mapping(t_bytes32,t_struct(VestingSchedule)7521_storage))":{"encoding":"mapping","key":"t_address","label":"mapping(address => mapping(bytes32 => struct IVesting.VestingSchedule))","numberOfBytes":"32","value":"t_mapping(t_bytes32,t_struct(VestingSchedule)7521_storage)"},"t_mapping(t_bytes32,t_array(t_struct(Release)1730_storage)dyn_storage)":{"encoding":"mapping","key":"t_bytes32","label":"mapping(bytes32 => struct IAtomicSwapBase.Release[])","numberOfBytes":"32","value":"t_array(t_struct(Release)1730_storage)dyn_storage"},"t_mapping(t_bytes32,t_struct(VestingSchedule)7521_storage)":{"encoding":"mapping","key":"t_bytes32","label":"mapping(bytes32 => struct IVesting.VestingSchedule)","numberOfBytes":"32","value":"t_struct(VestingSchedule)7521_storage"},"t_struct(Release)1730_storage":{"encoding":"inplace","label":"struct IAtomicSwapBase.Release","members":[{"astId":1727,"contract":"contracts/vesting/Vesting.sol:Vesting","label":"durationInHours","offset":0,"slot":"0","type":"t_uint256"},{"astId":1729,"contract":"contracts/vesting/Vesting.sol:Vesting","label":"percentage","offset":0,"slot":"1","type":"t_uint256"}],"numberOfBytes":"64"},"t_struct(VestingSchedule)7521_storage":{"encoding":"inplace","label":"struct IVesting.VestingSchedule","members":[{"astId":7510,"contract":"contracts/vesting/Vesting.sol:Vesting","label":"from","offset":0,"slot":"0","type":"t_address"},{"astId":7512,"contract":"contracts/vesting/Vesting.sol:Vesting","label":"start","offset":0,"slot":"1","type":"t_uint256"},{"astId":7514,"contract":"contracts/vesting/Vesting.sol:Vesting","label":"token","offset":0,"slot":"2","type":"t_address"},{"astId":7516,"contract":"contracts/vesting/Vesting.sol:Vesting","label":"totalAmount","offset":0,"slot":"3","type":"t_uint256"},{"astId":7518,"contract":"contracts/vesting/Vesting.sol:Vesting","label":"amountReleased","offset":0,"slot":"4","type":"t_uint256"},{"astId":7520,"contract":"contracts/vesting/Vesting.sol:Vesting","label":"lastReleasedStep","offset":0,"slot":"5","type":"t_uint256"}],"numberOfBytes":"192"},"t_uint256":{"encoding":"inplace","label":"uint256","numberOfBytes":"32"}}}}}}