{"contracts/inchain_atomicswap/InchainAtomicSwap.sol":{"InchainAtomicSwap":{"abi":[{"inputs":[{"internalType":"uint256","name":"provided","type":"uint256"},{"internalType":"uint256","name":"expectedExpiry","type":"uint256"}],"name":"BidAlreadyExpired","type":"error"},{"inputs":[],"name":"BidAlreadyPlaced","type":"error"},{"inputs":[],"name":"BidDoesNotExist","type":"error"},{"inputs":[],"name":"BidNotAllowed","type":"error"},{"inputs":[{"internalType":"enum IAtomicSwapBase.BidStatus","name":"status","type":"uint8"}],"name":"BidNotInPlacedStatus","type":"error"},{"inputs":[],"name":"InactiveOrder","type":"error"},{"inputs":[],"name":"InvaldAddition","type":"error"},{"inputs":[],"name":"InvalidAddress","type":"error"},{"inputs":[],"name":"InvalidBidderAddress","type":"error"},{"inputs":[],"name":"InvalidBuyerFee","type":"error"},{"inputs":[{"internalType":"address","name":"contractAddress","type":"address"}],"name":"InvalidContractAddress","type":"error"},{"inputs":[{"internalType":"uint256","name":"provided","type":"uint256"},{"internalType":"uint256","name":"maximum","type":"uint256"}],"name":"InvalidExpirationTime","type":"error"},{"inputs":[],"name":"InvalidInitialization","type":"error"},{"inputs":[],"name":"InvalidMinimumBidLimit","type":"error"},{"inputs":[],"name":"InvalidReleasePercentage","type":"error"},{"inputs":[],"name":"InvalidSellerFee","type":"error"},{"inputs":[],"name":"InvalidTotalPercentage","type":"error"},{"inputs":[],"name":"InvalidTreasuryAddress","type":"error"},{"inputs":[{"internalType":"uint256","name":"amount","type":"uint256"}],"name":"MismatchedBidAmount","type":"error"},{"inputs":[],"name":"NoBidPlaced","type":"error"},{"inputs":[{"internalType":"uint256","name":"amount","type":"uint256"},{"internalType":"uint256","name":"allowance","type":"uint256"}],"name":"NotAllowedTransferAmount","type":"error"},{"inputs":[{"internalType":"uint256","name":"real","type":"uint256"},{"internalType":"uint256","name":"expected","type":"uint256"}],"name":"NotEnoughFund","type":"error"},{"inputs":[],"name":"NotInitializing","type":"error"},{"inputs":[],"name":"OrderAlreadyExists","type":"error"},{"inputs":[],"name":"OrderCanceled","type":"error"},{"inputs":[],"name":"OrderDoesNotExist","type":"error"},{"inputs":[],"name":"OrderNotAllowTake","type":"error"},{"inputs":[],"name":"OverMaximumReleaseStep","type":"error"},{"inputs":[{"internalType":"address","name":"owner","type":"address"}],"name":"OwnableInvalidOwner","type":"error"},{"inputs":[{"internalType":"address","name":"account","type":"address"}],"name":"OwnableUnauthorizedAccount","type":"error"},{"inputs":[],"name":"ReentrancyGuardReentrantCall","type":"error"},{"inputs":[{"internalType":"address","name":"to","type":"address"},{"internalType":"uint256","name":"amount","type":"uint256"}],"name":"TransferFailed","type":"error"},{"inputs":[{"internalType":"address","name":"from","type":"address"},{"internalType":"address","name":"to","type":"address"},{"internalType":"uint256","name":"amount","type":"uint256"}],"name":"TransferFromFailed","type":"error"},{"inputs":[{"internalType":"address","name":"recipient","type":"address"},{"internalType":"uint256","name":"amount","type":"uint256"}],"name":"TransferToRecipientFailed","type":"error"},{"inputs":[{"internalType":"address","name":"recipient","type":"address"},{"internalType":"uint256","name":"amount","type":"uint256"}],"name":"TransferToTreasuryFailed","type":"error"},{"inputs":[{"internalType":"address","name":"caller","type":"address"},{"internalType":"address","name":"expected","type":"address"}],"name":"UnauthorizedAcceptAction","type":"error"},{"inputs":[],"name":"UnauthorizedCancelAction","type":"error"},{"inputs":[],"name":"UnauthorizedSender","type":"error"},{"inputs":[],"name":"UnauthorizedTakeAction","type":"error"},{"inputs":[],"name":"UnsupportedTokenPair","type":"error"},{"inputs":[],"name":"ZeroReleaseSchedule","type":"error"},{"anonymous":false,"inputs":[{"indexed":true,"internalType":"bytes32","name":"orderID","type":"bytes32"},{"indexed":true,"internalType":"address","name":"bidder","type":"address"},{"indexed":true,"internalType":"uint256","name":"amount","type":"uint256"}],"name":"AcceptedBid","type":"event"},{"anonymous":false,"inputs":[{"indexed":true,"internalType":"bytes32","name":"id","type":"bytes32"}],"name":"AtomicSwapOrderCanceled","type":"event"},{"anonymous":false,"inputs":[{"indexed":true,"internalType":"bytes32","name":"id","type":"bytes32"}],"name":"AtomicSwapOrderCreated","type":"event"},{"anonymous":false,"inputs":[{"indexed":true,"internalType":"address","name":"maker","type":"address"},{"indexed":true,"internalType":"address","name":"taker","type":"address"},{"indexed":true,"internalType":"bytes32","name":"id","type":"bytes32"}],"name":"AtomicSwapOrderTook","type":"event"},{"anonymous":false,"inputs":[{"indexed":true,"internalType":"bytes32","name":"orderID","type":"bytes32"},{"indexed":true,"internalType":"address","name":"bidder","type":"address"}],"name":"CanceledBid","type":"event"},{"anonymous":false,"inputs":[{"indexed":false,"internalType":"uint64","name":"version","type":"uint64"}],"name":"Initialized","type":"event"},{"anonymous":false,"inputs":[{"indexed":true,"internalType":"address","name":"previousOwner","type":"address"},{"indexed":true,"internalType":"address","name":"newOwner","type":"address"}],"name":"OwnershipTransferred","type":"event"},{"anonymous":false,"inputs":[{"indexed":true,"internalType":"bytes32","name":"orderID","type":"bytes32"},{"indexed":true,"internalType":"address","name":"bidder","type":"address"},{"indexed":true,"internalType":"uint256","name":"amount","type":"uint256"}],"name":"PlacedBid","type":"event"},{"anonymous":false,"inputs":[{"indexed":true,"internalType":"bytes32","name":"orderID","type":"bytes32"},{"indexed":true,"internalType":"address","name":"bidder","type":"address"},{"indexed":true,"internalType":"uint256","name":"amount","type":"uint256"}],"name":"ReceivedNewBid","type":"event"},{"anonymous":false,"inputs":[{"indexed":true,"internalType":"bytes32","name":"orderID","type":"bytes32"},{"indexed":true,"internalType":"address","name":"bidder","type":"address"},{"indexed":true,"internalType":"uint256","name":"amount","type":"uint256"}],"name":"UpdatedBid","type":"event"},{"inputs":[{"components":[{"internalType":"bytes32","name":"orderID","type":"bytes32"},{"internalType":"address","name":"bidder","type":"address"}],"internalType":"struct IAtomicSwapBase.AcceptBidMsg","name":"acceptBidMsg","type":"tuple"}],"name":"acceptBid","outputs":[],"stateMutability":"payable","type":"function"},{"inputs":[{"internalType":"bytes32","name":"","type":"bytes32"},{"internalType":"address","name":"","type":"address"}],"name":"bids","outputs":[{"internalType":"uint256","name":"amount","type":"uint256"},{"internalType":"bytes32","name":"order","type":"bytes32"},{"internalType":"enum IAtomicSwapBase.BidStatus","name":"status","type":"uint8"},{"internalType":"address","name":"bidder","type":"address"},{"internalType":"uint256","name":"receiveTimestamp","type":"uint256"},{"internalType":"uint256","name":"expireTimestamp","type":"uint256"}],"stateMutability":"view","type":"function"},{"inputs":[],"name":"buyerFeeRate","outputs":[{"internalType":"uint256","name":"","type":"uint256"}],"stateMutability":"view","type":"function"},{"inputs":[{"internalType":"bytes32","name":"_orderID","type":"bytes32"}],"name":"cancelBid","outputs":[],"stateMutability":"payable","type":"function"},{"inputs":[{"components":[{"internalType":"bytes32","name":"orderID","type":"bytes32"}],"internalType":"struct IAtomicSwapBase.CancelSwapMsg","name":"cancelswap","type":"tuple"}],"name":"cancelSwap","outputs":[],"stateMutability":"payable","type":"function"},{"inputs":[{"internalType":"bytes32","name":"","type":"bytes32"},{"internalType":"address","name":"","type":"address"}],"name":"counteroffers","outputs":[{"internalType":"uint256","name":"","type":"uint256"}],"stateMutability":"view","type":"function"},{"inputs":[{"internalType":"address","name":"_admin","type":"address"},{"internalType":"address","name":"_vestingManager","type":"address"},{"internalType":"address","name":"_treasury","type":"address"},{"internalType":"uint256","name":"_sellerFee","type":"uint256"},{"internalType":"uint256","name":"_buyerFee","type":"uint256"}],"name":"initialize","outputs":[],"stateMutability":"nonpayable","type":"function"},{"inputs":[{"components":[{"internalType":"bytes32","name":"uuid","type":"bytes32"},{"components":[{"internalType":"address","name":"token","type":"address"},{"internalType":"uint256","name":"amount","type":"uint256"}],"internalType":"struct IAtomicSwapBase.Coin","name":"sellToken","type":"tuple"},{"components":[{"internalType":"address","name":"token","type":"address"},{"internalType":"uint256","name":"amount","type":"uint256"}],"internalType":"struct IAtomicSwapBase.Coin","name":"buyToken","type":"tuple"},{"internalType":"address","name":"maker","type":"address"},{"internalType":"address","name":"desiredTaker","type":"address"},{"internalType":"uint256","name":"minBidAmount","type":"uint256"},{"internalType":"uint256","name":"expireAt","type":"uint256"},{"internalType":"bool","name":"acceptBid","type":"bool"}],"internalType":"struct IAtomicSwapBase.MakeSwapMsg","name":"makeswap","type":"tuple"}],"name":"makeSwap","outputs":[{"internalType":"bytes32","name":"","type":"bytes32"}],"stateMutability":"payable","type":"function"},{"inputs":[{"components":[{"internalType":"bytes32","name":"uuid","type":"bytes32"},{"components":[{"internalType":"address","name":"token","type":"address"},{"internalType":"uint256","name":"amount","type":"uint256"}],"internalType":"struct IAtomicSwapBase.Coin","name":"sellToken","type":"tuple"},{"components":[{"internalType":"address","name":"token","type":"address"},{"internalType":"uint256","name":"amount","type":"uint256"}],"internalType":"struct IAtomicSwapBase.Coin","name":"buyToken","type":"tuple"},{"internalType":"address","name":"maker","type":"address"},{"internalType":"address","name":"desiredTaker","type":"address"},{"internalType":"uint256","name":"minBidAmount","type":"uint256"},{"internalType":"uint256","name":"expireAt","type":"uint256"},{"internalType":"bool","name":"acceptBid","type":"bool"}],"internalType":"struct IAtomicSwapBase.MakeSwapMsg","name":"makeswap","type":"tuple"},{"components":[{"internalType":"uint256","name":"durationInHours","type":"uint256"},{"internalType":"uint256","name":"percentage","type":"uint256"}],"internalType":"struct IAtomicSwapBase.Release[]","name":"releases","type":"tuple[]"}],"name":"makeSwapWithVesting","outputs":[],"stateMutability":"payable","type":"function"},{"inputs":[],"name":"owner","outputs":[{"internalType":"address","name":"","type":"address"}],"stateMutability":"view","type":"function"},{"inputs":[{"components":[{"internalType":"uint256","name":"bidAmount","type":"uint256"},{"internalType":"address","name":"bidder","type":"address"},{"internalType":"bytes32","name":"orderID","type":"bytes32"},{"internalType":"uint256","name":"expireTimestamp","type":"uint256"}],"internalType":"struct IAtomicSwapBase.PlaceBidMsg","name":"placeBidMsg","type":"tuple"}],"name":"placeBid","outputs":[],"stateMutability":"payable","type":"function"},{"inputs":[],"name":"renounceOwnership","outputs":[],"stateMutability":"nonpayable","type":"function"},{"inputs":[],"name":"sellerFeeRate","outputs":[{"internalType":"uint256","name":"","type":"uint256"}],"stateMutability":"view","type":"function"},{"inputs":[{"internalType":"bytes32","name":"","type":"bytes32"}],"name":"swapOrder","outputs":[{"internalType":"bytes32","name":"id","type":"bytes32"},{"internalType":"enum IAtomicSwapBase.OrderStatus","name":"status","type":"uint8"},{"internalType":"address","name":"maker","type":"address"},{"components":[{"internalType":"address","name":"token","type":"address"},{"internalType":"uint256","name":"amount","type":"uint256"}],"internalType":"struct IAtomicSwapBase.Coin","name":"sellToken","type":"tuple"},{"internalType":"address","name":"taker","type":"address"},{"components":[{"internalType":"address","name":"token","type":"address"},{"internalType":"uint256","name":"amount","type":"uint256"}],"internalType":"struct IAtomicSwapBase.Coin","name":"buyToken","type":"tuple"},{"internalType":"uint256","name":"minBidAmount","type":"uint256"},{"internalType":"uint256","name":"createdAt","type":"uint256"},{"internalType":"uint256","name":"canceledAt","type":"uint256"},{"internalType":"uint256","name":"completedAt","type":"uint256"},{"internalType":"uint256","name":"expiredAt","type":"uint256"},{"internalType":"bool","name":"acceptBid","type":"bool"}],"stateMutability":"view","type":"function"},{"inputs":[{"internalType":"bytes32","name":"","type":"bytes32"},{"internalType":"uint256","name":"","type":"uint256"}],"name":"swapOrderVestingParams","outputs":[{"internalType":"uint256","name":"durationInHours","type":"uint256"},{"internalType":"uint256","name":"percentage","type":"uint256"}],"stateMutability":"view","type":"function"},{"inputs":[{"components":[{"internalType":"bytes32","name":"orderID","type":"bytes32"},{"internalType":"address","name":"takerReceiver","type":"address"}],"internalType":"struct IAtomicSwapBase.TakeSwapMsg","name":"takeswapMsg","type":"tuple"}],"name":"takeSwap","outputs":[],"stateMutability":"payable","type":"function"},{"inputs":[{"internalType":"address","name":"newOwner","type":"address"}],"name":"transferOwnership","outputs":[],"stateMutability":"nonpayable","type":"function"},{"inputs":[{"components":[{"internalType":"bytes32","name":"orderID","type":"bytes32"},{"internalType":"address","name":"bidder","type":"address"},{"internalType":"uint256","name":"addition","type":"uint256"}],"internalType":"struct IAtomicSwapBase.UpdateBidMsg","name":"updateBidMsg","type":"tuple"}],"name":"updateBid","outputs":[],"stateMutability":"payable","type":"function"}],"evm":{"bytecode":{"linkReferences":{"contracts/abstracts/libs/logic/AtomicSwapStateLogic.sol":{"AtomicSwapStateLogic":[{"length":20,"start":7861},{"length":20,"start":15348},{"length":20,"start":15515}]},"contracts/abstracts/libs/utils/AtomicSwapMsgValidator.sol":{"AtomicSwapMsgValidator":[{"length":20,"start":4570},{"length":20,"start":4781},{"length":20,"start":8241},{"length":20,"start":9370},{"length":20,"start":15197}]},"contracts/abstracts/libs/utils/TokenTransferHelper.sol":{"TokenTransferHelper":[{"length":20,"start":3544},{"length":20,"start":5236},{"length":20,"start":19088}]}},"object":"608060405234801561001057600080fd5b506170cb80620000216000396000f3fe6080604052600436106101095760003560e01c806389f6819011610095578063a743a3d011610064578063a743a3d0146102f7578063d2a2528314610334578063df7cec2814610364578063f2fde38b14610380578063fca6caa1146103a957610109565b806389f681901461023a5780638d6cb1c4146102655780638da5cb5b146102a3578063a6b63eb8146102ce57610109565b806337be0022116100dc57806337be00221461017e5780633d9bd2fc1461019a57806353f10c80146101b657806366e929bf146101e1578063715018a61461022357610109565b8063022066611461010e57806306be619c1461012a57806316b50a82146101465780632b2b651114610162575b600080fd5b610128600480360381019061012391906159ef565b6103f1565b005b610144600480360381019061013f9190615a3b565b610ef8565b005b610160600480360381019061015b9190615a87565b6115f3565b005b61017c60048036038101906101779190615b39565b611f7b565b005b61019860048036038101906101939190615bba565b612186565b005b6101b460048036038101906101af9190615c06565b612a1c565b005b3480156101c257600080fd5b506101cb6133b4565b6040516101d89190615c4c565b60405180910390f35b3480156101ed57600080fd5b5061020860048036038101906102039190615cfb565b6133ba565b60405161021a96959493929190615dd0565b60405180910390f35b34801561022f57600080fd5b50610238613430565b005b34801561024657600080fd5b5061024f613444565b60405161025c9190615c4c565b60405180910390f35b34801561027157600080fd5b5061028c60048036038101906102879190615e5d565b61344a565b60405161029a929190615e9d565b60405180910390f35b3480156102af57600080fd5b506102b861348b565b6040516102c59190615ec6565b60405180910390f35b3480156102da57600080fd5b506102f560048036038101906102f09190615ee1565b6134c3565b005b34801561030357600080fd5b5061031e60048036038101906103199190615cfb565b6139a4565b60405161032b9190615c4c565b60405180910390f35b61034e60048036038101906103499190615f5c565b6139c9565b60405161035b9190615f8a565b60405180910390f35b61037e60048036038101906103799190615fa5565b613f3d565b005b34801561038c57600080fd5b506103a760048036038101906103a29190615fd2565b614690565b005b3480156103b557600080fd5b506103d060048036038101906103cb9190615fa5565b614716565b6040516103e89c9b9a999897969594939291906160af565b60405180910390f35b61040567d0bf00c1792d40ed60c01b6148a4565b61040d6148a7565b6104216741131361520dc83860c01b6148a4565b61043567051769b3a130091360c01b6148a4565b806000013561044e6718b2b56d066efd0460c01b6148fe565b610462677b1b1ffa8fad79b160c01b6148fe565b610476673d390455bb90840360c01b6148fe565b6000801b60008083815260200190815260200160002060000154036104ef576104a967ced22d93201b06d560c01b6148fe565b6104bd67d22590866453aff260c01b6148fe565b6040517f5dcaf2d700000000000000000000000000000000000000000000000000000000815260040160405180910390fd5b610503670393a760c180511460c01b6148fe565b61051767f3c8792634af115160c01b6148fe565b61052b67a325ae24c282764960c01b6148a4565b61053f67a4f8d042fec04de960c01b6148a4565b8160000135610558670eda633c5957d32560c01b6148fe565b61056b66b27eacc416f22760c01b6148fe565b61057f678f4cfc2cf3bc047260c01b6148fe565b6000600381111561059357610592615d4a565b5b60008083815260200190815260200160002060010160009054906101000a900460ff1660038111156105c8576105c7615d4a565b5b14610627576105e1672751150a072430c360c01b6148fe565b6105f567ff8a6ca70a79579560c01b6148fe565b6040517fd4dbb56500000000000000000000000000000000000000000000000000000000815260040160405180910390fd5b61063b677b692b2024257bf960c01b6148fe565b61064f679c2db1f7fadbaa6b60c01b6148fe565b6106636794e22098725becec60c01b6148a4565b61067767e2de7f3e5d52572260c01b6148a4565b61068b67d443756cc97b32f560c01b6148a4565b61069f67a3cbeec13d01c84860c01b6148a4565b6000836000013590506106bc67f4150bb08655820d60c01b6148a4565b6106d067cf6dfb6cd4d10e0260c01b6148a4565b60008460200160208101906106e59190615fd2565b90506106fb6780ebef31e4e6ba2a60c01b6148a4565b61070f67c4475553bde7739d60c01b6148a4565b600073ffffffffffffffffffffffffffffffffffffffff163373ffffffffffffffffffffffffffffffffffffffff160361079d57610757671b4f064c65d0216b60c01b6148a4565b61076b67a5798ce345515b7260c01b6148a4565b6040517f0809490800000000000000000000000000000000000000000000000000000000815260040160405180910390fd5b6107b1677544fa9b7b875ca560c01b6148a4565b6107c567c2f055178eb43e1f60c01b6148a4565b6107d9672ca0eef88cb36d7160c01b6148a4565b60008060008481526020019081526020016000209050610803671c0c8536619ecac960c01b6148a4565b61081767391f0bf8a037b78a60c01b6148a4565b80600c0160009054906101000a900460ff16610887576108416710155da097332f1360c01b6148a4565b6108556737c29655cbf1ee3f60c01b6148a4565b6040517f3c24fafc00000000000000000000000000000000000000000000000000000000815260040160405180910390fd5b61089b672081906feee4cba860c01b6148a4565b6108af67abdc4e47ffa0c12f60c01b6148a4565b6108c3674159af82466fb43960c01b6148a4565b3373ffffffffffffffffffffffffffffffffffffffff168160010160019054906101000a900473ffffffffffffffffffffffffffffffffffffffff1673ffffffffffffffffffffffffffffffffffffffff16146109a55761092e677373d977d22a9f4760c01b6148a4565b61094267dd3048c400e15ee060c01b6148a4565b8060010160019054906101000a900473ffffffffffffffffffffffffffffffffffffffff16336040517f0500cb4c00000000000000000000000000000000000000000000000000000000815260040161099c92919061616b565b60405180910390fd5b6109b967f09e4410cbb6dc9b60c01b6148a4565b6109cd6781903fafc9b0549660c01b6148a4565b6109e167c65c34b16c4bc58960c01b6148a4565b60006002600085815260200190815260200160002060008473ffffffffffffffffffffffffffffffffffffffff1673ffffffffffffffffffffffffffffffffffffffff1681526020019081526020016000209050610a4967cacddef33c2a0b5f60c01b6148a4565b610a5d6792a3d2a17e3fca3160c01b6148a4565b600280811115610a7057610a6f615d4a565b5b8160020160009054906101000a900460ff166002811115610a9457610a93615d4a565b5b14610b0f57610aad679074a13349b3690460c01b6148a4565b610ac1678084f897133c813160c01b6148a4565b8060020160009054906101000a900460ff166040517f64b08c06000000000000000000000000000000000000000000000000000000008152600401610b069190616194565b60405180910390fd5b610b23676a4e27d2a25f2cce60c01b6148a4565b610b376722c4c84cd2d044c460c01b6148a4565b610b4b67606495f18cc3317960c01b6148a4565b4281600401541015610bc257610b6b672e7330e381e0c74560c01b6148a4565b610b7f6730d9611e9d33ebe860c01b6148a4565b8060040154426040517f1d355639000000000000000000000000000000000000000000000000000000008152600401610bb9929190615e9d565b60405180910390fd5b610bd667b9f51eb8ecd2c65c60c01b6148a4565b610bea67782ffdedbd78c27b60c01b6148a4565b60028260010160006101000a81548160ff02191690836003811115610c1257610c11615d4a565b5b0217905550610c2b671b956d944c8e556060c01b6148a4565b4282600a0181905550610c4867b220324b863638e660c01b6148a4565b828260040160006101000a81548173ffffffffffffffffffffffffffffffffffffffff021916908373ffffffffffffffffffffffffffffffffffffffff160217905550610c9f67658315a29ef8562460c01b6148a4565b60018160020160006101000a81548160ff02191690836002811115610cc757610cc6615d4a565b5b0217905550610ce067ef6313686a5b5c5e60c01b6148a4565b610cf46770f4da16b05d67ce60c01b6148a4565b610d22828260020160019054906101000a900473ffffffffffffffffffffffffffffffffffffffff16614901565b610d3667c838b360cd1e759760c01b6148a4565b610d4a67f14af97c1ce2cff960c01b6148a4565b6000826005019050610d66673738b8a4bde21f2860c01b6148a4565b610d7a6790298997a41a07c860c01b6148a4565b8060000160009054906101000a900473ffffffffffffffffffffffffffffffffffffffff1673ffffffffffffffffffffffffffffffffffffffff1673__$b9ebb88af43d68d18cc83c52d00a91a1a0$__6306cf228090918560010160019054906101000a900473ffffffffffffffffffffffffffffffffffffffff168560000154600554612710600460009054906101000a900473ffffffffffffffffffffffffffffffffffffffff166040518763ffffffff1660e01b8152600401610e45969594939291906161cd565b60006040518083038186803b158015610e5d57600080fd5b505af4158015610e71573d6000803e3d6000fd5b50505050610e8967dc0e94579a5d40d560c01b6148a4565b610e9d6720a071292efbcc4b60c01b6148a4565b81600001548473ffffffffffffffffffffffffffffffffffffffff16867fadd1d5b6c827fee45fa32e72964c9d43d2191c9b8b083889fb2e3f468c71856860405160405180910390a450505050505050610ef5615149565b50565b610f0c67646a0a7eac9ab01260c01b6148a4565b610f146148a7565b610f2867b07866ce9fcdc8c460c01b6148a4565b610f3c678d2433a5a7ab958660c01b6148a4565b8060000135610f556718b2b56d066efd0460c01b6148fe565b610f69677b1b1ffa8fad79b160c01b6148fe565b610f7d673d390455bb90840360c01b6148fe565b6000801b6000808381526020019081526020016000206000015403610ff657610fb067ced22d93201b06d560c01b6148fe565b610fc467d22590866453aff260c01b6148fe565b6040517f5dcaf2d700000000000000000000000000000000000000000000000000000000815260040160405180910390fd5b61100a670393a760c180511460c01b6148fe565b61101e67f3c8792634af115160c01b6148fe565b6110326794375fea9d9797f460c01b6148a4565b61104667a96c77943382d1e560c01b6148a4565b816000013561105f670eda633c5957d32560c01b6148fe565b61107266b27eacc416f22760c01b6148fe565b611086678f4cfc2cf3bc047260c01b6148fe565b6000600381111561109a57611099615d4a565b5b60008083815260200190815260200160002060010160009054906101000a900460ff1660038111156110cf576110ce615d4a565b5b1461112e576110e8672751150a072430c360c01b6148fe565b6110fc67ff8a6ca70a79579560c01b6148fe565b6040517fd4dbb56500000000000000000000000000000000000000000000000000000000815260040160405180910390fd5b611142677b692b2024257bf960c01b6148fe565b611156679c2db1f7fadbaa6b60c01b6148fe565b61116a67bf02043c13cecc7360c01b6148a4565b61117e673fe33d544debadfb60c01b6148a4565b611192676a02ef725ea5e54b60c01b6148a4565b6111a667374200f7dec080df60c01b6148a4565b828036038101906111b7919061630f565b73__$2effe1973215a034e8e4a17bdeb5710028$__63c27eeaac90916040518263ffffffff1660e01b81526004016111ef9190616389565b60006040518083038186803b15801561120757600080fd5b505af415801561121b573d6000803e3d6000fd5b50505050611233675cf4216133821af660c01b6148a4565b61124767a06413b2aa0717df60c01b6148a4565b600080600085600001358152602001908152602001600020905061127567209190453734d84d60c01b6148a4565b6112896771e9de9809a980f360c01b6148a4565b8073__$2effe1973215a034e8e4a17bdeb5710028$__637aa10b6a90916040518263ffffffff1660e01b81526004016112c291906163ab565b60006040518083038186803b1580156112da57600080fd5b505af41580156112ee573d6000803e3d6000fd5b505050506113066707e122f013ae9e5460c01b6148a4565b60028160010160006101000a81548160ff0219169083600381111561132e5761132d615d4a565b5b021790555061134767c3e64c00449e762960c01b6148a4565b4281600a018190555061136467062c856a1794c18860c01b6148a4565b338160040160006101000a81548173ffffffffffffffffffffffffffffffffffffffff021916908373ffffffffffffffffffffffffffffffffffffffff1602179055506113bb6775f23668df49323360c01b6148a4565b6113cf677137c4eba8c93fc860c01b6148a4565b6113eb818560200160208101906113e69190615fd2565b614901565b6113ff6759d71b965760e10460c01b6148a4565b61141367e9e8483d238e7ead60c01b6148a4565b8060050160000160009054906101000a900473ffffffffffffffffffffffffffffffffffffffff1673ffffffffffffffffffffffffffffffffffffffff1673__$b9ebb88af43d68d18cc83c52d00a91a1a0$__638dbb76c79091338460010160019054906101000a900473ffffffffffffffffffffffffffffffffffffffff168560050160010154600554612710600460009054906101000a900473ffffffffffffffffffffffffffffffffffffffff166040518863ffffffff1660e01b81526004016114e697969594939291906163c6565b60006040518083038186803b1580156114fe57600080fd5b505af4158015611512573d6000803e3d6000fd5b5050505061152a67dd436bad902d9cb060c01b6148a4565b61153e676ccf221387ceeede60c01b6148a4565b83600001358160040160009054906101000a900473ffffffffffffffffffffffffffffffffffffffff1673ffffffffffffffffffffffffffffffffffffffff168260010160019054906101000a900473ffffffffffffffffffffffffffffffffffffffff1673ffffffffffffffffffffffffffffffffffffffff167f6bf7309f141d1b44e414f1fc04d98491cd0acf98f0f1e5ad885d0a7ce164e6fa60405160405180910390a45050506115f0615149565b50565b611607672dd0808e6e0c6da460c01b6148a4565b61160f6148a7565b61162367455b629632de90e760c01b6148a4565b61163767ac888138488b25d260c01b6148a4565b80604001356116506718b2b56d066efd0460c01b6148fe565b611664677b1b1ffa8fad79b160c01b6148fe565b611678673d390455bb90840360c01b6148fe565b6000801b60008083815260200190815260200160002060000154036116f1576116ab67ced22d93201b06d560c01b6148fe565b6116bf67d22590866453aff260c01b6148fe565b6040517f5dcaf2d700000000000000000000000000000000000000000000000000000000815260040160405180910390fd5b611705670393a760c180511460c01b6148fe565b61171967f3c8792634af115160c01b6148fe565b61172d677c79f9e85533815460c01b6148a4565b6117416756d468b1b6f7909c60c01b6148a4565b816040013561175a670eda633c5957d32560c01b6148fe565b61176d66b27eacc416f22760c01b6148fe565b611781678f4cfc2cf3bc047260c01b6148fe565b6000600381111561179557611794615d4a565b5b60008083815260200190815260200160002060010160009054906101000a900460ff1660038111156117ca576117c9615d4a565b5b14611829576117e3672751150a072430c360c01b6148fe565b6117f767ff8a6ca70a79579560c01b6148fe565b6040517fd4dbb56500000000000000000000000000000000000000000000000000000000815260040160405180910390fd5b61183d677b692b2024257bf960c01b6148fe565b611851679c2db1f7fadbaa6b60c01b6148fe565b61186567a2c9b54293d9410460c01b6148a4565b611879674eddcf2b066d2c9c60c01b6148a4565b61188d67ea861f008d85870d60c01b6148a4565b6118a167c8e19fdcf10a1deb60c01b6148a4565b6000836040013590506118be67410dfeb9cf7df6f060c01b6148a4565b6118d267a8abc1650d33634260c01b6148a4565b6000846000013590506118ef678ab20d83c39bf36860c01b6148a4565b61190367365528b7f62aa72a60c01b6148a4565b3373ffffffffffffffffffffffffffffffffffffffff1685602001602081019061192d9190615fd2565b73ffffffffffffffffffffffffffffffffffffffff16146119a25761195c679da819e71799765660c01b6148a4565b61197067ce040bbd6d42a02860c01b6148a4565b6040517f8294ac0200000000000000000000000000000000000000000000000000000000815260040160405180910390fd5b6119b667c3e2fa4ac33fc54960c01b6148a4565b6119ca678d5208fb0d883b3260c01b6148a4565b6119de6770e8282a3cadb94960c01b6148a4565b60006002600084815260200190815260200160002060003373ffffffffffffffffffffffffffffffffffffffff1673ffffffffffffffffffffffffffffffffffffffff1681526020019081526020016000209050611a46678a9d19c71594a71b60c01b6148a4565b611a5a67d9f87fddb10e892660c01b6148a4565b600073ffffffffffffffffffffffffffffffffffffffff168160020160019054906101000a900473ffffffffffffffffffffffffffffffffffffffff1673ffffffffffffffffffffffffffffffffffffffff1614611b0c57611ac66776856ccddb475a0960c01b6148a4565b611ada670c713aeb8c3af4a160c01b6148a4565b6040517fb8cee9f000000000000000000000000000000000000000000000000000000000815260040160405180910390fd5b611b2067afeb9db8af7c398a60c01b6148a4565b611b3467535173e8b8b7e55360c01b6148a4565b611b4867ea88106dce1cde7f60c01b6148a4565b6000806000886040013581526020019081526020016000209050611b7667b2c03f0ab6a1468460c01b6148a4565b611b8a67a803f369164aa0f060c01b6148a4565b806007015483108015611bad5750611bac67bfa3a31130718e2f60c01b615162565b5b80611bda5750806005016001015483118015611bd95750611bd867a253b2f1aace406960c01b615162565b5b5b15611c4457611bf3674cbbeadaf7271e0660c01b6148a4565b611c0767d413534d79b931a860c01b6148a4565b826040517fd9cf167e000000000000000000000000000000000000000000000000000000008152600401611c3b9190615c4c565b60405180910390fd5b611c5867678f81d9cc7cc94460c01b6148a4565b611c6c67a930989659668de260c01b6148a4565b611c806722d82c801c12286060c01b6148a4565b60008060008681526020019081526020016000206005019050611cad672fd906fb9242db3b60c01b6148a4565b611cc167b314c0875a53c41b60c01b6148a4565b600073ffffffffffffffffffffffffffffffffffffffff168160000160009054906101000a900473ffffffffffffffffffffffffffffffffffffffff1673ffffffffffffffffffffffffffffffffffffffff1614611dab57611d2d67b650437c76b059c160c01b6148a4565b611d41670df1ee6378cd0a6a60c01b6148a4565b611d5567099fdd7c3b212bc760c01b6148a4565b611da63330868460000160009054906101000a900473ffffffffffffffffffffffffffffffffffffffff1673ffffffffffffffffffffffffffffffffffffffff1661516d909392919063ffffffff16565b611e68565b611dbf67f3414a9338faee9b60c01b6148a4565b611dd3671f27555de3b89bcb60c01b6148a4565b611de767aaaa8bb2ac21158060c01b6148a4565b833414611e5357611e02675a42329805cec5f360c01b6148a4565b611e16674f6a0c5f6b8265ec60c01b6148a4565b346040517fd9cf167e000000000000000000000000000000000000000000000000000000008152600401611e4a9190615c4c565b60405180910390fd5b611e67676255efe214d8c0a460c01b6148a4565b5b611e7c67c27f2c2e685ec09960c01b6148a4565b611e90671eabd5f91bf9c66260c01b6148a4565b600273__$8ad05547f64aebe22f2eafad9eff5b91dd$__63cc76f93190918a6040518363ffffffff1660e01b8152600401611ecc929190616505565b60006040518083038186803b158015611ee457600080fd5b505af4158015611ef8573d6000803e3d6000fd5b50505050611f10676528f0ab53a538b460c01b6148a4565b611f2467d2101210bf2ae5bd60c01b6148a4565b833373ffffffffffffffffffffffffffffffffffffffff16867f1126836d9a6f07e69d20f7ac2db448d68d9bb24718d7e8e0e85b8cfd96bb04c160405160405180910390a450505050505050611f78615149565b50565b611f8f67ce9087907282a68460c01b6148a4565b611fa3678d954271e70dadae60c01b6148a4565b611fb76722a9d3d96ab55bf860c01b6148a4565b8181808060200260200160405190810160405280939291908181526020016000905b8282101561200957848483905060400201803603810190611ffa919061657e565b81526020019060010190611fd9565b505050505073__$2effe1973215a034e8e4a17bdeb5710028$__6333b988f590916040518263ffffffff1660e01b81526004016120469190616689565b60006040518083038186803b15801561205e57600080fd5b505af4158015612072573d6000803e3d6000fd5b5050505061208a6748227621688037c760c01b6148a4565b61209e677df8e58611adf56a60c01b6148a4565b60006120a9846139c9565b90506120bf67f00a9c605f3ef2c360c01b6148a4565b6120d367a73669620288b8f260c01b6148a4565b60005b8383905081101561217f576120f5676329bf9640f8f08a60c01b6148a4565b612109671e15a4d732537f1a60c01b6148a4565b6001600083815260200190815260200160002084848381811061212f5761212e6166ab565b5b9050604002019080600181540180825580915050600190039060005260206000209060020201600090919091909150818161216a91906167de565b505080806121779061681b565b9150506120d6565b5050505050565b61219a6703ed96c3a68265ba60c01b6148a4565b6121a26148a7565b6121b667d313b35957bee3ad60c01b6148a4565b6121ca6782fcf0e8c22b7b5060c01b6148a4565b80600001356121e36718b2b56d066efd0460c01b6148fe565b6121f7677b1b1ffa8fad79b160c01b6148fe565b61220b673d390455bb90840360c01b6148fe565b6000801b60008083815260200190815260200160002060000154036122845761223e67ced22d93201b06d560c01b6148fe565b61225267d22590866453aff260c01b6148fe565b6040517f5dcaf2d700000000000000000000000000000000000000000000000000000000815260040160405180910390fd5b612298670393a760c180511460c01b6148fe565b6122ac67f3c8792634af115160c01b6148fe565b6122c067385e47df83f1d27b60c01b6148a4565b6122d467843952e25a7dab9660c01b6148a4565b81600001356122ed670eda633c5957d32560c01b6148fe565b61230066b27eacc416f22760c01b6148fe565b612314678f4cfc2cf3bc047260c01b6148fe565b6000600381111561232857612327615d4a565b5b60008083815260200190815260200160002060010160009054906101000a900460ff16600381111561235d5761235c615d4a565b5b146123bc57612376672751150a072430c360c01b6148fe565b61238a67ff8a6ca70a79579560c01b6148fe565b6040517fd4dbb56500000000000000000000000000000000000000000000000000000000815260040160405180910390fd5b6123d0677b692b2024257bf960c01b6148fe565b6123e4679c2db1f7fadbaa6b60c01b6148fe565b6123f867387789a212b0301160c01b6148a4565b61240c6764b70b912814edce60c01b6148a4565b612420677b1f747e9a04d15160c01b6148a4565b612434676aab34cd2df0054160c01b6148a4565b6000806000856000013581526020019081526020016000209050612462672a3f0ece6c488b7a60c01b6148a4565b61247667bfdd02046512d09060c01b6148a4565b8073__$2effe1973215a034e8e4a17bdeb5710028$__63c3aee15d90916040518263ffffffff1660e01b81526004016124af91906163ab565b60006040518083038186803b1580156124c757600080fd5b505af41580156124db573d6000803e3d6000fd5b505050506124f3675f2fabd197c8c76a60c01b6148a4565b60018160010160006101000a81548160ff0219169083600381111561251b5761251a615d4a565b5b02179055506125346765ee3f064d7c647660c01b6148a4565b61254867f4cd75b31b4f70b160c01b6148a4565b600073ffffffffffffffffffffffffffffffffffffffff168160020160000160009054906101000a900473ffffffffffffffffffffffffffffffffffffffff1673ffffffffffffffffffffffffffffffffffffffff1603612707576125b76762d267737cd4c4cd60c01b6148a4565b6125cb67ef15637af2847a0360c01b6148a4565b6125df67b17f5f30815462b360c01b6148a4565b60003373ffffffffffffffffffffffffffffffffffffffff16826002016001015460405161260c90616894565b60006040518083038185875af1925050503d8060008114612649576040519150601f19603f3d011682016040523d82523d6000602084013e61264e565b606091505b505090506126666766c1b04161f4c1ba60c01b6148a4565b61267a67f3359540dd19c77760c01b6148a4565b806126ed57612693678d2420e5dba9563560c01b6148a4565b6126a767537ab3c574169e1a60c01b6148a4565b3382600201600101546040517f1c43b9760000000000000000000000000000000000000000000000000000000081526004016126e49291906168a9565b60405180910390fd5b61270167901988a20e2c21cc60c01b6148a4565b50612876565b61271b67d07f4234764f5f2060c01b6148a4565b61272f671a3b51255728789660c01b6148a4565b61274367751e348c8fe879a260c01b6148a4565b8060020160000160009054906101000a900473ffffffffffffffffffffffffffffffffffffffff1673ffffffffffffffffffffffffffffffffffffffff1663a9059cbb3383600201600101546040518363ffffffff1660e01b81526004016127ac9291906168a9565b6020604051808303816000875af11580156127cb573d6000803e3d6000fd5b505050506040513d601f19601f820116820180604052508101906127ef91906168fe565b6128615761280767162783963c6c9e9860c01b6148a4565b61281b67a028eaad005b74d260c01b6148a4565b3381600201600101546040517f1c43b9760000000000000000000000000000000000000000000000000000000081526004016128589291906168a9565b60405180910390fd5b612875676055b550faabc7ac60c01b6148a4565b5b61288a6726e7a008f34e74d060c01b6148a4565b600080856000013581526020019081526020016000206000808201600090556001820160006101000a81549060ff02191690556001820160016101000a81549073ffffffffffffffffffffffffffffffffffffffff021916905560028201600080820160006101000a81549073ffffffffffffffffffffffffffffffffffffffff0219169055600182016000905550506004820160006101000a81549073ffffffffffffffffffffffffffffffffffffffff021916905560058201600080820160006101000a81549073ffffffffffffffffffffffffffffffffffffffff021916905560018201600090555050600782016000905560088201600090556009820160009055600a820160009055600b820160009055600c820160006101000a81549060ff021916905550506129c967ac35b23d4bb95c4660c01b6148a4565b6129dd6710732507d2e974ae60c01b6148a4565b83600001357ff68aeec8f55d67a9b2cf2b6caea31e11f2c14e09da250170575d63911f26aa6e60405160405180910390a2505050612a19615149565b50565b612a306774637de69896439b60c01b6148a4565b612a386148a7565b612a4c67015cdac4efde4df560c01b6148a4565b612a60671eeecc04654a5d0160c01b6148a4565b8060000135612a796718b2b56d066efd0460c01b6148fe565b612a8d677b1b1ffa8fad79b160c01b6148fe565b612aa1673d390455bb90840360c01b6148fe565b6000801b6000808381526020019081526020016000206000015403612b1a57612ad467ced22d93201b06d560c01b6148fe565b612ae867d22590866453aff260c01b6148fe565b6040517f5dcaf2d700000000000000000000000000000000000000000000000000000000815260040160405180910390fd5b612b2e670393a760c180511460c01b6148fe565b612b4267f3c8792634af115160c01b6148fe565b612b5667c6949bfb4dee560a60c01b6148a4565b612b6a6779d84f728abfdc3760c01b6148a4565b8160000135612b83670eda633c5957d32560c01b6148fe565b612b9666b27eacc416f22760c01b6148fe565b612baa678f4cfc2cf3bc047260c01b6148fe565b60006003811115612bbe57612bbd615d4a565b5b60008083815260200190815260200160002060010160009054906101000a900460ff166003811115612bf357612bf2615d4a565b5b14612c5257612c0c672751150a072430c360c01b6148fe565b612c2067ff8a6ca70a79579560c01b6148fe565b6040517fd4dbb56500000000000000000000000000000000000000000000000000000000815260040160405180910390fd5b612c66677b692b2024257bf960c01b6148fe565b612c7a679c2db1f7fadbaa6b60c01b6148fe565b612c8e67f9f8ac5c9049ecd860c01b6148a4565b612ca2676ef653f009e4b76160c01b6148a4565b612cb667c657d1ec6b1bff8e60c01b6148a4565b612cca67fe911d7a16e18c2f60c01b6148a4565b600083600001359050612ce767b5319f3b2b377c8560c01b6148a4565b612cfb678ac53a7779bc6f9e60c01b6148a4565b600084604001359050612d1867b23160e9878309b060c01b6148a4565b612d2c6721c3c278f715f6b660c01b6148a4565b60006002600084815260200190815260200160002060003373ffffffffffffffffffffffffffffffffffffffff1673ffffffffffffffffffffffffffffffffffffffff1681526020019081526020016000209050612d9467e312a9233fedbc6e60c01b6148a4565b612da8677660eed4805c369860c01b6148a4565b600073ffffffffffffffffffffffffffffffffffffffff168160020160019054906101000a900473ffffffffffffffffffffffffffffffffffffffff1673ffffffffffffffffffffffffffffffffffffffff1603612e5a57612e14673eecd1228570d3c960c01b6148a4565b612e2867e6d73e60f45d7a2260c01b6148a4565b6040517f0a0c23ee00000000000000000000000000000000000000000000000000000000815260040160405180910390fd5b612e6e67c4bea124c123092960c01b6148a4565b612e8267b7dc7034e24ac0d460c01b6148a4565b612e96677eb1ba951ffdc6f260c01b6148a4565b60008060008581526020019081526020016000209050612ec06792d55b8925ffb1ea60c01b6148a4565b612ed467057e0a20cba7146860c01b6148a4565b600280811115612ee757612ee6615d4a565b5b8260020160009054906101000a900460ff166002811115612f0b57612f0a615d4a565b5b14612f6a57612f2467466652a8688740b660c01b6148a4565b612f3867109052eac5a01c8560c01b6148a4565b6040517f0a0c23ee00000000000000000000000000000000000000000000000000000000815260040160405180910390fd5b612f7e6758acc236735ca11b60c01b6148a4565b612f9267fb4123e70da0845960c01b6148a4565b612fa6678007d56358504e6d60c01b6148a4565b6000830361301357612fc267f258cd330050097160c01b6148a4565b612fd667d0a62d90a6ae488060c01b6148a4565b826040517fd9cf167e00000000000000000000000000000000000000000000000000000000815260040161300a9190615c4c565b60405180910390fd5b613027676bc05460abd755a260c01b6148a4565b61303b67cc4dc18f451da87b60c01b6148a4565b8282600001600082825461304f919061692b565b9250508190555061306a67ff1393ee36026bac60c01b6148a4565b61307e677f2a5e6f0bf8260260c01b6148a4565b8060050160010154826000015411156130fa576130a567202ab95f4d52101e60c01b6148a4565b6130b9675cec281e1a16fd5060c01b6148a4565b81600001546040517fd9cf167e0000000000000000000000000000000000000000000000000000000081526004016130f19190615c4c565b60405180910390fd5b61310e67bf2363a7e8d5576760c01b6148a4565b61312267d79e378069d6211360c01b6148a4565b613136675b275f42a338b4a860c01b6148a4565b60008160050190506131526717feb67e06390fcb60c01b6148a4565b61316667c50103f1b0de532260c01b6148a4565b600073ffffffffffffffffffffffffffffffffffffffff168160000160009054906101000a900473ffffffffffffffffffffffffffffffffffffffff1673ffffffffffffffffffffffffffffffffffffffff1614613250576131d267fbc1096eba9a2d8160c01b6148a4565b6131e66768c7f0dd3aa166e760c01b6148a4565b6131fa6783f96f42d1f15e6a60c01b6148a4565b61324b3330868460000160009054906101000a900473ffffffffffffffffffffffffffffffffffffffff1673ffffffffffffffffffffffffffffffffffffffff1661516d909392919063ffffffff16565b61330d565b613264673724246bfe00da9460c01b6148a4565b6132786783b335c96527f80f60c01b6148a4565b61328c67728914ae443d71bc60c01b6148a4565b8334146132f8576132a767197e05024960a70260c01b6148a4565b6132bb678ca8179da9dd563d60c01b6148a4565b346040517fd9cf167e0000000000000000000000000000000000000000000000000000000081526004016132ef9190615c4c565b60405180910390fd5b61330c677c159bb9358322ba60c01b6148a4565b5b6133216740697e71584a127760c01b6148a4565b613335677c76ad0e6d1b2a0060c01b6148a4565b82600001548360020160019054906101000a900473ffffffffffffffffffffffffffffffffffffffff1673ffffffffffffffffffffffffffffffffffffffff16867f7786094a5edc61a0463300b9b97a1b22d338bc800ed33404ba9a3888b71de0fc60405160405180910390a4505050505050506133b1615149565b50565b60065481565b6002602052816000526040600020602052806000526040600020600091509150508060000154908060010154908060020160009054906101000a900460ff16908060020160019054906101000a900473ffffffffffffffffffffffffffffffffffffffff16908060030154908060040154905086565b613438615584565b613442600061560b565b565b60055481565b6001602052816000526040600020818154811061346657600080fd5b9060005260206000209060020201600091509150508060000154908060010154905082565b6000806134966156e2565b90508060000160009054906101000a900473ffffffffffffffffffffffffffffffffffffffff1691505090565b6134d7676b51d48d0d2d13f760c01b6148a4565b60006134e161570a565b905060008160000160089054906101000a900460ff1615905060008260000160009054906101000a900467ffffffffffffffff1690506000808267ffffffffffffffff1614801561352f5750825b9050600060018367ffffffffffffffff16148015613564575060003073ffffffffffffffffffffffffffffffffffffffff163b145b905081158015613572575080155b156135a9576040517ff92ee8a900000000000000000000000000000000000000000000000000000000815260040160405180910390fd5b60018560000160006101000a81548167ffffffffffffffff021916908367ffffffffffffffff16021790555083156135f95760018560000160086101000a81548160ff0219169083151502179055505b61360d6794766eb686279b3860c01b6148a4565b613621673f08cfc4675dd39f60c01b6148a4565b6136356754ec29f51a4ef24460c01b6148a4565b61364967d93e3a71c7e4cb7060c01b6148a4565b6136528a615732565b613666678317f6a0544a0bbb60c01b6148a4565b61367a674a7001c584c92e4f60c01b6148a4565b6127108711156136de5761369867015b409665da020860c01b6148a4565b6136ac6797fc258355aa705d60c01b6148a4565b6040517fce43144600000000000000000000000000000000000000000000000000000000815260040160405180910390fd5b6136f2671e4d5b5de0957a3d60c01b6148a4565b61370667daef7709e0cf717260c01b6148a4565b61371a673a23a4316c66533e60c01b6148a4565b61271086111561377e5761373867e3e1130ab7918a9b60c01b6148a4565b61374c6796b98bf965f4ae2660c01b6148a4565b6040517fb089e48e00000000000000000000000000000000000000000000000000000000815260040160405180910390fd5b6137926778ac3128ff8fad8960c01b6148a4565b6137a667dfe6c05f8bd5577260c01b6148a4565b6137ba67b2e99f05c20d184160c01b6148a4565b600073ffffffffffffffffffffffffffffffffffffffff168873ffffffffffffffffffffffffffffffffffffffff16036138485761380267116e38e876aa52b460c01b6148a4565b61381667633af4075bbc5d7460c01b6148a4565b6040517fcfe2ea6300000000000000000000000000000000000000000000000000000000815260040160405180910390fd5b61385c67742bf07af393c53760c01b6148a4565b6138706774d735ebba8d61ea60c01b6148a4565b8660058190555061388b674734665e957671b060c01b6148a4565b856006819055506138a6670e8c2be361098f6e60c01b6148a4565b87600460006101000a81548173ffffffffffffffffffffffffffffffffffffffff021916908373ffffffffffffffffffffffffffffffffffffffff1602179055506138fb678d070cedb8cc313860c01b6148a4565b88600360006101000a81548173ffffffffffffffffffffffffffffffffffffffff021916908373ffffffffffffffffffffffffffffffffffffffff16021790555083156139985760008560000160086101000a81548160ff0219169083151502179055507fc7f505b2f371ae2175ee4913f4499e1f2633a7b5936321eed1cdaeb6115181d2600160405161398f91906169ae565b60405180910390a15b50505050505050505050565b6007602052816000526040600020602052806000526040600020600091509150505481565b60006139df67dca691c83f9b6bbf60c01b6148a4565b6139e76148a7565b6139fb67713fc6b56321666160c01b6148a4565b613a0f677565c17ee7e9bd8260c01b6148a4565b613a23676a26f54c232a2dfd60c01b6148a4565b613a376798eb7131ca7a714f60c01b6148a4565b816060016000016020810190613a4d9190615fd2565b73ffffffffffffffffffffffffffffffffffffffff16826020016000016020810190613a799190615fd2565b73ffffffffffffffffffffffffffffffffffffffff1603613aed57613aa8674eab502d0f337a7860c01b6148a4565b613abb66a0e544cd3bd21760c01b6148a4565b6040517f45b3a4c700000000000000000000000000000000000000000000000000000000815260040160405180910390fd5b613b0167783582c27e91582160c01b6148a4565b613b1567a34041915d3f899860c01b6148a4565b613b29671041cbed47a2736a60c01b6148a4565b81803603810190613b3a9190616afa565b73__$2effe1973215a034e8e4a17bdeb5710028$__639a0ebe0090916040518263ffffffff1660e01b8152600401613b729190616c0a565b60006040518083038186803b158015613b8a57600080fd5b505af4158015613b9e573d6000803e3d6000fd5b50505050613bb667c86298fe2098bc5d60c01b6148a4565b613bca678e2737583fbe590d60c01b6148a4565b6000826000013573__$8ad05547f64aebe22f2eafad9eff5b91dd$__63d81ab44f9091306040518363ffffffff1660e01b8152600401613c0b929190616c35565b602060405180830381865af4158015613c28573d6000803e3d6000fd5b505050506040513d601f19601f82011682018060405250810190613c4c9190616c73565b9050613c626743e77caa3e6f2e7960c01b6148a4565b613c7667c9a4af9e0d54b91b60c01b6148a4565b600073__$8ad05547f64aebe22f2eafad9eff5b91dd$__632296d7e090918584336040518563ffffffff1660e01b8152600401613cb69493929190616dee565b60006040518083038186803b158015613cce57600080fd5b505af4158015613ce2573d6000803e3d6000fd5b50505050613cfa675bf7ae65a7987f7e60c01b6148a4565b613d0e676f116b46bb9936ec60c01b6148a4565b600073ffffffffffffffffffffffffffffffffffffffff16836020016000016020810190613d3c9190615fd2565b73ffffffffffffffffffffffffffffffffffffffff1603613e2957613d6b677d0e7ebb2aad7ecc60c01b6148a4565b613d7f67dbc9833569fe0e5b60c01b6148a4565b613d93679022f5003bacafc760c01b6148a4565b8260200160200135341015613e1057613db66778d14668176521f960c01b6148a4565b613dca67c620883558dbb24b60c01b6148a4565b3483602001602001356040517f04157bb4000000000000000000000000000000000000000000000000000000008152600401613e07929190615e9d565b60405180910390fd5b613e2467b649a41313e3fca060c01b6148a4565b613eaf565b613e3d67dca7f0240818cae860c01b6148a4565b613e5167785824c5453859f860c01b6148a4565b613e65674e6a00813bc4dd9b60c01b6148a4565b613eae33308560200160200135866020016000016020810190613e889190615fd2565b73ffffffffffffffffffffffffffffffffffffffff1661516d909392919063ffffffff16565b5b613ec367a7efbbb8976ce21660c01b6148a4565b613ed7671d4a502dd9a2f95f60c01b6148a4565b807f8b82d32987f9a4ae1bc7868a6f104edb711227ec3c9fccb0416a14fcc29bec5a60405160405180910390a2613f1867397c2544966f808d60c01b6148a4565b613f2c670e6064e79633459e60c01b6148a4565b80915050613f38615149565b919050565b613f51677175eb8f16c40e5d60c01b6148a4565b613f596148a7565b613f6d67dcd1872fae6c5a6360c01b6148a4565b613f81674fc7f6be666cf68d60c01b6148a4565b80613f966718b2b56d066efd0460c01b6148fe565b613faa677b1b1ffa8fad79b160c01b6148fe565b613fbe673d390455bb90840360c01b6148fe565b6000801b600080838152602001908152602001600020600001540361403757613ff167ced22d93201b06d560c01b6148fe565b61400567d22590866453aff260c01b6148fe565b6040517f5dcaf2d700000000000000000000000000000000000000000000000000000000815260040160405180910390fd5b61404b670393a760c180511460c01b6148fe565b61405f67f3c8792634af115160c01b6148fe565b61407367f85592e51a19f6d260c01b6148a4565b614087679fd121de9292902e60c01b6148a4565b61409b672cadebea0ee0739260c01b6148a4565b6140af67119e20d12c52d03e60c01b6148a4565b60006002600084815260200190815260200160002060003373ffffffffffffffffffffffffffffffffffffffff1673ffffffffffffffffffffffffffffffffffffffff168152602001908152602001600020905061411767cae4e01d426ad59460c01b6148a4565b61412b67edd26b8cd2a734fa60c01b6148a4565b3373ffffffffffffffffffffffffffffffffffffffff168160020160019054906101000a900473ffffffffffffffffffffffffffffffffffffffff1673ffffffffffffffffffffffffffffffffffffffff16146141dc5761419667abb024bc2289510960c01b6148a4565b6141aa67e28e6e33a7b09c7560c01b6148a4565b6040517f978f045600000000000000000000000000000000000000000000000000000000815260040160405180910390fd5b6141f067cedcf0804ffd4e1160c01b6148a4565b614204673d0e285c2d87407760c01b6148a4565b614218679e71c0a06423182360c01b6148a4565b60028081111561422b5761422a615d4a565b5b8160020160009054906101000a900460ff16600281111561424f5761424e615d4a565b5b146142ca57614268671a8f773fdac8a76060c01b6148a4565b61427c67202400c8e5c4ef2e60c01b6148a4565b8060020160009054906101000a900460ff166040517f64b08c060000000000000000000000000000000000000000000000000000000081526004016142c19190616194565b60405180910390fd5b6142de6708412df0a3e26e5260c01b6148a4565b6142f26701998925c9906d0e60c01b6148a4565b60008160020160006101000a81548160ff0219169083600281111561431a57614319615d4a565b5b021790555061433367b2eec490590d66ed60c01b6148a4565b61434767f3d341f18eca7ad360c01b6148a4565b6000806000858152602001908152602001600020600501905061437467a4fd8b341b4fe51d60c01b6148a4565b6143886780746c30b94cd21e60c01b6148a4565b600073ffffffffffffffffffffffffffffffffffffffff168160000160009054906101000a900473ffffffffffffffffffffffffffffffffffffffff1673ffffffffffffffffffffffffffffffffffffffff1614614498576143f4672f636095f768450b60c01b6148a4565b61440867b82c24506343748060c01b6148a4565b61441c670567c71bb545f62060c01b6148a4565b6144938260020160019054906101000a900473ffffffffffffffffffffffffffffffffffffffff1683600001548360000160009054906101000a900473ffffffffffffffffffffffffffffffffffffffff1673ffffffffffffffffffffffffffffffffffffffff166157b89092919063ffffffff16565b6145f2565b6144ac673ffe9c8139e58edf60c01b6148a4565b6144c067e443307895b9b2f060c01b6148a4565b6144d467c82e6d277080d3af60c01b6148a4565b60003373ffffffffffffffffffffffffffffffffffffffff1683600001546040516144fe90616894565b60006040518083038185875af1925050503d806000811461453b576040519150601f19603f3d011682016040523d82523d6000602084013e614540565b606091505b505090506145586797877b61a270dea460c01b6148a4565b61456c67159f04b54ad12f0e60c01b6148a4565b806145dc5761458567c48da951e8e6ff3f60c01b6148a4565b61459967b8299b6c671075a560c01b6148a4565b3383600001546040517f1c43b9760000000000000000000000000000000000000000000000000000000081526004016145d39291906168a9565b60405180910390fd5b6145f0675d72593dba1778a260c01b6148a4565b505b61460667ae97370e18136ad160c01b6148a4565b61461a67b1f79653f2424db760c01b6148a4565b8160020160019054906101000a900473ffffffffffffffffffffffffffffffffffffffff1673ffffffffffffffffffffffffffffffffffffffff16847f6c2a0bb8117ecfbc53a4385a5421be8eb081718159b9eb3d7c273ecb07fe7cfd60405160405180910390a350505061468d615149565b50565b614698615584565b600073ffffffffffffffffffffffffffffffffffffffff168173ffffffffffffffffffffffffffffffffffffffff160361470a5760006040517f1e4fbdf70000000000000000000000000000000000000000000000000000000081526004016147019190615ec6565b60405180910390fd5b6147138161560b565b50565b60006020528060005260406000206000915090508060000154908060010160009054906101000a900460ff16908060010160019054906101000a900473ffffffffffffffffffffffffffffffffffffffff1690806002016040518060400160405290816000820160009054906101000a900473ffffffffffffffffffffffffffffffffffffffff1673ffffffffffffffffffffffffffffffffffffffff1673ffffffffffffffffffffffffffffffffffffffff168152602001600182015481525050908060040160009054906101000a900473ffffffffffffffffffffffffffffffffffffffff1690806005016040518060400160405290816000820160009054906101000a900473ffffffffffffffffffffffffffffffffffffffff1673ffffffffffffffffffffffffffffffffffffffff1673ffffffffffffffffffffffffffffffffffffffff1681526020016001820154815250509080600701549080600801549080600901549080600a01549080600b01549080600c0160009054906101000a900460ff1690508c565b50565b60006148b1615924565b905060028160000154036148f1576040517f3ee5aeb500000000000000000000000000000000000000000000000000000000815260040160405180910390fd5b6002816000018190555050565b50565b61491567f7ee300b036b2dee60c01b6148a4565b61492967d09858cfefcfca4e60c01b6148a4565b61493d67a680e531dc6cb14260c01b6148a4565b60006001600084600001548152602001908152602001600020805480602002602001604051908101604052809291908181526020016000905b828210156149bc57838290600052602060002090600202016040518060400160405290816000820154815260200160018201548152505081526020019060010190614976565b5050505090506149d66781c6eef3a7def5dc60c01b6148a4565b6149ea674188ea0f808c97b360c01b6148a4565b6000815103614b1157614a0767fe044c7cc880baf860c01b6148a4565b614a1b678da134e315b4e9ed60c01b6148a4565b614a2f67af6d3bb2802fc9e260c01b6148a4565b8260020160000160009054906101000a900473ffffffffffffffffffffffffffffffffffffffff1673ffffffffffffffffffffffffffffffffffffffff1673__$b9ebb88af43d68d18cc83c52d00a91a1a0$__6306cf22809091848660020160010154600654612710600460009054906101000a900473ffffffffffffffffffffffffffffffffffffffff166040518763ffffffff1660e01b8152600401614adc969594939291906161cd565b60006040518083038186803b158015614af457600080fd5b505af4158015614b08573d6000803e3d6000fd5b50505050615144565b614b2567dc9a3266dbb2099660c01b6148a4565b614b39670dfe15a058a46a5460c01b6148a4565b614b4d67919cb29a9c97bcd660c01b6148a4565b60006127106006548560020160010154614b679190616e36565b614b719190616ea7565b9050614b876735721e27d75899c960c01b6148a4565b614b9b6765e82dd6016dad3060c01b6148a4565b6000818560020160010154614bb09190616ed8565b9050614bc667734873a3275d1f5960c01b6148a4565b614bda67859bf377db0b4b6f60c01b6148a4565b600073ffffffffffffffffffffffffffffffffffffffff168560020160000160009054906101000a900473ffffffffffffffffffffffffffffffffffffffff1673ffffffffffffffffffffffffffffffffffffffff1603614eb857614c4967524f3fb56bcb095460c01b6148a4565b614c5d6704ab1272d34444a860c01b6148a4565b614c7167d80af83313704d3260c01b6148a4565b6000600460009054906101000a900473ffffffffffffffffffffffffffffffffffffffff1673ffffffffffffffffffffffffffffffffffffffff1683604051614cb990616894565b60006040518083038185875af1925050503d8060008114614cf6576040519150601f19603f3d011682016040523d82523d6000602084013e614cfb565b606091505b50509050614d13672351838cb0bc4e5960c01b6148a4565b614d276766a88c9d7de73dbf60c01b6148a4565b80614db557614d4067730232ec1be4f9fd60c01b6148a4565b614d54673b0ad9dc62de7e5360c01b6148a4565b600460009054906101000a900473ffffffffffffffffffffffffffffffffffffffff16836040517f1c43b976000000000000000000000000000000000000000000000000000000008152600401614dac9291906168a9565b60405180910390fd5b614dc967b548f8b35e50669860c01b6148a4565b614ddd674eb94eacf93cf82260c01b6148a4565b614df16714019baa97c92ead60c01b6148a4565b600360009054906101000a900473ffffffffffffffffffffffffffffffffffffffff1673ffffffffffffffffffffffffffffffffffffffff16637623f00e838860000154888a60020160000160009054906101000a900473ffffffffffffffffffffffffffffffffffffffff16878a6040518763ffffffff1660e01b8152600401614e80959493929190616fc2565b6000604051808303818588803b158015614e9957600080fd5b505af1158015614ead573d6000803e3d6000fd5b505050505050615141565b614ecc67d7d57cf19215b9df60c01b6148a4565b614ee0673aa3df3d6f38b43b60c01b6148a4565b614ef467811b8fb110d6475260c01b6148a4565b614f68600460009054906101000a900473ffffffffffffffffffffffffffffffffffffffff16838760020160000160009054906101000a900473ffffffffffffffffffffffffffffffffffffffff1673ffffffffffffffffffffffffffffffffffffffff166157b89092919063ffffffff16565b614f7c6781b068664c9bb35760c01b6148a4565b614f9067a676482ca3a9637260c01b6148a4565b8460020160000160009054906101000a900473ffffffffffffffffffffffffffffffffffffffff1673ffffffffffffffffffffffffffffffffffffffff1663095ea7b3600360009054906101000a900473ffffffffffffffffffffffffffffffffffffffff16836040518363ffffffff1660e01b81526004016150149291906168a9565b6020604051808303816000875af1158015615033573d6000803e3d6000fd5b505050506040513d601f19601f8201168201806040525081019061505791906168fe565b5061506c6795aac8633251bbde60c01b6148a4565b6150806718826c7e936a2d9160c01b6148a4565b600360009054906101000a900473ffffffffffffffffffffffffffffffffffffffff1673ffffffffffffffffffffffffffffffffffffffff16637623f00e8660000154868860020160000160009054906101000a900473ffffffffffffffffffffffffffffffffffffffff1685886040518663ffffffff1660e01b815260040161510e959493929190616fc2565b600060405180830381600087803b15801561512857600080fd5b505af115801561513c573d6000803e3d6000fd5b505050505b50505b505050565b6000615153615924565b90506001816000018190555050565b600060019050919050565b61518167d5bb11b40b8d85de60c01b61594c565b61519567e0c2ee17bb22d96c60c01b61594c565b6151a9676de994029db56a8160c01b61594c565b60008490506151c2670260d199604f632360c01b61594c565b6151d667ff7443fc8f01649f60c01b61594c565b60008173ffffffffffffffffffffffffffffffffffffffff1663dd62ed3e86306040518363ffffffff1660e01b815260040161521392919061616b565b602060405180830381865afa158015615230573d6000803e3d6000fd5b505050506040513d601f19601f820116820180604052508101906152549190617031565b905061526a670eb73587eab1b39260c01b61594c565b61527e670fe23579011748ec60c01b61594c565b828110156152ed5761529a67b8c562dbe1562d6260c01b61594c565b6152ae675483ff18762645e360c01b61594c565b80836040517f7c8db62f0000000000000000000000000000000000000000000000000000000081526004016152e4929190615e9d565b60405180910390fd5b615301675e9099c83112ec5e60c01b61594c565b6153156780b579eda42621de60c01b61594c565b61532967f0be8341f779e4c560c01b61594c565b60008273ffffffffffffffffffffffffffffffffffffffff166370a08231876040518263ffffffff1660e01b81526004016153649190615ec6565b602060405180830381865afa158015615381573d6000803e3d6000fd5b505050506040513d601f19601f820116820180604052508101906153a59190617031565b90506153bb67165099529f52e6aa60c01b61594c565b6153cf6733dddeae6f26392460c01b61594c565b8381101561543e576153eb675a4fd416a36b0ea960c01b61594c565b6153ff67b4190ea1c3f3fb8c60c01b61594c565b80846040517f04157bb4000000000000000000000000000000000000000000000000000000008152600401615435929190615e9d565b60405180910390fd5b61545267294d4201cb443c2b60c01b61594c565b615466672001196c2885b22a60c01b61594c565b61547a677ea5c946caf682e860c01b61594c565b8273ffffffffffffffffffffffffffffffffffffffff166323b872dd8787876040518463ffffffff1660e01b81526004016154b79392919061705e565b6020604051808303816000875af11580156154d6573d6000803e3d6000fd5b505050506040513d601f19601f820116820180604052508101906154fa91906168fe565b615567576155126794bddaae641e02da60c01b61594c565b61552667fbf0ce16b7f9d5b860c01b61594c565b8585856040517fca7f5f0e00000000000000000000000000000000000000000000000000000000815260040161555e9392919061705e565b60405180910390fd5b61557b679935c26a8ebc4c5960c01b61594c565b50505050505050565b61558c61594f565b73ffffffffffffffffffffffffffffffffffffffff166155aa61348b565b73ffffffffffffffffffffffffffffffffffffffff1614615609576155cd61594f565b6040517f118cdaa70000000000000000000000000000000000000000000000000000000081526004016156009190615ec6565b60405180910390fd5b565b60006156156156e2565b905060008160000160009054906101000a900473ffffffffffffffffffffffffffffffffffffffff169050828260000160006101000a81548173ffffffffffffffffffffffffffffffffffffffff021916908373ffffffffffffffffffffffffffffffffffffffff1602179055508273ffffffffffffffffffffffffffffffffffffffff168173ffffffffffffffffffffffffffffffffffffffff167f8be0079c531659141344cd1fd0a4f28419497f9722a3daafe3b4186f6b6457e060405160405180910390a3505050565b60007f9016d09d72d40fdae2fd8ceac6b6234c7706214fd39c1cd1e609a0528c199300905090565b60007ff0c57e16840df040f15088dc2f81fe391c3923bec73e23a9662efc9c229c6a00905090565b61573a615957565b600073ffffffffffffffffffffffffffffffffffffffff168173ffffffffffffffffffffffffffffffffffffffff16036157ac5760006040517f1e4fbdf70000000000000000000000000000000000000000000000000000000081526004016157a39190615ec6565b60405180910390fd5b6157b58161560b565b50565b6157cc67acef6ba5cb7b0da460c01b61594c565b6157e067547f2e2c49b2d62060c01b61594c565b6157f46740f0d2ae8d2efd0860c01b61594c565b600083905061580d67617c27e05e4586ad60c01b61594c565b615821679382a20c72ca1b2b60c01b61594c565b8073ffffffffffffffffffffffffffffffffffffffff1663a9059cbb84846040518363ffffffff1660e01b815260040161585c9291906168a9565b6020604051808303816000875af115801561587b573d6000803e3d6000fd5b505050506040513d601f19601f8201168201806040525081019061589f91906168fe565b61590a576158b7673ab56001dc249f5860c01b61594c565b6158cb673cbbc04e9c19dc4260c01b61594c565b82826040517f1c43b9760000000000000000000000000000000000000000000000000000000081526004016159019291906168a9565b60405180910390fd5b61591e67fda467ec834b964f60c01b61594c565b50505050565b60007f9b779b17422d0df92223018b32b4d1fa46e071723d6817e2486d003becc55f00905090565b50565b600033905090565b61595f615997565b615995576040517fd7e6bcf800000000000000000000000000000000000000000000000000000000815260040160405180910390fd5b565b60006159a161570a565b60000160089054906101000a900460ff16905090565b6000604051905090565b600080fd5b600080fd5b600080fd5b6000604082840312156159e6576159e56159cb565b5b81905092915050565b600060408284031215615a0557615a046159c1565b5b6000615a13848285016159d0565b91505092915050565b600060408284031215615a3257615a316159cb565b5b81905092915050565b600060408284031215615a5157615a506159c1565b5b6000615a5f84828501615a1c565b91505092915050565b600060808284031215615a7e57615a7d6159cb565b5b81905092915050565b600060808284031215615a9d57615a9c6159c1565b5b6000615aab84828501615a68565b91505092915050565b60006101408284031215615acb57615aca6159cb565b5b81905092915050565b600080fd5b600080fd5b600080fd5b60008083601f840112615af957615af8615ad4565b5b8235905067ffffffffffffffff811115615b1657615b15615ad9565b5b602083019150836040820283011115615b3257615b31615ade565b5b9250929050565b60008060006101608486031215615b5357615b526159c1565b5b6000615b6186828701615ab4565b93505061014084013567ffffffffffffffff811115615b8357615b826159c6565b5b615b8f86828701615ae3565b92509250509250925092565b600060208284031215615bb157615bb06159cb565b5b81905092915050565b600060208284031215615bd057615bcf6159c1565b5b6000615bde84828501615b9b565b91505092915050565b600060608284031215615bfd57615bfc6159cb565b5b81905092915050565b600060608284031215615c1c57615c1b6159c1565b5b6000615c2a84828501615be7565b91505092915050565b6000819050919050565b615c4681615c33565b82525050565b6000602082019050615c616000830184615c3d565b92915050565b6000819050919050565b615c7a81615c67565b8114615c8557600080fd5b50565b600081359050615c9781615c71565b92915050565b600073ffffffffffffffffffffffffffffffffffffffff82169050919050565b6000615cc882615c9d565b9050919050565b615cd881615cbd565b8114615ce357600080fd5b50565b600081359050615cf581615ccf565b92915050565b60008060408385031215615d1257615d116159c1565b5b6000615d2085828601615c88565b9250506020615d3185828601615ce6565b9150509250929050565b615d4481615c67565b82525050565b7f4e487b7100000000000000000000000000000000000000000000000000000000600052602160045260246000fd5b60038110615d8a57615d89615d4a565b5b50565b6000819050615d9b82615d79565b919050565b6000615dab82615d8d565b9050919050565b615dbb81615da0565b82525050565b615dca81615cbd565b82525050565b600060c082019050615de56000830189615c3d565b615df26020830188615d3b565b615dff6040830187615db2565b615e0c6060830186615dc1565b615e196080830185615c3d565b615e2660a0830184615c3d565b979650505050505050565b615e3a81615c33565b8114615e4557600080fd5b50565b600081359050615e5781615e31565b92915050565b60008060408385031215615e7457615e736159c1565b5b6000615e8285828601615c88565b9250506020615e9385828601615e48565b9150509250929050565b6000604082019050615eb26000830185615c3d565b615ebf6020830184615c3d565b9392505050565b6000602082019050615edb6000830184615dc1565b92915050565b600080600080600060a08688031215615efd57615efc6159c1565b5b6000615f0b88828901615ce6565b9550506020615f1c88828901615ce6565b9450506040615f2d88828901615ce6565b9350506060615f3e88828901615e48565b9250506080615f4f88828901615e48565b9150509295509295909350565b60006101408284031215615f7357615f726159c1565b5b6000615f8184828501615ab4565b91505092915050565b6000602082019050615f9f6000830184615d3b565b92915050565b600060208284031215615fbb57615fba6159c1565b5b6000615fc984828501615c88565b91505092915050565b600060208284031215615fe857615fe76159c1565b5b6000615ff684828501615ce6565b91505092915050565b600481106160105761600f615d4a565b5b50565b600081905061602182615fff565b919050565b600061603182616013565b9050919050565b61604181616026565b82525050565b61605081615cbd565b82525050565b61605f81615c33565b82525050565b60408201600082015161607b6000850182616047565b50602082015161608e6020850182616056565b50505050565b60008115159050919050565b6160a981616094565b82525050565b60006101c0820190506160c5600083018f615d3b565b6160d2602083018e616038565b6160df604083018d615dc1565b6160ec606083018c616065565b6160f960a083018b615dc1565b61610660c083018a616065565b616114610100830189615c3d565b616122610120830188615c3d565b616130610140830187615c3d565b61613e610160830186615c3d565b61614c610180830185615c3d565b61615a6101a08301846160a0565b9d9c50505050505050505050505050565b60006040820190506161806000830185615dc1565b61618d6020830184615dc1565b9392505050565b60006020820190506161a96000830184615db2565b92915050565b6161b881615cbd565b82525050565b6161c781615c33565b82525050565b600060c0820190506161e260008301896161af565b6161ef60208301886161af565b6161fc60408301876161be565b61620960608301866161be565b61621660808301856161be565b61622360a08301846161af565b979650505050505050565b600080fd5b6000601f19601f8301169050919050565b7f4e487b7100000000000000000000000000000000000000000000000000000000600052604160045260246000fd5b61627c82616233565b810181811067ffffffffffffffff8211171561629b5761629a616244565b5b80604052505050565b60006162ae6159b7565b90506162ba8282616273565b919050565b6000604082840312156162d5576162d461622e565b5b6162df60406162a4565b905060006162ef84828501615c88565b600083015250602061630384828501615ce6565b60208301525092915050565b600060408284031215616325576163246159c1565b5b6000616333848285016162bf565b91505092915050565b61634581615c67565b82525050565b61635481615cbd565b82525050565b604082016000820151616370600085018261633c565b506020820151616383602085018261634b565b50505050565b600060408201905061639e600083018461635a565b92915050565b8082525050565b60006020820190506163c060008301846163a4565b92915050565b600060e0820190506163db600083018a6161af565b6163e860208301896161af565b6163f560408301886161af565b61640260608301876161be565b61640f60808301866161be565b61641c60a08301856161be565b61642960c08301846161af565b98975050505050505050565b8082525050565b600061644b6020840184615e48565b905092915050565b61645c81615c33565b82525050565b60006164716020840184615ce6565b905092915050565b60006164886020840184615c88565b905092915050565b608082016164a1600083018361643c565b6164ae6000850182616453565b506164bc6020830183616462565b6164c9602085018261634b565b506164d76040830183616479565b6164e4604085018261633c565b506164f2606083018361643c565b6164ff6060850182616453565b50505050565b600060a08201905061651a6000830185616435565b6165276020830184616490565b9392505050565b6000604082840312156165445761654361622e565b5b61654e60406162a4565b9050600061655e84828501615e48565b600083015250602061657284828501615e48565b60208301525092915050565b600060408284031215616594576165936159c1565b5b60006165a28482850161652e565b91505092915050565b600081519050919050565b600082825260208201905092915050565b6000819050602082019050919050565b6040820160008201516165ed6000850182616453565b5060208201516166006020850182616453565b50505050565b600061661283836165d7565b60408301905092915050565b6000602082019050919050565b6000616636826165ab565b61664081856165b6565b935061664b836165c7565b8060005b8381101561667c5781516166638882616606565b975061666e8361661e565b92505060018101905061664f565b5085935050505092915050565b600060208201905081810360008301526166a3818461662b565b905092915050565b7f4e487b7100000000000000000000000000000000000000000000000000000000600052603260045260246000fd5b600081356166e781615e31565b80915050919050565b60008160001b9050919050565b60007fffffffffffffffffffffffffffffffffffffffffffffffffffffffffffffffff616729846166f0565b9350801983169250808416831791505092915050565b6000819050919050565b600061676461675f61675a84615c33565b61673f565b615c33565b9050919050565b6000819050919050565b61677e82616749565b61679161678a8261676b565b83546166fd565b8255505050565b6000810160008301806167aa816166da565b90506167b68184616775565b5050506001810160208301806167cb816166da565b90506167d78184616775565b5050505050565b6167e88282616798565b5050565b7f4e487b7100000000000000000000000000000000000000000000000000000000600052601160045260246000fd5b600061682682615c33565b91507fffffffffffffffffffffffffffffffffffffffffffffffffffffffffffffffff8203616858576168576167ec565b5b600182019050919050565b600081905092915050565b50565b600061687e600083616863565b91506168898261686e565b600082019050919050565b600061689f82616871565b9150819050919050565b60006040820190506168be6000830185615dc1565b6168cb6020830184615c3d565b9392505050565b6168db81616094565b81146168e657600080fd5b50565b6000815190506168f8816168d2565b92915050565b600060208284031215616914576169136159c1565b5b6000616922848285016168e9565b91505092915050565b600061693682615c33565b915061694183615c33565b9250828201905080821115616959576169586167ec565b5b92915050565b6000819050919050565b600067ffffffffffffffff82169050919050565b600061699861699361698e8461695f565b61673f565b616969565b9050919050565b6169a88161697d565b82525050565b60006020820190506169c3600083018461699f565b92915050565b6000604082840312156169df576169de61622e565b5b6169e960406162a4565b905060006169f984828501615ce6565b6000830152506020616a0d84828501615e48565b60208301525092915050565b600081359050616a28816168d2565b92915050565b60006101408284031215616a4557616a4461622e565b5b616a506101006162a4565b90506000616a6084828501615c88565b6000830152506020616a74848285016169c9565b6020830152506060616a88848285016169c9565b60408301525060a0616a9c84828501615ce6565b60608301525060c0616ab084828501615ce6565b60808301525060e0616ac484828501615e48565b60a083015250610100616ad984828501615e48565b60c083015250610120616aee84828501616a19565b60e08301525092915050565b60006101408284031215616b1157616b106159c1565b5b6000616b1f84828501616a2e565b91505092915050565b604082016000820151616b3e600085018261634b565b506020820151616b516020850182616453565b50505050565b616b6081616094565b82525050565b61014082016000820151616b7d600085018261633c565b506020820151616b906020850182616b28565b506040820151616ba36060850182616b28565b506060820151616bb660a085018261634b565b506080820151616bc960c085018261634b565b5060a0820151616bdc60e0850182616453565b5060c0820151616bf0610100850182616453565b5060e0820151616c04610120850182616b57565b50505050565b600061014082019050616c206000830184616b66565b92915050565b616c2f81615c67565b82525050565b6000604082019050616c4a6000830185616c26565b616c5760208301846161af565b9392505050565b600081519050616c6d81615c71565b92915050565b600060208284031215616c8957616c886159c1565b5b6000616c9784828501616c5e565b91505092915050565b8082525050565b600082905092915050565b60408201616cc36000830183616462565b616cd0600085018261634b565b50616cde602083018361643c565b616ceb6020850182616453565b50505050565b6000616d006020840184616a19565b905092915050565b6101408201616d1a6000830183616479565b616d27600085018261633c565b50616d356020830183616ca7565b616d426020850182616cb2565b50616d506060830183616ca7565b616d5d6060850182616cb2565b50616d6b60a0830183616462565b616d7860a085018261634b565b50616d8660c0830183616462565b616d9360c085018261634b565b50616da160e083018361643c565b616dae60e0850182616453565b50616dbd61010083018361643c565b616dcb610100850182616453565b50616dda610120830183616cf1565b616de8610120850182616b57565b50505050565b60006101a082019050616e046000830187616ca0565b616e116020830186616d08565b616e1f610160830185616c26565b616e2d6101808301846161af565b95945050505050565b6000616e4182615c33565b9150616e4c83615c33565b9250828202616e5a81615c33565b91508282048414831517616e7157616e706167ec565b5b5092915050565b7f4e487b7100000000000000000000000000000000000000000000000000000000600052601260045260246000fd5b6000616eb282615c33565b9150616ebd83615c33565b925082616ecd57616ecc616e78565b5b828204905092915050565b6000616ee382615c33565b9150616eee83615c33565b9250828203905081811115616f0657616f056167ec565b5b92915050565b600082825260208201905092915050565b604082016000820151616f336000850182616056565b506020820151616f466020850182616056565b50505050565b6000616f588383616f1d565b60408301905092915050565b6000616f6f826165ab565b616f798185616f0c565b9350616f84836165c7565b8060005b83811015616fb5578151616f9c8882616f4c565b9750616fa78361661e565b925050600181019050616f88565b5085935050505092915050565b600060a082019050616fd76000830188615d3b565b616fe46020830187615dc1565b616ff16040830186615dc1565b616ffe6060830185615c3d565b81810360808301526170108184616f64565b90509695505050505050565b60008151905061702b81615e31565b92915050565b600060208284031215617047576170466159c1565b5b60006170558482850161701c565b91505092915050565b60006060820190506170736000830186615dc1565b6170806020830185615dc1565b61708d6040830184615c3d565b94935050505056fea2646970667358221220a756ca5db46a0f57ddc2fd574aaaa404367cc42b496bb6ff4c2b9d6579e32ce164736f6c63430008140033","opcodes":"PUSH1 0x80 PUSH1 0x40 MSTORE CALLVALUE DUP1 ISZERO PUSH2 0x10 JUMPI PUSH1 0x0 DUP1 REVERT JUMPDEST POP PUSH2 0x70CB DUP1 PUSH3 0x21 PUSH1 0x0 CODECOPY PUSH1 0x0 RETURN INVALID PUSH1 0x80 PUSH1 0x40 MSTORE PUSH1 0x4 CALLDATASIZE LT PUSH2 0x109 JUMPI PUSH1 0x0 CALLDATALOAD PUSH1 0xE0 SHR DUP1 PUSH4 0x89F68190 GT PUSH2 0x95 JUMPI DUP1 PUSH4 0xA743A3D0 GT PUSH2 0x64 JUMPI DUP1 PUSH4 0xA743A3D0 EQ PUSH2 0x2F7 JUMPI DUP1 PUSH4 0xD2A25283 EQ PUSH2 0x334 JUMPI DUP1 PUSH4 0xDF7CEC28 EQ PUSH2 0x364 JUMPI DUP1 PUSH4 0xF2FDE38B EQ PUSH2 0x380 JUMPI DUP1 PUSH4 0xFCA6CAA1 EQ PUSH2 0x3A9 JUMPI PUSH2 0x109 JUMP JUMPDEST DUP1 PUSH4 0x89F68190 EQ PUSH2 0x23A JUMPI DUP1 PUSH4 0x8D6CB1C4 EQ PUSH2 0x265 JUMPI DUP1 PUSH4 0x8DA5CB5B EQ PUSH2 0x2A3 JUMPI DUP1 PUSH4 0xA6B63EB8 EQ PUSH2 0x2CE JUMPI PUSH2 0x109 JUMP JUMPDEST DUP1 PUSH4 0x37BE0022 GT PUSH2 0xDC JUMPI DUP1 PUSH4 0x37BE0022 EQ PUSH2 0x17E JUMPI DUP1 PUSH4 0x3D9BD2FC EQ PUSH2 0x19A JUMPI DUP1 PUSH4 0x53F10C80 EQ PUSH2 0x1B6 JUMPI DUP1 PUSH4 0x66E929BF EQ PUSH2 0x1E1 JUMPI DUP1 PUSH4 0x715018A6 EQ PUSH2 0x223 JUMPI PUSH2 0x109 JUMP JUMPDEST DUP1 PUSH4 0x2206661 EQ PUSH2 0x10E JUMPI DUP1 PUSH4 0x6BE619C EQ PUSH2 0x12A JUMPI DUP1 PUSH4 0x16B50A82 EQ PUSH2 0x146 JUMPI DUP1 PUSH4 0x2B2B6511 EQ PUSH2 0x162 JUMPI JUMPDEST PUSH1 0x0 DUP1 REVERT JUMPDEST PUSH2 0x128 PUSH1 0x4 DUP1 CALLDATASIZE SUB DUP2 ADD SWAP1 PUSH2 0x123 SWAP2 SWAP1 PUSH2 0x59EF JUMP JUMPDEST PUSH2 0x3F1 JUMP JUMPDEST STOP JUMPDEST PUSH2 0x144 PUSH1 0x4 DUP1 CALLDATASIZE SUB DUP2 ADD SWAP1 PUSH2 0x13F SWAP2 SWAP1 PUSH2 0x5A3B JUMP JUMPDEST PUSH2 0xEF8 JUMP JUMPDEST STOP JUMPDEST PUSH2 0x160 PUSH1 0x4 DUP1 CALLDATASIZE SUB DUP2 ADD SWAP1 PUSH2 0x15B SWAP2 SWAP1 PUSH2 0x5A87 JUMP JUMPDEST PUSH2 0x15F3 JUMP JUMPDEST STOP JUMPDEST PUSH2 0x17C PUSH1 0x4 DUP1 CALLDATASIZE SUB DUP2 ADD SWAP1 PUSH2 0x177 SWAP2 SWAP1 PUSH2 0x5B39 JUMP JUMPDEST PUSH2 0x1F7B JUMP JUMPDEST STOP JUMPDEST PUSH2 0x198 PUSH1 0x4 DUP1 CALLDATASIZE SUB DUP2 ADD SWAP1 PUSH2 0x193 SWAP2 SWAP1 PUSH2 0x5BBA JUMP JUMPDEST PUSH2 0x2186 JUMP JUMPDEST STOP JUMPDEST PUSH2 0x1B4 PUSH1 0x4 DUP1 CALLDATASIZE SUB DUP2 ADD SWAP1 PUSH2 0x1AF SWAP2 SWAP1 PUSH2 0x5C06 JUMP JUMPDEST PUSH2 0x2A1C JUMP JUMPDEST STOP JUMPDEST CALLVALUE DUP1 ISZERO PUSH2 0x1C2 JUMPI PUSH1 0x0 DUP1 REVERT JUMPDEST POP PUSH2 0x1CB PUSH2 0x33B4 JUMP JUMPDEST PUSH1 0x40 MLOAD PUSH2 0x1D8 SWAP2 SWAP1 PUSH2 0x5C4C JUMP JUMPDEST PUSH1 0x40 MLOAD DUP1 SWAP2 SUB SWAP1 RETURN JUMPDEST CALLVALUE DUP1 ISZERO PUSH2 0x1ED JUMPI PUSH1 0x0 DUP1 REVERT JUMPDEST POP PUSH2 0x208 PUSH1 0x4 DUP1 CALLDATASIZE SUB DUP2 ADD SWAP1 PUSH2 0x203 SWAP2 SWAP1 PUSH2 0x5CFB JUMP JUMPDEST PUSH2 0x33BA JUMP JUMPDEST PUSH1 0x40 MLOAD PUSH2 0x21A SWAP7 SWAP6 SWAP5 SWAP4 SWAP3 SWAP2 SWAP1 PUSH2 0x5DD0 JUMP JUMPDEST PUSH1 0x40 MLOAD DUP1 SWAP2 SUB SWAP1 RETURN JUMPDEST CALLVALUE DUP1 ISZERO PUSH2 0x22F JUMPI PUSH1 0x0 DUP1 REVERT JUMPDEST POP PUSH2 0x238 PUSH2 0x3430 JUMP JUMPDEST STOP JUMPDEST CALLVALUE DUP1 ISZERO PUSH2 0x246 JUMPI PUSH1 0x0 DUP1 REVERT JUMPDEST POP PUSH2 0x24F PUSH2 0x3444 JUMP JUMPDEST PUSH1 0x40 MLOAD PUSH2 0x25C SWAP2 SWAP1 PUSH2 0x5C4C JUMP JUMPDEST PUSH1 0x40 MLOAD DUP1 SWAP2 SUB SWAP1 RETURN JUMPDEST CALLVALUE DUP1 ISZERO PUSH2 0x271 JUMPI PUSH1 0x0 DUP1 REVERT JUMPDEST POP PUSH2 0x28C PUSH1 0x4 DUP1 CALLDATASIZE SUB DUP2 ADD SWAP1 PUSH2 0x287 SWAP2 SWAP1 PUSH2 0x5E5D JUMP JUMPDEST PUSH2 0x344A JUMP JUMPDEST PUSH1 0x40 MLOAD PUSH2 0x29A SWAP3 SWAP2 SWAP1 PUSH2 0x5E9D JUMP JUMPDEST PUSH1 0x40 MLOAD DUP1 SWAP2 SUB SWAP1 RETURN JUMPDEST CALLVALUE DUP1 ISZERO PUSH2 0x2AF JUMPI PUSH1 0x0 DUP1 REVERT JUMPDEST POP PUSH2 0x2B8 PUSH2 0x348B JUMP JUMPDEST PUSH1 0x40 MLOAD PUSH2 0x2C5 SWAP2 SWAP1 PUSH2 0x5EC6 JUMP JUMPDEST PUSH1 0x40 MLOAD DUP1 SWAP2 SUB SWAP1 RETURN JUMPDEST CALLVALUE DUP1 ISZERO PUSH2 0x2DA JUMPI PUSH1 0x0 DUP1 REVERT JUMPDEST POP PUSH2 0x2F5 PUSH1 0x4 DUP1 CALLDATASIZE SUB DUP2 ADD SWAP1 PUSH2 0x2F0 SWAP2 SWAP1 PUSH2 0x5EE1 JUMP JUMPDEST PUSH2 0x34C3 JUMP JUMPDEST STOP JUMPDEST CALLVALUE DUP1 ISZERO PUSH2 0x303 JUMPI PUSH1 0x0 DUP1 REVERT JUMPDEST POP PUSH2 0x31E PUSH1 0x4 DUP1 CALLDATASIZE SUB DUP2 ADD SWAP1 PUSH2 0x319 SWAP2 SWAP1 PUSH2 0x5CFB JUMP JUMPDEST PUSH2 0x39A4 JUMP JUMPDEST PUSH1 0x40 MLOAD PUSH2 0x32B SWAP2 SWAP1 PUSH2 0x5C4C JUMP JUMPDEST PUSH1 0x40 MLOAD DUP1 SWAP2 SUB SWAP1 RETURN JUMPDEST PUSH2 0x34E PUSH1 0x4 DUP1 CALLDATASIZE SUB DUP2 ADD SWAP1 PUSH2 0x349 SWAP2 SWAP1 PUSH2 0x5F5C JUMP JUMPDEST PUSH2 0x39C9 JUMP JUMPDEST PUSH1 0x40 MLOAD PUSH2 0x35B SWAP2 SWAP1 PUSH2 0x5F8A JUMP JUMPDEST PUSH1 0x40 MLOAD DUP1 SWAP2 SUB SWAP1 RETURN JUMPDEST PUSH2 0x37E PUSH1 0x4 DUP1 CALLDATASIZE SUB DUP2 ADD SWAP1 PUSH2 0x379 SWAP2 SWAP1 PUSH2 0x5FA5 JUMP JUMPDEST PUSH2 0x3F3D JUMP JUMPDEST STOP JUMPDEST CALLVALUE DUP1 ISZERO PUSH2 0x38C JUMPI PUSH1 0x0 DUP1 REVERT JUMPDEST POP PUSH2 0x3A7 PUSH1 0x4 DUP1 CALLDATASIZE SUB DUP2 ADD SWAP1 PUSH2 0x3A2 SWAP2 SWAP1 PUSH2 0x5FD2 JUMP JUMPDEST PUSH2 0x4690 JUMP JUMPDEST STOP JUMPDEST CALLVALUE DUP1 ISZERO PUSH2 0x3B5 JUMPI PUSH1 0x0 DUP1 REVERT JUMPDEST POP PUSH2 0x3D0 PUSH1 0x4 DUP1 CALLDATASIZE SUB DUP2 ADD SWAP1 PUSH2 0x3CB SWAP2 SWAP1 PUSH2 0x5FA5 JUMP JUMPDEST PUSH2 0x4716 JUMP JUMPDEST PUSH1 0x40 MLOAD PUSH2 0x3E8 SWAP13 SWAP12 SWAP11 SWAP10 SWAP9 SWAP8 SWAP7 SWAP6 SWAP5 SWAP4 SWAP3 SWAP2 SWAP1 PUSH2 0x60AF JUMP JUMPDEST PUSH1 0x40 MLOAD DUP1 SWAP2 SUB SWAP1 RETURN JUMPDEST PUSH2 0x405 PUSH8 0xD0BF00C1792D40ED PUSH1 0xC0 SHL PUSH2 0x48A4 JUMP JUMPDEST PUSH2 0x40D PUSH2 0x48A7 JUMP JUMPDEST PUSH2 0x421 PUSH8 0x41131361520DC838 PUSH1 0xC0 SHL PUSH2 0x48A4 JUMP JUMPDEST PUSH2 0x435 PUSH8 0x51769B3A1300913 PUSH1 0xC0 SHL PUSH2 0x48A4 JUMP JUMPDEST DUP1 PUSH1 0x0 ADD CALLDATALOAD PUSH2 0x44E PUSH8 0x18B2B56D066EFD04 PUSH1 0xC0 SHL PUSH2 0x48FE JUMP JUMPDEST PUSH2 0x462 PUSH8 0x7B1B1FFA8FAD79B1 PUSH1 0xC0 SHL PUSH2 0x48FE JUMP JUMPDEST PUSH2 0x476 PUSH8 0x3D390455BB908403 PUSH1 0xC0 SHL PUSH2 0x48FE JUMP JUMPDEST PUSH1 0x0 DUP1 SHL PUSH1 0x0 DUP1 DUP4 DUP2 MSTORE PUSH1 0x20 ADD SWAP1 DUP2 MSTORE PUSH1 0x20 ADD PUSH1 0x0 KECCAK256 PUSH1 0x0 ADD SLOAD SUB PUSH2 0x4EF JUMPI PUSH2 0x4A9 PUSH8 0xCED22D93201B06D5 PUSH1 0xC0 SHL PUSH2 0x48FE JUMP JUMPDEST PUSH2 0x4BD PUSH8 0xD22590866453AFF2 PUSH1 0xC0 SHL PUSH2 0x48FE JUMP JUMPDEST PUSH1 0x40 MLOAD PUSH32 0x5DCAF2D700000000000000000000000000000000000000000000000000000000 DUP2 MSTORE PUSH1 0x4 ADD PUSH1 0x40 MLOAD DUP1 SWAP2 SUB SWAP1 REVERT JUMPDEST PUSH2 0x503 PUSH8 0x393A760C1805114 PUSH1 0xC0 SHL PUSH2 0x48FE JUMP JUMPDEST PUSH2 0x517 PUSH8 0xF3C8792634AF1151 PUSH1 0xC0 SHL PUSH2 0x48FE JUMP JUMPDEST PUSH2 0x52B PUSH8 0xA325AE24C2827649 PUSH1 0xC0 SHL PUSH2 0x48A4 JUMP JUMPDEST PUSH2 0x53F PUSH8 0xA4F8D042FEC04DE9 PUSH1 0xC0 SHL PUSH2 0x48A4 JUMP JUMPDEST DUP2 PUSH1 0x0 ADD CALLDATALOAD PUSH2 0x558 PUSH8 0xEDA633C5957D325 PUSH1 0xC0 SHL PUSH2 0x48FE JUMP JUMPDEST PUSH2 0x56B PUSH7 0xB27EACC416F227 PUSH1 0xC0 SHL PUSH2 0x48FE JUMP JUMPDEST PUSH2 0x57F PUSH8 0x8F4CFC2CF3BC0472 PUSH1 0xC0 SHL PUSH2 0x48FE JUMP JUMPDEST PUSH1 0x0 PUSH1 0x3 DUP2 GT ISZERO PUSH2 0x593 JUMPI PUSH2 0x592 PUSH2 0x5D4A JUMP JUMPDEST JUMPDEST PUSH1 0x0 DUP1 DUP4 DUP2 MSTORE PUSH1 0x20 ADD SWAP1 DUP2 MSTORE PUSH1 0x20 ADD PUSH1 0x0 KECCAK256 PUSH1 0x1 ADD PUSH1 0x0 SWAP1 SLOAD SWAP1 PUSH2 0x100 EXP SWAP1 DIV PUSH1 0xFF AND PUSH1 0x3 DUP2 GT ISZERO PUSH2 0x5C8 JUMPI PUSH2 0x5C7 PUSH2 0x5D4A JUMP JUMPDEST JUMPDEST EQ PUSH2 0x627 JUMPI PUSH2 0x5E1 PUSH8 0x2751150A072430C3 PUSH1 0xC0 SHL PUSH2 0x48FE JUMP JUMPDEST PUSH2 0x5F5 PUSH8 0xFF8A6CA70A795795 PUSH1 0xC0 SHL PUSH2 0x48FE JUMP JUMPDEST PUSH1 0x40 MLOAD PUSH32 0xD4DBB56500000000000000000000000000000000000000000000000000000000 DUP2 MSTORE PUSH1 0x4 ADD PUSH1 0x40 MLOAD DUP1 SWAP2 SUB SWAP1 REVERT JUMPDEST PUSH2 0x63B PUSH8 0x7B692B2024257BF9 PUSH1 0xC0 SHL PUSH2 0x48FE JUMP JUMPDEST PUSH2 0x64F PUSH8 0x9C2DB1F7FADBAA6B PUSH1 0xC0 SHL PUSH2 0x48FE JUMP JUMPDEST PUSH2 0x663 PUSH8 0x94E22098725BECEC PUSH1 0xC0 SHL PUSH2 0x48A4 JUMP JUMPDEST PUSH2 0x677 PUSH8 0xE2DE7F3E5D525722 PUSH1 0xC0 SHL PUSH2 0x48A4 JUMP JUMPDEST PUSH2 0x68B PUSH8 0xD443756CC97B32F5 PUSH1 0xC0 SHL PUSH2 0x48A4 JUMP JUMPDEST PUSH2 0x69F PUSH8 0xA3CBEEC13D01C848 PUSH1 0xC0 SHL PUSH2 0x48A4 JUMP JUMPDEST PUSH1 0x0 DUP4 PUSH1 0x0 ADD CALLDATALOAD SWAP1 POP PUSH2 0x6BC PUSH8 0xF4150BB08655820D PUSH1 0xC0 SHL PUSH2 0x48A4 JUMP JUMPDEST PUSH2 0x6D0 PUSH8 0xCF6DFB6CD4D10E02 PUSH1 0xC0 SHL PUSH2 0x48A4 JUMP JUMPDEST PUSH1 0x0 DUP5 PUSH1 0x20 ADD PUSH1 0x20 DUP2 ADD SWAP1 PUSH2 0x6E5 SWAP2 SWAP1 PUSH2 0x5FD2 JUMP JUMPDEST SWAP1 POP PUSH2 0x6FB PUSH8 0x80EBEF31E4E6BA2A PUSH1 0xC0 SHL PUSH2 0x48A4 JUMP JUMPDEST PUSH2 0x70F PUSH8 0xC4475553BDE7739D PUSH1 0xC0 SHL PUSH2 0x48A4 JUMP JUMPDEST PUSH1 0x0 PUSH20 0xFFFFFFFFFFFFFFFFFFFFFFFFFFFFFFFFFFFFFFFF AND CALLER PUSH20 0xFFFFFFFFFFFFFFFFFFFFFFFFFFFFFFFFFFFFFFFF AND SUB PUSH2 0x79D JUMPI PUSH2 0x757 PUSH8 0x1B4F064C65D0216B PUSH1 0xC0 SHL PUSH2 0x48A4 JUMP JUMPDEST PUSH2 0x76B PUSH8 0xA5798CE345515B72 PUSH1 0xC0 SHL PUSH2 0x48A4 JUMP JUMPDEST PUSH1 0x40 MLOAD PUSH32 0x809490800000000000000000000000000000000000000000000000000000000 DUP2 MSTORE PUSH1 0x4 ADD PUSH1 0x40 MLOAD DUP1 SWAP2 SUB SWAP1 REVERT JUMPDEST PUSH2 0x7B1 PUSH8 0x7544FA9B7B875CA5 PUSH1 0xC0 SHL PUSH2 0x48A4 JUMP JUMPDEST PUSH2 0x7C5 PUSH8 0xC2F055178EB43E1F PUSH1 0xC0 SHL PUSH2 0x48A4 JUMP JUMPDEST PUSH2 0x7D9 PUSH8 0x2CA0EEF88CB36D71 PUSH1 0xC0 SHL PUSH2 0x48A4 JUMP JUMPDEST PUSH1 0x0 DUP1 PUSH1 0x0 DUP5 DUP2 MSTORE PUSH1 0x20 ADD SWAP1 DUP2 MSTORE PUSH1 0x20 ADD PUSH1 0x0 KECCAK256 SWAP1 POP PUSH2 0x803 PUSH8 0x1C0C8536619ECAC9 PUSH1 0xC0 SHL PUSH2 0x48A4 JUMP JUMPDEST PUSH2 0x817 PUSH8 0x391F0BF8A037B78A PUSH1 0xC0 SHL PUSH2 0x48A4 JUMP JUMPDEST DUP1 PUSH1 0xC ADD PUSH1 0x0 SWAP1 SLOAD SWAP1 PUSH2 0x100 EXP SWAP1 DIV PUSH1 0xFF AND PUSH2 0x887 JUMPI PUSH2 0x841 PUSH8 0x10155DA097332F13 PUSH1 0xC0 SHL PUSH2 0x48A4 JUMP JUMPDEST PUSH2 0x855 PUSH8 0x37C29655CBF1EE3F PUSH1 0xC0 SHL PUSH2 0x48A4 JUMP JUMPDEST PUSH1 0x40 MLOAD PUSH32 0x3C24FAFC00000000000000000000000000000000000000000000000000000000 DUP2 MSTORE PUSH1 0x4 ADD PUSH1 0x40 MLOAD DUP1 SWAP2 SUB SWAP1 REVERT JUMPDEST PUSH2 0x89B PUSH8 0x2081906FEEE4CBA8 PUSH1 0xC0 SHL PUSH2 0x48A4 JUMP JUMPDEST PUSH2 0x8AF PUSH8 0xABDC4E47FFA0C12F PUSH1 0xC0 SHL PUSH2 0x48A4 JUMP JUMPDEST PUSH2 0x8C3 PUSH8 0x4159AF82466FB439 PUSH1 0xC0 SHL PUSH2 0x48A4 JUMP JUMPDEST CALLER PUSH20 0xFFFFFFFFFFFFFFFFFFFFFFFFFFFFFFFFFFFFFFFF AND DUP2 PUSH1 0x1 ADD PUSH1 0x1 SWAP1 SLOAD SWAP1 PUSH2 0x100 EXP SWAP1 DIV PUSH20 0xFFFFFFFFFFFFFFFFFFFFFFFFFFFFFFFFFFFFFFFF AND PUSH20 0xFFFFFFFFFFFFFFFFFFFFFFFFFFFFFFFFFFFFFFFF AND EQ PUSH2 0x9A5 JUMPI PUSH2 0x92E PUSH8 0x7373D977D22A9F47 PUSH1 0xC0 SHL PUSH2 0x48A4 JUMP JUMPDEST PUSH2 0x942 PUSH8 0xDD3048C400E15EE0 PUSH1 0xC0 SHL PUSH2 0x48A4 JUMP JUMPDEST DUP1 PUSH1 0x1 ADD PUSH1 0x1 SWAP1 SLOAD SWAP1 PUSH2 0x100 EXP SWAP1 DIV PUSH20 0xFFFFFFFFFFFFFFFFFFFFFFFFFFFFFFFFFFFFFFFF AND CALLER PUSH1 0x40 MLOAD PUSH32 0x500CB4C00000000000000000000000000000000000000000000000000000000 DUP2 MSTORE PUSH1 0x4 ADD PUSH2 0x99C SWAP3 SWAP2 SWAP1 PUSH2 0x616B JUMP JUMPDEST PUSH1 0x40 MLOAD DUP1 SWAP2 SUB SWAP1 REVERT JUMPDEST PUSH2 0x9B9 PUSH8 0xF09E4410CBB6DC9B PUSH1 0xC0 SHL PUSH2 0x48A4 JUMP JUMPDEST PUSH2 0x9CD PUSH8 0x81903FAFC9B05496 PUSH1 0xC0 SHL PUSH2 0x48A4 JUMP JUMPDEST PUSH2 0x9E1 PUSH8 0xC65C34B16C4BC589 PUSH1 0xC0 SHL PUSH2 0x48A4 JUMP JUMPDEST PUSH1 0x0 PUSH1 0x2 PUSH1 0x0 DUP6 DUP2 MSTORE PUSH1 0x20 ADD SWAP1 DUP2 MSTORE PUSH1 0x20 ADD PUSH1 0x0 KECCAK256 PUSH1 0x0 DUP5 PUSH20 0xFFFFFFFFFFFFFFFFFFFFFFFFFFFFFFFFFFFFFFFF AND PUSH20 0xFFFFFFFFFFFFFFFFFFFFFFFFFFFFFFFFFFFFFFFF AND DUP2 MSTORE PUSH1 0x20 ADD SWAP1 DUP2 MSTORE PUSH1 0x20 ADD PUSH1 0x0 KECCAK256 SWAP1 POP PUSH2 0xA49 PUSH8 0xCACDDEF33C2A0B5F PUSH1 0xC0 SHL PUSH2 0x48A4 JUMP JUMPDEST PUSH2 0xA5D PUSH8 0x92A3D2A17E3FCA31 PUSH1 0xC0 SHL PUSH2 0x48A4 JUMP JUMPDEST PUSH1 0x2 DUP1 DUP2 GT ISZERO PUSH2 0xA70 JUMPI PUSH2 0xA6F PUSH2 0x5D4A JUMP JUMPDEST JUMPDEST DUP2 PUSH1 0x2 ADD PUSH1 0x0 SWAP1 SLOAD SWAP1 PUSH2 0x100 EXP SWAP1 DIV PUSH1 0xFF AND PUSH1 0x2 DUP2 GT ISZERO PUSH2 0xA94 JUMPI PUSH2 0xA93 PUSH2 0x5D4A JUMP JUMPDEST JUMPDEST EQ PUSH2 0xB0F JUMPI PUSH2 0xAAD PUSH8 0x9074A13349B36904 PUSH1 0xC0 SHL PUSH2 0x48A4 JUMP JUMPDEST PUSH2 0xAC1 PUSH8 0x8084F897133C8131 PUSH1 0xC0 SHL PUSH2 0x48A4 JUMP JUMPDEST DUP1 PUSH1 0x2 ADD PUSH1 0x0 SWAP1 SLOAD SWAP1 PUSH2 0x100 EXP SWAP1 DIV PUSH1 0xFF AND PUSH1 0x40 MLOAD PUSH32 0x64B08C0600000000000000000000000000000000000000000000000000000000 DUP2 MSTORE PUSH1 0x4 ADD PUSH2 0xB06 SWAP2 SWAP1 PUSH2 0x6194 JUMP JUMPDEST PUSH1 0x40 MLOAD DUP1 SWAP2 SUB SWAP1 REVERT JUMPDEST PUSH2 0xB23 PUSH8 0x6A4E27D2A25F2CCE PUSH1 0xC0 SHL PUSH2 0x48A4 JUMP JUMPDEST PUSH2 0xB37 PUSH8 0x22C4C84CD2D044C4 PUSH1 0xC0 SHL PUSH2 0x48A4 JUMP JUMPDEST PUSH2 0xB4B PUSH8 0x606495F18CC33179 PUSH1 0xC0 SHL PUSH2 0x48A4 JUMP JUMPDEST TIMESTAMP DUP2 PUSH1 0x4 ADD SLOAD LT ISZERO PUSH2 0xBC2 JUMPI PUSH2 0xB6B PUSH8 0x2E7330E381E0C745 PUSH1 0xC0 SHL PUSH2 0x48A4 JUMP JUMPDEST PUSH2 0xB7F PUSH8 0x30D9611E9D33EBE8 PUSH1 0xC0 SHL PUSH2 0x48A4 JUMP JUMPDEST DUP1 PUSH1 0x4 ADD SLOAD TIMESTAMP PUSH1 0x40 MLOAD PUSH32 0x1D35563900000000000000000000000000000000000000000000000000000000 DUP2 MSTORE PUSH1 0x4 ADD PUSH2 0xBB9 SWAP3 SWAP2 SWAP1 PUSH2 0x5E9D JUMP JUMPDEST PUSH1 0x40 MLOAD DUP1 SWAP2 SUB SWAP1 REVERT JUMPDEST PUSH2 0xBD6 PUSH8 0xB9F51EB8ECD2C65C PUSH1 0xC0 SHL PUSH2 0x48A4 JUMP JUMPDEST PUSH2 0xBEA PUSH8 0x782FFDEDBD78C27B PUSH1 0xC0 SHL PUSH2 0x48A4 JUMP JUMPDEST PUSH1 0x2 DUP3 PUSH1 0x1 ADD PUSH1 0x0 PUSH2 0x100 EXP DUP2 SLOAD DUP2 PUSH1 0xFF MUL NOT AND SWAP1 DUP4 PUSH1 0x3 DUP2 GT ISZERO PUSH2 0xC12 JUMPI PUSH2 0xC11 PUSH2 0x5D4A JUMP JUMPDEST JUMPDEST MUL OR SWAP1 SSTORE POP PUSH2 0xC2B PUSH8 0x1B956D944C8E5560 PUSH1 0xC0 SHL PUSH2 0x48A4 JUMP JUMPDEST TIMESTAMP DUP3 PUSH1 0xA ADD DUP2 SWAP1 SSTORE POP PUSH2 0xC48 PUSH8 0xB220324B863638E6 PUSH1 0xC0 SHL PUSH2 0x48A4 JUMP JUMPDEST DUP3 DUP3 PUSH1 0x4 ADD PUSH1 0x0 PUSH2 0x100 EXP DUP2 SLOAD DUP2 PUSH20 0xFFFFFFFFFFFFFFFFFFFFFFFFFFFFFFFFFFFFFFFF MUL NOT AND SWAP1 DUP4 PUSH20 0xFFFFFFFFFFFFFFFFFFFFFFFFFFFFFFFFFFFFFFFF AND MUL OR SWAP1 SSTORE POP PUSH2 0xC9F PUSH8 0x658315A29EF85624 PUSH1 0xC0 SHL PUSH2 0x48A4 JUMP JUMPDEST PUSH1 0x1 DUP2 PUSH1 0x2 ADD PUSH1 0x0 PUSH2 0x100 EXP DUP2 SLOAD DUP2 PUSH1 0xFF MUL NOT AND SWAP1 DUP4 PUSH1 0x2 DUP2 GT ISZERO PUSH2 0xCC7 JUMPI PUSH2 0xCC6 PUSH2 0x5D4A JUMP JUMPDEST JUMPDEST MUL OR SWAP1 SSTORE POP PUSH2 0xCE0 PUSH8 0xEF6313686A5B5C5E PUSH1 0xC0 SHL PUSH2 0x48A4 JUMP JUMPDEST PUSH2 0xCF4 PUSH8 0x70F4DA16B05D67CE PUSH1 0xC0 SHL PUSH2 0x48A4 JUMP JUMPDEST PUSH2 0xD22 DUP3 DUP3 PUSH1 0x2 ADD PUSH1 0x1 SWAP1 SLOAD SWAP1 PUSH2 0x100 EXP SWAP1 DIV PUSH20 0xFFFFFFFFFFFFFFFFFFFFFFFFFFFFFFFFFFFFFFFF AND PUSH2 0x4901 JUMP JUMPDEST PUSH2 0xD36 PUSH8 0xC838B360CD1E7597 PUSH1 0xC0 SHL PUSH2 0x48A4 JUMP JUMPDEST PUSH2 0xD4A PUSH8 0xF14AF97C1CE2CFF9 PUSH1 0xC0 SHL PUSH2 0x48A4 JUMP JUMPDEST PUSH1 0x0 DUP3 PUSH1 0x5 ADD SWAP1 POP PUSH2 0xD66 PUSH8 0x3738B8A4BDE21F28 PUSH1 0xC0 SHL PUSH2 0x48A4 JUMP JUMPDEST PUSH2 0xD7A PUSH8 0x90298997A41A07C8 PUSH1 0xC0 SHL PUSH2 0x48A4 JUMP JUMPDEST DUP1 PUSH1 0x0 ADD PUSH1 0x0 SWAP1 SLOAD SWAP1 PUSH2 0x100 EXP SWAP1 DIV PUSH20 0xFFFFFFFFFFFFFFFFFFFFFFFFFFFFFFFFFFFFFFFF AND PUSH20 0xFFFFFFFFFFFFFFFFFFFFFFFFFFFFFFFFFFFFFFFF AND PUSH20 0x0 PUSH4 0x6CF2280 SWAP1 SWAP2 DUP6 PUSH1 0x1 ADD PUSH1 0x1 SWAP1 SLOAD SWAP1 PUSH2 0x100 EXP SWAP1 DIV PUSH20 0xFFFFFFFFFFFFFFFFFFFFFFFFFFFFFFFFFFFFFFFF AND DUP6 PUSH1 0x0 ADD SLOAD PUSH1 0x5 SLOAD PUSH2 0x2710 PUSH1 0x4 PUSH1 0x0 SWAP1 SLOAD SWAP1 PUSH2 0x100 EXP SWAP1 DIV PUSH20 0xFFFFFFFFFFFFFFFFFFFFFFFFFFFFFFFFFFFFFFFF AND PUSH1 0x40 MLOAD DUP8 PUSH4 0xFFFFFFFF AND PUSH1 0xE0 SHL DUP2 MSTORE PUSH1 0x4 ADD PUSH2 0xE45 SWAP7 SWAP6 SWAP5 SWAP4 SWAP3 SWAP2 SWAP1 PUSH2 0x61CD JUMP JUMPDEST PUSH1 0x0 PUSH1 0x40 MLOAD DUP1 DUP4 SUB DUP2 DUP7 DUP1 EXTCODESIZE ISZERO DUP1 ISZERO PUSH2 0xE5D JUMPI PUSH1 0x0 DUP1 REVERT JUMPDEST POP GAS DELEGATECALL ISZERO DUP1 ISZERO PUSH2 0xE71 JUMPI RETURNDATASIZE PUSH1 0x0 DUP1 RETURNDATACOPY RETURNDATASIZE PUSH1 0x0 REVERT JUMPDEST POP POP POP POP PUSH2 0xE89 PUSH8 0xDC0E94579A5D40D5 PUSH1 0xC0 SHL PUSH2 0x48A4 JUMP JUMPDEST PUSH2 0xE9D PUSH8 0x20A071292EFBCC4B PUSH1 0xC0 SHL PUSH2 0x48A4 JUMP JUMPDEST DUP2 PUSH1 0x0 ADD SLOAD DUP5 PUSH20 0xFFFFFFFFFFFFFFFFFFFFFFFFFFFFFFFFFFFFFFFF AND DUP7 PUSH32 0xADD1D5B6C827FEE45FA32E72964C9D43D2191C9B8B083889FB2E3F468C718568 PUSH1 0x40 MLOAD PUSH1 0x40 MLOAD DUP1 SWAP2 SUB SWAP1 LOG4 POP POP POP POP POP POP POP PUSH2 0xEF5 PUSH2 0x5149 JUMP JUMPDEST POP JUMP JUMPDEST PUSH2 0xF0C PUSH8 0x646A0A7EAC9AB012 PUSH1 0xC0 SHL PUSH2 0x48A4 JUMP JUMPDEST PUSH2 0xF14 PUSH2 0x48A7 JUMP JUMPDEST PUSH2 0xF28 PUSH8 0xB07866CE9FCDC8C4 PUSH1 0xC0 SHL PUSH2 0x48A4 JUMP JUMPDEST PUSH2 0xF3C PUSH8 0x8D2433A5A7AB9586 PUSH1 0xC0 SHL PUSH2 0x48A4 JUMP JUMPDEST DUP1 PUSH1 0x0 ADD CALLDATALOAD PUSH2 0xF55 PUSH8 0x18B2B56D066EFD04 PUSH1 0xC0 SHL PUSH2 0x48FE JUMP JUMPDEST PUSH2 0xF69 PUSH8 0x7B1B1FFA8FAD79B1 PUSH1 0xC0 SHL PUSH2 0x48FE JUMP JUMPDEST PUSH2 0xF7D PUSH8 0x3D390455BB908403 PUSH1 0xC0 SHL PUSH2 0x48FE JUMP JUMPDEST PUSH1 0x0 DUP1 SHL PUSH1 0x0 DUP1 DUP4 DUP2 MSTORE PUSH1 0x20 ADD SWAP1 DUP2 MSTORE PUSH1 0x20 ADD PUSH1 0x0 KECCAK256 PUSH1 0x0 ADD SLOAD SUB PUSH2 0xFF6 JUMPI PUSH2 0xFB0 PUSH8 0xCED22D93201B06D5 PUSH1 0xC0 SHL PUSH2 0x48FE JUMP JUMPDEST PUSH2 0xFC4 PUSH8 0xD22590866453AFF2 PUSH1 0xC0 SHL PUSH2 0x48FE JUMP JUMPDEST PUSH1 0x40 MLOAD PUSH32 0x5DCAF2D700000000000000000000000000000000000000000000000000000000 DUP2 MSTORE PUSH1 0x4 ADD PUSH1 0x40 MLOAD DUP1 SWAP2 SUB SWAP1 REVERT JUMPDEST PUSH2 0x100A PUSH8 0x393A760C1805114 PUSH1 0xC0 SHL PUSH2 0x48FE JUMP JUMPDEST PUSH2 0x101E PUSH8 0xF3C8792634AF1151 PUSH1 0xC0 SHL PUSH2 0x48FE JUMP JUMPDEST PUSH2 0x1032 PUSH8 0x94375FEA9D9797F4 PUSH1 0xC0 SHL PUSH2 0x48A4 JUMP JUMPDEST PUSH2 0x1046 PUSH8 0xA96C77943382D1E5 PUSH1 0xC0 SHL PUSH2 0x48A4 JUMP JUMPDEST DUP2 PUSH1 0x0 ADD CALLDATALOAD PUSH2 0x105F PUSH8 0xEDA633C5957D325 PUSH1 0xC0 SHL PUSH2 0x48FE JUMP JUMPDEST PUSH2 0x1072 PUSH7 0xB27EACC416F227 PUSH1 0xC0 SHL PUSH2 0x48FE JUMP JUMPDEST PUSH2 0x1086 PUSH8 0x8F4CFC2CF3BC0472 PUSH1 0xC0 SHL PUSH2 0x48FE JUMP JUMPDEST PUSH1 0x0 PUSH1 0x3 DUP2 GT ISZERO PUSH2 0x109A JUMPI PUSH2 0x1099 PUSH2 0x5D4A JUMP JUMPDEST JUMPDEST PUSH1 0x0 DUP1 DUP4 DUP2 MSTORE PUSH1 0x20 ADD SWAP1 DUP2 MSTORE PUSH1 0x20 ADD PUSH1 0x0 KECCAK256 PUSH1 0x1 ADD PUSH1 0x0 SWAP1 SLOAD SWAP1 PUSH2 0x100 EXP SWAP1 DIV PUSH1 0xFF AND PUSH1 0x3 DUP2 GT ISZERO PUSH2 0x10CF JUMPI PUSH2 0x10CE PUSH2 0x5D4A JUMP JUMPDEST JUMPDEST EQ PUSH2 0x112E JUMPI PUSH2 0x10E8 PUSH8 0x2751150A072430C3 PUSH1 0xC0 SHL PUSH2 0x48FE JUMP JUMPDEST PUSH2 0x10FC PUSH8 0xFF8A6CA70A795795 PUSH1 0xC0 SHL PUSH2 0x48FE JUMP JUMPDEST PUSH1 0x40 MLOAD PUSH32 0xD4DBB56500000000000000000000000000000000000000000000000000000000 DUP2 MSTORE PUSH1 0x4 ADD PUSH1 0x40 MLOAD DUP1 SWAP2 SUB SWAP1 REVERT JUMPDEST PUSH2 0x1142 PUSH8 0x7B692B2024257BF9 PUSH1 0xC0 SHL PUSH2 0x48FE JUMP JUMPDEST PUSH2 0x1156 PUSH8 0x9C2DB1F7FADBAA6B PUSH1 0xC0 SHL PUSH2 0x48FE JUMP JUMPDEST PUSH2 0x116A PUSH8 0xBF02043C13CECC73 PUSH1 0xC0 SHL PUSH2 0x48A4 JUMP JUMPDEST PUSH2 0x117E PUSH8 0x3FE33D544DEBADFB PUSH1 0xC0 SHL PUSH2 0x48A4 JUMP JUMPDEST PUSH2 0x1192 PUSH8 0x6A02EF725EA5E54B PUSH1 0xC0 SHL PUSH2 0x48A4 JUMP JUMPDEST PUSH2 0x11A6 PUSH8 0x374200F7DEC080DF PUSH1 0xC0 SHL PUSH2 0x48A4 JUMP JUMPDEST DUP3 DUP1 CALLDATASIZE SUB DUP2 ADD SWAP1 PUSH2 0x11B7 SWAP2 SWAP1 PUSH2 0x630F JUMP JUMPDEST PUSH20 0x0 PUSH4 0xC27EEAAC SWAP1 SWAP2 PUSH1 0x40 MLOAD DUP3 PUSH4 0xFFFFFFFF AND PUSH1 0xE0 SHL DUP2 MSTORE PUSH1 0x4 ADD PUSH2 0x11EF SWAP2 SWAP1 PUSH2 0x6389 JUMP JUMPDEST PUSH1 0x0 PUSH1 0x40 MLOAD DUP1 DUP4 SUB DUP2 DUP7 DUP1 EXTCODESIZE ISZERO DUP1 ISZERO PUSH2 0x1207 JUMPI PUSH1 0x0 DUP1 REVERT JUMPDEST POP GAS DELEGATECALL ISZERO DUP1 ISZERO PUSH2 0x121B JUMPI RETURNDATASIZE PUSH1 0x0 DUP1 RETURNDATACOPY RETURNDATASIZE PUSH1 0x0 REVERT JUMPDEST POP POP POP POP PUSH2 0x1233 PUSH8 0x5CF4216133821AF6 PUSH1 0xC0 SHL PUSH2 0x48A4 JUMP JUMPDEST PUSH2 0x1247 PUSH8 0xA06413B2AA0717DF PUSH1 0xC0 SHL PUSH2 0x48A4 JUMP JUMPDEST PUSH1 0x0 DUP1 PUSH1 0x0 DUP6 PUSH1 0x0 ADD CALLDATALOAD DUP2 MSTORE PUSH1 0x20 ADD SWAP1 DUP2 MSTORE PUSH1 0x20 ADD PUSH1 0x0 KECCAK256 SWAP1 POP PUSH2 0x1275 PUSH8 0x209190453734D84D PUSH1 0xC0 SHL PUSH2 0x48A4 JUMP JUMPDEST PUSH2 0x1289 PUSH8 0x71E9DE9809A980F3 PUSH1 0xC0 SHL PUSH2 0x48A4 JUMP JUMPDEST DUP1 PUSH20 0x0 PUSH4 0x7AA10B6A SWAP1 SWAP2 PUSH1 0x40 MLOAD DUP3 PUSH4 0xFFFFFFFF AND PUSH1 0xE0 SHL DUP2 MSTORE PUSH1 0x4 ADD PUSH2 0x12C2 SWAP2 SWAP1 PUSH2 0x63AB JUMP JUMPDEST PUSH1 0x0 PUSH1 0x40 MLOAD DUP1 DUP4 SUB DUP2 DUP7 DUP1 EXTCODESIZE ISZERO DUP1 ISZERO PUSH2 0x12DA JUMPI PUSH1 0x0 DUP1 REVERT JUMPDEST POP GAS DELEGATECALL ISZERO DUP1 ISZERO PUSH2 0x12EE JUMPI RETURNDATASIZE PUSH1 0x0 DUP1 RETURNDATACOPY RETURNDATASIZE PUSH1 0x0 REVERT JUMPDEST POP POP POP POP PUSH2 0x1306 PUSH8 0x7E122F013AE9E54 PUSH1 0xC0 SHL PUSH2 0x48A4 JUMP JUMPDEST PUSH1 0x2 DUP2 PUSH1 0x1 ADD PUSH1 0x0 PUSH2 0x100 EXP DUP2 SLOAD DUP2 PUSH1 0xFF MUL NOT AND SWAP1 DUP4 PUSH1 0x3 DUP2 GT ISZERO PUSH2 0x132E JUMPI PUSH2 0x132D PUSH2 0x5D4A JUMP JUMPDEST JUMPDEST MUL OR SWAP1 SSTORE POP PUSH2 0x1347 PUSH8 0xC3E64C00449E7629 PUSH1 0xC0 SHL PUSH2 0x48A4 JUMP JUMPDEST TIMESTAMP DUP2 PUSH1 0xA ADD DUP2 SWAP1 SSTORE POP PUSH2 0x1364 PUSH8 0x62C856A1794C188 PUSH1 0xC0 SHL PUSH2 0x48A4 JUMP JUMPDEST CALLER DUP2 PUSH1 0x4 ADD PUSH1 0x0 PUSH2 0x100 EXP DUP2 SLOAD DUP2 PUSH20 0xFFFFFFFFFFFFFFFFFFFFFFFFFFFFFFFFFFFFFFFF MUL NOT AND SWAP1 DUP4 PUSH20 0xFFFFFFFFFFFFFFFFFFFFFFFFFFFFFFFFFFFFFFFF AND MUL OR SWAP1 SSTORE POP PUSH2 0x13BB PUSH8 0x75F23668DF493233 PUSH1 0xC0 SHL PUSH2 0x48A4 JUMP JUMPDEST PUSH2 0x13CF PUSH8 0x7137C4EBA8C93FC8 PUSH1 0xC0 SHL PUSH2 0x48A4 JUMP JUMPDEST PUSH2 0x13EB DUP2 DUP6 PUSH1 0x20 ADD PUSH1 0x20 DUP2 ADD SWAP1 PUSH2 0x13E6 SWAP2 SWAP1 PUSH2 0x5FD2 JUMP JUMPDEST PUSH2 0x4901 JUMP JUMPDEST PUSH2 0x13FF PUSH8 0x59D71B965760E104 PUSH1 0xC0 SHL PUSH2 0x48A4 JUMP JUMPDEST PUSH2 0x1413 PUSH8 0xE9E8483D238E7EAD PUSH1 0xC0 SHL PUSH2 0x48A4 JUMP JUMPDEST DUP1 PUSH1 0x5 ADD PUSH1 0x0 ADD PUSH1 0x0 SWAP1 SLOAD SWAP1 PUSH2 0x100 EXP SWAP1 DIV PUSH20 0xFFFFFFFFFFFFFFFFFFFFFFFFFFFFFFFFFFFFFFFF AND PUSH20 0xFFFFFFFFFFFFFFFFFFFFFFFFFFFFFFFFFFFFFFFF AND PUSH20 0x0 PUSH4 0x8DBB76C7 SWAP1 SWAP2 CALLER DUP5 PUSH1 0x1 ADD PUSH1 0x1 SWAP1 SLOAD SWAP1 PUSH2 0x100 EXP SWAP1 DIV PUSH20 0xFFFFFFFFFFFFFFFFFFFFFFFFFFFFFFFFFFFFFFFF AND DUP6 PUSH1 0x5 ADD PUSH1 0x1 ADD SLOAD PUSH1 0x5 SLOAD PUSH2 0x2710 PUSH1 0x4 PUSH1 0x0 SWAP1 SLOAD SWAP1 PUSH2 0x100 EXP SWAP1 DIV PUSH20 0xFFFFFFFFFFFFFFFFFFFFFFFFFFFFFFFFFFFFFFFF AND PUSH1 0x40 MLOAD DUP9 PUSH4 0xFFFFFFFF AND PUSH1 0xE0 SHL DUP2 MSTORE PUSH1 0x4 ADD PUSH2 0x14E6 SWAP8 SWAP7 SWAP6 SWAP5 SWAP4 SWAP3 SWAP2 SWAP1 PUSH2 0x63C6 JUMP JUMPDEST PUSH1 0x0 PUSH1 0x40 MLOAD DUP1 DUP4 SUB DUP2 DUP7 DUP1 EXTCODESIZE ISZERO DUP1 ISZERO PUSH2 0x14FE JUMPI PUSH1 0x0 DUP1 REVERT JUMPDEST POP GAS DELEGATECALL ISZERO DUP1 ISZERO PUSH2 0x1512 JUMPI RETURNDATASIZE PUSH1 0x0 DUP1 RETURNDATACOPY RETURNDATASIZE PUSH1 0x0 REVERT JUMPDEST POP POP POP POP PUSH2 0x152A PUSH8 0xDD436BAD902D9CB0 PUSH1 0xC0 SHL PUSH2 0x48A4 JUMP JUMPDEST PUSH2 0x153E PUSH8 0x6CCF221387CEEEDE PUSH1 0xC0 SHL PUSH2 0x48A4 JUMP JUMPDEST DUP4 PUSH1 0x0 ADD CALLDATALOAD DUP2 PUSH1 0x4 ADD PUSH1 0x0 SWAP1 SLOAD SWAP1 PUSH2 0x100 EXP SWAP1 DIV PUSH20 0xFFFFFFFFFFFFFFFFFFFFFFFFFFFFFFFFFFFFFFFF AND PUSH20 0xFFFFFFFFFFFFFFFFFFFFFFFFFFFFFFFFFFFFFFFF AND DUP3 PUSH1 0x1 ADD PUSH1 0x1 SWAP1 SLOAD SWAP1 PUSH2 0x100 EXP SWAP1 DIV PUSH20 0xFFFFFFFFFFFFFFFFFFFFFFFFFFFFFFFFFFFFFFFF AND PUSH20 0xFFFFFFFFFFFFFFFFFFFFFFFFFFFFFFFFFFFFFFFF AND PUSH32 0x6BF7309F141D1B44E414F1FC04D98491CD0ACF98F0F1E5AD885D0A7CE164E6FA PUSH1 0x40 MLOAD PUSH1 0x40 MLOAD DUP1 SWAP2 SUB SWAP1 LOG4 POP POP POP PUSH2 0x15F0 PUSH2 0x5149 JUMP JUMPDEST POP JUMP JUMPDEST PUSH2 0x1607 PUSH8 0x2DD0808E6E0C6DA4 PUSH1 0xC0 SHL PUSH2 0x48A4 JUMP JUMPDEST PUSH2 0x160F PUSH2 0x48A7 JUMP JUMPDEST PUSH2 0x1623 PUSH8 0x455B629632DE90E7 PUSH1 0xC0 SHL PUSH2 0x48A4 JUMP JUMPDEST PUSH2 0x1637 PUSH8 0xAC888138488B25D2 PUSH1 0xC0 SHL PUSH2 0x48A4 JUMP JUMPDEST DUP1 PUSH1 0x40 ADD CALLDATALOAD PUSH2 0x1650 PUSH8 0x18B2B56D066EFD04 PUSH1 0xC0 SHL PUSH2 0x48FE JUMP JUMPDEST PUSH2 0x1664 PUSH8 0x7B1B1FFA8FAD79B1 PUSH1 0xC0 SHL PUSH2 0x48FE JUMP JUMPDEST PUSH2 0x1678 PUSH8 0x3D390455BB908403 PUSH1 0xC0 SHL PUSH2 0x48FE JUMP JUMPDEST PUSH1 0x0 DUP1 SHL PUSH1 0x0 DUP1 DUP4 DUP2 MSTORE PUSH1 0x20 ADD SWAP1 DUP2 MSTORE PUSH1 0x20 ADD PUSH1 0x0 KECCAK256 PUSH1 0x0 ADD SLOAD SUB PUSH2 0x16F1 JUMPI PUSH2 0x16AB PUSH8 0xCED22D93201B06D5 PUSH1 0xC0 SHL PUSH2 0x48FE JUMP JUMPDEST PUSH2 0x16BF PUSH8 0xD22590866453AFF2 PUSH1 0xC0 SHL PUSH2 0x48FE JUMP JUMPDEST PUSH1 0x40 MLOAD PUSH32 0x5DCAF2D700000000000000000000000000000000000000000000000000000000 DUP2 MSTORE PUSH1 0x4 ADD PUSH1 0x40 MLOAD DUP1 SWAP2 SUB SWAP1 REVERT JUMPDEST PUSH2 0x1705 PUSH8 0x393A760C1805114 PUSH1 0xC0 SHL PUSH2 0x48FE JUMP JUMPDEST PUSH2 0x1719 PUSH8 0xF3C8792634AF1151 PUSH1 0xC0 SHL PUSH2 0x48FE JUMP JUMPDEST PUSH2 0x172D PUSH8 0x7C79F9E855338154 PUSH1 0xC0 SHL PUSH2 0x48A4 JUMP JUMPDEST PUSH2 0x1741 PUSH8 0x56D468B1B6F7909C PUSH1 0xC0 SHL PUSH2 0x48A4 JUMP JUMPDEST DUP2 PUSH1 0x40 ADD CALLDATALOAD PUSH2 0x175A PUSH8 0xEDA633C5957D325 PUSH1 0xC0 SHL PUSH2 0x48FE JUMP JUMPDEST PUSH2 0x176D PUSH7 0xB27EACC416F227 PUSH1 0xC0 SHL PUSH2 0x48FE JUMP JUMPDEST PUSH2 0x1781 PUSH8 0x8F4CFC2CF3BC0472 PUSH1 0xC0 SHL PUSH2 0x48FE JUMP JUMPDEST PUSH1 0x0 PUSH1 0x3 DUP2 GT ISZERO PUSH2 0x1795 JUMPI PUSH2 0x1794 PUSH2 0x5D4A JUMP JUMPDEST JUMPDEST PUSH1 0x0 DUP1 DUP4 DUP2 MSTORE PUSH1 0x20 ADD SWAP1 DUP2 MSTORE PUSH1 0x20 ADD PUSH1 0x0 KECCAK256 PUSH1 0x1 ADD PUSH1 0x0 SWAP1 SLOAD SWAP1 PUSH2 0x100 EXP SWAP1 DIV PUSH1 0xFF AND PUSH1 0x3 DUP2 GT ISZERO PUSH2 0x17CA JUMPI PUSH2 0x17C9 PUSH2 0x5D4A JUMP JUMPDEST JUMPDEST EQ PUSH2 0x1829 JUMPI PUSH2 0x17E3 PUSH8 0x2751150A072430C3 PUSH1 0xC0 SHL PUSH2 0x48FE JUMP JUMPDEST PUSH2 0x17F7 PUSH8 0xFF8A6CA70A795795 PUSH1 0xC0 SHL PUSH2 0x48FE JUMP JUMPDEST PUSH1 0x40 MLOAD PUSH32 0xD4DBB56500000000000000000000000000000000000000000000000000000000 DUP2 MSTORE PUSH1 0x4 ADD PUSH1 0x40 MLOAD DUP1 SWAP2 SUB SWAP1 REVERT JUMPDEST PUSH2 0x183D PUSH8 0x7B692B2024257BF9 PUSH1 0xC0 SHL PUSH2 0x48FE JUMP JUMPDEST PUSH2 0x1851 PUSH8 0x9C2DB1F7FADBAA6B PUSH1 0xC0 SHL PUSH2 0x48FE JUMP JUMPDEST PUSH2 0x1865 PUSH8 0xA2C9B54293D94104 PUSH1 0xC0 SHL PUSH2 0x48A4 JUMP JUMPDEST PUSH2 0x1879 PUSH8 0x4EDDCF2B066D2C9C PUSH1 0xC0 SHL PUSH2 0x48A4 JUMP JUMPDEST PUSH2 0x188D PUSH8 0xEA861F008D85870D PUSH1 0xC0 SHL PUSH2 0x48A4 JUMP JUMPDEST PUSH2 0x18A1 PUSH8 0xC8E19FDCF10A1DEB PUSH1 0xC0 SHL PUSH2 0x48A4 JUMP JUMPDEST PUSH1 0x0 DUP4 PUSH1 0x40 ADD CALLDATALOAD SWAP1 POP PUSH2 0x18BE PUSH8 0x410DFEB9CF7DF6F0 PUSH1 0xC0 SHL PUSH2 0x48A4 JUMP JUMPDEST PUSH2 0x18D2 PUSH8 0xA8ABC1650D336342 PUSH1 0xC0 SHL PUSH2 0x48A4 JUMP JUMPDEST PUSH1 0x0 DUP5 PUSH1 0x0 ADD CALLDATALOAD SWAP1 POP PUSH2 0x18EF PUSH8 0x8AB20D83C39BF368 PUSH1 0xC0 SHL PUSH2 0x48A4 JUMP JUMPDEST PUSH2 0x1903 PUSH8 0x365528B7F62AA72A PUSH1 0xC0 SHL PUSH2 0x48A4 JUMP JUMPDEST CALLER PUSH20 0xFFFFFFFFFFFFFFFFFFFFFFFFFFFFFFFFFFFFFFFF AND DUP6 PUSH1 0x20 ADD PUSH1 0x20 DUP2 ADD SWAP1 PUSH2 0x192D SWAP2 SWAP1 PUSH2 0x5FD2 JUMP JUMPDEST PUSH20 0xFFFFFFFFFFFFFFFFFFFFFFFFFFFFFFFFFFFFFFFF AND EQ PUSH2 0x19A2 JUMPI PUSH2 0x195C PUSH8 0x9DA819E717997656 PUSH1 0xC0 SHL PUSH2 0x48A4 JUMP JUMPDEST PUSH2 0x1970 PUSH8 0xCE040BBD6D42A028 PUSH1 0xC0 SHL PUSH2 0x48A4 JUMP JUMPDEST PUSH1 0x40 MLOAD PUSH32 0x8294AC0200000000000000000000000000000000000000000000000000000000 DUP2 MSTORE PUSH1 0x4 ADD PUSH1 0x40 MLOAD DUP1 SWAP2 SUB SWAP1 REVERT JUMPDEST PUSH2 0x19B6 PUSH8 0xC3E2FA4AC33FC549 PUSH1 0xC0 SHL PUSH2 0x48A4 JUMP JUMPDEST PUSH2 0x19CA PUSH8 0x8D5208FB0D883B32 PUSH1 0xC0 SHL PUSH2 0x48A4 JUMP JUMPDEST PUSH2 0x19DE PUSH8 0x70E8282A3CADB949 PUSH1 0xC0 SHL PUSH2 0x48A4 JUMP JUMPDEST PUSH1 0x0 PUSH1 0x2 PUSH1 0x0 DUP5 DUP2 MSTORE PUSH1 0x20 ADD SWAP1 DUP2 MSTORE PUSH1 0x20 ADD PUSH1 0x0 KECCAK256 PUSH1 0x0 CALLER PUSH20 0xFFFFFFFFFFFFFFFFFFFFFFFFFFFFFFFFFFFFFFFF AND PUSH20 0xFFFFFFFFFFFFFFFFFFFFFFFFFFFFFFFFFFFFFFFF AND DUP2 MSTORE PUSH1 0x20 ADD SWAP1 DUP2 MSTORE PUSH1 0x20 ADD PUSH1 0x0 KECCAK256 SWAP1 POP PUSH2 0x1A46 PUSH8 0x8A9D19C71594A71B PUSH1 0xC0 SHL PUSH2 0x48A4 JUMP JUMPDEST PUSH2 0x1A5A PUSH8 0xD9F87FDDB10E8926 PUSH1 0xC0 SHL PUSH2 0x48A4 JUMP JUMPDEST PUSH1 0x0 PUSH20 0xFFFFFFFFFFFFFFFFFFFFFFFFFFFFFFFFFFFFFFFF AND DUP2 PUSH1 0x2 ADD PUSH1 0x1 SWAP1 SLOAD SWAP1 PUSH2 0x100 EXP SWAP1 DIV PUSH20 0xFFFFFFFFFFFFFFFFFFFFFFFFFFFFFFFFFFFFFFFF AND PUSH20 0xFFFFFFFFFFFFFFFFFFFFFFFFFFFFFFFFFFFFFFFF AND EQ PUSH2 0x1B0C JUMPI PUSH2 0x1AC6 PUSH8 0x76856CCDDB475A09 PUSH1 0xC0 SHL PUSH2 0x48A4 JUMP JUMPDEST PUSH2 0x1ADA PUSH8 0xC713AEB8C3AF4A1 PUSH1 0xC0 SHL PUSH2 0x48A4 JUMP JUMPDEST PUSH1 0x40 MLOAD PUSH32 0xB8CEE9F000000000000000000000000000000000000000000000000000000000 DUP2 MSTORE PUSH1 0x4 ADD PUSH1 0x40 MLOAD DUP1 SWAP2 SUB SWAP1 REVERT JUMPDEST PUSH2 0x1B20 PUSH8 0xAFEB9DB8AF7C398A PUSH1 0xC0 SHL PUSH2 0x48A4 JUMP JUMPDEST PUSH2 0x1B34 PUSH8 0x535173E8B8B7E553 PUSH1 0xC0 SHL PUSH2 0x48A4 JUMP JUMPDEST PUSH2 0x1B48 PUSH8 0xEA88106DCE1CDE7F PUSH1 0xC0 SHL PUSH2 0x48A4 JUMP JUMPDEST PUSH1 0x0 DUP1 PUSH1 0x0 DUP9 PUSH1 0x40 ADD CALLDATALOAD DUP2 MSTORE PUSH1 0x20 ADD SWAP1 DUP2 MSTORE PUSH1 0x20 ADD PUSH1 0x0 KECCAK256 SWAP1 POP PUSH2 0x1B76 PUSH8 0xB2C03F0AB6A14684 PUSH1 0xC0 SHL PUSH2 0x48A4 JUMP JUMPDEST PUSH2 0x1B8A PUSH8 0xA803F369164AA0F0 PUSH1 0xC0 SHL PUSH2 0x48A4 JUMP JUMPDEST DUP1 PUSH1 0x7 ADD SLOAD DUP4 LT DUP1 ISZERO PUSH2 0x1BAD JUMPI POP PUSH2 0x1BAC PUSH8 0xBFA3A31130718E2F PUSH1 0xC0 SHL PUSH2 0x5162 JUMP JUMPDEST JUMPDEST DUP1 PUSH2 0x1BDA JUMPI POP DUP1 PUSH1 0x5 ADD PUSH1 0x1 ADD SLOAD DUP4 GT DUP1 ISZERO PUSH2 0x1BD9 JUMPI POP PUSH2 0x1BD8 PUSH8 0xA253B2F1AACE4069 PUSH1 0xC0 SHL PUSH2 0x5162 JUMP JUMPDEST JUMPDEST JUMPDEST ISZERO PUSH2 0x1C44 JUMPI PUSH2 0x1BF3 PUSH8 0x4CBBEADAF7271E06 PUSH1 0xC0 SHL PUSH2 0x48A4 JUMP JUMPDEST PUSH2 0x1C07 PUSH8 0xD413534D79B931A8 PUSH1 0xC0 SHL PUSH2 0x48A4 JUMP JUMPDEST DUP3 PUSH1 0x40 MLOAD PUSH32 0xD9CF167E00000000000000000000000000000000000000000000000000000000 DUP2 MSTORE PUSH1 0x4 ADD PUSH2 0x1C3B SWAP2 SWAP1 PUSH2 0x5C4C JUMP JUMPDEST PUSH1 0x40 MLOAD DUP1 SWAP2 SUB SWAP1 REVERT JUMPDEST PUSH2 0x1C58 PUSH8 0x678F81D9CC7CC944 PUSH1 0xC0 SHL PUSH2 0x48A4 JUMP JUMPDEST PUSH2 0x1C6C PUSH8 0xA930989659668DE2 PUSH1 0xC0 SHL PUSH2 0x48A4 JUMP JUMPDEST PUSH2 0x1C80 PUSH8 0x22D82C801C122860 PUSH1 0xC0 SHL PUSH2 0x48A4 JUMP JUMPDEST PUSH1 0x0 DUP1 PUSH1 0x0 DUP7 DUP2 MSTORE PUSH1 0x20 ADD SWAP1 DUP2 MSTORE PUSH1 0x20 ADD PUSH1 0x0 KECCAK256 PUSH1 0x5 ADD SWAP1 POP PUSH2 0x1CAD PUSH8 0x2FD906FB9242DB3B PUSH1 0xC0 SHL PUSH2 0x48A4 JUMP JUMPDEST PUSH2 0x1CC1 PUSH8 0xB314C0875A53C41B PUSH1 0xC0 SHL PUSH2 0x48A4 JUMP JUMPDEST PUSH1 0x0 PUSH20 0xFFFFFFFFFFFFFFFFFFFFFFFFFFFFFFFFFFFFFFFF AND DUP2 PUSH1 0x0 ADD PUSH1 0x0 SWAP1 SLOAD SWAP1 PUSH2 0x100 EXP SWAP1 DIV PUSH20 0xFFFFFFFFFFFFFFFFFFFFFFFFFFFFFFFFFFFFFFFF AND PUSH20 0xFFFFFFFFFFFFFFFFFFFFFFFFFFFFFFFFFFFFFFFF AND EQ PUSH2 0x1DAB JUMPI PUSH2 0x1D2D PUSH8 0xB650437C76B059C1 PUSH1 0xC0 SHL PUSH2 0x48A4 JUMP JUMPDEST PUSH2 0x1D41 PUSH8 0xDF1EE6378CD0A6A PUSH1 0xC0 SHL PUSH2 0x48A4 JUMP JUMPDEST PUSH2 0x1D55 PUSH8 0x99FDD7C3B212BC7 PUSH1 0xC0 SHL PUSH2 0x48A4 JUMP JUMPDEST PUSH2 0x1DA6 CALLER ADDRESS DUP7 DUP5 PUSH1 0x0 ADD PUSH1 0x0 SWAP1 SLOAD SWAP1 PUSH2 0x100 EXP SWAP1 DIV PUSH20 0xFFFFFFFFFFFFFFFFFFFFFFFFFFFFFFFFFFFFFFFF AND PUSH20 0xFFFFFFFFFFFFFFFFFFFFFFFFFFFFFFFFFFFFFFFF AND PUSH2 0x516D SWAP1 SWAP4 SWAP3 SWAP2 SWAP1 PUSH4 0xFFFFFFFF AND JUMP JUMPDEST PUSH2 0x1E68 JUMP JUMPDEST PUSH2 0x1DBF PUSH8 0xF3414A9338FAEE9B PUSH1 0xC0 SHL PUSH2 0x48A4 JUMP JUMPDEST PUSH2 0x1DD3 PUSH8 0x1F27555DE3B89BCB PUSH1 0xC0 SHL PUSH2 0x48A4 JUMP JUMPDEST PUSH2 0x1DE7 PUSH8 0xAAAA8BB2AC211580 PUSH1 0xC0 SHL PUSH2 0x48A4 JUMP JUMPDEST DUP4 CALLVALUE EQ PUSH2 0x1E53 JUMPI PUSH2 0x1E02 PUSH8 0x5A42329805CEC5F3 PUSH1 0xC0 SHL PUSH2 0x48A4 JUMP JUMPDEST PUSH2 0x1E16 PUSH8 0x4F6A0C5F6B8265EC PUSH1 0xC0 SHL PUSH2 0x48A4 JUMP JUMPDEST CALLVALUE PUSH1 0x40 MLOAD PUSH32 0xD9CF167E00000000000000000000000000000000000000000000000000000000 DUP2 MSTORE PUSH1 0x4 ADD PUSH2 0x1E4A SWAP2 SWAP1 PUSH2 0x5C4C JUMP JUMPDEST PUSH1 0x40 MLOAD DUP1 SWAP2 SUB SWAP1 REVERT JUMPDEST PUSH2 0x1E67 PUSH8 0x6255EFE214D8C0A4 PUSH1 0xC0 SHL PUSH2 0x48A4 JUMP JUMPDEST JUMPDEST PUSH2 0x1E7C PUSH8 0xC27F2C2E685EC099 PUSH1 0xC0 SHL PUSH2 0x48A4 JUMP JUMPDEST PUSH2 0x1E90 PUSH8 0x1EABD5F91BF9C662 PUSH1 0xC0 SHL PUSH2 0x48A4 JUMP JUMPDEST PUSH1 0x2 PUSH20 0x0 PUSH4 0xCC76F931 SWAP1 SWAP2 DUP11 PUSH1 0x40 MLOAD DUP4 PUSH4 0xFFFFFFFF AND PUSH1 0xE0 SHL DUP2 MSTORE PUSH1 0x4 ADD PUSH2 0x1ECC SWAP3 SWAP2 SWAP1 PUSH2 0x6505 JUMP JUMPDEST PUSH1 0x0 PUSH1 0x40 MLOAD DUP1 DUP4 SUB DUP2 DUP7 DUP1 EXTCODESIZE ISZERO DUP1 ISZERO PUSH2 0x1EE4 JUMPI PUSH1 0x0 DUP1 REVERT JUMPDEST POP GAS DELEGATECALL ISZERO DUP1 ISZERO PUSH2 0x1EF8 JUMPI RETURNDATASIZE PUSH1 0x0 DUP1 RETURNDATACOPY RETURNDATASIZE PUSH1 0x0 REVERT JUMPDEST POP POP POP POP PUSH2 0x1F10 PUSH8 0x6528F0AB53A538B4 PUSH1 0xC0 SHL PUSH2 0x48A4 JUMP JUMPDEST PUSH2 0x1F24 PUSH8 0xD2101210BF2AE5BD PUSH1 0xC0 SHL PUSH2 0x48A4 JUMP JUMPDEST DUP4 CALLER PUSH20 0xFFFFFFFFFFFFFFFFFFFFFFFFFFFFFFFFFFFFFFFF AND DUP7 PUSH32 0x1126836D9A6F07E69D20F7AC2DB448D68D9BB24718D7E8E0E85B8CFD96BB04C1 PUSH1 0x40 MLOAD PUSH1 0x40 MLOAD DUP1 SWAP2 SUB SWAP1 LOG4 POP POP POP POP POP POP POP PUSH2 0x1F78 PUSH2 0x5149 JUMP JUMPDEST POP JUMP JUMPDEST PUSH2 0x1F8F PUSH8 0xCE9087907282A684 PUSH1 0xC0 SHL PUSH2 0x48A4 JUMP JUMPDEST PUSH2 0x1FA3 PUSH8 0x8D954271E70DADAE PUSH1 0xC0 SHL PUSH2 0x48A4 JUMP JUMPDEST PUSH2 0x1FB7 PUSH8 0x22A9D3D96AB55BF8 PUSH1 0xC0 SHL PUSH2 0x48A4 JUMP JUMPDEST DUP2 DUP2 DUP1 DUP1 PUSH1 0x20 MUL PUSH1 0x20 ADD PUSH1 0x40 MLOAD SWAP1 DUP2 ADD PUSH1 0x40 MSTORE DUP1 SWAP4 SWAP3 SWAP2 SWAP1 DUP2 DUP2 MSTORE PUSH1 0x20 ADD PUSH1 0x0 SWAP1 JUMPDEST DUP3 DUP3 LT ISZERO PUSH2 0x2009 JUMPI DUP5 DUP5 DUP4 SWAP1 POP PUSH1 0x40 MUL ADD DUP1 CALLDATASIZE SUB DUP2 ADD SWAP1 PUSH2 0x1FFA SWAP2 SWAP1 PUSH2 0x657E JUMP JUMPDEST DUP2 MSTORE PUSH1 0x20 ADD SWAP1 PUSH1 0x1 ADD SWAP1 PUSH2 0x1FD9 JUMP JUMPDEST POP POP POP POP POP PUSH20 0x0 PUSH4 0x33B988F5 SWAP1 SWAP2 PUSH1 0x40 MLOAD DUP3 PUSH4 0xFFFFFFFF AND PUSH1 0xE0 SHL DUP2 MSTORE PUSH1 0x4 ADD PUSH2 0x2046 SWAP2 SWAP1 PUSH2 0x6689 JUMP JUMPDEST PUSH1 0x0 PUSH1 0x40 MLOAD DUP1 DUP4 SUB DUP2 DUP7 DUP1 EXTCODESIZE ISZERO DUP1 ISZERO PUSH2 0x205E JUMPI PUSH1 0x0 DUP1 REVERT JUMPDEST POP GAS DELEGATECALL ISZERO DUP1 ISZERO PUSH2 0x2072 JUMPI RETURNDATASIZE PUSH1 0x0 DUP1 RETURNDATACOPY RETURNDATASIZE PUSH1 0x0 REVERT JUMPDEST POP POP POP POP PUSH2 0x208A PUSH8 0x48227621688037C7 PUSH1 0xC0 SHL PUSH2 0x48A4 JUMP JUMPDEST PUSH2 0x209E PUSH8 0x7DF8E58611ADF56A PUSH1 0xC0 SHL PUSH2 0x48A4 JUMP JUMPDEST PUSH1 0x0 PUSH2 0x20A9 DUP5 PUSH2 0x39C9 JUMP JUMPDEST SWAP1 POP PUSH2 0x20BF PUSH8 0xF00A9C605F3EF2C3 PUSH1 0xC0 SHL PUSH2 0x48A4 JUMP JUMPDEST PUSH2 0x20D3 PUSH8 0xA73669620288B8F2 PUSH1 0xC0 SHL PUSH2 0x48A4 JUMP JUMPDEST PUSH1 0x0 JUMPDEST DUP4 DUP4 SWAP1 POP DUP2 LT ISZERO PUSH2 0x217F JUMPI PUSH2 0x20F5 PUSH8 0x6329BF9640F8F08A PUSH1 0xC0 SHL PUSH2 0x48A4 JUMP JUMPDEST PUSH2 0x2109 PUSH8 0x1E15A4D732537F1A PUSH1 0xC0 SHL PUSH2 0x48A4 JUMP JUMPDEST PUSH1 0x1 PUSH1 0x0 DUP4 DUP2 MSTORE PUSH1 0x20 ADD SWAP1 DUP2 MSTORE PUSH1 0x20 ADD PUSH1 0x0 KECCAK256 DUP5 DUP5 DUP4 DUP2 DUP2 LT PUSH2 0x212F JUMPI PUSH2 0x212E PUSH2 0x66AB JUMP JUMPDEST JUMPDEST SWAP1 POP PUSH1 0x40 MUL ADD SWAP1 DUP1 PUSH1 0x1 DUP2 SLOAD ADD DUP1 DUP3 SSTORE DUP1 SWAP2 POP POP PUSH1 0x1 SWAP1 SUB SWAP1 PUSH1 0x0 MSTORE PUSH1 0x20 PUSH1 0x0 KECCAK256 SWAP1 PUSH1 0x2 MUL ADD PUSH1 0x0 SWAP1 SWAP2 SWAP1 SWAP2 SWAP1 SWAP2 POP DUP2 DUP2 PUSH2 0x216A SWAP2 SWAP1 PUSH2 0x67DE JUMP JUMPDEST POP POP DUP1 DUP1 PUSH2 0x2177 SWAP1 PUSH2 0x681B JUMP JUMPDEST SWAP2 POP POP PUSH2 0x20D6 JUMP JUMPDEST POP POP POP POP POP JUMP JUMPDEST PUSH2 0x219A PUSH8 0x3ED96C3A68265BA PUSH1 0xC0 SHL PUSH2 0x48A4 JUMP JUMPDEST PUSH2 0x21A2 PUSH2 0x48A7 JUMP JUMPDEST PUSH2 0x21B6 PUSH8 0xD313B35957BEE3AD PUSH1 0xC0 SHL PUSH2 0x48A4 JUMP JUMPDEST PUSH2 0x21CA PUSH8 0x82FCF0E8C22B7B50 PUSH1 0xC0 SHL PUSH2 0x48A4 JUMP JUMPDEST DUP1 PUSH1 0x0 ADD CALLDATALOAD PUSH2 0x21E3 PUSH8 0x18B2B56D066EFD04 PUSH1 0xC0 SHL PUSH2 0x48FE JUMP JUMPDEST PUSH2 0x21F7 PUSH8 0x7B1B1FFA8FAD79B1 PUSH1 0xC0 SHL PUSH2 0x48FE JUMP JUMPDEST PUSH2 0x220B PUSH8 0x3D390455BB908403 PUSH1 0xC0 SHL PUSH2 0x48FE JUMP JUMPDEST PUSH1 0x0 DUP1 SHL PUSH1 0x0 DUP1 DUP4 DUP2 MSTORE PUSH1 0x20 ADD SWAP1 DUP2 MSTORE PUSH1 0x20 ADD PUSH1 0x0 KECCAK256 PUSH1 0x0 ADD SLOAD SUB PUSH2 0x2284 JUMPI PUSH2 0x223E PUSH8 0xCED22D93201B06D5 PUSH1 0xC0 SHL PUSH2 0x48FE JUMP JUMPDEST PUSH2 0x2252 PUSH8 0xD22590866453AFF2 PUSH1 0xC0 SHL PUSH2 0x48FE JUMP JUMPDEST PUSH1 0x40 MLOAD PUSH32 0x5DCAF2D700000000000000000000000000000000000000000000000000000000 DUP2 MSTORE PUSH1 0x4 ADD PUSH1 0x40 MLOAD DUP1 SWAP2 SUB SWAP1 REVERT JUMPDEST PUSH2 0x2298 PUSH8 0x393A760C1805114 PUSH1 0xC0 SHL PUSH2 0x48FE JUMP JUMPDEST PUSH2 0x22AC PUSH8 0xF3C8792634AF1151 PUSH1 0xC0 SHL PUSH2 0x48FE JUMP JUMPDEST PUSH2 0x22C0 PUSH8 0x385E47DF83F1D27B PUSH1 0xC0 SHL PUSH2 0x48A4 JUMP JUMPDEST PUSH2 0x22D4 PUSH8 0x843952E25A7DAB96 PUSH1 0xC0 SHL PUSH2 0x48A4 JUMP JUMPDEST DUP2 PUSH1 0x0 ADD CALLDATALOAD PUSH2 0x22ED PUSH8 0xEDA633C5957D325 PUSH1 0xC0 SHL PUSH2 0x48FE JUMP JUMPDEST PUSH2 0x2300 PUSH7 0xB27EACC416F227 PUSH1 0xC0 SHL PUSH2 0x48FE JUMP JUMPDEST PUSH2 0x2314 PUSH8 0x8F4CFC2CF3BC0472 PUSH1 0xC0 SHL PUSH2 0x48FE JUMP JUMPDEST PUSH1 0x0 PUSH1 0x3 DUP2 GT ISZERO PUSH2 0x2328 JUMPI PUSH2 0x2327 PUSH2 0x5D4A JUMP JUMPDEST JUMPDEST PUSH1 0x0 DUP1 DUP4 DUP2 MSTORE PUSH1 0x20 ADD SWAP1 DUP2 MSTORE PUSH1 0x20 ADD PUSH1 0x0 KECCAK256 PUSH1 0x1 ADD PUSH1 0x0 SWAP1 SLOAD SWAP1 PUSH2 0x100 EXP SWAP1 DIV PUSH1 0xFF AND PUSH1 0x3 DUP2 GT ISZERO PUSH2 0x235D JUMPI PUSH2 0x235C PUSH2 0x5D4A JUMP JUMPDEST JUMPDEST EQ PUSH2 0x23BC JUMPI PUSH2 0x2376 PUSH8 0x2751150A072430C3 PUSH1 0xC0 SHL PUSH2 0x48FE JUMP JUMPDEST PUSH2 0x238A PUSH8 0xFF8A6CA70A795795 PUSH1 0xC0 SHL PUSH2 0x48FE JUMP JUMPDEST PUSH1 0x40 MLOAD PUSH32 0xD4DBB56500000000000000000000000000000000000000000000000000000000 DUP2 MSTORE PUSH1 0x4 ADD PUSH1 0x40 MLOAD DUP1 SWAP2 SUB SWAP1 REVERT JUMPDEST PUSH2 0x23D0 PUSH8 0x7B692B2024257BF9 PUSH1 0xC0 SHL PUSH2 0x48FE JUMP JUMPDEST PUSH2 0x23E4 PUSH8 0x9C2DB1F7FADBAA6B PUSH1 0xC0 SHL PUSH2 0x48FE JUMP JUMPDEST PUSH2 0x23F8 PUSH8 0x387789A212B03011 PUSH1 0xC0 SHL PUSH2 0x48A4 JUMP JUMPDEST PUSH2 0x240C PUSH8 0x64B70B912814EDCE PUSH1 0xC0 SHL PUSH2 0x48A4 JUMP JUMPDEST PUSH2 0x2420 PUSH8 0x7B1F747E9A04D151 PUSH1 0xC0 SHL PUSH2 0x48A4 JUMP JUMPDEST PUSH2 0x2434 PUSH8 0x6AAB34CD2DF00541 PUSH1 0xC0 SHL PUSH2 0x48A4 JUMP JUMPDEST PUSH1 0x0 DUP1 PUSH1 0x0 DUP6 PUSH1 0x0 ADD CALLDATALOAD DUP2 MSTORE PUSH1 0x20 ADD SWAP1 DUP2 MSTORE PUSH1 0x20 ADD PUSH1 0x0 KECCAK256 SWAP1 POP PUSH2 0x2462 PUSH8 0x2A3F0ECE6C488B7A PUSH1 0xC0 SHL PUSH2 0x48A4 JUMP JUMPDEST PUSH2 0x2476 PUSH8 0xBFDD02046512D090 PUSH1 0xC0 SHL PUSH2 0x48A4 JUMP JUMPDEST DUP1 PUSH20 0x0 PUSH4 0xC3AEE15D SWAP1 SWAP2 PUSH1 0x40 MLOAD DUP3 PUSH4 0xFFFFFFFF AND PUSH1 0xE0 SHL DUP2 MSTORE PUSH1 0x4 ADD PUSH2 0x24AF SWAP2 SWAP1 PUSH2 0x63AB JUMP JUMPDEST PUSH1 0x0 PUSH1 0x40 MLOAD DUP1 DUP4 SUB DUP2 DUP7 DUP1 EXTCODESIZE ISZERO DUP1 ISZERO PUSH2 0x24C7 JUMPI PUSH1 0x0 DUP1 REVERT JUMPDEST POP GAS DELEGATECALL ISZERO DUP1 ISZERO PUSH2 0x24DB JUMPI RETURNDATASIZE PUSH1 0x0 DUP1 RETURNDATACOPY RETURNDATASIZE PUSH1 0x0 REVERT JUMPDEST POP POP POP POP PUSH2 0x24F3 PUSH8 0x5F2FABD197C8C76A PUSH1 0xC0 SHL PUSH2 0x48A4 JUMP JUMPDEST PUSH1 0x1 DUP2 PUSH1 0x1 ADD PUSH1 0x0 PUSH2 0x100 EXP DUP2 SLOAD DUP2 PUSH1 0xFF MUL NOT AND SWAP1 DUP4 PUSH1 0x3 DUP2 GT ISZERO PUSH2 0x251B JUMPI PUSH2 0x251A PUSH2 0x5D4A JUMP JUMPDEST JUMPDEST MUL OR SWAP1 SSTORE POP PUSH2 0x2534 PUSH8 0x65EE3F064D7C6476 PUSH1 0xC0 SHL PUSH2 0x48A4 JUMP JUMPDEST PUSH2 0x2548 PUSH8 0xF4CD75B31B4F70B1 PUSH1 0xC0 SHL PUSH2 0x48A4 JUMP JUMPDEST PUSH1 0x0 PUSH20 0xFFFFFFFFFFFFFFFFFFFFFFFFFFFFFFFFFFFFFFFF AND DUP2 PUSH1 0x2 ADD PUSH1 0x0 ADD PUSH1 0x0 SWAP1 SLOAD SWAP1 PUSH2 0x100 EXP SWAP1 DIV PUSH20 0xFFFFFFFFFFFFFFFFFFFFFFFFFFFFFFFFFFFFFFFF AND PUSH20 0xFFFFFFFFFFFFFFFFFFFFFFFFFFFFFFFFFFFFFFFF AND SUB PUSH2 0x2707 JUMPI PUSH2 0x25B7 PUSH8 0x62D267737CD4C4CD PUSH1 0xC0 SHL PUSH2 0x48A4 JUMP JUMPDEST PUSH2 0x25CB PUSH8 0xEF15637AF2847A03 PUSH1 0xC0 SHL PUSH2 0x48A4 JUMP JUMPDEST PUSH2 0x25DF PUSH8 0xB17F5F30815462B3 PUSH1 0xC0 SHL PUSH2 0x48A4 JUMP JUMPDEST PUSH1 0x0 CALLER PUSH20 0xFFFFFFFFFFFFFFFFFFFFFFFFFFFFFFFFFFFFFFFF AND DUP3 PUSH1 0x2 ADD PUSH1 0x1 ADD SLOAD PUSH1 0x40 MLOAD PUSH2 0x260C SWAP1 PUSH2 0x6894 JUMP JUMPDEST PUSH1 0x0 PUSH1 0x40 MLOAD DUP1 DUP4 SUB DUP2 DUP6 DUP8 GAS CALL SWAP3 POP POP POP RETURNDATASIZE DUP1 PUSH1 0x0 DUP2 EQ PUSH2 0x2649 JUMPI PUSH1 0x40 MLOAD SWAP2 POP PUSH1 0x1F NOT PUSH1 0x3F RETURNDATASIZE ADD AND DUP3 ADD PUSH1 0x40 MSTORE RETURNDATASIZE DUP3 MSTORE RETURNDATASIZE PUSH1 0x0 PUSH1 0x20 DUP5 ADD RETURNDATACOPY PUSH2 0x264E JUMP JUMPDEST PUSH1 0x60 SWAP2 POP JUMPDEST POP POP SWAP1 POP PUSH2 0x2666 PUSH8 0x66C1B04161F4C1BA PUSH1 0xC0 SHL PUSH2 0x48A4 JUMP JUMPDEST PUSH2 0x267A PUSH8 0xF3359540DD19C777 PUSH1 0xC0 SHL PUSH2 0x48A4 JUMP JUMPDEST DUP1 PUSH2 0x26ED JUMPI PUSH2 0x2693 PUSH8 0x8D2420E5DBA95635 PUSH1 0xC0 SHL PUSH2 0x48A4 JUMP JUMPDEST PUSH2 0x26A7 PUSH8 0x537AB3C574169E1A PUSH1 0xC0 SHL PUSH2 0x48A4 JUMP JUMPDEST CALLER DUP3 PUSH1 0x2 ADD PUSH1 0x1 ADD SLOAD PUSH1 0x40 MLOAD PUSH32 0x1C43B97600000000000000000000000000000000000000000000000000000000 DUP2 MSTORE PUSH1 0x4 ADD PUSH2 0x26E4 SWAP3 SWAP2 SWAP1 PUSH2 0x68A9 JUMP JUMPDEST PUSH1 0x40 MLOAD DUP1 SWAP2 SUB SWAP1 REVERT JUMPDEST PUSH2 0x2701 PUSH8 0x901988A20E2C21CC PUSH1 0xC0 SHL PUSH2 0x48A4 JUMP JUMPDEST POP PUSH2 0x2876 JUMP JUMPDEST PUSH2 0x271B PUSH8 0xD07F4234764F5F20 PUSH1 0xC0 SHL PUSH2 0x48A4 JUMP JUMPDEST PUSH2 0x272F PUSH8 0x1A3B512557287896 PUSH1 0xC0 SHL PUSH2 0x48A4 JUMP JUMPDEST PUSH2 0x2743 PUSH8 0x751E348C8FE879A2 PUSH1 0xC0 SHL PUSH2 0x48A4 JUMP JUMPDEST DUP1 PUSH1 0x2 ADD PUSH1 0x0 ADD PUSH1 0x0 SWAP1 SLOAD SWAP1 PUSH2 0x100 EXP SWAP1 DIV PUSH20 0xFFFFFFFFFFFFFFFFFFFFFFFFFFFFFFFFFFFFFFFF AND PUSH20 0xFFFFFFFFFFFFFFFFFFFFFFFFFFFFFFFFFFFFFFFF AND PUSH4 0xA9059CBB CALLER DUP4 PUSH1 0x2 ADD PUSH1 0x1 ADD SLOAD PUSH1 0x40 MLOAD DUP4 PUSH4 0xFFFFFFFF AND PUSH1 0xE0 SHL DUP2 MSTORE PUSH1 0x4 ADD PUSH2 0x27AC SWAP3 SWAP2 SWAP1 PUSH2 0x68A9 JUMP JUMPDEST PUSH1 0x20 PUSH1 0x40 MLOAD DUP1 DUP4 SUB DUP2 PUSH1 0x0 DUP8 GAS CALL ISZERO DUP1 ISZERO PUSH2 0x27CB JUMPI RETURNDATASIZE PUSH1 0x0 DUP1 RETURNDATACOPY RETURNDATASIZE PUSH1 0x0 REVERT JUMPDEST POP POP POP POP PUSH1 0x40 MLOAD RETURNDATASIZE PUSH1 0x1F NOT PUSH1 0x1F DUP3 ADD AND DUP3 ADD DUP1 PUSH1 0x40 MSTORE POP DUP2 ADD SWAP1 PUSH2 0x27EF SWAP2 SWAP1 PUSH2 0x68FE JUMP JUMPDEST PUSH2 0x2861 JUMPI PUSH2 0x2807 PUSH8 0x162783963C6C9E98 PUSH1 0xC0 SHL PUSH2 0x48A4 JUMP JUMPDEST PUSH2 0x281B PUSH8 0xA028EAAD005B74D2 PUSH1 0xC0 SHL PUSH2 0x48A4 JUMP JUMPDEST CALLER DUP2 PUSH1 0x2 ADD PUSH1 0x1 ADD SLOAD PUSH1 0x40 MLOAD PUSH32 0x1C43B97600000000000000000000000000000000000000000000000000000000 DUP2 MSTORE PUSH1 0x4 ADD PUSH2 0x2858 SWAP3 SWAP2 SWAP1 PUSH2 0x68A9 JUMP JUMPDEST PUSH1 0x40 MLOAD DUP1 SWAP2 SUB SWAP1 REVERT JUMPDEST PUSH2 0x2875 PUSH8 0x6055B550FAABC7AC PUSH1 0xC0 SHL PUSH2 0x48A4 JUMP JUMPDEST JUMPDEST PUSH2 0x288A PUSH8 0x26E7A008F34E74D0 PUSH1 0xC0 SHL PUSH2 0x48A4 JUMP JUMPDEST PUSH1 0x0 DUP1 DUP6 PUSH1 0x0 ADD CALLDATALOAD DUP2 MSTORE PUSH1 0x20 ADD SWAP1 DUP2 MSTORE PUSH1 0x20 ADD PUSH1 0x0 KECCAK256 PUSH1 0x0 DUP1 DUP3 ADD PUSH1 0x0 SWAP1 SSTORE PUSH1 0x1 DUP3 ADD PUSH1 0x0 PUSH2 0x100 EXP DUP2 SLOAD SWAP1 PUSH1 0xFF MUL NOT AND SWAP1 SSTORE PUSH1 0x1 DUP3 ADD PUSH1 0x1 PUSH2 0x100 EXP DUP2 SLOAD SWAP1 PUSH20 0xFFFFFFFFFFFFFFFFFFFFFFFFFFFFFFFFFFFFFFFF MUL NOT AND SWAP1 SSTORE PUSH1 0x2 DUP3 ADD PUSH1 0x0 DUP1 DUP3 ADD PUSH1 0x0 PUSH2 0x100 EXP DUP2 SLOAD SWAP1 PUSH20 0xFFFFFFFFFFFFFFFFFFFFFFFFFFFFFFFFFFFFFFFF MUL NOT AND SWAP1 SSTORE PUSH1 0x1 DUP3 ADD PUSH1 0x0 SWAP1 SSTORE POP POP PUSH1 0x4 DUP3 ADD PUSH1 0x0 PUSH2 0x100 EXP DUP2 SLOAD SWAP1 PUSH20 0xFFFFFFFFFFFFFFFFFFFFFFFFFFFFFFFFFFFFFFFF MUL NOT AND SWAP1 SSTORE PUSH1 0x5 DUP3 ADD PUSH1 0x0 DUP1 DUP3 ADD PUSH1 0x0 PUSH2 0x100 EXP DUP2 SLOAD SWAP1 PUSH20 0xFFFFFFFFFFFFFFFFFFFFFFFFFFFFFFFFFFFFFFFF MUL NOT AND SWAP1 SSTORE PUSH1 0x1 DUP3 ADD PUSH1 0x0 SWAP1 SSTORE POP POP PUSH1 0x7 DUP3 ADD PUSH1 0x0 SWAP1 SSTORE PUSH1 0x8 DUP3 ADD PUSH1 0x0 SWAP1 SSTORE PUSH1 0x9 DUP3 ADD PUSH1 0x0 SWAP1 SSTORE PUSH1 0xA DUP3 ADD PUSH1 0x0 SWAP1 SSTORE PUSH1 0xB DUP3 ADD PUSH1 0x0 SWAP1 SSTORE PUSH1 0xC DUP3 ADD PUSH1 0x0 PUSH2 0x100 EXP DUP2 SLOAD SWAP1 PUSH1 0xFF MUL NOT AND SWAP1 SSTORE POP POP PUSH2 0x29C9 PUSH8 0xAC35B23D4BB95C46 PUSH1 0xC0 SHL PUSH2 0x48A4 JUMP JUMPDEST PUSH2 0x29DD PUSH8 0x10732507D2E974AE PUSH1 0xC0 SHL PUSH2 0x48A4 JUMP JUMPDEST DUP4 PUSH1 0x0 ADD CALLDATALOAD PUSH32 0xF68AEEC8F55D67A9B2CF2B6CAEA31E11F2C14E09DA250170575D63911F26AA6E PUSH1 0x40 MLOAD PUSH1 0x40 MLOAD DUP1 SWAP2 SUB SWAP1 LOG2 POP POP POP PUSH2 0x2A19 PUSH2 0x5149 JUMP JUMPDEST POP JUMP JUMPDEST PUSH2 0x2A30 PUSH8 0x74637DE69896439B PUSH1 0xC0 SHL PUSH2 0x48A4 JUMP JUMPDEST PUSH2 0x2A38 PUSH2 0x48A7 JUMP JUMPDEST PUSH2 0x2A4C PUSH8 0x15CDAC4EFDE4DF5 PUSH1 0xC0 SHL PUSH2 0x48A4 JUMP JUMPDEST PUSH2 0x2A60 PUSH8 0x1EEECC04654A5D01 PUSH1 0xC0 SHL PUSH2 0x48A4 JUMP JUMPDEST DUP1 PUSH1 0x0 ADD CALLDATALOAD PUSH2 0x2A79 PUSH8 0x18B2B56D066EFD04 PUSH1 0xC0 SHL PUSH2 0x48FE JUMP JUMPDEST PUSH2 0x2A8D PUSH8 0x7B1B1FFA8FAD79B1 PUSH1 0xC0 SHL PUSH2 0x48FE JUMP JUMPDEST PUSH2 0x2AA1 PUSH8 0x3D390455BB908403 PUSH1 0xC0 SHL PUSH2 0x48FE JUMP JUMPDEST PUSH1 0x0 DUP1 SHL PUSH1 0x0 DUP1 DUP4 DUP2 MSTORE PUSH1 0x20 ADD SWAP1 DUP2 MSTORE PUSH1 0x20 ADD PUSH1 0x0 KECCAK256 PUSH1 0x0 ADD SLOAD SUB PUSH2 0x2B1A JUMPI PUSH2 0x2AD4 PUSH8 0xCED22D93201B06D5 PUSH1 0xC0 SHL PUSH2 0x48FE JUMP JUMPDEST PUSH2 0x2AE8 PUSH8 0xD22590866453AFF2 PUSH1 0xC0 SHL PUSH2 0x48FE JUMP JUMPDEST PUSH1 0x40 MLOAD PUSH32 0x5DCAF2D700000000000000000000000000000000000000000000000000000000 DUP2 MSTORE PUSH1 0x4 ADD PUSH1 0x40 MLOAD DUP1 SWAP2 SUB SWAP1 REVERT JUMPDEST PUSH2 0x2B2E PUSH8 0x393A760C1805114 PUSH1 0xC0 SHL PUSH2 0x48FE JUMP JUMPDEST PUSH2 0x2B42 PUSH8 0xF3C8792634AF1151 PUSH1 0xC0 SHL PUSH2 0x48FE JUMP JUMPDEST PUSH2 0x2B56 PUSH8 0xC6949BFB4DEE560A PUSH1 0xC0 SHL PUSH2 0x48A4 JUMP JUMPDEST PUSH2 0x2B6A PUSH8 0x79D84F728ABFDC37 PUSH1 0xC0 SHL PUSH2 0x48A4 JUMP JUMPDEST DUP2 PUSH1 0x0 ADD CALLDATALOAD PUSH2 0x2B83 PUSH8 0xEDA633C5957D325 PUSH1 0xC0 SHL PUSH2 0x48FE JUMP JUMPDEST PUSH2 0x2B96 PUSH7 0xB27EACC416F227 PUSH1 0xC0 SHL PUSH2 0x48FE JUMP JUMPDEST PUSH2 0x2BAA PUSH8 0x8F4CFC2CF3BC0472 PUSH1 0xC0 SHL PUSH2 0x48FE JUMP JUMPDEST PUSH1 0x0 PUSH1 0x3 DUP2 GT ISZERO PUSH2 0x2BBE JUMPI PUSH2 0x2BBD PUSH2 0x5D4A JUMP JUMPDEST JUMPDEST PUSH1 0x0 DUP1 DUP4 DUP2 MSTORE PUSH1 0x20 ADD SWAP1 DUP2 MSTORE PUSH1 0x20 ADD PUSH1 0x0 KECCAK256 PUSH1 0x1 ADD PUSH1 0x0 SWAP1 SLOAD SWAP1 PUSH2 0x100 EXP SWAP1 DIV PUSH1 0xFF AND PUSH1 0x3 DUP2 GT ISZERO PUSH2 0x2BF3 JUMPI PUSH2 0x2BF2 PUSH2 0x5D4A JUMP JUMPDEST JUMPDEST EQ PUSH2 0x2C52 JUMPI PUSH2 0x2C0C PUSH8 0x2751150A072430C3 PUSH1 0xC0 SHL PUSH2 0x48FE JUMP JUMPDEST PUSH2 0x2C20 PUSH8 0xFF8A6CA70A795795 PUSH1 0xC0 SHL PUSH2 0x48FE JUMP JUMPDEST PUSH1 0x40 MLOAD PUSH32 0xD4DBB56500000000000000000000000000000000000000000000000000000000 DUP2 MSTORE PUSH1 0x4 ADD PUSH1 0x40 MLOAD DUP1 SWAP2 SUB SWAP1 REVERT JUMPDEST PUSH2 0x2C66 PUSH8 0x7B692B2024257BF9 PUSH1 0xC0 SHL PUSH2 0x48FE JUMP JUMPDEST PUSH2 0x2C7A PUSH8 0x9C2DB1F7FADBAA6B PUSH1 0xC0 SHL PUSH2 0x48FE JUMP JUMPDEST PUSH2 0x2C8E PUSH8 0xF9F8AC5C9049ECD8 PUSH1 0xC0 SHL PUSH2 0x48A4 JUMP JUMPDEST PUSH2 0x2CA2 PUSH8 0x6EF653F009E4B761 PUSH1 0xC0 SHL PUSH2 0x48A4 JUMP JUMPDEST PUSH2 0x2CB6 PUSH8 0xC657D1EC6B1BFF8E PUSH1 0xC0 SHL PUSH2 0x48A4 JUMP JUMPDEST PUSH2 0x2CCA PUSH8 0xFE911D7A16E18C2F PUSH1 0xC0 SHL PUSH2 0x48A4 JUMP JUMPDEST PUSH1 0x0 DUP4 PUSH1 0x0 ADD CALLDATALOAD SWAP1 POP PUSH2 0x2CE7 PUSH8 0xB5319F3B2B377C85 PUSH1 0xC0 SHL PUSH2 0x48A4 JUMP JUMPDEST PUSH2 0x2CFB PUSH8 0x8AC53A7779BC6F9E PUSH1 0xC0 SHL PUSH2 0x48A4 JUMP JUMPDEST PUSH1 0x0 DUP5 PUSH1 0x40 ADD CALLDATALOAD SWAP1 POP PUSH2 0x2D18 PUSH8 0xB23160E9878309B0 PUSH1 0xC0 SHL PUSH2 0x48A4 JUMP JUMPDEST PUSH2 0x2D2C PUSH8 0x21C3C278F715F6B6 PUSH1 0xC0 SHL PUSH2 0x48A4 JUMP JUMPDEST PUSH1 0x0 PUSH1 0x2 PUSH1 0x0 DUP5 DUP2 MSTORE PUSH1 0x20 ADD SWAP1 DUP2 MSTORE PUSH1 0x20 ADD PUSH1 0x0 KECCAK256 PUSH1 0x0 CALLER PUSH20 0xFFFFFFFFFFFFFFFFFFFFFFFFFFFFFFFFFFFFFFFF AND PUSH20 0xFFFFFFFFFFFFFFFFFFFFFFFFFFFFFFFFFFFFFFFF AND DUP2 MSTORE PUSH1 0x20 ADD SWAP1 DUP2 MSTORE PUSH1 0x20 ADD PUSH1 0x0 KECCAK256 SWAP1 POP PUSH2 0x2D94 PUSH8 0xE312A9233FEDBC6E PUSH1 0xC0 SHL PUSH2 0x48A4 JUMP JUMPDEST PUSH2 0x2DA8 PUSH8 0x7660EED4805C3698 PUSH1 0xC0 SHL PUSH2 0x48A4 JUMP JUMPDEST PUSH1 0x0 PUSH20 0xFFFFFFFFFFFFFFFFFFFFFFFFFFFFFFFFFFFFFFFF AND DUP2 PUSH1 0x2 ADD PUSH1 0x1 SWAP1 SLOAD SWAP1 PUSH2 0x100 EXP SWAP1 DIV PUSH20 0xFFFFFFFFFFFFFFFFFFFFFFFFFFFFFFFFFFFFFFFF AND PUSH20 0xFFFFFFFFFFFFFFFFFFFFFFFFFFFFFFFFFFFFFFFF AND SUB PUSH2 0x2E5A JUMPI PUSH2 0x2E14 PUSH8 0x3EECD1228570D3C9 PUSH1 0xC0 SHL PUSH2 0x48A4 JUMP JUMPDEST PUSH2 0x2E28 PUSH8 0xE6D73E60F45D7A22 PUSH1 0xC0 SHL PUSH2 0x48A4 JUMP JUMPDEST PUSH1 0x40 MLOAD PUSH32 0xA0C23EE00000000000000000000000000000000000000000000000000000000 DUP2 MSTORE PUSH1 0x4 ADD PUSH1 0x40 MLOAD DUP1 SWAP2 SUB SWAP1 REVERT JUMPDEST PUSH2 0x2E6E PUSH8 0xC4BEA124C1230929 PUSH1 0xC0 SHL PUSH2 0x48A4 JUMP JUMPDEST PUSH2 0x2E82 PUSH8 0xB7DC7034E24AC0D4 PUSH1 0xC0 SHL PUSH2 0x48A4 JUMP JUMPDEST PUSH2 0x2E96 PUSH8 0x7EB1BA951FFDC6F2 PUSH1 0xC0 SHL PUSH2 0x48A4 JUMP JUMPDEST PUSH1 0x0 DUP1 PUSH1 0x0 DUP6 DUP2 MSTORE PUSH1 0x20 ADD SWAP1 DUP2 MSTORE PUSH1 0x20 ADD PUSH1 0x0 KECCAK256 SWAP1 POP PUSH2 0x2EC0 PUSH8 0x92D55B8925FFB1EA PUSH1 0xC0 SHL PUSH2 0x48A4 JUMP JUMPDEST PUSH2 0x2ED4 PUSH8 0x57E0A20CBA71468 PUSH1 0xC0 SHL PUSH2 0x48A4 JUMP JUMPDEST PUSH1 0x2 DUP1 DUP2 GT ISZERO PUSH2 0x2EE7 JUMPI PUSH2 0x2EE6 PUSH2 0x5D4A JUMP JUMPDEST JUMPDEST DUP3 PUSH1 0x2 ADD PUSH1 0x0 SWAP1 SLOAD SWAP1 PUSH2 0x100 EXP SWAP1 DIV PUSH1 0xFF AND PUSH1 0x2 DUP2 GT ISZERO PUSH2 0x2F0B JUMPI PUSH2 0x2F0A PUSH2 0x5D4A JUMP JUMPDEST JUMPDEST EQ PUSH2 0x2F6A JUMPI PUSH2 0x2F24 PUSH8 0x466652A8688740B6 PUSH1 0xC0 SHL PUSH2 0x48A4 JUMP JUMPDEST PUSH2 0x2F38 PUSH8 0x109052EAC5A01C85 PUSH1 0xC0 SHL PUSH2 0x48A4 JUMP JUMPDEST PUSH1 0x40 MLOAD PUSH32 0xA0C23EE00000000000000000000000000000000000000000000000000000000 DUP2 MSTORE PUSH1 0x4 ADD PUSH1 0x40 MLOAD DUP1 SWAP2 SUB SWAP1 REVERT JUMPDEST PUSH2 0x2F7E PUSH8 0x58ACC236735CA11B PUSH1 0xC0 SHL PUSH2 0x48A4 JUMP JUMPDEST PUSH2 0x2F92 PUSH8 0xFB4123E70DA08459 PUSH1 0xC0 SHL PUSH2 0x48A4 JUMP JUMPDEST PUSH2 0x2FA6 PUSH8 0x8007D56358504E6D PUSH1 0xC0 SHL PUSH2 0x48A4 JUMP JUMPDEST PUSH1 0x0 DUP4 SUB PUSH2 0x3013 JUMPI PUSH2 0x2FC2 PUSH8 0xF258CD3300500971 PUSH1 0xC0 SHL PUSH2 0x48A4 JUMP JUMPDEST PUSH2 0x2FD6 PUSH8 0xD0A62D90A6AE4880 PUSH1 0xC0 SHL PUSH2 0x48A4 JUMP JUMPDEST DUP3 PUSH1 0x40 MLOAD PUSH32 0xD9CF167E00000000000000000000000000000000000000000000000000000000 DUP2 MSTORE PUSH1 0x4 ADD PUSH2 0x300A SWAP2 SWAP1 PUSH2 0x5C4C JUMP JUMPDEST PUSH1 0x40 MLOAD DUP1 SWAP2 SUB SWAP1 REVERT JUMPDEST PUSH2 0x3027 PUSH8 0x6BC05460ABD755A2 PUSH1 0xC0 SHL PUSH2 0x48A4 JUMP JUMPDEST PUSH2 0x303B PUSH8 0xCC4DC18F451DA87B PUSH1 0xC0 SHL PUSH2 0x48A4 JUMP JUMPDEST DUP3 DUP3 PUSH1 0x0 ADD PUSH1 0x0 DUP3 DUP3 SLOAD PUSH2 0x304F SWAP2 SWAP1 PUSH2 0x692B JUMP JUMPDEST SWAP3 POP POP DUP2 SWAP1 SSTORE POP PUSH2 0x306A PUSH8 0xFF1393EE36026BAC PUSH1 0xC0 SHL PUSH2 0x48A4 JUMP JUMPDEST PUSH2 0x307E PUSH8 0x7F2A5E6F0BF82602 PUSH1 0xC0 SHL PUSH2 0x48A4 JUMP JUMPDEST DUP1 PUSH1 0x5 ADD PUSH1 0x1 ADD SLOAD DUP3 PUSH1 0x0 ADD SLOAD GT ISZERO PUSH2 0x30FA JUMPI PUSH2 0x30A5 PUSH8 0x202AB95F4D52101E PUSH1 0xC0 SHL PUSH2 0x48A4 JUMP JUMPDEST PUSH2 0x30B9 PUSH8 0x5CEC281E1A16FD50 PUSH1 0xC0 SHL PUSH2 0x48A4 JUMP JUMPDEST DUP2 PUSH1 0x0 ADD SLOAD PUSH1 0x40 MLOAD PUSH32 0xD9CF167E00000000000000000000000000000000000000000000000000000000 DUP2 MSTORE PUSH1 0x4 ADD PUSH2 0x30F1 SWAP2 SWAP1 PUSH2 0x5C4C JUMP JUMPDEST PUSH1 0x40 MLOAD DUP1 SWAP2 SUB SWAP1 REVERT JUMPDEST PUSH2 0x310E PUSH8 0xBF2363A7E8D55767 PUSH1 0xC0 SHL PUSH2 0x48A4 JUMP JUMPDEST PUSH2 0x3122 PUSH8 0xD79E378069D62113 PUSH1 0xC0 SHL PUSH2 0x48A4 JUMP JUMPDEST PUSH2 0x3136 PUSH8 0x5B275F42A338B4A8 PUSH1 0xC0 SHL PUSH2 0x48A4 JUMP JUMPDEST PUSH1 0x0 DUP2 PUSH1 0x5 ADD SWAP1 POP PUSH2 0x3152 PUSH8 0x17FEB67E06390FCB PUSH1 0xC0 SHL PUSH2 0x48A4 JUMP JUMPDEST PUSH2 0x3166 PUSH8 0xC50103F1B0DE5322 PUSH1 0xC0 SHL PUSH2 0x48A4 JUMP JUMPDEST PUSH1 0x0 PUSH20 0xFFFFFFFFFFFFFFFFFFFFFFFFFFFFFFFFFFFFFFFF AND DUP2 PUSH1 0x0 ADD PUSH1 0x0 SWAP1 SLOAD SWAP1 PUSH2 0x100 EXP SWAP1 DIV PUSH20 0xFFFFFFFFFFFFFFFFFFFFFFFFFFFFFFFFFFFFFFFF AND PUSH20 0xFFFFFFFFFFFFFFFFFFFFFFFFFFFFFFFFFFFFFFFF AND EQ PUSH2 0x3250 JUMPI PUSH2 0x31D2 PUSH8 0xFBC1096EBA9A2D81 PUSH1 0xC0 SHL PUSH2 0x48A4 JUMP JUMPDEST PUSH2 0x31E6 PUSH8 0x68C7F0DD3AA166E7 PUSH1 0xC0 SHL PUSH2 0x48A4 JUMP JUMPDEST PUSH2 0x31FA PUSH8 0x83F96F42D1F15E6A PUSH1 0xC0 SHL PUSH2 0x48A4 JUMP JUMPDEST PUSH2 0x324B CALLER ADDRESS DUP7 DUP5 PUSH1 0x0 ADD PUSH1 0x0 SWAP1 SLOAD SWAP1 PUSH2 0x100 EXP SWAP1 DIV PUSH20 0xFFFFFFFFFFFFFFFFFFFFFFFFFFFFFFFFFFFFFFFF AND PUSH20 0xFFFFFFFFFFFFFFFFFFFFFFFFFFFFFFFFFFFFFFFF AND PUSH2 0x516D SWAP1 SWAP4 SWAP3 SWAP2 SWAP1 PUSH4 0xFFFFFFFF AND JUMP JUMPDEST PUSH2 0x330D JUMP JUMPDEST PUSH2 0x3264 PUSH8 0x3724246BFE00DA94 PUSH1 0xC0 SHL PUSH2 0x48A4 JUMP JUMPDEST PUSH2 0x3278 PUSH8 0x83B335C96527F80F PUSH1 0xC0 SHL PUSH2 0x48A4 JUMP JUMPDEST PUSH2 0x328C PUSH8 0x728914AE443D71BC PUSH1 0xC0 SHL PUSH2 0x48A4 JUMP JUMPDEST DUP4 CALLVALUE EQ PUSH2 0x32F8 JUMPI PUSH2 0x32A7 PUSH8 0x197E05024960A702 PUSH1 0xC0 SHL PUSH2 0x48A4 JUMP JUMPDEST PUSH2 0x32BB PUSH8 0x8CA8179DA9DD563D PUSH1 0xC0 SHL PUSH2 0x48A4 JUMP JUMPDEST CALLVALUE PUSH1 0x40 MLOAD PUSH32 0xD9CF167E00000000000000000000000000000000000000000000000000000000 DUP2 MSTORE PUSH1 0x4 ADD PUSH2 0x32EF SWAP2 SWAP1 PUSH2 0x5C4C JUMP JUMPDEST PUSH1 0x40 MLOAD DUP1 SWAP2 SUB SWAP1 REVERT JUMPDEST PUSH2 0x330C PUSH8 0x7C159BB9358322BA PUSH1 0xC0 SHL PUSH2 0x48A4 JUMP JUMPDEST JUMPDEST PUSH2 0x3321 PUSH8 0x40697E71584A1277 PUSH1 0xC0 SHL PUSH2 0x48A4 JUMP JUMPDEST PUSH2 0x3335 PUSH8 0x7C76AD0E6D1B2A00 PUSH1 0xC0 SHL PUSH2 0x48A4 JUMP JUMPDEST DUP3 PUSH1 0x0 ADD SLOAD DUP4 PUSH1 0x2 ADD PUSH1 0x1 SWAP1 SLOAD SWAP1 PUSH2 0x100 EXP SWAP1 DIV PUSH20 0xFFFFFFFFFFFFFFFFFFFFFFFFFFFFFFFFFFFFFFFF AND PUSH20 0xFFFFFFFFFFFFFFFFFFFFFFFFFFFFFFFFFFFFFFFF AND DUP7 PUSH32 0x7786094A5EDC61A0463300B9B97A1B22D338BC800ED33404BA9A3888B71DE0FC PUSH1 0x40 MLOAD PUSH1 0x40 MLOAD DUP1 SWAP2 SUB SWAP1 LOG4 POP POP POP POP POP POP POP PUSH2 0x33B1 PUSH2 0x5149 JUMP JUMPDEST POP JUMP JUMPDEST PUSH1 0x6 SLOAD DUP2 JUMP JUMPDEST PUSH1 0x2 PUSH1 0x20 MSTORE DUP2 PUSH1 0x0 MSTORE PUSH1 0x40 PUSH1 0x0 KECCAK256 PUSH1 0x20 MSTORE DUP1 PUSH1 0x0 MSTORE PUSH1 0x40 PUSH1 0x0 KECCAK256 PUSH1 0x0 SWAP2 POP SWAP2 POP POP DUP1 PUSH1 0x0 ADD SLOAD SWAP1 DUP1 PUSH1 0x1 ADD SLOAD SWAP1 DUP1 PUSH1 0x2 ADD PUSH1 0x0 SWAP1 SLOAD SWAP1 PUSH2 0x100 EXP SWAP1 DIV PUSH1 0xFF AND SWAP1 DUP1 PUSH1 0x2 ADD PUSH1 0x1 SWAP1 SLOAD SWAP1 PUSH2 0x100 EXP SWAP1 DIV PUSH20 0xFFFFFFFFFFFFFFFFFFFFFFFFFFFFFFFFFFFFFFFF AND SWAP1 DUP1 PUSH1 0x3 ADD SLOAD SWAP1 DUP1 PUSH1 0x4 ADD SLOAD SWAP1 POP DUP7 JUMP JUMPDEST PUSH2 0x3438 PUSH2 0x5584 JUMP JUMPDEST PUSH2 0x3442 PUSH1 0x0 PUSH2 0x560B JUMP JUMPDEST JUMP JUMPDEST PUSH1 0x5 SLOAD DUP2 JUMP JUMPDEST PUSH1 0x1 PUSH1 0x20 MSTORE DUP2 PUSH1 0x0 MSTORE PUSH1 0x40 PUSH1 0x0 KECCAK256 DUP2 DUP2 SLOAD DUP2 LT PUSH2 0x3466 JUMPI PUSH1 0x0 DUP1 REVERT JUMPDEST SWAP1 PUSH1 0x0 MSTORE PUSH1 0x20 PUSH1 0x0 KECCAK256 SWAP1 PUSH1 0x2 MUL ADD PUSH1 0x0 SWAP2 POP SWAP2 POP POP DUP1 PUSH1 0x0 ADD SLOAD SWAP1 DUP1 PUSH1 0x1 ADD SLOAD SWAP1 POP DUP3 JUMP JUMPDEST PUSH1 0x0 DUP1 PUSH2 0x3496 PUSH2 0x56E2 JUMP JUMPDEST SWAP1 POP DUP1 PUSH1 0x0 ADD PUSH1 0x0 SWAP1 SLOAD SWAP1 PUSH2 0x100 EXP SWAP1 DIV PUSH20 0xFFFFFFFFFFFFFFFFFFFFFFFFFFFFFFFFFFFFFFFF AND SWAP2 POP POP SWAP1 JUMP JUMPDEST PUSH2 0x34D7 PUSH8 0x6B51D48D0D2D13F7 PUSH1 0xC0 SHL PUSH2 0x48A4 JUMP JUMPDEST PUSH1 0x0 PUSH2 0x34E1 PUSH2 0x570A JUMP JUMPDEST SWAP1 POP PUSH1 0x0 DUP2 PUSH1 0x0 ADD PUSH1 0x8 SWAP1 SLOAD SWAP1 PUSH2 0x100 EXP SWAP1 DIV PUSH1 0xFF AND ISZERO SWAP1 POP PUSH1 0x0 DUP3 PUSH1 0x0 ADD PUSH1 0x0 SWAP1 SLOAD SWAP1 PUSH2 0x100 EXP SWAP1 DIV PUSH8 0xFFFFFFFFFFFFFFFF AND SWAP1 POP PUSH1 0x0 DUP1 DUP3 PUSH8 0xFFFFFFFFFFFFFFFF AND EQ DUP1 ISZERO PUSH2 0x352F JUMPI POP DUP3 JUMPDEST SWAP1 POP PUSH1 0x0 PUSH1 0x1 DUP4 PUSH8 0xFFFFFFFFFFFFFFFF AND EQ DUP1 ISZERO PUSH2 0x3564 JUMPI POP PUSH1 0x0 ADDRESS PUSH20 0xFFFFFFFFFFFFFFFFFFFFFFFFFFFFFFFFFFFFFFFF AND EXTCODESIZE EQ JUMPDEST SWAP1 POP DUP2 ISZERO DUP1 ISZERO PUSH2 0x3572 JUMPI POP DUP1 ISZERO JUMPDEST ISZERO PUSH2 0x35A9 JUMPI PUSH1 0x40 MLOAD PUSH32 0xF92EE8A900000000000000000000000000000000000000000000000000000000 DUP2 MSTORE PUSH1 0x4 ADD PUSH1 0x40 MLOAD DUP1 SWAP2 SUB SWAP1 REVERT JUMPDEST PUSH1 0x1 DUP6 PUSH1 0x0 ADD PUSH1 0x0 PUSH2 0x100 EXP DUP2 SLOAD DUP2 PUSH8 0xFFFFFFFFFFFFFFFF MUL NOT AND SWAP1 DUP4 PUSH8 0xFFFFFFFFFFFFFFFF AND MUL OR SWAP1 SSTORE POP DUP4 ISZERO PUSH2 0x35F9 JUMPI PUSH1 0x1 DUP6 PUSH1 0x0 ADD PUSH1 0x8 PUSH2 0x100 EXP DUP2 SLOAD DUP2 PUSH1 0xFF MUL NOT AND SWAP1 DUP4 ISZERO ISZERO MUL OR SWAP1 SSTORE POP JUMPDEST PUSH2 0x360D PUSH8 0x94766EB686279B38 PUSH1 0xC0 SHL PUSH2 0x48A4 JUMP JUMPDEST PUSH2 0x3621 PUSH8 0x3F08CFC4675DD39F PUSH1 0xC0 SHL PUSH2 0x48A4 JUMP JUMPDEST PUSH2 0x3635 PUSH8 0x54EC29F51A4EF244 PUSH1 0xC0 SHL PUSH2 0x48A4 JUMP JUMPDEST PUSH2 0x3649 PUSH8 0xD93E3A71C7E4CB70 PUSH1 0xC0 SHL PUSH2 0x48A4 JUMP JUMPDEST PUSH2 0x3652 DUP11 PUSH2 0x5732 JUMP JUMPDEST PUSH2 0x3666 PUSH8 0x8317F6A0544A0BBB PUSH1 0xC0 SHL PUSH2 0x48A4 JUMP JUMPDEST PUSH2 0x367A PUSH8 0x4A7001C584C92E4F PUSH1 0xC0 SHL PUSH2 0x48A4 JUMP JUMPDEST PUSH2 0x2710 DUP8 GT ISZERO PUSH2 0x36DE JUMPI PUSH2 0x3698 PUSH8 0x15B409665DA0208 PUSH1 0xC0 SHL PUSH2 0x48A4 JUMP JUMPDEST PUSH2 0x36AC PUSH8 0x97FC258355AA705D PUSH1 0xC0 SHL PUSH2 0x48A4 JUMP JUMPDEST PUSH1 0x40 MLOAD PUSH32 0xCE43144600000000000000000000000000000000000000000000000000000000 DUP2 MSTORE PUSH1 0x4 ADD PUSH1 0x40 MLOAD DUP1 SWAP2 SUB SWAP1 REVERT JUMPDEST PUSH2 0x36F2 PUSH8 0x1E4D5B5DE0957A3D PUSH1 0xC0 SHL PUSH2 0x48A4 JUMP JUMPDEST PUSH2 0x3706 PUSH8 0xDAEF7709E0CF7172 PUSH1 0xC0 SHL PUSH2 0x48A4 JUMP JUMPDEST PUSH2 0x371A PUSH8 0x3A23A4316C66533E PUSH1 0xC0 SHL PUSH2 0x48A4 JUMP JUMPDEST PUSH2 0x2710 DUP7 GT ISZERO PUSH2 0x377E JUMPI PUSH2 0x3738 PUSH8 0xE3E1130AB7918A9B PUSH1 0xC0 SHL PUSH2 0x48A4 JUMP JUMPDEST PUSH2 0x374C PUSH8 0x96B98BF965F4AE26 PUSH1 0xC0 SHL PUSH2 0x48A4 JUMP JUMPDEST PUSH1 0x40 MLOAD PUSH32 0xB089E48E00000000000000000000000000000000000000000000000000000000 DUP2 MSTORE PUSH1 0x4 ADD PUSH1 0x40 MLOAD DUP1 SWAP2 SUB SWAP1 REVERT JUMPDEST PUSH2 0x3792 PUSH8 0x78AC3128FF8FAD89 PUSH1 0xC0 SHL PUSH2 0x48A4 JUMP JUMPDEST PUSH2 0x37A6 PUSH8 0xDFE6C05F8BD55772 PUSH1 0xC0 SHL PUSH2 0x48A4 JUMP JUMPDEST PUSH2 0x37BA PUSH8 0xB2E99F05C20D1841 PUSH1 0xC0 SHL PUSH2 0x48A4 JUMP JUMPDEST PUSH1 0x0 PUSH20 0xFFFFFFFFFFFFFFFFFFFFFFFFFFFFFFFFFFFFFFFF AND DUP9 PUSH20 0xFFFFFFFFFFFFFFFFFFFFFFFFFFFFFFFFFFFFFFFF AND SUB PUSH2 0x3848 JUMPI PUSH2 0x3802 PUSH8 0x116E38E876AA52B4 PUSH1 0xC0 SHL PUSH2 0x48A4 JUMP JUMPDEST PUSH2 0x3816 PUSH8 0x633AF4075BBC5D74 PUSH1 0xC0 SHL PUSH2 0x48A4 JUMP JUMPDEST PUSH1 0x40 MLOAD PUSH32 0xCFE2EA6300000000000000000000000000000000000000000000000000000000 DUP2 MSTORE PUSH1 0x4 ADD PUSH1 0x40 MLOAD DUP1 SWAP2 SUB SWAP1 REVERT JUMPDEST PUSH2 0x385C PUSH8 0x742BF07AF393C537 PUSH1 0xC0 SHL PUSH2 0x48A4 JUMP JUMPDEST PUSH2 0x3870 PUSH8 0x74D735EBBA8D61EA PUSH1 0xC0 SHL PUSH2 0x48A4 JUMP JUMPDEST DUP7 PUSH1 0x5 DUP2 SWAP1 SSTORE POP PUSH2 0x388B PUSH8 0x4734665E957671B0 PUSH1 0xC0 SHL PUSH2 0x48A4 JUMP JUMPDEST DUP6 PUSH1 0x6 DUP2 SWAP1 SSTORE POP PUSH2 0x38A6 PUSH8 0xE8C2BE361098F6E PUSH1 0xC0 SHL PUSH2 0x48A4 JUMP JUMPDEST DUP8 PUSH1 0x4 PUSH1 0x0 PUSH2 0x100 EXP DUP2 SLOAD DUP2 PUSH20 0xFFFFFFFFFFFFFFFFFFFFFFFFFFFFFFFFFFFFFFFF MUL NOT AND SWAP1 DUP4 PUSH20 0xFFFFFFFFFFFFFFFFFFFFFFFFFFFFFFFFFFFFFFFF AND MUL OR SWAP1 SSTORE POP PUSH2 0x38FB PUSH8 0x8D070CEDB8CC3138 PUSH1 0xC0 SHL PUSH2 0x48A4 JUMP JUMPDEST DUP9 PUSH1 0x3 PUSH1 0x0 PUSH2 0x100 EXP DUP2 SLOAD DUP2 PUSH20 0xFFFFFFFFFFFFFFFFFFFFFFFFFFFFFFFFFFFFFFFF MUL NOT AND SWAP1 DUP4 PUSH20 0xFFFFFFFFFFFFFFFFFFFFFFFFFFFFFFFFFFFFFFFF AND MUL OR SWAP1 SSTORE POP DUP4 ISZERO PUSH2 0x3998 JUMPI PUSH1 0x0 DUP6 PUSH1 0x0 ADD PUSH1 0x8 PUSH2 0x100 EXP DUP2 SLOAD DUP2 PUSH1 0xFF MUL NOT AND SWAP1 DUP4 ISZERO ISZERO MUL OR SWAP1 SSTORE POP PUSH32 0xC7F505B2F371AE2175EE4913F4499E1F2633A7B5936321EED1CDAEB6115181D2 PUSH1 0x1 PUSH1 0x40 MLOAD PUSH2 0x398F SWAP2 SWAP1 PUSH2 0x69AE JUMP JUMPDEST PUSH1 0x40 MLOAD DUP1 SWAP2 SUB SWAP1 LOG1 JUMPDEST POP POP POP POP POP POP POP POP POP POP JUMP JUMPDEST PUSH1 0x7 PUSH1 0x20 MSTORE DUP2 PUSH1 0x0 MSTORE PUSH1 0x40 PUSH1 0x0 KECCAK256 PUSH1 0x20 MSTORE DUP1 PUSH1 0x0 MSTORE PUSH1 0x40 PUSH1 0x0 KECCAK256 PUSH1 0x0 SWAP2 POP SWAP2 POP POP SLOAD DUP2 JUMP JUMPDEST PUSH1 0x0 PUSH2 0x39DF PUSH8 0xDCA691C83F9B6BBF PUSH1 0xC0 SHL PUSH2 0x48A4 JUMP JUMPDEST PUSH2 0x39E7 PUSH2 0x48A7 JUMP JUMPDEST PUSH2 0x39FB PUSH8 0x713FC6B563216661 PUSH1 0xC0 SHL PUSH2 0x48A4 JUMP JUMPDEST PUSH2 0x3A0F PUSH8 0x7565C17EE7E9BD82 PUSH1 0xC0 SHL PUSH2 0x48A4 JUMP JUMPDEST PUSH2 0x3A23 PUSH8 0x6A26F54C232A2DFD PUSH1 0xC0 SHL PUSH2 0x48A4 JUMP JUMPDEST PUSH2 0x3A37 PUSH8 0x98EB7131CA7A714F PUSH1 0xC0 SHL PUSH2 0x48A4 JUMP JUMPDEST DUP2 PUSH1 0x60 ADD PUSH1 0x0 ADD PUSH1 0x20 DUP2 ADD SWAP1 PUSH2 0x3A4D SWAP2 SWAP1 PUSH2 0x5FD2 JUMP JUMPDEST PUSH20 0xFFFFFFFFFFFFFFFFFFFFFFFFFFFFFFFFFFFFFFFF AND DUP3 PUSH1 0x20 ADD PUSH1 0x0 ADD PUSH1 0x20 DUP2 ADD SWAP1 PUSH2 0x3A79 SWAP2 SWAP1 PUSH2 0x5FD2 JUMP JUMPDEST PUSH20 0xFFFFFFFFFFFFFFFFFFFFFFFFFFFFFFFFFFFFFFFF AND SUB PUSH2 0x3AED JUMPI PUSH2 0x3AA8 PUSH8 0x4EAB502D0F337A78 PUSH1 0xC0 SHL PUSH2 0x48A4 JUMP JUMPDEST PUSH2 0x3ABB PUSH7 0xA0E544CD3BD217 PUSH1 0xC0 SHL PUSH2 0x48A4 JUMP JUMPDEST PUSH1 0x40 MLOAD PUSH32 0x45B3A4C700000000000000000000000000000000000000000000000000000000 DUP2 MSTORE PUSH1 0x4 ADD PUSH1 0x40 MLOAD DUP1 SWAP2 SUB SWAP1 REVERT JUMPDEST PUSH2 0x3B01 PUSH8 0x783582C27E915821 PUSH1 0xC0 SHL PUSH2 0x48A4 JUMP JUMPDEST PUSH2 0x3B15 PUSH8 0xA34041915D3F8998 PUSH1 0xC0 SHL PUSH2 0x48A4 JUMP JUMPDEST PUSH2 0x3B29 PUSH8 0x1041CBED47A2736A PUSH1 0xC0 SHL PUSH2 0x48A4 JUMP JUMPDEST DUP2 DUP1 CALLDATASIZE SUB DUP2 ADD SWAP1 PUSH2 0x3B3A SWAP2 SWAP1 PUSH2 0x6AFA JUMP JUMPDEST PUSH20 0x0 PUSH4 0x9A0EBE00 SWAP1 SWAP2 PUSH1 0x40 MLOAD DUP3 PUSH4 0xFFFFFFFF AND PUSH1 0xE0 SHL DUP2 MSTORE PUSH1 0x4 ADD PUSH2 0x3B72 SWAP2 SWAP1 PUSH2 0x6C0A JUMP JUMPDEST PUSH1 0x0 PUSH1 0x40 MLOAD DUP1 DUP4 SUB DUP2 DUP7 DUP1 EXTCODESIZE ISZERO DUP1 ISZERO PUSH2 0x3B8A JUMPI PUSH1 0x0 DUP1 REVERT JUMPDEST POP GAS DELEGATECALL ISZERO DUP1 ISZERO PUSH2 0x3B9E JUMPI RETURNDATASIZE PUSH1 0x0 DUP1 RETURNDATACOPY RETURNDATASIZE PUSH1 0x0 REVERT JUMPDEST POP POP POP POP PUSH2 0x3BB6 PUSH8 0xC86298FE2098BC5D PUSH1 0xC0 SHL PUSH2 0x48A4 JUMP JUMPDEST PUSH2 0x3BCA PUSH8 0x8E2737583FBE590D PUSH1 0xC0 SHL PUSH2 0x48A4 JUMP JUMPDEST PUSH1 0x0 DUP3 PUSH1 0x0 ADD CALLDATALOAD PUSH20 0x0 PUSH4 0xD81AB44F SWAP1 SWAP2 ADDRESS PUSH1 0x40 MLOAD DUP4 PUSH4 0xFFFFFFFF AND PUSH1 0xE0 SHL DUP2 MSTORE PUSH1 0x4 ADD PUSH2 0x3C0B SWAP3 SWAP2 SWAP1 PUSH2 0x6C35 JUMP JUMPDEST PUSH1 0x20 PUSH1 0x40 MLOAD DUP1 DUP4 SUB DUP2 DUP7 GAS DELEGATECALL ISZERO DUP1 ISZERO PUSH2 0x3C28 JUMPI RETURNDATASIZE PUSH1 0x0 DUP1 RETURNDATACOPY RETURNDATASIZE PUSH1 0x0 REVERT JUMPDEST POP POP POP POP PUSH1 0x40 MLOAD RETURNDATASIZE PUSH1 0x1F NOT PUSH1 0x1F DUP3 ADD AND DUP3 ADD DUP1 PUSH1 0x40 MSTORE POP DUP2 ADD SWAP1 PUSH2 0x3C4C SWAP2 SWAP1 PUSH2 0x6C73 JUMP JUMPDEST SWAP1 POP PUSH2 0x3C62 PUSH8 0x43E77CAA3E6F2E79 PUSH1 0xC0 SHL PUSH2 0x48A4 JUMP JUMPDEST PUSH2 0x3C76 PUSH8 0xC9A4AF9E0D54B91B PUSH1 0xC0 SHL PUSH2 0x48A4 JUMP JUMPDEST PUSH1 0x0 PUSH20 0x0 PUSH4 0x2296D7E0 SWAP1 SWAP2 DUP6 DUP5 CALLER PUSH1 0x40 MLOAD DUP6 PUSH4 0xFFFFFFFF AND PUSH1 0xE0 SHL DUP2 MSTORE PUSH1 0x4 ADD PUSH2 0x3CB6 SWAP5 SWAP4 SWAP3 SWAP2 SWAP1 PUSH2 0x6DEE JUMP JUMPDEST PUSH1 0x0 PUSH1 0x40 MLOAD DUP1 DUP4 SUB DUP2 DUP7 DUP1 EXTCODESIZE ISZERO DUP1 ISZERO PUSH2 0x3CCE JUMPI PUSH1 0x0 DUP1 REVERT JUMPDEST POP GAS DELEGATECALL ISZERO DUP1 ISZERO PUSH2 0x3CE2 JUMPI RETURNDATASIZE PUSH1 0x0 DUP1 RETURNDATACOPY RETURNDATASIZE PUSH1 0x0 REVERT JUMPDEST POP POP POP POP PUSH2 0x3CFA PUSH8 0x5BF7AE65A7987F7E PUSH1 0xC0 SHL PUSH2 0x48A4 JUMP JUMPDEST PUSH2 0x3D0E PUSH8 0x6F116B46BB9936EC PUSH1 0xC0 SHL PUSH2 0x48A4 JUMP JUMPDEST PUSH1 0x0 PUSH20 0xFFFFFFFFFFFFFFFFFFFFFFFFFFFFFFFFFFFFFFFF AND DUP4 PUSH1 0x20 ADD PUSH1 0x0 ADD PUSH1 0x20 DUP2 ADD SWAP1 PUSH2 0x3D3C SWAP2 SWAP1 PUSH2 0x5FD2 JUMP JUMPDEST PUSH20 0xFFFFFFFFFFFFFFFFFFFFFFFFFFFFFFFFFFFFFFFF AND SUB PUSH2 0x3E29 JUMPI PUSH2 0x3D6B PUSH8 0x7D0E7EBB2AAD7ECC PUSH1 0xC0 SHL PUSH2 0x48A4 JUMP JUMPDEST PUSH2 0x3D7F PUSH8 0xDBC9833569FE0E5B PUSH1 0xC0 SHL PUSH2 0x48A4 JUMP JUMPDEST PUSH2 0x3D93 PUSH8 0x9022F5003BACAFC7 PUSH1 0xC0 SHL PUSH2 0x48A4 JUMP JUMPDEST DUP3 PUSH1 0x20 ADD PUSH1 0x20 ADD CALLDATALOAD CALLVALUE LT ISZERO PUSH2 0x3E10 JUMPI PUSH2 0x3DB6 PUSH8 0x78D14668176521F9 PUSH1 0xC0 SHL PUSH2 0x48A4 JUMP JUMPDEST PUSH2 0x3DCA PUSH8 0xC620883558DBB24B PUSH1 0xC0 SHL PUSH2 0x48A4 JUMP JUMPDEST CALLVALUE DUP4 PUSH1 0x20 ADD PUSH1 0x20 ADD CALLDATALOAD PUSH1 0x40 MLOAD PUSH32 0x4157BB400000000000000000000000000000000000000000000000000000000 DUP2 MSTORE PUSH1 0x4 ADD PUSH2 0x3E07 SWAP3 SWAP2 SWAP1 PUSH2 0x5E9D JUMP JUMPDEST PUSH1 0x40 MLOAD DUP1 SWAP2 SUB SWAP1 REVERT JUMPDEST PUSH2 0x3E24 PUSH8 0xB649A41313E3FCA0 PUSH1 0xC0 SHL PUSH2 0x48A4 JUMP JUMPDEST PUSH2 0x3EAF JUMP JUMPDEST PUSH2 0x3E3D PUSH8 0xDCA7F0240818CAE8 PUSH1 0xC0 SHL PUSH2 0x48A4 JUMP JUMPDEST PUSH2 0x3E51 PUSH8 0x785824C5453859F8 PUSH1 0xC0 SHL PUSH2 0x48A4 JUMP JUMPDEST PUSH2 0x3E65 PUSH8 0x4E6A00813BC4DD9B PUSH1 0xC0 SHL PUSH2 0x48A4 JUMP JUMPDEST PUSH2 0x3EAE CALLER ADDRESS DUP6 PUSH1 0x20 ADD PUSH1 0x20 ADD CALLDATALOAD DUP7 PUSH1 0x20 ADD PUSH1 0x0 ADD PUSH1 0x20 DUP2 ADD SWAP1 PUSH2 0x3E88 SWAP2 SWAP1 PUSH2 0x5FD2 JUMP JUMPDEST PUSH20 0xFFFFFFFFFFFFFFFFFFFFFFFFFFFFFFFFFFFFFFFF AND PUSH2 0x516D SWAP1 SWAP4 SWAP3 SWAP2 SWAP1 PUSH4 0xFFFFFFFF AND JUMP JUMPDEST JUMPDEST PUSH2 0x3EC3 PUSH8 0xA7EFBBB8976CE216 PUSH1 0xC0 SHL PUSH2 0x48A4 JUMP JUMPDEST PUSH2 0x3ED7 PUSH8 0x1D4A502DD9A2F95F PUSH1 0xC0 SHL PUSH2 0x48A4 JUMP JUMPDEST DUP1 PUSH32 0x8B82D32987F9A4AE1BC7868A6F104EDB711227EC3C9FCCB0416A14FCC29BEC5A PUSH1 0x40 MLOAD PUSH1 0x40 MLOAD DUP1 SWAP2 SUB SWAP1 LOG2 PUSH2 0x3F18 PUSH8 0x397C2544966F808D PUSH1 0xC0 SHL PUSH2 0x48A4 JUMP JUMPDEST PUSH2 0x3F2C PUSH8 0xE6064E79633459E PUSH1 0xC0 SHL PUSH2 0x48A4 JUMP JUMPDEST DUP1 SWAP2 POP POP PUSH2 0x3F38 PUSH2 0x5149 JUMP JUMPDEST SWAP2 SWAP1 POP JUMP JUMPDEST PUSH2 0x3F51 PUSH8 0x7175EB8F16C40E5D PUSH1 0xC0 SHL PUSH2 0x48A4 JUMP JUMPDEST PUSH2 0x3F59 PUSH2 0x48A7 JUMP JUMPDEST PUSH2 0x3F6D PUSH8 0xDCD1872FAE6C5A63 PUSH1 0xC0 SHL PUSH2 0x48A4 JUMP JUMPDEST PUSH2 0x3F81 PUSH8 0x4FC7F6BE666CF68D PUSH1 0xC0 SHL PUSH2 0x48A4 JUMP JUMPDEST DUP1 PUSH2 0x3F96 PUSH8 0x18B2B56D066EFD04 PUSH1 0xC0 SHL PUSH2 0x48FE JUMP JUMPDEST PUSH2 0x3FAA PUSH8 0x7B1B1FFA8FAD79B1 PUSH1 0xC0 SHL PUSH2 0x48FE JUMP JUMPDEST PUSH2 0x3FBE PUSH8 0x3D390455BB908403 PUSH1 0xC0 SHL PUSH2 0x48FE JUMP JUMPDEST PUSH1 0x0 DUP1 SHL PUSH1 0x0 DUP1 DUP4 DUP2 MSTORE PUSH1 0x20 ADD SWAP1 DUP2 MSTORE PUSH1 0x20 ADD PUSH1 0x0 KECCAK256 PUSH1 0x0 ADD SLOAD SUB PUSH2 0x4037 JUMPI PUSH2 0x3FF1 PUSH8 0xCED22D93201B06D5 PUSH1 0xC0 SHL PUSH2 0x48FE JUMP JUMPDEST PUSH2 0x4005 PUSH8 0xD22590866453AFF2 PUSH1 0xC0 SHL PUSH2 0x48FE JUMP JUMPDEST PUSH1 0x40 MLOAD PUSH32 0x5DCAF2D700000000000000000000000000000000000000000000000000000000 DUP2 MSTORE PUSH1 0x4 ADD PUSH1 0x40 MLOAD DUP1 SWAP2 SUB SWAP1 REVERT JUMPDEST PUSH2 0x404B PUSH8 0x393A760C1805114 PUSH1 0xC0 SHL PUSH2 0x48FE JUMP JUMPDEST PUSH2 0x405F PUSH8 0xF3C8792634AF1151 PUSH1 0xC0 SHL PUSH2 0x48FE JUMP JUMPDEST PUSH2 0x4073 PUSH8 0xF85592E51A19F6D2 PUSH1 0xC0 SHL PUSH2 0x48A4 JUMP JUMPDEST PUSH2 0x4087 PUSH8 0x9FD121DE9292902E PUSH1 0xC0 SHL PUSH2 0x48A4 JUMP JUMPDEST PUSH2 0x409B PUSH8 0x2CADEBEA0EE07392 PUSH1 0xC0 SHL PUSH2 0x48A4 JUMP JUMPDEST PUSH2 0x40AF PUSH8 0x119E20D12C52D03E PUSH1 0xC0 SHL PUSH2 0x48A4 JUMP JUMPDEST PUSH1 0x0 PUSH1 0x2 PUSH1 0x0 DUP5 DUP2 MSTORE PUSH1 0x20 ADD SWAP1 DUP2 MSTORE PUSH1 0x20 ADD PUSH1 0x0 KECCAK256 PUSH1 0x0 CALLER PUSH20 0xFFFFFFFFFFFFFFFFFFFFFFFFFFFFFFFFFFFFFFFF AND PUSH20 0xFFFFFFFFFFFFFFFFFFFFFFFFFFFFFFFFFFFFFFFF AND DUP2 MSTORE PUSH1 0x20 ADD SWAP1 DUP2 MSTORE PUSH1 0x20 ADD PUSH1 0x0 KECCAK256 SWAP1 POP PUSH2 0x4117 PUSH8 0xCAE4E01D426AD594 PUSH1 0xC0 SHL PUSH2 0x48A4 JUMP JUMPDEST PUSH2 0x412B PUSH8 0xEDD26B8CD2A734FA PUSH1 0xC0 SHL PUSH2 0x48A4 JUMP JUMPDEST CALLER PUSH20 0xFFFFFFFFFFFFFFFFFFFFFFFFFFFFFFFFFFFFFFFF AND DUP2 PUSH1 0x2 ADD PUSH1 0x1 SWAP1 SLOAD SWAP1 PUSH2 0x100 EXP SWAP1 DIV PUSH20 0xFFFFFFFFFFFFFFFFFFFFFFFFFFFFFFFFFFFFFFFF AND PUSH20 0xFFFFFFFFFFFFFFFFFFFFFFFFFFFFFFFFFFFFFFFF AND EQ PUSH2 0x41DC JUMPI PUSH2 0x4196 PUSH8 0xABB024BC22895109 PUSH1 0xC0 SHL PUSH2 0x48A4 JUMP JUMPDEST PUSH2 0x41AA PUSH8 0xE28E6E33A7B09C75 PUSH1 0xC0 SHL PUSH2 0x48A4 JUMP JUMPDEST PUSH1 0x40 MLOAD PUSH32 0x978F045600000000000000000000000000000000000000000000000000000000 DUP2 MSTORE PUSH1 0x4 ADD PUSH1 0x40 MLOAD DUP1 SWAP2 SUB SWAP1 REVERT JUMPDEST PUSH2 0x41F0 PUSH8 0xCEDCF0804FFD4E11 PUSH1 0xC0 SHL PUSH2 0x48A4 JUMP JUMPDEST PUSH2 0x4204 PUSH8 0x3D0E285C2D874077 PUSH1 0xC0 SHL PUSH2 0x48A4 JUMP JUMPDEST PUSH2 0x4218 PUSH8 0x9E71C0A064231823 PUSH1 0xC0 SHL PUSH2 0x48A4 JUMP JUMPDEST PUSH1 0x2 DUP1 DUP2 GT ISZERO PUSH2 0x422B JUMPI PUSH2 0x422A PUSH2 0x5D4A JUMP JUMPDEST JUMPDEST DUP2 PUSH1 0x2 ADD PUSH1 0x0 SWAP1 SLOAD SWAP1 PUSH2 0x100 EXP SWAP1 DIV PUSH1 0xFF AND PUSH1 0x2 DUP2 GT ISZERO PUSH2 0x424F JUMPI PUSH2 0x424E PUSH2 0x5D4A JUMP JUMPDEST JUMPDEST EQ PUSH2 0x42CA JUMPI PUSH2 0x4268 PUSH8 0x1A8F773FDAC8A760 PUSH1 0xC0 SHL PUSH2 0x48A4 JUMP JUMPDEST PUSH2 0x427C PUSH8 0x202400C8E5C4EF2E PUSH1 0xC0 SHL PUSH2 0x48A4 JUMP JUMPDEST DUP1 PUSH1 0x2 ADD PUSH1 0x0 SWAP1 SLOAD SWAP1 PUSH2 0x100 EXP SWAP1 DIV PUSH1 0xFF AND PUSH1 0x40 MLOAD PUSH32 0x64B08C0600000000000000000000000000000000000000000000000000000000 DUP2 MSTORE PUSH1 0x4 ADD PUSH2 0x42C1 SWAP2 SWAP1 PUSH2 0x6194 JUMP JUMPDEST PUSH1 0x40 MLOAD DUP1 SWAP2 SUB SWAP1 REVERT JUMPDEST PUSH2 0x42DE PUSH8 0x8412DF0A3E26E52 PUSH1 0xC0 SHL PUSH2 0x48A4 JUMP JUMPDEST PUSH2 0x42F2 PUSH8 0x1998925C9906D0E PUSH1 0xC0 SHL PUSH2 0x48A4 JUMP JUMPDEST PUSH1 0x0 DUP2 PUSH1 0x2 ADD PUSH1 0x0 PUSH2 0x100 EXP DUP2 SLOAD DUP2 PUSH1 0xFF MUL NOT AND SWAP1 DUP4 PUSH1 0x2 DUP2 GT ISZERO PUSH2 0x431A JUMPI PUSH2 0x4319 PUSH2 0x5D4A JUMP JUMPDEST JUMPDEST MUL OR SWAP1 SSTORE POP PUSH2 0x4333 PUSH8 0xB2EEC490590D66ED PUSH1 0xC0 SHL PUSH2 0x48A4 JUMP JUMPDEST PUSH2 0x4347 PUSH8 0xF3D341F18ECA7AD3 PUSH1 0xC0 SHL PUSH2 0x48A4 JUMP JUMPDEST PUSH1 0x0 DUP1 PUSH1 0x0 DUP6 DUP2 MSTORE PUSH1 0x20 ADD SWAP1 DUP2 MSTORE PUSH1 0x20 ADD PUSH1 0x0 KECCAK256 PUSH1 0x5 ADD SWAP1 POP PUSH2 0x4374 PUSH8 0xA4FD8B341B4FE51D PUSH1 0xC0 SHL PUSH2 0x48A4 JUMP JUMPDEST PUSH2 0x4388 PUSH8 0x80746C30B94CD21E PUSH1 0xC0 SHL PUSH2 0x48A4 JUMP JUMPDEST PUSH1 0x0 PUSH20 0xFFFFFFFFFFFFFFFFFFFFFFFFFFFFFFFFFFFFFFFF AND DUP2 PUSH1 0x0 ADD PUSH1 0x0 SWAP1 SLOAD SWAP1 PUSH2 0x100 EXP SWAP1 DIV PUSH20 0xFFFFFFFFFFFFFFFFFFFFFFFFFFFFFFFFFFFFFFFF AND PUSH20 0xFFFFFFFFFFFFFFFFFFFFFFFFFFFFFFFFFFFFFFFF AND EQ PUSH2 0x4498 JUMPI PUSH2 0x43F4 PUSH8 0x2F636095F768450B PUSH1 0xC0 SHL PUSH2 0x48A4 JUMP JUMPDEST PUSH2 0x4408 PUSH8 0xB82C245063437480 PUSH1 0xC0 SHL PUSH2 0x48A4 JUMP JUMPDEST PUSH2 0x441C PUSH8 0x567C71BB545F620 PUSH1 0xC0 SHL PUSH2 0x48A4 JUMP JUMPDEST PUSH2 0x4493 DUP3 PUSH1 0x2 ADD PUSH1 0x1 SWAP1 SLOAD SWAP1 PUSH2 0x100 EXP SWAP1 DIV PUSH20 0xFFFFFFFFFFFFFFFFFFFFFFFFFFFFFFFFFFFFFFFF AND DUP4 PUSH1 0x0 ADD SLOAD DUP4 PUSH1 0x0 ADD PUSH1 0x0 SWAP1 SLOAD SWAP1 PUSH2 0x100 EXP SWAP1 DIV PUSH20 0xFFFFFFFFFFFFFFFFFFFFFFFFFFFFFFFFFFFFFFFF AND PUSH20 0xFFFFFFFFFFFFFFFFFFFFFFFFFFFFFFFFFFFFFFFF AND PUSH2 0x57B8 SWAP1 SWAP3 SWAP2 SWAP1 PUSH4 0xFFFFFFFF AND JUMP JUMPDEST PUSH2 0x45F2 JUMP JUMPDEST PUSH2 0x44AC PUSH8 0x3FFE9C8139E58EDF PUSH1 0xC0 SHL PUSH2 0x48A4 JUMP JUMPDEST PUSH2 0x44C0 PUSH8 0xE443307895B9B2F0 PUSH1 0xC0 SHL PUSH2 0x48A4 JUMP JUMPDEST PUSH2 0x44D4 PUSH8 0xC82E6D277080D3AF PUSH1 0xC0 SHL PUSH2 0x48A4 JUMP JUMPDEST PUSH1 0x0 CALLER PUSH20 0xFFFFFFFFFFFFFFFFFFFFFFFFFFFFFFFFFFFFFFFF AND DUP4 PUSH1 0x0 ADD SLOAD PUSH1 0x40 MLOAD PUSH2 0x44FE SWAP1 PUSH2 0x6894 JUMP JUMPDEST PUSH1 0x0 PUSH1 0x40 MLOAD DUP1 DUP4 SUB DUP2 DUP6 DUP8 GAS CALL SWAP3 POP POP POP RETURNDATASIZE DUP1 PUSH1 0x0 DUP2 EQ PUSH2 0x453B JUMPI PUSH1 0x40 MLOAD SWAP2 POP PUSH1 0x1F NOT PUSH1 0x3F RETURNDATASIZE ADD AND DUP3 ADD PUSH1 0x40 MSTORE RETURNDATASIZE DUP3 MSTORE RETURNDATASIZE PUSH1 0x0 PUSH1 0x20 DUP5 ADD RETURNDATACOPY PUSH2 0x4540 JUMP JUMPDEST PUSH1 0x60 SWAP2 POP JUMPDEST POP POP SWAP1 POP PUSH2 0x4558 PUSH8 0x97877B61A270DEA4 PUSH1 0xC0 SHL PUSH2 0x48A4 JUMP JUMPDEST PUSH2 0x456C PUSH8 0x159F04B54AD12F0E PUSH1 0xC0 SHL PUSH2 0x48A4 JUMP JUMPDEST DUP1 PUSH2 0x45DC JUMPI PUSH2 0x4585 PUSH8 0xC48DA951E8E6FF3F PUSH1 0xC0 SHL PUSH2 0x48A4 JUMP JUMPDEST PUSH2 0x4599 PUSH8 0xB8299B6C671075A5 PUSH1 0xC0 SHL PUSH2 0x48A4 JUMP JUMPDEST CALLER DUP4 PUSH1 0x0 ADD SLOAD PUSH1 0x40 MLOAD PUSH32 0x1C43B97600000000000000000000000000000000000000000000000000000000 DUP2 MSTORE PUSH1 0x4 ADD PUSH2 0x45D3 SWAP3 SWAP2 SWAP1 PUSH2 0x68A9 JUMP JUMPDEST PUSH1 0x40 MLOAD DUP1 SWAP2 SUB SWAP1 REVERT JUMPDEST PUSH2 0x45F0 PUSH8 0x5D72593DBA1778A2 PUSH1 0xC0 SHL PUSH2 0x48A4 JUMP JUMPDEST POP JUMPDEST PUSH2 0x4606 PUSH8 0xAE97370E18136AD1 PUSH1 0xC0 SHL PUSH2 0x48A4 JUMP JUMPDEST PUSH2 0x461A PUSH8 0xB1F79653F2424DB7 PUSH1 0xC0 SHL PUSH2 0x48A4 JUMP JUMPDEST DUP2 PUSH1 0x2 ADD PUSH1 0x1 SWAP1 SLOAD SWAP1 PUSH2 0x100 EXP SWAP1 DIV PUSH20 0xFFFFFFFFFFFFFFFFFFFFFFFFFFFFFFFFFFFFFFFF AND PUSH20 0xFFFFFFFFFFFFFFFFFFFFFFFFFFFFFFFFFFFFFFFF AND DUP5 PUSH32 0x6C2A0BB8117ECFBC53A4385A5421BE8EB081718159B9EB3D7C273ECB07FE7CFD PUSH1 0x40 MLOAD PUSH1 0x40 MLOAD DUP1 SWAP2 SUB SWAP1 LOG3 POP POP POP PUSH2 0x468D PUSH2 0x5149 JUMP JUMPDEST POP JUMP JUMPDEST PUSH2 0x4698 PUSH2 0x5584 JUMP JUMPDEST PUSH1 0x0 PUSH20 0xFFFFFFFFFFFFFFFFFFFFFFFFFFFFFFFFFFFFFFFF AND DUP2 PUSH20 0xFFFFFFFFFFFFFFFFFFFFFFFFFFFFFFFFFFFFFFFF AND SUB PUSH2 0x470A JUMPI PUSH1 0x0 PUSH1 0x40 MLOAD PUSH32 0x1E4FBDF700000000000000000000000000000000000000000000000000000000 DUP2 MSTORE PUSH1 0x4 ADD PUSH2 0x4701 SWAP2 SWAP1 PUSH2 0x5EC6 JUMP JUMPDEST PUSH1 0x40 MLOAD DUP1 SWAP2 SUB SWAP1 REVERT JUMPDEST PUSH2 0x4713 DUP2 PUSH2 0x560B JUMP JUMPDEST POP JUMP JUMPDEST PUSH1 0x0 PUSH1 0x20 MSTORE DUP1 PUSH1 0x0 MSTORE PUSH1 0x40 PUSH1 0x0 KECCAK256 PUSH1 0x0 SWAP2 POP SWAP1 POP DUP1 PUSH1 0x0 ADD SLOAD SWAP1 DUP1 PUSH1 0x1 ADD PUSH1 0x0 SWAP1 SLOAD SWAP1 PUSH2 0x100 EXP SWAP1 DIV PUSH1 0xFF AND SWAP1 DUP1 PUSH1 0x1 ADD PUSH1 0x1 SWAP1 SLOAD SWAP1 PUSH2 0x100 EXP SWAP1 DIV PUSH20 0xFFFFFFFFFFFFFFFFFFFFFFFFFFFFFFFFFFFFFFFF AND SWAP1 DUP1 PUSH1 0x2 ADD PUSH1 0x40 MLOAD DUP1 PUSH1 0x40 ADD PUSH1 0x40 MSTORE SWAP1 DUP2 PUSH1 0x0 DUP3 ADD PUSH1 0x0 SWAP1 SLOAD SWAP1 PUSH2 0x100 EXP SWAP1 DIV PUSH20 0xFFFFFFFFFFFFFFFFFFFFFFFFFFFFFFFFFFFFFFFF AND PUSH20 0xFFFFFFFFFFFFFFFFFFFFFFFFFFFFFFFFFFFFFFFF AND PUSH20 0xFFFFFFFFFFFFFFFFFFFFFFFFFFFFFFFFFFFFFFFF AND DUP2 MSTORE PUSH1 0x20 ADD PUSH1 0x1 DUP3 ADD SLOAD DUP2 MSTORE POP POP SWAP1 DUP1 PUSH1 0x4 ADD PUSH1 0x0 SWAP1 SLOAD SWAP1 PUSH2 0x100 EXP SWAP1 DIV PUSH20 0xFFFFFFFFFFFFFFFFFFFFFFFFFFFFFFFFFFFFFFFF AND SWAP1 DUP1 PUSH1 0x5 ADD PUSH1 0x40 MLOAD DUP1 PUSH1 0x40 ADD PUSH1 0x40 MSTORE SWAP1 DUP2 PUSH1 0x0 DUP3 ADD PUSH1 0x0 SWAP1 SLOAD SWAP1 PUSH2 0x100 EXP SWAP1 DIV PUSH20 0xFFFFFFFFFFFFFFFFFFFFFFFFFFFFFFFFFFFFFFFF AND PUSH20 0xFFFFFFFFFFFFFFFFFFFFFFFFFFFFFFFFFFFFFFFF AND PUSH20 0xFFFFFFFFFFFFFFFFFFFFFFFFFFFFFFFFFFFFFFFF AND DUP2 MSTORE PUSH1 0x20 ADD PUSH1 0x1 DUP3 ADD SLOAD DUP2 MSTORE POP POP SWAP1 DUP1 PUSH1 0x7 ADD SLOAD SWAP1 DUP1 PUSH1 0x8 ADD SLOAD SWAP1 DUP1 PUSH1 0x9 ADD SLOAD SWAP1 DUP1 PUSH1 0xA ADD SLOAD SWAP1 DUP1 PUSH1 0xB ADD SLOAD SWAP1 DUP1 PUSH1 0xC ADD PUSH1 0x0 SWAP1 SLOAD SWAP1 PUSH2 0x100 EXP SWAP1 DIV PUSH1 0xFF AND SWAP1 POP DUP13 JUMP JUMPDEST POP JUMP JUMPDEST PUSH1 0x0 PUSH2 0x48B1 PUSH2 0x5924 JUMP JUMPDEST SWAP1 POP PUSH1 0x2 DUP2 PUSH1 0x0 ADD SLOAD SUB PUSH2 0x48F1 JUMPI PUSH1 0x40 MLOAD PUSH32 0x3EE5AEB500000000000000000000000000000000000000000000000000000000 DUP2 MSTORE PUSH1 0x4 ADD PUSH1 0x40 MLOAD DUP1 SWAP2 SUB SWAP1 REVERT JUMPDEST PUSH1 0x2 DUP2 PUSH1 0x0 ADD DUP2 SWAP1 SSTORE POP POP JUMP JUMPDEST POP JUMP JUMPDEST PUSH2 0x4915 PUSH8 0xF7EE300B036B2DEE PUSH1 0xC0 SHL PUSH2 0x48A4 JUMP JUMPDEST PUSH2 0x4929 PUSH8 0xD09858CFEFCFCA4E PUSH1 0xC0 SHL PUSH2 0x48A4 JUMP JUMPDEST PUSH2 0x493D PUSH8 0xA680E531DC6CB142 PUSH1 0xC0 SHL PUSH2 0x48A4 JUMP JUMPDEST PUSH1 0x0 PUSH1 0x1 PUSH1 0x0 DUP5 PUSH1 0x0 ADD SLOAD DUP2 MSTORE PUSH1 0x20 ADD SWAP1 DUP2 MSTORE PUSH1 0x20 ADD PUSH1 0x0 KECCAK256 DUP1 SLOAD DUP1 PUSH1 0x20 MUL PUSH1 0x20 ADD PUSH1 0x40 MLOAD SWAP1 DUP2 ADD PUSH1 0x40 MSTORE DUP1 SWAP3 SWAP2 SWAP1 DUP2 DUP2 MSTORE PUSH1 0x20 ADD PUSH1 0x0 SWAP1 JUMPDEST DUP3 DUP3 LT ISZERO PUSH2 0x49BC JUMPI DUP4 DUP3 SWAP1 PUSH1 0x0 MSTORE PUSH1 0x20 PUSH1 0x0 KECCAK256 SWAP1 PUSH1 0x2 MUL ADD PUSH1 0x40 MLOAD DUP1 PUSH1 0x40 ADD PUSH1 0x40 MSTORE SWAP1 DUP2 PUSH1 0x0 DUP3 ADD SLOAD DUP2 MSTORE PUSH1 0x20 ADD PUSH1 0x1 DUP3 ADD SLOAD DUP2 MSTORE POP POP DUP2 MSTORE PUSH1 0x20 ADD SWAP1 PUSH1 0x1 ADD SWAP1 PUSH2 0x4976 JUMP JUMPDEST POP POP POP POP SWAP1 POP PUSH2 0x49D6 PUSH8 0x81C6EEF3A7DEF5DC PUSH1 0xC0 SHL PUSH2 0x48A4 JUMP JUMPDEST PUSH2 0x49EA PUSH8 0x4188EA0F808C97B3 PUSH1 0xC0 SHL PUSH2 0x48A4 JUMP JUMPDEST PUSH1 0x0 DUP2 MLOAD SUB PUSH2 0x4B11 JUMPI PUSH2 0x4A07 PUSH8 0xFE044C7CC880BAF8 PUSH1 0xC0 SHL PUSH2 0x48A4 JUMP JUMPDEST PUSH2 0x4A1B PUSH8 0x8DA134E315B4E9ED PUSH1 0xC0 SHL PUSH2 0x48A4 JUMP JUMPDEST PUSH2 0x4A2F PUSH8 0xAF6D3BB2802FC9E2 PUSH1 0xC0 SHL PUSH2 0x48A4 JUMP JUMPDEST DUP3 PUSH1 0x2 ADD PUSH1 0x0 ADD PUSH1 0x0 SWAP1 SLOAD SWAP1 PUSH2 0x100 EXP SWAP1 DIV PUSH20 0xFFFFFFFFFFFFFFFFFFFFFFFFFFFFFFFFFFFFFFFF AND PUSH20 0xFFFFFFFFFFFFFFFFFFFFFFFFFFFFFFFFFFFFFFFF AND PUSH20 0x0 PUSH4 0x6CF2280 SWAP1 SWAP2 DUP5 DUP7 PUSH1 0x2 ADD PUSH1 0x1 ADD SLOAD PUSH1 0x6 SLOAD PUSH2 0x2710 PUSH1 0x4 PUSH1 0x0 SWAP1 SLOAD SWAP1 PUSH2 0x100 EXP SWAP1 DIV PUSH20 0xFFFFFFFFFFFFFFFFFFFFFFFFFFFFFFFFFFFFFFFF AND PUSH1 0x40 MLOAD DUP8 PUSH4 0xFFFFFFFF AND PUSH1 0xE0 SHL DUP2 MSTORE PUSH1 0x4 ADD PUSH2 0x4ADC SWAP7 SWAP6 SWAP5 SWAP4 SWAP3 SWAP2 SWAP1 PUSH2 0x61CD JUMP JUMPDEST PUSH1 0x0 PUSH1 0x40 MLOAD DUP1 DUP4 SUB DUP2 DUP7 DUP1 EXTCODESIZE ISZERO DUP1 ISZERO PUSH2 0x4AF4 JUMPI PUSH1 0x0 DUP1 REVERT JUMPDEST POP GAS DELEGATECALL ISZERO DUP1 ISZERO PUSH2 0x4B08 JUMPI RETURNDATASIZE PUSH1 0x0 DUP1 RETURNDATACOPY RETURNDATASIZE PUSH1 0x0 REVERT JUMPDEST POP POP POP POP PUSH2 0x5144 JUMP JUMPDEST PUSH2 0x4B25 PUSH8 0xDC9A3266DBB20996 PUSH1 0xC0 SHL PUSH2 0x48A4 JUMP JUMPDEST PUSH2 0x4B39 PUSH8 0xDFE15A058A46A54 PUSH1 0xC0 SHL PUSH2 0x48A4 JUMP JUMPDEST PUSH2 0x4B4D PUSH8 0x919CB29A9C97BCD6 PUSH1 0xC0 SHL PUSH2 0x48A4 JUMP JUMPDEST PUSH1 0x0 PUSH2 0x2710 PUSH1 0x6 SLOAD DUP6 PUSH1 0x2 ADD PUSH1 0x1 ADD SLOAD PUSH2 0x4B67 SWAP2 SWAP1 PUSH2 0x6E36 JUMP JUMPDEST PUSH2 0x4B71 SWAP2 SWAP1 PUSH2 0x6EA7 JUMP JUMPDEST SWAP1 POP PUSH2 0x4B87 PUSH8 0x35721E27D75899C9 PUSH1 0xC0 SHL PUSH2 0x48A4 JUMP JUMPDEST PUSH2 0x4B9B PUSH8 0x65E82DD6016DAD30 PUSH1 0xC0 SHL PUSH2 0x48A4 JUMP JUMPDEST PUSH1 0x0 DUP2 DUP6 PUSH1 0x2 ADD PUSH1 0x1 ADD SLOAD PUSH2 0x4BB0 SWAP2 SWAP1 PUSH2 0x6ED8 JUMP JUMPDEST SWAP1 POP PUSH2 0x4BC6 PUSH8 0x734873A3275D1F59 PUSH1 0xC0 SHL PUSH2 0x48A4 JUMP JUMPDEST PUSH2 0x4BDA PUSH8 0x859BF377DB0B4B6F PUSH1 0xC0 SHL PUSH2 0x48A4 JUMP JUMPDEST PUSH1 0x0 PUSH20 0xFFFFFFFFFFFFFFFFFFFFFFFFFFFFFFFFFFFFFFFF AND DUP6 PUSH1 0x2 ADD PUSH1 0x0 ADD PUSH1 0x0 SWAP1 SLOAD SWAP1 PUSH2 0x100 EXP SWAP1 DIV PUSH20 0xFFFFFFFFFFFFFFFFFFFFFFFFFFFFFFFFFFFFFFFF AND PUSH20 0xFFFFFFFFFFFFFFFFFFFFFFFFFFFFFFFFFFFFFFFF AND SUB PUSH2 0x4EB8 JUMPI PUSH2 0x4C49 PUSH8 0x524F3FB56BCB0954 PUSH1 0xC0 SHL PUSH2 0x48A4 JUMP JUMPDEST PUSH2 0x4C5D PUSH8 0x4AB1272D34444A8 PUSH1 0xC0 SHL PUSH2 0x48A4 JUMP JUMPDEST PUSH2 0x4C71 PUSH8 0xD80AF83313704D32 PUSH1 0xC0 SHL PUSH2 0x48A4 JUMP JUMPDEST PUSH1 0x0 PUSH1 0x4 PUSH1 0x0 SWAP1 SLOAD SWAP1 PUSH2 0x100 EXP SWAP1 DIV PUSH20 0xFFFFFFFFFFFFFFFFFFFFFFFFFFFFFFFFFFFFFFFF AND PUSH20 0xFFFFFFFFFFFFFFFFFFFFFFFFFFFFFFFFFFFFFFFF AND DUP4 PUSH1 0x40 MLOAD PUSH2 0x4CB9 SWAP1 PUSH2 0x6894 JUMP JUMPDEST PUSH1 0x0 PUSH1 0x40 MLOAD DUP1 DUP4 SUB DUP2 DUP6 DUP8 GAS CALL SWAP3 POP POP POP RETURNDATASIZE DUP1 PUSH1 0x0 DUP2 EQ PUSH2 0x4CF6 JUMPI PUSH1 0x40 MLOAD SWAP2 POP PUSH1 0x1F NOT PUSH1 0x3F RETURNDATASIZE ADD AND DUP3 ADD PUSH1 0x40 MSTORE RETURNDATASIZE DUP3 MSTORE RETURNDATASIZE PUSH1 0x0 PUSH1 0x20 DUP5 ADD RETURNDATACOPY PUSH2 0x4CFB JUMP JUMPDEST PUSH1 0x60 SWAP2 POP JUMPDEST POP POP SWAP1 POP PUSH2 0x4D13 PUSH8 0x2351838CB0BC4E59 PUSH1 0xC0 SHL PUSH2 0x48A4 JUMP JUMPDEST PUSH2 0x4D27 PUSH8 0x66A88C9D7DE73DBF PUSH1 0xC0 SHL PUSH2 0x48A4 JUMP JUMPDEST DUP1 PUSH2 0x4DB5 JUMPI PUSH2 0x4D40 PUSH8 0x730232EC1BE4F9FD PUSH1 0xC0 SHL PUSH2 0x48A4 JUMP JUMPDEST PUSH2 0x4D54 PUSH8 0x3B0AD9DC62DE7E53 PUSH1 0xC0 SHL PUSH2 0x48A4 JUMP JUMPDEST PUSH1 0x4 PUSH1 0x0 SWAP1 SLOAD SWAP1 PUSH2 0x100 EXP SWAP1 DIV PUSH20 0xFFFFFFFFFFFFFFFFFFFFFFFFFFFFFFFFFFFFFFFF AND DUP4 PUSH1 0x40 MLOAD PUSH32 0x1C43B97600000000000000000000000000000000000000000000000000000000 DUP2 MSTORE PUSH1 0x4 ADD PUSH2 0x4DAC SWAP3 SWAP2 SWAP1 PUSH2 0x68A9 JUMP JUMPDEST PUSH1 0x40 MLOAD DUP1 SWAP2 SUB SWAP1 REVERT JUMPDEST PUSH2 0x4DC9 PUSH8 0xB548F8B35E506698 PUSH1 0xC0 SHL PUSH2 0x48A4 JUMP JUMPDEST PUSH2 0x4DDD PUSH8 0x4EB94EACF93CF822 PUSH1 0xC0 SHL PUSH2 0x48A4 JUMP JUMPDEST PUSH2 0x4DF1 PUSH8 0x14019BAA97C92EAD PUSH1 0xC0 SHL PUSH2 0x48A4 JUMP JUMPDEST PUSH1 0x3 PUSH1 0x0 SWAP1 SLOAD SWAP1 PUSH2 0x100 EXP SWAP1 DIV PUSH20 0xFFFFFFFFFFFFFFFFFFFFFFFFFFFFFFFFFFFFFFFF AND PUSH20 0xFFFFFFFFFFFFFFFFFFFFFFFFFFFFFFFFFFFFFFFF AND PUSH4 0x7623F00E DUP4 DUP9 PUSH1 0x0 ADD SLOAD DUP9 DUP11 PUSH1 0x2 ADD PUSH1 0x0 ADD PUSH1 0x0 SWAP1 SLOAD SWAP1 PUSH2 0x100 EXP SWAP1 DIV PUSH20 0xFFFFFFFFFFFFFFFFFFFFFFFFFFFFFFFFFFFFFFFF AND DUP8 DUP11 PUSH1 0x40 MLOAD DUP8 PUSH4 0xFFFFFFFF AND PUSH1 0xE0 SHL DUP2 MSTORE PUSH1 0x4 ADD PUSH2 0x4E80 SWAP6 SWAP5 SWAP4 SWAP3 SWAP2 SWAP1 PUSH2 0x6FC2 JUMP JUMPDEST PUSH1 0x0 PUSH1 0x40 MLOAD DUP1 DUP4 SUB DUP2 DUP6 DUP9 DUP1 EXTCODESIZE ISZERO DUP1 ISZERO PUSH2 0x4E99 JUMPI PUSH1 0x0 DUP1 REVERT JUMPDEST POP GAS CALL ISZERO DUP1 ISZERO PUSH2 0x4EAD JUMPI RETURNDATASIZE PUSH1 0x0 DUP1 RETURNDATACOPY RETURNDATASIZE PUSH1 0x0 REVERT JUMPDEST POP POP POP POP POP POP PUSH2 0x5141 JUMP JUMPDEST PUSH2 0x4ECC PUSH8 0xD7D57CF19215B9DF PUSH1 0xC0 SHL PUSH2 0x48A4 JUMP JUMPDEST PUSH2 0x4EE0 PUSH8 0x3AA3DF3D6F38B43B PUSH1 0xC0 SHL PUSH2 0x48A4 JUMP JUMPDEST PUSH2 0x4EF4 PUSH8 0x811B8FB110D64752 PUSH1 0xC0 SHL PUSH2 0x48A4 JUMP JUMPDEST PUSH2 0x4F68 PUSH1 0x4 PUSH1 0x0 SWAP1 SLOAD SWAP1 PUSH2 0x100 EXP SWAP1 DIV PUSH20 0xFFFFFFFFFFFFFFFFFFFFFFFFFFFFFFFFFFFFFFFF AND DUP4 DUP8 PUSH1 0x2 ADD PUSH1 0x0 ADD PUSH1 0x0 SWAP1 SLOAD SWAP1 PUSH2 0x100 EXP SWAP1 DIV PUSH20 0xFFFFFFFFFFFFFFFFFFFFFFFFFFFFFFFFFFFFFFFF AND PUSH20 0xFFFFFFFFFFFFFFFFFFFFFFFFFFFFFFFFFFFFFFFF AND PUSH2 0x57B8 SWAP1 SWAP3 SWAP2 SWAP1 PUSH4 0xFFFFFFFF AND JUMP JUMPDEST PUSH2 0x4F7C PUSH8 0x81B068664C9BB357 PUSH1 0xC0 SHL PUSH2 0x48A4 JUMP JUMPDEST PUSH2 0x4F90 PUSH8 0xA676482CA3A96372 PUSH1 0xC0 SHL PUSH2 0x48A4 JUMP JUMPDEST DUP5 PUSH1 0x2 ADD PUSH1 0x0 ADD PUSH1 0x0 SWAP1 SLOAD SWAP1 PUSH2 0x100 EXP SWAP1 DIV PUSH20 0xFFFFFFFFFFFFFFFFFFFFFFFFFFFFFFFFFFFFFFFF AND PUSH20 0xFFFFFFFFFFFFFFFFFFFFFFFFFFFFFFFFFFFFFFFF AND PUSH4 0x95EA7B3 PUSH1 0x3 PUSH1 0x0 SWAP1 SLOAD SWAP1 PUSH2 0x100 EXP SWAP1 DIV PUSH20 0xFFFFFFFFFFFFFFFFFFFFFFFFFFFFFFFFFFFFFFFF AND DUP4 PUSH1 0x40 MLOAD DUP4 PUSH4 0xFFFFFFFF AND PUSH1 0xE0 SHL DUP2 MSTORE PUSH1 0x4 ADD PUSH2 0x5014 SWAP3 SWAP2 SWAP1 PUSH2 0x68A9 JUMP JUMPDEST PUSH1 0x20 PUSH1 0x40 MLOAD DUP1 DUP4 SUB DUP2 PUSH1 0x0 DUP8 GAS CALL ISZERO DUP1 ISZERO PUSH2 0x5033 JUMPI RETURNDATASIZE PUSH1 0x0 DUP1 RETURNDATACOPY RETURNDATASIZE PUSH1 0x0 REVERT JUMPDEST POP POP POP POP PUSH1 0x40 MLOAD RETURNDATASIZE PUSH1 0x1F NOT PUSH1 0x1F DUP3 ADD AND DUP3 ADD DUP1 PUSH1 0x40 MSTORE POP DUP2 ADD SWAP1 PUSH2 0x5057 SWAP2 SWAP1 PUSH2 0x68FE JUMP JUMPDEST POP PUSH2 0x506C PUSH8 0x95AAC8633251BBDE PUSH1 0xC0 SHL PUSH2 0x48A4 JUMP JUMPDEST PUSH2 0x5080 PUSH8 0x18826C7E936A2D91 PUSH1 0xC0 SHL PUSH2 0x48A4 JUMP JUMPDEST PUSH1 0x3 PUSH1 0x0 SWAP1 SLOAD SWAP1 PUSH2 0x100 EXP SWAP1 DIV PUSH20 0xFFFFFFFFFFFFFFFFFFFFFFFFFFFFFFFFFFFFFFFF AND PUSH20 0xFFFFFFFFFFFFFFFFFFFFFFFFFFFFFFFFFFFFFFFF AND PUSH4 0x7623F00E DUP7 PUSH1 0x0 ADD SLOAD DUP7 DUP9 PUSH1 0x2 ADD PUSH1 0x0 ADD PUSH1 0x0 SWAP1 SLOAD SWAP1 PUSH2 0x100 EXP SWAP1 DIV PUSH20 0xFFFFFFFFFFFFFFFFFFFFFFFFFFFFFFFFFFFFFFFF AND DUP6 DUP9 PUSH1 0x40 MLOAD DUP7 PUSH4 0xFFFFFFFF AND PUSH1 0xE0 SHL DUP2 MSTORE PUSH1 0x4 ADD PUSH2 0x510E SWAP6 SWAP5 SWAP4 SWAP3 SWAP2 SWAP1 PUSH2 0x6FC2 JUMP JUMPDEST PUSH1 0x0 PUSH1 0x40 MLOAD DUP1 DUP4 SUB DUP2 PUSH1 0x0 DUP8 DUP1 EXTCODESIZE ISZERO DUP1 ISZERO PUSH2 0x5128 JUMPI PUSH1 0x0 DUP1 REVERT JUMPDEST POP GAS CALL ISZERO DUP1 ISZERO PUSH2 0x513C JUMPI RETURNDATASIZE PUSH1 0x0 DUP1 RETURNDATACOPY RETURNDATASIZE PUSH1 0x0 REVERT JUMPDEST POP POP POP POP JUMPDEST POP POP JUMPDEST POP POP POP JUMP JUMPDEST PUSH1 0x0 PUSH2 0x5153 PUSH2 0x5924 JUMP JUMPDEST SWAP1 POP PUSH1 0x1 DUP2 PUSH1 0x0 ADD DUP2 SWAP1 SSTORE POP POP JUMP JUMPDEST PUSH1 0x0 PUSH1 0x1 SWAP1 POP SWAP2 SWAP1 POP JUMP JUMPDEST PUSH2 0x5181 PUSH8 0xD5BB11B40B8D85DE PUSH1 0xC0 SHL PUSH2 0x594C JUMP JUMPDEST PUSH2 0x5195 PUSH8 0xE0C2EE17BB22D96C PUSH1 0xC0 SHL PUSH2 0x594C JUMP JUMPDEST PUSH2 0x51A9 PUSH8 0x6DE994029DB56A81 PUSH1 0xC0 SHL PUSH2 0x594C JUMP JUMPDEST PUSH1 0x0 DUP5 SWAP1 POP PUSH2 0x51C2 PUSH8 0x260D199604F6323 PUSH1 0xC0 SHL PUSH2 0x594C JUMP JUMPDEST PUSH2 0x51D6 PUSH8 0xFF7443FC8F01649F PUSH1 0xC0 SHL PUSH2 0x594C JUMP JUMPDEST PUSH1 0x0 DUP2 PUSH20 0xFFFFFFFFFFFFFFFFFFFFFFFFFFFFFFFFFFFFFFFF AND PUSH4 0xDD62ED3E DUP7 ADDRESS PUSH1 0x40 MLOAD DUP4 PUSH4 0xFFFFFFFF AND PUSH1 0xE0 SHL DUP2 MSTORE PUSH1 0x4 ADD PUSH2 0x5213 SWAP3 SWAP2 SWAP1 PUSH2 0x616B JUMP JUMPDEST PUSH1 0x20 PUSH1 0x40 MLOAD DUP1 DUP4 SUB DUP2 DUP7 GAS STATICCALL ISZERO DUP1 ISZERO PUSH2 0x5230 JUMPI RETURNDATASIZE PUSH1 0x0 DUP1 RETURNDATACOPY RETURNDATASIZE PUSH1 0x0 REVERT JUMPDEST POP POP POP POP PUSH1 0x40 MLOAD RETURNDATASIZE PUSH1 0x1F NOT PUSH1 0x1F DUP3 ADD AND DUP3 ADD DUP1 PUSH1 0x40 MSTORE POP DUP2 ADD SWAP1 PUSH2 0x5254 SWAP2 SWAP1 PUSH2 0x7031 JUMP JUMPDEST SWAP1 POP PUSH2 0x526A PUSH8 0xEB73587EAB1B392 PUSH1 0xC0 SHL PUSH2 0x594C JUMP JUMPDEST PUSH2 0x527E PUSH8 0xFE23579011748EC PUSH1 0xC0 SHL PUSH2 0x594C JUMP JUMPDEST DUP3 DUP2 LT ISZERO PUSH2 0x52ED JUMPI PUSH2 0x529A PUSH8 0xB8C562DBE1562D62 PUSH1 0xC0 SHL PUSH2 0x594C JUMP JUMPDEST PUSH2 0x52AE PUSH8 0x5483FF18762645E3 PUSH1 0xC0 SHL PUSH2 0x594C JUMP JUMPDEST DUP1 DUP4 PUSH1 0x40 MLOAD PUSH32 0x7C8DB62F00000000000000000000000000000000000000000000000000000000 DUP2 MSTORE PUSH1 0x4 ADD PUSH2 0x52E4 SWAP3 SWAP2 SWAP1 PUSH2 0x5E9D JUMP JUMPDEST PUSH1 0x40 MLOAD DUP1 SWAP2 SUB SWAP1 REVERT JUMPDEST PUSH2 0x5301 PUSH8 0x5E9099C83112EC5E PUSH1 0xC0 SHL PUSH2 0x594C JUMP JUMPDEST PUSH2 0x5315 PUSH8 0x80B579EDA42621DE PUSH1 0xC0 SHL PUSH2 0x594C JUMP JUMPDEST PUSH2 0x5329 PUSH8 0xF0BE8341F779E4C5 PUSH1 0xC0 SHL PUSH2 0x594C JUMP JUMPDEST PUSH1 0x0 DUP3 PUSH20 0xFFFFFFFFFFFFFFFFFFFFFFFFFFFFFFFFFFFFFFFF AND PUSH4 0x70A08231 DUP8 PUSH1 0x40 MLOAD DUP3 PUSH4 0xFFFFFFFF AND PUSH1 0xE0 SHL DUP2 MSTORE PUSH1 0x4 ADD PUSH2 0x5364 SWAP2 SWAP1 PUSH2 0x5EC6 JUMP JUMPDEST PUSH1 0x20 PUSH1 0x40 MLOAD DUP1 DUP4 SUB DUP2 DUP7 GAS STATICCALL ISZERO DUP1 ISZERO PUSH2 0x5381 JUMPI RETURNDATASIZE PUSH1 0x0 DUP1 RETURNDATACOPY RETURNDATASIZE PUSH1 0x0 REVERT JUMPDEST POP POP POP POP PUSH1 0x40 MLOAD RETURNDATASIZE PUSH1 0x1F NOT PUSH1 0x1F DUP3 ADD AND DUP3 ADD DUP1 PUSH1 0x40 MSTORE POP DUP2 ADD SWAP1 PUSH2 0x53A5 SWAP2 SWAP1 PUSH2 0x7031 JUMP JUMPDEST SWAP1 POP PUSH2 0x53BB PUSH8 0x165099529F52E6AA PUSH1 0xC0 SHL PUSH2 0x594C JUMP JUMPDEST PUSH2 0x53CF PUSH8 0x33DDDEAE6F263924 PUSH1 0xC0 SHL PUSH2 0x594C JUMP JUMPDEST DUP4 DUP2 LT ISZERO PUSH2 0x543E JUMPI PUSH2 0x53EB PUSH8 0x5A4FD416A36B0EA9 PUSH1 0xC0 SHL PUSH2 0x594C JUMP JUMPDEST PUSH2 0x53FF PUSH8 0xB4190EA1C3F3FB8C PUSH1 0xC0 SHL PUSH2 0x594C JUMP JUMPDEST DUP1 DUP5 PUSH1 0x40 MLOAD PUSH32 0x4157BB400000000000000000000000000000000000000000000000000000000 DUP2 MSTORE PUSH1 0x4 ADD PUSH2 0x5435 SWAP3 SWAP2 SWAP1 PUSH2 0x5E9D JUMP JUMPDEST PUSH1 0x40 MLOAD DUP1 SWAP2 SUB SWAP1 REVERT JUMPDEST PUSH2 0x5452 PUSH8 0x294D4201CB443C2B PUSH1 0xC0 SHL PUSH2 0x594C JUMP JUMPDEST PUSH2 0x5466 PUSH8 0x2001196C2885B22A PUSH1 0xC0 SHL PUSH2 0x594C JUMP JUMPDEST PUSH2 0x547A PUSH8 0x7EA5C946CAF682E8 PUSH1 0xC0 SHL PUSH2 0x594C JUMP JUMPDEST DUP3 PUSH20 0xFFFFFFFFFFFFFFFFFFFFFFFFFFFFFFFFFFFFFFFF AND PUSH4 0x23B872DD DUP8 DUP8 DUP8 PUSH1 0x40 MLOAD DUP5 PUSH4 0xFFFFFFFF AND PUSH1 0xE0 SHL DUP2 MSTORE PUSH1 0x4 ADD PUSH2 0x54B7 SWAP4 SWAP3 SWAP2 SWAP1 PUSH2 0x705E JUMP JUMPDEST PUSH1 0x20 PUSH1 0x40 MLOAD DUP1 DUP4 SUB DUP2 PUSH1 0x0 DUP8 GAS CALL ISZERO DUP1 ISZERO PUSH2 0x54D6 JUMPI RETURNDATASIZE PUSH1 0x0 DUP1 RETURNDATACOPY RETURNDATASIZE PUSH1 0x0 REVERT JUMPDEST POP POP POP POP PUSH1 0x40 MLOAD RETURNDATASIZE PUSH1 0x1F NOT PUSH1 0x1F DUP3 ADD AND DUP3 ADD DUP1 PUSH1 0x40 MSTORE POP DUP2 ADD SWAP1 PUSH2 0x54FA SWAP2 SWAP1 PUSH2 0x68FE JUMP JUMPDEST PUSH2 0x5567 JUMPI PUSH2 0x5512 PUSH8 0x94BDDAAE641E02DA PUSH1 0xC0 SHL PUSH2 0x594C JUMP JUMPDEST PUSH2 0x5526 PUSH8 0xFBF0CE16B7F9D5B8 PUSH1 0xC0 SHL PUSH2 0x594C JUMP JUMPDEST DUP6 DUP6 DUP6 PUSH1 0x40 MLOAD PUSH32 0xCA7F5F0E00000000000000000000000000000000000000000000000000000000 DUP2 MSTORE PUSH1 0x4 ADD PUSH2 0x555E SWAP4 SWAP3 SWAP2 SWAP1 PUSH2 0x705E JUMP JUMPDEST PUSH1 0x40 MLOAD DUP1 SWAP2 SUB SWAP1 REVERT JUMPDEST PUSH2 0x557B PUSH8 0x9935C26A8EBC4C59 PUSH1 0xC0 SHL PUSH2 0x594C JUMP JUMPDEST POP POP POP POP POP POP POP JUMP JUMPDEST PUSH2 0x558C PUSH2 0x594F JUMP JUMPDEST PUSH20 0xFFFFFFFFFFFFFFFFFFFFFFFFFFFFFFFFFFFFFFFF AND PUSH2 0x55AA PUSH2 0x348B JUMP JUMPDEST PUSH20 0xFFFFFFFFFFFFFFFFFFFFFFFFFFFFFFFFFFFFFFFF AND EQ PUSH2 0x5609 JUMPI PUSH2 0x55CD PUSH2 0x594F JUMP JUMPDEST PUSH1 0x40 MLOAD PUSH32 0x118CDAA700000000000000000000000000000000000000000000000000000000 DUP2 MSTORE PUSH1 0x4 ADD PUSH2 0x5600 SWAP2 SWAP1 PUSH2 0x5EC6 JUMP JUMPDEST PUSH1 0x40 MLOAD DUP1 SWAP2 SUB SWAP1 REVERT JUMPDEST JUMP JUMPDEST PUSH1 0x0 PUSH2 0x5615 PUSH2 0x56E2 JUMP JUMPDEST SWAP1 POP PUSH1 0x0 DUP2 PUSH1 0x0 ADD PUSH1 0x0 SWAP1 SLOAD SWAP1 PUSH2 0x100 EXP SWAP1 DIV PUSH20 0xFFFFFFFFFFFFFFFFFFFFFFFFFFFFFFFFFFFFFFFF AND SWAP1 POP DUP3 DUP3 PUSH1 0x0 ADD PUSH1 0x0 PUSH2 0x100 EXP DUP2 SLOAD DUP2 PUSH20 0xFFFFFFFFFFFFFFFFFFFFFFFFFFFFFFFFFFFFFFFF MUL NOT AND SWAP1 DUP4 PUSH20 0xFFFFFFFFFFFFFFFFFFFFFFFFFFFFFFFFFFFFFFFF AND MUL OR SWAP1 SSTORE POP DUP3 PUSH20 0xFFFFFFFFFFFFFFFFFFFFFFFFFFFFFFFFFFFFFFFF AND DUP2 PUSH20 0xFFFFFFFFFFFFFFFFFFFFFFFFFFFFFFFFFFFFFFFF AND PUSH32 0x8BE0079C531659141344CD1FD0A4F28419497F9722A3DAAFE3B4186F6B6457E0 PUSH1 0x40 MLOAD PUSH1 0x40 MLOAD DUP1 SWAP2 SUB SWAP1 LOG3 POP POP POP JUMP JUMPDEST PUSH1 0x0 PUSH32 0x9016D09D72D40FDAE2FD8CEAC6B6234C7706214FD39C1CD1E609A0528C199300 SWAP1 POP SWAP1 JUMP JUMPDEST PUSH1 0x0 PUSH32 0xF0C57E16840DF040F15088DC2F81FE391C3923BEC73E23A9662EFC9C229C6A00 SWAP1 POP SWAP1 JUMP JUMPDEST PUSH2 0x573A PUSH2 0x5957 JUMP JUMPDEST PUSH1 0x0 PUSH20 0xFFFFFFFFFFFFFFFFFFFFFFFFFFFFFFFFFFFFFFFF AND DUP2 PUSH20 0xFFFFFFFFFFFFFFFFFFFFFFFFFFFFFFFFFFFFFFFF AND SUB PUSH2 0x57AC JUMPI PUSH1 0x0 PUSH1 0x40 MLOAD PUSH32 0x1E4FBDF700000000000000000000000000000000000000000000000000000000 DUP2 MSTORE PUSH1 0x4 ADD PUSH2 0x57A3 SWAP2 SWAP1 PUSH2 0x5EC6 JUMP JUMPDEST PUSH1 0x40 MLOAD DUP1 SWAP2 SUB SWAP1 REVERT JUMPDEST PUSH2 0x57B5 DUP2 PUSH2 0x560B JUMP JUMPDEST POP JUMP JUMPDEST PUSH2 0x57CC PUSH8 0xACEF6BA5CB7B0DA4 PUSH1 0xC0 SHL PUSH2 0x594C JUMP JUMPDEST PUSH2 0x57E0 PUSH8 0x547F2E2C49B2D620 PUSH1 0xC0 SHL PUSH2 0x594C JUMP JUMPDEST PUSH2 0x57F4 PUSH8 0x40F0D2AE8D2EFD08 PUSH1 0xC0 SHL PUSH2 0x594C JUMP JUMPDEST PUSH1 0x0 DUP4 SWAP1 POP PUSH2 0x580D PUSH8 0x617C27E05E4586AD PUSH1 0xC0 SHL PUSH2 0x594C JUMP JUMPDEST PUSH2 0x5821 PUSH8 0x9382A20C72CA1B2B PUSH1 0xC0 SHL PUSH2 0x594C JUMP JUMPDEST DUP1 PUSH20 0xFFFFFFFFFFFFFFFFFFFFFFFFFFFFFFFFFFFFFFFF AND PUSH4 0xA9059CBB DUP5 DUP5 PUSH1 0x40 MLOAD DUP4 PUSH4 0xFFFFFFFF AND PUSH1 0xE0 SHL DUP2 MSTORE PUSH1 0x4 ADD PUSH2 0x585C SWAP3 SWAP2 SWAP1 PUSH2 0x68A9 JUMP JUMPDEST PUSH1 0x20 PUSH1 0x40 MLOAD DUP1 DUP4 SUB DUP2 PUSH1 0x0 DUP8 GAS CALL ISZERO DUP1 ISZERO PUSH2 0x587B JUMPI RETURNDATASIZE PUSH1 0x0 DUP1 RETURNDATACOPY RETURNDATASIZE PUSH1 0x0 REVERT JUMPDEST POP POP POP POP PUSH1 0x40 MLOAD RETURNDATASIZE PUSH1 0x1F NOT PUSH1 0x1F DUP3 ADD AND DUP3 ADD DUP1 PUSH1 0x40 MSTORE POP DUP2 ADD SWAP1 PUSH2 0x589F SWAP2 SWAP1 PUSH2 0x68FE JUMP JUMPDEST PUSH2 0x590A JUMPI PUSH2 0x58B7 PUSH8 0x3AB56001DC249F58 PUSH1 0xC0 SHL PUSH2 0x594C JUMP JUMPDEST PUSH2 0x58CB PUSH8 0x3CBBC04E9C19DC42 PUSH1 0xC0 SHL PUSH2 0x594C JUMP JUMPDEST DUP3 DUP3 PUSH1 0x40 MLOAD PUSH32 0x1C43B97600000000000000000000000000000000000000000000000000000000 DUP2 MSTORE PUSH1 0x4 ADD PUSH2 0x5901 SWAP3 SWAP2 SWAP1 PUSH2 0x68A9 JUMP JUMPDEST PUSH1 0x40 MLOAD DUP1 SWAP2 SUB SWAP1 REVERT JUMPDEST PUSH2 0x591E PUSH8 0xFDA467EC834B964F PUSH1 0xC0 SHL PUSH2 0x594C JUMP JUMPDEST POP POP POP POP JUMP JUMPDEST PUSH1 0x0 PUSH32 0x9B779B17422D0DF92223018B32B4D1FA46E071723D6817E2486D003BECC55F00 SWAP1 POP SWAP1 JUMP JUMPDEST POP JUMP JUMPDEST PUSH1 0x0 CALLER SWAP1 POP SWAP1 JUMP JUMPDEST PUSH2 0x595F PUSH2 0x5997 JUMP JUMPDEST PUSH2 0x5995 JUMPI PUSH1 0x40 MLOAD PUSH32 0xD7E6BCF800000000000000000000000000000000000000000000000000000000 DUP2 MSTORE PUSH1 0x4 ADD PUSH1 0x40 MLOAD DUP1 SWAP2 SUB SWAP1 REVERT JUMPDEST JUMP JUMPDEST PUSH1 0x0 PUSH2 0x59A1 PUSH2 0x570A JUMP JUMPDEST PUSH1 0x0 ADD PUSH1 0x8 SWAP1 SLOAD SWAP1 PUSH2 0x100 EXP SWAP1 DIV PUSH1 0xFF AND SWAP1 POP SWAP1 JUMP JUMPDEST PUSH1 0x0 PUSH1 0x40 MLOAD SWAP1 POP SWAP1 JUMP JUMPDEST PUSH1 0x0 DUP1 REVERT JUMPDEST PUSH1 0x0 DUP1 REVERT JUMPDEST PUSH1 0x0 DUP1 REVERT JUMPDEST PUSH1 0x0 PUSH1 0x40 DUP3 DUP5 SUB SLT ISZERO PUSH2 0x59E6 JUMPI PUSH2 0x59E5 PUSH2 0x59CB JUMP JUMPDEST JUMPDEST DUP2 SWAP1 POP SWAP3 SWAP2 POP POP JUMP JUMPDEST PUSH1 0x0 PUSH1 0x40 DUP3 DUP5 SUB SLT ISZERO PUSH2 0x5A05 JUMPI PUSH2 0x5A04 PUSH2 0x59C1 JUMP JUMPDEST JUMPDEST PUSH1 0x0 PUSH2 0x5A13 DUP5 DUP3 DUP6 ADD PUSH2 0x59D0 JUMP JUMPDEST SWAP2 POP POP SWAP3 SWAP2 POP POP JUMP JUMPDEST PUSH1 0x0 PUSH1 0x40 DUP3 DUP5 SUB SLT ISZERO PUSH2 0x5A32 JUMPI PUSH2 0x5A31 PUSH2 0x59CB JUMP JUMPDEST JUMPDEST DUP2 SWAP1 POP SWAP3 SWAP2 POP POP JUMP JUMPDEST PUSH1 0x0 PUSH1 0x40 DUP3 DUP5 SUB SLT ISZERO PUSH2 0x5A51 JUMPI PUSH2 0x5A50 PUSH2 0x59C1 JUMP JUMPDEST JUMPDEST PUSH1 0x0 PUSH2 0x5A5F DUP5 DUP3 DUP6 ADD PUSH2 0x5A1C JUMP JUMPDEST SWAP2 POP POP SWAP3 SWAP2 POP POP JUMP JUMPDEST PUSH1 0x0 PUSH1 0x80 DUP3 DUP5 SUB SLT ISZERO PUSH2 0x5A7E JUMPI PUSH2 0x5A7D PUSH2 0x59CB JUMP JUMPDEST JUMPDEST DUP2 SWAP1 POP SWAP3 SWAP2 POP POP JUMP JUMPDEST PUSH1 0x0 PUSH1 0x80 DUP3 DUP5 SUB SLT ISZERO PUSH2 0x5A9D JUMPI PUSH2 0x5A9C PUSH2 0x59C1 JUMP JUMPDEST JUMPDEST PUSH1 0x0 PUSH2 0x5AAB DUP5 DUP3 DUP6 ADD PUSH2 0x5A68 JUMP JUMPDEST SWAP2 POP POP SWAP3 SWAP2 POP POP JUMP JUMPDEST PUSH1 0x0 PUSH2 0x140 DUP3 DUP5 SUB SLT ISZERO PUSH2 0x5ACB JUMPI PUSH2 0x5ACA PUSH2 0x59CB JUMP JUMPDEST JUMPDEST DUP2 SWAP1 POP SWAP3 SWAP2 POP POP JUMP JUMPDEST PUSH1 0x0 DUP1 REVERT JUMPDEST PUSH1 0x0 DUP1 REVERT JUMPDEST PUSH1 0x0 DUP1 REVERT JUMPDEST PUSH1 0x0 DUP1 DUP4 PUSH1 0x1F DUP5 ADD SLT PUSH2 0x5AF9 JUMPI PUSH2 0x5AF8 PUSH2 0x5AD4 JUMP JUMPDEST JUMPDEST DUP3 CALLDATALOAD SWAP1 POP PUSH8 0xFFFFFFFFFFFFFFFF DUP2 GT ISZERO PUSH2 0x5B16 JUMPI PUSH2 0x5B15 PUSH2 0x5AD9 JUMP JUMPDEST JUMPDEST PUSH1 0x20 DUP4 ADD SWAP2 POP DUP4 PUSH1 0x40 DUP3 MUL DUP4 ADD GT ISZERO PUSH2 0x5B32 JUMPI PUSH2 0x5B31 PUSH2 0x5ADE JUMP JUMPDEST JUMPDEST SWAP3 POP SWAP3 SWAP1 POP JUMP JUMPDEST PUSH1 0x0 DUP1 PUSH1 0x0 PUSH2 0x160 DUP5 DUP7 SUB SLT ISZERO PUSH2 0x5B53 JUMPI PUSH2 0x5B52 PUSH2 0x59C1 JUMP JUMPDEST JUMPDEST PUSH1 0x0 PUSH2 0x5B61 DUP7 DUP3 DUP8 ADD PUSH2 0x5AB4 JUMP JUMPDEST SWAP4 POP POP PUSH2 0x140 DUP5 ADD CALLDATALOAD PUSH8 0xFFFFFFFFFFFFFFFF DUP2 GT ISZERO PUSH2 0x5B83 JUMPI PUSH2 0x5B82 PUSH2 0x59C6 JUMP JUMPDEST JUMPDEST PUSH2 0x5B8F DUP7 DUP3 DUP8 ADD PUSH2 0x5AE3 JUMP JUMPDEST SWAP3 POP SWAP3 POP POP SWAP3 POP SWAP3 POP SWAP3 JUMP JUMPDEST PUSH1 0x0 PUSH1 0x20 DUP3 DUP5 SUB SLT ISZERO PUSH2 0x5BB1 JUMPI PUSH2 0x5BB0 PUSH2 0x59CB JUMP JUMPDEST JUMPDEST DUP2 SWAP1 POP SWAP3 SWAP2 POP POP JUMP JUMPDEST PUSH1 0x0 PUSH1 0x20 DUP3 DUP5 SUB SLT ISZERO PUSH2 0x5BD0 JUMPI PUSH2 0x5BCF PUSH2 0x59C1 JUMP JUMPDEST JUMPDEST PUSH1 0x0 PUSH2 0x5BDE DUP5 DUP3 DUP6 ADD PUSH2 0x5B9B JUMP JUMPDEST SWAP2 POP POP SWAP3 SWAP2 POP POP JUMP JUMPDEST PUSH1 0x0 PUSH1 0x60 DUP3 DUP5 SUB SLT ISZERO PUSH2 0x5BFD JUMPI PUSH2 0x5BFC PUSH2 0x59CB JUMP JUMPDEST JUMPDEST DUP2 SWAP1 POP SWAP3 SWAP2 POP POP JUMP JUMPDEST PUSH1 0x0 PUSH1 0x60 DUP3 DUP5 SUB SLT ISZERO PUSH2 0x5C1C JUMPI PUSH2 0x5C1B PUSH2 0x59C1 JUMP JUMPDEST JUMPDEST PUSH1 0x0 PUSH2 0x5C2A DUP5 DUP3 DUP6 ADD PUSH2 0x5BE7 JUMP JUMPDEST SWAP2 POP POP SWAP3 SWAP2 POP POP JUMP JUMPDEST PUSH1 0x0 DUP2 SWAP1 POP SWAP2 SWAP1 POP JUMP JUMPDEST PUSH2 0x5C46 DUP2 PUSH2 0x5C33 JUMP JUMPDEST DUP3 MSTORE POP POP JUMP JUMPDEST PUSH1 0x0 PUSH1 0x20 DUP3 ADD SWAP1 POP PUSH2 0x5C61 PUSH1 0x0 DUP4 ADD DUP5 PUSH2 0x5C3D JUMP JUMPDEST SWAP3 SWAP2 POP POP JUMP JUMPDEST PUSH1 0x0 DUP2 SWAP1 POP SWAP2 SWAP1 POP JUMP JUMPDEST PUSH2 0x5C7A DUP2 PUSH2 0x5C67 JUMP JUMPDEST DUP2 EQ PUSH2 0x5C85 JUMPI PUSH1 0x0 DUP1 REVERT JUMPDEST POP JUMP JUMPDEST PUSH1 0x0 DUP2 CALLDATALOAD SWAP1 POP PUSH2 0x5C97 DUP2 PUSH2 0x5C71 JUMP JUMPDEST SWAP3 SWAP2 POP POP JUMP JUMPDEST PUSH1 0x0 PUSH20 0xFFFFFFFFFFFFFFFFFFFFFFFFFFFFFFFFFFFFFFFF DUP3 AND SWAP1 POP SWAP2 SWAP1 POP JUMP JUMPDEST PUSH1 0x0 PUSH2 0x5CC8 DUP3 PUSH2 0x5C9D JUMP JUMPDEST SWAP1 POP SWAP2 SWAP1 POP JUMP JUMPDEST PUSH2 0x5CD8 DUP2 PUSH2 0x5CBD JUMP JUMPDEST DUP2 EQ PUSH2 0x5CE3 JUMPI PUSH1 0x0 DUP1 REVERT JUMPDEST POP JUMP JUMPDEST PUSH1 0x0 DUP2 CALLDATALOAD SWAP1 POP PUSH2 0x5CF5 DUP2 PUSH2 0x5CCF JUMP JUMPDEST SWAP3 SWAP2 POP POP JUMP JUMPDEST PUSH1 0x0 DUP1 PUSH1 0x40 DUP4 DUP6 SUB SLT ISZERO PUSH2 0x5D12 JUMPI PUSH2 0x5D11 PUSH2 0x59C1 JUMP JUMPDEST JUMPDEST PUSH1 0x0 PUSH2 0x5D20 DUP6 DUP3 DUP7 ADD PUSH2 0x5C88 JUMP JUMPDEST SWAP3 POP POP PUSH1 0x20 PUSH2 0x5D31 DUP6 DUP3 DUP7 ADD PUSH2 0x5CE6 JUMP JUMPDEST SWAP2 POP POP SWAP3 POP SWAP3 SWAP1 POP JUMP JUMPDEST PUSH2 0x5D44 DUP2 PUSH2 0x5C67 JUMP JUMPDEST DUP3 MSTORE POP POP JUMP JUMPDEST PUSH32 0x4E487B7100000000000000000000000000000000000000000000000000000000 PUSH1 0x0 MSTORE PUSH1 0x21 PUSH1 0x4 MSTORE PUSH1 0x24 PUSH1 0x0 REVERT JUMPDEST PUSH1 0x3 DUP2 LT PUSH2 0x5D8A JUMPI PUSH2 0x5D89 PUSH2 0x5D4A JUMP JUMPDEST JUMPDEST POP JUMP JUMPDEST PUSH1 0x0 DUP2 SWAP1 POP PUSH2 0x5D9B DUP3 PUSH2 0x5D79 JUMP JUMPDEST SWAP2 SWAP1 POP JUMP JUMPDEST PUSH1 0x0 PUSH2 0x5DAB DUP3 PUSH2 0x5D8D JUMP JUMPDEST SWAP1 POP SWAP2 SWAP1 POP JUMP JUMPDEST PUSH2 0x5DBB DUP2 PUSH2 0x5DA0 JUMP JUMPDEST DUP3 MSTORE POP POP JUMP JUMPDEST PUSH2 0x5DCA DUP2 PUSH2 0x5CBD JUMP JUMPDEST DUP3 MSTORE POP POP JUMP JUMPDEST PUSH1 0x0 PUSH1 0xC0 DUP3 ADD SWAP1 POP PUSH2 0x5DE5 PUSH1 0x0 DUP4 ADD DUP10 PUSH2 0x5C3D JUMP JUMPDEST PUSH2 0x5DF2 PUSH1 0x20 DUP4 ADD DUP9 PUSH2 0x5D3B JUMP JUMPDEST PUSH2 0x5DFF PUSH1 0x40 DUP4 ADD DUP8 PUSH2 0x5DB2 JUMP JUMPDEST PUSH2 0x5E0C PUSH1 0x60 DUP4 ADD DUP7 PUSH2 0x5DC1 JUMP JUMPDEST PUSH2 0x5E19 PUSH1 0x80 DUP4 ADD DUP6 PUSH2 0x5C3D JUMP JUMPDEST PUSH2 0x5E26 PUSH1 0xA0 DUP4 ADD DUP5 PUSH2 0x5C3D JUMP JUMPDEST SWAP8 SWAP7 POP POP POP POP POP POP POP JUMP JUMPDEST PUSH2 0x5E3A DUP2 PUSH2 0x5C33 JUMP JUMPDEST DUP2 EQ PUSH2 0x5E45 JUMPI PUSH1 0x0 DUP1 REVERT JUMPDEST POP JUMP JUMPDEST PUSH1 0x0 DUP2 CALLDATALOAD SWAP1 POP PUSH2 0x5E57 DUP2 PUSH2 0x5E31 JUMP JUMPDEST SWAP3 SWAP2 POP POP JUMP JUMPDEST PUSH1 0x0 DUP1 PUSH1 0x40 DUP4 DUP6 SUB SLT ISZERO PUSH2 0x5E74 JUMPI PUSH2 0x5E73 PUSH2 0x59C1 JUMP JUMPDEST JUMPDEST PUSH1 0x0 PUSH2 0x5E82 DUP6 DUP3 DUP7 ADD PUSH2 0x5C88 JUMP JUMPDEST SWAP3 POP POP PUSH1 0x20 PUSH2 0x5E93 DUP6 DUP3 DUP7 ADD PUSH2 0x5E48 JUMP JUMPDEST SWAP2 POP POP SWAP3 POP SWAP3 SWAP1 POP JUMP JUMPDEST PUSH1 0x0 PUSH1 0x40 DUP3 ADD SWAP1 POP PUSH2 0x5EB2 PUSH1 0x0 DUP4 ADD DUP6 PUSH2 0x5C3D JUMP JUMPDEST PUSH2 0x5EBF PUSH1 0x20 DUP4 ADD DUP5 PUSH2 0x5C3D JUMP JUMPDEST SWAP4 SWAP3 POP POP POP JUMP JUMPDEST PUSH1 0x0 PUSH1 0x20 DUP3 ADD SWAP1 POP PUSH2 0x5EDB PUSH1 0x0 DUP4 ADD DUP5 PUSH2 0x5DC1 JUMP JUMPDEST SWAP3 SWAP2 POP POP JUMP JUMPDEST PUSH1 0x0 DUP1 PUSH1 0x0 DUP1 PUSH1 0x0 PUSH1 0xA0 DUP7 DUP9 SUB SLT ISZERO PUSH2 0x5EFD JUMPI PUSH2 0x5EFC PUSH2 0x59C1 JUMP JUMPDEST JUMPDEST PUSH1 0x0 PUSH2 0x5F0B DUP9 DUP3 DUP10 ADD PUSH2 0x5CE6 JUMP JUMPDEST SWAP6 POP POP PUSH1 0x20 PUSH2 0x5F1C DUP9 DUP3 DUP10 ADD PUSH2 0x5CE6 JUMP JUMPDEST SWAP5 POP POP PUSH1 0x40 PUSH2 0x5F2D DUP9 DUP3 DUP10 ADD PUSH2 0x5CE6 JUMP JUMPDEST SWAP4 POP POP PUSH1 0x60 PUSH2 0x5F3E DUP9 DUP3 DUP10 ADD PUSH2 0x5E48 JUMP JUMPDEST SWAP3 POP POP PUSH1 0x80 PUSH2 0x5F4F DUP9 DUP3 DUP10 ADD PUSH2 0x5E48 JUMP JUMPDEST SWAP2 POP POP SWAP3 SWAP6 POP SWAP3 SWAP6 SWAP1 SWAP4 POP JUMP JUMPDEST PUSH1 0x0 PUSH2 0x140 DUP3 DUP5 SUB SLT ISZERO PUSH2 0x5F73 JUMPI PUSH2 0x5F72 PUSH2 0x59C1 JUMP JUMPDEST JUMPDEST PUSH1 0x0 PUSH2 0x5F81 DUP5 DUP3 DUP6 ADD PUSH2 0x5AB4 JUMP JUMPDEST SWAP2 POP POP SWAP3 SWAP2 POP POP JUMP JUMPDEST PUSH1 0x0 PUSH1 0x20 DUP3 ADD SWAP1 POP PUSH2 0x5F9F PUSH1 0x0 DUP4 ADD DUP5 PUSH2 0x5D3B JUMP JUMPDEST SWAP3 SWAP2 POP POP JUMP JUMPDEST PUSH1 0x0 PUSH1 0x20 DUP3 DUP5 SUB SLT ISZERO PUSH2 0x5FBB JUMPI PUSH2 0x5FBA PUSH2 0x59C1 JUMP JUMPDEST JUMPDEST PUSH1 0x0 PUSH2 0x5FC9 DUP5 DUP3 DUP6 ADD PUSH2 0x5C88 JUMP JUMPDEST SWAP2 POP POP SWAP3 SWAP2 POP POP JUMP JUMPDEST PUSH1 0x0 PUSH1 0x20 DUP3 DUP5 SUB SLT ISZERO PUSH2 0x5FE8 JUMPI PUSH2 0x5FE7 PUSH2 0x59C1 JUMP JUMPDEST JUMPDEST PUSH1 0x0 PUSH2 0x5FF6 DUP5 DUP3 DUP6 ADD PUSH2 0x5CE6 JUMP JUMPDEST SWAP2 POP POP SWAP3 SWAP2 POP POP JUMP JUMPDEST PUSH1 0x4 DUP2 LT PUSH2 0x6010 JUMPI PUSH2 0x600F PUSH2 0x5D4A JUMP JUMPDEST JUMPDEST POP JUMP JUMPDEST PUSH1 0x0 DUP2 SWAP1 POP PUSH2 0x6021 DUP3 PUSH2 0x5FFF JUMP JUMPDEST SWAP2 SWAP1 POP JUMP JUMPDEST PUSH1 0x0 PUSH2 0x6031 DUP3 PUSH2 0x6013 JUMP JUMPDEST SWAP1 POP SWAP2 SWAP1 POP JUMP JUMPDEST PUSH2 0x6041 DUP2 PUSH2 0x6026 JUMP JUMPDEST DUP3 MSTORE POP POP JUMP JUMPDEST PUSH2 0x6050 DUP2 PUSH2 0x5CBD JUMP JUMPDEST DUP3 MSTORE POP POP JUMP JUMPDEST PUSH2 0x605F DUP2 PUSH2 0x5C33 JUMP JUMPDEST DUP3 MSTORE POP POP JUMP JUMPDEST PUSH1 0x40 DUP3 ADD PUSH1 0x0 DUP3 ADD MLOAD PUSH2 0x607B PUSH1 0x0 DUP6 ADD DUP3 PUSH2 0x6047 JUMP JUMPDEST POP PUSH1 0x20 DUP3 ADD MLOAD PUSH2 0x608E PUSH1 0x20 DUP6 ADD DUP3 PUSH2 0x6056 JUMP JUMPDEST POP POP POP POP JUMP JUMPDEST PUSH1 0x0 DUP2 ISZERO ISZERO SWAP1 POP SWAP2 SWAP1 POP JUMP JUMPDEST PUSH2 0x60A9 DUP2 PUSH2 0x6094 JUMP JUMPDEST DUP3 MSTORE POP POP JUMP JUMPDEST PUSH1 0x0 PUSH2 0x1C0 DUP3 ADD SWAP1 POP PUSH2 0x60C5 PUSH1 0x0 DUP4 ADD DUP16 PUSH2 0x5D3B JUMP JUMPDEST PUSH2 0x60D2 PUSH1 0x20 DUP4 ADD DUP15 PUSH2 0x6038 JUMP JUMPDEST PUSH2 0x60DF PUSH1 0x40 DUP4 ADD DUP14 PUSH2 0x5DC1 JUMP JUMPDEST PUSH2 0x60EC PUSH1 0x60 DUP4 ADD DUP13 PUSH2 0x6065 JUMP JUMPDEST PUSH2 0x60F9 PUSH1 0xA0 DUP4 ADD DUP12 PUSH2 0x5DC1 JUMP JUMPDEST PUSH2 0x6106 PUSH1 0xC0 DUP4 ADD DUP11 PUSH2 0x6065 JUMP JUMPDEST PUSH2 0x6114 PUSH2 0x100 DUP4 ADD DUP10 PUSH2 0x5C3D JUMP JUMPDEST PUSH2 0x6122 PUSH2 0x120 DUP4 ADD DUP9 PUSH2 0x5C3D JUMP JUMPDEST PUSH2 0x6130 PUSH2 0x140 DUP4 ADD DUP8 PUSH2 0x5C3D JUMP JUMPDEST PUSH2 0x613E PUSH2 0x160 DUP4 ADD DUP7 PUSH2 0x5C3D JUMP JUMPDEST PUSH2 0x614C PUSH2 0x180 DUP4 ADD DUP6 PUSH2 0x5C3D JUMP JUMPDEST PUSH2 0x615A PUSH2 0x1A0 DUP4 ADD DUP5 PUSH2 0x60A0 JUMP JUMPDEST SWAP14 SWAP13 POP POP POP POP POP POP POP POP POP POP POP POP POP JUMP JUMPDEST PUSH1 0x0 PUSH1 0x40 DUP3 ADD SWAP1 POP PUSH2 0x6180 PUSH1 0x0 DUP4 ADD DUP6 PUSH2 0x5DC1 JUMP JUMPDEST PUSH2 0x618D PUSH1 0x20 DUP4 ADD DUP5 PUSH2 0x5DC1 JUMP JUMPDEST SWAP4 SWAP3 POP POP POP JUMP JUMPDEST PUSH1 0x0 PUSH1 0x20 DUP3 ADD SWAP1 POP PUSH2 0x61A9 PUSH1 0x0 DUP4 ADD DUP5 PUSH2 0x5DB2 JUMP JUMPDEST SWAP3 SWAP2 POP POP JUMP JUMPDEST PUSH2 0x61B8 DUP2 PUSH2 0x5CBD JUMP JUMPDEST DUP3 MSTORE POP POP JUMP JUMPDEST PUSH2 0x61C7 DUP2 PUSH2 0x5C33 JUMP JUMPDEST DUP3 MSTORE POP POP JUMP JUMPDEST PUSH1 0x0 PUSH1 0xC0 DUP3 ADD SWAP1 POP PUSH2 0x61E2 PUSH1 0x0 DUP4 ADD DUP10 PUSH2 0x61AF JUMP JUMPDEST PUSH2 0x61EF PUSH1 0x20 DUP4 ADD DUP9 PUSH2 0x61AF JUMP JUMPDEST PUSH2 0x61FC PUSH1 0x40 DUP4 ADD DUP8 PUSH2 0x61BE JUMP JUMPDEST PUSH2 0x6209 PUSH1 0x60 DUP4 ADD DUP7 PUSH2 0x61BE JUMP JUMPDEST PUSH2 0x6216 PUSH1 0x80 DUP4 ADD DUP6 PUSH2 0x61BE JUMP JUMPDEST PUSH2 0x6223 PUSH1 0xA0 DUP4 ADD DUP5 PUSH2 0x61AF JUMP JUMPDEST SWAP8 SWAP7 POP POP POP POP POP POP POP JUMP JUMPDEST PUSH1 0x0 DUP1 REVERT JUMPDEST PUSH1 0x0 PUSH1 0x1F NOT PUSH1 0x1F DUP4 ADD AND SWAP1 POP SWAP2 SWAP1 POP JUMP JUMPDEST PUSH32 0x4E487B7100000000000000000000000000000000000000000000000000000000 PUSH1 0x0 MSTORE PUSH1 0x41 PUSH1 0x4 MSTORE PUSH1 0x24 PUSH1 0x0 REVERT JUMPDEST PUSH2 0x627C DUP3 PUSH2 0x6233 JUMP JUMPDEST DUP2 ADD DUP2 DUP2 LT PUSH8 0xFFFFFFFFFFFFFFFF DUP3 GT OR ISZERO PUSH2 0x629B JUMPI PUSH2 0x629A PUSH2 0x6244 JUMP JUMPDEST JUMPDEST DUP1 PUSH1 0x40 MSTORE POP POP POP JUMP JUMPDEST PUSH1 0x0 PUSH2 0x62AE PUSH2 0x59B7 JUMP JUMPDEST SWAP1 POP PUSH2 0x62BA DUP3 DUP3 PUSH2 0x6273 JUMP JUMPDEST SWAP2 SWAP1 POP JUMP JUMPDEST PUSH1 0x0 PUSH1 0x40 DUP3 DUP5 SUB SLT ISZERO PUSH2 0x62D5 JUMPI PUSH2 0x62D4 PUSH2 0x622E JUMP JUMPDEST JUMPDEST PUSH2 0x62DF PUSH1 0x40 PUSH2 0x62A4 JUMP JUMPDEST SWAP1 POP PUSH1 0x0 PUSH2 0x62EF DUP5 DUP3 DUP6 ADD PUSH2 0x5C88 JUMP JUMPDEST PUSH1 0x0 DUP4 ADD MSTORE POP PUSH1 0x20 PUSH2 0x6303 DUP5 DUP3 DUP6 ADD PUSH2 0x5CE6 JUMP JUMPDEST PUSH1 0x20 DUP4 ADD MSTORE POP SWAP3 SWAP2 POP POP JUMP JUMPDEST PUSH1 0x0 PUSH1 0x40 DUP3 DUP5 SUB SLT ISZERO PUSH2 0x6325 JUMPI PUSH2 0x6324 PUSH2 0x59C1 JUMP JUMPDEST JUMPDEST PUSH1 0x0 PUSH2 0x6333 DUP5 DUP3 DUP6 ADD PUSH2 0x62BF JUMP JUMPDEST SWAP2 POP POP SWAP3 SWAP2 POP POP JUMP JUMPDEST PUSH2 0x6345 DUP2 PUSH2 0x5C67 JUMP JUMPDEST DUP3 MSTORE POP POP JUMP JUMPDEST PUSH2 0x6354 DUP2 PUSH2 0x5CBD JUMP JUMPDEST DUP3 MSTORE POP POP JUMP JUMPDEST PUSH1 0x40 DUP3 ADD PUSH1 0x0 DUP3 ADD MLOAD PUSH2 0x6370 PUSH1 0x0 DUP6 ADD DUP3 PUSH2 0x633C JUMP JUMPDEST POP PUSH1 0x20 DUP3 ADD MLOAD PUSH2 0x6383 PUSH1 0x20 DUP6 ADD DUP3 PUSH2 0x634B JUMP JUMPDEST POP POP POP POP JUMP JUMPDEST PUSH1 0x0 PUSH1 0x40 DUP3 ADD SWAP1 POP PUSH2 0x639E PUSH1 0x0 DUP4 ADD DUP5 PUSH2 0x635A JUMP JUMPDEST SWAP3 SWAP2 POP POP JUMP JUMPDEST DUP1 DUP3 MSTORE POP POP JUMP JUMPDEST PUSH1 0x0 PUSH1 0x20 DUP3 ADD SWAP1 POP PUSH2 0x63C0 PUSH1 0x0 DUP4 ADD DUP5 PUSH2 0x63A4 JUMP JUMPDEST SWAP3 SWAP2 POP POP JUMP JUMPDEST PUSH1 0x0 PUSH1 0xE0 DUP3 ADD SWAP1 POP PUSH2 0x63DB PUSH1 0x0 DUP4 ADD DUP11 PUSH2 0x61AF JUMP JUMPDEST PUSH2 0x63E8 PUSH1 0x20 DUP4 ADD DUP10 PUSH2 0x61AF JUMP JUMPDEST PUSH2 0x63F5 PUSH1 0x40 DUP4 ADD DUP9 PUSH2 0x61AF JUMP JUMPDEST PUSH2 0x6402 PUSH1 0x60 DUP4 ADD DUP8 PUSH2 0x61BE JUMP JUMPDEST PUSH2 0x640F PUSH1 0x80 DUP4 ADD DUP7 PUSH2 0x61BE JUMP JUMPDEST PUSH2 0x641C PUSH1 0xA0 DUP4 ADD DUP6 PUSH2 0x61BE JUMP JUMPDEST PUSH2 0x6429 PUSH1 0xC0 DUP4 ADD DUP5 PUSH2 0x61AF JUMP JUMPDEST SWAP9 SWAP8 POP POP POP POP POP POP POP POP JUMP JUMPDEST DUP1 DUP3 MSTORE POP POP JUMP JUMPDEST PUSH1 0x0 PUSH2 0x644B PUSH1 0x20 DUP5 ADD DUP5 PUSH2 0x5E48 JUMP JUMPDEST SWAP1 POP SWAP3 SWAP2 POP POP JUMP JUMPDEST PUSH2 0x645C DUP2 PUSH2 0x5C33 JUMP JUMPDEST DUP3 MSTORE POP POP JUMP JUMPDEST PUSH1 0x0 PUSH2 0x6471 PUSH1 0x20 DUP5 ADD DUP5 PUSH2 0x5CE6 JUMP JUMPDEST SWAP1 POP SWAP3 SWAP2 POP POP JUMP JUMPDEST PUSH1 0x0 PUSH2 0x6488 PUSH1 0x20 DUP5 ADD DUP5 PUSH2 0x5C88 JUMP JUMPDEST SWAP1 POP SWAP3 SWAP2 POP POP JUMP JUMPDEST PUSH1 0x80 DUP3 ADD PUSH2 0x64A1 PUSH1 0x0 DUP4 ADD DUP4 PUSH2 0x643C JUMP JUMPDEST PUSH2 0x64AE PUSH1 0x0 DUP6 ADD DUP3 PUSH2 0x6453 JUMP JUMPDEST POP PUSH2 0x64BC PUSH1 0x20 DUP4 ADD DUP4 PUSH2 0x6462 JUMP JUMPDEST PUSH2 0x64C9 PUSH1 0x20 DUP6 ADD DUP3 PUSH2 0x634B JUMP JUMPDEST POP PUSH2 0x64D7 PUSH1 0x40 DUP4 ADD DUP4 PUSH2 0x6479 JUMP JUMPDEST PUSH2 0x64E4 PUSH1 0x40 DUP6 ADD DUP3 PUSH2 0x633C JUMP JUMPDEST POP PUSH2 0x64F2 PUSH1 0x60 DUP4 ADD DUP4 PUSH2 0x643C JUMP JUMPDEST PUSH2 0x64FF PUSH1 0x60 DUP6 ADD DUP3 PUSH2 0x6453 JUMP JUMPDEST POP POP POP POP JUMP JUMPDEST PUSH1 0x0 PUSH1 0xA0 DUP3 ADD SWAP1 POP PUSH2 0x651A PUSH1 0x0 DUP4 ADD DUP6 PUSH2 0x6435 JUMP JUMPDEST PUSH2 0x6527 PUSH1 0x20 DUP4 ADD DUP5 PUSH2 0x6490 JUMP JUMPDEST SWAP4 SWAP3 POP POP POP JUMP JUMPDEST PUSH1 0x0 PUSH1 0x40 DUP3 DUP5 SUB SLT ISZERO PUSH2 0x6544 JUMPI PUSH2 0x6543 PUSH2 0x622E JUMP JUMPDEST JUMPDEST PUSH2 0x654E PUSH1 0x40 PUSH2 0x62A4 JUMP JUMPDEST SWAP1 POP PUSH1 0x0 PUSH2 0x655E DUP5 DUP3 DUP6 ADD PUSH2 0x5E48 JUMP JUMPDEST PUSH1 0x0 DUP4 ADD MSTORE POP PUSH1 0x20 PUSH2 0x6572 DUP5 DUP3 DUP6 ADD PUSH2 0x5E48 JUMP JUMPDEST PUSH1 0x20 DUP4 ADD MSTORE POP SWAP3 SWAP2 POP POP JUMP JUMPDEST PUSH1 0x0 PUSH1 0x40 DUP3 DUP5 SUB SLT ISZERO PUSH2 0x6594 JUMPI PUSH2 0x6593 PUSH2 0x59C1 JUMP JUMPDEST JUMPDEST PUSH1 0x0 PUSH2 0x65A2 DUP5 DUP3 DUP6 ADD PUSH2 0x652E JUMP JUMPDEST SWAP2 POP POP SWAP3 SWAP2 POP POP JUMP JUMPDEST PUSH1 0x0 DUP2 MLOAD SWAP1 POP SWAP2 SWAP1 POP JUMP JUMPDEST PUSH1 0x0 DUP3 DUP3 MSTORE PUSH1 0x20 DUP3 ADD SWAP1 POP SWAP3 SWAP2 POP POP JUMP JUMPDEST PUSH1 0x0 DUP2 SWAP1 POP PUSH1 0x20 DUP3 ADD SWAP1 POP SWAP2 SWAP1 POP JUMP JUMPDEST PUSH1 0x40 DUP3 ADD PUSH1 0x0 DUP3 ADD MLOAD PUSH2 0x65ED PUSH1 0x0 DUP6 ADD DUP3 PUSH2 0x6453 JUMP JUMPDEST POP PUSH1 0x20 DUP3 ADD MLOAD PUSH2 0x6600 PUSH1 0x20 DUP6 ADD DUP3 PUSH2 0x6453 JUMP JUMPDEST POP POP POP POP JUMP JUMPDEST PUSH1 0x0 PUSH2 0x6612 DUP4 DUP4 PUSH2 0x65D7 JUMP JUMPDEST PUSH1 0x40 DUP4 ADD SWAP1 POP SWAP3 SWAP2 POP POP JUMP JUMPDEST PUSH1 0x0 PUSH1 0x20 DUP3 ADD SWAP1 POP SWAP2 SWAP1 POP JUMP JUMPDEST PUSH1 0x0 PUSH2 0x6636 DUP3 PUSH2 0x65AB JUMP JUMPDEST PUSH2 0x6640 DUP2 DUP6 PUSH2 0x65B6 JUMP JUMPDEST SWAP4 POP PUSH2 0x664B DUP4 PUSH2 0x65C7 JUMP JUMPDEST DUP1 PUSH1 0x0 JUMPDEST DUP4 DUP2 LT ISZERO PUSH2 0x667C JUMPI DUP2 MLOAD PUSH2 0x6663 DUP9 DUP3 PUSH2 0x6606 JUMP JUMPDEST SWAP8 POP PUSH2 0x666E DUP4 PUSH2 0x661E JUMP JUMPDEST SWAP3 POP POP PUSH1 0x1 DUP2 ADD SWAP1 POP PUSH2 0x664F JUMP JUMPDEST POP DUP6 SWAP4 POP POP POP POP SWAP3 SWAP2 POP POP JUMP JUMPDEST PUSH1 0x0 PUSH1 0x20 DUP3 ADD SWAP1 POP DUP2 DUP2 SUB PUSH1 0x0 DUP4 ADD MSTORE PUSH2 0x66A3 DUP2 DUP5 PUSH2 0x662B JUMP JUMPDEST SWAP1 POP SWAP3 SWAP2 POP POP JUMP JUMPDEST PUSH32 0x4E487B7100000000000000000000000000000000000000000000000000000000 PUSH1 0x0 MSTORE PUSH1 0x32 PUSH1 0x4 MSTORE PUSH1 0x24 PUSH1 0x0 REVERT JUMPDEST PUSH1 0x0 DUP2 CALLDATALOAD PUSH2 0x66E7 DUP2 PUSH2 0x5E31 JUMP JUMPDEST DUP1 SWAP2 POP POP SWAP2 SWAP1 POP JUMP JUMPDEST PUSH1 0x0 DUP2 PUSH1 0x0 SHL SWAP1 POP SWAP2 SWAP1 POP JUMP JUMPDEST PUSH1 0x0 PUSH32 0xFFFFFFFFFFFFFFFFFFFFFFFFFFFFFFFFFFFFFFFFFFFFFFFFFFFFFFFFFFFFFFFF PUSH2 0x6729 DUP5 PUSH2 0x66F0 JUMP JUMPDEST SWAP4 POP DUP1 NOT DUP4 AND SWAP3 POP DUP1 DUP5 AND DUP4 OR SWAP2 POP POP SWAP3 SWAP2 POP POP JUMP JUMPDEST PUSH1 0x0 DUP2 SWAP1 POP SWAP2 SWAP1 POP JUMP JUMPDEST PUSH1 0x0 PUSH2 0x6764 PUSH2 0x675F PUSH2 0x675A DUP5 PUSH2 0x5C33 JUMP JUMPDEST PUSH2 0x673F JUMP JUMPDEST PUSH2 0x5C33 JUMP JUMPDEST SWAP1 POP SWAP2 SWAP1 POP JUMP JUMPDEST PUSH1 0x0 DUP2 SWAP1 POP SWAP2 SWAP1 POP JUMP JUMPDEST PUSH2 0x677E DUP3 PUSH2 0x6749 JUMP JUMPDEST PUSH2 0x6791 PUSH2 0x678A DUP3 PUSH2 0x676B JUMP JUMPDEST DUP4 SLOAD PUSH2 0x66FD JUMP JUMPDEST DUP3 SSTORE POP POP POP JUMP JUMPDEST PUSH1 0x0 DUP2 ADD PUSH1 0x0 DUP4 ADD DUP1 PUSH2 0x67AA DUP2 PUSH2 0x66DA JUMP JUMPDEST SWAP1 POP PUSH2 0x67B6 DUP2 DUP5 PUSH2 0x6775 JUMP JUMPDEST POP POP POP PUSH1 0x1 DUP2 ADD PUSH1 0x20 DUP4 ADD DUP1 PUSH2 0x67CB DUP2 PUSH2 0x66DA JUMP JUMPDEST SWAP1 POP PUSH2 0x67D7 DUP2 DUP5 PUSH2 0x6775 JUMP JUMPDEST POP POP POP POP POP JUMP JUMPDEST PUSH2 0x67E8 DUP3 DUP3 PUSH2 0x6798 JUMP JUMPDEST POP POP JUMP JUMPDEST PUSH32 0x4E487B7100000000000000000000000000000000000000000000000000000000 PUSH1 0x0 MSTORE PUSH1 0x11 PUSH1 0x4 MSTORE PUSH1 0x24 PUSH1 0x0 REVERT JUMPDEST PUSH1 0x0 PUSH2 0x6826 DUP3 PUSH2 0x5C33 JUMP JUMPDEST SWAP2 POP PUSH32 0xFFFFFFFFFFFFFFFFFFFFFFFFFFFFFFFFFFFFFFFFFFFFFFFFFFFFFFFFFFFFFFFF DUP3 SUB PUSH2 0x6858 JUMPI PUSH2 0x6857 PUSH2 0x67EC JUMP JUMPDEST JUMPDEST PUSH1 0x1 DUP3 ADD SWAP1 POP SWAP2 SWAP1 POP JUMP JUMPDEST PUSH1 0x0 DUP2 SWAP1 POP SWAP3 SWAP2 POP POP JUMP JUMPDEST POP JUMP JUMPDEST PUSH1 0x0 PUSH2 0x687E PUSH1 0x0 DUP4 PUSH2 0x6863 JUMP JUMPDEST SWAP2 POP PUSH2 0x6889 DUP3 PUSH2 0x686E JUMP JUMPDEST PUSH1 0x0 DUP3 ADD SWAP1 POP SWAP2 SWAP1 POP JUMP JUMPDEST PUSH1 0x0 PUSH2 0x689F DUP3 PUSH2 0x6871 JUMP JUMPDEST SWAP2 POP DUP2 SWAP1 POP SWAP2 SWAP1 POP JUMP JUMPDEST PUSH1 0x0 PUSH1 0x40 DUP3 ADD SWAP1 POP PUSH2 0x68BE PUSH1 0x0 DUP4 ADD DUP6 PUSH2 0x5DC1 JUMP JUMPDEST PUSH2 0x68CB PUSH1 0x20 DUP4 ADD DUP5 PUSH2 0x5C3D JUMP JUMPDEST SWAP4 SWAP3 POP POP POP JUMP JUMPDEST PUSH2 0x68DB DUP2 PUSH2 0x6094 JUMP JUMPDEST DUP2 EQ PUSH2 0x68E6 JUMPI PUSH1 0x0 DUP1 REVERT JUMPDEST POP JUMP JUMPDEST PUSH1 0x0 DUP2 MLOAD SWAP1 POP PUSH2 0x68F8 DUP2 PUSH2 0x68D2 JUMP JUMPDEST SWAP3 SWAP2 POP POP JUMP JUMPDEST PUSH1 0x0 PUSH1 0x20 DUP3 DUP5 SUB SLT ISZERO PUSH2 0x6914 JUMPI PUSH2 0x6913 PUSH2 0x59C1 JUMP JUMPDEST JUMPDEST PUSH1 0x0 PUSH2 0x6922 DUP5 DUP3 DUP6 ADD PUSH2 0x68E9 JUMP JUMPDEST SWAP2 POP POP SWAP3 SWAP2 POP POP JUMP JUMPDEST PUSH1 0x0 PUSH2 0x6936 DUP3 PUSH2 0x5C33 JUMP JUMPDEST SWAP2 POP PUSH2 0x6941 DUP4 PUSH2 0x5C33 JUMP JUMPDEST SWAP3 POP DUP3 DUP3 ADD SWAP1 POP DUP1 DUP3 GT ISZERO PUSH2 0x6959 JUMPI PUSH2 0x6958 PUSH2 0x67EC JUMP JUMPDEST JUMPDEST SWAP3 SWAP2 POP POP JUMP JUMPDEST PUSH1 0x0 DUP2 SWAP1 POP SWAP2 SWAP1 POP JUMP JUMPDEST PUSH1 0x0 PUSH8 0xFFFFFFFFFFFFFFFF DUP3 AND SWAP1 POP SWAP2 SWAP1 POP JUMP JUMPDEST PUSH1 0x0 PUSH2 0x6998 PUSH2 0x6993 PUSH2 0x698E DUP5 PUSH2 0x695F JUMP JUMPDEST PUSH2 0x673F JUMP JUMPDEST PUSH2 0x6969 JUMP JUMPDEST SWAP1 POP SWAP2 SWAP1 POP JUMP JUMPDEST PUSH2 0x69A8 DUP2 PUSH2 0x697D JUMP JUMPDEST DUP3 MSTORE POP POP JUMP JUMPDEST PUSH1 0x0 PUSH1 0x20 DUP3 ADD SWAP1 POP PUSH2 0x69C3 PUSH1 0x0 DUP4 ADD DUP5 PUSH2 0x699F JUMP JUMPDEST SWAP3 SWAP2 POP POP JUMP JUMPDEST PUSH1 0x0 PUSH1 0x40 DUP3 DUP5 SUB SLT ISZERO PUSH2 0x69DF JUMPI PUSH2 0x69DE PUSH2 0x622E JUMP JUMPDEST JUMPDEST PUSH2 0x69E9 PUSH1 0x40 PUSH2 0x62A4 JUMP JUMPDEST SWAP1 POP PUSH1 0x0 PUSH2 0x69F9 DUP5 DUP3 DUP6 ADD PUSH2 0x5CE6 JUMP JUMPDEST PUSH1 0x0 DUP4 ADD MSTORE POP PUSH1 0x20 PUSH2 0x6A0D DUP5 DUP3 DUP6 ADD PUSH2 0x5E48 JUMP JUMPDEST PUSH1 0x20 DUP4 ADD MSTORE POP SWAP3 SWAP2 POP POP JUMP JUMPDEST PUSH1 0x0 DUP2 CALLDATALOAD SWAP1 POP PUSH2 0x6A28 DUP2 PUSH2 0x68D2 JUMP JUMPDEST SWAP3 SWAP2 POP POP JUMP JUMPDEST PUSH1 0x0 PUSH2 0x140 DUP3 DUP5 SUB SLT ISZERO PUSH2 0x6A45 JUMPI PUSH2 0x6A44 PUSH2 0x622E JUMP JUMPDEST JUMPDEST PUSH2 0x6A50 PUSH2 0x100 PUSH2 0x62A4 JUMP JUMPDEST SWAP1 POP PUSH1 0x0 PUSH2 0x6A60 DUP5 DUP3 DUP6 ADD PUSH2 0x5C88 JUMP JUMPDEST PUSH1 0x0 DUP4 ADD MSTORE POP PUSH1 0x20 PUSH2 0x6A74 DUP5 DUP3 DUP6 ADD PUSH2 0x69C9 JUMP JUMPDEST PUSH1 0x20 DUP4 ADD MSTORE POP PUSH1 0x60 PUSH2 0x6A88 DUP5 DUP3 DUP6 ADD PUSH2 0x69C9 JUMP JUMPDEST PUSH1 0x40 DUP4 ADD MSTORE POP PUSH1 0xA0 PUSH2 0x6A9C DUP5 DUP3 DUP6 ADD PUSH2 0x5CE6 JUMP JUMPDEST PUSH1 0x60 DUP4 ADD MSTORE POP PUSH1 0xC0 PUSH2 0x6AB0 DUP5 DUP3 DUP6 ADD PUSH2 0x5CE6 JUMP JUMPDEST PUSH1 0x80 DUP4 ADD MSTORE POP PUSH1 0xE0 PUSH2 0x6AC4 DUP5 DUP3 DUP6 ADD PUSH2 0x5E48 JUMP JUMPDEST PUSH1 0xA0 DUP4 ADD MSTORE POP PUSH2 0x100 PUSH2 0x6AD9 DUP5 DUP3 DUP6 ADD PUSH2 0x5E48 JUMP JUMPDEST PUSH1 0xC0 DUP4 ADD MSTORE POP PUSH2 0x120 PUSH2 0x6AEE DUP5 DUP3 DUP6 ADD PUSH2 0x6A19 JUMP JUMPDEST PUSH1 0xE0 DUP4 ADD MSTORE POP SWAP3 SWAP2 POP POP JUMP JUMPDEST PUSH1 0x0 PUSH2 0x140 DUP3 DUP5 SUB SLT ISZERO PUSH2 0x6B11 JUMPI PUSH2 0x6B10 PUSH2 0x59C1 JUMP JUMPDEST JUMPDEST PUSH1 0x0 PUSH2 0x6B1F DUP5 DUP3 DUP6 ADD PUSH2 0x6A2E JUMP JUMPDEST SWAP2 POP POP SWAP3 SWAP2 POP POP JUMP JUMPDEST PUSH1 0x40 DUP3 ADD PUSH1 0x0 DUP3 ADD MLOAD PUSH2 0x6B3E PUSH1 0x0 DUP6 ADD DUP3 PUSH2 0x634B JUMP JUMPDEST POP PUSH1 0x20 DUP3 ADD MLOAD PUSH2 0x6B51 PUSH1 0x20 DUP6 ADD DUP3 PUSH2 0x6453 JUMP JUMPDEST POP POP POP POP JUMP JUMPDEST PUSH2 0x6B60 DUP2 PUSH2 0x6094 JUMP JUMPDEST DUP3 MSTORE POP POP JUMP JUMPDEST PUSH2 0x140 DUP3 ADD PUSH1 0x0 DUP3 ADD MLOAD PUSH2 0x6B7D PUSH1 0x0 DUP6 ADD DUP3 PUSH2 0x633C JUMP JUMPDEST POP PUSH1 0x20 DUP3 ADD MLOAD PUSH2 0x6B90 PUSH1 0x20 DUP6 ADD DUP3 PUSH2 0x6B28 JUMP JUMPDEST POP PUSH1 0x40 DUP3 ADD MLOAD PUSH2 0x6BA3 PUSH1 0x60 DUP6 ADD DUP3 PUSH2 0x6B28 JUMP JUMPDEST POP PUSH1 0x60 DUP3 ADD MLOAD PUSH2 0x6BB6 PUSH1 0xA0 DUP6 ADD DUP3 PUSH2 0x634B JUMP JUMPDEST POP PUSH1 0x80 DUP3 ADD MLOAD PUSH2 0x6BC9 PUSH1 0xC0 DUP6 ADD DUP3 PUSH2 0x634B JUMP JUMPDEST POP PUSH1 0xA0 DUP3 ADD MLOAD PUSH2 0x6BDC PUSH1 0xE0 DUP6 ADD DUP3 PUSH2 0x6453 JUMP JUMPDEST POP PUSH1 0xC0 DUP3 ADD MLOAD PUSH2 0x6BF0 PUSH2 0x100 DUP6 ADD DUP3 PUSH2 0x6453 JUMP JUMPDEST POP PUSH1 0xE0 DUP3 ADD MLOAD PUSH2 0x6C04 PUSH2 0x120 DUP6 ADD DUP3 PUSH2 0x6B57 JUMP JUMPDEST POP POP POP POP JUMP JUMPDEST PUSH1 0x0 PUSH2 0x140 DUP3 ADD SWAP1 POP PUSH2 0x6C20 PUSH1 0x0 DUP4 ADD DUP5 PUSH2 0x6B66 JUMP JUMPDEST SWAP3 SWAP2 POP POP JUMP JUMPDEST PUSH2 0x6C2F DUP2 PUSH2 0x5C67 JUMP JUMPDEST DUP3 MSTORE POP POP JUMP JUMPDEST PUSH1 0x0 PUSH1 0x40 DUP3 ADD SWAP1 POP PUSH2 0x6C4A PUSH1 0x0 DUP4 ADD DUP6 PUSH2 0x6C26 JUMP JUMPDEST PUSH2 0x6C57 PUSH1 0x20 DUP4 ADD DUP5 PUSH2 0x61AF JUMP JUMPDEST SWAP4 SWAP3 POP POP POP JUMP JUMPDEST PUSH1 0x0 DUP2 MLOAD SWAP1 POP PUSH2 0x6C6D DUP2 PUSH2 0x5C71 JUMP JUMPDEST SWAP3 SWAP2 POP POP JUMP JUMPDEST PUSH1 0x0 PUSH1 0x20 DUP3 DUP5 SUB SLT ISZERO PUSH2 0x6C89 JUMPI PUSH2 0x6C88 PUSH2 0x59C1 JUMP JUMPDEST JUMPDEST PUSH1 0x0 PUSH2 0x6C97 DUP5 DUP3 DUP6 ADD PUSH2 0x6C5E JUMP JUMPDEST SWAP2 POP POP SWAP3 SWAP2 POP POP JUMP JUMPDEST DUP1 DUP3 MSTORE POP POP JUMP JUMPDEST PUSH1 0x0 DUP3 SWAP1 POP SWAP3 SWAP2 POP POP JUMP JUMPDEST PUSH1 0x40 DUP3 ADD PUSH2 0x6CC3 PUSH1 0x0 DUP4 ADD DUP4 PUSH2 0x6462 JUMP JUMPDEST PUSH2 0x6CD0 PUSH1 0x0 DUP6 ADD DUP3 PUSH2 0x634B JUMP JUMPDEST POP PUSH2 0x6CDE PUSH1 0x20 DUP4 ADD DUP4 PUSH2 0x643C JUMP JUMPDEST PUSH2 0x6CEB PUSH1 0x20 DUP6 ADD DUP3 PUSH2 0x6453 JUMP JUMPDEST POP POP POP POP JUMP JUMPDEST PUSH1 0x0 PUSH2 0x6D00 PUSH1 0x20 DUP5 ADD DUP5 PUSH2 0x6A19 JUMP JUMPDEST SWAP1 POP SWAP3 SWAP2 POP POP JUMP JUMPDEST PUSH2 0x140 DUP3 ADD PUSH2 0x6D1A PUSH1 0x0 DUP4 ADD DUP4 PUSH2 0x6479 JUMP JUMPDEST PUSH2 0x6D27 PUSH1 0x0 DUP6 ADD DUP3 PUSH2 0x633C JUMP JUMPDEST POP PUSH2 0x6D35 PUSH1 0x20 DUP4 ADD DUP4 PUSH2 0x6CA7 JUMP JUMPDEST PUSH2 0x6D42 PUSH1 0x20 DUP6 ADD DUP3 PUSH2 0x6CB2 JUMP JUMPDEST POP PUSH2 0x6D50 PUSH1 0x60 DUP4 ADD DUP4 PUSH2 0x6CA7 JUMP JUMPDEST PUSH2 0x6D5D PUSH1 0x60 DUP6 ADD DUP3 PUSH2 0x6CB2 JUMP JUMPDEST POP PUSH2 0x6D6B PUSH1 0xA0 DUP4 ADD DUP4 PUSH2 0x6462 JUMP JUMPDEST PUSH2 0x6D78 PUSH1 0xA0 DUP6 ADD DUP3 PUSH2 0x634B JUMP JUMPDEST POP PUSH2 0x6D86 PUSH1 0xC0 DUP4 ADD DUP4 PUSH2 0x6462 JUMP JUMPDEST PUSH2 0x6D93 PUSH1 0xC0 DUP6 ADD DUP3 PUSH2 0x634B JUMP JUMPDEST POP PUSH2 0x6DA1 PUSH1 0xE0 DUP4 ADD DUP4 PUSH2 0x643C JUMP JUMPDEST PUSH2 0x6DAE PUSH1 0xE0 DUP6 ADD DUP3 PUSH2 0x6453 JUMP JUMPDEST POP PUSH2 0x6DBD PUSH2 0x100 DUP4 ADD DUP4 PUSH2 0x643C JUMP JUMPDEST PUSH2 0x6DCB PUSH2 0x100 DUP6 ADD DUP3 PUSH2 0x6453 JUMP JUMPDEST POP PUSH2 0x6DDA PUSH2 0x120 DUP4 ADD DUP4 PUSH2 0x6CF1 JUMP JUMPDEST PUSH2 0x6DE8 PUSH2 0x120 DUP6 ADD DUP3 PUSH2 0x6B57 JUMP JUMPDEST POP POP POP POP JUMP JUMPDEST PUSH1 0x0 PUSH2 0x1A0 DUP3 ADD SWAP1 POP PUSH2 0x6E04 PUSH1 0x0 DUP4 ADD DUP8 PUSH2 0x6CA0 JUMP JUMPDEST PUSH2 0x6E11 PUSH1 0x20 DUP4 ADD DUP7 PUSH2 0x6D08 JUMP JUMPDEST PUSH2 0x6E1F PUSH2 0x160 DUP4 ADD DUP6 PUSH2 0x6C26 JUMP JUMPDEST PUSH2 0x6E2D PUSH2 0x180 DUP4 ADD DUP5 PUSH2 0x61AF JUMP JUMPDEST SWAP6 SWAP5 POP POP POP POP POP JUMP JUMPDEST PUSH1 0x0 PUSH2 0x6E41 DUP3 PUSH2 0x5C33 JUMP JUMPDEST SWAP2 POP PUSH2 0x6E4C DUP4 PUSH2 0x5C33 JUMP JUMPDEST SWAP3 POP DUP3 DUP3 MUL PUSH2 0x6E5A DUP2 PUSH2 0x5C33 JUMP JUMPDEST SWAP2 POP DUP3 DUP3 DIV DUP5 EQ DUP4 ISZERO OR PUSH2 0x6E71 JUMPI PUSH2 0x6E70 PUSH2 0x67EC JUMP JUMPDEST JUMPDEST POP SWAP3 SWAP2 POP POP JUMP JUMPDEST PUSH32 0x4E487B7100000000000000000000000000000000000000000000000000000000 PUSH1 0x0 MSTORE PUSH1 0x12 PUSH1 0x4 MSTORE PUSH1 0x24 PUSH1 0x0 REVERT JUMPDEST PUSH1 0x0 PUSH2 0x6EB2 DUP3 PUSH2 0x5C33 JUMP JUMPDEST SWAP2 POP PUSH2 0x6EBD DUP4 PUSH2 0x5C33 JUMP JUMPDEST SWAP3 POP DUP3 PUSH2 0x6ECD JUMPI PUSH2 0x6ECC PUSH2 0x6E78 JUMP JUMPDEST JUMPDEST DUP3 DUP3 DIV SWAP1 POP SWAP3 SWAP2 POP POP JUMP JUMPDEST PUSH1 0x0 PUSH2 0x6EE3 DUP3 PUSH2 0x5C33 JUMP JUMPDEST SWAP2 POP PUSH2 0x6EEE DUP4 PUSH2 0x5C33 JUMP JUMPDEST SWAP3 POP DUP3 DUP3 SUB SWAP1 POP DUP2 DUP2 GT ISZERO PUSH2 0x6F06 JUMPI PUSH2 0x6F05 PUSH2 0x67EC JUMP JUMPDEST JUMPDEST SWAP3 SWAP2 POP POP JUMP JUMPDEST PUSH1 0x0 DUP3 DUP3 MSTORE PUSH1 0x20 DUP3 ADD SWAP1 POP SWAP3 SWAP2 POP POP JUMP JUMPDEST PUSH1 0x40 DUP3 ADD PUSH1 0x0 DUP3 ADD MLOAD PUSH2 0x6F33 PUSH1 0x0 DUP6 ADD DUP3 PUSH2 0x6056 JUMP JUMPDEST POP PUSH1 0x20 DUP3 ADD MLOAD PUSH2 0x6F46 PUSH1 0x20 DUP6 ADD DUP3 PUSH2 0x6056 JUMP JUMPDEST POP POP POP POP JUMP JUMPDEST PUSH1 0x0 PUSH2 0x6F58 DUP4 DUP4 PUSH2 0x6F1D JUMP JUMPDEST PUSH1 0x40 DUP4 ADD SWAP1 POP SWAP3 SWAP2 POP POP JUMP JUMPDEST PUSH1 0x0 PUSH2 0x6F6F DUP3 PUSH2 0x65AB JUMP JUMPDEST PUSH2 0x6F79 DUP2 DUP6 PUSH2 0x6F0C JUMP JUMPDEST SWAP4 POP PUSH2 0x6F84 DUP4 PUSH2 0x65C7 JUMP JUMPDEST DUP1 PUSH1 0x0 JUMPDEST DUP4 DUP2 LT ISZERO PUSH2 0x6FB5 JUMPI DUP2 MLOAD PUSH2 0x6F9C DUP9 DUP3 PUSH2 0x6F4C JUMP JUMPDEST SWAP8 POP PUSH2 0x6FA7 DUP4 PUSH2 0x661E JUMP JUMPDEST SWAP3 POP POP PUSH1 0x1 DUP2 ADD SWAP1 POP PUSH2 0x6F88 JUMP JUMPDEST POP DUP6 SWAP4 POP POP POP POP SWAP3 SWAP2 POP POP JUMP JUMPDEST PUSH1 0x0 PUSH1 0xA0 DUP3 ADD SWAP1 POP PUSH2 0x6FD7 PUSH1 0x0 DUP4 ADD DUP9 PUSH2 0x5D3B JUMP JUMPDEST PUSH2 0x6FE4 PUSH1 0x20 DUP4 ADD DUP8 PUSH2 0x5DC1 JUMP JUMPDEST PUSH2 0x6FF1 PUSH1 0x40 DUP4 ADD DUP7 PUSH2 0x5DC1 JUMP JUMPDEST PUSH2 0x6FFE PUSH1 0x60 DUP4 ADD DUP6 PUSH2 0x5C3D JUMP JUMPDEST DUP2 DUP2 SUB PUSH1 0x80 DUP4 ADD MSTORE PUSH2 0x7010 DUP2 DUP5 PUSH2 0x6F64 JUMP JUMPDEST SWAP1 POP SWAP7 SWAP6 POP POP POP POP POP POP JUMP JUMPDEST PUSH1 0x0 DUP2 MLOAD SWAP1 POP PUSH2 0x702B DUP2 PUSH2 0x5E31 JUMP JUMPDEST SWAP3 SWAP2 POP POP JUMP JUMPDEST PUSH1 0x0 PUSH1 0x20 DUP3 DUP5 SUB SLT ISZERO PUSH2 0x7047 JUMPI PUSH2 0x7046 PUSH2 0x59C1 JUMP JUMPDEST JUMPDEST PUSH1 0x0 PUSH2 0x7055 DUP5 DUP3 DUP6 ADD PUSH2 0x701C JUMP JUMPDEST SWAP2 POP POP SWAP3 SWAP2 POP POP JUMP JUMPDEST PUSH1 0x0 PUSH1 0x60 DUP3 ADD SWAP1 POP PUSH2 0x7073 PUSH1 0x0 DUP4 ADD DUP7 PUSH2 0x5DC1 JUMP JUMPDEST PUSH2 0x7080 PUSH1 0x20 DUP4 ADD DUP6 PUSH2 0x5DC1 JUMP JUMPDEST PUSH2 0x708D PUSH1 0x40 DUP4 ADD DUP5 PUSH2 0x5C3D JUMP JUMPDEST SWAP5 SWAP4 POP POP POP POP JUMP INVALID LOG2 PUSH5 0x6970667358 0x22 SLT KECCAK256 0xA7 JUMP 0xCA 0x5D 0xB4 PUSH11 0xF57DDC2FD574AAAA40436 PUSH29 0xC42B496BB6FF4C2B9D6579E32CE164736F6C6343000814003300000000 "},"methodIdentifiers":{"acceptBid((bytes32,address))":"02206661","bids(bytes32,address)":"66e929bf","buyerFeeRate()":"53f10c80","cancelBid(bytes32)":"df7cec28","cancelSwap((bytes32))":"37be0022","counteroffers(bytes32,address)":"a743a3d0","initialize(address,address,address,uint256,uint256)":"a6b63eb8","makeSwap((bytes32,(address,uint256),(address,uint256),address,address,uint256,uint256,bool))":"d2a25283","makeSwapWithVesting((bytes32,(address,uint256),(address,uint256),address,address,uint256,uint256,bool),(uint256,uint256)[])":"2b2b6511","owner()":"8da5cb5b","placeBid((uint256,address,bytes32,uint256))":"16b50a82","renounceOwnership()":"715018a6","sellerFeeRate()":"89f68190","swapOrder(bytes32)":"fca6caa1","swapOrderVestingParams(bytes32,uint256)":"8d6cb1c4","takeSwap((bytes32,address))":"06be619c","transferOwnership(address)":"f2fde38b","updateBid((bytes32,address,uint256))":"3d9bd2fc"}},"storageLayout":{"storage":[{"astId":1468,"contract":"contracts/inchain_atomicswap/InchainAtomicSwap.sol:InchainAtomicSwap","label":"swapOrder","offset":0,"slot":"0","type":"t_mapping(t_bytes32,t_struct(AtomicSwapOrder)1684_storage)"},{"astId":1475,"contract":"contracts/inchain_atomicswap/InchainAtomicSwap.sol:InchainAtomicSwap","label":"swapOrderVestingParams","offset":0,"slot":"1","type":"t_mapping(t_bytes32,t_array(t_struct(Release)1730_storage)dyn_storage)"},{"astId":1483,"contract":"contracts/inchain_atomicswap/InchainAtomicSwap.sol:InchainAtomicSwap","label":"bids","offset":0,"slot":"2","type":"t_mapping(t_bytes32,t_mapping(t_address,t_struct(Bid)1704_storage))"},{"astId":1487,"contract":"contracts/inchain_atomicswap/InchainAtomicSwap.sol:InchainAtomicSwap","label":"vestingManager","offset":0,"slot":"3","type":"t_contract(IVesting)7585"},{"astId":1490,"contract":"contracts/inchain_atomicswap/InchainAtomicSwap.sol:InchainAtomicSwap","label":"treasury","offset":0,"slot":"4","type":"t_address"},{"astId":1493,"contract":"contracts/inchain_atomicswap/InchainAtomicSwap.sol:InchainAtomicSwap","label":"sellerFeeRate","offset":0,"slot":"5","type":"t_uint256"},{"astId":1496,"contract":"contracts/inchain_atomicswap/InchainAtomicSwap.sol:InchainAtomicSwap","label":"buyerFeeRate","offset":0,"slot":"6","type":"t_uint256"},{"astId":1507,"contract":"contracts/inchain_atomicswap/InchainAtomicSwap.sol:InchainAtomicSwap","label":"counteroffers","offset":0,"slot":"7","type":"t_mapping(t_bytes32,t_mapping(t_address,t_uint256))"}],"types":{"t_address":{"encoding":"inplace","label":"address","numberOfBytes":"20"},"t_array(t_struct(Release)1730_storage)dyn_storage":{"base":"t_struct(Release)1730_storage","encoding":"dynamic_array","label":"struct IAtomicSwapBase.Release[]","numberOfBytes":"32"},"t_bool":{"encoding":"inplace","label":"bool","numberOfBytes":"1"},"t_bytes32":{"encoding":"inplace","label":"bytes32","numberOfBytes":"32"},"t_contract(IVesting)7585":{"encoding":"inplace","label":"contract IVesting","numberOfBytes":"20"},"t_enum(BidStatus)1689":{"encoding":"inplace","label":"enum IAtomicSwapBase.BidStatus","numberOfBytes":"1"},"t_enum(OrderStatus)1655":{"encoding":"inplace","label":"enum IAtomicSwapBase.OrderStatus","numberOfBytes":"1"},"t_mapping(t_address,t_struct(Bid)1704_storage)":{"encoding":"mapping","key":"t_address","label":"mapping(address => struct IAtomicSwapBase.Bid)","numberOfBytes":"32","value":"t_struct(Bid)1704_storage"},"t_mapping(t_address,t_uint256)":{"encoding":"mapping","key":"t_address","label":"mapping(address => uint256)","numberOfBytes":"32","value":"t_uint256"},"t_mapping(t_bytes32,t_array(t_struct(Release)1730_storage)dyn_storage)":{"encoding":"mapping","key":"t_bytes32","label":"mapping(bytes32 => struct IAtomicSwapBase.Release[])","numberOfBytes":"32","value":"t_array(t_struct(Release)1730_storage)dyn_storage"},"t_mapping(t_bytes32,t_mapping(t_address,t_struct(Bid)1704_storage))":{"encoding":"mapping","key":"t_bytes32","label":"mapping(bytes32 => mapping(address => struct IAtomicSwapBase.Bid))","numberOfBytes":"32","value":"t_mapping(t_address,t_struct(Bid)1704_storage)"},"t_mapping(t_bytes32,t_mapping(t_address,t_uint256))":{"encoding":"mapping","key":"t_bytes32","label":"mapping(bytes32 => mapping(address => uint256))","numberOfBytes":"32","value":"t_mapping(t_address,t_uint256)"},"t_mapping(t_bytes32,t_struct(AtomicSwapOrder)1684_storage)":{"encoding":"mapping","key":"t_bytes32","label":"mapping(bytes32 => struct IAtomicSwapBase.AtomicSwapOrder)","numberOfBytes":"32","value":"t_struct(AtomicSwapOrder)1684_storage"},"t_struct(AtomicSwapOrder)1684_storage":{"encoding":"inplace","label":"struct IAtomicSwapBase.AtomicSwapOrder","members":[{"astId":1658,"contract":"contracts/inchain_atomicswap/InchainAtomicSwap.sol:InchainAtomicSwap","label":"id","offset":0,"slot":"0","type":"t_bytes32"},{"astId":1661,"contract":"contracts/inchain_atomicswap/InchainAtomicSwap.sol:InchainAtomicSwap","label":"status","offset":0,"slot":"1","type":"t_enum(OrderStatus)1655"},{"astId":1663,"contract":"contracts/inchain_atomicswap/InchainAtomicSwap.sol:InchainAtomicSwap","label":"maker","offset":1,"slot":"1","type":"t_address"},{"astId":1666,"contract":"contracts/inchain_atomicswap/InchainAtomicSwap.sol:InchainAtomicSwap","label":"sellToken","offset":0,"slot":"2","type":"t_struct(Coin)1649_storage"},{"astId":1668,"contract":"contracts/inchain_atomicswap/InchainAtomicSwap.sol:InchainAtomicSwap","label":"taker","offset":0,"slot":"4","type":"t_address"},{"astId":1671,"contract":"contracts/inchain_atomicswap/InchainAtomicSwap.sol:InchainAtomicSwap","label":"buyToken","offset":0,"slot":"5","type":"t_struct(Coin)1649_storage"},{"astId":1673,"contract":"contracts/inchain_atomicswap/InchainAtomicSwap.sol:InchainAtomicSwap","label":"minBidAmount","offset":0,"slot":"7","type":"t_uint256"},{"astId":1675,"contract":"contracts/inchain_atomicswap/InchainAtomicSwap.sol:InchainAtomicSwap","label":"createdAt","offset":0,"slot":"8","type":"t_uint256"},{"astId":1677,"contract":"contracts/inchain_atomicswap/InchainAtomicSwap.sol:InchainAtomicSwap","label":"canceledAt","offset":0,"slot":"9","type":"t_uint256"},{"astId":1679,"contract":"contracts/inchain_atomicswap/InchainAtomicSwap.sol:InchainAtomicSwap","label":"completedAt","offset":0,"slot":"10","type":"t_uint256"},{"astId":1681,"contract":"contracts/inchain_atomicswap/InchainAtomicSwap.sol:InchainAtomicSwap","label":"expiredAt","offset":0,"slot":"11","type":"t_uint256"},{"astId":1683,"contract":"contracts/inchain_atomicswap/InchainAtomicSwap.sol:InchainAtomicSwap","label":"acceptBid","offset":0,"slot":"12","type":"t_bool"}],"numberOfBytes":"416"},"t_struct(Bid)1704_storage":{"encoding":"inplace","label":"struct IAtomicSwapBase.Bid","members":[{"astId":1692,"contract":"contracts/inchain_atomicswap/InchainAtomicSwap.sol:InchainAtomicSwap","label":"amount","offset":0,"slot":"0","type":"t_uint256"},{"astId":1694,"contract":"contracts/inchain_atomicswap/InchainAtomicSwap.sol:InchainAtomicSwap","label":"order","offset":0,"slot":"1","type":"t_bytes32"},{"astId":1697,"contract":"contracts/inchain_atomicswap/InchainAtomicSwap.sol:InchainAtomicSwap","label":"status","offset":0,"slot":"2","type":"t_enum(BidStatus)1689"},{"astId":1699,"contract":"contracts/inchain_atomicswap/InchainAtomicSwap.sol:InchainAtomicSwap","label":"bidder","offset":1,"slot":"2","type":"t_address"},{"astId":1701,"contract":"contracts/inchain_atomicswap/InchainAtomicSwap.sol:InchainAtomicSwap","label":"receiveTimestamp","offset":0,"slot":"3","type":"t_uint256"},{"astId":1703,"contract":"contracts/inchain_atomicswap/InchainAtomicSwap.sol:InchainAtomicSwap","label":"expireTimestamp","offset":0,"slot":"4","type":"t_uint256"}],"numberOfBytes":"160"},"t_struct(Coin)1649_storage":{"encoding":"inplace","label":"struct IAtomicSwapBase.Coin","members":[{"astId":1646,"contract":"contracts/inchain_atomicswap/InchainAtomicSwap.sol:InchainAtomicSwap","label":"token","offset":0,"slot":"0","type":"t_address"},{"astId":1648,"contract":"contracts/inchain_atomicswap/InchainAtomicSwap.sol:InchainAtomicSwap","label":"amount","offset":0,"slot":"1","type":"t_uint256"}],"numberOfBytes":"64"},"t_struct(Release)1730_storage":{"encoding":"inplace","label":"struct IAtomicSwapBase.Release","members":[{"astId":1727,"contract":"contracts/inchain_atomicswap/InchainAtomicSwap.sol:InchainAtomicSwap","label":"durationInHours","offset":0,"slot":"0","type":"t_uint256"},{"astId":1729,"contract":"contracts/inchain_atomicswap/InchainAtomicSwap.sol:InchainAtomicSwap","label":"percentage","offset":0,"slot":"1","type":"t_uint256"}],"numberOfBytes":"64"},"t_uint256":{"encoding":"inplace","label":"uint256","numberOfBytes":"32"}}}}}}