{"contracts/vesting/CliffVesting.sol":{"CliffVesting":{"abi":[{"inputs":[],"name":"InvalidInitialization","type":"error"},{"inputs":[],"name":"InvalidTotalPercentage","type":"error"},{"inputs":[],"name":"InvalidVesting","type":"error"},{"inputs":[],"name":"NoVestedTokensAvailable","type":"error"},{"inputs":[],"name":"NoVestedTokensForRelease","type":"error"},{"inputs":[],"name":"NotInitializing","type":"error"},{"inputs":[],"name":"OverMaximumReleaseStep","type":"error"},{"inputs":[{"internalType":"address","name":"owner","type":"address"}],"name":"OwnableInvalidOwner","type":"error"},{"inputs":[{"internalType":"address","name":"account","type":"address"}],"name":"OwnableUnauthorizedAccount","type":"error"},{"inputs":[],"name":"ReentrancyGuardReentrantCall","type":"error"},{"inputs":[{"internalType":"address","name":"beneficiary","type":"address"}],"name":"VestingAlreadyStarted","type":"error"},{"inputs":[],"name":"VestingNotStarted","type":"error"},{"anonymous":false,"inputs":[{"indexed":false,"internalType":"uint64","name":"version","type":"uint64"}],"name":"Initialized","type":"event"},{"anonymous":false,"inputs":[{"components":[{"components":[{"internalType":"address","name":"from","type":"address"},{"internalType":"uint256","name":"start","type":"uint256"},{"internalType":"address","name":"token","type":"address"},{"internalType":"uint256","name":"totalAmount","type":"uint256"},{"internalType":"uint256","name":"amountReleased","type":"uint256"},{"internalType":"uint256","name":"lastReleasedStep","type":"uint256"}],"internalType":"struct ICliffVesting.VestingSchedule","name":"schedule","type":"tuple"},{"components":[{"internalType":"uint256","name":"durationInHours","type":"uint256"},{"internalType":"uint256","name":"percentage","type":"uint256"}],"internalType":"struct IAtomicSwapBase.Release[]","name":"release","type":"tuple[]"},{"internalType":"address","name":"beneficiary","type":"address"},{"internalType":"bytes32","name":"orderId","type":"bytes32"}],"indexed":true,"internalType":"struct ICliffVesting.VestingInfo","name":"vesting","type":"tuple"}],"name":"NewVesting","type":"event"},{"anonymous":false,"inputs":[{"indexed":true,"internalType":"address","name":"previousOwner","type":"address"},{"indexed":true,"internalType":"address","name":"newOwner","type":"address"}],"name":"OwnershipTransferred","type":"event"},{"anonymous":false,"inputs":[{"indexed":true,"internalType":"address","name":"sender","type":"address"},{"indexed":true,"internalType":"uint256","name":"amount","type":"uint256"}],"name":"Received","type":"event"},{"anonymous":false,"inputs":[{"indexed":true,"internalType":"address","name":"beneficiary","type":"address"},{"indexed":true,"internalType":"uint256","name":"amount","type":"uint256"}],"name":"Released","type":"event"},{"inputs":[{"internalType":"address","name":"beneficiary","type":"address"}],"name":"getVestingScheduleCount","outputs":[{"internalType":"uint256","name":"","type":"uint256"}],"stateMutability":"view","type":"function"},{"inputs":[{"internalType":"address","name":"_admin","type":"address"},{"internalType":"address","name":"_treasury","type":"address"},{"internalType":"uint256","name":"_sellerFee","type":"uint256"}],"name":"initialize","outputs":[],"stateMutability":"nonpayable","type":"function"},{"inputs":[],"name":"owner","outputs":[{"internalType":"address","name":"","type":"address"}],"stateMutability":"view","type":"function"},{"inputs":[{"internalType":"address","name":"beneficiary","type":"address"},{"internalType":"bytes32","name":"orderId","type":"bytes32"}],"name":"release","outputs":[],"stateMutability":"nonpayable","type":"function"},{"inputs":[{"internalType":"address","name":"","type":"address"},{"internalType":"bytes32","name":"","type":"bytes32"},{"internalType":"uint256","name":"","type":"uint256"}],"name":"releaseInfos","outputs":[{"internalType":"uint256","name":"durationInHours","type":"uint256"},{"internalType":"uint256","name":"percentage","type":"uint256"}],"stateMutability":"view","type":"function"},{"inputs":[],"name":"renounceOwnership","outputs":[],"stateMutability":"nonpayable","type":"function"},{"inputs":[],"name":"sellerFee","outputs":[{"internalType":"uint256","name":"","type":"uint256"}],"stateMutability":"view","type":"function"},{"inputs":[{"internalType":"bytes32","name":"orderId","type":"bytes32"},{"internalType":"address","name":"beneficiary","type":"address"},{"internalType":"address","name":"token","type":"address"},{"internalType":"uint256","name":"totalAmount","type":"uint256"},{"components":[{"internalType":"uint256","name":"durationInHours","type":"uint256"},{"internalType":"uint256","name":"percentage","type":"uint256"}],"internalType":"struct IAtomicSwapBase.Release[]","name":"releases","type":"tuple[]"}],"name":"startVesting","outputs":[],"stateMutability":"nonpayable","type":"function"},{"inputs":[{"internalType":"address","name":"newOwner","type":"address"}],"name":"transferOwnership","outputs":[],"stateMutability":"nonpayable","type":"function"},{"inputs":[{"internalType":"address","name":"","type":"address"},{"internalType":"bytes32","name":"","type":"bytes32"}],"name":"vestingSchedules","outputs":[{"internalType":"address","name":"from","type":"address"},{"internalType":"uint256","name":"start","type":"uint256"},{"internalType":"address","name":"token","type":"address"},{"internalType":"uint256","name":"totalAmount","type":"uint256"},{"internalType":"uint256","name":"amountReleased","type":"uint256"},{"internalType":"uint256","name":"lastReleasedStep","type":"uint256"}],"stateMutability":"view","type":"function"},{"stateMutability":"payable","type":"receive"}],"evm":{"bytecode":{"linkReferences":{"contracts/abstracts/libs/utils/TokenTransferHelper.sol":{"TokenTransferHelper":[{"length":20,"start":2954}]}},"object":"608060405234801561001057600080fd5b50611a62806100206000396000f3fe6080604052600436106100955760003560e01c806382a969e21161005957806382a969e2146101cd5780638da5cb5b1461020b578063d7c2eec714610236578063e1f3d55a1461025f578063f2fde38b1461028a576100e0565b806307d0d916146100e55780631794bb3c14610122578063715018a61461014b5780637623f00e146101625780637b00ffad1461018b576100e0565b366100e057343373ffffffffffffffffffffffffffffffffffffffff167f88a5966d370b9919b20f3e2c13ff65706f196a4e32cc2c12bf57088f8852587460405160405180910390a3005b600080fd5b3480156100f157600080fd5b5061010c60048036038101906101079190611086565b6102b3565b60405161011991906110cc565b60405180910390f35b34801561012e57600080fd5b5061014960048036038101906101449190611113565b6102fc565b005b34801561015757600080fd5b506101606104d5565b005b34801561016e57600080fd5b506101896004803603810190610184919061134a565b6104e9565b005b34801561019757600080fd5b506101b260048036038101906101ad91906113e1565b6107a7565b6040516101c496959493929190611430565b60405180910390f35b3480156101d957600080fd5b506101f460048036038101906101ef9190611491565b610830565b6040516102029291906114e4565b60405180910390f35b34801561021757600080fd5b5061022061087e565b60405161022d919061150d565b60405180910390f35b34801561024257600080fd5b5061025d600480360381019061025891906113e1565b6108b6565b005b34801561026b57600080fd5b50610274610c54565b60405161028191906110cc565b60405180910390f35b34801561029657600080fd5b506102b160048036038101906102ac9190611086565b610c5a565b005b6000600260008373ffffffffffffffffffffffffffffffffffffffff1673ffffffffffffffffffffffffffffffffffffffff168152602001908152602001600020549050919050565b6000610306610ce0565b905060008160000160089054906101000a900460ff1615905060008260000160009054906101000a900467ffffffffffffffff1690506000808267ffffffffffffffff161480156103545750825b9050600060018367ffffffffffffffff16148015610389575060003073ffffffffffffffffffffffffffffffffffffffff163b145b905081158015610397575080155b156103ce576040517ff92ee8a900000000000000000000000000000000000000000000000000000000815260040160405180910390fd5b60018560000160006101000a81548167ffffffffffffffff021916908367ffffffffffffffff160217905550831561041e5760018560000160086101000a81548160ff0219169083151502179055505b61042788610d08565b86600360006101000a81548173ffffffffffffffffffffffffffffffffffffffff021916908373ffffffffffffffffffffffffffffffffffffffff1602179055508560048190555083156104cb5760008560000160086101000a81548160ff0219169083151502179055507fc7f505b2f371ae2175ee4913f4499e1f2633a7b5936321eed1cdaeb6115181d260016040516104c29190611581565b60405180910390a15b5050505050505050565b6104dd610d8e565b6104e76000610e15565b565b600042905060006040518060c001604052803373ffffffffffffffffffffffffffffffffffffffff1681526020018381526020018673ffffffffffffffffffffffffffffffffffffffff1681526020018581526020016000815260200160008152509050806000808873ffffffffffffffffffffffffffffffffffffffff1673ffffffffffffffffffffffffffffffffffffffff168152602001908152602001600020600089815260200190815260200160002060008201518160000160006101000a81548173ffffffffffffffffffffffffffffffffffffffff021916908373ffffffffffffffffffffffffffffffffffffffff1602179055506020820151816001015560408201518160020160006101000a81548173ffffffffffffffffffffffffffffffffffffffff021916908373ffffffffffffffffffffffffffffffffffffffff160217905550606082015181600301556080820151816004015560a082015181600501559050506000600160008873ffffffffffffffffffffffffffffffffffffffff1673ffffffffffffffffffffffffffffffffffffffff1681526020019081526020016000206000898152602001908152602001600020905060005b845181101561072457818582815181106106ca576106c961159c565b5b6020026020010151908060018154018082558091505060019003906000526020600020906002020160009091909190915060008201518160000155602082015181600101555050808061071c906115fa565b9150506106ad565b5060405180608001604052808381526020018581526020018873ffffffffffffffffffffffffffffffffffffffff168152602001898152506040516107699190611885565b60405180910390207fb16abbea6ba3704f5f2a80a6e86817bd96545258a4bbe645becfc85ab722675260405160405180910390a25050505050505050565b6000602052816000526040600020602052806000526040600020600091509150508060000160009054906101000a900473ffffffffffffffffffffffffffffffffffffffff16908060010154908060020160009054906101000a900473ffffffffffffffffffffffffffffffffffffffff16908060030154908060040154908060050154905086565b6001602052826000526040600020602052816000526040600020818154811061085857600080fd5b906000526020600020906002020160009250925050508060000154908060010154905082565b600080610889610eec565b90508060000160009054906101000a900473ffffffffffffffffffffffffffffffffffffffff1691505090565b6108be610f14565b60008060008473ffffffffffffffffffffffffffffffffffffffff1673ffffffffffffffffffffffffffffffffffffffff168152602001908152602001600020600083815260200190815260200160002090506000600160008573ffffffffffffffffffffffffffffffffffffffff1673ffffffffffffffffffffffffffffffffffffffff1681526020019081526020016000206000848152602001908152602001600020905081600101544210156109a3576040517f35549be800000000000000000000000000000000000000000000000000000000815260040160405180910390fd5b6000818054905014806109be57508080549050826005015410155b156109f5576040517f8bdb538100000000000000000000000000000000000000000000000000000000815260040160405180910390fd5b600080836001015490506000846005015490505b8380549050811015610ad757610e10848281548110610a2b57610a2a61159c565b5b906000526020600020906002020160000154610a47919061189c565b82610a5291906118de565b9150814210610ad7576000612710858381548110610a7357610a7261159c565b5b9060005260206000209060020201600101548760030154610a94919061189c565b610a9e9190611941565b90508084610aac91906118de565b9350600182610abb91906118de565b8660050181905550508080610acf906115fa565b915050610a09565b5060008211610b12576040517f3507415000000000000000000000000000000000000000000000000000000000815260040160405180910390fd5b81846004016000828254610b2691906118de565b925050819055508360020160009054906101000a900473ffffffffffffffffffffffffffffffffffffffff1673ffffffffffffffffffffffffffffffffffffffff1673__$b9ebb88af43d68d18cc83c52d00a91a1a0$__6306cf2280909188856004546103e8600360009054906101000a900473ffffffffffffffffffffffffffffffffffffffff166040518763ffffffff1660e01b8152600401610bd0969594939291906119cb565b60006040518083038186803b158015610be857600080fd5b505af4158015610bfc573d6000803e3d6000fd5b50505050818673ffffffffffffffffffffffffffffffffffffffff167fb21fb52d5749b80f3182f8c6992236b5e5576681880914484d7f4c9b062e619e60405160405180910390a350505050610c50610f6b565b5050565b60045481565b610c62610d8e565b600073ffffffffffffffffffffffffffffffffffffffff168173ffffffffffffffffffffffffffffffffffffffff1603610cd45760006040517f1e4fbdf7000000000000000000000000000000000000000000000000000000008152600401610ccb919061150d565b60405180910390fd5b610cdd81610e15565b50565b60007ff0c57e16840df040f15088dc2f81fe391c3923bec73e23a9662efc9c229c6a00905090565b610d10610f84565b600073ffffffffffffffffffffffffffffffffffffffff168173ffffffffffffffffffffffffffffffffffffffff1603610d825760006040517f1e4fbdf7000000000000000000000000000000000000000000000000000000008152600401610d79919061150d565b60405180910390fd5b610d8b81610e15565b50565b610d96610fc4565b73ffffffffffffffffffffffffffffffffffffffff16610db461087e565b73ffffffffffffffffffffffffffffffffffffffff1614610e1357610dd7610fc4565b6040517f118cdaa7000000000000000000000000000000000000000000000000000000008152600401610e0a919061150d565b60405180910390fd5b565b6000610e1f610eec565b905060008160000160009054906101000a900473ffffffffffffffffffffffffffffffffffffffff169050828260000160006101000a81548173ffffffffffffffffffffffffffffffffffffffff021916908373ffffffffffffffffffffffffffffffffffffffff1602179055508273ffffffffffffffffffffffffffffffffffffffff168173ffffffffffffffffffffffffffffffffffffffff167f8be0079c531659141344cd1fd0a4f28419497f9722a3daafe3b4186f6b6457e060405160405180910390a3505050565b60007f9016d09d72d40fdae2fd8ceac6b6234c7706214fd39c1cd1e609a0528c199300905090565b6000610f1e610fcc565b90506002816000015403610f5e576040517f3ee5aeb500000000000000000000000000000000000000000000000000000000815260040160405180910390fd5b6002816000018190555050565b6000610f75610fcc565b90506001816000018190555050565b610f8c610ff4565b610fc2576040517fd7e6bcf800000000000000000000000000000000000000000000000000000000815260040160405180910390fd5b565b600033905090565b60007f9b779b17422d0df92223018b32b4d1fa46e071723d6817e2486d003becc55f00905090565b6000610ffe610ce0565b60000160089054906101000a900460ff16905090565b6000604051905090565b600080fd5b600080fd5b600073ffffffffffffffffffffffffffffffffffffffff82169050919050565b600061105382611028565b9050919050565b61106381611048565b811461106e57600080fd5b50565b6000813590506110808161105a565b92915050565b60006020828403121561109c5761109b61101e565b5b60006110aa84828501611071565b91505092915050565b6000819050919050565b6110c6816110b3565b82525050565b60006020820190506110e160008301846110bd565b92915050565b6110f0816110b3565b81146110fb57600080fd5b50565b60008135905061110d816110e7565b92915050565b60008060006060848603121561112c5761112b61101e565b5b600061113a86828701611071565b935050602061114b86828701611071565b925050604061115c868287016110fe565b9150509250925092565b6000819050919050565b61117981611166565b811461118457600080fd5b50565b60008135905061119681611170565b92915050565b600080fd5b6000601f19601f8301169050919050565b7f4e487b7100000000000000000000000000000000000000000000000000000000600052604160045260246000fd5b6111ea826111a1565b810181811067ffffffffffffffff82111715611209576112086111b2565b5b80604052505050565b600061121c611014565b905061122882826111e1565b919050565b600067ffffffffffffffff821115611248576112476111b2565b5b602082029050602081019050919050565b600080fd5b600080fd5b6000604082840312156112795761127861125e565b5b6112836040611212565b90506000611293848285016110fe565b60008301525060206112a7848285016110fe565b60208301525092915050565b60006112c66112c18461122d565b611212565b905080838252602082019050604084028301858111156112e9576112e8611259565b5b835b8181101561131257806112fe8882611263565b8452602084019350506040810190506112eb565b5050509392505050565b600082601f8301126113315761133061119c565b5b81356113418482602086016112b3565b91505092915050565b600080600080600060a086880312156113665761136561101e565b5b600061137488828901611187565b955050602061138588828901611071565b945050604061139688828901611071565b93505060606113a7888289016110fe565b925050608086013567ffffffffffffffff8111156113c8576113c7611023565b5b6113d48882890161131c565b9150509295509295909350565b600080604083850312156113f8576113f761101e565b5b600061140685828601611071565b925050602061141785828601611187565b9150509250929050565b61142a81611048565b82525050565b600060c0820190506114456000830189611421565b61145260208301886110bd565b61145f6040830187611421565b61146c60608301866110bd565b61147960808301856110bd565b61148660a08301846110bd565b979650505050505050565b6000806000606084860312156114aa576114a961101e565b5b60006114b886828701611071565b93505060206114c986828701611187565b92505060406114da868287016110fe565b9150509250925092565b60006040820190506114f960008301856110bd565b61150660208301846110bd565b9392505050565b60006020820190506115226000830184611421565b92915050565b6000819050919050565b600067ffffffffffffffff82169050919050565b6000819050919050565b600061156b61156661156184611528565b611546565b611532565b9050919050565b61157b81611550565b82525050565b60006020820190506115966000830184611572565b92915050565b7f4e487b7100000000000000000000000000000000000000000000000000000000600052603260045260246000fd5b7f4e487b7100000000000000000000000000000000000000000000000000000000600052601160045260246000fd5b6000611605826110b3565b91507fffffffffffffffffffffffffffffffffffffffffffffffffffffffffffffffff8203611637576116366115cb565b5b600182019050919050565b61164b81611048565b82525050565b600061165d8383611642565b60208301905092915050565b611672816110b3565b82525050565b60006116848383611669565b60208301905092915050565b6000820160008201516116a38482611651565b93505060208201516116b58482611678565b93505060408201516116c78482611651565b93505060608201516116d98482611678565b93505060808201516116eb8482611678565b93505060a08201516116fd8482611678565b935050505050565b60006117118383611690565b60c08301905092915050565b600081519050919050565b600081905092915050565b6000819050602082019050919050565b6000820160008201516117568482611678565b93505060208201516117688482611678565b935050505050565b600061177c8383611743565b60408301905092915050565b6000602082019050919050565b60006117a08261171d565b6117aa8185611728565b93506117b583611733565b8060005b838110156117e65781516117cd8882611770565b97506117d883611788565b9250506001810190506117b9565b5085935050505092915050565b60006117ff8383611795565b905092915050565b61181081611166565b82525050565b60006118228383611807565b60208301905092915050565b600080830160008301516118428582611705565b945050602083015161185485826117f3565b94505060408301516118668582611651565b94505060608301516118788582611816565b9450508391505092915050565b6000611891828461182e565b915081905092915050565b60006118a7826110b3565b91506118b2836110b3565b92508282026118c0816110b3565b915082820484148315176118d7576118d66115cb565b5b5092915050565b60006118e9826110b3565b91506118f4836110b3565b925082820190508082111561190c5761190b6115cb565b5b92915050565b7f4e487b7100000000000000000000000000000000000000000000000000000000600052601260045260246000fd5b600061194c826110b3565b9150611957836110b3565b92508261196757611966611912565b5b828204905092915050565b61197b81611048565b82525050565b61198a816110b3565b82525050565b6000819050919050565b60006119b56119b06119ab84611990565b611546565b6110b3565b9050919050565b6119c58161199a565b82525050565b600060c0820190506119e06000830189611972565b6119ed6020830188611972565b6119fa6040830187611981565b611a076060830186611981565b611a1460808301856119bc565b611a2160a0830184611972565b97965050505050505056fea26469706673582212204aba72101a175d2d35071b151746b295c3a31c113304d2a754da67b46334851964736f6c63430008140033","opcodes":"PUSH1 0x80 PUSH1 0x40 MSTORE CALLVALUE DUP1 ISZERO PUSH2 0x10 JUMPI PUSH1 0x0 DUP1 REVERT JUMPDEST POP PUSH2 0x1A62 DUP1 PUSH2 0x20 PUSH1 0x0 CODECOPY PUSH1 0x0 RETURN INVALID PUSH1 0x80 PUSH1 0x40 MSTORE PUSH1 0x4 CALLDATASIZE LT PUSH2 0x95 JUMPI PUSH1 0x0 CALLDATALOAD PUSH1 0xE0 SHR DUP1 PUSH4 0x82A969E2 GT PUSH2 0x59 JUMPI DUP1 PUSH4 0x82A969E2 EQ PUSH2 0x1CD JUMPI DUP1 PUSH4 0x8DA5CB5B EQ PUSH2 0x20B JUMPI DUP1 PUSH4 0xD7C2EEC7 EQ PUSH2 0x236 JUMPI DUP1 PUSH4 0xE1F3D55A EQ PUSH2 0x25F JUMPI DUP1 PUSH4 0xF2FDE38B EQ PUSH2 0x28A JUMPI PUSH2 0xE0 JUMP JUMPDEST DUP1 PUSH4 0x7D0D916 EQ PUSH2 0xE5 JUMPI DUP1 PUSH4 0x1794BB3C EQ PUSH2 0x122 JUMPI DUP1 PUSH4 0x715018A6 EQ PUSH2 0x14B JUMPI DUP1 PUSH4 0x7623F00E EQ PUSH2 0x162 JUMPI DUP1 PUSH4 0x7B00FFAD EQ PUSH2 0x18B JUMPI PUSH2 0xE0 JUMP JUMPDEST CALLDATASIZE PUSH2 0xE0 JUMPI CALLVALUE CALLER PUSH20 0xFFFFFFFFFFFFFFFFFFFFFFFFFFFFFFFFFFFFFFFF AND PUSH32 0x88A5966D370B9919B20F3E2C13FF65706F196A4E32CC2C12BF57088F88525874 PUSH1 0x40 MLOAD PUSH1 0x40 MLOAD DUP1 SWAP2 SUB SWAP1 LOG3 STOP JUMPDEST PUSH1 0x0 DUP1 REVERT JUMPDEST CALLVALUE DUP1 ISZERO PUSH2 0xF1 JUMPI PUSH1 0x0 DUP1 REVERT JUMPDEST POP PUSH2 0x10C PUSH1 0x4 DUP1 CALLDATASIZE SUB DUP2 ADD SWAP1 PUSH2 0x107 SWAP2 SWAP1 PUSH2 0x1086 JUMP JUMPDEST PUSH2 0x2B3 JUMP JUMPDEST PUSH1 0x40 MLOAD PUSH2 0x119 SWAP2 SWAP1 PUSH2 0x10CC JUMP JUMPDEST PUSH1 0x40 MLOAD DUP1 SWAP2 SUB SWAP1 RETURN JUMPDEST CALLVALUE DUP1 ISZERO PUSH2 0x12E JUMPI PUSH1 0x0 DUP1 REVERT JUMPDEST POP PUSH2 0x149 PUSH1 0x4 DUP1 CALLDATASIZE SUB DUP2 ADD SWAP1 PUSH2 0x144 SWAP2 SWAP1 PUSH2 0x1113 JUMP JUMPDEST PUSH2 0x2FC JUMP JUMPDEST STOP JUMPDEST CALLVALUE DUP1 ISZERO PUSH2 0x157 JUMPI PUSH1 0x0 DUP1 REVERT JUMPDEST POP PUSH2 0x160 PUSH2 0x4D5 JUMP JUMPDEST STOP JUMPDEST CALLVALUE DUP1 ISZERO PUSH2 0x16E JUMPI PUSH1 0x0 DUP1 REVERT JUMPDEST POP PUSH2 0x189 PUSH1 0x4 DUP1 CALLDATASIZE SUB DUP2 ADD SWAP1 PUSH2 0x184 SWAP2 SWAP1 PUSH2 0x134A JUMP JUMPDEST PUSH2 0x4E9 JUMP JUMPDEST STOP JUMPDEST CALLVALUE DUP1 ISZERO PUSH2 0x197 JUMPI PUSH1 0x0 DUP1 REVERT JUMPDEST POP PUSH2 0x1B2 PUSH1 0x4 DUP1 CALLDATASIZE SUB DUP2 ADD SWAP1 PUSH2 0x1AD SWAP2 SWAP1 PUSH2 0x13E1 JUMP JUMPDEST PUSH2 0x7A7 JUMP JUMPDEST PUSH1 0x40 MLOAD PUSH2 0x1C4 SWAP7 SWAP6 SWAP5 SWAP4 SWAP3 SWAP2 SWAP1 PUSH2 0x1430 JUMP JUMPDEST PUSH1 0x40 MLOAD DUP1 SWAP2 SUB SWAP1 RETURN JUMPDEST CALLVALUE DUP1 ISZERO PUSH2 0x1D9 JUMPI PUSH1 0x0 DUP1 REVERT JUMPDEST POP PUSH2 0x1F4 PUSH1 0x4 DUP1 CALLDATASIZE SUB DUP2 ADD SWAP1 PUSH2 0x1EF SWAP2 SWAP1 PUSH2 0x1491 JUMP JUMPDEST PUSH2 0x830 JUMP JUMPDEST PUSH1 0x40 MLOAD PUSH2 0x202 SWAP3 SWAP2 SWAP1 PUSH2 0x14E4 JUMP JUMPDEST PUSH1 0x40 MLOAD DUP1 SWAP2 SUB SWAP1 RETURN JUMPDEST CALLVALUE DUP1 ISZERO PUSH2 0x217 JUMPI PUSH1 0x0 DUP1 REVERT JUMPDEST POP PUSH2 0x220 PUSH2 0x87E JUMP JUMPDEST PUSH1 0x40 MLOAD PUSH2 0x22D SWAP2 SWAP1 PUSH2 0x150D JUMP JUMPDEST PUSH1 0x40 MLOAD DUP1 SWAP2 SUB SWAP1 RETURN JUMPDEST CALLVALUE DUP1 ISZERO PUSH2 0x242 JUMPI PUSH1 0x0 DUP1 REVERT JUMPDEST POP PUSH2 0x25D PUSH1 0x4 DUP1 CALLDATASIZE SUB DUP2 ADD SWAP1 PUSH2 0x258 SWAP2 SWAP1 PUSH2 0x13E1 JUMP JUMPDEST PUSH2 0x8B6 JUMP JUMPDEST STOP JUMPDEST CALLVALUE DUP1 ISZERO PUSH2 0x26B JUMPI PUSH1 0x0 DUP1 REVERT JUMPDEST POP PUSH2 0x274 PUSH2 0xC54 JUMP JUMPDEST PUSH1 0x40 MLOAD PUSH2 0x281 SWAP2 SWAP1 PUSH2 0x10CC JUMP JUMPDEST PUSH1 0x40 MLOAD DUP1 SWAP2 SUB SWAP1 RETURN JUMPDEST CALLVALUE DUP1 ISZERO PUSH2 0x296 JUMPI PUSH1 0x0 DUP1 REVERT JUMPDEST POP PUSH2 0x2B1 PUSH1 0x4 DUP1 CALLDATASIZE SUB DUP2 ADD SWAP1 PUSH2 0x2AC SWAP2 SWAP1 PUSH2 0x1086 JUMP JUMPDEST PUSH2 0xC5A JUMP JUMPDEST STOP JUMPDEST PUSH1 0x0 PUSH1 0x2 PUSH1 0x0 DUP4 PUSH20 0xFFFFFFFFFFFFFFFFFFFFFFFFFFFFFFFFFFFFFFFF AND PUSH20 0xFFFFFFFFFFFFFFFFFFFFFFFFFFFFFFFFFFFFFFFF AND DUP2 MSTORE PUSH1 0x20 ADD SWAP1 DUP2 MSTORE PUSH1 0x20 ADD PUSH1 0x0 KECCAK256 SLOAD SWAP1 POP SWAP2 SWAP1 POP JUMP JUMPDEST PUSH1 0x0 PUSH2 0x306 PUSH2 0xCE0 JUMP JUMPDEST SWAP1 POP PUSH1 0x0 DUP2 PUSH1 0x0 ADD PUSH1 0x8 SWAP1 SLOAD SWAP1 PUSH2 0x100 EXP SWAP1 DIV PUSH1 0xFF AND ISZERO SWAP1 POP PUSH1 0x0 DUP3 PUSH1 0x0 ADD PUSH1 0x0 SWAP1 SLOAD SWAP1 PUSH2 0x100 EXP SWAP1 DIV PUSH8 0xFFFFFFFFFFFFFFFF AND SWAP1 POP PUSH1 0x0 DUP1 DUP3 PUSH8 0xFFFFFFFFFFFFFFFF AND EQ DUP1 ISZERO PUSH2 0x354 JUMPI POP DUP3 JUMPDEST SWAP1 POP PUSH1 0x0 PUSH1 0x1 DUP4 PUSH8 0xFFFFFFFFFFFFFFFF AND EQ DUP1 ISZERO PUSH2 0x389 JUMPI POP PUSH1 0x0 ADDRESS PUSH20 0xFFFFFFFFFFFFFFFFFFFFFFFFFFFFFFFFFFFFFFFF AND EXTCODESIZE EQ JUMPDEST SWAP1 POP DUP2 ISZERO DUP1 ISZERO PUSH2 0x397 JUMPI POP DUP1 ISZERO JUMPDEST ISZERO PUSH2 0x3CE JUMPI PUSH1 0x40 MLOAD PUSH32 0xF92EE8A900000000000000000000000000000000000000000000000000000000 DUP2 MSTORE PUSH1 0x4 ADD PUSH1 0x40 MLOAD DUP1 SWAP2 SUB SWAP1 REVERT JUMPDEST PUSH1 0x1 DUP6 PUSH1 0x0 ADD PUSH1 0x0 PUSH2 0x100 EXP DUP2 SLOAD DUP2 PUSH8 0xFFFFFFFFFFFFFFFF MUL NOT AND SWAP1 DUP4 PUSH8 0xFFFFFFFFFFFFFFFF AND MUL OR SWAP1 SSTORE POP DUP4 ISZERO PUSH2 0x41E JUMPI PUSH1 0x1 DUP6 PUSH1 0x0 ADD PUSH1 0x8 PUSH2 0x100 EXP DUP2 SLOAD DUP2 PUSH1 0xFF MUL NOT AND SWAP1 DUP4 ISZERO ISZERO MUL OR SWAP1 SSTORE POP JUMPDEST PUSH2 0x427 DUP9 PUSH2 0xD08 JUMP JUMPDEST DUP7 PUSH1 0x3 PUSH1 0x0 PUSH2 0x100 EXP DUP2 SLOAD DUP2 PUSH20 0xFFFFFFFFFFFFFFFFFFFFFFFFFFFFFFFFFFFFFFFF MUL NOT AND SWAP1 DUP4 PUSH20 0xFFFFFFFFFFFFFFFFFFFFFFFFFFFFFFFFFFFFFFFF AND MUL OR SWAP1 SSTORE POP DUP6 PUSH1 0x4 DUP2 SWAP1 SSTORE POP DUP4 ISZERO PUSH2 0x4CB JUMPI PUSH1 0x0 DUP6 PUSH1 0x0 ADD PUSH1 0x8 PUSH2 0x100 EXP DUP2 SLOAD DUP2 PUSH1 0xFF MUL NOT AND SWAP1 DUP4 ISZERO ISZERO MUL OR SWAP1 SSTORE POP PUSH32 0xC7F505B2F371AE2175EE4913F4499E1F2633A7B5936321EED1CDAEB6115181D2 PUSH1 0x1 PUSH1 0x40 MLOAD PUSH2 0x4C2 SWAP2 SWAP1 PUSH2 0x1581 JUMP JUMPDEST PUSH1 0x40 MLOAD DUP1 SWAP2 SUB SWAP1 LOG1 JUMPDEST POP POP POP POP POP POP POP POP JUMP JUMPDEST PUSH2 0x4DD PUSH2 0xD8E JUMP JUMPDEST PUSH2 0x4E7 PUSH1 0x0 PUSH2 0xE15 JUMP JUMPDEST JUMP JUMPDEST PUSH1 0x0 TIMESTAMP SWAP1 POP PUSH1 0x0 PUSH1 0x40 MLOAD DUP1 PUSH1 0xC0 ADD PUSH1 0x40 MSTORE DUP1 CALLER PUSH20 0xFFFFFFFFFFFFFFFFFFFFFFFFFFFFFFFFFFFFFFFF AND DUP2 MSTORE PUSH1 0x20 ADD DUP4 DUP2 MSTORE PUSH1 0x20 ADD DUP7 PUSH20 0xFFFFFFFFFFFFFFFFFFFFFFFFFFFFFFFFFFFFFFFF AND DUP2 MSTORE PUSH1 0x20 ADD DUP6 DUP2 MSTORE PUSH1 0x20 ADD PUSH1 0x0 DUP2 MSTORE PUSH1 0x20 ADD PUSH1 0x0 DUP2 MSTORE POP SWAP1 POP DUP1 PUSH1 0x0 DUP1 DUP9 PUSH20 0xFFFFFFFFFFFFFFFFFFFFFFFFFFFFFFFFFFFFFFFF AND PUSH20 0xFFFFFFFFFFFFFFFFFFFFFFFFFFFFFFFFFFFFFFFF AND DUP2 MSTORE PUSH1 0x20 ADD SWAP1 DUP2 MSTORE PUSH1 0x20 ADD PUSH1 0x0 KECCAK256 PUSH1 0x0 DUP10 DUP2 MSTORE PUSH1 0x20 ADD SWAP1 DUP2 MSTORE PUSH1 0x20 ADD PUSH1 0x0 KECCAK256 PUSH1 0x0 DUP3 ADD MLOAD DUP2 PUSH1 0x0 ADD PUSH1 0x0 PUSH2 0x100 EXP DUP2 SLOAD DUP2 PUSH20 0xFFFFFFFFFFFFFFFFFFFFFFFFFFFFFFFFFFFFFFFF MUL NOT AND SWAP1 DUP4 PUSH20 0xFFFFFFFFFFFFFFFFFFFFFFFFFFFFFFFFFFFFFFFF AND MUL OR SWAP1 SSTORE POP PUSH1 0x20 DUP3 ADD MLOAD DUP2 PUSH1 0x1 ADD SSTORE PUSH1 0x40 DUP3 ADD MLOAD DUP2 PUSH1 0x2 ADD PUSH1 0x0 PUSH2 0x100 EXP DUP2 SLOAD DUP2 PUSH20 0xFFFFFFFFFFFFFFFFFFFFFFFFFFFFFFFFFFFFFFFF MUL NOT AND SWAP1 DUP4 PUSH20 0xFFFFFFFFFFFFFFFFFFFFFFFFFFFFFFFFFFFFFFFF AND MUL OR SWAP1 SSTORE POP PUSH1 0x60 DUP3 ADD MLOAD DUP2 PUSH1 0x3 ADD SSTORE PUSH1 0x80 DUP3 ADD MLOAD DUP2 PUSH1 0x4 ADD SSTORE PUSH1 0xA0 DUP3 ADD MLOAD DUP2 PUSH1 0x5 ADD SSTORE SWAP1 POP POP PUSH1 0x0 PUSH1 0x1 PUSH1 0x0 DUP9 PUSH20 0xFFFFFFFFFFFFFFFFFFFFFFFFFFFFFFFFFFFFFFFF AND PUSH20 0xFFFFFFFFFFFFFFFFFFFFFFFFFFFFFFFFFFFFFFFF AND DUP2 MSTORE PUSH1 0x20 ADD SWAP1 DUP2 MSTORE PUSH1 0x20 ADD PUSH1 0x0 KECCAK256 PUSH1 0x0 DUP10 DUP2 MSTORE PUSH1 0x20 ADD SWAP1 DUP2 MSTORE PUSH1 0x20 ADD PUSH1 0x0 KECCAK256 SWAP1 POP PUSH1 0x0 JUMPDEST DUP5 MLOAD DUP2 LT ISZERO PUSH2 0x724 JUMPI DUP2 DUP6 DUP3 DUP2 MLOAD DUP2 LT PUSH2 0x6CA JUMPI PUSH2 0x6C9 PUSH2 0x159C JUMP JUMPDEST JUMPDEST PUSH1 0x20 MUL PUSH1 0x20 ADD ADD MLOAD SWAP1 DUP1 PUSH1 0x1 DUP2 SLOAD ADD DUP1 DUP3 SSTORE DUP1 SWAP2 POP POP PUSH1 0x1 SWAP1 SUB SWAP1 PUSH1 0x0 MSTORE PUSH1 0x20 PUSH1 0x0 KECCAK256 SWAP1 PUSH1 0x2 MUL ADD PUSH1 0x0 SWAP1 SWAP2 SWAP1 SWAP2 SWAP1 SWAP2 POP PUSH1 0x0 DUP3 ADD MLOAD DUP2 PUSH1 0x0 ADD SSTORE PUSH1 0x20 DUP3 ADD MLOAD DUP2 PUSH1 0x1 ADD SSTORE POP POP DUP1 DUP1 PUSH2 0x71C SWAP1 PUSH2 0x15FA JUMP JUMPDEST SWAP2 POP POP PUSH2 0x6AD JUMP JUMPDEST POP PUSH1 0x40 MLOAD DUP1 PUSH1 0x80 ADD PUSH1 0x40 MSTORE DUP1 DUP4 DUP2 MSTORE PUSH1 0x20 ADD DUP6 DUP2 MSTORE PUSH1 0x20 ADD DUP9 PUSH20 0xFFFFFFFFFFFFFFFFFFFFFFFFFFFFFFFFFFFFFFFF AND DUP2 MSTORE PUSH1 0x20 ADD DUP10 DUP2 MSTORE POP PUSH1 0x40 MLOAD PUSH2 0x769 SWAP2 SWAP1 PUSH2 0x1885 JUMP JUMPDEST PUSH1 0x40 MLOAD DUP1 SWAP2 SUB SWAP1 KECCAK256 PUSH32 0xB16ABBEA6BA3704F5F2A80A6E86817BD96545258A4BBE645BECFC85AB7226752 PUSH1 0x40 MLOAD PUSH1 0x40 MLOAD DUP1 SWAP2 SUB SWAP1 LOG2 POP POP POP POP POP POP POP POP JUMP JUMPDEST PUSH1 0x0 PUSH1 0x20 MSTORE DUP2 PUSH1 0x0 MSTORE PUSH1 0x40 PUSH1 0x0 KECCAK256 PUSH1 0x20 MSTORE DUP1 PUSH1 0x0 MSTORE PUSH1 0x40 PUSH1 0x0 KECCAK256 PUSH1 0x0 SWAP2 POP SWAP2 POP POP DUP1 PUSH1 0x0 ADD PUSH1 0x0 SWAP1 SLOAD SWAP1 PUSH2 0x100 EXP SWAP1 DIV PUSH20 0xFFFFFFFFFFFFFFFFFFFFFFFFFFFFFFFFFFFFFFFF AND SWAP1 DUP1 PUSH1 0x1 ADD SLOAD SWAP1 DUP1 PUSH1 0x2 ADD PUSH1 0x0 SWAP1 SLOAD SWAP1 PUSH2 0x100 EXP SWAP1 DIV PUSH20 0xFFFFFFFFFFFFFFFFFFFFFFFFFFFFFFFFFFFFFFFF AND SWAP1 DUP1 PUSH1 0x3 ADD SLOAD SWAP1 DUP1 PUSH1 0x4 ADD SLOAD SWAP1 DUP1 PUSH1 0x5 ADD SLOAD SWAP1 POP DUP7 JUMP JUMPDEST PUSH1 0x1 PUSH1 0x20 MSTORE DUP3 PUSH1 0x0 MSTORE PUSH1 0x40 PUSH1 0x0 KECCAK256 PUSH1 0x20 MSTORE DUP2 PUSH1 0x0 MSTORE PUSH1 0x40 PUSH1 0x0 KECCAK256 DUP2 DUP2 SLOAD DUP2 LT PUSH2 0x858 JUMPI PUSH1 0x0 DUP1 REVERT JUMPDEST SWAP1 PUSH1 0x0 MSTORE PUSH1 0x20 PUSH1 0x0 KECCAK256 SWAP1 PUSH1 0x2 MUL ADD PUSH1 0x0 SWAP3 POP SWAP3 POP POP POP DUP1 PUSH1 0x0 ADD SLOAD SWAP1 DUP1 PUSH1 0x1 ADD SLOAD SWAP1 POP DUP3 JUMP JUMPDEST PUSH1 0x0 DUP1 PUSH2 0x889 PUSH2 0xEEC JUMP JUMPDEST SWAP1 POP DUP1 PUSH1 0x0 ADD PUSH1 0x0 SWAP1 SLOAD SWAP1 PUSH2 0x100 EXP SWAP1 DIV PUSH20 0xFFFFFFFFFFFFFFFFFFFFFFFFFFFFFFFFFFFFFFFF AND SWAP2 POP POP SWAP1 JUMP JUMPDEST PUSH2 0x8BE PUSH2 0xF14 JUMP JUMPDEST PUSH1 0x0 DUP1 PUSH1 0x0 DUP5 PUSH20 0xFFFFFFFFFFFFFFFFFFFFFFFFFFFFFFFFFFFFFFFF AND PUSH20 0xFFFFFFFFFFFFFFFFFFFFFFFFFFFFFFFFFFFFFFFF AND DUP2 MSTORE PUSH1 0x20 ADD SWAP1 DUP2 MSTORE PUSH1 0x20 ADD PUSH1 0x0 KECCAK256 PUSH1 0x0 DUP4 DUP2 MSTORE PUSH1 0x20 ADD SWAP1 DUP2 MSTORE PUSH1 0x20 ADD PUSH1 0x0 KECCAK256 SWAP1 POP PUSH1 0x0 PUSH1 0x1 PUSH1 0x0 DUP6 PUSH20 0xFFFFFFFFFFFFFFFFFFFFFFFFFFFFFFFFFFFFFFFF AND PUSH20 0xFFFFFFFFFFFFFFFFFFFFFFFFFFFFFFFFFFFFFFFF AND DUP2 MSTORE PUSH1 0x20 ADD SWAP1 DUP2 MSTORE PUSH1 0x20 ADD PUSH1 0x0 KECCAK256 PUSH1 0x0 DUP5 DUP2 MSTORE PUSH1 0x20 ADD SWAP1 DUP2 MSTORE PUSH1 0x20 ADD PUSH1 0x0 KECCAK256 SWAP1 POP DUP2 PUSH1 0x1 ADD SLOAD TIMESTAMP LT ISZERO PUSH2 0x9A3 JUMPI PUSH1 0x40 MLOAD PUSH32 0x35549BE800000000000000000000000000000000000000000000000000000000 DUP2 MSTORE PUSH1 0x4 ADD PUSH1 0x40 MLOAD DUP1 SWAP2 SUB SWAP1 REVERT JUMPDEST PUSH1 0x0 DUP2 DUP1 SLOAD SWAP1 POP EQ DUP1 PUSH2 0x9BE JUMPI POP DUP1 DUP1 SLOAD SWAP1 POP DUP3 PUSH1 0x5 ADD SLOAD LT ISZERO JUMPDEST ISZERO PUSH2 0x9F5 JUMPI PUSH1 0x40 MLOAD PUSH32 0x8BDB538100000000000000000000000000000000000000000000000000000000 DUP2 MSTORE PUSH1 0x4 ADD PUSH1 0x40 MLOAD DUP1 SWAP2 SUB SWAP1 REVERT JUMPDEST PUSH1 0x0 DUP1 DUP4 PUSH1 0x1 ADD SLOAD SWAP1 POP PUSH1 0x0 DUP5 PUSH1 0x5 ADD SLOAD SWAP1 POP JUMPDEST DUP4 DUP1 SLOAD SWAP1 POP DUP2 LT ISZERO PUSH2 0xAD7 JUMPI PUSH2 0xE10 DUP5 DUP3 DUP2 SLOAD DUP2 LT PUSH2 0xA2B JUMPI PUSH2 0xA2A PUSH2 0x159C JUMP JUMPDEST JUMPDEST SWAP1 PUSH1 0x0 MSTORE PUSH1 0x20 PUSH1 0x0 KECCAK256 SWAP1 PUSH1 0x2 MUL ADD PUSH1 0x0 ADD SLOAD PUSH2 0xA47 SWAP2 SWAP1 PUSH2 0x189C JUMP JUMPDEST DUP3 PUSH2 0xA52 SWAP2 SWAP1 PUSH2 0x18DE JUMP JUMPDEST SWAP2 POP DUP2 TIMESTAMP LT PUSH2 0xAD7 JUMPI PUSH1 0x0 PUSH2 0x2710 DUP6 DUP4 DUP2 SLOAD DUP2 LT PUSH2 0xA73 JUMPI PUSH2 0xA72 PUSH2 0x159C JUMP JUMPDEST JUMPDEST SWAP1 PUSH1 0x0 MSTORE PUSH1 0x20 PUSH1 0x0 KECCAK256 SWAP1 PUSH1 0x2 MUL ADD PUSH1 0x1 ADD SLOAD DUP8 PUSH1 0x3 ADD SLOAD PUSH2 0xA94 SWAP2 SWAP1 PUSH2 0x189C JUMP JUMPDEST PUSH2 0xA9E SWAP2 SWAP1 PUSH2 0x1941 JUMP JUMPDEST SWAP1 POP DUP1 DUP5 PUSH2 0xAAC SWAP2 SWAP1 PUSH2 0x18DE JUMP JUMPDEST SWAP4 POP PUSH1 0x1 DUP3 PUSH2 0xABB SWAP2 SWAP1 PUSH2 0x18DE JUMP JUMPDEST DUP7 PUSH1 0x5 ADD DUP2 SWAP1 SSTORE POP POP DUP1 DUP1 PUSH2 0xACF SWAP1 PUSH2 0x15FA JUMP JUMPDEST SWAP2 POP POP PUSH2 0xA09 JUMP JUMPDEST POP PUSH1 0x0 DUP3 GT PUSH2 0xB12 JUMPI PUSH1 0x40 MLOAD PUSH32 0x3507415000000000000000000000000000000000000000000000000000000000 DUP2 MSTORE PUSH1 0x4 ADD PUSH1 0x40 MLOAD DUP1 SWAP2 SUB SWAP1 REVERT JUMPDEST DUP2 DUP5 PUSH1 0x4 ADD PUSH1 0x0 DUP3 DUP3 SLOAD PUSH2 0xB26 SWAP2 SWAP1 PUSH2 0x18DE JUMP JUMPDEST SWAP3 POP POP DUP2 SWAP1 SSTORE POP DUP4 PUSH1 0x2 ADD PUSH1 0x0 SWAP1 SLOAD SWAP1 PUSH2 0x100 EXP SWAP1 DIV PUSH20 0xFFFFFFFFFFFFFFFFFFFFFFFFFFFFFFFFFFFFFFFF AND PUSH20 0xFFFFFFFFFFFFFFFFFFFFFFFFFFFFFFFFFFFFFFFF AND PUSH20 0x0 PUSH4 0x6CF2280 SWAP1 SWAP2 DUP9 DUP6 PUSH1 0x4 SLOAD PUSH2 0x3E8 PUSH1 0x3 PUSH1 0x0 SWAP1 SLOAD SWAP1 PUSH2 0x100 EXP SWAP1 DIV PUSH20 0xFFFFFFFFFFFFFFFFFFFFFFFFFFFFFFFFFFFFFFFF AND PUSH1 0x40 MLOAD DUP8 PUSH4 0xFFFFFFFF AND PUSH1 0xE0 SHL DUP2 MSTORE PUSH1 0x4 ADD PUSH2 0xBD0 SWAP7 SWAP6 SWAP5 SWAP4 SWAP3 SWAP2 SWAP1 PUSH2 0x19CB JUMP JUMPDEST PUSH1 0x0 PUSH1 0x40 MLOAD DUP1 DUP4 SUB DUP2 DUP7 DUP1 EXTCODESIZE ISZERO DUP1 ISZERO PUSH2 0xBE8 JUMPI PUSH1 0x0 DUP1 REVERT JUMPDEST POP GAS DELEGATECALL ISZERO DUP1 ISZERO PUSH2 0xBFC JUMPI RETURNDATASIZE PUSH1 0x0 DUP1 RETURNDATACOPY RETURNDATASIZE PUSH1 0x0 REVERT JUMPDEST POP POP POP POP DUP2 DUP7 PUSH20 0xFFFFFFFFFFFFFFFFFFFFFFFFFFFFFFFFFFFFFFFF AND PUSH32 0xB21FB52D5749B80F3182F8C6992236B5E5576681880914484D7F4C9B062E619E PUSH1 0x40 MLOAD PUSH1 0x40 MLOAD DUP1 SWAP2 SUB SWAP1 LOG3 POP POP POP POP PUSH2 0xC50 PUSH2 0xF6B JUMP JUMPDEST POP POP JUMP JUMPDEST PUSH1 0x4 SLOAD DUP2 JUMP JUMPDEST PUSH2 0xC62 PUSH2 0xD8E JUMP JUMPDEST PUSH1 0x0 PUSH20 0xFFFFFFFFFFFFFFFFFFFFFFFFFFFFFFFFFFFFFFFF AND DUP2 PUSH20 0xFFFFFFFFFFFFFFFFFFFFFFFFFFFFFFFFFFFFFFFF AND SUB PUSH2 0xCD4 JUMPI PUSH1 0x0 PUSH1 0x40 MLOAD PUSH32 0x1E4FBDF700000000000000000000000000000000000000000000000000000000 DUP2 MSTORE PUSH1 0x4 ADD PUSH2 0xCCB SWAP2 SWAP1 PUSH2 0x150D JUMP JUMPDEST PUSH1 0x40 MLOAD DUP1 SWAP2 SUB SWAP1 REVERT JUMPDEST PUSH2 0xCDD DUP2 PUSH2 0xE15 JUMP JUMPDEST POP JUMP JUMPDEST PUSH1 0x0 PUSH32 0xF0C57E16840DF040F15088DC2F81FE391C3923BEC73E23A9662EFC9C229C6A00 SWAP1 POP SWAP1 JUMP JUMPDEST PUSH2 0xD10 PUSH2 0xF84 JUMP JUMPDEST PUSH1 0x0 PUSH20 0xFFFFFFFFFFFFFFFFFFFFFFFFFFFFFFFFFFFFFFFF AND DUP2 PUSH20 0xFFFFFFFFFFFFFFFFFFFFFFFFFFFFFFFFFFFFFFFF AND SUB PUSH2 0xD82 JUMPI PUSH1 0x0 PUSH1 0x40 MLOAD PUSH32 0x1E4FBDF700000000000000000000000000000000000000000000000000000000 DUP2 MSTORE PUSH1 0x4 ADD PUSH2 0xD79 SWAP2 SWAP1 PUSH2 0x150D JUMP JUMPDEST PUSH1 0x40 MLOAD DUP1 SWAP2 SUB SWAP1 REVERT JUMPDEST PUSH2 0xD8B DUP2 PUSH2 0xE15 JUMP JUMPDEST POP JUMP JUMPDEST PUSH2 0xD96 PUSH2 0xFC4 JUMP JUMPDEST PUSH20 0xFFFFFFFFFFFFFFFFFFFFFFFFFFFFFFFFFFFFFFFF AND PUSH2 0xDB4 PUSH2 0x87E JUMP JUMPDEST PUSH20 0xFFFFFFFFFFFFFFFFFFFFFFFFFFFFFFFFFFFFFFFF AND EQ PUSH2 0xE13 JUMPI PUSH2 0xDD7 PUSH2 0xFC4 JUMP JUMPDEST PUSH1 0x40 MLOAD PUSH32 0x118CDAA700000000000000000000000000000000000000000000000000000000 DUP2 MSTORE PUSH1 0x4 ADD PUSH2 0xE0A SWAP2 SWAP1 PUSH2 0x150D JUMP JUMPDEST PUSH1 0x40 MLOAD DUP1 SWAP2 SUB SWAP1 REVERT JUMPDEST JUMP JUMPDEST PUSH1 0x0 PUSH2 0xE1F PUSH2 0xEEC JUMP JUMPDEST SWAP1 POP PUSH1 0x0 DUP2 PUSH1 0x0 ADD PUSH1 0x0 SWAP1 SLOAD SWAP1 PUSH2 0x100 EXP SWAP1 DIV PUSH20 0xFFFFFFFFFFFFFFFFFFFFFFFFFFFFFFFFFFFFFFFF AND SWAP1 POP DUP3 DUP3 PUSH1 0x0 ADD PUSH1 0x0 PUSH2 0x100 EXP DUP2 SLOAD DUP2 PUSH20 0xFFFFFFFFFFFFFFFFFFFFFFFFFFFFFFFFFFFFFFFF MUL NOT AND SWAP1 DUP4 PUSH20 0xFFFFFFFFFFFFFFFFFFFFFFFFFFFFFFFFFFFFFFFF AND MUL OR SWAP1 SSTORE POP DUP3 PUSH20 0xFFFFFFFFFFFFFFFFFFFFFFFFFFFFFFFFFFFFFFFF AND DUP2 PUSH20 0xFFFFFFFFFFFFFFFFFFFFFFFFFFFFFFFFFFFFFFFF AND PUSH32 0x8BE0079C531659141344CD1FD0A4F28419497F9722A3DAAFE3B4186F6B6457E0 PUSH1 0x40 MLOAD PUSH1 0x40 MLOAD DUP1 SWAP2 SUB SWAP1 LOG3 POP POP POP JUMP JUMPDEST PUSH1 0x0 PUSH32 0x9016D09D72D40FDAE2FD8CEAC6B6234C7706214FD39C1CD1E609A0528C199300 SWAP1 POP SWAP1 JUMP JUMPDEST PUSH1 0x0 PUSH2 0xF1E PUSH2 0xFCC JUMP JUMPDEST SWAP1 POP PUSH1 0x2 DUP2 PUSH1 0x0 ADD SLOAD SUB PUSH2 0xF5E JUMPI PUSH1 0x40 MLOAD PUSH32 0x3EE5AEB500000000000000000000000000000000000000000000000000000000 DUP2 MSTORE PUSH1 0x4 ADD PUSH1 0x40 MLOAD DUP1 SWAP2 SUB SWAP1 REVERT JUMPDEST PUSH1 0x2 DUP2 PUSH1 0x0 ADD DUP2 SWAP1 SSTORE POP POP JUMP JUMPDEST PUSH1 0x0 PUSH2 0xF75 PUSH2 0xFCC JUMP JUMPDEST SWAP1 POP PUSH1 0x1 DUP2 PUSH1 0x0 ADD DUP2 SWAP1 SSTORE POP POP JUMP JUMPDEST PUSH2 0xF8C PUSH2 0xFF4 JUMP JUMPDEST PUSH2 0xFC2 JUMPI PUSH1 0x40 MLOAD PUSH32 0xD7E6BCF800000000000000000000000000000000000000000000000000000000 DUP2 MSTORE PUSH1 0x4 ADD PUSH1 0x40 MLOAD DUP1 SWAP2 SUB SWAP1 REVERT JUMPDEST JUMP JUMPDEST PUSH1 0x0 CALLER SWAP1 POP SWAP1 JUMP JUMPDEST PUSH1 0x0 PUSH32 0x9B779B17422D0DF92223018B32B4D1FA46E071723D6817E2486D003BECC55F00 SWAP1 POP SWAP1 JUMP JUMPDEST PUSH1 0x0 PUSH2 0xFFE PUSH2 0xCE0 JUMP JUMPDEST PUSH1 0x0 ADD PUSH1 0x8 SWAP1 SLOAD SWAP1 PUSH2 0x100 EXP SWAP1 DIV PUSH1 0xFF AND SWAP1 POP SWAP1 JUMP JUMPDEST PUSH1 0x0 PUSH1 0x40 MLOAD SWAP1 POP SWAP1 JUMP JUMPDEST PUSH1 0x0 DUP1 REVERT JUMPDEST PUSH1 0x0 DUP1 REVERT JUMPDEST PUSH1 0x0 PUSH20 0xFFFFFFFFFFFFFFFFFFFFFFFFFFFFFFFFFFFFFFFF DUP3 AND SWAP1 POP SWAP2 SWAP1 POP JUMP JUMPDEST PUSH1 0x0 PUSH2 0x1053 DUP3 PUSH2 0x1028 JUMP JUMPDEST SWAP1 POP SWAP2 SWAP1 POP JUMP JUMPDEST PUSH2 0x1063 DUP2 PUSH2 0x1048 JUMP JUMPDEST DUP2 EQ PUSH2 0x106E JUMPI PUSH1 0x0 DUP1 REVERT JUMPDEST POP JUMP JUMPDEST PUSH1 0x0 DUP2 CALLDATALOAD SWAP1 POP PUSH2 0x1080 DUP2 PUSH2 0x105A JUMP JUMPDEST SWAP3 SWAP2 POP POP JUMP JUMPDEST PUSH1 0x0 PUSH1 0x20 DUP3 DUP5 SUB SLT ISZERO PUSH2 0x109C JUMPI PUSH2 0x109B PUSH2 0x101E JUMP JUMPDEST JUMPDEST PUSH1 0x0 PUSH2 0x10AA DUP5 DUP3 DUP6 ADD PUSH2 0x1071 JUMP JUMPDEST SWAP2 POP POP SWAP3 SWAP2 POP POP JUMP JUMPDEST PUSH1 0x0 DUP2 SWAP1 POP SWAP2 SWAP1 POP JUMP JUMPDEST PUSH2 0x10C6 DUP2 PUSH2 0x10B3 JUMP JUMPDEST DUP3 MSTORE POP POP JUMP JUMPDEST PUSH1 0x0 PUSH1 0x20 DUP3 ADD SWAP1 POP PUSH2 0x10E1 PUSH1 0x0 DUP4 ADD DUP5 PUSH2 0x10BD JUMP JUMPDEST SWAP3 SWAP2 POP POP JUMP JUMPDEST PUSH2 0x10F0 DUP2 PUSH2 0x10B3 JUMP JUMPDEST DUP2 EQ PUSH2 0x10FB JUMPI PUSH1 0x0 DUP1 REVERT JUMPDEST POP JUMP JUMPDEST PUSH1 0x0 DUP2 CALLDATALOAD SWAP1 POP PUSH2 0x110D DUP2 PUSH2 0x10E7 JUMP JUMPDEST SWAP3 SWAP2 POP POP JUMP JUMPDEST PUSH1 0x0 DUP1 PUSH1 0x0 PUSH1 0x60 DUP5 DUP7 SUB SLT ISZERO PUSH2 0x112C JUMPI PUSH2 0x112B PUSH2 0x101E JUMP JUMPDEST JUMPDEST PUSH1 0x0 PUSH2 0x113A DUP7 DUP3 DUP8 ADD PUSH2 0x1071 JUMP JUMPDEST SWAP4 POP POP PUSH1 0x20 PUSH2 0x114B DUP7 DUP3 DUP8 ADD PUSH2 0x1071 JUMP JUMPDEST SWAP3 POP POP PUSH1 0x40 PUSH2 0x115C DUP7 DUP3 DUP8 ADD PUSH2 0x10FE JUMP JUMPDEST SWAP2 POP POP SWAP3 POP SWAP3 POP SWAP3 JUMP JUMPDEST PUSH1 0x0 DUP2 SWAP1 POP SWAP2 SWAP1 POP JUMP JUMPDEST PUSH2 0x1179 DUP2 PUSH2 0x1166 JUMP JUMPDEST DUP2 EQ PUSH2 0x1184 JUMPI PUSH1 0x0 DUP1 REVERT JUMPDEST POP JUMP JUMPDEST PUSH1 0x0 DUP2 CALLDATALOAD SWAP1 POP PUSH2 0x1196 DUP2 PUSH2 0x1170 JUMP JUMPDEST SWAP3 SWAP2 POP POP JUMP JUMPDEST PUSH1 0x0 DUP1 REVERT JUMPDEST PUSH1 0x0 PUSH1 0x1F NOT PUSH1 0x1F DUP4 ADD AND SWAP1 POP SWAP2 SWAP1 POP JUMP JUMPDEST PUSH32 0x4E487B7100000000000000000000000000000000000000000000000000000000 PUSH1 0x0 MSTORE PUSH1 0x41 PUSH1 0x4 MSTORE PUSH1 0x24 PUSH1 0x0 REVERT JUMPDEST PUSH2 0x11EA DUP3 PUSH2 0x11A1 JUMP JUMPDEST DUP2 ADD DUP2 DUP2 LT PUSH8 0xFFFFFFFFFFFFFFFF DUP3 GT OR ISZERO PUSH2 0x1209 JUMPI PUSH2 0x1208 PUSH2 0x11B2 JUMP JUMPDEST JUMPDEST DUP1 PUSH1 0x40 MSTORE POP POP POP JUMP JUMPDEST PUSH1 0x0 PUSH2 0x121C PUSH2 0x1014 JUMP JUMPDEST SWAP1 POP PUSH2 0x1228 DUP3 DUP3 PUSH2 0x11E1 JUMP JUMPDEST SWAP2 SWAP1 POP JUMP JUMPDEST PUSH1 0x0 PUSH8 0xFFFFFFFFFFFFFFFF DUP3 GT ISZERO PUSH2 0x1248 JUMPI PUSH2 0x1247 PUSH2 0x11B2 JUMP JUMPDEST JUMPDEST PUSH1 0x20 DUP3 MUL SWAP1 POP PUSH1 0x20 DUP2 ADD SWAP1 POP SWAP2 SWAP1 POP JUMP JUMPDEST PUSH1 0x0 DUP1 REVERT JUMPDEST PUSH1 0x0 DUP1 REVERT JUMPDEST PUSH1 0x0 PUSH1 0x40 DUP3 DUP5 SUB SLT ISZERO PUSH2 0x1279 JUMPI PUSH2 0x1278 PUSH2 0x125E JUMP JUMPDEST JUMPDEST PUSH2 0x1283 PUSH1 0x40 PUSH2 0x1212 JUMP JUMPDEST SWAP1 POP PUSH1 0x0 PUSH2 0x1293 DUP5 DUP3 DUP6 ADD PUSH2 0x10FE JUMP JUMPDEST PUSH1 0x0 DUP4 ADD MSTORE POP PUSH1 0x20 PUSH2 0x12A7 DUP5 DUP3 DUP6 ADD PUSH2 0x10FE JUMP JUMPDEST PUSH1 0x20 DUP4 ADD MSTORE POP SWAP3 SWAP2 POP POP JUMP JUMPDEST PUSH1 0x0 PUSH2 0x12C6 PUSH2 0x12C1 DUP5 PUSH2 0x122D JUMP JUMPDEST PUSH2 0x1212 JUMP JUMPDEST SWAP1 POP DUP1 DUP4 DUP3 MSTORE PUSH1 0x20 DUP3 ADD SWAP1 POP PUSH1 0x40 DUP5 MUL DUP4 ADD DUP6 DUP2 GT ISZERO PUSH2 0x12E9 JUMPI PUSH2 0x12E8 PUSH2 0x1259 JUMP JUMPDEST JUMPDEST DUP4 JUMPDEST DUP2 DUP2 LT ISZERO PUSH2 0x1312 JUMPI DUP1 PUSH2 0x12FE DUP9 DUP3 PUSH2 0x1263 JUMP JUMPDEST DUP5 MSTORE PUSH1 0x20 DUP5 ADD SWAP4 POP POP PUSH1 0x40 DUP2 ADD SWAP1 POP PUSH2 0x12EB JUMP JUMPDEST POP POP POP SWAP4 SWAP3 POP POP POP JUMP JUMPDEST PUSH1 0x0 DUP3 PUSH1 0x1F DUP4 ADD SLT PUSH2 0x1331 JUMPI PUSH2 0x1330 PUSH2 0x119C JUMP JUMPDEST JUMPDEST DUP2 CALLDATALOAD PUSH2 0x1341 DUP5 DUP3 PUSH1 0x20 DUP7 ADD PUSH2 0x12B3 JUMP JUMPDEST SWAP2 POP POP SWAP3 SWAP2 POP POP JUMP JUMPDEST PUSH1 0x0 DUP1 PUSH1 0x0 DUP1 PUSH1 0x0 PUSH1 0xA0 DUP7 DUP9 SUB SLT ISZERO PUSH2 0x1366 JUMPI PUSH2 0x1365 PUSH2 0x101E JUMP JUMPDEST JUMPDEST PUSH1 0x0 PUSH2 0x1374 DUP9 DUP3 DUP10 ADD PUSH2 0x1187 JUMP JUMPDEST SWAP6 POP POP PUSH1 0x20 PUSH2 0x1385 DUP9 DUP3 DUP10 ADD PUSH2 0x1071 JUMP JUMPDEST SWAP5 POP POP PUSH1 0x40 PUSH2 0x1396 DUP9 DUP3 DUP10 ADD PUSH2 0x1071 JUMP JUMPDEST SWAP4 POP POP PUSH1 0x60 PUSH2 0x13A7 DUP9 DUP3 DUP10 ADD PUSH2 0x10FE JUMP JUMPDEST SWAP3 POP POP PUSH1 0x80 DUP7 ADD CALLDATALOAD PUSH8 0xFFFFFFFFFFFFFFFF DUP2 GT ISZERO PUSH2 0x13C8 JUMPI PUSH2 0x13C7 PUSH2 0x1023 JUMP JUMPDEST JUMPDEST PUSH2 0x13D4 DUP9 DUP3 DUP10 ADD PUSH2 0x131C JUMP JUMPDEST SWAP2 POP POP SWAP3 SWAP6 POP SWAP3 SWAP6 SWAP1 SWAP4 POP JUMP JUMPDEST PUSH1 0x0 DUP1 PUSH1 0x40 DUP4 DUP6 SUB SLT ISZERO PUSH2 0x13F8 JUMPI PUSH2 0x13F7 PUSH2 0x101E JUMP JUMPDEST JUMPDEST PUSH1 0x0 PUSH2 0x1406 DUP6 DUP3 DUP7 ADD PUSH2 0x1071 JUMP JUMPDEST SWAP3 POP POP PUSH1 0x20 PUSH2 0x1417 DUP6 DUP3 DUP7 ADD PUSH2 0x1187 JUMP JUMPDEST SWAP2 POP POP SWAP3 POP SWAP3 SWAP1 POP JUMP JUMPDEST PUSH2 0x142A DUP2 PUSH2 0x1048 JUMP JUMPDEST DUP3 MSTORE POP POP JUMP JUMPDEST PUSH1 0x0 PUSH1 0xC0 DUP3 ADD SWAP1 POP PUSH2 0x1445 PUSH1 0x0 DUP4 ADD DUP10 PUSH2 0x1421 JUMP JUMPDEST PUSH2 0x1452 PUSH1 0x20 DUP4 ADD DUP9 PUSH2 0x10BD JUMP JUMPDEST PUSH2 0x145F PUSH1 0x40 DUP4 ADD DUP8 PUSH2 0x1421 JUMP JUMPDEST PUSH2 0x146C PUSH1 0x60 DUP4 ADD DUP7 PUSH2 0x10BD JUMP JUMPDEST PUSH2 0x1479 PUSH1 0x80 DUP4 ADD DUP6 PUSH2 0x10BD JUMP JUMPDEST PUSH2 0x1486 PUSH1 0xA0 DUP4 ADD DUP5 PUSH2 0x10BD JUMP JUMPDEST SWAP8 SWAP7 POP POP POP POP POP POP POP JUMP JUMPDEST PUSH1 0x0 DUP1 PUSH1 0x0 PUSH1 0x60 DUP5 DUP7 SUB SLT ISZERO PUSH2 0x14AA JUMPI PUSH2 0x14A9 PUSH2 0x101E JUMP JUMPDEST JUMPDEST PUSH1 0x0 PUSH2 0x14B8 DUP7 DUP3 DUP8 ADD PUSH2 0x1071 JUMP JUMPDEST SWAP4 POP POP PUSH1 0x20 PUSH2 0x14C9 DUP7 DUP3 DUP8 ADD PUSH2 0x1187 JUMP JUMPDEST SWAP3 POP POP PUSH1 0x40 PUSH2 0x14DA DUP7 DUP3 DUP8 ADD PUSH2 0x10FE JUMP JUMPDEST SWAP2 POP POP SWAP3 POP SWAP3 POP SWAP3 JUMP JUMPDEST PUSH1 0x0 PUSH1 0x40 DUP3 ADD SWAP1 POP PUSH2 0x14F9 PUSH1 0x0 DUP4 ADD DUP6 PUSH2 0x10BD JUMP JUMPDEST PUSH2 0x1506 PUSH1 0x20 DUP4 ADD DUP5 PUSH2 0x10BD JUMP JUMPDEST SWAP4 SWAP3 POP POP POP JUMP JUMPDEST PUSH1 0x0 PUSH1 0x20 DUP3 ADD SWAP1 POP PUSH2 0x1522 PUSH1 0x0 DUP4 ADD DUP5 PUSH2 0x1421 JUMP JUMPDEST SWAP3 SWAP2 POP POP JUMP JUMPDEST PUSH1 0x0 DUP2 SWAP1 POP SWAP2 SWAP1 POP JUMP JUMPDEST PUSH1 0x0 PUSH8 0xFFFFFFFFFFFFFFFF DUP3 AND SWAP1 POP SWAP2 SWAP1 POP JUMP JUMPDEST PUSH1 0x0 DUP2 SWAP1 POP SWAP2 SWAP1 POP JUMP JUMPDEST PUSH1 0x0 PUSH2 0x156B PUSH2 0x1566 PUSH2 0x1561 DUP5 PUSH2 0x1528 JUMP JUMPDEST PUSH2 0x1546 JUMP JUMPDEST PUSH2 0x1532 JUMP JUMPDEST SWAP1 POP SWAP2 SWAP1 POP JUMP JUMPDEST PUSH2 0x157B DUP2 PUSH2 0x1550 JUMP JUMPDEST DUP3 MSTORE POP POP JUMP JUMPDEST PUSH1 0x0 PUSH1 0x20 DUP3 ADD SWAP1 POP PUSH2 0x1596 PUSH1 0x0 DUP4 ADD DUP5 PUSH2 0x1572 JUMP JUMPDEST SWAP3 SWAP2 POP POP JUMP JUMPDEST PUSH32 0x4E487B7100000000000000000000000000000000000000000000000000000000 PUSH1 0x0 MSTORE PUSH1 0x32 PUSH1 0x4 MSTORE PUSH1 0x24 PUSH1 0x0 REVERT JUMPDEST PUSH32 0x4E487B7100000000000000000000000000000000000000000000000000000000 PUSH1 0x0 MSTORE PUSH1 0x11 PUSH1 0x4 MSTORE PUSH1 0x24 PUSH1 0x0 REVERT JUMPDEST PUSH1 0x0 PUSH2 0x1605 DUP3 PUSH2 0x10B3 JUMP JUMPDEST SWAP2 POP PUSH32 0xFFFFFFFFFFFFFFFFFFFFFFFFFFFFFFFFFFFFFFFFFFFFFFFFFFFFFFFFFFFFFFFF DUP3 SUB PUSH2 0x1637 JUMPI PUSH2 0x1636 PUSH2 0x15CB JUMP JUMPDEST JUMPDEST PUSH1 0x1 DUP3 ADD SWAP1 POP SWAP2 SWAP1 POP JUMP JUMPDEST PUSH2 0x164B DUP2 PUSH2 0x1048 JUMP JUMPDEST DUP3 MSTORE POP POP JUMP JUMPDEST PUSH1 0x0 PUSH2 0x165D DUP4 DUP4 PUSH2 0x1642 JUMP JUMPDEST PUSH1 0x20 DUP4 ADD SWAP1 POP SWAP3 SWAP2 POP POP JUMP JUMPDEST PUSH2 0x1672 DUP2 PUSH2 0x10B3 JUMP JUMPDEST DUP3 MSTORE POP POP JUMP JUMPDEST PUSH1 0x0 PUSH2 0x1684 DUP4 DUP4 PUSH2 0x1669 JUMP JUMPDEST PUSH1 0x20 DUP4 ADD SWAP1 POP SWAP3 SWAP2 POP POP JUMP JUMPDEST PUSH1 0x0 DUP3 ADD PUSH1 0x0 DUP3 ADD MLOAD PUSH2 0x16A3 DUP5 DUP3 PUSH2 0x1651 JUMP JUMPDEST SWAP4 POP POP PUSH1 0x20 DUP3 ADD MLOAD PUSH2 0x16B5 DUP5 DUP3 PUSH2 0x1678 JUMP JUMPDEST SWAP4 POP POP PUSH1 0x40 DUP3 ADD MLOAD PUSH2 0x16C7 DUP5 DUP3 PUSH2 0x1651 JUMP JUMPDEST SWAP4 POP POP PUSH1 0x60 DUP3 ADD MLOAD PUSH2 0x16D9 DUP5 DUP3 PUSH2 0x1678 JUMP JUMPDEST SWAP4 POP POP PUSH1 0x80 DUP3 ADD MLOAD PUSH2 0x16EB DUP5 DUP3 PUSH2 0x1678 JUMP JUMPDEST SWAP4 POP POP PUSH1 0xA0 DUP3 ADD MLOAD PUSH2 0x16FD DUP5 DUP3 PUSH2 0x1678 JUMP JUMPDEST SWAP4 POP POP POP POP POP JUMP JUMPDEST PUSH1 0x0 PUSH2 0x1711 DUP4 DUP4 PUSH2 0x1690 JUMP JUMPDEST PUSH1 0xC0 DUP4 ADD SWAP1 POP SWAP3 SWAP2 POP POP JUMP JUMPDEST PUSH1 0x0 DUP2 MLOAD SWAP1 POP SWAP2 SWAP1 POP JUMP JUMPDEST PUSH1 0x0 DUP2 SWAP1 POP SWAP3 SWAP2 POP POP JUMP JUMPDEST PUSH1 0x0 DUP2 SWAP1 POP PUSH1 0x20 DUP3 ADD SWAP1 POP SWAP2 SWAP1 POP JUMP JUMPDEST PUSH1 0x0 DUP3 ADD PUSH1 0x0 DUP3 ADD MLOAD PUSH2 0x1756 DUP5 DUP3 PUSH2 0x1678 JUMP JUMPDEST SWAP4 POP POP PUSH1 0x20 DUP3 ADD MLOAD PUSH2 0x1768 DUP5 DUP3 PUSH2 0x1678 JUMP JUMPDEST SWAP4 POP POP POP POP POP JUMP JUMPDEST PUSH1 0x0 PUSH2 0x177C DUP4 DUP4 PUSH2 0x1743 JUMP JUMPDEST PUSH1 0x40 DUP4 ADD SWAP1 POP SWAP3 SWAP2 POP POP JUMP JUMPDEST PUSH1 0x0 PUSH1 0x20 DUP3 ADD SWAP1 POP SWAP2 SWAP1 POP JUMP JUMPDEST PUSH1 0x0 PUSH2 0x17A0 DUP3 PUSH2 0x171D JUMP JUMPDEST PUSH2 0x17AA DUP2 DUP6 PUSH2 0x1728 JUMP JUMPDEST SWAP4 POP PUSH2 0x17B5 DUP4 PUSH2 0x1733 JUMP JUMPDEST DUP1 PUSH1 0x0 JUMPDEST DUP4 DUP2 LT ISZERO PUSH2 0x17E6 JUMPI DUP2 MLOAD PUSH2 0x17CD DUP9 DUP3 PUSH2 0x1770 JUMP JUMPDEST SWAP8 POP PUSH2 0x17D8 DUP4 PUSH2 0x1788 JUMP JUMPDEST SWAP3 POP POP PUSH1 0x1 DUP2 ADD SWAP1 POP PUSH2 0x17B9 JUMP JUMPDEST POP DUP6 SWAP4 POP POP POP POP SWAP3 SWAP2 POP POP JUMP JUMPDEST PUSH1 0x0 PUSH2 0x17FF DUP4 DUP4 PUSH2 0x1795 JUMP JUMPDEST SWAP1 POP SWAP3 SWAP2 POP POP JUMP JUMPDEST PUSH2 0x1810 DUP2 PUSH2 0x1166 JUMP JUMPDEST DUP3 MSTORE POP POP JUMP JUMPDEST PUSH1 0x0 PUSH2 0x1822 DUP4 DUP4 PUSH2 0x1807 JUMP JUMPDEST PUSH1 0x20 DUP4 ADD SWAP1 POP SWAP3 SWAP2 POP POP JUMP JUMPDEST PUSH1 0x0 DUP1 DUP4 ADD PUSH1 0x0 DUP4 ADD MLOAD PUSH2 0x1842 DUP6 DUP3 PUSH2 0x1705 JUMP JUMPDEST SWAP5 POP POP PUSH1 0x20 DUP4 ADD MLOAD PUSH2 0x1854 DUP6 DUP3 PUSH2 0x17F3 JUMP JUMPDEST SWAP5 POP POP PUSH1 0x40 DUP4 ADD MLOAD PUSH2 0x1866 DUP6 DUP3 PUSH2 0x1651 JUMP JUMPDEST SWAP5 POP POP PUSH1 0x60 DUP4 ADD MLOAD PUSH2 0x1878 DUP6 DUP3 PUSH2 0x1816 JUMP JUMPDEST SWAP5 POP POP DUP4 SWAP2 POP POP SWAP3 SWAP2 POP POP JUMP JUMPDEST PUSH1 0x0 PUSH2 0x1891 DUP3 DUP5 PUSH2 0x182E JUMP JUMPDEST SWAP2 POP DUP2 SWAP1 POP SWAP3 SWAP2 POP POP JUMP JUMPDEST PUSH1 0x0 PUSH2 0x18A7 DUP3 PUSH2 0x10B3 JUMP JUMPDEST SWAP2 POP PUSH2 0x18B2 DUP4 PUSH2 0x10B3 JUMP JUMPDEST SWAP3 POP DUP3 DUP3 MUL PUSH2 0x18C0 DUP2 PUSH2 0x10B3 JUMP JUMPDEST SWAP2 POP DUP3 DUP3 DIV DUP5 EQ DUP4 ISZERO OR PUSH2 0x18D7 JUMPI PUSH2 0x18D6 PUSH2 0x15CB JUMP JUMPDEST JUMPDEST POP SWAP3 SWAP2 POP POP JUMP JUMPDEST PUSH1 0x0 PUSH2 0x18E9 DUP3 PUSH2 0x10B3 JUMP JUMPDEST SWAP2 POP PUSH2 0x18F4 DUP4 PUSH2 0x10B3 JUMP JUMPDEST SWAP3 POP DUP3 DUP3 ADD SWAP1 POP DUP1 DUP3 GT ISZERO PUSH2 0x190C JUMPI PUSH2 0x190B PUSH2 0x15CB JUMP JUMPDEST JUMPDEST SWAP3 SWAP2 POP POP JUMP JUMPDEST PUSH32 0x4E487B7100000000000000000000000000000000000000000000000000000000 PUSH1 0x0 MSTORE PUSH1 0x12 PUSH1 0x4 MSTORE PUSH1 0x24 PUSH1 0x0 REVERT JUMPDEST PUSH1 0x0 PUSH2 0x194C DUP3 PUSH2 0x10B3 JUMP JUMPDEST SWAP2 POP PUSH2 0x1957 DUP4 PUSH2 0x10B3 JUMP JUMPDEST SWAP3 POP DUP3 PUSH2 0x1967 JUMPI PUSH2 0x1966 PUSH2 0x1912 JUMP JUMPDEST JUMPDEST DUP3 DUP3 DIV SWAP1 POP SWAP3 SWAP2 POP POP JUMP JUMPDEST PUSH2 0x197B DUP2 PUSH2 0x1048 JUMP JUMPDEST DUP3 MSTORE POP POP JUMP JUMPDEST PUSH2 0x198A DUP2 PUSH2 0x10B3 JUMP JUMPDEST DUP3 MSTORE POP POP JUMP JUMPDEST PUSH1 0x0 DUP2 SWAP1 POP SWAP2 SWAP1 POP JUMP JUMPDEST PUSH1 0x0 PUSH2 0x19B5 PUSH2 0x19B0 PUSH2 0x19AB DUP5 PUSH2 0x1990 JUMP JUMPDEST PUSH2 0x1546 JUMP JUMPDEST PUSH2 0x10B3 JUMP JUMPDEST SWAP1 POP SWAP2 SWAP1 POP JUMP JUMPDEST PUSH2 0x19C5 DUP2 PUSH2 0x199A JUMP JUMPDEST DUP3 MSTORE POP POP JUMP JUMPDEST PUSH1 0x0 PUSH1 0xC0 DUP3 ADD SWAP1 POP PUSH2 0x19E0 PUSH1 0x0 DUP4 ADD DUP10 PUSH2 0x1972 JUMP JUMPDEST PUSH2 0x19ED PUSH1 0x20 DUP4 ADD DUP9 PUSH2 0x1972 JUMP JUMPDEST PUSH2 0x19FA PUSH1 0x40 DUP4 ADD DUP8 PUSH2 0x1981 JUMP JUMPDEST PUSH2 0x1A07 PUSH1 0x60 DUP4 ADD DUP7 PUSH2 0x1981 JUMP JUMPDEST PUSH2 0x1A14 PUSH1 0x80 DUP4 ADD DUP6 PUSH2 0x19BC JUMP JUMPDEST PUSH2 0x1A21 PUSH1 0xA0 DUP4 ADD DUP5 PUSH2 0x1972 JUMP JUMPDEST SWAP8 SWAP7 POP POP POP POP POP POP POP JUMP INVALID LOG2 PUSH5 0x6970667358 0x22 SLT KECCAK256 0x4A 0xBA PUSH19 0x101A175D2D35071B151746B295C3A31C113304 0xD2 0xA7 SLOAD 0xDA PUSH8 0xB46334851964736F PUSH13 0x63430008140033000000000000 "},"methodIdentifiers":{"getVestingScheduleCount(address)":"07d0d916","initialize(address,address,uint256)":"1794bb3c","owner()":"8da5cb5b","release(address,bytes32)":"d7c2eec7","releaseInfos(address,bytes32,uint256)":"82a969e2","renounceOwnership()":"715018a6","sellerFee()":"e1f3d55a","startVesting(bytes32,address,address,uint256,(uint256,uint256)[])":"7623f00e","transferOwnership(address)":"f2fde38b","vestingSchedules(address,bytes32)":"7b00ffad"}},"storageLayout":{"storage":[{"astId":3786,"contract":"contracts/vesting/CliffVesting.sol:CliffVesting","label":"vestingSchedules","offset":0,"slot":"0","type":"t_mapping(t_address,t_mapping(t_bytes32,t_struct(VestingSchedule)4111_storage))"},{"astId":3795,"contract":"contracts/vesting/CliffVesting.sol:CliffVesting","label":"releaseInfos","offset":0,"slot":"1","type":"t_mapping(t_address,t_mapping(t_bytes32,t_array(t_struct(Release)1578_storage)dyn_storage))"},{"astId":3799,"contract":"contracts/vesting/CliffVesting.sol:CliffVesting","label":"vestingScheduleCount","offset":0,"slot":"2","type":"t_mapping(t_address,t_uint256)"},{"astId":3802,"contract":"contracts/vesting/CliffVesting.sol:CliffVesting","label":"treasury","offset":0,"slot":"3","type":"t_address"},{"astId":3805,"contract":"contracts/vesting/CliffVesting.sol:CliffVesting","label":"sellerFee","offset":0,"slot":"4","type":"t_uint256"}],"types":{"t_address":{"encoding":"inplace","label":"address","numberOfBytes":"20"},"t_array(t_struct(Release)1578_storage)dyn_storage":{"base":"t_struct(Release)1578_storage","encoding":"dynamic_array","label":"struct IAtomicSwapBase.Release[]","numberOfBytes":"32"},"t_bytes32":{"encoding":"inplace","label":"bytes32","numberOfBytes":"32"},"t_mapping(t_address,t_mapping(t_bytes32,t_array(t_struct(Release)1578_storage)dyn_storage))":{"encoding":"mapping","key":"t_address","label":"mapping(address => mapping(bytes32 => struct IAtomicSwapBase.Release[]))","numberOfBytes":"32","value":"t_mapping(t_bytes32,t_array(t_struct(Release)1578_storage)dyn_storage)"},"t_mapping(t_address,t_mapping(t_bytes32,t_struct(VestingSchedule)4111_storage))":{"encoding":"mapping","key":"t_address","label":"mapping(address => mapping(bytes32 => struct ICliffVesting.VestingSchedule))","numberOfBytes":"32","value":"t_mapping(t_bytes32,t_struct(VestingSchedule)4111_storage)"},"t_mapping(t_address,t_uint256)":{"encoding":"mapping","key":"t_address","label":"mapping(address => uint256)","numberOfBytes":"32","value":"t_uint256"},"t_mapping(t_bytes32,t_array(t_struct(Release)1578_storage)dyn_storage)":{"encoding":"mapping","key":"t_bytes32","label":"mapping(bytes32 => struct IAtomicSwapBase.Release[])","numberOfBytes":"32","value":"t_array(t_struct(Release)1578_storage)dyn_storage"},"t_mapping(t_bytes32,t_struct(VestingSchedule)4111_storage)":{"encoding":"mapping","key":"t_bytes32","label":"mapping(bytes32 => struct ICliffVesting.VestingSchedule)","numberOfBytes":"32","value":"t_struct(VestingSchedule)4111_storage"},"t_struct(Release)1578_storage":{"encoding":"inplace","label":"struct IAtomicSwapBase.Release","members":[{"astId":1575,"contract":"contracts/vesting/CliffVesting.sol:CliffVesting","label":"durationInHours","offset":0,"slot":"0","type":"t_uint256"},{"astId":1577,"contract":"contracts/vesting/CliffVesting.sol:CliffVesting","label":"percentage","offset":0,"slot":"1","type":"t_uint256"}],"numberOfBytes":"64"},"t_struct(VestingSchedule)4111_storage":{"encoding":"inplace","label":"struct ICliffVesting.VestingSchedule","members":[{"astId":4100,"contract":"contracts/vesting/CliffVesting.sol:CliffVesting","label":"from","offset":0,"slot":"0","type":"t_address"},{"astId":4102,"contract":"contracts/vesting/CliffVesting.sol:CliffVesting","label":"start","offset":0,"slot":"1","type":"t_uint256"},{"astId":4104,"contract":"contracts/vesting/CliffVesting.sol:CliffVesting","label":"token","offset":0,"slot":"2","type":"t_address"},{"astId":4106,"contract":"contracts/vesting/CliffVesting.sol:CliffVesting","label":"totalAmount","offset":0,"slot":"3","type":"t_uint256"},{"astId":4108,"contract":"contracts/vesting/CliffVesting.sol:CliffVesting","label":"amountReleased","offset":0,"slot":"4","type":"t_uint256"},{"astId":4110,"contract":"contracts/vesting/CliffVesting.sol:CliffVesting","label":"lastReleasedStep","offset":0,"slot":"5","type":"t_uint256"}],"numberOfBytes":"192"},"t_uint256":{"encoding":"inplace","label":"uint256","numberOfBytes":"32"}}}}}}