{"contracts/vesting/Vesting.sol":{"Vesting":{"abi":[{"inputs":[],"name":"AccessControlBadConfirmation","type":"error"},{"inputs":[{"internalType":"address","name":"account","type":"address"},{"internalType":"bytes32","name":"neededRole","type":"bytes32"}],"name":"AccessControlUnauthorizedAccount","type":"error"},{"inputs":[],"name":"DuplicateReleaseSchedule","type":"error"},{"inputs":[{"internalType":"address","name":"sender","type":"address"},{"internalType":"uint256","name":"tokenId","type":"uint256"},{"internalType":"address","name":"owner","type":"address"}],"name":"ERC721IncorrectOwner","type":"error"},{"inputs":[{"internalType":"address","name":"operator","type":"address"},{"internalType":"uint256","name":"tokenId","type":"uint256"}],"name":"ERC721InsufficientApproval","type":"error"},{"inputs":[{"internalType":"address","name":"approver","type":"address"}],"name":"ERC721InvalidApprover","type":"error"},{"inputs":[{"internalType":"address","name":"operator","type":"address"}],"name":"ERC721InvalidOperator","type":"error"},{"inputs":[{"internalType":"address","name":"owner","type":"address"}],"name":"ERC721InvalidOwner","type":"error"},{"inputs":[{"internalType":"address","name":"receiver","type":"address"}],"name":"ERC721InvalidReceiver","type":"error"},{"inputs":[{"internalType":"address","name":"sender","type":"address"}],"name":"ERC721InvalidSender","type":"error"},{"inputs":[{"internalType":"uint256","name":"tokenId","type":"uint256"}],"name":"ERC721NonexistentToken","type":"error"},{"inputs":[],"name":"EnforcedPause","type":"error"},{"inputs":[],"name":"ExpectedPause","type":"error"},{"inputs":[],"name":"InvalidInitialization","type":"error"},{"inputs":[],"name":"InvalidReleasePercentage","type":"error"},{"inputs":[],"name":"InvalidTotalPercentage","type":"error"},{"inputs":[],"name":"InvalidTotalPercentage","type":"error"},{"inputs":[],"name":"InvalidVesting","type":"error"},{"inputs":[],"name":"NoPermissionToRelease","type":"error"},{"inputs":[],"name":"NoVestedTokensAvailable","type":"error"},{"inputs":[],"name":"NoVestedTokensForRelease","type":"error"},{"inputs":[{"internalType":"uint256","name":"real","type":"uint256"},{"internalType":"uint256","name":"expected","type":"uint256"}],"name":"NotEnoughFund","type":"error"},{"inputs":[],"name":"NotInitializing","type":"error"},{"inputs":[],"name":"OverMaximumReleaseStep","type":"error"},{"inputs":[],"name":"OverMaximumReleaseStep","type":"error"},{"inputs":[],"name":"ReentrancyGuardReentrantCall","type":"error"},{"inputs":[{"internalType":"uint256","name":"value","type":"uint256"},{"internalType":"uint256","name":"length","type":"uint256"}],"name":"StringsInsufficientHexLength","type":"error"},{"inputs":[{"internalType":"address","name":"beneficiary","type":"address"}],"name":"VestingAlreadyStarted","type":"error"},{"inputs":[],"name":"VestingNotStarted","type":"error"},{"inputs":[],"name":"ZeroReleaseSchedule","type":"error"},{"anonymous":false,"inputs":[{"indexed":true,"internalType":"address","name":"owner","type":"address"},{"indexed":true,"internalType":"address","name":"approved","type":"address"},{"indexed":true,"internalType":"uint256","name":"tokenId","type":"uint256"}],"name":"Approval","type":"event"},{"anonymous":false,"inputs":[{"indexed":true,"internalType":"address","name":"owner","type":"address"},{"indexed":true,"internalType":"address","name":"operator","type":"address"},{"indexed":false,"internalType":"bool","name":"approved","type":"bool"}],"name":"ApprovalForAll","type":"event"},{"anonymous":false,"inputs":[{"indexed":false,"internalType":"uint64","name":"version","type":"uint64"}],"name":"Initialized","type":"event"},{"anonymous":false,"inputs":[{"indexed":true,"internalType":"bytes32","name":"orderId","type":"bytes32"},{"indexed":false,"internalType":"uint256","name":"tokenId","type":"uint256"}],"name":"NewVesting","type":"event"},{"anonymous":false,"inputs":[{"indexed":false,"internalType":"address","name":"account","type":"address"}],"name":"Paused","type":"event"},{"anonymous":false,"inputs":[{"indexed":true,"internalType":"address","name":"sender","type":"address"},{"indexed":true,"internalType":"uint256","name":"amount","type":"uint256"}],"name":"Received","type":"event"},{"anonymous":false,"inputs":[{"indexed":true,"internalType":"address","name":"beneficiary","type":"address"},{"indexed":true,"internalType":"uint256","name":"amount","type":"uint256"}],"name":"Released","type":"event"},{"anonymous":false,"inputs":[{"indexed":true,"internalType":"bytes32","name":"role","type":"bytes32"},{"indexed":true,"internalType":"bytes32","name":"previousAdminRole","type":"bytes32"},{"indexed":true,"internalType":"bytes32","name":"newAdminRole","type":"bytes32"}],"name":"RoleAdminChanged","type":"event"},{"anonymous":false,"inputs":[{"indexed":true,"internalType":"bytes32","name":"role","type":"bytes32"},{"indexed":true,"internalType":"address","name":"account","type":"address"},{"indexed":true,"internalType":"address","name":"sender","type":"address"}],"name":"RoleGranted","type":"event"},{"anonymous":false,"inputs":[{"indexed":true,"internalType":"bytes32","name":"role","type":"bytes32"},{"indexed":true,"internalType":"address","name":"account","type":"address"},{"indexed":true,"internalType":"address","name":"sender","type":"address"}],"name":"RoleRevoked","type":"event"},{"anonymous":false,"inputs":[{"indexed":true,"internalType":"address","name":"from","type":"address"},{"indexed":true,"internalType":"address","name":"to","type":"address"},{"indexed":true,"internalType":"uint256","name":"tokenId","type":"uint256"}],"name":"Transfer","type":"event"},{"anonymous":false,"inputs":[{"indexed":false,"internalType":"address","name":"account","type":"address"}],"name":"Unpaused","type":"event"},{"inputs":[],"name":"DEFAULT_ADMIN_ROLE","outputs":[{"internalType":"bytes32","name":"","type":"bytes32"}],"stateMutability":"view","type":"function"},{"inputs":[],"name":"PAUSER_ROLE","outputs":[{"internalType":"bytes32","name":"","type":"bytes32"}],"stateMutability":"view","type":"function"},{"inputs":[{"internalType":"address","name":"_account","type":"address"}],"name":"addAdmin","outputs":[],"stateMutability":"nonpayable","type":"function"},{"inputs":[{"internalType":"address","name":"_account","type":"address"}],"name":"addPauser","outputs":[],"stateMutability":"nonpayable","type":"function"},{"inputs":[{"internalType":"address","name":"to","type":"address"},{"internalType":"uint256","name":"tokenId","type":"uint256"}],"name":"approve","outputs":[],"stateMutability":"nonpayable","type":"function"},{"inputs":[{"internalType":"address","name":"owner","type":"address"}],"name":"balanceOf","outputs":[{"internalType":"uint256","name":"","type":"uint256"}],"stateMutability":"view","type":"function"},{"inputs":[{"internalType":"uint256","name":"tokenId","type":"uint256"}],"name":"getApproved","outputs":[{"internalType":"address","name":"","type":"address"}],"stateMutability":"view","type":"function"},{"inputs":[{"internalType":"bytes32","name":"role","type":"bytes32"}],"name":"getRoleAdmin","outputs":[{"internalType":"bytes32","name":"","type":"bytes32"}],"stateMutability":"view","type":"function"},{"inputs":[{"internalType":"bytes32","name":"role","type":"bytes32"},{"internalType":"address","name":"account","type":"address"}],"name":"grantRole","outputs":[],"stateMutability":"nonpayable","type":"function"},{"inputs":[{"internalType":"bytes32","name":"role","type":"bytes32"},{"internalType":"address","name":"account","type":"address"}],"name":"hasRole","outputs":[{"internalType":"bool","name":"","type":"bool"}],"stateMutability":"view","type":"function"},{"inputs":[{"internalType":"address","name":"admin","type":"address"},{"internalType":"address","name":"vault","type":"address"},{"internalType":"string","name":"name","type":"string"},{"internalType":"string","name":"symbol","type":"string"},{"internalType":"string","name":"baseURL","type":"string"}],"name":"initialize","outputs":[],"stateMutability":"nonpayable","type":"function"},{"inputs":[{"internalType":"address","name":"_account","type":"address"}],"name":"isAdmin","outputs":[{"internalType":"bool","name":"","type":"bool"}],"stateMutability":"view","type":"function"},{"inputs":[{"internalType":"address","name":"owner","type":"address"},{"internalType":"address","name":"operator","type":"address"}],"name":"isApprovedForAll","outputs":[{"internalType":"bool","name":"","type":"bool"}],"stateMutability":"view","type":"function"},{"inputs":[{"internalType":"address","name":"_account","type":"address"}],"name":"isPauser","outputs":[{"internalType":"bool","name":"","type":"bool"}],"stateMutability":"view","type":"function"},{"inputs":[],"name":"name","outputs":[{"internalType":"string","name":"","type":"string"}],"stateMutability":"view","type":"function"},{"inputs":[{"internalType":"uint256","name":"tokenId","type":"uint256"}],"name":"ownerOf","outputs":[{"internalType":"address","name":"","type":"address"}],"stateMutability":"view","type":"function"},{"inputs":[],"name":"paginationSize","outputs":[{"internalType":"uint256","name":"","type":"uint256"}],"stateMutability":"view","type":"function"},{"inputs":[],"name":"pause","outputs":[],"stateMutability":"nonpayable","type":"function"},{"inputs":[],"name":"paused","outputs":[{"internalType":"bool","name":"","type":"bool"}],"stateMutability":"view","type":"function"},{"inputs":[{"internalType":"uint256","name":"vestingId","type":"uint256"}],"name":"release","outputs":[],"stateMutability":"nonpayable","type":"function"},{"inputs":[{"internalType":"uint256","name":"","type":"uint256"},{"internalType":"uint256","name":"","type":"uint256"}],"name":"releaseInfo","outputs":[{"internalType":"uint256","name":"durationInHours","type":"uint256"},{"internalType":"uint256","name":"percentage","type":"uint256"}],"stateMutability":"view","type":"function"},{"inputs":[{"internalType":"address","name":"_account","type":"address"}],"name":"removeAdmin","outputs":[],"stateMutability":"nonpayable","type":"function"},{"inputs":[{"internalType":"address","name":"_account","type":"address"}],"name":"removePauser","outputs":[],"stateMutability":"nonpayable","type":"function"},{"inputs":[{"internalType":"bytes32","name":"role","type":"bytes32"},{"internalType":"address","name":"callerConfirmation","type":"address"}],"name":"renounceRole","outputs":[],"stateMutability":"nonpayable","type":"function"},{"inputs":[{"internalType":"bytes32","name":"role","type":"bytes32"},{"internalType":"address","name":"account","type":"address"}],"name":"revokeRole","outputs":[],"stateMutability":"nonpayable","type":"function"},{"inputs":[{"internalType":"address","name":"from","type":"address"},{"internalType":"address","name":"to","type":"address"},{"internalType":"uint256","name":"tokenId","type":"uint256"}],"name":"safeTransferFrom","outputs":[],"stateMutability":"nonpayable","type":"function"},{"inputs":[{"internalType":"address","name":"from","type":"address"},{"internalType":"address","name":"to","type":"address"},{"internalType":"uint256","name":"tokenId","type":"uint256"},{"internalType":"bytes","name":"data","type":"bytes"}],"name":"safeTransferFrom","outputs":[],"stateMutability":"nonpayable","type":"function"},{"inputs":[{"internalType":"address","name":"operator","type":"address"},{"internalType":"bool","name":"approved","type":"bool"}],"name":"setApprovalForAll","outputs":[],"stateMutability":"nonpayable","type":"function"},{"inputs":[{"internalType":"uint256","name":"_paginationSize","type":"uint256"}],"name":"setPaginationSize","outputs":[],"stateMutability":"nonpayable","type":"function"},{"inputs":[{"internalType":"bytes32","name":"orderId","type":"bytes32"},{"internalType":"address","name":"buyer","type":"address"},{"internalType":"address","name":"token","type":"address"},{"internalType":"uint256","name":"totalAmount","type":"uint256"},{"components":[{"internalType":"uint256","name":"durationInHours","type":"uint256"},{"internalType":"uint256","name":"percentage","type":"uint256"}],"internalType":"struct IAtomicSwapBase.Release[]","name":"releases","type":"tuple[]"},{"internalType":"bool","name":"isWithdraw","type":"bool"}],"name":"startVesting","outputs":[],"stateMutability":"payable","type":"function"},{"inputs":[{"internalType":"bytes4","name":"interfaceId","type":"bytes4"}],"name":"supportsInterface","outputs":[{"internalType":"bool","name":"","type":"bool"}],"stateMutability":"view","type":"function"},{"inputs":[],"name":"symbol","outputs":[{"internalType":"string","name":"","type":"string"}],"stateMutability":"view","type":"function"},{"inputs":[{"internalType":"uint256","name":"tokenId","type":"uint256"}],"name":"tokenURI","outputs":[{"internalType":"string","name":"","type":"string"}],"stateMutability":"view","type":"function"},{"inputs":[{"internalType":"address","name":"from","type":"address"},{"internalType":"address","name":"to","type":"address"},{"internalType":"uint256","name":"tokenId","type":"uint256"}],"name":"transferFrom","outputs":[],"stateMutability":"nonpayable","type":"function"},{"inputs":[],"name":"unpause","outputs":[],"stateMutability":"nonpayable","type":"function"},{"inputs":[{"internalType":"uint256","name":"","type":"uint256"}],"name":"vesting","outputs":[{"internalType":"address","name":"from","type":"address"},{"internalType":"uint256","name":"start","type":"uint256"},{"internalType":"address","name":"token","type":"address"},{"internalType":"uint256","name":"totalAmount","type":"uint256"},{"internalType":"uint256","name":"amountReleased","type":"uint256"},{"internalType":"uint256","name":"nextReleaseStep","type":"uint256"},{"internalType":"bool","name":"isWithdraw","type":"bool"}],"stateMutability":"view","type":"function"},{"inputs":[{"internalType":"bytes32","name":"","type":"bytes32"}],"name":"vestingIds","outputs":[{"internalType":"uint256","name":"","type":"uint256"}],"stateMutability":"view","type":"function"},{"stateMutability":"payable","type":"receive"}],"evm":{"bytecode":{"linkReferences":{},"object":"608060405234801561001057600080fd5b506156e580620000216000396000f3fe60806040526004361061021e5760003560e01c806346fbf68e1161012357806391d14854116100ab578063c87b56dd1161006f578063c87b56dd1461084a578063d547741f14610887578063e63ab1e9146108b0578063e985e9c5146108db578063f2407ca41461091857610269565b806391d148541461076557806395d89b41146107a2578063a217fddf146107cd578063a22cb465146107f8578063b88d4fde1461082157610269565b80636b2c0f55116100f25780636b2c0f551461069657806370480275146106bf57806370a08231146106e857806382dc1ec4146107255780638456cb591461074e57610269565b806346fbf68e146105b457806348f6e360146105f15780635c975abb1461062e5780636352211e1461065957610269565b80632f2ff15d116101a65780633bda01db116101755780633bda01db146104e25780633d538ecf146105205780633f2f5ee21461054b5780633f4ba83a1461057457806342842e0e1461058b57610269565b80632f2ff15d146104245780632ffac82c1461044d57806336568abe1461049057806337bdc99b146104b957610269565b80631785f53c116101ed5780631785f53c1461033c57806323b872dd14610365578063248a9ca31461038e57806324d7806c146103cb5780632622981d1461040857610269565b806301ffc9a71461026e57806306fdde03146102ab578063081812fc146102d6578063095ea7b31461031357610269565b3661026957343373ffffffffffffffffffffffffffffffffffffffff167f88a5966d370b9919b20f3e2c13ff65706f196a4e32cc2c12bf57088f8852587460405160405180910390a3005b600080fd5b34801561027a57600080fd5b50610295600480360381019061029091906140da565b610941565b6040516102a29190614122565b60405180910390f35b3480156102b757600080fd5b506102c0610953565b6040516102cd91906141cd565b60405180910390f35b3480156102e257600080fd5b506102fd60048036038101906102f89190614225565b6109f4565b60405161030a9190614293565b60405180910390f35b34801561031f57600080fd5b5061033a600480360381019061033591906142da565b610a10565b005b34801561034857600080fd5b50610363600480360381019061035e919061431a565b610a26565b005b34801561037157600080fd5b5061038c60048036038101906103879190614347565b610a36565b005b34801561039a57600080fd5b506103b560048036038101906103b091906143d0565b610b38565b6040516103c2919061440c565b60405180910390f35b3480156103d757600080fd5b506103f260048036038101906103ed919061431a565b610b66565b6040516103ff9190614122565b60405180910390f35b610422600480360381019061041d91906145f0565b610b7c565b005b34801561043057600080fd5b5061044b60048036038101906104469190614699565b610eba565b005b34801561045957600080fd5b50610474600480360381019061046f9190614225565b610edc565b60405161048797969594939291906146e8565b60405180910390f35b34801561049c57600080fd5b506104b760048036038101906104b29190614699565b610f6b565b005b3480156104c557600080fd5b506104e060048036038101906104db9190614225565b610fe6565b005b3480156104ee57600080fd5b5061050960048036038101906105049190614757565b61139c565b604051610517929190614797565b60405180910390f35b34801561052c57600080fd5b506105356113dd565b60405161054291906147c0565b60405180910390f35b34801561055757600080fd5b50610572600480360381019061056d9190614890565b6113e3565b005b34801561058057600080fd5b506105896115d9565b005b34801561059757600080fd5b506105b260048036038101906105ad9190614347565b61164c565b005b3480156105c057600080fd5b506105db60048036038101906105d6919061431a565b61166c565b6040516105e89190614122565b60405180910390f35b3480156105fd57600080fd5b50610618600480360381019061061391906143d0565b61169f565b60405161062591906147c0565b60405180910390f35b34801561063a57600080fd5b506106436116b7565b6040516106509190614122565b60405180910390f35b34801561066557600080fd5b50610680600480360381019061067b9190614225565b6116dc565b60405161068d9190614293565b60405180910390f35b3480156106a257600080fd5b506106bd60048036038101906106b8919061431a565b6116ee565b005b3480156106cb57600080fd5b506106e660048036038101906106e1919061431a565b61171b565b005b3480156106f457600080fd5b5061070f600480360381019061070a919061431a565b61172b565b60405161071c91906147c0565b60405180910390f35b34801561073157600080fd5b5061074c6004803603810190610747919061431a565b6117f4565b005b34801561075a57600080fd5b50610763611821565b005b34801561077157600080fd5b5061078c60048036038101906107879190614699565b611894565b6040516107999190614122565b60405180910390f35b3480156107ae57600080fd5b506107b761190d565b6040516107c491906141cd565b60405180910390f35b3480156107d957600080fd5b506107e26119ae565b6040516107ef919061440c565b60405180910390f35b34801561080457600080fd5b5061081f600480360381019061081a919061495f565b6119b5565b005b34801561082d57600080fd5b5061084860048036038101906108439190614a40565b6119cb565b005b34801561085657600080fd5b50610871600480360381019061086c9190614225565b6119e8565b60405161087e91906141cd565b60405180910390f35b34801561089357600080fd5b506108ae60048036038101906108a99190614699565b611a7b565b005b3480156108bc57600080fd5b506108c5611a9d565b6040516108d2919061440c565b60405180910390f35b3480156108e757600080fd5b5061090260048036038101906108fd9190614ac3565b611ac1565b60405161090f9190614122565b60405180910390f35b34801561092457600080fd5b5061093f600480360381019061093a9190614225565b611b63565b005b600061094c82611bfc565b9050919050565b6060600061095f611cde565b905080600001805461097090614b32565b80601f016020809104026020016040519081016040528092919081815260200182805461099c90614b32565b80156109e95780601f106109be576101008083540402835291602001916109e9565b820191906000526020600020905b8154815290600101906020018083116109cc57829003601f168201915b505050505091505090565b60006109ff82611d06565b50610a0982611d8e565b9050919050565b610a228282610a1d611dd9565b611de1565b5050565b610a336000801b82611a7b565b50565b600073ffffffffffffffffffffffffffffffffffffffff168273ffffffffffffffffffffffffffffffffffffffff1603610aa85760006040517f64a0ae92000000000000000000000000000000000000000000000000000000008152600401610a9f9190614293565b60405180910390fd5b6000610abc8383610ab7611dd9565b611df3565b90508373ffffffffffffffffffffffffffffffffffffffff168173ffffffffffffffffffffffffffffffffffffffff1614610b32578382826040517f64283d7b000000000000000000000000000000000000000000000000000000008152600401610b2993929190614b63565b60405180910390fd5b50505050565b600080610b43612020565b905080600001600084815260200190815260200160002060010154915050919050565b6000610b756000801b83611894565b9050919050565b610b84612048565b610b916000801b33611894565b610bd0576040517f08c379a0000000000000000000000000000000000000000000000000000000008152600401610bc790614be6565b60405180910390fd5b6000600460008881526020019081526020016000205414610c1d576040517f628dbb9600000000000000000000000000000000000000000000000000000000815260040160405180910390fd5b610c268261209f565b610c75848483600660009054906101000a900473ffffffffffffffffffffffffffffffffffffffff1673ffffffffffffffffffffffffffffffffffffffff166121e2909392919063ffffffff16565b60004290506000610c86878961228c565b905060006040518060e001604052803373ffffffffffffffffffffffffffffffffffffffff1681526020018481526020018873ffffffffffffffffffffffffffffffffffffffff16815260200187815260200160008152602001600081526020018515158152509050806002600084815260200190815260200160002060008201518160000160006101000a81548173ffffffffffffffffffffffffffffffffffffffff021916908373ffffffffffffffffffffffffffffffffffffffff1602179055506020820151816001015560408201518160020160006101000a81548173ffffffffffffffffffffffffffffffffffffffff021916908373ffffffffffffffffffffffffffffffffffffffff160217905550606082015181600301556080820151816004015560a0820151816005015560c08201518160060160006101000a81548160ff021916908315150217905550905050600060056000848152602001908152602001600020905060005b8651811015610e6d5781878281518110610e1357610e12614c06565b5b60200260200101519080600181540180825580915050600190039060005260206000209060020201600090919091909150600082015181600001556020820151816001015550508080610e6590614c64565b915050610df6565b50897f594f8f41d82fb10f72280441fa2e57d8a6eb22f177f4de984eb1d8469a1bd92c84604051610e9e91906147c0565b60405180910390a250505050610eb2612323565b505050505050565b610ec382610b38565b610ecc8161233c565b610ed68383612350565b50505050565b60026020528060005260406000206000915090508060000160009054906101000a900473ffffffffffffffffffffffffffffffffffffffff16908060010154908060020160009054906101000a900473ffffffffffffffffffffffffffffffffffffffff16908060030154908060040154908060050154908060060160009054906101000a900460ff16905087565b610f73611dd9565b73ffffffffffffffffffffffffffffffffffffffff168173ffffffffffffffffffffffffffffffffffffffff1614610fd7576040517f6697b23200000000000000000000000000000000000000000000000000000000815260040160405180910390fd5b610fe18282612451565b505050565b610fee612048565b610ff6612553565b3373ffffffffffffffffffffffffffffffffffffffff16611016826116dc565b73ffffffffffffffffffffffffffffffffffffffff1614611063576040517fa736e60f00000000000000000000000000000000000000000000000000000000815260040160405180910390fd5b600060026000838152602001908152602001600020905060006005600084815260200190815260200160002090506000818054905014806110ac57508080549050826005015410155b156110e3576040517f8bdb538100000000000000000000000000000000000000000000000000000000815260040160405180910390fd5b6000808360010154905060005b83805490508110156111ca57610e1084828154811061111257611111614c06565b5b90600052602060002090600202016000015461112e9190614cac565b826111399190614cee565b9150846005015481106111b7578142106111ca57600061271085838154811061116557611164614c06565b5b90600052602060002090600202016001015487600301546111869190614cac565b6111909190614d51565b9050808461119e9190614cee565b93506001826111ad9190614cee565b8660050181905550505b80806111c290614c64565b9150506110f0565b5060008211611205576040517f3507415000000000000000000000000000000000000000000000000000000000815260040160405180910390fd5b818460040160008282546112199190614cee565b925050819055508360060160009054906101000a900460ff1661128d57611288600660009054906101000a900473ffffffffffffffffffffffffffffffffffffffff168560020160009054906101000a900473ffffffffffffffffffffffffffffffffffffffff163385612594565b611349565b600073ffffffffffffffffffffffffffffffffffffffff168460020160009054906101000a900473ffffffffffffffffffffffffffffffffffffffff1673ffffffffffffffffffffffffffffffffffffffff1614611319576113148460020160009054906101000a900473ffffffffffffffffffffffffffffffffffffffff1633846126ec565b611324565b6113233383612822565b5b83600301548460040154036113485761133e333087610a36565b61134785612922565b5b5b813373ffffffffffffffffffffffffffffffffffffffff167fb21fb52d5749b80f3182f8c6992236b5e5576681880914484d7f4c9b062e619e60405160405180910390a350505050611399612323565b50565b600560205281600052604060002081815481106113b857600080fd5b9060005260206000209060020201600091509150508060000154908060010154905082565b60005481565b60006113ed6129a8565b905060008160000160089054906101000a900460ff1615905060008260000160009054906101000a900467ffffffffffffffff1690506000808267ffffffffffffffff1614801561143b5750825b9050600060018367ffffffffffffffff16148015611470575060003073ffffffffffffffffffffffffffffffffffffffff163b145b90508115801561147e575080155b156114b5576040517ff92ee8a900000000000000000000000000000000000000000000000000000000815260040160405180910390fd5b60018560000160006101000a81548167ffffffffffffffff021916908367ffffffffffffffff16021790555083156115055760018560000160086101000a81548160ff0219169083151502179055505b61150e8a6129d0565b6115188888612b7f565b85600190816115279190614f2e565b50600060038190555088600660006101000a81548173ffffffffffffffffffffffffffffffffffffffff021916908373ffffffffffffffffffffffffffffffffffffffff16021790555083156115cd5760008560000160086101000a81548160ff0219169083151502179055507fc7f505b2f371ae2175ee4913f4499e1f2633a7b5936321eed1cdaeb6115181d260016040516115c4919061504f565b60405180910390a15b50505050505050505050565b6116037f65d7a28e3265b37a6474929f336521b332c1681b933f6cb9f3376673440d862a33611894565b611642576040517f08c379a000000000000000000000000000000000000000000000000000000000815260040161163990614be6565b60405180910390fd5b61164a612b95565b565b611667838383604051806020016040528060008152506119cb565b505050565b60006116987f65d7a28e3265b37a6474929f336521b332c1681b933f6cb9f3376673440d862a83611894565b9050919050565b60046020528060005260406000206000915090505481565b6000806116c2612c07565b90508060000160009054906101000a900460ff1691505090565b60006116e782611d06565b9050919050565b6117187f65d7a28e3265b37a6474929f336521b332c1681b933f6cb9f3376673440d862a82611a7b565b50565b6117286000801b82610eba565b50565b600080611736611cde565b9050600073ffffffffffffffffffffffffffffffffffffffff168373ffffffffffffffffffffffffffffffffffffffff16036117aa5760006040517f89c62b640000000000000000000000000000000000000000000000000000000081526004016117a19190614293565b60405180910390fd5b8060030160008473ffffffffffffffffffffffffffffffffffffffff1673ffffffffffffffffffffffffffffffffffffffff16815260200190815260200160002054915050919050565b61181e7f65d7a28e3265b37a6474929f336521b332c1681b933f6cb9f3376673440d862a82610eba565b50565b61184b7f65d7a28e3265b37a6474929f336521b332c1681b933f6cb9f3376673440d862a33611894565b61188a576040517f08c379a000000000000000000000000000000000000000000000000000000000815260040161188190614be6565b60405180910390fd5b611892612c2f565b565b60008061189f612020565b905080600001600085815260200190815260200160002060000160008473ffffffffffffffffffffffffffffffffffffffff1673ffffffffffffffffffffffffffffffffffffffff16815260200190815260200160002060009054906101000a900460ff1691505092915050565b60606000611919611cde565b905080600101805461192a90614b32565b80601f016020809104026020016040519081016040528092919081815260200182805461195690614b32565b80156119a35780601f10611978576101008083540402835291602001916119a3565b820191906000526020600020905b81548152906001019060200180831161198657829003601f168201915b505050505091505090565b6000801b81565b6119c76119c0611dd9565b8383612ca1565b5050565b6119d6848484610a36565b6119e284848484612e1f565b50505050565b60606119f382611d06565b5060006119fe612fd6565b90506000815111611a1e5760405180602001604052806000815250611a73565b80611a2846613068565b611a473073ffffffffffffffffffffffffffffffffffffffff16613136565b611a5086613068565b604051602001611a6394939291906150f2565b6040516020818303038152906040525b915050919050565b611a8482610b38565b611a8d8161233c565b611a978383612451565b50505050565b7f65d7a28e3265b37a6474929f336521b332c1681b933f6cb9f3376673440d862a81565b600080611acc611cde565b90508060050160008573ffffffffffffffffffffffffffffffffffffffff1673ffffffffffffffffffffffffffffffffffffffff16815260200190815260200160002060008473ffffffffffffffffffffffffffffffffffffffff1673ffffffffffffffffffffffffffffffffffffffff16815260200190815260200160002060009054906101000a900460ff1691505092915050565b611b706000801b33611894565b611baf576040517f08c379a0000000000000000000000000000000000000000000000000000000008152600401611ba690614be6565b60405180910390fd5b60008111611bf2576040517f08c379a0000000000000000000000000000000000000000000000000000000008152600401611be990615192565b60405180910390fd5b8060008190555050565b60007f80ac58cd000000000000000000000000000000000000000000000000000000007bffffffffffffffffffffffffffffffffffffffffffffffffffffffff1916827bffffffffffffffffffffffffffffffffffffffffffffffffffffffff19161480611cc757507f5b5e139f000000000000000000000000000000000000000000000000000000007bffffffffffffffffffffffffffffffffffffffffffffffffffffffff1916827bffffffffffffffffffffffffffffffffffffffffffffffffffffffff1916145b80611cd75750611cd682613163565b5b9050919050565b60007f80bb2b638cc20bc4d0a60d66940f3ab4a00c1d7b313497ca82fb0b4ab0079300905090565b600080611d12836131dd565b9050600073ffffffffffffffffffffffffffffffffffffffff168173ffffffffffffffffffffffffffffffffffffffff1603611d8557826040517f7e273289000000000000000000000000000000000000000000000000000000008152600401611d7c91906147c0565b60405180910390fd5b80915050919050565b600080611d99611cde565b905080600401600084815260200190815260200160002060009054906101000a900473ffffffffffffffffffffffffffffffffffffffff16915050919050565b600033905090565b611dee8383836001613228565b505050565b600080611dfe611cde565b90506000611e0b856131dd565b9050600073ffffffffffffffffffffffffffffffffffffffff168473ffffffffffffffffffffffffffffffffffffffff1614611e4d57611e4c8185876133fc565b5b600073ffffffffffffffffffffffffffffffffffffffff168173ffffffffffffffffffffffffffffffffffffffff1614611ee057611e8f600086600080613228565b60018260030160008373ffffffffffffffffffffffffffffffffffffffff1673ffffffffffffffffffffffffffffffffffffffff168152602001908152602001600020600082825403925050819055505b600073ffffffffffffffffffffffffffffffffffffffff168673ffffffffffffffffffffffffffffffffffffffff1614611f655760018260030160008873ffffffffffffffffffffffffffffffffffffffff1673ffffffffffffffffffffffffffffffffffffffff168152602001908152602001600020600082825401925050819055505b8582600201600087815260200190815260200160002060006101000a81548173ffffffffffffffffffffffffffffffffffffffff021916908373ffffffffffffffffffffffffffffffffffffffff160217905550848673ffffffffffffffffffffffffffffffffffffffff168273ffffffffffffffffffffffffffffffffffffffff167fddf252ad1be2c89b69c2b068fc378daa952ba7f163c4a11628f55a4df523b3ef60405160405180910390a480925050509392505050565b60007f02dd7bc7dec4dceedda775e58dd541e08a116c6c53815c0bd028192f7b626800905090565b60006120526134c0565b90506002816000015403612092576040517f3ee5aeb500000000000000000000000000000000000000000000000000000000815260040160405180910390fd5b6002816000018190555050565b60008151036120da576040517ffd68e07a00000000000000000000000000000000000000000000000000000000815260040160405180910390fd5b6000805b82518110156121665760008382815181106120fc576120fb614c06565b5b602002602001015160200151905060008103612144576040517f2b82b70d00000000000000000000000000000000000000000000000000000000815260040160405180910390fd5b80836121509190614cee565b925050808061215e90614c64565b9150506120de565b5061271081146121a2576040517f0b8ad7f100000000000000000000000000000000000000000000000000000000815260040160405180910390fd5b6096825111156121de576040517f1531e37f00000000000000000000000000000000000000000000000000000000815260040160405180910390fd5b5050565b806121f9576121f484843330866134e8565b612286565b600073ffffffffffffffffffffffffffffffffffffffff168373ffffffffffffffffffffffffffffffffffffffff1603612278578134146122735781346040517f04157bb400000000000000000000000000000000000000000000000000000000815260040161226a929190614797565b60405180910390fd5b612285565b61228483333085613643565b5b5b50505050565b600061229b6000801b33611894565b6122da576040517f08c379a00000000000000000000000000000000000000000000000000000000081526004016122d190614be6565b60405180910390fd5b600360008154809291906122ed90614c64565b919050555060035460046000848152602001908152602001600020819055506123188360035461377c565b600354905092915050565b600061232d6134c0565b90506001816000018190555050565b61234d81612348611dd9565b613875565b50565b60008061235b612020565b90506123678484611894565b61244557600181600001600086815260200190815260200160002060000160008573ffffffffffffffffffffffffffffffffffffffff1673ffffffffffffffffffffffffffffffffffffffff16815260200190815260200160002060006101000a81548160ff0219169083151502179055506123e1611dd9565b73ffffffffffffffffffffffffffffffffffffffff168373ffffffffffffffffffffffffffffffffffffffff16857f2f8788117e7eff1d82e926ec794901d17c78024a50270940304540a733656f0d60405160405180910390a4600191505061244b565b60009150505b92915050565b60008061245c612020565b90506124688484611894565b1561254757600081600001600086815260200190815260200160002060000160008573ffffffffffffffffffffffffffffffffffffffff1673ffffffffffffffffffffffffffffffffffffffff16815260200190815260200160002060006101000a81548160ff0219169083151502179055506124e3611dd9565b73ffffffffffffffffffffffffffffffffffffffff168373ffffffffffffffffffffffffffffffffffffffff16857ff6391f5c32d9c69d2a47ea670b442974b53935d1edc7fd64eb21e047a839171b60405160405180910390a4600191505061254d565b60009150505b92915050565b61255b6116b7565b15612592576040517fd93c066500000000000000000000000000000000000000000000000000000000815260040160405180910390fd5b565b6000808573ffffffffffffffffffffffffffffffffffffffff1663beabacc860e01b8686866040516024016125cb939291906151b2565b604051602081830303815290604052907bffffffffffffffffffffffffffffffffffffffffffffffffffffffff19166020820180517bffffffffffffffffffffffffffffffffffffffffffffffffffffffff83818316178352505050506040516126359190615230565b6000604051808303816000865af19150503d8060008114612672576040519150601f19603f3d011682016040523d82523d6000602084013e612677565b606091505b50915091508180156126a557506000815114806126a45750808060200190518101906126a3919061525c565b5b5b6126e4576040517f08c379a00000000000000000000000000000000000000000000000000000000081526004016126db906152d5565b60405180910390fd5b505050505050565b6000808473ffffffffffffffffffffffffffffffffffffffff1663a9059cbb858560405160240161271e9291906152f5565b6040516020818303038152906040529060e01b6020820180517bffffffffffffffffffffffffffffffffffffffffffffffffffffffff838183161783525050505060405161276c9190615230565b6000604051808303816000865af19150503d80600081146127a9576040519150601f19603f3d011682016040523d82523d6000602084013e6127ae565b606091505b50915091508180156127dc57506000815114806127db5750808060200190518101906127da919061525c565b5b5b61281b576040517f08c379a000000000000000000000000000000000000000000000000000000000815260040161281290615390565b60405180910390fd5b5050505050565b60008273ffffffffffffffffffffffffffffffffffffffff1682600067ffffffffffffffff8111156128575761285661442c565b5b6040519080825280601f01601f1916602001820160405280156128895781602001600182028036833780820191505090505b506040516128979190615230565b60006040518083038185875af1925050503d80600081146128d4576040519150601f19603f3d011682016040523d82523d6000602084013e6128d9565b606091505b505090508061291d576040517f08c379a000000000000000000000000000000000000000000000000000000000815260040161291490615422565b60405180910390fd5b505050565b60006129316000836000611df3565b9050600073ffffffffffffffffffffffffffffffffffffffff168173ffffffffffffffffffffffffffffffffffffffff16036129a457816040517f7e27328900000000000000000000000000000000000000000000000000000000815260040161299b91906147c0565b60405180910390fd5b5050565b60007ff0c57e16840df040f15088dc2f81fe391c3923bec73e23a9662efc9c229c6a00905090565b60006129da6129a8565b905060008160000160089054906101000a900460ff1615905060008260000160009054906101000a900467ffffffffffffffff1690506000808267ffffffffffffffff16148015612a285750825b9050600060018367ffffffffffffffff16148015612a5d575060003073ffffffffffffffffffffffffffffffffffffffff163b145b905081158015612a6b575080155b15612aa2576040517ff92ee8a900000000000000000000000000000000000000000000000000000000815260040160405180910390fd5b60018560000160006101000a81548167ffffffffffffffff021916908367ffffffffffffffff1602179055508315612af25760018560000160086101000a81548160ff0219169083151502179055505b612afa6138c6565b612b026138d0565b612b0a6138da565b612b138661390e565b60646000819055508315612b775760008560000160086101000a81548160ff0219169083151502179055507fc7f505b2f371ae2175ee4913f4499e1f2633a7b5936321eed1cdaeb6115181d26001604051612b6e919061504f565b60405180910390a15b505050505050565b612b87613acd565b612b918282613b0d565b5050565b612b9d613b4a565b6000612ba7612c07565b905060008160000160006101000a81548160ff0219169083151502179055507f5db9ee0a495bf2e6ff9c91a7834c1ba4fdd244a5e8aa4e537bd38aeae4b073aa612bef611dd9565b604051612bfc9190614293565b60405180910390a150565b60007fcd5ed15c6e187e77e9aee88184c21f4f2182ab5827cb3b7e07fbedcd63f03300905090565b612c37612553565b6000612c41612c07565b905060018160000160006101000a81548160ff0219169083151502179055507f62e78cea01bee320cd4e420270b5ea74000d11b0c9f74754ebdbfc544b05a258612c89611dd9565b604051612c969190614293565b60405180910390a150565b6000612cab611cde565b9050600073ffffffffffffffffffffffffffffffffffffffff168373ffffffffffffffffffffffffffffffffffffffff1603612d1e57826040517f5b08ba18000000000000000000000000000000000000000000000000000000008152600401612d159190614293565b60405180910390fd5b818160050160008673ffffffffffffffffffffffffffffffffffffffff1673ffffffffffffffffffffffffffffffffffffffff16815260200190815260200160002060008573ffffffffffffffffffffffffffffffffffffffff1673ffffffffffffffffffffffffffffffffffffffff16815260200190815260200160002060006101000a81548160ff0219169083151502179055508273ffffffffffffffffffffffffffffffffffffffff168473ffffffffffffffffffffffffffffffffffffffff167f17307eab39ab6107e8899845ad3d59bd9653f200f220920489ca2b5937696c3184604051612e119190614122565b60405180910390a350505050565b60008373ffffffffffffffffffffffffffffffffffffffff163b1115612fd0578273ffffffffffffffffffffffffffffffffffffffff1663150b7a02612e63611dd9565b8685856040518563ffffffff1660e01b8152600401612e85949392919061548c565b6020604051808303816000875af1925050508015612ec157506040513d601f19601f82011682018060405250810190612ebe91906154ed565b60015b612f45573d8060008114612ef1576040519150601f19603f3d011682016040523d82523d6000602084013e612ef6565b606091505b506000815103612f3d57836040517f64a0ae92000000000000000000000000000000000000000000000000000000008152600401612f349190614293565b60405180910390fd5b805181602001fd5b63150b7a0260e01b7bffffffffffffffffffffffffffffffffffffffffffffffffffffffff1916817bffffffffffffffffffffffffffffffffffffffffffffffffffffffff191614612fce57836040517f64a0ae92000000000000000000000000000000000000000000000000000000008152600401612fc59190614293565b60405180910390fd5b505b50505050565b606060018054612fe590614b32565b80601f016020809104026020016040519081016040528092919081815260200182805461301190614b32565b801561305e5780601f106130335761010080835404028352916020019161305e565b820191906000526020600020905b81548152906001019060200180831161304157829003601f168201915b5050505050905090565b60606000600161307784613b8a565b01905060008167ffffffffffffffff8111156130965761309561442c565b5b6040519080825280601f01601f1916602001820160405280156130c85781602001600182028036833780820191505090505b509050600082602001820190505b60011561312b578080600190039150507f3031323334353637383961626364656600000000000000000000000000000000600a86061a8153600a858161311f5761311e614d22565b5b049450600085036130d6575b819350505050919050565b606061315c8273ffffffffffffffffffffffffffffffffffffffff16601460ff16613cdd565b9050919050565b60007f7965db0b000000000000000000000000000000000000000000000000000000007bffffffffffffffffffffffffffffffffffffffffffffffffffffffff1916827bffffffffffffffffffffffffffffffffffffffffffffffffffffffff191614806131d657506131d582613f23565b5b9050919050565b6000806131e8611cde565b905080600201600084815260200190815260200160002060009054906101000a900473ffffffffffffffffffffffffffffffffffffffff16915050919050565b6000613232611cde565b9050818061326d5750600073ffffffffffffffffffffffffffffffffffffffff168373ffffffffffffffffffffffffffffffffffffffff1614155b156133a157600061327d85611d06565b9050600073ffffffffffffffffffffffffffffffffffffffff168473ffffffffffffffffffffffffffffffffffffffff16141580156132e857508373ffffffffffffffffffffffffffffffffffffffff168173ffffffffffffffffffffffffffffffffffffffff1614155b80156132fb57506132f98185611ac1565b155b1561333d57836040517fa9fbf51f0000000000000000000000000000000000000000000000000000000081526004016133349190614293565b60405180910390fd5b821561339f57848673ffffffffffffffffffffffffffffffffffffffff168273ffffffffffffffffffffffffffffffffffffffff167f8c5be1e5ebec7d5bd14f71427d1e84f3dd0314c0f7b2291e5b200ac8c7c3b92560405160405180910390a45b505b8481600401600086815260200190815260200160002060006101000a81548173ffffffffffffffffffffffffffffffffffffffff021916908373ffffffffffffffffffffffffffffffffffffffff1602179055505050505050565b613407838383613f8d565b6134bb57600073ffffffffffffffffffffffffffffffffffffffff168373ffffffffffffffffffffffffffffffffffffffff160361347c57806040517f7e27328900000000000000000000000000000000000000000000000000000000815260040161347391906147c0565b60405180910390fd5b81816040517f177e802f0000000000000000000000000000000000000000000000000000000081526004016134b29291906152f5565b60405180910390fd5b505050565b60007f9b779b17422d0df92223018b32b4d1fa46e071723d6817e2486d003becc55f00905090565b6000808673ffffffffffffffffffffffffffffffffffffffff166315dacbea60e01b87878787604051602401613521949392919061551a565b604051602081830303815290604052907bffffffffffffffffffffffffffffffffffffffffffffffffffffffff19166020820180517bffffffffffffffffffffffffffffffffffffffffffffffffffffffff838183161783525050505060405161358b9190615230565b6000604051808303816000865af19150503d80600081146135c8576040519150601f19603f3d011682016040523d82523d6000602084013e6135cd565b606091505b50915091508180156135fb57506000815114806135fa5750808060200190518101906135f9919061525c565b5b5b61363a576040517f08c379a0000000000000000000000000000000000000000000000000000000008152600401613631906155ab565b60405180910390fd5b50505050505050565b6000808573ffffffffffffffffffffffffffffffffffffffff166323b872dd868686604051602401613677939291906151b2565b6040516020818303038152906040529060e01b6020820180517bffffffffffffffffffffffffffffffffffffffffffffffffffffffff83818316178352505050506040516136c59190615230565b6000604051808303816000865af19150503d8060008114613702576040519150601f19603f3d011682016040523d82523d6000602084013e613707565b606091505b50915091508180156137355750600081511480613734575080806020019051810190613733919061525c565b5b5b613774576040517f08c379a000000000000000000000000000000000000000000000000000000000815260040161376b9061563d565b60405180910390fd5b505050505050565b600073ffffffffffffffffffffffffffffffffffffffff168273ffffffffffffffffffffffffffffffffffffffff16036137ee5760006040517f64a0ae920000000000000000000000000000000000000000000000000000000081526004016137e59190614293565b60405180910390fd5b60006137fc83836000611df3565b9050600073ffffffffffffffffffffffffffffffffffffffff168173ffffffffffffffffffffffffffffffffffffffff16146138705760006040517f73c6ac6e0000000000000000000000000000000000000000000000000000000081526004016138679190614293565b60405180910390fd5b505050565b61387f8282611894565b6138c25780826040517fe2517d3f0000000000000000000000000000000000000000000000000000000081526004016138b992919061565d565b60405180910390fd5b5050565b6138ce613acd565b565b6138d8613acd565b565b6138e2613acd565b60006138ec612c07565b905060008160000160006101000a81548160ff02191690831515021790555050565b60006139186129a8565b905060008160000160089054906101000a900460ff1615905060008260000160009054906101000a900467ffffffffffffffff1690506000808267ffffffffffffffff161480156139665750825b9050600060018367ffffffffffffffff1614801561399b575060003073ffffffffffffffffffffffffffffffffffffffff163b145b9050811580156139a9575080155b156139e0576040517ff92ee8a900000000000000000000000000000000000000000000000000000000815260040160405180910390fd5b60018560000160006101000a81548167ffffffffffffffff021916908367ffffffffffffffff1602179055508315613a305760018560000160086101000a81548160ff0219169083151502179055505b613a3d6000801b87612350565b50613a687f65d7a28e3265b37a6474929f336521b332c1681b933f6cb9f3376673440d862a87612350565b508315613ac55760008560000160086101000a81548160ff0219169083151502179055507fc7f505b2f371ae2175ee4913f4499e1f2633a7b5936321eed1cdaeb6115181d26001604051613abc919061504f565b60405180910390a15b505050505050565b613ad561404e565b613b0b576040517fd7e6bcf800000000000000000000000000000000000000000000000000000000815260040160405180910390fd5b565b613b15613acd565b6000613b1f611cde565b905082816000019081613b329190614f2e565b5081816001019081613b449190614f2e565b50505050565b613b526116b7565b613b88576040517f8dfc202b00000000000000000000000000000000000000000000000000000000815260040160405180910390fd5b565b600080600090507a184f03e93ff9f4daa797ed6e38ed64bf6a1f0100000000000000008310613be8577a184f03e93ff9f4daa797ed6e38ed64bf6a1f0100000000000000008381613bde57613bdd614d22565b5b0492506040810190505b6d04ee2d6d415b85acef81000000008310613c25576d04ee2d6d415b85acef81000000008381613c1b57613c1a614d22565b5b0492506020810190505b662386f26fc100008310613c5457662386f26fc100008381613c4a57613c49614d22565b5b0492506010810190505b6305f5e1008310613c7d576305f5e1008381613c7357613c72614d22565b5b0492506008810190505b6127108310613ca2576127108381613c9857613c97614d22565b5b0492506004810190505b60648310613cc55760648381613cbb57613cba614d22565b5b0492506002810190505b600a8310613cd4576001810190505b80915050919050565b6060600083905060006002846002613cf59190614cac565b613cff9190614cee565b67ffffffffffffffff811115613d1857613d1761442c565b5b6040519080825280601f01601f191660200182016040528015613d4a5781602001600182028036833780820191505090505b5090507f300000000000000000000000000000000000000000000000000000000000000081600081518110613d8257613d81614c06565b5b60200101907effffffffffffffffffffffffffffffffffffffffffffffffffffffffffffff1916908160001a9053507f780000000000000000000000000000000000000000000000000000000000000081600181518110613de657613de5614c06565b5b60200101907effffffffffffffffffffffffffffffffffffffffffffffffffffffffffffff1916908160001a90535060006001856002613e269190614cac565b613e309190614cee565b90505b6001811115613ed0577f3031323334353637383961626364656600000000000000000000000000000000600f841660108110613e7257613e71614c06565b5b1a60f81b828281518110613e8957613e88614c06565b5b60200101907effffffffffffffffffffffffffffffffffffffffffffffffffffffffffffff1916908160001a905350600483901c925080613ec990615686565b9050613e33565b5060008214613f185784846040517fe22e27eb000000000000000000000000000000000000000000000000000000008152600401613f0f929190614797565b60405180910390fd5b809250505092915050565b60007f01ffc9a7000000000000000000000000000000000000000000000000000000007bffffffffffffffffffffffffffffffffffffffffffffffffffffffff1916827bffffffffffffffffffffffffffffffffffffffffffffffffffffffff1916149050919050565b60008073ffffffffffffffffffffffffffffffffffffffff168373ffffffffffffffffffffffffffffffffffffffff161415801561404557508273ffffffffffffffffffffffffffffffffffffffff168473ffffffffffffffffffffffffffffffffffffffff16148061400657506140058484611ac1565b5b8061404457508273ffffffffffffffffffffffffffffffffffffffff1661402c83611d8e565b73ffffffffffffffffffffffffffffffffffffffff16145b5b90509392505050565b60006140586129a8565b60000160089054906101000a900460ff16905090565b6000604051905090565b600080fd5b600080fd5b60007fffffffff0000000000000000000000000000000000000000000000000000000082169050919050565b6140b781614082565b81146140c257600080fd5b50565b6000813590506140d4816140ae565b92915050565b6000602082840312156140f0576140ef614078565b5b60006140fe848285016140c5565b91505092915050565b60008115159050919050565b61411c81614107565b82525050565b60006020820190506141376000830184614113565b92915050565b600081519050919050565b600082825260208201905092915050565b60005b8381101561417757808201518184015260208101905061415c565b60008484015250505050565b6000601f19601f8301169050919050565b600061419f8261413d565b6141a98185614148565b93506141b9818560208601614159565b6141c281614183565b840191505092915050565b600060208201905081810360008301526141e78184614194565b905092915050565b6000819050919050565b614202816141ef565b811461420d57600080fd5b50565b60008135905061421f816141f9565b92915050565b60006020828403121561423b5761423a614078565b5b600061424984828501614210565b91505092915050565b600073ffffffffffffffffffffffffffffffffffffffff82169050919050565b600061427d82614252565b9050919050565b61428d81614272565b82525050565b60006020820190506142a86000830184614284565b92915050565b6142b781614272565b81146142c257600080fd5b50565b6000813590506142d4816142ae565b92915050565b600080604083850312156142f1576142f0614078565b5b60006142ff858286016142c5565b925050602061431085828601614210565b9150509250929050565b6000602082840312156143305761432f614078565b5b600061433e848285016142c5565b91505092915050565b6000806000606084860312156143605761435f614078565b5b600061436e868287016142c5565b935050602061437f868287016142c5565b925050604061439086828701614210565b9150509250925092565b6000819050919050565b6143ad8161439a565b81146143b857600080fd5b50565b6000813590506143ca816143a4565b92915050565b6000602082840312156143e6576143e5614078565b5b60006143f4848285016143bb565b91505092915050565b6144068161439a565b82525050565b600060208201905061442160008301846143fd565b92915050565b600080fd5b7f4e487b7100000000000000000000000000000000000000000000000000000000600052604160045260246000fd5b61446482614183565b810181811067ffffffffffffffff821117156144835761448261442c565b5b80604052505050565b600061449661406e565b90506144a2828261445b565b919050565b600067ffffffffffffffff8211156144c2576144c161442c565b5b602082029050602081019050919050565b600080fd5b600080fd5b6000604082840312156144f3576144f26144d8565b5b6144fd604061448c565b9050600061450d84828501614210565b600083015250602061452184828501614210565b60208301525092915050565b600061454061453b846144a7565b61448c565b90508083825260208201905060408402830185811115614563576145626144d3565b5b835b8181101561458c578061457888826144dd565b845260208401935050604081019050614565565b5050509392505050565b600082601f8301126145ab576145aa614427565b5b81356145bb84826020860161452d565b91505092915050565b6145cd81614107565b81146145d857600080fd5b50565b6000813590506145ea816145c4565b92915050565b60008060008060008060c0878903121561460d5761460c614078565b5b600061461b89828a016143bb565b965050602061462c89828a016142c5565b955050604061463d89828a016142c5565b945050606061464e89828a01614210565b935050608087013567ffffffffffffffff81111561466f5761466e61407d565b5b61467b89828a01614596565b92505060a061468c89828a016145db565b9150509295509295509295565b600080604083850312156146b0576146af614078565b5b60006146be858286016143bb565b92505060206146cf858286016142c5565b9150509250929050565b6146e2816141ef565b82525050565b600060e0820190506146fd600083018a614284565b61470a60208301896146d9565b6147176040830188614284565b61472460608301876146d9565b61473160808301866146d9565b61473e60a08301856146d9565b61474b60c0830184614113565b98975050505050505050565b6000806040838503121561476e5761476d614078565b5b600061477c85828601614210565b925050602061478d85828601614210565b9150509250929050565b60006040820190506147ac60008301856146d9565b6147b960208301846146d9565b9392505050565b60006020820190506147d560008301846146d9565b92915050565b600080fd5b600067ffffffffffffffff8211156147fb576147fa61442c565b5b61480482614183565b9050602081019050919050565b82818337600083830152505050565b600061483361482e846147e0565b61448c565b90508281526020810184848401111561484f5761484e6147db565b5b61485a848285614811565b509392505050565b600082601f83011261487757614876614427565b5b8135614887848260208601614820565b91505092915050565b600080600080600060a086880312156148ac576148ab614078565b5b60006148ba888289016142c5565b95505060206148cb888289016142c5565b945050604086013567ffffffffffffffff8111156148ec576148eb61407d565b5b6148f888828901614862565b935050606086013567ffffffffffffffff8111156149195761491861407d565b5b61492588828901614862565b925050608086013567ffffffffffffffff8111156149465761494561407d565b5b61495288828901614862565b9150509295509295909350565b6000806040838503121561497657614975614078565b5b6000614984858286016142c5565b9250506020614995858286016145db565b9150509250929050565b600067ffffffffffffffff8211156149ba576149b961442c565b5b6149c382614183565b9050602081019050919050565b60006149e36149de8461499f565b61448c565b9050828152602081018484840111156149ff576149fe6147db565b5b614a0a848285614811565b509392505050565b600082601f830112614a2757614a26614427565b5b8135614a378482602086016149d0565b91505092915050565b60008060008060808587031215614a5a57614a59614078565b5b6000614a68878288016142c5565b9450506020614a79878288016142c5565b9350506040614a8a87828801614210565b925050606085013567ffffffffffffffff811115614aab57614aaa61407d565b5b614ab787828801614a12565b91505092959194509250565b60008060408385031215614ada57614ad9614078565b5b6000614ae8858286016142c5565b9250506020614af9858286016142c5565b9150509250929050565b7f4e487b7100000000000000000000000000000000000000000000000000000000600052602260045260246000fd5b60006002820490506001821680614b4a57607f821691505b602082108103614b5d57614b5c614b03565b5b50919050565b6000606082019050614b786000830186614284565b614b8560208301856146d9565b614b926040830184614284565b949350505050565b7f4f776e61626c655061757361626c653a206163636573732064656e6965640000600082015250565b6000614bd0601e83614148565b9150614bdb82614b9a565b602082019050919050565b60006020820190508181036000830152614bff81614bc3565b9050919050565b7f4e487b7100000000000000000000000000000000000000000000000000000000600052603260045260246000fd5b7f4e487b7100000000000000000000000000000000000000000000000000000000600052601160045260246000fd5b6000614c6f826141ef565b91507fffffffffffffffffffffffffffffffffffffffffffffffffffffffffffffffff8203614ca157614ca0614c35565b5b600182019050919050565b6000614cb7826141ef565b9150614cc2836141ef565b9250828202614cd0816141ef565b91508282048414831517614ce757614ce6614c35565b5b5092915050565b6000614cf9826141ef565b9150614d04836141ef565b9250828201905080821115614d1c57614d1b614c35565b5b92915050565b7f4e487b7100000000000000000000000000000000000000000000000000000000600052601260045260246000fd5b6000614d5c826141ef565b9150614d67836141ef565b925082614d7757614d76614d22565b5b828204905092915050565b60008190508160005260206000209050919050565b60006020601f8301049050919050565b600082821b905092915050565b600060088302614de47fffffffffffffffffffffffffffffffffffffffffffffffffffffffffffffffff82614da7565b614dee8683614da7565b95508019841693508086168417925050509392505050565b6000819050919050565b6000614e2b614e26614e21846141ef565b614e06565b6141ef565b9050919050565b6000819050919050565b614e4583614e10565b614e59614e5182614e32565b848454614db4565b825550505050565b600090565b614e6e614e61565b614e79818484614e3c565b505050565b5b81811015614e9d57614e92600082614e66565b600181019050614e7f565b5050565b601f821115614ee257614eb381614d82565b614ebc84614d97565b81016020851015614ecb578190505b614edf614ed785614d97565b830182614e7e565b50505b505050565b600082821c905092915050565b6000614f0560001984600802614ee7565b1980831691505092915050565b6000614f1e8383614ef4565b9150826002028217905092915050565b614f378261413d565b67ffffffffffffffff811115614f5057614f4f61442c565b5b614f5a8254614b32565b614f65828285614ea1565b600060209050601f831160018114614f985760008415614f86578287015190505b614f908582614f12565b865550614ff8565b601f198416614fa686614d82565b60005b82811015614fce57848901518255600182019150602085019450602081019050614fa9565b86831015614feb5784890151614fe7601f891682614ef4565b8355505b6001600288020188555050505b505050505050565b6000819050919050565b600067ffffffffffffffff82169050919050565b600061503961503461502f84615000565b614e06565b61500a565b9050919050565b6150498161501e565b82525050565b60006020820190506150646000830184615040565b92915050565b600081905092915050565b60006150808261413d565b61508a818561506a565b935061509a818560208601614159565b80840191505092915050565b7f2f00000000000000000000000000000000000000000000000000000000000000600082015250565b60006150dc60018361506a565b91506150e7826150a6565b600182019050919050565b60006150fe8287615075565b915061510a8286615075565b9150615115826150cf565b91506151218285615075565b915061512c826150cf565b91506151388284615075565b915081905095945050505050565b7f4d6f726967696e4170703a20696e76616c69642076616c756521000000000000600082015250565b600061517c601a83614148565b915061518782615146565b602082019050919050565b600060208201905081810360008301526151ab8161516f565b9050919050565b60006060820190506151c76000830186614284565b6151d46020830185614284565b6151e160408301846146d9565b949350505050565b600081519050919050565b600081905092915050565b600061520a826151e9565b61521481856151f4565b9350615224818560208601614159565b80840191505092915050565b600061523c82846151ff565b915081905092915050565b600081519050615256816145c4565b92915050565b60006020828403121561527257615271614078565b5b600061528084828501615247565b91505092915050565b7f5354000000000000000000000000000000000000000000000000000000000000600082015250565b60006152bf600283614148565b91506152ca82615289565b602082019050919050565b600060208201905081810360008301526152ee816152b2565b9050919050565b600060408201905061530a6000830185614284565b61531760208301846146d9565b9392505050565b7f5472616e7366657248656c7065723a3a736166655472616e736665723a20747260008201527f616e73666572206661696c656400000000000000000000000000000000000000602082015250565b600061537a602d83614148565b91506153858261531e565b604082019050919050565b600060208201905081810360008301526153a98161536d565b9050919050565b7f5472616e7366657248656c7065723a3a736166655472616e736665724554483a60008201527f20455448207472616e73666572206661696c6564000000000000000000000000602082015250565b600061540c603483614148565b9150615417826153b0565b604082019050919050565b6000602082019050818103600083015261543b816153ff565b9050919050565b600082825260208201905092915050565b600061545e826151e9565b6154688185615442565b9350615478818560208601614159565b61548181614183565b840191505092915050565b60006080820190506154a16000830187614284565b6154ae6020830186614284565b6154bb60408301856146d9565b81810360608301526154cd8184615453565b905095945050505050565b6000815190506154e7816140ae565b92915050565b60006020828403121561550357615502614078565b5b6000615511848285016154d8565b91505092915050565b600060808201905061552f6000830187614284565b61553c6020830186614284565b6155496040830185614284565b61555660608301846146d9565b95945050505050565b7f5354460000000000000000000000000000000000000000000000000000000000600082015250565b6000615595600383614148565b91506155a08261555f565b602082019050919050565b600060208201905081810360008301526155c481615588565b9050919050565b7f5472616e7366657248656c7065723a3a7472616e7366657246726f6d3a20747260008201527f616e7366657246726f6d206661696c6564000000000000000000000000000000602082015250565b6000615627603183614148565b9150615632826155cb565b604082019050919050565b600060208201905081810360008301526156568161561a565b9050919050565b60006040820190506156726000830185614284565b61567f60208301846143fd565b9392505050565b6000615691826141ef565b9150600082036156a4576156a3614c35565b5b60018203905091905056fea26469706673582212201582bdbad883f992621eef821b7419e33a139a8c9c00b5d67573d8e5dd03d6d264736f6c63430008140033","opcodes":"PUSH1 0x80 PUSH1 0x40 MSTORE CALLVALUE DUP1 ISZERO PUSH2 0x10 JUMPI PUSH1 0x0 DUP1 REVERT JUMPDEST POP PUSH2 0x56E5 DUP1 PUSH3 0x21 PUSH1 0x0 CODECOPY PUSH1 0x0 RETURN INVALID PUSH1 0x80 PUSH1 0x40 MSTORE PUSH1 0x4 CALLDATASIZE LT PUSH2 0x21E JUMPI PUSH1 0x0 CALLDATALOAD PUSH1 0xE0 SHR DUP1 PUSH4 0x46FBF68E GT PUSH2 0x123 JUMPI DUP1 PUSH4 0x91D14854 GT PUSH2 0xAB JUMPI DUP1 PUSH4 0xC87B56DD GT PUSH2 0x6F JUMPI DUP1 PUSH4 0xC87B56DD EQ PUSH2 0x84A JUMPI DUP1 PUSH4 0xD547741F EQ PUSH2 0x887 JUMPI DUP1 PUSH4 0xE63AB1E9 EQ PUSH2 0x8B0 JUMPI DUP1 PUSH4 0xE985E9C5 EQ PUSH2 0x8DB JUMPI DUP1 PUSH4 0xF2407CA4 EQ PUSH2 0x918 JUMPI PUSH2 0x269 JUMP JUMPDEST DUP1 PUSH4 0x91D14854 EQ PUSH2 0x765 JUMPI DUP1 PUSH4 0x95D89B41 EQ PUSH2 0x7A2 JUMPI DUP1 PUSH4 0xA217FDDF EQ PUSH2 0x7CD JUMPI DUP1 PUSH4 0xA22CB465 EQ PUSH2 0x7F8 JUMPI DUP1 PUSH4 0xB88D4FDE EQ PUSH2 0x821 JUMPI PUSH2 0x269 JUMP JUMPDEST DUP1 PUSH4 0x6B2C0F55 GT PUSH2 0xF2 JUMPI DUP1 PUSH4 0x6B2C0F55 EQ PUSH2 0x696 JUMPI DUP1 PUSH4 0x70480275 EQ PUSH2 0x6BF JUMPI DUP1 PUSH4 0x70A08231 EQ PUSH2 0x6E8 JUMPI DUP1 PUSH4 0x82DC1EC4 EQ PUSH2 0x725 JUMPI DUP1 PUSH4 0x8456CB59 EQ PUSH2 0x74E JUMPI PUSH2 0x269 JUMP JUMPDEST DUP1 PUSH4 0x46FBF68E EQ PUSH2 0x5B4 JUMPI DUP1 PUSH4 0x48F6E360 EQ PUSH2 0x5F1 JUMPI DUP1 PUSH4 0x5C975ABB EQ PUSH2 0x62E JUMPI DUP1 PUSH4 0x6352211E EQ PUSH2 0x659 JUMPI PUSH2 0x269 JUMP JUMPDEST DUP1 PUSH4 0x2F2FF15D GT PUSH2 0x1A6 JUMPI DUP1 PUSH4 0x3BDA01DB GT PUSH2 0x175 JUMPI DUP1 PUSH4 0x3BDA01DB EQ PUSH2 0x4E2 JUMPI DUP1 PUSH4 0x3D538ECF EQ PUSH2 0x520 JUMPI DUP1 PUSH4 0x3F2F5EE2 EQ PUSH2 0x54B JUMPI DUP1 PUSH4 0x3F4BA83A EQ PUSH2 0x574 JUMPI DUP1 PUSH4 0x42842E0E EQ PUSH2 0x58B JUMPI PUSH2 0x269 JUMP JUMPDEST DUP1 PUSH4 0x2F2FF15D EQ PUSH2 0x424 JUMPI DUP1 PUSH4 0x2FFAC82C EQ PUSH2 0x44D JUMPI DUP1 PUSH4 0x36568ABE EQ PUSH2 0x490 JUMPI DUP1 PUSH4 0x37BDC99B EQ PUSH2 0x4B9 JUMPI PUSH2 0x269 JUMP JUMPDEST DUP1 PUSH4 0x1785F53C GT PUSH2 0x1ED JUMPI DUP1 PUSH4 0x1785F53C EQ PUSH2 0x33C JUMPI DUP1 PUSH4 0x23B872DD EQ PUSH2 0x365 JUMPI DUP1 PUSH4 0x248A9CA3 EQ PUSH2 0x38E JUMPI DUP1 PUSH4 0x24D7806C EQ PUSH2 0x3CB JUMPI DUP1 PUSH4 0x2622981D EQ PUSH2 0x408 JUMPI PUSH2 0x269 JUMP JUMPDEST DUP1 PUSH4 0x1FFC9A7 EQ PUSH2 0x26E JUMPI DUP1 PUSH4 0x6FDDE03 EQ PUSH2 0x2AB JUMPI DUP1 PUSH4 0x81812FC EQ PUSH2 0x2D6 JUMPI DUP1 PUSH4 0x95EA7B3 EQ PUSH2 0x313 JUMPI PUSH2 0x269 JUMP JUMPDEST CALLDATASIZE PUSH2 0x269 JUMPI CALLVALUE CALLER PUSH20 0xFFFFFFFFFFFFFFFFFFFFFFFFFFFFFFFFFFFFFFFF AND PUSH32 0x88A5966D370B9919B20F3E2C13FF65706F196A4E32CC2C12BF57088F88525874 PUSH1 0x40 MLOAD PUSH1 0x40 MLOAD DUP1 SWAP2 SUB SWAP1 LOG3 STOP JUMPDEST PUSH1 0x0 DUP1 REVERT JUMPDEST CALLVALUE DUP1 ISZERO PUSH2 0x27A JUMPI PUSH1 0x0 DUP1 REVERT JUMPDEST POP PUSH2 0x295 PUSH1 0x4 DUP1 CALLDATASIZE SUB DUP2 ADD SWAP1 PUSH2 0x290 SWAP2 SWAP1 PUSH2 0x40DA JUMP JUMPDEST PUSH2 0x941 JUMP JUMPDEST PUSH1 0x40 MLOAD PUSH2 0x2A2 SWAP2 SWAP1 PUSH2 0x4122 JUMP JUMPDEST PUSH1 0x40 MLOAD DUP1 SWAP2 SUB SWAP1 RETURN JUMPDEST CALLVALUE DUP1 ISZERO PUSH2 0x2B7 JUMPI PUSH1 0x0 DUP1 REVERT JUMPDEST POP PUSH2 0x2C0 PUSH2 0x953 JUMP JUMPDEST PUSH1 0x40 MLOAD PUSH2 0x2CD SWAP2 SWAP1 PUSH2 0x41CD JUMP JUMPDEST PUSH1 0x40 MLOAD DUP1 SWAP2 SUB SWAP1 RETURN JUMPDEST CALLVALUE DUP1 ISZERO PUSH2 0x2E2 JUMPI PUSH1 0x0 DUP1 REVERT JUMPDEST POP PUSH2 0x2FD PUSH1 0x4 DUP1 CALLDATASIZE SUB DUP2 ADD SWAP1 PUSH2 0x2F8 SWAP2 SWAP1 PUSH2 0x4225 JUMP JUMPDEST PUSH2 0x9F4 JUMP JUMPDEST PUSH1 0x40 MLOAD PUSH2 0x30A SWAP2 SWAP1 PUSH2 0x4293 JUMP JUMPDEST PUSH1 0x40 MLOAD DUP1 SWAP2 SUB SWAP1 RETURN JUMPDEST CALLVALUE DUP1 ISZERO PUSH2 0x31F JUMPI PUSH1 0x0 DUP1 REVERT JUMPDEST POP PUSH2 0x33A PUSH1 0x4 DUP1 CALLDATASIZE SUB DUP2 ADD SWAP1 PUSH2 0x335 SWAP2 SWAP1 PUSH2 0x42DA JUMP JUMPDEST PUSH2 0xA10 JUMP JUMPDEST STOP JUMPDEST CALLVALUE DUP1 ISZERO PUSH2 0x348 JUMPI PUSH1 0x0 DUP1 REVERT JUMPDEST POP PUSH2 0x363 PUSH1 0x4 DUP1 CALLDATASIZE SUB DUP2 ADD SWAP1 PUSH2 0x35E SWAP2 SWAP1 PUSH2 0x431A JUMP JUMPDEST PUSH2 0xA26 JUMP JUMPDEST STOP JUMPDEST CALLVALUE DUP1 ISZERO PUSH2 0x371 JUMPI PUSH1 0x0 DUP1 REVERT JUMPDEST POP PUSH2 0x38C PUSH1 0x4 DUP1 CALLDATASIZE SUB DUP2 ADD SWAP1 PUSH2 0x387 SWAP2 SWAP1 PUSH2 0x4347 JUMP JUMPDEST PUSH2 0xA36 JUMP JUMPDEST STOP JUMPDEST CALLVALUE DUP1 ISZERO PUSH2 0x39A JUMPI PUSH1 0x0 DUP1 REVERT JUMPDEST POP PUSH2 0x3B5 PUSH1 0x4 DUP1 CALLDATASIZE SUB DUP2 ADD SWAP1 PUSH2 0x3B0 SWAP2 SWAP1 PUSH2 0x43D0 JUMP JUMPDEST PUSH2 0xB38 JUMP JUMPDEST PUSH1 0x40 MLOAD PUSH2 0x3C2 SWAP2 SWAP1 PUSH2 0x440C JUMP JUMPDEST PUSH1 0x40 MLOAD DUP1 SWAP2 SUB SWAP1 RETURN JUMPDEST CALLVALUE DUP1 ISZERO PUSH2 0x3D7 JUMPI PUSH1 0x0 DUP1 REVERT JUMPDEST POP PUSH2 0x3F2 PUSH1 0x4 DUP1 CALLDATASIZE SUB DUP2 ADD SWAP1 PUSH2 0x3ED SWAP2 SWAP1 PUSH2 0x431A JUMP JUMPDEST PUSH2 0xB66 JUMP JUMPDEST PUSH1 0x40 MLOAD PUSH2 0x3FF SWAP2 SWAP1 PUSH2 0x4122 JUMP JUMPDEST PUSH1 0x40 MLOAD DUP1 SWAP2 SUB SWAP1 RETURN JUMPDEST PUSH2 0x422 PUSH1 0x4 DUP1 CALLDATASIZE SUB DUP2 ADD SWAP1 PUSH2 0x41D SWAP2 SWAP1 PUSH2 0x45F0 JUMP JUMPDEST PUSH2 0xB7C JUMP JUMPDEST STOP JUMPDEST CALLVALUE DUP1 ISZERO PUSH2 0x430 JUMPI PUSH1 0x0 DUP1 REVERT JUMPDEST POP PUSH2 0x44B PUSH1 0x4 DUP1 CALLDATASIZE SUB DUP2 ADD SWAP1 PUSH2 0x446 SWAP2 SWAP1 PUSH2 0x4699 JUMP JUMPDEST PUSH2 0xEBA JUMP JUMPDEST STOP JUMPDEST CALLVALUE DUP1 ISZERO PUSH2 0x459 JUMPI PUSH1 0x0 DUP1 REVERT JUMPDEST POP PUSH2 0x474 PUSH1 0x4 DUP1 CALLDATASIZE SUB DUP2 ADD SWAP1 PUSH2 0x46F SWAP2 SWAP1 PUSH2 0x4225 JUMP JUMPDEST PUSH2 0xEDC JUMP JUMPDEST PUSH1 0x40 MLOAD PUSH2 0x487 SWAP8 SWAP7 SWAP6 SWAP5 SWAP4 SWAP3 SWAP2 SWAP1 PUSH2 0x46E8 JUMP JUMPDEST PUSH1 0x40 MLOAD DUP1 SWAP2 SUB SWAP1 RETURN JUMPDEST CALLVALUE DUP1 ISZERO PUSH2 0x49C JUMPI PUSH1 0x0 DUP1 REVERT JUMPDEST POP PUSH2 0x4B7 PUSH1 0x4 DUP1 CALLDATASIZE SUB DUP2 ADD SWAP1 PUSH2 0x4B2 SWAP2 SWAP1 PUSH2 0x4699 JUMP JUMPDEST PUSH2 0xF6B JUMP JUMPDEST STOP JUMPDEST CALLVALUE DUP1 ISZERO PUSH2 0x4C5 JUMPI PUSH1 0x0 DUP1 REVERT JUMPDEST POP PUSH2 0x4E0 PUSH1 0x4 DUP1 CALLDATASIZE SUB DUP2 ADD SWAP1 PUSH2 0x4DB SWAP2 SWAP1 PUSH2 0x4225 JUMP JUMPDEST PUSH2 0xFE6 JUMP JUMPDEST STOP JUMPDEST CALLVALUE DUP1 ISZERO PUSH2 0x4EE JUMPI PUSH1 0x0 DUP1 REVERT JUMPDEST POP PUSH2 0x509 PUSH1 0x4 DUP1 CALLDATASIZE SUB DUP2 ADD SWAP1 PUSH2 0x504 SWAP2 SWAP1 PUSH2 0x4757 JUMP JUMPDEST PUSH2 0x139C JUMP JUMPDEST PUSH1 0x40 MLOAD PUSH2 0x517 SWAP3 SWAP2 SWAP1 PUSH2 0x4797 JUMP JUMPDEST PUSH1 0x40 MLOAD DUP1 SWAP2 SUB SWAP1 RETURN JUMPDEST CALLVALUE DUP1 ISZERO PUSH2 0x52C JUMPI PUSH1 0x0 DUP1 REVERT JUMPDEST POP PUSH2 0x535 PUSH2 0x13DD JUMP JUMPDEST PUSH1 0x40 MLOAD PUSH2 0x542 SWAP2 SWAP1 PUSH2 0x47C0 JUMP JUMPDEST PUSH1 0x40 MLOAD DUP1 SWAP2 SUB SWAP1 RETURN JUMPDEST CALLVALUE DUP1 ISZERO PUSH2 0x557 JUMPI PUSH1 0x0 DUP1 REVERT JUMPDEST POP PUSH2 0x572 PUSH1 0x4 DUP1 CALLDATASIZE SUB DUP2 ADD SWAP1 PUSH2 0x56D SWAP2 SWAP1 PUSH2 0x4890 JUMP JUMPDEST PUSH2 0x13E3 JUMP JUMPDEST STOP JUMPDEST CALLVALUE DUP1 ISZERO PUSH2 0x580 JUMPI PUSH1 0x0 DUP1 REVERT JUMPDEST POP PUSH2 0x589 PUSH2 0x15D9 JUMP JUMPDEST STOP JUMPDEST CALLVALUE DUP1 ISZERO PUSH2 0x597 JUMPI PUSH1 0x0 DUP1 REVERT JUMPDEST POP PUSH2 0x5B2 PUSH1 0x4 DUP1 CALLDATASIZE SUB DUP2 ADD SWAP1 PUSH2 0x5AD SWAP2 SWAP1 PUSH2 0x4347 JUMP JUMPDEST PUSH2 0x164C JUMP JUMPDEST STOP JUMPDEST CALLVALUE DUP1 ISZERO PUSH2 0x5C0 JUMPI PUSH1 0x0 DUP1 REVERT JUMPDEST POP PUSH2 0x5DB PUSH1 0x4 DUP1 CALLDATASIZE SUB DUP2 ADD SWAP1 PUSH2 0x5D6 SWAP2 SWAP1 PUSH2 0x431A JUMP JUMPDEST PUSH2 0x166C JUMP JUMPDEST PUSH1 0x40 MLOAD PUSH2 0x5E8 SWAP2 SWAP1 PUSH2 0x4122 JUMP JUMPDEST PUSH1 0x40 MLOAD DUP1 SWAP2 SUB SWAP1 RETURN JUMPDEST CALLVALUE DUP1 ISZERO PUSH2 0x5FD JUMPI PUSH1 0x0 DUP1 REVERT JUMPDEST POP PUSH2 0x618 PUSH1 0x4 DUP1 CALLDATASIZE SUB DUP2 ADD SWAP1 PUSH2 0x613 SWAP2 SWAP1 PUSH2 0x43D0 JUMP JUMPDEST PUSH2 0x169F JUMP JUMPDEST PUSH1 0x40 MLOAD PUSH2 0x625 SWAP2 SWAP1 PUSH2 0x47C0 JUMP JUMPDEST PUSH1 0x40 MLOAD DUP1 SWAP2 SUB SWAP1 RETURN JUMPDEST CALLVALUE DUP1 ISZERO PUSH2 0x63A JUMPI PUSH1 0x0 DUP1 REVERT JUMPDEST POP PUSH2 0x643 PUSH2 0x16B7 JUMP JUMPDEST PUSH1 0x40 MLOAD PUSH2 0x650 SWAP2 SWAP1 PUSH2 0x4122 JUMP JUMPDEST PUSH1 0x40 MLOAD DUP1 SWAP2 SUB SWAP1 RETURN JUMPDEST CALLVALUE DUP1 ISZERO PUSH2 0x665 JUMPI PUSH1 0x0 DUP1 REVERT JUMPDEST POP PUSH2 0x680 PUSH1 0x4 DUP1 CALLDATASIZE SUB DUP2 ADD SWAP1 PUSH2 0x67B SWAP2 SWAP1 PUSH2 0x4225 JUMP JUMPDEST PUSH2 0x16DC JUMP JUMPDEST PUSH1 0x40 MLOAD PUSH2 0x68D SWAP2 SWAP1 PUSH2 0x4293 JUMP JUMPDEST PUSH1 0x40 MLOAD DUP1 SWAP2 SUB SWAP1 RETURN JUMPDEST CALLVALUE DUP1 ISZERO PUSH2 0x6A2 JUMPI PUSH1 0x0 DUP1 REVERT JUMPDEST POP PUSH2 0x6BD PUSH1 0x4 DUP1 CALLDATASIZE SUB DUP2 ADD SWAP1 PUSH2 0x6B8 SWAP2 SWAP1 PUSH2 0x431A JUMP JUMPDEST PUSH2 0x16EE JUMP JUMPDEST STOP JUMPDEST CALLVALUE DUP1 ISZERO PUSH2 0x6CB JUMPI PUSH1 0x0 DUP1 REVERT JUMPDEST POP PUSH2 0x6E6 PUSH1 0x4 DUP1 CALLDATASIZE SUB DUP2 ADD SWAP1 PUSH2 0x6E1 SWAP2 SWAP1 PUSH2 0x431A JUMP JUMPDEST PUSH2 0x171B JUMP JUMPDEST STOP JUMPDEST CALLVALUE DUP1 ISZERO PUSH2 0x6F4 JUMPI PUSH1 0x0 DUP1 REVERT JUMPDEST POP PUSH2 0x70F PUSH1 0x4 DUP1 CALLDATASIZE SUB DUP2 ADD SWAP1 PUSH2 0x70A SWAP2 SWAP1 PUSH2 0x431A JUMP JUMPDEST PUSH2 0x172B JUMP JUMPDEST PUSH1 0x40 MLOAD PUSH2 0x71C SWAP2 SWAP1 PUSH2 0x47C0 JUMP JUMPDEST PUSH1 0x40 MLOAD DUP1 SWAP2 SUB SWAP1 RETURN JUMPDEST CALLVALUE DUP1 ISZERO PUSH2 0x731 JUMPI PUSH1 0x0 DUP1 REVERT JUMPDEST POP PUSH2 0x74C PUSH1 0x4 DUP1 CALLDATASIZE SUB DUP2 ADD SWAP1 PUSH2 0x747 SWAP2 SWAP1 PUSH2 0x431A JUMP JUMPDEST PUSH2 0x17F4 JUMP JUMPDEST STOP JUMPDEST CALLVALUE DUP1 ISZERO PUSH2 0x75A JUMPI PUSH1 0x0 DUP1 REVERT JUMPDEST POP PUSH2 0x763 PUSH2 0x1821 JUMP JUMPDEST STOP JUMPDEST CALLVALUE DUP1 ISZERO PUSH2 0x771 JUMPI PUSH1 0x0 DUP1 REVERT JUMPDEST POP PUSH2 0x78C PUSH1 0x4 DUP1 CALLDATASIZE SUB DUP2 ADD SWAP1 PUSH2 0x787 SWAP2 SWAP1 PUSH2 0x4699 JUMP JUMPDEST PUSH2 0x1894 JUMP JUMPDEST PUSH1 0x40 MLOAD PUSH2 0x799 SWAP2 SWAP1 PUSH2 0x4122 JUMP JUMPDEST PUSH1 0x40 MLOAD DUP1 SWAP2 SUB SWAP1 RETURN JUMPDEST CALLVALUE DUP1 ISZERO PUSH2 0x7AE JUMPI PUSH1 0x0 DUP1 REVERT JUMPDEST POP PUSH2 0x7B7 PUSH2 0x190D JUMP JUMPDEST PUSH1 0x40 MLOAD PUSH2 0x7C4 SWAP2 SWAP1 PUSH2 0x41CD JUMP JUMPDEST PUSH1 0x40 MLOAD DUP1 SWAP2 SUB SWAP1 RETURN JUMPDEST CALLVALUE DUP1 ISZERO PUSH2 0x7D9 JUMPI PUSH1 0x0 DUP1 REVERT JUMPDEST POP PUSH2 0x7E2 PUSH2 0x19AE JUMP JUMPDEST PUSH1 0x40 MLOAD PUSH2 0x7EF SWAP2 SWAP1 PUSH2 0x440C JUMP JUMPDEST PUSH1 0x40 MLOAD DUP1 SWAP2 SUB SWAP1 RETURN JUMPDEST CALLVALUE DUP1 ISZERO PUSH2 0x804 JUMPI PUSH1 0x0 DUP1 REVERT JUMPDEST POP PUSH2 0x81F PUSH1 0x4 DUP1 CALLDATASIZE SUB DUP2 ADD SWAP1 PUSH2 0x81A SWAP2 SWAP1 PUSH2 0x495F JUMP JUMPDEST PUSH2 0x19B5 JUMP JUMPDEST STOP JUMPDEST CALLVALUE DUP1 ISZERO PUSH2 0x82D JUMPI PUSH1 0x0 DUP1 REVERT JUMPDEST POP PUSH2 0x848 PUSH1 0x4 DUP1 CALLDATASIZE SUB DUP2 ADD SWAP1 PUSH2 0x843 SWAP2 SWAP1 PUSH2 0x4A40 JUMP JUMPDEST PUSH2 0x19CB JUMP JUMPDEST STOP JUMPDEST CALLVALUE DUP1 ISZERO PUSH2 0x856 JUMPI PUSH1 0x0 DUP1 REVERT JUMPDEST POP PUSH2 0x871 PUSH1 0x4 DUP1 CALLDATASIZE SUB DUP2 ADD SWAP1 PUSH2 0x86C SWAP2 SWAP1 PUSH2 0x4225 JUMP JUMPDEST PUSH2 0x19E8 JUMP JUMPDEST PUSH1 0x40 MLOAD PUSH2 0x87E SWAP2 SWAP1 PUSH2 0x41CD JUMP JUMPDEST PUSH1 0x40 MLOAD DUP1 SWAP2 SUB SWAP1 RETURN JUMPDEST CALLVALUE DUP1 ISZERO PUSH2 0x893 JUMPI PUSH1 0x0 DUP1 REVERT JUMPDEST POP PUSH2 0x8AE PUSH1 0x4 DUP1 CALLDATASIZE SUB DUP2 ADD SWAP1 PUSH2 0x8A9 SWAP2 SWAP1 PUSH2 0x4699 JUMP JUMPDEST PUSH2 0x1A7B JUMP JUMPDEST STOP JUMPDEST CALLVALUE DUP1 ISZERO PUSH2 0x8BC JUMPI PUSH1 0x0 DUP1 REVERT JUMPDEST POP PUSH2 0x8C5 PUSH2 0x1A9D JUMP JUMPDEST PUSH1 0x40 MLOAD PUSH2 0x8D2 SWAP2 SWAP1 PUSH2 0x440C JUMP JUMPDEST PUSH1 0x40 MLOAD DUP1 SWAP2 SUB SWAP1 RETURN JUMPDEST CALLVALUE DUP1 ISZERO PUSH2 0x8E7 JUMPI PUSH1 0x0 DUP1 REVERT JUMPDEST POP PUSH2 0x902 PUSH1 0x4 DUP1 CALLDATASIZE SUB DUP2 ADD SWAP1 PUSH2 0x8FD SWAP2 SWAP1 PUSH2 0x4AC3 JUMP JUMPDEST PUSH2 0x1AC1 JUMP JUMPDEST PUSH1 0x40 MLOAD PUSH2 0x90F SWAP2 SWAP1 PUSH2 0x4122 JUMP JUMPDEST PUSH1 0x40 MLOAD DUP1 SWAP2 SUB SWAP1 RETURN JUMPDEST CALLVALUE DUP1 ISZERO PUSH2 0x924 JUMPI PUSH1 0x0 DUP1 REVERT JUMPDEST POP PUSH2 0x93F PUSH1 0x4 DUP1 CALLDATASIZE SUB DUP2 ADD SWAP1 PUSH2 0x93A SWAP2 SWAP1 PUSH2 0x4225 JUMP JUMPDEST PUSH2 0x1B63 JUMP JUMPDEST STOP JUMPDEST PUSH1 0x0 PUSH2 0x94C DUP3 PUSH2 0x1BFC JUMP JUMPDEST SWAP1 POP SWAP2 SWAP1 POP JUMP JUMPDEST PUSH1 0x60 PUSH1 0x0 PUSH2 0x95F PUSH2 0x1CDE JUMP JUMPDEST SWAP1 POP DUP1 PUSH1 0x0 ADD DUP1 SLOAD PUSH2 0x970 SWAP1 PUSH2 0x4B32 JUMP JUMPDEST DUP1 PUSH1 0x1F ADD PUSH1 0x20 DUP1 SWAP2 DIV MUL PUSH1 0x20 ADD PUSH1 0x40 MLOAD SWAP1 DUP2 ADD PUSH1 0x40 MSTORE DUP1 SWAP3 SWAP2 SWAP1 DUP2 DUP2 MSTORE PUSH1 0x20 ADD DUP3 DUP1 SLOAD PUSH2 0x99C SWAP1 PUSH2 0x4B32 JUMP JUMPDEST DUP1 ISZERO PUSH2 0x9E9 JUMPI DUP1 PUSH1 0x1F LT PUSH2 0x9BE JUMPI PUSH2 0x100 DUP1 DUP4 SLOAD DIV MUL DUP4 MSTORE SWAP2 PUSH1 0x20 ADD SWAP2 PUSH2 0x9E9 JUMP JUMPDEST DUP3 ADD SWAP2 SWAP1 PUSH1 0x0 MSTORE PUSH1 0x20 PUSH1 0x0 KECCAK256 SWAP1 JUMPDEST DUP2 SLOAD DUP2 MSTORE SWAP1 PUSH1 0x1 ADD SWAP1 PUSH1 0x20 ADD DUP1 DUP4 GT PUSH2 0x9CC JUMPI DUP3 SWAP1 SUB PUSH1 0x1F AND DUP3 ADD SWAP2 JUMPDEST POP POP POP POP POP SWAP2 POP POP SWAP1 JUMP JUMPDEST PUSH1 0x0 PUSH2 0x9FF DUP3 PUSH2 0x1D06 JUMP JUMPDEST POP PUSH2 0xA09 DUP3 PUSH2 0x1D8E JUMP JUMPDEST SWAP1 POP SWAP2 SWAP1 POP JUMP JUMPDEST PUSH2 0xA22 DUP3 DUP3 PUSH2 0xA1D PUSH2 0x1DD9 JUMP JUMPDEST PUSH2 0x1DE1 JUMP JUMPDEST POP POP JUMP JUMPDEST PUSH2 0xA33 PUSH1 0x0 DUP1 SHL DUP3 PUSH2 0x1A7B JUMP JUMPDEST POP JUMP JUMPDEST PUSH1 0x0 PUSH20 0xFFFFFFFFFFFFFFFFFFFFFFFFFFFFFFFFFFFFFFFF AND DUP3 PUSH20 0xFFFFFFFFFFFFFFFFFFFFFFFFFFFFFFFFFFFFFFFF AND SUB PUSH2 0xAA8 JUMPI PUSH1 0x0 PUSH1 0x40 MLOAD PUSH32 0x64A0AE9200000000000000000000000000000000000000000000000000000000 DUP2 MSTORE PUSH1 0x4 ADD PUSH2 0xA9F SWAP2 SWAP1 PUSH2 0x4293 JUMP JUMPDEST PUSH1 0x40 MLOAD DUP1 SWAP2 SUB SWAP1 REVERT JUMPDEST PUSH1 0x0 PUSH2 0xABC DUP4 DUP4 PUSH2 0xAB7 PUSH2 0x1DD9 JUMP JUMPDEST PUSH2 0x1DF3 JUMP JUMPDEST SWAP1 POP DUP4 PUSH20 0xFFFFFFFFFFFFFFFFFFFFFFFFFFFFFFFFFFFFFFFF AND DUP2 PUSH20 0xFFFFFFFFFFFFFFFFFFFFFFFFFFFFFFFFFFFFFFFF AND EQ PUSH2 0xB32 JUMPI DUP4 DUP3 DUP3 PUSH1 0x40 MLOAD PUSH32 0x64283D7B00000000000000000000000000000000000000000000000000000000 DUP2 MSTORE PUSH1 0x4 ADD PUSH2 0xB29 SWAP4 SWAP3 SWAP2 SWAP1 PUSH2 0x4B63 JUMP JUMPDEST PUSH1 0x40 MLOAD DUP1 SWAP2 SUB SWAP1 REVERT JUMPDEST POP POP POP POP JUMP JUMPDEST PUSH1 0x0 DUP1 PUSH2 0xB43 PUSH2 0x2020 JUMP JUMPDEST SWAP1 POP DUP1 PUSH1 0x0 ADD PUSH1 0x0 DUP5 DUP2 MSTORE PUSH1 0x20 ADD SWAP1 DUP2 MSTORE PUSH1 0x20 ADD PUSH1 0x0 KECCAK256 PUSH1 0x1 ADD SLOAD SWAP2 POP POP SWAP2 SWAP1 POP JUMP JUMPDEST PUSH1 0x0 PUSH2 0xB75 PUSH1 0x0 DUP1 SHL DUP4 PUSH2 0x1894 JUMP JUMPDEST SWAP1 POP SWAP2 SWAP1 POP JUMP JUMPDEST PUSH2 0xB84 PUSH2 0x2048 JUMP JUMPDEST PUSH2 0xB91 PUSH1 0x0 DUP1 SHL CALLER PUSH2 0x1894 JUMP JUMPDEST PUSH2 0xBD0 JUMPI PUSH1 0x40 MLOAD PUSH32 0x8C379A000000000000000000000000000000000000000000000000000000000 DUP2 MSTORE PUSH1 0x4 ADD PUSH2 0xBC7 SWAP1 PUSH2 0x4BE6 JUMP JUMPDEST PUSH1 0x40 MLOAD DUP1 SWAP2 SUB SWAP1 REVERT JUMPDEST PUSH1 0x0 PUSH1 0x4 PUSH1 0x0 DUP9 DUP2 MSTORE PUSH1 0x20 ADD SWAP1 DUP2 MSTORE PUSH1 0x20 ADD PUSH1 0x0 KECCAK256 SLOAD EQ PUSH2 0xC1D JUMPI PUSH1 0x40 MLOAD PUSH32 0x628DBB9600000000000000000000000000000000000000000000000000000000 DUP2 MSTORE PUSH1 0x4 ADD PUSH1 0x40 MLOAD DUP1 SWAP2 SUB SWAP1 REVERT JUMPDEST PUSH2 0xC26 DUP3 PUSH2 0x209F JUMP JUMPDEST PUSH2 0xC75 DUP5 DUP5 DUP4 PUSH1 0x6 PUSH1 0x0 SWAP1 SLOAD SWAP1 PUSH2 0x100 EXP SWAP1 DIV PUSH20 0xFFFFFFFFFFFFFFFFFFFFFFFFFFFFFFFFFFFFFFFF AND PUSH20 0xFFFFFFFFFFFFFFFFFFFFFFFFFFFFFFFFFFFFFFFF AND PUSH2 0x21E2 SWAP1 SWAP4 SWAP3 SWAP2 SWAP1 PUSH4 0xFFFFFFFF AND JUMP JUMPDEST PUSH1 0x0 TIMESTAMP SWAP1 POP PUSH1 0x0 PUSH2 0xC86 DUP8 DUP10 PUSH2 0x228C JUMP JUMPDEST SWAP1 POP PUSH1 0x0 PUSH1 0x40 MLOAD DUP1 PUSH1 0xE0 ADD PUSH1 0x40 MSTORE DUP1 CALLER PUSH20 0xFFFFFFFFFFFFFFFFFFFFFFFFFFFFFFFFFFFFFFFF AND DUP2 MSTORE PUSH1 0x20 ADD DUP5 DUP2 MSTORE PUSH1 0x20 ADD DUP9 PUSH20 0xFFFFFFFFFFFFFFFFFFFFFFFFFFFFFFFFFFFFFFFF AND DUP2 MSTORE PUSH1 0x20 ADD DUP8 DUP2 MSTORE PUSH1 0x20 ADD PUSH1 0x0 DUP2 MSTORE PUSH1 0x20 ADD PUSH1 0x0 DUP2 MSTORE PUSH1 0x20 ADD DUP6 ISZERO ISZERO DUP2 MSTORE POP SWAP1 POP DUP1 PUSH1 0x2 PUSH1 0x0 DUP5 DUP2 MSTORE PUSH1 0x20 ADD SWAP1 DUP2 MSTORE PUSH1 0x20 ADD PUSH1 0x0 KECCAK256 PUSH1 0x0 DUP3 ADD MLOAD DUP2 PUSH1 0x0 ADD PUSH1 0x0 PUSH2 0x100 EXP DUP2 SLOAD DUP2 PUSH20 0xFFFFFFFFFFFFFFFFFFFFFFFFFFFFFFFFFFFFFFFF MUL NOT AND SWAP1 DUP4 PUSH20 0xFFFFFFFFFFFFFFFFFFFFFFFFFFFFFFFFFFFFFFFF AND MUL OR SWAP1 SSTORE POP PUSH1 0x20 DUP3 ADD MLOAD DUP2 PUSH1 0x1 ADD SSTORE PUSH1 0x40 DUP3 ADD MLOAD DUP2 PUSH1 0x2 ADD PUSH1 0x0 PUSH2 0x100 EXP DUP2 SLOAD DUP2 PUSH20 0xFFFFFFFFFFFFFFFFFFFFFFFFFFFFFFFFFFFFFFFF MUL NOT AND SWAP1 DUP4 PUSH20 0xFFFFFFFFFFFFFFFFFFFFFFFFFFFFFFFFFFFFFFFF AND MUL OR SWAP1 SSTORE POP PUSH1 0x60 DUP3 ADD MLOAD DUP2 PUSH1 0x3 ADD SSTORE PUSH1 0x80 DUP3 ADD MLOAD DUP2 PUSH1 0x4 ADD SSTORE PUSH1 0xA0 DUP3 ADD MLOAD DUP2 PUSH1 0x5 ADD SSTORE PUSH1 0xC0 DUP3 ADD MLOAD DUP2 PUSH1 0x6 ADD PUSH1 0x0 PUSH2 0x100 EXP DUP2 SLOAD DUP2 PUSH1 0xFF MUL NOT AND SWAP1 DUP4 ISZERO ISZERO MUL OR SWAP1 SSTORE POP SWAP1 POP POP PUSH1 0x0 PUSH1 0x5 PUSH1 0x0 DUP5 DUP2 MSTORE PUSH1 0x20 ADD SWAP1 DUP2 MSTORE PUSH1 0x20 ADD PUSH1 0x0 KECCAK256 SWAP1 POP PUSH1 0x0 JUMPDEST DUP7 MLOAD DUP2 LT ISZERO PUSH2 0xE6D JUMPI DUP2 DUP8 DUP3 DUP2 MLOAD DUP2 LT PUSH2 0xE13 JUMPI PUSH2 0xE12 PUSH2 0x4C06 JUMP JUMPDEST JUMPDEST PUSH1 0x20 MUL PUSH1 0x20 ADD ADD MLOAD SWAP1 DUP1 PUSH1 0x1 DUP2 SLOAD ADD DUP1 DUP3 SSTORE DUP1 SWAP2 POP POP PUSH1 0x1 SWAP1 SUB SWAP1 PUSH1 0x0 MSTORE PUSH1 0x20 PUSH1 0x0 KECCAK256 SWAP1 PUSH1 0x2 MUL ADD PUSH1 0x0 SWAP1 SWAP2 SWAP1 SWAP2 SWAP1 SWAP2 POP PUSH1 0x0 DUP3 ADD MLOAD DUP2 PUSH1 0x0 ADD SSTORE PUSH1 0x20 DUP3 ADD MLOAD DUP2 PUSH1 0x1 ADD SSTORE POP POP DUP1 DUP1 PUSH2 0xE65 SWAP1 PUSH2 0x4C64 JUMP JUMPDEST SWAP2 POP POP PUSH2 0xDF6 JUMP JUMPDEST POP DUP10 PUSH32 0x594F8F41D82FB10F72280441FA2E57D8A6EB22F177F4DE984EB1D8469A1BD92C DUP5 PUSH1 0x40 MLOAD PUSH2 0xE9E SWAP2 SWAP1 PUSH2 0x47C0 JUMP JUMPDEST PUSH1 0x40 MLOAD DUP1 SWAP2 SUB SWAP1 LOG2 POP POP POP POP PUSH2 0xEB2 PUSH2 0x2323 JUMP JUMPDEST POP POP POP POP POP POP JUMP JUMPDEST PUSH2 0xEC3 DUP3 PUSH2 0xB38 JUMP JUMPDEST PUSH2 0xECC DUP2 PUSH2 0x233C JUMP JUMPDEST PUSH2 0xED6 DUP4 DUP4 PUSH2 0x2350 JUMP JUMPDEST POP POP POP POP JUMP JUMPDEST PUSH1 0x2 PUSH1 0x20 MSTORE DUP1 PUSH1 0x0 MSTORE PUSH1 0x40 PUSH1 0x0 KECCAK256 PUSH1 0x0 SWAP2 POP SWAP1 POP DUP1 PUSH1 0x0 ADD PUSH1 0x0 SWAP1 SLOAD SWAP1 PUSH2 0x100 EXP SWAP1 DIV PUSH20 0xFFFFFFFFFFFFFFFFFFFFFFFFFFFFFFFFFFFFFFFF AND SWAP1 DUP1 PUSH1 0x1 ADD SLOAD SWAP1 DUP1 PUSH1 0x2 ADD PUSH1 0x0 SWAP1 SLOAD SWAP1 PUSH2 0x100 EXP SWAP1 DIV PUSH20 0xFFFFFFFFFFFFFFFFFFFFFFFFFFFFFFFFFFFFFFFF AND SWAP1 DUP1 PUSH1 0x3 ADD SLOAD SWAP1 DUP1 PUSH1 0x4 ADD SLOAD SWAP1 DUP1 PUSH1 0x5 ADD SLOAD SWAP1 DUP1 PUSH1 0x6 ADD PUSH1 0x0 SWAP1 SLOAD SWAP1 PUSH2 0x100 EXP SWAP1 DIV PUSH1 0xFF AND SWAP1 POP DUP8 JUMP JUMPDEST PUSH2 0xF73 PUSH2 0x1DD9 JUMP JUMPDEST PUSH20 0xFFFFFFFFFFFFFFFFFFFFFFFFFFFFFFFFFFFFFFFF AND DUP2 PUSH20 0xFFFFFFFFFFFFFFFFFFFFFFFFFFFFFFFFFFFFFFFF AND EQ PUSH2 0xFD7 JUMPI PUSH1 0x40 MLOAD PUSH32 0x6697B23200000000000000000000000000000000000000000000000000000000 DUP2 MSTORE PUSH1 0x4 ADD PUSH1 0x40 MLOAD DUP1 SWAP2 SUB SWAP1 REVERT JUMPDEST PUSH2 0xFE1 DUP3 DUP3 PUSH2 0x2451 JUMP JUMPDEST POP POP POP JUMP JUMPDEST PUSH2 0xFEE PUSH2 0x2048 JUMP JUMPDEST PUSH2 0xFF6 PUSH2 0x2553 JUMP JUMPDEST CALLER PUSH20 0xFFFFFFFFFFFFFFFFFFFFFFFFFFFFFFFFFFFFFFFF AND PUSH2 0x1016 DUP3 PUSH2 0x16DC JUMP JUMPDEST PUSH20 0xFFFFFFFFFFFFFFFFFFFFFFFFFFFFFFFFFFFFFFFF AND EQ PUSH2 0x1063 JUMPI PUSH1 0x40 MLOAD PUSH32 0xA736E60F00000000000000000000000000000000000000000000000000000000 DUP2 MSTORE PUSH1 0x4 ADD PUSH1 0x40 MLOAD DUP1 SWAP2 SUB SWAP1 REVERT JUMPDEST PUSH1 0x0 PUSH1 0x2 PUSH1 0x0 DUP4 DUP2 MSTORE PUSH1 0x20 ADD SWAP1 DUP2 MSTORE PUSH1 0x20 ADD PUSH1 0x0 KECCAK256 SWAP1 POP PUSH1 0x0 PUSH1 0x5 PUSH1 0x0 DUP5 DUP2 MSTORE PUSH1 0x20 ADD SWAP1 DUP2 MSTORE PUSH1 0x20 ADD PUSH1 0x0 KECCAK256 SWAP1 POP PUSH1 0x0 DUP2 DUP1 SLOAD SWAP1 POP EQ DUP1 PUSH2 0x10AC JUMPI POP DUP1 DUP1 SLOAD SWAP1 POP DUP3 PUSH1 0x5 ADD SLOAD LT ISZERO JUMPDEST ISZERO PUSH2 0x10E3 JUMPI PUSH1 0x40 MLOAD PUSH32 0x8BDB538100000000000000000000000000000000000000000000000000000000 DUP2 MSTORE PUSH1 0x4 ADD PUSH1 0x40 MLOAD DUP1 SWAP2 SUB SWAP1 REVERT JUMPDEST PUSH1 0x0 DUP1 DUP4 PUSH1 0x1 ADD SLOAD SWAP1 POP PUSH1 0x0 JUMPDEST DUP4 DUP1 SLOAD SWAP1 POP DUP2 LT ISZERO PUSH2 0x11CA JUMPI PUSH2 0xE10 DUP5 DUP3 DUP2 SLOAD DUP2 LT PUSH2 0x1112 JUMPI PUSH2 0x1111 PUSH2 0x4C06 JUMP JUMPDEST JUMPDEST SWAP1 PUSH1 0x0 MSTORE PUSH1 0x20 PUSH1 0x0 KECCAK256 SWAP1 PUSH1 0x2 MUL ADD PUSH1 0x0 ADD SLOAD PUSH2 0x112E SWAP2 SWAP1 PUSH2 0x4CAC JUMP JUMPDEST DUP3 PUSH2 0x1139 SWAP2 SWAP1 PUSH2 0x4CEE JUMP JUMPDEST SWAP2 POP DUP5 PUSH1 0x5 ADD SLOAD DUP2 LT PUSH2 0x11B7 JUMPI DUP2 TIMESTAMP LT PUSH2 0x11CA JUMPI PUSH1 0x0 PUSH2 0x2710 DUP6 DUP4 DUP2 SLOAD DUP2 LT PUSH2 0x1165 JUMPI PUSH2 0x1164 PUSH2 0x4C06 JUMP JUMPDEST JUMPDEST SWAP1 PUSH1 0x0 MSTORE PUSH1 0x20 PUSH1 0x0 KECCAK256 SWAP1 PUSH1 0x2 MUL ADD PUSH1 0x1 ADD SLOAD DUP8 PUSH1 0x3 ADD SLOAD PUSH2 0x1186 SWAP2 SWAP1 PUSH2 0x4CAC JUMP JUMPDEST PUSH2 0x1190 SWAP2 SWAP1 PUSH2 0x4D51 JUMP JUMPDEST SWAP1 POP DUP1 DUP5 PUSH2 0x119E SWAP2 SWAP1 PUSH2 0x4CEE JUMP JUMPDEST SWAP4 POP PUSH1 0x1 DUP3 PUSH2 0x11AD SWAP2 SWAP1 PUSH2 0x4CEE JUMP JUMPDEST DUP7 PUSH1 0x5 ADD DUP2 SWAP1 SSTORE POP POP JUMPDEST DUP1 DUP1 PUSH2 0x11C2 SWAP1 PUSH2 0x4C64 JUMP JUMPDEST SWAP2 POP POP PUSH2 0x10F0 JUMP JUMPDEST POP PUSH1 0x0 DUP3 GT PUSH2 0x1205 JUMPI PUSH1 0x40 MLOAD PUSH32 0x3507415000000000000000000000000000000000000000000000000000000000 DUP2 MSTORE PUSH1 0x4 ADD PUSH1 0x40 MLOAD DUP1 SWAP2 SUB SWAP1 REVERT JUMPDEST DUP2 DUP5 PUSH1 0x4 ADD PUSH1 0x0 DUP3 DUP3 SLOAD PUSH2 0x1219 SWAP2 SWAP1 PUSH2 0x4CEE JUMP JUMPDEST SWAP3 POP POP DUP2 SWAP1 SSTORE POP DUP4 PUSH1 0x6 ADD PUSH1 0x0 SWAP1 SLOAD SWAP1 PUSH2 0x100 EXP SWAP1 DIV PUSH1 0xFF AND PUSH2 0x128D JUMPI PUSH2 0x1288 PUSH1 0x6 PUSH1 0x0 SWAP1 SLOAD SWAP1 PUSH2 0x100 EXP SWAP1 DIV PUSH20 0xFFFFFFFFFFFFFFFFFFFFFFFFFFFFFFFFFFFFFFFF AND DUP6 PUSH1 0x2 ADD PUSH1 0x0 SWAP1 SLOAD SWAP1 PUSH2 0x100 EXP SWAP1 DIV PUSH20 0xFFFFFFFFFFFFFFFFFFFFFFFFFFFFFFFFFFFFFFFF AND CALLER DUP6 PUSH2 0x2594 JUMP JUMPDEST PUSH2 0x1349 JUMP JUMPDEST PUSH1 0x0 PUSH20 0xFFFFFFFFFFFFFFFFFFFFFFFFFFFFFFFFFFFFFFFF AND DUP5 PUSH1 0x2 ADD PUSH1 0x0 SWAP1 SLOAD SWAP1 PUSH2 0x100 EXP SWAP1 DIV PUSH20 0xFFFFFFFFFFFFFFFFFFFFFFFFFFFFFFFFFFFFFFFF AND PUSH20 0xFFFFFFFFFFFFFFFFFFFFFFFFFFFFFFFFFFFFFFFF AND EQ PUSH2 0x1319 JUMPI PUSH2 0x1314 DUP5 PUSH1 0x2 ADD PUSH1 0x0 SWAP1 SLOAD SWAP1 PUSH2 0x100 EXP SWAP1 DIV PUSH20 0xFFFFFFFFFFFFFFFFFFFFFFFFFFFFFFFFFFFFFFFF AND CALLER DUP5 PUSH2 0x26EC JUMP JUMPDEST PUSH2 0x1324 JUMP JUMPDEST PUSH2 0x1323 CALLER DUP4 PUSH2 0x2822 JUMP JUMPDEST JUMPDEST DUP4 PUSH1 0x3 ADD SLOAD DUP5 PUSH1 0x4 ADD SLOAD SUB PUSH2 0x1348 JUMPI PUSH2 0x133E CALLER ADDRESS DUP8 PUSH2 0xA36 JUMP JUMPDEST PUSH2 0x1347 DUP6 PUSH2 0x2922 JUMP JUMPDEST JUMPDEST JUMPDEST DUP2 CALLER PUSH20 0xFFFFFFFFFFFFFFFFFFFFFFFFFFFFFFFFFFFFFFFF AND PUSH32 0xB21FB52D5749B80F3182F8C6992236B5E5576681880914484D7F4C9B062E619E PUSH1 0x40 MLOAD PUSH1 0x40 MLOAD DUP1 SWAP2 SUB SWAP1 LOG3 POP POP POP POP PUSH2 0x1399 PUSH2 0x2323 JUMP JUMPDEST POP JUMP JUMPDEST PUSH1 0x5 PUSH1 0x20 MSTORE DUP2 PUSH1 0x0 MSTORE PUSH1 0x40 PUSH1 0x0 KECCAK256 DUP2 DUP2 SLOAD DUP2 LT PUSH2 0x13B8 JUMPI PUSH1 0x0 DUP1 REVERT JUMPDEST SWAP1 PUSH1 0x0 MSTORE PUSH1 0x20 PUSH1 0x0 KECCAK256 SWAP1 PUSH1 0x2 MUL ADD PUSH1 0x0 SWAP2 POP SWAP2 POP POP DUP1 PUSH1 0x0 ADD SLOAD SWAP1 DUP1 PUSH1 0x1 ADD SLOAD SWAP1 POP DUP3 JUMP JUMPDEST PUSH1 0x0 SLOAD DUP2 JUMP JUMPDEST PUSH1 0x0 PUSH2 0x13ED PUSH2 0x29A8 JUMP JUMPDEST SWAP1 POP PUSH1 0x0 DUP2 PUSH1 0x0 ADD PUSH1 0x8 SWAP1 SLOAD SWAP1 PUSH2 0x100 EXP SWAP1 DIV PUSH1 0xFF AND ISZERO SWAP1 POP PUSH1 0x0 DUP3 PUSH1 0x0 ADD PUSH1 0x0 SWAP1 SLOAD SWAP1 PUSH2 0x100 EXP SWAP1 DIV PUSH8 0xFFFFFFFFFFFFFFFF AND SWAP1 POP PUSH1 0x0 DUP1 DUP3 PUSH8 0xFFFFFFFFFFFFFFFF AND EQ DUP1 ISZERO PUSH2 0x143B JUMPI POP DUP3 JUMPDEST SWAP1 POP PUSH1 0x0 PUSH1 0x1 DUP4 PUSH8 0xFFFFFFFFFFFFFFFF AND EQ DUP1 ISZERO PUSH2 0x1470 JUMPI POP PUSH1 0x0 ADDRESS PUSH20 0xFFFFFFFFFFFFFFFFFFFFFFFFFFFFFFFFFFFFFFFF AND EXTCODESIZE EQ JUMPDEST SWAP1 POP DUP2 ISZERO DUP1 ISZERO PUSH2 0x147E JUMPI POP DUP1 ISZERO JUMPDEST ISZERO PUSH2 0x14B5 JUMPI PUSH1 0x40 MLOAD PUSH32 0xF92EE8A900000000000000000000000000000000000000000000000000000000 DUP2 MSTORE PUSH1 0x4 ADD PUSH1 0x40 MLOAD DUP1 SWAP2 SUB SWAP1 REVERT JUMPDEST PUSH1 0x1 DUP6 PUSH1 0x0 ADD PUSH1 0x0 PUSH2 0x100 EXP DUP2 SLOAD DUP2 PUSH8 0xFFFFFFFFFFFFFFFF MUL NOT AND SWAP1 DUP4 PUSH8 0xFFFFFFFFFFFFFFFF AND MUL OR SWAP1 SSTORE POP DUP4 ISZERO PUSH2 0x1505 JUMPI PUSH1 0x1 DUP6 PUSH1 0x0 ADD PUSH1 0x8 PUSH2 0x100 EXP DUP2 SLOAD DUP2 PUSH1 0xFF MUL NOT AND SWAP1 DUP4 ISZERO ISZERO MUL OR SWAP1 SSTORE POP JUMPDEST PUSH2 0x150E DUP11 PUSH2 0x29D0 JUMP JUMPDEST PUSH2 0x1518 DUP9 DUP9 PUSH2 0x2B7F JUMP JUMPDEST DUP6 PUSH1 0x1 SWAP1 DUP2 PUSH2 0x1527 SWAP2 SWAP1 PUSH2 0x4F2E JUMP JUMPDEST POP PUSH1 0x0 PUSH1 0x3 DUP2 SWAP1 SSTORE POP DUP9 PUSH1 0x6 PUSH1 0x0 PUSH2 0x100 EXP DUP2 SLOAD DUP2 PUSH20 0xFFFFFFFFFFFFFFFFFFFFFFFFFFFFFFFFFFFFFFFF MUL NOT AND SWAP1 DUP4 PUSH20 0xFFFFFFFFFFFFFFFFFFFFFFFFFFFFFFFFFFFFFFFF AND MUL OR SWAP1 SSTORE POP DUP4 ISZERO PUSH2 0x15CD JUMPI PUSH1 0x0 DUP6 PUSH1 0x0 ADD PUSH1 0x8 PUSH2 0x100 EXP DUP2 SLOAD DUP2 PUSH1 0xFF MUL NOT AND SWAP1 DUP4 ISZERO ISZERO MUL OR SWAP1 SSTORE POP PUSH32 0xC7F505B2F371AE2175EE4913F4499E1F2633A7B5936321EED1CDAEB6115181D2 PUSH1 0x1 PUSH1 0x40 MLOAD PUSH2 0x15C4 SWAP2 SWAP1 PUSH2 0x504F JUMP JUMPDEST PUSH1 0x40 MLOAD DUP1 SWAP2 SUB SWAP1 LOG1 JUMPDEST POP POP POP POP POP POP POP POP POP POP JUMP JUMPDEST PUSH2 0x1603 PUSH32 0x65D7A28E3265B37A6474929F336521B332C1681B933F6CB9F3376673440D862A CALLER PUSH2 0x1894 JUMP JUMPDEST PUSH2 0x1642 JUMPI PUSH1 0x40 MLOAD PUSH32 0x8C379A000000000000000000000000000000000000000000000000000000000 DUP2 MSTORE PUSH1 0x4 ADD PUSH2 0x1639 SWAP1 PUSH2 0x4BE6 JUMP JUMPDEST PUSH1 0x40 MLOAD DUP1 SWAP2 SUB SWAP1 REVERT JUMPDEST PUSH2 0x164A PUSH2 0x2B95 JUMP JUMPDEST JUMP JUMPDEST PUSH2 0x1667 DUP4 DUP4 DUP4 PUSH1 0x40 MLOAD DUP1 PUSH1 0x20 ADD PUSH1 0x40 MSTORE DUP1 PUSH1 0x0 DUP2 MSTORE POP PUSH2 0x19CB JUMP JUMPDEST POP POP POP JUMP JUMPDEST PUSH1 0x0 PUSH2 0x1698 PUSH32 0x65D7A28E3265B37A6474929F336521B332C1681B933F6CB9F3376673440D862A DUP4 PUSH2 0x1894 JUMP JUMPDEST SWAP1 POP SWAP2 SWAP1 POP JUMP JUMPDEST PUSH1 0x4 PUSH1 0x20 MSTORE DUP1 PUSH1 0x0 MSTORE PUSH1 0x40 PUSH1 0x0 KECCAK256 PUSH1 0x0 SWAP2 POP SWAP1 POP SLOAD DUP2 JUMP JUMPDEST PUSH1 0x0 DUP1 PUSH2 0x16C2 PUSH2 0x2C07 JUMP JUMPDEST SWAP1 POP DUP1 PUSH1 0x0 ADD PUSH1 0x0 SWAP1 SLOAD SWAP1 PUSH2 0x100 EXP SWAP1 DIV PUSH1 0xFF AND SWAP2 POP POP SWAP1 JUMP JUMPDEST PUSH1 0x0 PUSH2 0x16E7 DUP3 PUSH2 0x1D06 JUMP JUMPDEST SWAP1 POP SWAP2 SWAP1 POP JUMP JUMPDEST PUSH2 0x1718 PUSH32 0x65D7A28E3265B37A6474929F336521B332C1681B933F6CB9F3376673440D862A DUP3 PUSH2 0x1A7B JUMP JUMPDEST POP JUMP JUMPDEST PUSH2 0x1728 PUSH1 0x0 DUP1 SHL DUP3 PUSH2 0xEBA JUMP JUMPDEST POP JUMP JUMPDEST PUSH1 0x0 DUP1 PUSH2 0x1736 PUSH2 0x1CDE JUMP JUMPDEST SWAP1 POP PUSH1 0x0 PUSH20 0xFFFFFFFFFFFFFFFFFFFFFFFFFFFFFFFFFFFFFFFF AND DUP4 PUSH20 0xFFFFFFFFFFFFFFFFFFFFFFFFFFFFFFFFFFFFFFFF AND SUB PUSH2 0x17AA JUMPI PUSH1 0x0 PUSH1 0x40 MLOAD PUSH32 0x89C62B6400000000000000000000000000000000000000000000000000000000 DUP2 MSTORE PUSH1 0x4 ADD PUSH2 0x17A1 SWAP2 SWAP1 PUSH2 0x4293 JUMP JUMPDEST PUSH1 0x40 MLOAD DUP1 SWAP2 SUB SWAP1 REVERT JUMPDEST DUP1 PUSH1 0x3 ADD PUSH1 0x0 DUP5 PUSH20 0xFFFFFFFFFFFFFFFFFFFFFFFFFFFFFFFFFFFFFFFF AND PUSH20 0xFFFFFFFFFFFFFFFFFFFFFFFFFFFFFFFFFFFFFFFF AND DUP2 MSTORE PUSH1 0x20 ADD SWAP1 DUP2 MSTORE PUSH1 0x20 ADD PUSH1 0x0 KECCAK256 SLOAD SWAP2 POP POP SWAP2 SWAP1 POP JUMP JUMPDEST PUSH2 0x181E PUSH32 0x65D7A28E3265B37A6474929F336521B332C1681B933F6CB9F3376673440D862A DUP3 PUSH2 0xEBA JUMP JUMPDEST POP JUMP JUMPDEST PUSH2 0x184B PUSH32 0x65D7A28E3265B37A6474929F336521B332C1681B933F6CB9F3376673440D862A CALLER PUSH2 0x1894 JUMP JUMPDEST PUSH2 0x188A JUMPI PUSH1 0x40 MLOAD PUSH32 0x8C379A000000000000000000000000000000000000000000000000000000000 DUP2 MSTORE PUSH1 0x4 ADD PUSH2 0x1881 SWAP1 PUSH2 0x4BE6 JUMP JUMPDEST PUSH1 0x40 MLOAD DUP1 SWAP2 SUB SWAP1 REVERT JUMPDEST PUSH2 0x1892 PUSH2 0x2C2F JUMP JUMPDEST JUMP JUMPDEST PUSH1 0x0 DUP1 PUSH2 0x189F PUSH2 0x2020 JUMP JUMPDEST SWAP1 POP DUP1 PUSH1 0x0 ADD PUSH1 0x0 DUP6 DUP2 MSTORE PUSH1 0x20 ADD SWAP1 DUP2 MSTORE PUSH1 0x20 ADD PUSH1 0x0 KECCAK256 PUSH1 0x0 ADD PUSH1 0x0 DUP5 PUSH20 0xFFFFFFFFFFFFFFFFFFFFFFFFFFFFFFFFFFFFFFFF AND PUSH20 0xFFFFFFFFFFFFFFFFFFFFFFFFFFFFFFFFFFFFFFFF AND DUP2 MSTORE PUSH1 0x20 ADD SWAP1 DUP2 MSTORE PUSH1 0x20 ADD PUSH1 0x0 KECCAK256 PUSH1 0x0 SWAP1 SLOAD SWAP1 PUSH2 0x100 EXP SWAP1 DIV PUSH1 0xFF AND SWAP2 POP POP SWAP3 SWAP2 POP POP JUMP JUMPDEST PUSH1 0x60 PUSH1 0x0 PUSH2 0x1919 PUSH2 0x1CDE JUMP JUMPDEST SWAP1 POP DUP1 PUSH1 0x1 ADD DUP1 SLOAD PUSH2 0x192A SWAP1 PUSH2 0x4B32 JUMP JUMPDEST DUP1 PUSH1 0x1F ADD PUSH1 0x20 DUP1 SWAP2 DIV MUL PUSH1 0x20 ADD PUSH1 0x40 MLOAD SWAP1 DUP2 ADD PUSH1 0x40 MSTORE DUP1 SWAP3 SWAP2 SWAP1 DUP2 DUP2 MSTORE PUSH1 0x20 ADD DUP3 DUP1 SLOAD PUSH2 0x1956 SWAP1 PUSH2 0x4B32 JUMP JUMPDEST DUP1 ISZERO PUSH2 0x19A3 JUMPI DUP1 PUSH1 0x1F LT PUSH2 0x1978 JUMPI PUSH2 0x100 DUP1 DUP4 SLOAD DIV MUL DUP4 MSTORE SWAP2 PUSH1 0x20 ADD SWAP2 PUSH2 0x19A3 JUMP JUMPDEST DUP3 ADD SWAP2 SWAP1 PUSH1 0x0 MSTORE PUSH1 0x20 PUSH1 0x0 KECCAK256 SWAP1 JUMPDEST DUP2 SLOAD DUP2 MSTORE SWAP1 PUSH1 0x1 ADD SWAP1 PUSH1 0x20 ADD DUP1 DUP4 GT PUSH2 0x1986 JUMPI DUP3 SWAP1 SUB PUSH1 0x1F AND DUP3 ADD SWAP2 JUMPDEST POP POP POP POP POP SWAP2 POP POP SWAP1 JUMP JUMPDEST PUSH1 0x0 DUP1 SHL DUP2 JUMP JUMPDEST PUSH2 0x19C7 PUSH2 0x19C0 PUSH2 0x1DD9 JUMP JUMPDEST DUP4 DUP4 PUSH2 0x2CA1 JUMP JUMPDEST POP POP JUMP JUMPDEST PUSH2 0x19D6 DUP5 DUP5 DUP5 PUSH2 0xA36 JUMP JUMPDEST PUSH2 0x19E2 DUP5 DUP5 DUP5 DUP5 PUSH2 0x2E1F JUMP JUMPDEST POP POP POP POP JUMP JUMPDEST PUSH1 0x60 PUSH2 0x19F3 DUP3 PUSH2 0x1D06 JUMP JUMPDEST POP PUSH1 0x0 PUSH2 0x19FE PUSH2 0x2FD6 JUMP JUMPDEST SWAP1 POP PUSH1 0x0 DUP2 MLOAD GT PUSH2 0x1A1E JUMPI PUSH1 0x40 MLOAD DUP1 PUSH1 0x20 ADD PUSH1 0x40 MSTORE DUP1 PUSH1 0x0 DUP2 MSTORE POP PUSH2 0x1A73 JUMP JUMPDEST DUP1 PUSH2 0x1A28 CHAINID PUSH2 0x3068 JUMP JUMPDEST PUSH2 0x1A47 ADDRESS PUSH20 0xFFFFFFFFFFFFFFFFFFFFFFFFFFFFFFFFFFFFFFFF AND PUSH2 0x3136 JUMP JUMPDEST PUSH2 0x1A50 DUP7 PUSH2 0x3068 JUMP JUMPDEST PUSH1 0x40 MLOAD PUSH1 0x20 ADD PUSH2 0x1A63 SWAP5 SWAP4 SWAP3 SWAP2 SWAP1 PUSH2 0x50F2 JUMP JUMPDEST PUSH1 0x40 MLOAD PUSH1 0x20 DUP2 DUP4 SUB SUB DUP2 MSTORE SWAP1 PUSH1 0x40 MSTORE JUMPDEST SWAP2 POP POP SWAP2 SWAP1 POP JUMP JUMPDEST PUSH2 0x1A84 DUP3 PUSH2 0xB38 JUMP JUMPDEST PUSH2 0x1A8D DUP2 PUSH2 0x233C JUMP JUMPDEST PUSH2 0x1A97 DUP4 DUP4 PUSH2 0x2451 JUMP JUMPDEST POP POP POP POP JUMP JUMPDEST PUSH32 0x65D7A28E3265B37A6474929F336521B332C1681B933F6CB9F3376673440D862A DUP2 JUMP JUMPDEST PUSH1 0x0 DUP1 PUSH2 0x1ACC PUSH2 0x1CDE JUMP JUMPDEST SWAP1 POP DUP1 PUSH1 0x5 ADD PUSH1 0x0 DUP6 PUSH20 0xFFFFFFFFFFFFFFFFFFFFFFFFFFFFFFFFFFFFFFFF AND PUSH20 0xFFFFFFFFFFFFFFFFFFFFFFFFFFFFFFFFFFFFFFFF AND DUP2 MSTORE PUSH1 0x20 ADD SWAP1 DUP2 MSTORE PUSH1 0x20 ADD PUSH1 0x0 KECCAK256 PUSH1 0x0 DUP5 PUSH20 0xFFFFFFFFFFFFFFFFFFFFFFFFFFFFFFFFFFFFFFFF AND PUSH20 0xFFFFFFFFFFFFFFFFFFFFFFFFFFFFFFFFFFFFFFFF AND DUP2 MSTORE PUSH1 0x20 ADD SWAP1 DUP2 MSTORE PUSH1 0x20 ADD PUSH1 0x0 KECCAK256 PUSH1 0x0 SWAP1 SLOAD SWAP1 PUSH2 0x100 EXP SWAP1 DIV PUSH1 0xFF AND SWAP2 POP POP SWAP3 SWAP2 POP POP JUMP JUMPDEST PUSH2 0x1B70 PUSH1 0x0 DUP1 SHL CALLER PUSH2 0x1894 JUMP JUMPDEST PUSH2 0x1BAF JUMPI PUSH1 0x40 MLOAD PUSH32 0x8C379A000000000000000000000000000000000000000000000000000000000 DUP2 MSTORE PUSH1 0x4 ADD PUSH2 0x1BA6 SWAP1 PUSH2 0x4BE6 JUMP JUMPDEST PUSH1 0x40 MLOAD DUP1 SWAP2 SUB SWAP1 REVERT JUMPDEST PUSH1 0x0 DUP2 GT PUSH2 0x1BF2 JUMPI PUSH1 0x40 MLOAD PUSH32 0x8C379A000000000000000000000000000000000000000000000000000000000 DUP2 MSTORE PUSH1 0x4 ADD PUSH2 0x1BE9 SWAP1 PUSH2 0x5192 JUMP JUMPDEST PUSH1 0x40 MLOAD DUP1 SWAP2 SUB SWAP1 REVERT JUMPDEST DUP1 PUSH1 0x0 DUP2 SWAP1 SSTORE POP POP JUMP JUMPDEST PUSH1 0x0 PUSH32 0x80AC58CD00000000000000000000000000000000000000000000000000000000 PUSH28 0xFFFFFFFFFFFFFFFFFFFFFFFFFFFFFFFFFFFFFFFFFFFFFFFFFFFFFFFF NOT AND DUP3 PUSH28 0xFFFFFFFFFFFFFFFFFFFFFFFFFFFFFFFFFFFFFFFFFFFFFFFFFFFFFFFF NOT AND EQ DUP1 PUSH2 0x1CC7 JUMPI POP PUSH32 0x5B5E139F00000000000000000000000000000000000000000000000000000000 PUSH28 0xFFFFFFFFFFFFFFFFFFFFFFFFFFFFFFFFFFFFFFFFFFFFFFFFFFFFFFFF NOT AND DUP3 PUSH28 0xFFFFFFFFFFFFFFFFFFFFFFFFFFFFFFFFFFFFFFFFFFFFFFFFFFFFFFFF NOT AND EQ JUMPDEST DUP1 PUSH2 0x1CD7 JUMPI POP PUSH2 0x1CD6 DUP3 PUSH2 0x3163 JUMP JUMPDEST JUMPDEST SWAP1 POP SWAP2 SWAP1 POP JUMP JUMPDEST PUSH1 0x0 PUSH32 0x80BB2B638CC20BC4D0A60D66940F3AB4A00C1D7B313497CA82FB0B4AB0079300 SWAP1 POP SWAP1 JUMP JUMPDEST PUSH1 0x0 DUP1 PUSH2 0x1D12 DUP4 PUSH2 0x31DD JUMP JUMPDEST SWAP1 POP PUSH1 0x0 PUSH20 0xFFFFFFFFFFFFFFFFFFFFFFFFFFFFFFFFFFFFFFFF AND DUP2 PUSH20 0xFFFFFFFFFFFFFFFFFFFFFFFFFFFFFFFFFFFFFFFF AND SUB PUSH2 0x1D85 JUMPI DUP3 PUSH1 0x40 MLOAD PUSH32 0x7E27328900000000000000000000000000000000000000000000000000000000 DUP2 MSTORE PUSH1 0x4 ADD PUSH2 0x1D7C SWAP2 SWAP1 PUSH2 0x47C0 JUMP JUMPDEST PUSH1 0x40 MLOAD DUP1 SWAP2 SUB SWAP1 REVERT JUMPDEST DUP1 SWAP2 POP POP SWAP2 SWAP1 POP JUMP JUMPDEST PUSH1 0x0 DUP1 PUSH2 0x1D99 PUSH2 0x1CDE JUMP JUMPDEST SWAP1 POP DUP1 PUSH1 0x4 ADD PUSH1 0x0 DUP5 DUP2 MSTORE PUSH1 0x20 ADD SWAP1 DUP2 MSTORE PUSH1 0x20 ADD PUSH1 0x0 KECCAK256 PUSH1 0x0 SWAP1 SLOAD SWAP1 PUSH2 0x100 EXP SWAP1 DIV PUSH20 0xFFFFFFFFFFFFFFFFFFFFFFFFFFFFFFFFFFFFFFFF AND SWAP2 POP POP SWAP2 SWAP1 POP JUMP JUMPDEST PUSH1 0x0 CALLER SWAP1 POP SWAP1 JUMP JUMPDEST PUSH2 0x1DEE DUP4 DUP4 DUP4 PUSH1 0x1 PUSH2 0x3228 JUMP JUMPDEST POP POP POP JUMP JUMPDEST PUSH1 0x0 DUP1 PUSH2 0x1DFE PUSH2 0x1CDE JUMP JUMPDEST SWAP1 POP PUSH1 0x0 PUSH2 0x1E0B DUP6 PUSH2 0x31DD JUMP JUMPDEST SWAP1 POP PUSH1 0x0 PUSH20 0xFFFFFFFFFFFFFFFFFFFFFFFFFFFFFFFFFFFFFFFF AND DUP5 PUSH20 0xFFFFFFFFFFFFFFFFFFFFFFFFFFFFFFFFFFFFFFFF AND EQ PUSH2 0x1E4D JUMPI PUSH2 0x1E4C DUP2 DUP6 DUP8 PUSH2 0x33FC JUMP JUMPDEST JUMPDEST PUSH1 0x0 PUSH20 0xFFFFFFFFFFFFFFFFFFFFFFFFFFFFFFFFFFFFFFFF AND DUP2 PUSH20 0xFFFFFFFFFFFFFFFFFFFFFFFFFFFFFFFFFFFFFFFF AND EQ PUSH2 0x1EE0 JUMPI PUSH2 0x1E8F PUSH1 0x0 DUP7 PUSH1 0x0 DUP1 PUSH2 0x3228 JUMP JUMPDEST PUSH1 0x1 DUP3 PUSH1 0x3 ADD PUSH1 0x0 DUP4 PUSH20 0xFFFFFFFFFFFFFFFFFFFFFFFFFFFFFFFFFFFFFFFF AND PUSH20 0xFFFFFFFFFFFFFFFFFFFFFFFFFFFFFFFFFFFFFFFF AND DUP2 MSTORE PUSH1 0x20 ADD SWAP1 DUP2 MSTORE PUSH1 0x20 ADD PUSH1 0x0 KECCAK256 PUSH1 0x0 DUP3 DUP3 SLOAD SUB SWAP3 POP POP DUP2 SWAP1 SSTORE POP JUMPDEST PUSH1 0x0 PUSH20 0xFFFFFFFFFFFFFFFFFFFFFFFFFFFFFFFFFFFFFFFF AND DUP7 PUSH20 0xFFFFFFFFFFFFFFFFFFFFFFFFFFFFFFFFFFFFFFFF AND EQ PUSH2 0x1F65 JUMPI PUSH1 0x1 DUP3 PUSH1 0x3 ADD PUSH1 0x0 DUP9 PUSH20 0xFFFFFFFFFFFFFFFFFFFFFFFFFFFFFFFFFFFFFFFF AND PUSH20 0xFFFFFFFFFFFFFFFFFFFFFFFFFFFFFFFFFFFFFFFF AND DUP2 MSTORE PUSH1 0x20 ADD SWAP1 DUP2 MSTORE PUSH1 0x20 ADD PUSH1 0x0 KECCAK256 PUSH1 0x0 DUP3 DUP3 SLOAD ADD SWAP3 POP POP DUP2 SWAP1 SSTORE POP JUMPDEST DUP6 DUP3 PUSH1 0x2 ADD PUSH1 0x0 DUP8 DUP2 MSTORE PUSH1 0x20 ADD SWAP1 DUP2 MSTORE PUSH1 0x20 ADD PUSH1 0x0 KECCAK256 PUSH1 0x0 PUSH2 0x100 EXP DUP2 SLOAD DUP2 PUSH20 0xFFFFFFFFFFFFFFFFFFFFFFFFFFFFFFFFFFFFFFFF MUL NOT AND SWAP1 DUP4 PUSH20 0xFFFFFFFFFFFFFFFFFFFFFFFFFFFFFFFFFFFFFFFF AND MUL OR SWAP1 SSTORE POP DUP5 DUP7 PUSH20 0xFFFFFFFFFFFFFFFFFFFFFFFFFFFFFFFFFFFFFFFF AND DUP3 PUSH20 0xFFFFFFFFFFFFFFFFFFFFFFFFFFFFFFFFFFFFFFFF AND PUSH32 0xDDF252AD1BE2C89B69C2B068FC378DAA952BA7F163C4A11628F55A4DF523B3EF PUSH1 0x40 MLOAD PUSH1 0x40 MLOAD DUP1 SWAP2 SUB SWAP1 LOG4 DUP1 SWAP3 POP POP POP SWAP4 SWAP3 POP POP POP JUMP JUMPDEST PUSH1 0x0 PUSH32 0x2DD7BC7DEC4DCEEDDA775E58DD541E08A116C6C53815C0BD028192F7B626800 SWAP1 POP SWAP1 JUMP JUMPDEST PUSH1 0x0 PUSH2 0x2052 PUSH2 0x34C0 JUMP JUMPDEST SWAP1 POP PUSH1 0x2 DUP2 PUSH1 0x0 ADD SLOAD SUB PUSH2 0x2092 JUMPI PUSH1 0x40 MLOAD PUSH32 0x3EE5AEB500000000000000000000000000000000000000000000000000000000 DUP2 MSTORE PUSH1 0x4 ADD PUSH1 0x40 MLOAD DUP1 SWAP2 SUB SWAP1 REVERT JUMPDEST PUSH1 0x2 DUP2 PUSH1 0x0 ADD DUP2 SWAP1 SSTORE POP POP JUMP JUMPDEST PUSH1 0x0 DUP2 MLOAD SUB PUSH2 0x20DA JUMPI PUSH1 0x40 MLOAD PUSH32 0xFD68E07A00000000000000000000000000000000000000000000000000000000 DUP2 MSTORE PUSH1 0x4 ADD PUSH1 0x40 MLOAD DUP1 SWAP2 SUB SWAP1 REVERT JUMPDEST PUSH1 0x0 DUP1 JUMPDEST DUP3 MLOAD DUP2 LT ISZERO PUSH2 0x2166 JUMPI PUSH1 0x0 DUP4 DUP3 DUP2 MLOAD DUP2 LT PUSH2 0x20FC JUMPI PUSH2 0x20FB PUSH2 0x4C06 JUMP JUMPDEST JUMPDEST PUSH1 0x20 MUL PUSH1 0x20 ADD ADD MLOAD PUSH1 0x20 ADD MLOAD SWAP1 POP PUSH1 0x0 DUP2 SUB PUSH2 0x2144 JUMPI PUSH1 0x40 MLOAD PUSH32 0x2B82B70D00000000000000000000000000000000000000000000000000000000 DUP2 MSTORE PUSH1 0x4 ADD PUSH1 0x40 MLOAD DUP1 SWAP2 SUB SWAP1 REVERT JUMPDEST DUP1 DUP4 PUSH2 0x2150 SWAP2 SWAP1 PUSH2 0x4CEE JUMP JUMPDEST SWAP3 POP POP DUP1 DUP1 PUSH2 0x215E SWAP1 PUSH2 0x4C64 JUMP JUMPDEST SWAP2 POP POP PUSH2 0x20DE JUMP JUMPDEST POP PUSH2 0x2710 DUP2 EQ PUSH2 0x21A2 JUMPI PUSH1 0x40 MLOAD PUSH32 0xB8AD7F100000000000000000000000000000000000000000000000000000000 DUP2 MSTORE PUSH1 0x4 ADD PUSH1 0x40 MLOAD DUP1 SWAP2 SUB SWAP1 REVERT JUMPDEST PUSH1 0x96 DUP3 MLOAD GT ISZERO PUSH2 0x21DE JUMPI PUSH1 0x40 MLOAD PUSH32 0x1531E37F00000000000000000000000000000000000000000000000000000000 DUP2 MSTORE PUSH1 0x4 ADD PUSH1 0x40 MLOAD DUP1 SWAP2 SUB SWAP1 REVERT JUMPDEST POP POP JUMP JUMPDEST DUP1 PUSH2 0x21F9 JUMPI PUSH2 0x21F4 DUP5 DUP5 CALLER ADDRESS DUP7 PUSH2 0x34E8 JUMP JUMPDEST PUSH2 0x2286 JUMP JUMPDEST PUSH1 0x0 PUSH20 0xFFFFFFFFFFFFFFFFFFFFFFFFFFFFFFFFFFFFFFFF AND DUP4 PUSH20 0xFFFFFFFFFFFFFFFFFFFFFFFFFFFFFFFFFFFFFFFF AND SUB PUSH2 0x2278 JUMPI DUP2 CALLVALUE EQ PUSH2 0x2273 JUMPI DUP2 CALLVALUE PUSH1 0x40 MLOAD PUSH32 0x4157BB400000000000000000000000000000000000000000000000000000000 DUP2 MSTORE PUSH1 0x4 ADD PUSH2 0x226A SWAP3 SWAP2 SWAP1 PUSH2 0x4797 JUMP JUMPDEST PUSH1 0x40 MLOAD DUP1 SWAP2 SUB SWAP1 REVERT JUMPDEST PUSH2 0x2285 JUMP JUMPDEST PUSH2 0x2284 DUP4 CALLER ADDRESS DUP6 PUSH2 0x3643 JUMP JUMPDEST JUMPDEST JUMPDEST POP POP POP POP JUMP JUMPDEST PUSH1 0x0 PUSH2 0x229B PUSH1 0x0 DUP1 SHL CALLER PUSH2 0x1894 JUMP JUMPDEST PUSH2 0x22DA JUMPI PUSH1 0x40 MLOAD PUSH32 0x8C379A000000000000000000000000000000000000000000000000000000000 DUP2 MSTORE PUSH1 0x4 ADD PUSH2 0x22D1 SWAP1 PUSH2 0x4BE6 JUMP JUMPDEST PUSH1 0x40 MLOAD DUP1 SWAP2 SUB SWAP1 REVERT JUMPDEST PUSH1 0x3 PUSH1 0x0 DUP2 SLOAD DUP1 SWAP3 SWAP2 SWAP1 PUSH2 0x22ED SWAP1 PUSH2 0x4C64 JUMP JUMPDEST SWAP2 SWAP1 POP SSTORE POP PUSH1 0x3 SLOAD PUSH1 0x4 PUSH1 0x0 DUP5 DUP2 MSTORE PUSH1 0x20 ADD SWAP1 DUP2 MSTORE PUSH1 0x20 ADD PUSH1 0x0 KECCAK256 DUP2 SWAP1 SSTORE POP PUSH2 0x2318 DUP4 PUSH1 0x3 SLOAD PUSH2 0x377C JUMP JUMPDEST PUSH1 0x3 SLOAD SWAP1 POP SWAP3 SWAP2 POP POP JUMP JUMPDEST PUSH1 0x0 PUSH2 0x232D PUSH2 0x34C0 JUMP JUMPDEST SWAP1 POP PUSH1 0x1 DUP2 PUSH1 0x0 ADD DUP2 SWAP1 SSTORE POP POP JUMP JUMPDEST PUSH2 0x234D DUP2 PUSH2 0x2348 PUSH2 0x1DD9 JUMP JUMPDEST PUSH2 0x3875 JUMP JUMPDEST POP JUMP JUMPDEST PUSH1 0x0 DUP1 PUSH2 0x235B PUSH2 0x2020 JUMP JUMPDEST SWAP1 POP PUSH2 0x2367 DUP5 DUP5 PUSH2 0x1894 JUMP JUMPDEST PUSH2 0x2445 JUMPI PUSH1 0x1 DUP2 PUSH1 0x0 ADD PUSH1 0x0 DUP7 DUP2 MSTORE PUSH1 0x20 ADD SWAP1 DUP2 MSTORE PUSH1 0x20 ADD PUSH1 0x0 KECCAK256 PUSH1 0x0 ADD PUSH1 0x0 DUP6 PUSH20 0xFFFFFFFFFFFFFFFFFFFFFFFFFFFFFFFFFFFFFFFF AND PUSH20 0xFFFFFFFFFFFFFFFFFFFFFFFFFFFFFFFFFFFFFFFF AND DUP2 MSTORE PUSH1 0x20 ADD SWAP1 DUP2 MSTORE PUSH1 0x20 ADD PUSH1 0x0 KECCAK256 PUSH1 0x0 PUSH2 0x100 EXP DUP2 SLOAD DUP2 PUSH1 0xFF MUL NOT AND SWAP1 DUP4 ISZERO ISZERO MUL OR SWAP1 SSTORE POP PUSH2 0x23E1 PUSH2 0x1DD9 JUMP JUMPDEST PUSH20 0xFFFFFFFFFFFFFFFFFFFFFFFFFFFFFFFFFFFFFFFF AND DUP4 PUSH20 0xFFFFFFFFFFFFFFFFFFFFFFFFFFFFFFFFFFFFFFFF AND DUP6 PUSH32 0x2F8788117E7EFF1D82E926EC794901D17C78024A50270940304540A733656F0D PUSH1 0x40 MLOAD PUSH1 0x40 MLOAD DUP1 SWAP2 SUB SWAP1 LOG4 PUSH1 0x1 SWAP2 POP POP PUSH2 0x244B JUMP JUMPDEST PUSH1 0x0 SWAP2 POP POP JUMPDEST SWAP3 SWAP2 POP POP JUMP JUMPDEST PUSH1 0x0 DUP1 PUSH2 0x245C PUSH2 0x2020 JUMP JUMPDEST SWAP1 POP PUSH2 0x2468 DUP5 DUP5 PUSH2 0x1894 JUMP JUMPDEST ISZERO PUSH2 0x2547 JUMPI PUSH1 0x0 DUP2 PUSH1 0x0 ADD PUSH1 0x0 DUP7 DUP2 MSTORE PUSH1 0x20 ADD SWAP1 DUP2 MSTORE PUSH1 0x20 ADD PUSH1 0x0 KECCAK256 PUSH1 0x0 ADD PUSH1 0x0 DUP6 PUSH20 0xFFFFFFFFFFFFFFFFFFFFFFFFFFFFFFFFFFFFFFFF AND PUSH20 0xFFFFFFFFFFFFFFFFFFFFFFFFFFFFFFFFFFFFFFFF AND DUP2 MSTORE PUSH1 0x20 ADD SWAP1 DUP2 MSTORE PUSH1 0x20 ADD PUSH1 0x0 KECCAK256 PUSH1 0x0 PUSH2 0x100 EXP DUP2 SLOAD DUP2 PUSH1 0xFF MUL NOT AND SWAP1 DUP4 ISZERO ISZERO MUL OR SWAP1 SSTORE POP PUSH2 0x24E3 PUSH2 0x1DD9 JUMP JUMPDEST PUSH20 0xFFFFFFFFFFFFFFFFFFFFFFFFFFFFFFFFFFFFFFFF AND DUP4 PUSH20 0xFFFFFFFFFFFFFFFFFFFFFFFFFFFFFFFFFFFFFFFF AND DUP6 PUSH32 0xF6391F5C32D9C69D2A47EA670B442974B53935D1EDC7FD64EB21E047A839171B PUSH1 0x40 MLOAD PUSH1 0x40 MLOAD DUP1 SWAP2 SUB SWAP1 LOG4 PUSH1 0x1 SWAP2 POP POP PUSH2 0x254D JUMP JUMPDEST PUSH1 0x0 SWAP2 POP POP JUMPDEST SWAP3 SWAP2 POP POP JUMP JUMPDEST PUSH2 0x255B PUSH2 0x16B7 JUMP JUMPDEST ISZERO PUSH2 0x2592 JUMPI PUSH1 0x40 MLOAD PUSH32 0xD93C066500000000000000000000000000000000000000000000000000000000 DUP2 MSTORE PUSH1 0x4 ADD PUSH1 0x40 MLOAD DUP1 SWAP2 SUB SWAP1 REVERT JUMPDEST JUMP JUMPDEST PUSH1 0x0 DUP1 DUP6 PUSH20 0xFFFFFFFFFFFFFFFFFFFFFFFFFFFFFFFFFFFFFFFF AND PUSH4 0xBEABACC8 PUSH1 0xE0 SHL DUP7 DUP7 DUP7 PUSH1 0x40 MLOAD PUSH1 0x24 ADD PUSH2 0x25CB SWAP4 SWAP3 SWAP2 SWAP1 PUSH2 0x51B2 JUMP JUMPDEST PUSH1 0x40 MLOAD PUSH1 0x20 DUP2 DUP4 SUB SUB DUP2 MSTORE SWAP1 PUSH1 0x40 MSTORE SWAP1 PUSH28 0xFFFFFFFFFFFFFFFFFFFFFFFFFFFFFFFFFFFFFFFFFFFFFFFFFFFFFFFF NOT AND PUSH1 0x20 DUP3 ADD DUP1 MLOAD PUSH28 0xFFFFFFFFFFFFFFFFFFFFFFFFFFFFFFFFFFFFFFFFFFFFFFFFFFFFFFFF DUP4 DUP2 DUP4 AND OR DUP4 MSTORE POP POP POP POP PUSH1 0x40 MLOAD PUSH2 0x2635 SWAP2 SWAP1 PUSH2 0x5230 JUMP JUMPDEST PUSH1 0x0 PUSH1 0x40 MLOAD DUP1 DUP4 SUB DUP2 PUSH1 0x0 DUP7 GAS CALL SWAP2 POP POP RETURNDATASIZE DUP1 PUSH1 0x0 DUP2 EQ PUSH2 0x2672 JUMPI PUSH1 0x40 MLOAD SWAP2 POP PUSH1 0x1F NOT PUSH1 0x3F RETURNDATASIZE ADD AND DUP3 ADD PUSH1 0x40 MSTORE RETURNDATASIZE DUP3 MSTORE RETURNDATASIZE PUSH1 0x0 PUSH1 0x20 DUP5 ADD RETURNDATACOPY PUSH2 0x2677 JUMP JUMPDEST PUSH1 0x60 SWAP2 POP JUMPDEST POP SWAP2 POP SWAP2 POP DUP2 DUP1 ISZERO PUSH2 0x26A5 JUMPI POP PUSH1 0x0 DUP2 MLOAD EQ DUP1 PUSH2 0x26A4 JUMPI POP DUP1 DUP1 PUSH1 0x20 ADD SWAP1 MLOAD DUP2 ADD SWAP1 PUSH2 0x26A3 SWAP2 SWAP1 PUSH2 0x525C JUMP JUMPDEST JUMPDEST JUMPDEST PUSH2 0x26E4 JUMPI PUSH1 0x40 MLOAD PUSH32 0x8C379A000000000000000000000000000000000000000000000000000000000 DUP2 MSTORE PUSH1 0x4 ADD PUSH2 0x26DB SWAP1 PUSH2 0x52D5 JUMP JUMPDEST PUSH1 0x40 MLOAD DUP1 SWAP2 SUB SWAP1 REVERT JUMPDEST POP POP POP POP POP POP JUMP JUMPDEST PUSH1 0x0 DUP1 DUP5 PUSH20 0xFFFFFFFFFFFFFFFFFFFFFFFFFFFFFFFFFFFFFFFF AND PUSH4 0xA9059CBB DUP6 DUP6 PUSH1 0x40 MLOAD PUSH1 0x24 ADD PUSH2 0x271E SWAP3 SWAP2 SWAP1 PUSH2 0x52F5 JUMP JUMPDEST PUSH1 0x40 MLOAD PUSH1 0x20 DUP2 DUP4 SUB SUB DUP2 MSTORE SWAP1 PUSH1 0x40 MSTORE SWAP1 PUSH1 0xE0 SHL PUSH1 0x20 DUP3 ADD DUP1 MLOAD PUSH28 0xFFFFFFFFFFFFFFFFFFFFFFFFFFFFFFFFFFFFFFFFFFFFFFFFFFFFFFFF DUP4 DUP2 DUP4 AND OR DUP4 MSTORE POP POP POP POP PUSH1 0x40 MLOAD PUSH2 0x276C SWAP2 SWAP1 PUSH2 0x5230 JUMP JUMPDEST PUSH1 0x0 PUSH1 0x40 MLOAD DUP1 DUP4 SUB DUP2 PUSH1 0x0 DUP7 GAS CALL SWAP2 POP POP RETURNDATASIZE DUP1 PUSH1 0x0 DUP2 EQ PUSH2 0x27A9 JUMPI PUSH1 0x40 MLOAD SWAP2 POP PUSH1 0x1F NOT PUSH1 0x3F RETURNDATASIZE ADD AND DUP3 ADD PUSH1 0x40 MSTORE RETURNDATASIZE DUP3 MSTORE RETURNDATASIZE PUSH1 0x0 PUSH1 0x20 DUP5 ADD RETURNDATACOPY PUSH2 0x27AE JUMP JUMPDEST PUSH1 0x60 SWAP2 POP JUMPDEST POP SWAP2 POP SWAP2 POP DUP2 DUP1 ISZERO PUSH2 0x27DC JUMPI POP PUSH1 0x0 DUP2 MLOAD EQ DUP1 PUSH2 0x27DB JUMPI POP DUP1 DUP1 PUSH1 0x20 ADD SWAP1 MLOAD DUP2 ADD SWAP1 PUSH2 0x27DA SWAP2 SWAP1 PUSH2 0x525C JUMP JUMPDEST JUMPDEST JUMPDEST PUSH2 0x281B JUMPI PUSH1 0x40 MLOAD PUSH32 0x8C379A000000000000000000000000000000000000000000000000000000000 DUP2 MSTORE PUSH1 0x4 ADD PUSH2 0x2812 SWAP1 PUSH2 0x5390 JUMP JUMPDEST PUSH1 0x40 MLOAD DUP1 SWAP2 SUB SWAP1 REVERT JUMPDEST POP POP POP POP POP JUMP JUMPDEST PUSH1 0x0 DUP3 PUSH20 0xFFFFFFFFFFFFFFFFFFFFFFFFFFFFFFFFFFFFFFFF AND DUP3 PUSH1 0x0 PUSH8 0xFFFFFFFFFFFFFFFF DUP2 GT ISZERO PUSH2 0x2857 JUMPI PUSH2 0x2856 PUSH2 0x442C JUMP JUMPDEST JUMPDEST PUSH1 0x40 MLOAD SWAP1 DUP1 DUP3 MSTORE DUP1 PUSH1 0x1F ADD PUSH1 0x1F NOT AND PUSH1 0x20 ADD DUP3 ADD PUSH1 0x40 MSTORE DUP1 ISZERO PUSH2 0x2889 JUMPI DUP2 PUSH1 0x20 ADD PUSH1 0x1 DUP3 MUL DUP1 CALLDATASIZE DUP4 CALLDATACOPY DUP1 DUP3 ADD SWAP2 POP POP SWAP1 POP JUMPDEST POP PUSH1 0x40 MLOAD PUSH2 0x2897 SWAP2 SWAP1 PUSH2 0x5230 JUMP JUMPDEST PUSH1 0x0 PUSH1 0x40 MLOAD DUP1 DUP4 SUB DUP2 DUP6 DUP8 GAS CALL SWAP3 POP POP POP RETURNDATASIZE DUP1 PUSH1 0x0 DUP2 EQ PUSH2 0x28D4 JUMPI PUSH1 0x40 MLOAD SWAP2 POP PUSH1 0x1F NOT PUSH1 0x3F RETURNDATASIZE ADD AND DUP3 ADD PUSH1 0x40 MSTORE RETURNDATASIZE DUP3 MSTORE RETURNDATASIZE PUSH1 0x0 PUSH1 0x20 DUP5 ADD RETURNDATACOPY PUSH2 0x28D9 JUMP JUMPDEST PUSH1 0x60 SWAP2 POP JUMPDEST POP POP SWAP1 POP DUP1 PUSH2 0x291D JUMPI PUSH1 0x40 MLOAD PUSH32 0x8C379A000000000000000000000000000000000000000000000000000000000 DUP2 MSTORE PUSH1 0x4 ADD PUSH2 0x2914 SWAP1 PUSH2 0x5422 JUMP JUMPDEST PUSH1 0x40 MLOAD DUP1 SWAP2 SUB SWAP1 REVERT JUMPDEST POP POP POP JUMP JUMPDEST PUSH1 0x0 PUSH2 0x2931 PUSH1 0x0 DUP4 PUSH1 0x0 PUSH2 0x1DF3 JUMP JUMPDEST SWAP1 POP PUSH1 0x0 PUSH20 0xFFFFFFFFFFFFFFFFFFFFFFFFFFFFFFFFFFFFFFFF AND DUP2 PUSH20 0xFFFFFFFFFFFFFFFFFFFFFFFFFFFFFFFFFFFFFFFF AND SUB PUSH2 0x29A4 JUMPI DUP2 PUSH1 0x40 MLOAD PUSH32 0x7E27328900000000000000000000000000000000000000000000000000000000 DUP2 MSTORE PUSH1 0x4 ADD PUSH2 0x299B SWAP2 SWAP1 PUSH2 0x47C0 JUMP JUMPDEST PUSH1 0x40 MLOAD DUP1 SWAP2 SUB SWAP1 REVERT JUMPDEST POP POP JUMP JUMPDEST PUSH1 0x0 PUSH32 0xF0C57E16840DF040F15088DC2F81FE391C3923BEC73E23A9662EFC9C229C6A00 SWAP1 POP SWAP1 JUMP JUMPDEST PUSH1 0x0 PUSH2 0x29DA PUSH2 0x29A8 JUMP JUMPDEST SWAP1 POP PUSH1 0x0 DUP2 PUSH1 0x0 ADD PUSH1 0x8 SWAP1 SLOAD SWAP1 PUSH2 0x100 EXP SWAP1 DIV PUSH1 0xFF AND ISZERO SWAP1 POP PUSH1 0x0 DUP3 PUSH1 0x0 ADD PUSH1 0x0 SWAP1 SLOAD SWAP1 PUSH2 0x100 EXP SWAP1 DIV PUSH8 0xFFFFFFFFFFFFFFFF AND SWAP1 POP PUSH1 0x0 DUP1 DUP3 PUSH8 0xFFFFFFFFFFFFFFFF AND EQ DUP1 ISZERO PUSH2 0x2A28 JUMPI POP DUP3 JUMPDEST SWAP1 POP PUSH1 0x0 PUSH1 0x1 DUP4 PUSH8 0xFFFFFFFFFFFFFFFF AND EQ DUP1 ISZERO PUSH2 0x2A5D JUMPI POP PUSH1 0x0 ADDRESS PUSH20 0xFFFFFFFFFFFFFFFFFFFFFFFFFFFFFFFFFFFFFFFF AND EXTCODESIZE EQ JUMPDEST SWAP1 POP DUP2 ISZERO DUP1 ISZERO PUSH2 0x2A6B JUMPI POP DUP1 ISZERO JUMPDEST ISZERO PUSH2 0x2AA2 JUMPI PUSH1 0x40 MLOAD PUSH32 0xF92EE8A900000000000000000000000000000000000000000000000000000000 DUP2 MSTORE PUSH1 0x4 ADD PUSH1 0x40 MLOAD DUP1 SWAP2 SUB SWAP1 REVERT JUMPDEST PUSH1 0x1 DUP6 PUSH1 0x0 ADD PUSH1 0x0 PUSH2 0x100 EXP DUP2 SLOAD DUP2 PUSH8 0xFFFFFFFFFFFFFFFF MUL NOT AND SWAP1 DUP4 PUSH8 0xFFFFFFFFFFFFFFFF AND MUL OR SWAP1 SSTORE POP DUP4 ISZERO PUSH2 0x2AF2 JUMPI PUSH1 0x1 DUP6 PUSH1 0x0 ADD PUSH1 0x8 PUSH2 0x100 EXP DUP2 SLOAD DUP2 PUSH1 0xFF MUL NOT AND SWAP1 DUP4 ISZERO ISZERO MUL OR SWAP1 SSTORE POP JUMPDEST PUSH2 0x2AFA PUSH2 0x38C6 JUMP JUMPDEST PUSH2 0x2B02 PUSH2 0x38D0 JUMP JUMPDEST PUSH2 0x2B0A PUSH2 0x38DA JUMP JUMPDEST PUSH2 0x2B13 DUP7 PUSH2 0x390E JUMP JUMPDEST PUSH1 0x64 PUSH1 0x0 DUP2 SWAP1 SSTORE POP DUP4 ISZERO PUSH2 0x2B77 JUMPI PUSH1 0x0 DUP6 PUSH1 0x0 ADD PUSH1 0x8 PUSH2 0x100 EXP DUP2 SLOAD DUP2 PUSH1 0xFF MUL NOT AND SWAP1 DUP4 ISZERO ISZERO MUL OR SWAP1 SSTORE POP PUSH32 0xC7F505B2F371AE2175EE4913F4499E1F2633A7B5936321EED1CDAEB6115181D2 PUSH1 0x1 PUSH1 0x40 MLOAD PUSH2 0x2B6E SWAP2 SWAP1 PUSH2 0x504F JUMP JUMPDEST PUSH1 0x40 MLOAD DUP1 SWAP2 SUB SWAP1 LOG1 JUMPDEST POP POP POP POP POP POP JUMP JUMPDEST PUSH2 0x2B87 PUSH2 0x3ACD JUMP JUMPDEST PUSH2 0x2B91 DUP3 DUP3 PUSH2 0x3B0D JUMP JUMPDEST POP POP JUMP JUMPDEST PUSH2 0x2B9D PUSH2 0x3B4A JUMP JUMPDEST PUSH1 0x0 PUSH2 0x2BA7 PUSH2 0x2C07 JUMP JUMPDEST SWAP1 POP PUSH1 0x0 DUP2 PUSH1 0x0 ADD PUSH1 0x0 PUSH2 0x100 EXP DUP2 SLOAD DUP2 PUSH1 0xFF MUL NOT AND SWAP1 DUP4 ISZERO ISZERO MUL OR SWAP1 SSTORE POP PUSH32 0x5DB9EE0A495BF2E6FF9C91A7834C1BA4FDD244A5E8AA4E537BD38AEAE4B073AA PUSH2 0x2BEF PUSH2 0x1DD9 JUMP JUMPDEST PUSH1 0x40 MLOAD PUSH2 0x2BFC SWAP2 SWAP1 PUSH2 0x4293 JUMP JUMPDEST PUSH1 0x40 MLOAD DUP1 SWAP2 SUB SWAP1 LOG1 POP JUMP JUMPDEST PUSH1 0x0 PUSH32 0xCD5ED15C6E187E77E9AEE88184C21F4F2182AB5827CB3B7E07FBEDCD63F03300 SWAP1 POP SWAP1 JUMP JUMPDEST PUSH2 0x2C37 PUSH2 0x2553 JUMP JUMPDEST PUSH1 0x0 PUSH2 0x2C41 PUSH2 0x2C07 JUMP JUMPDEST SWAP1 POP PUSH1 0x1 DUP2 PUSH1 0x0 ADD PUSH1 0x0 PUSH2 0x100 EXP DUP2 SLOAD DUP2 PUSH1 0xFF MUL NOT AND SWAP1 DUP4 ISZERO ISZERO MUL OR SWAP1 SSTORE POP PUSH32 0x62E78CEA01BEE320CD4E420270B5EA74000D11B0C9F74754EBDBFC544B05A258 PUSH2 0x2C89 PUSH2 0x1DD9 JUMP JUMPDEST PUSH1 0x40 MLOAD PUSH2 0x2C96 SWAP2 SWAP1 PUSH2 0x4293 JUMP JUMPDEST PUSH1 0x40 MLOAD DUP1 SWAP2 SUB SWAP1 LOG1 POP JUMP JUMPDEST PUSH1 0x0 PUSH2 0x2CAB PUSH2 0x1CDE JUMP JUMPDEST SWAP1 POP PUSH1 0x0 PUSH20 0xFFFFFFFFFFFFFFFFFFFFFFFFFFFFFFFFFFFFFFFF AND DUP4 PUSH20 0xFFFFFFFFFFFFFFFFFFFFFFFFFFFFFFFFFFFFFFFF AND SUB PUSH2 0x2D1E JUMPI DUP3 PUSH1 0x40 MLOAD PUSH32 0x5B08BA1800000000000000000000000000000000000000000000000000000000 DUP2 MSTORE PUSH1 0x4 ADD PUSH2 0x2D15 SWAP2 SWAP1 PUSH2 0x4293 JUMP JUMPDEST PUSH1 0x40 MLOAD DUP1 SWAP2 SUB SWAP1 REVERT JUMPDEST DUP2 DUP2 PUSH1 0x5 ADD PUSH1 0x0 DUP7 PUSH20 0xFFFFFFFFFFFFFFFFFFFFFFFFFFFFFFFFFFFFFFFF AND PUSH20 0xFFFFFFFFFFFFFFFFFFFFFFFFFFFFFFFFFFFFFFFF AND DUP2 MSTORE PUSH1 0x20 ADD SWAP1 DUP2 MSTORE PUSH1 0x20 ADD PUSH1 0x0 KECCAK256 PUSH1 0x0 DUP6 PUSH20 0xFFFFFFFFFFFFFFFFFFFFFFFFFFFFFFFFFFFFFFFF AND PUSH20 0xFFFFFFFFFFFFFFFFFFFFFFFFFFFFFFFFFFFFFFFF AND DUP2 MSTORE PUSH1 0x20 ADD SWAP1 DUP2 MSTORE PUSH1 0x20 ADD PUSH1 0x0 KECCAK256 PUSH1 0x0 PUSH2 0x100 EXP DUP2 SLOAD DUP2 PUSH1 0xFF MUL NOT AND SWAP1 DUP4 ISZERO ISZERO MUL OR SWAP1 SSTORE POP DUP3 PUSH20 0xFFFFFFFFFFFFFFFFFFFFFFFFFFFFFFFFFFFFFFFF AND DUP5 PUSH20 0xFFFFFFFFFFFFFFFFFFFFFFFFFFFFFFFFFFFFFFFF AND PUSH32 0x17307EAB39AB6107E8899845AD3D59BD9653F200F220920489CA2B5937696C31 DUP5 PUSH1 0x40 MLOAD PUSH2 0x2E11 SWAP2 SWAP1 PUSH2 0x4122 JUMP JUMPDEST PUSH1 0x40 MLOAD DUP1 SWAP2 SUB SWAP1 LOG3 POP POP POP POP JUMP JUMPDEST PUSH1 0x0 DUP4 PUSH20 0xFFFFFFFFFFFFFFFFFFFFFFFFFFFFFFFFFFFFFFFF AND EXTCODESIZE GT ISZERO PUSH2 0x2FD0 JUMPI DUP3 PUSH20 0xFFFFFFFFFFFFFFFFFFFFFFFFFFFFFFFFFFFFFFFF AND PUSH4 0x150B7A02 PUSH2 0x2E63 PUSH2 0x1DD9 JUMP JUMPDEST DUP7 DUP6 DUP6 PUSH1 0x40 MLOAD DUP6 PUSH4 0xFFFFFFFF AND PUSH1 0xE0 SHL DUP2 MSTORE PUSH1 0x4 ADD PUSH2 0x2E85 SWAP5 SWAP4 SWAP3 SWAP2 SWAP1 PUSH2 0x548C JUMP JUMPDEST PUSH1 0x20 PUSH1 0x40 MLOAD DUP1 DUP4 SUB DUP2 PUSH1 0x0 DUP8 GAS CALL SWAP3 POP POP POP DUP1 ISZERO PUSH2 0x2EC1 JUMPI POP PUSH1 0x40 MLOAD RETURNDATASIZE PUSH1 0x1F NOT PUSH1 0x1F DUP3 ADD AND DUP3 ADD DUP1 PUSH1 0x40 MSTORE POP DUP2 ADD SWAP1 PUSH2 0x2EBE SWAP2 SWAP1 PUSH2 0x54ED JUMP JUMPDEST PUSH1 0x1 JUMPDEST PUSH2 0x2F45 JUMPI RETURNDATASIZE DUP1 PUSH1 0x0 DUP2 EQ PUSH2 0x2EF1 JUMPI PUSH1 0x40 MLOAD SWAP2 POP PUSH1 0x1F NOT PUSH1 0x3F RETURNDATASIZE ADD AND DUP3 ADD PUSH1 0x40 MSTORE RETURNDATASIZE DUP3 MSTORE RETURNDATASIZE PUSH1 0x0 PUSH1 0x20 DUP5 ADD RETURNDATACOPY PUSH2 0x2EF6 JUMP JUMPDEST PUSH1 0x60 SWAP2 POP JUMPDEST POP PUSH1 0x0 DUP2 MLOAD SUB PUSH2 0x2F3D JUMPI DUP4 PUSH1 0x40 MLOAD PUSH32 0x64A0AE9200000000000000000000000000000000000000000000000000000000 DUP2 MSTORE PUSH1 0x4 ADD PUSH2 0x2F34 SWAP2 SWAP1 PUSH2 0x4293 JUMP JUMPDEST PUSH1 0x40 MLOAD DUP1 SWAP2 SUB SWAP1 REVERT JUMPDEST DUP1 MLOAD DUP2 PUSH1 0x20 ADD REVERT JUMPDEST PUSH4 0x150B7A02 PUSH1 0xE0 SHL PUSH28 0xFFFFFFFFFFFFFFFFFFFFFFFFFFFFFFFFFFFFFFFFFFFFFFFFFFFFFFFF NOT AND DUP2 PUSH28 0xFFFFFFFFFFFFFFFFFFFFFFFFFFFFFFFFFFFFFFFFFFFFFFFFFFFFFFFF NOT AND EQ PUSH2 0x2FCE JUMPI DUP4 PUSH1 0x40 MLOAD PUSH32 0x64A0AE9200000000000000000000000000000000000000000000000000000000 DUP2 MSTORE PUSH1 0x4 ADD PUSH2 0x2FC5 SWAP2 SWAP1 PUSH2 0x4293 JUMP JUMPDEST PUSH1 0x40 MLOAD DUP1 SWAP2 SUB SWAP1 REVERT JUMPDEST POP JUMPDEST POP POP POP POP JUMP JUMPDEST PUSH1 0x60 PUSH1 0x1 DUP1 SLOAD PUSH2 0x2FE5 SWAP1 PUSH2 0x4B32 JUMP JUMPDEST DUP1 PUSH1 0x1F ADD PUSH1 0x20 DUP1 SWAP2 DIV MUL PUSH1 0x20 ADD PUSH1 0x40 MLOAD SWAP1 DUP2 ADD PUSH1 0x40 MSTORE DUP1 SWAP3 SWAP2 SWAP1 DUP2 DUP2 MSTORE PUSH1 0x20 ADD DUP3 DUP1 SLOAD PUSH2 0x3011 SWAP1 PUSH2 0x4B32 JUMP JUMPDEST DUP1 ISZERO PUSH2 0x305E JUMPI DUP1 PUSH1 0x1F LT PUSH2 0x3033 JUMPI PUSH2 0x100 DUP1 DUP4 SLOAD DIV MUL DUP4 MSTORE SWAP2 PUSH1 0x20 ADD SWAP2 PUSH2 0x305E JUMP JUMPDEST DUP3 ADD SWAP2 SWAP1 PUSH1 0x0 MSTORE PUSH1 0x20 PUSH1 0x0 KECCAK256 SWAP1 JUMPDEST DUP2 SLOAD DUP2 MSTORE SWAP1 PUSH1 0x1 ADD SWAP1 PUSH1 0x20 ADD DUP1 DUP4 GT PUSH2 0x3041 JUMPI DUP3 SWAP1 SUB PUSH1 0x1F AND DUP3 ADD SWAP2 JUMPDEST POP POP POP POP POP SWAP1 POP SWAP1 JUMP JUMPDEST PUSH1 0x60 PUSH1 0x0 PUSH1 0x1 PUSH2 0x3077 DUP5 PUSH2 0x3B8A JUMP JUMPDEST ADD SWAP1 POP PUSH1 0x0 DUP2 PUSH8 0xFFFFFFFFFFFFFFFF DUP2 GT ISZERO PUSH2 0x3096 JUMPI PUSH2 0x3095 PUSH2 0x442C JUMP JUMPDEST JUMPDEST PUSH1 0x40 MLOAD SWAP1 DUP1 DUP3 MSTORE DUP1 PUSH1 0x1F ADD PUSH1 0x1F NOT AND PUSH1 0x20 ADD DUP3 ADD PUSH1 0x40 MSTORE DUP1 ISZERO PUSH2 0x30C8 JUMPI DUP2 PUSH1 0x20 ADD PUSH1 0x1 DUP3 MUL DUP1 CALLDATASIZE DUP4 CALLDATACOPY DUP1 DUP3 ADD SWAP2 POP POP SWAP1 POP JUMPDEST POP SWAP1 POP PUSH1 0x0 DUP3 PUSH1 0x20 ADD DUP3 ADD SWAP1 POP JUMPDEST PUSH1 0x1 ISZERO PUSH2 0x312B JUMPI DUP1 DUP1 PUSH1 0x1 SWAP1 SUB SWAP2 POP POP PUSH32 0x3031323334353637383961626364656600000000000000000000000000000000 PUSH1 0xA DUP7 MOD BYTE DUP2 MSTORE8 PUSH1 0xA DUP6 DUP2 PUSH2 0x311F JUMPI PUSH2 0x311E PUSH2 0x4D22 JUMP JUMPDEST JUMPDEST DIV SWAP5 POP PUSH1 0x0 DUP6 SUB PUSH2 0x30D6 JUMPI JUMPDEST DUP2 SWAP4 POP POP POP POP SWAP2 SWAP1 POP JUMP JUMPDEST PUSH1 0x60 PUSH2 0x315C DUP3 PUSH20 0xFFFFFFFFFFFFFFFFFFFFFFFFFFFFFFFFFFFFFFFF AND PUSH1 0x14 PUSH1 0xFF AND PUSH2 0x3CDD JUMP JUMPDEST SWAP1 POP SWAP2 SWAP1 POP JUMP JUMPDEST PUSH1 0x0 PUSH32 0x7965DB0B00000000000000000000000000000000000000000000000000000000 PUSH28 0xFFFFFFFFFFFFFFFFFFFFFFFFFFFFFFFFFFFFFFFFFFFFFFFFFFFFFFFF NOT AND DUP3 PUSH28 0xFFFFFFFFFFFFFFFFFFFFFFFFFFFFFFFFFFFFFFFFFFFFFFFFFFFFFFFF NOT AND EQ DUP1 PUSH2 0x31D6 JUMPI POP PUSH2 0x31D5 DUP3 PUSH2 0x3F23 JUMP JUMPDEST JUMPDEST SWAP1 POP SWAP2 SWAP1 POP JUMP JUMPDEST PUSH1 0x0 DUP1 PUSH2 0x31E8 PUSH2 0x1CDE JUMP JUMPDEST SWAP1 POP DUP1 PUSH1 0x2 ADD PUSH1 0x0 DUP5 DUP2 MSTORE PUSH1 0x20 ADD SWAP1 DUP2 MSTORE PUSH1 0x20 ADD PUSH1 0x0 KECCAK256 PUSH1 0x0 SWAP1 SLOAD SWAP1 PUSH2 0x100 EXP SWAP1 DIV PUSH20 0xFFFFFFFFFFFFFFFFFFFFFFFFFFFFFFFFFFFFFFFF AND SWAP2 POP POP SWAP2 SWAP1 POP JUMP JUMPDEST PUSH1 0x0 PUSH2 0x3232 PUSH2 0x1CDE JUMP JUMPDEST SWAP1 POP DUP2 DUP1 PUSH2 0x326D JUMPI POP PUSH1 0x0 PUSH20 0xFFFFFFFFFFFFFFFFFFFFFFFFFFFFFFFFFFFFFFFF AND DUP4 PUSH20 0xFFFFFFFFFFFFFFFFFFFFFFFFFFFFFFFFFFFFFFFF AND EQ ISZERO JUMPDEST ISZERO PUSH2 0x33A1 JUMPI PUSH1 0x0 PUSH2 0x327D DUP6 PUSH2 0x1D06 JUMP JUMPDEST SWAP1 POP PUSH1 0x0 PUSH20 0xFFFFFFFFFFFFFFFFFFFFFFFFFFFFFFFFFFFFFFFF AND DUP5 PUSH20 0xFFFFFFFFFFFFFFFFFFFFFFFFFFFFFFFFFFFFFFFF AND EQ ISZERO DUP1 ISZERO PUSH2 0x32E8 JUMPI POP DUP4 PUSH20 0xFFFFFFFFFFFFFFFFFFFFFFFFFFFFFFFFFFFFFFFF AND DUP2 PUSH20 0xFFFFFFFFFFFFFFFFFFFFFFFFFFFFFFFFFFFFFFFF AND EQ ISZERO JUMPDEST DUP1 ISZERO PUSH2 0x32FB JUMPI POP PUSH2 0x32F9 DUP2 DUP6 PUSH2 0x1AC1 JUMP JUMPDEST ISZERO JUMPDEST ISZERO PUSH2 0x333D JUMPI DUP4 PUSH1 0x40 MLOAD PUSH32 0xA9FBF51F00000000000000000000000000000000000000000000000000000000 DUP2 MSTORE PUSH1 0x4 ADD PUSH2 0x3334 SWAP2 SWAP1 PUSH2 0x4293 JUMP JUMPDEST PUSH1 0x40 MLOAD DUP1 SWAP2 SUB SWAP1 REVERT JUMPDEST DUP3 ISZERO PUSH2 0x339F JUMPI DUP5 DUP7 PUSH20 0xFFFFFFFFFFFFFFFFFFFFFFFFFFFFFFFFFFFFFFFF AND DUP3 PUSH20 0xFFFFFFFFFFFFFFFFFFFFFFFFFFFFFFFFFFFFFFFF AND PUSH32 0x8C5BE1E5EBEC7D5BD14F71427D1E84F3DD0314C0F7B2291E5B200AC8C7C3B925 PUSH1 0x40 MLOAD PUSH1 0x40 MLOAD DUP1 SWAP2 SUB SWAP1 LOG4 JUMPDEST POP JUMPDEST DUP5 DUP2 PUSH1 0x4 ADD PUSH1 0x0 DUP7 DUP2 MSTORE PUSH1 0x20 ADD SWAP1 DUP2 MSTORE PUSH1 0x20 ADD PUSH1 0x0 KECCAK256 PUSH1 0x0 PUSH2 0x100 EXP DUP2 SLOAD DUP2 PUSH20 0xFFFFFFFFFFFFFFFFFFFFFFFFFFFFFFFFFFFFFFFF MUL NOT AND SWAP1 DUP4 PUSH20 0xFFFFFFFFFFFFFFFFFFFFFFFFFFFFFFFFFFFFFFFF AND MUL OR SWAP1 SSTORE POP POP POP POP POP POP JUMP JUMPDEST PUSH2 0x3407 DUP4 DUP4 DUP4 PUSH2 0x3F8D JUMP JUMPDEST PUSH2 0x34BB JUMPI PUSH1 0x0 PUSH20 0xFFFFFFFFFFFFFFFFFFFFFFFFFFFFFFFFFFFFFFFF AND DUP4 PUSH20 0xFFFFFFFFFFFFFFFFFFFFFFFFFFFFFFFFFFFFFFFF AND SUB PUSH2 0x347C JUMPI DUP1 PUSH1 0x40 MLOAD PUSH32 0x7E27328900000000000000000000000000000000000000000000000000000000 DUP2 MSTORE PUSH1 0x4 ADD PUSH2 0x3473 SWAP2 SWAP1 PUSH2 0x47C0 JUMP JUMPDEST PUSH1 0x40 MLOAD DUP1 SWAP2 SUB SWAP1 REVERT JUMPDEST DUP2 DUP2 PUSH1 0x40 MLOAD PUSH32 0x177E802F00000000000000000000000000000000000000000000000000000000 DUP2 MSTORE PUSH1 0x4 ADD PUSH2 0x34B2 SWAP3 SWAP2 SWAP1 PUSH2 0x52F5 JUMP JUMPDEST PUSH1 0x40 MLOAD DUP1 SWAP2 SUB SWAP1 REVERT JUMPDEST POP POP POP JUMP JUMPDEST PUSH1 0x0 PUSH32 0x9B779B17422D0DF92223018B32B4D1FA46E071723D6817E2486D003BECC55F00 SWAP1 POP SWAP1 JUMP JUMPDEST PUSH1 0x0 DUP1 DUP7 PUSH20 0xFFFFFFFFFFFFFFFFFFFFFFFFFFFFFFFFFFFFFFFF AND PUSH4 0x15DACBEA PUSH1 0xE0 SHL DUP8 DUP8 DUP8 DUP8 PUSH1 0x40 MLOAD PUSH1 0x24 ADD PUSH2 0x3521 SWAP5 SWAP4 SWAP3 SWAP2 SWAP1 PUSH2 0x551A JUMP JUMPDEST PUSH1 0x40 MLOAD PUSH1 0x20 DUP2 DUP4 SUB SUB DUP2 MSTORE SWAP1 PUSH1 0x40 MSTORE SWAP1 PUSH28 0xFFFFFFFFFFFFFFFFFFFFFFFFFFFFFFFFFFFFFFFFFFFFFFFFFFFFFFFF NOT AND PUSH1 0x20 DUP3 ADD DUP1 MLOAD PUSH28 0xFFFFFFFFFFFFFFFFFFFFFFFFFFFFFFFFFFFFFFFFFFFFFFFFFFFFFFFF DUP4 DUP2 DUP4 AND OR DUP4 MSTORE POP POP POP POP PUSH1 0x40 MLOAD PUSH2 0x358B SWAP2 SWAP1 PUSH2 0x5230 JUMP JUMPDEST PUSH1 0x0 PUSH1 0x40 MLOAD DUP1 DUP4 SUB DUP2 PUSH1 0x0 DUP7 GAS CALL SWAP2 POP POP RETURNDATASIZE DUP1 PUSH1 0x0 DUP2 EQ PUSH2 0x35C8 JUMPI PUSH1 0x40 MLOAD SWAP2 POP PUSH1 0x1F NOT PUSH1 0x3F RETURNDATASIZE ADD AND DUP3 ADD PUSH1 0x40 MSTORE RETURNDATASIZE DUP3 MSTORE RETURNDATASIZE PUSH1 0x0 PUSH1 0x20 DUP5 ADD RETURNDATACOPY PUSH2 0x35CD JUMP JUMPDEST PUSH1 0x60 SWAP2 POP JUMPDEST POP SWAP2 POP SWAP2 POP DUP2 DUP1 ISZERO PUSH2 0x35FB JUMPI POP PUSH1 0x0 DUP2 MLOAD EQ DUP1 PUSH2 0x35FA JUMPI POP DUP1 DUP1 PUSH1 0x20 ADD SWAP1 MLOAD DUP2 ADD SWAP1 PUSH2 0x35F9 SWAP2 SWAP1 PUSH2 0x525C JUMP JUMPDEST JUMPDEST JUMPDEST PUSH2 0x363A JUMPI PUSH1 0x40 MLOAD PUSH32 0x8C379A000000000000000000000000000000000000000000000000000000000 DUP2 MSTORE PUSH1 0x4 ADD PUSH2 0x3631 SWAP1 PUSH2 0x55AB JUMP JUMPDEST PUSH1 0x40 MLOAD DUP1 SWAP2 SUB SWAP1 REVERT JUMPDEST POP POP POP POP POP POP POP JUMP JUMPDEST PUSH1 0x0 DUP1 DUP6 PUSH20 0xFFFFFFFFFFFFFFFFFFFFFFFFFFFFFFFFFFFFFFFF AND PUSH4 0x23B872DD DUP7 DUP7 DUP7 PUSH1 0x40 MLOAD PUSH1 0x24 ADD PUSH2 0x3677 SWAP4 SWAP3 SWAP2 SWAP1 PUSH2 0x51B2 JUMP JUMPDEST PUSH1 0x40 MLOAD PUSH1 0x20 DUP2 DUP4 SUB SUB DUP2 MSTORE SWAP1 PUSH1 0x40 MSTORE SWAP1 PUSH1 0xE0 SHL PUSH1 0x20 DUP3 ADD DUP1 MLOAD PUSH28 0xFFFFFFFFFFFFFFFFFFFFFFFFFFFFFFFFFFFFFFFFFFFFFFFFFFFFFFFF DUP4 DUP2 DUP4 AND OR DUP4 MSTORE POP POP POP POP PUSH1 0x40 MLOAD PUSH2 0x36C5 SWAP2 SWAP1 PUSH2 0x5230 JUMP JUMPDEST PUSH1 0x0 PUSH1 0x40 MLOAD DUP1 DUP4 SUB DUP2 PUSH1 0x0 DUP7 GAS CALL SWAP2 POP POP RETURNDATASIZE DUP1 PUSH1 0x0 DUP2 EQ PUSH2 0x3702 JUMPI PUSH1 0x40 MLOAD SWAP2 POP PUSH1 0x1F NOT PUSH1 0x3F RETURNDATASIZE ADD AND DUP3 ADD PUSH1 0x40 MSTORE RETURNDATASIZE DUP3 MSTORE RETURNDATASIZE PUSH1 0x0 PUSH1 0x20 DUP5 ADD RETURNDATACOPY PUSH2 0x3707 JUMP JUMPDEST PUSH1 0x60 SWAP2 POP JUMPDEST POP SWAP2 POP SWAP2 POP DUP2 DUP1 ISZERO PUSH2 0x3735 JUMPI POP PUSH1 0x0 DUP2 MLOAD EQ DUP1 PUSH2 0x3734 JUMPI POP DUP1 DUP1 PUSH1 0x20 ADD SWAP1 MLOAD DUP2 ADD SWAP1 PUSH2 0x3733 SWAP2 SWAP1 PUSH2 0x525C JUMP JUMPDEST JUMPDEST JUMPDEST PUSH2 0x3774 JUMPI PUSH1 0x40 MLOAD PUSH32 0x8C379A000000000000000000000000000000000000000000000000000000000 DUP2 MSTORE PUSH1 0x4 ADD PUSH2 0x376B SWAP1 PUSH2 0x563D JUMP JUMPDEST PUSH1 0x40 MLOAD DUP1 SWAP2 SUB SWAP1 REVERT JUMPDEST POP POP POP POP POP POP JUMP JUMPDEST PUSH1 0x0 PUSH20 0xFFFFFFFFFFFFFFFFFFFFFFFFFFFFFFFFFFFFFFFF AND DUP3 PUSH20 0xFFFFFFFFFFFFFFFFFFFFFFFFFFFFFFFFFFFFFFFF AND SUB PUSH2 0x37EE JUMPI PUSH1 0x0 PUSH1 0x40 MLOAD PUSH32 0x64A0AE9200000000000000000000000000000000000000000000000000000000 DUP2 MSTORE PUSH1 0x4 ADD PUSH2 0x37E5 SWAP2 SWAP1 PUSH2 0x4293 JUMP JUMPDEST PUSH1 0x40 MLOAD DUP1 SWAP2 SUB SWAP1 REVERT JUMPDEST PUSH1 0x0 PUSH2 0x37FC DUP4 DUP4 PUSH1 0x0 PUSH2 0x1DF3 JUMP JUMPDEST SWAP1 POP PUSH1 0x0 PUSH20 0xFFFFFFFFFFFFFFFFFFFFFFFFFFFFFFFFFFFFFFFF AND DUP2 PUSH20 0xFFFFFFFFFFFFFFFFFFFFFFFFFFFFFFFFFFFFFFFF AND EQ PUSH2 0x3870 JUMPI PUSH1 0x0 PUSH1 0x40 MLOAD PUSH32 0x73C6AC6E00000000000000000000000000000000000000000000000000000000 DUP2 MSTORE PUSH1 0x4 ADD PUSH2 0x3867 SWAP2 SWAP1 PUSH2 0x4293 JUMP JUMPDEST PUSH1 0x40 MLOAD DUP1 SWAP2 SUB SWAP1 REVERT JUMPDEST POP POP POP JUMP JUMPDEST PUSH2 0x387F DUP3 DUP3 PUSH2 0x1894 JUMP JUMPDEST PUSH2 0x38C2 JUMPI DUP1 DUP3 PUSH1 0x40 MLOAD PUSH32 0xE2517D3F00000000000000000000000000000000000000000000000000000000 DUP2 MSTORE PUSH1 0x4 ADD PUSH2 0x38B9 SWAP3 SWAP2 SWAP1 PUSH2 0x565D JUMP JUMPDEST PUSH1 0x40 MLOAD DUP1 SWAP2 SUB SWAP1 REVERT JUMPDEST POP POP JUMP JUMPDEST PUSH2 0x38CE PUSH2 0x3ACD JUMP JUMPDEST JUMP JUMPDEST PUSH2 0x38D8 PUSH2 0x3ACD JUMP JUMPDEST JUMP JUMPDEST PUSH2 0x38E2 PUSH2 0x3ACD JUMP JUMPDEST PUSH1 0x0 PUSH2 0x38EC PUSH2 0x2C07 JUMP JUMPDEST SWAP1 POP PUSH1 0x0 DUP2 PUSH1 0x0 ADD PUSH1 0x0 PUSH2 0x100 EXP DUP2 SLOAD DUP2 PUSH1 0xFF MUL NOT AND SWAP1 DUP4 ISZERO ISZERO MUL OR SWAP1 SSTORE POP POP JUMP JUMPDEST PUSH1 0x0 PUSH2 0x3918 PUSH2 0x29A8 JUMP JUMPDEST SWAP1 POP PUSH1 0x0 DUP2 PUSH1 0x0 ADD PUSH1 0x8 SWAP1 SLOAD SWAP1 PUSH2 0x100 EXP SWAP1 DIV PUSH1 0xFF AND ISZERO SWAP1 POP PUSH1 0x0 DUP3 PUSH1 0x0 ADD PUSH1 0x0 SWAP1 SLOAD SWAP1 PUSH2 0x100 EXP SWAP1 DIV PUSH8 0xFFFFFFFFFFFFFFFF AND SWAP1 POP PUSH1 0x0 DUP1 DUP3 PUSH8 0xFFFFFFFFFFFFFFFF AND EQ DUP1 ISZERO PUSH2 0x3966 JUMPI POP DUP3 JUMPDEST SWAP1 POP PUSH1 0x0 PUSH1 0x1 DUP4 PUSH8 0xFFFFFFFFFFFFFFFF AND EQ DUP1 ISZERO PUSH2 0x399B JUMPI POP PUSH1 0x0 ADDRESS PUSH20 0xFFFFFFFFFFFFFFFFFFFFFFFFFFFFFFFFFFFFFFFF AND EXTCODESIZE EQ JUMPDEST SWAP1 POP DUP2 ISZERO DUP1 ISZERO PUSH2 0x39A9 JUMPI POP DUP1 ISZERO JUMPDEST ISZERO PUSH2 0x39E0 JUMPI PUSH1 0x40 MLOAD PUSH32 0xF92EE8A900000000000000000000000000000000000000000000000000000000 DUP2 MSTORE PUSH1 0x4 ADD PUSH1 0x40 MLOAD DUP1 SWAP2 SUB SWAP1 REVERT JUMPDEST PUSH1 0x1 DUP6 PUSH1 0x0 ADD PUSH1 0x0 PUSH2 0x100 EXP DUP2 SLOAD DUP2 PUSH8 0xFFFFFFFFFFFFFFFF MUL NOT AND SWAP1 DUP4 PUSH8 0xFFFFFFFFFFFFFFFF AND MUL OR SWAP1 SSTORE POP DUP4 ISZERO PUSH2 0x3A30 JUMPI PUSH1 0x1 DUP6 PUSH1 0x0 ADD PUSH1 0x8 PUSH2 0x100 EXP DUP2 SLOAD DUP2 PUSH1 0xFF MUL NOT AND SWAP1 DUP4 ISZERO ISZERO MUL OR SWAP1 SSTORE POP JUMPDEST PUSH2 0x3A3D PUSH1 0x0 DUP1 SHL DUP8 PUSH2 0x2350 JUMP JUMPDEST POP PUSH2 0x3A68 PUSH32 0x65D7A28E3265B37A6474929F336521B332C1681B933F6CB9F3376673440D862A DUP8 PUSH2 0x2350 JUMP JUMPDEST POP DUP4 ISZERO PUSH2 0x3AC5 JUMPI PUSH1 0x0 DUP6 PUSH1 0x0 ADD PUSH1 0x8 PUSH2 0x100 EXP DUP2 SLOAD DUP2 PUSH1 0xFF MUL NOT AND SWAP1 DUP4 ISZERO ISZERO MUL OR SWAP1 SSTORE POP PUSH32 0xC7F505B2F371AE2175EE4913F4499E1F2633A7B5936321EED1CDAEB6115181D2 PUSH1 0x1 PUSH1 0x40 MLOAD PUSH2 0x3ABC SWAP2 SWAP1 PUSH2 0x504F JUMP JUMPDEST PUSH1 0x40 MLOAD DUP1 SWAP2 SUB SWAP1 LOG1 JUMPDEST POP POP POP POP POP POP JUMP JUMPDEST PUSH2 0x3AD5 PUSH2 0x404E JUMP JUMPDEST PUSH2 0x3B0B JUMPI PUSH1 0x40 MLOAD PUSH32 0xD7E6BCF800000000000000000000000000000000000000000000000000000000 DUP2 MSTORE PUSH1 0x4 ADD PUSH1 0x40 MLOAD DUP1 SWAP2 SUB SWAP1 REVERT JUMPDEST JUMP JUMPDEST PUSH2 0x3B15 PUSH2 0x3ACD JUMP JUMPDEST PUSH1 0x0 PUSH2 0x3B1F PUSH2 0x1CDE JUMP JUMPDEST SWAP1 POP DUP3 DUP2 PUSH1 0x0 ADD SWAP1 DUP2 PUSH2 0x3B32 SWAP2 SWAP1 PUSH2 0x4F2E JUMP JUMPDEST POP DUP2 DUP2 PUSH1 0x1 ADD SWAP1 DUP2 PUSH2 0x3B44 SWAP2 SWAP1 PUSH2 0x4F2E JUMP JUMPDEST POP POP POP POP JUMP JUMPDEST PUSH2 0x3B52 PUSH2 0x16B7 JUMP JUMPDEST PUSH2 0x3B88 JUMPI PUSH1 0x40 MLOAD PUSH32 0x8DFC202B00000000000000000000000000000000000000000000000000000000 DUP2 MSTORE PUSH1 0x4 ADD PUSH1 0x40 MLOAD DUP1 SWAP2 SUB SWAP1 REVERT JUMPDEST JUMP JUMPDEST PUSH1 0x0 DUP1 PUSH1 0x0 SWAP1 POP PUSH27 0x184F03E93FF9F4DAA797ED6E38ED64BF6A1F010000000000000000 DUP4 LT PUSH2 0x3BE8 JUMPI PUSH27 0x184F03E93FF9F4DAA797ED6E38ED64BF6A1F010000000000000000 DUP4 DUP2 PUSH2 0x3BDE JUMPI PUSH2 0x3BDD PUSH2 0x4D22 JUMP JUMPDEST JUMPDEST DIV SWAP3 POP PUSH1 0x40 DUP2 ADD SWAP1 POP JUMPDEST PUSH14 0x4EE2D6D415B85ACEF8100000000 DUP4 LT PUSH2 0x3C25 JUMPI PUSH14 0x4EE2D6D415B85ACEF8100000000 DUP4 DUP2 PUSH2 0x3C1B JUMPI PUSH2 0x3C1A PUSH2 0x4D22 JUMP JUMPDEST JUMPDEST DIV SWAP3 POP PUSH1 0x20 DUP2 ADD SWAP1 POP JUMPDEST PUSH7 0x2386F26FC10000 DUP4 LT PUSH2 0x3C54 JUMPI PUSH7 0x2386F26FC10000 DUP4 DUP2 PUSH2 0x3C4A JUMPI PUSH2 0x3C49 PUSH2 0x4D22 JUMP JUMPDEST JUMPDEST DIV SWAP3 POP PUSH1 0x10 DUP2 ADD SWAP1 POP JUMPDEST PUSH4 0x5F5E100 DUP4 LT PUSH2 0x3C7D JUMPI PUSH4 0x5F5E100 DUP4 DUP2 PUSH2 0x3C73 JUMPI PUSH2 0x3C72 PUSH2 0x4D22 JUMP JUMPDEST JUMPDEST DIV SWAP3 POP PUSH1 0x8 DUP2 ADD SWAP1 POP JUMPDEST PUSH2 0x2710 DUP4 LT PUSH2 0x3CA2 JUMPI PUSH2 0x2710 DUP4 DUP2 PUSH2 0x3C98 JUMPI PUSH2 0x3C97 PUSH2 0x4D22 JUMP JUMPDEST JUMPDEST DIV SWAP3 POP PUSH1 0x4 DUP2 ADD SWAP1 POP JUMPDEST PUSH1 0x64 DUP4 LT PUSH2 0x3CC5 JUMPI PUSH1 0x64 DUP4 DUP2 PUSH2 0x3CBB JUMPI PUSH2 0x3CBA PUSH2 0x4D22 JUMP JUMPDEST JUMPDEST DIV SWAP3 POP PUSH1 0x2 DUP2 ADD SWAP1 POP JUMPDEST PUSH1 0xA DUP4 LT PUSH2 0x3CD4 JUMPI PUSH1 0x1 DUP2 ADD SWAP1 POP JUMPDEST DUP1 SWAP2 POP POP SWAP2 SWAP1 POP JUMP JUMPDEST PUSH1 0x60 PUSH1 0x0 DUP4 SWAP1 POP PUSH1 0x0 PUSH1 0x2 DUP5 PUSH1 0x2 PUSH2 0x3CF5 SWAP2 SWAP1 PUSH2 0x4CAC JUMP JUMPDEST PUSH2 0x3CFF SWAP2 SWAP1 PUSH2 0x4CEE JUMP JUMPDEST PUSH8 0xFFFFFFFFFFFFFFFF DUP2 GT ISZERO PUSH2 0x3D18 JUMPI PUSH2 0x3D17 PUSH2 0x442C JUMP JUMPDEST JUMPDEST PUSH1 0x40 MLOAD SWAP1 DUP1 DUP3 MSTORE DUP1 PUSH1 0x1F ADD PUSH1 0x1F NOT AND PUSH1 0x20 ADD DUP3 ADD PUSH1 0x40 MSTORE DUP1 ISZERO PUSH2 0x3D4A JUMPI DUP2 PUSH1 0x20 ADD PUSH1 0x1 DUP3 MUL DUP1 CALLDATASIZE DUP4 CALLDATACOPY DUP1 DUP3 ADD SWAP2 POP POP SWAP1 POP JUMPDEST POP SWAP1 POP PUSH32 0x3000000000000000000000000000000000000000000000000000000000000000 DUP2 PUSH1 0x0 DUP2 MLOAD DUP2 LT PUSH2 0x3D82 JUMPI PUSH2 0x3D81 PUSH2 0x4C06 JUMP JUMPDEST JUMPDEST PUSH1 0x20 ADD ADD SWAP1 PUSH31 0xFFFFFFFFFFFFFFFFFFFFFFFFFFFFFFFFFFFFFFFFFFFFFFFFFFFFFFFFFFFFFF NOT AND SWAP1 DUP2 PUSH1 0x0 BYTE SWAP1 MSTORE8 POP PUSH32 0x7800000000000000000000000000000000000000000000000000000000000000 DUP2 PUSH1 0x1 DUP2 MLOAD DUP2 LT PUSH2 0x3DE6 JUMPI PUSH2 0x3DE5 PUSH2 0x4C06 JUMP JUMPDEST JUMPDEST PUSH1 0x20 ADD ADD SWAP1 PUSH31 0xFFFFFFFFFFFFFFFFFFFFFFFFFFFFFFFFFFFFFFFFFFFFFFFFFFFFFFFFFFFFFF NOT AND SWAP1 DUP2 PUSH1 0x0 BYTE SWAP1 MSTORE8 POP PUSH1 0x0 PUSH1 0x1 DUP6 PUSH1 0x2 PUSH2 0x3E26 SWAP2 SWAP1 PUSH2 0x4CAC JUMP JUMPDEST PUSH2 0x3E30 SWAP2 SWAP1 PUSH2 0x4CEE JUMP JUMPDEST SWAP1 POP JUMPDEST PUSH1 0x1 DUP2 GT ISZERO PUSH2 0x3ED0 JUMPI PUSH32 0x3031323334353637383961626364656600000000000000000000000000000000 PUSH1 0xF DUP5 AND PUSH1 0x10 DUP2 LT PUSH2 0x3E72 JUMPI PUSH2 0x3E71 PUSH2 0x4C06 JUMP JUMPDEST JUMPDEST BYTE PUSH1 0xF8 SHL DUP3 DUP3 DUP2 MLOAD DUP2 LT PUSH2 0x3E89 JUMPI PUSH2 0x3E88 PUSH2 0x4C06 JUMP JUMPDEST JUMPDEST PUSH1 0x20 ADD ADD SWAP1 PUSH31 0xFFFFFFFFFFFFFFFFFFFFFFFFFFFFFFFFFFFFFFFFFFFFFFFFFFFFFFFFFFFFFF NOT AND SWAP1 DUP2 PUSH1 0x0 BYTE SWAP1 MSTORE8 POP PUSH1 0x4 DUP4 SWAP1 SHR SWAP3 POP DUP1 PUSH2 0x3EC9 SWAP1 PUSH2 0x5686 JUMP JUMPDEST SWAP1 POP PUSH2 0x3E33 JUMP JUMPDEST POP PUSH1 0x0 DUP3 EQ PUSH2 0x3F18 JUMPI DUP5 DUP5 PUSH1 0x40 MLOAD PUSH32 0xE22E27EB00000000000000000000000000000000000000000000000000000000 DUP2 MSTORE PUSH1 0x4 ADD PUSH2 0x3F0F SWAP3 SWAP2 SWAP1 PUSH2 0x4797 JUMP JUMPDEST PUSH1 0x40 MLOAD DUP1 SWAP2 SUB SWAP1 REVERT JUMPDEST DUP1 SWAP3 POP POP POP SWAP3 SWAP2 POP POP JUMP JUMPDEST PUSH1 0x0 PUSH32 0x1FFC9A700000000000000000000000000000000000000000000000000000000 PUSH28 0xFFFFFFFFFFFFFFFFFFFFFFFFFFFFFFFFFFFFFFFFFFFFFFFFFFFFFFFF NOT AND DUP3 PUSH28 0xFFFFFFFFFFFFFFFFFFFFFFFFFFFFFFFFFFFFFFFFFFFFFFFFFFFFFFFF NOT AND EQ SWAP1 POP SWAP2 SWAP1 POP JUMP JUMPDEST PUSH1 0x0 DUP1 PUSH20 0xFFFFFFFFFFFFFFFFFFFFFFFFFFFFFFFFFFFFFFFF AND DUP4 PUSH20 0xFFFFFFFFFFFFFFFFFFFFFFFFFFFFFFFFFFFFFFFF AND EQ ISZERO DUP1 ISZERO PUSH2 0x4045 JUMPI POP DUP3 PUSH20 0xFFFFFFFFFFFFFFFFFFFFFFFFFFFFFFFFFFFFFFFF AND DUP5 PUSH20 0xFFFFFFFFFFFFFFFFFFFFFFFFFFFFFFFFFFFFFFFF AND EQ DUP1 PUSH2 0x4006 JUMPI POP PUSH2 0x4005 DUP5 DUP5 PUSH2 0x1AC1 JUMP JUMPDEST JUMPDEST DUP1 PUSH2 0x4044 JUMPI POP DUP3 PUSH20 0xFFFFFFFFFFFFFFFFFFFFFFFFFFFFFFFFFFFFFFFF AND PUSH2 0x402C DUP4 PUSH2 0x1D8E JUMP JUMPDEST PUSH20 0xFFFFFFFFFFFFFFFFFFFFFFFFFFFFFFFFFFFFFFFF AND EQ JUMPDEST JUMPDEST SWAP1 POP SWAP4 SWAP3 POP POP POP JUMP JUMPDEST PUSH1 0x0 PUSH2 0x4058 PUSH2 0x29A8 JUMP JUMPDEST PUSH1 0x0 ADD PUSH1 0x8 SWAP1 SLOAD SWAP1 PUSH2 0x100 EXP SWAP1 DIV PUSH1 0xFF AND SWAP1 POP SWAP1 JUMP JUMPDEST PUSH1 0x0 PUSH1 0x40 MLOAD SWAP1 POP SWAP1 JUMP JUMPDEST PUSH1 0x0 DUP1 REVERT JUMPDEST PUSH1 0x0 DUP1 REVERT JUMPDEST PUSH1 0x0 PUSH32 0xFFFFFFFF00000000000000000000000000000000000000000000000000000000 DUP3 AND SWAP1 POP SWAP2 SWAP1 POP JUMP JUMPDEST PUSH2 0x40B7 DUP2 PUSH2 0x4082 JUMP JUMPDEST DUP2 EQ PUSH2 0x40C2 JUMPI PUSH1 0x0 DUP1 REVERT JUMPDEST POP JUMP JUMPDEST PUSH1 0x0 DUP2 CALLDATALOAD SWAP1 POP PUSH2 0x40D4 DUP2 PUSH2 0x40AE JUMP JUMPDEST SWAP3 SWAP2 POP POP JUMP JUMPDEST PUSH1 0x0 PUSH1 0x20 DUP3 DUP5 SUB SLT ISZERO PUSH2 0x40F0 JUMPI PUSH2 0x40EF PUSH2 0x4078 JUMP JUMPDEST JUMPDEST PUSH1 0x0 PUSH2 0x40FE DUP5 DUP3 DUP6 ADD PUSH2 0x40C5 JUMP JUMPDEST SWAP2 POP POP SWAP3 SWAP2 POP POP JUMP JUMPDEST PUSH1 0x0 DUP2 ISZERO ISZERO SWAP1 POP SWAP2 SWAP1 POP JUMP JUMPDEST PUSH2 0x411C DUP2 PUSH2 0x4107 JUMP JUMPDEST DUP3 MSTORE POP POP JUMP JUMPDEST PUSH1 0x0 PUSH1 0x20 DUP3 ADD SWAP1 POP PUSH2 0x4137 PUSH1 0x0 DUP4 ADD DUP5 PUSH2 0x4113 JUMP JUMPDEST SWAP3 SWAP2 POP POP JUMP JUMPDEST PUSH1 0x0 DUP2 MLOAD SWAP1 POP SWAP2 SWAP1 POP JUMP JUMPDEST PUSH1 0x0 DUP3 DUP3 MSTORE PUSH1 0x20 DUP3 ADD SWAP1 POP SWAP3 SWAP2 POP POP JUMP JUMPDEST PUSH1 0x0 JUMPDEST DUP4 DUP2 LT ISZERO PUSH2 0x4177 JUMPI DUP1 DUP3 ADD MLOAD DUP2 DUP5 ADD MSTORE PUSH1 0x20 DUP2 ADD SWAP1 POP PUSH2 0x415C JUMP JUMPDEST PUSH1 0x0 DUP5 DUP5 ADD MSTORE POP POP POP POP JUMP JUMPDEST PUSH1 0x0 PUSH1 0x1F NOT PUSH1 0x1F DUP4 ADD AND SWAP1 POP SWAP2 SWAP1 POP JUMP JUMPDEST PUSH1 0x0 PUSH2 0x419F DUP3 PUSH2 0x413D JUMP JUMPDEST PUSH2 0x41A9 DUP2 DUP6 PUSH2 0x4148 JUMP JUMPDEST SWAP4 POP PUSH2 0x41B9 DUP2 DUP6 PUSH1 0x20 DUP7 ADD PUSH2 0x4159 JUMP JUMPDEST PUSH2 0x41C2 DUP2 PUSH2 0x4183 JUMP JUMPDEST DUP5 ADD SWAP2 POP POP SWAP3 SWAP2 POP POP JUMP JUMPDEST PUSH1 0x0 PUSH1 0x20 DUP3 ADD SWAP1 POP DUP2 DUP2 SUB PUSH1 0x0 DUP4 ADD MSTORE PUSH2 0x41E7 DUP2 DUP5 PUSH2 0x4194 JUMP JUMPDEST SWAP1 POP SWAP3 SWAP2 POP POP JUMP JUMPDEST PUSH1 0x0 DUP2 SWAP1 POP SWAP2 SWAP1 POP JUMP JUMPDEST PUSH2 0x4202 DUP2 PUSH2 0x41EF JUMP JUMPDEST DUP2 EQ PUSH2 0x420D JUMPI PUSH1 0x0 DUP1 REVERT JUMPDEST POP JUMP JUMPDEST PUSH1 0x0 DUP2 CALLDATALOAD SWAP1 POP PUSH2 0x421F DUP2 PUSH2 0x41F9 JUMP JUMPDEST SWAP3 SWAP2 POP POP JUMP JUMPDEST PUSH1 0x0 PUSH1 0x20 DUP3 DUP5 SUB SLT ISZERO PUSH2 0x423B JUMPI PUSH2 0x423A PUSH2 0x4078 JUMP JUMPDEST JUMPDEST PUSH1 0x0 PUSH2 0x4249 DUP5 DUP3 DUP6 ADD PUSH2 0x4210 JUMP JUMPDEST SWAP2 POP POP SWAP3 SWAP2 POP POP JUMP JUMPDEST PUSH1 0x0 PUSH20 0xFFFFFFFFFFFFFFFFFFFFFFFFFFFFFFFFFFFFFFFF DUP3 AND SWAP1 POP SWAP2 SWAP1 POP JUMP JUMPDEST PUSH1 0x0 PUSH2 0x427D DUP3 PUSH2 0x4252 JUMP JUMPDEST SWAP1 POP SWAP2 SWAP1 POP JUMP JUMPDEST PUSH2 0x428D DUP2 PUSH2 0x4272 JUMP JUMPDEST DUP3 MSTORE POP POP JUMP JUMPDEST PUSH1 0x0 PUSH1 0x20 DUP3 ADD SWAP1 POP PUSH2 0x42A8 PUSH1 0x0 DUP4 ADD DUP5 PUSH2 0x4284 JUMP JUMPDEST SWAP3 SWAP2 POP POP JUMP JUMPDEST PUSH2 0x42B7 DUP2 PUSH2 0x4272 JUMP JUMPDEST DUP2 EQ PUSH2 0x42C2 JUMPI PUSH1 0x0 DUP1 REVERT JUMPDEST POP JUMP JUMPDEST PUSH1 0x0 DUP2 CALLDATALOAD SWAP1 POP PUSH2 0x42D4 DUP2 PUSH2 0x42AE JUMP JUMPDEST SWAP3 SWAP2 POP POP JUMP JUMPDEST PUSH1 0x0 DUP1 PUSH1 0x40 DUP4 DUP6 SUB SLT ISZERO PUSH2 0x42F1 JUMPI PUSH2 0x42F0 PUSH2 0x4078 JUMP JUMPDEST JUMPDEST PUSH1 0x0 PUSH2 0x42FF DUP6 DUP3 DUP7 ADD PUSH2 0x42C5 JUMP JUMPDEST SWAP3 POP POP PUSH1 0x20 PUSH2 0x4310 DUP6 DUP3 DUP7 ADD PUSH2 0x4210 JUMP JUMPDEST SWAP2 POP POP SWAP3 POP SWAP3 SWAP1 POP JUMP JUMPDEST PUSH1 0x0 PUSH1 0x20 DUP3 DUP5 SUB SLT ISZERO PUSH2 0x4330 JUMPI PUSH2 0x432F PUSH2 0x4078 JUMP JUMPDEST JUMPDEST PUSH1 0x0 PUSH2 0x433E DUP5 DUP3 DUP6 ADD PUSH2 0x42C5 JUMP JUMPDEST SWAP2 POP POP SWAP3 SWAP2 POP POP JUMP JUMPDEST PUSH1 0x0 DUP1 PUSH1 0x0 PUSH1 0x60 DUP5 DUP7 SUB SLT ISZERO PUSH2 0x4360 JUMPI PUSH2 0x435F PUSH2 0x4078 JUMP JUMPDEST JUMPDEST PUSH1 0x0 PUSH2 0x436E DUP7 DUP3 DUP8 ADD PUSH2 0x42C5 JUMP JUMPDEST SWAP4 POP POP PUSH1 0x20 PUSH2 0x437F DUP7 DUP3 DUP8 ADD PUSH2 0x42C5 JUMP JUMPDEST SWAP3 POP POP PUSH1 0x40 PUSH2 0x4390 DUP7 DUP3 DUP8 ADD PUSH2 0x4210 JUMP JUMPDEST SWAP2 POP POP SWAP3 POP SWAP3 POP SWAP3 JUMP JUMPDEST PUSH1 0x0 DUP2 SWAP1 POP SWAP2 SWAP1 POP JUMP JUMPDEST PUSH2 0x43AD DUP2 PUSH2 0x439A JUMP JUMPDEST DUP2 EQ PUSH2 0x43B8 JUMPI PUSH1 0x0 DUP1 REVERT JUMPDEST POP JUMP JUMPDEST PUSH1 0x0 DUP2 CALLDATALOAD SWAP1 POP PUSH2 0x43CA DUP2 PUSH2 0x43A4 JUMP JUMPDEST SWAP3 SWAP2 POP POP JUMP JUMPDEST PUSH1 0x0 PUSH1 0x20 DUP3 DUP5 SUB SLT ISZERO PUSH2 0x43E6 JUMPI PUSH2 0x43E5 PUSH2 0x4078 JUMP JUMPDEST JUMPDEST PUSH1 0x0 PUSH2 0x43F4 DUP5 DUP3 DUP6 ADD PUSH2 0x43BB JUMP JUMPDEST SWAP2 POP POP SWAP3 SWAP2 POP POP JUMP JUMPDEST PUSH2 0x4406 DUP2 PUSH2 0x439A JUMP JUMPDEST DUP3 MSTORE POP POP JUMP JUMPDEST PUSH1 0x0 PUSH1 0x20 DUP3 ADD SWAP1 POP PUSH2 0x4421 PUSH1 0x0 DUP4 ADD DUP5 PUSH2 0x43FD JUMP JUMPDEST SWAP3 SWAP2 POP POP JUMP JUMPDEST PUSH1 0x0 DUP1 REVERT JUMPDEST PUSH32 0x4E487B7100000000000000000000000000000000000000000000000000000000 PUSH1 0x0 MSTORE PUSH1 0x41 PUSH1 0x4 MSTORE PUSH1 0x24 PUSH1 0x0 REVERT JUMPDEST PUSH2 0x4464 DUP3 PUSH2 0x4183 JUMP JUMPDEST DUP2 ADD DUP2 DUP2 LT PUSH8 0xFFFFFFFFFFFFFFFF DUP3 GT OR ISZERO PUSH2 0x4483 JUMPI PUSH2 0x4482 PUSH2 0x442C JUMP JUMPDEST JUMPDEST DUP1 PUSH1 0x40 MSTORE POP POP POP JUMP JUMPDEST PUSH1 0x0 PUSH2 0x4496 PUSH2 0x406E JUMP JUMPDEST SWAP1 POP PUSH2 0x44A2 DUP3 DUP3 PUSH2 0x445B JUMP JUMPDEST SWAP2 SWAP1 POP JUMP JUMPDEST PUSH1 0x0 PUSH8 0xFFFFFFFFFFFFFFFF DUP3 GT ISZERO PUSH2 0x44C2 JUMPI PUSH2 0x44C1 PUSH2 0x442C JUMP JUMPDEST JUMPDEST PUSH1 0x20 DUP3 MUL SWAP1 POP PUSH1 0x20 DUP2 ADD SWAP1 POP SWAP2 SWAP1 POP JUMP JUMPDEST PUSH1 0x0 DUP1 REVERT JUMPDEST PUSH1 0x0 DUP1 REVERT JUMPDEST PUSH1 0x0 PUSH1 0x40 DUP3 DUP5 SUB SLT ISZERO PUSH2 0x44F3 JUMPI PUSH2 0x44F2 PUSH2 0x44D8 JUMP JUMPDEST JUMPDEST PUSH2 0x44FD PUSH1 0x40 PUSH2 0x448C JUMP JUMPDEST SWAP1 POP PUSH1 0x0 PUSH2 0x450D DUP5 DUP3 DUP6 ADD PUSH2 0x4210 JUMP JUMPDEST PUSH1 0x0 DUP4 ADD MSTORE POP PUSH1 0x20 PUSH2 0x4521 DUP5 DUP3 DUP6 ADD PUSH2 0x4210 JUMP JUMPDEST PUSH1 0x20 DUP4 ADD MSTORE POP SWAP3 SWAP2 POP POP JUMP JUMPDEST PUSH1 0x0 PUSH2 0x4540 PUSH2 0x453B DUP5 PUSH2 0x44A7 JUMP JUMPDEST PUSH2 0x448C JUMP JUMPDEST SWAP1 POP DUP1 DUP4 DUP3 MSTORE PUSH1 0x20 DUP3 ADD SWAP1 POP PUSH1 0x40 DUP5 MUL DUP4 ADD DUP6 DUP2 GT ISZERO PUSH2 0x4563 JUMPI PUSH2 0x4562 PUSH2 0x44D3 JUMP JUMPDEST JUMPDEST DUP4 JUMPDEST DUP2 DUP2 LT ISZERO PUSH2 0x458C JUMPI DUP1 PUSH2 0x4578 DUP9 DUP3 PUSH2 0x44DD JUMP JUMPDEST DUP5 MSTORE PUSH1 0x20 DUP5 ADD SWAP4 POP POP PUSH1 0x40 DUP2 ADD SWAP1 POP PUSH2 0x4565 JUMP JUMPDEST POP POP POP SWAP4 SWAP3 POP POP POP JUMP JUMPDEST PUSH1 0x0 DUP3 PUSH1 0x1F DUP4 ADD SLT PUSH2 0x45AB JUMPI PUSH2 0x45AA PUSH2 0x4427 JUMP JUMPDEST JUMPDEST DUP2 CALLDATALOAD PUSH2 0x45BB DUP5 DUP3 PUSH1 0x20 DUP7 ADD PUSH2 0x452D JUMP JUMPDEST SWAP2 POP POP SWAP3 SWAP2 POP POP JUMP JUMPDEST PUSH2 0x45CD DUP2 PUSH2 0x4107 JUMP JUMPDEST DUP2 EQ PUSH2 0x45D8 JUMPI PUSH1 0x0 DUP1 REVERT JUMPDEST POP JUMP JUMPDEST PUSH1 0x0 DUP2 CALLDATALOAD SWAP1 POP PUSH2 0x45EA DUP2 PUSH2 0x45C4 JUMP JUMPDEST SWAP3 SWAP2 POP POP JUMP JUMPDEST PUSH1 0x0 DUP1 PUSH1 0x0 DUP1 PUSH1 0x0 DUP1 PUSH1 0xC0 DUP8 DUP10 SUB SLT ISZERO PUSH2 0x460D JUMPI PUSH2 0x460C PUSH2 0x4078 JUMP JUMPDEST JUMPDEST PUSH1 0x0 PUSH2 0x461B DUP10 DUP3 DUP11 ADD PUSH2 0x43BB JUMP JUMPDEST SWAP7 POP POP PUSH1 0x20 PUSH2 0x462C DUP10 DUP3 DUP11 ADD PUSH2 0x42C5 JUMP JUMPDEST SWAP6 POP POP PUSH1 0x40 PUSH2 0x463D DUP10 DUP3 DUP11 ADD PUSH2 0x42C5 JUMP JUMPDEST SWAP5 POP POP PUSH1 0x60 PUSH2 0x464E DUP10 DUP3 DUP11 ADD PUSH2 0x4210 JUMP JUMPDEST SWAP4 POP POP PUSH1 0x80 DUP8 ADD CALLDATALOAD PUSH8 0xFFFFFFFFFFFFFFFF DUP2 GT ISZERO PUSH2 0x466F JUMPI PUSH2 0x466E PUSH2 0x407D JUMP JUMPDEST JUMPDEST PUSH2 0x467B DUP10 DUP3 DUP11 ADD PUSH2 0x4596 JUMP JUMPDEST SWAP3 POP POP PUSH1 0xA0 PUSH2 0x468C DUP10 DUP3 DUP11 ADD PUSH2 0x45DB JUMP JUMPDEST SWAP2 POP POP SWAP3 SWAP6 POP SWAP3 SWAP6 POP SWAP3 SWAP6 JUMP JUMPDEST PUSH1 0x0 DUP1 PUSH1 0x40 DUP4 DUP6 SUB SLT ISZERO PUSH2 0x46B0 JUMPI PUSH2 0x46AF PUSH2 0x4078 JUMP JUMPDEST JUMPDEST PUSH1 0x0 PUSH2 0x46BE DUP6 DUP3 DUP7 ADD PUSH2 0x43BB JUMP JUMPDEST SWAP3 POP POP PUSH1 0x20 PUSH2 0x46CF DUP6 DUP3 DUP7 ADD PUSH2 0x42C5 JUMP JUMPDEST SWAP2 POP POP SWAP3 POP SWAP3 SWAP1 POP JUMP JUMPDEST PUSH2 0x46E2 DUP2 PUSH2 0x41EF JUMP JUMPDEST DUP3 MSTORE POP POP JUMP JUMPDEST PUSH1 0x0 PUSH1 0xE0 DUP3 ADD SWAP1 POP PUSH2 0x46FD PUSH1 0x0 DUP4 ADD DUP11 PUSH2 0x4284 JUMP JUMPDEST PUSH2 0x470A PUSH1 0x20 DUP4 ADD DUP10 PUSH2 0x46D9 JUMP JUMPDEST PUSH2 0x4717 PUSH1 0x40 DUP4 ADD DUP9 PUSH2 0x4284 JUMP JUMPDEST PUSH2 0x4724 PUSH1 0x60 DUP4 ADD DUP8 PUSH2 0x46D9 JUMP JUMPDEST PUSH2 0x4731 PUSH1 0x80 DUP4 ADD DUP7 PUSH2 0x46D9 JUMP JUMPDEST PUSH2 0x473E PUSH1 0xA0 DUP4 ADD DUP6 PUSH2 0x46D9 JUMP JUMPDEST PUSH2 0x474B PUSH1 0xC0 DUP4 ADD DUP5 PUSH2 0x4113 JUMP JUMPDEST SWAP9 SWAP8 POP POP POP POP POP POP POP POP JUMP JUMPDEST PUSH1 0x0 DUP1 PUSH1 0x40 DUP4 DUP6 SUB SLT ISZERO PUSH2 0x476E JUMPI PUSH2 0x476D PUSH2 0x4078 JUMP JUMPDEST JUMPDEST PUSH1 0x0 PUSH2 0x477C DUP6 DUP3 DUP7 ADD PUSH2 0x4210 JUMP JUMPDEST SWAP3 POP POP PUSH1 0x20 PUSH2 0x478D DUP6 DUP3 DUP7 ADD PUSH2 0x4210 JUMP JUMPDEST SWAP2 POP POP SWAP3 POP SWAP3 SWAP1 POP JUMP JUMPDEST PUSH1 0x0 PUSH1 0x40 DUP3 ADD SWAP1 POP PUSH2 0x47AC PUSH1 0x0 DUP4 ADD DUP6 PUSH2 0x46D9 JUMP JUMPDEST PUSH2 0x47B9 PUSH1 0x20 DUP4 ADD DUP5 PUSH2 0x46D9 JUMP JUMPDEST SWAP4 SWAP3 POP POP POP JUMP JUMPDEST PUSH1 0x0 PUSH1 0x20 DUP3 ADD SWAP1 POP PUSH2 0x47D5 PUSH1 0x0 DUP4 ADD DUP5 PUSH2 0x46D9 JUMP JUMPDEST SWAP3 SWAP2 POP POP JUMP JUMPDEST PUSH1 0x0 DUP1 REVERT JUMPDEST PUSH1 0x0 PUSH8 0xFFFFFFFFFFFFFFFF DUP3 GT ISZERO PUSH2 0x47FB JUMPI PUSH2 0x47FA PUSH2 0x442C JUMP JUMPDEST JUMPDEST PUSH2 0x4804 DUP3 PUSH2 0x4183 JUMP JUMPDEST SWAP1 POP PUSH1 0x20 DUP2 ADD SWAP1 POP SWAP2 SWAP1 POP JUMP JUMPDEST DUP3 DUP2 DUP4 CALLDATACOPY PUSH1 0x0 DUP4 DUP4 ADD MSTORE POP POP POP JUMP JUMPDEST PUSH1 0x0 PUSH2 0x4833 PUSH2 0x482E DUP5 PUSH2 0x47E0 JUMP JUMPDEST PUSH2 0x448C JUMP JUMPDEST SWAP1 POP DUP3 DUP2 MSTORE PUSH1 0x20 DUP2 ADD DUP5 DUP5 DUP5 ADD GT ISZERO PUSH2 0x484F JUMPI PUSH2 0x484E PUSH2 0x47DB JUMP JUMPDEST JUMPDEST PUSH2 0x485A DUP5 DUP3 DUP6 PUSH2 0x4811 JUMP JUMPDEST POP SWAP4 SWAP3 POP POP POP JUMP JUMPDEST PUSH1 0x0 DUP3 PUSH1 0x1F DUP4 ADD SLT PUSH2 0x4877 JUMPI PUSH2 0x4876 PUSH2 0x4427 JUMP JUMPDEST JUMPDEST DUP2 CALLDATALOAD PUSH2 0x4887 DUP5 DUP3 PUSH1 0x20 DUP7 ADD PUSH2 0x4820 JUMP JUMPDEST SWAP2 POP POP SWAP3 SWAP2 POP POP JUMP JUMPDEST PUSH1 0x0 DUP1 PUSH1 0x0 DUP1 PUSH1 0x0 PUSH1 0xA0 DUP7 DUP9 SUB SLT ISZERO PUSH2 0x48AC JUMPI PUSH2 0x48AB PUSH2 0x4078 JUMP JUMPDEST JUMPDEST PUSH1 0x0 PUSH2 0x48BA DUP9 DUP3 DUP10 ADD PUSH2 0x42C5 JUMP JUMPDEST SWAP6 POP POP PUSH1 0x20 PUSH2 0x48CB DUP9 DUP3 DUP10 ADD PUSH2 0x42C5 JUMP JUMPDEST SWAP5 POP POP PUSH1 0x40 DUP7 ADD CALLDATALOAD PUSH8 0xFFFFFFFFFFFFFFFF DUP2 GT ISZERO PUSH2 0x48EC JUMPI PUSH2 0x48EB PUSH2 0x407D JUMP JUMPDEST JUMPDEST PUSH2 0x48F8 DUP9 DUP3 DUP10 ADD PUSH2 0x4862 JUMP JUMPDEST SWAP4 POP POP PUSH1 0x60 DUP7 ADD CALLDATALOAD PUSH8 0xFFFFFFFFFFFFFFFF DUP2 GT ISZERO PUSH2 0x4919 JUMPI PUSH2 0x4918 PUSH2 0x407D JUMP JUMPDEST JUMPDEST PUSH2 0x4925 DUP9 DUP3 DUP10 ADD PUSH2 0x4862 JUMP JUMPDEST SWAP3 POP POP PUSH1 0x80 DUP7 ADD CALLDATALOAD PUSH8 0xFFFFFFFFFFFFFFFF DUP2 GT ISZERO PUSH2 0x4946 JUMPI PUSH2 0x4945 PUSH2 0x407D JUMP JUMPDEST JUMPDEST PUSH2 0x4952 DUP9 DUP3 DUP10 ADD PUSH2 0x4862 JUMP JUMPDEST SWAP2 POP POP SWAP3 SWAP6 POP SWAP3 SWAP6 SWAP1 SWAP4 POP JUMP JUMPDEST PUSH1 0x0 DUP1 PUSH1 0x40 DUP4 DUP6 SUB SLT ISZERO PUSH2 0x4976 JUMPI PUSH2 0x4975 PUSH2 0x4078 JUMP JUMPDEST JUMPDEST PUSH1 0x0 PUSH2 0x4984 DUP6 DUP3 DUP7 ADD PUSH2 0x42C5 JUMP JUMPDEST SWAP3 POP POP PUSH1 0x20 PUSH2 0x4995 DUP6 DUP3 DUP7 ADD PUSH2 0x45DB JUMP JUMPDEST SWAP2 POP POP SWAP3 POP SWAP3 SWAP1 POP JUMP JUMPDEST PUSH1 0x0 PUSH8 0xFFFFFFFFFFFFFFFF DUP3 GT ISZERO PUSH2 0x49BA JUMPI PUSH2 0x49B9 PUSH2 0x442C JUMP JUMPDEST JUMPDEST PUSH2 0x49C3 DUP3 PUSH2 0x4183 JUMP JUMPDEST SWAP1 POP PUSH1 0x20 DUP2 ADD SWAP1 POP SWAP2 SWAP1 POP JUMP JUMPDEST PUSH1 0x0 PUSH2 0x49E3 PUSH2 0x49DE DUP5 PUSH2 0x499F JUMP JUMPDEST PUSH2 0x448C JUMP JUMPDEST SWAP1 POP DUP3 DUP2 MSTORE PUSH1 0x20 DUP2 ADD DUP5 DUP5 DUP5 ADD GT ISZERO PUSH2 0x49FF JUMPI PUSH2 0x49FE PUSH2 0x47DB JUMP JUMPDEST JUMPDEST PUSH2 0x4A0A DUP5 DUP3 DUP6 PUSH2 0x4811 JUMP JUMPDEST POP SWAP4 SWAP3 POP POP POP JUMP JUMPDEST PUSH1 0x0 DUP3 PUSH1 0x1F DUP4 ADD SLT PUSH2 0x4A27 JUMPI PUSH2 0x4A26 PUSH2 0x4427 JUMP JUMPDEST JUMPDEST DUP2 CALLDATALOAD PUSH2 0x4A37 DUP5 DUP3 PUSH1 0x20 DUP7 ADD PUSH2 0x49D0 JUMP JUMPDEST SWAP2 POP POP SWAP3 SWAP2 POP POP JUMP JUMPDEST PUSH1 0x0 DUP1 PUSH1 0x0 DUP1 PUSH1 0x80 DUP6 DUP8 SUB SLT ISZERO PUSH2 0x4A5A JUMPI PUSH2 0x4A59 PUSH2 0x4078 JUMP JUMPDEST JUMPDEST PUSH1 0x0 PUSH2 0x4A68 DUP8 DUP3 DUP9 ADD PUSH2 0x42C5 JUMP JUMPDEST SWAP5 POP POP PUSH1 0x20 PUSH2 0x4A79 DUP8 DUP3 DUP9 ADD PUSH2 0x42C5 JUMP JUMPDEST SWAP4 POP POP PUSH1 0x40 PUSH2 0x4A8A DUP8 DUP3 DUP9 ADD PUSH2 0x4210 JUMP JUMPDEST SWAP3 POP POP PUSH1 0x60 DUP6 ADD CALLDATALOAD PUSH8 0xFFFFFFFFFFFFFFFF DUP2 GT ISZERO PUSH2 0x4AAB JUMPI PUSH2 0x4AAA PUSH2 0x407D JUMP JUMPDEST JUMPDEST PUSH2 0x4AB7 DUP8 DUP3 DUP9 ADD PUSH2 0x4A12 JUMP JUMPDEST SWAP2 POP POP SWAP3 SWAP6 SWAP2 SWAP5 POP SWAP3 POP JUMP JUMPDEST PUSH1 0x0 DUP1 PUSH1 0x40 DUP4 DUP6 SUB SLT ISZERO PUSH2 0x4ADA JUMPI PUSH2 0x4AD9 PUSH2 0x4078 JUMP JUMPDEST JUMPDEST PUSH1 0x0 PUSH2 0x4AE8 DUP6 DUP3 DUP7 ADD PUSH2 0x42C5 JUMP JUMPDEST SWAP3 POP POP PUSH1 0x20 PUSH2 0x4AF9 DUP6 DUP3 DUP7 ADD PUSH2 0x42C5 JUMP JUMPDEST SWAP2 POP POP SWAP3 POP SWAP3 SWAP1 POP JUMP JUMPDEST PUSH32 0x4E487B7100000000000000000000000000000000000000000000000000000000 PUSH1 0x0 MSTORE PUSH1 0x22 PUSH1 0x4 MSTORE PUSH1 0x24 PUSH1 0x0 REVERT JUMPDEST PUSH1 0x0 PUSH1 0x2 DUP3 DIV SWAP1 POP PUSH1 0x1 DUP3 AND DUP1 PUSH2 0x4B4A JUMPI PUSH1 0x7F DUP3 AND SWAP2 POP JUMPDEST PUSH1 0x20 DUP3 LT DUP2 SUB PUSH2 0x4B5D JUMPI PUSH2 0x4B5C PUSH2 0x4B03 JUMP JUMPDEST JUMPDEST POP SWAP2 SWAP1 POP JUMP JUMPDEST PUSH1 0x0 PUSH1 0x60 DUP3 ADD SWAP1 POP PUSH2 0x4B78 PUSH1 0x0 DUP4 ADD DUP7 PUSH2 0x4284 JUMP JUMPDEST PUSH2 0x4B85 PUSH1 0x20 DUP4 ADD DUP6 PUSH2 0x46D9 JUMP JUMPDEST PUSH2 0x4B92 PUSH1 0x40 DUP4 ADD DUP5 PUSH2 0x4284 JUMP JUMPDEST SWAP5 SWAP4 POP POP POP POP JUMP JUMPDEST PUSH32 0x4F776E61626C655061757361626C653A206163636573732064656E6965640000 PUSH1 0x0 DUP3 ADD MSTORE POP JUMP JUMPDEST PUSH1 0x0 PUSH2 0x4BD0 PUSH1 0x1E DUP4 PUSH2 0x4148 JUMP JUMPDEST SWAP2 POP PUSH2 0x4BDB DUP3 PUSH2 0x4B9A JUMP JUMPDEST PUSH1 0x20 DUP3 ADD SWAP1 POP SWAP2 SWAP1 POP JUMP JUMPDEST PUSH1 0x0 PUSH1 0x20 DUP3 ADD SWAP1 POP DUP2 DUP2 SUB PUSH1 0x0 DUP4 ADD MSTORE PUSH2 0x4BFF DUP2 PUSH2 0x4BC3 JUMP JUMPDEST SWAP1 POP SWAP2 SWAP1 POP JUMP JUMPDEST PUSH32 0x4E487B7100000000000000000000000000000000000000000000000000000000 PUSH1 0x0 MSTORE PUSH1 0x32 PUSH1 0x4 MSTORE PUSH1 0x24 PUSH1 0x0 REVERT JUMPDEST PUSH32 0x4E487B7100000000000000000000000000000000000000000000000000000000 PUSH1 0x0 MSTORE PUSH1 0x11 PUSH1 0x4 MSTORE PUSH1 0x24 PUSH1 0x0 REVERT JUMPDEST PUSH1 0x0 PUSH2 0x4C6F DUP3 PUSH2 0x41EF JUMP JUMPDEST SWAP2 POP PUSH32 0xFFFFFFFFFFFFFFFFFFFFFFFFFFFFFFFFFFFFFFFFFFFFFFFFFFFFFFFFFFFFFFFF DUP3 SUB PUSH2 0x4CA1 JUMPI PUSH2 0x4CA0 PUSH2 0x4C35 JUMP JUMPDEST JUMPDEST PUSH1 0x1 DUP3 ADD SWAP1 POP SWAP2 SWAP1 POP JUMP JUMPDEST PUSH1 0x0 PUSH2 0x4CB7 DUP3 PUSH2 0x41EF JUMP JUMPDEST SWAP2 POP PUSH2 0x4CC2 DUP4 PUSH2 0x41EF JUMP JUMPDEST SWAP3 POP DUP3 DUP3 MUL PUSH2 0x4CD0 DUP2 PUSH2 0x41EF JUMP JUMPDEST SWAP2 POP DUP3 DUP3 DIV DUP5 EQ DUP4 ISZERO OR PUSH2 0x4CE7 JUMPI PUSH2 0x4CE6 PUSH2 0x4C35 JUMP JUMPDEST JUMPDEST POP SWAP3 SWAP2 POP POP JUMP JUMPDEST PUSH1 0x0 PUSH2 0x4CF9 DUP3 PUSH2 0x41EF JUMP JUMPDEST SWAP2 POP PUSH2 0x4D04 DUP4 PUSH2 0x41EF JUMP JUMPDEST SWAP3 POP DUP3 DUP3 ADD SWAP1 POP DUP1 DUP3 GT ISZERO PUSH2 0x4D1C JUMPI PUSH2 0x4D1B PUSH2 0x4C35 JUMP JUMPDEST JUMPDEST SWAP3 SWAP2 POP POP JUMP JUMPDEST PUSH32 0x4E487B7100000000000000000000000000000000000000000000000000000000 PUSH1 0x0 MSTORE PUSH1 0x12 PUSH1 0x4 MSTORE PUSH1 0x24 PUSH1 0x0 REVERT JUMPDEST PUSH1 0x0 PUSH2 0x4D5C DUP3 PUSH2 0x41EF JUMP JUMPDEST SWAP2 POP PUSH2 0x4D67 DUP4 PUSH2 0x41EF JUMP JUMPDEST SWAP3 POP DUP3 PUSH2 0x4D77 JUMPI PUSH2 0x4D76 PUSH2 0x4D22 JUMP JUMPDEST JUMPDEST DUP3 DUP3 DIV SWAP1 POP SWAP3 SWAP2 POP POP JUMP JUMPDEST PUSH1 0x0 DUP2 SWAP1 POP DUP2 PUSH1 0x0 MSTORE PUSH1 0x20 PUSH1 0x0 KECCAK256 SWAP1 POP SWAP2 SWAP1 POP JUMP JUMPDEST PUSH1 0x0 PUSH1 0x20 PUSH1 0x1F DUP4 ADD DIV SWAP1 POP SWAP2 SWAP1 POP JUMP JUMPDEST PUSH1 0x0 DUP3 DUP3 SHL SWAP1 POP SWAP3 SWAP2 POP POP JUMP JUMPDEST PUSH1 0x0 PUSH1 0x8 DUP4 MUL PUSH2 0x4DE4 PUSH32 0xFFFFFFFFFFFFFFFFFFFFFFFFFFFFFFFFFFFFFFFFFFFFFFFFFFFFFFFFFFFFFFFF DUP3 PUSH2 0x4DA7 JUMP JUMPDEST PUSH2 0x4DEE DUP7 DUP4 PUSH2 0x4DA7 JUMP JUMPDEST SWAP6 POP DUP1 NOT DUP5 AND SWAP4 POP DUP1 DUP7 AND DUP5 OR SWAP3 POP POP POP SWAP4 SWAP3 POP POP POP JUMP JUMPDEST PUSH1 0x0 DUP2 SWAP1 POP SWAP2 SWAP1 POP JUMP JUMPDEST PUSH1 0x0 PUSH2 0x4E2B PUSH2 0x4E26 PUSH2 0x4E21 DUP5 PUSH2 0x41EF JUMP JUMPDEST PUSH2 0x4E06 JUMP JUMPDEST PUSH2 0x41EF JUMP JUMPDEST SWAP1 POP SWAP2 SWAP1 POP JUMP JUMPDEST PUSH1 0x0 DUP2 SWAP1 POP SWAP2 SWAP1 POP JUMP JUMPDEST PUSH2 0x4E45 DUP4 PUSH2 0x4E10 JUMP JUMPDEST PUSH2 0x4E59 PUSH2 0x4E51 DUP3 PUSH2 0x4E32 JUMP JUMPDEST DUP5 DUP5 SLOAD PUSH2 0x4DB4 JUMP JUMPDEST DUP3 SSTORE POP POP POP POP JUMP JUMPDEST PUSH1 0x0 SWAP1 JUMP JUMPDEST PUSH2 0x4E6E PUSH2 0x4E61 JUMP JUMPDEST PUSH2 0x4E79 DUP2 DUP5 DUP5 PUSH2 0x4E3C JUMP JUMPDEST POP POP POP JUMP JUMPDEST JUMPDEST DUP2 DUP2 LT ISZERO PUSH2 0x4E9D JUMPI PUSH2 0x4E92 PUSH1 0x0 DUP3 PUSH2 0x4E66 JUMP JUMPDEST PUSH1 0x1 DUP2 ADD SWAP1 POP PUSH2 0x4E7F JUMP JUMPDEST POP POP JUMP JUMPDEST PUSH1 0x1F DUP3 GT ISZERO PUSH2 0x4EE2 JUMPI PUSH2 0x4EB3 DUP2 PUSH2 0x4D82 JUMP JUMPDEST PUSH2 0x4EBC DUP5 PUSH2 0x4D97 JUMP JUMPDEST DUP2 ADD PUSH1 0x20 DUP6 LT ISZERO PUSH2 0x4ECB JUMPI DUP2 SWAP1 POP JUMPDEST PUSH2 0x4EDF PUSH2 0x4ED7 DUP6 PUSH2 0x4D97 JUMP JUMPDEST DUP4 ADD DUP3 PUSH2 0x4E7E JUMP JUMPDEST POP POP JUMPDEST POP POP POP JUMP JUMPDEST PUSH1 0x0 DUP3 DUP3 SHR SWAP1 POP SWAP3 SWAP2 POP POP JUMP JUMPDEST PUSH1 0x0 PUSH2 0x4F05 PUSH1 0x0 NOT DUP5 PUSH1 0x8 MUL PUSH2 0x4EE7 JUMP JUMPDEST NOT DUP1 DUP4 AND SWAP2 POP POP SWAP3 SWAP2 POP POP JUMP JUMPDEST PUSH1 0x0 PUSH2 0x4F1E DUP4 DUP4 PUSH2 0x4EF4 JUMP JUMPDEST SWAP2 POP DUP3 PUSH1 0x2 MUL DUP3 OR SWAP1 POP SWAP3 SWAP2 POP POP JUMP JUMPDEST PUSH2 0x4F37 DUP3 PUSH2 0x413D JUMP JUMPDEST PUSH8 0xFFFFFFFFFFFFFFFF DUP2 GT ISZERO PUSH2 0x4F50 JUMPI PUSH2 0x4F4F PUSH2 0x442C JUMP JUMPDEST JUMPDEST PUSH2 0x4F5A DUP3 SLOAD PUSH2 0x4B32 JUMP JUMPDEST PUSH2 0x4F65 DUP3 DUP3 DUP6 PUSH2 0x4EA1 JUMP JUMPDEST PUSH1 0x0 PUSH1 0x20 SWAP1 POP PUSH1 0x1F DUP4 GT PUSH1 0x1 DUP2 EQ PUSH2 0x4F98 JUMPI PUSH1 0x0 DUP5 ISZERO PUSH2 0x4F86 JUMPI DUP3 DUP8 ADD MLOAD SWAP1 POP JUMPDEST PUSH2 0x4F90 DUP6 DUP3 PUSH2 0x4F12 JUMP JUMPDEST DUP7 SSTORE POP PUSH2 0x4FF8 JUMP JUMPDEST PUSH1 0x1F NOT DUP5 AND PUSH2 0x4FA6 DUP7 PUSH2 0x4D82 JUMP JUMPDEST PUSH1 0x0 JUMPDEST DUP3 DUP2 LT ISZERO PUSH2 0x4FCE JUMPI DUP5 DUP10 ADD MLOAD DUP3 SSTORE PUSH1 0x1 DUP3 ADD SWAP2 POP PUSH1 0x20 DUP6 ADD SWAP5 POP PUSH1 0x20 DUP2 ADD SWAP1 POP PUSH2 0x4FA9 JUMP JUMPDEST DUP7 DUP4 LT ISZERO PUSH2 0x4FEB JUMPI DUP5 DUP10 ADD MLOAD PUSH2 0x4FE7 PUSH1 0x1F DUP10 AND DUP3 PUSH2 0x4EF4 JUMP JUMPDEST DUP4 SSTORE POP JUMPDEST PUSH1 0x1 PUSH1 0x2 DUP9 MUL ADD DUP9 SSTORE POP POP POP JUMPDEST POP POP POP POP POP POP JUMP JUMPDEST PUSH1 0x0 DUP2 SWAP1 POP SWAP2 SWAP1 POP JUMP JUMPDEST PUSH1 0x0 PUSH8 0xFFFFFFFFFFFFFFFF DUP3 AND SWAP1 POP SWAP2 SWAP1 POP JUMP JUMPDEST PUSH1 0x0 PUSH2 0x5039 PUSH2 0x5034 PUSH2 0x502F DUP5 PUSH2 0x5000 JUMP JUMPDEST PUSH2 0x4E06 JUMP JUMPDEST PUSH2 0x500A JUMP JUMPDEST SWAP1 POP SWAP2 SWAP1 POP JUMP JUMPDEST PUSH2 0x5049 DUP2 PUSH2 0x501E JUMP JUMPDEST DUP3 MSTORE POP POP JUMP JUMPDEST PUSH1 0x0 PUSH1 0x20 DUP3 ADD SWAP1 POP PUSH2 0x5064 PUSH1 0x0 DUP4 ADD DUP5 PUSH2 0x5040 JUMP JUMPDEST SWAP3 SWAP2 POP POP JUMP JUMPDEST PUSH1 0x0 DUP2 SWAP1 POP SWAP3 SWAP2 POP POP JUMP JUMPDEST PUSH1 0x0 PUSH2 0x5080 DUP3 PUSH2 0x413D JUMP JUMPDEST PUSH2 0x508A DUP2 DUP6 PUSH2 0x506A JUMP JUMPDEST SWAP4 POP PUSH2 0x509A DUP2 DUP6 PUSH1 0x20 DUP7 ADD PUSH2 0x4159 JUMP JUMPDEST DUP1 DUP5 ADD SWAP2 POP POP SWAP3 SWAP2 POP POP JUMP JUMPDEST PUSH32 0x2F00000000000000000000000000000000000000000000000000000000000000 PUSH1 0x0 DUP3 ADD MSTORE POP JUMP JUMPDEST PUSH1 0x0 PUSH2 0x50DC PUSH1 0x1 DUP4 PUSH2 0x506A JUMP JUMPDEST SWAP2 POP PUSH2 0x50E7 DUP3 PUSH2 0x50A6 JUMP JUMPDEST PUSH1 0x1 DUP3 ADD SWAP1 POP SWAP2 SWAP1 POP JUMP JUMPDEST PUSH1 0x0 PUSH2 0x50FE DUP3 DUP8 PUSH2 0x5075 JUMP JUMPDEST SWAP2 POP PUSH2 0x510A DUP3 DUP7 PUSH2 0x5075 JUMP JUMPDEST SWAP2 POP PUSH2 0x5115 DUP3 PUSH2 0x50CF JUMP JUMPDEST SWAP2 POP PUSH2 0x5121 DUP3 DUP6 PUSH2 0x5075 JUMP JUMPDEST SWAP2 POP PUSH2 0x512C DUP3 PUSH2 0x50CF JUMP JUMPDEST SWAP2 POP PUSH2 0x5138 DUP3 DUP5 PUSH2 0x5075 JUMP JUMPDEST SWAP2 POP DUP2 SWAP1 POP SWAP6 SWAP5 POP POP POP POP POP JUMP JUMPDEST PUSH32 0x4D6F726967696E4170703A20696E76616C69642076616C756521000000000000 PUSH1 0x0 DUP3 ADD MSTORE POP JUMP JUMPDEST PUSH1 0x0 PUSH2 0x517C PUSH1 0x1A DUP4 PUSH2 0x4148 JUMP JUMPDEST SWAP2 POP PUSH2 0x5187 DUP3 PUSH2 0x5146 JUMP JUMPDEST PUSH1 0x20 DUP3 ADD SWAP1 POP SWAP2 SWAP1 POP JUMP JUMPDEST PUSH1 0x0 PUSH1 0x20 DUP3 ADD SWAP1 POP DUP2 DUP2 SUB PUSH1 0x0 DUP4 ADD MSTORE PUSH2 0x51AB DUP2 PUSH2 0x516F JUMP JUMPDEST SWAP1 POP SWAP2 SWAP1 POP JUMP JUMPDEST PUSH1 0x0 PUSH1 0x60 DUP3 ADD SWAP1 POP PUSH2 0x51C7 PUSH1 0x0 DUP4 ADD DUP7 PUSH2 0x4284 JUMP JUMPDEST PUSH2 0x51D4 PUSH1 0x20 DUP4 ADD DUP6 PUSH2 0x4284 JUMP JUMPDEST PUSH2 0x51E1 PUSH1 0x40 DUP4 ADD DUP5 PUSH2 0x46D9 JUMP JUMPDEST SWAP5 SWAP4 POP POP POP POP JUMP JUMPDEST PUSH1 0x0 DUP2 MLOAD SWAP1 POP SWAP2 SWAP1 POP JUMP JUMPDEST PUSH1 0x0 DUP2 SWAP1 POP SWAP3 SWAP2 POP POP JUMP JUMPDEST PUSH1 0x0 PUSH2 0x520A DUP3 PUSH2 0x51E9 JUMP JUMPDEST PUSH2 0x5214 DUP2 DUP6 PUSH2 0x51F4 JUMP JUMPDEST SWAP4 POP PUSH2 0x5224 DUP2 DUP6 PUSH1 0x20 DUP7 ADD PUSH2 0x4159 JUMP JUMPDEST DUP1 DUP5 ADD SWAP2 POP POP SWAP3 SWAP2 POP POP JUMP JUMPDEST PUSH1 0x0 PUSH2 0x523C DUP3 DUP5 PUSH2 0x51FF JUMP JUMPDEST SWAP2 POP DUP2 SWAP1 POP SWAP3 SWAP2 POP POP JUMP JUMPDEST PUSH1 0x0 DUP2 MLOAD SWAP1 POP PUSH2 0x5256 DUP2 PUSH2 0x45C4 JUMP JUMPDEST SWAP3 SWAP2 POP POP JUMP JUMPDEST PUSH1 0x0 PUSH1 0x20 DUP3 DUP5 SUB SLT ISZERO PUSH2 0x5272 JUMPI PUSH2 0x5271 PUSH2 0x4078 JUMP JUMPDEST JUMPDEST PUSH1 0x0 PUSH2 0x5280 DUP5 DUP3 DUP6 ADD PUSH2 0x5247 JUMP JUMPDEST SWAP2 POP POP SWAP3 SWAP2 POP POP JUMP JUMPDEST PUSH32 0x5354000000000000000000000000000000000000000000000000000000000000 PUSH1 0x0 DUP3 ADD MSTORE POP JUMP JUMPDEST PUSH1 0x0 PUSH2 0x52BF PUSH1 0x2 DUP4 PUSH2 0x4148 JUMP JUMPDEST SWAP2 POP PUSH2 0x52CA DUP3 PUSH2 0x5289 JUMP JUMPDEST PUSH1 0x20 DUP3 ADD SWAP1 POP SWAP2 SWAP1 POP JUMP JUMPDEST PUSH1 0x0 PUSH1 0x20 DUP3 ADD SWAP1 POP DUP2 DUP2 SUB PUSH1 0x0 DUP4 ADD MSTORE PUSH2 0x52EE DUP2 PUSH2 0x52B2 JUMP JUMPDEST SWAP1 POP SWAP2 SWAP1 POP JUMP JUMPDEST PUSH1 0x0 PUSH1 0x40 DUP3 ADD SWAP1 POP PUSH2 0x530A PUSH1 0x0 DUP4 ADD DUP6 PUSH2 0x4284 JUMP JUMPDEST PUSH2 0x5317 PUSH1 0x20 DUP4 ADD DUP5 PUSH2 0x46D9 JUMP JUMPDEST SWAP4 SWAP3 POP POP POP JUMP JUMPDEST PUSH32 0x5472616E7366657248656C7065723A3A736166655472616E736665723A207472 PUSH1 0x0 DUP3 ADD MSTORE PUSH32 0x616E73666572206661696C656400000000000000000000000000000000000000 PUSH1 0x20 DUP3 ADD MSTORE POP JUMP JUMPDEST PUSH1 0x0 PUSH2 0x537A PUSH1 0x2D DUP4 PUSH2 0x4148 JUMP JUMPDEST SWAP2 POP PUSH2 0x5385 DUP3 PUSH2 0x531E JUMP JUMPDEST PUSH1 0x40 DUP3 ADD SWAP1 POP SWAP2 SWAP1 POP JUMP JUMPDEST PUSH1 0x0 PUSH1 0x20 DUP3 ADD SWAP1 POP DUP2 DUP2 SUB PUSH1 0x0 DUP4 ADD MSTORE PUSH2 0x53A9 DUP2 PUSH2 0x536D JUMP JUMPDEST SWAP1 POP SWAP2 SWAP1 POP JUMP JUMPDEST PUSH32 0x5472616E7366657248656C7065723A3A736166655472616E736665724554483A PUSH1 0x0 DUP3 ADD MSTORE PUSH32 0x20455448207472616E73666572206661696C6564000000000000000000000000 PUSH1 0x20 DUP3 ADD MSTORE POP JUMP JUMPDEST PUSH1 0x0 PUSH2 0x540C PUSH1 0x34 DUP4 PUSH2 0x4148 JUMP JUMPDEST SWAP2 POP PUSH2 0x5417 DUP3 PUSH2 0x53B0 JUMP JUMPDEST PUSH1 0x40 DUP3 ADD SWAP1 POP SWAP2 SWAP1 POP JUMP JUMPDEST PUSH1 0x0 PUSH1 0x20 DUP3 ADD SWAP1 POP DUP2 DUP2 SUB PUSH1 0x0 DUP4 ADD MSTORE PUSH2 0x543B DUP2 PUSH2 0x53FF JUMP JUMPDEST SWAP1 POP SWAP2 SWAP1 POP JUMP JUMPDEST PUSH1 0x0 DUP3 DUP3 MSTORE PUSH1 0x20 DUP3 ADD SWAP1 POP SWAP3 SWAP2 POP POP JUMP JUMPDEST PUSH1 0x0 PUSH2 0x545E DUP3 PUSH2 0x51E9 JUMP JUMPDEST PUSH2 0x5468 DUP2 DUP6 PUSH2 0x5442 JUMP JUMPDEST SWAP4 POP PUSH2 0x5478 DUP2 DUP6 PUSH1 0x20 DUP7 ADD PUSH2 0x4159 JUMP JUMPDEST PUSH2 0x5481 DUP2 PUSH2 0x4183 JUMP JUMPDEST DUP5 ADD SWAP2 POP POP SWAP3 SWAP2 POP POP JUMP JUMPDEST PUSH1 0x0 PUSH1 0x80 DUP3 ADD SWAP1 POP PUSH2 0x54A1 PUSH1 0x0 DUP4 ADD DUP8 PUSH2 0x4284 JUMP JUMPDEST PUSH2 0x54AE PUSH1 0x20 DUP4 ADD DUP7 PUSH2 0x4284 JUMP JUMPDEST PUSH2 0x54BB PUSH1 0x40 DUP4 ADD DUP6 PUSH2 0x46D9 JUMP JUMPDEST DUP2 DUP2 SUB PUSH1 0x60 DUP4 ADD MSTORE PUSH2 0x54CD DUP2 DUP5 PUSH2 0x5453 JUMP JUMPDEST SWAP1 POP SWAP6 SWAP5 POP POP POP POP POP JUMP JUMPDEST PUSH1 0x0 DUP2 MLOAD SWAP1 POP PUSH2 0x54E7 DUP2 PUSH2 0x40AE JUMP JUMPDEST SWAP3 SWAP2 POP POP JUMP JUMPDEST PUSH1 0x0 PUSH1 0x20 DUP3 DUP5 SUB SLT ISZERO PUSH2 0x5503 JUMPI PUSH2 0x5502 PUSH2 0x4078 JUMP JUMPDEST JUMPDEST PUSH1 0x0 PUSH2 0x5511 DUP5 DUP3 DUP6 ADD PUSH2 0x54D8 JUMP JUMPDEST SWAP2 POP POP SWAP3 SWAP2 POP POP JUMP JUMPDEST PUSH1 0x0 PUSH1 0x80 DUP3 ADD SWAP1 POP PUSH2 0x552F PUSH1 0x0 DUP4 ADD DUP8 PUSH2 0x4284 JUMP JUMPDEST PUSH2 0x553C PUSH1 0x20 DUP4 ADD DUP7 PUSH2 0x4284 JUMP JUMPDEST PUSH2 0x5549 PUSH1 0x40 DUP4 ADD DUP6 PUSH2 0x4284 JUMP JUMPDEST PUSH2 0x5556 PUSH1 0x60 DUP4 ADD DUP5 PUSH2 0x46D9 JUMP JUMPDEST SWAP6 SWAP5 POP POP POP POP POP JUMP JUMPDEST PUSH32 0x5354460000000000000000000000000000000000000000000000000000000000 PUSH1 0x0 DUP3 ADD MSTORE POP JUMP JUMPDEST PUSH1 0x0 PUSH2 0x5595 PUSH1 0x3 DUP4 PUSH2 0x4148 JUMP JUMPDEST SWAP2 POP PUSH2 0x55A0 DUP3 PUSH2 0x555F JUMP JUMPDEST PUSH1 0x20 DUP3 ADD SWAP1 POP SWAP2 SWAP1 POP JUMP JUMPDEST PUSH1 0x0 PUSH1 0x20 DUP3 ADD SWAP1 POP DUP2 DUP2 SUB PUSH1 0x0 DUP4 ADD MSTORE PUSH2 0x55C4 DUP2 PUSH2 0x5588 JUMP JUMPDEST SWAP1 POP SWAP2 SWAP1 POP JUMP JUMPDEST PUSH32 0x5472616E7366657248656C7065723A3A7472616E7366657246726F6D3A207472 PUSH1 0x0 DUP3 ADD MSTORE PUSH32 0x616E7366657246726F6D206661696C6564000000000000000000000000000000 PUSH1 0x20 DUP3 ADD MSTORE POP JUMP JUMPDEST PUSH1 0x0 PUSH2 0x5627 PUSH1 0x31 DUP4 PUSH2 0x4148 JUMP JUMPDEST SWAP2 POP PUSH2 0x5632 DUP3 PUSH2 0x55CB JUMP JUMPDEST PUSH1 0x40 DUP3 ADD SWAP1 POP SWAP2 SWAP1 POP JUMP JUMPDEST PUSH1 0x0 PUSH1 0x20 DUP3 ADD SWAP1 POP DUP2 DUP2 SUB PUSH1 0x0 DUP4 ADD MSTORE PUSH2 0x5656 DUP2 PUSH2 0x561A JUMP JUMPDEST SWAP1 POP SWAP2 SWAP1 POP JUMP JUMPDEST PUSH1 0x0 PUSH1 0x40 DUP3 ADD SWAP1 POP PUSH2 0x5672 PUSH1 0x0 DUP4 ADD DUP6 PUSH2 0x4284 JUMP JUMPDEST PUSH2 0x567F PUSH1 0x20 DUP4 ADD DUP5 PUSH2 0x43FD JUMP JUMPDEST SWAP4 SWAP3 POP POP POP JUMP JUMPDEST PUSH1 0x0 PUSH2 0x5691 DUP3 PUSH2 0x41EF JUMP JUMPDEST SWAP2 POP PUSH1 0x0 DUP3 SUB PUSH2 0x56A4 JUMPI PUSH2 0x56A3 PUSH2 0x4C35 JUMP JUMPDEST JUMPDEST PUSH1 0x1 DUP3 SUB SWAP1 POP SWAP2 SWAP1 POP JUMP INVALID LOG2 PUSH5 0x6970667358 0x22 SLT KECCAK256 ISZERO DUP3 0xBD 0xBA 0xD8 DUP4 0xF9 SWAP3 PUSH3 0x1EEF82 SHL PUSH21 0x19E33A139A8C9C00B5D67573D8E5DD03D6D264736F PUSH13 0x63430008140033000000000000 "},"methodIdentifiers":{"DEFAULT_ADMIN_ROLE()":"a217fddf","PAUSER_ROLE()":"e63ab1e9","addAdmin(address)":"70480275","addPauser(address)":"82dc1ec4","approve(address,uint256)":"095ea7b3","balanceOf(address)":"70a08231","getApproved(uint256)":"081812fc","getRoleAdmin(bytes32)":"248a9ca3","grantRole(bytes32,address)":"2f2ff15d","hasRole(bytes32,address)":"91d14854","initialize(address,address,string,string,string)":"3f2f5ee2","isAdmin(address)":"24d7806c","isApprovedForAll(address,address)":"e985e9c5","isPauser(address)":"46fbf68e","name()":"06fdde03","ownerOf(uint256)":"6352211e","paginationSize()":"3d538ecf","pause()":"8456cb59","paused()":"5c975abb","release(uint256)":"37bdc99b","releaseInfo(uint256,uint256)":"3bda01db","removeAdmin(address)":"1785f53c","removePauser(address)":"6b2c0f55","renounceRole(bytes32,address)":"36568abe","revokeRole(bytes32,address)":"d547741f","safeTransferFrom(address,address,uint256)":"42842e0e","safeTransferFrom(address,address,uint256,bytes)":"b88d4fde","setApprovalForAll(address,bool)":"a22cb465","setPaginationSize(uint256)":"f2407ca4","startVesting(bytes32,address,address,uint256,(uint256,uint256)[],bool)":"2622981d","supportsInterface(bytes4)":"01ffc9a7","symbol()":"95d89b41","tokenURI(uint256)":"c87b56dd","transferFrom(address,address,uint256)":"23b872dd","unpause()":"3f4ba83a","vesting(uint256)":"2ffac82c","vestingIds(bytes32)":"48f6e360"}},"storageLayout":{"storage":[{"astId":4119,"contract":"contracts/vesting/Vesting.sol:Vesting","label":"paginationSize","offset":0,"slot":"0","type":"t_uint256"},{"astId":4805,"contract":"contracts/vesting/Vesting.sol:Vesting","label":"_baseURL","offset":0,"slot":"1","type":"t_string_storage"},{"astId":4815,"contract":"contracts/vesting/Vesting.sol:Vesting","label":"vesting","offset":0,"slot":"2","type":"t_mapping(t_uint256,t_struct(VestingSchedule)5334_storage)"},{"astId":4818,"contract":"contracts/vesting/Vesting.sol:Vesting","label":"_lastTokenId","offset":0,"slot":"3","type":"t_uint256"},{"astId":4823,"contract":"contracts/vesting/Vesting.sol:Vesting","label":"vestingIds","offset":0,"slot":"4","type":"t_mapping(t_bytes32,t_uint256)"},{"astId":4830,"contract":"contracts/vesting/Vesting.sol:Vesting","label":"releaseInfo","offset":0,"slot":"5","type":"t_mapping(t_uint256,t_array(t_struct(Release)4365_storage)dyn_storage)"},{"astId":4832,"contract":"contracts/vesting/Vesting.sol:Vesting","label":"_vault","offset":0,"slot":"6","type":"t_address"}],"types":{"t_address":{"encoding":"inplace","label":"address","numberOfBytes":"20"},"t_array(t_struct(Release)4365_storage)dyn_storage":{"base":"t_struct(Release)4365_storage","encoding":"dynamic_array","label":"struct IAtomicSwapBase.Release[]","numberOfBytes":"32"},"t_bool":{"encoding":"inplace","label":"bool","numberOfBytes":"1"},"t_bytes32":{"encoding":"inplace","label":"bytes32","numberOfBytes":"32"},"t_mapping(t_bytes32,t_uint256)":{"encoding":"mapping","key":"t_bytes32","label":"mapping(bytes32 => uint256)","numberOfBytes":"32","value":"t_uint256"},"t_mapping(t_uint256,t_array(t_struct(Release)4365_storage)dyn_storage)":{"encoding":"mapping","key":"t_uint256","label":"mapping(uint256 => struct IAtomicSwapBase.Release[])","numberOfBytes":"32","value":"t_array(t_struct(Release)4365_storage)dyn_storage"},"t_mapping(t_uint256,t_struct(VestingSchedule)5334_storage)":{"encoding":"mapping","key":"t_uint256","label":"mapping(uint256 => struct IVesting.VestingSchedule)","numberOfBytes":"32","value":"t_struct(VestingSchedule)5334_storage"},"t_string_storage":{"encoding":"bytes","label":"string","numberOfBytes":"32"},"t_struct(Release)4365_storage":{"encoding":"inplace","label":"struct IAtomicSwapBase.Release","members":[{"astId":4362,"contract":"contracts/vesting/Vesting.sol:Vesting","label":"durationInHours","offset":0,"slot":"0","type":"t_uint256"},{"astId":4364,"contract":"contracts/vesting/Vesting.sol:Vesting","label":"percentage","offset":0,"slot":"1","type":"t_uint256"}],"numberOfBytes":"64"},"t_struct(VestingSchedule)5334_storage":{"encoding":"inplace","label":"struct IVesting.VestingSchedule","members":[{"astId":5321,"contract":"contracts/vesting/Vesting.sol:Vesting","label":"from","offset":0,"slot":"0","type":"t_address"},{"astId":5323,"contract":"contracts/vesting/Vesting.sol:Vesting","label":"start","offset":0,"slot":"1","type":"t_uint256"},{"astId":5325,"contract":"contracts/vesting/Vesting.sol:Vesting","label":"token","offset":0,"slot":"2","type":"t_address"},{"astId":5327,"contract":"contracts/vesting/Vesting.sol:Vesting","label":"totalAmount","offset":0,"slot":"3","type":"t_uint256"},{"astId":5329,"contract":"contracts/vesting/Vesting.sol:Vesting","label":"amountReleased","offset":0,"slot":"4","type":"t_uint256"},{"astId":5331,"contract":"contracts/vesting/Vesting.sol:Vesting","label":"nextReleaseStep","offset":0,"slot":"5","type":"t_uint256"},{"astId":5333,"contract":"contracts/vesting/Vesting.sol:Vesting","label":"isWithdraw","offset":0,"slot":"6","type":"t_bool"}],"numberOfBytes":"224"},"t_uint256":{"encoding":"inplace","label":"uint256","numberOfBytes":"32"}}}}}}