{"contracts/vesting/Vesting.sol":{"Vesting":{"abi":[{"inputs":[],"name":"DuplicateReleaseSchedule","type":"error"},{"inputs":[],"name":"InvalidInitialization","type":"error"},{"inputs":[],"name":"InvalidTotalPercentage","type":"error"},{"inputs":[],"name":"InvalidVesting","type":"error"},{"inputs":[],"name":"NoPermissionToUserContract","type":"error"},{"inputs":[],"name":"NoVestedTokensAvailable","type":"error"},{"inputs":[],"name":"NoVestedTokensForRelease","type":"error"},{"inputs":[{"internalType":"uint256","name":"real","type":"uint256"},{"internalType":"uint256","name":"expected","type":"uint256"}],"name":"NotEnoughFund","type":"error"},{"inputs":[],"name":"NotInitializing","type":"error"},{"inputs":[],"name":"OverMaximumReleaseStep","type":"error"},{"inputs":[{"internalType":"address","name":"owner","type":"address"}],"name":"OwnableInvalidOwner","type":"error"},{"inputs":[{"internalType":"address","name":"account","type":"address"}],"name":"OwnableUnauthorizedAccount","type":"error"},{"inputs":[],"name":"ReentrancyGuardReentrantCall","type":"error"},{"inputs":[{"internalType":"address","name":"beneficiary","type":"address"}],"name":"VestingAlreadyStarted","type":"error"},{"inputs":[],"name":"VestingNotStarted","type":"error"},{"anonymous":false,"inputs":[{"indexed":false,"internalType":"uint64","name":"version","type":"uint64"}],"name":"Initialized","type":"event"},{"anonymous":false,"inputs":[{"components":[{"components":[{"internalType":"address","name":"from","type":"address"},{"internalType":"uint256","name":"start","type":"uint256"},{"internalType":"address","name":"token","type":"address"},{"internalType":"uint256","name":"totalAmount","type":"uint256"},{"internalType":"uint256","name":"amountReleased","type":"uint256"},{"internalType":"uint256","name":"lastReleasedStep","type":"uint256"}],"internalType":"struct IVesting.VestingSchedule","name":"schedule","type":"tuple"},{"components":[{"internalType":"uint256","name":"durationInHours","type":"uint256"},{"internalType":"uint256","name":"percentage","type":"uint256"}],"internalType":"struct IAtomicSwapBase.Release[]","name":"release","type":"tuple[]"},{"internalType":"address","name":"beneficiary","type":"address"},{"internalType":"bytes32","name":"orderId","type":"bytes32"}],"indexed":true,"internalType":"struct IVesting.VestingInfo","name":"vesting","type":"tuple"}],"name":"NewVesting","type":"event"},{"anonymous":false,"inputs":[{"indexed":true,"internalType":"address","name":"previousOwner","type":"address"},{"indexed":true,"internalType":"address","name":"newOwner","type":"address"}],"name":"OwnershipTransferred","type":"event"},{"anonymous":false,"inputs":[{"indexed":true,"internalType":"address","name":"sender","type":"address"},{"indexed":true,"internalType":"uint256","name":"amount","type":"uint256"}],"name":"Received","type":"event"},{"anonymous":false,"inputs":[{"indexed":true,"internalType":"address","name":"beneficiary","type":"address"},{"indexed":true,"internalType":"uint256","name":"amount","type":"uint256"}],"name":"Released","type":"event"},{"inputs":[{"internalType":"address","name":"_admin","type":"address"}],"name":"initialize","outputs":[],"stateMutability":"nonpayable","type":"function"},{"inputs":[],"name":"owner","outputs":[{"internalType":"address","name":"","type":"address"}],"stateMutability":"view","type":"function"},{"inputs":[{"internalType":"address","name":"beneficiary","type":"address"},{"internalType":"bytes32","name":"orderId","type":"bytes32"}],"name":"release","outputs":[],"stateMutability":"nonpayable","type":"function"},{"inputs":[{"internalType":"address","name":"","type":"address"},{"internalType":"bytes32","name":"","type":"bytes32"},{"internalType":"uint256","name":"","type":"uint256"}],"name":"releaseInfos","outputs":[{"internalType":"uint256","name":"durationInHours","type":"uint256"},{"internalType":"uint256","name":"percentage","type":"uint256"}],"stateMutability":"view","type":"function"},{"inputs":[],"name":"renounceOwnership","outputs":[],"stateMutability":"nonpayable","type":"function"},{"inputs":[{"internalType":"address","name":"_newAdmin","type":"address"}],"name":"setAdmin","outputs":[],"stateMutability":"nonpayable","type":"function"},{"inputs":[{"internalType":"bytes32","name":"orderId","type":"bytes32"},{"internalType":"address","name":"beneficiary","type":"address"},{"internalType":"address","name":"token","type":"address"},{"internalType":"uint256","name":"totalAmount","type":"uint256"},{"components":[{"internalType":"uint256","name":"durationInHours","type":"uint256"},{"internalType":"uint256","name":"percentage","type":"uint256"}],"internalType":"struct IAtomicSwapBase.Release[]","name":"releases","type":"tuple[]"}],"name":"startVesting","outputs":[],"stateMutability":"payable","type":"function"},{"inputs":[{"internalType":"address","name":"newOwner","type":"address"}],"name":"transferOwnership","outputs":[],"stateMutability":"nonpayable","type":"function"},{"inputs":[{"internalType":"address","name":"","type":"address"},{"internalType":"bytes32","name":"","type":"bytes32"}],"name":"vestingSchedules","outputs":[{"internalType":"address","name":"from","type":"address"},{"internalType":"uint256","name":"start","type":"uint256"},{"internalType":"address","name":"token","type":"address"},{"internalType":"uint256","name":"totalAmount","type":"uint256"},{"internalType":"uint256","name":"amountReleased","type":"uint256"},{"internalType":"uint256","name":"lastReleasedStep","type":"uint256"}],"stateMutability":"view","type":"function"},{"stateMutability":"payable","type":"receive"}],"evm":{"bytecode":{"linkReferences":{"contracts/abstracts/libs/utils/AtomicSwapMsgValidator.sol":{"AtomicSwapMsgValidator":[{"length":20,"start":1242}]}},"object":"608060405234801561001057600080fd5b50612280806100206000396000f3fe60806040526004361061008a5760003560e01c806382a969e21161005957806382a969e2146101fa5780638da5cb5b14610238578063c4d66de814610263578063d7c2eec71461028c578063f2fde38b146102b557610157565b8063704b6c021461015c578063715018a6146101855780637623f00e1461019c5780637b00ffad146101b857610157565b36610157576000803373ffffffffffffffffffffffffffffffffffffffff1673ffffffffffffffffffffffffffffffffffffffff16815260200190815260200160002060009054906101000a900460ff16610111576040517f059bcfbb00000000000000000000000000000000000000000000000000000000815260040160405180910390fd5b343373ffffffffffffffffffffffffffffffffffffffff167f88a5966d370b9919b20f3e2c13ff65706f196a4e32cc2c12bf57088f8852587460405160405180910390a3005b600080fd5b34801561016857600080fd5b50610183600480360381019061017e91906115d1565b6102de565b005b34801561019157600080fd5b5061019a610340565b005b6101b660048036038101906101b19190611818565b610354565b005b3480156101c457600080fd5b506101df60048036038101906101da91906118af565b610873565b6040516101f19695949392919061190d565b60405180910390f35b34801561020657600080fd5b50610221600480360381019061021c919061196e565b6108fc565b60405161022f9291906119c1565b60405180910390f35b34801561024457600080fd5b5061024d61094a565b60405161025a91906119ea565b60405180910390f35b34801561026f57600080fd5b5061028a600480360381019061028591906115d1565b610982565b005b34801561029857600080fd5b506102b360048036038101906102ae91906118af565b610b11565b005b3480156102c157600080fd5b506102dc60048036038101906102d791906115d1565b610e36565b005b6102e6610ebc565b60016000808373ffffffffffffffffffffffffffffffffffffffff1673ffffffffffffffffffffffffffffffffffffffff16815260200190815260200160002060006101000a81548160ff02191690831515021790555050565b610348610ebc565b6103526000610f43565b565b61035c61101a565b6000803373ffffffffffffffffffffffffffffffffffffffff1673ffffffffffffffffffffffffffffffffffffffff16815260200190815260200160002060009054906101000a900460ff166103de576040517f059bcfbb00000000000000000000000000000000000000000000000000000000815260040160405180910390fd5b600073ffffffffffffffffffffffffffffffffffffffff16600160008673ffffffffffffffffffffffffffffffffffffffff1673ffffffffffffffffffffffffffffffffffffffff168152602001908152602001600020600087815260200190815260200160002060000160009054906101000a900473ffffffffffffffffffffffffffffffffffffffff1673ffffffffffffffffffffffffffffffffffffffff16146104b7576040517f628dbb9600000000000000000000000000000000000000000000000000000000815260040160405180910390fd5b8073__$2effe1973215a034e8e4a17bdeb5710028$__6333b988f590916040518263ffffffff1660e01b81526004016104f09190611af2565b60006040518083038186803b15801561050857600080fd5b505af415801561051c573d6000803e3d6000fd5b50505050600073ffffffffffffffffffffffffffffffffffffffff168373ffffffffffffffffffffffffffffffffffffffff160361059f5781341461059a5781346040517f04157bb40000000000000000000000000000000000000000000000000000000081526004016105919291906119c1565b60405180910390fd5b6105ac565b6105ab83333085611071565b5b600042905060006040518060c001604052803373ffffffffffffffffffffffffffffffffffffffff1681526020018381526020018673ffffffffffffffffffffffffffffffffffffffff168152602001858152602001600081526020016000815250905080600160008873ffffffffffffffffffffffffffffffffffffffff1673ffffffffffffffffffffffffffffffffffffffff168152602001908152602001600020600089815260200190815260200160002060008201518160000160006101000a81548173ffffffffffffffffffffffffffffffffffffffff021916908373ffffffffffffffffffffffffffffffffffffffff1602179055506020820151816001015560408201518160020160006101000a81548173ffffffffffffffffffffffffffffffffffffffff021916908373ffffffffffffffffffffffffffffffffffffffff160217905550606082015181600301556080820151816004015560a082015181600501559050506000600260008873ffffffffffffffffffffffffffffffffffffffff1673ffffffffffffffffffffffffffffffffffffffff1681526020019081526020016000206000898152602001908152602001600020905060005b84518110156107e8578185828151811061078e5761078d611b14565b5b602002602001015190806001815401808255809150506001900390600052602060002090600202016000909190919091506000820151816000015560208201518160010155505080806107e090611b72565b915050610771565b5060405180608001604052808381526020018581526020018873ffffffffffffffffffffffffffffffffffffffff1681526020018981525060405161082d9190611dd5565b60405180910390207fb16abbea6ba3704f5f2a80a6e86817bd96545258a4bbe645becfc85ab722675260405160405180910390a250505061086c6111aa565b5050505050565b6001602052816000526040600020602052806000526040600020600091509150508060000160009054906101000a900473ffffffffffffffffffffffffffffffffffffffff16908060010154908060020160009054906101000a900473ffffffffffffffffffffffffffffffffffffffff16908060030154908060040154908060050154905086565b6002602052826000526040600020602052816000526040600020818154811061092457600080fd5b906000526020600020906002020160009250925050508060000154908060010154905082565b6000806109556111c3565b90508060000160009054906101000a900473ffffffffffffffffffffffffffffffffffffffff1691505090565b600061098c6111eb565b905060008160000160089054906101000a900460ff1615905060008260000160009054906101000a900467ffffffffffffffff1690506000808267ffffffffffffffff161480156109da5750825b9050600060018367ffffffffffffffff16148015610a0f575060003073ffffffffffffffffffffffffffffffffffffffff163b145b905081158015610a1d575080155b15610a54576040517ff92ee8a900000000000000000000000000000000000000000000000000000000815260040160405180910390fd5b60018560000160006101000a81548167ffffffffffffffff021916908367ffffffffffffffff1602179055508315610aa45760018560000160086101000a81548160ff0219169083151502179055505b610aad86611213565b8315610b095760008560000160086101000a81548160ff0219169083151502179055507fc7f505b2f371ae2175ee4913f4499e1f2633a7b5936321eed1cdaeb6115181d26001604051610b009190611e45565b60405180910390a15b505050505050565b610b1961101a565b6000600160008473ffffffffffffffffffffffffffffffffffffffff1673ffffffffffffffffffffffffffffffffffffffff168152602001908152602001600020600083815260200190815260200160002090506000600260008573ffffffffffffffffffffffffffffffffffffffff1673ffffffffffffffffffffffffffffffffffffffff16815260200190815260200160002060008481526020019081526020016000209050600081805490501480610bdc57508080549050826005015410155b15610c13576040517f8bdb538100000000000000000000000000000000000000000000000000000000815260040160405180910390fd5b600080836001015490506000846005015490505b8380549050811015610cf557610e10848281548110610c4957610c48611b14565b5b906000526020600020906002020160000154610c659190611e60565b82610c709190611ea2565b9150814210610cf5576000612710858381548110610c9157610c90611b14565b5b9060005260206000209060020201600101548760030154610cb29190611e60565b610cbc9190611f05565b90508084610cca9190611ea2565b9350600182610cd99190611ea2565b8660050181905550508080610ced90611b72565b915050610c27565b5060008211610d30576040517f3507415000000000000000000000000000000000000000000000000000000000815260040160405180910390fd5b81846004016000828254610d449190611ea2565b92505081905550600073ffffffffffffffffffffffffffffffffffffffff168460020160009054906101000a900473ffffffffffffffffffffffffffffffffffffffff1673ffffffffffffffffffffffffffffffffffffffff1614610dd757610dd28460020160009054906101000a900473ffffffffffffffffffffffffffffffffffffffff168784611299565b610de2565b610de186836113cf565b5b818673ffffffffffffffffffffffffffffffffffffffff167fb21fb52d5749b80f3182f8c6992236b5e5576681880914484d7f4c9b062e619e60405160405180910390a350505050610e326111aa565b5050565b610e3e610ebc565b600073ffffffffffffffffffffffffffffffffffffffff168173ffffffffffffffffffffffffffffffffffffffff1603610eb05760006040517f1e4fbdf7000000000000000000000000000000000000000000000000000000008152600401610ea791906119ea565b60405180910390fd5b610eb981610f43565b50565b610ec46114cf565b73ffffffffffffffffffffffffffffffffffffffff16610ee261094a565b73ffffffffffffffffffffffffffffffffffffffff1614610f4157610f056114cf565b6040517f118cdaa7000000000000000000000000000000000000000000000000000000008152600401610f3891906119ea565b60405180910390fd5b565b6000610f4d6111c3565b905060008160000160009054906101000a900473ffffffffffffffffffffffffffffffffffffffff169050828260000160006101000a81548173ffffffffffffffffffffffffffffffffffffffff021916908373ffffffffffffffffffffffffffffffffffffffff1602179055508273ffffffffffffffffffffffffffffffffffffffff168173ffffffffffffffffffffffffffffffffffffffff167f8be0079c531659141344cd1fd0a4f28419497f9722a3daafe3b4186f6b6457e060405160405180910390a3505050565b60006110246114d7565b90506002816000015403611064576040517f3ee5aeb500000000000000000000000000000000000000000000000000000000815260040160405180910390fd5b6002816000018190555050565b6000808573ffffffffffffffffffffffffffffffffffffffff166323b872dd8686866040516024016110a593929190611f36565b6040516020818303038152906040529060e01b6020820180517bffffffffffffffffffffffffffffffffffffffffffffffffffffffff83818316178352505050506040516110f39190611fde565b6000604051808303816000865af19150503d8060008114611130576040519150601f19603f3d011682016040523d82523d6000602084013e611135565b606091505b50915091508180156111635750600081511480611162575080806020019051810190611161919061202d565b5b5b6111a2576040517f08c379a0000000000000000000000000000000000000000000000000000000008152600401611199906120dd565b60405180910390fd5b505050505050565b60006111b46114d7565b90506001816000018190555050565b60007f9016d09d72d40fdae2fd8ceac6b6234c7706214fd39c1cd1e609a0528c199300905090565b60007ff0c57e16840df040f15088dc2f81fe391c3923bec73e23a9662efc9c229c6a00905090565b61121b6114ff565b600073ffffffffffffffffffffffffffffffffffffffff168173ffffffffffffffffffffffffffffffffffffffff160361128d5760006040517f1e4fbdf700000000000000000000000000000000000000000000000000000000815260040161128491906119ea565b60405180910390fd5b61129681610f43565b50565b6000808473ffffffffffffffffffffffffffffffffffffffff1663a9059cbb85856040516024016112cb9291906120fd565b6040516020818303038152906040529060e01b6020820180517bffffffffffffffffffffffffffffffffffffffffffffffffffffffff83818316178352505050506040516113199190611fde565b6000604051808303816000865af19150503d8060008114611356576040519150601f19603f3d011682016040523d82523d6000602084013e61135b565b606091505b50915091508180156113895750600081511480611388575080806020019051810190611387919061202d565b5b5b6113c8576040517f08c379a00000000000000000000000000000000000000000000000000000000081526004016113bf90612198565b60405180910390fd5b5050505050565b60008273ffffffffffffffffffffffffffffffffffffffff1682600067ffffffffffffffff81111561140457611403611680565b5b6040519080825280601f01601f1916602001820160405280156114365781602001600182028036833780820191505090505b506040516114449190611fde565b60006040518083038185875af1925050503d8060008114611481576040519150601f19603f3d011682016040523d82523d6000602084013e611486565b606091505b50509050806114ca576040517f08c379a00000000000000000000000000000000000000000000000000000000081526004016114c19061222a565b60405180910390fd5b505050565b600033905090565b60007f9b779b17422d0df92223018b32b4d1fa46e071723d6817e2486d003becc55f00905090565b61150761153f565b61153d576040517fd7e6bcf800000000000000000000000000000000000000000000000000000000815260040160405180910390fd5b565b60006115496111eb565b60000160089054906101000a900460ff16905090565b6000604051905090565b600080fd5b600080fd5b600073ffffffffffffffffffffffffffffffffffffffff82169050919050565b600061159e82611573565b9050919050565b6115ae81611593565b81146115b957600080fd5b50565b6000813590506115cb816115a5565b92915050565b6000602082840312156115e7576115e6611569565b5b60006115f5848285016115bc565b91505092915050565b6000819050919050565b611611816115fe565b811461161c57600080fd5b50565b60008135905061162e81611608565b92915050565b6000819050919050565b61164781611634565b811461165257600080fd5b50565b6000813590506116648161163e565b92915050565b600080fd5b6000601f19601f8301169050919050565b7f4e487b7100000000000000000000000000000000000000000000000000000000600052604160045260246000fd5b6116b88261166f565b810181811067ffffffffffffffff821117156116d7576116d6611680565b5b80604052505050565b60006116ea61155f565b90506116f682826116af565b919050565b600067ffffffffffffffff82111561171657611715611680565b5b602082029050602081019050919050565b600080fd5b600080fd5b6000604082840312156117475761174661172c565b5b61175160406116e0565b9050600061176184828501611655565b600083015250602061177584828501611655565b60208301525092915050565b600061179461178f846116fb565b6116e0565b905080838252602082019050604084028301858111156117b7576117b6611727565b5b835b818110156117e057806117cc8882611731565b8452602084019350506040810190506117b9565b5050509392505050565b600082601f8301126117ff576117fe61166a565b5b813561180f848260208601611781565b91505092915050565b600080600080600060a0868803121561183457611833611569565b5b60006118428882890161161f565b9550506020611853888289016115bc565b9450506040611864888289016115bc565b935050606061187588828901611655565b925050608086013567ffffffffffffffff8111156118965761189561156e565b5b6118a2888289016117ea565b9150509295509295909350565b600080604083850312156118c6576118c5611569565b5b60006118d4858286016115bc565b92505060206118e58582860161161f565b9150509250929050565b6118f881611593565b82525050565b61190781611634565b82525050565b600060c08201905061192260008301896118ef565b61192f60208301886118fe565b61193c60408301876118ef565b61194960608301866118fe565b61195660808301856118fe565b61196360a08301846118fe565b979650505050505050565b60008060006060848603121561198757611986611569565b5b6000611995868287016115bc565b93505060206119a68682870161161f565b92505060406119b786828701611655565b9150509250925092565b60006040820190506119d660008301856118fe565b6119e360208301846118fe565b9392505050565b60006020820190506119ff60008301846118ef565b92915050565b600081519050919050565b600082825260208201905092915050565b6000819050602082019050919050565b611a3a81611634565b82525050565b604082016000820151611a566000850182611a31565b506020820151611a696020850182611a31565b50505050565b6000611a7b8383611a40565b60408301905092915050565b6000602082019050919050565b6000611a9f82611a05565b611aa98185611a10565b9350611ab483611a21565b8060005b83811015611ae5578151611acc8882611a6f565b9750611ad783611a87565b925050600181019050611ab8565b5085935050505092915050565b60006020820190508181036000830152611b0c8184611a94565b905092915050565b7f4e487b7100000000000000000000000000000000000000000000000000000000600052603260045260246000fd5b7f4e487b7100000000000000000000000000000000000000000000000000000000600052601160045260246000fd5b6000611b7d82611634565b91507fffffffffffffffffffffffffffffffffffffffffffffffffffffffffffffffff8203611baf57611bae611b43565b5b600182019050919050565b611bc381611593565b82525050565b6000611bd58383611bba565b60208301905092915050565b611bea81611634565b82525050565b6000611bfc8383611be1565b60208301905092915050565b600082016000820151611c1b8482611bc9565b9350506020820151611c2d8482611bf0565b9350506040820151611c3f8482611bc9565b9350506060820151611c518482611bf0565b9350506080820151611c638482611bf0565b93505060a0820151611c758482611bf0565b935050505050565b6000611c898383611c08565b60c08301905092915050565b600081905092915050565b600082016000820151611cb38482611bf0565b9350506020820151611cc58482611bf0565b935050505050565b6000611cd98383611ca0565b60408301905092915050565b6000611cf082611a05565b611cfa8185611c95565b9350611d0583611a21565b8060005b83811015611d36578151611d1d8882611ccd565b9750611d2883611a87565b925050600181019050611d09565b5085935050505092915050565b6000611d4f8383611ce5565b905092915050565b611d60816115fe565b82525050565b6000611d728383611d57565b60208301905092915050565b60008083016000830151611d928582611c7d565b9450506020830151611da48582611d43565b9450506040830151611db68582611bc9565b9450506060830151611dc88582611d66565b9450508391505092915050565b6000611de18284611d7e565b915081905092915050565b6000819050919050565b600067ffffffffffffffff82169050919050565b6000819050919050565b6000611e2f611e2a611e2584611dec565b611e0a565b611df6565b9050919050565b611e3f81611e14565b82525050565b6000602082019050611e5a6000830184611e36565b92915050565b6000611e6b82611634565b9150611e7683611634565b9250828202611e8481611634565b91508282048414831517611e9b57611e9a611b43565b5b5092915050565b6000611ead82611634565b9150611eb883611634565b9250828201905080821115611ed057611ecf611b43565b5b92915050565b7f4e487b7100000000000000000000000000000000000000000000000000000000600052601260045260246000fd5b6000611f1082611634565b9150611f1b83611634565b925082611f2b57611f2a611ed6565b5b828204905092915050565b6000606082019050611f4b60008301866118ef565b611f5860208301856118ef565b611f6560408301846118fe565b949350505050565b600081519050919050565b600081905092915050565b60005b83811015611fa1578082015181840152602081019050611f86565b60008484015250505050565b6000611fb882611f6d565b611fc28185611f78565b9350611fd2818560208601611f83565b80840191505092915050565b6000611fea8284611fad565b915081905092915050565b60008115159050919050565b61200a81611ff5565b811461201557600080fd5b50565b60008151905061202781612001565b92915050565b60006020828403121561204357612042611569565b5b600061205184828501612018565b91505092915050565b600082825260208201905092915050565b7f5472616e7366657248656c7065723a3a7472616e7366657246726f6d3a20747260008201527f616e7366657246726f6d206661696c6564000000000000000000000000000000602082015250565b60006120c760318361205a565b91506120d28261206b565b604082019050919050565b600060208201905081810360008301526120f6816120ba565b9050919050565b600060408201905061211260008301856118ef565b61211f60208301846118fe565b9392505050565b7f5472616e7366657248656c7065723a3a736166655472616e736665723a20747260008201527f616e73666572206661696c656400000000000000000000000000000000000000602082015250565b6000612182602d8361205a565b915061218d82612126565b604082019050919050565b600060208201905081810360008301526121b181612175565b9050919050565b7f5472616e7366657248656c7065723a3a736166655472616e736665724554483a60008201527f20455448207472616e73666572206661696c6564000000000000000000000000602082015250565b600061221460348361205a565b915061221f826121b8565b604082019050919050565b6000602082019050818103600083015261224381612207565b905091905056fea264697066735822122090401ec37645ef79ce5a8da9193d012b41f622a81a24562eb36e6afce9c821a064736f6c63430008140033","opcodes":"PUSH1 0x80 PUSH1 0x40 MSTORE CALLVALUE DUP1 ISZERO PUSH2 0x10 JUMPI PUSH1 0x0 DUP1 REVERT JUMPDEST POP PUSH2 0x2280 DUP1 PUSH2 0x20 PUSH1 0x0 CODECOPY PUSH1 0x0 RETURN INVALID PUSH1 0x80 PUSH1 0x40 MSTORE PUSH1 0x4 CALLDATASIZE LT PUSH2 0x8A JUMPI PUSH1 0x0 CALLDATALOAD PUSH1 0xE0 SHR DUP1 PUSH4 0x82A969E2 GT PUSH2 0x59 JUMPI DUP1 PUSH4 0x82A969E2 EQ PUSH2 0x1FA JUMPI DUP1 PUSH4 0x8DA5CB5B EQ PUSH2 0x238 JUMPI DUP1 PUSH4 0xC4D66DE8 EQ PUSH2 0x263 JUMPI DUP1 PUSH4 0xD7C2EEC7 EQ PUSH2 0x28C JUMPI DUP1 PUSH4 0xF2FDE38B EQ PUSH2 0x2B5 JUMPI PUSH2 0x157 JUMP JUMPDEST DUP1 PUSH4 0x704B6C02 EQ PUSH2 0x15C JUMPI DUP1 PUSH4 0x715018A6 EQ PUSH2 0x185 JUMPI DUP1 PUSH4 0x7623F00E EQ PUSH2 0x19C JUMPI DUP1 PUSH4 0x7B00FFAD EQ PUSH2 0x1B8 JUMPI PUSH2 0x157 JUMP JUMPDEST CALLDATASIZE PUSH2 0x157 JUMPI PUSH1 0x0 DUP1 CALLER PUSH20 0xFFFFFFFFFFFFFFFFFFFFFFFFFFFFFFFFFFFFFFFF AND PUSH20 0xFFFFFFFFFFFFFFFFFFFFFFFFFFFFFFFFFFFFFFFF AND DUP2 MSTORE PUSH1 0x20 ADD SWAP1 DUP2 MSTORE PUSH1 0x20 ADD PUSH1 0x0 KECCAK256 PUSH1 0x0 SWAP1 SLOAD SWAP1 PUSH2 0x100 EXP SWAP1 DIV PUSH1 0xFF AND PUSH2 0x111 JUMPI PUSH1 0x40 MLOAD PUSH32 0x59BCFBB00000000000000000000000000000000000000000000000000000000 DUP2 MSTORE PUSH1 0x4 ADD PUSH1 0x40 MLOAD DUP1 SWAP2 SUB SWAP1 REVERT JUMPDEST CALLVALUE CALLER PUSH20 0xFFFFFFFFFFFFFFFFFFFFFFFFFFFFFFFFFFFFFFFF AND PUSH32 0x88A5966D370B9919B20F3E2C13FF65706F196A4E32CC2C12BF57088F88525874 PUSH1 0x40 MLOAD PUSH1 0x40 MLOAD DUP1 SWAP2 SUB SWAP1 LOG3 STOP JUMPDEST PUSH1 0x0 DUP1 REVERT JUMPDEST CALLVALUE DUP1 ISZERO PUSH2 0x168 JUMPI PUSH1 0x0 DUP1 REVERT JUMPDEST POP PUSH2 0x183 PUSH1 0x4 DUP1 CALLDATASIZE SUB DUP2 ADD SWAP1 PUSH2 0x17E SWAP2 SWAP1 PUSH2 0x15D1 JUMP JUMPDEST PUSH2 0x2DE JUMP JUMPDEST STOP JUMPDEST CALLVALUE DUP1 ISZERO PUSH2 0x191 JUMPI PUSH1 0x0 DUP1 REVERT JUMPDEST POP PUSH2 0x19A PUSH2 0x340 JUMP JUMPDEST STOP JUMPDEST PUSH2 0x1B6 PUSH1 0x4 DUP1 CALLDATASIZE SUB DUP2 ADD SWAP1 PUSH2 0x1B1 SWAP2 SWAP1 PUSH2 0x1818 JUMP JUMPDEST PUSH2 0x354 JUMP JUMPDEST STOP JUMPDEST CALLVALUE DUP1 ISZERO PUSH2 0x1C4 JUMPI PUSH1 0x0 DUP1 REVERT JUMPDEST POP PUSH2 0x1DF PUSH1 0x4 DUP1 CALLDATASIZE SUB DUP2 ADD SWAP1 PUSH2 0x1DA SWAP2 SWAP1 PUSH2 0x18AF JUMP JUMPDEST PUSH2 0x873 JUMP JUMPDEST PUSH1 0x40 MLOAD PUSH2 0x1F1 SWAP7 SWAP6 SWAP5 SWAP4 SWAP3 SWAP2 SWAP1 PUSH2 0x190D JUMP JUMPDEST PUSH1 0x40 MLOAD DUP1 SWAP2 SUB SWAP1 RETURN JUMPDEST CALLVALUE DUP1 ISZERO PUSH2 0x206 JUMPI PUSH1 0x0 DUP1 REVERT JUMPDEST POP PUSH2 0x221 PUSH1 0x4 DUP1 CALLDATASIZE SUB DUP2 ADD SWAP1 PUSH2 0x21C SWAP2 SWAP1 PUSH2 0x196E JUMP JUMPDEST PUSH2 0x8FC JUMP JUMPDEST PUSH1 0x40 MLOAD PUSH2 0x22F SWAP3 SWAP2 SWAP1 PUSH2 0x19C1 JUMP JUMPDEST PUSH1 0x40 MLOAD DUP1 SWAP2 SUB SWAP1 RETURN JUMPDEST CALLVALUE DUP1 ISZERO PUSH2 0x244 JUMPI PUSH1 0x0 DUP1 REVERT JUMPDEST POP PUSH2 0x24D PUSH2 0x94A JUMP JUMPDEST PUSH1 0x40 MLOAD PUSH2 0x25A SWAP2 SWAP1 PUSH2 0x19EA JUMP JUMPDEST PUSH1 0x40 MLOAD DUP1 SWAP2 SUB SWAP1 RETURN JUMPDEST CALLVALUE DUP1 ISZERO PUSH2 0x26F JUMPI PUSH1 0x0 DUP1 REVERT JUMPDEST POP PUSH2 0x28A PUSH1 0x4 DUP1 CALLDATASIZE SUB DUP2 ADD SWAP1 PUSH2 0x285 SWAP2 SWAP1 PUSH2 0x15D1 JUMP JUMPDEST PUSH2 0x982 JUMP JUMPDEST STOP JUMPDEST CALLVALUE DUP1 ISZERO PUSH2 0x298 JUMPI PUSH1 0x0 DUP1 REVERT JUMPDEST POP PUSH2 0x2B3 PUSH1 0x4 DUP1 CALLDATASIZE SUB DUP2 ADD SWAP1 PUSH2 0x2AE SWAP2 SWAP1 PUSH2 0x18AF JUMP JUMPDEST PUSH2 0xB11 JUMP JUMPDEST STOP JUMPDEST CALLVALUE DUP1 ISZERO PUSH2 0x2C1 JUMPI PUSH1 0x0 DUP1 REVERT JUMPDEST POP PUSH2 0x2DC PUSH1 0x4 DUP1 CALLDATASIZE SUB DUP2 ADD SWAP1 PUSH2 0x2D7 SWAP2 SWAP1 PUSH2 0x15D1 JUMP JUMPDEST PUSH2 0xE36 JUMP JUMPDEST STOP JUMPDEST PUSH2 0x2E6 PUSH2 0xEBC JUMP JUMPDEST PUSH1 0x1 PUSH1 0x0 DUP1 DUP4 PUSH20 0xFFFFFFFFFFFFFFFFFFFFFFFFFFFFFFFFFFFFFFFF AND PUSH20 0xFFFFFFFFFFFFFFFFFFFFFFFFFFFFFFFFFFFFFFFF AND DUP2 MSTORE PUSH1 0x20 ADD SWAP1 DUP2 MSTORE PUSH1 0x20 ADD PUSH1 0x0 KECCAK256 PUSH1 0x0 PUSH2 0x100 EXP DUP2 SLOAD DUP2 PUSH1 0xFF MUL NOT AND SWAP1 DUP4 ISZERO ISZERO MUL OR SWAP1 SSTORE POP POP JUMP JUMPDEST PUSH2 0x348 PUSH2 0xEBC JUMP JUMPDEST PUSH2 0x352 PUSH1 0x0 PUSH2 0xF43 JUMP JUMPDEST JUMP JUMPDEST PUSH2 0x35C PUSH2 0x101A JUMP JUMPDEST PUSH1 0x0 DUP1 CALLER PUSH20 0xFFFFFFFFFFFFFFFFFFFFFFFFFFFFFFFFFFFFFFFF AND PUSH20 0xFFFFFFFFFFFFFFFFFFFFFFFFFFFFFFFFFFFFFFFF AND DUP2 MSTORE PUSH1 0x20 ADD SWAP1 DUP2 MSTORE PUSH1 0x20 ADD PUSH1 0x0 KECCAK256 PUSH1 0x0 SWAP1 SLOAD SWAP1 PUSH2 0x100 EXP SWAP1 DIV PUSH1 0xFF AND PUSH2 0x3DE JUMPI PUSH1 0x40 MLOAD PUSH32 0x59BCFBB00000000000000000000000000000000000000000000000000000000 DUP2 MSTORE PUSH1 0x4 ADD PUSH1 0x40 MLOAD DUP1 SWAP2 SUB SWAP1 REVERT JUMPDEST PUSH1 0x0 PUSH20 0xFFFFFFFFFFFFFFFFFFFFFFFFFFFFFFFFFFFFFFFF AND PUSH1 0x1 PUSH1 0x0 DUP7 PUSH20 0xFFFFFFFFFFFFFFFFFFFFFFFFFFFFFFFFFFFFFFFF AND PUSH20 0xFFFFFFFFFFFFFFFFFFFFFFFFFFFFFFFFFFFFFFFF AND DUP2 MSTORE PUSH1 0x20 ADD SWAP1 DUP2 MSTORE PUSH1 0x20 ADD PUSH1 0x0 KECCAK256 PUSH1 0x0 DUP8 DUP2 MSTORE PUSH1 0x20 ADD SWAP1 DUP2 MSTORE PUSH1 0x20 ADD PUSH1 0x0 KECCAK256 PUSH1 0x0 ADD PUSH1 0x0 SWAP1 SLOAD SWAP1 PUSH2 0x100 EXP SWAP1 DIV PUSH20 0xFFFFFFFFFFFFFFFFFFFFFFFFFFFFFFFFFFFFFFFF AND PUSH20 0xFFFFFFFFFFFFFFFFFFFFFFFFFFFFFFFFFFFFFFFF AND EQ PUSH2 0x4B7 JUMPI PUSH1 0x40 MLOAD PUSH32 0x628DBB9600000000000000000000000000000000000000000000000000000000 DUP2 MSTORE PUSH1 0x4 ADD PUSH1 0x40 MLOAD DUP1 SWAP2 SUB SWAP1 REVERT JUMPDEST DUP1 PUSH20 0x0 PUSH4 0x33B988F5 SWAP1 SWAP2 PUSH1 0x40 MLOAD DUP3 PUSH4 0xFFFFFFFF AND PUSH1 0xE0 SHL DUP2 MSTORE PUSH1 0x4 ADD PUSH2 0x4F0 SWAP2 SWAP1 PUSH2 0x1AF2 JUMP JUMPDEST PUSH1 0x0 PUSH1 0x40 MLOAD DUP1 DUP4 SUB DUP2 DUP7 DUP1 EXTCODESIZE ISZERO DUP1 ISZERO PUSH2 0x508 JUMPI PUSH1 0x0 DUP1 REVERT JUMPDEST POP GAS DELEGATECALL ISZERO DUP1 ISZERO PUSH2 0x51C JUMPI RETURNDATASIZE PUSH1 0x0 DUP1 RETURNDATACOPY RETURNDATASIZE PUSH1 0x0 REVERT JUMPDEST POP POP POP POP PUSH1 0x0 PUSH20 0xFFFFFFFFFFFFFFFFFFFFFFFFFFFFFFFFFFFFFFFF AND DUP4 PUSH20 0xFFFFFFFFFFFFFFFFFFFFFFFFFFFFFFFFFFFFFFFF AND SUB PUSH2 0x59F JUMPI DUP2 CALLVALUE EQ PUSH2 0x59A JUMPI DUP2 CALLVALUE PUSH1 0x40 MLOAD PUSH32 0x4157BB400000000000000000000000000000000000000000000000000000000 DUP2 MSTORE PUSH1 0x4 ADD PUSH2 0x591 SWAP3 SWAP2 SWAP1 PUSH2 0x19C1 JUMP JUMPDEST PUSH1 0x40 MLOAD DUP1 SWAP2 SUB SWAP1 REVERT JUMPDEST PUSH2 0x5AC JUMP JUMPDEST PUSH2 0x5AB DUP4 CALLER ADDRESS DUP6 PUSH2 0x1071 JUMP JUMPDEST JUMPDEST PUSH1 0x0 TIMESTAMP SWAP1 POP PUSH1 0x0 PUSH1 0x40 MLOAD DUP1 PUSH1 0xC0 ADD PUSH1 0x40 MSTORE DUP1 CALLER PUSH20 0xFFFFFFFFFFFFFFFFFFFFFFFFFFFFFFFFFFFFFFFF AND DUP2 MSTORE PUSH1 0x20 ADD DUP4 DUP2 MSTORE PUSH1 0x20 ADD DUP7 PUSH20 0xFFFFFFFFFFFFFFFFFFFFFFFFFFFFFFFFFFFFFFFF AND DUP2 MSTORE PUSH1 0x20 ADD DUP6 DUP2 MSTORE PUSH1 0x20 ADD PUSH1 0x0 DUP2 MSTORE PUSH1 0x20 ADD PUSH1 0x0 DUP2 MSTORE POP SWAP1 POP DUP1 PUSH1 0x1 PUSH1 0x0 DUP9 PUSH20 0xFFFFFFFFFFFFFFFFFFFFFFFFFFFFFFFFFFFFFFFF AND PUSH20 0xFFFFFFFFFFFFFFFFFFFFFFFFFFFFFFFFFFFFFFFF AND DUP2 MSTORE PUSH1 0x20 ADD SWAP1 DUP2 MSTORE PUSH1 0x20 ADD PUSH1 0x0 KECCAK256 PUSH1 0x0 DUP10 DUP2 MSTORE PUSH1 0x20 ADD SWAP1 DUP2 MSTORE PUSH1 0x20 ADD PUSH1 0x0 KECCAK256 PUSH1 0x0 DUP3 ADD MLOAD DUP2 PUSH1 0x0 ADD PUSH1 0x0 PUSH2 0x100 EXP DUP2 SLOAD DUP2 PUSH20 0xFFFFFFFFFFFFFFFFFFFFFFFFFFFFFFFFFFFFFFFF MUL NOT AND SWAP1 DUP4 PUSH20 0xFFFFFFFFFFFFFFFFFFFFFFFFFFFFFFFFFFFFFFFF AND MUL OR SWAP1 SSTORE POP PUSH1 0x20 DUP3 ADD MLOAD DUP2 PUSH1 0x1 ADD SSTORE PUSH1 0x40 DUP3 ADD MLOAD DUP2 PUSH1 0x2 ADD PUSH1 0x0 PUSH2 0x100 EXP DUP2 SLOAD DUP2 PUSH20 0xFFFFFFFFFFFFFFFFFFFFFFFFFFFFFFFFFFFFFFFF MUL NOT AND SWAP1 DUP4 PUSH20 0xFFFFFFFFFFFFFFFFFFFFFFFFFFFFFFFFFFFFFFFF AND MUL OR SWAP1 SSTORE POP PUSH1 0x60 DUP3 ADD MLOAD DUP2 PUSH1 0x3 ADD SSTORE PUSH1 0x80 DUP3 ADD MLOAD DUP2 PUSH1 0x4 ADD SSTORE PUSH1 0xA0 DUP3 ADD MLOAD DUP2 PUSH1 0x5 ADD SSTORE SWAP1 POP POP PUSH1 0x0 PUSH1 0x2 PUSH1 0x0 DUP9 PUSH20 0xFFFFFFFFFFFFFFFFFFFFFFFFFFFFFFFFFFFFFFFF AND PUSH20 0xFFFFFFFFFFFFFFFFFFFFFFFFFFFFFFFFFFFFFFFF AND DUP2 MSTORE PUSH1 0x20 ADD SWAP1 DUP2 MSTORE PUSH1 0x20 ADD PUSH1 0x0 KECCAK256 PUSH1 0x0 DUP10 DUP2 MSTORE PUSH1 0x20 ADD SWAP1 DUP2 MSTORE PUSH1 0x20 ADD PUSH1 0x0 KECCAK256 SWAP1 POP PUSH1 0x0 JUMPDEST DUP5 MLOAD DUP2 LT ISZERO PUSH2 0x7E8 JUMPI DUP2 DUP6 DUP3 DUP2 MLOAD DUP2 LT PUSH2 0x78E JUMPI PUSH2 0x78D PUSH2 0x1B14 JUMP JUMPDEST JUMPDEST PUSH1 0x20 MUL PUSH1 0x20 ADD ADD MLOAD SWAP1 DUP1 PUSH1 0x1 DUP2 SLOAD ADD DUP1 DUP3 SSTORE DUP1 SWAP2 POP POP PUSH1 0x1 SWAP1 SUB SWAP1 PUSH1 0x0 MSTORE PUSH1 0x20 PUSH1 0x0 KECCAK256 SWAP1 PUSH1 0x2 MUL ADD PUSH1 0x0 SWAP1 SWAP2 SWAP1 SWAP2 SWAP1 SWAP2 POP PUSH1 0x0 DUP3 ADD MLOAD DUP2 PUSH1 0x0 ADD SSTORE PUSH1 0x20 DUP3 ADD MLOAD DUP2 PUSH1 0x1 ADD SSTORE POP POP DUP1 DUP1 PUSH2 0x7E0 SWAP1 PUSH2 0x1B72 JUMP JUMPDEST SWAP2 POP POP PUSH2 0x771 JUMP JUMPDEST POP PUSH1 0x40 MLOAD DUP1 PUSH1 0x80 ADD PUSH1 0x40 MSTORE DUP1 DUP4 DUP2 MSTORE PUSH1 0x20 ADD DUP6 DUP2 MSTORE PUSH1 0x20 ADD DUP9 PUSH20 0xFFFFFFFFFFFFFFFFFFFFFFFFFFFFFFFFFFFFFFFF AND DUP2 MSTORE PUSH1 0x20 ADD DUP10 DUP2 MSTORE POP PUSH1 0x40 MLOAD PUSH2 0x82D SWAP2 SWAP1 PUSH2 0x1DD5 JUMP JUMPDEST PUSH1 0x40 MLOAD DUP1 SWAP2 SUB SWAP1 KECCAK256 PUSH32 0xB16ABBEA6BA3704F5F2A80A6E86817BD96545258A4BBE645BECFC85AB7226752 PUSH1 0x40 MLOAD PUSH1 0x40 MLOAD DUP1 SWAP2 SUB SWAP1 LOG2 POP POP POP PUSH2 0x86C PUSH2 0x11AA JUMP JUMPDEST POP POP POP POP POP JUMP JUMPDEST PUSH1 0x1 PUSH1 0x20 MSTORE DUP2 PUSH1 0x0 MSTORE PUSH1 0x40 PUSH1 0x0 KECCAK256 PUSH1 0x20 MSTORE DUP1 PUSH1 0x0 MSTORE PUSH1 0x40 PUSH1 0x0 KECCAK256 PUSH1 0x0 SWAP2 POP SWAP2 POP POP DUP1 PUSH1 0x0 ADD PUSH1 0x0 SWAP1 SLOAD SWAP1 PUSH2 0x100 EXP SWAP1 DIV PUSH20 0xFFFFFFFFFFFFFFFFFFFFFFFFFFFFFFFFFFFFFFFF AND SWAP1 DUP1 PUSH1 0x1 ADD SLOAD SWAP1 DUP1 PUSH1 0x2 ADD PUSH1 0x0 SWAP1 SLOAD SWAP1 PUSH2 0x100 EXP SWAP1 DIV PUSH20 0xFFFFFFFFFFFFFFFFFFFFFFFFFFFFFFFFFFFFFFFF AND SWAP1 DUP1 PUSH1 0x3 ADD SLOAD SWAP1 DUP1 PUSH1 0x4 ADD SLOAD SWAP1 DUP1 PUSH1 0x5 ADD SLOAD SWAP1 POP DUP7 JUMP JUMPDEST PUSH1 0x2 PUSH1 0x20 MSTORE DUP3 PUSH1 0x0 MSTORE PUSH1 0x40 PUSH1 0x0 KECCAK256 PUSH1 0x20 MSTORE DUP2 PUSH1 0x0 MSTORE PUSH1 0x40 PUSH1 0x0 KECCAK256 DUP2 DUP2 SLOAD DUP2 LT PUSH2 0x924 JUMPI PUSH1 0x0 DUP1 REVERT JUMPDEST SWAP1 PUSH1 0x0 MSTORE PUSH1 0x20 PUSH1 0x0 KECCAK256 SWAP1 PUSH1 0x2 MUL ADD PUSH1 0x0 SWAP3 POP SWAP3 POP POP POP DUP1 PUSH1 0x0 ADD SLOAD SWAP1 DUP1 PUSH1 0x1 ADD SLOAD SWAP1 POP DUP3 JUMP JUMPDEST PUSH1 0x0 DUP1 PUSH2 0x955 PUSH2 0x11C3 JUMP JUMPDEST SWAP1 POP DUP1 PUSH1 0x0 ADD PUSH1 0x0 SWAP1 SLOAD SWAP1 PUSH2 0x100 EXP SWAP1 DIV PUSH20 0xFFFFFFFFFFFFFFFFFFFFFFFFFFFFFFFFFFFFFFFF AND SWAP2 POP POP SWAP1 JUMP JUMPDEST PUSH1 0x0 PUSH2 0x98C PUSH2 0x11EB JUMP JUMPDEST SWAP1 POP PUSH1 0x0 DUP2 PUSH1 0x0 ADD PUSH1 0x8 SWAP1 SLOAD SWAP1 PUSH2 0x100 EXP SWAP1 DIV PUSH1 0xFF AND ISZERO SWAP1 POP PUSH1 0x0 DUP3 PUSH1 0x0 ADD PUSH1 0x0 SWAP1 SLOAD SWAP1 PUSH2 0x100 EXP SWAP1 DIV PUSH8 0xFFFFFFFFFFFFFFFF AND SWAP1 POP PUSH1 0x0 DUP1 DUP3 PUSH8 0xFFFFFFFFFFFFFFFF AND EQ DUP1 ISZERO PUSH2 0x9DA JUMPI POP DUP3 JUMPDEST SWAP1 POP PUSH1 0x0 PUSH1 0x1 DUP4 PUSH8 0xFFFFFFFFFFFFFFFF AND EQ DUP1 ISZERO PUSH2 0xA0F JUMPI POP PUSH1 0x0 ADDRESS PUSH20 0xFFFFFFFFFFFFFFFFFFFFFFFFFFFFFFFFFFFFFFFF AND EXTCODESIZE EQ JUMPDEST SWAP1 POP DUP2 ISZERO DUP1 ISZERO PUSH2 0xA1D JUMPI POP DUP1 ISZERO JUMPDEST ISZERO PUSH2 0xA54 JUMPI PUSH1 0x40 MLOAD PUSH32 0xF92EE8A900000000000000000000000000000000000000000000000000000000 DUP2 MSTORE PUSH1 0x4 ADD PUSH1 0x40 MLOAD DUP1 SWAP2 SUB SWAP1 REVERT JUMPDEST PUSH1 0x1 DUP6 PUSH1 0x0 ADD PUSH1 0x0 PUSH2 0x100 EXP DUP2 SLOAD DUP2 PUSH8 0xFFFFFFFFFFFFFFFF MUL NOT AND SWAP1 DUP4 PUSH8 0xFFFFFFFFFFFFFFFF AND MUL OR SWAP1 SSTORE POP DUP4 ISZERO PUSH2 0xAA4 JUMPI PUSH1 0x1 DUP6 PUSH1 0x0 ADD PUSH1 0x8 PUSH2 0x100 EXP DUP2 SLOAD DUP2 PUSH1 0xFF MUL NOT AND SWAP1 DUP4 ISZERO ISZERO MUL OR SWAP1 SSTORE POP JUMPDEST PUSH2 0xAAD DUP7 PUSH2 0x1213 JUMP JUMPDEST DUP4 ISZERO PUSH2 0xB09 JUMPI PUSH1 0x0 DUP6 PUSH1 0x0 ADD PUSH1 0x8 PUSH2 0x100 EXP DUP2 SLOAD DUP2 PUSH1 0xFF MUL NOT AND SWAP1 DUP4 ISZERO ISZERO MUL OR SWAP1 SSTORE POP PUSH32 0xC7F505B2F371AE2175EE4913F4499E1F2633A7B5936321EED1CDAEB6115181D2 PUSH1 0x1 PUSH1 0x40 MLOAD PUSH2 0xB00 SWAP2 SWAP1 PUSH2 0x1E45 JUMP JUMPDEST PUSH1 0x40 MLOAD DUP1 SWAP2 SUB SWAP1 LOG1 JUMPDEST POP POP POP POP POP POP JUMP JUMPDEST PUSH2 0xB19 PUSH2 0x101A JUMP JUMPDEST PUSH1 0x0 PUSH1 0x1 PUSH1 0x0 DUP5 PUSH20 0xFFFFFFFFFFFFFFFFFFFFFFFFFFFFFFFFFFFFFFFF AND PUSH20 0xFFFFFFFFFFFFFFFFFFFFFFFFFFFFFFFFFFFFFFFF AND DUP2 MSTORE PUSH1 0x20 ADD SWAP1 DUP2 MSTORE PUSH1 0x20 ADD PUSH1 0x0 KECCAK256 PUSH1 0x0 DUP4 DUP2 MSTORE PUSH1 0x20 ADD SWAP1 DUP2 MSTORE PUSH1 0x20 ADD PUSH1 0x0 KECCAK256 SWAP1 POP PUSH1 0x0 PUSH1 0x2 PUSH1 0x0 DUP6 PUSH20 0xFFFFFFFFFFFFFFFFFFFFFFFFFFFFFFFFFFFFFFFF AND PUSH20 0xFFFFFFFFFFFFFFFFFFFFFFFFFFFFFFFFFFFFFFFF AND DUP2 MSTORE PUSH1 0x20 ADD SWAP1 DUP2 MSTORE PUSH1 0x20 ADD PUSH1 0x0 KECCAK256 PUSH1 0x0 DUP5 DUP2 MSTORE PUSH1 0x20 ADD SWAP1 DUP2 MSTORE PUSH1 0x20 ADD PUSH1 0x0 KECCAK256 SWAP1 POP PUSH1 0x0 DUP2 DUP1 SLOAD SWAP1 POP EQ DUP1 PUSH2 0xBDC JUMPI POP DUP1 DUP1 SLOAD SWAP1 POP DUP3 PUSH1 0x5 ADD SLOAD LT ISZERO JUMPDEST ISZERO PUSH2 0xC13 JUMPI PUSH1 0x40 MLOAD PUSH32 0x8BDB538100000000000000000000000000000000000000000000000000000000 DUP2 MSTORE PUSH1 0x4 ADD PUSH1 0x40 MLOAD DUP1 SWAP2 SUB SWAP1 REVERT JUMPDEST PUSH1 0x0 DUP1 DUP4 PUSH1 0x1 ADD SLOAD SWAP1 POP PUSH1 0x0 DUP5 PUSH1 0x5 ADD SLOAD SWAP1 POP JUMPDEST DUP4 DUP1 SLOAD SWAP1 POP DUP2 LT ISZERO PUSH2 0xCF5 JUMPI PUSH2 0xE10 DUP5 DUP3 DUP2 SLOAD DUP2 LT PUSH2 0xC49 JUMPI PUSH2 0xC48 PUSH2 0x1B14 JUMP JUMPDEST JUMPDEST SWAP1 PUSH1 0x0 MSTORE PUSH1 0x20 PUSH1 0x0 KECCAK256 SWAP1 PUSH1 0x2 MUL ADD PUSH1 0x0 ADD SLOAD PUSH2 0xC65 SWAP2 SWAP1 PUSH2 0x1E60 JUMP JUMPDEST DUP3 PUSH2 0xC70 SWAP2 SWAP1 PUSH2 0x1EA2 JUMP JUMPDEST SWAP2 POP DUP2 TIMESTAMP LT PUSH2 0xCF5 JUMPI PUSH1 0x0 PUSH2 0x2710 DUP6 DUP4 DUP2 SLOAD DUP2 LT PUSH2 0xC91 JUMPI PUSH2 0xC90 PUSH2 0x1B14 JUMP JUMPDEST JUMPDEST SWAP1 PUSH1 0x0 MSTORE PUSH1 0x20 PUSH1 0x0 KECCAK256 SWAP1 PUSH1 0x2 MUL ADD PUSH1 0x1 ADD SLOAD DUP8 PUSH1 0x3 ADD SLOAD PUSH2 0xCB2 SWAP2 SWAP1 PUSH2 0x1E60 JUMP JUMPDEST PUSH2 0xCBC SWAP2 SWAP1 PUSH2 0x1F05 JUMP JUMPDEST SWAP1 POP DUP1 DUP5 PUSH2 0xCCA SWAP2 SWAP1 PUSH2 0x1EA2 JUMP JUMPDEST SWAP4 POP PUSH1 0x1 DUP3 PUSH2 0xCD9 SWAP2 SWAP1 PUSH2 0x1EA2 JUMP JUMPDEST DUP7 PUSH1 0x5 ADD DUP2 SWAP1 SSTORE POP POP DUP1 DUP1 PUSH2 0xCED SWAP1 PUSH2 0x1B72 JUMP JUMPDEST SWAP2 POP POP PUSH2 0xC27 JUMP JUMPDEST POP PUSH1 0x0 DUP3 GT PUSH2 0xD30 JUMPI PUSH1 0x40 MLOAD PUSH32 0x3507415000000000000000000000000000000000000000000000000000000000 DUP2 MSTORE PUSH1 0x4 ADD PUSH1 0x40 MLOAD DUP1 SWAP2 SUB SWAP1 REVERT JUMPDEST DUP2 DUP5 PUSH1 0x4 ADD PUSH1 0x0 DUP3 DUP3 SLOAD PUSH2 0xD44 SWAP2 SWAP1 PUSH2 0x1EA2 JUMP JUMPDEST SWAP3 POP POP DUP2 SWAP1 SSTORE POP PUSH1 0x0 PUSH20 0xFFFFFFFFFFFFFFFFFFFFFFFFFFFFFFFFFFFFFFFF AND DUP5 PUSH1 0x2 ADD PUSH1 0x0 SWAP1 SLOAD SWAP1 PUSH2 0x100 EXP SWAP1 DIV PUSH20 0xFFFFFFFFFFFFFFFFFFFFFFFFFFFFFFFFFFFFFFFF AND PUSH20 0xFFFFFFFFFFFFFFFFFFFFFFFFFFFFFFFFFFFFFFFF AND EQ PUSH2 0xDD7 JUMPI PUSH2 0xDD2 DUP5 PUSH1 0x2 ADD PUSH1 0x0 SWAP1 SLOAD SWAP1 PUSH2 0x100 EXP SWAP1 DIV PUSH20 0xFFFFFFFFFFFFFFFFFFFFFFFFFFFFFFFFFFFFFFFF AND DUP8 DUP5 PUSH2 0x1299 JUMP JUMPDEST PUSH2 0xDE2 JUMP JUMPDEST PUSH2 0xDE1 DUP7 DUP4 PUSH2 0x13CF JUMP JUMPDEST JUMPDEST DUP2 DUP7 PUSH20 0xFFFFFFFFFFFFFFFFFFFFFFFFFFFFFFFFFFFFFFFF AND PUSH32 0xB21FB52D5749B80F3182F8C6992236B5E5576681880914484D7F4C9B062E619E PUSH1 0x40 MLOAD PUSH1 0x40 MLOAD DUP1 SWAP2 SUB SWAP1 LOG3 POP POP POP POP PUSH2 0xE32 PUSH2 0x11AA JUMP JUMPDEST POP POP JUMP JUMPDEST PUSH2 0xE3E PUSH2 0xEBC JUMP JUMPDEST PUSH1 0x0 PUSH20 0xFFFFFFFFFFFFFFFFFFFFFFFFFFFFFFFFFFFFFFFF AND DUP2 PUSH20 0xFFFFFFFFFFFFFFFFFFFFFFFFFFFFFFFFFFFFFFFF AND SUB PUSH2 0xEB0 JUMPI PUSH1 0x0 PUSH1 0x40 MLOAD PUSH32 0x1E4FBDF700000000000000000000000000000000000000000000000000000000 DUP2 MSTORE PUSH1 0x4 ADD PUSH2 0xEA7 SWAP2 SWAP1 PUSH2 0x19EA JUMP JUMPDEST PUSH1 0x40 MLOAD DUP1 SWAP2 SUB SWAP1 REVERT JUMPDEST PUSH2 0xEB9 DUP2 PUSH2 0xF43 JUMP JUMPDEST POP JUMP JUMPDEST PUSH2 0xEC4 PUSH2 0x14CF JUMP JUMPDEST PUSH20 0xFFFFFFFFFFFFFFFFFFFFFFFFFFFFFFFFFFFFFFFF AND PUSH2 0xEE2 PUSH2 0x94A JUMP JUMPDEST PUSH20 0xFFFFFFFFFFFFFFFFFFFFFFFFFFFFFFFFFFFFFFFF AND EQ PUSH2 0xF41 JUMPI PUSH2 0xF05 PUSH2 0x14CF JUMP JUMPDEST PUSH1 0x40 MLOAD PUSH32 0x118CDAA700000000000000000000000000000000000000000000000000000000 DUP2 MSTORE PUSH1 0x4 ADD PUSH2 0xF38 SWAP2 SWAP1 PUSH2 0x19EA JUMP JUMPDEST PUSH1 0x40 MLOAD DUP1 SWAP2 SUB SWAP1 REVERT JUMPDEST JUMP JUMPDEST PUSH1 0x0 PUSH2 0xF4D PUSH2 0x11C3 JUMP JUMPDEST SWAP1 POP PUSH1 0x0 DUP2 PUSH1 0x0 ADD PUSH1 0x0 SWAP1 SLOAD SWAP1 PUSH2 0x100 EXP SWAP1 DIV PUSH20 0xFFFFFFFFFFFFFFFFFFFFFFFFFFFFFFFFFFFFFFFF AND SWAP1 POP DUP3 DUP3 PUSH1 0x0 ADD PUSH1 0x0 PUSH2 0x100 EXP DUP2 SLOAD DUP2 PUSH20 0xFFFFFFFFFFFFFFFFFFFFFFFFFFFFFFFFFFFFFFFF MUL NOT AND SWAP1 DUP4 PUSH20 0xFFFFFFFFFFFFFFFFFFFFFFFFFFFFFFFFFFFFFFFF AND MUL OR SWAP1 SSTORE POP DUP3 PUSH20 0xFFFFFFFFFFFFFFFFFFFFFFFFFFFFFFFFFFFFFFFF AND DUP2 PUSH20 0xFFFFFFFFFFFFFFFFFFFFFFFFFFFFFFFFFFFFFFFF AND PUSH32 0x8BE0079C531659141344CD1FD0A4F28419497F9722A3DAAFE3B4186F6B6457E0 PUSH1 0x40 MLOAD PUSH1 0x40 MLOAD DUP1 SWAP2 SUB SWAP1 LOG3 POP POP POP JUMP JUMPDEST PUSH1 0x0 PUSH2 0x1024 PUSH2 0x14D7 JUMP JUMPDEST SWAP1 POP PUSH1 0x2 DUP2 PUSH1 0x0 ADD SLOAD SUB PUSH2 0x1064 JUMPI PUSH1 0x40 MLOAD PUSH32 0x3EE5AEB500000000000000000000000000000000000000000000000000000000 DUP2 MSTORE PUSH1 0x4 ADD PUSH1 0x40 MLOAD DUP1 SWAP2 SUB SWAP1 REVERT JUMPDEST PUSH1 0x2 DUP2 PUSH1 0x0 ADD DUP2 SWAP1 SSTORE POP POP JUMP JUMPDEST PUSH1 0x0 DUP1 DUP6 PUSH20 0xFFFFFFFFFFFFFFFFFFFFFFFFFFFFFFFFFFFFFFFF AND PUSH4 0x23B872DD DUP7 DUP7 DUP7 PUSH1 0x40 MLOAD PUSH1 0x24 ADD PUSH2 0x10A5 SWAP4 SWAP3 SWAP2 SWAP1 PUSH2 0x1F36 JUMP JUMPDEST PUSH1 0x40 MLOAD PUSH1 0x20 DUP2 DUP4 SUB SUB DUP2 MSTORE SWAP1 PUSH1 0x40 MSTORE SWAP1 PUSH1 0xE0 SHL PUSH1 0x20 DUP3 ADD DUP1 MLOAD PUSH28 0xFFFFFFFFFFFFFFFFFFFFFFFFFFFFFFFFFFFFFFFFFFFFFFFFFFFFFFFF DUP4 DUP2 DUP4 AND OR DUP4 MSTORE POP POP POP POP PUSH1 0x40 MLOAD PUSH2 0x10F3 SWAP2 SWAP1 PUSH2 0x1FDE JUMP JUMPDEST PUSH1 0x0 PUSH1 0x40 MLOAD DUP1 DUP4 SUB DUP2 PUSH1 0x0 DUP7 GAS CALL SWAP2 POP POP RETURNDATASIZE DUP1 PUSH1 0x0 DUP2 EQ PUSH2 0x1130 JUMPI PUSH1 0x40 MLOAD SWAP2 POP PUSH1 0x1F NOT PUSH1 0x3F RETURNDATASIZE ADD AND DUP3 ADD PUSH1 0x40 MSTORE RETURNDATASIZE DUP3 MSTORE RETURNDATASIZE PUSH1 0x0 PUSH1 0x20 DUP5 ADD RETURNDATACOPY PUSH2 0x1135 JUMP JUMPDEST PUSH1 0x60 SWAP2 POP JUMPDEST POP SWAP2 POP SWAP2 POP DUP2 DUP1 ISZERO PUSH2 0x1163 JUMPI POP PUSH1 0x0 DUP2 MLOAD EQ DUP1 PUSH2 0x1162 JUMPI POP DUP1 DUP1 PUSH1 0x20 ADD SWAP1 MLOAD DUP2 ADD SWAP1 PUSH2 0x1161 SWAP2 SWAP1 PUSH2 0x202D JUMP JUMPDEST JUMPDEST JUMPDEST PUSH2 0x11A2 JUMPI PUSH1 0x40 MLOAD PUSH32 0x8C379A000000000000000000000000000000000000000000000000000000000 DUP2 MSTORE PUSH1 0x4 ADD PUSH2 0x1199 SWAP1 PUSH2 0x20DD JUMP JUMPDEST PUSH1 0x40 MLOAD DUP1 SWAP2 SUB SWAP1 REVERT JUMPDEST POP POP POP POP POP POP JUMP JUMPDEST PUSH1 0x0 PUSH2 0x11B4 PUSH2 0x14D7 JUMP JUMPDEST SWAP1 POP PUSH1 0x1 DUP2 PUSH1 0x0 ADD DUP2 SWAP1 SSTORE POP POP JUMP JUMPDEST PUSH1 0x0 PUSH32 0x9016D09D72D40FDAE2FD8CEAC6B6234C7706214FD39C1CD1E609A0528C199300 SWAP1 POP SWAP1 JUMP JUMPDEST PUSH1 0x0 PUSH32 0xF0C57E16840DF040F15088DC2F81FE391C3923BEC73E23A9662EFC9C229C6A00 SWAP1 POP SWAP1 JUMP JUMPDEST PUSH2 0x121B PUSH2 0x14FF JUMP JUMPDEST PUSH1 0x0 PUSH20 0xFFFFFFFFFFFFFFFFFFFFFFFFFFFFFFFFFFFFFFFF AND DUP2 PUSH20 0xFFFFFFFFFFFFFFFFFFFFFFFFFFFFFFFFFFFFFFFF AND SUB PUSH2 0x128D JUMPI PUSH1 0x0 PUSH1 0x40 MLOAD PUSH32 0x1E4FBDF700000000000000000000000000000000000000000000000000000000 DUP2 MSTORE PUSH1 0x4 ADD PUSH2 0x1284 SWAP2 SWAP1 PUSH2 0x19EA JUMP JUMPDEST PUSH1 0x40 MLOAD DUP1 SWAP2 SUB SWAP1 REVERT JUMPDEST PUSH2 0x1296 DUP2 PUSH2 0xF43 JUMP JUMPDEST POP JUMP JUMPDEST PUSH1 0x0 DUP1 DUP5 PUSH20 0xFFFFFFFFFFFFFFFFFFFFFFFFFFFFFFFFFFFFFFFF AND PUSH4 0xA9059CBB DUP6 DUP6 PUSH1 0x40 MLOAD PUSH1 0x24 ADD PUSH2 0x12CB SWAP3 SWAP2 SWAP1 PUSH2 0x20FD JUMP JUMPDEST PUSH1 0x40 MLOAD PUSH1 0x20 DUP2 DUP4 SUB SUB DUP2 MSTORE SWAP1 PUSH1 0x40 MSTORE SWAP1 PUSH1 0xE0 SHL PUSH1 0x20 DUP3 ADD DUP1 MLOAD PUSH28 0xFFFFFFFFFFFFFFFFFFFFFFFFFFFFFFFFFFFFFFFFFFFFFFFFFFFFFFFF DUP4 DUP2 DUP4 AND OR DUP4 MSTORE POP POP POP POP PUSH1 0x40 MLOAD PUSH2 0x1319 SWAP2 SWAP1 PUSH2 0x1FDE JUMP JUMPDEST PUSH1 0x0 PUSH1 0x40 MLOAD DUP1 DUP4 SUB DUP2 PUSH1 0x0 DUP7 GAS CALL SWAP2 POP POP RETURNDATASIZE DUP1 PUSH1 0x0 DUP2 EQ PUSH2 0x1356 JUMPI PUSH1 0x40 MLOAD SWAP2 POP PUSH1 0x1F NOT PUSH1 0x3F RETURNDATASIZE ADD AND DUP3 ADD PUSH1 0x40 MSTORE RETURNDATASIZE DUP3 MSTORE RETURNDATASIZE PUSH1 0x0 PUSH1 0x20 DUP5 ADD RETURNDATACOPY PUSH2 0x135B JUMP JUMPDEST PUSH1 0x60 SWAP2 POP JUMPDEST POP SWAP2 POP SWAP2 POP DUP2 DUP1 ISZERO PUSH2 0x1389 JUMPI POP PUSH1 0x0 DUP2 MLOAD EQ DUP1 PUSH2 0x1388 JUMPI POP DUP1 DUP1 PUSH1 0x20 ADD SWAP1 MLOAD DUP2 ADD SWAP1 PUSH2 0x1387 SWAP2 SWAP1 PUSH2 0x202D JUMP JUMPDEST JUMPDEST JUMPDEST PUSH2 0x13C8 JUMPI PUSH1 0x40 MLOAD PUSH32 0x8C379A000000000000000000000000000000000000000000000000000000000 DUP2 MSTORE PUSH1 0x4 ADD PUSH2 0x13BF SWAP1 PUSH2 0x2198 JUMP JUMPDEST PUSH1 0x40 MLOAD DUP1 SWAP2 SUB SWAP1 REVERT JUMPDEST POP POP POP POP POP JUMP JUMPDEST PUSH1 0x0 DUP3 PUSH20 0xFFFFFFFFFFFFFFFFFFFFFFFFFFFFFFFFFFFFFFFF AND DUP3 PUSH1 0x0 PUSH8 0xFFFFFFFFFFFFFFFF DUP2 GT ISZERO PUSH2 0x1404 JUMPI PUSH2 0x1403 PUSH2 0x1680 JUMP JUMPDEST JUMPDEST PUSH1 0x40 MLOAD SWAP1 DUP1 DUP3 MSTORE DUP1 PUSH1 0x1F ADD PUSH1 0x1F NOT AND PUSH1 0x20 ADD DUP3 ADD PUSH1 0x40 MSTORE DUP1 ISZERO PUSH2 0x1436 JUMPI DUP2 PUSH1 0x20 ADD PUSH1 0x1 DUP3 MUL DUP1 CALLDATASIZE DUP4 CALLDATACOPY DUP1 DUP3 ADD SWAP2 POP POP SWAP1 POP JUMPDEST POP PUSH1 0x40 MLOAD PUSH2 0x1444 SWAP2 SWAP1 PUSH2 0x1FDE JUMP JUMPDEST PUSH1 0x0 PUSH1 0x40 MLOAD DUP1 DUP4 SUB DUP2 DUP6 DUP8 GAS CALL SWAP3 POP POP POP RETURNDATASIZE DUP1 PUSH1 0x0 DUP2 EQ PUSH2 0x1481 JUMPI PUSH1 0x40 MLOAD SWAP2 POP PUSH1 0x1F NOT PUSH1 0x3F RETURNDATASIZE ADD AND DUP3 ADD PUSH1 0x40 MSTORE RETURNDATASIZE DUP3 MSTORE RETURNDATASIZE PUSH1 0x0 PUSH1 0x20 DUP5 ADD RETURNDATACOPY PUSH2 0x1486 JUMP JUMPDEST PUSH1 0x60 SWAP2 POP JUMPDEST POP POP SWAP1 POP DUP1 PUSH2 0x14CA JUMPI PUSH1 0x40 MLOAD PUSH32 0x8C379A000000000000000000000000000000000000000000000000000000000 DUP2 MSTORE PUSH1 0x4 ADD PUSH2 0x14C1 SWAP1 PUSH2 0x222A JUMP JUMPDEST PUSH1 0x40 MLOAD DUP1 SWAP2 SUB SWAP1 REVERT JUMPDEST POP POP POP JUMP JUMPDEST PUSH1 0x0 CALLER SWAP1 POP SWAP1 JUMP JUMPDEST PUSH1 0x0 PUSH32 0x9B779B17422D0DF92223018B32B4D1FA46E071723D6817E2486D003BECC55F00 SWAP1 POP SWAP1 JUMP JUMPDEST PUSH2 0x1507 PUSH2 0x153F JUMP JUMPDEST PUSH2 0x153D JUMPI PUSH1 0x40 MLOAD PUSH32 0xD7E6BCF800000000000000000000000000000000000000000000000000000000 DUP2 MSTORE PUSH1 0x4 ADD PUSH1 0x40 MLOAD DUP1 SWAP2 SUB SWAP1 REVERT JUMPDEST JUMP JUMPDEST PUSH1 0x0 PUSH2 0x1549 PUSH2 0x11EB JUMP JUMPDEST PUSH1 0x0 ADD PUSH1 0x8 SWAP1 SLOAD SWAP1 PUSH2 0x100 EXP SWAP1 DIV PUSH1 0xFF AND SWAP1 POP SWAP1 JUMP JUMPDEST PUSH1 0x0 PUSH1 0x40 MLOAD SWAP1 POP SWAP1 JUMP JUMPDEST PUSH1 0x0 DUP1 REVERT JUMPDEST PUSH1 0x0 DUP1 REVERT JUMPDEST PUSH1 0x0 PUSH20 0xFFFFFFFFFFFFFFFFFFFFFFFFFFFFFFFFFFFFFFFF DUP3 AND SWAP1 POP SWAP2 SWAP1 POP JUMP JUMPDEST PUSH1 0x0 PUSH2 0x159E DUP3 PUSH2 0x1573 JUMP JUMPDEST SWAP1 POP SWAP2 SWAP1 POP JUMP JUMPDEST PUSH2 0x15AE DUP2 PUSH2 0x1593 JUMP JUMPDEST DUP2 EQ PUSH2 0x15B9 JUMPI PUSH1 0x0 DUP1 REVERT JUMPDEST POP JUMP JUMPDEST PUSH1 0x0 DUP2 CALLDATALOAD SWAP1 POP PUSH2 0x15CB DUP2 PUSH2 0x15A5 JUMP JUMPDEST SWAP3 SWAP2 POP POP JUMP JUMPDEST PUSH1 0x0 PUSH1 0x20 DUP3 DUP5 SUB SLT ISZERO PUSH2 0x15E7 JUMPI PUSH2 0x15E6 PUSH2 0x1569 JUMP JUMPDEST JUMPDEST PUSH1 0x0 PUSH2 0x15F5 DUP5 DUP3 DUP6 ADD PUSH2 0x15BC JUMP JUMPDEST SWAP2 POP POP SWAP3 SWAP2 POP POP JUMP JUMPDEST PUSH1 0x0 DUP2 SWAP1 POP SWAP2 SWAP1 POP JUMP JUMPDEST PUSH2 0x1611 DUP2 PUSH2 0x15FE JUMP JUMPDEST DUP2 EQ PUSH2 0x161C JUMPI PUSH1 0x0 DUP1 REVERT JUMPDEST POP JUMP JUMPDEST PUSH1 0x0 DUP2 CALLDATALOAD SWAP1 POP PUSH2 0x162E DUP2 PUSH2 0x1608 JUMP JUMPDEST SWAP3 SWAP2 POP POP JUMP JUMPDEST PUSH1 0x0 DUP2 SWAP1 POP SWAP2 SWAP1 POP JUMP JUMPDEST PUSH2 0x1647 DUP2 PUSH2 0x1634 JUMP JUMPDEST DUP2 EQ PUSH2 0x1652 JUMPI PUSH1 0x0 DUP1 REVERT JUMPDEST POP JUMP JUMPDEST PUSH1 0x0 DUP2 CALLDATALOAD SWAP1 POP PUSH2 0x1664 DUP2 PUSH2 0x163E JUMP JUMPDEST SWAP3 SWAP2 POP POP JUMP JUMPDEST PUSH1 0x0 DUP1 REVERT JUMPDEST PUSH1 0x0 PUSH1 0x1F NOT PUSH1 0x1F DUP4 ADD AND SWAP1 POP SWAP2 SWAP1 POP JUMP JUMPDEST PUSH32 0x4E487B7100000000000000000000000000000000000000000000000000000000 PUSH1 0x0 MSTORE PUSH1 0x41 PUSH1 0x4 MSTORE PUSH1 0x24 PUSH1 0x0 REVERT JUMPDEST PUSH2 0x16B8 DUP3 PUSH2 0x166F JUMP JUMPDEST DUP2 ADD DUP2 DUP2 LT PUSH8 0xFFFFFFFFFFFFFFFF DUP3 GT OR ISZERO PUSH2 0x16D7 JUMPI PUSH2 0x16D6 PUSH2 0x1680 JUMP JUMPDEST JUMPDEST DUP1 PUSH1 0x40 MSTORE POP POP POP JUMP JUMPDEST PUSH1 0x0 PUSH2 0x16EA PUSH2 0x155F JUMP JUMPDEST SWAP1 POP PUSH2 0x16F6 DUP3 DUP3 PUSH2 0x16AF JUMP JUMPDEST SWAP2 SWAP1 POP JUMP JUMPDEST PUSH1 0x0 PUSH8 0xFFFFFFFFFFFFFFFF DUP3 GT ISZERO PUSH2 0x1716 JUMPI PUSH2 0x1715 PUSH2 0x1680 JUMP JUMPDEST JUMPDEST PUSH1 0x20 DUP3 MUL SWAP1 POP PUSH1 0x20 DUP2 ADD SWAP1 POP SWAP2 SWAP1 POP JUMP JUMPDEST PUSH1 0x0 DUP1 REVERT JUMPDEST PUSH1 0x0 DUP1 REVERT JUMPDEST PUSH1 0x0 PUSH1 0x40 DUP3 DUP5 SUB SLT ISZERO PUSH2 0x1747 JUMPI PUSH2 0x1746 PUSH2 0x172C JUMP JUMPDEST JUMPDEST PUSH2 0x1751 PUSH1 0x40 PUSH2 0x16E0 JUMP JUMPDEST SWAP1 POP PUSH1 0x0 PUSH2 0x1761 DUP5 DUP3 DUP6 ADD PUSH2 0x1655 JUMP JUMPDEST PUSH1 0x0 DUP4 ADD MSTORE POP PUSH1 0x20 PUSH2 0x1775 DUP5 DUP3 DUP6 ADD PUSH2 0x1655 JUMP JUMPDEST PUSH1 0x20 DUP4 ADD MSTORE POP SWAP3 SWAP2 POP POP JUMP JUMPDEST PUSH1 0x0 PUSH2 0x1794 PUSH2 0x178F DUP5 PUSH2 0x16FB JUMP JUMPDEST PUSH2 0x16E0 JUMP JUMPDEST SWAP1 POP DUP1 DUP4 DUP3 MSTORE PUSH1 0x20 DUP3 ADD SWAP1 POP PUSH1 0x40 DUP5 MUL DUP4 ADD DUP6 DUP2 GT ISZERO PUSH2 0x17B7 JUMPI PUSH2 0x17B6 PUSH2 0x1727 JUMP JUMPDEST JUMPDEST DUP4 JUMPDEST DUP2 DUP2 LT ISZERO PUSH2 0x17E0 JUMPI DUP1 PUSH2 0x17CC DUP9 DUP3 PUSH2 0x1731 JUMP JUMPDEST DUP5 MSTORE PUSH1 0x20 DUP5 ADD SWAP4 POP POP PUSH1 0x40 DUP2 ADD SWAP1 POP PUSH2 0x17B9 JUMP JUMPDEST POP POP POP SWAP4 SWAP3 POP POP POP JUMP JUMPDEST PUSH1 0x0 DUP3 PUSH1 0x1F DUP4 ADD SLT PUSH2 0x17FF JUMPI PUSH2 0x17FE PUSH2 0x166A JUMP JUMPDEST JUMPDEST DUP2 CALLDATALOAD PUSH2 0x180F DUP5 DUP3 PUSH1 0x20 DUP7 ADD PUSH2 0x1781 JUMP JUMPDEST SWAP2 POP POP SWAP3 SWAP2 POP POP JUMP JUMPDEST PUSH1 0x0 DUP1 PUSH1 0x0 DUP1 PUSH1 0x0 PUSH1 0xA0 DUP7 DUP9 SUB SLT ISZERO PUSH2 0x1834 JUMPI PUSH2 0x1833 PUSH2 0x1569 JUMP JUMPDEST JUMPDEST PUSH1 0x0 PUSH2 0x1842 DUP9 DUP3 DUP10 ADD PUSH2 0x161F JUMP JUMPDEST SWAP6 POP POP PUSH1 0x20 PUSH2 0x1853 DUP9 DUP3 DUP10 ADD PUSH2 0x15BC JUMP JUMPDEST SWAP5 POP POP PUSH1 0x40 PUSH2 0x1864 DUP9 DUP3 DUP10 ADD PUSH2 0x15BC JUMP JUMPDEST SWAP4 POP POP PUSH1 0x60 PUSH2 0x1875 DUP9 DUP3 DUP10 ADD PUSH2 0x1655 JUMP JUMPDEST SWAP3 POP POP PUSH1 0x80 DUP7 ADD CALLDATALOAD PUSH8 0xFFFFFFFFFFFFFFFF DUP2 GT ISZERO PUSH2 0x1896 JUMPI PUSH2 0x1895 PUSH2 0x156E JUMP JUMPDEST JUMPDEST PUSH2 0x18A2 DUP9 DUP3 DUP10 ADD PUSH2 0x17EA JUMP JUMPDEST SWAP2 POP POP SWAP3 SWAP6 POP SWAP3 SWAP6 SWAP1 SWAP4 POP JUMP JUMPDEST PUSH1 0x0 DUP1 PUSH1 0x40 DUP4 DUP6 SUB SLT ISZERO PUSH2 0x18C6 JUMPI PUSH2 0x18C5 PUSH2 0x1569 JUMP JUMPDEST JUMPDEST PUSH1 0x0 PUSH2 0x18D4 DUP6 DUP3 DUP7 ADD PUSH2 0x15BC JUMP JUMPDEST SWAP3 POP POP PUSH1 0x20 PUSH2 0x18E5 DUP6 DUP3 DUP7 ADD PUSH2 0x161F JUMP JUMPDEST SWAP2 POP POP SWAP3 POP SWAP3 SWAP1 POP JUMP JUMPDEST PUSH2 0x18F8 DUP2 PUSH2 0x1593 JUMP JUMPDEST DUP3 MSTORE POP POP JUMP JUMPDEST PUSH2 0x1907 DUP2 PUSH2 0x1634 JUMP JUMPDEST DUP3 MSTORE POP POP JUMP JUMPDEST PUSH1 0x0 PUSH1 0xC0 DUP3 ADD SWAP1 POP PUSH2 0x1922 PUSH1 0x0 DUP4 ADD DUP10 PUSH2 0x18EF JUMP JUMPDEST PUSH2 0x192F PUSH1 0x20 DUP4 ADD DUP9 PUSH2 0x18FE JUMP JUMPDEST PUSH2 0x193C PUSH1 0x40 DUP4 ADD DUP8 PUSH2 0x18EF JUMP JUMPDEST PUSH2 0x1949 PUSH1 0x60 DUP4 ADD DUP7 PUSH2 0x18FE JUMP JUMPDEST PUSH2 0x1956 PUSH1 0x80 DUP4 ADD DUP6 PUSH2 0x18FE JUMP JUMPDEST PUSH2 0x1963 PUSH1 0xA0 DUP4 ADD DUP5 PUSH2 0x18FE JUMP JUMPDEST SWAP8 SWAP7 POP POP POP POP POP POP POP JUMP JUMPDEST PUSH1 0x0 DUP1 PUSH1 0x0 PUSH1 0x60 DUP5 DUP7 SUB SLT ISZERO PUSH2 0x1987 JUMPI PUSH2 0x1986 PUSH2 0x1569 JUMP JUMPDEST JUMPDEST PUSH1 0x0 PUSH2 0x1995 DUP7 DUP3 DUP8 ADD PUSH2 0x15BC JUMP JUMPDEST SWAP4 POP POP PUSH1 0x20 PUSH2 0x19A6 DUP7 DUP3 DUP8 ADD PUSH2 0x161F JUMP JUMPDEST SWAP3 POP POP PUSH1 0x40 PUSH2 0x19B7 DUP7 DUP3 DUP8 ADD PUSH2 0x1655 JUMP JUMPDEST SWAP2 POP POP SWAP3 POP SWAP3 POP SWAP3 JUMP JUMPDEST PUSH1 0x0 PUSH1 0x40 DUP3 ADD SWAP1 POP PUSH2 0x19D6 PUSH1 0x0 DUP4 ADD DUP6 PUSH2 0x18FE JUMP JUMPDEST PUSH2 0x19E3 PUSH1 0x20 DUP4 ADD DUP5 PUSH2 0x18FE JUMP JUMPDEST SWAP4 SWAP3 POP POP POP JUMP JUMPDEST PUSH1 0x0 PUSH1 0x20 DUP3 ADD SWAP1 POP PUSH2 0x19FF PUSH1 0x0 DUP4 ADD DUP5 PUSH2 0x18EF JUMP JUMPDEST SWAP3 SWAP2 POP POP JUMP JUMPDEST PUSH1 0x0 DUP2 MLOAD SWAP1 POP SWAP2 SWAP1 POP JUMP JUMPDEST PUSH1 0x0 DUP3 DUP3 MSTORE PUSH1 0x20 DUP3 ADD SWAP1 POP SWAP3 SWAP2 POP POP JUMP JUMPDEST PUSH1 0x0 DUP2 SWAP1 POP PUSH1 0x20 DUP3 ADD SWAP1 POP SWAP2 SWAP1 POP JUMP JUMPDEST PUSH2 0x1A3A DUP2 PUSH2 0x1634 JUMP JUMPDEST DUP3 MSTORE POP POP JUMP JUMPDEST PUSH1 0x40 DUP3 ADD PUSH1 0x0 DUP3 ADD MLOAD PUSH2 0x1A56 PUSH1 0x0 DUP6 ADD DUP3 PUSH2 0x1A31 JUMP JUMPDEST POP PUSH1 0x20 DUP3 ADD MLOAD PUSH2 0x1A69 PUSH1 0x20 DUP6 ADD DUP3 PUSH2 0x1A31 JUMP JUMPDEST POP POP POP POP JUMP JUMPDEST PUSH1 0x0 PUSH2 0x1A7B DUP4 DUP4 PUSH2 0x1A40 JUMP JUMPDEST PUSH1 0x40 DUP4 ADD SWAP1 POP SWAP3 SWAP2 POP POP JUMP JUMPDEST PUSH1 0x0 PUSH1 0x20 DUP3 ADD SWAP1 POP SWAP2 SWAP1 POP JUMP JUMPDEST PUSH1 0x0 PUSH2 0x1A9F DUP3 PUSH2 0x1A05 JUMP JUMPDEST PUSH2 0x1AA9 DUP2 DUP6 PUSH2 0x1A10 JUMP JUMPDEST SWAP4 POP PUSH2 0x1AB4 DUP4 PUSH2 0x1A21 JUMP JUMPDEST DUP1 PUSH1 0x0 JUMPDEST DUP4 DUP2 LT ISZERO PUSH2 0x1AE5 JUMPI DUP2 MLOAD PUSH2 0x1ACC DUP9 DUP3 PUSH2 0x1A6F JUMP JUMPDEST SWAP8 POP PUSH2 0x1AD7 DUP4 PUSH2 0x1A87 JUMP JUMPDEST SWAP3 POP POP PUSH1 0x1 DUP2 ADD SWAP1 POP PUSH2 0x1AB8 JUMP JUMPDEST POP DUP6 SWAP4 POP POP POP POP SWAP3 SWAP2 POP POP JUMP JUMPDEST PUSH1 0x0 PUSH1 0x20 DUP3 ADD SWAP1 POP DUP2 DUP2 SUB PUSH1 0x0 DUP4 ADD MSTORE PUSH2 0x1B0C DUP2 DUP5 PUSH2 0x1A94 JUMP JUMPDEST SWAP1 POP SWAP3 SWAP2 POP POP JUMP JUMPDEST PUSH32 0x4E487B7100000000000000000000000000000000000000000000000000000000 PUSH1 0x0 MSTORE PUSH1 0x32 PUSH1 0x4 MSTORE PUSH1 0x24 PUSH1 0x0 REVERT JUMPDEST PUSH32 0x4E487B7100000000000000000000000000000000000000000000000000000000 PUSH1 0x0 MSTORE PUSH1 0x11 PUSH1 0x4 MSTORE PUSH1 0x24 PUSH1 0x0 REVERT JUMPDEST PUSH1 0x0 PUSH2 0x1B7D DUP3 PUSH2 0x1634 JUMP JUMPDEST SWAP2 POP PUSH32 0xFFFFFFFFFFFFFFFFFFFFFFFFFFFFFFFFFFFFFFFFFFFFFFFFFFFFFFFFFFFFFFFF DUP3 SUB PUSH2 0x1BAF JUMPI PUSH2 0x1BAE PUSH2 0x1B43 JUMP JUMPDEST JUMPDEST PUSH1 0x1 DUP3 ADD SWAP1 POP SWAP2 SWAP1 POP JUMP JUMPDEST PUSH2 0x1BC3 DUP2 PUSH2 0x1593 JUMP JUMPDEST DUP3 MSTORE POP POP JUMP JUMPDEST PUSH1 0x0 PUSH2 0x1BD5 DUP4 DUP4 PUSH2 0x1BBA JUMP JUMPDEST PUSH1 0x20 DUP4 ADD SWAP1 POP SWAP3 SWAP2 POP POP JUMP JUMPDEST PUSH2 0x1BEA DUP2 PUSH2 0x1634 JUMP JUMPDEST DUP3 MSTORE POP POP JUMP JUMPDEST PUSH1 0x0 PUSH2 0x1BFC DUP4 DUP4 PUSH2 0x1BE1 JUMP JUMPDEST PUSH1 0x20 DUP4 ADD SWAP1 POP SWAP3 SWAP2 POP POP JUMP JUMPDEST PUSH1 0x0 DUP3 ADD PUSH1 0x0 DUP3 ADD MLOAD PUSH2 0x1C1B DUP5 DUP3 PUSH2 0x1BC9 JUMP JUMPDEST SWAP4 POP POP PUSH1 0x20 DUP3 ADD MLOAD PUSH2 0x1C2D DUP5 DUP3 PUSH2 0x1BF0 JUMP JUMPDEST SWAP4 POP POP PUSH1 0x40 DUP3 ADD MLOAD PUSH2 0x1C3F DUP5 DUP3 PUSH2 0x1BC9 JUMP JUMPDEST SWAP4 POP POP PUSH1 0x60 DUP3 ADD MLOAD PUSH2 0x1C51 DUP5 DUP3 PUSH2 0x1BF0 JUMP JUMPDEST SWAP4 POP POP PUSH1 0x80 DUP3 ADD MLOAD PUSH2 0x1C63 DUP5 DUP3 PUSH2 0x1BF0 JUMP JUMPDEST SWAP4 POP POP PUSH1 0xA0 DUP3 ADD MLOAD PUSH2 0x1C75 DUP5 DUP3 PUSH2 0x1BF0 JUMP JUMPDEST SWAP4 POP POP POP POP POP JUMP JUMPDEST PUSH1 0x0 PUSH2 0x1C89 DUP4 DUP4 PUSH2 0x1C08 JUMP JUMPDEST PUSH1 0xC0 DUP4 ADD SWAP1 POP SWAP3 SWAP2 POP POP JUMP JUMPDEST PUSH1 0x0 DUP2 SWAP1 POP SWAP3 SWAP2 POP POP JUMP JUMPDEST PUSH1 0x0 DUP3 ADD PUSH1 0x0 DUP3 ADD MLOAD PUSH2 0x1CB3 DUP5 DUP3 PUSH2 0x1BF0 JUMP JUMPDEST SWAP4 POP POP PUSH1 0x20 DUP3 ADD MLOAD PUSH2 0x1CC5 DUP5 DUP3 PUSH2 0x1BF0 JUMP JUMPDEST SWAP4 POP POP POP POP POP JUMP JUMPDEST PUSH1 0x0 PUSH2 0x1CD9 DUP4 DUP4 PUSH2 0x1CA0 JUMP JUMPDEST PUSH1 0x40 DUP4 ADD SWAP1 POP SWAP3 SWAP2 POP POP JUMP JUMPDEST PUSH1 0x0 PUSH2 0x1CF0 DUP3 PUSH2 0x1A05 JUMP JUMPDEST PUSH2 0x1CFA DUP2 DUP6 PUSH2 0x1C95 JUMP JUMPDEST SWAP4 POP PUSH2 0x1D05 DUP4 PUSH2 0x1A21 JUMP JUMPDEST DUP1 PUSH1 0x0 JUMPDEST DUP4 DUP2 LT ISZERO PUSH2 0x1D36 JUMPI DUP2 MLOAD PUSH2 0x1D1D DUP9 DUP3 PUSH2 0x1CCD JUMP JUMPDEST SWAP8 POP PUSH2 0x1D28 DUP4 PUSH2 0x1A87 JUMP JUMPDEST SWAP3 POP POP PUSH1 0x1 DUP2 ADD SWAP1 POP PUSH2 0x1D09 JUMP JUMPDEST POP DUP6 SWAP4 POP POP POP POP SWAP3 SWAP2 POP POP JUMP JUMPDEST PUSH1 0x0 PUSH2 0x1D4F DUP4 DUP4 PUSH2 0x1CE5 JUMP JUMPDEST SWAP1 POP SWAP3 SWAP2 POP POP JUMP JUMPDEST PUSH2 0x1D60 DUP2 PUSH2 0x15FE JUMP JUMPDEST DUP3 MSTORE POP POP JUMP JUMPDEST PUSH1 0x0 PUSH2 0x1D72 DUP4 DUP4 PUSH2 0x1D57 JUMP JUMPDEST PUSH1 0x20 DUP4 ADD SWAP1 POP SWAP3 SWAP2 POP POP JUMP JUMPDEST PUSH1 0x0 DUP1 DUP4 ADD PUSH1 0x0 DUP4 ADD MLOAD PUSH2 0x1D92 DUP6 DUP3 PUSH2 0x1C7D JUMP JUMPDEST SWAP5 POP POP PUSH1 0x20 DUP4 ADD MLOAD PUSH2 0x1DA4 DUP6 DUP3 PUSH2 0x1D43 JUMP JUMPDEST SWAP5 POP POP PUSH1 0x40 DUP4 ADD MLOAD PUSH2 0x1DB6 DUP6 DUP3 PUSH2 0x1BC9 JUMP JUMPDEST SWAP5 POP POP PUSH1 0x60 DUP4 ADD MLOAD PUSH2 0x1DC8 DUP6 DUP3 PUSH2 0x1D66 JUMP JUMPDEST SWAP5 POP POP DUP4 SWAP2 POP POP SWAP3 SWAP2 POP POP JUMP JUMPDEST PUSH1 0x0 PUSH2 0x1DE1 DUP3 DUP5 PUSH2 0x1D7E JUMP JUMPDEST SWAP2 POP DUP2 SWAP1 POP SWAP3 SWAP2 POP POP JUMP JUMPDEST PUSH1 0x0 DUP2 SWAP1 POP SWAP2 SWAP1 POP JUMP JUMPDEST PUSH1 0x0 PUSH8 0xFFFFFFFFFFFFFFFF DUP3 AND SWAP1 POP SWAP2 SWAP1 POP JUMP JUMPDEST PUSH1 0x0 DUP2 SWAP1 POP SWAP2 SWAP1 POP JUMP JUMPDEST PUSH1 0x0 PUSH2 0x1E2F PUSH2 0x1E2A PUSH2 0x1E25 DUP5 PUSH2 0x1DEC JUMP JUMPDEST PUSH2 0x1E0A JUMP JUMPDEST PUSH2 0x1DF6 JUMP JUMPDEST SWAP1 POP SWAP2 SWAP1 POP JUMP JUMPDEST PUSH2 0x1E3F DUP2 PUSH2 0x1E14 JUMP JUMPDEST DUP3 MSTORE POP POP JUMP JUMPDEST PUSH1 0x0 PUSH1 0x20 DUP3 ADD SWAP1 POP PUSH2 0x1E5A PUSH1 0x0 DUP4 ADD DUP5 PUSH2 0x1E36 JUMP JUMPDEST SWAP3 SWAP2 POP POP JUMP JUMPDEST PUSH1 0x0 PUSH2 0x1E6B DUP3 PUSH2 0x1634 JUMP JUMPDEST SWAP2 POP PUSH2 0x1E76 DUP4 PUSH2 0x1634 JUMP JUMPDEST SWAP3 POP DUP3 DUP3 MUL PUSH2 0x1E84 DUP2 PUSH2 0x1634 JUMP JUMPDEST SWAP2 POP DUP3 DUP3 DIV DUP5 EQ DUP4 ISZERO OR PUSH2 0x1E9B JUMPI PUSH2 0x1E9A PUSH2 0x1B43 JUMP JUMPDEST JUMPDEST POP SWAP3 SWAP2 POP POP JUMP JUMPDEST PUSH1 0x0 PUSH2 0x1EAD DUP3 PUSH2 0x1634 JUMP JUMPDEST SWAP2 POP PUSH2 0x1EB8 DUP4 PUSH2 0x1634 JUMP JUMPDEST SWAP3 POP DUP3 DUP3 ADD SWAP1 POP DUP1 DUP3 GT ISZERO PUSH2 0x1ED0 JUMPI PUSH2 0x1ECF PUSH2 0x1B43 JUMP JUMPDEST JUMPDEST SWAP3 SWAP2 POP POP JUMP JUMPDEST PUSH32 0x4E487B7100000000000000000000000000000000000000000000000000000000 PUSH1 0x0 MSTORE PUSH1 0x12 PUSH1 0x4 MSTORE PUSH1 0x24 PUSH1 0x0 REVERT JUMPDEST PUSH1 0x0 PUSH2 0x1F10 DUP3 PUSH2 0x1634 JUMP JUMPDEST SWAP2 POP PUSH2 0x1F1B DUP4 PUSH2 0x1634 JUMP JUMPDEST SWAP3 POP DUP3 PUSH2 0x1F2B JUMPI PUSH2 0x1F2A PUSH2 0x1ED6 JUMP JUMPDEST JUMPDEST DUP3 DUP3 DIV SWAP1 POP SWAP3 SWAP2 POP POP JUMP JUMPDEST PUSH1 0x0 PUSH1 0x60 DUP3 ADD SWAP1 POP PUSH2 0x1F4B PUSH1 0x0 DUP4 ADD DUP7 PUSH2 0x18EF JUMP JUMPDEST PUSH2 0x1F58 PUSH1 0x20 DUP4 ADD DUP6 PUSH2 0x18EF JUMP JUMPDEST PUSH2 0x1F65 PUSH1 0x40 DUP4 ADD DUP5 PUSH2 0x18FE JUMP JUMPDEST SWAP5 SWAP4 POP POP POP POP JUMP JUMPDEST PUSH1 0x0 DUP2 MLOAD SWAP1 POP SWAP2 SWAP1 POP JUMP JUMPDEST PUSH1 0x0 DUP2 SWAP1 POP SWAP3 SWAP2 POP POP JUMP JUMPDEST PUSH1 0x0 JUMPDEST DUP4 DUP2 LT ISZERO PUSH2 0x1FA1 JUMPI DUP1 DUP3 ADD MLOAD DUP2 DUP5 ADD MSTORE PUSH1 0x20 DUP2 ADD SWAP1 POP PUSH2 0x1F86 JUMP JUMPDEST PUSH1 0x0 DUP5 DUP5 ADD MSTORE POP POP POP POP JUMP JUMPDEST PUSH1 0x0 PUSH2 0x1FB8 DUP3 PUSH2 0x1F6D JUMP JUMPDEST PUSH2 0x1FC2 DUP2 DUP6 PUSH2 0x1F78 JUMP JUMPDEST SWAP4 POP PUSH2 0x1FD2 DUP2 DUP6 PUSH1 0x20 DUP7 ADD PUSH2 0x1F83 JUMP JUMPDEST DUP1 DUP5 ADD SWAP2 POP POP SWAP3 SWAP2 POP POP JUMP JUMPDEST PUSH1 0x0 PUSH2 0x1FEA DUP3 DUP5 PUSH2 0x1FAD JUMP JUMPDEST SWAP2 POP DUP2 SWAP1 POP SWAP3 SWAP2 POP POP JUMP JUMPDEST PUSH1 0x0 DUP2 ISZERO ISZERO SWAP1 POP SWAP2 SWAP1 POP JUMP JUMPDEST PUSH2 0x200A DUP2 PUSH2 0x1FF5 JUMP JUMPDEST DUP2 EQ PUSH2 0x2015 JUMPI PUSH1 0x0 DUP1 REVERT JUMPDEST POP JUMP JUMPDEST PUSH1 0x0 DUP2 MLOAD SWAP1 POP PUSH2 0x2027 DUP2 PUSH2 0x2001 JUMP JUMPDEST SWAP3 SWAP2 POP POP JUMP JUMPDEST PUSH1 0x0 PUSH1 0x20 DUP3 DUP5 SUB SLT ISZERO PUSH2 0x2043 JUMPI PUSH2 0x2042 PUSH2 0x1569 JUMP JUMPDEST JUMPDEST PUSH1 0x0 PUSH2 0x2051 DUP5 DUP3 DUP6 ADD PUSH2 0x2018 JUMP JUMPDEST SWAP2 POP POP SWAP3 SWAP2 POP POP JUMP JUMPDEST PUSH1 0x0 DUP3 DUP3 MSTORE PUSH1 0x20 DUP3 ADD SWAP1 POP SWAP3 SWAP2 POP POP JUMP JUMPDEST PUSH32 0x5472616E7366657248656C7065723A3A7472616E7366657246726F6D3A207472 PUSH1 0x0 DUP3 ADD MSTORE PUSH32 0x616E7366657246726F6D206661696C6564000000000000000000000000000000 PUSH1 0x20 DUP3 ADD MSTORE POP JUMP JUMPDEST PUSH1 0x0 PUSH2 0x20C7 PUSH1 0x31 DUP4 PUSH2 0x205A JUMP JUMPDEST SWAP2 POP PUSH2 0x20D2 DUP3 PUSH2 0x206B JUMP JUMPDEST PUSH1 0x40 DUP3 ADD SWAP1 POP SWAP2 SWAP1 POP JUMP JUMPDEST PUSH1 0x0 PUSH1 0x20 DUP3 ADD SWAP1 POP DUP2 DUP2 SUB PUSH1 0x0 DUP4 ADD MSTORE PUSH2 0x20F6 DUP2 PUSH2 0x20BA JUMP JUMPDEST SWAP1 POP SWAP2 SWAP1 POP JUMP JUMPDEST PUSH1 0x0 PUSH1 0x40 DUP3 ADD SWAP1 POP PUSH2 0x2112 PUSH1 0x0 DUP4 ADD DUP6 PUSH2 0x18EF JUMP JUMPDEST PUSH2 0x211F PUSH1 0x20 DUP4 ADD DUP5 PUSH2 0x18FE JUMP JUMPDEST SWAP4 SWAP3 POP POP POP JUMP JUMPDEST PUSH32 0x5472616E7366657248656C7065723A3A736166655472616E736665723A207472 PUSH1 0x0 DUP3 ADD MSTORE PUSH32 0x616E73666572206661696C656400000000000000000000000000000000000000 PUSH1 0x20 DUP3 ADD MSTORE POP JUMP JUMPDEST PUSH1 0x0 PUSH2 0x2182 PUSH1 0x2D DUP4 PUSH2 0x205A JUMP JUMPDEST SWAP2 POP PUSH2 0x218D DUP3 PUSH2 0x2126 JUMP JUMPDEST PUSH1 0x40 DUP3 ADD SWAP1 POP SWAP2 SWAP1 POP JUMP JUMPDEST PUSH1 0x0 PUSH1 0x20 DUP3 ADD SWAP1 POP DUP2 DUP2 SUB PUSH1 0x0 DUP4 ADD MSTORE PUSH2 0x21B1 DUP2 PUSH2 0x2175 JUMP JUMPDEST SWAP1 POP SWAP2 SWAP1 POP JUMP JUMPDEST PUSH32 0x5472616E7366657248656C7065723A3A736166655472616E736665724554483A PUSH1 0x0 DUP3 ADD MSTORE PUSH32 0x20455448207472616E73666572206661696C6564000000000000000000000000 PUSH1 0x20 DUP3 ADD MSTORE POP JUMP JUMPDEST PUSH1 0x0 PUSH2 0x2214 PUSH1 0x34 DUP4 PUSH2 0x205A JUMP JUMPDEST SWAP2 POP PUSH2 0x221F DUP3 PUSH2 0x21B8 JUMP JUMPDEST PUSH1 0x40 DUP3 ADD SWAP1 POP SWAP2 SWAP1 POP JUMP JUMPDEST PUSH1 0x0 PUSH1 0x20 DUP3 ADD SWAP1 POP DUP2 DUP2 SUB PUSH1 0x0 DUP4 ADD MSTORE PUSH2 0x2243 DUP2 PUSH2 0x2207 JUMP JUMPDEST SWAP1 POP SWAP2 SWAP1 POP JUMP INVALID LOG2 PUSH5 0x6970667358 0x22 SLT KECCAK256 SWAP1 BLOCKHASH 0x1E 0xC3 PUSH23 0x45EF79CE5A8DA9193D012B41F622A81A24562EB36E6AFC 0xE9 0xC8 0x21 LOG0 PUSH5 0x736F6C6343 STOP ADDMOD EQ STOP CALLER "},"methodIdentifiers":{"initialize(address)":"c4d66de8","owner()":"8da5cb5b","release(address,bytes32)":"d7c2eec7","releaseInfos(address,bytes32,uint256)":"82a969e2","renounceOwnership()":"715018a6","setAdmin(address)":"704b6c02","startVesting(bytes32,address,address,uint256,(uint256,uint256)[])":"7623f00e","transferOwnership(address)":"f2fde38b","vestingSchedules(address,bytes32)":"7b00ffad"}},"storageLayout":{"storage":[{"astId":3843,"contract":"contracts/vesting/Vesting.sol:Vesting","label":"admins","offset":0,"slot":"0","type":"t_mapping(t_address,t_bool)"},{"astId":3851,"contract":"contracts/vesting/Vesting.sol:Vesting","label":"vestingSchedules","offset":0,"slot":"1","type":"t_mapping(t_address,t_mapping(t_bytes32,t_struct(VestingSchedule)4239_storage))"},{"astId":3860,"contract":"contracts/vesting/Vesting.sol:Vesting","label":"releaseInfos","offset":0,"slot":"2","type":"t_mapping(t_address,t_mapping(t_bytes32,t_array(t_struct(Release)1754_storage)dyn_storage))"}],"types":{"t_address":{"encoding":"inplace","label":"address","numberOfBytes":"20"},"t_array(t_struct(Release)1754_storage)dyn_storage":{"base":"t_struct(Release)1754_storage","encoding":"dynamic_array","label":"struct IAtomicSwapBase.Release[]","numberOfBytes":"32"},"t_bool":{"encoding":"inplace","label":"bool","numberOfBytes":"1"},"t_bytes32":{"encoding":"inplace","label":"bytes32","numberOfBytes":"32"},"t_mapping(t_address,t_bool)":{"encoding":"mapping","key":"t_address","label":"mapping(address => bool)","numberOfBytes":"32","value":"t_bool"},"t_mapping(t_address,t_mapping(t_bytes32,t_array(t_struct(Release)1754_storage)dyn_storage))":{"encoding":"mapping","key":"t_address","label":"mapping(address => mapping(bytes32 => struct IAtomicSwapBase.Release[]))","numberOfBytes":"32","value":"t_mapping(t_bytes32,t_array(t_struct(Release)1754_storage)dyn_storage)"},"t_mapping(t_address,t_mapping(t_bytes32,t_struct(VestingSchedule)4239_storage))":{"encoding":"mapping","key":"t_address","label":"mapping(address => mapping(bytes32 => struct IVesting.VestingSchedule))","numberOfBytes":"32","value":"t_mapping(t_bytes32,t_struct(VestingSchedule)4239_storage)"},"t_mapping(t_bytes32,t_array(t_struct(Release)1754_storage)dyn_storage)":{"encoding":"mapping","key":"t_bytes32","label":"mapping(bytes32 => struct IAtomicSwapBase.Release[])","numberOfBytes":"32","value":"t_array(t_struct(Release)1754_storage)dyn_storage"},"t_mapping(t_bytes32,t_struct(VestingSchedule)4239_storage)":{"encoding":"mapping","key":"t_bytes32","label":"mapping(bytes32 => struct IVesting.VestingSchedule)","numberOfBytes":"32","value":"t_struct(VestingSchedule)4239_storage"},"t_struct(Release)1754_storage":{"encoding":"inplace","label":"struct IAtomicSwapBase.Release","members":[{"astId":1751,"contract":"contracts/vesting/Vesting.sol:Vesting","label":"durationInHours","offset":0,"slot":"0","type":"t_uint256"},{"astId":1753,"contract":"contracts/vesting/Vesting.sol:Vesting","label":"percentage","offset":0,"slot":"1","type":"t_uint256"}],"numberOfBytes":"64"},"t_struct(VestingSchedule)4239_storage":{"encoding":"inplace","label":"struct IVesting.VestingSchedule","members":[{"astId":4228,"contract":"contracts/vesting/Vesting.sol:Vesting","label":"from","offset":0,"slot":"0","type":"t_address"},{"astId":4230,"contract":"contracts/vesting/Vesting.sol:Vesting","label":"start","offset":0,"slot":"1","type":"t_uint256"},{"astId":4232,"contract":"contracts/vesting/Vesting.sol:Vesting","label":"token","offset":0,"slot":"2","type":"t_address"},{"astId":4234,"contract":"contracts/vesting/Vesting.sol:Vesting","label":"totalAmount","offset":0,"slot":"3","type":"t_uint256"},{"astId":4236,"contract":"contracts/vesting/Vesting.sol:Vesting","label":"amountReleased","offset":0,"slot":"4","type":"t_uint256"},{"astId":4238,"contract":"contracts/vesting/Vesting.sol:Vesting","label":"lastReleasedStep","offset":0,"slot":"5","type":"t_uint256"}],"numberOfBytes":"192"},"t_uint256":{"encoding":"inplace","label":"uint256","numberOfBytes":"32"}}}}}}