{"contracts/vesting/Vesting.sol":{"Vesting":{"abi":[{"inputs":[],"name":"AccessControlBadConfirmation","type":"error"},{"inputs":[{"internalType":"address","name":"account","type":"address"},{"internalType":"bytes32","name":"neededRole","type":"bytes32"}],"name":"AccessControlUnauthorizedAccount","type":"error"},{"inputs":[],"name":"DuplicateReleaseSchedule","type":"error"},{"inputs":[],"name":"EnforcedPause","type":"error"},{"inputs":[],"name":"ExpectedPause","type":"error"},{"inputs":[],"name":"InvalidInitialization","type":"error"},{"inputs":[],"name":"InvalidTotalPercentage","type":"error"},{"inputs":[],"name":"InvalidVesting","type":"error"},{"inputs":[],"name":"NoVestedTokensAvailable","type":"error"},{"inputs":[],"name":"NoVestedTokensForRelease","type":"error"},{"inputs":[{"internalType":"uint256","name":"real","type":"uint256"},{"internalType":"uint256","name":"expected","type":"uint256"}],"name":"NotEnoughFund","type":"error"},{"inputs":[],"name":"NotInitializing","type":"error"},{"inputs":[],"name":"OverMaximumReleaseStep","type":"error"},{"inputs":[],"name":"ReentrancyGuardReentrantCall","type":"error"},{"inputs":[{"internalType":"address","name":"beneficiary","type":"address"}],"name":"VestingAlreadyStarted","type":"error"},{"inputs":[],"name":"VestingNotStarted","type":"error"},{"anonymous":false,"inputs":[{"indexed":false,"internalType":"uint64","name":"version","type":"uint64"}],"name":"Initialized","type":"event"},{"anonymous":false,"inputs":[{"components":[{"components":[{"internalType":"address","name":"from","type":"address"},{"internalType":"uint256","name":"start","type":"uint256"},{"internalType":"uint256","name":"lastReleasedTime","type":"uint256"},{"internalType":"address","name":"token","type":"address"},{"internalType":"uint256","name":"totalAmount","type":"uint256"},{"internalType":"uint256","name":"amountReleased","type":"uint256"},{"internalType":"uint256","name":"lastReleasedStep","type":"uint256"}],"internalType":"struct IVesting.VestingSchedule","name":"schedule","type":"tuple"},{"components":[{"internalType":"uint256","name":"durationInHours","type":"uint256"},{"internalType":"uint256","name":"percentage","type":"uint256"}],"internalType":"struct IAtomicSwapBase.Release[]","name":"release","type":"tuple[]"},{"internalType":"address","name":"beneficiary","type":"address"},{"internalType":"bytes32","name":"orderId","type":"bytes32"}],"indexed":true,"internalType":"struct IVesting.VestingInfo","name":"vesting","type":"tuple"}],"name":"NewVesting","type":"event"},{"anonymous":false,"inputs":[{"indexed":false,"internalType":"address","name":"account","type":"address"}],"name":"Paused","type":"event"},{"anonymous":false,"inputs":[{"indexed":true,"internalType":"address","name":"sender","type":"address"},{"indexed":true,"internalType":"uint256","name":"amount","type":"uint256"}],"name":"Received","type":"event"},{"anonymous":false,"inputs":[{"indexed":true,"internalType":"address","name":"beneficiary","type":"address"},{"indexed":true,"internalType":"uint256","name":"amount","type":"uint256"}],"name":"Released","type":"event"},{"anonymous":false,"inputs":[{"indexed":true,"internalType":"bytes32","name":"role","type":"bytes32"},{"indexed":true,"internalType":"bytes32","name":"previousAdminRole","type":"bytes32"},{"indexed":true,"internalType":"bytes32","name":"newAdminRole","type":"bytes32"}],"name":"RoleAdminChanged","type":"event"},{"anonymous":false,"inputs":[{"indexed":true,"internalType":"bytes32","name":"role","type":"bytes32"},{"indexed":true,"internalType":"address","name":"account","type":"address"},{"indexed":true,"internalType":"address","name":"sender","type":"address"}],"name":"RoleGranted","type":"event"},{"anonymous":false,"inputs":[{"indexed":true,"internalType":"bytes32","name":"role","type":"bytes32"},{"indexed":true,"internalType":"address","name":"account","type":"address"},{"indexed":true,"internalType":"address","name":"sender","type":"address"}],"name":"RoleRevoked","type":"event"},{"anonymous":false,"inputs":[{"indexed":false,"internalType":"address","name":"account","type":"address"}],"name":"Unpaused","type":"event"},{"inputs":[],"name":"DEFAULT_ADMIN_ROLE","outputs":[{"internalType":"bytes32","name":"","type":"bytes32"}],"stateMutability":"view","type":"function"},{"inputs":[],"name":"PAUSER_ROLE","outputs":[{"internalType":"bytes32","name":"","type":"bytes32"}],"stateMutability":"view","type":"function"},{"inputs":[{"internalType":"address","name":"_account","type":"address"}],"name":"addAdmin","outputs":[],"stateMutability":"nonpayable","type":"function"},{"inputs":[{"internalType":"address","name":"_account","type":"address"}],"name":"addPauser","outputs":[],"stateMutability":"nonpayable","type":"function"},{"inputs":[{"internalType":"bytes32","name":"role","type":"bytes32"}],"name":"getRoleAdmin","outputs":[{"internalType":"bytes32","name":"","type":"bytes32"}],"stateMutability":"view","type":"function"},{"inputs":[{"internalType":"bytes32","name":"role","type":"bytes32"},{"internalType":"address","name":"account","type":"address"}],"name":"grantRole","outputs":[],"stateMutability":"nonpayable","type":"function"},{"inputs":[{"internalType":"bytes32","name":"role","type":"bytes32"},{"internalType":"address","name":"account","type":"address"}],"name":"hasRole","outputs":[{"internalType":"bool","name":"","type":"bool"}],"stateMutability":"view","type":"function"},{"inputs":[{"internalType":"address","name":"_admin","type":"address"}],"name":"initialize","outputs":[],"stateMutability":"nonpayable","type":"function"},{"inputs":[{"internalType":"address","name":"_account","type":"address"}],"name":"isAdmin","outputs":[{"internalType":"bool","name":"","type":"bool"}],"stateMutability":"view","type":"function"},{"inputs":[{"internalType":"address","name":"_account","type":"address"}],"name":"isPauser","outputs":[{"internalType":"bool","name":"","type":"bool"}],"stateMutability":"view","type":"function"},{"inputs":[],"name":"paginationSize","outputs":[{"internalType":"uint256","name":"","type":"uint256"}],"stateMutability":"view","type":"function"},{"inputs":[],"name":"pause","outputs":[],"stateMutability":"nonpayable","type":"function"},{"inputs":[],"name":"paused","outputs":[{"internalType":"bool","name":"","type":"bool"}],"stateMutability":"view","type":"function"},{"inputs":[{"internalType":"address","name":"beneficiary","type":"address"},{"internalType":"bytes32","name":"orderId","type":"bytes32"}],"name":"release","outputs":[],"stateMutability":"nonpayable","type":"function"},{"inputs":[{"internalType":"address","name":"","type":"address"},{"internalType":"bytes32","name":"","type":"bytes32"},{"internalType":"uint256","name":"","type":"uint256"}],"name":"releaseInfos","outputs":[{"internalType":"uint256","name":"durationInHours","type":"uint256"},{"internalType":"uint256","name":"percentage","type":"uint256"}],"stateMutability":"view","type":"function"},{"inputs":[{"internalType":"address","name":"_account","type":"address"}],"name":"removeAdmin","outputs":[],"stateMutability":"nonpayable","type":"function"},{"inputs":[{"internalType":"address","name":"_account","type":"address"}],"name":"removePauser","outputs":[],"stateMutability":"nonpayable","type":"function"},{"inputs":[{"internalType":"bytes32","name":"role","type":"bytes32"},{"internalType":"address","name":"callerConfirmation","type":"address"}],"name":"renounceRole","outputs":[],"stateMutability":"nonpayable","type":"function"},{"inputs":[{"internalType":"bytes32","name":"role","type":"bytes32"},{"internalType":"address","name":"account","type":"address"}],"name":"revokeRole","outputs":[],"stateMutability":"nonpayable","type":"function"},{"inputs":[{"internalType":"uint256","name":"_paginationSize","type":"uint256"}],"name":"setPaginationSize","outputs":[],"stateMutability":"nonpayable","type":"function"},{"inputs":[{"internalType":"bytes32","name":"orderId","type":"bytes32"},{"internalType":"address","name":"beneficiary","type":"address"},{"internalType":"address","name":"token","type":"address"},{"internalType":"uint256","name":"totalAmount","type":"uint256"},{"components":[{"internalType":"uint256","name":"durationInHours","type":"uint256"},{"internalType":"uint256","name":"percentage","type":"uint256"}],"internalType":"struct IAtomicSwapBase.Release[]","name":"releases","type":"tuple[]"}],"name":"startVesting","outputs":[],"stateMutability":"payable","type":"function"},{"inputs":[{"internalType":"bytes4","name":"interfaceId","type":"bytes4"}],"name":"supportsInterface","outputs":[{"internalType":"bool","name":"","type":"bool"}],"stateMutability":"view","type":"function"},{"inputs":[],"name":"unpause","outputs":[],"stateMutability":"nonpayable","type":"function"},{"inputs":[{"internalType":"address","name":"","type":"address"},{"internalType":"bytes32","name":"","type":"bytes32"}],"name":"vestingSchedules","outputs":[{"internalType":"address","name":"from","type":"address"},{"internalType":"uint256","name":"start","type":"uint256"},{"internalType":"uint256","name":"lastReleasedTime","type":"uint256"},{"internalType":"address","name":"token","type":"address"},{"internalType":"uint256","name":"totalAmount","type":"uint256"},{"internalType":"uint256","name":"amountReleased","type":"uint256"},{"internalType":"uint256","name":"lastReleasedStep","type":"uint256"}],"stateMutability":"view","type":"function"},{"stateMutability":"payable","type":"receive"}],"evm":{"bytecode":{"linkReferences":{"contracts/abstracts/libs/utils/AtomicSwapMsgValidator.sol":{"AtomicSwapMsgValidator":[{"length":20,"start":2671}]}},"object":"608060405234801561001057600080fd5b506131e0806100206000396000f3fe60806040526004361061014f5760003560e01c80637623f00e116100b6578063a217fddf1161006f578063a217fddf14610533578063c4d66de81461055e578063d547741f14610587578063d7c2eec7146105b0578063e63ab1e9146105d9578063f2407ca414610604576101e6565b80637623f00e146104195780637b00ffad1461043557806382a969e21461047857806382dc1ec4146104b65780638456cb59146104df57806391d14854146104f6576101e6565b80633d538ecf116101085780633d538ecf1461031d5780633f4ba83a1461034857806346fbf68e1461035f5780635c975abb1461039c5780636b2c0f55146103c757806370480275146103f0576101e6565b806301ffc9a7146101eb5780631785f53c14610228578063248a9ca31461025157806324d7806c1461028e5780632f2ff15d146102cb57806336568abe146102f4576101e6565b366101e6576101616000801b3361062d565b6101a0576040517f08c379a00000000000000000000000000000000000000000000000000000000081526004016101979061226d565b60405180910390fd5b343373ffffffffffffffffffffffffffffffffffffffff167f88a5966d370b9919b20f3e2c13ff65706f196a4e32cc2c12bf57088f8852587460405160405180910390a3005b600080fd5b3480156101f757600080fd5b50610212600480360381019061020d91906122f9565b6106a6565b60405161021f9190612341565b60405180910390f35b34801561023457600080fd5b5061024f600480360381019061024a91906123ba565b610720565b005b34801561025d57600080fd5b506102786004803603810190610273919061241d565b610730565b6040516102859190612459565b60405180910390f35b34801561029a57600080fd5b506102b560048036038101906102b091906123ba565b61075e565b6040516102c29190612341565b60405180910390f35b3480156102d757600080fd5b506102f260048036038101906102ed9190612474565b610774565b005b34801561030057600080fd5b5061031b60048036038101906103169190612474565b610796565b005b34801561032957600080fd5b50610332610811565b60405161033f91906124cd565b60405180910390f35b34801561035457600080fd5b5061035d610817565b005b34801561036b57600080fd5b50610386600480360381019061038191906123ba565b61088a565b6040516103939190612341565b60405180910390f35b3480156103a857600080fd5b506103b16108bd565b6040516103be9190612341565b60405180910390f35b3480156103d357600080fd5b506103ee60048036038101906103e991906123ba565b6108e2565b005b3480156103fc57600080fd5b50610417600480360381019061041291906123ba565b61090f565b005b610433600480360381019061042e91906126c2565b61091f565b005b34801561044157600080fd5b5061045c60048036038101906104579190612759565b610e18565b60405161046f97969594939291906127a8565b60405180910390f35b34801561048457600080fd5b5061049f600480360381019061049a9190612817565b610ea7565b6040516104ad92919061286a565b60405180910390f35b3480156104c257600080fd5b506104dd60048036038101906104d891906123ba565b610ef5565b005b3480156104eb57600080fd5b506104f4610f22565b005b34801561050257600080fd5b5061051d60048036038101906105189190612474565b61062d565b60405161052a9190612341565b60405180910390f35b34801561053f57600080fd5b50610548610f95565b6040516105559190612459565b60405180910390f35b34801561056a57600080fd5b50610585600480360381019061058091906123ba565b610f9c565b005b34801561059357600080fd5b506105ae60048036038101906105a99190612474565b61112b565b005b3480156105bc57600080fd5b506105d760048036038101906105d29190612759565b61114d565b005b3480156105e557600080fd5b506105ee61147f565b6040516105fb9190612459565b60405180910390f35b34801561061057600080fd5b5061062b60048036038101906106269190612893565b6114a3565b005b60008061063861153c565b905080600001600085815260200190815260200160002060000160008473ffffffffffffffffffffffffffffffffffffffff1673ffffffffffffffffffffffffffffffffffffffff16815260200190815260200160002060009054906101000a900460ff1691505092915050565b60007f7965db0b000000000000000000000000000000000000000000000000000000007bffffffffffffffffffffffffffffffffffffffffffffffffffffffff1916827bffffffffffffffffffffffffffffffffffffffffffffffffffffffff19161480610719575061071882611564565b5b9050919050565b61072d6000801b8261112b565b50565b60008061073b61153c565b905080600001600084815260200190815260200160002060010154915050919050565b600061076d6000801b8361062d565b9050919050565b61077d82610730565b610786816115ce565b61079083836115e2565b50505050565b61079e6116e3565b73ffffffffffffffffffffffffffffffffffffffff168173ffffffffffffffffffffffffffffffffffffffff1614610802576040517f6697b23200000000000000000000000000000000000000000000000000000000815260040160405180910390fd5b61080c82826116eb565b505050565b60005481565b6108417f65d7a28e3265b37a6474929f336521b332c1681b933f6cb9f3376673440d862a3361062d565b610880576040517f08c379a00000000000000000000000000000000000000000000000000000000081526004016108779061226d565b60405180910390fd5b6108886117ed565b565b60006108b67f65d7a28e3265b37a6474929f336521b332c1681b933f6cb9f3376673440d862a8361062d565b9050919050565b6000806108c861185f565b90508060000160009054906101000a900460ff1691505090565b61090c7f65d7a28e3265b37a6474929f336521b332c1681b933f6cb9f3376673440d862a8261112b565b50565b61091c6000801b82610774565b50565b610927611887565b6109346000801b3361062d565b610973576040517f08c379a000000000000000000000000000000000000000000000000000000000815260040161096a9061226d565b60405180910390fd5b600073ffffffffffffffffffffffffffffffffffffffff16600160008673ffffffffffffffffffffffffffffffffffffffff1673ffffffffffffffffffffffffffffffffffffffff168152602001908152602001600020600087815260200190815260200160002060000160009054906101000a900473ffffffffffffffffffffffffffffffffffffffff1673ffffffffffffffffffffffffffffffffffffffff1614610a4c576040517f628dbb9600000000000000000000000000000000000000000000000000000000815260040160405180910390fd5b8073__$2effe1973215a034e8e4a17bdeb5710028$__6333b988f590916040518263ffffffff1660e01b8152600401610a8591906129ad565b60006040518083038186803b158015610a9d57600080fd5b505af4158015610ab1573d6000803e3d6000fd5b50505050600073ffffffffffffffffffffffffffffffffffffffff168373ffffffffffffffffffffffffffffffffffffffff1603610b3457813414610b2f5781346040517f04157bb4000000000000000000000000000000000000000000000000000000008152600401610b2692919061286a565b60405180910390fd5b610b41565b610b40833330856118de565b5b600042905060006040518060e001604052803373ffffffffffffffffffffffffffffffffffffffff1681526020018381526020018381526020018673ffffffffffffffffffffffffffffffffffffffff168152602001858152602001600081526020016000815250905080600160008873ffffffffffffffffffffffffffffffffffffffff1673ffffffffffffffffffffffffffffffffffffffff168152602001908152602001600020600089815260200190815260200160002060008201518160000160006101000a81548173ffffffffffffffffffffffffffffffffffffffff021916908373ffffffffffffffffffffffffffffffffffffffff160217905550602082015181600101556040820151816002015560608201518160030160006101000a81548173ffffffffffffffffffffffffffffffffffffffff021916908373ffffffffffffffffffffffffffffffffffffffff1602179055506080820151816004015560a0820151816005015560c082015181600601559050506000600260008873ffffffffffffffffffffffffffffffffffffffff1673ffffffffffffffffffffffffffffffffffffffff1681526020019081526020016000206000898152602001908152602001600020905060005b8451811015610d8d5781858281518110610d3357610d326129cf565b5b60200260200101519080600181540180825580915050600190039060005260206000209060020201600090919091909150600082015181600001556020820151816001015550508080610d8590612a2d565b915050610d16565b5060405180608001604052808381526020018581526020018873ffffffffffffffffffffffffffffffffffffffff16815260200189815250604051610dd29190612ca2565b60405180910390207f12372b7ce6cf6ef28106ccd86980e049a7a7b404e2dea6e5d7b5e17e5793557060405160405180910390a2505050610e11611a17565b5050505050565b6001602052816000526040600020602052806000526040600020600091509150508060000160009054906101000a900473ffffffffffffffffffffffffffffffffffffffff16908060010154908060020154908060030160009054906101000a900473ffffffffffffffffffffffffffffffffffffffff16908060040154908060050154908060060154905087565b60026020528260005260406000206020528160005260406000208181548110610ecf57600080fd5b906000526020600020906002020160009250925050508060000154908060010154905082565b610f1f7f65d7a28e3265b37a6474929f336521b332c1681b933f6cb9f3376673440d862a82610774565b50565b610f4c7f65d7a28e3265b37a6474929f336521b332c1681b933f6cb9f3376673440d862a3361062d565b610f8b576040517f08c379a0000000000000000000000000000000000000000000000000000000008152600401610f829061226d565b60405180910390fd5b610f93611a30565b565b6000801b81565b6000610fa6611aa2565b905060008160000160089054906101000a900460ff1615905060008260000160009054906101000a900467ffffffffffffffff1690506000808267ffffffffffffffff16148015610ff45750825b9050600060018367ffffffffffffffff16148015611029575060003073ffffffffffffffffffffffffffffffffffffffff163b145b905081158015611037575080155b1561106e576040517ff92ee8a900000000000000000000000000000000000000000000000000000000815260040160405180910390fd5b60018560000160006101000a81548167ffffffffffffffff021916908367ffffffffffffffff16021790555083156110be5760018560000160086101000a81548160ff0219169083151502179055505b6110c786611aca565b83156111235760008560000160086101000a81548160ff0219169083151502179055507fc7f505b2f371ae2175ee4913f4499e1f2633a7b5936321eed1cdaeb6115181d2600160405161111a9190612d12565b60405180910390a15b505050505050565b61113482610730565b61113d816115ce565b61114783836116eb565b50505050565b611155611887565b61115d611c79565b6000600160008473ffffffffffffffffffffffffffffffffffffffff1673ffffffffffffffffffffffffffffffffffffffff168152602001908152602001600020600083815260200190815260200160002090506000600260008573ffffffffffffffffffffffffffffffffffffffff1673ffffffffffffffffffffffffffffffffffffffff1681526020019081526020016000206000848152602001908152602001600020905060008180549050148061122057508080549050826006015410155b15611257576040517f8bdb538100000000000000000000000000000000000000000000000000000000815260040160405180910390fd5b6000808360010154905060005b838054905081101561133e57610e10848281548110611286576112856129cf565b5b9060005260206000209060020201600001546112a29190612d2d565b826112ad9190612d6f565b91508460060154811061132b5781421061133e5760006127108583815481106112d9576112d86129cf565b5b90600052602060002090600202016001015487600401546112fa9190612d2d565b6113049190612dd2565b905080846113129190612d6f565b93506001826113219190612d6f565b8660060181905550505b808061133690612a2d565b915050611264565b5060008211611379576040517f3507415000000000000000000000000000000000000000000000000000000000815260040160405180910390fd5b8184600501600082825461138d9190612d6f565b92505081905550600073ffffffffffffffffffffffffffffffffffffffff168460030160009054906101000a900473ffffffffffffffffffffffffffffffffffffffff1673ffffffffffffffffffffffffffffffffffffffff16146114205761141b8460030160009054906101000a900473ffffffffffffffffffffffffffffffffffffffff168784611cba565b61142b565b61142a8683611df0565b5b818673ffffffffffffffffffffffffffffffffffffffff167fb21fb52d5749b80f3182f8c6992236b5e5576681880914484d7f4c9b062e619e60405160405180910390a35050505061147b611a17565b5050565b7f65d7a28e3265b37a6474929f336521b332c1681b933f6cb9f3376673440d862a81565b6114b06000801b3361062d565b6114ef576040517f08c379a00000000000000000000000000000000000000000000000000000000081526004016114e69061226d565b60405180910390fd5b60008111611532576040517f08c379a000000000000000000000000000000000000000000000000000000000815260040161152990612e4f565b60405180910390fd5b8060008190555050565b60007f02dd7bc7dec4dceedda775e58dd541e08a116c6c53815c0bd028192f7b626800905090565b60007f01ffc9a7000000000000000000000000000000000000000000000000000000007bffffffffffffffffffffffffffffffffffffffffffffffffffffffff1916827bffffffffffffffffffffffffffffffffffffffffffffffffffffffff1916149050919050565b6115df816115da6116e3565b611ef0565b50565b6000806115ed61153c565b90506115f9848461062d565b6116d757600181600001600086815260200190815260200160002060000160008573ffffffffffffffffffffffffffffffffffffffff1673ffffffffffffffffffffffffffffffffffffffff16815260200190815260200160002060006101000a81548160ff0219169083151502179055506116736116e3565b73ffffffffffffffffffffffffffffffffffffffff168373ffffffffffffffffffffffffffffffffffffffff16857f2f8788117e7eff1d82e926ec794901d17c78024a50270940304540a733656f0d60405160405180910390a460019150506116dd565b60009150505b92915050565b600033905090565b6000806116f661153c565b9050611702848461062d565b156117e157600081600001600086815260200190815260200160002060000160008573ffffffffffffffffffffffffffffffffffffffff1673ffffffffffffffffffffffffffffffffffffffff16815260200190815260200160002060006101000a81548160ff02191690831515021790555061177d6116e3565b73ffffffffffffffffffffffffffffffffffffffff168373ffffffffffffffffffffffffffffffffffffffff16857ff6391f5c32d9c69d2a47ea670b442974b53935d1edc7fd64eb21e047a839171b60405160405180910390a460019150506117e7565b60009150505b92915050565b6117f5611f41565b60006117ff61185f565b905060008160000160006101000a81548160ff0219169083151502179055507f5db9ee0a495bf2e6ff9c91a7834c1ba4fdd244a5e8aa4e537bd38aeae4b073aa6118476116e3565b6040516118549190612e6f565b60405180910390a150565b60007fcd5ed15c6e187e77e9aee88184c21f4f2182ab5827cb3b7e07fbedcd63f03300905090565b6000611891611f81565b905060028160000154036118d1576040517f3ee5aeb500000000000000000000000000000000000000000000000000000000815260040160405180910390fd5b6002816000018190555050565b6000808573ffffffffffffffffffffffffffffffffffffffff166323b872dd86868660405160240161191293929190612e8a565b6040516020818303038152906040529060e01b6020820180517bffffffffffffffffffffffffffffffffffffffffffffffffffffffff83818316178352505050506040516119609190612f32565b6000604051808303816000865af19150503d806000811461199d576040519150601f19603f3d011682016040523d82523d6000602084013e6119a2565b606091505b50915091508180156119d057506000815114806119cf5750808060200190518101906119ce9190612f75565b5b5b611a0f576040517f08c379a0000000000000000000000000000000000000000000000000000000008152600401611a0690613014565b60405180910390fd5b505050505050565b6000611a21611f81565b90506001816000018190555050565b611a38611c79565b6000611a4261185f565b905060018160000160006101000a81548160ff0219169083151502179055507f62e78cea01bee320cd4e420270b5ea74000d11b0c9f74754ebdbfc544b05a258611a8a6116e3565b604051611a979190612e6f565b60405180910390a150565b60007ff0c57e16840df040f15088dc2f81fe391c3923bec73e23a9662efc9c229c6a00905090565b6000611ad4611aa2565b905060008160000160089054906101000a900460ff1615905060008260000160009054906101000a900467ffffffffffffffff1690506000808267ffffffffffffffff16148015611b225750825b9050600060018367ffffffffffffffff16148015611b57575060003073ffffffffffffffffffffffffffffffffffffffff163b145b905081158015611b65575080155b15611b9c576040517ff92ee8a900000000000000000000000000000000000000000000000000000000815260040160405180910390fd5b60018560000160006101000a81548167ffffffffffffffff021916908367ffffffffffffffff1602179055508315611bec5760018560000160086101000a81548160ff0219169083151502179055505b611bf4611fa9565b611bfc611fb3565b611c04611fbd565b611c0d86611ff1565b60646000819055508315611c715760008560000160086101000a81548160ff0219169083151502179055507fc7f505b2f371ae2175ee4913f4499e1f2633a7b5936321eed1cdaeb6115181d26001604051611c689190612d12565b60405180910390a15b505050505050565b611c816108bd565b15611cb8576040517fd93c066500000000000000000000000000000000000000000000000000000000815260040160405180910390fd5b565b6000808473ffffffffffffffffffffffffffffffffffffffff1663a9059cbb8585604051602401611cec929190613034565b6040516020818303038152906040529060e01b6020820180517bffffffffffffffffffffffffffffffffffffffffffffffffffffffff8381831617835250505050604051611d3a9190612f32565b6000604051808303816000865af19150503d8060008114611d77576040519150601f19603f3d011682016040523d82523d6000602084013e611d7c565b606091505b5091509150818015611daa5750600081511480611da9575080806020019051810190611da89190612f75565b5b5b611de9576040517f08c379a0000000000000000000000000000000000000000000000000000000008152600401611de0906130cf565b60405180910390fd5b5050505050565b60008273ffffffffffffffffffffffffffffffffffffffff1682600067ffffffffffffffff811115611e2557611e2461252a565b5b6040519080825280601f01601f191660200182016040528015611e575781602001600182028036833780820191505090505b50604051611e659190612f32565b60006040518083038185875af1925050503d8060008114611ea2576040519150601f19603f3d011682016040523d82523d6000602084013e611ea7565b606091505b5050905080611eeb576040517f08c379a0000000000000000000000000000000000000000000000000000000008152600401611ee290613161565b60405180910390fd5b505050565b611efa828261062d565b611f3d5780826040517fe2517d3f000000000000000000000000000000000000000000000000000000008152600401611f34929190613181565b60405180910390fd5b5050565b611f496108bd565b611f7f576040517f8dfc202b00000000000000000000000000000000000000000000000000000000815260040160405180910390fd5b565b60007f9b779b17422d0df92223018b32b4d1fa46e071723d6817e2486d003becc55f00905090565b611fb16121b0565b565b611fbb6121b0565b565b611fc56121b0565b6000611fcf61185f565b905060008160000160006101000a81548160ff02191690831515021790555050565b6000611ffb611aa2565b905060008160000160089054906101000a900460ff1615905060008260000160009054906101000a900467ffffffffffffffff1690506000808267ffffffffffffffff161480156120495750825b9050600060018367ffffffffffffffff1614801561207e575060003073ffffffffffffffffffffffffffffffffffffffff163b145b90508115801561208c575080155b156120c3576040517ff92ee8a900000000000000000000000000000000000000000000000000000000815260040160405180910390fd5b60018560000160006101000a81548167ffffffffffffffff021916908367ffffffffffffffff16021790555083156121135760018560000160086101000a81548160ff0219169083151502179055505b6121206000801b876115e2565b5061214b7f65d7a28e3265b37a6474929f336521b332c1681b933f6cb9f3376673440d862a876115e2565b5083156121a85760008560000160086101000a81548160ff0219169083151502179055507fc7f505b2f371ae2175ee4913f4499e1f2633a7b5936321eed1cdaeb6115181d2600160405161219f9190612d12565b60405180910390a15b505050505050565b6121b86121f0565b6121ee576040517fd7e6bcf800000000000000000000000000000000000000000000000000000000815260040160405180910390fd5b565b60006121fa611aa2565b60000160089054906101000a900460ff16905090565b600082825260208201905092915050565b7f4f776e61626c655061757361626c653a206163636573732064656e6965640000600082015250565b6000612257601e83612210565b915061226282612221565b602082019050919050565b600060208201905081810360008301526122868161224a565b9050919050565b6000604051905090565b600080fd5b600080fd5b60007fffffffff0000000000000000000000000000000000000000000000000000000082169050919050565b6122d6816122a1565b81146122e157600080fd5b50565b6000813590506122f3816122cd565b92915050565b60006020828403121561230f5761230e612297565b5b600061231d848285016122e4565b91505092915050565b60008115159050919050565b61233b81612326565b82525050565b60006020820190506123566000830184612332565b92915050565b600073ffffffffffffffffffffffffffffffffffffffff82169050919050565b60006123878261235c565b9050919050565b6123978161237c565b81146123a257600080fd5b50565b6000813590506123b48161238e565b92915050565b6000602082840312156123d0576123cf612297565b5b60006123de848285016123a5565b91505092915050565b6000819050919050565b6123fa816123e7565b811461240557600080fd5b50565b600081359050612417816123f1565b92915050565b60006020828403121561243357612432612297565b5b600061244184828501612408565b91505092915050565b612453816123e7565b82525050565b600060208201905061246e600083018461244a565b92915050565b6000806040838503121561248b5761248a612297565b5b600061249985828601612408565b92505060206124aa858286016123a5565b9150509250929050565b6000819050919050565b6124c7816124b4565b82525050565b60006020820190506124e260008301846124be565b92915050565b6124f1816124b4565b81146124fc57600080fd5b50565b60008135905061250e816124e8565b92915050565b600080fd5b6000601f19601f8301169050919050565b7f4e487b7100000000000000000000000000000000000000000000000000000000600052604160045260246000fd5b61256282612519565b810181811067ffffffffffffffff821117156125815761258061252a565b5b80604052505050565b600061259461228d565b90506125a08282612559565b919050565b600067ffffffffffffffff8211156125c0576125bf61252a565b5b602082029050602081019050919050565b600080fd5b600080fd5b6000604082840312156125f1576125f06125d6565b5b6125fb604061258a565b9050600061260b848285016124ff565b600083015250602061261f848285016124ff565b60208301525092915050565b600061263e612639846125a5565b61258a565b90508083825260208201905060408402830185811115612661576126606125d1565b5b835b8181101561268a578061267688826125db565b845260208401935050604081019050612663565b5050509392505050565b600082601f8301126126a9576126a8612514565b5b81356126b984826020860161262b565b91505092915050565b600080600080600060a086880312156126de576126dd612297565b5b60006126ec88828901612408565b95505060206126fd888289016123a5565b945050604061270e888289016123a5565b935050606061271f888289016124ff565b925050608086013567ffffffffffffffff8111156127405761273f61229c565b5b61274c88828901612694565b9150509295509295909350565b600080604083850312156127705761276f612297565b5b600061277e858286016123a5565b925050602061278f85828601612408565b9150509250929050565b6127a28161237c565b82525050565b600060e0820190506127bd600083018a612799565b6127ca60208301896124be565b6127d760408301886124be565b6127e46060830187612799565b6127f160808301866124be565b6127fe60a08301856124be565b61280b60c08301846124be565b98975050505050505050565b6000806000606084860312156128305761282f612297565b5b600061283e868287016123a5565b935050602061284f86828701612408565b9250506040612860868287016124ff565b9150509250925092565b600060408201905061287f60008301856124be565b61288c60208301846124be565b9392505050565b6000602082840312156128a9576128a8612297565b5b60006128b7848285016124ff565b91505092915050565b600081519050919050565b600082825260208201905092915050565b6000819050602082019050919050565b6128f5816124b4565b82525050565b60408201600082015161291160008501826128ec565b50602082015161292460208501826128ec565b50505050565b600061293683836128fb565b60408301905092915050565b6000602082019050919050565b600061295a826128c0565b61296481856128cb565b935061296f836128dc565b8060005b838110156129a0578151612987888261292a565b975061299283612942565b925050600181019050612973565b5085935050505092915050565b600060208201905081810360008301526129c7818461294f565b905092915050565b7f4e487b7100000000000000000000000000000000000000000000000000000000600052603260045260246000fd5b7f4e487b7100000000000000000000000000000000000000000000000000000000600052601160045260246000fd5b6000612a38826124b4565b91507fffffffffffffffffffffffffffffffffffffffffffffffffffffffffffffffff8203612a6a57612a696129fe565b5b600182019050919050565b612a7e8161237c565b82525050565b6000612a908383612a75565b60208301905092915050565b612aa5816124b4565b82525050565b6000612ab78383612a9c565b60208301905092915050565b600082016000820151612ad68482612a84565b9350506020820151612ae88482612aab565b9350506040820151612afa8482612aab565b9350506060820151612b0c8482612a84565b9350506080820151612b1e8482612aab565b93505060a0820151612b308482612aab565b93505060c0820151612b428482612aab565b935050505050565b6000612b568383612ac3565b60e08301905092915050565b600081905092915050565b600082016000820151612b808482612aab565b9350506020820151612b928482612aab565b935050505050565b6000612ba68383612b6d565b60408301905092915050565b6000612bbd826128c0565b612bc78185612b62565b9350612bd2836128dc565b8060005b83811015612c03578151612bea8882612b9a565b9750612bf583612942565b925050600181019050612bd6565b5085935050505092915050565b6000612c1c8383612bb2565b905092915050565b612c2d816123e7565b82525050565b6000612c3f8383612c24565b60208301905092915050565b60008083016000830151612c5f8582612b4a565b9450506020830151612c718582612c10565b9450506040830151612c838582612a84565b9450506060830151612c958582612c33565b9450508391505092915050565b6000612cae8284612c4b565b915081905092915050565b6000819050919050565b600067ffffffffffffffff82169050919050565b6000819050919050565b6000612cfc612cf7612cf284612cb9565b612cd7565b612cc3565b9050919050565b612d0c81612ce1565b82525050565b6000602082019050612d276000830184612d03565b92915050565b6000612d38826124b4565b9150612d43836124b4565b9250828202612d51816124b4565b91508282048414831517612d6857612d676129fe565b5b5092915050565b6000612d7a826124b4565b9150612d85836124b4565b9250828201905080821115612d9d57612d9c6129fe565b5b92915050565b7f4e487b7100000000000000000000000000000000000000000000000000000000600052601260045260246000fd5b6000612ddd826124b4565b9150612de8836124b4565b925082612df857612df7612da3565b5b828204905092915050565b7f4d6f726967696e4170703a20696e76616c69642076616c756521000000000000600082015250565b6000612e39601a83612210565b9150612e4482612e03565b602082019050919050565b60006020820190508181036000830152612e6881612e2c565b9050919050565b6000602082019050612e846000830184612799565b92915050565b6000606082019050612e9f6000830186612799565b612eac6020830185612799565b612eb960408301846124be565b949350505050565b600081519050919050565b600081905092915050565b60005b83811015612ef5578082015181840152602081019050612eda565b60008484015250505050565b6000612f0c82612ec1565b612f168185612ecc565b9350612f26818560208601612ed7565b80840191505092915050565b6000612f3e8284612f01565b915081905092915050565b612f5281612326565b8114612f5d57600080fd5b50565b600081519050612f6f81612f49565b92915050565b600060208284031215612f8b57612f8a612297565b5b6000612f9984828501612f60565b91505092915050565b7f5472616e7366657248656c7065723a3a7472616e7366657246726f6d3a20747260008201527f616e7366657246726f6d206661696c6564000000000000000000000000000000602082015250565b6000612ffe603183612210565b915061300982612fa2565b604082019050919050565b6000602082019050818103600083015261302d81612ff1565b9050919050565b60006040820190506130496000830185612799565b61305660208301846124be565b9392505050565b7f5472616e7366657248656c7065723a3a736166655472616e736665723a20747260008201527f616e73666572206661696c656400000000000000000000000000000000000000602082015250565b60006130b9602d83612210565b91506130c48261305d565b604082019050919050565b600060208201905081810360008301526130e8816130ac565b9050919050565b7f5472616e7366657248656c7065723a3a736166655472616e736665724554483a60008201527f20455448207472616e73666572206661696c6564000000000000000000000000602082015250565b600061314b603483612210565b9150613156826130ef565b604082019050919050565b6000602082019050818103600083015261317a8161313e565b9050919050565b60006040820190506131966000830185612799565b6131a3602083018461244a565b939250505056fea264697066735822122044f4021cadac0efb3b414e6693b0608bbaf7f49cf44705bdc93ce064d0d0036164736f6c63430008140033","opcodes":"PUSH1 0x80 PUSH1 0x40 MSTORE CALLVALUE DUP1 ISZERO PUSH2 0x10 JUMPI PUSH1 0x0 DUP1 REVERT JUMPDEST POP PUSH2 0x31E0 DUP1 PUSH2 0x20 PUSH1 0x0 CODECOPY PUSH1 0x0 RETURN INVALID PUSH1 0x80 PUSH1 0x40 MSTORE PUSH1 0x4 CALLDATASIZE LT PUSH2 0x14F JUMPI PUSH1 0x0 CALLDATALOAD PUSH1 0xE0 SHR DUP1 PUSH4 0x7623F00E GT PUSH2 0xB6 JUMPI DUP1 PUSH4 0xA217FDDF GT PUSH2 0x6F JUMPI DUP1 PUSH4 0xA217FDDF EQ PUSH2 0x533 JUMPI DUP1 PUSH4 0xC4D66DE8 EQ PUSH2 0x55E JUMPI DUP1 PUSH4 0xD547741F EQ PUSH2 0x587 JUMPI DUP1 PUSH4 0xD7C2EEC7 EQ PUSH2 0x5B0 JUMPI DUP1 PUSH4 0xE63AB1E9 EQ PUSH2 0x5D9 JUMPI DUP1 PUSH4 0xF2407CA4 EQ PUSH2 0x604 JUMPI PUSH2 0x1E6 JUMP JUMPDEST DUP1 PUSH4 0x7623F00E EQ PUSH2 0x419 JUMPI DUP1 PUSH4 0x7B00FFAD EQ PUSH2 0x435 JUMPI DUP1 PUSH4 0x82A969E2 EQ PUSH2 0x478 JUMPI DUP1 PUSH4 0x82DC1EC4 EQ PUSH2 0x4B6 JUMPI DUP1 PUSH4 0x8456CB59 EQ PUSH2 0x4DF JUMPI DUP1 PUSH4 0x91D14854 EQ PUSH2 0x4F6 JUMPI PUSH2 0x1E6 JUMP JUMPDEST DUP1 PUSH4 0x3D538ECF GT PUSH2 0x108 JUMPI DUP1 PUSH4 0x3D538ECF EQ PUSH2 0x31D JUMPI DUP1 PUSH4 0x3F4BA83A EQ PUSH2 0x348 JUMPI DUP1 PUSH4 0x46FBF68E EQ PUSH2 0x35F JUMPI DUP1 PUSH4 0x5C975ABB EQ PUSH2 0x39C JUMPI DUP1 PUSH4 0x6B2C0F55 EQ PUSH2 0x3C7 JUMPI DUP1 PUSH4 0x70480275 EQ PUSH2 0x3F0 JUMPI PUSH2 0x1E6 JUMP JUMPDEST DUP1 PUSH4 0x1FFC9A7 EQ PUSH2 0x1EB JUMPI DUP1 PUSH4 0x1785F53C EQ PUSH2 0x228 JUMPI DUP1 PUSH4 0x248A9CA3 EQ PUSH2 0x251 JUMPI DUP1 PUSH4 0x24D7806C EQ PUSH2 0x28E JUMPI DUP1 PUSH4 0x2F2FF15D EQ PUSH2 0x2CB JUMPI DUP1 PUSH4 0x36568ABE EQ PUSH2 0x2F4 JUMPI PUSH2 0x1E6 JUMP JUMPDEST CALLDATASIZE PUSH2 0x1E6 JUMPI PUSH2 0x161 PUSH1 0x0 DUP1 SHL CALLER PUSH2 0x62D JUMP JUMPDEST PUSH2 0x1A0 JUMPI PUSH1 0x40 MLOAD PUSH32 0x8C379A000000000000000000000000000000000000000000000000000000000 DUP2 MSTORE PUSH1 0x4 ADD PUSH2 0x197 SWAP1 PUSH2 0x226D JUMP JUMPDEST PUSH1 0x40 MLOAD DUP1 SWAP2 SUB SWAP1 REVERT JUMPDEST CALLVALUE CALLER PUSH20 0xFFFFFFFFFFFFFFFFFFFFFFFFFFFFFFFFFFFFFFFF AND PUSH32 0x88A5966D370B9919B20F3E2C13FF65706F196A4E32CC2C12BF57088F88525874 PUSH1 0x40 MLOAD PUSH1 0x40 MLOAD DUP1 SWAP2 SUB SWAP1 LOG3 STOP JUMPDEST PUSH1 0x0 DUP1 REVERT JUMPDEST CALLVALUE DUP1 ISZERO PUSH2 0x1F7 JUMPI PUSH1 0x0 DUP1 REVERT JUMPDEST POP PUSH2 0x212 PUSH1 0x4 DUP1 CALLDATASIZE SUB DUP2 ADD SWAP1 PUSH2 0x20D SWAP2 SWAP1 PUSH2 0x22F9 JUMP JUMPDEST PUSH2 0x6A6 JUMP JUMPDEST PUSH1 0x40 MLOAD PUSH2 0x21F SWAP2 SWAP1 PUSH2 0x2341 JUMP JUMPDEST PUSH1 0x40 MLOAD DUP1 SWAP2 SUB SWAP1 RETURN JUMPDEST CALLVALUE DUP1 ISZERO PUSH2 0x234 JUMPI PUSH1 0x0 DUP1 REVERT JUMPDEST POP PUSH2 0x24F PUSH1 0x4 DUP1 CALLDATASIZE SUB DUP2 ADD SWAP1 PUSH2 0x24A SWAP2 SWAP1 PUSH2 0x23BA JUMP JUMPDEST PUSH2 0x720 JUMP JUMPDEST STOP JUMPDEST CALLVALUE DUP1 ISZERO PUSH2 0x25D JUMPI PUSH1 0x0 DUP1 REVERT JUMPDEST POP PUSH2 0x278 PUSH1 0x4 DUP1 CALLDATASIZE SUB DUP2 ADD SWAP1 PUSH2 0x273 SWAP2 SWAP1 PUSH2 0x241D JUMP JUMPDEST PUSH2 0x730 JUMP JUMPDEST PUSH1 0x40 MLOAD PUSH2 0x285 SWAP2 SWAP1 PUSH2 0x2459 JUMP JUMPDEST PUSH1 0x40 MLOAD DUP1 SWAP2 SUB SWAP1 RETURN JUMPDEST CALLVALUE DUP1 ISZERO PUSH2 0x29A JUMPI PUSH1 0x0 DUP1 REVERT JUMPDEST POP PUSH2 0x2B5 PUSH1 0x4 DUP1 CALLDATASIZE SUB DUP2 ADD SWAP1 PUSH2 0x2B0 SWAP2 SWAP1 PUSH2 0x23BA JUMP JUMPDEST PUSH2 0x75E JUMP JUMPDEST PUSH1 0x40 MLOAD PUSH2 0x2C2 SWAP2 SWAP1 PUSH2 0x2341 JUMP JUMPDEST PUSH1 0x40 MLOAD DUP1 SWAP2 SUB SWAP1 RETURN JUMPDEST CALLVALUE DUP1 ISZERO PUSH2 0x2D7 JUMPI PUSH1 0x0 DUP1 REVERT JUMPDEST POP PUSH2 0x2F2 PUSH1 0x4 DUP1 CALLDATASIZE SUB DUP2 ADD SWAP1 PUSH2 0x2ED SWAP2 SWAP1 PUSH2 0x2474 JUMP JUMPDEST PUSH2 0x774 JUMP JUMPDEST STOP JUMPDEST CALLVALUE DUP1 ISZERO PUSH2 0x300 JUMPI PUSH1 0x0 DUP1 REVERT JUMPDEST POP PUSH2 0x31B PUSH1 0x4 DUP1 CALLDATASIZE SUB DUP2 ADD SWAP1 PUSH2 0x316 SWAP2 SWAP1 PUSH2 0x2474 JUMP JUMPDEST PUSH2 0x796 JUMP JUMPDEST STOP JUMPDEST CALLVALUE DUP1 ISZERO PUSH2 0x329 JUMPI PUSH1 0x0 DUP1 REVERT JUMPDEST POP PUSH2 0x332 PUSH2 0x811 JUMP JUMPDEST PUSH1 0x40 MLOAD PUSH2 0x33F SWAP2 SWAP1 PUSH2 0x24CD JUMP JUMPDEST PUSH1 0x40 MLOAD DUP1 SWAP2 SUB SWAP1 RETURN JUMPDEST CALLVALUE DUP1 ISZERO PUSH2 0x354 JUMPI PUSH1 0x0 DUP1 REVERT JUMPDEST POP PUSH2 0x35D PUSH2 0x817 JUMP JUMPDEST STOP JUMPDEST CALLVALUE DUP1 ISZERO PUSH2 0x36B JUMPI PUSH1 0x0 DUP1 REVERT JUMPDEST POP PUSH2 0x386 PUSH1 0x4 DUP1 CALLDATASIZE SUB DUP2 ADD SWAP1 PUSH2 0x381 SWAP2 SWAP1 PUSH2 0x23BA JUMP JUMPDEST PUSH2 0x88A JUMP JUMPDEST PUSH1 0x40 MLOAD PUSH2 0x393 SWAP2 SWAP1 PUSH2 0x2341 JUMP JUMPDEST PUSH1 0x40 MLOAD DUP1 SWAP2 SUB SWAP1 RETURN JUMPDEST CALLVALUE DUP1 ISZERO PUSH2 0x3A8 JUMPI PUSH1 0x0 DUP1 REVERT JUMPDEST POP PUSH2 0x3B1 PUSH2 0x8BD JUMP JUMPDEST PUSH1 0x40 MLOAD PUSH2 0x3BE SWAP2 SWAP1 PUSH2 0x2341 JUMP JUMPDEST PUSH1 0x40 MLOAD DUP1 SWAP2 SUB SWAP1 RETURN JUMPDEST CALLVALUE DUP1 ISZERO PUSH2 0x3D3 JUMPI PUSH1 0x0 DUP1 REVERT JUMPDEST POP PUSH2 0x3EE PUSH1 0x4 DUP1 CALLDATASIZE SUB DUP2 ADD SWAP1 PUSH2 0x3E9 SWAP2 SWAP1 PUSH2 0x23BA JUMP JUMPDEST PUSH2 0x8E2 JUMP JUMPDEST STOP JUMPDEST CALLVALUE DUP1 ISZERO PUSH2 0x3FC JUMPI PUSH1 0x0 DUP1 REVERT JUMPDEST POP PUSH2 0x417 PUSH1 0x4 DUP1 CALLDATASIZE SUB DUP2 ADD SWAP1 PUSH2 0x412 SWAP2 SWAP1 PUSH2 0x23BA JUMP JUMPDEST PUSH2 0x90F JUMP JUMPDEST STOP JUMPDEST PUSH2 0x433 PUSH1 0x4 DUP1 CALLDATASIZE SUB DUP2 ADD SWAP1 PUSH2 0x42E SWAP2 SWAP1 PUSH2 0x26C2 JUMP JUMPDEST PUSH2 0x91F JUMP JUMPDEST STOP JUMPDEST CALLVALUE DUP1 ISZERO PUSH2 0x441 JUMPI PUSH1 0x0 DUP1 REVERT JUMPDEST POP PUSH2 0x45C PUSH1 0x4 DUP1 CALLDATASIZE SUB DUP2 ADD SWAP1 PUSH2 0x457 SWAP2 SWAP1 PUSH2 0x2759 JUMP JUMPDEST PUSH2 0xE18 JUMP JUMPDEST PUSH1 0x40 MLOAD PUSH2 0x46F SWAP8 SWAP7 SWAP6 SWAP5 SWAP4 SWAP3 SWAP2 SWAP1 PUSH2 0x27A8 JUMP JUMPDEST PUSH1 0x40 MLOAD DUP1 SWAP2 SUB SWAP1 RETURN JUMPDEST CALLVALUE DUP1 ISZERO PUSH2 0x484 JUMPI PUSH1 0x0 DUP1 REVERT JUMPDEST POP PUSH2 0x49F PUSH1 0x4 DUP1 CALLDATASIZE SUB DUP2 ADD SWAP1 PUSH2 0x49A SWAP2 SWAP1 PUSH2 0x2817 JUMP JUMPDEST PUSH2 0xEA7 JUMP JUMPDEST PUSH1 0x40 MLOAD PUSH2 0x4AD SWAP3 SWAP2 SWAP1 PUSH2 0x286A JUMP JUMPDEST PUSH1 0x40 MLOAD DUP1 SWAP2 SUB SWAP1 RETURN JUMPDEST CALLVALUE DUP1 ISZERO PUSH2 0x4C2 JUMPI PUSH1 0x0 DUP1 REVERT JUMPDEST POP PUSH2 0x4DD PUSH1 0x4 DUP1 CALLDATASIZE SUB DUP2 ADD SWAP1 PUSH2 0x4D8 SWAP2 SWAP1 PUSH2 0x23BA JUMP JUMPDEST PUSH2 0xEF5 JUMP JUMPDEST STOP JUMPDEST CALLVALUE DUP1 ISZERO PUSH2 0x4EB JUMPI PUSH1 0x0 DUP1 REVERT JUMPDEST POP PUSH2 0x4F4 PUSH2 0xF22 JUMP JUMPDEST STOP JUMPDEST CALLVALUE DUP1 ISZERO PUSH2 0x502 JUMPI PUSH1 0x0 DUP1 REVERT JUMPDEST POP PUSH2 0x51D PUSH1 0x4 DUP1 CALLDATASIZE SUB DUP2 ADD SWAP1 PUSH2 0x518 SWAP2 SWAP1 PUSH2 0x2474 JUMP JUMPDEST PUSH2 0x62D JUMP JUMPDEST PUSH1 0x40 MLOAD PUSH2 0x52A SWAP2 SWAP1 PUSH2 0x2341 JUMP JUMPDEST PUSH1 0x40 MLOAD DUP1 SWAP2 SUB SWAP1 RETURN JUMPDEST CALLVALUE DUP1 ISZERO PUSH2 0x53F JUMPI PUSH1 0x0 DUP1 REVERT JUMPDEST POP PUSH2 0x548 PUSH2 0xF95 JUMP JUMPDEST PUSH1 0x40 MLOAD PUSH2 0x555 SWAP2 SWAP1 PUSH2 0x2459 JUMP JUMPDEST PUSH1 0x40 MLOAD DUP1 SWAP2 SUB SWAP1 RETURN JUMPDEST CALLVALUE DUP1 ISZERO PUSH2 0x56A JUMPI PUSH1 0x0 DUP1 REVERT JUMPDEST POP PUSH2 0x585 PUSH1 0x4 DUP1 CALLDATASIZE SUB DUP2 ADD SWAP1 PUSH2 0x580 SWAP2 SWAP1 PUSH2 0x23BA JUMP JUMPDEST PUSH2 0xF9C JUMP JUMPDEST STOP JUMPDEST CALLVALUE DUP1 ISZERO PUSH2 0x593 JUMPI PUSH1 0x0 DUP1 REVERT JUMPDEST POP PUSH2 0x5AE PUSH1 0x4 DUP1 CALLDATASIZE SUB DUP2 ADD SWAP1 PUSH2 0x5A9 SWAP2 SWAP1 PUSH2 0x2474 JUMP JUMPDEST PUSH2 0x112B JUMP JUMPDEST STOP JUMPDEST CALLVALUE DUP1 ISZERO PUSH2 0x5BC JUMPI PUSH1 0x0 DUP1 REVERT JUMPDEST POP PUSH2 0x5D7 PUSH1 0x4 DUP1 CALLDATASIZE SUB DUP2 ADD SWAP1 PUSH2 0x5D2 SWAP2 SWAP1 PUSH2 0x2759 JUMP JUMPDEST PUSH2 0x114D JUMP JUMPDEST STOP JUMPDEST CALLVALUE DUP1 ISZERO PUSH2 0x5E5 JUMPI PUSH1 0x0 DUP1 REVERT JUMPDEST POP PUSH2 0x5EE PUSH2 0x147F JUMP JUMPDEST PUSH1 0x40 MLOAD PUSH2 0x5FB SWAP2 SWAP1 PUSH2 0x2459 JUMP JUMPDEST PUSH1 0x40 MLOAD DUP1 SWAP2 SUB SWAP1 RETURN JUMPDEST CALLVALUE DUP1 ISZERO PUSH2 0x610 JUMPI PUSH1 0x0 DUP1 REVERT JUMPDEST POP PUSH2 0x62B PUSH1 0x4 DUP1 CALLDATASIZE SUB DUP2 ADD SWAP1 PUSH2 0x626 SWAP2 SWAP1 PUSH2 0x2893 JUMP JUMPDEST PUSH2 0x14A3 JUMP JUMPDEST STOP JUMPDEST PUSH1 0x0 DUP1 PUSH2 0x638 PUSH2 0x153C JUMP JUMPDEST SWAP1 POP DUP1 PUSH1 0x0 ADD PUSH1 0x0 DUP6 DUP2 MSTORE PUSH1 0x20 ADD SWAP1 DUP2 MSTORE PUSH1 0x20 ADD PUSH1 0x0 KECCAK256 PUSH1 0x0 ADD PUSH1 0x0 DUP5 PUSH20 0xFFFFFFFFFFFFFFFFFFFFFFFFFFFFFFFFFFFFFFFF AND PUSH20 0xFFFFFFFFFFFFFFFFFFFFFFFFFFFFFFFFFFFFFFFF AND DUP2 MSTORE PUSH1 0x20 ADD SWAP1 DUP2 MSTORE PUSH1 0x20 ADD PUSH1 0x0 KECCAK256 PUSH1 0x0 SWAP1 SLOAD SWAP1 PUSH2 0x100 EXP SWAP1 DIV PUSH1 0xFF AND SWAP2 POP POP SWAP3 SWAP2 POP POP JUMP JUMPDEST PUSH1 0x0 PUSH32 0x7965DB0B00000000000000000000000000000000000000000000000000000000 PUSH28 0xFFFFFFFFFFFFFFFFFFFFFFFFFFFFFFFFFFFFFFFFFFFFFFFFFFFFFFFF NOT AND DUP3 PUSH28 0xFFFFFFFFFFFFFFFFFFFFFFFFFFFFFFFFFFFFFFFFFFFFFFFFFFFFFFFF NOT AND EQ DUP1 PUSH2 0x719 JUMPI POP PUSH2 0x718 DUP3 PUSH2 0x1564 JUMP JUMPDEST JUMPDEST SWAP1 POP SWAP2 SWAP1 POP JUMP JUMPDEST PUSH2 0x72D PUSH1 0x0 DUP1 SHL DUP3 PUSH2 0x112B JUMP JUMPDEST POP JUMP JUMPDEST PUSH1 0x0 DUP1 PUSH2 0x73B PUSH2 0x153C JUMP JUMPDEST SWAP1 POP DUP1 PUSH1 0x0 ADD PUSH1 0x0 DUP5 DUP2 MSTORE PUSH1 0x20 ADD SWAP1 DUP2 MSTORE PUSH1 0x20 ADD PUSH1 0x0 KECCAK256 PUSH1 0x1 ADD SLOAD SWAP2 POP POP SWAP2 SWAP1 POP JUMP JUMPDEST PUSH1 0x0 PUSH2 0x76D PUSH1 0x0 DUP1 SHL DUP4 PUSH2 0x62D JUMP JUMPDEST SWAP1 POP SWAP2 SWAP1 POP JUMP JUMPDEST PUSH2 0x77D DUP3 PUSH2 0x730 JUMP JUMPDEST PUSH2 0x786 DUP2 PUSH2 0x15CE JUMP JUMPDEST PUSH2 0x790 DUP4 DUP4 PUSH2 0x15E2 JUMP JUMPDEST POP POP POP POP JUMP JUMPDEST PUSH2 0x79E PUSH2 0x16E3 JUMP JUMPDEST PUSH20 0xFFFFFFFFFFFFFFFFFFFFFFFFFFFFFFFFFFFFFFFF AND DUP2 PUSH20 0xFFFFFFFFFFFFFFFFFFFFFFFFFFFFFFFFFFFFFFFF AND EQ PUSH2 0x802 JUMPI PUSH1 0x40 MLOAD PUSH32 0x6697B23200000000000000000000000000000000000000000000000000000000 DUP2 MSTORE PUSH1 0x4 ADD PUSH1 0x40 MLOAD DUP1 SWAP2 SUB SWAP1 REVERT JUMPDEST PUSH2 0x80C DUP3 DUP3 PUSH2 0x16EB JUMP JUMPDEST POP POP POP JUMP JUMPDEST PUSH1 0x0 SLOAD DUP2 JUMP JUMPDEST PUSH2 0x841 PUSH32 0x65D7A28E3265B37A6474929F336521B332C1681B933F6CB9F3376673440D862A CALLER PUSH2 0x62D JUMP JUMPDEST PUSH2 0x880 JUMPI PUSH1 0x40 MLOAD PUSH32 0x8C379A000000000000000000000000000000000000000000000000000000000 DUP2 MSTORE PUSH1 0x4 ADD PUSH2 0x877 SWAP1 PUSH2 0x226D JUMP JUMPDEST PUSH1 0x40 MLOAD DUP1 SWAP2 SUB SWAP1 REVERT JUMPDEST PUSH2 0x888 PUSH2 0x17ED JUMP JUMPDEST JUMP JUMPDEST PUSH1 0x0 PUSH2 0x8B6 PUSH32 0x65D7A28E3265B37A6474929F336521B332C1681B933F6CB9F3376673440D862A DUP4 PUSH2 0x62D JUMP JUMPDEST SWAP1 POP SWAP2 SWAP1 POP JUMP JUMPDEST PUSH1 0x0 DUP1 PUSH2 0x8C8 PUSH2 0x185F JUMP JUMPDEST SWAP1 POP DUP1 PUSH1 0x0 ADD PUSH1 0x0 SWAP1 SLOAD SWAP1 PUSH2 0x100 EXP SWAP1 DIV PUSH1 0xFF AND SWAP2 POP POP SWAP1 JUMP JUMPDEST PUSH2 0x90C PUSH32 0x65D7A28E3265B37A6474929F336521B332C1681B933F6CB9F3376673440D862A DUP3 PUSH2 0x112B JUMP JUMPDEST POP JUMP JUMPDEST PUSH2 0x91C PUSH1 0x0 DUP1 SHL DUP3 PUSH2 0x774 JUMP JUMPDEST POP JUMP JUMPDEST PUSH2 0x927 PUSH2 0x1887 JUMP JUMPDEST PUSH2 0x934 PUSH1 0x0 DUP1 SHL CALLER PUSH2 0x62D JUMP JUMPDEST PUSH2 0x973 JUMPI PUSH1 0x40 MLOAD PUSH32 0x8C379A000000000000000000000000000000000000000000000000000000000 DUP2 MSTORE PUSH1 0x4 ADD PUSH2 0x96A SWAP1 PUSH2 0x226D JUMP JUMPDEST PUSH1 0x40 MLOAD DUP1 SWAP2 SUB SWAP1 REVERT JUMPDEST PUSH1 0x0 PUSH20 0xFFFFFFFFFFFFFFFFFFFFFFFFFFFFFFFFFFFFFFFF AND PUSH1 0x1 PUSH1 0x0 DUP7 PUSH20 0xFFFFFFFFFFFFFFFFFFFFFFFFFFFFFFFFFFFFFFFF AND PUSH20 0xFFFFFFFFFFFFFFFFFFFFFFFFFFFFFFFFFFFFFFFF AND DUP2 MSTORE PUSH1 0x20 ADD SWAP1 DUP2 MSTORE PUSH1 0x20 ADD PUSH1 0x0 KECCAK256 PUSH1 0x0 DUP8 DUP2 MSTORE PUSH1 0x20 ADD SWAP1 DUP2 MSTORE PUSH1 0x20 ADD PUSH1 0x0 KECCAK256 PUSH1 0x0 ADD PUSH1 0x0 SWAP1 SLOAD SWAP1 PUSH2 0x100 EXP SWAP1 DIV PUSH20 0xFFFFFFFFFFFFFFFFFFFFFFFFFFFFFFFFFFFFFFFF AND PUSH20 0xFFFFFFFFFFFFFFFFFFFFFFFFFFFFFFFFFFFFFFFF AND EQ PUSH2 0xA4C JUMPI PUSH1 0x40 MLOAD PUSH32 0x628DBB9600000000000000000000000000000000000000000000000000000000 DUP2 MSTORE PUSH1 0x4 ADD PUSH1 0x40 MLOAD DUP1 SWAP2 SUB SWAP1 REVERT JUMPDEST DUP1 PUSH20 0x0 PUSH4 0x33B988F5 SWAP1 SWAP2 PUSH1 0x40 MLOAD DUP3 PUSH4 0xFFFFFFFF AND PUSH1 0xE0 SHL DUP2 MSTORE PUSH1 0x4 ADD PUSH2 0xA85 SWAP2 SWAP1 PUSH2 0x29AD JUMP JUMPDEST PUSH1 0x0 PUSH1 0x40 MLOAD DUP1 DUP4 SUB DUP2 DUP7 DUP1 EXTCODESIZE ISZERO DUP1 ISZERO PUSH2 0xA9D JUMPI PUSH1 0x0 DUP1 REVERT JUMPDEST POP GAS DELEGATECALL ISZERO DUP1 ISZERO PUSH2 0xAB1 JUMPI RETURNDATASIZE PUSH1 0x0 DUP1 RETURNDATACOPY RETURNDATASIZE PUSH1 0x0 REVERT JUMPDEST POP POP POP POP PUSH1 0x0 PUSH20 0xFFFFFFFFFFFFFFFFFFFFFFFFFFFFFFFFFFFFFFFF AND DUP4 PUSH20 0xFFFFFFFFFFFFFFFFFFFFFFFFFFFFFFFFFFFFFFFF AND SUB PUSH2 0xB34 JUMPI DUP2 CALLVALUE EQ PUSH2 0xB2F JUMPI DUP2 CALLVALUE PUSH1 0x40 MLOAD PUSH32 0x4157BB400000000000000000000000000000000000000000000000000000000 DUP2 MSTORE PUSH1 0x4 ADD PUSH2 0xB26 SWAP3 SWAP2 SWAP1 PUSH2 0x286A JUMP JUMPDEST PUSH1 0x40 MLOAD DUP1 SWAP2 SUB SWAP1 REVERT JUMPDEST PUSH2 0xB41 JUMP JUMPDEST PUSH2 0xB40 DUP4 CALLER ADDRESS DUP6 PUSH2 0x18DE JUMP JUMPDEST JUMPDEST PUSH1 0x0 TIMESTAMP SWAP1 POP PUSH1 0x0 PUSH1 0x40 MLOAD DUP1 PUSH1 0xE0 ADD PUSH1 0x40 MSTORE DUP1 CALLER PUSH20 0xFFFFFFFFFFFFFFFFFFFFFFFFFFFFFFFFFFFFFFFF AND DUP2 MSTORE PUSH1 0x20 ADD DUP4 DUP2 MSTORE PUSH1 0x20 ADD DUP4 DUP2 MSTORE PUSH1 0x20 ADD DUP7 PUSH20 0xFFFFFFFFFFFFFFFFFFFFFFFFFFFFFFFFFFFFFFFF AND DUP2 MSTORE PUSH1 0x20 ADD DUP6 DUP2 MSTORE PUSH1 0x20 ADD PUSH1 0x0 DUP2 MSTORE PUSH1 0x20 ADD PUSH1 0x0 DUP2 MSTORE POP SWAP1 POP DUP1 PUSH1 0x1 PUSH1 0x0 DUP9 PUSH20 0xFFFFFFFFFFFFFFFFFFFFFFFFFFFFFFFFFFFFFFFF AND PUSH20 0xFFFFFFFFFFFFFFFFFFFFFFFFFFFFFFFFFFFFFFFF AND DUP2 MSTORE PUSH1 0x20 ADD SWAP1 DUP2 MSTORE PUSH1 0x20 ADD PUSH1 0x0 KECCAK256 PUSH1 0x0 DUP10 DUP2 MSTORE PUSH1 0x20 ADD SWAP1 DUP2 MSTORE PUSH1 0x20 ADD PUSH1 0x0 KECCAK256 PUSH1 0x0 DUP3 ADD MLOAD DUP2 PUSH1 0x0 ADD PUSH1 0x0 PUSH2 0x100 EXP DUP2 SLOAD DUP2 PUSH20 0xFFFFFFFFFFFFFFFFFFFFFFFFFFFFFFFFFFFFFFFF MUL NOT AND SWAP1 DUP4 PUSH20 0xFFFFFFFFFFFFFFFFFFFFFFFFFFFFFFFFFFFFFFFF AND MUL OR SWAP1 SSTORE POP PUSH1 0x20 DUP3 ADD MLOAD DUP2 PUSH1 0x1 ADD SSTORE PUSH1 0x40 DUP3 ADD MLOAD DUP2 PUSH1 0x2 ADD SSTORE PUSH1 0x60 DUP3 ADD MLOAD DUP2 PUSH1 0x3 ADD PUSH1 0x0 PUSH2 0x100 EXP DUP2 SLOAD DUP2 PUSH20 0xFFFFFFFFFFFFFFFFFFFFFFFFFFFFFFFFFFFFFFFF MUL NOT AND SWAP1 DUP4 PUSH20 0xFFFFFFFFFFFFFFFFFFFFFFFFFFFFFFFFFFFFFFFF AND MUL OR SWAP1 SSTORE POP PUSH1 0x80 DUP3 ADD MLOAD DUP2 PUSH1 0x4 ADD SSTORE PUSH1 0xA0 DUP3 ADD MLOAD DUP2 PUSH1 0x5 ADD SSTORE PUSH1 0xC0 DUP3 ADD MLOAD DUP2 PUSH1 0x6 ADD SSTORE SWAP1 POP POP PUSH1 0x0 PUSH1 0x2 PUSH1 0x0 DUP9 PUSH20 0xFFFFFFFFFFFFFFFFFFFFFFFFFFFFFFFFFFFFFFFF AND PUSH20 0xFFFFFFFFFFFFFFFFFFFFFFFFFFFFFFFFFFFFFFFF AND DUP2 MSTORE PUSH1 0x20 ADD SWAP1 DUP2 MSTORE PUSH1 0x20 ADD PUSH1 0x0 KECCAK256 PUSH1 0x0 DUP10 DUP2 MSTORE PUSH1 0x20 ADD SWAP1 DUP2 MSTORE PUSH1 0x20 ADD PUSH1 0x0 KECCAK256 SWAP1 POP PUSH1 0x0 JUMPDEST DUP5 MLOAD DUP2 LT ISZERO PUSH2 0xD8D JUMPI DUP2 DUP6 DUP3 DUP2 MLOAD DUP2 LT PUSH2 0xD33 JUMPI PUSH2 0xD32 PUSH2 0x29CF JUMP JUMPDEST JUMPDEST PUSH1 0x20 MUL PUSH1 0x20 ADD ADD MLOAD SWAP1 DUP1 PUSH1 0x1 DUP2 SLOAD ADD DUP1 DUP3 SSTORE DUP1 SWAP2 POP POP PUSH1 0x1 SWAP1 SUB SWAP1 PUSH1 0x0 MSTORE PUSH1 0x20 PUSH1 0x0 KECCAK256 SWAP1 PUSH1 0x2 MUL ADD PUSH1 0x0 SWAP1 SWAP2 SWAP1 SWAP2 SWAP1 SWAP2 POP PUSH1 0x0 DUP3 ADD MLOAD DUP2 PUSH1 0x0 ADD SSTORE PUSH1 0x20 DUP3 ADD MLOAD DUP2 PUSH1 0x1 ADD SSTORE POP POP DUP1 DUP1 PUSH2 0xD85 SWAP1 PUSH2 0x2A2D JUMP JUMPDEST SWAP2 POP POP PUSH2 0xD16 JUMP JUMPDEST POP PUSH1 0x40 MLOAD DUP1 PUSH1 0x80 ADD PUSH1 0x40 MSTORE DUP1 DUP4 DUP2 MSTORE PUSH1 0x20 ADD DUP6 DUP2 MSTORE PUSH1 0x20 ADD DUP9 PUSH20 0xFFFFFFFFFFFFFFFFFFFFFFFFFFFFFFFFFFFFFFFF AND DUP2 MSTORE PUSH1 0x20 ADD DUP10 DUP2 MSTORE POP PUSH1 0x40 MLOAD PUSH2 0xDD2 SWAP2 SWAP1 PUSH2 0x2CA2 JUMP JUMPDEST PUSH1 0x40 MLOAD DUP1 SWAP2 SUB SWAP1 KECCAK256 PUSH32 0x12372B7CE6CF6EF28106CCD86980E049A7A7B404E2DEA6E5D7B5E17E57935570 PUSH1 0x40 MLOAD PUSH1 0x40 MLOAD DUP1 SWAP2 SUB SWAP1 LOG2 POP POP POP PUSH2 0xE11 PUSH2 0x1A17 JUMP JUMPDEST POP POP POP POP POP JUMP JUMPDEST PUSH1 0x1 PUSH1 0x20 MSTORE DUP2 PUSH1 0x0 MSTORE PUSH1 0x40 PUSH1 0x0 KECCAK256 PUSH1 0x20 MSTORE DUP1 PUSH1 0x0 MSTORE PUSH1 0x40 PUSH1 0x0 KECCAK256 PUSH1 0x0 SWAP2 POP SWAP2 POP POP DUP1 PUSH1 0x0 ADD PUSH1 0x0 SWAP1 SLOAD SWAP1 PUSH2 0x100 EXP SWAP1 DIV PUSH20 0xFFFFFFFFFFFFFFFFFFFFFFFFFFFFFFFFFFFFFFFF AND SWAP1 DUP1 PUSH1 0x1 ADD SLOAD SWAP1 DUP1 PUSH1 0x2 ADD SLOAD SWAP1 DUP1 PUSH1 0x3 ADD PUSH1 0x0 SWAP1 SLOAD SWAP1 PUSH2 0x100 EXP SWAP1 DIV PUSH20 0xFFFFFFFFFFFFFFFFFFFFFFFFFFFFFFFFFFFFFFFF AND SWAP1 DUP1 PUSH1 0x4 ADD SLOAD SWAP1 DUP1 PUSH1 0x5 ADD SLOAD SWAP1 DUP1 PUSH1 0x6 ADD SLOAD SWAP1 POP DUP8 JUMP JUMPDEST PUSH1 0x2 PUSH1 0x20 MSTORE DUP3 PUSH1 0x0 MSTORE PUSH1 0x40 PUSH1 0x0 KECCAK256 PUSH1 0x20 MSTORE DUP2 PUSH1 0x0 MSTORE PUSH1 0x40 PUSH1 0x0 KECCAK256 DUP2 DUP2 SLOAD DUP2 LT PUSH2 0xECF JUMPI PUSH1 0x0 DUP1 REVERT JUMPDEST SWAP1 PUSH1 0x0 MSTORE PUSH1 0x20 PUSH1 0x0 KECCAK256 SWAP1 PUSH1 0x2 MUL ADD PUSH1 0x0 SWAP3 POP SWAP3 POP POP POP DUP1 PUSH1 0x0 ADD SLOAD SWAP1 DUP1 PUSH1 0x1 ADD SLOAD SWAP1 POP DUP3 JUMP JUMPDEST PUSH2 0xF1F PUSH32 0x65D7A28E3265B37A6474929F336521B332C1681B933F6CB9F3376673440D862A DUP3 PUSH2 0x774 JUMP JUMPDEST POP JUMP JUMPDEST PUSH2 0xF4C PUSH32 0x65D7A28E3265B37A6474929F336521B332C1681B933F6CB9F3376673440D862A CALLER PUSH2 0x62D JUMP JUMPDEST PUSH2 0xF8B JUMPI PUSH1 0x40 MLOAD PUSH32 0x8C379A000000000000000000000000000000000000000000000000000000000 DUP2 MSTORE PUSH1 0x4 ADD PUSH2 0xF82 SWAP1 PUSH2 0x226D JUMP JUMPDEST PUSH1 0x40 MLOAD DUP1 SWAP2 SUB SWAP1 REVERT JUMPDEST PUSH2 0xF93 PUSH2 0x1A30 JUMP JUMPDEST JUMP JUMPDEST PUSH1 0x0 DUP1 SHL DUP2 JUMP JUMPDEST PUSH1 0x0 PUSH2 0xFA6 PUSH2 0x1AA2 JUMP JUMPDEST SWAP1 POP PUSH1 0x0 DUP2 PUSH1 0x0 ADD PUSH1 0x8 SWAP1 SLOAD SWAP1 PUSH2 0x100 EXP SWAP1 DIV PUSH1 0xFF AND ISZERO SWAP1 POP PUSH1 0x0 DUP3 PUSH1 0x0 ADD PUSH1 0x0 SWAP1 SLOAD SWAP1 PUSH2 0x100 EXP SWAP1 DIV PUSH8 0xFFFFFFFFFFFFFFFF AND SWAP1 POP PUSH1 0x0 DUP1 DUP3 PUSH8 0xFFFFFFFFFFFFFFFF AND EQ DUP1 ISZERO PUSH2 0xFF4 JUMPI POP DUP3 JUMPDEST SWAP1 POP PUSH1 0x0 PUSH1 0x1 DUP4 PUSH8 0xFFFFFFFFFFFFFFFF AND EQ DUP1 ISZERO PUSH2 0x1029 JUMPI POP PUSH1 0x0 ADDRESS PUSH20 0xFFFFFFFFFFFFFFFFFFFFFFFFFFFFFFFFFFFFFFFF AND EXTCODESIZE EQ JUMPDEST SWAP1 POP DUP2 ISZERO DUP1 ISZERO PUSH2 0x1037 JUMPI POP DUP1 ISZERO JUMPDEST ISZERO PUSH2 0x106E JUMPI PUSH1 0x40 MLOAD PUSH32 0xF92EE8A900000000000000000000000000000000000000000000000000000000 DUP2 MSTORE PUSH1 0x4 ADD PUSH1 0x40 MLOAD DUP1 SWAP2 SUB SWAP1 REVERT JUMPDEST PUSH1 0x1 DUP6 PUSH1 0x0 ADD PUSH1 0x0 PUSH2 0x100 EXP DUP2 SLOAD DUP2 PUSH8 0xFFFFFFFFFFFFFFFF MUL NOT AND SWAP1 DUP4 PUSH8 0xFFFFFFFFFFFFFFFF AND MUL OR SWAP1 SSTORE POP DUP4 ISZERO PUSH2 0x10BE JUMPI PUSH1 0x1 DUP6 PUSH1 0x0 ADD PUSH1 0x8 PUSH2 0x100 EXP DUP2 SLOAD DUP2 PUSH1 0xFF MUL NOT AND SWAP1 DUP4 ISZERO ISZERO MUL OR SWAP1 SSTORE POP JUMPDEST PUSH2 0x10C7 DUP7 PUSH2 0x1ACA JUMP JUMPDEST DUP4 ISZERO PUSH2 0x1123 JUMPI PUSH1 0x0 DUP6 PUSH1 0x0 ADD PUSH1 0x8 PUSH2 0x100 EXP DUP2 SLOAD DUP2 PUSH1 0xFF MUL NOT AND SWAP1 DUP4 ISZERO ISZERO MUL OR SWAP1 SSTORE POP PUSH32 0xC7F505B2F371AE2175EE4913F4499E1F2633A7B5936321EED1CDAEB6115181D2 PUSH1 0x1 PUSH1 0x40 MLOAD PUSH2 0x111A SWAP2 SWAP1 PUSH2 0x2D12 JUMP JUMPDEST PUSH1 0x40 MLOAD DUP1 SWAP2 SUB SWAP1 LOG1 JUMPDEST POP POP POP POP POP POP JUMP JUMPDEST PUSH2 0x1134 DUP3 PUSH2 0x730 JUMP JUMPDEST PUSH2 0x113D DUP2 PUSH2 0x15CE JUMP JUMPDEST PUSH2 0x1147 DUP4 DUP4 PUSH2 0x16EB JUMP JUMPDEST POP POP POP POP JUMP JUMPDEST PUSH2 0x1155 PUSH2 0x1887 JUMP JUMPDEST PUSH2 0x115D PUSH2 0x1C79 JUMP JUMPDEST PUSH1 0x0 PUSH1 0x1 PUSH1 0x0 DUP5 PUSH20 0xFFFFFFFFFFFFFFFFFFFFFFFFFFFFFFFFFFFFFFFF AND PUSH20 0xFFFFFFFFFFFFFFFFFFFFFFFFFFFFFFFFFFFFFFFF AND DUP2 MSTORE PUSH1 0x20 ADD SWAP1 DUP2 MSTORE PUSH1 0x20 ADD PUSH1 0x0 KECCAK256 PUSH1 0x0 DUP4 DUP2 MSTORE PUSH1 0x20 ADD SWAP1 DUP2 MSTORE PUSH1 0x20 ADD PUSH1 0x0 KECCAK256 SWAP1 POP PUSH1 0x0 PUSH1 0x2 PUSH1 0x0 DUP6 PUSH20 0xFFFFFFFFFFFFFFFFFFFFFFFFFFFFFFFFFFFFFFFF AND PUSH20 0xFFFFFFFFFFFFFFFFFFFFFFFFFFFFFFFFFFFFFFFF AND DUP2 MSTORE PUSH1 0x20 ADD SWAP1 DUP2 MSTORE PUSH1 0x20 ADD PUSH1 0x0 KECCAK256 PUSH1 0x0 DUP5 DUP2 MSTORE PUSH1 0x20 ADD SWAP1 DUP2 MSTORE PUSH1 0x20 ADD PUSH1 0x0 KECCAK256 SWAP1 POP PUSH1 0x0 DUP2 DUP1 SLOAD SWAP1 POP EQ DUP1 PUSH2 0x1220 JUMPI POP DUP1 DUP1 SLOAD SWAP1 POP DUP3 PUSH1 0x6 ADD SLOAD LT ISZERO JUMPDEST ISZERO PUSH2 0x1257 JUMPI PUSH1 0x40 MLOAD PUSH32 0x8BDB538100000000000000000000000000000000000000000000000000000000 DUP2 MSTORE PUSH1 0x4 ADD PUSH1 0x40 MLOAD DUP1 SWAP2 SUB SWAP1 REVERT JUMPDEST PUSH1 0x0 DUP1 DUP4 PUSH1 0x1 ADD SLOAD SWAP1 POP PUSH1 0x0 JUMPDEST DUP4 DUP1 SLOAD SWAP1 POP DUP2 LT ISZERO PUSH2 0x133E JUMPI PUSH2 0xE10 DUP5 DUP3 DUP2 SLOAD DUP2 LT PUSH2 0x1286 JUMPI PUSH2 0x1285 PUSH2 0x29CF JUMP JUMPDEST JUMPDEST SWAP1 PUSH1 0x0 MSTORE PUSH1 0x20 PUSH1 0x0 KECCAK256 SWAP1 PUSH1 0x2 MUL ADD PUSH1 0x0 ADD SLOAD PUSH2 0x12A2 SWAP2 SWAP1 PUSH2 0x2D2D JUMP JUMPDEST DUP3 PUSH2 0x12AD SWAP2 SWAP1 PUSH2 0x2D6F JUMP JUMPDEST SWAP2 POP DUP5 PUSH1 0x6 ADD SLOAD DUP2 LT PUSH2 0x132B JUMPI DUP2 TIMESTAMP LT PUSH2 0x133E JUMPI PUSH1 0x0 PUSH2 0x2710 DUP6 DUP4 DUP2 SLOAD DUP2 LT PUSH2 0x12D9 JUMPI PUSH2 0x12D8 PUSH2 0x29CF JUMP JUMPDEST JUMPDEST SWAP1 PUSH1 0x0 MSTORE PUSH1 0x20 PUSH1 0x0 KECCAK256 SWAP1 PUSH1 0x2 MUL ADD PUSH1 0x1 ADD SLOAD DUP8 PUSH1 0x4 ADD SLOAD PUSH2 0x12FA SWAP2 SWAP1 PUSH2 0x2D2D JUMP JUMPDEST PUSH2 0x1304 SWAP2 SWAP1 PUSH2 0x2DD2 JUMP JUMPDEST SWAP1 POP DUP1 DUP5 PUSH2 0x1312 SWAP2 SWAP1 PUSH2 0x2D6F JUMP JUMPDEST SWAP4 POP PUSH1 0x1 DUP3 PUSH2 0x1321 SWAP2 SWAP1 PUSH2 0x2D6F JUMP JUMPDEST DUP7 PUSH1 0x6 ADD DUP2 SWAP1 SSTORE POP POP JUMPDEST DUP1 DUP1 PUSH2 0x1336 SWAP1 PUSH2 0x2A2D JUMP JUMPDEST SWAP2 POP POP PUSH2 0x1264 JUMP JUMPDEST POP PUSH1 0x0 DUP3 GT PUSH2 0x1379 JUMPI PUSH1 0x40 MLOAD PUSH32 0x3507415000000000000000000000000000000000000000000000000000000000 DUP2 MSTORE PUSH1 0x4 ADD PUSH1 0x40 MLOAD DUP1 SWAP2 SUB SWAP1 REVERT JUMPDEST DUP2 DUP5 PUSH1 0x5 ADD PUSH1 0x0 DUP3 DUP3 SLOAD PUSH2 0x138D SWAP2 SWAP1 PUSH2 0x2D6F JUMP JUMPDEST SWAP3 POP POP DUP2 SWAP1 SSTORE POP PUSH1 0x0 PUSH20 0xFFFFFFFFFFFFFFFFFFFFFFFFFFFFFFFFFFFFFFFF AND DUP5 PUSH1 0x3 ADD PUSH1 0x0 SWAP1 SLOAD SWAP1 PUSH2 0x100 EXP SWAP1 DIV PUSH20 0xFFFFFFFFFFFFFFFFFFFFFFFFFFFFFFFFFFFFFFFF AND PUSH20 0xFFFFFFFFFFFFFFFFFFFFFFFFFFFFFFFFFFFFFFFF AND EQ PUSH2 0x1420 JUMPI PUSH2 0x141B DUP5 PUSH1 0x3 ADD PUSH1 0x0 SWAP1 SLOAD SWAP1 PUSH2 0x100 EXP SWAP1 DIV PUSH20 0xFFFFFFFFFFFFFFFFFFFFFFFFFFFFFFFFFFFFFFFF AND DUP8 DUP5 PUSH2 0x1CBA JUMP JUMPDEST PUSH2 0x142B JUMP JUMPDEST PUSH2 0x142A DUP7 DUP4 PUSH2 0x1DF0 JUMP JUMPDEST JUMPDEST DUP2 DUP7 PUSH20 0xFFFFFFFFFFFFFFFFFFFFFFFFFFFFFFFFFFFFFFFF AND PUSH32 0xB21FB52D5749B80F3182F8C6992236B5E5576681880914484D7F4C9B062E619E PUSH1 0x40 MLOAD PUSH1 0x40 MLOAD DUP1 SWAP2 SUB SWAP1 LOG3 POP POP POP POP PUSH2 0x147B PUSH2 0x1A17 JUMP JUMPDEST POP POP JUMP JUMPDEST PUSH32 0x65D7A28E3265B37A6474929F336521B332C1681B933F6CB9F3376673440D862A DUP2 JUMP JUMPDEST PUSH2 0x14B0 PUSH1 0x0 DUP1 SHL CALLER PUSH2 0x62D JUMP JUMPDEST PUSH2 0x14EF JUMPI PUSH1 0x40 MLOAD PUSH32 0x8C379A000000000000000000000000000000000000000000000000000000000 DUP2 MSTORE PUSH1 0x4 ADD PUSH2 0x14E6 SWAP1 PUSH2 0x226D JUMP JUMPDEST PUSH1 0x40 MLOAD DUP1 SWAP2 SUB SWAP1 REVERT JUMPDEST PUSH1 0x0 DUP2 GT PUSH2 0x1532 JUMPI PUSH1 0x40 MLOAD PUSH32 0x8C379A000000000000000000000000000000000000000000000000000000000 DUP2 MSTORE PUSH1 0x4 ADD PUSH2 0x1529 SWAP1 PUSH2 0x2E4F JUMP JUMPDEST PUSH1 0x40 MLOAD DUP1 SWAP2 SUB SWAP1 REVERT JUMPDEST DUP1 PUSH1 0x0 DUP2 SWAP1 SSTORE POP POP JUMP JUMPDEST PUSH1 0x0 PUSH32 0x2DD7BC7DEC4DCEEDDA775E58DD541E08A116C6C53815C0BD028192F7B626800 SWAP1 POP SWAP1 JUMP JUMPDEST PUSH1 0x0 PUSH32 0x1FFC9A700000000000000000000000000000000000000000000000000000000 PUSH28 0xFFFFFFFFFFFFFFFFFFFFFFFFFFFFFFFFFFFFFFFFFFFFFFFFFFFFFFFF NOT AND DUP3 PUSH28 0xFFFFFFFFFFFFFFFFFFFFFFFFFFFFFFFFFFFFFFFFFFFFFFFFFFFFFFFF NOT AND EQ SWAP1 POP SWAP2 SWAP1 POP JUMP JUMPDEST PUSH2 0x15DF DUP2 PUSH2 0x15DA PUSH2 0x16E3 JUMP JUMPDEST PUSH2 0x1EF0 JUMP JUMPDEST POP JUMP JUMPDEST PUSH1 0x0 DUP1 PUSH2 0x15ED PUSH2 0x153C JUMP JUMPDEST SWAP1 POP PUSH2 0x15F9 DUP5 DUP5 PUSH2 0x62D JUMP JUMPDEST PUSH2 0x16D7 JUMPI PUSH1 0x1 DUP2 PUSH1 0x0 ADD PUSH1 0x0 DUP7 DUP2 MSTORE PUSH1 0x20 ADD SWAP1 DUP2 MSTORE PUSH1 0x20 ADD PUSH1 0x0 KECCAK256 PUSH1 0x0 ADD PUSH1 0x0 DUP6 PUSH20 0xFFFFFFFFFFFFFFFFFFFFFFFFFFFFFFFFFFFFFFFF AND PUSH20 0xFFFFFFFFFFFFFFFFFFFFFFFFFFFFFFFFFFFFFFFF AND DUP2 MSTORE PUSH1 0x20 ADD SWAP1 DUP2 MSTORE PUSH1 0x20 ADD PUSH1 0x0 KECCAK256 PUSH1 0x0 PUSH2 0x100 EXP DUP2 SLOAD DUP2 PUSH1 0xFF MUL NOT AND SWAP1 DUP4 ISZERO ISZERO MUL OR SWAP1 SSTORE POP PUSH2 0x1673 PUSH2 0x16E3 JUMP JUMPDEST PUSH20 0xFFFFFFFFFFFFFFFFFFFFFFFFFFFFFFFFFFFFFFFF AND DUP4 PUSH20 0xFFFFFFFFFFFFFFFFFFFFFFFFFFFFFFFFFFFFFFFF AND DUP6 PUSH32 0x2F8788117E7EFF1D82E926EC794901D17C78024A50270940304540A733656F0D PUSH1 0x40 MLOAD PUSH1 0x40 MLOAD DUP1 SWAP2 SUB SWAP1 LOG4 PUSH1 0x1 SWAP2 POP POP PUSH2 0x16DD JUMP JUMPDEST PUSH1 0x0 SWAP2 POP POP JUMPDEST SWAP3 SWAP2 POP POP JUMP JUMPDEST PUSH1 0x0 CALLER SWAP1 POP SWAP1 JUMP JUMPDEST PUSH1 0x0 DUP1 PUSH2 0x16F6 PUSH2 0x153C JUMP JUMPDEST SWAP1 POP PUSH2 0x1702 DUP5 DUP5 PUSH2 0x62D JUMP JUMPDEST ISZERO PUSH2 0x17E1 JUMPI PUSH1 0x0 DUP2 PUSH1 0x0 ADD PUSH1 0x0 DUP7 DUP2 MSTORE PUSH1 0x20 ADD SWAP1 DUP2 MSTORE PUSH1 0x20 ADD PUSH1 0x0 KECCAK256 PUSH1 0x0 ADD PUSH1 0x0 DUP6 PUSH20 0xFFFFFFFFFFFFFFFFFFFFFFFFFFFFFFFFFFFFFFFF AND PUSH20 0xFFFFFFFFFFFFFFFFFFFFFFFFFFFFFFFFFFFFFFFF AND DUP2 MSTORE PUSH1 0x20 ADD SWAP1 DUP2 MSTORE PUSH1 0x20 ADD PUSH1 0x0 KECCAK256 PUSH1 0x0 PUSH2 0x100 EXP DUP2 SLOAD DUP2 PUSH1 0xFF MUL NOT AND SWAP1 DUP4 ISZERO ISZERO MUL OR SWAP1 SSTORE POP PUSH2 0x177D PUSH2 0x16E3 JUMP JUMPDEST PUSH20 0xFFFFFFFFFFFFFFFFFFFFFFFFFFFFFFFFFFFFFFFF AND DUP4 PUSH20 0xFFFFFFFFFFFFFFFFFFFFFFFFFFFFFFFFFFFFFFFF AND DUP6 PUSH32 0xF6391F5C32D9C69D2A47EA670B442974B53935D1EDC7FD64EB21E047A839171B PUSH1 0x40 MLOAD PUSH1 0x40 MLOAD DUP1 SWAP2 SUB SWAP1 LOG4 PUSH1 0x1 SWAP2 POP POP PUSH2 0x17E7 JUMP JUMPDEST PUSH1 0x0 SWAP2 POP POP JUMPDEST SWAP3 SWAP2 POP POP JUMP JUMPDEST PUSH2 0x17F5 PUSH2 0x1F41 JUMP JUMPDEST PUSH1 0x0 PUSH2 0x17FF PUSH2 0x185F JUMP JUMPDEST SWAP1 POP PUSH1 0x0 DUP2 PUSH1 0x0 ADD PUSH1 0x0 PUSH2 0x100 EXP DUP2 SLOAD DUP2 PUSH1 0xFF MUL NOT AND SWAP1 DUP4 ISZERO ISZERO MUL OR SWAP1 SSTORE POP PUSH32 0x5DB9EE0A495BF2E6FF9C91A7834C1BA4FDD244A5E8AA4E537BD38AEAE4B073AA PUSH2 0x1847 PUSH2 0x16E3 JUMP JUMPDEST PUSH1 0x40 MLOAD PUSH2 0x1854 SWAP2 SWAP1 PUSH2 0x2E6F JUMP JUMPDEST PUSH1 0x40 MLOAD DUP1 SWAP2 SUB SWAP1 LOG1 POP JUMP JUMPDEST PUSH1 0x0 PUSH32 0xCD5ED15C6E187E77E9AEE88184C21F4F2182AB5827CB3B7E07FBEDCD63F03300 SWAP1 POP SWAP1 JUMP JUMPDEST PUSH1 0x0 PUSH2 0x1891 PUSH2 0x1F81 JUMP JUMPDEST SWAP1 POP PUSH1 0x2 DUP2 PUSH1 0x0 ADD SLOAD SUB PUSH2 0x18D1 JUMPI PUSH1 0x40 MLOAD PUSH32 0x3EE5AEB500000000000000000000000000000000000000000000000000000000 DUP2 MSTORE PUSH1 0x4 ADD PUSH1 0x40 MLOAD DUP1 SWAP2 SUB SWAP1 REVERT JUMPDEST PUSH1 0x2 DUP2 PUSH1 0x0 ADD DUP2 SWAP1 SSTORE POP POP JUMP JUMPDEST PUSH1 0x0 DUP1 DUP6 PUSH20 0xFFFFFFFFFFFFFFFFFFFFFFFFFFFFFFFFFFFFFFFF AND PUSH4 0x23B872DD DUP7 DUP7 DUP7 PUSH1 0x40 MLOAD PUSH1 0x24 ADD PUSH2 0x1912 SWAP4 SWAP3 SWAP2 SWAP1 PUSH2 0x2E8A JUMP JUMPDEST PUSH1 0x40 MLOAD PUSH1 0x20 DUP2 DUP4 SUB SUB DUP2 MSTORE SWAP1 PUSH1 0x40 MSTORE SWAP1 PUSH1 0xE0 SHL PUSH1 0x20 DUP3 ADD DUP1 MLOAD PUSH28 0xFFFFFFFFFFFFFFFFFFFFFFFFFFFFFFFFFFFFFFFFFFFFFFFFFFFFFFFF DUP4 DUP2 DUP4 AND OR DUP4 MSTORE POP POP POP POP PUSH1 0x40 MLOAD PUSH2 0x1960 SWAP2 SWAP1 PUSH2 0x2F32 JUMP JUMPDEST PUSH1 0x0 PUSH1 0x40 MLOAD DUP1 DUP4 SUB DUP2 PUSH1 0x0 DUP7 GAS CALL SWAP2 POP POP RETURNDATASIZE DUP1 PUSH1 0x0 DUP2 EQ PUSH2 0x199D JUMPI PUSH1 0x40 MLOAD SWAP2 POP PUSH1 0x1F NOT PUSH1 0x3F RETURNDATASIZE ADD AND DUP3 ADD PUSH1 0x40 MSTORE RETURNDATASIZE DUP3 MSTORE RETURNDATASIZE PUSH1 0x0 PUSH1 0x20 DUP5 ADD RETURNDATACOPY PUSH2 0x19A2 JUMP JUMPDEST PUSH1 0x60 SWAP2 POP JUMPDEST POP SWAP2 POP SWAP2 POP DUP2 DUP1 ISZERO PUSH2 0x19D0 JUMPI POP PUSH1 0x0 DUP2 MLOAD EQ DUP1 PUSH2 0x19CF JUMPI POP DUP1 DUP1 PUSH1 0x20 ADD SWAP1 MLOAD DUP2 ADD SWAP1 PUSH2 0x19CE SWAP2 SWAP1 PUSH2 0x2F75 JUMP JUMPDEST JUMPDEST JUMPDEST PUSH2 0x1A0F JUMPI PUSH1 0x40 MLOAD PUSH32 0x8C379A000000000000000000000000000000000000000000000000000000000 DUP2 MSTORE PUSH1 0x4 ADD PUSH2 0x1A06 SWAP1 PUSH2 0x3014 JUMP JUMPDEST PUSH1 0x40 MLOAD DUP1 SWAP2 SUB SWAP1 REVERT JUMPDEST POP POP POP POP POP POP JUMP JUMPDEST PUSH1 0x0 PUSH2 0x1A21 PUSH2 0x1F81 JUMP JUMPDEST SWAP1 POP PUSH1 0x1 DUP2 PUSH1 0x0 ADD DUP2 SWAP1 SSTORE POP POP JUMP JUMPDEST PUSH2 0x1A38 PUSH2 0x1C79 JUMP JUMPDEST PUSH1 0x0 PUSH2 0x1A42 PUSH2 0x185F JUMP JUMPDEST SWAP1 POP PUSH1 0x1 DUP2 PUSH1 0x0 ADD PUSH1 0x0 PUSH2 0x100 EXP DUP2 SLOAD DUP2 PUSH1 0xFF MUL NOT AND SWAP1 DUP4 ISZERO ISZERO MUL OR SWAP1 SSTORE POP PUSH32 0x62E78CEA01BEE320CD4E420270B5EA74000D11B0C9F74754EBDBFC544B05A258 PUSH2 0x1A8A PUSH2 0x16E3 JUMP JUMPDEST PUSH1 0x40 MLOAD PUSH2 0x1A97 SWAP2 SWAP1 PUSH2 0x2E6F JUMP JUMPDEST PUSH1 0x40 MLOAD DUP1 SWAP2 SUB SWAP1 LOG1 POP JUMP JUMPDEST PUSH1 0x0 PUSH32 0xF0C57E16840DF040F15088DC2F81FE391C3923BEC73E23A9662EFC9C229C6A00 SWAP1 POP SWAP1 JUMP JUMPDEST PUSH1 0x0 PUSH2 0x1AD4 PUSH2 0x1AA2 JUMP JUMPDEST SWAP1 POP PUSH1 0x0 DUP2 PUSH1 0x0 ADD PUSH1 0x8 SWAP1 SLOAD SWAP1 PUSH2 0x100 EXP SWAP1 DIV PUSH1 0xFF AND ISZERO SWAP1 POP PUSH1 0x0 DUP3 PUSH1 0x0 ADD PUSH1 0x0 SWAP1 SLOAD SWAP1 PUSH2 0x100 EXP SWAP1 DIV PUSH8 0xFFFFFFFFFFFFFFFF AND SWAP1 POP PUSH1 0x0 DUP1 DUP3 PUSH8 0xFFFFFFFFFFFFFFFF AND EQ DUP1 ISZERO PUSH2 0x1B22 JUMPI POP DUP3 JUMPDEST SWAP1 POP PUSH1 0x0 PUSH1 0x1 DUP4 PUSH8 0xFFFFFFFFFFFFFFFF AND EQ DUP1 ISZERO PUSH2 0x1B57 JUMPI POP PUSH1 0x0 ADDRESS PUSH20 0xFFFFFFFFFFFFFFFFFFFFFFFFFFFFFFFFFFFFFFFF AND EXTCODESIZE EQ JUMPDEST SWAP1 POP DUP2 ISZERO DUP1 ISZERO PUSH2 0x1B65 JUMPI POP DUP1 ISZERO JUMPDEST ISZERO PUSH2 0x1B9C JUMPI PUSH1 0x40 MLOAD PUSH32 0xF92EE8A900000000000000000000000000000000000000000000000000000000 DUP2 MSTORE PUSH1 0x4 ADD PUSH1 0x40 MLOAD DUP1 SWAP2 SUB SWAP1 REVERT JUMPDEST PUSH1 0x1 DUP6 PUSH1 0x0 ADD PUSH1 0x0 PUSH2 0x100 EXP DUP2 SLOAD DUP2 PUSH8 0xFFFFFFFFFFFFFFFF MUL NOT AND SWAP1 DUP4 PUSH8 0xFFFFFFFFFFFFFFFF AND MUL OR SWAP1 SSTORE POP DUP4 ISZERO PUSH2 0x1BEC JUMPI PUSH1 0x1 DUP6 PUSH1 0x0 ADD PUSH1 0x8 PUSH2 0x100 EXP DUP2 SLOAD DUP2 PUSH1 0xFF MUL NOT AND SWAP1 DUP4 ISZERO ISZERO MUL OR SWAP1 SSTORE POP JUMPDEST PUSH2 0x1BF4 PUSH2 0x1FA9 JUMP JUMPDEST PUSH2 0x1BFC PUSH2 0x1FB3 JUMP JUMPDEST PUSH2 0x1C04 PUSH2 0x1FBD JUMP JUMPDEST PUSH2 0x1C0D DUP7 PUSH2 0x1FF1 JUMP JUMPDEST PUSH1 0x64 PUSH1 0x0 DUP2 SWAP1 SSTORE POP DUP4 ISZERO PUSH2 0x1C71 JUMPI PUSH1 0x0 DUP6 PUSH1 0x0 ADD PUSH1 0x8 PUSH2 0x100 EXP DUP2 SLOAD DUP2 PUSH1 0xFF MUL NOT AND SWAP1 DUP4 ISZERO ISZERO MUL OR SWAP1 SSTORE POP PUSH32 0xC7F505B2F371AE2175EE4913F4499E1F2633A7B5936321EED1CDAEB6115181D2 PUSH1 0x1 PUSH1 0x40 MLOAD PUSH2 0x1C68 SWAP2 SWAP1 PUSH2 0x2D12 JUMP JUMPDEST PUSH1 0x40 MLOAD DUP1 SWAP2 SUB SWAP1 LOG1 JUMPDEST POP POP POP POP POP POP JUMP JUMPDEST PUSH2 0x1C81 PUSH2 0x8BD JUMP JUMPDEST ISZERO PUSH2 0x1CB8 JUMPI PUSH1 0x40 MLOAD PUSH32 0xD93C066500000000000000000000000000000000000000000000000000000000 DUP2 MSTORE PUSH1 0x4 ADD PUSH1 0x40 MLOAD DUP1 SWAP2 SUB SWAP1 REVERT JUMPDEST JUMP JUMPDEST PUSH1 0x0 DUP1 DUP5 PUSH20 0xFFFFFFFFFFFFFFFFFFFFFFFFFFFFFFFFFFFFFFFF AND PUSH4 0xA9059CBB DUP6 DUP6 PUSH1 0x40 MLOAD PUSH1 0x24 ADD PUSH2 0x1CEC SWAP3 SWAP2 SWAP1 PUSH2 0x3034 JUMP JUMPDEST PUSH1 0x40 MLOAD PUSH1 0x20 DUP2 DUP4 SUB SUB DUP2 MSTORE SWAP1 PUSH1 0x40 MSTORE SWAP1 PUSH1 0xE0 SHL PUSH1 0x20 DUP3 ADD DUP1 MLOAD PUSH28 0xFFFFFFFFFFFFFFFFFFFFFFFFFFFFFFFFFFFFFFFFFFFFFFFFFFFFFFFF DUP4 DUP2 DUP4 AND OR DUP4 MSTORE POP POP POP POP PUSH1 0x40 MLOAD PUSH2 0x1D3A SWAP2 SWAP1 PUSH2 0x2F32 JUMP JUMPDEST PUSH1 0x0 PUSH1 0x40 MLOAD DUP1 DUP4 SUB DUP2 PUSH1 0x0 DUP7 GAS CALL SWAP2 POP POP RETURNDATASIZE DUP1 PUSH1 0x0 DUP2 EQ PUSH2 0x1D77 JUMPI PUSH1 0x40 MLOAD SWAP2 POP PUSH1 0x1F NOT PUSH1 0x3F RETURNDATASIZE ADD AND DUP3 ADD PUSH1 0x40 MSTORE RETURNDATASIZE DUP3 MSTORE RETURNDATASIZE PUSH1 0x0 PUSH1 0x20 DUP5 ADD RETURNDATACOPY PUSH2 0x1D7C JUMP JUMPDEST PUSH1 0x60 SWAP2 POP JUMPDEST POP SWAP2 POP SWAP2 POP DUP2 DUP1 ISZERO PUSH2 0x1DAA JUMPI POP PUSH1 0x0 DUP2 MLOAD EQ DUP1 PUSH2 0x1DA9 JUMPI POP DUP1 DUP1 PUSH1 0x20 ADD SWAP1 MLOAD DUP2 ADD SWAP1 PUSH2 0x1DA8 SWAP2 SWAP1 PUSH2 0x2F75 JUMP JUMPDEST JUMPDEST JUMPDEST PUSH2 0x1DE9 JUMPI PUSH1 0x40 MLOAD PUSH32 0x8C379A000000000000000000000000000000000000000000000000000000000 DUP2 MSTORE PUSH1 0x4 ADD PUSH2 0x1DE0 SWAP1 PUSH2 0x30CF JUMP JUMPDEST PUSH1 0x40 MLOAD DUP1 SWAP2 SUB SWAP1 REVERT JUMPDEST POP POP POP POP POP JUMP JUMPDEST PUSH1 0x0 DUP3 PUSH20 0xFFFFFFFFFFFFFFFFFFFFFFFFFFFFFFFFFFFFFFFF AND DUP3 PUSH1 0x0 PUSH8 0xFFFFFFFFFFFFFFFF DUP2 GT ISZERO PUSH2 0x1E25 JUMPI PUSH2 0x1E24 PUSH2 0x252A JUMP JUMPDEST JUMPDEST PUSH1 0x40 MLOAD SWAP1 DUP1 DUP3 MSTORE DUP1 PUSH1 0x1F ADD PUSH1 0x1F NOT AND PUSH1 0x20 ADD DUP3 ADD PUSH1 0x40 MSTORE DUP1 ISZERO PUSH2 0x1E57 JUMPI DUP2 PUSH1 0x20 ADD PUSH1 0x1 DUP3 MUL DUP1 CALLDATASIZE DUP4 CALLDATACOPY DUP1 DUP3 ADD SWAP2 POP POP SWAP1 POP JUMPDEST POP PUSH1 0x40 MLOAD PUSH2 0x1E65 SWAP2 SWAP1 PUSH2 0x2F32 JUMP JUMPDEST PUSH1 0x0 PUSH1 0x40 MLOAD DUP1 DUP4 SUB DUP2 DUP6 DUP8 GAS CALL SWAP3 POP POP POP RETURNDATASIZE DUP1 PUSH1 0x0 DUP2 EQ PUSH2 0x1EA2 JUMPI PUSH1 0x40 MLOAD SWAP2 POP PUSH1 0x1F NOT PUSH1 0x3F RETURNDATASIZE ADD AND DUP3 ADD PUSH1 0x40 MSTORE RETURNDATASIZE DUP3 MSTORE RETURNDATASIZE PUSH1 0x0 PUSH1 0x20 DUP5 ADD RETURNDATACOPY PUSH2 0x1EA7 JUMP JUMPDEST PUSH1 0x60 SWAP2 POP JUMPDEST POP POP SWAP1 POP DUP1 PUSH2 0x1EEB JUMPI PUSH1 0x40 MLOAD PUSH32 0x8C379A000000000000000000000000000000000000000000000000000000000 DUP2 MSTORE PUSH1 0x4 ADD PUSH2 0x1EE2 SWAP1 PUSH2 0x3161 JUMP JUMPDEST PUSH1 0x40 MLOAD DUP1 SWAP2 SUB SWAP1 REVERT JUMPDEST POP POP POP JUMP JUMPDEST PUSH2 0x1EFA DUP3 DUP3 PUSH2 0x62D JUMP JUMPDEST PUSH2 0x1F3D JUMPI DUP1 DUP3 PUSH1 0x40 MLOAD PUSH32 0xE2517D3F00000000000000000000000000000000000000000000000000000000 DUP2 MSTORE PUSH1 0x4 ADD PUSH2 0x1F34 SWAP3 SWAP2 SWAP1 PUSH2 0x3181 JUMP JUMPDEST PUSH1 0x40 MLOAD DUP1 SWAP2 SUB SWAP1 REVERT JUMPDEST POP POP JUMP JUMPDEST PUSH2 0x1F49 PUSH2 0x8BD JUMP JUMPDEST PUSH2 0x1F7F JUMPI PUSH1 0x40 MLOAD PUSH32 0x8DFC202B00000000000000000000000000000000000000000000000000000000 DUP2 MSTORE PUSH1 0x4 ADD PUSH1 0x40 MLOAD DUP1 SWAP2 SUB SWAP1 REVERT JUMPDEST JUMP JUMPDEST PUSH1 0x0 PUSH32 0x9B779B17422D0DF92223018B32B4D1FA46E071723D6817E2486D003BECC55F00 SWAP1 POP SWAP1 JUMP JUMPDEST PUSH2 0x1FB1 PUSH2 0x21B0 JUMP JUMPDEST JUMP JUMPDEST PUSH2 0x1FBB PUSH2 0x21B0 JUMP JUMPDEST JUMP JUMPDEST PUSH2 0x1FC5 PUSH2 0x21B0 JUMP JUMPDEST PUSH1 0x0 PUSH2 0x1FCF PUSH2 0x185F JUMP JUMPDEST SWAP1 POP PUSH1 0x0 DUP2 PUSH1 0x0 ADD PUSH1 0x0 PUSH2 0x100 EXP DUP2 SLOAD DUP2 PUSH1 0xFF MUL NOT AND SWAP1 DUP4 ISZERO ISZERO MUL OR SWAP1 SSTORE POP POP JUMP JUMPDEST PUSH1 0x0 PUSH2 0x1FFB PUSH2 0x1AA2 JUMP JUMPDEST SWAP1 POP PUSH1 0x0 DUP2 PUSH1 0x0 ADD PUSH1 0x8 SWAP1 SLOAD SWAP1 PUSH2 0x100 EXP SWAP1 DIV PUSH1 0xFF AND ISZERO SWAP1 POP PUSH1 0x0 DUP3 PUSH1 0x0 ADD PUSH1 0x0 SWAP1 SLOAD SWAP1 PUSH2 0x100 EXP SWAP1 DIV PUSH8 0xFFFFFFFFFFFFFFFF AND SWAP1 POP PUSH1 0x0 DUP1 DUP3 PUSH8 0xFFFFFFFFFFFFFFFF AND EQ DUP1 ISZERO PUSH2 0x2049 JUMPI POP DUP3 JUMPDEST SWAP1 POP PUSH1 0x0 PUSH1 0x1 DUP4 PUSH8 0xFFFFFFFFFFFFFFFF AND EQ DUP1 ISZERO PUSH2 0x207E JUMPI POP PUSH1 0x0 ADDRESS PUSH20 0xFFFFFFFFFFFFFFFFFFFFFFFFFFFFFFFFFFFFFFFF AND EXTCODESIZE EQ JUMPDEST SWAP1 POP DUP2 ISZERO DUP1 ISZERO PUSH2 0x208C JUMPI POP DUP1 ISZERO JUMPDEST ISZERO PUSH2 0x20C3 JUMPI PUSH1 0x40 MLOAD PUSH32 0xF92EE8A900000000000000000000000000000000000000000000000000000000 DUP2 MSTORE PUSH1 0x4 ADD PUSH1 0x40 MLOAD DUP1 SWAP2 SUB SWAP1 REVERT JUMPDEST PUSH1 0x1 DUP6 PUSH1 0x0 ADD PUSH1 0x0 PUSH2 0x100 EXP DUP2 SLOAD DUP2 PUSH8 0xFFFFFFFFFFFFFFFF MUL NOT AND SWAP1 DUP4 PUSH8 0xFFFFFFFFFFFFFFFF AND MUL OR SWAP1 SSTORE POP DUP4 ISZERO PUSH2 0x2113 JUMPI PUSH1 0x1 DUP6 PUSH1 0x0 ADD PUSH1 0x8 PUSH2 0x100 EXP DUP2 SLOAD DUP2 PUSH1 0xFF MUL NOT AND SWAP1 DUP4 ISZERO ISZERO MUL OR SWAP1 SSTORE POP JUMPDEST PUSH2 0x2120 PUSH1 0x0 DUP1 SHL DUP8 PUSH2 0x15E2 JUMP JUMPDEST POP PUSH2 0x214B PUSH32 0x65D7A28E3265B37A6474929F336521B332C1681B933F6CB9F3376673440D862A DUP8 PUSH2 0x15E2 JUMP JUMPDEST POP DUP4 ISZERO PUSH2 0x21A8 JUMPI PUSH1 0x0 DUP6 PUSH1 0x0 ADD PUSH1 0x8 PUSH2 0x100 EXP DUP2 SLOAD DUP2 PUSH1 0xFF MUL NOT AND SWAP1 DUP4 ISZERO ISZERO MUL OR SWAP1 SSTORE POP PUSH32 0xC7F505B2F371AE2175EE4913F4499E1F2633A7B5936321EED1CDAEB6115181D2 PUSH1 0x1 PUSH1 0x40 MLOAD PUSH2 0x219F SWAP2 SWAP1 PUSH2 0x2D12 JUMP JUMPDEST PUSH1 0x40 MLOAD DUP1 SWAP2 SUB SWAP1 LOG1 JUMPDEST POP POP POP POP POP POP JUMP JUMPDEST PUSH2 0x21B8 PUSH2 0x21F0 JUMP JUMPDEST PUSH2 0x21EE JUMPI PUSH1 0x40 MLOAD PUSH32 0xD7E6BCF800000000000000000000000000000000000000000000000000000000 DUP2 MSTORE PUSH1 0x4 ADD PUSH1 0x40 MLOAD DUP1 SWAP2 SUB SWAP1 REVERT JUMPDEST JUMP JUMPDEST PUSH1 0x0 PUSH2 0x21FA PUSH2 0x1AA2 JUMP JUMPDEST PUSH1 0x0 ADD PUSH1 0x8 SWAP1 SLOAD SWAP1 PUSH2 0x100 EXP SWAP1 DIV PUSH1 0xFF AND SWAP1 POP SWAP1 JUMP JUMPDEST PUSH1 0x0 DUP3 DUP3 MSTORE PUSH1 0x20 DUP3 ADD SWAP1 POP SWAP3 SWAP2 POP POP JUMP JUMPDEST PUSH32 0x4F776E61626C655061757361626C653A206163636573732064656E6965640000 PUSH1 0x0 DUP3 ADD MSTORE POP JUMP JUMPDEST PUSH1 0x0 PUSH2 0x2257 PUSH1 0x1E DUP4 PUSH2 0x2210 JUMP JUMPDEST SWAP2 POP PUSH2 0x2262 DUP3 PUSH2 0x2221 JUMP JUMPDEST PUSH1 0x20 DUP3 ADD SWAP1 POP SWAP2 SWAP1 POP JUMP JUMPDEST PUSH1 0x0 PUSH1 0x20 DUP3 ADD SWAP1 POP DUP2 DUP2 SUB PUSH1 0x0 DUP4 ADD MSTORE PUSH2 0x2286 DUP2 PUSH2 0x224A JUMP JUMPDEST SWAP1 POP SWAP2 SWAP1 POP JUMP JUMPDEST PUSH1 0x0 PUSH1 0x40 MLOAD SWAP1 POP SWAP1 JUMP JUMPDEST PUSH1 0x0 DUP1 REVERT JUMPDEST PUSH1 0x0 DUP1 REVERT JUMPDEST PUSH1 0x0 PUSH32 0xFFFFFFFF00000000000000000000000000000000000000000000000000000000 DUP3 AND SWAP1 POP SWAP2 SWAP1 POP JUMP JUMPDEST PUSH2 0x22D6 DUP2 PUSH2 0x22A1 JUMP JUMPDEST DUP2 EQ PUSH2 0x22E1 JUMPI PUSH1 0x0 DUP1 REVERT JUMPDEST POP JUMP JUMPDEST PUSH1 0x0 DUP2 CALLDATALOAD SWAP1 POP PUSH2 0x22F3 DUP2 PUSH2 0x22CD JUMP JUMPDEST SWAP3 SWAP2 POP POP JUMP JUMPDEST PUSH1 0x0 PUSH1 0x20 DUP3 DUP5 SUB SLT ISZERO PUSH2 0x230F JUMPI PUSH2 0x230E PUSH2 0x2297 JUMP JUMPDEST JUMPDEST PUSH1 0x0 PUSH2 0x231D DUP5 DUP3 DUP6 ADD PUSH2 0x22E4 JUMP JUMPDEST SWAP2 POP POP SWAP3 SWAP2 POP POP JUMP JUMPDEST PUSH1 0x0 DUP2 ISZERO ISZERO SWAP1 POP SWAP2 SWAP1 POP JUMP JUMPDEST PUSH2 0x233B DUP2 PUSH2 0x2326 JUMP JUMPDEST DUP3 MSTORE POP POP JUMP JUMPDEST PUSH1 0x0 PUSH1 0x20 DUP3 ADD SWAP1 POP PUSH2 0x2356 PUSH1 0x0 DUP4 ADD DUP5 PUSH2 0x2332 JUMP JUMPDEST SWAP3 SWAP2 POP POP JUMP JUMPDEST PUSH1 0x0 PUSH20 0xFFFFFFFFFFFFFFFFFFFFFFFFFFFFFFFFFFFFFFFF DUP3 AND SWAP1 POP SWAP2 SWAP1 POP JUMP JUMPDEST PUSH1 0x0 PUSH2 0x2387 DUP3 PUSH2 0x235C JUMP JUMPDEST SWAP1 POP SWAP2 SWAP1 POP JUMP JUMPDEST PUSH2 0x2397 DUP2 PUSH2 0x237C JUMP JUMPDEST DUP2 EQ PUSH2 0x23A2 JUMPI PUSH1 0x0 DUP1 REVERT JUMPDEST POP JUMP JUMPDEST PUSH1 0x0 DUP2 CALLDATALOAD SWAP1 POP PUSH2 0x23B4 DUP2 PUSH2 0x238E JUMP JUMPDEST SWAP3 SWAP2 POP POP JUMP JUMPDEST PUSH1 0x0 PUSH1 0x20 DUP3 DUP5 SUB SLT ISZERO PUSH2 0x23D0 JUMPI PUSH2 0x23CF PUSH2 0x2297 JUMP JUMPDEST JUMPDEST PUSH1 0x0 PUSH2 0x23DE DUP5 DUP3 DUP6 ADD PUSH2 0x23A5 JUMP JUMPDEST SWAP2 POP POP SWAP3 SWAP2 POP POP JUMP JUMPDEST PUSH1 0x0 DUP2 SWAP1 POP SWAP2 SWAP1 POP JUMP JUMPDEST PUSH2 0x23FA DUP2 PUSH2 0x23E7 JUMP JUMPDEST DUP2 EQ PUSH2 0x2405 JUMPI PUSH1 0x0 DUP1 REVERT JUMPDEST POP JUMP JUMPDEST PUSH1 0x0 DUP2 CALLDATALOAD SWAP1 POP PUSH2 0x2417 DUP2 PUSH2 0x23F1 JUMP JUMPDEST SWAP3 SWAP2 POP POP JUMP JUMPDEST PUSH1 0x0 PUSH1 0x20 DUP3 DUP5 SUB SLT ISZERO PUSH2 0x2433 JUMPI PUSH2 0x2432 PUSH2 0x2297 JUMP JUMPDEST JUMPDEST PUSH1 0x0 PUSH2 0x2441 DUP5 DUP3 DUP6 ADD PUSH2 0x2408 JUMP JUMPDEST SWAP2 POP POP SWAP3 SWAP2 POP POP JUMP JUMPDEST PUSH2 0x2453 DUP2 PUSH2 0x23E7 JUMP JUMPDEST DUP3 MSTORE POP POP JUMP JUMPDEST PUSH1 0x0 PUSH1 0x20 DUP3 ADD SWAP1 POP PUSH2 0x246E PUSH1 0x0 DUP4 ADD DUP5 PUSH2 0x244A JUMP JUMPDEST SWAP3 SWAP2 POP POP JUMP JUMPDEST PUSH1 0x0 DUP1 PUSH1 0x40 DUP4 DUP6 SUB SLT ISZERO PUSH2 0x248B JUMPI PUSH2 0x248A PUSH2 0x2297 JUMP JUMPDEST JUMPDEST PUSH1 0x0 PUSH2 0x2499 DUP6 DUP3 DUP7 ADD PUSH2 0x2408 JUMP JUMPDEST SWAP3 POP POP PUSH1 0x20 PUSH2 0x24AA DUP6 DUP3 DUP7 ADD PUSH2 0x23A5 JUMP JUMPDEST SWAP2 POP POP SWAP3 POP SWAP3 SWAP1 POP JUMP JUMPDEST PUSH1 0x0 DUP2 SWAP1 POP SWAP2 SWAP1 POP JUMP JUMPDEST PUSH2 0x24C7 DUP2 PUSH2 0x24B4 JUMP JUMPDEST DUP3 MSTORE POP POP JUMP JUMPDEST PUSH1 0x0 PUSH1 0x20 DUP3 ADD SWAP1 POP PUSH2 0x24E2 PUSH1 0x0 DUP4 ADD DUP5 PUSH2 0x24BE JUMP JUMPDEST SWAP3 SWAP2 POP POP JUMP JUMPDEST PUSH2 0x24F1 DUP2 PUSH2 0x24B4 JUMP JUMPDEST DUP2 EQ PUSH2 0x24FC JUMPI PUSH1 0x0 DUP1 REVERT JUMPDEST POP JUMP JUMPDEST PUSH1 0x0 DUP2 CALLDATALOAD SWAP1 POP PUSH2 0x250E DUP2 PUSH2 0x24E8 JUMP JUMPDEST SWAP3 SWAP2 POP POP JUMP JUMPDEST PUSH1 0x0 DUP1 REVERT JUMPDEST PUSH1 0x0 PUSH1 0x1F NOT PUSH1 0x1F DUP4 ADD AND SWAP1 POP SWAP2 SWAP1 POP JUMP JUMPDEST PUSH32 0x4E487B7100000000000000000000000000000000000000000000000000000000 PUSH1 0x0 MSTORE PUSH1 0x41 PUSH1 0x4 MSTORE PUSH1 0x24 PUSH1 0x0 REVERT JUMPDEST PUSH2 0x2562 DUP3 PUSH2 0x2519 JUMP JUMPDEST DUP2 ADD DUP2 DUP2 LT PUSH8 0xFFFFFFFFFFFFFFFF DUP3 GT OR ISZERO PUSH2 0x2581 JUMPI PUSH2 0x2580 PUSH2 0x252A JUMP JUMPDEST JUMPDEST DUP1 PUSH1 0x40 MSTORE POP POP POP JUMP JUMPDEST PUSH1 0x0 PUSH2 0x2594 PUSH2 0x228D JUMP JUMPDEST SWAP1 POP PUSH2 0x25A0 DUP3 DUP3 PUSH2 0x2559 JUMP JUMPDEST SWAP2 SWAP1 POP JUMP JUMPDEST PUSH1 0x0 PUSH8 0xFFFFFFFFFFFFFFFF DUP3 GT ISZERO PUSH2 0x25C0 JUMPI PUSH2 0x25BF PUSH2 0x252A JUMP JUMPDEST JUMPDEST PUSH1 0x20 DUP3 MUL SWAP1 POP PUSH1 0x20 DUP2 ADD SWAP1 POP SWAP2 SWAP1 POP JUMP JUMPDEST PUSH1 0x0 DUP1 REVERT JUMPDEST PUSH1 0x0 DUP1 REVERT JUMPDEST PUSH1 0x0 PUSH1 0x40 DUP3 DUP5 SUB SLT ISZERO PUSH2 0x25F1 JUMPI PUSH2 0x25F0 PUSH2 0x25D6 JUMP JUMPDEST JUMPDEST PUSH2 0x25FB PUSH1 0x40 PUSH2 0x258A JUMP JUMPDEST SWAP1 POP PUSH1 0x0 PUSH2 0x260B DUP5 DUP3 DUP6 ADD PUSH2 0x24FF JUMP JUMPDEST PUSH1 0x0 DUP4 ADD MSTORE POP PUSH1 0x20 PUSH2 0x261F DUP5 DUP3 DUP6 ADD PUSH2 0x24FF JUMP JUMPDEST PUSH1 0x20 DUP4 ADD MSTORE POP SWAP3 SWAP2 POP POP JUMP JUMPDEST PUSH1 0x0 PUSH2 0x263E PUSH2 0x2639 DUP5 PUSH2 0x25A5 JUMP JUMPDEST PUSH2 0x258A JUMP JUMPDEST SWAP1 POP DUP1 DUP4 DUP3 MSTORE PUSH1 0x20 DUP3 ADD SWAP1 POP PUSH1 0x40 DUP5 MUL DUP4 ADD DUP6 DUP2 GT ISZERO PUSH2 0x2661 JUMPI PUSH2 0x2660 PUSH2 0x25D1 JUMP JUMPDEST JUMPDEST DUP4 JUMPDEST DUP2 DUP2 LT ISZERO PUSH2 0x268A JUMPI DUP1 PUSH2 0x2676 DUP9 DUP3 PUSH2 0x25DB JUMP JUMPDEST DUP5 MSTORE PUSH1 0x20 DUP5 ADD SWAP4 POP POP PUSH1 0x40 DUP2 ADD SWAP1 POP PUSH2 0x2663 JUMP JUMPDEST POP POP POP SWAP4 SWAP3 POP POP POP JUMP JUMPDEST PUSH1 0x0 DUP3 PUSH1 0x1F DUP4 ADD SLT PUSH2 0x26A9 JUMPI PUSH2 0x26A8 PUSH2 0x2514 JUMP JUMPDEST JUMPDEST DUP2 CALLDATALOAD PUSH2 0x26B9 DUP5 DUP3 PUSH1 0x20 DUP7 ADD PUSH2 0x262B JUMP JUMPDEST SWAP2 POP POP SWAP3 SWAP2 POP POP JUMP JUMPDEST PUSH1 0x0 DUP1 PUSH1 0x0 DUP1 PUSH1 0x0 PUSH1 0xA0 DUP7 DUP9 SUB SLT ISZERO PUSH2 0x26DE JUMPI PUSH2 0x26DD PUSH2 0x2297 JUMP JUMPDEST JUMPDEST PUSH1 0x0 PUSH2 0x26EC DUP9 DUP3 DUP10 ADD PUSH2 0x2408 JUMP JUMPDEST SWAP6 POP POP PUSH1 0x20 PUSH2 0x26FD DUP9 DUP3 DUP10 ADD PUSH2 0x23A5 JUMP JUMPDEST SWAP5 POP POP PUSH1 0x40 PUSH2 0x270E DUP9 DUP3 DUP10 ADD PUSH2 0x23A5 JUMP JUMPDEST SWAP4 POP POP PUSH1 0x60 PUSH2 0x271F DUP9 DUP3 DUP10 ADD PUSH2 0x24FF JUMP JUMPDEST SWAP3 POP POP PUSH1 0x80 DUP7 ADD CALLDATALOAD PUSH8 0xFFFFFFFFFFFFFFFF DUP2 GT ISZERO PUSH2 0x2740 JUMPI PUSH2 0x273F PUSH2 0x229C JUMP JUMPDEST JUMPDEST PUSH2 0x274C DUP9 DUP3 DUP10 ADD PUSH2 0x2694 JUMP JUMPDEST SWAP2 POP POP SWAP3 SWAP6 POP SWAP3 SWAP6 SWAP1 SWAP4 POP JUMP JUMPDEST PUSH1 0x0 DUP1 PUSH1 0x40 DUP4 DUP6 SUB SLT ISZERO PUSH2 0x2770 JUMPI PUSH2 0x276F PUSH2 0x2297 JUMP JUMPDEST JUMPDEST PUSH1 0x0 PUSH2 0x277E DUP6 DUP3 DUP7 ADD PUSH2 0x23A5 JUMP JUMPDEST SWAP3 POP POP PUSH1 0x20 PUSH2 0x278F DUP6 DUP3 DUP7 ADD PUSH2 0x2408 JUMP JUMPDEST SWAP2 POP POP SWAP3 POP SWAP3 SWAP1 POP JUMP JUMPDEST PUSH2 0x27A2 DUP2 PUSH2 0x237C JUMP JUMPDEST DUP3 MSTORE POP POP JUMP JUMPDEST PUSH1 0x0 PUSH1 0xE0 DUP3 ADD SWAP1 POP PUSH2 0x27BD PUSH1 0x0 DUP4 ADD DUP11 PUSH2 0x2799 JUMP JUMPDEST PUSH2 0x27CA PUSH1 0x20 DUP4 ADD DUP10 PUSH2 0x24BE JUMP JUMPDEST PUSH2 0x27D7 PUSH1 0x40 DUP4 ADD DUP9 PUSH2 0x24BE JUMP JUMPDEST PUSH2 0x27E4 PUSH1 0x60 DUP4 ADD DUP8 PUSH2 0x2799 JUMP JUMPDEST PUSH2 0x27F1 PUSH1 0x80 DUP4 ADD DUP7 PUSH2 0x24BE JUMP JUMPDEST PUSH2 0x27FE PUSH1 0xA0 DUP4 ADD DUP6 PUSH2 0x24BE JUMP JUMPDEST PUSH2 0x280B PUSH1 0xC0 DUP4 ADD DUP5 PUSH2 0x24BE JUMP JUMPDEST SWAP9 SWAP8 POP POP POP POP POP POP POP POP JUMP JUMPDEST PUSH1 0x0 DUP1 PUSH1 0x0 PUSH1 0x60 DUP5 DUP7 SUB SLT ISZERO PUSH2 0x2830 JUMPI PUSH2 0x282F PUSH2 0x2297 JUMP JUMPDEST JUMPDEST PUSH1 0x0 PUSH2 0x283E DUP7 DUP3 DUP8 ADD PUSH2 0x23A5 JUMP JUMPDEST SWAP4 POP POP PUSH1 0x20 PUSH2 0x284F DUP7 DUP3 DUP8 ADD PUSH2 0x2408 JUMP JUMPDEST SWAP3 POP POP PUSH1 0x40 PUSH2 0x2860 DUP7 DUP3 DUP8 ADD PUSH2 0x24FF JUMP JUMPDEST SWAP2 POP POP SWAP3 POP SWAP3 POP SWAP3 JUMP JUMPDEST PUSH1 0x0 PUSH1 0x40 DUP3 ADD SWAP1 POP PUSH2 0x287F PUSH1 0x0 DUP4 ADD DUP6 PUSH2 0x24BE JUMP JUMPDEST PUSH2 0x288C PUSH1 0x20 DUP4 ADD DUP5 PUSH2 0x24BE JUMP JUMPDEST SWAP4 SWAP3 POP POP POP JUMP JUMPDEST PUSH1 0x0 PUSH1 0x20 DUP3 DUP5 SUB SLT ISZERO PUSH2 0x28A9 JUMPI PUSH2 0x28A8 PUSH2 0x2297 JUMP JUMPDEST JUMPDEST PUSH1 0x0 PUSH2 0x28B7 DUP5 DUP3 DUP6 ADD PUSH2 0x24FF JUMP JUMPDEST SWAP2 POP POP SWAP3 SWAP2 POP POP JUMP JUMPDEST PUSH1 0x0 DUP2 MLOAD SWAP1 POP SWAP2 SWAP1 POP JUMP JUMPDEST PUSH1 0x0 DUP3 DUP3 MSTORE PUSH1 0x20 DUP3 ADD SWAP1 POP SWAP3 SWAP2 POP POP JUMP JUMPDEST PUSH1 0x0 DUP2 SWAP1 POP PUSH1 0x20 DUP3 ADD SWAP1 POP SWAP2 SWAP1 POP JUMP JUMPDEST PUSH2 0x28F5 DUP2 PUSH2 0x24B4 JUMP JUMPDEST DUP3 MSTORE POP POP JUMP JUMPDEST PUSH1 0x40 DUP3 ADD PUSH1 0x0 DUP3 ADD MLOAD PUSH2 0x2911 PUSH1 0x0 DUP6 ADD DUP3 PUSH2 0x28EC JUMP JUMPDEST POP PUSH1 0x20 DUP3 ADD MLOAD PUSH2 0x2924 PUSH1 0x20 DUP6 ADD DUP3 PUSH2 0x28EC JUMP JUMPDEST POP POP POP POP JUMP JUMPDEST PUSH1 0x0 PUSH2 0x2936 DUP4 DUP4 PUSH2 0x28FB JUMP JUMPDEST PUSH1 0x40 DUP4 ADD SWAP1 POP SWAP3 SWAP2 POP POP JUMP JUMPDEST PUSH1 0x0 PUSH1 0x20 DUP3 ADD SWAP1 POP SWAP2 SWAP1 POP JUMP JUMPDEST PUSH1 0x0 PUSH2 0x295A DUP3 PUSH2 0x28C0 JUMP JUMPDEST PUSH2 0x2964 DUP2 DUP6 PUSH2 0x28CB JUMP JUMPDEST SWAP4 POP PUSH2 0x296F DUP4 PUSH2 0x28DC JUMP JUMPDEST DUP1 PUSH1 0x0 JUMPDEST DUP4 DUP2 LT ISZERO PUSH2 0x29A0 JUMPI DUP2 MLOAD PUSH2 0x2987 DUP9 DUP3 PUSH2 0x292A JUMP JUMPDEST SWAP8 POP PUSH2 0x2992 DUP4 PUSH2 0x2942 JUMP JUMPDEST SWAP3 POP POP PUSH1 0x1 DUP2 ADD SWAP1 POP PUSH2 0x2973 JUMP JUMPDEST POP DUP6 SWAP4 POP POP POP POP SWAP3 SWAP2 POP POP JUMP JUMPDEST PUSH1 0x0 PUSH1 0x20 DUP3 ADD SWAP1 POP DUP2 DUP2 SUB PUSH1 0x0 DUP4 ADD MSTORE PUSH2 0x29C7 DUP2 DUP5 PUSH2 0x294F JUMP JUMPDEST SWAP1 POP SWAP3 SWAP2 POP POP JUMP JUMPDEST PUSH32 0x4E487B7100000000000000000000000000000000000000000000000000000000 PUSH1 0x0 MSTORE PUSH1 0x32 PUSH1 0x4 MSTORE PUSH1 0x24 PUSH1 0x0 REVERT JUMPDEST PUSH32 0x4E487B7100000000000000000000000000000000000000000000000000000000 PUSH1 0x0 MSTORE PUSH1 0x11 PUSH1 0x4 MSTORE PUSH1 0x24 PUSH1 0x0 REVERT JUMPDEST PUSH1 0x0 PUSH2 0x2A38 DUP3 PUSH2 0x24B4 JUMP JUMPDEST SWAP2 POP PUSH32 0xFFFFFFFFFFFFFFFFFFFFFFFFFFFFFFFFFFFFFFFFFFFFFFFFFFFFFFFFFFFFFFFF DUP3 SUB PUSH2 0x2A6A JUMPI PUSH2 0x2A69 PUSH2 0x29FE JUMP JUMPDEST JUMPDEST PUSH1 0x1 DUP3 ADD SWAP1 POP SWAP2 SWAP1 POP JUMP JUMPDEST PUSH2 0x2A7E DUP2 PUSH2 0x237C JUMP JUMPDEST DUP3 MSTORE POP POP JUMP JUMPDEST PUSH1 0x0 PUSH2 0x2A90 DUP4 DUP4 PUSH2 0x2A75 JUMP JUMPDEST PUSH1 0x20 DUP4 ADD SWAP1 POP SWAP3 SWAP2 POP POP JUMP JUMPDEST PUSH2 0x2AA5 DUP2 PUSH2 0x24B4 JUMP JUMPDEST DUP3 MSTORE POP POP JUMP JUMPDEST PUSH1 0x0 PUSH2 0x2AB7 DUP4 DUP4 PUSH2 0x2A9C JUMP JUMPDEST PUSH1 0x20 DUP4 ADD SWAP1 POP SWAP3 SWAP2 POP POP JUMP JUMPDEST PUSH1 0x0 DUP3 ADD PUSH1 0x0 DUP3 ADD MLOAD PUSH2 0x2AD6 DUP5 DUP3 PUSH2 0x2A84 JUMP JUMPDEST SWAP4 POP POP PUSH1 0x20 DUP3 ADD MLOAD PUSH2 0x2AE8 DUP5 DUP3 PUSH2 0x2AAB JUMP JUMPDEST SWAP4 POP POP PUSH1 0x40 DUP3 ADD MLOAD PUSH2 0x2AFA DUP5 DUP3 PUSH2 0x2AAB JUMP JUMPDEST SWAP4 POP POP PUSH1 0x60 DUP3 ADD MLOAD PUSH2 0x2B0C DUP5 DUP3 PUSH2 0x2A84 JUMP JUMPDEST SWAP4 POP POP PUSH1 0x80 DUP3 ADD MLOAD PUSH2 0x2B1E DUP5 DUP3 PUSH2 0x2AAB JUMP JUMPDEST SWAP4 POP POP PUSH1 0xA0 DUP3 ADD MLOAD PUSH2 0x2B30 DUP5 DUP3 PUSH2 0x2AAB JUMP JUMPDEST SWAP4 POP POP PUSH1 0xC0 DUP3 ADD MLOAD PUSH2 0x2B42 DUP5 DUP3 PUSH2 0x2AAB JUMP JUMPDEST SWAP4 POP POP POP POP POP JUMP JUMPDEST PUSH1 0x0 PUSH2 0x2B56 DUP4 DUP4 PUSH2 0x2AC3 JUMP JUMPDEST PUSH1 0xE0 DUP4 ADD SWAP1 POP SWAP3 SWAP2 POP POP JUMP JUMPDEST PUSH1 0x0 DUP2 SWAP1 POP SWAP3 SWAP2 POP POP JUMP JUMPDEST PUSH1 0x0 DUP3 ADD PUSH1 0x0 DUP3 ADD MLOAD PUSH2 0x2B80 DUP5 DUP3 PUSH2 0x2AAB JUMP JUMPDEST SWAP4 POP POP PUSH1 0x20 DUP3 ADD MLOAD PUSH2 0x2B92 DUP5 DUP3 PUSH2 0x2AAB JUMP JUMPDEST SWAP4 POP POP POP POP POP JUMP JUMPDEST PUSH1 0x0 PUSH2 0x2BA6 DUP4 DUP4 PUSH2 0x2B6D JUMP JUMPDEST PUSH1 0x40 DUP4 ADD SWAP1 POP SWAP3 SWAP2 POP POP JUMP JUMPDEST PUSH1 0x0 PUSH2 0x2BBD DUP3 PUSH2 0x28C0 JUMP JUMPDEST PUSH2 0x2BC7 DUP2 DUP6 PUSH2 0x2B62 JUMP JUMPDEST SWAP4 POP PUSH2 0x2BD2 DUP4 PUSH2 0x28DC JUMP JUMPDEST DUP1 PUSH1 0x0 JUMPDEST DUP4 DUP2 LT ISZERO PUSH2 0x2C03 JUMPI DUP2 MLOAD PUSH2 0x2BEA DUP9 DUP3 PUSH2 0x2B9A JUMP JUMPDEST SWAP8 POP PUSH2 0x2BF5 DUP4 PUSH2 0x2942 JUMP JUMPDEST SWAP3 POP POP PUSH1 0x1 DUP2 ADD SWAP1 POP PUSH2 0x2BD6 JUMP JUMPDEST POP DUP6 SWAP4 POP POP POP POP SWAP3 SWAP2 POP POP JUMP JUMPDEST PUSH1 0x0 PUSH2 0x2C1C DUP4 DUP4 PUSH2 0x2BB2 JUMP JUMPDEST SWAP1 POP SWAP3 SWAP2 POP POP JUMP JUMPDEST PUSH2 0x2C2D DUP2 PUSH2 0x23E7 JUMP JUMPDEST DUP3 MSTORE POP POP JUMP JUMPDEST PUSH1 0x0 PUSH2 0x2C3F DUP4 DUP4 PUSH2 0x2C24 JUMP JUMPDEST PUSH1 0x20 DUP4 ADD SWAP1 POP SWAP3 SWAP2 POP POP JUMP JUMPDEST PUSH1 0x0 DUP1 DUP4 ADD PUSH1 0x0 DUP4 ADD MLOAD PUSH2 0x2C5F DUP6 DUP3 PUSH2 0x2B4A JUMP JUMPDEST SWAP5 POP POP PUSH1 0x20 DUP4 ADD MLOAD PUSH2 0x2C71 DUP6 DUP3 PUSH2 0x2C10 JUMP JUMPDEST SWAP5 POP POP PUSH1 0x40 DUP4 ADD MLOAD PUSH2 0x2C83 DUP6 DUP3 PUSH2 0x2A84 JUMP JUMPDEST SWAP5 POP POP PUSH1 0x60 DUP4 ADD MLOAD PUSH2 0x2C95 DUP6 DUP3 PUSH2 0x2C33 JUMP JUMPDEST SWAP5 POP POP DUP4 SWAP2 POP POP SWAP3 SWAP2 POP POP JUMP JUMPDEST PUSH1 0x0 PUSH2 0x2CAE DUP3 DUP5 PUSH2 0x2C4B JUMP JUMPDEST SWAP2 POP DUP2 SWAP1 POP SWAP3 SWAP2 POP POP JUMP JUMPDEST PUSH1 0x0 DUP2 SWAP1 POP SWAP2 SWAP1 POP JUMP JUMPDEST PUSH1 0x0 PUSH8 0xFFFFFFFFFFFFFFFF DUP3 AND SWAP1 POP SWAP2 SWAP1 POP JUMP JUMPDEST PUSH1 0x0 DUP2 SWAP1 POP SWAP2 SWAP1 POP JUMP JUMPDEST PUSH1 0x0 PUSH2 0x2CFC PUSH2 0x2CF7 PUSH2 0x2CF2 DUP5 PUSH2 0x2CB9 JUMP JUMPDEST PUSH2 0x2CD7 JUMP JUMPDEST PUSH2 0x2CC3 JUMP JUMPDEST SWAP1 POP SWAP2 SWAP1 POP JUMP JUMPDEST PUSH2 0x2D0C DUP2 PUSH2 0x2CE1 JUMP JUMPDEST DUP3 MSTORE POP POP JUMP JUMPDEST PUSH1 0x0 PUSH1 0x20 DUP3 ADD SWAP1 POP PUSH2 0x2D27 PUSH1 0x0 DUP4 ADD DUP5 PUSH2 0x2D03 JUMP JUMPDEST SWAP3 SWAP2 POP POP JUMP JUMPDEST PUSH1 0x0 PUSH2 0x2D38 DUP3 PUSH2 0x24B4 JUMP JUMPDEST SWAP2 POP PUSH2 0x2D43 DUP4 PUSH2 0x24B4 JUMP JUMPDEST SWAP3 POP DUP3 DUP3 MUL PUSH2 0x2D51 DUP2 PUSH2 0x24B4 JUMP JUMPDEST SWAP2 POP DUP3 DUP3 DIV DUP5 EQ DUP4 ISZERO OR PUSH2 0x2D68 JUMPI PUSH2 0x2D67 PUSH2 0x29FE JUMP JUMPDEST JUMPDEST POP SWAP3 SWAP2 POP POP JUMP JUMPDEST PUSH1 0x0 PUSH2 0x2D7A DUP3 PUSH2 0x24B4 JUMP JUMPDEST SWAP2 POP PUSH2 0x2D85 DUP4 PUSH2 0x24B4 JUMP JUMPDEST SWAP3 POP DUP3 DUP3 ADD SWAP1 POP DUP1 DUP3 GT ISZERO PUSH2 0x2D9D JUMPI PUSH2 0x2D9C PUSH2 0x29FE JUMP JUMPDEST JUMPDEST SWAP3 SWAP2 POP POP JUMP JUMPDEST PUSH32 0x4E487B7100000000000000000000000000000000000000000000000000000000 PUSH1 0x0 MSTORE PUSH1 0x12 PUSH1 0x4 MSTORE PUSH1 0x24 PUSH1 0x0 REVERT JUMPDEST PUSH1 0x0 PUSH2 0x2DDD DUP3 PUSH2 0x24B4 JUMP JUMPDEST SWAP2 POP PUSH2 0x2DE8 DUP4 PUSH2 0x24B4 JUMP JUMPDEST SWAP3 POP DUP3 PUSH2 0x2DF8 JUMPI PUSH2 0x2DF7 PUSH2 0x2DA3 JUMP JUMPDEST JUMPDEST DUP3 DUP3 DIV SWAP1 POP SWAP3 SWAP2 POP POP JUMP JUMPDEST PUSH32 0x4D6F726967696E4170703A20696E76616C69642076616C756521000000000000 PUSH1 0x0 DUP3 ADD MSTORE POP JUMP JUMPDEST PUSH1 0x0 PUSH2 0x2E39 PUSH1 0x1A DUP4 PUSH2 0x2210 JUMP JUMPDEST SWAP2 POP PUSH2 0x2E44 DUP3 PUSH2 0x2E03 JUMP JUMPDEST PUSH1 0x20 DUP3 ADD SWAP1 POP SWAP2 SWAP1 POP JUMP JUMPDEST PUSH1 0x0 PUSH1 0x20 DUP3 ADD SWAP1 POP DUP2 DUP2 SUB PUSH1 0x0 DUP4 ADD MSTORE PUSH2 0x2E68 DUP2 PUSH2 0x2E2C JUMP JUMPDEST SWAP1 POP SWAP2 SWAP1 POP JUMP JUMPDEST PUSH1 0x0 PUSH1 0x20 DUP3 ADD SWAP1 POP PUSH2 0x2E84 PUSH1 0x0 DUP4 ADD DUP5 PUSH2 0x2799 JUMP JUMPDEST SWAP3 SWAP2 POP POP JUMP JUMPDEST PUSH1 0x0 PUSH1 0x60 DUP3 ADD SWAP1 POP PUSH2 0x2E9F PUSH1 0x0 DUP4 ADD DUP7 PUSH2 0x2799 JUMP JUMPDEST PUSH2 0x2EAC PUSH1 0x20 DUP4 ADD DUP6 PUSH2 0x2799 JUMP JUMPDEST PUSH2 0x2EB9 PUSH1 0x40 DUP4 ADD DUP5 PUSH2 0x24BE JUMP JUMPDEST SWAP5 SWAP4 POP POP POP POP JUMP JUMPDEST PUSH1 0x0 DUP2 MLOAD SWAP1 POP SWAP2 SWAP1 POP JUMP JUMPDEST PUSH1 0x0 DUP2 SWAP1 POP SWAP3 SWAP2 POP POP JUMP JUMPDEST PUSH1 0x0 JUMPDEST DUP4 DUP2 LT ISZERO PUSH2 0x2EF5 JUMPI DUP1 DUP3 ADD MLOAD DUP2 DUP5 ADD MSTORE PUSH1 0x20 DUP2 ADD SWAP1 POP PUSH2 0x2EDA JUMP JUMPDEST PUSH1 0x0 DUP5 DUP5 ADD MSTORE POP POP POP POP JUMP JUMPDEST PUSH1 0x0 PUSH2 0x2F0C DUP3 PUSH2 0x2EC1 JUMP JUMPDEST PUSH2 0x2F16 DUP2 DUP6 PUSH2 0x2ECC JUMP JUMPDEST SWAP4 POP PUSH2 0x2F26 DUP2 DUP6 PUSH1 0x20 DUP7 ADD PUSH2 0x2ED7 JUMP JUMPDEST DUP1 DUP5 ADD SWAP2 POP POP SWAP3 SWAP2 POP POP JUMP JUMPDEST PUSH1 0x0 PUSH2 0x2F3E DUP3 DUP5 PUSH2 0x2F01 JUMP JUMPDEST SWAP2 POP DUP2 SWAP1 POP SWAP3 SWAP2 POP POP JUMP JUMPDEST PUSH2 0x2F52 DUP2 PUSH2 0x2326 JUMP JUMPDEST DUP2 EQ PUSH2 0x2F5D JUMPI PUSH1 0x0 DUP1 REVERT JUMPDEST POP JUMP JUMPDEST PUSH1 0x0 DUP2 MLOAD SWAP1 POP PUSH2 0x2F6F DUP2 PUSH2 0x2F49 JUMP JUMPDEST SWAP3 SWAP2 POP POP JUMP JUMPDEST PUSH1 0x0 PUSH1 0x20 DUP3 DUP5 SUB SLT ISZERO PUSH2 0x2F8B JUMPI PUSH2 0x2F8A PUSH2 0x2297 JUMP JUMPDEST JUMPDEST PUSH1 0x0 PUSH2 0x2F99 DUP5 DUP3 DUP6 ADD PUSH2 0x2F60 JUMP JUMPDEST SWAP2 POP POP SWAP3 SWAP2 POP POP JUMP JUMPDEST PUSH32 0x5472616E7366657248656C7065723A3A7472616E7366657246726F6D3A207472 PUSH1 0x0 DUP3 ADD MSTORE PUSH32 0x616E7366657246726F6D206661696C6564000000000000000000000000000000 PUSH1 0x20 DUP3 ADD MSTORE POP JUMP JUMPDEST PUSH1 0x0 PUSH2 0x2FFE PUSH1 0x31 DUP4 PUSH2 0x2210 JUMP JUMPDEST SWAP2 POP PUSH2 0x3009 DUP3 PUSH2 0x2FA2 JUMP JUMPDEST PUSH1 0x40 DUP3 ADD SWAP1 POP SWAP2 SWAP1 POP JUMP JUMPDEST PUSH1 0x0 PUSH1 0x20 DUP3 ADD SWAP1 POP DUP2 DUP2 SUB PUSH1 0x0 DUP4 ADD MSTORE PUSH2 0x302D DUP2 PUSH2 0x2FF1 JUMP JUMPDEST SWAP1 POP SWAP2 SWAP1 POP JUMP JUMPDEST PUSH1 0x0 PUSH1 0x40 DUP3 ADD SWAP1 POP PUSH2 0x3049 PUSH1 0x0 DUP4 ADD DUP6 PUSH2 0x2799 JUMP JUMPDEST PUSH2 0x3056 PUSH1 0x20 DUP4 ADD DUP5 PUSH2 0x24BE JUMP JUMPDEST SWAP4 SWAP3 POP POP POP JUMP JUMPDEST PUSH32 0x5472616E7366657248656C7065723A3A736166655472616E736665723A207472 PUSH1 0x0 DUP3 ADD MSTORE PUSH32 0x616E73666572206661696C656400000000000000000000000000000000000000 PUSH1 0x20 DUP3 ADD MSTORE POP JUMP JUMPDEST PUSH1 0x0 PUSH2 0x30B9 PUSH1 0x2D DUP4 PUSH2 0x2210 JUMP JUMPDEST SWAP2 POP PUSH2 0x30C4 DUP3 PUSH2 0x305D JUMP JUMPDEST PUSH1 0x40 DUP3 ADD SWAP1 POP SWAP2 SWAP1 POP JUMP JUMPDEST PUSH1 0x0 PUSH1 0x20 DUP3 ADD SWAP1 POP DUP2 DUP2 SUB PUSH1 0x0 DUP4 ADD MSTORE PUSH2 0x30E8 DUP2 PUSH2 0x30AC JUMP JUMPDEST SWAP1 POP SWAP2 SWAP1 POP JUMP JUMPDEST PUSH32 0x5472616E7366657248656C7065723A3A736166655472616E736665724554483A PUSH1 0x0 DUP3 ADD MSTORE PUSH32 0x20455448207472616E73666572206661696C6564000000000000000000000000 PUSH1 0x20 DUP3 ADD MSTORE POP JUMP JUMPDEST PUSH1 0x0 PUSH2 0x314B PUSH1 0x34 DUP4 PUSH2 0x2210 JUMP JUMPDEST SWAP2 POP PUSH2 0x3156 DUP3 PUSH2 0x30EF JUMP JUMPDEST PUSH1 0x40 DUP3 ADD SWAP1 POP SWAP2 SWAP1 POP JUMP JUMPDEST PUSH1 0x0 PUSH1 0x20 DUP3 ADD SWAP1 POP DUP2 DUP2 SUB PUSH1 0x0 DUP4 ADD MSTORE PUSH2 0x317A DUP2 PUSH2 0x313E JUMP JUMPDEST SWAP1 POP SWAP2 SWAP1 POP JUMP JUMPDEST PUSH1 0x0 PUSH1 0x40 DUP3 ADD SWAP1 POP PUSH2 0x3196 PUSH1 0x0 DUP4 ADD DUP6 PUSH2 0x2799 JUMP JUMPDEST PUSH2 0x31A3 PUSH1 0x20 DUP4 ADD DUP5 PUSH2 0x244A JUMP JUMPDEST SWAP4 SWAP3 POP POP POP JUMP INVALID LOG2 PUSH5 0x6970667358 0x22 SLT KECCAK256 PREVRANDAO DELEGATECALL MUL SHR 0xAD 0xAC 0xE 0xFB EXTCODESIZE COINBASE 0x4E PUSH7 0x93B0608BBAF7F4 SWAP13 DELEGATECALL SELFBALANCE SDIV 0xBD 0xC9 EXTCODECOPY 0xE0 PUSH5 0xD0D0036164 PUSH20 0x6F6C634300081400330000000000000000000000 "},"methodIdentifiers":{"DEFAULT_ADMIN_ROLE()":"a217fddf","PAUSER_ROLE()":"e63ab1e9","addAdmin(address)":"70480275","addPauser(address)":"82dc1ec4","getRoleAdmin(bytes32)":"248a9ca3","grantRole(bytes32,address)":"2f2ff15d","hasRole(bytes32,address)":"91d14854","initialize(address)":"c4d66de8","isAdmin(address)":"24d7806c","isPauser(address)":"46fbf68e","paginationSize()":"3d538ecf","pause()":"8456cb59","paused()":"5c975abb","release(address,bytes32)":"d7c2eec7","releaseInfos(address,bytes32,uint256)":"82a969e2","removeAdmin(address)":"1785f53c","removePauser(address)":"6b2c0f55","renounceRole(bytes32,address)":"36568abe","revokeRole(bytes32,address)":"d547741f","setPaginationSize(uint256)":"f2407ca4","startVesting(bytes32,address,address,uint256,(uint256,uint256)[])":"7623f00e","supportsInterface(bytes4)":"01ffc9a7","unpause()":"3f4ba83a","vestingSchedules(address,bytes32)":"7b00ffad"}},"storageLayout":{"storage":[{"astId":2153,"contract":"contracts/vesting/Vesting.sol:Vesting","label":"paginationSize","offset":0,"slot":"0","type":"t_uint256"},{"astId":4604,"contract":"contracts/vesting/Vesting.sol:Vesting","label":"vestingSchedules","offset":0,"slot":"1","type":"t_mapping(t_address,t_mapping(t_bytes32,t_struct(VestingSchedule)4974_storage))"},{"astId":4613,"contract":"contracts/vesting/Vesting.sol:Vesting","label":"releaseInfos","offset":0,"slot":"2","type":"t_mapping(t_address,t_mapping(t_bytes32,t_array(t_struct(Release)2448_storage)dyn_storage))"}],"types":{"t_address":{"encoding":"inplace","label":"address","numberOfBytes":"20"},"t_array(t_struct(Release)2448_storage)dyn_storage":{"base":"t_struct(Release)2448_storage","encoding":"dynamic_array","label":"struct IAtomicSwapBase.Release[]","numberOfBytes":"32"},"t_bytes32":{"encoding":"inplace","label":"bytes32","numberOfBytes":"32"},"t_mapping(t_address,t_mapping(t_bytes32,t_array(t_struct(Release)2448_storage)dyn_storage))":{"encoding":"mapping","key":"t_address","label":"mapping(address => mapping(bytes32 => struct IAtomicSwapBase.Release[]))","numberOfBytes":"32","value":"t_mapping(t_bytes32,t_array(t_struct(Release)2448_storage)dyn_storage)"},"t_mapping(t_address,t_mapping(t_bytes32,t_struct(VestingSchedule)4974_storage))":{"encoding":"mapping","key":"t_address","label":"mapping(address => mapping(bytes32 => struct IVesting.VestingSchedule))","numberOfBytes":"32","value":"t_mapping(t_bytes32,t_struct(VestingSchedule)4974_storage)"},"t_mapping(t_bytes32,t_array(t_struct(Release)2448_storage)dyn_storage)":{"encoding":"mapping","key":"t_bytes32","label":"mapping(bytes32 => struct IAtomicSwapBase.Release[])","numberOfBytes":"32","value":"t_array(t_struct(Release)2448_storage)dyn_storage"},"t_mapping(t_bytes32,t_struct(VestingSchedule)4974_storage)":{"encoding":"mapping","key":"t_bytes32","label":"mapping(bytes32 => struct IVesting.VestingSchedule)","numberOfBytes":"32","value":"t_struct(VestingSchedule)4974_storage"},"t_struct(Release)2448_storage":{"encoding":"inplace","label":"struct IAtomicSwapBase.Release","members":[{"astId":2445,"contract":"contracts/vesting/Vesting.sol:Vesting","label":"durationInHours","offset":0,"slot":"0","type":"t_uint256"},{"astId":2447,"contract":"contracts/vesting/Vesting.sol:Vesting","label":"percentage","offset":0,"slot":"1","type":"t_uint256"}],"numberOfBytes":"64"},"t_struct(VestingSchedule)4974_storage":{"encoding":"inplace","label":"struct IVesting.VestingSchedule","members":[{"astId":4961,"contract":"contracts/vesting/Vesting.sol:Vesting","label":"from","offset":0,"slot":"0","type":"t_address"},{"astId":4963,"contract":"contracts/vesting/Vesting.sol:Vesting","label":"start","offset":0,"slot":"1","type":"t_uint256"},{"astId":4965,"contract":"contracts/vesting/Vesting.sol:Vesting","label":"lastReleasedTime","offset":0,"slot":"2","type":"t_uint256"},{"astId":4967,"contract":"contracts/vesting/Vesting.sol:Vesting","label":"token","offset":0,"slot":"3","type":"t_address"},{"astId":4969,"contract":"contracts/vesting/Vesting.sol:Vesting","label":"totalAmount","offset":0,"slot":"4","type":"t_uint256"},{"astId":4971,"contract":"contracts/vesting/Vesting.sol:Vesting","label":"amountReleased","offset":0,"slot":"5","type":"t_uint256"},{"astId":4973,"contract":"contracts/vesting/Vesting.sol:Vesting","label":"lastReleasedStep","offset":0,"slot":"6","type":"t_uint256"}],"numberOfBytes":"224"},"t_uint256":{"encoding":"inplace","label":"uint256","numberOfBytes":"32"}}}}}}