{"contracts/inchain_atomicswap/InchainAtomicSwap.sol":{"InchainAtomicSwap":{"abi":[{"inputs":[],"name":"AccessControlBadConfirmation","type":"error"},{"inputs":[{"internalType":"address","name":"account","type":"address"},{"internalType":"bytes32","name":"neededRole","type":"bytes32"}],"name":"AccessControlUnauthorizedAccount","type":"error"},{"inputs":[{"internalType":"uint256","name":"provided","type":"uint256"},{"internalType":"uint256","name":"expectedExpiry","type":"uint256"}],"name":"BidAlreadyExpired","type":"error"},{"inputs":[],"name":"BidAlreadyPlaced","type":"error"},{"inputs":[],"name":"BidDoesNotExist","type":"error"},{"inputs":[],"name":"BidNotAllowed","type":"error"},{"inputs":[{"internalType":"enum IAtomicSwapBase.BidStatus","name":"status","type":"uint8"}],"name":"BidNotInPlacedStatus","type":"error"},{"inputs":[],"name":"DuplicateReleaseSchedule","type":"error"},{"inputs":[],"name":"EnforcedPause","type":"error"},{"inputs":[],"name":"ExpectedPause","type":"error"},{"inputs":[],"name":"InactiveOrder","type":"error"},{"inputs":[],"name":"InvaldAddition","type":"error"},{"inputs":[],"name":"InvalidAddress","type":"error"},{"inputs":[],"name":"InvalidBidderAddress","type":"error"},{"inputs":[],"name":"InvalidBuyerFee","type":"error"},{"inputs":[{"internalType":"address","name":"contractAddress","type":"address"}],"name":"InvalidContractAddress","type":"error"},{"inputs":[{"internalType":"uint256","name":"provided","type":"uint256"},{"internalType":"uint256","name":"maximum","type":"uint256"}],"name":"InvalidExpirationTime","type":"error"},{"inputs":[],"name":"InvalidInitialization","type":"error"},{"inputs":[],"name":"InvalidMinimumBidLimit","type":"error"},{"inputs":[],"name":"InvalidReleasePercentage","type":"error"},{"inputs":[],"name":"InvalidSellerFee","type":"error"},{"inputs":[],"name":"InvalidTotalPercentage","type":"error"},{"inputs":[],"name":"InvalidTreasuryAddress","type":"error"},{"inputs":[{"internalType":"uint256","name":"amount","type":"uint256"}],"name":"MismatchedBidAmount","type":"error"},{"inputs":[],"name":"NoBidPlaced","type":"error"},{"inputs":[{"internalType":"uint256","name":"amount","type":"uint256"},{"internalType":"uint256","name":"allowance","type":"uint256"}],"name":"NotAllowedTransferAmount","type":"error"},{"inputs":[{"internalType":"uint256","name":"real","type":"uint256"},{"internalType":"uint256","name":"expected","type":"uint256"}],"name":"NotEnoughFund","type":"error"},{"inputs":[],"name":"NotInitializing","type":"error"},{"inputs":[],"name":"OrderAlreadyExists","type":"error"},{"inputs":[{"internalType":"uint256","name":"current","type":"uint256"},{"internalType":"uint256","name":"expiredTime","type":"uint256"}],"name":"OrderAlreadyExpired","type":"error"},{"inputs":[],"name":"OrderCanceled","type":"error"},{"inputs":[],"name":"OrderDoesNotExist","type":"error"},{"inputs":[],"name":"OrderNotAllowTake","type":"error"},{"inputs":[],"name":"OverMaximumReleaseStep","type":"error"},{"inputs":[],"name":"ReentrancyGuardReentrantCall","type":"error"},{"inputs":[{"internalType":"address","name":"to","type":"address"},{"internalType":"uint256","name":"amount","type":"uint256"}],"name":"TransferFailed","type":"error"},{"inputs":[{"internalType":"address","name":"from","type":"address"},{"internalType":"address","name":"to","type":"address"},{"internalType":"uint256","name":"amount","type":"uint256"}],"name":"TransferFromFailed","type":"error"},{"inputs":[{"internalType":"address","name":"recipient","type":"address"},{"internalType":"uint256","name":"amount","type":"uint256"}],"name":"TransferToRecipientFailed","type":"error"},{"inputs":[{"internalType":"address","name":"recipient","type":"address"},{"internalType":"uint256","name":"amount","type":"uint256"}],"name":"TransferToTreasuryFailed","type":"error"},{"inputs":[{"internalType":"address","name":"caller","type":"address"},{"internalType":"address","name":"expected","type":"address"}],"name":"UnauthorizedAcceptAction","type":"error"},{"inputs":[],"name":"UnauthorizedCancelAction","type":"error"},{"inputs":[],"name":"UnauthorizedSender","type":"error"},{"inputs":[],"name":"UnauthorizedTakeAction","type":"error"},{"inputs":[],"name":"UnsupportedTokenPair","type":"error"},{"inputs":[],"name":"ZeroReleaseSchedule","type":"error"},{"anonymous":false,"inputs":[{"indexed":true,"internalType":"bytes32","name":"orderID","type":"bytes32"},{"indexed":true,"internalType":"address","name":"bidder","type":"address"},{"indexed":true,"internalType":"uint256","name":"amount","type":"uint256"}],"name":"AcceptedBid","type":"event"},{"anonymous":false,"inputs":[{"indexed":true,"internalType":"bytes32","name":"id","type":"bytes32"}],"name":"AtomicSwapOrderCanceled","type":"event"},{"anonymous":false,"inputs":[{"indexed":true,"internalType":"bytes32","name":"id","type":"bytes32"}],"name":"AtomicSwapOrderCreated","type":"event"},{"anonymous":false,"inputs":[{"indexed":true,"internalType":"address","name":"maker","type":"address"},{"indexed":true,"internalType":"address","name":"taker","type":"address"},{"indexed":true,"internalType":"bytes32","name":"id","type":"bytes32"}],"name":"AtomicSwapOrderTook","type":"event"},{"anonymous":false,"inputs":[{"indexed":true,"internalType":"bytes32","name":"orderID","type":"bytes32"},{"indexed":true,"internalType":"address","name":"bidder","type":"address"}],"name":"CanceledBid","type":"event"},{"anonymous":false,"inputs":[{"indexed":false,"internalType":"uint64","name":"version","type":"uint64"}],"name":"Initialized","type":"event"},{"anonymous":false,"inputs":[{"indexed":false,"internalType":"address","name":"account","type":"address"}],"name":"Paused","type":"event"},{"anonymous":false,"inputs":[{"indexed":true,"internalType":"bytes32","name":"orderID","type":"bytes32"},{"indexed":true,"internalType":"address","name":"bidder","type":"address"},{"indexed":true,"internalType":"uint256","name":"amount","type":"uint256"}],"name":"PlacedBid","type":"event"},{"anonymous":false,"inputs":[{"indexed":true,"internalType":"bytes32","name":"orderID","type":"bytes32"},{"indexed":true,"internalType":"address","name":"bidder","type":"address"},{"indexed":true,"internalType":"uint256","name":"amount","type":"uint256"}],"name":"ReceivedNewBid","type":"event"},{"anonymous":false,"inputs":[{"indexed":true,"internalType":"bytes32","name":"role","type":"bytes32"},{"indexed":true,"internalType":"bytes32","name":"previousAdminRole","type":"bytes32"},{"indexed":true,"internalType":"bytes32","name":"newAdminRole","type":"bytes32"}],"name":"RoleAdminChanged","type":"event"},{"anonymous":false,"inputs":[{"indexed":true,"internalType":"bytes32","name":"role","type":"bytes32"},{"indexed":true,"internalType":"address","name":"account","type":"address"},{"indexed":true,"internalType":"address","name":"sender","type":"address"}],"name":"RoleGranted","type":"event"},{"anonymous":false,"inputs":[{"indexed":true,"internalType":"bytes32","name":"role","type":"bytes32"},{"indexed":true,"internalType":"address","name":"account","type":"address"},{"indexed":true,"internalType":"address","name":"sender","type":"address"}],"name":"RoleRevoked","type":"event"},{"anonymous":false,"inputs":[{"indexed":false,"internalType":"address","name":"account","type":"address"}],"name":"Unpaused","type":"event"},{"anonymous":false,"inputs":[{"indexed":true,"internalType":"bytes32","name":"orderID","type":"bytes32"},{"indexed":true,"internalType":"address","name":"bidder","type":"address"},{"indexed":true,"internalType":"uint256","name":"amount","type":"uint256"}],"name":"UpdatedBid","type":"event"},{"inputs":[],"name":"DEFAULT_ADMIN_ROLE","outputs":[{"internalType":"bytes32","name":"","type":"bytes32"}],"stateMutability":"view","type":"function"},{"inputs":[],"name":"PAUSER_ROLE","outputs":[{"internalType":"bytes32","name":"","type":"bytes32"}],"stateMutability":"view","type":"function"},{"inputs":[{"components":[{"internalType":"bytes32","name":"orderID","type":"bytes32"},{"internalType":"address","name":"bidder","type":"address"}],"internalType":"struct IAtomicSwapBase.AcceptBidMsg","name":"acceptBidMsg","type":"tuple"}],"name":"acceptBid","outputs":[],"stateMutability":"payable","type":"function"},{"inputs":[{"internalType":"address","name":"_account","type":"address"}],"name":"addAdmin","outputs":[],"stateMutability":"nonpayable","type":"function"},{"inputs":[{"internalType":"address","name":"_account","type":"address"}],"name":"addPauser","outputs":[],"stateMutability":"nonpayable","type":"function"},{"inputs":[{"internalType":"bytes32","name":"","type":"bytes32"},{"internalType":"address","name":"","type":"address"}],"name":"bids","outputs":[{"internalType":"uint256","name":"amount","type":"uint256"},{"internalType":"bytes32","name":"order","type":"bytes32"},{"internalType":"enum IAtomicSwapBase.BidStatus","name":"status","type":"uint8"},{"internalType":"address","name":"bidder","type":"address"},{"internalType":"uint256","name":"receiveTimestamp","type":"uint256"},{"internalType":"uint256","name":"expireTimestamp","type":"uint256"}],"stateMutability":"view","type":"function"},{"inputs":[],"name":"buyerFeeRate","outputs":[{"internalType":"uint256","name":"","type":"uint256"}],"stateMutability":"view","type":"function"},{"inputs":[{"internalType":"bytes32","name":"_orderID","type":"bytes32"}],"name":"cancelBid","outputs":[],"stateMutability":"payable","type":"function"},{"inputs":[{"components":[{"internalType":"bytes32","name":"orderID","type":"bytes32"}],"internalType":"struct IAtomicSwapBase.CancelSwapMsg","name":"cancelswap","type":"tuple"}],"name":"cancelSwap","outputs":[],"stateMutability":"payable","type":"function"},{"inputs":[{"internalType":"bytes32","name":"","type":"bytes32"},{"internalType":"address","name":"","type":"address"}],"name":"counteroffers","outputs":[{"internalType":"uint256","name":"","type":"uint256"}],"stateMutability":"view","type":"function"},{"inputs":[{"internalType":"bytes32","name":"role","type":"bytes32"}],"name":"getRoleAdmin","outputs":[{"internalType":"bytes32","name":"","type":"bytes32"}],"stateMutability":"view","type":"function"},{"inputs":[{"internalType":"bytes32","name":"role","type":"bytes32"},{"internalType":"address","name":"account","type":"address"}],"name":"grantRole","outputs":[],"stateMutability":"nonpayable","type":"function"},{"inputs":[{"internalType":"bytes32","name":"role","type":"bytes32"},{"internalType":"address","name":"account","type":"address"}],"name":"hasRole","outputs":[{"internalType":"bool","name":"","type":"bool"}],"stateMutability":"view","type":"function"},{"inputs":[{"internalType":"address","name":"_admin","type":"address"},{"internalType":"address","name":"_vestingManager","type":"address"},{"internalType":"address","name":"_treasury","type":"address"},{"internalType":"uint256","name":"_sellerFee","type":"uint256"},{"internalType":"uint256","name":"_buyerFee","type":"uint256"}],"name":"initialize","outputs":[],"stateMutability":"nonpayable","type":"function"},{"inputs":[{"internalType":"address","name":"_account","type":"address"}],"name":"isAdmin","outputs":[{"internalType":"bool","name":"","type":"bool"}],"stateMutability":"view","type":"function"},{"inputs":[{"internalType":"address","name":"_account","type":"address"}],"name":"isPauser","outputs":[{"internalType":"bool","name":"","type":"bool"}],"stateMutability":"view","type":"function"},{"inputs":[{"components":[{"internalType":"bytes32","name":"uuid","type":"bytes32"},{"components":[{"internalType":"address","name":"token","type":"address"},{"internalType":"uint256","name":"amount","type":"uint256"}],"internalType":"struct IAtomicSwapBase.Coin","name":"sellToken","type":"tuple"},{"components":[{"internalType":"address","name":"token","type":"address"},{"internalType":"uint256","name":"amount","type":"uint256"}],"internalType":"struct IAtomicSwapBase.Coin","name":"buyToken","type":"tuple"},{"internalType":"address","name":"maker","type":"address"},{"internalType":"address","name":"desiredTaker","type":"address"},{"internalType":"uint256","name":"minBidAmount","type":"uint256"},{"internalType":"uint256","name":"expireAt","type":"uint256"},{"internalType":"bool","name":"acceptBid","type":"bool"}],"internalType":"struct IAtomicSwapBase.MakeSwapMsg","name":"makeswap","type":"tuple"}],"name":"makeSwap","outputs":[{"internalType":"bytes32","name":"","type":"bytes32"}],"stateMutability":"payable","type":"function"},{"inputs":[{"components":[{"internalType":"bytes32","name":"uuid","type":"bytes32"},{"components":[{"internalType":"address","name":"token","type":"address"},{"internalType":"uint256","name":"amount","type":"uint256"}],"internalType":"struct IAtomicSwapBase.Coin","name":"sellToken","type":"tuple"},{"components":[{"internalType":"address","name":"token","type":"address"},{"internalType":"uint256","name":"amount","type":"uint256"}],"internalType":"struct IAtomicSwapBase.Coin","name":"buyToken","type":"tuple"},{"internalType":"address","name":"maker","type":"address"},{"internalType":"address","name":"desiredTaker","type":"address"},{"internalType":"uint256","name":"minBidAmount","type":"uint256"},{"internalType":"uint256","name":"expireAt","type":"uint256"},{"internalType":"bool","name":"acceptBid","type":"bool"}],"internalType":"struct IAtomicSwapBase.MakeSwapMsg","name":"makeswap","type":"tuple"},{"components":[{"internalType":"uint256","name":"durationInHours","type":"uint256"},{"internalType":"uint256","name":"percentage","type":"uint256"}],"internalType":"struct IAtomicSwapBase.Release[]","name":"releases","type":"tuple[]"}],"name":"makeSwapWithVesting","outputs":[],"stateMutability":"payable","type":"function"},{"inputs":[],"name":"paginationSize","outputs":[{"internalType":"uint256","name":"","type":"uint256"}],"stateMutability":"view","type":"function"},{"inputs":[],"name":"pause","outputs":[],"stateMutability":"nonpayable","type":"function"},{"inputs":[],"name":"paused","outputs":[{"internalType":"bool","name":"","type":"bool"}],"stateMutability":"view","type":"function"},{"inputs":[{"components":[{"internalType":"uint256","name":"bidAmount","type":"uint256"},{"internalType":"address","name":"bidder","type":"address"},{"internalType":"bytes32","name":"orderID","type":"bytes32"},{"internalType":"uint256","name":"expireTimestamp","type":"uint256"}],"internalType":"struct IAtomicSwapBase.PlaceBidMsg","name":"placeBidMsg","type":"tuple"}],"name":"placeBid","outputs":[],"stateMutability":"payable","type":"function"},{"inputs":[{"internalType":"address","name":"_account","type":"address"}],"name":"removeAdmin","outputs":[],"stateMutability":"nonpayable","type":"function"},{"inputs":[{"internalType":"address","name":"_account","type":"address"}],"name":"removePauser","outputs":[],"stateMutability":"nonpayable","type":"function"},{"inputs":[{"internalType":"bytes32","name":"role","type":"bytes32"},{"internalType":"address","name":"callerConfirmation","type":"address"}],"name":"renounceRole","outputs":[],"stateMutability":"nonpayable","type":"function"},{"inputs":[{"internalType":"bytes32","name":"role","type":"bytes32"},{"internalType":"address","name":"account","type":"address"}],"name":"revokeRole","outputs":[],"stateMutability":"nonpayable","type":"function"},{"inputs":[],"name":"sellerFeeRate","outputs":[{"internalType":"uint256","name":"","type":"uint256"}],"stateMutability":"view","type":"function"},{"inputs":[{"internalType":"uint256","name":"_paginationSize","type":"uint256"}],"name":"setPaginationSize","outputs":[],"stateMutability":"nonpayable","type":"function"},{"inputs":[{"internalType":"bytes4","name":"interfaceId","type":"bytes4"}],"name":"supportsInterface","outputs":[{"internalType":"bool","name":"","type":"bool"}],"stateMutability":"view","type":"function"},{"inputs":[{"internalType":"bytes32","name":"","type":"bytes32"}],"name":"swapOrder","outputs":[{"internalType":"bytes32","name":"id","type":"bytes32"},{"internalType":"enum IAtomicSwapBase.OrderStatus","name":"status","type":"uint8"},{"internalType":"address","name":"maker","type":"address"},{"components":[{"internalType":"address","name":"token","type":"address"},{"internalType":"uint256","name":"amount","type":"uint256"}],"internalType":"struct IAtomicSwapBase.Coin","name":"sellToken","type":"tuple"},{"internalType":"address","name":"taker","type":"address"},{"components":[{"internalType":"address","name":"token","type":"address"},{"internalType":"uint256","name":"amount","type":"uint256"}],"internalType":"struct IAtomicSwapBase.Coin","name":"buyToken","type":"tuple"},{"internalType":"uint256","name":"minBidAmount","type":"uint256"},{"internalType":"uint256","name":"createdAt","type":"uint256"},{"internalType":"uint256","name":"canceledAt","type":"uint256"},{"internalType":"uint256","name":"completedAt","type":"uint256"},{"internalType":"uint256","name":"expiredAt","type":"uint256"},{"internalType":"bool","name":"acceptBid","type":"bool"}],"stateMutability":"view","type":"function"},{"inputs":[{"internalType":"bytes32","name":"","type":"bytes32"},{"internalType":"uint256","name":"","type":"uint256"}],"name":"swapOrderVestingParams","outputs":[{"internalType":"uint256","name":"durationInHours","type":"uint256"},{"internalType":"uint256","name":"percentage","type":"uint256"}],"stateMutability":"view","type":"function"},{"inputs":[{"components":[{"internalType":"bytes32","name":"orderID","type":"bytes32"},{"internalType":"address","name":"takerReceiver","type":"address"}],"internalType":"struct IAtomicSwapBase.TakeSwapMsg","name":"takeswap","type":"tuple"}],"name":"takeSwap","outputs":[],"stateMutability":"payable","type":"function"},{"inputs":[],"name":"unpause","outputs":[],"stateMutability":"nonpayable","type":"function"},{"inputs":[{"components":[{"internalType":"bytes32","name":"orderID","type":"bytes32"},{"internalType":"address","name":"bidder","type":"address"},{"internalType":"uint256","name":"addition","type":"uint256"}],"internalType":"struct IAtomicSwapBase.UpdateBidMsg","name":"updateBidMsg","type":"tuple"}],"name":"updateBid","outputs":[],"stateMutability":"payable","type":"function"}],"evm":{"bytecode":{"linkReferences":{"contracts/abstracts/libs/logic/AtomicSwapStateLogic.sol":{"AtomicSwapStateLogic":[{"length":20,"start":5947},{"length":20,"start":10582},{"length":20,"start":10709}]},"contracts/abstracts/libs/utils/AnteHandler.sol":{"AnteHandler":[{"length":20,"start":3456},{"length":20,"start":4395},{"length":20,"start":13084}]},"contracts/abstracts/libs/utils/AtomicSwapMsgValidator.sol":{"AtomicSwapMsgValidator":[{"length":20,"start":4078},{"length":20,"start":6311},{"length":20,"start":7063},{"length":20,"start":10471}]}},"object":"608060405234801561001057600080fd5b50615cb980620000216000396000f3fe6080604052600436106101f95760003560e01c806366e929bf1161010d578063a217fddf116100a0578063d547741f1161006f578063d547741f146106e8578063df7cec2814610711578063e63ab1e91461072d578063f2407ca414610758578063fca6caa114610781576101f9565b8063a217fddf14610627578063a6b63eb814610652578063a743a3d01461067b578063d2a25283146106b8576101f9565b80638456cb59116100dc5780638456cb591461056a57806389f68190146105815780638d6cb1c4146105ac57806391d14854146105ea576101f9565b806366e929bf146104ad5780636b2c0f55146104ef578063704802751461051857806382dc1ec414610541576101f9565b80632f2ff15d116101905780633d9bd2fc1161015f5780633d9bd2fc146103e75780633f4ba83a1461040357806346fbf68e1461041a57806353f10c80146104575780635c975abb14610482576101f9565b80632f2ff15d1461034e57806336568abe1461037757806337be0022146103a05780633d538ecf146103bc576101f9565b80631785f53c116101cc5780631785f53c1461028f578063248a9ca3146102b857806324d7806c146102f55780632b2b651114610332576101f9565b806301ffc9a7146101fe578063022066611461023b57806306be619c1461025757806316b50a8214610273575b600080fd5b34801561020a57600080fd5b506102256004803603810190610220919061434a565b6107c9565b6040516102329190614392565b60405180910390f35b610255600480360381019061025091906143d1565b610843565b005b610271600480360381019061026c919061441d565b610e78565b005b61028d60048036038101906102889190614469565b611280565b005b34801561029b57600080fd5b506102b660048036038101906102b191906144f4565b6117d9565b005b3480156102c457600080fd5b506102df60048036038101906102da9190614557565b6117e9565b6040516102ec9190614593565b60405180910390f35b34801561030157600080fd5b5061031c600480360381019061031791906144f4565b611817565b6040516103299190614392565b60405180910390f35b61034c60048036038101906103479190614633565b61182d565b005b34801561035a57600080fd5b5061037560048036038101906103709190614695565b611984565b005b34801561038357600080fd5b5061039e60048036038101906103999190614695565b6119a6565b005b6103ba60048036038101906103b591906146f4565b611a21565b005b3480156103c857600080fd5b506103d1611cf3565b6040516103de919061473a565b60405180910390f35b61040160048036038101906103fc9190614774565b611cf9565b005b34801561040f57600080fd5b50610418612201565b005b34801561042657600080fd5b50610441600480360381019061043c91906144f4565b612274565b60405161044e9190614392565b60405180910390f35b34801561046357600080fd5b5061046c6122a7565b604051610479919061473a565b60405180910390f35b34801561048e57600080fd5b506104976122ad565b6040516104a49190614392565b60405180910390f35b3480156104b957600080fd5b506104d460048036038101906104cf9190614695565b6122d2565b6040516104e696959493929190614827565b60405180910390f35b3480156104fb57600080fd5b50610516600480360381019061051191906144f4565b612348565b005b34801561052457600080fd5b5061053f600480360381019061053a91906144f4565b612375565b005b34801561054d57600080fd5b50610568600480360381019061056391906144f4565b612385565b005b34801561057657600080fd5b5061057f6123b2565b005b34801561058d57600080fd5b50610596612425565b6040516105a3919061473a565b60405180910390f35b3480156105b857600080fd5b506105d360048036038101906105ce91906148b4565b61242b565b6040516105e19291906148f4565b60405180910390f35b3480156105f657600080fd5b50610611600480360381019061060c9190614695565b61246c565b60405161061e9190614392565b60405180910390f35b34801561063357600080fd5b5061063c6124e5565b6040516106499190614593565b60405180910390f35b34801561065e57600080fd5b506106796004803603810190610674919061491d565b6124ec565b005b34801561068757600080fd5b506106a2600480360381019061069d9190614695565b6127ed565b6040516106af919061473a565b60405180910390f35b6106d260048036038101906106cd9190614998565b612812565b6040516106df9190614593565b60405180910390f35b3480156106f457600080fd5b5061070f600480360381019061070a9190614695565b612b2a565b005b61072b60048036038101906107269190614557565b612b4c565b005b34801561073957600080fd5b50610742612ee0565b60405161074f9190614593565b60405180910390f35b34801561076457600080fd5b5061077f600480360381019061077a91906149c6565b612f04565b005b34801561078d57600080fd5b506107a860048036038101906107a39190614557565b612f9d565b6040516107c09c9b9a99989796959493929190614a88565b60405180910390f35b60007f7965db0b000000000000000000000000000000000000000000000000000000007bffffffffffffffffffffffffffffffffffffffffffffffffffffffff1916827bffffffffffffffffffffffffffffffffffffffffffffffffffffffff1916148061083c575061083b8261312b565b5b9050919050565b61084b613195565b6108536131d6565b8060000135600073ffffffffffffffffffffffffffffffffffffffff166001600083815260200190815260200160002060010160019054906101000a900473ffffffffffffffffffffffffffffffffffffffff1673ffffffffffffffffffffffffffffffffffffffff16036108f4576040517f5dcaf2d700000000000000000000000000000000000000000000000000000000815260040160405180910390fd5b81600001356000600381111561090d5761090c6147a1565b5b6001600083815260200190815260200160002060010160009054906101000a900460ff166003811115610943576109426147a1565b5b1461097a576040517fd4dbb56500000000000000000000000000000000000000000000000000000000815260040160405180910390fd5b600083600001359050600084602001602081019061099891906144f4565b9050600073ffffffffffffffffffffffffffffffffffffffff163373ffffffffffffffffffffffffffffffffffffffff1603610a00576040517f0809490800000000000000000000000000000000000000000000000000000000815260040160405180910390fd5b600060016000848152602001908152602001600020905080600c0160009054906101000a900460ff16610a5f576040517f3c24fafc00000000000000000000000000000000000000000000000000000000815260040160405180910390fd5b3373ffffffffffffffffffffffffffffffffffffffff168160010160019054906101000a900473ffffffffffffffffffffffffffffffffffffffff1673ffffffffffffffffffffffffffffffffffffffff1614610b19578060010160019054906101000a900473ffffffffffffffffffffffffffffffffffffffff16336040517f0500cb4c000000000000000000000000000000000000000000000000000000008152600401610b10929190614b44565b60405180910390fd5b60006003600085815260200190815260200160002060008473ffffffffffffffffffffffffffffffffffffffff1673ffffffffffffffffffffffffffffffffffffffff1681526020019081526020016000209050600280811115610b8057610b7f6147a1565b5b8160020160009054906101000a900460ff166002811115610ba457610ba36147a1565b5b14610bf7578060020160009054906101000a900460ff166040517f64b08c06000000000000000000000000000000000000000000000000000000008152600401610bee9190614b6d565b60405180910390fd5b4281600401541015610c46578060040154426040517f1d355639000000000000000000000000000000000000000000000000000000008152600401610c3d9291906148f4565b60405180910390fd5b60028260010160006101000a81548160ff02191690836003811115610c6e57610c6d6147a1565b5b02179055504282600a0181905550828260040160006101000a81548173ffffffffffffffffffffffffffffffffffffffff021916908373ffffffffffffffffffffffffffffffffffffffff16021790555060018160020160006101000a81548160ff02191690836002811115610ce757610ce66147a1565b5b0217905550610d1a828260020160019054906101000a900473ffffffffffffffffffffffffffffffffffffffff1661322d565b60008260050190508060000160009054906101000a900473ffffffffffffffffffffffffffffffffffffffff1673ffffffffffffffffffffffffffffffffffffffff1673__$8c89b81c02acb1dc8a3fc156e2431517d3$__6306cf228090918560010160019054906101000a900473ffffffffffffffffffffffffffffffffffffffff168560000154600654612710600560009054906101000a900473ffffffffffffffffffffffffffffffffffffffff166040518763ffffffff1660e01b8152600401610ded96959493929190614ba6565b60006040518083038186803b158015610e0557600080fd5b505af4158015610e19573d6000803e3d6000fd5b5050505081600001548473ffffffffffffffffffffffffffffffffffffffff16867fadd1d5b6c827fee45fa32e72964c9d43d2191c9b8b083889fb2e3f468c71856860405160405180910390a450505050505050610e7561370c565b50565b610e80613195565b610e886131d6565b8060000135600073ffffffffffffffffffffffffffffffffffffffff166001600083815260200190815260200160002060010160019054906101000a900473ffffffffffffffffffffffffffffffffffffffff1673ffffffffffffffffffffffffffffffffffffffff1603610f29576040517f5dcaf2d700000000000000000000000000000000000000000000000000000000815260040160405180910390fd5b816000013560006003811115610f4257610f416147a1565b5b6001600083815260200190815260200160002060010160009054906101000a900460ff166003811115610f7857610f776147a1565b5b14610faf576040517fd4dbb56500000000000000000000000000000000000000000000000000000000815260040160405180910390fd5b6000600160008560000135815260200190815260200160002090508073__$2effe1973215a034e8e4a17bdeb5710028$__6362e454f79091866040518363ffffffff1660e01b8152600401611005929190614c99565b60006040518083038186803b15801561101d57600080fd5b505af4158015611031573d6000803e3d6000fd5b5050505060028160010160006101000a81548160ff0219169083600381111561105d5761105c6147a1565b5b02179055504281600a0181905550338160040160006101000a81548173ffffffffffffffffffffffffffffffffffffffff021916908373ffffffffffffffffffffffffffffffffffffffff1602179055506110ca818560200160208101906110c591906144f4565b61322d565b8060050160000160009054906101000a900473ffffffffffffffffffffffffffffffffffffffff1673ffffffffffffffffffffffffffffffffffffffff1673__$8c89b81c02acb1dc8a3fc156e2431517d3$__63baa21b8c90918360010160019054906101000a900473ffffffffffffffffffffffffffffffffffffffff168460050160010154600654612710600560009054906101000a900473ffffffffffffffffffffffffffffffffffffffff166040518763ffffffff1660e01b815260040161119b96959493929190614ba6565b60006040518083038186803b1580156111b357600080fd5b505af41580156111c7573d6000803e3d6000fd5b5050505083600001358160040160009054906101000a900473ffffffffffffffffffffffffffffffffffffffff1673ffffffffffffffffffffffffffffffffffffffff168260010160019054906101000a900473ffffffffffffffffffffffffffffffffffffffff1673ffffffffffffffffffffffffffffffffffffffff167f6bf7309f141d1b44e414f1fc04d98491cd0acf98f0f1e5ad885d0a7ce164e6fa60405160405180910390a450505061127d61370c565b50565b6112886131d6565b611290613195565b8060400135600073ffffffffffffffffffffffffffffffffffffffff166001600083815260200190815260200160002060010160019054906101000a900473ffffffffffffffffffffffffffffffffffffffff1673ffffffffffffffffffffffffffffffffffffffff1603611331576040517f5dcaf2d700000000000000000000000000000000000000000000000000000000815260040160405180910390fd5b81604001356000600381111561134a576113496147a1565b5b6001600083815260200190815260200160002060010160009054906101000a900460ff1660038111156113805761137f6147a1565b5b146113b7576040517fd4dbb56500000000000000000000000000000000000000000000000000000000815260040160405180910390fd5b6000836040013590506000846000013590503373ffffffffffffffffffffffffffffffffffffffff168560200160208101906113f391906144f4565b73ffffffffffffffffffffffffffffffffffffffff1614611440576040517f8294ac0200000000000000000000000000000000000000000000000000000000815260040160405180910390fd5b60006003600084815260200190815260200160002060003373ffffffffffffffffffffffffffffffffffffffff1673ffffffffffffffffffffffffffffffffffffffff1681526020019081526020016000209050600073ffffffffffffffffffffffffffffffffffffffff168160020160019054906101000a900473ffffffffffffffffffffffffffffffffffffffff1673ffffffffffffffffffffffffffffffffffffffff161461151e576040517fb8cee9f000000000000000000000000000000000000000000000000000000000815260040160405180910390fd5b60006001600088604001358152602001908152602001600020905080600c0160009054906101000a900460ff16611581576040517f3c24fafc00000000000000000000000000000000000000000000000000000000815260040160405180910390fd5b4281600b015410156115d05780600b0154426040517ff00605cf0000000000000000000000000000000000000000000000000000000081526004016115c79291906148f4565b60405180910390fd5b80600701548310806115e85750806005016001015483115b1561162a57826040517fd9cf167e000000000000000000000000000000000000000000000000000000008152600401611621919061473a565b60405180910390fd5b6000600160008681526020019081526020016000206005019050600073ffffffffffffffffffffffffffffffffffffffff168160000160009054906101000a900473ffffffffffffffffffffffffffffffffffffffff1673ffffffffffffffffffffffffffffffffffffffff16146116d1576116cc8160000160009054906101000a900473ffffffffffffffffffffffffffffffffffffffff16333087613725565b611716565b83341461171557346040517fd9cf167e00000000000000000000000000000000000000000000000000000000815260040161170c919061473a565b60405180910390fd5b5b600373__$8ad05547f64aebe22f2eafad9eff5b91dd$__63cc76f93190918a6040518363ffffffff1660e01b8152600401611752929190614d64565b60006040518083038186803b15801561176a57600080fd5b505af415801561177e573d6000803e3d6000fd5b50505050833373ffffffffffffffffffffffffffffffffffffffff16867f1126836d9a6f07e69d20f7ac2db448d68d9bb24718d7e8e0e85b8cfd96bb04c160405160405180910390a4505050505050506117d661370c565b50565b6117e66000801b82612b2a565b50565b6000806117f461385e565b905080600001600084815260200190815260200160002060010154915050919050565b60006118266000801b8361246c565b9050919050565b8181808060200260200160405190810160405280939291908181526020016000905b8282101561187f578484839050604002018036038101906118709190614e6e565b8152602001906001019061184f565b505050505073__$2effe1973215a034e8e4a17bdeb5710028$__6333b988f590916040518263ffffffff1660e01b81526004016118bc9190614f79565b60006040518083038186803b1580156118d457600080fd5b505af41580156118e8573d6000803e3d6000fd5b5050505060006118f784612812565b905060005b8383905081101561197d576002600083815260200190815260200160002084848381811061192d5761192c614f9b565b5b9050604002019080600181540180825580915050600190039060005260206000209060020201600090919091909150818161196891906150ce565b505080806119759061510b565b9150506118fc565b5050505050565b61198d826117e9565b61199681613886565b6119a0838361389a565b50505050565b6119ae61399b565b73ffffffffffffffffffffffffffffffffffffffff168173ffffffffffffffffffffffffffffffffffffffff1614611a12576040517f6697b23200000000000000000000000000000000000000000000000000000000815260040160405180910390fd5b611a1c82826139a3565b505050565b611a29613195565b611a316131d6565b8060000135600073ffffffffffffffffffffffffffffffffffffffff166001600083815260200190815260200160002060010160019054906101000a900473ffffffffffffffffffffffffffffffffffffffff1673ffffffffffffffffffffffffffffffffffffffff1603611ad2576040517f5dcaf2d700000000000000000000000000000000000000000000000000000000815260040160405180910390fd5b816000013560006003811115611aeb57611aea6147a1565b5b6001600083815260200190815260200160002060010160009054906101000a900460ff166003811115611b2157611b206147a1565b5b14611b58576040517fd4dbb56500000000000000000000000000000000000000000000000000000000815260040160405180910390fd5b6000600160008560000135815260200190815260200160002090508073__$2effe1973215a034e8e4a17bdeb5710028$__63c3aee15d90916040518263ffffffff1660e01b8152600401611bac9190615153565b60006040518083038186803b158015611bc457600080fd5b505af4158015611bd8573d6000803e3d6000fd5b5050505060018160010160006101000a81548160ff02191690836003811115611c0457611c036147a1565b5b0217905550600073ffffffffffffffffffffffffffffffffffffffff168160020160000160009054906101000a900473ffffffffffffffffffffffffffffffffffffffff1673ffffffffffffffffffffffffffffffffffffffff1603611c7a57611c75338260020160010154613aa5565b611cb4565b611cb38160020160000160009054906101000a900473ffffffffffffffffffffffffffffffffffffffff16338360020160010154613ba5565b5b83600001357ff68aeec8f55d67a9b2cf2b6caea31e11f2c14e09da250170575d63911f26aa6e60405160405180910390a2505050611cf061370c565b50565b60005481565b611d01613195565b611d096131d6565b8060000135600073ffffffffffffffffffffffffffffffffffffffff166001600083815260200190815260200160002060010160019054906101000a900473ffffffffffffffffffffffffffffffffffffffff1673ffffffffffffffffffffffffffffffffffffffff1603611daa576040517f5dcaf2d700000000000000000000000000000000000000000000000000000000815260040160405180910390fd5b816000013560006003811115611dc357611dc26147a1565b5b6001600083815260200190815260200160002060010160009054906101000a900460ff166003811115611df957611df86147a1565b5b14611e30576040517fd4dbb56500000000000000000000000000000000000000000000000000000000815260040160405180910390fd5b60008360000135905060008460400135905060006003600084815260200190815260200160002060003373ffffffffffffffffffffffffffffffffffffffff1673ffffffffffffffffffffffffffffffffffffffff16815260200190815260200160002090504281600401541015611ee5578060040154426040517f1d355639000000000000000000000000000000000000000000000000000000008152600401611edc9291906148f4565b60405180910390fd5b600073ffffffffffffffffffffffffffffffffffffffff168160020160019054906101000a900473ffffffffffffffffffffffffffffffffffffffff1673ffffffffffffffffffffffffffffffffffffffff1603611f6f576040517f0a0c23ee00000000000000000000000000000000000000000000000000000000815260040160405180910390fd5b6000600160008581526020019081526020016000209050600280811115611f9957611f986147a1565b5b8260020160009054906101000a900460ff166002811115611fbd57611fbc6147a1565b5b14611ff4576040517f0a0c23ee00000000000000000000000000000000000000000000000000000000815260040160405180910390fd5b6000830361203957826040517fd9cf167e000000000000000000000000000000000000000000000000000000008152600401612030919061473a565b60405180910390fd5b8282600001600082825461204d919061516e565b925050819055508060050160010154826000015411156120a85781600001546040517fd9cf167e00000000000000000000000000000000000000000000000000000000815260040161209f919061473a565b60405180910390fd5b6000816005019050600073ffffffffffffffffffffffffffffffffffffffff168160000160009054906101000a900473ffffffffffffffffffffffffffffffffffffffff1673ffffffffffffffffffffffffffffffffffffffff161461213d576121388160000160009054906101000a900473ffffffffffffffffffffffffffffffffffffffff16333087613725565b612182565b83341461218157346040517fd9cf167e000000000000000000000000000000000000000000000000000000008152600401612178919061473a565b60405180910390fd5b5b82600001548360020160019054906101000a900473ffffffffffffffffffffffffffffffffffffffff1673ffffffffffffffffffffffffffffffffffffffff16867f7786094a5edc61a0463300b9b97a1b22d338bc800ed33404ba9a3888b71de0fc60405160405180910390a4505050505050506121fe61370c565b50565b61222b7f65d7a28e3265b37a6474929f336521b332c1681b933f6cb9f3376673440d862a3361246c565b61226a576040517f08c379a0000000000000000000000000000000000000000000000000000000008152600401612261906151ff565b60405180910390fd5b612272613cdb565b565b60006122a07f65d7a28e3265b37a6474929f336521b332c1681b933f6cb9f3376673440d862a8361246c565b9050919050565b60075481565b6000806122b8613d4d565b90508060000160009054906101000a900460ff1691505090565b6003602052816000526040600020602052806000526040600020600091509150508060000154908060010154908060020160009054906101000a900460ff16908060020160019054906101000a900473ffffffffffffffffffffffffffffffffffffffff16908060030154908060040154905086565b6123727f65d7a28e3265b37a6474929f336521b332c1681b933f6cb9f3376673440d862a82612b2a565b50565b6123826000801b82611984565b50565b6123af7f65d7a28e3265b37a6474929f336521b332c1681b933f6cb9f3376673440d862a82611984565b50565b6123dc7f65d7a28e3265b37a6474929f336521b332c1681b933f6cb9f3376673440d862a3361246c565b61241b576040517f08c379a0000000000000000000000000000000000000000000000000000000008152600401612412906151ff565b60405180910390fd5b612423613d75565b565b60065481565b6002602052816000526040600020818154811061244757600080fd5b9060005260206000209060020201600091509150508060000154908060010154905082565b60008061247761385e565b905080600001600085815260200190815260200160002060000160008473ffffffffffffffffffffffffffffffffffffffff1673ffffffffffffffffffffffffffffffffffffffff16815260200190815260200160002060009054906101000a900460ff1691505092915050565b6000801b81565b60006124f6613de7565b905060008160000160089054906101000a900460ff1615905060008260000160009054906101000a900467ffffffffffffffff1690506000808267ffffffffffffffff161480156125445750825b9050600060018367ffffffffffffffff16148015612579575060003073ffffffffffffffffffffffffffffffffffffffff163b145b905081158015612587575080155b156125be576040517ff92ee8a900000000000000000000000000000000000000000000000000000000815260040160405180910390fd5b60018560000160006101000a81548167ffffffffffffffff021916908367ffffffffffffffff160217905550831561260e5760018560000160086101000a81548160ff0219169083151502179055505b6126178a613e0f565b612710871115612653576040517fce43144600000000000000000000000000000000000000000000000000000000815260040160405180910390fd5b61271086111561268f576040517fb089e48e00000000000000000000000000000000000000000000000000000000815260040160405180910390fd5b600073ffffffffffffffffffffffffffffffffffffffff168873ffffffffffffffffffffffffffffffffffffffff16036126f5576040517fcfe2ea6300000000000000000000000000000000000000000000000000000000815260040160405180910390fd5b866006819055508560078190555087600560006101000a81548173ffffffffffffffffffffffffffffffffffffffff021916908373ffffffffffffffffffffffffffffffffffffffff16021790555088600460006101000a81548173ffffffffffffffffffffffffffffffffffffffff021916908373ffffffffffffffffffffffffffffffffffffffff16021790555083156127e15760008560000160086101000a81548160ff0219169083151502179055507fc7f505b2f371ae2175ee4913f4499e1f2633a7b5936321eed1cdaeb6115181d260016040516127d8919061526e565b60405180910390a15b50505050505050505050565b6008602052816000526040600020602052806000526040600020600091509150505481565b600061281c6131d6565b612824613195565b81606001600001602081019061283a91906144f4565b73ffffffffffffffffffffffffffffffffffffffff1682602001600001602081019061286691906144f4565b73ffffffffffffffffffffffffffffffffffffffff16036128b3576040517f45b3a4c700000000000000000000000000000000000000000000000000000000815260040160405180910390fd5b818036038101906128c491906153d1565b73__$2effe1973215a034e8e4a17bdeb5710028$__639a0ebe0090916040518263ffffffff1660e01b81526004016128fc91906154e1565b60006040518083038186803b15801561291457600080fd5b505af4158015612928573d6000803e3d6000fd5b505050506000826000013573__$8ad05547f64aebe22f2eafad9eff5b91dd$__63d81ab44f9091306040518363ffffffff1660e01b815260040161296d92919061550c565b602060405180830381865af415801561298a573d6000803e3d6000fd5b505050506040513d601f19601f820116820180604052508101906129ae919061554a565b9050600173__$8ad05547f64aebe22f2eafad9eff5b91dd$__632296d7e090918584336040518563ffffffff1660e01b81526004016129f094939291906156c5565b60006040518083038186803b158015612a0857600080fd5b505af4158015612a1c573d6000803e3d6000fd5b50505050600073ffffffffffffffffffffffffffffffffffffffff16836020016000016020810190612a4e91906144f4565b73ffffffffffffffffffffffffffffffffffffffff1603612ac3578260200160200135341015612abe573483602001602001356040517f04157bb4000000000000000000000000000000000000000000000000000000008152600401612ab59291906148f4565b60405180910390fd5b612aec565b612aeb836020016000016020810190612adc91906144f4565b33308660200160200135613725565b5b807f8b82d32987f9a4ae1bc7868a6f104edb711227ec3c9fccb0416a14fcc29bec5a60405160405180910390a280915050612b2561370c565b919050565b612b33826117e9565b612b3c81613886565b612b4683836139a3565b50505050565b612b54613195565b612b5c6131d6565b80600073ffffffffffffffffffffffffffffffffffffffff166001600083815260200190815260200160002060010160019054906101000a900473ffffffffffffffffffffffffffffffffffffffff1673ffffffffffffffffffffffffffffffffffffffff1603612bf9576040517f5dcaf2d700000000000000000000000000000000000000000000000000000000815260040160405180910390fd5b60006003600084815260200190815260200160002060003373ffffffffffffffffffffffffffffffffffffffff1673ffffffffffffffffffffffffffffffffffffffff16815260200190815260200160002090503373ffffffffffffffffffffffffffffffffffffffff168160020160019054906101000a900473ffffffffffffffffffffffffffffffffffffffff1673ffffffffffffffffffffffffffffffffffffffff1614612cd6576040517f978f045600000000000000000000000000000000000000000000000000000000815260040160405180910390fd5b600280811115612ce957612ce86147a1565b5b8160020160009054906101000a900460ff166002811115612d0d57612d0c6147a1565b5b14612d60578060020160009054906101000a900460ff166040517f64b08c06000000000000000000000000000000000000000000000000000000008152600401612d579190614b6d565b60405180910390fd5b60008160020160006101000a81548160ff02191690836002811115612d8857612d876147a1565b5b02179055506000600160008581526020019081526020016000206005019050600073ffffffffffffffffffffffffffffffffffffffff168160000160009054906101000a900473ffffffffffffffffffffffffffffffffffffffff1673ffffffffffffffffffffffffffffffffffffffff1614612e5b57612e568160000160009054906101000a900473ffffffffffffffffffffffffffffffffffffffff168360020160019054906101000a900473ffffffffffffffffffffffffffffffffffffffff168460000154613ba5565b612e6a565b612e69338360000154613aa5565b5b8160020160019054906101000a900473ffffffffffffffffffffffffffffffffffffffff1673ffffffffffffffffffffffffffffffffffffffff16847f6c2a0bb8117ecfbc53a4385a5421be8eb081718159b9eb3d7c273ecb07fe7cfd60405160405180910390a3505050612edd61370c565b50565b7f65d7a28e3265b37a6474929f336521b332c1681b933f6cb9f3376673440d862a81565b612f116000801b3361246c565b612f50576040517f08c379a0000000000000000000000000000000000000000000000000000000008152600401612f47906151ff565b60405180910390fd5b60008111612f93576040517f08c379a0000000000000000000000000000000000000000000000000000000008152600401612f8a90615759565b60405180910390fd5b8060008190555050565b60016020528060005260406000206000915090508060000154908060010160009054906101000a900460ff16908060010160019054906101000a900473ffffffffffffffffffffffffffffffffffffffff1690806002016040518060400160405290816000820160009054906101000a900473ffffffffffffffffffffffffffffffffffffffff1673ffffffffffffffffffffffffffffffffffffffff1673ffffffffffffffffffffffffffffffffffffffff168152602001600182015481525050908060040160009054906101000a900473ffffffffffffffffffffffffffffffffffffffff1690806005016040518060400160405290816000820160009054906101000a900473ffffffffffffffffffffffffffffffffffffffff1673ffffffffffffffffffffffffffffffffffffffff1673ffffffffffffffffffffffffffffffffffffffff1681526020016001820154815250509080600701549080600801549080600901549080600a01549080600b01549080600c0160009054906101000a900460ff1690508c565b60007f01ffc9a7000000000000000000000000000000000000000000000000000000007bffffffffffffffffffffffffffffffffffffffffffffffffffffffff1916827bffffffffffffffffffffffffffffffffffffffffffffffffffffffff1916149050919050565b61319d6122ad565b156131d4576040517fd93c066500000000000000000000000000000000000000000000000000000000815260040160405180910390fd5b565b60006131e0613fbe565b90506002816000015403613220576040517f3ee5aeb500000000000000000000000000000000000000000000000000000000815260040160405180910390fd5b6002816000018190555050565b60006002600084600001548152602001908152602001600020805480602002602001604051908101604052809291908181526020016000905b828210156132ac57838290600052602060002090600202016040518060400160405290816000820154815260200160018201548152505081526020019060010190613266565b505050509050600081510361339d578260020160000160009054906101000a900473ffffffffffffffffffffffffffffffffffffffff1673ffffffffffffffffffffffffffffffffffffffff1673__$8c89b81c02acb1dc8a3fc156e2431517d3$__6306cf22809091848660020160010154600754612710600560009054906101000a900473ffffffffffffffffffffffffffffffffffffffff166040518763ffffffff1660e01b815260040161336896959493929190614ba6565b60006040518083038186803b15801561338057600080fd5b505af4158015613394573d6000803e3d6000fd5b50505050613707565b600061271060075485600201600101546133b79190615779565b6133c191906157ea565b905060008185600201600101546133d8919061581b565b9050600073ffffffffffffffffffffffffffffffffffffffff168560020160000160009054906101000a900473ffffffffffffffffffffffffffffffffffffffff1673ffffffffffffffffffffffffffffffffffffffff160361352757613461600560009054906101000a900473ffffffffffffffffffffffffffffffffffffffff1683613aa5565b600460009054906101000a900473ffffffffffffffffffffffffffffffffffffffff1673ffffffffffffffffffffffffffffffffffffffff16637623f00e828760000154878960020160000160009054906101000a900473ffffffffffffffffffffffffffffffffffffffff1686896040518763ffffffff1660e01b81526004016134f0959493929190615905565b6000604051808303818588803b15801561350957600080fd5b505af115801561351d573d6000803e3d6000fd5b5050505050613704565b61357b8560020160000160009054906101000a900473ffffffffffffffffffffffffffffffffffffffff16600560009054906101000a900473ffffffffffffffffffffffffffffffffffffffff1684613ba5565b8460020160000160009054906101000a900473ffffffffffffffffffffffffffffffffffffffff1673ffffffffffffffffffffffffffffffffffffffff1663095ea7b3600460009054906101000a900473ffffffffffffffffffffffffffffffffffffffff16836040518363ffffffff1660e01b81526004016135ff92919061595f565b6020604051808303816000875af115801561361e573d6000803e3d6000fd5b505050506040513d601f19601f82011682018060405250810190613642919061599d565b50600460009054906101000a900473ffffffffffffffffffffffffffffffffffffffff1673ffffffffffffffffffffffffffffffffffffffff16637623f00e8660000154868860020160000160009054906101000a900473ffffffffffffffffffffffffffffffffffffffff1685886040518663ffffffff1660e01b81526004016136d1959493929190615905565b600060405180830381600087803b1580156136eb57600080fd5b505af11580156136ff573d6000803e3d6000fd5b505050505b50505b505050565b6000613716613fbe565b90506001816000018190555050565b6000808573ffffffffffffffffffffffffffffffffffffffff166323b872dd868686604051602401613759939291906159ca565b6040516020818303038152906040529060e01b6020820180517bffffffffffffffffffffffffffffffffffffffffffffffffffffffff83818316178352505050506040516137a79190615a72565b6000604051808303816000865af19150503d80600081146137e4576040519150601f19603f3d011682016040523d82523d6000602084013e6137e9565b606091505b50915091508180156138175750600081511480613816575080806020019051810190613815919061599d565b5b5b613856576040517f08c379a000000000000000000000000000000000000000000000000000000000815260040161384d90615afb565b60405180910390fd5b505050505050565b60007f02dd7bc7dec4dceedda775e58dd541e08a116c6c53815c0bd028192f7b626800905090565b6138978161389261399b565b613fe6565b50565b6000806138a561385e565b90506138b1848461246c565b61398f57600181600001600086815260200190815260200160002060000160008573ffffffffffffffffffffffffffffffffffffffff1673ffffffffffffffffffffffffffffffffffffffff16815260200190815260200160002060006101000a81548160ff02191690831515021790555061392b61399b565b73ffffffffffffffffffffffffffffffffffffffff168373ffffffffffffffffffffffffffffffffffffffff16857f2f8788117e7eff1d82e926ec794901d17c78024a50270940304540a733656f0d60405160405180910390a46001915050613995565b60009150505b92915050565b600033905090565b6000806139ae61385e565b90506139ba848461246c565b15613a9957600081600001600086815260200190815260200160002060000160008573ffffffffffffffffffffffffffffffffffffffff1673ffffffffffffffffffffffffffffffffffffffff16815260200190815260200160002060006101000a81548160ff021916908315150217905550613a3561399b565b73ffffffffffffffffffffffffffffffffffffffff168373ffffffffffffffffffffffffffffffffffffffff16857ff6391f5c32d9c69d2a47ea670b442974b53935d1edc7fd64eb21e047a839171b60405160405180910390a46001915050613a9f565b60009150505b92915050565b60008273ffffffffffffffffffffffffffffffffffffffff1682600067ffffffffffffffff811115613ada57613ad9614da3565b5b6040519080825280601f01601f191660200182016040528015613b0c5781602001600182028036833780820191505090505b50604051613b1a9190615a72565b60006040518083038185875af1925050503d8060008114613b57576040519150601f19603f3d011682016040523d82523d6000602084013e613b5c565b606091505b5050905080613ba0576040517f08c379a0000000000000000000000000000000000000000000000000000000008152600401613b9790615b8d565b60405180910390fd5b505050565b6000808473ffffffffffffffffffffffffffffffffffffffff1663a9059cbb8585604051602401613bd792919061595f565b6040516020818303038152906040529060e01b6020820180517bffffffffffffffffffffffffffffffffffffffffffffffffffffffff8381831617835250505050604051613c259190615a72565b6000604051808303816000865af19150503d8060008114613c62576040519150601f19603f3d011682016040523d82523d6000602084013e613c67565b606091505b5091509150818015613c955750600081511480613c94575080806020019051810190613c93919061599d565b5b5b613cd4576040517f08c379a0000000000000000000000000000000000000000000000000000000008152600401613ccb90615c1f565b60405180910390fd5b5050505050565b613ce3614037565b6000613ced613d4d565b905060008160000160006101000a81548160ff0219169083151502179055507f5db9ee0a495bf2e6ff9c91a7834c1ba4fdd244a5e8aa4e537bd38aeae4b073aa613d3561399b565b604051613d429190615c3f565b60405180910390a150565b60007fcd5ed15c6e187e77e9aee88184c21f4f2182ab5827cb3b7e07fbedcd63f03300905090565b613d7d613195565b6000613d87613d4d565b905060018160000160006101000a81548160ff0219169083151502179055507f62e78cea01bee320cd4e420270b5ea74000d11b0c9f74754ebdbfc544b05a258613dcf61399b565b604051613ddc9190615c3f565b60405180910390a150565b60007ff0c57e16840df040f15088dc2f81fe391c3923bec73e23a9662efc9c229c6a00905090565b6000613e19613de7565b905060008160000160089054906101000a900460ff1615905060008260000160009054906101000a900467ffffffffffffffff1690506000808267ffffffffffffffff16148015613e675750825b9050600060018367ffffffffffffffff16148015613e9c575060003073ffffffffffffffffffffffffffffffffffffffff163b145b905081158015613eaa575080155b15613ee1576040517ff92ee8a900000000000000000000000000000000000000000000000000000000815260040160405180910390fd5b60018560000160006101000a81548167ffffffffffffffff021916908367ffffffffffffffff1602179055508315613f315760018560000160086101000a81548160ff0219169083151502179055505b613f39614077565b613f41614081565b613f4961408b565b613f52866140bf565b60646000819055508315613fb65760008560000160086101000a81548160ff0219169083151502179055507fc7f505b2f371ae2175ee4913f4499e1f2633a7b5936321eed1cdaeb6115181d26001604051613fad919061526e565b60405180910390a15b505050505050565b60007f9b779b17422d0df92223018b32b4d1fa46e071723d6817e2486d003becc55f00905090565b613ff0828261246c565b6140335780826040517fe2517d3f00000000000000000000000000000000000000000000000000000000815260040161402a929190615c5a565b60405180910390fd5b5050565b61403f6122ad565b614075576040517f8dfc202b00000000000000000000000000000000000000000000000000000000815260040160405180910390fd5b565b61407f61427e565b565b61408961427e565b565b61409361427e565b600061409d613d4d565b905060008160000160006101000a81548160ff02191690831515021790555050565b60006140c9613de7565b905060008160000160089054906101000a900460ff1615905060008260000160009054906101000a900467ffffffffffffffff1690506000808267ffffffffffffffff161480156141175750825b9050600060018367ffffffffffffffff1614801561414c575060003073ffffffffffffffffffffffffffffffffffffffff163b145b90508115801561415a575080155b15614191576040517ff92ee8a900000000000000000000000000000000000000000000000000000000815260040160405180910390fd5b60018560000160006101000a81548167ffffffffffffffff021916908367ffffffffffffffff16021790555083156141e15760018560000160086101000a81548160ff0219169083151502179055505b6141ee6000801b8761389a565b506142197f65d7a28e3265b37a6474929f336521b332c1681b933f6cb9f3376673440d862a8761389a565b5083156142765760008560000160086101000a81548160ff0219169083151502179055507fc7f505b2f371ae2175ee4913f4499e1f2633a7b5936321eed1cdaeb6115181d2600160405161426d919061526e565b60405180910390a15b505050505050565b6142866142be565b6142bc576040517fd7e6bcf800000000000000000000000000000000000000000000000000000000815260040160405180910390fd5b565b60006142c8613de7565b60000160089054906101000a900460ff16905090565b6000604051905090565b600080fd5b600080fd5b60007fffffffff0000000000000000000000000000000000000000000000000000000082169050919050565b614327816142f2565b811461433257600080fd5b50565b6000813590506143448161431e565b92915050565b6000602082840312156143605761435f6142e8565b5b600061436e84828501614335565b91505092915050565b60008115159050919050565b61438c81614377565b82525050565b60006020820190506143a76000830184614383565b92915050565b600080fd5b6000604082840312156143c8576143c76143ad565b5b81905092915050565b6000604082840312156143e7576143e66142e8565b5b60006143f5848285016143b2565b91505092915050565b600060408284031215614414576144136143ad565b5b81905092915050565b600060408284031215614433576144326142e8565b5b6000614441848285016143fe565b91505092915050565b6000608082840312156144605761445f6143ad565b5b81905092915050565b60006080828403121561447f5761447e6142e8565b5b600061448d8482850161444a565b91505092915050565b600073ffffffffffffffffffffffffffffffffffffffff82169050919050565b60006144c182614496565b9050919050565b6144d1816144b6565b81146144dc57600080fd5b50565b6000813590506144ee816144c8565b92915050565b60006020828403121561450a576145096142e8565b5b6000614518848285016144df565b91505092915050565b6000819050919050565b61453481614521565b811461453f57600080fd5b50565b6000813590506145518161452b565b92915050565b60006020828403121561456d5761456c6142e8565b5b600061457b84828501614542565b91505092915050565b61458d81614521565b82525050565b60006020820190506145a86000830184614584565b92915050565b600061014082840312156145c5576145c46143ad565b5b81905092915050565b600080fd5b600080fd5b600080fd5b60008083601f8401126145f3576145f26145ce565b5b8235905067ffffffffffffffff8111156146105761460f6145d3565b5b60208301915083604082028301111561462c5761462b6145d8565b5b9250929050565b6000806000610160848603121561464d5761464c6142e8565b5b600061465b868287016145ae565b93505061014084013567ffffffffffffffff81111561467d5761467c6142ed565b5b614689868287016145dd565b92509250509250925092565b600080604083850312156146ac576146ab6142e8565b5b60006146ba85828601614542565b92505060206146cb858286016144df565b9150509250929050565b6000602082840312156146eb576146ea6143ad565b5b81905092915050565b60006020828403121561470a576147096142e8565b5b6000614718848285016146d5565b91505092915050565b6000819050919050565b61473481614721565b82525050565b600060208201905061474f600083018461472b565b92915050565b60006060828403121561476b5761476a6143ad565b5b81905092915050565b60006060828403121561478a576147896142e8565b5b600061479884828501614755565b91505092915050565b7f4e487b7100000000000000000000000000000000000000000000000000000000600052602160045260246000fd5b600381106147e1576147e06147a1565b5b50565b60008190506147f2826147d0565b919050565b6000614802826147e4565b9050919050565b614812816147f7565b82525050565b614821816144b6565b82525050565b600060c08201905061483c600083018961472b565b6148496020830188614584565b6148566040830187614809565b6148636060830186614818565b614870608083018561472b565b61487d60a083018461472b565b979650505050505050565b61489181614721565b811461489c57600080fd5b50565b6000813590506148ae81614888565b92915050565b600080604083850312156148cb576148ca6142e8565b5b60006148d985828601614542565b92505060206148ea8582860161489f565b9150509250929050565b6000604082019050614909600083018561472b565b614916602083018461472b565b9392505050565b600080600080600060a08688031215614939576149386142e8565b5b6000614947888289016144df565b9550506020614958888289016144df565b9450506040614969888289016144df565b935050606061497a8882890161489f565b925050608061498b8882890161489f565b9150509295509295909350565b600061014082840312156149af576149ae6142e8565b5b60006149bd848285016145ae565b91505092915050565b6000602082840312156149dc576149db6142e8565b5b60006149ea8482850161489f565b91505092915050565b60048110614a0457614a036147a1565b5b50565b6000819050614a15826149f3565b919050565b6000614a2582614a07565b9050919050565b614a3581614a1a565b82525050565b614a44816144b6565b82525050565b614a5381614721565b82525050565b604082016000820151614a6f6000850182614a3b565b506020820151614a826020850182614a4a565b50505050565b60006101c082019050614a9e600083018f614584565b614aab602083018e614a2c565b614ab8604083018d614818565b614ac5606083018c614a59565b614ad260a083018b614818565b614adf60c083018a614a59565b614aed61010083018961472b565b614afb61012083018861472b565b614b0961014083018761472b565b614b1761016083018661472b565b614b2561018083018561472b565b614b336101a0830184614383565b9d9c50505050505050505050505050565b6000604082019050614b596000830185614818565b614b666020830184614818565b9392505050565b6000602082019050614b826000830184614809565b92915050565b614b91816144b6565b82525050565b614ba081614721565b82525050565b600060c082019050614bbb6000830189614b88565b614bc86020830188614b88565b614bd56040830187614b97565b614be26060830186614b97565b614bef6080830185614b97565b614bfc60a0830184614b88565b979650505050505050565b8082525050565b6000614c1d6020840184614542565b905092915050565b614c2e81614521565b82525050565b6000614c4360208401846144df565b905092915050565b614c54816144b6565b82525050565b60408201614c6b6000830183614c0e565b614c786000850182614c25565b50614c866020830183614c34565b614c936020850182614c4b565b50505050565b6000606082019050614cae6000830185614c07565b614cbb6020830184614c5a565b9392505050565b8082525050565b6000614cd8602084018461489f565b905092915050565b614ce981614721565b82525050565b60808201614d006000830183614cc9565b614d0d6000850182614ce0565b50614d1b6020830183614c34565b614d286020850182614c4b565b50614d366040830183614c0e565b614d436040850182614c25565b50614d516060830183614cc9565b614d5e6060850182614ce0565b50505050565b600060a082019050614d796000830185614cc2565b614d866020830184614cef565b9392505050565b600080fd5b6000601f19601f8301169050919050565b7f4e487b7100000000000000000000000000000000000000000000000000000000600052604160045260246000fd5b614ddb82614d92565b810181811067ffffffffffffffff82111715614dfa57614df9614da3565b5b80604052505050565b6000614e0d6142de565b9050614e198282614dd2565b919050565b600060408284031215614e3457614e33614d8d565b5b614e3e6040614e03565b90506000614e4e8482850161489f565b6000830152506020614e628482850161489f565b60208301525092915050565b600060408284031215614e8457614e836142e8565b5b6000614e9284828501614e1e565b91505092915050565b600081519050919050565b600082825260208201905092915050565b6000819050602082019050919050565b604082016000820151614edd6000850182614ce0565b506020820151614ef06020850182614ce0565b50505050565b6000614f028383614ec7565b60408301905092915050565b6000602082019050919050565b6000614f2682614e9b565b614f308185614ea6565b9350614f3b83614eb7565b8060005b83811015614f6c578151614f538882614ef6565b9750614f5e83614f0e565b925050600181019050614f3f565b5085935050505092915050565b60006020820190508181036000830152614f938184614f1b565b905092915050565b7f4e487b7100000000000000000000000000000000000000000000000000000000600052603260045260246000fd5b60008135614fd781614888565b80915050919050565b60008160001b9050919050565b60007fffffffffffffffffffffffffffffffffffffffffffffffffffffffffffffffff61501984614fe0565b9350801983169250808416831791505092915050565b6000819050919050565b600061505461504f61504a84614721565b61502f565b614721565b9050919050565b6000819050919050565b61506e82615039565b61508161507a8261505b565b8354614fed565b8255505050565b60008101600083018061509a81614fca565b90506150a68184615065565b5050506001810160208301806150bb81614fca565b90506150c78184615065565b5050505050565b6150d88282615088565b5050565b7f4e487b7100000000000000000000000000000000000000000000000000000000600052601160045260246000fd5b600061511682614721565b91507fffffffffffffffffffffffffffffffffffffffffffffffffffffffffffffffff8203615148576151476150dc565b5b600182019050919050565b60006020820190506151686000830184614c07565b92915050565b600061517982614721565b915061518483614721565b925082820190508082111561519c5761519b6150dc565b5b92915050565b600082825260208201905092915050565b7f4f776e61626c655061757361626c653a206163636573732064656e6965640000600082015250565b60006151e9601e836151a2565b91506151f4826151b3565b602082019050919050565b60006020820190508181036000830152615218816151dc565b9050919050565b6000819050919050565b600067ffffffffffffffff82169050919050565b600061525861525361524e8461521f565b61502f565b615229565b9050919050565b6152688161523d565b82525050565b6000602082019050615283600083018461525f565b92915050565b60006040828403121561529f5761529e614d8d565b5b6152a96040614e03565b905060006152b9848285016144df565b60008301525060206152cd8482850161489f565b60208301525092915050565b6152e281614377565b81146152ed57600080fd5b50565b6000813590506152ff816152d9565b92915050565b6000610140828403121561531c5761531b614d8d565b5b615327610100614e03565b9050600061533784828501614542565b600083015250602061534b84828501615289565b602083015250606061535f84828501615289565b60408301525060a0615373848285016144df565b60608301525060c0615387848285016144df565b60808301525060e061539b8482850161489f565b60a0830152506101006153b08482850161489f565b60c0830152506101206153c5848285016152f0565b60e08301525092915050565b600061014082840312156153e8576153e76142e8565b5b60006153f684828501615305565b91505092915050565b6040820160008201516154156000850182614c4b565b5060208201516154286020850182614ce0565b50505050565b61543781614377565b82525050565b610140820160008201516154546000850182614c25565b50602082015161546760208501826153ff565b50604082015161547a60608501826153ff565b50606082015161548d60a0850182614c4b565b5060808201516154a060c0850182614c4b565b5060a08201516154b360e0850182614ce0565b5060c08201516154c7610100850182614ce0565b5060e08201516154db61012085018261542e565b50505050565b6000610140820190506154f7600083018461543d565b92915050565b61550681614521565b82525050565b600060408201905061552160008301856154fd565b61552e6020830184614b88565b9392505050565b6000815190506155448161452b565b92915050565b6000602082840312156155605761555f6142e8565b5b600061556e84828501615535565b91505092915050565b8082525050565b600082905092915050565b6040820161559a6000830183614c34565b6155a76000850182614c4b565b506155b56020830183614cc9565b6155c26020850182614ce0565b50505050565b60006155d760208401846152f0565b905092915050565b61014082016155f16000830183614c0e565b6155fe6000850182614c25565b5061560c602083018361557e565b6156196020850182615589565b50615627606083018361557e565b6156346060850182615589565b5061564260a0830183614c34565b61564f60a0850182614c4b565b5061565d60c0830183614c34565b61566a60c0850182614c4b565b5061567860e0830183614cc9565b61568560e0850182614ce0565b50615694610100830183614cc9565b6156a2610100850182614ce0565b506156b16101208301836155c8565b6156bf61012085018261542e565b50505050565b60006101a0820190506156db6000830187615577565b6156e860208301866155df565b6156f66101608301856154fd565b615704610180830184614b88565b95945050505050565b7f4d6f726967696e4170703a20696e76616c69642076616c756521000000000000600082015250565b6000615743601a836151a2565b915061574e8261570d565b602082019050919050565b6000602082019050818103600083015261577281615736565b9050919050565b600061578482614721565b915061578f83614721565b925082820261579d81614721565b915082820484148315176157b4576157b36150dc565b5b5092915050565b7f4e487b7100000000000000000000000000000000000000000000000000000000600052601260045260246000fd5b60006157f582614721565b915061580083614721565b9250826158105761580f6157bb565b5b828204905092915050565b600061582682614721565b915061583183614721565b9250828203905081811115615849576158486150dc565b5b92915050565b600082825260208201905092915050565b6040820160008201516158766000850182614a4a565b5060208201516158896020850182614a4a565b50505050565b600061589b8383615860565b60408301905092915050565b60006158b282614e9b565b6158bc818561584f565b93506158c783614eb7565b8060005b838110156158f85781516158df888261588f565b97506158ea83614f0e565b9250506001810190506158cb565b5085935050505092915050565b600060a08201905061591a6000830188614584565b6159276020830187614818565b6159346040830186614818565b615941606083018561472b565b818103608083015261595381846158a7565b90509695505050505050565b60006040820190506159746000830185614818565b615981602083018461472b565b9392505050565b600081519050615997816152d9565b92915050565b6000602082840312156159b3576159b26142e8565b5b60006159c184828501615988565b91505092915050565b60006060820190506159df6000830186614818565b6159ec6020830185614818565b6159f9604083018461472b565b949350505050565b600081519050919050565b600081905092915050565b60005b83811015615a35578082015181840152602081019050615a1a565b60008484015250505050565b6000615a4c82615a01565b615a568185615a0c565b9350615a66818560208601615a17565b80840191505092915050565b6000615a7e8284615a41565b915081905092915050565b7f5472616e7366657248656c7065723a3a7472616e7366657246726f6d3a20747260008201527f616e7366657246726f6d206661696c6564000000000000000000000000000000602082015250565b6000615ae56031836151a2565b9150615af082615a89565b604082019050919050565b60006020820190508181036000830152615b1481615ad8565b9050919050565b7f5472616e7366657248656c7065723a3a736166655472616e736665724554483a60008201527f20455448207472616e73666572206661696c6564000000000000000000000000602082015250565b6000615b776034836151a2565b9150615b8282615b1b565b604082019050919050565b60006020820190508181036000830152615ba681615b6a565b9050919050565b7f5472616e7366657248656c7065723a3a736166655472616e736665723a20747260008201527f616e73666572206661696c656400000000000000000000000000000000000000602082015250565b6000615c09602d836151a2565b9150615c1482615bad565b604082019050919050565b60006020820190508181036000830152615c3881615bfc565b9050919050565b6000602082019050615c546000830184614818565b92915050565b6000604082019050615c6f6000830185614818565b615c7c6020830184614584565b939250505056fea2646970667358221220ca4c6633ccd77c8a06c5690690dfc2d22691d89eef6337821cd5d08b483ca30264736f6c63430008140033","opcodes":"PUSH1 0x80 PUSH1 0x40 MSTORE CALLVALUE DUP1 ISZERO PUSH2 0x10 JUMPI PUSH1 0x0 DUP1 REVERT JUMPDEST POP PUSH2 0x5CB9 DUP1 PUSH3 0x21 PUSH1 0x0 CODECOPY PUSH1 0x0 RETURN INVALID PUSH1 0x80 PUSH1 0x40 MSTORE PUSH1 0x4 CALLDATASIZE LT PUSH2 0x1F9 JUMPI PUSH1 0x0 CALLDATALOAD PUSH1 0xE0 SHR DUP1 PUSH4 0x66E929BF GT PUSH2 0x10D JUMPI DUP1 PUSH4 0xA217FDDF GT PUSH2 0xA0 JUMPI DUP1 PUSH4 0xD547741F GT PUSH2 0x6F JUMPI DUP1 PUSH4 0xD547741F EQ PUSH2 0x6E8 JUMPI DUP1 PUSH4 0xDF7CEC28 EQ PUSH2 0x711 JUMPI DUP1 PUSH4 0xE63AB1E9 EQ PUSH2 0x72D JUMPI DUP1 PUSH4 0xF2407CA4 EQ PUSH2 0x758 JUMPI DUP1 PUSH4 0xFCA6CAA1 EQ PUSH2 0x781 JUMPI PUSH2 0x1F9 JUMP JUMPDEST DUP1 PUSH4 0xA217FDDF EQ PUSH2 0x627 JUMPI DUP1 PUSH4 0xA6B63EB8 EQ PUSH2 0x652 JUMPI DUP1 PUSH4 0xA743A3D0 EQ PUSH2 0x67B JUMPI DUP1 PUSH4 0xD2A25283 EQ PUSH2 0x6B8 JUMPI PUSH2 0x1F9 JUMP JUMPDEST DUP1 PUSH4 0x8456CB59 GT PUSH2 0xDC JUMPI DUP1 PUSH4 0x8456CB59 EQ PUSH2 0x56A JUMPI DUP1 PUSH4 0x89F68190 EQ PUSH2 0x581 JUMPI DUP1 PUSH4 0x8D6CB1C4 EQ PUSH2 0x5AC JUMPI DUP1 PUSH4 0x91D14854 EQ PUSH2 0x5EA JUMPI PUSH2 0x1F9 JUMP JUMPDEST DUP1 PUSH4 0x66E929BF EQ PUSH2 0x4AD JUMPI DUP1 PUSH4 0x6B2C0F55 EQ PUSH2 0x4EF JUMPI DUP1 PUSH4 0x70480275 EQ PUSH2 0x518 JUMPI DUP1 PUSH4 0x82DC1EC4 EQ PUSH2 0x541 JUMPI PUSH2 0x1F9 JUMP JUMPDEST DUP1 PUSH4 0x2F2FF15D GT PUSH2 0x190 JUMPI DUP1 PUSH4 0x3D9BD2FC GT PUSH2 0x15F JUMPI DUP1 PUSH4 0x3D9BD2FC EQ PUSH2 0x3E7 JUMPI DUP1 PUSH4 0x3F4BA83A EQ PUSH2 0x403 JUMPI DUP1 PUSH4 0x46FBF68E EQ PUSH2 0x41A JUMPI DUP1 PUSH4 0x53F10C80 EQ PUSH2 0x457 JUMPI DUP1 PUSH4 0x5C975ABB EQ PUSH2 0x482 JUMPI PUSH2 0x1F9 JUMP JUMPDEST DUP1 PUSH4 0x2F2FF15D EQ PUSH2 0x34E JUMPI DUP1 PUSH4 0x36568ABE EQ PUSH2 0x377 JUMPI DUP1 PUSH4 0x37BE0022 EQ PUSH2 0x3A0 JUMPI DUP1 PUSH4 0x3D538ECF EQ PUSH2 0x3BC JUMPI PUSH2 0x1F9 JUMP JUMPDEST DUP1 PUSH4 0x1785F53C GT PUSH2 0x1CC JUMPI DUP1 PUSH4 0x1785F53C EQ PUSH2 0x28F JUMPI DUP1 PUSH4 0x248A9CA3 EQ PUSH2 0x2B8 JUMPI DUP1 PUSH4 0x24D7806C EQ PUSH2 0x2F5 JUMPI DUP1 PUSH4 0x2B2B6511 EQ PUSH2 0x332 JUMPI PUSH2 0x1F9 JUMP JUMPDEST DUP1 PUSH4 0x1FFC9A7 EQ PUSH2 0x1FE JUMPI DUP1 PUSH4 0x2206661 EQ PUSH2 0x23B JUMPI DUP1 PUSH4 0x6BE619C EQ PUSH2 0x257 JUMPI DUP1 PUSH4 0x16B50A82 EQ PUSH2 0x273 JUMPI JUMPDEST PUSH1 0x0 DUP1 REVERT JUMPDEST CALLVALUE DUP1 ISZERO PUSH2 0x20A JUMPI PUSH1 0x0 DUP1 REVERT JUMPDEST POP PUSH2 0x225 PUSH1 0x4 DUP1 CALLDATASIZE SUB DUP2 ADD SWAP1 PUSH2 0x220 SWAP2 SWAP1 PUSH2 0x434A JUMP JUMPDEST PUSH2 0x7C9 JUMP JUMPDEST PUSH1 0x40 MLOAD PUSH2 0x232 SWAP2 SWAP1 PUSH2 0x4392 JUMP JUMPDEST PUSH1 0x40 MLOAD DUP1 SWAP2 SUB SWAP1 RETURN JUMPDEST PUSH2 0x255 PUSH1 0x4 DUP1 CALLDATASIZE SUB DUP2 ADD SWAP1 PUSH2 0x250 SWAP2 SWAP1 PUSH2 0x43D1 JUMP JUMPDEST PUSH2 0x843 JUMP JUMPDEST STOP JUMPDEST PUSH2 0x271 PUSH1 0x4 DUP1 CALLDATASIZE SUB DUP2 ADD SWAP1 PUSH2 0x26C SWAP2 SWAP1 PUSH2 0x441D JUMP JUMPDEST PUSH2 0xE78 JUMP JUMPDEST STOP JUMPDEST PUSH2 0x28D PUSH1 0x4 DUP1 CALLDATASIZE SUB DUP2 ADD SWAP1 PUSH2 0x288 SWAP2 SWAP1 PUSH2 0x4469 JUMP JUMPDEST PUSH2 0x1280 JUMP JUMPDEST STOP JUMPDEST CALLVALUE DUP1 ISZERO PUSH2 0x29B JUMPI PUSH1 0x0 DUP1 REVERT JUMPDEST POP PUSH2 0x2B6 PUSH1 0x4 DUP1 CALLDATASIZE SUB DUP2 ADD SWAP1 PUSH2 0x2B1 SWAP2 SWAP1 PUSH2 0x44F4 JUMP JUMPDEST PUSH2 0x17D9 JUMP JUMPDEST STOP JUMPDEST CALLVALUE DUP1 ISZERO PUSH2 0x2C4 JUMPI PUSH1 0x0 DUP1 REVERT JUMPDEST POP PUSH2 0x2DF PUSH1 0x4 DUP1 CALLDATASIZE SUB DUP2 ADD SWAP1 PUSH2 0x2DA SWAP2 SWAP1 PUSH2 0x4557 JUMP JUMPDEST PUSH2 0x17E9 JUMP JUMPDEST PUSH1 0x40 MLOAD PUSH2 0x2EC SWAP2 SWAP1 PUSH2 0x4593 JUMP JUMPDEST PUSH1 0x40 MLOAD DUP1 SWAP2 SUB SWAP1 RETURN JUMPDEST CALLVALUE DUP1 ISZERO PUSH2 0x301 JUMPI PUSH1 0x0 DUP1 REVERT JUMPDEST POP PUSH2 0x31C PUSH1 0x4 DUP1 CALLDATASIZE SUB DUP2 ADD SWAP1 PUSH2 0x317 SWAP2 SWAP1 PUSH2 0x44F4 JUMP JUMPDEST PUSH2 0x1817 JUMP JUMPDEST PUSH1 0x40 MLOAD PUSH2 0x329 SWAP2 SWAP1 PUSH2 0x4392 JUMP JUMPDEST PUSH1 0x40 MLOAD DUP1 SWAP2 SUB SWAP1 RETURN JUMPDEST PUSH2 0x34C PUSH1 0x4 DUP1 CALLDATASIZE SUB DUP2 ADD SWAP1 PUSH2 0x347 SWAP2 SWAP1 PUSH2 0x4633 JUMP JUMPDEST PUSH2 0x182D JUMP JUMPDEST STOP JUMPDEST CALLVALUE DUP1 ISZERO PUSH2 0x35A JUMPI PUSH1 0x0 DUP1 REVERT JUMPDEST POP PUSH2 0x375 PUSH1 0x4 DUP1 CALLDATASIZE SUB DUP2 ADD SWAP1 PUSH2 0x370 SWAP2 SWAP1 PUSH2 0x4695 JUMP JUMPDEST PUSH2 0x1984 JUMP JUMPDEST STOP JUMPDEST CALLVALUE DUP1 ISZERO PUSH2 0x383 JUMPI PUSH1 0x0 DUP1 REVERT JUMPDEST POP PUSH2 0x39E PUSH1 0x4 DUP1 CALLDATASIZE SUB DUP2 ADD SWAP1 PUSH2 0x399 SWAP2 SWAP1 PUSH2 0x4695 JUMP JUMPDEST PUSH2 0x19A6 JUMP JUMPDEST STOP JUMPDEST PUSH2 0x3BA PUSH1 0x4 DUP1 CALLDATASIZE SUB DUP2 ADD SWAP1 PUSH2 0x3B5 SWAP2 SWAP1 PUSH2 0x46F4 JUMP JUMPDEST PUSH2 0x1A21 JUMP JUMPDEST STOP JUMPDEST CALLVALUE DUP1 ISZERO PUSH2 0x3C8 JUMPI PUSH1 0x0 DUP1 REVERT JUMPDEST POP PUSH2 0x3D1 PUSH2 0x1CF3 JUMP JUMPDEST PUSH1 0x40 MLOAD PUSH2 0x3DE SWAP2 SWAP1 PUSH2 0x473A JUMP JUMPDEST PUSH1 0x40 MLOAD DUP1 SWAP2 SUB SWAP1 RETURN JUMPDEST PUSH2 0x401 PUSH1 0x4 DUP1 CALLDATASIZE SUB DUP2 ADD SWAP1 PUSH2 0x3FC SWAP2 SWAP1 PUSH2 0x4774 JUMP JUMPDEST PUSH2 0x1CF9 JUMP JUMPDEST STOP JUMPDEST CALLVALUE DUP1 ISZERO PUSH2 0x40F JUMPI PUSH1 0x0 DUP1 REVERT JUMPDEST POP PUSH2 0x418 PUSH2 0x2201 JUMP JUMPDEST STOP JUMPDEST CALLVALUE DUP1 ISZERO PUSH2 0x426 JUMPI PUSH1 0x0 DUP1 REVERT JUMPDEST POP PUSH2 0x441 PUSH1 0x4 DUP1 CALLDATASIZE SUB DUP2 ADD SWAP1 PUSH2 0x43C SWAP2 SWAP1 PUSH2 0x44F4 JUMP JUMPDEST PUSH2 0x2274 JUMP JUMPDEST PUSH1 0x40 MLOAD PUSH2 0x44E SWAP2 SWAP1 PUSH2 0x4392 JUMP JUMPDEST PUSH1 0x40 MLOAD DUP1 SWAP2 SUB SWAP1 RETURN JUMPDEST CALLVALUE DUP1 ISZERO PUSH2 0x463 JUMPI PUSH1 0x0 DUP1 REVERT JUMPDEST POP PUSH2 0x46C PUSH2 0x22A7 JUMP JUMPDEST PUSH1 0x40 MLOAD PUSH2 0x479 SWAP2 SWAP1 PUSH2 0x473A JUMP JUMPDEST PUSH1 0x40 MLOAD DUP1 SWAP2 SUB SWAP1 RETURN JUMPDEST CALLVALUE DUP1 ISZERO PUSH2 0x48E JUMPI PUSH1 0x0 DUP1 REVERT JUMPDEST POP PUSH2 0x497 PUSH2 0x22AD JUMP JUMPDEST PUSH1 0x40 MLOAD PUSH2 0x4A4 SWAP2 SWAP1 PUSH2 0x4392 JUMP JUMPDEST PUSH1 0x40 MLOAD DUP1 SWAP2 SUB SWAP1 RETURN JUMPDEST CALLVALUE DUP1 ISZERO PUSH2 0x4B9 JUMPI PUSH1 0x0 DUP1 REVERT JUMPDEST POP PUSH2 0x4D4 PUSH1 0x4 DUP1 CALLDATASIZE SUB DUP2 ADD SWAP1 PUSH2 0x4CF SWAP2 SWAP1 PUSH2 0x4695 JUMP JUMPDEST PUSH2 0x22D2 JUMP JUMPDEST PUSH1 0x40 MLOAD PUSH2 0x4E6 SWAP7 SWAP6 SWAP5 SWAP4 SWAP3 SWAP2 SWAP1 PUSH2 0x4827 JUMP JUMPDEST PUSH1 0x40 MLOAD DUP1 SWAP2 SUB SWAP1 RETURN JUMPDEST CALLVALUE DUP1 ISZERO PUSH2 0x4FB JUMPI PUSH1 0x0 DUP1 REVERT JUMPDEST POP PUSH2 0x516 PUSH1 0x4 DUP1 CALLDATASIZE SUB DUP2 ADD SWAP1 PUSH2 0x511 SWAP2 SWAP1 PUSH2 0x44F4 JUMP JUMPDEST PUSH2 0x2348 JUMP JUMPDEST STOP JUMPDEST CALLVALUE DUP1 ISZERO PUSH2 0x524 JUMPI PUSH1 0x0 DUP1 REVERT JUMPDEST POP PUSH2 0x53F PUSH1 0x4 DUP1 CALLDATASIZE SUB DUP2 ADD SWAP1 PUSH2 0x53A SWAP2 SWAP1 PUSH2 0x44F4 JUMP JUMPDEST PUSH2 0x2375 JUMP JUMPDEST STOP JUMPDEST CALLVALUE DUP1 ISZERO PUSH2 0x54D JUMPI PUSH1 0x0 DUP1 REVERT JUMPDEST POP PUSH2 0x568 PUSH1 0x4 DUP1 CALLDATASIZE SUB DUP2 ADD SWAP1 PUSH2 0x563 SWAP2 SWAP1 PUSH2 0x44F4 JUMP JUMPDEST PUSH2 0x2385 JUMP JUMPDEST STOP JUMPDEST CALLVALUE DUP1 ISZERO PUSH2 0x576 JUMPI PUSH1 0x0 DUP1 REVERT JUMPDEST POP PUSH2 0x57F PUSH2 0x23B2 JUMP JUMPDEST STOP JUMPDEST CALLVALUE DUP1 ISZERO PUSH2 0x58D JUMPI PUSH1 0x0 DUP1 REVERT JUMPDEST POP PUSH2 0x596 PUSH2 0x2425 JUMP JUMPDEST PUSH1 0x40 MLOAD PUSH2 0x5A3 SWAP2 SWAP1 PUSH2 0x473A JUMP JUMPDEST PUSH1 0x40 MLOAD DUP1 SWAP2 SUB SWAP1 RETURN JUMPDEST CALLVALUE DUP1 ISZERO PUSH2 0x5B8 JUMPI PUSH1 0x0 DUP1 REVERT JUMPDEST POP PUSH2 0x5D3 PUSH1 0x4 DUP1 CALLDATASIZE SUB DUP2 ADD SWAP1 PUSH2 0x5CE SWAP2 SWAP1 PUSH2 0x48B4 JUMP JUMPDEST PUSH2 0x242B JUMP JUMPDEST PUSH1 0x40 MLOAD PUSH2 0x5E1 SWAP3 SWAP2 SWAP1 PUSH2 0x48F4 JUMP JUMPDEST PUSH1 0x40 MLOAD DUP1 SWAP2 SUB SWAP1 RETURN JUMPDEST CALLVALUE DUP1 ISZERO PUSH2 0x5F6 JUMPI PUSH1 0x0 DUP1 REVERT JUMPDEST POP PUSH2 0x611 PUSH1 0x4 DUP1 CALLDATASIZE SUB DUP2 ADD SWAP1 PUSH2 0x60C SWAP2 SWAP1 PUSH2 0x4695 JUMP JUMPDEST PUSH2 0x246C JUMP JUMPDEST PUSH1 0x40 MLOAD PUSH2 0x61E SWAP2 SWAP1 PUSH2 0x4392 JUMP JUMPDEST PUSH1 0x40 MLOAD DUP1 SWAP2 SUB SWAP1 RETURN JUMPDEST CALLVALUE DUP1 ISZERO PUSH2 0x633 JUMPI PUSH1 0x0 DUP1 REVERT JUMPDEST POP PUSH2 0x63C PUSH2 0x24E5 JUMP JUMPDEST PUSH1 0x40 MLOAD PUSH2 0x649 SWAP2 SWAP1 PUSH2 0x4593 JUMP JUMPDEST PUSH1 0x40 MLOAD DUP1 SWAP2 SUB SWAP1 RETURN JUMPDEST CALLVALUE DUP1 ISZERO PUSH2 0x65E JUMPI PUSH1 0x0 DUP1 REVERT JUMPDEST POP PUSH2 0x679 PUSH1 0x4 DUP1 CALLDATASIZE SUB DUP2 ADD SWAP1 PUSH2 0x674 SWAP2 SWAP1 PUSH2 0x491D JUMP JUMPDEST PUSH2 0x24EC JUMP JUMPDEST STOP JUMPDEST CALLVALUE DUP1 ISZERO PUSH2 0x687 JUMPI PUSH1 0x0 DUP1 REVERT JUMPDEST POP PUSH2 0x6A2 PUSH1 0x4 DUP1 CALLDATASIZE SUB DUP2 ADD SWAP1 PUSH2 0x69D SWAP2 SWAP1 PUSH2 0x4695 JUMP JUMPDEST PUSH2 0x27ED JUMP JUMPDEST PUSH1 0x40 MLOAD PUSH2 0x6AF SWAP2 SWAP1 PUSH2 0x473A JUMP JUMPDEST PUSH1 0x40 MLOAD DUP1 SWAP2 SUB SWAP1 RETURN JUMPDEST PUSH2 0x6D2 PUSH1 0x4 DUP1 CALLDATASIZE SUB DUP2 ADD SWAP1 PUSH2 0x6CD SWAP2 SWAP1 PUSH2 0x4998 JUMP JUMPDEST PUSH2 0x2812 JUMP JUMPDEST PUSH1 0x40 MLOAD PUSH2 0x6DF SWAP2 SWAP1 PUSH2 0x4593 JUMP JUMPDEST PUSH1 0x40 MLOAD DUP1 SWAP2 SUB SWAP1 RETURN JUMPDEST CALLVALUE DUP1 ISZERO PUSH2 0x6F4 JUMPI PUSH1 0x0 DUP1 REVERT JUMPDEST POP PUSH2 0x70F PUSH1 0x4 DUP1 CALLDATASIZE SUB DUP2 ADD SWAP1 PUSH2 0x70A SWAP2 SWAP1 PUSH2 0x4695 JUMP JUMPDEST PUSH2 0x2B2A JUMP JUMPDEST STOP JUMPDEST PUSH2 0x72B PUSH1 0x4 DUP1 CALLDATASIZE SUB DUP2 ADD SWAP1 PUSH2 0x726 SWAP2 SWAP1 PUSH2 0x4557 JUMP JUMPDEST PUSH2 0x2B4C JUMP JUMPDEST STOP JUMPDEST CALLVALUE DUP1 ISZERO PUSH2 0x739 JUMPI PUSH1 0x0 DUP1 REVERT JUMPDEST POP PUSH2 0x742 PUSH2 0x2EE0 JUMP JUMPDEST PUSH1 0x40 MLOAD PUSH2 0x74F SWAP2 SWAP1 PUSH2 0x4593 JUMP JUMPDEST PUSH1 0x40 MLOAD DUP1 SWAP2 SUB SWAP1 RETURN JUMPDEST CALLVALUE DUP1 ISZERO PUSH2 0x764 JUMPI PUSH1 0x0 DUP1 REVERT JUMPDEST POP PUSH2 0x77F PUSH1 0x4 DUP1 CALLDATASIZE SUB DUP2 ADD SWAP1 PUSH2 0x77A SWAP2 SWAP1 PUSH2 0x49C6 JUMP JUMPDEST PUSH2 0x2F04 JUMP JUMPDEST STOP JUMPDEST CALLVALUE DUP1 ISZERO PUSH2 0x78D JUMPI PUSH1 0x0 DUP1 REVERT JUMPDEST POP PUSH2 0x7A8 PUSH1 0x4 DUP1 CALLDATASIZE SUB DUP2 ADD SWAP1 PUSH2 0x7A3 SWAP2 SWAP1 PUSH2 0x4557 JUMP JUMPDEST PUSH2 0x2F9D JUMP JUMPDEST PUSH1 0x40 MLOAD PUSH2 0x7C0 SWAP13 SWAP12 SWAP11 SWAP10 SWAP9 SWAP8 SWAP7 SWAP6 SWAP5 SWAP4 SWAP3 SWAP2 SWAP1 PUSH2 0x4A88 JUMP JUMPDEST PUSH1 0x40 MLOAD DUP1 SWAP2 SUB SWAP1 RETURN JUMPDEST PUSH1 0x0 PUSH32 0x7965DB0B00000000000000000000000000000000000000000000000000000000 PUSH28 0xFFFFFFFFFFFFFFFFFFFFFFFFFFFFFFFFFFFFFFFFFFFFFFFFFFFFFFFF NOT AND DUP3 PUSH28 0xFFFFFFFFFFFFFFFFFFFFFFFFFFFFFFFFFFFFFFFFFFFFFFFFFFFFFFFF NOT AND EQ DUP1 PUSH2 0x83C JUMPI POP PUSH2 0x83B DUP3 PUSH2 0x312B JUMP JUMPDEST JUMPDEST SWAP1 POP SWAP2 SWAP1 POP JUMP JUMPDEST PUSH2 0x84B PUSH2 0x3195 JUMP JUMPDEST PUSH2 0x853 PUSH2 0x31D6 JUMP JUMPDEST DUP1 PUSH1 0x0 ADD CALLDATALOAD PUSH1 0x0 PUSH20 0xFFFFFFFFFFFFFFFFFFFFFFFFFFFFFFFFFFFFFFFF AND PUSH1 0x1 PUSH1 0x0 DUP4 DUP2 MSTORE PUSH1 0x20 ADD SWAP1 DUP2 MSTORE PUSH1 0x20 ADD PUSH1 0x0 KECCAK256 PUSH1 0x1 ADD PUSH1 0x1 SWAP1 SLOAD SWAP1 PUSH2 0x100 EXP SWAP1 DIV PUSH20 0xFFFFFFFFFFFFFFFFFFFFFFFFFFFFFFFFFFFFFFFF AND PUSH20 0xFFFFFFFFFFFFFFFFFFFFFFFFFFFFFFFFFFFFFFFF AND SUB PUSH2 0x8F4 JUMPI PUSH1 0x40 MLOAD PUSH32 0x5DCAF2D700000000000000000000000000000000000000000000000000000000 DUP2 MSTORE PUSH1 0x4 ADD PUSH1 0x40 MLOAD DUP1 SWAP2 SUB SWAP1 REVERT JUMPDEST DUP2 PUSH1 0x0 ADD CALLDATALOAD PUSH1 0x0 PUSH1 0x3 DUP2 GT ISZERO PUSH2 0x90D JUMPI PUSH2 0x90C PUSH2 0x47A1 JUMP JUMPDEST JUMPDEST PUSH1 0x1 PUSH1 0x0 DUP4 DUP2 MSTORE PUSH1 0x20 ADD SWAP1 DUP2 MSTORE PUSH1 0x20 ADD PUSH1 0x0 KECCAK256 PUSH1 0x1 ADD PUSH1 0x0 SWAP1 SLOAD SWAP1 PUSH2 0x100 EXP SWAP1 DIV PUSH1 0xFF AND PUSH1 0x3 DUP2 GT ISZERO PUSH2 0x943 JUMPI PUSH2 0x942 PUSH2 0x47A1 JUMP JUMPDEST JUMPDEST EQ PUSH2 0x97A JUMPI PUSH1 0x40 MLOAD PUSH32 0xD4DBB56500000000000000000000000000000000000000000000000000000000 DUP2 MSTORE PUSH1 0x4 ADD PUSH1 0x40 MLOAD DUP1 SWAP2 SUB SWAP1 REVERT JUMPDEST PUSH1 0x0 DUP4 PUSH1 0x0 ADD CALLDATALOAD SWAP1 POP PUSH1 0x0 DUP5 PUSH1 0x20 ADD PUSH1 0x20 DUP2 ADD SWAP1 PUSH2 0x998 SWAP2 SWAP1 PUSH2 0x44F4 JUMP JUMPDEST SWAP1 POP PUSH1 0x0 PUSH20 0xFFFFFFFFFFFFFFFFFFFFFFFFFFFFFFFFFFFFFFFF AND CALLER PUSH20 0xFFFFFFFFFFFFFFFFFFFFFFFFFFFFFFFFFFFFFFFF AND SUB PUSH2 0xA00 JUMPI PUSH1 0x40 MLOAD PUSH32 0x809490800000000000000000000000000000000000000000000000000000000 DUP2 MSTORE PUSH1 0x4 ADD PUSH1 0x40 MLOAD DUP1 SWAP2 SUB SWAP1 REVERT JUMPDEST PUSH1 0x0 PUSH1 0x1 PUSH1 0x0 DUP5 DUP2 MSTORE PUSH1 0x20 ADD SWAP1 DUP2 MSTORE PUSH1 0x20 ADD PUSH1 0x0 KECCAK256 SWAP1 POP DUP1 PUSH1 0xC ADD PUSH1 0x0 SWAP1 SLOAD SWAP1 PUSH2 0x100 EXP SWAP1 DIV PUSH1 0xFF AND PUSH2 0xA5F JUMPI PUSH1 0x40 MLOAD PUSH32 0x3C24FAFC00000000000000000000000000000000000000000000000000000000 DUP2 MSTORE PUSH1 0x4 ADD PUSH1 0x40 MLOAD DUP1 SWAP2 SUB SWAP1 REVERT JUMPDEST CALLER PUSH20 0xFFFFFFFFFFFFFFFFFFFFFFFFFFFFFFFFFFFFFFFF AND DUP2 PUSH1 0x1 ADD PUSH1 0x1 SWAP1 SLOAD SWAP1 PUSH2 0x100 EXP SWAP1 DIV PUSH20 0xFFFFFFFFFFFFFFFFFFFFFFFFFFFFFFFFFFFFFFFF AND PUSH20 0xFFFFFFFFFFFFFFFFFFFFFFFFFFFFFFFFFFFFFFFF AND EQ PUSH2 0xB19 JUMPI DUP1 PUSH1 0x1 ADD PUSH1 0x1 SWAP1 SLOAD SWAP1 PUSH2 0x100 EXP SWAP1 DIV PUSH20 0xFFFFFFFFFFFFFFFFFFFFFFFFFFFFFFFFFFFFFFFF AND CALLER PUSH1 0x40 MLOAD PUSH32 0x500CB4C00000000000000000000000000000000000000000000000000000000 DUP2 MSTORE PUSH1 0x4 ADD PUSH2 0xB10 SWAP3 SWAP2 SWAP1 PUSH2 0x4B44 JUMP JUMPDEST PUSH1 0x40 MLOAD DUP1 SWAP2 SUB SWAP1 REVERT JUMPDEST PUSH1 0x0 PUSH1 0x3 PUSH1 0x0 DUP6 DUP2 MSTORE PUSH1 0x20 ADD SWAP1 DUP2 MSTORE PUSH1 0x20 ADD PUSH1 0x0 KECCAK256 PUSH1 0x0 DUP5 PUSH20 0xFFFFFFFFFFFFFFFFFFFFFFFFFFFFFFFFFFFFFFFF AND PUSH20 0xFFFFFFFFFFFFFFFFFFFFFFFFFFFFFFFFFFFFFFFF AND DUP2 MSTORE PUSH1 0x20 ADD SWAP1 DUP2 MSTORE PUSH1 0x20 ADD PUSH1 0x0 KECCAK256 SWAP1 POP PUSH1 0x2 DUP1 DUP2 GT ISZERO PUSH2 0xB80 JUMPI PUSH2 0xB7F PUSH2 0x47A1 JUMP JUMPDEST JUMPDEST DUP2 PUSH1 0x2 ADD PUSH1 0x0 SWAP1 SLOAD SWAP1 PUSH2 0x100 EXP SWAP1 DIV PUSH1 0xFF AND PUSH1 0x2 DUP2 GT ISZERO PUSH2 0xBA4 JUMPI PUSH2 0xBA3 PUSH2 0x47A1 JUMP JUMPDEST JUMPDEST EQ PUSH2 0xBF7 JUMPI DUP1 PUSH1 0x2 ADD PUSH1 0x0 SWAP1 SLOAD SWAP1 PUSH2 0x100 EXP SWAP1 DIV PUSH1 0xFF AND PUSH1 0x40 MLOAD PUSH32 0x64B08C0600000000000000000000000000000000000000000000000000000000 DUP2 MSTORE PUSH1 0x4 ADD PUSH2 0xBEE SWAP2 SWAP1 PUSH2 0x4B6D JUMP JUMPDEST PUSH1 0x40 MLOAD DUP1 SWAP2 SUB SWAP1 REVERT JUMPDEST TIMESTAMP DUP2 PUSH1 0x4 ADD SLOAD LT ISZERO PUSH2 0xC46 JUMPI DUP1 PUSH1 0x4 ADD SLOAD TIMESTAMP PUSH1 0x40 MLOAD PUSH32 0x1D35563900000000000000000000000000000000000000000000000000000000 DUP2 MSTORE PUSH1 0x4 ADD PUSH2 0xC3D SWAP3 SWAP2 SWAP1 PUSH2 0x48F4 JUMP JUMPDEST PUSH1 0x40 MLOAD DUP1 SWAP2 SUB SWAP1 REVERT JUMPDEST PUSH1 0x2 DUP3 PUSH1 0x1 ADD PUSH1 0x0 PUSH2 0x100 EXP DUP2 SLOAD DUP2 PUSH1 0xFF MUL NOT AND SWAP1 DUP4 PUSH1 0x3 DUP2 GT ISZERO PUSH2 0xC6E JUMPI PUSH2 0xC6D PUSH2 0x47A1 JUMP JUMPDEST JUMPDEST MUL OR SWAP1 SSTORE POP TIMESTAMP DUP3 PUSH1 0xA ADD DUP2 SWAP1 SSTORE POP DUP3 DUP3 PUSH1 0x4 ADD PUSH1 0x0 PUSH2 0x100 EXP DUP2 SLOAD DUP2 PUSH20 0xFFFFFFFFFFFFFFFFFFFFFFFFFFFFFFFFFFFFFFFF MUL NOT AND SWAP1 DUP4 PUSH20 0xFFFFFFFFFFFFFFFFFFFFFFFFFFFFFFFFFFFFFFFF AND MUL OR SWAP1 SSTORE POP PUSH1 0x1 DUP2 PUSH1 0x2 ADD PUSH1 0x0 PUSH2 0x100 EXP DUP2 SLOAD DUP2 PUSH1 0xFF MUL NOT AND SWAP1 DUP4 PUSH1 0x2 DUP2 GT ISZERO PUSH2 0xCE7 JUMPI PUSH2 0xCE6 PUSH2 0x47A1 JUMP JUMPDEST JUMPDEST MUL OR SWAP1 SSTORE POP PUSH2 0xD1A DUP3 DUP3 PUSH1 0x2 ADD PUSH1 0x1 SWAP1 SLOAD SWAP1 PUSH2 0x100 EXP SWAP1 DIV PUSH20 0xFFFFFFFFFFFFFFFFFFFFFFFFFFFFFFFFFFFFFFFF AND PUSH2 0x322D JUMP JUMPDEST PUSH1 0x0 DUP3 PUSH1 0x5 ADD SWAP1 POP DUP1 PUSH1 0x0 ADD PUSH1 0x0 SWAP1 SLOAD SWAP1 PUSH2 0x100 EXP SWAP1 DIV PUSH20 0xFFFFFFFFFFFFFFFFFFFFFFFFFFFFFFFFFFFFFFFF AND PUSH20 0xFFFFFFFFFFFFFFFFFFFFFFFFFFFFFFFFFFFFFFFF AND PUSH20 0x0 PUSH4 0x6CF2280 SWAP1 SWAP2 DUP6 PUSH1 0x1 ADD PUSH1 0x1 SWAP1 SLOAD SWAP1 PUSH2 0x100 EXP SWAP1 DIV PUSH20 0xFFFFFFFFFFFFFFFFFFFFFFFFFFFFFFFFFFFFFFFF AND DUP6 PUSH1 0x0 ADD SLOAD PUSH1 0x6 SLOAD PUSH2 0x2710 PUSH1 0x5 PUSH1 0x0 SWAP1 SLOAD SWAP1 PUSH2 0x100 EXP SWAP1 DIV PUSH20 0xFFFFFFFFFFFFFFFFFFFFFFFFFFFFFFFFFFFFFFFF AND PUSH1 0x40 MLOAD DUP8 PUSH4 0xFFFFFFFF AND PUSH1 0xE0 SHL DUP2 MSTORE PUSH1 0x4 ADD PUSH2 0xDED SWAP7 SWAP6 SWAP5 SWAP4 SWAP3 SWAP2 SWAP1 PUSH2 0x4BA6 JUMP JUMPDEST PUSH1 0x0 PUSH1 0x40 MLOAD DUP1 DUP4 SUB DUP2 DUP7 DUP1 EXTCODESIZE ISZERO DUP1 ISZERO PUSH2 0xE05 JUMPI PUSH1 0x0 DUP1 REVERT JUMPDEST POP GAS DELEGATECALL ISZERO DUP1 ISZERO PUSH2 0xE19 JUMPI RETURNDATASIZE PUSH1 0x0 DUP1 RETURNDATACOPY RETURNDATASIZE PUSH1 0x0 REVERT JUMPDEST POP POP POP POP DUP2 PUSH1 0x0 ADD SLOAD DUP5 PUSH20 0xFFFFFFFFFFFFFFFFFFFFFFFFFFFFFFFFFFFFFFFF AND DUP7 PUSH32 0xADD1D5B6C827FEE45FA32E72964C9D43D2191C9B8B083889FB2E3F468C718568 PUSH1 0x40 MLOAD PUSH1 0x40 MLOAD DUP1 SWAP2 SUB SWAP1 LOG4 POP POP POP POP POP POP POP PUSH2 0xE75 PUSH2 0x370C JUMP JUMPDEST POP JUMP JUMPDEST PUSH2 0xE80 PUSH2 0x3195 JUMP JUMPDEST PUSH2 0xE88 PUSH2 0x31D6 JUMP JUMPDEST DUP1 PUSH1 0x0 ADD CALLDATALOAD PUSH1 0x0 PUSH20 0xFFFFFFFFFFFFFFFFFFFFFFFFFFFFFFFFFFFFFFFF AND PUSH1 0x1 PUSH1 0x0 DUP4 DUP2 MSTORE PUSH1 0x20 ADD SWAP1 DUP2 MSTORE PUSH1 0x20 ADD PUSH1 0x0 KECCAK256 PUSH1 0x1 ADD PUSH1 0x1 SWAP1 SLOAD SWAP1 PUSH2 0x100 EXP SWAP1 DIV PUSH20 0xFFFFFFFFFFFFFFFFFFFFFFFFFFFFFFFFFFFFFFFF AND PUSH20 0xFFFFFFFFFFFFFFFFFFFFFFFFFFFFFFFFFFFFFFFF AND SUB PUSH2 0xF29 JUMPI PUSH1 0x40 MLOAD PUSH32 0x5DCAF2D700000000000000000000000000000000000000000000000000000000 DUP2 MSTORE PUSH1 0x4 ADD PUSH1 0x40 MLOAD DUP1 SWAP2 SUB SWAP1 REVERT JUMPDEST DUP2 PUSH1 0x0 ADD CALLDATALOAD PUSH1 0x0 PUSH1 0x3 DUP2 GT ISZERO PUSH2 0xF42 JUMPI PUSH2 0xF41 PUSH2 0x47A1 JUMP JUMPDEST JUMPDEST PUSH1 0x1 PUSH1 0x0 DUP4 DUP2 MSTORE PUSH1 0x20 ADD SWAP1 DUP2 MSTORE PUSH1 0x20 ADD PUSH1 0x0 KECCAK256 PUSH1 0x1 ADD PUSH1 0x0 SWAP1 SLOAD SWAP1 PUSH2 0x100 EXP SWAP1 DIV PUSH1 0xFF AND PUSH1 0x3 DUP2 GT ISZERO PUSH2 0xF78 JUMPI PUSH2 0xF77 PUSH2 0x47A1 JUMP JUMPDEST JUMPDEST EQ PUSH2 0xFAF JUMPI PUSH1 0x40 MLOAD PUSH32 0xD4DBB56500000000000000000000000000000000000000000000000000000000 DUP2 MSTORE PUSH1 0x4 ADD PUSH1 0x40 MLOAD DUP1 SWAP2 SUB SWAP1 REVERT JUMPDEST PUSH1 0x0 PUSH1 0x1 PUSH1 0x0 DUP6 PUSH1 0x0 ADD CALLDATALOAD DUP2 MSTORE PUSH1 0x20 ADD SWAP1 DUP2 MSTORE PUSH1 0x20 ADD PUSH1 0x0 KECCAK256 SWAP1 POP DUP1 PUSH20 0x0 PUSH4 0x62E454F7 SWAP1 SWAP2 DUP7 PUSH1 0x40 MLOAD DUP4 PUSH4 0xFFFFFFFF AND PUSH1 0xE0 SHL DUP2 MSTORE PUSH1 0x4 ADD PUSH2 0x1005 SWAP3 SWAP2 SWAP1 PUSH2 0x4C99 JUMP JUMPDEST PUSH1 0x0 PUSH1 0x40 MLOAD DUP1 DUP4 SUB DUP2 DUP7 DUP1 EXTCODESIZE ISZERO DUP1 ISZERO PUSH2 0x101D JUMPI PUSH1 0x0 DUP1 REVERT JUMPDEST POP GAS DELEGATECALL ISZERO DUP1 ISZERO PUSH2 0x1031 JUMPI RETURNDATASIZE PUSH1 0x0 DUP1 RETURNDATACOPY RETURNDATASIZE PUSH1 0x0 REVERT JUMPDEST POP POP POP POP PUSH1 0x2 DUP2 PUSH1 0x1 ADD PUSH1 0x0 PUSH2 0x100 EXP DUP2 SLOAD DUP2 PUSH1 0xFF MUL NOT AND SWAP1 DUP4 PUSH1 0x3 DUP2 GT ISZERO PUSH2 0x105D JUMPI PUSH2 0x105C PUSH2 0x47A1 JUMP JUMPDEST JUMPDEST MUL OR SWAP1 SSTORE POP TIMESTAMP DUP2 PUSH1 0xA ADD DUP2 SWAP1 SSTORE POP CALLER DUP2 PUSH1 0x4 ADD PUSH1 0x0 PUSH2 0x100 EXP DUP2 SLOAD DUP2 PUSH20 0xFFFFFFFFFFFFFFFFFFFFFFFFFFFFFFFFFFFFFFFF MUL NOT AND SWAP1 DUP4 PUSH20 0xFFFFFFFFFFFFFFFFFFFFFFFFFFFFFFFFFFFFFFFF AND MUL OR SWAP1 SSTORE POP PUSH2 0x10CA DUP2 DUP6 PUSH1 0x20 ADD PUSH1 0x20 DUP2 ADD SWAP1 PUSH2 0x10C5 SWAP2 SWAP1 PUSH2 0x44F4 JUMP JUMPDEST PUSH2 0x322D JUMP JUMPDEST DUP1 PUSH1 0x5 ADD PUSH1 0x0 ADD PUSH1 0x0 SWAP1 SLOAD SWAP1 PUSH2 0x100 EXP SWAP1 DIV PUSH20 0xFFFFFFFFFFFFFFFFFFFFFFFFFFFFFFFFFFFFFFFF AND PUSH20 0xFFFFFFFFFFFFFFFFFFFFFFFFFFFFFFFFFFFFFFFF AND PUSH20 0x0 PUSH4 0xBAA21B8C SWAP1 SWAP2 DUP4 PUSH1 0x1 ADD PUSH1 0x1 SWAP1 SLOAD SWAP1 PUSH2 0x100 EXP SWAP1 DIV PUSH20 0xFFFFFFFFFFFFFFFFFFFFFFFFFFFFFFFFFFFFFFFF AND DUP5 PUSH1 0x5 ADD PUSH1 0x1 ADD SLOAD PUSH1 0x6 SLOAD PUSH2 0x2710 PUSH1 0x5 PUSH1 0x0 SWAP1 SLOAD SWAP1 PUSH2 0x100 EXP SWAP1 DIV PUSH20 0xFFFFFFFFFFFFFFFFFFFFFFFFFFFFFFFFFFFFFFFF AND PUSH1 0x40 MLOAD DUP8 PUSH4 0xFFFFFFFF AND PUSH1 0xE0 SHL DUP2 MSTORE PUSH1 0x4 ADD PUSH2 0x119B SWAP7 SWAP6 SWAP5 SWAP4 SWAP3 SWAP2 SWAP1 PUSH2 0x4BA6 JUMP JUMPDEST PUSH1 0x0 PUSH1 0x40 MLOAD DUP1 DUP4 SUB DUP2 DUP7 DUP1 EXTCODESIZE ISZERO DUP1 ISZERO PUSH2 0x11B3 JUMPI PUSH1 0x0 DUP1 REVERT JUMPDEST POP GAS DELEGATECALL ISZERO DUP1 ISZERO PUSH2 0x11C7 JUMPI RETURNDATASIZE PUSH1 0x0 DUP1 RETURNDATACOPY RETURNDATASIZE PUSH1 0x0 REVERT JUMPDEST POP POP POP POP DUP4 PUSH1 0x0 ADD CALLDATALOAD DUP2 PUSH1 0x4 ADD PUSH1 0x0 SWAP1 SLOAD SWAP1 PUSH2 0x100 EXP SWAP1 DIV PUSH20 0xFFFFFFFFFFFFFFFFFFFFFFFFFFFFFFFFFFFFFFFF AND PUSH20 0xFFFFFFFFFFFFFFFFFFFFFFFFFFFFFFFFFFFFFFFF AND DUP3 PUSH1 0x1 ADD PUSH1 0x1 SWAP1 SLOAD SWAP1 PUSH2 0x100 EXP SWAP1 DIV PUSH20 0xFFFFFFFFFFFFFFFFFFFFFFFFFFFFFFFFFFFFFFFF AND PUSH20 0xFFFFFFFFFFFFFFFFFFFFFFFFFFFFFFFFFFFFFFFF AND PUSH32 0x6BF7309F141D1B44E414F1FC04D98491CD0ACF98F0F1E5AD885D0A7CE164E6FA PUSH1 0x40 MLOAD PUSH1 0x40 MLOAD DUP1 SWAP2 SUB SWAP1 LOG4 POP POP POP PUSH2 0x127D PUSH2 0x370C JUMP JUMPDEST POP JUMP JUMPDEST PUSH2 0x1288 PUSH2 0x31D6 JUMP JUMPDEST PUSH2 0x1290 PUSH2 0x3195 JUMP JUMPDEST DUP1 PUSH1 0x40 ADD CALLDATALOAD PUSH1 0x0 PUSH20 0xFFFFFFFFFFFFFFFFFFFFFFFFFFFFFFFFFFFFFFFF AND PUSH1 0x1 PUSH1 0x0 DUP4 DUP2 MSTORE PUSH1 0x20 ADD SWAP1 DUP2 MSTORE PUSH1 0x20 ADD PUSH1 0x0 KECCAK256 PUSH1 0x1 ADD PUSH1 0x1 SWAP1 SLOAD SWAP1 PUSH2 0x100 EXP SWAP1 DIV PUSH20 0xFFFFFFFFFFFFFFFFFFFFFFFFFFFFFFFFFFFFFFFF AND PUSH20 0xFFFFFFFFFFFFFFFFFFFFFFFFFFFFFFFFFFFFFFFF AND SUB PUSH2 0x1331 JUMPI PUSH1 0x40 MLOAD PUSH32 0x5DCAF2D700000000000000000000000000000000000000000000000000000000 DUP2 MSTORE PUSH1 0x4 ADD PUSH1 0x40 MLOAD DUP1 SWAP2 SUB SWAP1 REVERT JUMPDEST DUP2 PUSH1 0x40 ADD CALLDATALOAD PUSH1 0x0 PUSH1 0x3 DUP2 GT ISZERO PUSH2 0x134A JUMPI PUSH2 0x1349 PUSH2 0x47A1 JUMP JUMPDEST JUMPDEST PUSH1 0x1 PUSH1 0x0 DUP4 DUP2 MSTORE PUSH1 0x20 ADD SWAP1 DUP2 MSTORE PUSH1 0x20 ADD PUSH1 0x0 KECCAK256 PUSH1 0x1 ADD PUSH1 0x0 SWAP1 SLOAD SWAP1 PUSH2 0x100 EXP SWAP1 DIV PUSH1 0xFF AND PUSH1 0x3 DUP2 GT ISZERO PUSH2 0x1380 JUMPI PUSH2 0x137F PUSH2 0x47A1 JUMP JUMPDEST JUMPDEST EQ PUSH2 0x13B7 JUMPI PUSH1 0x40 MLOAD PUSH32 0xD4DBB56500000000000000000000000000000000000000000000000000000000 DUP2 MSTORE PUSH1 0x4 ADD PUSH1 0x40 MLOAD DUP1 SWAP2 SUB SWAP1 REVERT JUMPDEST PUSH1 0x0 DUP4 PUSH1 0x40 ADD CALLDATALOAD SWAP1 POP PUSH1 0x0 DUP5 PUSH1 0x0 ADD CALLDATALOAD SWAP1 POP CALLER PUSH20 0xFFFFFFFFFFFFFFFFFFFFFFFFFFFFFFFFFFFFFFFF AND DUP6 PUSH1 0x20 ADD PUSH1 0x20 DUP2 ADD SWAP1 PUSH2 0x13F3 SWAP2 SWAP1 PUSH2 0x44F4 JUMP JUMPDEST PUSH20 0xFFFFFFFFFFFFFFFFFFFFFFFFFFFFFFFFFFFFFFFF AND EQ PUSH2 0x1440 JUMPI PUSH1 0x40 MLOAD PUSH32 0x8294AC0200000000000000000000000000000000000000000000000000000000 DUP2 MSTORE PUSH1 0x4 ADD PUSH1 0x40 MLOAD DUP1 SWAP2 SUB SWAP1 REVERT JUMPDEST PUSH1 0x0 PUSH1 0x3 PUSH1 0x0 DUP5 DUP2 MSTORE PUSH1 0x20 ADD SWAP1 DUP2 MSTORE PUSH1 0x20 ADD PUSH1 0x0 KECCAK256 PUSH1 0x0 CALLER PUSH20 0xFFFFFFFFFFFFFFFFFFFFFFFFFFFFFFFFFFFFFFFF AND PUSH20 0xFFFFFFFFFFFFFFFFFFFFFFFFFFFFFFFFFFFFFFFF AND DUP2 MSTORE PUSH1 0x20 ADD SWAP1 DUP2 MSTORE PUSH1 0x20 ADD PUSH1 0x0 KECCAK256 SWAP1 POP PUSH1 0x0 PUSH20 0xFFFFFFFFFFFFFFFFFFFFFFFFFFFFFFFFFFFFFFFF AND DUP2 PUSH1 0x2 ADD PUSH1 0x1 SWAP1 SLOAD SWAP1 PUSH2 0x100 EXP SWAP1 DIV PUSH20 0xFFFFFFFFFFFFFFFFFFFFFFFFFFFFFFFFFFFFFFFF AND PUSH20 0xFFFFFFFFFFFFFFFFFFFFFFFFFFFFFFFFFFFFFFFF AND EQ PUSH2 0x151E JUMPI PUSH1 0x40 MLOAD PUSH32 0xB8CEE9F000000000000000000000000000000000000000000000000000000000 DUP2 MSTORE PUSH1 0x4 ADD PUSH1 0x40 MLOAD DUP1 SWAP2 SUB SWAP1 REVERT JUMPDEST PUSH1 0x0 PUSH1 0x1 PUSH1 0x0 DUP9 PUSH1 0x40 ADD CALLDATALOAD DUP2 MSTORE PUSH1 0x20 ADD SWAP1 DUP2 MSTORE PUSH1 0x20 ADD PUSH1 0x0 KECCAK256 SWAP1 POP DUP1 PUSH1 0xC ADD PUSH1 0x0 SWAP1 SLOAD SWAP1 PUSH2 0x100 EXP SWAP1 DIV PUSH1 0xFF AND PUSH2 0x1581 JUMPI PUSH1 0x40 MLOAD PUSH32 0x3C24FAFC00000000000000000000000000000000000000000000000000000000 DUP2 MSTORE PUSH1 0x4 ADD PUSH1 0x40 MLOAD DUP1 SWAP2 SUB SWAP1 REVERT JUMPDEST TIMESTAMP DUP2 PUSH1 0xB ADD SLOAD LT ISZERO PUSH2 0x15D0 JUMPI DUP1 PUSH1 0xB ADD SLOAD TIMESTAMP PUSH1 0x40 MLOAD PUSH32 0xF00605CF00000000000000000000000000000000000000000000000000000000 DUP2 MSTORE PUSH1 0x4 ADD PUSH2 0x15C7 SWAP3 SWAP2 SWAP1 PUSH2 0x48F4 JUMP JUMPDEST PUSH1 0x40 MLOAD DUP1 SWAP2 SUB SWAP1 REVERT JUMPDEST DUP1 PUSH1 0x7 ADD SLOAD DUP4 LT DUP1 PUSH2 0x15E8 JUMPI POP DUP1 PUSH1 0x5 ADD PUSH1 0x1 ADD SLOAD DUP4 GT JUMPDEST ISZERO PUSH2 0x162A JUMPI DUP3 PUSH1 0x40 MLOAD PUSH32 0xD9CF167E00000000000000000000000000000000000000000000000000000000 DUP2 MSTORE PUSH1 0x4 ADD PUSH2 0x1621 SWAP2 SWAP1 PUSH2 0x473A JUMP JUMPDEST PUSH1 0x40 MLOAD DUP1 SWAP2 SUB SWAP1 REVERT JUMPDEST PUSH1 0x0 PUSH1 0x1 PUSH1 0x0 DUP7 DUP2 MSTORE PUSH1 0x20 ADD SWAP1 DUP2 MSTORE PUSH1 0x20 ADD PUSH1 0x0 KECCAK256 PUSH1 0x5 ADD SWAP1 POP PUSH1 0x0 PUSH20 0xFFFFFFFFFFFFFFFFFFFFFFFFFFFFFFFFFFFFFFFF AND DUP2 PUSH1 0x0 ADD PUSH1 0x0 SWAP1 SLOAD SWAP1 PUSH2 0x100 EXP SWAP1 DIV PUSH20 0xFFFFFFFFFFFFFFFFFFFFFFFFFFFFFFFFFFFFFFFF AND PUSH20 0xFFFFFFFFFFFFFFFFFFFFFFFFFFFFFFFFFFFFFFFF AND EQ PUSH2 0x16D1 JUMPI PUSH2 0x16CC DUP2 PUSH1 0x0 ADD PUSH1 0x0 SWAP1 SLOAD SWAP1 PUSH2 0x100 EXP SWAP1 DIV PUSH20 0xFFFFFFFFFFFFFFFFFFFFFFFFFFFFFFFFFFFFFFFF AND CALLER ADDRESS DUP8 PUSH2 0x3725 JUMP JUMPDEST PUSH2 0x1716 JUMP JUMPDEST DUP4 CALLVALUE EQ PUSH2 0x1715 JUMPI CALLVALUE PUSH1 0x40 MLOAD PUSH32 0xD9CF167E00000000000000000000000000000000000000000000000000000000 DUP2 MSTORE PUSH1 0x4 ADD PUSH2 0x170C SWAP2 SWAP1 PUSH2 0x473A JUMP JUMPDEST PUSH1 0x40 MLOAD DUP1 SWAP2 SUB SWAP1 REVERT JUMPDEST JUMPDEST PUSH1 0x3 PUSH20 0x0 PUSH4 0xCC76F931 SWAP1 SWAP2 DUP11 PUSH1 0x40 MLOAD DUP4 PUSH4 0xFFFFFFFF AND PUSH1 0xE0 SHL DUP2 MSTORE PUSH1 0x4 ADD PUSH2 0x1752 SWAP3 SWAP2 SWAP1 PUSH2 0x4D64 JUMP JUMPDEST PUSH1 0x0 PUSH1 0x40 MLOAD DUP1 DUP4 SUB DUP2 DUP7 DUP1 EXTCODESIZE ISZERO DUP1 ISZERO PUSH2 0x176A JUMPI PUSH1 0x0 DUP1 REVERT JUMPDEST POP GAS DELEGATECALL ISZERO DUP1 ISZERO PUSH2 0x177E JUMPI RETURNDATASIZE PUSH1 0x0 DUP1 RETURNDATACOPY RETURNDATASIZE PUSH1 0x0 REVERT JUMPDEST POP POP POP POP DUP4 CALLER PUSH20 0xFFFFFFFFFFFFFFFFFFFFFFFFFFFFFFFFFFFFFFFF AND DUP7 PUSH32 0x1126836D9A6F07E69D20F7AC2DB448D68D9BB24718D7E8E0E85B8CFD96BB04C1 PUSH1 0x40 MLOAD PUSH1 0x40 MLOAD DUP1 SWAP2 SUB SWAP1 LOG4 POP POP POP POP POP POP POP PUSH2 0x17D6 PUSH2 0x370C JUMP JUMPDEST POP JUMP JUMPDEST PUSH2 0x17E6 PUSH1 0x0 DUP1 SHL DUP3 PUSH2 0x2B2A JUMP JUMPDEST POP JUMP JUMPDEST PUSH1 0x0 DUP1 PUSH2 0x17F4 PUSH2 0x385E JUMP JUMPDEST SWAP1 POP DUP1 PUSH1 0x0 ADD PUSH1 0x0 DUP5 DUP2 MSTORE PUSH1 0x20 ADD SWAP1 DUP2 MSTORE PUSH1 0x20 ADD PUSH1 0x0 KECCAK256 PUSH1 0x1 ADD SLOAD SWAP2 POP POP SWAP2 SWAP1 POP JUMP JUMPDEST PUSH1 0x0 PUSH2 0x1826 PUSH1 0x0 DUP1 SHL DUP4 PUSH2 0x246C JUMP JUMPDEST SWAP1 POP SWAP2 SWAP1 POP JUMP JUMPDEST DUP2 DUP2 DUP1 DUP1 PUSH1 0x20 MUL PUSH1 0x20 ADD PUSH1 0x40 MLOAD SWAP1 DUP2 ADD PUSH1 0x40 MSTORE DUP1 SWAP4 SWAP3 SWAP2 SWAP1 DUP2 DUP2 MSTORE PUSH1 0x20 ADD PUSH1 0x0 SWAP1 JUMPDEST DUP3 DUP3 LT ISZERO PUSH2 0x187F JUMPI DUP5 DUP5 DUP4 SWAP1 POP PUSH1 0x40 MUL ADD DUP1 CALLDATASIZE SUB DUP2 ADD SWAP1 PUSH2 0x1870 SWAP2 SWAP1 PUSH2 0x4E6E JUMP JUMPDEST DUP2 MSTORE PUSH1 0x20 ADD SWAP1 PUSH1 0x1 ADD SWAP1 PUSH2 0x184F JUMP JUMPDEST POP POP POP POP POP PUSH20 0x0 PUSH4 0x33B988F5 SWAP1 SWAP2 PUSH1 0x40 MLOAD DUP3 PUSH4 0xFFFFFFFF AND PUSH1 0xE0 SHL DUP2 MSTORE PUSH1 0x4 ADD PUSH2 0x18BC SWAP2 SWAP1 PUSH2 0x4F79 JUMP JUMPDEST PUSH1 0x0 PUSH1 0x40 MLOAD DUP1 DUP4 SUB DUP2 DUP7 DUP1 EXTCODESIZE ISZERO DUP1 ISZERO PUSH2 0x18D4 JUMPI PUSH1 0x0 DUP1 REVERT JUMPDEST POP GAS DELEGATECALL ISZERO DUP1 ISZERO PUSH2 0x18E8 JUMPI RETURNDATASIZE PUSH1 0x0 DUP1 RETURNDATACOPY RETURNDATASIZE PUSH1 0x0 REVERT JUMPDEST POP POP POP POP PUSH1 0x0 PUSH2 0x18F7 DUP5 PUSH2 0x2812 JUMP JUMPDEST SWAP1 POP PUSH1 0x0 JUMPDEST DUP4 DUP4 SWAP1 POP DUP2 LT ISZERO PUSH2 0x197D JUMPI PUSH1 0x2 PUSH1 0x0 DUP4 DUP2 MSTORE PUSH1 0x20 ADD SWAP1 DUP2 MSTORE PUSH1 0x20 ADD PUSH1 0x0 KECCAK256 DUP5 DUP5 DUP4 DUP2 DUP2 LT PUSH2 0x192D JUMPI PUSH2 0x192C PUSH2 0x4F9B JUMP JUMPDEST JUMPDEST SWAP1 POP PUSH1 0x40 MUL ADD SWAP1 DUP1 PUSH1 0x1 DUP2 SLOAD ADD DUP1 DUP3 SSTORE DUP1 SWAP2 POP POP PUSH1 0x1 SWAP1 SUB SWAP1 PUSH1 0x0 MSTORE PUSH1 0x20 PUSH1 0x0 KECCAK256 SWAP1 PUSH1 0x2 MUL ADD PUSH1 0x0 SWAP1 SWAP2 SWAP1 SWAP2 SWAP1 SWAP2 POP DUP2 DUP2 PUSH2 0x1968 SWAP2 SWAP1 PUSH2 0x50CE JUMP JUMPDEST POP POP DUP1 DUP1 PUSH2 0x1975 SWAP1 PUSH2 0x510B JUMP JUMPDEST SWAP2 POP POP PUSH2 0x18FC JUMP JUMPDEST POP POP POP POP POP JUMP JUMPDEST PUSH2 0x198D DUP3 PUSH2 0x17E9 JUMP JUMPDEST PUSH2 0x1996 DUP2 PUSH2 0x3886 JUMP JUMPDEST PUSH2 0x19A0 DUP4 DUP4 PUSH2 0x389A JUMP JUMPDEST POP POP POP POP JUMP JUMPDEST PUSH2 0x19AE PUSH2 0x399B JUMP JUMPDEST PUSH20 0xFFFFFFFFFFFFFFFFFFFFFFFFFFFFFFFFFFFFFFFF AND DUP2 PUSH20 0xFFFFFFFFFFFFFFFFFFFFFFFFFFFFFFFFFFFFFFFF AND EQ PUSH2 0x1A12 JUMPI PUSH1 0x40 MLOAD PUSH32 0x6697B23200000000000000000000000000000000000000000000000000000000 DUP2 MSTORE PUSH1 0x4 ADD PUSH1 0x40 MLOAD DUP1 SWAP2 SUB SWAP1 REVERT JUMPDEST PUSH2 0x1A1C DUP3 DUP3 PUSH2 0x39A3 JUMP JUMPDEST POP POP POP JUMP JUMPDEST PUSH2 0x1A29 PUSH2 0x3195 JUMP JUMPDEST PUSH2 0x1A31 PUSH2 0x31D6 JUMP JUMPDEST DUP1 PUSH1 0x0 ADD CALLDATALOAD PUSH1 0x0 PUSH20 0xFFFFFFFFFFFFFFFFFFFFFFFFFFFFFFFFFFFFFFFF AND PUSH1 0x1 PUSH1 0x0 DUP4 DUP2 MSTORE PUSH1 0x20 ADD SWAP1 DUP2 MSTORE PUSH1 0x20 ADD PUSH1 0x0 KECCAK256 PUSH1 0x1 ADD PUSH1 0x1 SWAP1 SLOAD SWAP1 PUSH2 0x100 EXP SWAP1 DIV PUSH20 0xFFFFFFFFFFFFFFFFFFFFFFFFFFFFFFFFFFFFFFFF AND PUSH20 0xFFFFFFFFFFFFFFFFFFFFFFFFFFFFFFFFFFFFFFFF AND SUB PUSH2 0x1AD2 JUMPI PUSH1 0x40 MLOAD PUSH32 0x5DCAF2D700000000000000000000000000000000000000000000000000000000 DUP2 MSTORE PUSH1 0x4 ADD PUSH1 0x40 MLOAD DUP1 SWAP2 SUB SWAP1 REVERT JUMPDEST DUP2 PUSH1 0x0 ADD CALLDATALOAD PUSH1 0x0 PUSH1 0x3 DUP2 GT ISZERO PUSH2 0x1AEB JUMPI PUSH2 0x1AEA PUSH2 0x47A1 JUMP JUMPDEST JUMPDEST PUSH1 0x1 PUSH1 0x0 DUP4 DUP2 MSTORE PUSH1 0x20 ADD SWAP1 DUP2 MSTORE PUSH1 0x20 ADD PUSH1 0x0 KECCAK256 PUSH1 0x1 ADD PUSH1 0x0 SWAP1 SLOAD SWAP1 PUSH2 0x100 EXP SWAP1 DIV PUSH1 0xFF AND PUSH1 0x3 DUP2 GT ISZERO PUSH2 0x1B21 JUMPI PUSH2 0x1B20 PUSH2 0x47A1 JUMP JUMPDEST JUMPDEST EQ PUSH2 0x1B58 JUMPI PUSH1 0x40 MLOAD PUSH32 0xD4DBB56500000000000000000000000000000000000000000000000000000000 DUP2 MSTORE PUSH1 0x4 ADD PUSH1 0x40 MLOAD DUP1 SWAP2 SUB SWAP1 REVERT JUMPDEST PUSH1 0x0 PUSH1 0x1 PUSH1 0x0 DUP6 PUSH1 0x0 ADD CALLDATALOAD DUP2 MSTORE PUSH1 0x20 ADD SWAP1 DUP2 MSTORE PUSH1 0x20 ADD PUSH1 0x0 KECCAK256 SWAP1 POP DUP1 PUSH20 0x0 PUSH4 0xC3AEE15D SWAP1 SWAP2 PUSH1 0x40 MLOAD DUP3 PUSH4 0xFFFFFFFF AND PUSH1 0xE0 SHL DUP2 MSTORE PUSH1 0x4 ADD PUSH2 0x1BAC SWAP2 SWAP1 PUSH2 0x5153 JUMP JUMPDEST PUSH1 0x0 PUSH1 0x40 MLOAD DUP1 DUP4 SUB DUP2 DUP7 DUP1 EXTCODESIZE ISZERO DUP1 ISZERO PUSH2 0x1BC4 JUMPI PUSH1 0x0 DUP1 REVERT JUMPDEST POP GAS DELEGATECALL ISZERO DUP1 ISZERO PUSH2 0x1BD8 JUMPI RETURNDATASIZE PUSH1 0x0 DUP1 RETURNDATACOPY RETURNDATASIZE PUSH1 0x0 REVERT JUMPDEST POP POP POP POP PUSH1 0x1 DUP2 PUSH1 0x1 ADD PUSH1 0x0 PUSH2 0x100 EXP DUP2 SLOAD DUP2 PUSH1 0xFF MUL NOT AND SWAP1 DUP4 PUSH1 0x3 DUP2 GT ISZERO PUSH2 0x1C04 JUMPI PUSH2 0x1C03 PUSH2 0x47A1 JUMP JUMPDEST JUMPDEST MUL OR SWAP1 SSTORE POP PUSH1 0x0 PUSH20 0xFFFFFFFFFFFFFFFFFFFFFFFFFFFFFFFFFFFFFFFF AND DUP2 PUSH1 0x2 ADD PUSH1 0x0 ADD PUSH1 0x0 SWAP1 SLOAD SWAP1 PUSH2 0x100 EXP SWAP1 DIV PUSH20 0xFFFFFFFFFFFFFFFFFFFFFFFFFFFFFFFFFFFFFFFF AND PUSH20 0xFFFFFFFFFFFFFFFFFFFFFFFFFFFFFFFFFFFFFFFF AND SUB PUSH2 0x1C7A JUMPI PUSH2 0x1C75 CALLER DUP3 PUSH1 0x2 ADD PUSH1 0x1 ADD SLOAD PUSH2 0x3AA5 JUMP JUMPDEST PUSH2 0x1CB4 JUMP JUMPDEST PUSH2 0x1CB3 DUP2 PUSH1 0x2 ADD PUSH1 0x0 ADD PUSH1 0x0 SWAP1 SLOAD SWAP1 PUSH2 0x100 EXP SWAP1 DIV PUSH20 0xFFFFFFFFFFFFFFFFFFFFFFFFFFFFFFFFFFFFFFFF AND CALLER DUP4 PUSH1 0x2 ADD PUSH1 0x1 ADD SLOAD PUSH2 0x3BA5 JUMP JUMPDEST JUMPDEST DUP4 PUSH1 0x0 ADD CALLDATALOAD PUSH32 0xF68AEEC8F55D67A9B2CF2B6CAEA31E11F2C14E09DA250170575D63911F26AA6E PUSH1 0x40 MLOAD PUSH1 0x40 MLOAD DUP1 SWAP2 SUB SWAP1 LOG2 POP POP POP PUSH2 0x1CF0 PUSH2 0x370C JUMP JUMPDEST POP JUMP JUMPDEST PUSH1 0x0 SLOAD DUP2 JUMP JUMPDEST PUSH2 0x1D01 PUSH2 0x3195 JUMP JUMPDEST PUSH2 0x1D09 PUSH2 0x31D6 JUMP JUMPDEST DUP1 PUSH1 0x0 ADD CALLDATALOAD PUSH1 0x0 PUSH20 0xFFFFFFFFFFFFFFFFFFFFFFFFFFFFFFFFFFFFFFFF AND PUSH1 0x1 PUSH1 0x0 DUP4 DUP2 MSTORE PUSH1 0x20 ADD SWAP1 DUP2 MSTORE PUSH1 0x20 ADD PUSH1 0x0 KECCAK256 PUSH1 0x1 ADD PUSH1 0x1 SWAP1 SLOAD SWAP1 PUSH2 0x100 EXP SWAP1 DIV PUSH20 0xFFFFFFFFFFFFFFFFFFFFFFFFFFFFFFFFFFFFFFFF AND PUSH20 0xFFFFFFFFFFFFFFFFFFFFFFFFFFFFFFFFFFFFFFFF AND SUB PUSH2 0x1DAA JUMPI PUSH1 0x40 MLOAD PUSH32 0x5DCAF2D700000000000000000000000000000000000000000000000000000000 DUP2 MSTORE PUSH1 0x4 ADD PUSH1 0x40 MLOAD DUP1 SWAP2 SUB SWAP1 REVERT JUMPDEST DUP2 PUSH1 0x0 ADD CALLDATALOAD PUSH1 0x0 PUSH1 0x3 DUP2 GT ISZERO PUSH2 0x1DC3 JUMPI PUSH2 0x1DC2 PUSH2 0x47A1 JUMP JUMPDEST JUMPDEST PUSH1 0x1 PUSH1 0x0 DUP4 DUP2 MSTORE PUSH1 0x20 ADD SWAP1 DUP2 MSTORE PUSH1 0x20 ADD PUSH1 0x0 KECCAK256 PUSH1 0x1 ADD PUSH1 0x0 SWAP1 SLOAD SWAP1 PUSH2 0x100 EXP SWAP1 DIV PUSH1 0xFF AND PUSH1 0x3 DUP2 GT ISZERO PUSH2 0x1DF9 JUMPI PUSH2 0x1DF8 PUSH2 0x47A1 JUMP JUMPDEST JUMPDEST EQ PUSH2 0x1E30 JUMPI PUSH1 0x40 MLOAD PUSH32 0xD4DBB56500000000000000000000000000000000000000000000000000000000 DUP2 MSTORE PUSH1 0x4 ADD PUSH1 0x40 MLOAD DUP1 SWAP2 SUB SWAP1 REVERT JUMPDEST PUSH1 0x0 DUP4 PUSH1 0x0 ADD CALLDATALOAD SWAP1 POP PUSH1 0x0 DUP5 PUSH1 0x40 ADD CALLDATALOAD SWAP1 POP PUSH1 0x0 PUSH1 0x3 PUSH1 0x0 DUP5 DUP2 MSTORE PUSH1 0x20 ADD SWAP1 DUP2 MSTORE PUSH1 0x20 ADD PUSH1 0x0 KECCAK256 PUSH1 0x0 CALLER PUSH20 0xFFFFFFFFFFFFFFFFFFFFFFFFFFFFFFFFFFFFFFFF AND PUSH20 0xFFFFFFFFFFFFFFFFFFFFFFFFFFFFFFFFFFFFFFFF AND DUP2 MSTORE PUSH1 0x20 ADD SWAP1 DUP2 MSTORE PUSH1 0x20 ADD PUSH1 0x0 KECCAK256 SWAP1 POP TIMESTAMP DUP2 PUSH1 0x4 ADD SLOAD LT ISZERO PUSH2 0x1EE5 JUMPI DUP1 PUSH1 0x4 ADD SLOAD TIMESTAMP PUSH1 0x40 MLOAD PUSH32 0x1D35563900000000000000000000000000000000000000000000000000000000 DUP2 MSTORE PUSH1 0x4 ADD PUSH2 0x1EDC SWAP3 SWAP2 SWAP1 PUSH2 0x48F4 JUMP JUMPDEST PUSH1 0x40 MLOAD DUP1 SWAP2 SUB SWAP1 REVERT JUMPDEST PUSH1 0x0 PUSH20 0xFFFFFFFFFFFFFFFFFFFFFFFFFFFFFFFFFFFFFFFF AND DUP2 PUSH1 0x2 ADD PUSH1 0x1 SWAP1 SLOAD SWAP1 PUSH2 0x100 EXP SWAP1 DIV PUSH20 0xFFFFFFFFFFFFFFFFFFFFFFFFFFFFFFFFFFFFFFFF AND PUSH20 0xFFFFFFFFFFFFFFFFFFFFFFFFFFFFFFFFFFFFFFFF AND SUB PUSH2 0x1F6F JUMPI PUSH1 0x40 MLOAD PUSH32 0xA0C23EE00000000000000000000000000000000000000000000000000000000 DUP2 MSTORE PUSH1 0x4 ADD PUSH1 0x40 MLOAD DUP1 SWAP2 SUB SWAP1 REVERT JUMPDEST PUSH1 0x0 PUSH1 0x1 PUSH1 0x0 DUP6 DUP2 MSTORE PUSH1 0x20 ADD SWAP1 DUP2 MSTORE PUSH1 0x20 ADD PUSH1 0x0 KECCAK256 SWAP1 POP PUSH1 0x2 DUP1 DUP2 GT ISZERO PUSH2 0x1F99 JUMPI PUSH2 0x1F98 PUSH2 0x47A1 JUMP JUMPDEST JUMPDEST DUP3 PUSH1 0x2 ADD PUSH1 0x0 SWAP1 SLOAD SWAP1 PUSH2 0x100 EXP SWAP1 DIV PUSH1 0xFF AND PUSH1 0x2 DUP2 GT ISZERO PUSH2 0x1FBD JUMPI PUSH2 0x1FBC PUSH2 0x47A1 JUMP JUMPDEST JUMPDEST EQ PUSH2 0x1FF4 JUMPI PUSH1 0x40 MLOAD PUSH32 0xA0C23EE00000000000000000000000000000000000000000000000000000000 DUP2 MSTORE PUSH1 0x4 ADD PUSH1 0x40 MLOAD DUP1 SWAP2 SUB SWAP1 REVERT JUMPDEST PUSH1 0x0 DUP4 SUB PUSH2 0x2039 JUMPI DUP3 PUSH1 0x40 MLOAD PUSH32 0xD9CF167E00000000000000000000000000000000000000000000000000000000 DUP2 MSTORE PUSH1 0x4 ADD PUSH2 0x2030 SWAP2 SWAP1 PUSH2 0x473A JUMP JUMPDEST PUSH1 0x40 MLOAD DUP1 SWAP2 SUB SWAP1 REVERT JUMPDEST DUP3 DUP3 PUSH1 0x0 ADD PUSH1 0x0 DUP3 DUP3 SLOAD PUSH2 0x204D SWAP2 SWAP1 PUSH2 0x516E JUMP JUMPDEST SWAP3 POP POP DUP2 SWAP1 SSTORE POP DUP1 PUSH1 0x5 ADD PUSH1 0x1 ADD SLOAD DUP3 PUSH1 0x0 ADD SLOAD GT ISZERO PUSH2 0x20A8 JUMPI DUP2 PUSH1 0x0 ADD SLOAD PUSH1 0x40 MLOAD PUSH32 0xD9CF167E00000000000000000000000000000000000000000000000000000000 DUP2 MSTORE PUSH1 0x4 ADD PUSH2 0x209F SWAP2 SWAP1 PUSH2 0x473A JUMP JUMPDEST PUSH1 0x40 MLOAD DUP1 SWAP2 SUB SWAP1 REVERT JUMPDEST PUSH1 0x0 DUP2 PUSH1 0x5 ADD SWAP1 POP PUSH1 0x0 PUSH20 0xFFFFFFFFFFFFFFFFFFFFFFFFFFFFFFFFFFFFFFFF AND DUP2 PUSH1 0x0 ADD PUSH1 0x0 SWAP1 SLOAD SWAP1 PUSH2 0x100 EXP SWAP1 DIV PUSH20 0xFFFFFFFFFFFFFFFFFFFFFFFFFFFFFFFFFFFFFFFF AND PUSH20 0xFFFFFFFFFFFFFFFFFFFFFFFFFFFFFFFFFFFFFFFF AND EQ PUSH2 0x213D JUMPI PUSH2 0x2138 DUP2 PUSH1 0x0 ADD PUSH1 0x0 SWAP1 SLOAD SWAP1 PUSH2 0x100 EXP SWAP1 DIV PUSH20 0xFFFFFFFFFFFFFFFFFFFFFFFFFFFFFFFFFFFFFFFF AND CALLER ADDRESS DUP8 PUSH2 0x3725 JUMP JUMPDEST PUSH2 0x2182 JUMP JUMPDEST DUP4 CALLVALUE EQ PUSH2 0x2181 JUMPI CALLVALUE PUSH1 0x40 MLOAD PUSH32 0xD9CF167E00000000000000000000000000000000000000000000000000000000 DUP2 MSTORE PUSH1 0x4 ADD PUSH2 0x2178 SWAP2 SWAP1 PUSH2 0x473A JUMP JUMPDEST PUSH1 0x40 MLOAD DUP1 SWAP2 SUB SWAP1 REVERT JUMPDEST JUMPDEST DUP3 PUSH1 0x0 ADD SLOAD DUP4 PUSH1 0x2 ADD PUSH1 0x1 SWAP1 SLOAD SWAP1 PUSH2 0x100 EXP SWAP1 DIV PUSH20 0xFFFFFFFFFFFFFFFFFFFFFFFFFFFFFFFFFFFFFFFF AND PUSH20 0xFFFFFFFFFFFFFFFFFFFFFFFFFFFFFFFFFFFFFFFF AND DUP7 PUSH32 0x7786094A5EDC61A0463300B9B97A1B22D338BC800ED33404BA9A3888B71DE0FC PUSH1 0x40 MLOAD PUSH1 0x40 MLOAD DUP1 SWAP2 SUB SWAP1 LOG4 POP POP POP POP POP POP POP PUSH2 0x21FE PUSH2 0x370C JUMP JUMPDEST POP JUMP JUMPDEST PUSH2 0x222B PUSH32 0x65D7A28E3265B37A6474929F336521B332C1681B933F6CB9F3376673440D862A CALLER PUSH2 0x246C JUMP JUMPDEST PUSH2 0x226A JUMPI PUSH1 0x40 MLOAD PUSH32 0x8C379A000000000000000000000000000000000000000000000000000000000 DUP2 MSTORE PUSH1 0x4 ADD PUSH2 0x2261 SWAP1 PUSH2 0x51FF JUMP JUMPDEST PUSH1 0x40 MLOAD DUP1 SWAP2 SUB SWAP1 REVERT JUMPDEST PUSH2 0x2272 PUSH2 0x3CDB JUMP JUMPDEST JUMP JUMPDEST PUSH1 0x0 PUSH2 0x22A0 PUSH32 0x65D7A28E3265B37A6474929F336521B332C1681B933F6CB9F3376673440D862A DUP4 PUSH2 0x246C JUMP JUMPDEST SWAP1 POP SWAP2 SWAP1 POP JUMP JUMPDEST PUSH1 0x7 SLOAD DUP2 JUMP JUMPDEST PUSH1 0x0 DUP1 PUSH2 0x22B8 PUSH2 0x3D4D JUMP JUMPDEST SWAP1 POP DUP1 PUSH1 0x0 ADD PUSH1 0x0 SWAP1 SLOAD SWAP1 PUSH2 0x100 EXP SWAP1 DIV PUSH1 0xFF AND SWAP2 POP POP SWAP1 JUMP JUMPDEST PUSH1 0x3 PUSH1 0x20 MSTORE DUP2 PUSH1 0x0 MSTORE PUSH1 0x40 PUSH1 0x0 KECCAK256 PUSH1 0x20 MSTORE DUP1 PUSH1 0x0 MSTORE PUSH1 0x40 PUSH1 0x0 KECCAK256 PUSH1 0x0 SWAP2 POP SWAP2 POP POP DUP1 PUSH1 0x0 ADD SLOAD SWAP1 DUP1 PUSH1 0x1 ADD SLOAD SWAP1 DUP1 PUSH1 0x2 ADD PUSH1 0x0 SWAP1 SLOAD SWAP1 PUSH2 0x100 EXP SWAP1 DIV PUSH1 0xFF AND SWAP1 DUP1 PUSH1 0x2 ADD PUSH1 0x1 SWAP1 SLOAD SWAP1 PUSH2 0x100 EXP SWAP1 DIV PUSH20 0xFFFFFFFFFFFFFFFFFFFFFFFFFFFFFFFFFFFFFFFF AND SWAP1 DUP1 PUSH1 0x3 ADD SLOAD SWAP1 DUP1 PUSH1 0x4 ADD SLOAD SWAP1 POP DUP7 JUMP JUMPDEST PUSH2 0x2372 PUSH32 0x65D7A28E3265B37A6474929F336521B332C1681B933F6CB9F3376673440D862A DUP3 PUSH2 0x2B2A JUMP JUMPDEST POP JUMP JUMPDEST PUSH2 0x2382 PUSH1 0x0 DUP1 SHL DUP3 PUSH2 0x1984 JUMP JUMPDEST POP JUMP JUMPDEST PUSH2 0x23AF PUSH32 0x65D7A28E3265B37A6474929F336521B332C1681B933F6CB9F3376673440D862A DUP3 PUSH2 0x1984 JUMP JUMPDEST POP JUMP JUMPDEST PUSH2 0x23DC PUSH32 0x65D7A28E3265B37A6474929F336521B332C1681B933F6CB9F3376673440D862A CALLER PUSH2 0x246C JUMP JUMPDEST PUSH2 0x241B JUMPI PUSH1 0x40 MLOAD PUSH32 0x8C379A000000000000000000000000000000000000000000000000000000000 DUP2 MSTORE PUSH1 0x4 ADD PUSH2 0x2412 SWAP1 PUSH2 0x51FF JUMP JUMPDEST PUSH1 0x40 MLOAD DUP1 SWAP2 SUB SWAP1 REVERT JUMPDEST PUSH2 0x2423 PUSH2 0x3D75 JUMP JUMPDEST JUMP JUMPDEST PUSH1 0x6 SLOAD DUP2 JUMP JUMPDEST PUSH1 0x2 PUSH1 0x20 MSTORE DUP2 PUSH1 0x0 MSTORE PUSH1 0x40 PUSH1 0x0 KECCAK256 DUP2 DUP2 SLOAD DUP2 LT PUSH2 0x2447 JUMPI PUSH1 0x0 DUP1 REVERT JUMPDEST SWAP1 PUSH1 0x0 MSTORE PUSH1 0x20 PUSH1 0x0 KECCAK256 SWAP1 PUSH1 0x2 MUL ADD PUSH1 0x0 SWAP2 POP SWAP2 POP POP DUP1 PUSH1 0x0 ADD SLOAD SWAP1 DUP1 PUSH1 0x1 ADD SLOAD SWAP1 POP DUP3 JUMP JUMPDEST PUSH1 0x0 DUP1 PUSH2 0x2477 PUSH2 0x385E JUMP JUMPDEST SWAP1 POP DUP1 PUSH1 0x0 ADD PUSH1 0x0 DUP6 DUP2 MSTORE PUSH1 0x20 ADD SWAP1 DUP2 MSTORE PUSH1 0x20 ADD PUSH1 0x0 KECCAK256 PUSH1 0x0 ADD PUSH1 0x0 DUP5 PUSH20 0xFFFFFFFFFFFFFFFFFFFFFFFFFFFFFFFFFFFFFFFF AND PUSH20 0xFFFFFFFFFFFFFFFFFFFFFFFFFFFFFFFFFFFFFFFF AND DUP2 MSTORE PUSH1 0x20 ADD SWAP1 DUP2 MSTORE PUSH1 0x20 ADD PUSH1 0x0 KECCAK256 PUSH1 0x0 SWAP1 SLOAD SWAP1 PUSH2 0x100 EXP SWAP1 DIV PUSH1 0xFF AND SWAP2 POP POP SWAP3 SWAP2 POP POP JUMP JUMPDEST PUSH1 0x0 DUP1 SHL DUP2 JUMP JUMPDEST PUSH1 0x0 PUSH2 0x24F6 PUSH2 0x3DE7 JUMP JUMPDEST SWAP1 POP PUSH1 0x0 DUP2 PUSH1 0x0 ADD PUSH1 0x8 SWAP1 SLOAD SWAP1 PUSH2 0x100 EXP SWAP1 DIV PUSH1 0xFF AND ISZERO SWAP1 POP PUSH1 0x0 DUP3 PUSH1 0x0 ADD PUSH1 0x0 SWAP1 SLOAD SWAP1 PUSH2 0x100 EXP SWAP1 DIV PUSH8 0xFFFFFFFFFFFFFFFF AND SWAP1 POP PUSH1 0x0 DUP1 DUP3 PUSH8 0xFFFFFFFFFFFFFFFF AND EQ DUP1 ISZERO PUSH2 0x2544 JUMPI POP DUP3 JUMPDEST SWAP1 POP PUSH1 0x0 PUSH1 0x1 DUP4 PUSH8 0xFFFFFFFFFFFFFFFF AND EQ DUP1 ISZERO PUSH2 0x2579 JUMPI POP PUSH1 0x0 ADDRESS PUSH20 0xFFFFFFFFFFFFFFFFFFFFFFFFFFFFFFFFFFFFFFFF AND EXTCODESIZE EQ JUMPDEST SWAP1 POP DUP2 ISZERO DUP1 ISZERO PUSH2 0x2587 JUMPI POP DUP1 ISZERO JUMPDEST ISZERO PUSH2 0x25BE JUMPI PUSH1 0x40 MLOAD PUSH32 0xF92EE8A900000000000000000000000000000000000000000000000000000000 DUP2 MSTORE PUSH1 0x4 ADD PUSH1 0x40 MLOAD DUP1 SWAP2 SUB SWAP1 REVERT JUMPDEST PUSH1 0x1 DUP6 PUSH1 0x0 ADD PUSH1 0x0 PUSH2 0x100 EXP DUP2 SLOAD DUP2 PUSH8 0xFFFFFFFFFFFFFFFF MUL NOT AND SWAP1 DUP4 PUSH8 0xFFFFFFFFFFFFFFFF AND MUL OR SWAP1 SSTORE POP DUP4 ISZERO PUSH2 0x260E JUMPI PUSH1 0x1 DUP6 PUSH1 0x0 ADD PUSH1 0x8 PUSH2 0x100 EXP DUP2 SLOAD DUP2 PUSH1 0xFF MUL NOT AND SWAP1 DUP4 ISZERO ISZERO MUL OR SWAP1 SSTORE POP JUMPDEST PUSH2 0x2617 DUP11 PUSH2 0x3E0F JUMP JUMPDEST PUSH2 0x2710 DUP8 GT ISZERO PUSH2 0x2653 JUMPI PUSH1 0x40 MLOAD PUSH32 0xCE43144600000000000000000000000000000000000000000000000000000000 DUP2 MSTORE PUSH1 0x4 ADD PUSH1 0x40 MLOAD DUP1 SWAP2 SUB SWAP1 REVERT JUMPDEST PUSH2 0x2710 DUP7 GT ISZERO PUSH2 0x268F JUMPI PUSH1 0x40 MLOAD PUSH32 0xB089E48E00000000000000000000000000000000000000000000000000000000 DUP2 MSTORE PUSH1 0x4 ADD PUSH1 0x40 MLOAD DUP1 SWAP2 SUB SWAP1 REVERT JUMPDEST PUSH1 0x0 PUSH20 0xFFFFFFFFFFFFFFFFFFFFFFFFFFFFFFFFFFFFFFFF AND DUP9 PUSH20 0xFFFFFFFFFFFFFFFFFFFFFFFFFFFFFFFFFFFFFFFF AND SUB PUSH2 0x26F5 JUMPI PUSH1 0x40 MLOAD PUSH32 0xCFE2EA6300000000000000000000000000000000000000000000000000000000 DUP2 MSTORE PUSH1 0x4 ADD PUSH1 0x40 MLOAD DUP1 SWAP2 SUB SWAP1 REVERT JUMPDEST DUP7 PUSH1 0x6 DUP2 SWAP1 SSTORE POP DUP6 PUSH1 0x7 DUP2 SWAP1 SSTORE POP DUP8 PUSH1 0x5 PUSH1 0x0 PUSH2 0x100 EXP DUP2 SLOAD DUP2 PUSH20 0xFFFFFFFFFFFFFFFFFFFFFFFFFFFFFFFFFFFFFFFF MUL NOT AND SWAP1 DUP4 PUSH20 0xFFFFFFFFFFFFFFFFFFFFFFFFFFFFFFFFFFFFFFFF AND MUL OR SWAP1 SSTORE POP DUP9 PUSH1 0x4 PUSH1 0x0 PUSH2 0x100 EXP DUP2 SLOAD DUP2 PUSH20 0xFFFFFFFFFFFFFFFFFFFFFFFFFFFFFFFFFFFFFFFF MUL NOT AND SWAP1 DUP4 PUSH20 0xFFFFFFFFFFFFFFFFFFFFFFFFFFFFFFFFFFFFFFFF AND MUL OR SWAP1 SSTORE POP DUP4 ISZERO PUSH2 0x27E1 JUMPI PUSH1 0x0 DUP6 PUSH1 0x0 ADD PUSH1 0x8 PUSH2 0x100 EXP DUP2 SLOAD DUP2 PUSH1 0xFF MUL NOT AND SWAP1 DUP4 ISZERO ISZERO MUL OR SWAP1 SSTORE POP PUSH32 0xC7F505B2F371AE2175EE4913F4499E1F2633A7B5936321EED1CDAEB6115181D2 PUSH1 0x1 PUSH1 0x40 MLOAD PUSH2 0x27D8 SWAP2 SWAP1 PUSH2 0x526E JUMP JUMPDEST PUSH1 0x40 MLOAD DUP1 SWAP2 SUB SWAP1 LOG1 JUMPDEST POP POP POP POP POP POP POP POP POP POP JUMP JUMPDEST PUSH1 0x8 PUSH1 0x20 MSTORE DUP2 PUSH1 0x0 MSTORE PUSH1 0x40 PUSH1 0x0 KECCAK256 PUSH1 0x20 MSTORE DUP1 PUSH1 0x0 MSTORE PUSH1 0x40 PUSH1 0x0 KECCAK256 PUSH1 0x0 SWAP2 POP SWAP2 POP POP SLOAD DUP2 JUMP JUMPDEST PUSH1 0x0 PUSH2 0x281C PUSH2 0x31D6 JUMP JUMPDEST PUSH2 0x2824 PUSH2 0x3195 JUMP JUMPDEST DUP2 PUSH1 0x60 ADD PUSH1 0x0 ADD PUSH1 0x20 DUP2 ADD SWAP1 PUSH2 0x283A SWAP2 SWAP1 PUSH2 0x44F4 JUMP JUMPDEST PUSH20 0xFFFFFFFFFFFFFFFFFFFFFFFFFFFFFFFFFFFFFFFF AND DUP3 PUSH1 0x20 ADD PUSH1 0x0 ADD PUSH1 0x20 DUP2 ADD SWAP1 PUSH2 0x2866 SWAP2 SWAP1 PUSH2 0x44F4 JUMP JUMPDEST PUSH20 0xFFFFFFFFFFFFFFFFFFFFFFFFFFFFFFFFFFFFFFFF AND SUB PUSH2 0x28B3 JUMPI PUSH1 0x40 MLOAD PUSH32 0x45B3A4C700000000000000000000000000000000000000000000000000000000 DUP2 MSTORE PUSH1 0x4 ADD PUSH1 0x40 MLOAD DUP1 SWAP2 SUB SWAP1 REVERT JUMPDEST DUP2 DUP1 CALLDATASIZE SUB DUP2 ADD SWAP1 PUSH2 0x28C4 SWAP2 SWAP1 PUSH2 0x53D1 JUMP JUMPDEST PUSH20 0x0 PUSH4 0x9A0EBE00 SWAP1 SWAP2 PUSH1 0x40 MLOAD DUP3 PUSH4 0xFFFFFFFF AND PUSH1 0xE0 SHL DUP2 MSTORE PUSH1 0x4 ADD PUSH2 0x28FC SWAP2 SWAP1 PUSH2 0x54E1 JUMP JUMPDEST PUSH1 0x0 PUSH1 0x40 MLOAD DUP1 DUP4 SUB DUP2 DUP7 DUP1 EXTCODESIZE ISZERO DUP1 ISZERO PUSH2 0x2914 JUMPI PUSH1 0x0 DUP1 REVERT JUMPDEST POP GAS DELEGATECALL ISZERO DUP1 ISZERO PUSH2 0x2928 JUMPI RETURNDATASIZE PUSH1 0x0 DUP1 RETURNDATACOPY RETURNDATASIZE PUSH1 0x0 REVERT JUMPDEST POP POP POP POP PUSH1 0x0 DUP3 PUSH1 0x0 ADD CALLDATALOAD PUSH20 0x0 PUSH4 0xD81AB44F SWAP1 SWAP2 ADDRESS PUSH1 0x40 MLOAD DUP4 PUSH4 0xFFFFFFFF AND PUSH1 0xE0 SHL DUP2 MSTORE PUSH1 0x4 ADD PUSH2 0x296D SWAP3 SWAP2 SWAP1 PUSH2 0x550C JUMP JUMPDEST PUSH1 0x20 PUSH1 0x40 MLOAD DUP1 DUP4 SUB DUP2 DUP7 GAS DELEGATECALL ISZERO DUP1 ISZERO PUSH2 0x298A JUMPI RETURNDATASIZE PUSH1 0x0 DUP1 RETURNDATACOPY RETURNDATASIZE PUSH1 0x0 REVERT JUMPDEST POP POP POP POP PUSH1 0x40 MLOAD RETURNDATASIZE PUSH1 0x1F NOT PUSH1 0x1F DUP3 ADD AND DUP3 ADD DUP1 PUSH1 0x40 MSTORE POP DUP2 ADD SWAP1 PUSH2 0x29AE SWAP2 SWAP1 PUSH2 0x554A JUMP JUMPDEST SWAP1 POP PUSH1 0x1 PUSH20 0x0 PUSH4 0x2296D7E0 SWAP1 SWAP2 DUP6 DUP5 CALLER PUSH1 0x40 MLOAD DUP6 PUSH4 0xFFFFFFFF AND PUSH1 0xE0 SHL DUP2 MSTORE PUSH1 0x4 ADD PUSH2 0x29F0 SWAP5 SWAP4 SWAP3 SWAP2 SWAP1 PUSH2 0x56C5 JUMP JUMPDEST PUSH1 0x0 PUSH1 0x40 MLOAD DUP1 DUP4 SUB DUP2 DUP7 DUP1 EXTCODESIZE ISZERO DUP1 ISZERO PUSH2 0x2A08 JUMPI PUSH1 0x0 DUP1 REVERT JUMPDEST POP GAS DELEGATECALL ISZERO DUP1 ISZERO PUSH2 0x2A1C JUMPI RETURNDATASIZE PUSH1 0x0 DUP1 RETURNDATACOPY RETURNDATASIZE PUSH1 0x0 REVERT JUMPDEST POP POP POP POP PUSH1 0x0 PUSH20 0xFFFFFFFFFFFFFFFFFFFFFFFFFFFFFFFFFFFFFFFF AND DUP4 PUSH1 0x20 ADD PUSH1 0x0 ADD PUSH1 0x20 DUP2 ADD SWAP1 PUSH2 0x2A4E SWAP2 SWAP1 PUSH2 0x44F4 JUMP JUMPDEST PUSH20 0xFFFFFFFFFFFFFFFFFFFFFFFFFFFFFFFFFFFFFFFF AND SUB PUSH2 0x2AC3 JUMPI DUP3 PUSH1 0x20 ADD PUSH1 0x20 ADD CALLDATALOAD CALLVALUE LT ISZERO PUSH2 0x2ABE JUMPI CALLVALUE DUP4 PUSH1 0x20 ADD PUSH1 0x20 ADD CALLDATALOAD PUSH1 0x40 MLOAD PUSH32 0x4157BB400000000000000000000000000000000000000000000000000000000 DUP2 MSTORE PUSH1 0x4 ADD PUSH2 0x2AB5 SWAP3 SWAP2 SWAP1 PUSH2 0x48F4 JUMP JUMPDEST PUSH1 0x40 MLOAD DUP1 SWAP2 SUB SWAP1 REVERT JUMPDEST PUSH2 0x2AEC JUMP JUMPDEST PUSH2 0x2AEB DUP4 PUSH1 0x20 ADD PUSH1 0x0 ADD PUSH1 0x20 DUP2 ADD SWAP1 PUSH2 0x2ADC SWAP2 SWAP1 PUSH2 0x44F4 JUMP JUMPDEST CALLER ADDRESS DUP7 PUSH1 0x20 ADD PUSH1 0x20 ADD CALLDATALOAD PUSH2 0x3725 JUMP JUMPDEST JUMPDEST DUP1 PUSH32 0x8B82D32987F9A4AE1BC7868A6F104EDB711227EC3C9FCCB0416A14FCC29BEC5A PUSH1 0x40 MLOAD PUSH1 0x40 MLOAD DUP1 SWAP2 SUB SWAP1 LOG2 DUP1 SWAP2 POP POP PUSH2 0x2B25 PUSH2 0x370C JUMP JUMPDEST SWAP2 SWAP1 POP JUMP JUMPDEST PUSH2 0x2B33 DUP3 PUSH2 0x17E9 JUMP JUMPDEST PUSH2 0x2B3C DUP2 PUSH2 0x3886 JUMP JUMPDEST PUSH2 0x2B46 DUP4 DUP4 PUSH2 0x39A3 JUMP JUMPDEST POP POP POP POP JUMP JUMPDEST PUSH2 0x2B54 PUSH2 0x3195 JUMP JUMPDEST PUSH2 0x2B5C PUSH2 0x31D6 JUMP JUMPDEST DUP1 PUSH1 0x0 PUSH20 0xFFFFFFFFFFFFFFFFFFFFFFFFFFFFFFFFFFFFFFFF AND PUSH1 0x1 PUSH1 0x0 DUP4 DUP2 MSTORE PUSH1 0x20 ADD SWAP1 DUP2 MSTORE PUSH1 0x20 ADD PUSH1 0x0 KECCAK256 PUSH1 0x1 ADD PUSH1 0x1 SWAP1 SLOAD SWAP1 PUSH2 0x100 EXP SWAP1 DIV PUSH20 0xFFFFFFFFFFFFFFFFFFFFFFFFFFFFFFFFFFFFFFFF AND PUSH20 0xFFFFFFFFFFFFFFFFFFFFFFFFFFFFFFFFFFFFFFFF AND SUB PUSH2 0x2BF9 JUMPI PUSH1 0x40 MLOAD PUSH32 0x5DCAF2D700000000000000000000000000000000000000000000000000000000 DUP2 MSTORE PUSH1 0x4 ADD PUSH1 0x40 MLOAD DUP1 SWAP2 SUB SWAP1 REVERT JUMPDEST PUSH1 0x0 PUSH1 0x3 PUSH1 0x0 DUP5 DUP2 MSTORE PUSH1 0x20 ADD SWAP1 DUP2 MSTORE PUSH1 0x20 ADD PUSH1 0x0 KECCAK256 PUSH1 0x0 CALLER PUSH20 0xFFFFFFFFFFFFFFFFFFFFFFFFFFFFFFFFFFFFFFFF AND PUSH20 0xFFFFFFFFFFFFFFFFFFFFFFFFFFFFFFFFFFFFFFFF AND DUP2 MSTORE PUSH1 0x20 ADD SWAP1 DUP2 MSTORE PUSH1 0x20 ADD PUSH1 0x0 KECCAK256 SWAP1 POP CALLER PUSH20 0xFFFFFFFFFFFFFFFFFFFFFFFFFFFFFFFFFFFFFFFF AND DUP2 PUSH1 0x2 ADD PUSH1 0x1 SWAP1 SLOAD SWAP1 PUSH2 0x100 EXP SWAP1 DIV PUSH20 0xFFFFFFFFFFFFFFFFFFFFFFFFFFFFFFFFFFFFFFFF AND PUSH20 0xFFFFFFFFFFFFFFFFFFFFFFFFFFFFFFFFFFFFFFFF AND EQ PUSH2 0x2CD6 JUMPI PUSH1 0x40 MLOAD PUSH32 0x978F045600000000000000000000000000000000000000000000000000000000 DUP2 MSTORE PUSH1 0x4 ADD PUSH1 0x40 MLOAD DUP1 SWAP2 SUB SWAP1 REVERT JUMPDEST PUSH1 0x2 DUP1 DUP2 GT ISZERO PUSH2 0x2CE9 JUMPI PUSH2 0x2CE8 PUSH2 0x47A1 JUMP JUMPDEST JUMPDEST DUP2 PUSH1 0x2 ADD PUSH1 0x0 SWAP1 SLOAD SWAP1 PUSH2 0x100 EXP SWAP1 DIV PUSH1 0xFF AND PUSH1 0x2 DUP2 GT ISZERO PUSH2 0x2D0D JUMPI PUSH2 0x2D0C PUSH2 0x47A1 JUMP JUMPDEST JUMPDEST EQ PUSH2 0x2D60 JUMPI DUP1 PUSH1 0x2 ADD PUSH1 0x0 SWAP1 SLOAD SWAP1 PUSH2 0x100 EXP SWAP1 DIV PUSH1 0xFF AND PUSH1 0x40 MLOAD PUSH32 0x64B08C0600000000000000000000000000000000000000000000000000000000 DUP2 MSTORE PUSH1 0x4 ADD PUSH2 0x2D57 SWAP2 SWAP1 PUSH2 0x4B6D JUMP JUMPDEST PUSH1 0x40 MLOAD DUP1 SWAP2 SUB SWAP1 REVERT JUMPDEST PUSH1 0x0 DUP2 PUSH1 0x2 ADD PUSH1 0x0 PUSH2 0x100 EXP DUP2 SLOAD DUP2 PUSH1 0xFF MUL NOT AND SWAP1 DUP4 PUSH1 0x2 DUP2 GT ISZERO PUSH2 0x2D88 JUMPI PUSH2 0x2D87 PUSH2 0x47A1 JUMP JUMPDEST JUMPDEST MUL OR SWAP1 SSTORE POP PUSH1 0x0 PUSH1 0x1 PUSH1 0x0 DUP6 DUP2 MSTORE PUSH1 0x20 ADD SWAP1 DUP2 MSTORE PUSH1 0x20 ADD PUSH1 0x0 KECCAK256 PUSH1 0x5 ADD SWAP1 POP PUSH1 0x0 PUSH20 0xFFFFFFFFFFFFFFFFFFFFFFFFFFFFFFFFFFFFFFFF AND DUP2 PUSH1 0x0 ADD PUSH1 0x0 SWAP1 SLOAD SWAP1 PUSH2 0x100 EXP SWAP1 DIV PUSH20 0xFFFFFFFFFFFFFFFFFFFFFFFFFFFFFFFFFFFFFFFF AND PUSH20 0xFFFFFFFFFFFFFFFFFFFFFFFFFFFFFFFFFFFFFFFF AND EQ PUSH2 0x2E5B JUMPI PUSH2 0x2E56 DUP2 PUSH1 0x0 ADD PUSH1 0x0 SWAP1 SLOAD SWAP1 PUSH2 0x100 EXP SWAP1 DIV PUSH20 0xFFFFFFFFFFFFFFFFFFFFFFFFFFFFFFFFFFFFFFFF AND DUP4 PUSH1 0x2 ADD PUSH1 0x1 SWAP1 SLOAD SWAP1 PUSH2 0x100 EXP SWAP1 DIV PUSH20 0xFFFFFFFFFFFFFFFFFFFFFFFFFFFFFFFFFFFFFFFF AND DUP5 PUSH1 0x0 ADD SLOAD PUSH2 0x3BA5 JUMP JUMPDEST PUSH2 0x2E6A JUMP JUMPDEST PUSH2 0x2E69 CALLER DUP4 PUSH1 0x0 ADD SLOAD PUSH2 0x3AA5 JUMP JUMPDEST JUMPDEST DUP2 PUSH1 0x2 ADD PUSH1 0x1 SWAP1 SLOAD SWAP1 PUSH2 0x100 EXP SWAP1 DIV PUSH20 0xFFFFFFFFFFFFFFFFFFFFFFFFFFFFFFFFFFFFFFFF AND PUSH20 0xFFFFFFFFFFFFFFFFFFFFFFFFFFFFFFFFFFFFFFFF AND DUP5 PUSH32 0x6C2A0BB8117ECFBC53A4385A5421BE8EB081718159B9EB3D7C273ECB07FE7CFD PUSH1 0x40 MLOAD PUSH1 0x40 MLOAD DUP1 SWAP2 SUB SWAP1 LOG3 POP POP POP PUSH2 0x2EDD PUSH2 0x370C JUMP JUMPDEST POP JUMP JUMPDEST PUSH32 0x65D7A28E3265B37A6474929F336521B332C1681B933F6CB9F3376673440D862A DUP2 JUMP JUMPDEST PUSH2 0x2F11 PUSH1 0x0 DUP1 SHL CALLER PUSH2 0x246C JUMP JUMPDEST PUSH2 0x2F50 JUMPI PUSH1 0x40 MLOAD PUSH32 0x8C379A000000000000000000000000000000000000000000000000000000000 DUP2 MSTORE PUSH1 0x4 ADD PUSH2 0x2F47 SWAP1 PUSH2 0x51FF JUMP JUMPDEST PUSH1 0x40 MLOAD DUP1 SWAP2 SUB SWAP1 REVERT JUMPDEST PUSH1 0x0 DUP2 GT PUSH2 0x2F93 JUMPI PUSH1 0x40 MLOAD PUSH32 0x8C379A000000000000000000000000000000000000000000000000000000000 DUP2 MSTORE PUSH1 0x4 ADD PUSH2 0x2F8A SWAP1 PUSH2 0x5759 JUMP JUMPDEST PUSH1 0x40 MLOAD DUP1 SWAP2 SUB SWAP1 REVERT JUMPDEST DUP1 PUSH1 0x0 DUP2 SWAP1 SSTORE POP POP JUMP JUMPDEST PUSH1 0x1 PUSH1 0x20 MSTORE DUP1 PUSH1 0x0 MSTORE PUSH1 0x40 PUSH1 0x0 KECCAK256 PUSH1 0x0 SWAP2 POP SWAP1 POP DUP1 PUSH1 0x0 ADD SLOAD SWAP1 DUP1 PUSH1 0x1 ADD PUSH1 0x0 SWAP1 SLOAD SWAP1 PUSH2 0x100 EXP SWAP1 DIV PUSH1 0xFF AND SWAP1 DUP1 PUSH1 0x1 ADD PUSH1 0x1 SWAP1 SLOAD SWAP1 PUSH2 0x100 EXP SWAP1 DIV PUSH20 0xFFFFFFFFFFFFFFFFFFFFFFFFFFFFFFFFFFFFFFFF AND SWAP1 DUP1 PUSH1 0x2 ADD PUSH1 0x40 MLOAD DUP1 PUSH1 0x40 ADD PUSH1 0x40 MSTORE SWAP1 DUP2 PUSH1 0x0 DUP3 ADD PUSH1 0x0 SWAP1 SLOAD SWAP1 PUSH2 0x100 EXP SWAP1 DIV PUSH20 0xFFFFFFFFFFFFFFFFFFFFFFFFFFFFFFFFFFFFFFFF AND PUSH20 0xFFFFFFFFFFFFFFFFFFFFFFFFFFFFFFFFFFFFFFFF AND PUSH20 0xFFFFFFFFFFFFFFFFFFFFFFFFFFFFFFFFFFFFFFFF AND DUP2 MSTORE PUSH1 0x20 ADD PUSH1 0x1 DUP3 ADD SLOAD DUP2 MSTORE POP POP SWAP1 DUP1 PUSH1 0x4 ADD PUSH1 0x0 SWAP1 SLOAD SWAP1 PUSH2 0x100 EXP SWAP1 DIV PUSH20 0xFFFFFFFFFFFFFFFFFFFFFFFFFFFFFFFFFFFFFFFF AND SWAP1 DUP1 PUSH1 0x5 ADD PUSH1 0x40 MLOAD DUP1 PUSH1 0x40 ADD PUSH1 0x40 MSTORE SWAP1 DUP2 PUSH1 0x0 DUP3 ADD PUSH1 0x0 SWAP1 SLOAD SWAP1 PUSH2 0x100 EXP SWAP1 DIV PUSH20 0xFFFFFFFFFFFFFFFFFFFFFFFFFFFFFFFFFFFFFFFF AND PUSH20 0xFFFFFFFFFFFFFFFFFFFFFFFFFFFFFFFFFFFFFFFF AND PUSH20 0xFFFFFFFFFFFFFFFFFFFFFFFFFFFFFFFFFFFFFFFF AND DUP2 MSTORE PUSH1 0x20 ADD PUSH1 0x1 DUP3 ADD SLOAD DUP2 MSTORE POP POP SWAP1 DUP1 PUSH1 0x7 ADD SLOAD SWAP1 DUP1 PUSH1 0x8 ADD SLOAD SWAP1 DUP1 PUSH1 0x9 ADD SLOAD SWAP1 DUP1 PUSH1 0xA ADD SLOAD SWAP1 DUP1 PUSH1 0xB ADD SLOAD SWAP1 DUP1 PUSH1 0xC ADD PUSH1 0x0 SWAP1 SLOAD SWAP1 PUSH2 0x100 EXP SWAP1 DIV PUSH1 0xFF AND SWAP1 POP DUP13 JUMP JUMPDEST PUSH1 0x0 PUSH32 0x1FFC9A700000000000000000000000000000000000000000000000000000000 PUSH28 0xFFFFFFFFFFFFFFFFFFFFFFFFFFFFFFFFFFFFFFFFFFFFFFFFFFFFFFFF NOT AND DUP3 PUSH28 0xFFFFFFFFFFFFFFFFFFFFFFFFFFFFFFFFFFFFFFFFFFFFFFFFFFFFFFFF NOT AND EQ SWAP1 POP SWAP2 SWAP1 POP JUMP JUMPDEST PUSH2 0x319D PUSH2 0x22AD JUMP JUMPDEST ISZERO PUSH2 0x31D4 JUMPI PUSH1 0x40 MLOAD PUSH32 0xD93C066500000000000000000000000000000000000000000000000000000000 DUP2 MSTORE PUSH1 0x4 ADD PUSH1 0x40 MLOAD DUP1 SWAP2 SUB SWAP1 REVERT JUMPDEST JUMP JUMPDEST PUSH1 0x0 PUSH2 0x31E0 PUSH2 0x3FBE JUMP JUMPDEST SWAP1 POP PUSH1 0x2 DUP2 PUSH1 0x0 ADD SLOAD SUB PUSH2 0x3220 JUMPI PUSH1 0x40 MLOAD PUSH32 0x3EE5AEB500000000000000000000000000000000000000000000000000000000 DUP2 MSTORE PUSH1 0x4 ADD PUSH1 0x40 MLOAD DUP1 SWAP2 SUB SWAP1 REVERT JUMPDEST PUSH1 0x2 DUP2 PUSH1 0x0 ADD DUP2 SWAP1 SSTORE POP POP JUMP JUMPDEST PUSH1 0x0 PUSH1 0x2 PUSH1 0x0 DUP5 PUSH1 0x0 ADD SLOAD DUP2 MSTORE PUSH1 0x20 ADD SWAP1 DUP2 MSTORE PUSH1 0x20 ADD PUSH1 0x0 KECCAK256 DUP1 SLOAD DUP1 PUSH1 0x20 MUL PUSH1 0x20 ADD PUSH1 0x40 MLOAD SWAP1 DUP2 ADD PUSH1 0x40 MSTORE DUP1 SWAP3 SWAP2 SWAP1 DUP2 DUP2 MSTORE PUSH1 0x20 ADD PUSH1 0x0 SWAP1 JUMPDEST DUP3 DUP3 LT ISZERO PUSH2 0x32AC JUMPI DUP4 DUP3 SWAP1 PUSH1 0x0 MSTORE PUSH1 0x20 PUSH1 0x0 KECCAK256 SWAP1 PUSH1 0x2 MUL ADD PUSH1 0x40 MLOAD DUP1 PUSH1 0x40 ADD PUSH1 0x40 MSTORE SWAP1 DUP2 PUSH1 0x0 DUP3 ADD SLOAD DUP2 MSTORE PUSH1 0x20 ADD PUSH1 0x1 DUP3 ADD SLOAD DUP2 MSTORE POP POP DUP2 MSTORE PUSH1 0x20 ADD SWAP1 PUSH1 0x1 ADD SWAP1 PUSH2 0x3266 JUMP JUMPDEST POP POP POP POP SWAP1 POP PUSH1 0x0 DUP2 MLOAD SUB PUSH2 0x339D JUMPI DUP3 PUSH1 0x2 ADD PUSH1 0x0 ADD PUSH1 0x0 SWAP1 SLOAD SWAP1 PUSH2 0x100 EXP SWAP1 DIV PUSH20 0xFFFFFFFFFFFFFFFFFFFFFFFFFFFFFFFFFFFFFFFF AND PUSH20 0xFFFFFFFFFFFFFFFFFFFFFFFFFFFFFFFFFFFFFFFF AND PUSH20 0x0 PUSH4 0x6CF2280 SWAP1 SWAP2 DUP5 DUP7 PUSH1 0x2 ADD PUSH1 0x1 ADD SLOAD PUSH1 0x7 SLOAD PUSH2 0x2710 PUSH1 0x5 PUSH1 0x0 SWAP1 SLOAD SWAP1 PUSH2 0x100 EXP SWAP1 DIV PUSH20 0xFFFFFFFFFFFFFFFFFFFFFFFFFFFFFFFFFFFFFFFF AND PUSH1 0x40 MLOAD DUP8 PUSH4 0xFFFFFFFF AND PUSH1 0xE0 SHL DUP2 MSTORE PUSH1 0x4 ADD PUSH2 0x3368 SWAP7 SWAP6 SWAP5 SWAP4 SWAP3 SWAP2 SWAP1 PUSH2 0x4BA6 JUMP JUMPDEST PUSH1 0x0 PUSH1 0x40 MLOAD DUP1 DUP4 SUB DUP2 DUP7 DUP1 EXTCODESIZE ISZERO DUP1 ISZERO PUSH2 0x3380 JUMPI PUSH1 0x0 DUP1 REVERT JUMPDEST POP GAS DELEGATECALL ISZERO DUP1 ISZERO PUSH2 0x3394 JUMPI RETURNDATASIZE PUSH1 0x0 DUP1 RETURNDATACOPY RETURNDATASIZE PUSH1 0x0 REVERT JUMPDEST POP POP POP POP PUSH2 0x3707 JUMP JUMPDEST PUSH1 0x0 PUSH2 0x2710 PUSH1 0x7 SLOAD DUP6 PUSH1 0x2 ADD PUSH1 0x1 ADD SLOAD PUSH2 0x33B7 SWAP2 SWAP1 PUSH2 0x5779 JUMP JUMPDEST PUSH2 0x33C1 SWAP2 SWAP1 PUSH2 0x57EA JUMP JUMPDEST SWAP1 POP PUSH1 0x0 DUP2 DUP6 PUSH1 0x2 ADD PUSH1 0x1 ADD SLOAD PUSH2 0x33D8 SWAP2 SWAP1 PUSH2 0x581B JUMP JUMPDEST SWAP1 POP PUSH1 0x0 PUSH20 0xFFFFFFFFFFFFFFFFFFFFFFFFFFFFFFFFFFFFFFFF AND DUP6 PUSH1 0x2 ADD PUSH1 0x0 ADD PUSH1 0x0 SWAP1 SLOAD SWAP1 PUSH2 0x100 EXP SWAP1 DIV PUSH20 0xFFFFFFFFFFFFFFFFFFFFFFFFFFFFFFFFFFFFFFFF AND PUSH20 0xFFFFFFFFFFFFFFFFFFFFFFFFFFFFFFFFFFFFFFFF AND SUB PUSH2 0x3527 JUMPI PUSH2 0x3461 PUSH1 0x5 PUSH1 0x0 SWAP1 SLOAD SWAP1 PUSH2 0x100 EXP SWAP1 DIV PUSH20 0xFFFFFFFFFFFFFFFFFFFFFFFFFFFFFFFFFFFFFFFF AND DUP4 PUSH2 0x3AA5 JUMP JUMPDEST PUSH1 0x4 PUSH1 0x0 SWAP1 SLOAD SWAP1 PUSH2 0x100 EXP SWAP1 DIV PUSH20 0xFFFFFFFFFFFFFFFFFFFFFFFFFFFFFFFFFFFFFFFF AND PUSH20 0xFFFFFFFFFFFFFFFFFFFFFFFFFFFFFFFFFFFFFFFF AND PUSH4 0x7623F00E DUP3 DUP8 PUSH1 0x0 ADD SLOAD DUP8 DUP10 PUSH1 0x2 ADD PUSH1 0x0 ADD PUSH1 0x0 SWAP1 SLOAD SWAP1 PUSH2 0x100 EXP SWAP1 DIV PUSH20 0xFFFFFFFFFFFFFFFFFFFFFFFFFFFFFFFFFFFFFFFF AND DUP7 DUP10 PUSH1 0x40 MLOAD DUP8 PUSH4 0xFFFFFFFF AND PUSH1 0xE0 SHL DUP2 MSTORE PUSH1 0x4 ADD PUSH2 0x34F0 SWAP6 SWAP5 SWAP4 SWAP3 SWAP2 SWAP1 PUSH2 0x5905 JUMP JUMPDEST PUSH1 0x0 PUSH1 0x40 MLOAD DUP1 DUP4 SUB DUP2 DUP6 DUP9 DUP1 EXTCODESIZE ISZERO DUP1 ISZERO PUSH2 0x3509 JUMPI PUSH1 0x0 DUP1 REVERT JUMPDEST POP GAS CALL ISZERO DUP1 ISZERO PUSH2 0x351D JUMPI RETURNDATASIZE PUSH1 0x0 DUP1 RETURNDATACOPY RETURNDATASIZE PUSH1 0x0 REVERT JUMPDEST POP POP POP POP POP PUSH2 0x3704 JUMP JUMPDEST PUSH2 0x357B DUP6 PUSH1 0x2 ADD PUSH1 0x0 ADD PUSH1 0x0 SWAP1 SLOAD SWAP1 PUSH2 0x100 EXP SWAP1 DIV PUSH20 0xFFFFFFFFFFFFFFFFFFFFFFFFFFFFFFFFFFFFFFFF AND PUSH1 0x5 PUSH1 0x0 SWAP1 SLOAD SWAP1 PUSH2 0x100 EXP SWAP1 DIV PUSH20 0xFFFFFFFFFFFFFFFFFFFFFFFFFFFFFFFFFFFFFFFF AND DUP5 PUSH2 0x3BA5 JUMP JUMPDEST DUP5 PUSH1 0x2 ADD PUSH1 0x0 ADD PUSH1 0x0 SWAP1 SLOAD SWAP1 PUSH2 0x100 EXP SWAP1 DIV PUSH20 0xFFFFFFFFFFFFFFFFFFFFFFFFFFFFFFFFFFFFFFFF AND PUSH20 0xFFFFFFFFFFFFFFFFFFFFFFFFFFFFFFFFFFFFFFFF AND PUSH4 0x95EA7B3 PUSH1 0x4 PUSH1 0x0 SWAP1 SLOAD SWAP1 PUSH2 0x100 EXP SWAP1 DIV PUSH20 0xFFFFFFFFFFFFFFFFFFFFFFFFFFFFFFFFFFFFFFFF AND DUP4 PUSH1 0x40 MLOAD DUP4 PUSH4 0xFFFFFFFF AND PUSH1 0xE0 SHL DUP2 MSTORE PUSH1 0x4 ADD PUSH2 0x35FF SWAP3 SWAP2 SWAP1 PUSH2 0x595F JUMP JUMPDEST PUSH1 0x20 PUSH1 0x40 MLOAD DUP1 DUP4 SUB DUP2 PUSH1 0x0 DUP8 GAS CALL ISZERO DUP1 ISZERO PUSH2 0x361E JUMPI RETURNDATASIZE PUSH1 0x0 DUP1 RETURNDATACOPY RETURNDATASIZE PUSH1 0x0 REVERT JUMPDEST POP POP POP POP PUSH1 0x40 MLOAD RETURNDATASIZE PUSH1 0x1F NOT PUSH1 0x1F DUP3 ADD AND DUP3 ADD DUP1 PUSH1 0x40 MSTORE POP DUP2 ADD SWAP1 PUSH2 0x3642 SWAP2 SWAP1 PUSH2 0x599D JUMP JUMPDEST POP PUSH1 0x4 PUSH1 0x0 SWAP1 SLOAD SWAP1 PUSH2 0x100 EXP SWAP1 DIV PUSH20 0xFFFFFFFFFFFFFFFFFFFFFFFFFFFFFFFFFFFFFFFF AND PUSH20 0xFFFFFFFFFFFFFFFFFFFFFFFFFFFFFFFFFFFFFFFF AND PUSH4 0x7623F00E DUP7 PUSH1 0x0 ADD SLOAD DUP7 DUP9 PUSH1 0x2 ADD PUSH1 0x0 ADD PUSH1 0x0 SWAP1 SLOAD SWAP1 PUSH2 0x100 EXP SWAP1 DIV PUSH20 0xFFFFFFFFFFFFFFFFFFFFFFFFFFFFFFFFFFFFFFFF AND DUP6 DUP9 PUSH1 0x40 MLOAD DUP7 PUSH4 0xFFFFFFFF AND PUSH1 0xE0 SHL DUP2 MSTORE PUSH1 0x4 ADD PUSH2 0x36D1 SWAP6 SWAP5 SWAP4 SWAP3 SWAP2 SWAP1 PUSH2 0x5905 JUMP JUMPDEST PUSH1 0x0 PUSH1 0x40 MLOAD DUP1 DUP4 SUB DUP2 PUSH1 0x0 DUP8 DUP1 EXTCODESIZE ISZERO DUP1 ISZERO PUSH2 0x36EB JUMPI PUSH1 0x0 DUP1 REVERT JUMPDEST POP GAS CALL ISZERO DUP1 ISZERO PUSH2 0x36FF JUMPI RETURNDATASIZE PUSH1 0x0 DUP1 RETURNDATACOPY RETURNDATASIZE PUSH1 0x0 REVERT JUMPDEST POP POP POP POP JUMPDEST POP POP JUMPDEST POP POP POP JUMP JUMPDEST PUSH1 0x0 PUSH2 0x3716 PUSH2 0x3FBE JUMP JUMPDEST SWAP1 POP PUSH1 0x1 DUP2 PUSH1 0x0 ADD DUP2 SWAP1 SSTORE POP POP JUMP JUMPDEST PUSH1 0x0 DUP1 DUP6 PUSH20 0xFFFFFFFFFFFFFFFFFFFFFFFFFFFFFFFFFFFFFFFF AND PUSH4 0x23B872DD DUP7 DUP7 DUP7 PUSH1 0x40 MLOAD PUSH1 0x24 ADD PUSH2 0x3759 SWAP4 SWAP3 SWAP2 SWAP1 PUSH2 0x59CA JUMP JUMPDEST PUSH1 0x40 MLOAD PUSH1 0x20 DUP2 DUP4 SUB SUB DUP2 MSTORE SWAP1 PUSH1 0x40 MSTORE SWAP1 PUSH1 0xE0 SHL PUSH1 0x20 DUP3 ADD DUP1 MLOAD PUSH28 0xFFFFFFFFFFFFFFFFFFFFFFFFFFFFFFFFFFFFFFFFFFFFFFFFFFFFFFFF DUP4 DUP2 DUP4 AND OR DUP4 MSTORE POP POP POP POP PUSH1 0x40 MLOAD PUSH2 0x37A7 SWAP2 SWAP1 PUSH2 0x5A72 JUMP JUMPDEST PUSH1 0x0 PUSH1 0x40 MLOAD DUP1 DUP4 SUB DUP2 PUSH1 0x0 DUP7 GAS CALL SWAP2 POP POP RETURNDATASIZE DUP1 PUSH1 0x0 DUP2 EQ PUSH2 0x37E4 JUMPI PUSH1 0x40 MLOAD SWAP2 POP PUSH1 0x1F NOT PUSH1 0x3F RETURNDATASIZE ADD AND DUP3 ADD PUSH1 0x40 MSTORE RETURNDATASIZE DUP3 MSTORE RETURNDATASIZE PUSH1 0x0 PUSH1 0x20 DUP5 ADD RETURNDATACOPY PUSH2 0x37E9 JUMP JUMPDEST PUSH1 0x60 SWAP2 POP JUMPDEST POP SWAP2 POP SWAP2 POP DUP2 DUP1 ISZERO PUSH2 0x3817 JUMPI POP PUSH1 0x0 DUP2 MLOAD EQ DUP1 PUSH2 0x3816 JUMPI POP DUP1 DUP1 PUSH1 0x20 ADD SWAP1 MLOAD DUP2 ADD SWAP1 PUSH2 0x3815 SWAP2 SWAP1 PUSH2 0x599D JUMP JUMPDEST JUMPDEST JUMPDEST PUSH2 0x3856 JUMPI PUSH1 0x40 MLOAD PUSH32 0x8C379A000000000000000000000000000000000000000000000000000000000 DUP2 MSTORE PUSH1 0x4 ADD PUSH2 0x384D SWAP1 PUSH2 0x5AFB JUMP JUMPDEST PUSH1 0x40 MLOAD DUP1 SWAP2 SUB SWAP1 REVERT JUMPDEST POP POP POP POP POP POP JUMP JUMPDEST PUSH1 0x0 PUSH32 0x2DD7BC7DEC4DCEEDDA775E58DD541E08A116C6C53815C0BD028192F7B626800 SWAP1 POP SWAP1 JUMP JUMPDEST PUSH2 0x3897 DUP2 PUSH2 0x3892 PUSH2 0x399B JUMP JUMPDEST PUSH2 0x3FE6 JUMP JUMPDEST POP JUMP JUMPDEST PUSH1 0x0 DUP1 PUSH2 0x38A5 PUSH2 0x385E JUMP JUMPDEST SWAP1 POP PUSH2 0x38B1 DUP5 DUP5 PUSH2 0x246C JUMP JUMPDEST PUSH2 0x398F JUMPI PUSH1 0x1 DUP2 PUSH1 0x0 ADD PUSH1 0x0 DUP7 DUP2 MSTORE PUSH1 0x20 ADD SWAP1 DUP2 MSTORE PUSH1 0x20 ADD PUSH1 0x0 KECCAK256 PUSH1 0x0 ADD PUSH1 0x0 DUP6 PUSH20 0xFFFFFFFFFFFFFFFFFFFFFFFFFFFFFFFFFFFFFFFF AND PUSH20 0xFFFFFFFFFFFFFFFFFFFFFFFFFFFFFFFFFFFFFFFF AND DUP2 MSTORE PUSH1 0x20 ADD SWAP1 DUP2 MSTORE PUSH1 0x20 ADD PUSH1 0x0 KECCAK256 PUSH1 0x0 PUSH2 0x100 EXP DUP2 SLOAD DUP2 PUSH1 0xFF MUL NOT AND SWAP1 DUP4 ISZERO ISZERO MUL OR SWAP1 SSTORE POP PUSH2 0x392B PUSH2 0x399B JUMP JUMPDEST PUSH20 0xFFFFFFFFFFFFFFFFFFFFFFFFFFFFFFFFFFFFFFFF AND DUP4 PUSH20 0xFFFFFFFFFFFFFFFFFFFFFFFFFFFFFFFFFFFFFFFF AND DUP6 PUSH32 0x2F8788117E7EFF1D82E926EC794901D17C78024A50270940304540A733656F0D PUSH1 0x40 MLOAD PUSH1 0x40 MLOAD DUP1 SWAP2 SUB SWAP1 LOG4 PUSH1 0x1 SWAP2 POP POP PUSH2 0x3995 JUMP JUMPDEST PUSH1 0x0 SWAP2 POP POP JUMPDEST SWAP3 SWAP2 POP POP JUMP JUMPDEST PUSH1 0x0 CALLER SWAP1 POP SWAP1 JUMP JUMPDEST PUSH1 0x0 DUP1 PUSH2 0x39AE PUSH2 0x385E JUMP JUMPDEST SWAP1 POP PUSH2 0x39BA DUP5 DUP5 PUSH2 0x246C JUMP JUMPDEST ISZERO PUSH2 0x3A99 JUMPI PUSH1 0x0 DUP2 PUSH1 0x0 ADD PUSH1 0x0 DUP7 DUP2 MSTORE PUSH1 0x20 ADD SWAP1 DUP2 MSTORE PUSH1 0x20 ADD PUSH1 0x0 KECCAK256 PUSH1 0x0 ADD PUSH1 0x0 DUP6 PUSH20 0xFFFFFFFFFFFFFFFFFFFFFFFFFFFFFFFFFFFFFFFF AND PUSH20 0xFFFFFFFFFFFFFFFFFFFFFFFFFFFFFFFFFFFFFFFF AND DUP2 MSTORE PUSH1 0x20 ADD SWAP1 DUP2 MSTORE PUSH1 0x20 ADD PUSH1 0x0 KECCAK256 PUSH1 0x0 PUSH2 0x100 EXP DUP2 SLOAD DUP2 PUSH1 0xFF MUL NOT AND SWAP1 DUP4 ISZERO ISZERO MUL OR SWAP1 SSTORE POP PUSH2 0x3A35 PUSH2 0x399B JUMP JUMPDEST PUSH20 0xFFFFFFFFFFFFFFFFFFFFFFFFFFFFFFFFFFFFFFFF AND DUP4 PUSH20 0xFFFFFFFFFFFFFFFFFFFFFFFFFFFFFFFFFFFFFFFF AND DUP6 PUSH32 0xF6391F5C32D9C69D2A47EA670B442974B53935D1EDC7FD64EB21E047A839171B PUSH1 0x40 MLOAD PUSH1 0x40 MLOAD DUP1 SWAP2 SUB SWAP1 LOG4 PUSH1 0x1 SWAP2 POP POP PUSH2 0x3A9F JUMP JUMPDEST PUSH1 0x0 SWAP2 POP POP JUMPDEST SWAP3 SWAP2 POP POP JUMP JUMPDEST PUSH1 0x0 DUP3 PUSH20 0xFFFFFFFFFFFFFFFFFFFFFFFFFFFFFFFFFFFFFFFF AND DUP3 PUSH1 0x0 PUSH8 0xFFFFFFFFFFFFFFFF DUP2 GT ISZERO PUSH2 0x3ADA JUMPI PUSH2 0x3AD9 PUSH2 0x4DA3 JUMP JUMPDEST JUMPDEST PUSH1 0x40 MLOAD SWAP1 DUP1 DUP3 MSTORE DUP1 PUSH1 0x1F ADD PUSH1 0x1F NOT AND PUSH1 0x20 ADD DUP3 ADD PUSH1 0x40 MSTORE DUP1 ISZERO PUSH2 0x3B0C JUMPI DUP2 PUSH1 0x20 ADD PUSH1 0x1 DUP3 MUL DUP1 CALLDATASIZE DUP4 CALLDATACOPY DUP1 DUP3 ADD SWAP2 POP POP SWAP1 POP JUMPDEST POP PUSH1 0x40 MLOAD PUSH2 0x3B1A SWAP2 SWAP1 PUSH2 0x5A72 JUMP JUMPDEST PUSH1 0x0 PUSH1 0x40 MLOAD DUP1 DUP4 SUB DUP2 DUP6 DUP8 GAS CALL SWAP3 POP POP POP RETURNDATASIZE DUP1 PUSH1 0x0 DUP2 EQ PUSH2 0x3B57 JUMPI PUSH1 0x40 MLOAD SWAP2 POP PUSH1 0x1F NOT PUSH1 0x3F RETURNDATASIZE ADD AND DUP3 ADD PUSH1 0x40 MSTORE RETURNDATASIZE DUP3 MSTORE RETURNDATASIZE PUSH1 0x0 PUSH1 0x20 DUP5 ADD RETURNDATACOPY PUSH2 0x3B5C JUMP JUMPDEST PUSH1 0x60 SWAP2 POP JUMPDEST POP POP SWAP1 POP DUP1 PUSH2 0x3BA0 JUMPI PUSH1 0x40 MLOAD PUSH32 0x8C379A000000000000000000000000000000000000000000000000000000000 DUP2 MSTORE PUSH1 0x4 ADD PUSH2 0x3B97 SWAP1 PUSH2 0x5B8D JUMP JUMPDEST PUSH1 0x40 MLOAD DUP1 SWAP2 SUB SWAP1 REVERT JUMPDEST POP POP POP JUMP JUMPDEST PUSH1 0x0 DUP1 DUP5 PUSH20 0xFFFFFFFFFFFFFFFFFFFFFFFFFFFFFFFFFFFFFFFF AND PUSH4 0xA9059CBB DUP6 DUP6 PUSH1 0x40 MLOAD PUSH1 0x24 ADD PUSH2 0x3BD7 SWAP3 SWAP2 SWAP1 PUSH2 0x595F JUMP JUMPDEST PUSH1 0x40 MLOAD PUSH1 0x20 DUP2 DUP4 SUB SUB DUP2 MSTORE SWAP1 PUSH1 0x40 MSTORE SWAP1 PUSH1 0xE0 SHL PUSH1 0x20 DUP3 ADD DUP1 MLOAD PUSH28 0xFFFFFFFFFFFFFFFFFFFFFFFFFFFFFFFFFFFFFFFFFFFFFFFFFFFFFFFF DUP4 DUP2 DUP4 AND OR DUP4 MSTORE POP POP POP POP PUSH1 0x40 MLOAD PUSH2 0x3C25 SWAP2 SWAP1 PUSH2 0x5A72 JUMP JUMPDEST PUSH1 0x0 PUSH1 0x40 MLOAD DUP1 DUP4 SUB DUP2 PUSH1 0x0 DUP7 GAS CALL SWAP2 POP POP RETURNDATASIZE DUP1 PUSH1 0x0 DUP2 EQ PUSH2 0x3C62 JUMPI PUSH1 0x40 MLOAD SWAP2 POP PUSH1 0x1F NOT PUSH1 0x3F RETURNDATASIZE ADD AND DUP3 ADD PUSH1 0x40 MSTORE RETURNDATASIZE DUP3 MSTORE RETURNDATASIZE PUSH1 0x0 PUSH1 0x20 DUP5 ADD RETURNDATACOPY PUSH2 0x3C67 JUMP JUMPDEST PUSH1 0x60 SWAP2 POP JUMPDEST POP SWAP2 POP SWAP2 POP DUP2 DUP1 ISZERO PUSH2 0x3C95 JUMPI POP PUSH1 0x0 DUP2 MLOAD EQ DUP1 PUSH2 0x3C94 JUMPI POP DUP1 DUP1 PUSH1 0x20 ADD SWAP1 MLOAD DUP2 ADD SWAP1 PUSH2 0x3C93 SWAP2 SWAP1 PUSH2 0x599D JUMP JUMPDEST JUMPDEST JUMPDEST PUSH2 0x3CD4 JUMPI PUSH1 0x40 MLOAD PUSH32 0x8C379A000000000000000000000000000000000000000000000000000000000 DUP2 MSTORE PUSH1 0x4 ADD PUSH2 0x3CCB SWAP1 PUSH2 0x5C1F JUMP JUMPDEST PUSH1 0x40 MLOAD DUP1 SWAP2 SUB SWAP1 REVERT JUMPDEST POP POP POP POP POP JUMP JUMPDEST PUSH2 0x3CE3 PUSH2 0x4037 JUMP JUMPDEST PUSH1 0x0 PUSH2 0x3CED PUSH2 0x3D4D JUMP JUMPDEST SWAP1 POP PUSH1 0x0 DUP2 PUSH1 0x0 ADD PUSH1 0x0 PUSH2 0x100 EXP DUP2 SLOAD DUP2 PUSH1 0xFF MUL NOT AND SWAP1 DUP4 ISZERO ISZERO MUL OR SWAP1 SSTORE POP PUSH32 0x5DB9EE0A495BF2E6FF9C91A7834C1BA4FDD244A5E8AA4E537BD38AEAE4B073AA PUSH2 0x3D35 PUSH2 0x399B JUMP JUMPDEST PUSH1 0x40 MLOAD PUSH2 0x3D42 SWAP2 SWAP1 PUSH2 0x5C3F JUMP JUMPDEST PUSH1 0x40 MLOAD DUP1 SWAP2 SUB SWAP1 LOG1 POP JUMP JUMPDEST PUSH1 0x0 PUSH32 0xCD5ED15C6E187E77E9AEE88184C21F4F2182AB5827CB3B7E07FBEDCD63F03300 SWAP1 POP SWAP1 JUMP JUMPDEST PUSH2 0x3D7D PUSH2 0x3195 JUMP JUMPDEST PUSH1 0x0 PUSH2 0x3D87 PUSH2 0x3D4D JUMP JUMPDEST SWAP1 POP PUSH1 0x1 DUP2 PUSH1 0x0 ADD PUSH1 0x0 PUSH2 0x100 EXP DUP2 SLOAD DUP2 PUSH1 0xFF MUL NOT AND SWAP1 DUP4 ISZERO ISZERO MUL OR SWAP1 SSTORE POP PUSH32 0x62E78CEA01BEE320CD4E420270B5EA74000D11B0C9F74754EBDBFC544B05A258 PUSH2 0x3DCF PUSH2 0x399B JUMP JUMPDEST PUSH1 0x40 MLOAD PUSH2 0x3DDC SWAP2 SWAP1 PUSH2 0x5C3F JUMP JUMPDEST PUSH1 0x40 MLOAD DUP1 SWAP2 SUB SWAP1 LOG1 POP JUMP JUMPDEST PUSH1 0x0 PUSH32 0xF0C57E16840DF040F15088DC2F81FE391C3923BEC73E23A9662EFC9C229C6A00 SWAP1 POP SWAP1 JUMP JUMPDEST PUSH1 0x0 PUSH2 0x3E19 PUSH2 0x3DE7 JUMP JUMPDEST SWAP1 POP PUSH1 0x0 DUP2 PUSH1 0x0 ADD PUSH1 0x8 SWAP1 SLOAD SWAP1 PUSH2 0x100 EXP SWAP1 DIV PUSH1 0xFF AND ISZERO SWAP1 POP PUSH1 0x0 DUP3 PUSH1 0x0 ADD PUSH1 0x0 SWAP1 SLOAD SWAP1 PUSH2 0x100 EXP SWAP1 DIV PUSH8 0xFFFFFFFFFFFFFFFF AND SWAP1 POP PUSH1 0x0 DUP1 DUP3 PUSH8 0xFFFFFFFFFFFFFFFF AND EQ DUP1 ISZERO PUSH2 0x3E67 JUMPI POP DUP3 JUMPDEST SWAP1 POP PUSH1 0x0 PUSH1 0x1 DUP4 PUSH8 0xFFFFFFFFFFFFFFFF AND EQ DUP1 ISZERO PUSH2 0x3E9C JUMPI POP PUSH1 0x0 ADDRESS PUSH20 0xFFFFFFFFFFFFFFFFFFFFFFFFFFFFFFFFFFFFFFFF AND EXTCODESIZE EQ JUMPDEST SWAP1 POP DUP2 ISZERO DUP1 ISZERO PUSH2 0x3EAA JUMPI POP DUP1 ISZERO JUMPDEST ISZERO PUSH2 0x3EE1 JUMPI PUSH1 0x40 MLOAD PUSH32 0xF92EE8A900000000000000000000000000000000000000000000000000000000 DUP2 MSTORE PUSH1 0x4 ADD PUSH1 0x40 MLOAD DUP1 SWAP2 SUB SWAP1 REVERT JUMPDEST PUSH1 0x1 DUP6 PUSH1 0x0 ADD PUSH1 0x0 PUSH2 0x100 EXP DUP2 SLOAD DUP2 PUSH8 0xFFFFFFFFFFFFFFFF MUL NOT AND SWAP1 DUP4 PUSH8 0xFFFFFFFFFFFFFFFF AND MUL OR SWAP1 SSTORE POP DUP4 ISZERO PUSH2 0x3F31 JUMPI PUSH1 0x1 DUP6 PUSH1 0x0 ADD PUSH1 0x8 PUSH2 0x100 EXP DUP2 SLOAD DUP2 PUSH1 0xFF MUL NOT AND SWAP1 DUP4 ISZERO ISZERO MUL OR SWAP1 SSTORE POP JUMPDEST PUSH2 0x3F39 PUSH2 0x4077 JUMP JUMPDEST PUSH2 0x3F41 PUSH2 0x4081 JUMP JUMPDEST PUSH2 0x3F49 PUSH2 0x408B JUMP JUMPDEST PUSH2 0x3F52 DUP7 PUSH2 0x40BF JUMP JUMPDEST PUSH1 0x64 PUSH1 0x0 DUP2 SWAP1 SSTORE POP DUP4 ISZERO PUSH2 0x3FB6 JUMPI PUSH1 0x0 DUP6 PUSH1 0x0 ADD PUSH1 0x8 PUSH2 0x100 EXP DUP2 SLOAD DUP2 PUSH1 0xFF MUL NOT AND SWAP1 DUP4 ISZERO ISZERO MUL OR SWAP1 SSTORE POP PUSH32 0xC7F505B2F371AE2175EE4913F4499E1F2633A7B5936321EED1CDAEB6115181D2 PUSH1 0x1 PUSH1 0x40 MLOAD PUSH2 0x3FAD SWAP2 SWAP1 PUSH2 0x526E JUMP JUMPDEST PUSH1 0x40 MLOAD DUP1 SWAP2 SUB SWAP1 LOG1 JUMPDEST POP POP POP POP POP POP JUMP JUMPDEST PUSH1 0x0 PUSH32 0x9B779B17422D0DF92223018B32B4D1FA46E071723D6817E2486D003BECC55F00 SWAP1 POP SWAP1 JUMP JUMPDEST PUSH2 0x3FF0 DUP3 DUP3 PUSH2 0x246C JUMP JUMPDEST PUSH2 0x4033 JUMPI DUP1 DUP3 PUSH1 0x40 MLOAD PUSH32 0xE2517D3F00000000000000000000000000000000000000000000000000000000 DUP2 MSTORE PUSH1 0x4 ADD PUSH2 0x402A SWAP3 SWAP2 SWAP1 PUSH2 0x5C5A JUMP JUMPDEST PUSH1 0x40 MLOAD DUP1 SWAP2 SUB SWAP1 REVERT JUMPDEST POP POP JUMP JUMPDEST PUSH2 0x403F PUSH2 0x22AD JUMP JUMPDEST PUSH2 0x4075 JUMPI PUSH1 0x40 MLOAD PUSH32 0x8DFC202B00000000000000000000000000000000000000000000000000000000 DUP2 MSTORE PUSH1 0x4 ADD PUSH1 0x40 MLOAD DUP1 SWAP2 SUB SWAP1 REVERT JUMPDEST JUMP JUMPDEST PUSH2 0x407F PUSH2 0x427E JUMP JUMPDEST JUMP JUMPDEST PUSH2 0x4089 PUSH2 0x427E JUMP JUMPDEST JUMP JUMPDEST PUSH2 0x4093 PUSH2 0x427E JUMP JUMPDEST PUSH1 0x0 PUSH2 0x409D PUSH2 0x3D4D JUMP JUMPDEST SWAP1 POP PUSH1 0x0 DUP2 PUSH1 0x0 ADD PUSH1 0x0 PUSH2 0x100 EXP DUP2 SLOAD DUP2 PUSH1 0xFF MUL NOT AND SWAP1 DUP4 ISZERO ISZERO MUL OR SWAP1 SSTORE POP POP JUMP JUMPDEST PUSH1 0x0 PUSH2 0x40C9 PUSH2 0x3DE7 JUMP JUMPDEST SWAP1 POP PUSH1 0x0 DUP2 PUSH1 0x0 ADD PUSH1 0x8 SWAP1 SLOAD SWAP1 PUSH2 0x100 EXP SWAP1 DIV PUSH1 0xFF AND ISZERO SWAP1 POP PUSH1 0x0 DUP3 PUSH1 0x0 ADD PUSH1 0x0 SWAP1 SLOAD SWAP1 PUSH2 0x100 EXP SWAP1 DIV PUSH8 0xFFFFFFFFFFFFFFFF AND SWAP1 POP PUSH1 0x0 DUP1 DUP3 PUSH8 0xFFFFFFFFFFFFFFFF AND EQ DUP1 ISZERO PUSH2 0x4117 JUMPI POP DUP3 JUMPDEST SWAP1 POP PUSH1 0x0 PUSH1 0x1 DUP4 PUSH8 0xFFFFFFFFFFFFFFFF AND EQ DUP1 ISZERO PUSH2 0x414C JUMPI POP PUSH1 0x0 ADDRESS PUSH20 0xFFFFFFFFFFFFFFFFFFFFFFFFFFFFFFFFFFFFFFFF AND EXTCODESIZE EQ JUMPDEST SWAP1 POP DUP2 ISZERO DUP1 ISZERO PUSH2 0x415A JUMPI POP DUP1 ISZERO JUMPDEST ISZERO PUSH2 0x4191 JUMPI PUSH1 0x40 MLOAD PUSH32 0xF92EE8A900000000000000000000000000000000000000000000000000000000 DUP2 MSTORE PUSH1 0x4 ADD PUSH1 0x40 MLOAD DUP1 SWAP2 SUB SWAP1 REVERT JUMPDEST PUSH1 0x1 DUP6 PUSH1 0x0 ADD PUSH1 0x0 PUSH2 0x100 EXP DUP2 SLOAD DUP2 PUSH8 0xFFFFFFFFFFFFFFFF MUL NOT AND SWAP1 DUP4 PUSH8 0xFFFFFFFFFFFFFFFF AND MUL OR SWAP1 SSTORE POP DUP4 ISZERO PUSH2 0x41E1 JUMPI PUSH1 0x1 DUP6 PUSH1 0x0 ADD PUSH1 0x8 PUSH2 0x100 EXP DUP2 SLOAD DUP2 PUSH1 0xFF MUL NOT AND SWAP1 DUP4 ISZERO ISZERO MUL OR SWAP1 SSTORE POP JUMPDEST PUSH2 0x41EE PUSH1 0x0 DUP1 SHL DUP8 PUSH2 0x389A JUMP JUMPDEST POP PUSH2 0x4219 PUSH32 0x65D7A28E3265B37A6474929F336521B332C1681B933F6CB9F3376673440D862A DUP8 PUSH2 0x389A JUMP JUMPDEST POP DUP4 ISZERO PUSH2 0x4276 JUMPI PUSH1 0x0 DUP6 PUSH1 0x0 ADD PUSH1 0x8 PUSH2 0x100 EXP DUP2 SLOAD DUP2 PUSH1 0xFF MUL NOT AND SWAP1 DUP4 ISZERO ISZERO MUL OR SWAP1 SSTORE POP PUSH32 0xC7F505B2F371AE2175EE4913F4499E1F2633A7B5936321EED1CDAEB6115181D2 PUSH1 0x1 PUSH1 0x40 MLOAD PUSH2 0x426D SWAP2 SWAP1 PUSH2 0x526E JUMP JUMPDEST PUSH1 0x40 MLOAD DUP1 SWAP2 SUB SWAP1 LOG1 JUMPDEST POP POP POP POP POP POP JUMP JUMPDEST PUSH2 0x4286 PUSH2 0x42BE JUMP JUMPDEST PUSH2 0x42BC JUMPI PUSH1 0x40 MLOAD PUSH32 0xD7E6BCF800000000000000000000000000000000000000000000000000000000 DUP2 MSTORE PUSH1 0x4 ADD PUSH1 0x40 MLOAD DUP1 SWAP2 SUB SWAP1 REVERT JUMPDEST JUMP JUMPDEST PUSH1 0x0 PUSH2 0x42C8 PUSH2 0x3DE7 JUMP JUMPDEST PUSH1 0x0 ADD PUSH1 0x8 SWAP1 SLOAD SWAP1 PUSH2 0x100 EXP SWAP1 DIV PUSH1 0xFF AND SWAP1 POP SWAP1 JUMP JUMPDEST PUSH1 0x0 PUSH1 0x40 MLOAD SWAP1 POP SWAP1 JUMP JUMPDEST PUSH1 0x0 DUP1 REVERT JUMPDEST PUSH1 0x0 DUP1 REVERT JUMPDEST PUSH1 0x0 PUSH32 0xFFFFFFFF00000000000000000000000000000000000000000000000000000000 DUP3 AND SWAP1 POP SWAP2 SWAP1 POP JUMP JUMPDEST PUSH2 0x4327 DUP2 PUSH2 0x42F2 JUMP JUMPDEST DUP2 EQ PUSH2 0x4332 JUMPI PUSH1 0x0 DUP1 REVERT JUMPDEST POP JUMP JUMPDEST PUSH1 0x0 DUP2 CALLDATALOAD SWAP1 POP PUSH2 0x4344 DUP2 PUSH2 0x431E JUMP JUMPDEST SWAP3 SWAP2 POP POP JUMP JUMPDEST PUSH1 0x0 PUSH1 0x20 DUP3 DUP5 SUB SLT ISZERO PUSH2 0x4360 JUMPI PUSH2 0x435F PUSH2 0x42E8 JUMP JUMPDEST JUMPDEST PUSH1 0x0 PUSH2 0x436E DUP5 DUP3 DUP6 ADD PUSH2 0x4335 JUMP JUMPDEST SWAP2 POP POP SWAP3 SWAP2 POP POP JUMP JUMPDEST PUSH1 0x0 DUP2 ISZERO ISZERO SWAP1 POP SWAP2 SWAP1 POP JUMP JUMPDEST PUSH2 0x438C DUP2 PUSH2 0x4377 JUMP JUMPDEST DUP3 MSTORE POP POP JUMP JUMPDEST PUSH1 0x0 PUSH1 0x20 DUP3 ADD SWAP1 POP PUSH2 0x43A7 PUSH1 0x0 DUP4 ADD DUP5 PUSH2 0x4383 JUMP JUMPDEST SWAP3 SWAP2 POP POP JUMP JUMPDEST PUSH1 0x0 DUP1 REVERT JUMPDEST PUSH1 0x0 PUSH1 0x40 DUP3 DUP5 SUB SLT ISZERO PUSH2 0x43C8 JUMPI PUSH2 0x43C7 PUSH2 0x43AD JUMP JUMPDEST JUMPDEST DUP2 SWAP1 POP SWAP3 SWAP2 POP POP JUMP JUMPDEST PUSH1 0x0 PUSH1 0x40 DUP3 DUP5 SUB SLT ISZERO PUSH2 0x43E7 JUMPI PUSH2 0x43E6 PUSH2 0x42E8 JUMP JUMPDEST JUMPDEST PUSH1 0x0 PUSH2 0x43F5 DUP5 DUP3 DUP6 ADD PUSH2 0x43B2 JUMP JUMPDEST SWAP2 POP POP SWAP3 SWAP2 POP POP JUMP JUMPDEST PUSH1 0x0 PUSH1 0x40 DUP3 DUP5 SUB SLT ISZERO PUSH2 0x4414 JUMPI PUSH2 0x4413 PUSH2 0x43AD JUMP JUMPDEST JUMPDEST DUP2 SWAP1 POP SWAP3 SWAP2 POP POP JUMP JUMPDEST PUSH1 0x0 PUSH1 0x40 DUP3 DUP5 SUB SLT ISZERO PUSH2 0x4433 JUMPI PUSH2 0x4432 PUSH2 0x42E8 JUMP JUMPDEST JUMPDEST PUSH1 0x0 PUSH2 0x4441 DUP5 DUP3 DUP6 ADD PUSH2 0x43FE JUMP JUMPDEST SWAP2 POP POP SWAP3 SWAP2 POP POP JUMP JUMPDEST PUSH1 0x0 PUSH1 0x80 DUP3 DUP5 SUB SLT ISZERO PUSH2 0x4460 JUMPI PUSH2 0x445F PUSH2 0x43AD JUMP JUMPDEST JUMPDEST DUP2 SWAP1 POP SWAP3 SWAP2 POP POP JUMP JUMPDEST PUSH1 0x0 PUSH1 0x80 DUP3 DUP5 SUB SLT ISZERO PUSH2 0x447F JUMPI PUSH2 0x447E PUSH2 0x42E8 JUMP JUMPDEST JUMPDEST PUSH1 0x0 PUSH2 0x448D DUP5 DUP3 DUP6 ADD PUSH2 0x444A JUMP JUMPDEST SWAP2 POP POP SWAP3 SWAP2 POP POP JUMP JUMPDEST PUSH1 0x0 PUSH20 0xFFFFFFFFFFFFFFFFFFFFFFFFFFFFFFFFFFFFFFFF DUP3 AND SWAP1 POP SWAP2 SWAP1 POP JUMP JUMPDEST PUSH1 0x0 PUSH2 0x44C1 DUP3 PUSH2 0x4496 JUMP JUMPDEST SWAP1 POP SWAP2 SWAP1 POP JUMP JUMPDEST PUSH2 0x44D1 DUP2 PUSH2 0x44B6 JUMP JUMPDEST DUP2 EQ PUSH2 0x44DC JUMPI PUSH1 0x0 DUP1 REVERT JUMPDEST POP JUMP JUMPDEST PUSH1 0x0 DUP2 CALLDATALOAD SWAP1 POP PUSH2 0x44EE DUP2 PUSH2 0x44C8 JUMP JUMPDEST SWAP3 SWAP2 POP POP JUMP JUMPDEST PUSH1 0x0 PUSH1 0x20 DUP3 DUP5 SUB SLT ISZERO PUSH2 0x450A JUMPI PUSH2 0x4509 PUSH2 0x42E8 JUMP JUMPDEST JUMPDEST PUSH1 0x0 PUSH2 0x4518 DUP5 DUP3 DUP6 ADD PUSH2 0x44DF JUMP JUMPDEST SWAP2 POP POP SWAP3 SWAP2 POP POP JUMP JUMPDEST PUSH1 0x0 DUP2 SWAP1 POP SWAP2 SWAP1 POP JUMP JUMPDEST PUSH2 0x4534 DUP2 PUSH2 0x4521 JUMP JUMPDEST DUP2 EQ PUSH2 0x453F JUMPI PUSH1 0x0 DUP1 REVERT JUMPDEST POP JUMP JUMPDEST PUSH1 0x0 DUP2 CALLDATALOAD SWAP1 POP PUSH2 0x4551 DUP2 PUSH2 0x452B JUMP JUMPDEST SWAP3 SWAP2 POP POP JUMP JUMPDEST PUSH1 0x0 PUSH1 0x20 DUP3 DUP5 SUB SLT ISZERO PUSH2 0x456D JUMPI PUSH2 0x456C PUSH2 0x42E8 JUMP JUMPDEST JUMPDEST PUSH1 0x0 PUSH2 0x457B DUP5 DUP3 DUP6 ADD PUSH2 0x4542 JUMP JUMPDEST SWAP2 POP POP SWAP3 SWAP2 POP POP JUMP JUMPDEST PUSH2 0x458D DUP2 PUSH2 0x4521 JUMP JUMPDEST DUP3 MSTORE POP POP JUMP JUMPDEST PUSH1 0x0 PUSH1 0x20 DUP3 ADD SWAP1 POP PUSH2 0x45A8 PUSH1 0x0 DUP4 ADD DUP5 PUSH2 0x4584 JUMP JUMPDEST SWAP3 SWAP2 POP POP JUMP JUMPDEST PUSH1 0x0 PUSH2 0x140 DUP3 DUP5 SUB SLT ISZERO PUSH2 0x45C5 JUMPI PUSH2 0x45C4 PUSH2 0x43AD JUMP JUMPDEST JUMPDEST DUP2 SWAP1 POP SWAP3 SWAP2 POP POP JUMP JUMPDEST PUSH1 0x0 DUP1 REVERT JUMPDEST PUSH1 0x0 DUP1 REVERT JUMPDEST PUSH1 0x0 DUP1 REVERT JUMPDEST PUSH1 0x0 DUP1 DUP4 PUSH1 0x1F DUP5 ADD SLT PUSH2 0x45F3 JUMPI PUSH2 0x45F2 PUSH2 0x45CE JUMP JUMPDEST JUMPDEST DUP3 CALLDATALOAD SWAP1 POP PUSH8 0xFFFFFFFFFFFFFFFF DUP2 GT ISZERO PUSH2 0x4610 JUMPI PUSH2 0x460F PUSH2 0x45D3 JUMP JUMPDEST JUMPDEST PUSH1 0x20 DUP4 ADD SWAP2 POP DUP4 PUSH1 0x40 DUP3 MUL DUP4 ADD GT ISZERO PUSH2 0x462C JUMPI PUSH2 0x462B PUSH2 0x45D8 JUMP JUMPDEST JUMPDEST SWAP3 POP SWAP3 SWAP1 POP JUMP JUMPDEST PUSH1 0x0 DUP1 PUSH1 0x0 PUSH2 0x160 DUP5 DUP7 SUB SLT ISZERO PUSH2 0x464D JUMPI PUSH2 0x464C PUSH2 0x42E8 JUMP JUMPDEST JUMPDEST PUSH1 0x0 PUSH2 0x465B DUP7 DUP3 DUP8 ADD PUSH2 0x45AE JUMP JUMPDEST SWAP4 POP POP PUSH2 0x140 DUP5 ADD CALLDATALOAD PUSH8 0xFFFFFFFFFFFFFFFF DUP2 GT ISZERO PUSH2 0x467D JUMPI PUSH2 0x467C PUSH2 0x42ED JUMP JUMPDEST JUMPDEST PUSH2 0x4689 DUP7 DUP3 DUP8 ADD PUSH2 0x45DD JUMP JUMPDEST SWAP3 POP SWAP3 POP POP SWAP3 POP SWAP3 POP SWAP3 JUMP JUMPDEST PUSH1 0x0 DUP1 PUSH1 0x40 DUP4 DUP6 SUB SLT ISZERO PUSH2 0x46AC JUMPI PUSH2 0x46AB PUSH2 0x42E8 JUMP JUMPDEST JUMPDEST PUSH1 0x0 PUSH2 0x46BA DUP6 DUP3 DUP7 ADD PUSH2 0x4542 JUMP JUMPDEST SWAP3 POP POP PUSH1 0x20 PUSH2 0x46CB DUP6 DUP3 DUP7 ADD PUSH2 0x44DF JUMP JUMPDEST SWAP2 POP POP SWAP3 POP SWAP3 SWAP1 POP JUMP JUMPDEST PUSH1 0x0 PUSH1 0x20 DUP3 DUP5 SUB SLT ISZERO PUSH2 0x46EB JUMPI PUSH2 0x46EA PUSH2 0x43AD JUMP JUMPDEST JUMPDEST DUP2 SWAP1 POP SWAP3 SWAP2 POP POP JUMP JUMPDEST PUSH1 0x0 PUSH1 0x20 DUP3 DUP5 SUB SLT ISZERO PUSH2 0x470A JUMPI PUSH2 0x4709 PUSH2 0x42E8 JUMP JUMPDEST JUMPDEST PUSH1 0x0 PUSH2 0x4718 DUP5 DUP3 DUP6 ADD PUSH2 0x46D5 JUMP JUMPDEST SWAP2 POP POP SWAP3 SWAP2 POP POP JUMP JUMPDEST PUSH1 0x0 DUP2 SWAP1 POP SWAP2 SWAP1 POP JUMP JUMPDEST PUSH2 0x4734 DUP2 PUSH2 0x4721 JUMP JUMPDEST DUP3 MSTORE POP POP JUMP JUMPDEST PUSH1 0x0 PUSH1 0x20 DUP3 ADD SWAP1 POP PUSH2 0x474F PUSH1 0x0 DUP4 ADD DUP5 PUSH2 0x472B JUMP JUMPDEST SWAP3 SWAP2 POP POP JUMP JUMPDEST PUSH1 0x0 PUSH1 0x60 DUP3 DUP5 SUB SLT ISZERO PUSH2 0x476B JUMPI PUSH2 0x476A PUSH2 0x43AD JUMP JUMPDEST JUMPDEST DUP2 SWAP1 POP SWAP3 SWAP2 POP POP JUMP JUMPDEST PUSH1 0x0 PUSH1 0x60 DUP3 DUP5 SUB SLT ISZERO PUSH2 0x478A JUMPI PUSH2 0x4789 PUSH2 0x42E8 JUMP JUMPDEST JUMPDEST PUSH1 0x0 PUSH2 0x4798 DUP5 DUP3 DUP6 ADD PUSH2 0x4755 JUMP JUMPDEST SWAP2 POP POP SWAP3 SWAP2 POP POP JUMP JUMPDEST PUSH32 0x4E487B7100000000000000000000000000000000000000000000000000000000 PUSH1 0x0 MSTORE PUSH1 0x21 PUSH1 0x4 MSTORE PUSH1 0x24 PUSH1 0x0 REVERT JUMPDEST PUSH1 0x3 DUP2 LT PUSH2 0x47E1 JUMPI PUSH2 0x47E0 PUSH2 0x47A1 JUMP JUMPDEST JUMPDEST POP JUMP JUMPDEST PUSH1 0x0 DUP2 SWAP1 POP PUSH2 0x47F2 DUP3 PUSH2 0x47D0 JUMP JUMPDEST SWAP2 SWAP1 POP JUMP JUMPDEST PUSH1 0x0 PUSH2 0x4802 DUP3 PUSH2 0x47E4 JUMP JUMPDEST SWAP1 POP SWAP2 SWAP1 POP JUMP JUMPDEST PUSH2 0x4812 DUP2 PUSH2 0x47F7 JUMP JUMPDEST DUP3 MSTORE POP POP JUMP JUMPDEST PUSH2 0x4821 DUP2 PUSH2 0x44B6 JUMP JUMPDEST DUP3 MSTORE POP POP JUMP JUMPDEST PUSH1 0x0 PUSH1 0xC0 DUP3 ADD SWAP1 POP PUSH2 0x483C PUSH1 0x0 DUP4 ADD DUP10 PUSH2 0x472B JUMP JUMPDEST PUSH2 0x4849 PUSH1 0x20 DUP4 ADD DUP9 PUSH2 0x4584 JUMP JUMPDEST PUSH2 0x4856 PUSH1 0x40 DUP4 ADD DUP8 PUSH2 0x4809 JUMP JUMPDEST PUSH2 0x4863 PUSH1 0x60 DUP4 ADD DUP7 PUSH2 0x4818 JUMP JUMPDEST PUSH2 0x4870 PUSH1 0x80 DUP4 ADD DUP6 PUSH2 0x472B JUMP JUMPDEST PUSH2 0x487D PUSH1 0xA0 DUP4 ADD DUP5 PUSH2 0x472B JUMP JUMPDEST SWAP8 SWAP7 POP POP POP POP POP POP POP JUMP JUMPDEST PUSH2 0x4891 DUP2 PUSH2 0x4721 JUMP JUMPDEST DUP2 EQ PUSH2 0x489C JUMPI PUSH1 0x0 DUP1 REVERT JUMPDEST POP JUMP JUMPDEST PUSH1 0x0 DUP2 CALLDATALOAD SWAP1 POP PUSH2 0x48AE DUP2 PUSH2 0x4888 JUMP JUMPDEST SWAP3 SWAP2 POP POP JUMP JUMPDEST PUSH1 0x0 DUP1 PUSH1 0x40 DUP4 DUP6 SUB SLT ISZERO PUSH2 0x48CB JUMPI PUSH2 0x48CA PUSH2 0x42E8 JUMP JUMPDEST JUMPDEST PUSH1 0x0 PUSH2 0x48D9 DUP6 DUP3 DUP7 ADD PUSH2 0x4542 JUMP JUMPDEST SWAP3 POP POP PUSH1 0x20 PUSH2 0x48EA DUP6 DUP3 DUP7 ADD PUSH2 0x489F JUMP JUMPDEST SWAP2 POP POP SWAP3 POP SWAP3 SWAP1 POP JUMP JUMPDEST PUSH1 0x0 PUSH1 0x40 DUP3 ADD SWAP1 POP PUSH2 0x4909 PUSH1 0x0 DUP4 ADD DUP6 PUSH2 0x472B JUMP JUMPDEST PUSH2 0x4916 PUSH1 0x20 DUP4 ADD DUP5 PUSH2 0x472B JUMP JUMPDEST SWAP4 SWAP3 POP POP POP JUMP JUMPDEST PUSH1 0x0 DUP1 PUSH1 0x0 DUP1 PUSH1 0x0 PUSH1 0xA0 DUP7 DUP9 SUB SLT ISZERO PUSH2 0x4939 JUMPI PUSH2 0x4938 PUSH2 0x42E8 JUMP JUMPDEST JUMPDEST PUSH1 0x0 PUSH2 0x4947 DUP9 DUP3 DUP10 ADD PUSH2 0x44DF JUMP JUMPDEST SWAP6 POP POP PUSH1 0x20 PUSH2 0x4958 DUP9 DUP3 DUP10 ADD PUSH2 0x44DF JUMP JUMPDEST SWAP5 POP POP PUSH1 0x40 PUSH2 0x4969 DUP9 DUP3 DUP10 ADD PUSH2 0x44DF JUMP JUMPDEST SWAP4 POP POP PUSH1 0x60 PUSH2 0x497A DUP9 DUP3 DUP10 ADD PUSH2 0x489F JUMP JUMPDEST SWAP3 POP POP PUSH1 0x80 PUSH2 0x498B DUP9 DUP3 DUP10 ADD PUSH2 0x489F JUMP JUMPDEST SWAP2 POP POP SWAP3 SWAP6 POP SWAP3 SWAP6 SWAP1 SWAP4 POP JUMP JUMPDEST PUSH1 0x0 PUSH2 0x140 DUP3 DUP5 SUB SLT ISZERO PUSH2 0x49AF JUMPI PUSH2 0x49AE PUSH2 0x42E8 JUMP JUMPDEST JUMPDEST PUSH1 0x0 PUSH2 0x49BD DUP5 DUP3 DUP6 ADD PUSH2 0x45AE JUMP JUMPDEST SWAP2 POP POP SWAP3 SWAP2 POP POP JUMP JUMPDEST PUSH1 0x0 PUSH1 0x20 DUP3 DUP5 SUB SLT ISZERO PUSH2 0x49DC JUMPI PUSH2 0x49DB PUSH2 0x42E8 JUMP JUMPDEST JUMPDEST PUSH1 0x0 PUSH2 0x49EA DUP5 DUP3 DUP6 ADD PUSH2 0x489F JUMP JUMPDEST SWAP2 POP POP SWAP3 SWAP2 POP POP JUMP JUMPDEST PUSH1 0x4 DUP2 LT PUSH2 0x4A04 JUMPI PUSH2 0x4A03 PUSH2 0x47A1 JUMP JUMPDEST JUMPDEST POP JUMP JUMPDEST PUSH1 0x0 DUP2 SWAP1 POP PUSH2 0x4A15 DUP3 PUSH2 0x49F3 JUMP JUMPDEST SWAP2 SWAP1 POP JUMP JUMPDEST PUSH1 0x0 PUSH2 0x4A25 DUP3 PUSH2 0x4A07 JUMP JUMPDEST SWAP1 POP SWAP2 SWAP1 POP JUMP JUMPDEST PUSH2 0x4A35 DUP2 PUSH2 0x4A1A JUMP JUMPDEST DUP3 MSTORE POP POP JUMP JUMPDEST PUSH2 0x4A44 DUP2 PUSH2 0x44B6 JUMP JUMPDEST DUP3 MSTORE POP POP JUMP JUMPDEST PUSH2 0x4A53 DUP2 PUSH2 0x4721 JUMP JUMPDEST DUP3 MSTORE POP POP JUMP JUMPDEST PUSH1 0x40 DUP3 ADD PUSH1 0x0 DUP3 ADD MLOAD PUSH2 0x4A6F PUSH1 0x0 DUP6 ADD DUP3 PUSH2 0x4A3B JUMP JUMPDEST POP PUSH1 0x20 DUP3 ADD MLOAD PUSH2 0x4A82 PUSH1 0x20 DUP6 ADD DUP3 PUSH2 0x4A4A JUMP JUMPDEST POP POP POP POP JUMP JUMPDEST PUSH1 0x0 PUSH2 0x1C0 DUP3 ADD SWAP1 POP PUSH2 0x4A9E PUSH1 0x0 DUP4 ADD DUP16 PUSH2 0x4584 JUMP JUMPDEST PUSH2 0x4AAB PUSH1 0x20 DUP4 ADD DUP15 PUSH2 0x4A2C JUMP JUMPDEST PUSH2 0x4AB8 PUSH1 0x40 DUP4 ADD DUP14 PUSH2 0x4818 JUMP JUMPDEST PUSH2 0x4AC5 PUSH1 0x60 DUP4 ADD DUP13 PUSH2 0x4A59 JUMP JUMPDEST PUSH2 0x4AD2 PUSH1 0xA0 DUP4 ADD DUP12 PUSH2 0x4818 JUMP JUMPDEST PUSH2 0x4ADF PUSH1 0xC0 DUP4 ADD DUP11 PUSH2 0x4A59 JUMP JUMPDEST PUSH2 0x4AED PUSH2 0x100 DUP4 ADD DUP10 PUSH2 0x472B JUMP JUMPDEST PUSH2 0x4AFB PUSH2 0x120 DUP4 ADD DUP9 PUSH2 0x472B JUMP JUMPDEST PUSH2 0x4B09 PUSH2 0x140 DUP4 ADD DUP8 PUSH2 0x472B JUMP JUMPDEST PUSH2 0x4B17 PUSH2 0x160 DUP4 ADD DUP7 PUSH2 0x472B JUMP JUMPDEST PUSH2 0x4B25 PUSH2 0x180 DUP4 ADD DUP6 PUSH2 0x472B JUMP JUMPDEST PUSH2 0x4B33 PUSH2 0x1A0 DUP4 ADD DUP5 PUSH2 0x4383 JUMP JUMPDEST SWAP14 SWAP13 POP POP POP POP POP POP POP POP POP POP POP POP POP JUMP JUMPDEST PUSH1 0x0 PUSH1 0x40 DUP3 ADD SWAP1 POP PUSH2 0x4B59 PUSH1 0x0 DUP4 ADD DUP6 PUSH2 0x4818 JUMP JUMPDEST PUSH2 0x4B66 PUSH1 0x20 DUP4 ADD DUP5 PUSH2 0x4818 JUMP JUMPDEST SWAP4 SWAP3 POP POP POP JUMP JUMPDEST PUSH1 0x0 PUSH1 0x20 DUP3 ADD SWAP1 POP PUSH2 0x4B82 PUSH1 0x0 DUP4 ADD DUP5 PUSH2 0x4809 JUMP JUMPDEST SWAP3 SWAP2 POP POP JUMP JUMPDEST PUSH2 0x4B91 DUP2 PUSH2 0x44B6 JUMP JUMPDEST DUP3 MSTORE POP POP JUMP JUMPDEST PUSH2 0x4BA0 DUP2 PUSH2 0x4721 JUMP JUMPDEST DUP3 MSTORE POP POP JUMP JUMPDEST PUSH1 0x0 PUSH1 0xC0 DUP3 ADD SWAP1 POP PUSH2 0x4BBB PUSH1 0x0 DUP4 ADD DUP10 PUSH2 0x4B88 JUMP JUMPDEST PUSH2 0x4BC8 PUSH1 0x20 DUP4 ADD DUP9 PUSH2 0x4B88 JUMP JUMPDEST PUSH2 0x4BD5 PUSH1 0x40 DUP4 ADD DUP8 PUSH2 0x4B97 JUMP JUMPDEST PUSH2 0x4BE2 PUSH1 0x60 DUP4 ADD DUP7 PUSH2 0x4B97 JUMP JUMPDEST PUSH2 0x4BEF PUSH1 0x80 DUP4 ADD DUP6 PUSH2 0x4B97 JUMP JUMPDEST PUSH2 0x4BFC PUSH1 0xA0 DUP4 ADD DUP5 PUSH2 0x4B88 JUMP JUMPDEST SWAP8 SWAP7 POP POP POP POP POP POP POP JUMP JUMPDEST DUP1 DUP3 MSTORE POP POP JUMP JUMPDEST PUSH1 0x0 PUSH2 0x4C1D PUSH1 0x20 DUP5 ADD DUP5 PUSH2 0x4542 JUMP JUMPDEST SWAP1 POP SWAP3 SWAP2 POP POP JUMP JUMPDEST PUSH2 0x4C2E DUP2 PUSH2 0x4521 JUMP JUMPDEST DUP3 MSTORE POP POP JUMP JUMPDEST PUSH1 0x0 PUSH2 0x4C43 PUSH1 0x20 DUP5 ADD DUP5 PUSH2 0x44DF JUMP JUMPDEST SWAP1 POP SWAP3 SWAP2 POP POP JUMP JUMPDEST PUSH2 0x4C54 DUP2 PUSH2 0x44B6 JUMP JUMPDEST DUP3 MSTORE POP POP JUMP JUMPDEST PUSH1 0x40 DUP3 ADD PUSH2 0x4C6B PUSH1 0x0 DUP4 ADD DUP4 PUSH2 0x4C0E JUMP JUMPDEST PUSH2 0x4C78 PUSH1 0x0 DUP6 ADD DUP3 PUSH2 0x4C25 JUMP JUMPDEST POP PUSH2 0x4C86 PUSH1 0x20 DUP4 ADD DUP4 PUSH2 0x4C34 JUMP JUMPDEST PUSH2 0x4C93 PUSH1 0x20 DUP6 ADD DUP3 PUSH2 0x4C4B JUMP JUMPDEST POP POP POP POP JUMP JUMPDEST PUSH1 0x0 PUSH1 0x60 DUP3 ADD SWAP1 POP PUSH2 0x4CAE PUSH1 0x0 DUP4 ADD DUP6 PUSH2 0x4C07 JUMP JUMPDEST PUSH2 0x4CBB PUSH1 0x20 DUP4 ADD DUP5 PUSH2 0x4C5A JUMP JUMPDEST SWAP4 SWAP3 POP POP POP JUMP JUMPDEST DUP1 DUP3 MSTORE POP POP JUMP JUMPDEST PUSH1 0x0 PUSH2 0x4CD8 PUSH1 0x20 DUP5 ADD DUP5 PUSH2 0x489F JUMP JUMPDEST SWAP1 POP SWAP3 SWAP2 POP POP JUMP JUMPDEST PUSH2 0x4CE9 DUP2 PUSH2 0x4721 JUMP JUMPDEST DUP3 MSTORE POP POP JUMP JUMPDEST PUSH1 0x80 DUP3 ADD PUSH2 0x4D00 PUSH1 0x0 DUP4 ADD DUP4 PUSH2 0x4CC9 JUMP JUMPDEST PUSH2 0x4D0D PUSH1 0x0 DUP6 ADD DUP3 PUSH2 0x4CE0 JUMP JUMPDEST POP PUSH2 0x4D1B PUSH1 0x20 DUP4 ADD DUP4 PUSH2 0x4C34 JUMP JUMPDEST PUSH2 0x4D28 PUSH1 0x20 DUP6 ADD DUP3 PUSH2 0x4C4B JUMP JUMPDEST POP PUSH2 0x4D36 PUSH1 0x40 DUP4 ADD DUP4 PUSH2 0x4C0E JUMP JUMPDEST PUSH2 0x4D43 PUSH1 0x40 DUP6 ADD DUP3 PUSH2 0x4C25 JUMP JUMPDEST POP PUSH2 0x4D51 PUSH1 0x60 DUP4 ADD DUP4 PUSH2 0x4CC9 JUMP JUMPDEST PUSH2 0x4D5E PUSH1 0x60 DUP6 ADD DUP3 PUSH2 0x4CE0 JUMP JUMPDEST POP POP POP POP JUMP JUMPDEST PUSH1 0x0 PUSH1 0xA0 DUP3 ADD SWAP1 POP PUSH2 0x4D79 PUSH1 0x0 DUP4 ADD DUP6 PUSH2 0x4CC2 JUMP JUMPDEST PUSH2 0x4D86 PUSH1 0x20 DUP4 ADD DUP5 PUSH2 0x4CEF JUMP JUMPDEST SWAP4 SWAP3 POP POP POP JUMP JUMPDEST PUSH1 0x0 DUP1 REVERT JUMPDEST PUSH1 0x0 PUSH1 0x1F NOT PUSH1 0x1F DUP4 ADD AND SWAP1 POP SWAP2 SWAP1 POP JUMP JUMPDEST PUSH32 0x4E487B7100000000000000000000000000000000000000000000000000000000 PUSH1 0x0 MSTORE PUSH1 0x41 PUSH1 0x4 MSTORE PUSH1 0x24 PUSH1 0x0 REVERT JUMPDEST PUSH2 0x4DDB DUP3 PUSH2 0x4D92 JUMP JUMPDEST DUP2 ADD DUP2 DUP2 LT PUSH8 0xFFFFFFFFFFFFFFFF DUP3 GT OR ISZERO PUSH2 0x4DFA JUMPI PUSH2 0x4DF9 PUSH2 0x4DA3 JUMP JUMPDEST JUMPDEST DUP1 PUSH1 0x40 MSTORE POP POP POP JUMP JUMPDEST PUSH1 0x0 PUSH2 0x4E0D PUSH2 0x42DE JUMP JUMPDEST SWAP1 POP PUSH2 0x4E19 DUP3 DUP3 PUSH2 0x4DD2 JUMP JUMPDEST SWAP2 SWAP1 POP JUMP JUMPDEST PUSH1 0x0 PUSH1 0x40 DUP3 DUP5 SUB SLT ISZERO PUSH2 0x4E34 JUMPI PUSH2 0x4E33 PUSH2 0x4D8D JUMP JUMPDEST JUMPDEST PUSH2 0x4E3E PUSH1 0x40 PUSH2 0x4E03 JUMP JUMPDEST SWAP1 POP PUSH1 0x0 PUSH2 0x4E4E DUP5 DUP3 DUP6 ADD PUSH2 0x489F JUMP JUMPDEST PUSH1 0x0 DUP4 ADD MSTORE POP PUSH1 0x20 PUSH2 0x4E62 DUP5 DUP3 DUP6 ADD PUSH2 0x489F JUMP JUMPDEST PUSH1 0x20 DUP4 ADD MSTORE POP SWAP3 SWAP2 POP POP JUMP JUMPDEST PUSH1 0x0 PUSH1 0x40 DUP3 DUP5 SUB SLT ISZERO PUSH2 0x4E84 JUMPI PUSH2 0x4E83 PUSH2 0x42E8 JUMP JUMPDEST JUMPDEST PUSH1 0x0 PUSH2 0x4E92 DUP5 DUP3 DUP6 ADD PUSH2 0x4E1E JUMP JUMPDEST SWAP2 POP POP SWAP3 SWAP2 POP POP JUMP JUMPDEST PUSH1 0x0 DUP2 MLOAD SWAP1 POP SWAP2 SWAP1 POP JUMP JUMPDEST PUSH1 0x0 DUP3 DUP3 MSTORE PUSH1 0x20 DUP3 ADD SWAP1 POP SWAP3 SWAP2 POP POP JUMP JUMPDEST PUSH1 0x0 DUP2 SWAP1 POP PUSH1 0x20 DUP3 ADD SWAP1 POP SWAP2 SWAP1 POP JUMP JUMPDEST PUSH1 0x40 DUP3 ADD PUSH1 0x0 DUP3 ADD MLOAD PUSH2 0x4EDD PUSH1 0x0 DUP6 ADD DUP3 PUSH2 0x4CE0 JUMP JUMPDEST POP PUSH1 0x20 DUP3 ADD MLOAD PUSH2 0x4EF0 PUSH1 0x20 DUP6 ADD DUP3 PUSH2 0x4CE0 JUMP JUMPDEST POP POP POP POP JUMP JUMPDEST PUSH1 0x0 PUSH2 0x4F02 DUP4 DUP4 PUSH2 0x4EC7 JUMP JUMPDEST PUSH1 0x40 DUP4 ADD SWAP1 POP SWAP3 SWAP2 POP POP JUMP JUMPDEST PUSH1 0x0 PUSH1 0x20 DUP3 ADD SWAP1 POP SWAP2 SWAP1 POP JUMP JUMPDEST PUSH1 0x0 PUSH2 0x4F26 DUP3 PUSH2 0x4E9B JUMP JUMPDEST PUSH2 0x4F30 DUP2 DUP6 PUSH2 0x4EA6 JUMP JUMPDEST SWAP4 POP PUSH2 0x4F3B DUP4 PUSH2 0x4EB7 JUMP JUMPDEST DUP1 PUSH1 0x0 JUMPDEST DUP4 DUP2 LT ISZERO PUSH2 0x4F6C JUMPI DUP2 MLOAD PUSH2 0x4F53 DUP9 DUP3 PUSH2 0x4EF6 JUMP JUMPDEST SWAP8 POP PUSH2 0x4F5E DUP4 PUSH2 0x4F0E JUMP JUMPDEST SWAP3 POP POP PUSH1 0x1 DUP2 ADD SWAP1 POP PUSH2 0x4F3F JUMP JUMPDEST POP DUP6 SWAP4 POP POP POP POP SWAP3 SWAP2 POP POP JUMP JUMPDEST PUSH1 0x0 PUSH1 0x20 DUP3 ADD SWAP1 POP DUP2 DUP2 SUB PUSH1 0x0 DUP4 ADD MSTORE PUSH2 0x4F93 DUP2 DUP5 PUSH2 0x4F1B JUMP JUMPDEST SWAP1 POP SWAP3 SWAP2 POP POP JUMP JUMPDEST PUSH32 0x4E487B7100000000000000000000000000000000000000000000000000000000 PUSH1 0x0 MSTORE PUSH1 0x32 PUSH1 0x4 MSTORE PUSH1 0x24 PUSH1 0x0 REVERT JUMPDEST PUSH1 0x0 DUP2 CALLDATALOAD PUSH2 0x4FD7 DUP2 PUSH2 0x4888 JUMP JUMPDEST DUP1 SWAP2 POP POP SWAP2 SWAP1 POP JUMP JUMPDEST PUSH1 0x0 DUP2 PUSH1 0x0 SHL SWAP1 POP SWAP2 SWAP1 POP JUMP JUMPDEST PUSH1 0x0 PUSH32 0xFFFFFFFFFFFFFFFFFFFFFFFFFFFFFFFFFFFFFFFFFFFFFFFFFFFFFFFFFFFFFFFF PUSH2 0x5019 DUP5 PUSH2 0x4FE0 JUMP JUMPDEST SWAP4 POP DUP1 NOT DUP4 AND SWAP3 POP DUP1 DUP5 AND DUP4 OR SWAP2 POP POP SWAP3 SWAP2 POP POP JUMP JUMPDEST PUSH1 0x0 DUP2 SWAP1 POP SWAP2 SWAP1 POP JUMP JUMPDEST PUSH1 0x0 PUSH2 0x5054 PUSH2 0x504F PUSH2 0x504A DUP5 PUSH2 0x4721 JUMP JUMPDEST PUSH2 0x502F JUMP JUMPDEST PUSH2 0x4721 JUMP JUMPDEST SWAP1 POP SWAP2 SWAP1 POP JUMP JUMPDEST PUSH1 0x0 DUP2 SWAP1 POP SWAP2 SWAP1 POP JUMP JUMPDEST PUSH2 0x506E DUP3 PUSH2 0x5039 JUMP JUMPDEST PUSH2 0x5081 PUSH2 0x507A DUP3 PUSH2 0x505B JUMP JUMPDEST DUP4 SLOAD PUSH2 0x4FED JUMP JUMPDEST DUP3 SSTORE POP POP POP JUMP JUMPDEST PUSH1 0x0 DUP2 ADD PUSH1 0x0 DUP4 ADD DUP1 PUSH2 0x509A DUP2 PUSH2 0x4FCA JUMP JUMPDEST SWAP1 POP PUSH2 0x50A6 DUP2 DUP5 PUSH2 0x5065 JUMP JUMPDEST POP POP POP PUSH1 0x1 DUP2 ADD PUSH1 0x20 DUP4 ADD DUP1 PUSH2 0x50BB DUP2 PUSH2 0x4FCA JUMP JUMPDEST SWAP1 POP PUSH2 0x50C7 DUP2 DUP5 PUSH2 0x5065 JUMP JUMPDEST POP POP POP POP POP JUMP JUMPDEST PUSH2 0x50D8 DUP3 DUP3 PUSH2 0x5088 JUMP JUMPDEST POP POP JUMP JUMPDEST PUSH32 0x4E487B7100000000000000000000000000000000000000000000000000000000 PUSH1 0x0 MSTORE PUSH1 0x11 PUSH1 0x4 MSTORE PUSH1 0x24 PUSH1 0x0 REVERT JUMPDEST PUSH1 0x0 PUSH2 0x5116 DUP3 PUSH2 0x4721 JUMP JUMPDEST SWAP2 POP PUSH32 0xFFFFFFFFFFFFFFFFFFFFFFFFFFFFFFFFFFFFFFFFFFFFFFFFFFFFFFFFFFFFFFFF DUP3 SUB PUSH2 0x5148 JUMPI PUSH2 0x5147 PUSH2 0x50DC JUMP JUMPDEST JUMPDEST PUSH1 0x1 DUP3 ADD SWAP1 POP SWAP2 SWAP1 POP JUMP JUMPDEST PUSH1 0x0 PUSH1 0x20 DUP3 ADD SWAP1 POP PUSH2 0x5168 PUSH1 0x0 DUP4 ADD DUP5 PUSH2 0x4C07 JUMP JUMPDEST SWAP3 SWAP2 POP POP JUMP JUMPDEST PUSH1 0x0 PUSH2 0x5179 DUP3 PUSH2 0x4721 JUMP JUMPDEST SWAP2 POP PUSH2 0x5184 DUP4 PUSH2 0x4721 JUMP JUMPDEST SWAP3 POP DUP3 DUP3 ADD SWAP1 POP DUP1 DUP3 GT ISZERO PUSH2 0x519C JUMPI PUSH2 0x519B PUSH2 0x50DC JUMP JUMPDEST JUMPDEST SWAP3 SWAP2 POP POP JUMP JUMPDEST PUSH1 0x0 DUP3 DUP3 MSTORE PUSH1 0x20 DUP3 ADD SWAP1 POP SWAP3 SWAP2 POP POP JUMP JUMPDEST PUSH32 0x4F776E61626C655061757361626C653A206163636573732064656E6965640000 PUSH1 0x0 DUP3 ADD MSTORE POP JUMP JUMPDEST PUSH1 0x0 PUSH2 0x51E9 PUSH1 0x1E DUP4 PUSH2 0x51A2 JUMP JUMPDEST SWAP2 POP PUSH2 0x51F4 DUP3 PUSH2 0x51B3 JUMP JUMPDEST PUSH1 0x20 DUP3 ADD SWAP1 POP SWAP2 SWAP1 POP JUMP JUMPDEST PUSH1 0x0 PUSH1 0x20 DUP3 ADD SWAP1 POP DUP2 DUP2 SUB PUSH1 0x0 DUP4 ADD MSTORE PUSH2 0x5218 DUP2 PUSH2 0x51DC JUMP JUMPDEST SWAP1 POP SWAP2 SWAP1 POP JUMP JUMPDEST PUSH1 0x0 DUP2 SWAP1 POP SWAP2 SWAP1 POP JUMP JUMPDEST PUSH1 0x0 PUSH8 0xFFFFFFFFFFFFFFFF DUP3 AND SWAP1 POP SWAP2 SWAP1 POP JUMP JUMPDEST PUSH1 0x0 PUSH2 0x5258 PUSH2 0x5253 PUSH2 0x524E DUP5 PUSH2 0x521F JUMP JUMPDEST PUSH2 0x502F JUMP JUMPDEST PUSH2 0x5229 JUMP JUMPDEST SWAP1 POP SWAP2 SWAP1 POP JUMP JUMPDEST PUSH2 0x5268 DUP2 PUSH2 0x523D JUMP JUMPDEST DUP3 MSTORE POP POP JUMP JUMPDEST PUSH1 0x0 PUSH1 0x20 DUP3 ADD SWAP1 POP PUSH2 0x5283 PUSH1 0x0 DUP4 ADD DUP5 PUSH2 0x525F JUMP JUMPDEST SWAP3 SWAP2 POP POP JUMP JUMPDEST PUSH1 0x0 PUSH1 0x40 DUP3 DUP5 SUB SLT ISZERO PUSH2 0x529F JUMPI PUSH2 0x529E PUSH2 0x4D8D JUMP JUMPDEST JUMPDEST PUSH2 0x52A9 PUSH1 0x40 PUSH2 0x4E03 JUMP JUMPDEST SWAP1 POP PUSH1 0x0 PUSH2 0x52B9 DUP5 DUP3 DUP6 ADD PUSH2 0x44DF JUMP JUMPDEST PUSH1 0x0 DUP4 ADD MSTORE POP PUSH1 0x20 PUSH2 0x52CD DUP5 DUP3 DUP6 ADD PUSH2 0x489F JUMP JUMPDEST PUSH1 0x20 DUP4 ADD MSTORE POP SWAP3 SWAP2 POP POP JUMP JUMPDEST PUSH2 0x52E2 DUP2 PUSH2 0x4377 JUMP JUMPDEST DUP2 EQ PUSH2 0x52ED JUMPI PUSH1 0x0 DUP1 REVERT JUMPDEST POP JUMP JUMPDEST PUSH1 0x0 DUP2 CALLDATALOAD SWAP1 POP PUSH2 0x52FF DUP2 PUSH2 0x52D9 JUMP JUMPDEST SWAP3 SWAP2 POP POP JUMP JUMPDEST PUSH1 0x0 PUSH2 0x140 DUP3 DUP5 SUB SLT ISZERO PUSH2 0x531C JUMPI PUSH2 0x531B PUSH2 0x4D8D JUMP JUMPDEST JUMPDEST PUSH2 0x5327 PUSH2 0x100 PUSH2 0x4E03 JUMP JUMPDEST SWAP1 POP PUSH1 0x0 PUSH2 0x5337 DUP5 DUP3 DUP6 ADD PUSH2 0x4542 JUMP JUMPDEST PUSH1 0x0 DUP4 ADD MSTORE POP PUSH1 0x20 PUSH2 0x534B DUP5 DUP3 DUP6 ADD PUSH2 0x5289 JUMP JUMPDEST PUSH1 0x20 DUP4 ADD MSTORE POP PUSH1 0x60 PUSH2 0x535F DUP5 DUP3 DUP6 ADD PUSH2 0x5289 JUMP JUMPDEST PUSH1 0x40 DUP4 ADD MSTORE POP PUSH1 0xA0 PUSH2 0x5373 DUP5 DUP3 DUP6 ADD PUSH2 0x44DF JUMP JUMPDEST PUSH1 0x60 DUP4 ADD MSTORE POP PUSH1 0xC0 PUSH2 0x5387 DUP5 DUP3 DUP6 ADD PUSH2 0x44DF JUMP JUMPDEST PUSH1 0x80 DUP4 ADD MSTORE POP PUSH1 0xE0 PUSH2 0x539B DUP5 DUP3 DUP6 ADD PUSH2 0x489F JUMP JUMPDEST PUSH1 0xA0 DUP4 ADD MSTORE POP PUSH2 0x100 PUSH2 0x53B0 DUP5 DUP3 DUP6 ADD PUSH2 0x489F JUMP JUMPDEST PUSH1 0xC0 DUP4 ADD MSTORE POP PUSH2 0x120 PUSH2 0x53C5 DUP5 DUP3 DUP6 ADD PUSH2 0x52F0 JUMP JUMPDEST PUSH1 0xE0 DUP4 ADD MSTORE POP SWAP3 SWAP2 POP POP JUMP JUMPDEST PUSH1 0x0 PUSH2 0x140 DUP3 DUP5 SUB SLT ISZERO PUSH2 0x53E8 JUMPI PUSH2 0x53E7 PUSH2 0x42E8 JUMP JUMPDEST JUMPDEST PUSH1 0x0 PUSH2 0x53F6 DUP5 DUP3 DUP6 ADD PUSH2 0x5305 JUMP JUMPDEST SWAP2 POP POP SWAP3 SWAP2 POP POP JUMP JUMPDEST PUSH1 0x40 DUP3 ADD PUSH1 0x0 DUP3 ADD MLOAD PUSH2 0x5415 PUSH1 0x0 DUP6 ADD DUP3 PUSH2 0x4C4B JUMP JUMPDEST POP PUSH1 0x20 DUP3 ADD MLOAD PUSH2 0x5428 PUSH1 0x20 DUP6 ADD DUP3 PUSH2 0x4CE0 JUMP JUMPDEST POP POP POP POP JUMP JUMPDEST PUSH2 0x5437 DUP2 PUSH2 0x4377 JUMP JUMPDEST DUP3 MSTORE POP POP JUMP JUMPDEST PUSH2 0x140 DUP3 ADD PUSH1 0x0 DUP3 ADD MLOAD PUSH2 0x5454 PUSH1 0x0 DUP6 ADD DUP3 PUSH2 0x4C25 JUMP JUMPDEST POP PUSH1 0x20 DUP3 ADD MLOAD PUSH2 0x5467 PUSH1 0x20 DUP6 ADD DUP3 PUSH2 0x53FF JUMP JUMPDEST POP PUSH1 0x40 DUP3 ADD MLOAD PUSH2 0x547A PUSH1 0x60 DUP6 ADD DUP3 PUSH2 0x53FF JUMP JUMPDEST POP PUSH1 0x60 DUP3 ADD MLOAD PUSH2 0x548D PUSH1 0xA0 DUP6 ADD DUP3 PUSH2 0x4C4B JUMP JUMPDEST POP PUSH1 0x80 DUP3 ADD MLOAD PUSH2 0x54A0 PUSH1 0xC0 DUP6 ADD DUP3 PUSH2 0x4C4B JUMP JUMPDEST POP PUSH1 0xA0 DUP3 ADD MLOAD PUSH2 0x54B3 PUSH1 0xE0 DUP6 ADD DUP3 PUSH2 0x4CE0 JUMP JUMPDEST POP PUSH1 0xC0 DUP3 ADD MLOAD PUSH2 0x54C7 PUSH2 0x100 DUP6 ADD DUP3 PUSH2 0x4CE0 JUMP JUMPDEST POP PUSH1 0xE0 DUP3 ADD MLOAD PUSH2 0x54DB PUSH2 0x120 DUP6 ADD DUP3 PUSH2 0x542E JUMP JUMPDEST POP POP POP POP JUMP JUMPDEST PUSH1 0x0 PUSH2 0x140 DUP3 ADD SWAP1 POP PUSH2 0x54F7 PUSH1 0x0 DUP4 ADD DUP5 PUSH2 0x543D JUMP JUMPDEST SWAP3 SWAP2 POP POP JUMP JUMPDEST PUSH2 0x5506 DUP2 PUSH2 0x4521 JUMP JUMPDEST DUP3 MSTORE POP POP JUMP JUMPDEST PUSH1 0x0 PUSH1 0x40 DUP3 ADD SWAP1 POP PUSH2 0x5521 PUSH1 0x0 DUP4 ADD DUP6 PUSH2 0x54FD JUMP JUMPDEST PUSH2 0x552E PUSH1 0x20 DUP4 ADD DUP5 PUSH2 0x4B88 JUMP JUMPDEST SWAP4 SWAP3 POP POP POP JUMP JUMPDEST PUSH1 0x0 DUP2 MLOAD SWAP1 POP PUSH2 0x5544 DUP2 PUSH2 0x452B JUMP JUMPDEST SWAP3 SWAP2 POP POP JUMP JUMPDEST PUSH1 0x0 PUSH1 0x20 DUP3 DUP5 SUB SLT ISZERO PUSH2 0x5560 JUMPI PUSH2 0x555F PUSH2 0x42E8 JUMP JUMPDEST JUMPDEST PUSH1 0x0 PUSH2 0x556E DUP5 DUP3 DUP6 ADD PUSH2 0x5535 JUMP JUMPDEST SWAP2 POP POP SWAP3 SWAP2 POP POP JUMP JUMPDEST DUP1 DUP3 MSTORE POP POP JUMP JUMPDEST PUSH1 0x0 DUP3 SWAP1 POP SWAP3 SWAP2 POP POP JUMP JUMPDEST PUSH1 0x40 DUP3 ADD PUSH2 0x559A PUSH1 0x0 DUP4 ADD DUP4 PUSH2 0x4C34 JUMP JUMPDEST PUSH2 0x55A7 PUSH1 0x0 DUP6 ADD DUP3 PUSH2 0x4C4B JUMP JUMPDEST POP PUSH2 0x55B5 PUSH1 0x20 DUP4 ADD DUP4 PUSH2 0x4CC9 JUMP JUMPDEST PUSH2 0x55C2 PUSH1 0x20 DUP6 ADD DUP3 PUSH2 0x4CE0 JUMP JUMPDEST POP POP POP POP JUMP JUMPDEST PUSH1 0x0 PUSH2 0x55D7 PUSH1 0x20 DUP5 ADD DUP5 PUSH2 0x52F0 JUMP JUMPDEST SWAP1 POP SWAP3 SWAP2 POP POP JUMP JUMPDEST PUSH2 0x140 DUP3 ADD PUSH2 0x55F1 PUSH1 0x0 DUP4 ADD DUP4 PUSH2 0x4C0E JUMP JUMPDEST PUSH2 0x55FE PUSH1 0x0 DUP6 ADD DUP3 PUSH2 0x4C25 JUMP JUMPDEST POP PUSH2 0x560C PUSH1 0x20 DUP4 ADD DUP4 PUSH2 0x557E JUMP JUMPDEST PUSH2 0x5619 PUSH1 0x20 DUP6 ADD DUP3 PUSH2 0x5589 JUMP JUMPDEST POP PUSH2 0x5627 PUSH1 0x60 DUP4 ADD DUP4 PUSH2 0x557E JUMP JUMPDEST PUSH2 0x5634 PUSH1 0x60 DUP6 ADD DUP3 PUSH2 0x5589 JUMP JUMPDEST POP PUSH2 0x5642 PUSH1 0xA0 DUP4 ADD DUP4 PUSH2 0x4C34 JUMP JUMPDEST PUSH2 0x564F PUSH1 0xA0 DUP6 ADD DUP3 PUSH2 0x4C4B JUMP JUMPDEST POP PUSH2 0x565D PUSH1 0xC0 DUP4 ADD DUP4 PUSH2 0x4C34 JUMP JUMPDEST PUSH2 0x566A PUSH1 0xC0 DUP6 ADD DUP3 PUSH2 0x4C4B JUMP JUMPDEST POP PUSH2 0x5678 PUSH1 0xE0 DUP4 ADD DUP4 PUSH2 0x4CC9 JUMP JUMPDEST PUSH2 0x5685 PUSH1 0xE0 DUP6 ADD DUP3 PUSH2 0x4CE0 JUMP JUMPDEST POP PUSH2 0x5694 PUSH2 0x100 DUP4 ADD DUP4 PUSH2 0x4CC9 JUMP JUMPDEST PUSH2 0x56A2 PUSH2 0x100 DUP6 ADD DUP3 PUSH2 0x4CE0 JUMP JUMPDEST POP PUSH2 0x56B1 PUSH2 0x120 DUP4 ADD DUP4 PUSH2 0x55C8 JUMP JUMPDEST PUSH2 0x56BF PUSH2 0x120 DUP6 ADD DUP3 PUSH2 0x542E JUMP JUMPDEST POP POP POP POP JUMP JUMPDEST PUSH1 0x0 PUSH2 0x1A0 DUP3 ADD SWAP1 POP PUSH2 0x56DB PUSH1 0x0 DUP4 ADD DUP8 PUSH2 0x5577 JUMP JUMPDEST PUSH2 0x56E8 PUSH1 0x20 DUP4 ADD DUP7 PUSH2 0x55DF JUMP JUMPDEST PUSH2 0x56F6 PUSH2 0x160 DUP4 ADD DUP6 PUSH2 0x54FD JUMP JUMPDEST PUSH2 0x5704 PUSH2 0x180 DUP4 ADD DUP5 PUSH2 0x4B88 JUMP JUMPDEST SWAP6 SWAP5 POP POP POP POP POP JUMP JUMPDEST PUSH32 0x4D6F726967696E4170703A20696E76616C69642076616C756521000000000000 PUSH1 0x0 DUP3 ADD MSTORE POP JUMP JUMPDEST PUSH1 0x0 PUSH2 0x5743 PUSH1 0x1A DUP4 PUSH2 0x51A2 JUMP JUMPDEST SWAP2 POP PUSH2 0x574E DUP3 PUSH2 0x570D JUMP JUMPDEST PUSH1 0x20 DUP3 ADD SWAP1 POP SWAP2 SWAP1 POP JUMP JUMPDEST PUSH1 0x0 PUSH1 0x20 DUP3 ADD SWAP1 POP DUP2 DUP2 SUB PUSH1 0x0 DUP4 ADD MSTORE PUSH2 0x5772 DUP2 PUSH2 0x5736 JUMP JUMPDEST SWAP1 POP SWAP2 SWAP1 POP JUMP JUMPDEST PUSH1 0x0 PUSH2 0x5784 DUP3 PUSH2 0x4721 JUMP JUMPDEST SWAP2 POP PUSH2 0x578F DUP4 PUSH2 0x4721 JUMP JUMPDEST SWAP3 POP DUP3 DUP3 MUL PUSH2 0x579D DUP2 PUSH2 0x4721 JUMP JUMPDEST SWAP2 POP DUP3 DUP3 DIV DUP5 EQ DUP4 ISZERO OR PUSH2 0x57B4 JUMPI PUSH2 0x57B3 PUSH2 0x50DC JUMP JUMPDEST JUMPDEST POP SWAP3 SWAP2 POP POP JUMP JUMPDEST PUSH32 0x4E487B7100000000000000000000000000000000000000000000000000000000 PUSH1 0x0 MSTORE PUSH1 0x12 PUSH1 0x4 MSTORE PUSH1 0x24 PUSH1 0x0 REVERT JUMPDEST PUSH1 0x0 PUSH2 0x57F5 DUP3 PUSH2 0x4721 JUMP JUMPDEST SWAP2 POP PUSH2 0x5800 DUP4 PUSH2 0x4721 JUMP JUMPDEST SWAP3 POP DUP3 PUSH2 0x5810 JUMPI PUSH2 0x580F PUSH2 0x57BB JUMP JUMPDEST JUMPDEST DUP3 DUP3 DIV SWAP1 POP SWAP3 SWAP2 POP POP JUMP JUMPDEST PUSH1 0x0 PUSH2 0x5826 DUP3 PUSH2 0x4721 JUMP JUMPDEST SWAP2 POP PUSH2 0x5831 DUP4 PUSH2 0x4721 JUMP JUMPDEST SWAP3 POP DUP3 DUP3 SUB SWAP1 POP DUP2 DUP2 GT ISZERO PUSH2 0x5849 JUMPI PUSH2 0x5848 PUSH2 0x50DC JUMP JUMPDEST JUMPDEST SWAP3 SWAP2 POP POP JUMP JUMPDEST PUSH1 0x0 DUP3 DUP3 MSTORE PUSH1 0x20 DUP3 ADD SWAP1 POP SWAP3 SWAP2 POP POP JUMP JUMPDEST PUSH1 0x40 DUP3 ADD PUSH1 0x0 DUP3 ADD MLOAD PUSH2 0x5876 PUSH1 0x0 DUP6 ADD DUP3 PUSH2 0x4A4A JUMP JUMPDEST POP PUSH1 0x20 DUP3 ADD MLOAD PUSH2 0x5889 PUSH1 0x20 DUP6 ADD DUP3 PUSH2 0x4A4A JUMP JUMPDEST POP POP POP POP JUMP JUMPDEST PUSH1 0x0 PUSH2 0x589B DUP4 DUP4 PUSH2 0x5860 JUMP JUMPDEST PUSH1 0x40 DUP4 ADD SWAP1 POP SWAP3 SWAP2 POP POP JUMP JUMPDEST PUSH1 0x0 PUSH2 0x58B2 DUP3 PUSH2 0x4E9B JUMP JUMPDEST PUSH2 0x58BC DUP2 DUP6 PUSH2 0x584F JUMP JUMPDEST SWAP4 POP PUSH2 0x58C7 DUP4 PUSH2 0x4EB7 JUMP JUMPDEST DUP1 PUSH1 0x0 JUMPDEST DUP4 DUP2 LT ISZERO PUSH2 0x58F8 JUMPI DUP2 MLOAD PUSH2 0x58DF DUP9 DUP3 PUSH2 0x588F JUMP JUMPDEST SWAP8 POP PUSH2 0x58EA DUP4 PUSH2 0x4F0E JUMP JUMPDEST SWAP3 POP POP PUSH1 0x1 DUP2 ADD SWAP1 POP PUSH2 0x58CB JUMP JUMPDEST POP DUP6 SWAP4 POP POP POP POP SWAP3 SWAP2 POP POP JUMP JUMPDEST PUSH1 0x0 PUSH1 0xA0 DUP3 ADD SWAP1 POP PUSH2 0x591A PUSH1 0x0 DUP4 ADD DUP9 PUSH2 0x4584 JUMP JUMPDEST PUSH2 0x5927 PUSH1 0x20 DUP4 ADD DUP8 PUSH2 0x4818 JUMP JUMPDEST PUSH2 0x5934 PUSH1 0x40 DUP4 ADD DUP7 PUSH2 0x4818 JUMP JUMPDEST PUSH2 0x5941 PUSH1 0x60 DUP4 ADD DUP6 PUSH2 0x472B JUMP JUMPDEST DUP2 DUP2 SUB PUSH1 0x80 DUP4 ADD MSTORE PUSH2 0x5953 DUP2 DUP5 PUSH2 0x58A7 JUMP JUMPDEST SWAP1 POP SWAP7 SWAP6 POP POP POP POP POP POP JUMP JUMPDEST PUSH1 0x0 PUSH1 0x40 DUP3 ADD SWAP1 POP PUSH2 0x5974 PUSH1 0x0 DUP4 ADD DUP6 PUSH2 0x4818 JUMP JUMPDEST PUSH2 0x5981 PUSH1 0x20 DUP4 ADD DUP5 PUSH2 0x472B JUMP JUMPDEST SWAP4 SWAP3 POP POP POP JUMP JUMPDEST PUSH1 0x0 DUP2 MLOAD SWAP1 POP PUSH2 0x5997 DUP2 PUSH2 0x52D9 JUMP JUMPDEST SWAP3 SWAP2 POP POP JUMP JUMPDEST PUSH1 0x0 PUSH1 0x20 DUP3 DUP5 SUB SLT ISZERO PUSH2 0x59B3 JUMPI PUSH2 0x59B2 PUSH2 0x42E8 JUMP JUMPDEST JUMPDEST PUSH1 0x0 PUSH2 0x59C1 DUP5 DUP3 DUP6 ADD PUSH2 0x5988 JUMP JUMPDEST SWAP2 POP POP SWAP3 SWAP2 POP POP JUMP JUMPDEST PUSH1 0x0 PUSH1 0x60 DUP3 ADD SWAP1 POP PUSH2 0x59DF PUSH1 0x0 DUP4 ADD DUP7 PUSH2 0x4818 JUMP JUMPDEST PUSH2 0x59EC PUSH1 0x20 DUP4 ADD DUP6 PUSH2 0x4818 JUMP JUMPDEST PUSH2 0x59F9 PUSH1 0x40 DUP4 ADD DUP5 PUSH2 0x472B JUMP JUMPDEST SWAP5 SWAP4 POP POP POP POP JUMP JUMPDEST PUSH1 0x0 DUP2 MLOAD SWAP1 POP SWAP2 SWAP1 POP JUMP JUMPDEST PUSH1 0x0 DUP2 SWAP1 POP SWAP3 SWAP2 POP POP JUMP JUMPDEST PUSH1 0x0 JUMPDEST DUP4 DUP2 LT ISZERO PUSH2 0x5A35 JUMPI DUP1 DUP3 ADD MLOAD DUP2 DUP5 ADD MSTORE PUSH1 0x20 DUP2 ADD SWAP1 POP PUSH2 0x5A1A JUMP JUMPDEST PUSH1 0x0 DUP5 DUP5 ADD MSTORE POP POP POP POP JUMP JUMPDEST PUSH1 0x0 PUSH2 0x5A4C DUP3 PUSH2 0x5A01 JUMP JUMPDEST PUSH2 0x5A56 DUP2 DUP6 PUSH2 0x5A0C JUMP JUMPDEST SWAP4 POP PUSH2 0x5A66 DUP2 DUP6 PUSH1 0x20 DUP7 ADD PUSH2 0x5A17 JUMP JUMPDEST DUP1 DUP5 ADD SWAP2 POP POP SWAP3 SWAP2 POP POP JUMP JUMPDEST PUSH1 0x0 PUSH2 0x5A7E DUP3 DUP5 PUSH2 0x5A41 JUMP JUMPDEST SWAP2 POP DUP2 SWAP1 POP SWAP3 SWAP2 POP POP JUMP JUMPDEST PUSH32 0x5472616E7366657248656C7065723A3A7472616E7366657246726F6D3A207472 PUSH1 0x0 DUP3 ADD MSTORE PUSH32 0x616E7366657246726F6D206661696C6564000000000000000000000000000000 PUSH1 0x20 DUP3 ADD MSTORE POP JUMP JUMPDEST PUSH1 0x0 PUSH2 0x5AE5 PUSH1 0x31 DUP4 PUSH2 0x51A2 JUMP JUMPDEST SWAP2 POP PUSH2 0x5AF0 DUP3 PUSH2 0x5A89 JUMP JUMPDEST PUSH1 0x40 DUP3 ADD SWAP1 POP SWAP2 SWAP1 POP JUMP JUMPDEST PUSH1 0x0 PUSH1 0x20 DUP3 ADD SWAP1 POP DUP2 DUP2 SUB PUSH1 0x0 DUP4 ADD MSTORE PUSH2 0x5B14 DUP2 PUSH2 0x5AD8 JUMP JUMPDEST SWAP1 POP SWAP2 SWAP1 POP JUMP JUMPDEST PUSH32 0x5472616E7366657248656C7065723A3A736166655472616E736665724554483A PUSH1 0x0 DUP3 ADD MSTORE PUSH32 0x20455448207472616E73666572206661696C6564000000000000000000000000 PUSH1 0x20 DUP3 ADD MSTORE POP JUMP JUMPDEST PUSH1 0x0 PUSH2 0x5B77 PUSH1 0x34 DUP4 PUSH2 0x51A2 JUMP JUMPDEST SWAP2 POP PUSH2 0x5B82 DUP3 PUSH2 0x5B1B JUMP JUMPDEST PUSH1 0x40 DUP3 ADD SWAP1 POP SWAP2 SWAP1 POP JUMP JUMPDEST PUSH1 0x0 PUSH1 0x20 DUP3 ADD SWAP1 POP DUP2 DUP2 SUB PUSH1 0x0 DUP4 ADD MSTORE PUSH2 0x5BA6 DUP2 PUSH2 0x5B6A JUMP JUMPDEST SWAP1 POP SWAP2 SWAP1 POP JUMP JUMPDEST PUSH32 0x5472616E7366657248656C7065723A3A736166655472616E736665723A207472 PUSH1 0x0 DUP3 ADD MSTORE PUSH32 0x616E73666572206661696C656400000000000000000000000000000000000000 PUSH1 0x20 DUP3 ADD MSTORE POP JUMP JUMPDEST PUSH1 0x0 PUSH2 0x5C09 PUSH1 0x2D DUP4 PUSH2 0x51A2 JUMP JUMPDEST SWAP2 POP PUSH2 0x5C14 DUP3 PUSH2 0x5BAD JUMP JUMPDEST PUSH1 0x40 DUP3 ADD SWAP1 POP SWAP2 SWAP1 POP JUMP JUMPDEST PUSH1 0x0 PUSH1 0x20 DUP3 ADD SWAP1 POP DUP2 DUP2 SUB PUSH1 0x0 DUP4 ADD MSTORE PUSH2 0x5C38 DUP2 PUSH2 0x5BFC JUMP JUMPDEST SWAP1 POP SWAP2 SWAP1 POP JUMP JUMPDEST PUSH1 0x0 PUSH1 0x20 DUP3 ADD SWAP1 POP PUSH2 0x5C54 PUSH1 0x0 DUP4 ADD DUP5 PUSH2 0x4818 JUMP JUMPDEST SWAP3 SWAP2 POP POP JUMP JUMPDEST PUSH1 0x0 PUSH1 0x40 DUP3 ADD SWAP1 POP PUSH2 0x5C6F PUSH1 0x0 DUP4 ADD DUP6 PUSH2 0x4818 JUMP JUMPDEST PUSH2 0x5C7C PUSH1 0x20 DUP4 ADD DUP5 PUSH2 0x4584 JUMP JUMPDEST SWAP4 SWAP3 POP POP POP JUMP INVALID LOG2 PUSH5 0x6970667358 0x22 SLT KECCAK256 0xCA 0x4C PUSH7 0x33CCD77C8A06C5 PUSH10 0x690DFC2D22691D89EEF PUSH4 0x37821CD5 0xD0 DUP12 BASEFEE EXTCODECOPY LOG3 MUL PUSH5 0x736F6C6343 STOP ADDMOD EQ STOP CALLER "},"methodIdentifiers":{"DEFAULT_ADMIN_ROLE()":"a217fddf","PAUSER_ROLE()":"e63ab1e9","acceptBid((bytes32,address))":"02206661","addAdmin(address)":"70480275","addPauser(address)":"82dc1ec4","bids(bytes32,address)":"66e929bf","buyerFeeRate()":"53f10c80","cancelBid(bytes32)":"df7cec28","cancelSwap((bytes32))":"37be0022","counteroffers(bytes32,address)":"a743a3d0","getRoleAdmin(bytes32)":"248a9ca3","grantRole(bytes32,address)":"2f2ff15d","hasRole(bytes32,address)":"91d14854","initialize(address,address,address,uint256,uint256)":"a6b63eb8","isAdmin(address)":"24d7806c","isPauser(address)":"46fbf68e","makeSwap((bytes32,(address,uint256),(address,uint256),address,address,uint256,uint256,bool))":"d2a25283","makeSwapWithVesting((bytes32,(address,uint256),(address,uint256),address,address,uint256,uint256,bool),(uint256,uint256)[])":"2b2b6511","paginationSize()":"3d538ecf","pause()":"8456cb59","paused()":"5c975abb","placeBid((uint256,address,bytes32,uint256))":"16b50a82","removeAdmin(address)":"1785f53c","removePauser(address)":"6b2c0f55","renounceRole(bytes32,address)":"36568abe","revokeRole(bytes32,address)":"d547741f","sellerFeeRate()":"89f68190","setPaginationSize(uint256)":"f2407ca4","supportsInterface(bytes4)":"01ffc9a7","swapOrder(bytes32)":"fca6caa1","swapOrderVestingParams(bytes32,uint256)":"8d6cb1c4","takeSwap((bytes32,address))":"06be619c","unpause()":"3f4ba83a","updateBid((bytes32,address,uint256))":"3d9bd2fc"}},"storageLayout":{"storage":[{"astId":2153,"contract":"contracts/inchain_atomicswap/InchainAtomicSwap.sol:InchainAtomicSwap","label":"paginationSize","offset":0,"slot":"0","type":"t_uint256"},{"astId":2055,"contract":"contracts/inchain_atomicswap/InchainAtomicSwap.sol:InchainAtomicSwap","label":"swapOrder","offset":0,"slot":"1","type":"t_mapping(t_bytes32,t_struct(AtomicSwapOrder)2402_storage)"},{"astId":2062,"contract":"contracts/inchain_atomicswap/InchainAtomicSwap.sol:InchainAtomicSwap","label":"swapOrderVestingParams","offset":0,"slot":"2","type":"t_mapping(t_bytes32,t_array(t_struct(Release)2448_storage)dyn_storage)"},{"astId":2070,"contract":"contracts/inchain_atomicswap/InchainAtomicSwap.sol:InchainAtomicSwap","label":"bids","offset":0,"slot":"3","type":"t_mapping(t_bytes32,t_mapping(t_address,t_struct(Bid)2422_storage))"},{"astId":2074,"contract":"contracts/inchain_atomicswap/InchainAtomicSwap.sol:InchainAtomicSwap","label":"vestingManager","offset":0,"slot":"4","type":"t_contract(IVesting)5038"},{"astId":2077,"contract":"contracts/inchain_atomicswap/InchainAtomicSwap.sol:InchainAtomicSwap","label":"treasury","offset":0,"slot":"5","type":"t_address"},{"astId":2080,"contract":"contracts/inchain_atomicswap/InchainAtomicSwap.sol:InchainAtomicSwap","label":"sellerFeeRate","offset":0,"slot":"6","type":"t_uint256"},{"astId":2083,"contract":"contracts/inchain_atomicswap/InchainAtomicSwap.sol:InchainAtomicSwap","label":"buyerFeeRate","offset":0,"slot":"7","type":"t_uint256"},{"astId":2094,"contract":"contracts/inchain_atomicswap/InchainAtomicSwap.sol:InchainAtomicSwap","label":"counteroffers","offset":0,"slot":"8","type":"t_mapping(t_bytes32,t_mapping(t_address,t_uint256))"}],"types":{"t_address":{"encoding":"inplace","label":"address","numberOfBytes":"20"},"t_array(t_struct(Release)2448_storage)dyn_storage":{"base":"t_struct(Release)2448_storage","encoding":"dynamic_array","label":"struct IAtomicSwapBase.Release[]","numberOfBytes":"32"},"t_bool":{"encoding":"inplace","label":"bool","numberOfBytes":"1"},"t_bytes32":{"encoding":"inplace","label":"bytes32","numberOfBytes":"32"},"t_contract(IVesting)5038":{"encoding":"inplace","label":"contract IVesting","numberOfBytes":"20"},"t_enum(BidStatus)2407":{"encoding":"inplace","label":"enum IAtomicSwapBase.BidStatus","numberOfBytes":"1"},"t_enum(OrderStatus)2373":{"encoding":"inplace","label":"enum IAtomicSwapBase.OrderStatus","numberOfBytes":"1"},"t_mapping(t_address,t_struct(Bid)2422_storage)":{"encoding":"mapping","key":"t_address","label":"mapping(address => struct IAtomicSwapBase.Bid)","numberOfBytes":"32","value":"t_struct(Bid)2422_storage"},"t_mapping(t_address,t_uint256)":{"encoding":"mapping","key":"t_address","label":"mapping(address => uint256)","numberOfBytes":"32","value":"t_uint256"},"t_mapping(t_bytes32,t_array(t_struct(Release)2448_storage)dyn_storage)":{"encoding":"mapping","key":"t_bytes32","label":"mapping(bytes32 => struct IAtomicSwapBase.Release[])","numberOfBytes":"32","value":"t_array(t_struct(Release)2448_storage)dyn_storage"},"t_mapping(t_bytes32,t_mapping(t_address,t_struct(Bid)2422_storage))":{"encoding":"mapping","key":"t_bytes32","label":"mapping(bytes32 => mapping(address => struct IAtomicSwapBase.Bid))","numberOfBytes":"32","value":"t_mapping(t_address,t_struct(Bid)2422_storage)"},"t_mapping(t_bytes32,t_mapping(t_address,t_uint256))":{"encoding":"mapping","key":"t_bytes32","label":"mapping(bytes32 => mapping(address => uint256))","numberOfBytes":"32","value":"t_mapping(t_address,t_uint256)"},"t_mapping(t_bytes32,t_struct(AtomicSwapOrder)2402_storage)":{"encoding":"mapping","key":"t_bytes32","label":"mapping(bytes32 => struct IAtomicSwapBase.AtomicSwapOrder)","numberOfBytes":"32","value":"t_struct(AtomicSwapOrder)2402_storage"},"t_struct(AtomicSwapOrder)2402_storage":{"encoding":"inplace","label":"struct IAtomicSwapBase.AtomicSwapOrder","members":[{"astId":2376,"contract":"contracts/inchain_atomicswap/InchainAtomicSwap.sol:InchainAtomicSwap","label":"id","offset":0,"slot":"0","type":"t_bytes32"},{"astId":2379,"contract":"contracts/inchain_atomicswap/InchainAtomicSwap.sol:InchainAtomicSwap","label":"status","offset":0,"slot":"1","type":"t_enum(OrderStatus)2373"},{"astId":2381,"contract":"contracts/inchain_atomicswap/InchainAtomicSwap.sol:InchainAtomicSwap","label":"maker","offset":1,"slot":"1","type":"t_address"},{"astId":2384,"contract":"contracts/inchain_atomicswap/InchainAtomicSwap.sol:InchainAtomicSwap","label":"sellToken","offset":0,"slot":"2","type":"t_struct(Coin)2367_storage"},{"astId":2386,"contract":"contracts/inchain_atomicswap/InchainAtomicSwap.sol:InchainAtomicSwap","label":"taker","offset":0,"slot":"4","type":"t_address"},{"astId":2389,"contract":"contracts/inchain_atomicswap/InchainAtomicSwap.sol:InchainAtomicSwap","label":"buyToken","offset":0,"slot":"5","type":"t_struct(Coin)2367_storage"},{"astId":2391,"contract":"contracts/inchain_atomicswap/InchainAtomicSwap.sol:InchainAtomicSwap","label":"minBidAmount","offset":0,"slot":"7","type":"t_uint256"},{"astId":2393,"contract":"contracts/inchain_atomicswap/InchainAtomicSwap.sol:InchainAtomicSwap","label":"createdAt","offset":0,"slot":"8","type":"t_uint256"},{"astId":2395,"contract":"contracts/inchain_atomicswap/InchainAtomicSwap.sol:InchainAtomicSwap","label":"canceledAt","offset":0,"slot":"9","type":"t_uint256"},{"astId":2397,"contract":"contracts/inchain_atomicswap/InchainAtomicSwap.sol:InchainAtomicSwap","label":"completedAt","offset":0,"slot":"10","type":"t_uint256"},{"astId":2399,"contract":"contracts/inchain_atomicswap/InchainAtomicSwap.sol:InchainAtomicSwap","label":"expiredAt","offset":0,"slot":"11","type":"t_uint256"},{"astId":2401,"contract":"contracts/inchain_atomicswap/InchainAtomicSwap.sol:InchainAtomicSwap","label":"acceptBid","offset":0,"slot":"12","type":"t_bool"}],"numberOfBytes":"416"},"t_struct(Bid)2422_storage":{"encoding":"inplace","label":"struct IAtomicSwapBase.Bid","members":[{"astId":2410,"contract":"contracts/inchain_atomicswap/InchainAtomicSwap.sol:InchainAtomicSwap","label":"amount","offset":0,"slot":"0","type":"t_uint256"},{"astId":2412,"contract":"contracts/inchain_atomicswap/InchainAtomicSwap.sol:InchainAtomicSwap","label":"order","offset":0,"slot":"1","type":"t_bytes32"},{"astId":2415,"contract":"contracts/inchain_atomicswap/InchainAtomicSwap.sol:InchainAtomicSwap","label":"status","offset":0,"slot":"2","type":"t_enum(BidStatus)2407"},{"astId":2417,"contract":"contracts/inchain_atomicswap/InchainAtomicSwap.sol:InchainAtomicSwap","label":"bidder","offset":1,"slot":"2","type":"t_address"},{"astId":2419,"contract":"contracts/inchain_atomicswap/InchainAtomicSwap.sol:InchainAtomicSwap","label":"receiveTimestamp","offset":0,"slot":"3","type":"t_uint256"},{"astId":2421,"contract":"contracts/inchain_atomicswap/InchainAtomicSwap.sol:InchainAtomicSwap","label":"expireTimestamp","offset":0,"slot":"4","type":"t_uint256"}],"numberOfBytes":"160"},"t_struct(Coin)2367_storage":{"encoding":"inplace","label":"struct IAtomicSwapBase.Coin","members":[{"astId":2364,"contract":"contracts/inchain_atomicswap/InchainAtomicSwap.sol:InchainAtomicSwap","label":"token","offset":0,"slot":"0","type":"t_address"},{"astId":2366,"contract":"contracts/inchain_atomicswap/InchainAtomicSwap.sol:InchainAtomicSwap","label":"amount","offset":0,"slot":"1","type":"t_uint256"}],"numberOfBytes":"64"},"t_struct(Release)2448_storage":{"encoding":"inplace","label":"struct IAtomicSwapBase.Release","members":[{"astId":2445,"contract":"contracts/inchain_atomicswap/InchainAtomicSwap.sol:InchainAtomicSwap","label":"durationInHours","offset":0,"slot":"0","type":"t_uint256"},{"astId":2447,"contract":"contracts/inchain_atomicswap/InchainAtomicSwap.sol:InchainAtomicSwap","label":"percentage","offset":0,"slot":"1","type":"t_uint256"}],"numberOfBytes":"64"},"t_uint256":{"encoding":"inplace","label":"uint256","numberOfBytes":"32"}}}}}}