{"contracts/abstracts/libs/utils/AtomicSwapMsgValidator.sol":{"AtomicSwapMsgValidator":{"abi":[{"inputs":[{"internalType":"address","name":"contractAddress","type":"address"}],"name":"InvalidContractAddress","type":"error"},{"inputs":[{"internalType":"uint256","name":"provided","type":"uint256"},{"internalType":"uint256","name":"maximum","type":"uint256"}],"name":"InvalidExpirationTime","type":"error"},{"inputs":[],"name":"InvalidMinimumBidLimit","type":"error"},{"inputs":[],"name":"InvalidReleasePercentage","type":"error"},{"inputs":[],"name":"InvalidTotalPercentage","type":"error"},{"inputs":[],"name":"OverMaximumReleaseStep","type":"error"},{"inputs":[],"name":"UnauthorizedCancelAction","type":"error"},{"inputs":[],"name":"UnauthorizedSender","type":"error"},{"inputs":[],"name":"UnauthorizedTakeAction","type":"error"},{"inputs":[],"name":"ZeroReleaseSchedule","type":"error"},{"inputs":[{"internalType":"address","name":"_addr","type":"address"}],"name":"isContract","outputs":[{"internalType":"bool","name":"","type":"bool"}],"stateMutability":"view","type":"function"},{"inputs":[{"components":[{"internalType":"bytes32","name":"uuid","type":"bytes32"},{"components":[{"internalType":"address","name":"token","type":"address"},{"internalType":"uint256","name":"amount","type":"uint256"}],"internalType":"struct IAtomicSwapBase.Coin","name":"sellToken","type":"tuple"},{"components":[{"internalType":"address","name":"token","type":"address"},{"internalType":"uint256","name":"amount","type":"uint256"}],"internalType":"struct IAtomicSwapBase.Coin","name":"buyToken","type":"tuple"},{"internalType":"address","name":"maker","type":"address"},{"internalType":"address","name":"desiredTaker","type":"address"},{"internalType":"uint256","name":"minBidAmount","type":"uint256"},{"internalType":"uint256","name":"expireAt","type":"uint256"},{"internalType":"bool","name":"acceptBid","type":"bool"}],"internalType":"struct IAtomicSwapBase.MakeSwapMsg","name":"makeswap","type":"tuple"}],"name":"validateMakeSwapParams","outputs":[],"stateMutability":"view","type":"function"},{"inputs":[{"components":[{"internalType":"bytes32","name":"orderID","type":"bytes32"},{"internalType":"address","name":"takerReceiver","type":"address"}],"internalType":"struct IAtomicSwapBase.TakeSwapMsg","name":"takeswap","type":"tuple"}],"name":"validateTakeSwapParams","outputs":[],"stateMutability":"pure","type":"function"},{"inputs":[{"components":[{"internalType":"uint256","name":"durationInHours","type":"uint256"},{"internalType":"uint256","name":"percentage","type":"uint256"}],"internalType":"struct IAtomicSwapBase.Release[]","name":"releases","type":"tuple[]"}],"name":"validateVestingParams","outputs":[],"stateMutability":"pure","type":"function"}],"evm":{"bytecode":{"linkReferences":{},"object":"610df1610053600b82828239805160001a607314610046577f4e487b7100000000000000000000000000000000000000000000000000000000600052600060045260246000fd5b30600052607381538281f3fe730000000000000000000000000000000000000000301460806040526004361061006c5760003560e01c8063162790551461007157806333b988f5146100a15780637aa10b6a146100bd5780639a0ebe00146100d9578063c27eeaac146100f5578063c3aee15d14610111575b600080fd5b61008b60048036038101906100869190610763565b61012d565b60405161009891906107ab565b60405180910390f35b6100bb60048036038101906100b691906109aa565b610146565b005b6100d760048036038101906100d29190610a29565b6102a1565b005b6100f360048036038101906100ee9190610bd4565b61038c565b005b61010f600480360381019061010a9190610c52565b6105f8565b005b61012b60048036038101906101269190610a29565b610665565b005b600080823b905060008163ffffffff1611915050919050565b6000815103610181576040517ffd68e07a00000000000000000000000000000000000000000000000000000000815260040160405180910390fd5b6000805b82518110156102255760008382815181106101a3576101a2610c7f565b5b602002602001015160200151905060008110806101cc57506000821180156101cb5750600081145b5b15610203576040517f2b82b70d00000000000000000000000000000000000000000000000000000000815260040160405180910390fd5b808361020f9190610cdd565b925050808061021d90610d11565b915050610185565b506127108114610261576040517f0b8ad7f100000000000000000000000000000000000000000000000000000000815260040160405180910390fd5b60968251111561029d576040517f1531e37f00000000000000000000000000000000000000000000000000000000815260040160405180910390fd5b5050565b600073ffffffffffffffffffffffffffffffffffffffff168160040160009054906101000a900473ffffffffffffffffffffffffffffffffffffffff1673ffffffffffffffffffffffffffffffffffffffff161415801561035257503373ffffffffffffffffffffffffffffffffffffffff168160040160009054906101000a900473ffffffffffffffffffffffffffffffffffffffff1673ffffffffffffffffffffffffffffffffffffffff1614155b15610389576040517fbe544a2b00000000000000000000000000000000000000000000000000000000815260040160405180910390fd5b50565b600073ffffffffffffffffffffffffffffffffffffffff1681602001516000015173ffffffffffffffffffffffffffffffffffffffff16141580156103df57506103dd81602001516000015161012d565b155b15610429578060200151600001516040517f19bb40290000000000000000000000000000000000000000000000000000000081526004016104209190610d68565b60405180910390fd5b600073ffffffffffffffffffffffffffffffffffffffff1681604001516000015173ffffffffffffffffffffffffffffffffffffffff161415801561047c575061047a81604001516000015161012d565b155b156104c6578060400151600001516040517f19bb40290000000000000000000000000000000000000000000000000000000081526004016104bd9190610d68565b60405180910390fd5b60008160a0015111610504576040517f5fe07c7d00000000000000000000000000000000000000000000000000000000815260040160405180910390fd5b600073ffffffffffffffffffffffffffffffffffffffff163373ffffffffffffffffffffffffffffffffffffffff16148061056f5750806060015173ffffffffffffffffffffffffffffffffffffffff163373ffffffffffffffffffffffffffffffffffffffff1614155b156105a6576040517f0809490800000000000000000000000000000000000000000000000000000000815260040160405180910390fd5b428160c0015110156105f5578060c00151426040517ff00605cf0000000000000000000000000000000000000000000000000000000081526004016105ec929190610d92565b60405180910390fd5b50565b600073ffffffffffffffffffffffffffffffffffffffff16816020015173ffffffffffffffffffffffffffffffffffffffff1603610662576040517f0809490800000000000000000000000000000000000000000000000000000000815260040160405180910390fd5b50565b3373ffffffffffffffffffffffffffffffffffffffff168160010160019054906101000a900473ffffffffffffffffffffffffffffffffffffffff1673ffffffffffffffffffffffffffffffffffffffff16146106ee576040517f978f045600000000000000000000000000000000000000000000000000000000815260040160405180910390fd5b50565b6000604051905090565b600080fd5b600080fd5b600073ffffffffffffffffffffffffffffffffffffffff82169050919050565b600061073082610705565b9050919050565b61074081610725565b811461074b57600080fd5b50565b60008135905061075d81610737565b92915050565b600060208284031215610779576107786106fb565b5b60006107878482850161074e565b91505092915050565b60008115159050919050565b6107a581610790565b82525050565b60006020820190506107c0600083018461079c565b92915050565b600080fd5b6000601f19601f8301169050919050565b7f4e487b7100000000000000000000000000000000000000000000000000000000600052604160045260246000fd5b610814826107cb565b810181811067ffffffffffffffff82111715610833576108326107dc565b5b80604052505050565b60006108466106f1565b9050610852828261080b565b919050565b600067ffffffffffffffff821115610872576108716107dc565b5b602082029050602081019050919050565b600080fd5b600080fd5b6000819050919050565b6108a08161088d565b81146108ab57600080fd5b50565b6000813590506108bd81610897565b92915050565b6000604082840312156108d9576108d8610888565b5b6108e3604061083c565b905060006108f3848285016108ae565b6000830152506020610907848285016108ae565b60208301525092915050565b600061092661092184610857565b61083c565b9050808382526020820190506040840283018581111561094957610948610883565b5b835b81811015610972578061095e88826108c3565b84526020840193505060408101905061094b565b5050509392505050565b600082601f830112610991576109906107c6565b5b81356109a1848260208601610913565b91505092915050565b6000602082840312156109c0576109bf6106fb565b5b600082013567ffffffffffffffff8111156109de576109dd610700565b5b6109ea8482850161097c565b91505092915050565b6000819050919050565b610a06816109f3565b8114610a1157600080fd5b50565b600081359050610a23816109fd565b92915050565b600060208284031215610a3f57610a3e6106fb565b5b6000610a4d84828501610a14565b91505092915050565b6000819050919050565b610a6981610a56565b8114610a7457600080fd5b50565b600081359050610a8681610a60565b92915050565b600060408284031215610aa257610aa1610888565b5b610aac604061083c565b90506000610abc8482850161074e565b6000830152506020610ad0848285016108ae565b60208301525092915050565b610ae581610790565b8114610af057600080fd5b50565b600081359050610b0281610adc565b92915050565b60006101408284031215610b1f57610b1e610888565b5b610b2a61010061083c565b90506000610b3a84828501610a77565b6000830152506020610b4e84828501610a8c565b6020830152506060610b6284828501610a8c565b60408301525060a0610b768482850161074e565b60608301525060c0610b8a8482850161074e565b60808301525060e0610b9e848285016108ae565b60a083015250610100610bb3848285016108ae565b60c083015250610120610bc884828501610af3565b60e08301525092915050565b60006101408284031215610beb57610bea6106fb565b5b6000610bf984828501610b08565b91505092915050565b600060408284031215610c1857610c17610888565b5b610c22604061083c565b90506000610c3284828501610a77565b6000830152506020610c468482850161074e565b60208301525092915050565b600060408284031215610c6857610c676106fb565b5b6000610c7684828501610c02565b91505092915050565b7f4e487b7100000000000000000000000000000000000000000000000000000000600052603260045260246000fd5b7f4e487b7100000000000000000000000000000000000000000000000000000000600052601160045260246000fd5b6000610ce88261088d565b9150610cf38361088d565b9250828201905080821115610d0b57610d0a610cae565b5b92915050565b6000610d1c8261088d565b91507fffffffffffffffffffffffffffffffffffffffffffffffffffffffffffffffff8203610d4e57610d4d610cae565b5b600182019050919050565b610d6281610725565b82525050565b6000602082019050610d7d6000830184610d59565b92915050565b610d8c8161088d565b82525050565b6000604082019050610da76000830185610d83565b610db46020830184610d83565b939250505056fea2646970667358221220dd13bcc4b340804975bb8b89623488e5ed51d7b485053d798033d1125360219b64736f6c63430008140033","opcodes":"PUSH2 0xDF1 PUSH2 0x53 PUSH1 0xB DUP3 DUP3 DUP3 CODECOPY DUP1 MLOAD PUSH1 0x0 BYTE PUSH1 0x73 EQ PUSH2 0x46 JUMPI PUSH32 0x4E487B7100000000000000000000000000000000000000000000000000000000 PUSH1 0x0 MSTORE PUSH1 0x0 PUSH1 0x4 MSTORE PUSH1 0x24 PUSH1 0x0 REVERT JUMPDEST ADDRESS PUSH1 0x0 MSTORE PUSH1 0x73 DUP2 MSTORE8 DUP3 DUP2 RETURN INVALID PUSH20 0x0 ADDRESS EQ PUSH1 0x80 PUSH1 0x40 MSTORE PUSH1 0x4 CALLDATASIZE LT PUSH2 0x6C JUMPI PUSH1 0x0 CALLDATALOAD PUSH1 0xE0 SHR DUP1 PUSH4 0x16279055 EQ PUSH2 0x71 JUMPI DUP1 PUSH4 0x33B988F5 EQ PUSH2 0xA1 JUMPI DUP1 PUSH4 0x7AA10B6A EQ PUSH2 0xBD JUMPI DUP1 PUSH4 0x9A0EBE00 EQ PUSH2 0xD9 JUMPI DUP1 PUSH4 0xC27EEAAC EQ PUSH2 0xF5 JUMPI DUP1 PUSH4 0xC3AEE15D EQ PUSH2 0x111 JUMPI JUMPDEST PUSH1 0x0 DUP1 REVERT JUMPDEST PUSH2 0x8B PUSH1 0x4 DUP1 CALLDATASIZE SUB DUP2 ADD SWAP1 PUSH2 0x86 SWAP2 SWAP1 PUSH2 0x763 JUMP JUMPDEST PUSH2 0x12D JUMP JUMPDEST PUSH1 0x40 MLOAD PUSH2 0x98 SWAP2 SWAP1 PUSH2 0x7AB JUMP JUMPDEST PUSH1 0x40 MLOAD DUP1 SWAP2 SUB SWAP1 RETURN JUMPDEST PUSH2 0xBB PUSH1 0x4 DUP1 CALLDATASIZE SUB DUP2 ADD SWAP1 PUSH2 0xB6 SWAP2 SWAP1 PUSH2 0x9AA JUMP JUMPDEST PUSH2 0x146 JUMP JUMPDEST STOP JUMPDEST PUSH2 0xD7 PUSH1 0x4 DUP1 CALLDATASIZE SUB DUP2 ADD SWAP1 PUSH2 0xD2 SWAP2 SWAP1 PUSH2 0xA29 JUMP JUMPDEST PUSH2 0x2A1 JUMP JUMPDEST STOP JUMPDEST PUSH2 0xF3 PUSH1 0x4 DUP1 CALLDATASIZE SUB DUP2 ADD SWAP1 PUSH2 0xEE SWAP2 SWAP1 PUSH2 0xBD4 JUMP JUMPDEST PUSH2 0x38C JUMP JUMPDEST STOP JUMPDEST PUSH2 0x10F PUSH1 0x4 DUP1 CALLDATASIZE SUB DUP2 ADD SWAP1 PUSH2 0x10A SWAP2 SWAP1 PUSH2 0xC52 JUMP JUMPDEST PUSH2 0x5F8 JUMP JUMPDEST STOP JUMPDEST PUSH2 0x12B PUSH1 0x4 DUP1 CALLDATASIZE SUB DUP2 ADD SWAP1 PUSH2 0x126 SWAP2 SWAP1 PUSH2 0xA29 JUMP JUMPDEST PUSH2 0x665 JUMP JUMPDEST STOP JUMPDEST PUSH1 0x0 DUP1 DUP3 EXTCODESIZE SWAP1 POP PUSH1 0x0 DUP2 PUSH4 0xFFFFFFFF AND GT SWAP2 POP POP SWAP2 SWAP1 POP JUMP JUMPDEST PUSH1 0x0 DUP2 MLOAD SUB PUSH2 0x181 JUMPI PUSH1 0x40 MLOAD PUSH32 0xFD68E07A00000000000000000000000000000000000000000000000000000000 DUP2 MSTORE PUSH1 0x4 ADD PUSH1 0x40 MLOAD DUP1 SWAP2 SUB SWAP1 REVERT JUMPDEST PUSH1 0x0 DUP1 JUMPDEST DUP3 MLOAD DUP2 LT ISZERO PUSH2 0x225 JUMPI PUSH1 0x0 DUP4 DUP3 DUP2 MLOAD DUP2 LT PUSH2 0x1A3 JUMPI PUSH2 0x1A2 PUSH2 0xC7F JUMP JUMPDEST JUMPDEST PUSH1 0x20 MUL PUSH1 0x20 ADD ADD MLOAD PUSH1 0x20 ADD MLOAD SWAP1 POP PUSH1 0x0 DUP2 LT DUP1 PUSH2 0x1CC JUMPI POP PUSH1 0x0 DUP3 GT DUP1 ISZERO PUSH2 0x1CB JUMPI POP PUSH1 0x0 DUP2 EQ JUMPDEST JUMPDEST ISZERO PUSH2 0x203 JUMPI PUSH1 0x40 MLOAD PUSH32 0x2B82B70D00000000000000000000000000000000000000000000000000000000 DUP2 MSTORE PUSH1 0x4 ADD PUSH1 0x40 MLOAD DUP1 SWAP2 SUB SWAP1 REVERT JUMPDEST DUP1 DUP4 PUSH2 0x20F SWAP2 SWAP1 PUSH2 0xCDD JUMP JUMPDEST SWAP3 POP POP DUP1 DUP1 PUSH2 0x21D SWAP1 PUSH2 0xD11 JUMP JUMPDEST SWAP2 POP POP PUSH2 0x185 JUMP JUMPDEST POP PUSH2 0x2710 DUP2 EQ PUSH2 0x261 JUMPI PUSH1 0x40 MLOAD PUSH32 0xB8AD7F100000000000000000000000000000000000000000000000000000000 DUP2 MSTORE PUSH1 0x4 ADD PUSH1 0x40 MLOAD DUP1 SWAP2 SUB SWAP1 REVERT JUMPDEST PUSH1 0x96 DUP3 MLOAD GT ISZERO PUSH2 0x29D JUMPI PUSH1 0x40 MLOAD PUSH32 0x1531E37F00000000000000000000000000000000000000000000000000000000 DUP2 MSTORE PUSH1 0x4 ADD PUSH1 0x40 MLOAD DUP1 SWAP2 SUB SWAP1 REVERT JUMPDEST POP POP JUMP JUMPDEST PUSH1 0x0 PUSH20 0xFFFFFFFFFFFFFFFFFFFFFFFFFFFFFFFFFFFFFFFF AND DUP2 PUSH1 0x4 ADD PUSH1 0x0 SWAP1 SLOAD SWAP1 PUSH2 0x100 EXP SWAP1 DIV PUSH20 0xFFFFFFFFFFFFFFFFFFFFFFFFFFFFFFFFFFFFFFFF AND PUSH20 0xFFFFFFFFFFFFFFFFFFFFFFFFFFFFFFFFFFFFFFFF AND EQ ISZERO DUP1 ISZERO PUSH2 0x352 JUMPI POP CALLER PUSH20 0xFFFFFFFFFFFFFFFFFFFFFFFFFFFFFFFFFFFFFFFF AND DUP2 PUSH1 0x4 ADD PUSH1 0x0 SWAP1 SLOAD SWAP1 PUSH2 0x100 EXP SWAP1 DIV PUSH20 0xFFFFFFFFFFFFFFFFFFFFFFFFFFFFFFFFFFFFFFFF AND PUSH20 0xFFFFFFFFFFFFFFFFFFFFFFFFFFFFFFFFFFFFFFFF AND EQ ISZERO JUMPDEST ISZERO PUSH2 0x389 JUMPI PUSH1 0x40 MLOAD PUSH32 0xBE544A2B00000000000000000000000000000000000000000000000000000000 DUP2 MSTORE PUSH1 0x4 ADD PUSH1 0x40 MLOAD DUP1 SWAP2 SUB SWAP1 REVERT JUMPDEST POP JUMP JUMPDEST PUSH1 0x0 PUSH20 0xFFFFFFFFFFFFFFFFFFFFFFFFFFFFFFFFFFFFFFFF AND DUP2 PUSH1 0x20 ADD MLOAD PUSH1 0x0 ADD MLOAD PUSH20 0xFFFFFFFFFFFFFFFFFFFFFFFFFFFFFFFFFFFFFFFF AND EQ ISZERO DUP1 ISZERO PUSH2 0x3DF JUMPI POP PUSH2 0x3DD DUP2 PUSH1 0x20 ADD MLOAD PUSH1 0x0 ADD MLOAD PUSH2 0x12D JUMP JUMPDEST ISZERO JUMPDEST ISZERO PUSH2 0x429 JUMPI DUP1 PUSH1 0x20 ADD MLOAD PUSH1 0x0 ADD MLOAD PUSH1 0x40 MLOAD PUSH32 0x19BB402900000000000000000000000000000000000000000000000000000000 DUP2 MSTORE PUSH1 0x4 ADD PUSH2 0x420 SWAP2 SWAP1 PUSH2 0xD68 JUMP JUMPDEST PUSH1 0x40 MLOAD DUP1 SWAP2 SUB SWAP1 REVERT JUMPDEST PUSH1 0x0 PUSH20 0xFFFFFFFFFFFFFFFFFFFFFFFFFFFFFFFFFFFFFFFF AND DUP2 PUSH1 0x40 ADD MLOAD PUSH1 0x0 ADD MLOAD PUSH20 0xFFFFFFFFFFFFFFFFFFFFFFFFFFFFFFFFFFFFFFFF AND EQ ISZERO DUP1 ISZERO PUSH2 0x47C JUMPI POP PUSH2 0x47A DUP2 PUSH1 0x40 ADD MLOAD PUSH1 0x0 ADD MLOAD PUSH2 0x12D JUMP JUMPDEST ISZERO JUMPDEST ISZERO PUSH2 0x4C6 JUMPI DUP1 PUSH1 0x40 ADD MLOAD PUSH1 0x0 ADD MLOAD PUSH1 0x40 MLOAD PUSH32 0x19BB402900000000000000000000000000000000000000000000000000000000 DUP2 MSTORE PUSH1 0x4 ADD PUSH2 0x4BD SWAP2 SWAP1 PUSH2 0xD68 JUMP JUMPDEST PUSH1 0x40 MLOAD DUP1 SWAP2 SUB SWAP1 REVERT JUMPDEST PUSH1 0x0 DUP2 PUSH1 0xA0 ADD MLOAD GT PUSH2 0x504 JUMPI PUSH1 0x40 MLOAD PUSH32 0x5FE07C7D00000000000000000000000000000000000000000000000000000000 DUP2 MSTORE PUSH1 0x4 ADD PUSH1 0x40 MLOAD DUP1 SWAP2 SUB SWAP1 REVERT JUMPDEST PUSH1 0x0 PUSH20 0xFFFFFFFFFFFFFFFFFFFFFFFFFFFFFFFFFFFFFFFF AND CALLER PUSH20 0xFFFFFFFFFFFFFFFFFFFFFFFFFFFFFFFFFFFFFFFF AND EQ DUP1 PUSH2 0x56F JUMPI POP DUP1 PUSH1 0x60 ADD MLOAD PUSH20 0xFFFFFFFFFFFFFFFFFFFFFFFFFFFFFFFFFFFFFFFF AND CALLER PUSH20 0xFFFFFFFFFFFFFFFFFFFFFFFFFFFFFFFFFFFFFFFF AND EQ ISZERO JUMPDEST ISZERO PUSH2 0x5A6 JUMPI PUSH1 0x40 MLOAD PUSH32 0x809490800000000000000000000000000000000000000000000000000000000 DUP2 MSTORE PUSH1 0x4 ADD PUSH1 0x40 MLOAD DUP1 SWAP2 SUB SWAP1 REVERT JUMPDEST TIMESTAMP DUP2 PUSH1 0xC0 ADD MLOAD LT ISZERO PUSH2 0x5F5 JUMPI DUP1 PUSH1 0xC0 ADD MLOAD TIMESTAMP PUSH1 0x40 MLOAD PUSH32 0xF00605CF00000000000000000000000000000000000000000000000000000000 DUP2 MSTORE PUSH1 0x4 ADD PUSH2 0x5EC SWAP3 SWAP2 SWAP1 PUSH2 0xD92 JUMP JUMPDEST PUSH1 0x40 MLOAD DUP1 SWAP2 SUB SWAP1 REVERT JUMPDEST POP JUMP JUMPDEST PUSH1 0x0 PUSH20 0xFFFFFFFFFFFFFFFFFFFFFFFFFFFFFFFFFFFFFFFF AND DUP2 PUSH1 0x20 ADD MLOAD PUSH20 0xFFFFFFFFFFFFFFFFFFFFFFFFFFFFFFFFFFFFFFFF AND SUB PUSH2 0x662 JUMPI PUSH1 0x40 MLOAD PUSH32 0x809490800000000000000000000000000000000000000000000000000000000 DUP2 MSTORE PUSH1 0x4 ADD PUSH1 0x40 MLOAD DUP1 SWAP2 SUB SWAP1 REVERT JUMPDEST POP JUMP JUMPDEST CALLER PUSH20 0xFFFFFFFFFFFFFFFFFFFFFFFFFFFFFFFFFFFFFFFF AND DUP2 PUSH1 0x1 ADD PUSH1 0x1 SWAP1 SLOAD SWAP1 PUSH2 0x100 EXP SWAP1 DIV PUSH20 0xFFFFFFFFFFFFFFFFFFFFFFFFFFFFFFFFFFFFFFFF AND PUSH20 0xFFFFFFFFFFFFFFFFFFFFFFFFFFFFFFFFFFFFFFFF AND EQ PUSH2 0x6EE JUMPI PUSH1 0x40 MLOAD PUSH32 0x978F045600000000000000000000000000000000000000000000000000000000 DUP2 MSTORE PUSH1 0x4 ADD PUSH1 0x40 MLOAD DUP1 SWAP2 SUB SWAP1 REVERT JUMPDEST POP JUMP JUMPDEST PUSH1 0x0 PUSH1 0x40 MLOAD SWAP1 POP SWAP1 JUMP JUMPDEST PUSH1 0x0 DUP1 REVERT JUMPDEST PUSH1 0x0 DUP1 REVERT JUMPDEST PUSH1 0x0 PUSH20 0xFFFFFFFFFFFFFFFFFFFFFFFFFFFFFFFFFFFFFFFF DUP3 AND SWAP1 POP SWAP2 SWAP1 POP JUMP JUMPDEST PUSH1 0x0 PUSH2 0x730 DUP3 PUSH2 0x705 JUMP JUMPDEST SWAP1 POP SWAP2 SWAP1 POP JUMP JUMPDEST PUSH2 0x740 DUP2 PUSH2 0x725 JUMP JUMPDEST DUP2 EQ PUSH2 0x74B JUMPI PUSH1 0x0 DUP1 REVERT JUMPDEST POP JUMP JUMPDEST PUSH1 0x0 DUP2 CALLDATALOAD SWAP1 POP PUSH2 0x75D DUP2 PUSH2 0x737 JUMP JUMPDEST SWAP3 SWAP2 POP POP JUMP JUMPDEST PUSH1 0x0 PUSH1 0x20 DUP3 DUP5 SUB SLT ISZERO PUSH2 0x779 JUMPI PUSH2 0x778 PUSH2 0x6FB JUMP JUMPDEST JUMPDEST PUSH1 0x0 PUSH2 0x787 DUP5 DUP3 DUP6 ADD PUSH2 0x74E JUMP JUMPDEST SWAP2 POP POP SWAP3 SWAP2 POP POP JUMP JUMPDEST PUSH1 0x0 DUP2 ISZERO ISZERO SWAP1 POP SWAP2 SWAP1 POP JUMP JUMPDEST PUSH2 0x7A5 DUP2 PUSH2 0x790 JUMP JUMPDEST DUP3 MSTORE POP POP JUMP JUMPDEST PUSH1 0x0 PUSH1 0x20 DUP3 ADD SWAP1 POP PUSH2 0x7C0 PUSH1 0x0 DUP4 ADD DUP5 PUSH2 0x79C JUMP JUMPDEST SWAP3 SWAP2 POP POP JUMP JUMPDEST PUSH1 0x0 DUP1 REVERT JUMPDEST PUSH1 0x0 PUSH1 0x1F NOT PUSH1 0x1F DUP4 ADD AND SWAP1 POP SWAP2 SWAP1 POP JUMP JUMPDEST PUSH32 0x4E487B7100000000000000000000000000000000000000000000000000000000 PUSH1 0x0 MSTORE PUSH1 0x41 PUSH1 0x4 MSTORE PUSH1 0x24 PUSH1 0x0 REVERT JUMPDEST PUSH2 0x814 DUP3 PUSH2 0x7CB JUMP JUMPDEST DUP2 ADD DUP2 DUP2 LT PUSH8 0xFFFFFFFFFFFFFFFF DUP3 GT OR ISZERO PUSH2 0x833 JUMPI PUSH2 0x832 PUSH2 0x7DC JUMP JUMPDEST JUMPDEST DUP1 PUSH1 0x40 MSTORE POP POP POP JUMP JUMPDEST PUSH1 0x0 PUSH2 0x846 PUSH2 0x6F1 JUMP JUMPDEST SWAP1 POP PUSH2 0x852 DUP3 DUP3 PUSH2 0x80B JUMP JUMPDEST SWAP2 SWAP1 POP JUMP JUMPDEST PUSH1 0x0 PUSH8 0xFFFFFFFFFFFFFFFF DUP3 GT ISZERO PUSH2 0x872 JUMPI PUSH2 0x871 PUSH2 0x7DC JUMP JUMPDEST JUMPDEST PUSH1 0x20 DUP3 MUL SWAP1 POP PUSH1 0x20 DUP2 ADD SWAP1 POP SWAP2 SWAP1 POP JUMP JUMPDEST PUSH1 0x0 DUP1 REVERT JUMPDEST PUSH1 0x0 DUP1 REVERT JUMPDEST PUSH1 0x0 DUP2 SWAP1 POP SWAP2 SWAP1 POP JUMP JUMPDEST PUSH2 0x8A0 DUP2 PUSH2 0x88D JUMP JUMPDEST DUP2 EQ PUSH2 0x8AB JUMPI PUSH1 0x0 DUP1 REVERT JUMPDEST POP JUMP JUMPDEST PUSH1 0x0 DUP2 CALLDATALOAD SWAP1 POP PUSH2 0x8BD DUP2 PUSH2 0x897 JUMP JUMPDEST SWAP3 SWAP2 POP POP JUMP JUMPDEST PUSH1 0x0 PUSH1 0x40 DUP3 DUP5 SUB SLT ISZERO PUSH2 0x8D9 JUMPI PUSH2 0x8D8 PUSH2 0x888 JUMP JUMPDEST JUMPDEST PUSH2 0x8E3 PUSH1 0x40 PUSH2 0x83C JUMP JUMPDEST SWAP1 POP PUSH1 0x0 PUSH2 0x8F3 DUP5 DUP3 DUP6 ADD PUSH2 0x8AE JUMP JUMPDEST PUSH1 0x0 DUP4 ADD MSTORE POP PUSH1 0x20 PUSH2 0x907 DUP5 DUP3 DUP6 ADD PUSH2 0x8AE JUMP JUMPDEST PUSH1 0x20 DUP4 ADD MSTORE POP SWAP3 SWAP2 POP POP JUMP JUMPDEST PUSH1 0x0 PUSH2 0x926 PUSH2 0x921 DUP5 PUSH2 0x857 JUMP JUMPDEST PUSH2 0x83C JUMP JUMPDEST SWAP1 POP DUP1 DUP4 DUP3 MSTORE PUSH1 0x20 DUP3 ADD SWAP1 POP PUSH1 0x40 DUP5 MUL DUP4 ADD DUP6 DUP2 GT ISZERO PUSH2 0x949 JUMPI PUSH2 0x948 PUSH2 0x883 JUMP JUMPDEST JUMPDEST DUP4 JUMPDEST DUP2 DUP2 LT ISZERO PUSH2 0x972 JUMPI DUP1 PUSH2 0x95E DUP9 DUP3 PUSH2 0x8C3 JUMP JUMPDEST DUP5 MSTORE PUSH1 0x20 DUP5 ADD SWAP4 POP POP PUSH1 0x40 DUP2 ADD SWAP1 POP PUSH2 0x94B JUMP JUMPDEST POP POP POP SWAP4 SWAP3 POP POP POP JUMP JUMPDEST PUSH1 0x0 DUP3 PUSH1 0x1F DUP4 ADD SLT PUSH2 0x991 JUMPI PUSH2 0x990 PUSH2 0x7C6 JUMP JUMPDEST JUMPDEST DUP2 CALLDATALOAD PUSH2 0x9A1 DUP5 DUP3 PUSH1 0x20 DUP7 ADD PUSH2 0x913 JUMP JUMPDEST SWAP2 POP POP SWAP3 SWAP2 POP POP JUMP JUMPDEST PUSH1 0x0 PUSH1 0x20 DUP3 DUP5 SUB SLT ISZERO PUSH2 0x9C0 JUMPI PUSH2 0x9BF PUSH2 0x6FB JUMP JUMPDEST JUMPDEST PUSH1 0x0 DUP3 ADD CALLDATALOAD PUSH8 0xFFFFFFFFFFFFFFFF DUP2 GT ISZERO PUSH2 0x9DE JUMPI PUSH2 0x9DD PUSH2 0x700 JUMP JUMPDEST JUMPDEST PUSH2 0x9EA DUP5 DUP3 DUP6 ADD PUSH2 0x97C JUMP JUMPDEST SWAP2 POP POP SWAP3 SWAP2 POP POP JUMP JUMPDEST PUSH1 0x0 DUP2 SWAP1 POP SWAP2 SWAP1 POP JUMP JUMPDEST PUSH2 0xA06 DUP2 PUSH2 0x9F3 JUMP JUMPDEST DUP2 EQ PUSH2 0xA11 JUMPI PUSH1 0x0 DUP1 REVERT JUMPDEST POP JUMP JUMPDEST PUSH1 0x0 DUP2 CALLDATALOAD SWAP1 POP PUSH2 0xA23 DUP2 PUSH2 0x9FD JUMP JUMPDEST SWAP3 SWAP2 POP POP JUMP JUMPDEST PUSH1 0x0 PUSH1 0x20 DUP3 DUP5 SUB SLT ISZERO PUSH2 0xA3F JUMPI PUSH2 0xA3E PUSH2 0x6FB JUMP JUMPDEST JUMPDEST PUSH1 0x0 PUSH2 0xA4D DUP5 DUP3 DUP6 ADD PUSH2 0xA14 JUMP JUMPDEST SWAP2 POP POP SWAP3 SWAP2 POP POP JUMP JUMPDEST PUSH1 0x0 DUP2 SWAP1 POP SWAP2 SWAP1 POP JUMP JUMPDEST PUSH2 0xA69 DUP2 PUSH2 0xA56 JUMP JUMPDEST DUP2 EQ PUSH2 0xA74 JUMPI PUSH1 0x0 DUP1 REVERT JUMPDEST POP JUMP JUMPDEST PUSH1 0x0 DUP2 CALLDATALOAD SWAP1 POP PUSH2 0xA86 DUP2 PUSH2 0xA60 JUMP JUMPDEST SWAP3 SWAP2 POP POP JUMP JUMPDEST PUSH1 0x0 PUSH1 0x40 DUP3 DUP5 SUB SLT ISZERO PUSH2 0xAA2 JUMPI PUSH2 0xAA1 PUSH2 0x888 JUMP JUMPDEST JUMPDEST PUSH2 0xAAC PUSH1 0x40 PUSH2 0x83C JUMP JUMPDEST SWAP1 POP PUSH1 0x0 PUSH2 0xABC DUP5 DUP3 DUP6 ADD PUSH2 0x74E JUMP JUMPDEST PUSH1 0x0 DUP4 ADD MSTORE POP PUSH1 0x20 PUSH2 0xAD0 DUP5 DUP3 DUP6 ADD PUSH2 0x8AE JUMP JUMPDEST PUSH1 0x20 DUP4 ADD MSTORE POP SWAP3 SWAP2 POP POP JUMP JUMPDEST PUSH2 0xAE5 DUP2 PUSH2 0x790 JUMP JUMPDEST DUP2 EQ PUSH2 0xAF0 JUMPI PUSH1 0x0 DUP1 REVERT JUMPDEST POP JUMP JUMPDEST PUSH1 0x0 DUP2 CALLDATALOAD SWAP1 POP PUSH2 0xB02 DUP2 PUSH2 0xADC JUMP JUMPDEST SWAP3 SWAP2 POP POP JUMP JUMPDEST PUSH1 0x0 PUSH2 0x140 DUP3 DUP5 SUB SLT ISZERO PUSH2 0xB1F JUMPI PUSH2 0xB1E PUSH2 0x888 JUMP JUMPDEST JUMPDEST PUSH2 0xB2A PUSH2 0x100 PUSH2 0x83C JUMP JUMPDEST SWAP1 POP PUSH1 0x0 PUSH2 0xB3A DUP5 DUP3 DUP6 ADD PUSH2 0xA77 JUMP JUMPDEST PUSH1 0x0 DUP4 ADD MSTORE POP PUSH1 0x20 PUSH2 0xB4E DUP5 DUP3 DUP6 ADD PUSH2 0xA8C JUMP JUMPDEST PUSH1 0x20 DUP4 ADD MSTORE POP PUSH1 0x60 PUSH2 0xB62 DUP5 DUP3 DUP6 ADD PUSH2 0xA8C JUMP JUMPDEST PUSH1 0x40 DUP4 ADD MSTORE POP PUSH1 0xA0 PUSH2 0xB76 DUP5 DUP3 DUP6 ADD PUSH2 0x74E JUMP JUMPDEST PUSH1 0x60 DUP4 ADD MSTORE POP PUSH1 0xC0 PUSH2 0xB8A DUP5 DUP3 DUP6 ADD PUSH2 0x74E JUMP JUMPDEST PUSH1 0x80 DUP4 ADD MSTORE POP PUSH1 0xE0 PUSH2 0xB9E DUP5 DUP3 DUP6 ADD PUSH2 0x8AE JUMP JUMPDEST PUSH1 0xA0 DUP4 ADD MSTORE POP PUSH2 0x100 PUSH2 0xBB3 DUP5 DUP3 DUP6 ADD PUSH2 0x8AE JUMP JUMPDEST PUSH1 0xC0 DUP4 ADD MSTORE POP PUSH2 0x120 PUSH2 0xBC8 DUP5 DUP3 DUP6 ADD PUSH2 0xAF3 JUMP JUMPDEST PUSH1 0xE0 DUP4 ADD MSTORE POP SWAP3 SWAP2 POP POP JUMP JUMPDEST PUSH1 0x0 PUSH2 0x140 DUP3 DUP5 SUB SLT ISZERO PUSH2 0xBEB JUMPI PUSH2 0xBEA PUSH2 0x6FB JUMP JUMPDEST JUMPDEST PUSH1 0x0 PUSH2 0xBF9 DUP5 DUP3 DUP6 ADD PUSH2 0xB08 JUMP JUMPDEST SWAP2 POP POP SWAP3 SWAP2 POP POP JUMP JUMPDEST PUSH1 0x0 PUSH1 0x40 DUP3 DUP5 SUB SLT ISZERO PUSH2 0xC18 JUMPI PUSH2 0xC17 PUSH2 0x888 JUMP JUMPDEST JUMPDEST PUSH2 0xC22 PUSH1 0x40 PUSH2 0x83C JUMP JUMPDEST SWAP1 POP PUSH1 0x0 PUSH2 0xC32 DUP5 DUP3 DUP6 ADD PUSH2 0xA77 JUMP JUMPDEST PUSH1 0x0 DUP4 ADD MSTORE POP PUSH1 0x20 PUSH2 0xC46 DUP5 DUP3 DUP6 ADD PUSH2 0x74E JUMP JUMPDEST PUSH1 0x20 DUP4 ADD MSTORE POP SWAP3 SWAP2 POP POP JUMP JUMPDEST PUSH1 0x0 PUSH1 0x40 DUP3 DUP5 SUB SLT ISZERO PUSH2 0xC68 JUMPI PUSH2 0xC67 PUSH2 0x6FB JUMP JUMPDEST JUMPDEST PUSH1 0x0 PUSH2 0xC76 DUP5 DUP3 DUP6 ADD PUSH2 0xC02 JUMP JUMPDEST SWAP2 POP POP SWAP3 SWAP2 POP POP JUMP JUMPDEST PUSH32 0x4E487B7100000000000000000000000000000000000000000000000000000000 PUSH1 0x0 MSTORE PUSH1 0x32 PUSH1 0x4 MSTORE PUSH1 0x24 PUSH1 0x0 REVERT JUMPDEST PUSH32 0x4E487B7100000000000000000000000000000000000000000000000000000000 PUSH1 0x0 MSTORE PUSH1 0x11 PUSH1 0x4 MSTORE PUSH1 0x24 PUSH1 0x0 REVERT JUMPDEST PUSH1 0x0 PUSH2 0xCE8 DUP3 PUSH2 0x88D JUMP JUMPDEST SWAP2 POP PUSH2 0xCF3 DUP4 PUSH2 0x88D JUMP JUMPDEST SWAP3 POP DUP3 DUP3 ADD SWAP1 POP DUP1 DUP3 GT ISZERO PUSH2 0xD0B JUMPI PUSH2 0xD0A PUSH2 0xCAE JUMP JUMPDEST JUMPDEST SWAP3 SWAP2 POP POP JUMP JUMPDEST PUSH1 0x0 PUSH2 0xD1C DUP3 PUSH2 0x88D JUMP JUMPDEST SWAP2 POP PUSH32 0xFFFFFFFFFFFFFFFFFFFFFFFFFFFFFFFFFFFFFFFFFFFFFFFFFFFFFFFFFFFFFFFF DUP3 SUB PUSH2 0xD4E JUMPI PUSH2 0xD4D PUSH2 0xCAE JUMP JUMPDEST JUMPDEST PUSH1 0x1 DUP3 ADD SWAP1 POP SWAP2 SWAP1 POP JUMP JUMPDEST PUSH2 0xD62 DUP2 PUSH2 0x725 JUMP JUMPDEST DUP3 MSTORE POP POP JUMP JUMPDEST PUSH1 0x0 PUSH1 0x20 DUP3 ADD SWAP1 POP PUSH2 0xD7D PUSH1 0x0 DUP4 ADD DUP5 PUSH2 0xD59 JUMP JUMPDEST SWAP3 SWAP2 POP POP JUMP JUMPDEST PUSH2 0xD8C DUP2 PUSH2 0x88D JUMP JUMPDEST DUP3 MSTORE POP POP JUMP JUMPDEST PUSH1 0x0 PUSH1 0x40 DUP3 ADD SWAP1 POP PUSH2 0xDA7 PUSH1 0x0 DUP4 ADD DUP6 PUSH2 0xD83 JUMP JUMPDEST PUSH2 0xDB4 PUSH1 0x20 DUP4 ADD DUP5 PUSH2 0xD83 JUMP JUMPDEST SWAP4 SWAP3 POP POP POP JUMP INVALID LOG2 PUSH5 0x6970667358 0x22 SLT KECCAK256 0xDD SGT 0xBC 0xC4 0xB3 BLOCKHASH DUP1 0x49 PUSH22 0xBB8B89623488E5ED51D7B485053D798033D112536021 SWAP12 PUSH5 0x736F6C6343 STOP ADDMOD EQ STOP CALLER "},"methodIdentifiers":{"isContract(address)":"16279055","validateCancelSwap(IAtomicSwapBase.AtomicSwapOrder storage)":"c3aee15d","validateMakeSwapParams(IAtomicSwapBase.MakeSwapMsg)":"9a0ebe00","validateTakeSwap(IAtomicSwapBase.AtomicSwapOrder storage)":"7aa10b6a","validateTakeSwapParams(IAtomicSwapBase.TakeSwapMsg)":"c27eeaac","validateVestingParams(IAtomicSwapBase.Release[])":"33b988f5"}},"storageLayout":{"storage":[],"types":null}}}}