{"contracts/vesting/Vesting.sol":{"Vesting":{"abi":[{"inputs":[],"name":"AccessControlBadConfirmation","type":"error"},{"inputs":[{"internalType":"address","name":"account","type":"address"},{"internalType":"bytes32","name":"neededRole","type":"bytes32"}],"name":"AccessControlUnauthorizedAccount","type":"error"},{"inputs":[],"name":"DuplicateReleaseSchedule","type":"error"},{"inputs":[],"name":"EnforcedPause","type":"error"},{"inputs":[],"name":"ExpectedPause","type":"error"},{"inputs":[],"name":"InvalidInitialization","type":"error"},{"inputs":[],"name":"InvalidTotalPercentage","type":"error"},{"inputs":[],"name":"InvalidVesting","type":"error"},{"inputs":[],"name":"NoVestedTokensAvailable","type":"error"},{"inputs":[],"name":"NoVestedTokensForRelease","type":"error"},{"inputs":[{"internalType":"uint256","name":"real","type":"uint256"},{"internalType":"uint256","name":"expected","type":"uint256"}],"name":"NotEnoughFund","type":"error"},{"inputs":[],"name":"NotInitializing","type":"error"},{"inputs":[],"name":"OverMaximumReleaseStep","type":"error"},{"inputs":[],"name":"ReentrancyGuardReentrantCall","type":"error"},{"inputs":[{"internalType":"address","name":"beneficiary","type":"address"}],"name":"VestingAlreadyStarted","type":"error"},{"inputs":[],"name":"VestingNotStarted","type":"error"},{"anonymous":false,"inputs":[{"indexed":false,"internalType":"uint64","name":"version","type":"uint64"}],"name":"Initialized","type":"event"},{"anonymous":false,"inputs":[{"components":[{"components":[{"internalType":"address","name":"from","type":"address"},{"internalType":"uint256","name":"start","type":"uint256"},{"internalType":"address","name":"token","type":"address"},{"internalType":"uint256","name":"totalAmount","type":"uint256"},{"internalType":"uint256","name":"amountReleased","type":"uint256"},{"internalType":"uint256","name":"lastReleasedStep","type":"uint256"}],"internalType":"struct IVesting.VestingSchedule","name":"schedule","type":"tuple"},{"components":[{"internalType":"uint256","name":"durationInHours","type":"uint256"},{"internalType":"uint256","name":"percentage","type":"uint256"}],"internalType":"struct IAtomicSwapBase.Release[]","name":"release","type":"tuple[]"},{"internalType":"address","name":"beneficiary","type":"address"},{"internalType":"bytes32","name":"orderId","type":"bytes32"}],"indexed":true,"internalType":"struct IVesting.VestingInfo","name":"vesting","type":"tuple"}],"name":"NewVesting","type":"event"},{"anonymous":false,"inputs":[{"indexed":false,"internalType":"address","name":"account","type":"address"}],"name":"Paused","type":"event"},{"anonymous":false,"inputs":[{"indexed":true,"internalType":"address","name":"sender","type":"address"},{"indexed":true,"internalType":"uint256","name":"amount","type":"uint256"}],"name":"Received","type":"event"},{"anonymous":false,"inputs":[{"indexed":true,"internalType":"address","name":"beneficiary","type":"address"},{"indexed":true,"internalType":"uint256","name":"amount","type":"uint256"}],"name":"Released","type":"event"},{"anonymous":false,"inputs":[{"indexed":true,"internalType":"bytes32","name":"role","type":"bytes32"},{"indexed":true,"internalType":"bytes32","name":"previousAdminRole","type":"bytes32"},{"indexed":true,"internalType":"bytes32","name":"newAdminRole","type":"bytes32"}],"name":"RoleAdminChanged","type":"event"},{"anonymous":false,"inputs":[{"indexed":true,"internalType":"bytes32","name":"role","type":"bytes32"},{"indexed":true,"internalType":"address","name":"account","type":"address"},{"indexed":true,"internalType":"address","name":"sender","type":"address"}],"name":"RoleGranted","type":"event"},{"anonymous":false,"inputs":[{"indexed":true,"internalType":"bytes32","name":"role","type":"bytes32"},{"indexed":true,"internalType":"address","name":"account","type":"address"},{"indexed":true,"internalType":"address","name":"sender","type":"address"}],"name":"RoleRevoked","type":"event"},{"anonymous":false,"inputs":[{"indexed":false,"internalType":"address","name":"account","type":"address"}],"name":"Unpaused","type":"event"},{"inputs":[],"name":"DEFAULT_ADMIN_ROLE","outputs":[{"internalType":"bytes32","name":"","type":"bytes32"}],"stateMutability":"view","type":"function"},{"inputs":[],"name":"PAUSER_ROLE","outputs":[{"internalType":"bytes32","name":"","type":"bytes32"}],"stateMutability":"view","type":"function"},{"inputs":[{"internalType":"address","name":"_account","type":"address"}],"name":"addAdmin","outputs":[],"stateMutability":"nonpayable","type":"function"},{"inputs":[{"internalType":"address","name":"_account","type":"address"}],"name":"addPauser","outputs":[],"stateMutability":"nonpayable","type":"function"},{"inputs":[{"internalType":"bytes32","name":"role","type":"bytes32"}],"name":"getRoleAdmin","outputs":[{"internalType":"bytes32","name":"","type":"bytes32"}],"stateMutability":"view","type":"function"},{"inputs":[{"internalType":"bytes32","name":"role","type":"bytes32"},{"internalType":"address","name":"account","type":"address"}],"name":"grantRole","outputs":[],"stateMutability":"nonpayable","type":"function"},{"inputs":[{"internalType":"bytes32","name":"role","type":"bytes32"},{"internalType":"address","name":"account","type":"address"}],"name":"hasRole","outputs":[{"internalType":"bool","name":"","type":"bool"}],"stateMutability":"view","type":"function"},{"inputs":[{"internalType":"address","name":"_admin","type":"address"}],"name":"initialize","outputs":[],"stateMutability":"nonpayable","type":"function"},{"inputs":[{"internalType":"address","name":"_account","type":"address"}],"name":"isAdmin","outputs":[{"internalType":"bool","name":"","type":"bool"}],"stateMutability":"view","type":"function"},{"inputs":[{"internalType":"address","name":"_account","type":"address"}],"name":"isPauser","outputs":[{"internalType":"bool","name":"","type":"bool"}],"stateMutability":"view","type":"function"},{"inputs":[],"name":"paginationSize","outputs":[{"internalType":"uint256","name":"","type":"uint256"}],"stateMutability":"view","type":"function"},{"inputs":[],"name":"pause","outputs":[],"stateMutability":"nonpayable","type":"function"},{"inputs":[],"name":"paused","outputs":[{"internalType":"bool","name":"","type":"bool"}],"stateMutability":"view","type":"function"},{"inputs":[{"internalType":"address","name":"beneficiary","type":"address"},{"internalType":"bytes32","name":"orderId","type":"bytes32"}],"name":"release","outputs":[],"stateMutability":"nonpayable","type":"function"},{"inputs":[{"internalType":"address","name":"","type":"address"},{"internalType":"bytes32","name":"","type":"bytes32"},{"internalType":"uint256","name":"","type":"uint256"}],"name":"releaseInfos","outputs":[{"internalType":"uint256","name":"durationInHours","type":"uint256"},{"internalType":"uint256","name":"percentage","type":"uint256"}],"stateMutability":"view","type":"function"},{"inputs":[{"internalType":"address","name":"_account","type":"address"}],"name":"removeAdmin","outputs":[],"stateMutability":"nonpayable","type":"function"},{"inputs":[{"internalType":"address","name":"_account","type":"address"}],"name":"removePauser","outputs":[],"stateMutability":"nonpayable","type":"function"},{"inputs":[{"internalType":"bytes32","name":"role","type":"bytes32"},{"internalType":"address","name":"callerConfirmation","type":"address"}],"name":"renounceRole","outputs":[],"stateMutability":"nonpayable","type":"function"},{"inputs":[{"internalType":"bytes32","name":"role","type":"bytes32"},{"internalType":"address","name":"account","type":"address"}],"name":"revokeRole","outputs":[],"stateMutability":"nonpayable","type":"function"},{"inputs":[{"internalType":"uint256","name":"_paginationSize","type":"uint256"}],"name":"setPaginationSize","outputs":[],"stateMutability":"nonpayable","type":"function"},{"inputs":[{"internalType":"bytes32","name":"orderId","type":"bytes32"},{"internalType":"address","name":"beneficiary","type":"address"},{"internalType":"address","name":"token","type":"address"},{"internalType":"uint256","name":"totalAmount","type":"uint256"},{"components":[{"internalType":"uint256","name":"durationInHours","type":"uint256"},{"internalType":"uint256","name":"percentage","type":"uint256"}],"internalType":"struct IAtomicSwapBase.Release[]","name":"releases","type":"tuple[]"}],"name":"startVesting","outputs":[],"stateMutability":"payable","type":"function"},{"inputs":[{"internalType":"bytes4","name":"interfaceId","type":"bytes4"}],"name":"supportsInterface","outputs":[{"internalType":"bool","name":"","type":"bool"}],"stateMutability":"view","type":"function"},{"inputs":[],"name":"unpause","outputs":[],"stateMutability":"nonpayable","type":"function"},{"inputs":[{"internalType":"address","name":"","type":"address"},{"internalType":"bytes32","name":"","type":"bytes32"}],"name":"vestingSchedules","outputs":[{"internalType":"address","name":"from","type":"address"},{"internalType":"uint256","name":"start","type":"uint256"},{"internalType":"address","name":"token","type":"address"},{"internalType":"uint256","name":"totalAmount","type":"uint256"},{"internalType":"uint256","name":"amountReleased","type":"uint256"},{"internalType":"uint256","name":"lastReleasedStep","type":"uint256"}],"stateMutability":"view","type":"function"},{"stateMutability":"payable","type":"receive"}],"evm":{"bytecode":{"linkReferences":{"contracts/abstracts/libs/utils/AtomicSwapMsgValidator.sol":{"AtomicSwapMsgValidator":[{"length":20,"start":2670}]}},"object":"608060405234801561001057600080fd5b506131a4806100206000396000f3fe60806040526004361061014f5760003560e01c80637623f00e116100b6578063a217fddf1161006f578063a217fddf14610532578063c4d66de81461055d578063d547741f14610586578063d7c2eec7146105af578063e63ab1e9146105d8578063f2407ca414610603576101e6565b80637623f00e146104195780637b00ffad1461043557806382a969e21461047757806382dc1ec4146104b55780638456cb59146104de57806391d14854146104f5576101e6565b80633d538ecf116101085780633d538ecf1461031d5780633f4ba83a1461034857806346fbf68e1461035f5780635c975abb1461039c5780636b2c0f55146103c757806370480275146103f0576101e6565b806301ffc9a7146101eb5780631785f53c14610228578063248a9ca31461025157806324d7806c1461028e5780632f2ff15d146102cb57806336568abe146102f4576101e6565b366101e6576101616000801b3361062c565b6101a0576040517f08c379a000000000000000000000000000000000000000000000000000000000815260040161019790612251565b60405180910390fd5b343373ffffffffffffffffffffffffffffffffffffffff167f88a5966d370b9919b20f3e2c13ff65706f196a4e32cc2c12bf57088f8852587460405160405180910390a3005b600080fd5b3480156101f757600080fd5b50610212600480360381019061020d91906122dd565b6106a5565b60405161021f9190612325565b60405180910390f35b34801561023457600080fd5b5061024f600480360381019061024a919061239e565b61071f565b005b34801561025d57600080fd5b5061027860048036038101906102739190612401565b61072f565b604051610285919061243d565b60405180910390f35b34801561029a57600080fd5b506102b560048036038101906102b0919061239e565b61075d565b6040516102c29190612325565b60405180910390f35b3480156102d757600080fd5b506102f260048036038101906102ed9190612458565b610773565b005b34801561030057600080fd5b5061031b60048036038101906103169190612458565b610795565b005b34801561032957600080fd5b50610332610810565b60405161033f91906124b1565b60405180910390f35b34801561035457600080fd5b5061035d610816565b005b34801561036b57600080fd5b506103866004803603810190610381919061239e565b610889565b6040516103939190612325565b60405180910390f35b3480156103a857600080fd5b506103b16108bc565b6040516103be9190612325565b60405180910390f35b3480156103d357600080fd5b506103ee60048036038101906103e9919061239e565b6108e1565b005b3480156103fc57600080fd5b506104176004803603810190610412919061239e565b61090e565b005b610433600480360381019061042e91906126a6565b61091e565b005b34801561044157600080fd5b5061045c6004803603810190610457919061273d565b610e07565b60405161046e9695949392919061278c565b60405180910390f35b34801561048357600080fd5b5061049e600480360381019061049991906127ed565b610e90565b6040516104ac929190612840565b60405180910390f35b3480156104c157600080fd5b506104dc60048036038101906104d7919061239e565b610ede565b005b3480156104ea57600080fd5b506104f3610f0b565b005b34801561050157600080fd5b5061051c60048036038101906105179190612458565b61062c565b6040516105299190612325565b60405180910390f35b34801561053e57600080fd5b50610547610f7e565b604051610554919061243d565b60405180910390f35b34801561056957600080fd5b50610584600480360381019061057f919061239e565b610f85565b005b34801561059257600080fd5b506105ad60048036038101906105a89190612458565b611114565b005b3480156105bb57600080fd5b506105d660048036038101906105d1919061273d565b611136565b005b3480156105e457600080fd5b506105ed611463565b6040516105fa919061243d565b60405180910390f35b34801561060f57600080fd5b5061062a60048036038101906106259190612869565b611487565b005b600080610637611520565b905080600001600085815260200190815260200160002060000160008473ffffffffffffffffffffffffffffffffffffffff1673ffffffffffffffffffffffffffffffffffffffff16815260200190815260200160002060009054906101000a900460ff1691505092915050565b60007f7965db0b000000000000000000000000000000000000000000000000000000007bffffffffffffffffffffffffffffffffffffffffffffffffffffffff1916827bffffffffffffffffffffffffffffffffffffffffffffffffffffffff19161480610718575061071782611548565b5b9050919050565b61072c6000801b82611114565b50565b60008061073a611520565b905080600001600084815260200190815260200160002060010154915050919050565b600061076c6000801b8361062c565b9050919050565b61077c8261072f565b610785816115b2565b61078f83836115c6565b50505050565b61079d6116c7565b73ffffffffffffffffffffffffffffffffffffffff168173ffffffffffffffffffffffffffffffffffffffff1614610801576040517f6697b23200000000000000000000000000000000000000000000000000000000815260040160405180910390fd5b61080b82826116cf565b505050565b60005481565b6108407f65d7a28e3265b37a6474929f336521b332c1681b933f6cb9f3376673440d862a3361062c565b61087f576040517f08c379a000000000000000000000000000000000000000000000000000000000815260040161087690612251565b60405180910390fd5b6108876117d1565b565b60006108b57f65d7a28e3265b37a6474929f336521b332c1681b933f6cb9f3376673440d862a8361062c565b9050919050565b6000806108c7611843565b90508060000160009054906101000a900460ff1691505090565b61090b7f65d7a28e3265b37a6474929f336521b332c1681b933f6cb9f3376673440d862a82611114565b50565b61091b6000801b82610773565b50565b61092661186b565b6109336000801b3361062c565b610972576040517f08c379a000000000000000000000000000000000000000000000000000000000815260040161096990612251565b60405180910390fd5b600073ffffffffffffffffffffffffffffffffffffffff16600160008673ffffffffffffffffffffffffffffffffffffffff1673ffffffffffffffffffffffffffffffffffffffff168152602001908152602001600020600087815260200190815260200160002060000160009054906101000a900473ffffffffffffffffffffffffffffffffffffffff1673ffffffffffffffffffffffffffffffffffffffff1614610a4b576040517f628dbb9600000000000000000000000000000000000000000000000000000000815260040160405180910390fd5b8073__$2effe1973215a034e8e4a17bdeb5710028$__6333b988f590916040518263ffffffff1660e01b8152600401610a849190612983565b60006040518083038186803b158015610a9c57600080fd5b505af4158015610ab0573d6000803e3d6000fd5b50505050600073ffffffffffffffffffffffffffffffffffffffff168373ffffffffffffffffffffffffffffffffffffffff1603610b3357813414610b2e5781346040517f04157bb4000000000000000000000000000000000000000000000000000000008152600401610b25929190612840565b60405180910390fd5b610b40565b610b3f833330856118c2565b5b600042905060006040518060c001604052803373ffffffffffffffffffffffffffffffffffffffff1681526020018381526020018673ffffffffffffffffffffffffffffffffffffffff168152602001858152602001600081526020016000815250905080600160008873ffffffffffffffffffffffffffffffffffffffff1673ffffffffffffffffffffffffffffffffffffffff168152602001908152602001600020600089815260200190815260200160002060008201518160000160006101000a81548173ffffffffffffffffffffffffffffffffffffffff021916908373ffffffffffffffffffffffffffffffffffffffff1602179055506020820151816001015560408201518160020160006101000a81548173ffffffffffffffffffffffffffffffffffffffff021916908373ffffffffffffffffffffffffffffffffffffffff160217905550606082015181600301556080820151816004015560a082015181600501559050506000600260008873ffffffffffffffffffffffffffffffffffffffff1673ffffffffffffffffffffffffffffffffffffffff1681526020019081526020016000206000898152602001908152602001600020905060005b8451811015610d7c5781858281518110610d2257610d216129a5565b5b60200260200101519080600181540180825580915050600190039060005260206000209060020201600090919091909150600082015181600001556020820151816001015550508080610d7490612a03565b915050610d05565b5060405180608001604052808381526020018581526020018873ffffffffffffffffffffffffffffffffffffffff16815260200189815250604051610dc19190612c66565b60405180910390207fb16abbea6ba3704f5f2a80a6e86817bd96545258a4bbe645becfc85ab722675260405160405180910390a2505050610e006119fb565b5050505050565b6001602052816000526040600020602052806000526040600020600091509150508060000160009054906101000a900473ffffffffffffffffffffffffffffffffffffffff16908060010154908060020160009054906101000a900473ffffffffffffffffffffffffffffffffffffffff16908060030154908060040154908060050154905086565b60026020528260005260406000206020528160005260406000208181548110610eb857600080fd5b906000526020600020906002020160009250925050508060000154908060010154905082565b610f087f65d7a28e3265b37a6474929f336521b332c1681b933f6cb9f3376673440d862a82610773565b50565b610f357f65d7a28e3265b37a6474929f336521b332c1681b933f6cb9f3376673440d862a3361062c565b610f74576040517f08c379a0000000000000000000000000000000000000000000000000000000008152600401610f6b90612251565b60405180910390fd5b610f7c611a14565b565b6000801b81565b6000610f8f611a86565b905060008160000160089054906101000a900460ff1615905060008260000160009054906101000a900467ffffffffffffffff1690506000808267ffffffffffffffff16148015610fdd5750825b9050600060018367ffffffffffffffff16148015611012575060003073ffffffffffffffffffffffffffffffffffffffff163b145b905081158015611020575080155b15611057576040517ff92ee8a900000000000000000000000000000000000000000000000000000000815260040160405180910390fd5b60018560000160006101000a81548167ffffffffffffffff021916908367ffffffffffffffff16021790555083156110a75760018560000160086101000a81548160ff0219169083151502179055505b6110b086611aae565b831561110c5760008560000160086101000a81548160ff0219169083151502179055507fc7f505b2f371ae2175ee4913f4499e1f2633a7b5936321eed1cdaeb6115181d260016040516111039190612cd6565b60405180910390a15b505050505050565b61111d8261072f565b611126816115b2565b61113083836116cf565b50505050565b61113e61186b565b611146611c5d565b6000600160008473ffffffffffffffffffffffffffffffffffffffff1673ffffffffffffffffffffffffffffffffffffffff168152602001908152602001600020600083815260200190815260200160002090506000600260008573ffffffffffffffffffffffffffffffffffffffff1673ffffffffffffffffffffffffffffffffffffffff1681526020019081526020016000206000848152602001908152602001600020905060008180549050148061120957508080549050826005015410155b15611240576040517f8bdb538100000000000000000000000000000000000000000000000000000000815260040160405180910390fd5b600080836001015490506000846005015490505b838054905081101561132257610e10848281548110611276576112756129a5565b5b9060005260206000209060020201600001546112929190612cf1565b8261129d9190612d33565b91508142106113225760006127108583815481106112be576112bd6129a5565b5b90600052602060002090600202016001015487600301546112df9190612cf1565b6112e99190612d96565b905080846112f79190612d33565b93506001826113069190612d33565b866005018190555050808061131a90612a03565b915050611254565b506000821161135d576040517f3507415000000000000000000000000000000000000000000000000000000000815260040160405180910390fd5b818460040160008282546113719190612d33565b92505081905550600073ffffffffffffffffffffffffffffffffffffffff168460020160009054906101000a900473ffffffffffffffffffffffffffffffffffffffff1673ffffffffffffffffffffffffffffffffffffffff1614611404576113ff8460020160009054906101000a900473ffffffffffffffffffffffffffffffffffffffff168784611c9e565b61140f565b61140e8683611dd4565b5b818673ffffffffffffffffffffffffffffffffffffffff167fb21fb52d5749b80f3182f8c6992236b5e5576681880914484d7f4c9b062e619e60405160405180910390a35050505061145f6119fb565b5050565b7f65d7a28e3265b37a6474929f336521b332c1681b933f6cb9f3376673440d862a81565b6114946000801b3361062c565b6114d3576040517f08c379a00000000000000000000000000000000000000000000000000000000081526004016114ca90612251565b60405180910390fd5b60008111611516576040517f08c379a000000000000000000000000000000000000000000000000000000000815260040161150d90612e13565b60405180910390fd5b8060008190555050565b60007f02dd7bc7dec4dceedda775e58dd541e08a116c6c53815c0bd028192f7b626800905090565b60007f01ffc9a7000000000000000000000000000000000000000000000000000000007bffffffffffffffffffffffffffffffffffffffffffffffffffffffff1916827bffffffffffffffffffffffffffffffffffffffffffffffffffffffff1916149050919050565b6115c3816115be6116c7565b611ed4565b50565b6000806115d1611520565b90506115dd848461062c565b6116bb57600181600001600086815260200190815260200160002060000160008573ffffffffffffffffffffffffffffffffffffffff1673ffffffffffffffffffffffffffffffffffffffff16815260200190815260200160002060006101000a81548160ff0219169083151502179055506116576116c7565b73ffffffffffffffffffffffffffffffffffffffff168373ffffffffffffffffffffffffffffffffffffffff16857f2f8788117e7eff1d82e926ec794901d17c78024a50270940304540a733656f0d60405160405180910390a460019150506116c1565b60009150505b92915050565b600033905090565b6000806116da611520565b90506116e6848461062c565b156117c557600081600001600086815260200190815260200160002060000160008573ffffffffffffffffffffffffffffffffffffffff1673ffffffffffffffffffffffffffffffffffffffff16815260200190815260200160002060006101000a81548160ff0219169083151502179055506117616116c7565b73ffffffffffffffffffffffffffffffffffffffff168373ffffffffffffffffffffffffffffffffffffffff16857ff6391f5c32d9c69d2a47ea670b442974b53935d1edc7fd64eb21e047a839171b60405160405180910390a460019150506117cb565b60009150505b92915050565b6117d9611f25565b60006117e3611843565b905060008160000160006101000a81548160ff0219169083151502179055507f5db9ee0a495bf2e6ff9c91a7834c1ba4fdd244a5e8aa4e537bd38aeae4b073aa61182b6116c7565b6040516118389190612e33565b60405180910390a150565b60007fcd5ed15c6e187e77e9aee88184c21f4f2182ab5827cb3b7e07fbedcd63f03300905090565b6000611875611f65565b905060028160000154036118b5576040517f3ee5aeb500000000000000000000000000000000000000000000000000000000815260040160405180910390fd5b6002816000018190555050565b6000808573ffffffffffffffffffffffffffffffffffffffff166323b872dd8686866040516024016118f693929190612e4e565b6040516020818303038152906040529060e01b6020820180517bffffffffffffffffffffffffffffffffffffffffffffffffffffffff83818316178352505050506040516119449190612ef6565b6000604051808303816000865af19150503d8060008114611981576040519150601f19603f3d011682016040523d82523d6000602084013e611986565b606091505b50915091508180156119b457506000815114806119b35750808060200190518101906119b29190612f39565b5b5b6119f3576040517f08c379a00000000000000000000000000000000000000000000000000000000081526004016119ea90612fd8565b60405180910390fd5b505050505050565b6000611a05611f65565b90506001816000018190555050565b611a1c611c5d565b6000611a26611843565b905060018160000160006101000a81548160ff0219169083151502179055507f62e78cea01bee320cd4e420270b5ea74000d11b0c9f74754ebdbfc544b05a258611a6e6116c7565b604051611a7b9190612e33565b60405180910390a150565b60007ff0c57e16840df040f15088dc2f81fe391c3923bec73e23a9662efc9c229c6a00905090565b6000611ab8611a86565b905060008160000160089054906101000a900460ff1615905060008260000160009054906101000a900467ffffffffffffffff1690506000808267ffffffffffffffff16148015611b065750825b9050600060018367ffffffffffffffff16148015611b3b575060003073ffffffffffffffffffffffffffffffffffffffff163b145b905081158015611b49575080155b15611b80576040517ff92ee8a900000000000000000000000000000000000000000000000000000000815260040160405180910390fd5b60018560000160006101000a81548167ffffffffffffffff021916908367ffffffffffffffff1602179055508315611bd05760018560000160086101000a81548160ff0219169083151502179055505b611bd8611f8d565b611be0611f97565b611be8611fa1565b611bf186611fd5565b60646000819055508315611c555760008560000160086101000a81548160ff0219169083151502179055507fc7f505b2f371ae2175ee4913f4499e1f2633a7b5936321eed1cdaeb6115181d26001604051611c4c9190612cd6565b60405180910390a15b505050505050565b611c656108bc565b15611c9c576040517fd93c066500000000000000000000000000000000000000000000000000000000815260040160405180910390fd5b565b6000808473ffffffffffffffffffffffffffffffffffffffff1663a9059cbb8585604051602401611cd0929190612ff8565b6040516020818303038152906040529060e01b6020820180517bffffffffffffffffffffffffffffffffffffffffffffffffffffffff8381831617835250505050604051611d1e9190612ef6565b6000604051808303816000865af19150503d8060008114611d5b576040519150601f19603f3d011682016040523d82523d6000602084013e611d60565b606091505b5091509150818015611d8e5750600081511480611d8d575080806020019051810190611d8c9190612f39565b5b5b611dcd576040517f08c379a0000000000000000000000000000000000000000000000000000000008152600401611dc490613093565b60405180910390fd5b5050505050565b60008273ffffffffffffffffffffffffffffffffffffffff1682600067ffffffffffffffff811115611e0957611e0861250e565b5b6040519080825280601f01601f191660200182016040528015611e3b5781602001600182028036833780820191505090505b50604051611e499190612ef6565b60006040518083038185875af1925050503d8060008114611e86576040519150601f19603f3d011682016040523d82523d6000602084013e611e8b565b606091505b5050905080611ecf576040517f08c379a0000000000000000000000000000000000000000000000000000000008152600401611ec690613125565b60405180910390fd5b505050565b611ede828261062c565b611f215780826040517fe2517d3f000000000000000000000000000000000000000000000000000000008152600401611f18929190613145565b60405180910390fd5b5050565b611f2d6108bc565b611f63576040517f8dfc202b00000000000000000000000000000000000000000000000000000000815260040160405180910390fd5b565b60007f9b779b17422d0df92223018b32b4d1fa46e071723d6817e2486d003becc55f00905090565b611f95612194565b565b611f9f612194565b565b611fa9612194565b6000611fb3611843565b905060008160000160006101000a81548160ff02191690831515021790555050565b6000611fdf611a86565b905060008160000160089054906101000a900460ff1615905060008260000160009054906101000a900467ffffffffffffffff1690506000808267ffffffffffffffff1614801561202d5750825b9050600060018367ffffffffffffffff16148015612062575060003073ffffffffffffffffffffffffffffffffffffffff163b145b905081158015612070575080155b156120a7576040517ff92ee8a900000000000000000000000000000000000000000000000000000000815260040160405180910390fd5b60018560000160006101000a81548167ffffffffffffffff021916908367ffffffffffffffff16021790555083156120f75760018560000160086101000a81548160ff0219169083151502179055505b6121046000801b876115c6565b5061212f7f65d7a28e3265b37a6474929f336521b332c1681b933f6cb9f3376673440d862a876115c6565b50831561218c5760008560000160086101000a81548160ff0219169083151502179055507fc7f505b2f371ae2175ee4913f4499e1f2633a7b5936321eed1cdaeb6115181d260016040516121839190612cd6565b60405180910390a15b505050505050565b61219c6121d4565b6121d2576040517fd7e6bcf800000000000000000000000000000000000000000000000000000000815260040160405180910390fd5b565b60006121de611a86565b60000160089054906101000a900460ff16905090565b600082825260208201905092915050565b7f4f776e61626c655061757361626c653a206163636573732064656e6965640000600082015250565b600061223b601e836121f4565b915061224682612205565b602082019050919050565b6000602082019050818103600083015261226a8161222e565b9050919050565b6000604051905090565b600080fd5b600080fd5b60007fffffffff0000000000000000000000000000000000000000000000000000000082169050919050565b6122ba81612285565b81146122c557600080fd5b50565b6000813590506122d7816122b1565b92915050565b6000602082840312156122f3576122f261227b565b5b6000612301848285016122c8565b91505092915050565b60008115159050919050565b61231f8161230a565b82525050565b600060208201905061233a6000830184612316565b92915050565b600073ffffffffffffffffffffffffffffffffffffffff82169050919050565b600061236b82612340565b9050919050565b61237b81612360565b811461238657600080fd5b50565b60008135905061239881612372565b92915050565b6000602082840312156123b4576123b361227b565b5b60006123c284828501612389565b91505092915050565b6000819050919050565b6123de816123cb565b81146123e957600080fd5b50565b6000813590506123fb816123d5565b92915050565b6000602082840312156124175761241661227b565b5b6000612425848285016123ec565b91505092915050565b612437816123cb565b82525050565b6000602082019050612452600083018461242e565b92915050565b6000806040838503121561246f5761246e61227b565b5b600061247d858286016123ec565b925050602061248e85828601612389565b9150509250929050565b6000819050919050565b6124ab81612498565b82525050565b60006020820190506124c660008301846124a2565b92915050565b6124d581612498565b81146124e057600080fd5b50565b6000813590506124f2816124cc565b92915050565b600080fd5b6000601f19601f8301169050919050565b7f4e487b7100000000000000000000000000000000000000000000000000000000600052604160045260246000fd5b612546826124fd565b810181811067ffffffffffffffff821117156125655761256461250e565b5b80604052505050565b6000612578612271565b9050612584828261253d565b919050565b600067ffffffffffffffff8211156125a4576125a361250e565b5b602082029050602081019050919050565b600080fd5b600080fd5b6000604082840312156125d5576125d46125ba565b5b6125df604061256e565b905060006125ef848285016124e3565b6000830152506020612603848285016124e3565b60208301525092915050565b600061262261261d84612589565b61256e565b90508083825260208201905060408402830185811115612645576126446125b5565b5b835b8181101561266e578061265a88826125bf565b845260208401935050604081019050612647565b5050509392505050565b600082601f83011261268d5761268c6124f8565b5b813561269d84826020860161260f565b91505092915050565b600080600080600060a086880312156126c2576126c161227b565b5b60006126d0888289016123ec565b95505060206126e188828901612389565b94505060406126f288828901612389565b9350506060612703888289016124e3565b925050608086013567ffffffffffffffff81111561272457612723612280565b5b61273088828901612678565b9150509295509295909350565b600080604083850312156127545761275361227b565b5b600061276285828601612389565b9250506020612773858286016123ec565b9150509250929050565b61278681612360565b82525050565b600060c0820190506127a1600083018961277d565b6127ae60208301886124a2565b6127bb604083018761277d565b6127c860608301866124a2565b6127d560808301856124a2565b6127e260a08301846124a2565b979650505050505050565b6000806000606084860312156128065761280561227b565b5b600061281486828701612389565b9350506020612825868287016123ec565b9250506040612836868287016124e3565b9150509250925092565b600060408201905061285560008301856124a2565b61286260208301846124a2565b9392505050565b60006020828403121561287f5761287e61227b565b5b600061288d848285016124e3565b91505092915050565b600081519050919050565b600082825260208201905092915050565b6000819050602082019050919050565b6128cb81612498565b82525050565b6040820160008201516128e760008501826128c2565b5060208201516128fa60208501826128c2565b50505050565b600061290c83836128d1565b60408301905092915050565b6000602082019050919050565b600061293082612896565b61293a81856128a1565b9350612945836128b2565b8060005b8381101561297657815161295d8882612900565b975061296883612918565b925050600181019050612949565b5085935050505092915050565b6000602082019050818103600083015261299d8184612925565b905092915050565b7f4e487b7100000000000000000000000000000000000000000000000000000000600052603260045260246000fd5b7f4e487b7100000000000000000000000000000000000000000000000000000000600052601160045260246000fd5b6000612a0e82612498565b91507fffffffffffffffffffffffffffffffffffffffffffffffffffffffffffffffff8203612a4057612a3f6129d4565b5b600182019050919050565b612a5481612360565b82525050565b6000612a668383612a4b565b60208301905092915050565b612a7b81612498565b82525050565b6000612a8d8383612a72565b60208301905092915050565b600082016000820151612aac8482612a5a565b9350506020820151612abe8482612a81565b9350506040820151612ad08482612a5a565b9350506060820151612ae28482612a81565b9350506080820151612af48482612a81565b93505060a0820151612b068482612a81565b935050505050565b6000612b1a8383612a99565b60c08301905092915050565b600081905092915050565b600082016000820151612b448482612a81565b9350506020820151612b568482612a81565b935050505050565b6000612b6a8383612b31565b60408301905092915050565b6000612b8182612896565b612b8b8185612b26565b9350612b96836128b2565b8060005b83811015612bc7578151612bae8882612b5e565b9750612bb983612918565b925050600181019050612b9a565b5085935050505092915050565b6000612be08383612b76565b905092915050565b612bf1816123cb565b82525050565b6000612c038383612be8565b60208301905092915050565b60008083016000830151612c238582612b0e565b9450506020830151612c358582612bd4565b9450506040830151612c478582612a5a565b9450506060830151612c598582612bf7565b9450508391505092915050565b6000612c728284612c0f565b915081905092915050565b6000819050919050565b600067ffffffffffffffff82169050919050565b6000819050919050565b6000612cc0612cbb612cb684612c7d565b612c9b565b612c87565b9050919050565b612cd081612ca5565b82525050565b6000602082019050612ceb6000830184612cc7565b92915050565b6000612cfc82612498565b9150612d0783612498565b9250828202612d1581612498565b91508282048414831517612d2c57612d2b6129d4565b5b5092915050565b6000612d3e82612498565b9150612d4983612498565b9250828201905080821115612d6157612d606129d4565b5b92915050565b7f4e487b7100000000000000000000000000000000000000000000000000000000600052601260045260246000fd5b6000612da182612498565b9150612dac83612498565b925082612dbc57612dbb612d67565b5b828204905092915050565b7f4d6f726967696e4170703a20696e76616c69642076616c756521000000000000600082015250565b6000612dfd601a836121f4565b9150612e0882612dc7565b602082019050919050565b60006020820190508181036000830152612e2c81612df0565b9050919050565b6000602082019050612e48600083018461277d565b92915050565b6000606082019050612e63600083018661277d565b612e70602083018561277d565b612e7d60408301846124a2565b949350505050565b600081519050919050565b600081905092915050565b60005b83811015612eb9578082015181840152602081019050612e9e565b60008484015250505050565b6000612ed082612e85565b612eda8185612e90565b9350612eea818560208601612e9b565b80840191505092915050565b6000612f028284612ec5565b915081905092915050565b612f168161230a565b8114612f2157600080fd5b50565b600081519050612f3381612f0d565b92915050565b600060208284031215612f4f57612f4e61227b565b5b6000612f5d84828501612f24565b91505092915050565b7f5472616e7366657248656c7065723a3a7472616e7366657246726f6d3a20747260008201527f616e7366657246726f6d206661696c6564000000000000000000000000000000602082015250565b6000612fc26031836121f4565b9150612fcd82612f66565b604082019050919050565b60006020820190508181036000830152612ff181612fb5565b9050919050565b600060408201905061300d600083018561277d565b61301a60208301846124a2565b9392505050565b7f5472616e7366657248656c7065723a3a736166655472616e736665723a20747260008201527f616e73666572206661696c656400000000000000000000000000000000000000602082015250565b600061307d602d836121f4565b915061308882613021565b604082019050919050565b600060208201905081810360008301526130ac81613070565b9050919050565b7f5472616e7366657248656c7065723a3a736166655472616e736665724554483a60008201527f20455448207472616e73666572206661696c6564000000000000000000000000602082015250565b600061310f6034836121f4565b915061311a826130b3565b604082019050919050565b6000602082019050818103600083015261313e81613102565b9050919050565b600060408201905061315a600083018561277d565b613167602083018461242e565b939250505056fea2646970667358221220aa8681cb3059dea848b1b8c3838997a4eef71bea7e1f890d872edee8a23f550e64736f6c63430008140033","opcodes":"PUSH1 0x80 PUSH1 0x40 MSTORE CALLVALUE DUP1 ISZERO PUSH2 0x10 JUMPI PUSH1 0x0 DUP1 REVERT JUMPDEST POP PUSH2 0x31A4 DUP1 PUSH2 0x20 PUSH1 0x0 CODECOPY PUSH1 0x0 RETURN INVALID PUSH1 0x80 PUSH1 0x40 MSTORE PUSH1 0x4 CALLDATASIZE LT PUSH2 0x14F JUMPI PUSH1 0x0 CALLDATALOAD PUSH1 0xE0 SHR DUP1 PUSH4 0x7623F00E GT PUSH2 0xB6 JUMPI DUP1 PUSH4 0xA217FDDF GT PUSH2 0x6F JUMPI DUP1 PUSH4 0xA217FDDF EQ PUSH2 0x532 JUMPI DUP1 PUSH4 0xC4D66DE8 EQ PUSH2 0x55D JUMPI DUP1 PUSH4 0xD547741F EQ PUSH2 0x586 JUMPI DUP1 PUSH4 0xD7C2EEC7 EQ PUSH2 0x5AF JUMPI DUP1 PUSH4 0xE63AB1E9 EQ PUSH2 0x5D8 JUMPI DUP1 PUSH4 0xF2407CA4 EQ PUSH2 0x603 JUMPI PUSH2 0x1E6 JUMP JUMPDEST DUP1 PUSH4 0x7623F00E EQ PUSH2 0x419 JUMPI DUP1 PUSH4 0x7B00FFAD EQ PUSH2 0x435 JUMPI DUP1 PUSH4 0x82A969E2 EQ PUSH2 0x477 JUMPI DUP1 PUSH4 0x82DC1EC4 EQ PUSH2 0x4B5 JUMPI DUP1 PUSH4 0x8456CB59 EQ PUSH2 0x4DE JUMPI DUP1 PUSH4 0x91D14854 EQ PUSH2 0x4F5 JUMPI PUSH2 0x1E6 JUMP JUMPDEST DUP1 PUSH4 0x3D538ECF GT PUSH2 0x108 JUMPI DUP1 PUSH4 0x3D538ECF EQ PUSH2 0x31D JUMPI DUP1 PUSH4 0x3F4BA83A EQ PUSH2 0x348 JUMPI DUP1 PUSH4 0x46FBF68E EQ PUSH2 0x35F JUMPI DUP1 PUSH4 0x5C975ABB EQ PUSH2 0x39C JUMPI DUP1 PUSH4 0x6B2C0F55 EQ PUSH2 0x3C7 JUMPI DUP1 PUSH4 0x70480275 EQ PUSH2 0x3F0 JUMPI PUSH2 0x1E6 JUMP JUMPDEST DUP1 PUSH4 0x1FFC9A7 EQ PUSH2 0x1EB JUMPI DUP1 PUSH4 0x1785F53C EQ PUSH2 0x228 JUMPI DUP1 PUSH4 0x248A9CA3 EQ PUSH2 0x251 JUMPI DUP1 PUSH4 0x24D7806C EQ PUSH2 0x28E JUMPI DUP1 PUSH4 0x2F2FF15D EQ PUSH2 0x2CB JUMPI DUP1 PUSH4 0x36568ABE EQ PUSH2 0x2F4 JUMPI PUSH2 0x1E6 JUMP JUMPDEST CALLDATASIZE PUSH2 0x1E6 JUMPI PUSH2 0x161 PUSH1 0x0 DUP1 SHL CALLER PUSH2 0x62C JUMP JUMPDEST PUSH2 0x1A0 JUMPI PUSH1 0x40 MLOAD PUSH32 0x8C379A000000000000000000000000000000000000000000000000000000000 DUP2 MSTORE PUSH1 0x4 ADD PUSH2 0x197 SWAP1 PUSH2 0x2251 JUMP JUMPDEST PUSH1 0x40 MLOAD DUP1 SWAP2 SUB SWAP1 REVERT JUMPDEST CALLVALUE CALLER PUSH20 0xFFFFFFFFFFFFFFFFFFFFFFFFFFFFFFFFFFFFFFFF AND PUSH32 0x88A5966D370B9919B20F3E2C13FF65706F196A4E32CC2C12BF57088F88525874 PUSH1 0x40 MLOAD PUSH1 0x40 MLOAD DUP1 SWAP2 SUB SWAP1 LOG3 STOP JUMPDEST PUSH1 0x0 DUP1 REVERT JUMPDEST CALLVALUE DUP1 ISZERO PUSH2 0x1F7 JUMPI PUSH1 0x0 DUP1 REVERT JUMPDEST POP PUSH2 0x212 PUSH1 0x4 DUP1 CALLDATASIZE SUB DUP2 ADD SWAP1 PUSH2 0x20D SWAP2 SWAP1 PUSH2 0x22DD JUMP JUMPDEST PUSH2 0x6A5 JUMP JUMPDEST PUSH1 0x40 MLOAD PUSH2 0x21F SWAP2 SWAP1 PUSH2 0x2325 JUMP JUMPDEST PUSH1 0x40 MLOAD DUP1 SWAP2 SUB SWAP1 RETURN JUMPDEST CALLVALUE DUP1 ISZERO PUSH2 0x234 JUMPI PUSH1 0x0 DUP1 REVERT JUMPDEST POP PUSH2 0x24F PUSH1 0x4 DUP1 CALLDATASIZE SUB DUP2 ADD SWAP1 PUSH2 0x24A SWAP2 SWAP1 PUSH2 0x239E JUMP JUMPDEST PUSH2 0x71F JUMP JUMPDEST STOP JUMPDEST CALLVALUE DUP1 ISZERO PUSH2 0x25D JUMPI PUSH1 0x0 DUP1 REVERT JUMPDEST POP PUSH2 0x278 PUSH1 0x4 DUP1 CALLDATASIZE SUB DUP2 ADD SWAP1 PUSH2 0x273 SWAP2 SWAP1 PUSH2 0x2401 JUMP JUMPDEST PUSH2 0x72F JUMP JUMPDEST PUSH1 0x40 MLOAD PUSH2 0x285 SWAP2 SWAP1 PUSH2 0x243D JUMP JUMPDEST PUSH1 0x40 MLOAD DUP1 SWAP2 SUB SWAP1 RETURN JUMPDEST CALLVALUE DUP1 ISZERO PUSH2 0x29A JUMPI PUSH1 0x0 DUP1 REVERT JUMPDEST POP PUSH2 0x2B5 PUSH1 0x4 DUP1 CALLDATASIZE SUB DUP2 ADD SWAP1 PUSH2 0x2B0 SWAP2 SWAP1 PUSH2 0x239E JUMP JUMPDEST PUSH2 0x75D JUMP JUMPDEST PUSH1 0x40 MLOAD PUSH2 0x2C2 SWAP2 SWAP1 PUSH2 0x2325 JUMP JUMPDEST PUSH1 0x40 MLOAD DUP1 SWAP2 SUB SWAP1 RETURN JUMPDEST CALLVALUE DUP1 ISZERO PUSH2 0x2D7 JUMPI PUSH1 0x0 DUP1 REVERT JUMPDEST POP PUSH2 0x2F2 PUSH1 0x4 DUP1 CALLDATASIZE SUB DUP2 ADD SWAP1 PUSH2 0x2ED SWAP2 SWAP1 PUSH2 0x2458 JUMP JUMPDEST PUSH2 0x773 JUMP JUMPDEST STOP JUMPDEST CALLVALUE DUP1 ISZERO PUSH2 0x300 JUMPI PUSH1 0x0 DUP1 REVERT JUMPDEST POP PUSH2 0x31B PUSH1 0x4 DUP1 CALLDATASIZE SUB DUP2 ADD SWAP1 PUSH2 0x316 SWAP2 SWAP1 PUSH2 0x2458 JUMP JUMPDEST PUSH2 0x795 JUMP JUMPDEST STOP JUMPDEST CALLVALUE DUP1 ISZERO PUSH2 0x329 JUMPI PUSH1 0x0 DUP1 REVERT JUMPDEST POP PUSH2 0x332 PUSH2 0x810 JUMP JUMPDEST PUSH1 0x40 MLOAD PUSH2 0x33F SWAP2 SWAP1 PUSH2 0x24B1 JUMP JUMPDEST PUSH1 0x40 MLOAD DUP1 SWAP2 SUB SWAP1 RETURN JUMPDEST CALLVALUE DUP1 ISZERO PUSH2 0x354 JUMPI PUSH1 0x0 DUP1 REVERT JUMPDEST POP PUSH2 0x35D PUSH2 0x816 JUMP JUMPDEST STOP JUMPDEST CALLVALUE DUP1 ISZERO PUSH2 0x36B JUMPI PUSH1 0x0 DUP1 REVERT JUMPDEST POP PUSH2 0x386 PUSH1 0x4 DUP1 CALLDATASIZE SUB DUP2 ADD SWAP1 PUSH2 0x381 SWAP2 SWAP1 PUSH2 0x239E JUMP JUMPDEST PUSH2 0x889 JUMP JUMPDEST PUSH1 0x40 MLOAD PUSH2 0x393 SWAP2 SWAP1 PUSH2 0x2325 JUMP JUMPDEST PUSH1 0x40 MLOAD DUP1 SWAP2 SUB SWAP1 RETURN JUMPDEST CALLVALUE DUP1 ISZERO PUSH2 0x3A8 JUMPI PUSH1 0x0 DUP1 REVERT JUMPDEST POP PUSH2 0x3B1 PUSH2 0x8BC JUMP JUMPDEST PUSH1 0x40 MLOAD PUSH2 0x3BE SWAP2 SWAP1 PUSH2 0x2325 JUMP JUMPDEST PUSH1 0x40 MLOAD DUP1 SWAP2 SUB SWAP1 RETURN JUMPDEST CALLVALUE DUP1 ISZERO PUSH2 0x3D3 JUMPI PUSH1 0x0 DUP1 REVERT JUMPDEST POP PUSH2 0x3EE PUSH1 0x4 DUP1 CALLDATASIZE SUB DUP2 ADD SWAP1 PUSH2 0x3E9 SWAP2 SWAP1 PUSH2 0x239E JUMP JUMPDEST PUSH2 0x8E1 JUMP JUMPDEST STOP JUMPDEST CALLVALUE DUP1 ISZERO PUSH2 0x3FC JUMPI PUSH1 0x0 DUP1 REVERT JUMPDEST POP PUSH2 0x417 PUSH1 0x4 DUP1 CALLDATASIZE SUB DUP2 ADD SWAP1 PUSH2 0x412 SWAP2 SWAP1 PUSH2 0x239E JUMP JUMPDEST PUSH2 0x90E JUMP JUMPDEST STOP JUMPDEST PUSH2 0x433 PUSH1 0x4 DUP1 CALLDATASIZE SUB DUP2 ADD SWAP1 PUSH2 0x42E SWAP2 SWAP1 PUSH2 0x26A6 JUMP JUMPDEST PUSH2 0x91E JUMP JUMPDEST STOP JUMPDEST CALLVALUE DUP1 ISZERO PUSH2 0x441 JUMPI PUSH1 0x0 DUP1 REVERT JUMPDEST POP PUSH2 0x45C PUSH1 0x4 DUP1 CALLDATASIZE SUB DUP2 ADD SWAP1 PUSH2 0x457 SWAP2 SWAP1 PUSH2 0x273D JUMP JUMPDEST PUSH2 0xE07 JUMP JUMPDEST PUSH1 0x40 MLOAD PUSH2 0x46E SWAP7 SWAP6 SWAP5 SWAP4 SWAP3 SWAP2 SWAP1 PUSH2 0x278C JUMP JUMPDEST PUSH1 0x40 MLOAD DUP1 SWAP2 SUB SWAP1 RETURN JUMPDEST CALLVALUE DUP1 ISZERO PUSH2 0x483 JUMPI PUSH1 0x0 DUP1 REVERT JUMPDEST POP PUSH2 0x49E PUSH1 0x4 DUP1 CALLDATASIZE SUB DUP2 ADD SWAP1 PUSH2 0x499 SWAP2 SWAP1 PUSH2 0x27ED JUMP JUMPDEST PUSH2 0xE90 JUMP JUMPDEST PUSH1 0x40 MLOAD PUSH2 0x4AC SWAP3 SWAP2 SWAP1 PUSH2 0x2840 JUMP JUMPDEST PUSH1 0x40 MLOAD DUP1 SWAP2 SUB SWAP1 RETURN JUMPDEST CALLVALUE DUP1 ISZERO PUSH2 0x4C1 JUMPI PUSH1 0x0 DUP1 REVERT JUMPDEST POP PUSH2 0x4DC PUSH1 0x4 DUP1 CALLDATASIZE SUB DUP2 ADD SWAP1 PUSH2 0x4D7 SWAP2 SWAP1 PUSH2 0x239E JUMP JUMPDEST PUSH2 0xEDE JUMP JUMPDEST STOP JUMPDEST CALLVALUE DUP1 ISZERO PUSH2 0x4EA JUMPI PUSH1 0x0 DUP1 REVERT JUMPDEST POP PUSH2 0x4F3 PUSH2 0xF0B JUMP JUMPDEST STOP JUMPDEST CALLVALUE DUP1 ISZERO PUSH2 0x501 JUMPI PUSH1 0x0 DUP1 REVERT JUMPDEST POP PUSH2 0x51C PUSH1 0x4 DUP1 CALLDATASIZE SUB DUP2 ADD SWAP1 PUSH2 0x517 SWAP2 SWAP1 PUSH2 0x2458 JUMP JUMPDEST PUSH2 0x62C JUMP JUMPDEST PUSH1 0x40 MLOAD PUSH2 0x529 SWAP2 SWAP1 PUSH2 0x2325 JUMP JUMPDEST PUSH1 0x40 MLOAD DUP1 SWAP2 SUB SWAP1 RETURN JUMPDEST CALLVALUE DUP1 ISZERO PUSH2 0x53E JUMPI PUSH1 0x0 DUP1 REVERT JUMPDEST POP PUSH2 0x547 PUSH2 0xF7E JUMP JUMPDEST PUSH1 0x40 MLOAD PUSH2 0x554 SWAP2 SWAP1 PUSH2 0x243D JUMP JUMPDEST PUSH1 0x40 MLOAD DUP1 SWAP2 SUB SWAP1 RETURN JUMPDEST CALLVALUE DUP1 ISZERO PUSH2 0x569 JUMPI PUSH1 0x0 DUP1 REVERT JUMPDEST POP PUSH2 0x584 PUSH1 0x4 DUP1 CALLDATASIZE SUB DUP2 ADD SWAP1 PUSH2 0x57F SWAP2 SWAP1 PUSH2 0x239E JUMP JUMPDEST PUSH2 0xF85 JUMP JUMPDEST STOP JUMPDEST CALLVALUE DUP1 ISZERO PUSH2 0x592 JUMPI PUSH1 0x0 DUP1 REVERT JUMPDEST POP PUSH2 0x5AD PUSH1 0x4 DUP1 CALLDATASIZE SUB DUP2 ADD SWAP1 PUSH2 0x5A8 SWAP2 SWAP1 PUSH2 0x2458 JUMP JUMPDEST PUSH2 0x1114 JUMP JUMPDEST STOP JUMPDEST CALLVALUE DUP1 ISZERO PUSH2 0x5BB JUMPI PUSH1 0x0 DUP1 REVERT JUMPDEST POP PUSH2 0x5D6 PUSH1 0x4 DUP1 CALLDATASIZE SUB DUP2 ADD SWAP1 PUSH2 0x5D1 SWAP2 SWAP1 PUSH2 0x273D JUMP JUMPDEST PUSH2 0x1136 JUMP JUMPDEST STOP JUMPDEST CALLVALUE DUP1 ISZERO PUSH2 0x5E4 JUMPI PUSH1 0x0 DUP1 REVERT JUMPDEST POP PUSH2 0x5ED PUSH2 0x1463 JUMP JUMPDEST PUSH1 0x40 MLOAD PUSH2 0x5FA SWAP2 SWAP1 PUSH2 0x243D JUMP JUMPDEST PUSH1 0x40 MLOAD DUP1 SWAP2 SUB SWAP1 RETURN JUMPDEST CALLVALUE DUP1 ISZERO PUSH2 0x60F JUMPI PUSH1 0x0 DUP1 REVERT JUMPDEST POP PUSH2 0x62A PUSH1 0x4 DUP1 CALLDATASIZE SUB DUP2 ADD SWAP1 PUSH2 0x625 SWAP2 SWAP1 PUSH2 0x2869 JUMP JUMPDEST PUSH2 0x1487 JUMP JUMPDEST STOP JUMPDEST PUSH1 0x0 DUP1 PUSH2 0x637 PUSH2 0x1520 JUMP JUMPDEST SWAP1 POP DUP1 PUSH1 0x0 ADD PUSH1 0x0 DUP6 DUP2 MSTORE PUSH1 0x20 ADD SWAP1 DUP2 MSTORE PUSH1 0x20 ADD PUSH1 0x0 KECCAK256 PUSH1 0x0 ADD PUSH1 0x0 DUP5 PUSH20 0xFFFFFFFFFFFFFFFFFFFFFFFFFFFFFFFFFFFFFFFF AND PUSH20 0xFFFFFFFFFFFFFFFFFFFFFFFFFFFFFFFFFFFFFFFF AND DUP2 MSTORE PUSH1 0x20 ADD SWAP1 DUP2 MSTORE PUSH1 0x20 ADD PUSH1 0x0 KECCAK256 PUSH1 0x0 SWAP1 SLOAD SWAP1 PUSH2 0x100 EXP SWAP1 DIV PUSH1 0xFF AND SWAP2 POP POP SWAP3 SWAP2 POP POP JUMP JUMPDEST PUSH1 0x0 PUSH32 0x7965DB0B00000000000000000000000000000000000000000000000000000000 PUSH28 0xFFFFFFFFFFFFFFFFFFFFFFFFFFFFFFFFFFFFFFFFFFFFFFFFFFFFFFFF NOT AND DUP3 PUSH28 0xFFFFFFFFFFFFFFFFFFFFFFFFFFFFFFFFFFFFFFFFFFFFFFFFFFFFFFFF NOT AND EQ DUP1 PUSH2 0x718 JUMPI POP PUSH2 0x717 DUP3 PUSH2 0x1548 JUMP JUMPDEST JUMPDEST SWAP1 POP SWAP2 SWAP1 POP JUMP JUMPDEST PUSH2 0x72C PUSH1 0x0 DUP1 SHL DUP3 PUSH2 0x1114 JUMP JUMPDEST POP JUMP JUMPDEST PUSH1 0x0 DUP1 PUSH2 0x73A PUSH2 0x1520 JUMP JUMPDEST SWAP1 POP DUP1 PUSH1 0x0 ADD PUSH1 0x0 DUP5 DUP2 MSTORE PUSH1 0x20 ADD SWAP1 DUP2 MSTORE PUSH1 0x20 ADD PUSH1 0x0 KECCAK256 PUSH1 0x1 ADD SLOAD SWAP2 POP POP SWAP2 SWAP1 POP JUMP JUMPDEST PUSH1 0x0 PUSH2 0x76C PUSH1 0x0 DUP1 SHL DUP4 PUSH2 0x62C JUMP JUMPDEST SWAP1 POP SWAP2 SWAP1 POP JUMP JUMPDEST PUSH2 0x77C DUP3 PUSH2 0x72F JUMP JUMPDEST PUSH2 0x785 DUP2 PUSH2 0x15B2 JUMP JUMPDEST PUSH2 0x78F DUP4 DUP4 PUSH2 0x15C6 JUMP JUMPDEST POP POP POP POP JUMP JUMPDEST PUSH2 0x79D PUSH2 0x16C7 JUMP JUMPDEST PUSH20 0xFFFFFFFFFFFFFFFFFFFFFFFFFFFFFFFFFFFFFFFF AND DUP2 PUSH20 0xFFFFFFFFFFFFFFFFFFFFFFFFFFFFFFFFFFFFFFFF AND EQ PUSH2 0x801 JUMPI PUSH1 0x40 MLOAD PUSH32 0x6697B23200000000000000000000000000000000000000000000000000000000 DUP2 MSTORE PUSH1 0x4 ADD PUSH1 0x40 MLOAD DUP1 SWAP2 SUB SWAP1 REVERT JUMPDEST PUSH2 0x80B DUP3 DUP3 PUSH2 0x16CF JUMP JUMPDEST POP POP POP JUMP JUMPDEST PUSH1 0x0 SLOAD DUP2 JUMP JUMPDEST PUSH2 0x840 PUSH32 0x65D7A28E3265B37A6474929F336521B332C1681B933F6CB9F3376673440D862A CALLER PUSH2 0x62C JUMP JUMPDEST PUSH2 0x87F JUMPI PUSH1 0x40 MLOAD PUSH32 0x8C379A000000000000000000000000000000000000000000000000000000000 DUP2 MSTORE PUSH1 0x4 ADD PUSH2 0x876 SWAP1 PUSH2 0x2251 JUMP JUMPDEST PUSH1 0x40 MLOAD DUP1 SWAP2 SUB SWAP1 REVERT JUMPDEST PUSH2 0x887 PUSH2 0x17D1 JUMP JUMPDEST JUMP JUMPDEST PUSH1 0x0 PUSH2 0x8B5 PUSH32 0x65D7A28E3265B37A6474929F336521B332C1681B933F6CB9F3376673440D862A DUP4 PUSH2 0x62C JUMP JUMPDEST SWAP1 POP SWAP2 SWAP1 POP JUMP JUMPDEST PUSH1 0x0 DUP1 PUSH2 0x8C7 PUSH2 0x1843 JUMP JUMPDEST SWAP1 POP DUP1 PUSH1 0x0 ADD PUSH1 0x0 SWAP1 SLOAD SWAP1 PUSH2 0x100 EXP SWAP1 DIV PUSH1 0xFF AND SWAP2 POP POP SWAP1 JUMP JUMPDEST PUSH2 0x90B PUSH32 0x65D7A28E3265B37A6474929F336521B332C1681B933F6CB9F3376673440D862A DUP3 PUSH2 0x1114 JUMP JUMPDEST POP JUMP JUMPDEST PUSH2 0x91B PUSH1 0x0 DUP1 SHL DUP3 PUSH2 0x773 JUMP JUMPDEST POP JUMP JUMPDEST PUSH2 0x926 PUSH2 0x186B JUMP JUMPDEST PUSH2 0x933 PUSH1 0x0 DUP1 SHL CALLER PUSH2 0x62C JUMP JUMPDEST PUSH2 0x972 JUMPI PUSH1 0x40 MLOAD PUSH32 0x8C379A000000000000000000000000000000000000000000000000000000000 DUP2 MSTORE PUSH1 0x4 ADD PUSH2 0x969 SWAP1 PUSH2 0x2251 JUMP JUMPDEST PUSH1 0x40 MLOAD DUP1 SWAP2 SUB SWAP1 REVERT JUMPDEST PUSH1 0x0 PUSH20 0xFFFFFFFFFFFFFFFFFFFFFFFFFFFFFFFFFFFFFFFF AND PUSH1 0x1 PUSH1 0x0 DUP7 PUSH20 0xFFFFFFFFFFFFFFFFFFFFFFFFFFFFFFFFFFFFFFFF AND PUSH20 0xFFFFFFFFFFFFFFFFFFFFFFFFFFFFFFFFFFFFFFFF AND DUP2 MSTORE PUSH1 0x20 ADD SWAP1 DUP2 MSTORE PUSH1 0x20 ADD PUSH1 0x0 KECCAK256 PUSH1 0x0 DUP8 DUP2 MSTORE PUSH1 0x20 ADD SWAP1 DUP2 MSTORE PUSH1 0x20 ADD PUSH1 0x0 KECCAK256 PUSH1 0x0 ADD PUSH1 0x0 SWAP1 SLOAD SWAP1 PUSH2 0x100 EXP SWAP1 DIV PUSH20 0xFFFFFFFFFFFFFFFFFFFFFFFFFFFFFFFFFFFFFFFF AND PUSH20 0xFFFFFFFFFFFFFFFFFFFFFFFFFFFFFFFFFFFFFFFF AND EQ PUSH2 0xA4B JUMPI PUSH1 0x40 MLOAD PUSH32 0x628DBB9600000000000000000000000000000000000000000000000000000000 DUP2 MSTORE PUSH1 0x4 ADD PUSH1 0x40 MLOAD DUP1 SWAP2 SUB SWAP1 REVERT JUMPDEST DUP1 PUSH20 0x0 PUSH4 0x33B988F5 SWAP1 SWAP2 PUSH1 0x40 MLOAD DUP3 PUSH4 0xFFFFFFFF AND PUSH1 0xE0 SHL DUP2 MSTORE PUSH1 0x4 ADD PUSH2 0xA84 SWAP2 SWAP1 PUSH2 0x2983 JUMP JUMPDEST PUSH1 0x0 PUSH1 0x40 MLOAD DUP1 DUP4 SUB DUP2 DUP7 DUP1 EXTCODESIZE ISZERO DUP1 ISZERO PUSH2 0xA9C JUMPI PUSH1 0x0 DUP1 REVERT JUMPDEST POP GAS DELEGATECALL ISZERO DUP1 ISZERO PUSH2 0xAB0 JUMPI RETURNDATASIZE PUSH1 0x0 DUP1 RETURNDATACOPY RETURNDATASIZE PUSH1 0x0 REVERT JUMPDEST POP POP POP POP PUSH1 0x0 PUSH20 0xFFFFFFFFFFFFFFFFFFFFFFFFFFFFFFFFFFFFFFFF AND DUP4 PUSH20 0xFFFFFFFFFFFFFFFFFFFFFFFFFFFFFFFFFFFFFFFF AND SUB PUSH2 0xB33 JUMPI DUP2 CALLVALUE EQ PUSH2 0xB2E JUMPI DUP2 CALLVALUE PUSH1 0x40 MLOAD PUSH32 0x4157BB400000000000000000000000000000000000000000000000000000000 DUP2 MSTORE PUSH1 0x4 ADD PUSH2 0xB25 SWAP3 SWAP2 SWAP1 PUSH2 0x2840 JUMP JUMPDEST PUSH1 0x40 MLOAD DUP1 SWAP2 SUB SWAP1 REVERT JUMPDEST PUSH2 0xB40 JUMP JUMPDEST PUSH2 0xB3F DUP4 CALLER ADDRESS DUP6 PUSH2 0x18C2 JUMP JUMPDEST JUMPDEST PUSH1 0x0 TIMESTAMP SWAP1 POP PUSH1 0x0 PUSH1 0x40 MLOAD DUP1 PUSH1 0xC0 ADD PUSH1 0x40 MSTORE DUP1 CALLER PUSH20 0xFFFFFFFFFFFFFFFFFFFFFFFFFFFFFFFFFFFFFFFF AND DUP2 MSTORE PUSH1 0x20 ADD DUP4 DUP2 MSTORE PUSH1 0x20 ADD DUP7 PUSH20 0xFFFFFFFFFFFFFFFFFFFFFFFFFFFFFFFFFFFFFFFF AND DUP2 MSTORE PUSH1 0x20 ADD DUP6 DUP2 MSTORE PUSH1 0x20 ADD PUSH1 0x0 DUP2 MSTORE PUSH1 0x20 ADD PUSH1 0x0 DUP2 MSTORE POP SWAP1 POP DUP1 PUSH1 0x1 PUSH1 0x0 DUP9 PUSH20 0xFFFFFFFFFFFFFFFFFFFFFFFFFFFFFFFFFFFFFFFF AND PUSH20 0xFFFFFFFFFFFFFFFFFFFFFFFFFFFFFFFFFFFFFFFF AND DUP2 MSTORE PUSH1 0x20 ADD SWAP1 DUP2 MSTORE PUSH1 0x20 ADD PUSH1 0x0 KECCAK256 PUSH1 0x0 DUP10 DUP2 MSTORE PUSH1 0x20 ADD SWAP1 DUP2 MSTORE PUSH1 0x20 ADD PUSH1 0x0 KECCAK256 PUSH1 0x0 DUP3 ADD MLOAD DUP2 PUSH1 0x0 ADD PUSH1 0x0 PUSH2 0x100 EXP DUP2 SLOAD DUP2 PUSH20 0xFFFFFFFFFFFFFFFFFFFFFFFFFFFFFFFFFFFFFFFF MUL NOT AND SWAP1 DUP4 PUSH20 0xFFFFFFFFFFFFFFFFFFFFFFFFFFFFFFFFFFFFFFFF AND MUL OR SWAP1 SSTORE POP PUSH1 0x20 DUP3 ADD MLOAD DUP2 PUSH1 0x1 ADD SSTORE PUSH1 0x40 DUP3 ADD MLOAD DUP2 PUSH1 0x2 ADD PUSH1 0x0 PUSH2 0x100 EXP DUP2 SLOAD DUP2 PUSH20 0xFFFFFFFFFFFFFFFFFFFFFFFFFFFFFFFFFFFFFFFF MUL NOT AND SWAP1 DUP4 PUSH20 0xFFFFFFFFFFFFFFFFFFFFFFFFFFFFFFFFFFFFFFFF AND MUL OR SWAP1 SSTORE POP PUSH1 0x60 DUP3 ADD MLOAD DUP2 PUSH1 0x3 ADD SSTORE PUSH1 0x80 DUP3 ADD MLOAD DUP2 PUSH1 0x4 ADD SSTORE PUSH1 0xA0 DUP3 ADD MLOAD DUP2 PUSH1 0x5 ADD SSTORE SWAP1 POP POP PUSH1 0x0 PUSH1 0x2 PUSH1 0x0 DUP9 PUSH20 0xFFFFFFFFFFFFFFFFFFFFFFFFFFFFFFFFFFFFFFFF AND PUSH20 0xFFFFFFFFFFFFFFFFFFFFFFFFFFFFFFFFFFFFFFFF AND DUP2 MSTORE PUSH1 0x20 ADD SWAP1 DUP2 MSTORE PUSH1 0x20 ADD PUSH1 0x0 KECCAK256 PUSH1 0x0 DUP10 DUP2 MSTORE PUSH1 0x20 ADD SWAP1 DUP2 MSTORE PUSH1 0x20 ADD PUSH1 0x0 KECCAK256 SWAP1 POP PUSH1 0x0 JUMPDEST DUP5 MLOAD DUP2 LT ISZERO PUSH2 0xD7C JUMPI DUP2 DUP6 DUP3 DUP2 MLOAD DUP2 LT PUSH2 0xD22 JUMPI PUSH2 0xD21 PUSH2 0x29A5 JUMP JUMPDEST JUMPDEST PUSH1 0x20 MUL PUSH1 0x20 ADD ADD MLOAD SWAP1 DUP1 PUSH1 0x1 DUP2 SLOAD ADD DUP1 DUP3 SSTORE DUP1 SWAP2 POP POP PUSH1 0x1 SWAP1 SUB SWAP1 PUSH1 0x0 MSTORE PUSH1 0x20 PUSH1 0x0 KECCAK256 SWAP1 PUSH1 0x2 MUL ADD PUSH1 0x0 SWAP1 SWAP2 SWAP1 SWAP2 SWAP1 SWAP2 POP PUSH1 0x0 DUP3 ADD MLOAD DUP2 PUSH1 0x0 ADD SSTORE PUSH1 0x20 DUP3 ADD MLOAD DUP2 PUSH1 0x1 ADD SSTORE POP POP DUP1 DUP1 PUSH2 0xD74 SWAP1 PUSH2 0x2A03 JUMP JUMPDEST SWAP2 POP POP PUSH2 0xD05 JUMP JUMPDEST POP PUSH1 0x40 MLOAD DUP1 PUSH1 0x80 ADD PUSH1 0x40 MSTORE DUP1 DUP4 DUP2 MSTORE PUSH1 0x20 ADD DUP6 DUP2 MSTORE PUSH1 0x20 ADD DUP9 PUSH20 0xFFFFFFFFFFFFFFFFFFFFFFFFFFFFFFFFFFFFFFFF AND DUP2 MSTORE PUSH1 0x20 ADD DUP10 DUP2 MSTORE POP PUSH1 0x40 MLOAD PUSH2 0xDC1 SWAP2 SWAP1 PUSH2 0x2C66 JUMP JUMPDEST PUSH1 0x40 MLOAD DUP1 SWAP2 SUB SWAP1 KECCAK256 PUSH32 0xB16ABBEA6BA3704F5F2A80A6E86817BD96545258A4BBE645BECFC85AB7226752 PUSH1 0x40 MLOAD PUSH1 0x40 MLOAD DUP1 SWAP2 SUB SWAP1 LOG2 POP POP POP PUSH2 0xE00 PUSH2 0x19FB JUMP JUMPDEST POP POP POP POP POP JUMP JUMPDEST PUSH1 0x1 PUSH1 0x20 MSTORE DUP2 PUSH1 0x0 MSTORE PUSH1 0x40 PUSH1 0x0 KECCAK256 PUSH1 0x20 MSTORE DUP1 PUSH1 0x0 MSTORE PUSH1 0x40 PUSH1 0x0 KECCAK256 PUSH1 0x0 SWAP2 POP SWAP2 POP POP DUP1 PUSH1 0x0 ADD PUSH1 0x0 SWAP1 SLOAD SWAP1 PUSH2 0x100 EXP SWAP1 DIV PUSH20 0xFFFFFFFFFFFFFFFFFFFFFFFFFFFFFFFFFFFFFFFF AND SWAP1 DUP1 PUSH1 0x1 ADD SLOAD SWAP1 DUP1 PUSH1 0x2 ADD PUSH1 0x0 SWAP1 SLOAD SWAP1 PUSH2 0x100 EXP SWAP1 DIV PUSH20 0xFFFFFFFFFFFFFFFFFFFFFFFFFFFFFFFFFFFFFFFF AND SWAP1 DUP1 PUSH1 0x3 ADD SLOAD SWAP1 DUP1 PUSH1 0x4 ADD SLOAD SWAP1 DUP1 PUSH1 0x5 ADD SLOAD SWAP1 POP DUP7 JUMP JUMPDEST PUSH1 0x2 PUSH1 0x20 MSTORE DUP3 PUSH1 0x0 MSTORE PUSH1 0x40 PUSH1 0x0 KECCAK256 PUSH1 0x20 MSTORE DUP2 PUSH1 0x0 MSTORE PUSH1 0x40 PUSH1 0x0 KECCAK256 DUP2 DUP2 SLOAD DUP2 LT PUSH2 0xEB8 JUMPI PUSH1 0x0 DUP1 REVERT JUMPDEST SWAP1 PUSH1 0x0 MSTORE PUSH1 0x20 PUSH1 0x0 KECCAK256 SWAP1 PUSH1 0x2 MUL ADD PUSH1 0x0 SWAP3 POP SWAP3 POP POP POP DUP1 PUSH1 0x0 ADD SLOAD SWAP1 DUP1 PUSH1 0x1 ADD SLOAD SWAP1 POP DUP3 JUMP JUMPDEST PUSH2 0xF08 PUSH32 0x65D7A28E3265B37A6474929F336521B332C1681B933F6CB9F3376673440D862A DUP3 PUSH2 0x773 JUMP JUMPDEST POP JUMP JUMPDEST PUSH2 0xF35 PUSH32 0x65D7A28E3265B37A6474929F336521B332C1681B933F6CB9F3376673440D862A CALLER PUSH2 0x62C JUMP JUMPDEST PUSH2 0xF74 JUMPI PUSH1 0x40 MLOAD PUSH32 0x8C379A000000000000000000000000000000000000000000000000000000000 DUP2 MSTORE PUSH1 0x4 ADD PUSH2 0xF6B SWAP1 PUSH2 0x2251 JUMP JUMPDEST PUSH1 0x40 MLOAD DUP1 SWAP2 SUB SWAP1 REVERT JUMPDEST PUSH2 0xF7C PUSH2 0x1A14 JUMP JUMPDEST JUMP JUMPDEST PUSH1 0x0 DUP1 SHL DUP2 JUMP JUMPDEST PUSH1 0x0 PUSH2 0xF8F PUSH2 0x1A86 JUMP JUMPDEST SWAP1 POP PUSH1 0x0 DUP2 PUSH1 0x0 ADD PUSH1 0x8 SWAP1 SLOAD SWAP1 PUSH2 0x100 EXP SWAP1 DIV PUSH1 0xFF AND ISZERO SWAP1 POP PUSH1 0x0 DUP3 PUSH1 0x0 ADD PUSH1 0x0 SWAP1 SLOAD SWAP1 PUSH2 0x100 EXP SWAP1 DIV PUSH8 0xFFFFFFFFFFFFFFFF AND SWAP1 POP PUSH1 0x0 DUP1 DUP3 PUSH8 0xFFFFFFFFFFFFFFFF AND EQ DUP1 ISZERO PUSH2 0xFDD JUMPI POP DUP3 JUMPDEST SWAP1 POP PUSH1 0x0 PUSH1 0x1 DUP4 PUSH8 0xFFFFFFFFFFFFFFFF AND EQ DUP1 ISZERO PUSH2 0x1012 JUMPI POP PUSH1 0x0 ADDRESS PUSH20 0xFFFFFFFFFFFFFFFFFFFFFFFFFFFFFFFFFFFFFFFF AND EXTCODESIZE EQ JUMPDEST SWAP1 POP DUP2 ISZERO DUP1 ISZERO PUSH2 0x1020 JUMPI POP DUP1 ISZERO JUMPDEST ISZERO PUSH2 0x1057 JUMPI PUSH1 0x40 MLOAD PUSH32 0xF92EE8A900000000000000000000000000000000000000000000000000000000 DUP2 MSTORE PUSH1 0x4 ADD PUSH1 0x40 MLOAD DUP1 SWAP2 SUB SWAP1 REVERT JUMPDEST PUSH1 0x1 DUP6 PUSH1 0x0 ADD PUSH1 0x0 PUSH2 0x100 EXP DUP2 SLOAD DUP2 PUSH8 0xFFFFFFFFFFFFFFFF MUL NOT AND SWAP1 DUP4 PUSH8 0xFFFFFFFFFFFFFFFF AND MUL OR SWAP1 SSTORE POP DUP4 ISZERO PUSH2 0x10A7 JUMPI PUSH1 0x1 DUP6 PUSH1 0x0 ADD PUSH1 0x8 PUSH2 0x100 EXP DUP2 SLOAD DUP2 PUSH1 0xFF MUL NOT AND SWAP1 DUP4 ISZERO ISZERO MUL OR SWAP1 SSTORE POP JUMPDEST PUSH2 0x10B0 DUP7 PUSH2 0x1AAE JUMP JUMPDEST DUP4 ISZERO PUSH2 0x110C JUMPI PUSH1 0x0 DUP6 PUSH1 0x0 ADD PUSH1 0x8 PUSH2 0x100 EXP DUP2 SLOAD DUP2 PUSH1 0xFF MUL NOT AND SWAP1 DUP4 ISZERO ISZERO MUL OR SWAP1 SSTORE POP PUSH32 0xC7F505B2F371AE2175EE4913F4499E1F2633A7B5936321EED1CDAEB6115181D2 PUSH1 0x1 PUSH1 0x40 MLOAD PUSH2 0x1103 SWAP2 SWAP1 PUSH2 0x2CD6 JUMP JUMPDEST PUSH1 0x40 MLOAD DUP1 SWAP2 SUB SWAP1 LOG1 JUMPDEST POP POP POP POP POP POP JUMP JUMPDEST PUSH2 0x111D DUP3 PUSH2 0x72F JUMP JUMPDEST PUSH2 0x1126 DUP2 PUSH2 0x15B2 JUMP JUMPDEST PUSH2 0x1130 DUP4 DUP4 PUSH2 0x16CF JUMP JUMPDEST POP POP POP POP JUMP JUMPDEST PUSH2 0x113E PUSH2 0x186B JUMP JUMPDEST PUSH2 0x1146 PUSH2 0x1C5D JUMP JUMPDEST PUSH1 0x0 PUSH1 0x1 PUSH1 0x0 DUP5 PUSH20 0xFFFFFFFFFFFFFFFFFFFFFFFFFFFFFFFFFFFFFFFF AND PUSH20 0xFFFFFFFFFFFFFFFFFFFFFFFFFFFFFFFFFFFFFFFF AND DUP2 MSTORE PUSH1 0x20 ADD SWAP1 DUP2 MSTORE PUSH1 0x20 ADD PUSH1 0x0 KECCAK256 PUSH1 0x0 DUP4 DUP2 MSTORE PUSH1 0x20 ADD SWAP1 DUP2 MSTORE PUSH1 0x20 ADD PUSH1 0x0 KECCAK256 SWAP1 POP PUSH1 0x0 PUSH1 0x2 PUSH1 0x0 DUP6 PUSH20 0xFFFFFFFFFFFFFFFFFFFFFFFFFFFFFFFFFFFFFFFF AND PUSH20 0xFFFFFFFFFFFFFFFFFFFFFFFFFFFFFFFFFFFFFFFF AND DUP2 MSTORE PUSH1 0x20 ADD SWAP1 DUP2 MSTORE PUSH1 0x20 ADD PUSH1 0x0 KECCAK256 PUSH1 0x0 DUP5 DUP2 MSTORE PUSH1 0x20 ADD SWAP1 DUP2 MSTORE PUSH1 0x20 ADD PUSH1 0x0 KECCAK256 SWAP1 POP PUSH1 0x0 DUP2 DUP1 SLOAD SWAP1 POP EQ DUP1 PUSH2 0x1209 JUMPI POP DUP1 DUP1 SLOAD SWAP1 POP DUP3 PUSH1 0x5 ADD SLOAD LT ISZERO JUMPDEST ISZERO PUSH2 0x1240 JUMPI PUSH1 0x40 MLOAD PUSH32 0x8BDB538100000000000000000000000000000000000000000000000000000000 DUP2 MSTORE PUSH1 0x4 ADD PUSH1 0x40 MLOAD DUP1 SWAP2 SUB SWAP1 REVERT JUMPDEST PUSH1 0x0 DUP1 DUP4 PUSH1 0x1 ADD SLOAD SWAP1 POP PUSH1 0x0 DUP5 PUSH1 0x5 ADD SLOAD SWAP1 POP JUMPDEST DUP4 DUP1 SLOAD SWAP1 POP DUP2 LT ISZERO PUSH2 0x1322 JUMPI PUSH2 0xE10 DUP5 DUP3 DUP2 SLOAD DUP2 LT PUSH2 0x1276 JUMPI PUSH2 0x1275 PUSH2 0x29A5 JUMP JUMPDEST JUMPDEST SWAP1 PUSH1 0x0 MSTORE PUSH1 0x20 PUSH1 0x0 KECCAK256 SWAP1 PUSH1 0x2 MUL ADD PUSH1 0x0 ADD SLOAD PUSH2 0x1292 SWAP2 SWAP1 PUSH2 0x2CF1 JUMP JUMPDEST DUP3 PUSH2 0x129D SWAP2 SWAP1 PUSH2 0x2D33 JUMP JUMPDEST SWAP2 POP DUP2 TIMESTAMP LT PUSH2 0x1322 JUMPI PUSH1 0x0 PUSH2 0x2710 DUP6 DUP4 DUP2 SLOAD DUP2 LT PUSH2 0x12BE JUMPI PUSH2 0x12BD PUSH2 0x29A5 JUMP JUMPDEST JUMPDEST SWAP1 PUSH1 0x0 MSTORE PUSH1 0x20 PUSH1 0x0 KECCAK256 SWAP1 PUSH1 0x2 MUL ADD PUSH1 0x1 ADD SLOAD DUP8 PUSH1 0x3 ADD SLOAD PUSH2 0x12DF SWAP2 SWAP1 PUSH2 0x2CF1 JUMP JUMPDEST PUSH2 0x12E9 SWAP2 SWAP1 PUSH2 0x2D96 JUMP JUMPDEST SWAP1 POP DUP1 DUP5 PUSH2 0x12F7 SWAP2 SWAP1 PUSH2 0x2D33 JUMP JUMPDEST SWAP4 POP PUSH1 0x1 DUP3 PUSH2 0x1306 SWAP2 SWAP1 PUSH2 0x2D33 JUMP JUMPDEST DUP7 PUSH1 0x5 ADD DUP2 SWAP1 SSTORE POP POP DUP1 DUP1 PUSH2 0x131A SWAP1 PUSH2 0x2A03 JUMP JUMPDEST SWAP2 POP POP PUSH2 0x1254 JUMP JUMPDEST POP PUSH1 0x0 DUP3 GT PUSH2 0x135D JUMPI PUSH1 0x40 MLOAD PUSH32 0x3507415000000000000000000000000000000000000000000000000000000000 DUP2 MSTORE PUSH1 0x4 ADD PUSH1 0x40 MLOAD DUP1 SWAP2 SUB SWAP1 REVERT JUMPDEST DUP2 DUP5 PUSH1 0x4 ADD PUSH1 0x0 DUP3 DUP3 SLOAD PUSH2 0x1371 SWAP2 SWAP1 PUSH2 0x2D33 JUMP JUMPDEST SWAP3 POP POP DUP2 SWAP1 SSTORE POP PUSH1 0x0 PUSH20 0xFFFFFFFFFFFFFFFFFFFFFFFFFFFFFFFFFFFFFFFF AND DUP5 PUSH1 0x2 ADD PUSH1 0x0 SWAP1 SLOAD SWAP1 PUSH2 0x100 EXP SWAP1 DIV PUSH20 0xFFFFFFFFFFFFFFFFFFFFFFFFFFFFFFFFFFFFFFFF AND PUSH20 0xFFFFFFFFFFFFFFFFFFFFFFFFFFFFFFFFFFFFFFFF AND EQ PUSH2 0x1404 JUMPI PUSH2 0x13FF DUP5 PUSH1 0x2 ADD PUSH1 0x0 SWAP1 SLOAD SWAP1 PUSH2 0x100 EXP SWAP1 DIV PUSH20 0xFFFFFFFFFFFFFFFFFFFFFFFFFFFFFFFFFFFFFFFF AND DUP8 DUP5 PUSH2 0x1C9E JUMP JUMPDEST PUSH2 0x140F JUMP JUMPDEST PUSH2 0x140E DUP7 DUP4 PUSH2 0x1DD4 JUMP JUMPDEST JUMPDEST DUP2 DUP7 PUSH20 0xFFFFFFFFFFFFFFFFFFFFFFFFFFFFFFFFFFFFFFFF AND PUSH32 0xB21FB52D5749B80F3182F8C6992236B5E5576681880914484D7F4C9B062E619E PUSH1 0x40 MLOAD PUSH1 0x40 MLOAD DUP1 SWAP2 SUB SWAP1 LOG3 POP POP POP POP PUSH2 0x145F PUSH2 0x19FB JUMP JUMPDEST POP POP JUMP JUMPDEST PUSH32 0x65D7A28E3265B37A6474929F336521B332C1681B933F6CB9F3376673440D862A DUP2 JUMP JUMPDEST PUSH2 0x1494 PUSH1 0x0 DUP1 SHL CALLER PUSH2 0x62C JUMP JUMPDEST PUSH2 0x14D3 JUMPI PUSH1 0x40 MLOAD PUSH32 0x8C379A000000000000000000000000000000000000000000000000000000000 DUP2 MSTORE PUSH1 0x4 ADD PUSH2 0x14CA SWAP1 PUSH2 0x2251 JUMP JUMPDEST PUSH1 0x40 MLOAD DUP1 SWAP2 SUB SWAP1 REVERT JUMPDEST PUSH1 0x0 DUP2 GT PUSH2 0x1516 JUMPI PUSH1 0x40 MLOAD PUSH32 0x8C379A000000000000000000000000000000000000000000000000000000000 DUP2 MSTORE PUSH1 0x4 ADD PUSH2 0x150D SWAP1 PUSH2 0x2E13 JUMP JUMPDEST PUSH1 0x40 MLOAD DUP1 SWAP2 SUB SWAP1 REVERT JUMPDEST DUP1 PUSH1 0x0 DUP2 SWAP1 SSTORE POP POP JUMP JUMPDEST PUSH1 0x0 PUSH32 0x2DD7BC7DEC4DCEEDDA775E58DD541E08A116C6C53815C0BD028192F7B626800 SWAP1 POP SWAP1 JUMP JUMPDEST PUSH1 0x0 PUSH32 0x1FFC9A700000000000000000000000000000000000000000000000000000000 PUSH28 0xFFFFFFFFFFFFFFFFFFFFFFFFFFFFFFFFFFFFFFFFFFFFFFFFFFFFFFFF NOT AND DUP3 PUSH28 0xFFFFFFFFFFFFFFFFFFFFFFFFFFFFFFFFFFFFFFFFFFFFFFFFFFFFFFFF NOT AND EQ SWAP1 POP SWAP2 SWAP1 POP JUMP JUMPDEST PUSH2 0x15C3 DUP2 PUSH2 0x15BE PUSH2 0x16C7 JUMP JUMPDEST PUSH2 0x1ED4 JUMP JUMPDEST POP JUMP JUMPDEST PUSH1 0x0 DUP1 PUSH2 0x15D1 PUSH2 0x1520 JUMP JUMPDEST SWAP1 POP PUSH2 0x15DD DUP5 DUP5 PUSH2 0x62C JUMP JUMPDEST PUSH2 0x16BB JUMPI PUSH1 0x1 DUP2 PUSH1 0x0 ADD PUSH1 0x0 DUP7 DUP2 MSTORE PUSH1 0x20 ADD SWAP1 DUP2 MSTORE PUSH1 0x20 ADD PUSH1 0x0 KECCAK256 PUSH1 0x0 ADD PUSH1 0x0 DUP6 PUSH20 0xFFFFFFFFFFFFFFFFFFFFFFFFFFFFFFFFFFFFFFFF AND PUSH20 0xFFFFFFFFFFFFFFFFFFFFFFFFFFFFFFFFFFFFFFFF AND DUP2 MSTORE PUSH1 0x20 ADD SWAP1 DUP2 MSTORE PUSH1 0x20 ADD PUSH1 0x0 KECCAK256 PUSH1 0x0 PUSH2 0x100 EXP DUP2 SLOAD DUP2 PUSH1 0xFF MUL NOT AND SWAP1 DUP4 ISZERO ISZERO MUL OR SWAP1 SSTORE POP PUSH2 0x1657 PUSH2 0x16C7 JUMP JUMPDEST PUSH20 0xFFFFFFFFFFFFFFFFFFFFFFFFFFFFFFFFFFFFFFFF AND DUP4 PUSH20 0xFFFFFFFFFFFFFFFFFFFFFFFFFFFFFFFFFFFFFFFF AND DUP6 PUSH32 0x2F8788117E7EFF1D82E926EC794901D17C78024A50270940304540A733656F0D PUSH1 0x40 MLOAD PUSH1 0x40 MLOAD DUP1 SWAP2 SUB SWAP1 LOG4 PUSH1 0x1 SWAP2 POP POP PUSH2 0x16C1 JUMP JUMPDEST PUSH1 0x0 SWAP2 POP POP JUMPDEST SWAP3 SWAP2 POP POP JUMP JUMPDEST PUSH1 0x0 CALLER SWAP1 POP SWAP1 JUMP JUMPDEST PUSH1 0x0 DUP1 PUSH2 0x16DA PUSH2 0x1520 JUMP JUMPDEST SWAP1 POP PUSH2 0x16E6 DUP5 DUP5 PUSH2 0x62C JUMP JUMPDEST ISZERO PUSH2 0x17C5 JUMPI PUSH1 0x0 DUP2 PUSH1 0x0 ADD PUSH1 0x0 DUP7 DUP2 MSTORE PUSH1 0x20 ADD SWAP1 DUP2 MSTORE PUSH1 0x20 ADD PUSH1 0x0 KECCAK256 PUSH1 0x0 ADD PUSH1 0x0 DUP6 PUSH20 0xFFFFFFFFFFFFFFFFFFFFFFFFFFFFFFFFFFFFFFFF AND PUSH20 0xFFFFFFFFFFFFFFFFFFFFFFFFFFFFFFFFFFFFFFFF AND DUP2 MSTORE PUSH1 0x20 ADD SWAP1 DUP2 MSTORE PUSH1 0x20 ADD PUSH1 0x0 KECCAK256 PUSH1 0x0 PUSH2 0x100 EXP DUP2 SLOAD DUP2 PUSH1 0xFF MUL NOT AND SWAP1 DUP4 ISZERO ISZERO MUL OR SWAP1 SSTORE POP PUSH2 0x1761 PUSH2 0x16C7 JUMP JUMPDEST PUSH20 0xFFFFFFFFFFFFFFFFFFFFFFFFFFFFFFFFFFFFFFFF AND DUP4 PUSH20 0xFFFFFFFFFFFFFFFFFFFFFFFFFFFFFFFFFFFFFFFF AND DUP6 PUSH32 0xF6391F5C32D9C69D2A47EA670B442974B53935D1EDC7FD64EB21E047A839171B PUSH1 0x40 MLOAD PUSH1 0x40 MLOAD DUP1 SWAP2 SUB SWAP1 LOG4 PUSH1 0x1 SWAP2 POP POP PUSH2 0x17CB JUMP JUMPDEST PUSH1 0x0 SWAP2 POP POP JUMPDEST SWAP3 SWAP2 POP POP JUMP JUMPDEST PUSH2 0x17D9 PUSH2 0x1F25 JUMP JUMPDEST PUSH1 0x0 PUSH2 0x17E3 PUSH2 0x1843 JUMP JUMPDEST SWAP1 POP PUSH1 0x0 DUP2 PUSH1 0x0 ADD PUSH1 0x0 PUSH2 0x100 EXP DUP2 SLOAD DUP2 PUSH1 0xFF MUL NOT AND SWAP1 DUP4 ISZERO ISZERO MUL OR SWAP1 SSTORE POP PUSH32 0x5DB9EE0A495BF2E6FF9C91A7834C1BA4FDD244A5E8AA4E537BD38AEAE4B073AA PUSH2 0x182B PUSH2 0x16C7 JUMP JUMPDEST PUSH1 0x40 MLOAD PUSH2 0x1838 SWAP2 SWAP1 PUSH2 0x2E33 JUMP JUMPDEST PUSH1 0x40 MLOAD DUP1 SWAP2 SUB SWAP1 LOG1 POP JUMP JUMPDEST PUSH1 0x0 PUSH32 0xCD5ED15C6E187E77E9AEE88184C21F4F2182AB5827CB3B7E07FBEDCD63F03300 SWAP1 POP SWAP1 JUMP JUMPDEST PUSH1 0x0 PUSH2 0x1875 PUSH2 0x1F65 JUMP JUMPDEST SWAP1 POP PUSH1 0x2 DUP2 PUSH1 0x0 ADD SLOAD SUB PUSH2 0x18B5 JUMPI PUSH1 0x40 MLOAD PUSH32 0x3EE5AEB500000000000000000000000000000000000000000000000000000000 DUP2 MSTORE PUSH1 0x4 ADD PUSH1 0x40 MLOAD DUP1 SWAP2 SUB SWAP1 REVERT JUMPDEST PUSH1 0x2 DUP2 PUSH1 0x0 ADD DUP2 SWAP1 SSTORE POP POP JUMP JUMPDEST PUSH1 0x0 DUP1 DUP6 PUSH20 0xFFFFFFFFFFFFFFFFFFFFFFFFFFFFFFFFFFFFFFFF AND PUSH4 0x23B872DD DUP7 DUP7 DUP7 PUSH1 0x40 MLOAD PUSH1 0x24 ADD PUSH2 0x18F6 SWAP4 SWAP3 SWAP2 SWAP1 PUSH2 0x2E4E JUMP JUMPDEST PUSH1 0x40 MLOAD PUSH1 0x20 DUP2 DUP4 SUB SUB DUP2 MSTORE SWAP1 PUSH1 0x40 MSTORE SWAP1 PUSH1 0xE0 SHL PUSH1 0x20 DUP3 ADD DUP1 MLOAD PUSH28 0xFFFFFFFFFFFFFFFFFFFFFFFFFFFFFFFFFFFFFFFFFFFFFFFFFFFFFFFF DUP4 DUP2 DUP4 AND OR DUP4 MSTORE POP POP POP POP PUSH1 0x40 MLOAD PUSH2 0x1944 SWAP2 SWAP1 PUSH2 0x2EF6 JUMP JUMPDEST PUSH1 0x0 PUSH1 0x40 MLOAD DUP1 DUP4 SUB DUP2 PUSH1 0x0 DUP7 GAS CALL SWAP2 POP POP RETURNDATASIZE DUP1 PUSH1 0x0 DUP2 EQ PUSH2 0x1981 JUMPI PUSH1 0x40 MLOAD SWAP2 POP PUSH1 0x1F NOT PUSH1 0x3F RETURNDATASIZE ADD AND DUP3 ADD PUSH1 0x40 MSTORE RETURNDATASIZE DUP3 MSTORE RETURNDATASIZE PUSH1 0x0 PUSH1 0x20 DUP5 ADD RETURNDATACOPY PUSH2 0x1986 JUMP JUMPDEST PUSH1 0x60 SWAP2 POP JUMPDEST POP SWAP2 POP SWAP2 POP DUP2 DUP1 ISZERO PUSH2 0x19B4 JUMPI POP PUSH1 0x0 DUP2 MLOAD EQ DUP1 PUSH2 0x19B3 JUMPI POP DUP1 DUP1 PUSH1 0x20 ADD SWAP1 MLOAD DUP2 ADD SWAP1 PUSH2 0x19B2 SWAP2 SWAP1 PUSH2 0x2F39 JUMP JUMPDEST JUMPDEST JUMPDEST PUSH2 0x19F3 JUMPI PUSH1 0x40 MLOAD PUSH32 0x8C379A000000000000000000000000000000000000000000000000000000000 DUP2 MSTORE PUSH1 0x4 ADD PUSH2 0x19EA SWAP1 PUSH2 0x2FD8 JUMP JUMPDEST PUSH1 0x40 MLOAD DUP1 SWAP2 SUB SWAP1 REVERT JUMPDEST POP POP POP POP POP POP JUMP JUMPDEST PUSH1 0x0 PUSH2 0x1A05 PUSH2 0x1F65 JUMP JUMPDEST SWAP1 POP PUSH1 0x1 DUP2 PUSH1 0x0 ADD DUP2 SWAP1 SSTORE POP POP JUMP JUMPDEST PUSH2 0x1A1C PUSH2 0x1C5D JUMP JUMPDEST PUSH1 0x0 PUSH2 0x1A26 PUSH2 0x1843 JUMP JUMPDEST SWAP1 POP PUSH1 0x1 DUP2 PUSH1 0x0 ADD PUSH1 0x0 PUSH2 0x100 EXP DUP2 SLOAD DUP2 PUSH1 0xFF MUL NOT AND SWAP1 DUP4 ISZERO ISZERO MUL OR SWAP1 SSTORE POP PUSH32 0x62E78CEA01BEE320CD4E420270B5EA74000D11B0C9F74754EBDBFC544B05A258 PUSH2 0x1A6E PUSH2 0x16C7 JUMP JUMPDEST PUSH1 0x40 MLOAD PUSH2 0x1A7B SWAP2 SWAP1 PUSH2 0x2E33 JUMP JUMPDEST PUSH1 0x40 MLOAD DUP1 SWAP2 SUB SWAP1 LOG1 POP JUMP JUMPDEST PUSH1 0x0 PUSH32 0xF0C57E16840DF040F15088DC2F81FE391C3923BEC73E23A9662EFC9C229C6A00 SWAP1 POP SWAP1 JUMP JUMPDEST PUSH1 0x0 PUSH2 0x1AB8 PUSH2 0x1A86 JUMP JUMPDEST SWAP1 POP PUSH1 0x0 DUP2 PUSH1 0x0 ADD PUSH1 0x8 SWAP1 SLOAD SWAP1 PUSH2 0x100 EXP SWAP1 DIV PUSH1 0xFF AND ISZERO SWAP1 POP PUSH1 0x0 DUP3 PUSH1 0x0 ADD PUSH1 0x0 SWAP1 SLOAD SWAP1 PUSH2 0x100 EXP SWAP1 DIV PUSH8 0xFFFFFFFFFFFFFFFF AND SWAP1 POP PUSH1 0x0 DUP1 DUP3 PUSH8 0xFFFFFFFFFFFFFFFF AND EQ DUP1 ISZERO PUSH2 0x1B06 JUMPI POP DUP3 JUMPDEST SWAP1 POP PUSH1 0x0 PUSH1 0x1 DUP4 PUSH8 0xFFFFFFFFFFFFFFFF AND EQ DUP1 ISZERO PUSH2 0x1B3B JUMPI POP PUSH1 0x0 ADDRESS PUSH20 0xFFFFFFFFFFFFFFFFFFFFFFFFFFFFFFFFFFFFFFFF AND EXTCODESIZE EQ JUMPDEST SWAP1 POP DUP2 ISZERO DUP1 ISZERO PUSH2 0x1B49 JUMPI POP DUP1 ISZERO JUMPDEST ISZERO PUSH2 0x1B80 JUMPI PUSH1 0x40 MLOAD PUSH32 0xF92EE8A900000000000000000000000000000000000000000000000000000000 DUP2 MSTORE PUSH1 0x4 ADD PUSH1 0x40 MLOAD DUP1 SWAP2 SUB SWAP1 REVERT JUMPDEST PUSH1 0x1 DUP6 PUSH1 0x0 ADD PUSH1 0x0 PUSH2 0x100 EXP DUP2 SLOAD DUP2 PUSH8 0xFFFFFFFFFFFFFFFF MUL NOT AND SWAP1 DUP4 PUSH8 0xFFFFFFFFFFFFFFFF AND MUL OR SWAP1 SSTORE POP DUP4 ISZERO PUSH2 0x1BD0 JUMPI PUSH1 0x1 DUP6 PUSH1 0x0 ADD PUSH1 0x8 PUSH2 0x100 EXP DUP2 SLOAD DUP2 PUSH1 0xFF MUL NOT AND SWAP1 DUP4 ISZERO ISZERO MUL OR SWAP1 SSTORE POP JUMPDEST PUSH2 0x1BD8 PUSH2 0x1F8D JUMP JUMPDEST PUSH2 0x1BE0 PUSH2 0x1F97 JUMP JUMPDEST PUSH2 0x1BE8 PUSH2 0x1FA1 JUMP JUMPDEST PUSH2 0x1BF1 DUP7 PUSH2 0x1FD5 JUMP JUMPDEST PUSH1 0x64 PUSH1 0x0 DUP2 SWAP1 SSTORE POP DUP4 ISZERO PUSH2 0x1C55 JUMPI PUSH1 0x0 DUP6 PUSH1 0x0 ADD PUSH1 0x8 PUSH2 0x100 EXP DUP2 SLOAD DUP2 PUSH1 0xFF MUL NOT AND SWAP1 DUP4 ISZERO ISZERO MUL OR SWAP1 SSTORE POP PUSH32 0xC7F505B2F371AE2175EE4913F4499E1F2633A7B5936321EED1CDAEB6115181D2 PUSH1 0x1 PUSH1 0x40 MLOAD PUSH2 0x1C4C SWAP2 SWAP1 PUSH2 0x2CD6 JUMP JUMPDEST PUSH1 0x40 MLOAD DUP1 SWAP2 SUB SWAP1 LOG1 JUMPDEST POP POP POP POP POP POP JUMP JUMPDEST PUSH2 0x1C65 PUSH2 0x8BC JUMP JUMPDEST ISZERO PUSH2 0x1C9C JUMPI PUSH1 0x40 MLOAD PUSH32 0xD93C066500000000000000000000000000000000000000000000000000000000 DUP2 MSTORE PUSH1 0x4 ADD PUSH1 0x40 MLOAD DUP1 SWAP2 SUB SWAP1 REVERT JUMPDEST JUMP JUMPDEST PUSH1 0x0 DUP1 DUP5 PUSH20 0xFFFFFFFFFFFFFFFFFFFFFFFFFFFFFFFFFFFFFFFF AND PUSH4 0xA9059CBB DUP6 DUP6 PUSH1 0x40 MLOAD PUSH1 0x24 ADD PUSH2 0x1CD0 SWAP3 SWAP2 SWAP1 PUSH2 0x2FF8 JUMP JUMPDEST PUSH1 0x40 MLOAD PUSH1 0x20 DUP2 DUP4 SUB SUB DUP2 MSTORE SWAP1 PUSH1 0x40 MSTORE SWAP1 PUSH1 0xE0 SHL PUSH1 0x20 DUP3 ADD DUP1 MLOAD PUSH28 0xFFFFFFFFFFFFFFFFFFFFFFFFFFFFFFFFFFFFFFFFFFFFFFFFFFFFFFFF DUP4 DUP2 DUP4 AND OR DUP4 MSTORE POP POP POP POP PUSH1 0x40 MLOAD PUSH2 0x1D1E SWAP2 SWAP1 PUSH2 0x2EF6 JUMP JUMPDEST PUSH1 0x0 PUSH1 0x40 MLOAD DUP1 DUP4 SUB DUP2 PUSH1 0x0 DUP7 GAS CALL SWAP2 POP POP RETURNDATASIZE DUP1 PUSH1 0x0 DUP2 EQ PUSH2 0x1D5B JUMPI PUSH1 0x40 MLOAD SWAP2 POP PUSH1 0x1F NOT PUSH1 0x3F RETURNDATASIZE ADD AND DUP3 ADD PUSH1 0x40 MSTORE RETURNDATASIZE DUP3 MSTORE RETURNDATASIZE PUSH1 0x0 PUSH1 0x20 DUP5 ADD RETURNDATACOPY PUSH2 0x1D60 JUMP JUMPDEST PUSH1 0x60 SWAP2 POP JUMPDEST POP SWAP2 POP SWAP2 POP DUP2 DUP1 ISZERO PUSH2 0x1D8E JUMPI POP PUSH1 0x0 DUP2 MLOAD EQ DUP1 PUSH2 0x1D8D JUMPI POP DUP1 DUP1 PUSH1 0x20 ADD SWAP1 MLOAD DUP2 ADD SWAP1 PUSH2 0x1D8C SWAP2 SWAP1 PUSH2 0x2F39 JUMP JUMPDEST JUMPDEST JUMPDEST PUSH2 0x1DCD JUMPI PUSH1 0x40 MLOAD PUSH32 0x8C379A000000000000000000000000000000000000000000000000000000000 DUP2 MSTORE PUSH1 0x4 ADD PUSH2 0x1DC4 SWAP1 PUSH2 0x3093 JUMP JUMPDEST PUSH1 0x40 MLOAD DUP1 SWAP2 SUB SWAP1 REVERT JUMPDEST POP POP POP POP POP JUMP JUMPDEST PUSH1 0x0 DUP3 PUSH20 0xFFFFFFFFFFFFFFFFFFFFFFFFFFFFFFFFFFFFFFFF AND DUP3 PUSH1 0x0 PUSH8 0xFFFFFFFFFFFFFFFF DUP2 GT ISZERO PUSH2 0x1E09 JUMPI PUSH2 0x1E08 PUSH2 0x250E JUMP JUMPDEST JUMPDEST PUSH1 0x40 MLOAD SWAP1 DUP1 DUP3 MSTORE DUP1 PUSH1 0x1F ADD PUSH1 0x1F NOT AND PUSH1 0x20 ADD DUP3 ADD PUSH1 0x40 MSTORE DUP1 ISZERO PUSH2 0x1E3B JUMPI DUP2 PUSH1 0x20 ADD PUSH1 0x1 DUP3 MUL DUP1 CALLDATASIZE DUP4 CALLDATACOPY DUP1 DUP3 ADD SWAP2 POP POP SWAP1 POP JUMPDEST POP PUSH1 0x40 MLOAD PUSH2 0x1E49 SWAP2 SWAP1 PUSH2 0x2EF6 JUMP JUMPDEST PUSH1 0x0 PUSH1 0x40 MLOAD DUP1 DUP4 SUB DUP2 DUP6 DUP8 GAS CALL SWAP3 POP POP POP RETURNDATASIZE DUP1 PUSH1 0x0 DUP2 EQ PUSH2 0x1E86 JUMPI PUSH1 0x40 MLOAD SWAP2 POP PUSH1 0x1F NOT PUSH1 0x3F RETURNDATASIZE ADD AND DUP3 ADD PUSH1 0x40 MSTORE RETURNDATASIZE DUP3 MSTORE RETURNDATASIZE PUSH1 0x0 PUSH1 0x20 DUP5 ADD RETURNDATACOPY PUSH2 0x1E8B JUMP JUMPDEST PUSH1 0x60 SWAP2 POP JUMPDEST POP POP SWAP1 POP DUP1 PUSH2 0x1ECF JUMPI PUSH1 0x40 MLOAD PUSH32 0x8C379A000000000000000000000000000000000000000000000000000000000 DUP2 MSTORE PUSH1 0x4 ADD PUSH2 0x1EC6 SWAP1 PUSH2 0x3125 JUMP JUMPDEST PUSH1 0x40 MLOAD DUP1 SWAP2 SUB SWAP1 REVERT JUMPDEST POP POP POP JUMP JUMPDEST PUSH2 0x1EDE DUP3 DUP3 PUSH2 0x62C JUMP JUMPDEST PUSH2 0x1F21 JUMPI DUP1 DUP3 PUSH1 0x40 MLOAD PUSH32 0xE2517D3F00000000000000000000000000000000000000000000000000000000 DUP2 MSTORE PUSH1 0x4 ADD PUSH2 0x1F18 SWAP3 SWAP2 SWAP1 PUSH2 0x3145 JUMP JUMPDEST PUSH1 0x40 MLOAD DUP1 SWAP2 SUB SWAP1 REVERT JUMPDEST POP POP JUMP JUMPDEST PUSH2 0x1F2D PUSH2 0x8BC JUMP JUMPDEST PUSH2 0x1F63 JUMPI PUSH1 0x40 MLOAD PUSH32 0x8DFC202B00000000000000000000000000000000000000000000000000000000 DUP2 MSTORE PUSH1 0x4 ADD PUSH1 0x40 MLOAD DUP1 SWAP2 SUB SWAP1 REVERT JUMPDEST JUMP JUMPDEST PUSH1 0x0 PUSH32 0x9B779B17422D0DF92223018B32B4D1FA46E071723D6817E2486D003BECC55F00 SWAP1 POP SWAP1 JUMP JUMPDEST PUSH2 0x1F95 PUSH2 0x2194 JUMP JUMPDEST JUMP JUMPDEST PUSH2 0x1F9F PUSH2 0x2194 JUMP JUMPDEST JUMP JUMPDEST PUSH2 0x1FA9 PUSH2 0x2194 JUMP JUMPDEST PUSH1 0x0 PUSH2 0x1FB3 PUSH2 0x1843 JUMP JUMPDEST SWAP1 POP PUSH1 0x0 DUP2 PUSH1 0x0 ADD PUSH1 0x0 PUSH2 0x100 EXP DUP2 SLOAD DUP2 PUSH1 0xFF MUL NOT AND SWAP1 DUP4 ISZERO ISZERO MUL OR SWAP1 SSTORE POP POP JUMP JUMPDEST PUSH1 0x0 PUSH2 0x1FDF PUSH2 0x1A86 JUMP JUMPDEST SWAP1 POP PUSH1 0x0 DUP2 PUSH1 0x0 ADD PUSH1 0x8 SWAP1 SLOAD SWAP1 PUSH2 0x100 EXP SWAP1 DIV PUSH1 0xFF AND ISZERO SWAP1 POP PUSH1 0x0 DUP3 PUSH1 0x0 ADD PUSH1 0x0 SWAP1 SLOAD SWAP1 PUSH2 0x100 EXP SWAP1 DIV PUSH8 0xFFFFFFFFFFFFFFFF AND SWAP1 POP PUSH1 0x0 DUP1 DUP3 PUSH8 0xFFFFFFFFFFFFFFFF AND EQ DUP1 ISZERO PUSH2 0x202D JUMPI POP DUP3 JUMPDEST SWAP1 POP PUSH1 0x0 PUSH1 0x1 DUP4 PUSH8 0xFFFFFFFFFFFFFFFF AND EQ DUP1 ISZERO PUSH2 0x2062 JUMPI POP PUSH1 0x0 ADDRESS PUSH20 0xFFFFFFFFFFFFFFFFFFFFFFFFFFFFFFFFFFFFFFFF AND EXTCODESIZE EQ JUMPDEST SWAP1 POP DUP2 ISZERO DUP1 ISZERO PUSH2 0x2070 JUMPI POP DUP1 ISZERO JUMPDEST ISZERO PUSH2 0x20A7 JUMPI PUSH1 0x40 MLOAD PUSH32 0xF92EE8A900000000000000000000000000000000000000000000000000000000 DUP2 MSTORE PUSH1 0x4 ADD PUSH1 0x40 MLOAD DUP1 SWAP2 SUB SWAP1 REVERT JUMPDEST PUSH1 0x1 DUP6 PUSH1 0x0 ADD PUSH1 0x0 PUSH2 0x100 EXP DUP2 SLOAD DUP2 PUSH8 0xFFFFFFFFFFFFFFFF MUL NOT AND SWAP1 DUP4 PUSH8 0xFFFFFFFFFFFFFFFF AND MUL OR SWAP1 SSTORE POP DUP4 ISZERO PUSH2 0x20F7 JUMPI PUSH1 0x1 DUP6 PUSH1 0x0 ADD PUSH1 0x8 PUSH2 0x100 EXP DUP2 SLOAD DUP2 PUSH1 0xFF MUL NOT AND SWAP1 DUP4 ISZERO ISZERO MUL OR SWAP1 SSTORE POP JUMPDEST PUSH2 0x2104 PUSH1 0x0 DUP1 SHL DUP8 PUSH2 0x15C6 JUMP JUMPDEST POP PUSH2 0x212F PUSH32 0x65D7A28E3265B37A6474929F336521B332C1681B933F6CB9F3376673440D862A DUP8 PUSH2 0x15C6 JUMP JUMPDEST POP DUP4 ISZERO PUSH2 0x218C JUMPI PUSH1 0x0 DUP6 PUSH1 0x0 ADD PUSH1 0x8 PUSH2 0x100 EXP DUP2 SLOAD DUP2 PUSH1 0xFF MUL NOT AND SWAP1 DUP4 ISZERO ISZERO MUL OR SWAP1 SSTORE POP PUSH32 0xC7F505B2F371AE2175EE4913F4499E1F2633A7B5936321EED1CDAEB6115181D2 PUSH1 0x1 PUSH1 0x40 MLOAD PUSH2 0x2183 SWAP2 SWAP1 PUSH2 0x2CD6 JUMP JUMPDEST PUSH1 0x40 MLOAD DUP1 SWAP2 SUB SWAP1 LOG1 JUMPDEST POP POP POP POP POP POP JUMP JUMPDEST PUSH2 0x219C PUSH2 0x21D4 JUMP JUMPDEST PUSH2 0x21D2 JUMPI PUSH1 0x40 MLOAD PUSH32 0xD7E6BCF800000000000000000000000000000000000000000000000000000000 DUP2 MSTORE PUSH1 0x4 ADD PUSH1 0x40 MLOAD DUP1 SWAP2 SUB SWAP1 REVERT JUMPDEST JUMP JUMPDEST PUSH1 0x0 PUSH2 0x21DE PUSH2 0x1A86 JUMP JUMPDEST PUSH1 0x0 ADD PUSH1 0x8 SWAP1 SLOAD SWAP1 PUSH2 0x100 EXP SWAP1 DIV PUSH1 0xFF AND SWAP1 POP SWAP1 JUMP JUMPDEST PUSH1 0x0 DUP3 DUP3 MSTORE PUSH1 0x20 DUP3 ADD SWAP1 POP SWAP3 SWAP2 POP POP JUMP JUMPDEST PUSH32 0x4F776E61626C655061757361626C653A206163636573732064656E6965640000 PUSH1 0x0 DUP3 ADD MSTORE POP JUMP JUMPDEST PUSH1 0x0 PUSH2 0x223B PUSH1 0x1E DUP4 PUSH2 0x21F4 JUMP JUMPDEST SWAP2 POP PUSH2 0x2246 DUP3 PUSH2 0x2205 JUMP JUMPDEST PUSH1 0x20 DUP3 ADD SWAP1 POP SWAP2 SWAP1 POP JUMP JUMPDEST PUSH1 0x0 PUSH1 0x20 DUP3 ADD SWAP1 POP DUP2 DUP2 SUB PUSH1 0x0 DUP4 ADD MSTORE PUSH2 0x226A DUP2 PUSH2 0x222E JUMP JUMPDEST SWAP1 POP SWAP2 SWAP1 POP JUMP JUMPDEST PUSH1 0x0 PUSH1 0x40 MLOAD SWAP1 POP SWAP1 JUMP JUMPDEST PUSH1 0x0 DUP1 REVERT JUMPDEST PUSH1 0x0 DUP1 REVERT JUMPDEST PUSH1 0x0 PUSH32 0xFFFFFFFF00000000000000000000000000000000000000000000000000000000 DUP3 AND SWAP1 POP SWAP2 SWAP1 POP JUMP JUMPDEST PUSH2 0x22BA DUP2 PUSH2 0x2285 JUMP JUMPDEST DUP2 EQ PUSH2 0x22C5 JUMPI PUSH1 0x0 DUP1 REVERT JUMPDEST POP JUMP JUMPDEST PUSH1 0x0 DUP2 CALLDATALOAD SWAP1 POP PUSH2 0x22D7 DUP2 PUSH2 0x22B1 JUMP JUMPDEST SWAP3 SWAP2 POP POP JUMP JUMPDEST PUSH1 0x0 PUSH1 0x20 DUP3 DUP5 SUB SLT ISZERO PUSH2 0x22F3 JUMPI PUSH2 0x22F2 PUSH2 0x227B JUMP JUMPDEST JUMPDEST PUSH1 0x0 PUSH2 0x2301 DUP5 DUP3 DUP6 ADD PUSH2 0x22C8 JUMP JUMPDEST SWAP2 POP POP SWAP3 SWAP2 POP POP JUMP JUMPDEST PUSH1 0x0 DUP2 ISZERO ISZERO SWAP1 POP SWAP2 SWAP1 POP JUMP JUMPDEST PUSH2 0x231F DUP2 PUSH2 0x230A JUMP JUMPDEST DUP3 MSTORE POP POP JUMP JUMPDEST PUSH1 0x0 PUSH1 0x20 DUP3 ADD SWAP1 POP PUSH2 0x233A PUSH1 0x0 DUP4 ADD DUP5 PUSH2 0x2316 JUMP JUMPDEST SWAP3 SWAP2 POP POP JUMP JUMPDEST PUSH1 0x0 PUSH20 0xFFFFFFFFFFFFFFFFFFFFFFFFFFFFFFFFFFFFFFFF DUP3 AND SWAP1 POP SWAP2 SWAP1 POP JUMP JUMPDEST PUSH1 0x0 PUSH2 0x236B DUP3 PUSH2 0x2340 JUMP JUMPDEST SWAP1 POP SWAP2 SWAP1 POP JUMP JUMPDEST PUSH2 0x237B DUP2 PUSH2 0x2360 JUMP JUMPDEST DUP2 EQ PUSH2 0x2386 JUMPI PUSH1 0x0 DUP1 REVERT JUMPDEST POP JUMP JUMPDEST PUSH1 0x0 DUP2 CALLDATALOAD SWAP1 POP PUSH2 0x2398 DUP2 PUSH2 0x2372 JUMP JUMPDEST SWAP3 SWAP2 POP POP JUMP JUMPDEST PUSH1 0x0 PUSH1 0x20 DUP3 DUP5 SUB SLT ISZERO PUSH2 0x23B4 JUMPI PUSH2 0x23B3 PUSH2 0x227B JUMP JUMPDEST JUMPDEST PUSH1 0x0 PUSH2 0x23C2 DUP5 DUP3 DUP6 ADD PUSH2 0x2389 JUMP JUMPDEST SWAP2 POP POP SWAP3 SWAP2 POP POP JUMP JUMPDEST PUSH1 0x0 DUP2 SWAP1 POP SWAP2 SWAP1 POP JUMP JUMPDEST PUSH2 0x23DE DUP2 PUSH2 0x23CB JUMP JUMPDEST DUP2 EQ PUSH2 0x23E9 JUMPI PUSH1 0x0 DUP1 REVERT JUMPDEST POP JUMP JUMPDEST PUSH1 0x0 DUP2 CALLDATALOAD SWAP1 POP PUSH2 0x23FB DUP2 PUSH2 0x23D5 JUMP JUMPDEST SWAP3 SWAP2 POP POP JUMP JUMPDEST PUSH1 0x0 PUSH1 0x20 DUP3 DUP5 SUB SLT ISZERO PUSH2 0x2417 JUMPI PUSH2 0x2416 PUSH2 0x227B JUMP JUMPDEST JUMPDEST PUSH1 0x0 PUSH2 0x2425 DUP5 DUP3 DUP6 ADD PUSH2 0x23EC JUMP JUMPDEST SWAP2 POP POP SWAP3 SWAP2 POP POP JUMP JUMPDEST PUSH2 0x2437 DUP2 PUSH2 0x23CB JUMP JUMPDEST DUP3 MSTORE POP POP JUMP JUMPDEST PUSH1 0x0 PUSH1 0x20 DUP3 ADD SWAP1 POP PUSH2 0x2452 PUSH1 0x0 DUP4 ADD DUP5 PUSH2 0x242E JUMP JUMPDEST SWAP3 SWAP2 POP POP JUMP JUMPDEST PUSH1 0x0 DUP1 PUSH1 0x40 DUP4 DUP6 SUB SLT ISZERO PUSH2 0x246F JUMPI PUSH2 0x246E PUSH2 0x227B JUMP JUMPDEST JUMPDEST PUSH1 0x0 PUSH2 0x247D DUP6 DUP3 DUP7 ADD PUSH2 0x23EC JUMP JUMPDEST SWAP3 POP POP PUSH1 0x20 PUSH2 0x248E DUP6 DUP3 DUP7 ADD PUSH2 0x2389 JUMP JUMPDEST SWAP2 POP POP SWAP3 POP SWAP3 SWAP1 POP JUMP JUMPDEST PUSH1 0x0 DUP2 SWAP1 POP SWAP2 SWAP1 POP JUMP JUMPDEST PUSH2 0x24AB DUP2 PUSH2 0x2498 JUMP JUMPDEST DUP3 MSTORE POP POP JUMP JUMPDEST PUSH1 0x0 PUSH1 0x20 DUP3 ADD SWAP1 POP PUSH2 0x24C6 PUSH1 0x0 DUP4 ADD DUP5 PUSH2 0x24A2 JUMP JUMPDEST SWAP3 SWAP2 POP POP JUMP JUMPDEST PUSH2 0x24D5 DUP2 PUSH2 0x2498 JUMP JUMPDEST DUP2 EQ PUSH2 0x24E0 JUMPI PUSH1 0x0 DUP1 REVERT JUMPDEST POP JUMP JUMPDEST PUSH1 0x0 DUP2 CALLDATALOAD SWAP1 POP PUSH2 0x24F2 DUP2 PUSH2 0x24CC JUMP JUMPDEST SWAP3 SWAP2 POP POP JUMP JUMPDEST PUSH1 0x0 DUP1 REVERT JUMPDEST PUSH1 0x0 PUSH1 0x1F NOT PUSH1 0x1F DUP4 ADD AND SWAP1 POP SWAP2 SWAP1 POP JUMP JUMPDEST PUSH32 0x4E487B7100000000000000000000000000000000000000000000000000000000 PUSH1 0x0 MSTORE PUSH1 0x41 PUSH1 0x4 MSTORE PUSH1 0x24 PUSH1 0x0 REVERT JUMPDEST PUSH2 0x2546 DUP3 PUSH2 0x24FD JUMP JUMPDEST DUP2 ADD DUP2 DUP2 LT PUSH8 0xFFFFFFFFFFFFFFFF DUP3 GT OR ISZERO PUSH2 0x2565 JUMPI PUSH2 0x2564 PUSH2 0x250E JUMP JUMPDEST JUMPDEST DUP1 PUSH1 0x40 MSTORE POP POP POP JUMP JUMPDEST PUSH1 0x0 PUSH2 0x2578 PUSH2 0x2271 JUMP JUMPDEST SWAP1 POP PUSH2 0x2584 DUP3 DUP3 PUSH2 0x253D JUMP JUMPDEST SWAP2 SWAP1 POP JUMP JUMPDEST PUSH1 0x0 PUSH8 0xFFFFFFFFFFFFFFFF DUP3 GT ISZERO PUSH2 0x25A4 JUMPI PUSH2 0x25A3 PUSH2 0x250E JUMP JUMPDEST JUMPDEST PUSH1 0x20 DUP3 MUL SWAP1 POP PUSH1 0x20 DUP2 ADD SWAP1 POP SWAP2 SWAP1 POP JUMP JUMPDEST PUSH1 0x0 DUP1 REVERT JUMPDEST PUSH1 0x0 DUP1 REVERT JUMPDEST PUSH1 0x0 PUSH1 0x40 DUP3 DUP5 SUB SLT ISZERO PUSH2 0x25D5 JUMPI PUSH2 0x25D4 PUSH2 0x25BA JUMP JUMPDEST JUMPDEST PUSH2 0x25DF PUSH1 0x40 PUSH2 0x256E JUMP JUMPDEST SWAP1 POP PUSH1 0x0 PUSH2 0x25EF DUP5 DUP3 DUP6 ADD PUSH2 0x24E3 JUMP JUMPDEST PUSH1 0x0 DUP4 ADD MSTORE POP PUSH1 0x20 PUSH2 0x2603 DUP5 DUP3 DUP6 ADD PUSH2 0x24E3 JUMP JUMPDEST PUSH1 0x20 DUP4 ADD MSTORE POP SWAP3 SWAP2 POP POP JUMP JUMPDEST PUSH1 0x0 PUSH2 0x2622 PUSH2 0x261D DUP5 PUSH2 0x2589 JUMP JUMPDEST PUSH2 0x256E JUMP JUMPDEST SWAP1 POP DUP1 DUP4 DUP3 MSTORE PUSH1 0x20 DUP3 ADD SWAP1 POP PUSH1 0x40 DUP5 MUL DUP4 ADD DUP6 DUP2 GT ISZERO PUSH2 0x2645 JUMPI PUSH2 0x2644 PUSH2 0x25B5 JUMP JUMPDEST JUMPDEST DUP4 JUMPDEST DUP2 DUP2 LT ISZERO PUSH2 0x266E JUMPI DUP1 PUSH2 0x265A DUP9 DUP3 PUSH2 0x25BF JUMP JUMPDEST DUP5 MSTORE PUSH1 0x20 DUP5 ADD SWAP4 POP POP PUSH1 0x40 DUP2 ADD SWAP1 POP PUSH2 0x2647 JUMP JUMPDEST POP POP POP SWAP4 SWAP3 POP POP POP JUMP JUMPDEST PUSH1 0x0 DUP3 PUSH1 0x1F DUP4 ADD SLT PUSH2 0x268D JUMPI PUSH2 0x268C PUSH2 0x24F8 JUMP JUMPDEST JUMPDEST DUP2 CALLDATALOAD PUSH2 0x269D DUP5 DUP3 PUSH1 0x20 DUP7 ADD PUSH2 0x260F JUMP JUMPDEST SWAP2 POP POP SWAP3 SWAP2 POP POP JUMP JUMPDEST PUSH1 0x0 DUP1 PUSH1 0x0 DUP1 PUSH1 0x0 PUSH1 0xA0 DUP7 DUP9 SUB SLT ISZERO PUSH2 0x26C2 JUMPI PUSH2 0x26C1 PUSH2 0x227B JUMP JUMPDEST JUMPDEST PUSH1 0x0 PUSH2 0x26D0 DUP9 DUP3 DUP10 ADD PUSH2 0x23EC JUMP JUMPDEST SWAP6 POP POP PUSH1 0x20 PUSH2 0x26E1 DUP9 DUP3 DUP10 ADD PUSH2 0x2389 JUMP JUMPDEST SWAP5 POP POP PUSH1 0x40 PUSH2 0x26F2 DUP9 DUP3 DUP10 ADD PUSH2 0x2389 JUMP JUMPDEST SWAP4 POP POP PUSH1 0x60 PUSH2 0x2703 DUP9 DUP3 DUP10 ADD PUSH2 0x24E3 JUMP JUMPDEST SWAP3 POP POP PUSH1 0x80 DUP7 ADD CALLDATALOAD PUSH8 0xFFFFFFFFFFFFFFFF DUP2 GT ISZERO PUSH2 0x2724 JUMPI PUSH2 0x2723 PUSH2 0x2280 JUMP JUMPDEST JUMPDEST PUSH2 0x2730 DUP9 DUP3 DUP10 ADD PUSH2 0x2678 JUMP JUMPDEST SWAP2 POP POP SWAP3 SWAP6 POP SWAP3 SWAP6 SWAP1 SWAP4 POP JUMP JUMPDEST PUSH1 0x0 DUP1 PUSH1 0x40 DUP4 DUP6 SUB SLT ISZERO PUSH2 0x2754 JUMPI PUSH2 0x2753 PUSH2 0x227B JUMP JUMPDEST JUMPDEST PUSH1 0x0 PUSH2 0x2762 DUP6 DUP3 DUP7 ADD PUSH2 0x2389 JUMP JUMPDEST SWAP3 POP POP PUSH1 0x20 PUSH2 0x2773 DUP6 DUP3 DUP7 ADD PUSH2 0x23EC JUMP JUMPDEST SWAP2 POP POP SWAP3 POP SWAP3 SWAP1 POP JUMP JUMPDEST PUSH2 0x2786 DUP2 PUSH2 0x2360 JUMP JUMPDEST DUP3 MSTORE POP POP JUMP JUMPDEST PUSH1 0x0 PUSH1 0xC0 DUP3 ADD SWAP1 POP PUSH2 0x27A1 PUSH1 0x0 DUP4 ADD DUP10 PUSH2 0x277D JUMP JUMPDEST PUSH2 0x27AE PUSH1 0x20 DUP4 ADD DUP9 PUSH2 0x24A2 JUMP JUMPDEST PUSH2 0x27BB PUSH1 0x40 DUP4 ADD DUP8 PUSH2 0x277D JUMP JUMPDEST PUSH2 0x27C8 PUSH1 0x60 DUP4 ADD DUP7 PUSH2 0x24A2 JUMP JUMPDEST PUSH2 0x27D5 PUSH1 0x80 DUP4 ADD DUP6 PUSH2 0x24A2 JUMP JUMPDEST PUSH2 0x27E2 PUSH1 0xA0 DUP4 ADD DUP5 PUSH2 0x24A2 JUMP JUMPDEST SWAP8 SWAP7 POP POP POP POP POP POP POP JUMP JUMPDEST PUSH1 0x0 DUP1 PUSH1 0x0 PUSH1 0x60 DUP5 DUP7 SUB SLT ISZERO PUSH2 0x2806 JUMPI PUSH2 0x2805 PUSH2 0x227B JUMP JUMPDEST JUMPDEST PUSH1 0x0 PUSH2 0x2814 DUP7 DUP3 DUP8 ADD PUSH2 0x2389 JUMP JUMPDEST SWAP4 POP POP PUSH1 0x20 PUSH2 0x2825 DUP7 DUP3 DUP8 ADD PUSH2 0x23EC JUMP JUMPDEST SWAP3 POP POP PUSH1 0x40 PUSH2 0x2836 DUP7 DUP3 DUP8 ADD PUSH2 0x24E3 JUMP JUMPDEST SWAP2 POP POP SWAP3 POP SWAP3 POP SWAP3 JUMP JUMPDEST PUSH1 0x0 PUSH1 0x40 DUP3 ADD SWAP1 POP PUSH2 0x2855 PUSH1 0x0 DUP4 ADD DUP6 PUSH2 0x24A2 JUMP JUMPDEST PUSH2 0x2862 PUSH1 0x20 DUP4 ADD DUP5 PUSH2 0x24A2 JUMP JUMPDEST SWAP4 SWAP3 POP POP POP JUMP JUMPDEST PUSH1 0x0 PUSH1 0x20 DUP3 DUP5 SUB SLT ISZERO PUSH2 0x287F JUMPI PUSH2 0x287E PUSH2 0x227B JUMP JUMPDEST JUMPDEST PUSH1 0x0 PUSH2 0x288D DUP5 DUP3 DUP6 ADD PUSH2 0x24E3 JUMP JUMPDEST SWAP2 POP POP SWAP3 SWAP2 POP POP JUMP JUMPDEST PUSH1 0x0 DUP2 MLOAD SWAP1 POP SWAP2 SWAP1 POP JUMP JUMPDEST PUSH1 0x0 DUP3 DUP3 MSTORE PUSH1 0x20 DUP3 ADD SWAP1 POP SWAP3 SWAP2 POP POP JUMP JUMPDEST PUSH1 0x0 DUP2 SWAP1 POP PUSH1 0x20 DUP3 ADD SWAP1 POP SWAP2 SWAP1 POP JUMP JUMPDEST PUSH2 0x28CB DUP2 PUSH2 0x2498 JUMP JUMPDEST DUP3 MSTORE POP POP JUMP JUMPDEST PUSH1 0x40 DUP3 ADD PUSH1 0x0 DUP3 ADD MLOAD PUSH2 0x28E7 PUSH1 0x0 DUP6 ADD DUP3 PUSH2 0x28C2 JUMP JUMPDEST POP PUSH1 0x20 DUP3 ADD MLOAD PUSH2 0x28FA PUSH1 0x20 DUP6 ADD DUP3 PUSH2 0x28C2 JUMP JUMPDEST POP POP POP POP JUMP JUMPDEST PUSH1 0x0 PUSH2 0x290C DUP4 DUP4 PUSH2 0x28D1 JUMP JUMPDEST PUSH1 0x40 DUP4 ADD SWAP1 POP SWAP3 SWAP2 POP POP JUMP JUMPDEST PUSH1 0x0 PUSH1 0x20 DUP3 ADD SWAP1 POP SWAP2 SWAP1 POP JUMP JUMPDEST PUSH1 0x0 PUSH2 0x2930 DUP3 PUSH2 0x2896 JUMP JUMPDEST PUSH2 0x293A DUP2 DUP6 PUSH2 0x28A1 JUMP JUMPDEST SWAP4 POP PUSH2 0x2945 DUP4 PUSH2 0x28B2 JUMP JUMPDEST DUP1 PUSH1 0x0 JUMPDEST DUP4 DUP2 LT ISZERO PUSH2 0x2976 JUMPI DUP2 MLOAD PUSH2 0x295D DUP9 DUP3 PUSH2 0x2900 JUMP JUMPDEST SWAP8 POP PUSH2 0x2968 DUP4 PUSH2 0x2918 JUMP JUMPDEST SWAP3 POP POP PUSH1 0x1 DUP2 ADD SWAP1 POP PUSH2 0x2949 JUMP JUMPDEST POP DUP6 SWAP4 POP POP POP POP SWAP3 SWAP2 POP POP JUMP JUMPDEST PUSH1 0x0 PUSH1 0x20 DUP3 ADD SWAP1 POP DUP2 DUP2 SUB PUSH1 0x0 DUP4 ADD MSTORE PUSH2 0x299D DUP2 DUP5 PUSH2 0x2925 JUMP JUMPDEST SWAP1 POP SWAP3 SWAP2 POP POP JUMP JUMPDEST PUSH32 0x4E487B7100000000000000000000000000000000000000000000000000000000 PUSH1 0x0 MSTORE PUSH1 0x32 PUSH1 0x4 MSTORE PUSH1 0x24 PUSH1 0x0 REVERT JUMPDEST PUSH32 0x4E487B7100000000000000000000000000000000000000000000000000000000 PUSH1 0x0 MSTORE PUSH1 0x11 PUSH1 0x4 MSTORE PUSH1 0x24 PUSH1 0x0 REVERT JUMPDEST PUSH1 0x0 PUSH2 0x2A0E DUP3 PUSH2 0x2498 JUMP JUMPDEST SWAP2 POP PUSH32 0xFFFFFFFFFFFFFFFFFFFFFFFFFFFFFFFFFFFFFFFFFFFFFFFFFFFFFFFFFFFFFFFF DUP3 SUB PUSH2 0x2A40 JUMPI PUSH2 0x2A3F PUSH2 0x29D4 JUMP JUMPDEST JUMPDEST PUSH1 0x1 DUP3 ADD SWAP1 POP SWAP2 SWAP1 POP JUMP JUMPDEST PUSH2 0x2A54 DUP2 PUSH2 0x2360 JUMP JUMPDEST DUP3 MSTORE POP POP JUMP JUMPDEST PUSH1 0x0 PUSH2 0x2A66 DUP4 DUP4 PUSH2 0x2A4B JUMP JUMPDEST PUSH1 0x20 DUP4 ADD SWAP1 POP SWAP3 SWAP2 POP POP JUMP JUMPDEST PUSH2 0x2A7B DUP2 PUSH2 0x2498 JUMP JUMPDEST DUP3 MSTORE POP POP JUMP JUMPDEST PUSH1 0x0 PUSH2 0x2A8D DUP4 DUP4 PUSH2 0x2A72 JUMP JUMPDEST PUSH1 0x20 DUP4 ADD SWAP1 POP SWAP3 SWAP2 POP POP JUMP JUMPDEST PUSH1 0x0 DUP3 ADD PUSH1 0x0 DUP3 ADD MLOAD PUSH2 0x2AAC DUP5 DUP3 PUSH2 0x2A5A JUMP JUMPDEST SWAP4 POP POP PUSH1 0x20 DUP3 ADD MLOAD PUSH2 0x2ABE DUP5 DUP3 PUSH2 0x2A81 JUMP JUMPDEST SWAP4 POP POP PUSH1 0x40 DUP3 ADD MLOAD PUSH2 0x2AD0 DUP5 DUP3 PUSH2 0x2A5A JUMP JUMPDEST SWAP4 POP POP PUSH1 0x60 DUP3 ADD MLOAD PUSH2 0x2AE2 DUP5 DUP3 PUSH2 0x2A81 JUMP JUMPDEST SWAP4 POP POP PUSH1 0x80 DUP3 ADD MLOAD PUSH2 0x2AF4 DUP5 DUP3 PUSH2 0x2A81 JUMP JUMPDEST SWAP4 POP POP PUSH1 0xA0 DUP3 ADD MLOAD PUSH2 0x2B06 DUP5 DUP3 PUSH2 0x2A81 JUMP JUMPDEST SWAP4 POP POP POP POP POP JUMP JUMPDEST PUSH1 0x0 PUSH2 0x2B1A DUP4 DUP4 PUSH2 0x2A99 JUMP JUMPDEST PUSH1 0xC0 DUP4 ADD SWAP1 POP SWAP3 SWAP2 POP POP JUMP JUMPDEST PUSH1 0x0 DUP2 SWAP1 POP SWAP3 SWAP2 POP POP JUMP JUMPDEST PUSH1 0x0 DUP3 ADD PUSH1 0x0 DUP3 ADD MLOAD PUSH2 0x2B44 DUP5 DUP3 PUSH2 0x2A81 JUMP JUMPDEST SWAP4 POP POP PUSH1 0x20 DUP3 ADD MLOAD PUSH2 0x2B56 DUP5 DUP3 PUSH2 0x2A81 JUMP JUMPDEST SWAP4 POP POP POP POP POP JUMP JUMPDEST PUSH1 0x0 PUSH2 0x2B6A DUP4 DUP4 PUSH2 0x2B31 JUMP JUMPDEST PUSH1 0x40 DUP4 ADD SWAP1 POP SWAP3 SWAP2 POP POP JUMP JUMPDEST PUSH1 0x0 PUSH2 0x2B81 DUP3 PUSH2 0x2896 JUMP JUMPDEST PUSH2 0x2B8B DUP2 DUP6 PUSH2 0x2B26 JUMP JUMPDEST SWAP4 POP PUSH2 0x2B96 DUP4 PUSH2 0x28B2 JUMP JUMPDEST DUP1 PUSH1 0x0 JUMPDEST DUP4 DUP2 LT ISZERO PUSH2 0x2BC7 JUMPI DUP2 MLOAD PUSH2 0x2BAE DUP9 DUP3 PUSH2 0x2B5E JUMP JUMPDEST SWAP8 POP PUSH2 0x2BB9 DUP4 PUSH2 0x2918 JUMP JUMPDEST SWAP3 POP POP PUSH1 0x1 DUP2 ADD SWAP1 POP PUSH2 0x2B9A JUMP JUMPDEST POP DUP6 SWAP4 POP POP POP POP SWAP3 SWAP2 POP POP JUMP JUMPDEST PUSH1 0x0 PUSH2 0x2BE0 DUP4 DUP4 PUSH2 0x2B76 JUMP JUMPDEST SWAP1 POP SWAP3 SWAP2 POP POP JUMP JUMPDEST PUSH2 0x2BF1 DUP2 PUSH2 0x23CB JUMP JUMPDEST DUP3 MSTORE POP POP JUMP JUMPDEST PUSH1 0x0 PUSH2 0x2C03 DUP4 DUP4 PUSH2 0x2BE8 JUMP JUMPDEST PUSH1 0x20 DUP4 ADD SWAP1 POP SWAP3 SWAP2 POP POP JUMP JUMPDEST PUSH1 0x0 DUP1 DUP4 ADD PUSH1 0x0 DUP4 ADD MLOAD PUSH2 0x2C23 DUP6 DUP3 PUSH2 0x2B0E JUMP JUMPDEST SWAP5 POP POP PUSH1 0x20 DUP4 ADD MLOAD PUSH2 0x2C35 DUP6 DUP3 PUSH2 0x2BD4 JUMP JUMPDEST SWAP5 POP POP PUSH1 0x40 DUP4 ADD MLOAD PUSH2 0x2C47 DUP6 DUP3 PUSH2 0x2A5A JUMP JUMPDEST SWAP5 POP POP PUSH1 0x60 DUP4 ADD MLOAD PUSH2 0x2C59 DUP6 DUP3 PUSH2 0x2BF7 JUMP JUMPDEST SWAP5 POP POP DUP4 SWAP2 POP POP SWAP3 SWAP2 POP POP JUMP JUMPDEST PUSH1 0x0 PUSH2 0x2C72 DUP3 DUP5 PUSH2 0x2C0F JUMP JUMPDEST SWAP2 POP DUP2 SWAP1 POP SWAP3 SWAP2 POP POP JUMP JUMPDEST PUSH1 0x0 DUP2 SWAP1 POP SWAP2 SWAP1 POP JUMP JUMPDEST PUSH1 0x0 PUSH8 0xFFFFFFFFFFFFFFFF DUP3 AND SWAP1 POP SWAP2 SWAP1 POP JUMP JUMPDEST PUSH1 0x0 DUP2 SWAP1 POP SWAP2 SWAP1 POP JUMP JUMPDEST PUSH1 0x0 PUSH2 0x2CC0 PUSH2 0x2CBB PUSH2 0x2CB6 DUP5 PUSH2 0x2C7D JUMP JUMPDEST PUSH2 0x2C9B JUMP JUMPDEST PUSH2 0x2C87 JUMP JUMPDEST SWAP1 POP SWAP2 SWAP1 POP JUMP JUMPDEST PUSH2 0x2CD0 DUP2 PUSH2 0x2CA5 JUMP JUMPDEST DUP3 MSTORE POP POP JUMP JUMPDEST PUSH1 0x0 PUSH1 0x20 DUP3 ADD SWAP1 POP PUSH2 0x2CEB PUSH1 0x0 DUP4 ADD DUP5 PUSH2 0x2CC7 JUMP JUMPDEST SWAP3 SWAP2 POP POP JUMP JUMPDEST PUSH1 0x0 PUSH2 0x2CFC DUP3 PUSH2 0x2498 JUMP JUMPDEST SWAP2 POP PUSH2 0x2D07 DUP4 PUSH2 0x2498 JUMP JUMPDEST SWAP3 POP DUP3 DUP3 MUL PUSH2 0x2D15 DUP2 PUSH2 0x2498 JUMP JUMPDEST SWAP2 POP DUP3 DUP3 DIV DUP5 EQ DUP4 ISZERO OR PUSH2 0x2D2C JUMPI PUSH2 0x2D2B PUSH2 0x29D4 JUMP JUMPDEST JUMPDEST POP SWAP3 SWAP2 POP POP JUMP JUMPDEST PUSH1 0x0 PUSH2 0x2D3E DUP3 PUSH2 0x2498 JUMP JUMPDEST SWAP2 POP PUSH2 0x2D49 DUP4 PUSH2 0x2498 JUMP JUMPDEST SWAP3 POP DUP3 DUP3 ADD SWAP1 POP DUP1 DUP3 GT ISZERO PUSH2 0x2D61 JUMPI PUSH2 0x2D60 PUSH2 0x29D4 JUMP JUMPDEST JUMPDEST SWAP3 SWAP2 POP POP JUMP JUMPDEST PUSH32 0x4E487B7100000000000000000000000000000000000000000000000000000000 PUSH1 0x0 MSTORE PUSH1 0x12 PUSH1 0x4 MSTORE PUSH1 0x24 PUSH1 0x0 REVERT JUMPDEST PUSH1 0x0 PUSH2 0x2DA1 DUP3 PUSH2 0x2498 JUMP JUMPDEST SWAP2 POP PUSH2 0x2DAC DUP4 PUSH2 0x2498 JUMP JUMPDEST SWAP3 POP DUP3 PUSH2 0x2DBC JUMPI PUSH2 0x2DBB PUSH2 0x2D67 JUMP JUMPDEST JUMPDEST DUP3 DUP3 DIV SWAP1 POP SWAP3 SWAP2 POP POP JUMP JUMPDEST PUSH32 0x4D6F726967696E4170703A20696E76616C69642076616C756521000000000000 PUSH1 0x0 DUP3 ADD MSTORE POP JUMP JUMPDEST PUSH1 0x0 PUSH2 0x2DFD PUSH1 0x1A DUP4 PUSH2 0x21F4 JUMP JUMPDEST SWAP2 POP PUSH2 0x2E08 DUP3 PUSH2 0x2DC7 JUMP JUMPDEST PUSH1 0x20 DUP3 ADD SWAP1 POP SWAP2 SWAP1 POP JUMP JUMPDEST PUSH1 0x0 PUSH1 0x20 DUP3 ADD SWAP1 POP DUP2 DUP2 SUB PUSH1 0x0 DUP4 ADD MSTORE PUSH2 0x2E2C DUP2 PUSH2 0x2DF0 JUMP JUMPDEST SWAP1 POP SWAP2 SWAP1 POP JUMP JUMPDEST PUSH1 0x0 PUSH1 0x20 DUP3 ADD SWAP1 POP PUSH2 0x2E48 PUSH1 0x0 DUP4 ADD DUP5 PUSH2 0x277D JUMP JUMPDEST SWAP3 SWAP2 POP POP JUMP JUMPDEST PUSH1 0x0 PUSH1 0x60 DUP3 ADD SWAP1 POP PUSH2 0x2E63 PUSH1 0x0 DUP4 ADD DUP7 PUSH2 0x277D JUMP JUMPDEST PUSH2 0x2E70 PUSH1 0x20 DUP4 ADD DUP6 PUSH2 0x277D JUMP JUMPDEST PUSH2 0x2E7D PUSH1 0x40 DUP4 ADD DUP5 PUSH2 0x24A2 JUMP JUMPDEST SWAP5 SWAP4 POP POP POP POP JUMP JUMPDEST PUSH1 0x0 DUP2 MLOAD SWAP1 POP SWAP2 SWAP1 POP JUMP JUMPDEST PUSH1 0x0 DUP2 SWAP1 POP SWAP3 SWAP2 POP POP JUMP JUMPDEST PUSH1 0x0 JUMPDEST DUP4 DUP2 LT ISZERO PUSH2 0x2EB9 JUMPI DUP1 DUP3 ADD MLOAD DUP2 DUP5 ADD MSTORE PUSH1 0x20 DUP2 ADD SWAP1 POP PUSH2 0x2E9E JUMP JUMPDEST PUSH1 0x0 DUP5 DUP5 ADD MSTORE POP POP POP POP JUMP JUMPDEST PUSH1 0x0 PUSH2 0x2ED0 DUP3 PUSH2 0x2E85 JUMP JUMPDEST PUSH2 0x2EDA DUP2 DUP6 PUSH2 0x2E90 JUMP JUMPDEST SWAP4 POP PUSH2 0x2EEA DUP2 DUP6 PUSH1 0x20 DUP7 ADD PUSH2 0x2E9B JUMP JUMPDEST DUP1 DUP5 ADD SWAP2 POP POP SWAP3 SWAP2 POP POP JUMP JUMPDEST PUSH1 0x0 PUSH2 0x2F02 DUP3 DUP5 PUSH2 0x2EC5 JUMP JUMPDEST SWAP2 POP DUP2 SWAP1 POP SWAP3 SWAP2 POP POP JUMP JUMPDEST PUSH2 0x2F16 DUP2 PUSH2 0x230A JUMP JUMPDEST DUP2 EQ PUSH2 0x2F21 JUMPI PUSH1 0x0 DUP1 REVERT JUMPDEST POP JUMP JUMPDEST PUSH1 0x0 DUP2 MLOAD SWAP1 POP PUSH2 0x2F33 DUP2 PUSH2 0x2F0D JUMP JUMPDEST SWAP3 SWAP2 POP POP JUMP JUMPDEST PUSH1 0x0 PUSH1 0x20 DUP3 DUP5 SUB SLT ISZERO PUSH2 0x2F4F JUMPI PUSH2 0x2F4E PUSH2 0x227B JUMP JUMPDEST JUMPDEST PUSH1 0x0 PUSH2 0x2F5D DUP5 DUP3 DUP6 ADD PUSH2 0x2F24 JUMP JUMPDEST SWAP2 POP POP SWAP3 SWAP2 POP POP JUMP JUMPDEST PUSH32 0x5472616E7366657248656C7065723A3A7472616E7366657246726F6D3A207472 PUSH1 0x0 DUP3 ADD MSTORE PUSH32 0x616E7366657246726F6D206661696C6564000000000000000000000000000000 PUSH1 0x20 DUP3 ADD MSTORE POP JUMP JUMPDEST PUSH1 0x0 PUSH2 0x2FC2 PUSH1 0x31 DUP4 PUSH2 0x21F4 JUMP JUMPDEST SWAP2 POP PUSH2 0x2FCD DUP3 PUSH2 0x2F66 JUMP JUMPDEST PUSH1 0x40 DUP3 ADD SWAP1 POP SWAP2 SWAP1 POP JUMP JUMPDEST PUSH1 0x0 PUSH1 0x20 DUP3 ADD SWAP1 POP DUP2 DUP2 SUB PUSH1 0x0 DUP4 ADD MSTORE PUSH2 0x2FF1 DUP2 PUSH2 0x2FB5 JUMP JUMPDEST SWAP1 POP SWAP2 SWAP1 POP JUMP JUMPDEST PUSH1 0x0 PUSH1 0x40 DUP3 ADD SWAP1 POP PUSH2 0x300D PUSH1 0x0 DUP4 ADD DUP6 PUSH2 0x277D JUMP JUMPDEST PUSH2 0x301A PUSH1 0x20 DUP4 ADD DUP5 PUSH2 0x24A2 JUMP JUMPDEST SWAP4 SWAP3 POP POP POP JUMP JUMPDEST PUSH32 0x5472616E7366657248656C7065723A3A736166655472616E736665723A207472 PUSH1 0x0 DUP3 ADD MSTORE PUSH32 0x616E73666572206661696C656400000000000000000000000000000000000000 PUSH1 0x20 DUP3 ADD MSTORE POP JUMP JUMPDEST PUSH1 0x0 PUSH2 0x307D PUSH1 0x2D DUP4 PUSH2 0x21F4 JUMP JUMPDEST SWAP2 POP PUSH2 0x3088 DUP3 PUSH2 0x3021 JUMP JUMPDEST PUSH1 0x40 DUP3 ADD SWAP1 POP SWAP2 SWAP1 POP JUMP JUMPDEST PUSH1 0x0 PUSH1 0x20 DUP3 ADD SWAP1 POP DUP2 DUP2 SUB PUSH1 0x0 DUP4 ADD MSTORE PUSH2 0x30AC DUP2 PUSH2 0x3070 JUMP JUMPDEST SWAP1 POP SWAP2 SWAP1 POP JUMP JUMPDEST PUSH32 0x5472616E7366657248656C7065723A3A736166655472616E736665724554483A PUSH1 0x0 DUP3 ADD MSTORE PUSH32 0x20455448207472616E73666572206661696C6564000000000000000000000000 PUSH1 0x20 DUP3 ADD MSTORE POP JUMP JUMPDEST PUSH1 0x0 PUSH2 0x310F PUSH1 0x34 DUP4 PUSH2 0x21F4 JUMP JUMPDEST SWAP2 POP PUSH2 0x311A DUP3 PUSH2 0x30B3 JUMP JUMPDEST PUSH1 0x40 DUP3 ADD SWAP1 POP SWAP2 SWAP1 POP JUMP JUMPDEST PUSH1 0x0 PUSH1 0x20 DUP3 ADD SWAP1 POP DUP2 DUP2 SUB PUSH1 0x0 DUP4 ADD MSTORE PUSH2 0x313E DUP2 PUSH2 0x3102 JUMP JUMPDEST SWAP1 POP SWAP2 SWAP1 POP JUMP JUMPDEST PUSH1 0x0 PUSH1 0x40 DUP3 ADD SWAP1 POP PUSH2 0x315A PUSH1 0x0 DUP4 ADD DUP6 PUSH2 0x277D JUMP JUMPDEST PUSH2 0x3167 PUSH1 0x20 DUP4 ADD DUP5 PUSH2 0x242E JUMP JUMPDEST SWAP4 SWAP3 POP POP POP JUMP INVALID LOG2 PUSH5 0x6970667358 0x22 SLT KECCAK256 0xAA DUP7 DUP2 0xCB ADDRESS MSIZE 0xDE 0xA8 BASEFEE 0xB1 0xB8 0xC3 DUP4 DUP10 SWAP8 LOG4 0xEE 0xF7 SHL 0xEA PUSH31 0x1F890D872EDEE8A23F550E64736F6C63430008140033000000000000000000 "},"methodIdentifiers":{"DEFAULT_ADMIN_ROLE()":"a217fddf","PAUSER_ROLE()":"e63ab1e9","addAdmin(address)":"70480275","addPauser(address)":"82dc1ec4","getRoleAdmin(bytes32)":"248a9ca3","grantRole(bytes32,address)":"2f2ff15d","hasRole(bytes32,address)":"91d14854","initialize(address)":"c4d66de8","isAdmin(address)":"24d7806c","isPauser(address)":"46fbf68e","paginationSize()":"3d538ecf","pause()":"8456cb59","paused()":"5c975abb","release(address,bytes32)":"d7c2eec7","releaseInfos(address,bytes32,uint256)":"82a969e2","removeAdmin(address)":"1785f53c","removePauser(address)":"6b2c0f55","renounceRole(bytes32,address)":"36568abe","revokeRole(bytes32,address)":"d547741f","setPaginationSize(uint256)":"f2407ca4","startVesting(bytes32,address,address,uint256,(uint256,uint256)[])":"7623f00e","supportsInterface(bytes4)":"01ffc9a7","unpause()":"3f4ba83a","vestingSchedules(address,bytes32)":"7b00ffad"}},"storageLayout":{"storage":[{"astId":2153,"contract":"contracts/vesting/Vesting.sol:Vesting","label":"paginationSize","offset":0,"slot":"0","type":"t_uint256"},{"astId":4602,"contract":"contracts/vesting/Vesting.sol:Vesting","label":"vestingSchedules","offset":0,"slot":"1","type":"t_mapping(t_address,t_mapping(t_bytes32,t_struct(VestingSchedule)4964_storage))"},{"astId":4611,"contract":"contracts/vesting/Vesting.sol:Vesting","label":"releaseInfos","offset":0,"slot":"2","type":"t_mapping(t_address,t_mapping(t_bytes32,t_array(t_struct(Release)2448_storage)dyn_storage))"}],"types":{"t_address":{"encoding":"inplace","label":"address","numberOfBytes":"20"},"t_array(t_struct(Release)2448_storage)dyn_storage":{"base":"t_struct(Release)2448_storage","encoding":"dynamic_array","label":"struct IAtomicSwapBase.Release[]","numberOfBytes":"32"},"t_bytes32":{"encoding":"inplace","label":"bytes32","numberOfBytes":"32"},"t_mapping(t_address,t_mapping(t_bytes32,t_array(t_struct(Release)2448_storage)dyn_storage))":{"encoding":"mapping","key":"t_address","label":"mapping(address => mapping(bytes32 => struct IAtomicSwapBase.Release[]))","numberOfBytes":"32","value":"t_mapping(t_bytes32,t_array(t_struct(Release)2448_storage)dyn_storage)"},"t_mapping(t_address,t_mapping(t_bytes32,t_struct(VestingSchedule)4964_storage))":{"encoding":"mapping","key":"t_address","label":"mapping(address => mapping(bytes32 => struct IVesting.VestingSchedule))","numberOfBytes":"32","value":"t_mapping(t_bytes32,t_struct(VestingSchedule)4964_storage)"},"t_mapping(t_bytes32,t_array(t_struct(Release)2448_storage)dyn_storage)":{"encoding":"mapping","key":"t_bytes32","label":"mapping(bytes32 => struct IAtomicSwapBase.Release[])","numberOfBytes":"32","value":"t_array(t_struct(Release)2448_storage)dyn_storage"},"t_mapping(t_bytes32,t_struct(VestingSchedule)4964_storage)":{"encoding":"mapping","key":"t_bytes32","label":"mapping(bytes32 => struct IVesting.VestingSchedule)","numberOfBytes":"32","value":"t_struct(VestingSchedule)4964_storage"},"t_struct(Release)2448_storage":{"encoding":"inplace","label":"struct IAtomicSwapBase.Release","members":[{"astId":2445,"contract":"contracts/vesting/Vesting.sol:Vesting","label":"durationInHours","offset":0,"slot":"0","type":"t_uint256"},{"astId":2447,"contract":"contracts/vesting/Vesting.sol:Vesting","label":"percentage","offset":0,"slot":"1","type":"t_uint256"}],"numberOfBytes":"64"},"t_struct(VestingSchedule)4964_storage":{"encoding":"inplace","label":"struct IVesting.VestingSchedule","members":[{"astId":4953,"contract":"contracts/vesting/Vesting.sol:Vesting","label":"from","offset":0,"slot":"0","type":"t_address"},{"astId":4955,"contract":"contracts/vesting/Vesting.sol:Vesting","label":"start","offset":0,"slot":"1","type":"t_uint256"},{"astId":4957,"contract":"contracts/vesting/Vesting.sol:Vesting","label":"token","offset":0,"slot":"2","type":"t_address"},{"astId":4959,"contract":"contracts/vesting/Vesting.sol:Vesting","label":"totalAmount","offset":0,"slot":"3","type":"t_uint256"},{"astId":4961,"contract":"contracts/vesting/Vesting.sol:Vesting","label":"amountReleased","offset":0,"slot":"4","type":"t_uint256"},{"astId":4963,"contract":"contracts/vesting/Vesting.sol:Vesting","label":"lastReleasedStep","offset":0,"slot":"5","type":"t_uint256"}],"numberOfBytes":"192"},"t_uint256":{"encoding":"inplace","label":"uint256","numberOfBytes":"32"}}}}}}