{
  "_format": "hh-sol-artifact-1",
  "contractName": "AtomicSwapStateLogic",
  "sourceName": "contracts/abstracts/libs/logic/AtomicSwapStateLogic.sol",
  "abi": [
    {
      "inputs": [],
      "name": "OrderAlreadyExists",
      "type": "error"
    },
    {
      "inputs": [
        {
          "internalType": "bytes32",
          "name": "uuid",
          "type": "bytes32"
        },
        {
          "internalType": "address",
          "name": "contractAddress",
          "type": "address"
        }
      ],
      "name": "generateNewAtomicSwapID",
      "outputs": [
        {
          "internalType": "bytes32",
          "name": "id",
          "type": "bytes32"
        }
      ],
      "stateMutability": "pure",
      "type": "function"
    }
  ],
  "bytecode": "0x610dba610053600b82828239805160001a607314610046577f4e487b7100000000000000000000000000000000000000000000000000000000600052600060045260246000fd5b30600052607381538281f3fe73000000000000000000000000000000000000000030146080604052600436106100565760003560e01c80632296d7e01461005b578063a2040cee14610084578063cc76f931146100ad578063d81ab44f146100d6575b600080fd5b81801561006757600080fd5b50610082600480360381019061007d9190610b0c565b610106565b005b81801561009057600080fd5b506100ab60048036038101906100a69190610b76565b6104af565b005b8180156100b957600080fd5b506100d460048036038101906100cf9190610c64565b610602565b005b6100f060048036038101906100eb9190610ca4565b6107ba565b6040516100fd9190610cf3565b60405180910390f35b61011a671237346d3a52995960c01b610815565b61012e671fb77776c6e4e38f60c01b610815565b61014267746f495bcad3593060c01b610815565b6000801b84600084815260200190815260200160002060000154146101bb57610175675134311f867bd32f60c01b610815565b61018967edfae858c89d814c60c01b610815565b6040517f966753c500000000000000000000000000000000000000000000000000000000815260040160405180910390fd5b6101cf67e862a743f01c511860c01b610815565b6101e367cdc4f594aeebecdc60c01b610815565b6101f767993d2ca2eba4a66260c01b610815565b60006040518061018001604052808481526020016000600381111561021f5761021e610d0e565b5b81526020018373ffffffffffffffffffffffffffffffffffffffff16815260200185602001518152602001856080015173ffffffffffffffffffffffffffffffffffffffff168152602001856040015181526020018560a00151815260200142815260200160008152602001600081526020018560c0015181526020018560e00151151581525090506102bc671e2384300c7c79d960c01b610815565b808560008581526020019081526020016000206000820151816000015560208201518160010160006101000a81548160ff0219169083600381111561030457610303610d0e565b5b021790555060408201518160010160016101000a81548173ffffffffffffffffffffffffffffffffffffffff021916908373ffffffffffffffffffffffffffffffffffffffff16021790555060608201518160020160008201518160000160006101000a81548173ffffffffffffffffffffffffffffffffffffffff021916908373ffffffffffffffffffffffffffffffffffffffff16021790555060208201518160010155505060808201518160040160006101000a81548173ffffffffffffffffffffffffffffffffffffffff021916908373ffffffffffffffffffffffffffffffffffffffff16021790555060a08201518160050160008201518160000160006101000a81548173ffffffffffffffffffffffffffffffffffffffff021916908373ffffffffffffffffffffffffffffffffffffffff16021790555060208201518160010155505060c0820151816007015560e08201518160080155610100820151816009015561012082015181600a015561014082015181600b015561016082015181600c0160006101000a81548160ff0219169083151502179055509050505050505050565b6104c367eb45f052ee9c49a960c01b610815565b6104d767102ff1243dddedd260c01b610815565b8160008281526020019081526020016000206000808201600090556001820160006101000a81549060ff02191690556001820160016101000a81549073ffffffffffffffffffffffffffffffffffffffff021916905560028201600080820160006101000a81549073ffffffffffffffffffffffffffffffffffffffff0219169055600182016000905550506004820160006101000a81549073ffffffffffffffffffffffffffffffffffffffff021916905560058201600080820160006101000a81549073ffffffffffffffffffffffffffffffffffffffff021916905560018201600090555050600782016000905560088201600090556009820160009055600a820160009055600b820160009055600c820160006101000a81549060ff021916905550505050565b61061667f901411e9438d00f60c01b610815565b61062a67b5e79668e3478ceb60c01b610815565b61063e67406986e47876c04e60c01b610815565b60006040518060c00160405280836000015181526020018360400151815260200160028081111561067257610671610d0e565b5b8152602001836020015173ffffffffffffffffffffffffffffffffffffffff168152602001428152602001836060015181525090506106bb67f11c756ed436754160c01b610815565b80836000846040015181526020019081526020016000206000846020015173ffffffffffffffffffffffffffffffffffffffff1673ffffffffffffffffffffffffffffffffffffffff168152602001908152602001600020600082015181600001556020820151816001015560408201518160020160006101000a81548160ff0219169083600281111561075257610751610d0e565b5b021790555060608201518160020160016101000a81548173ffffffffffffffffffffffffffffffffffffffff021916908373ffffffffffffffffffffffffffffffffffffffff1602179055506080820151816003015560a08201518160040155905050505050565b60006107d067a7ab4b72059f860960c01b610815565b6107e467c240af4953ffc40260c01b610815565b81836040516020016107f7929190610d5b565b60405160208183030381529060405280519060200120905092915050565b50565b6000604051905090565b600080fd5b6000819050919050565b61083a81610827565b811461084557600080fd5b50565b60008135905061085781610831565b92915050565b600080fd5b6000601f19601f8301169050919050565b7f4e487b7100000000000000000000000000000000000000000000000000000000600052604160045260246000fd5b6108ab82610862565b810181811067ffffffffffffffff821117156108ca576108c9610873565b5b80604052505050565b60006108dd610818565b90506108e982826108a2565b919050565b6000819050919050565b610901816108ee565b811461090c57600080fd5b50565b60008135905061091e816108f8565b92915050565b600073ffffffffffffffffffffffffffffffffffffffff82169050919050565b600061094f82610924565b9050919050565b61095f81610944565b811461096a57600080fd5b50565b60008135905061097c81610956565b92915050565b6000819050919050565b61099581610982565b81146109a057600080fd5b50565b6000813590506109b28161098c565b92915050565b6000604082840312156109ce576109cd61085d565b5b6109d860406108d3565b905060006109e88482850161096d565b60008301525060206109fc848285016109a3565b60208301525092915050565b60008115159050919050565b610a1d81610a08565b8114610a2857600080fd5b50565b600081359050610a3a81610a14565b92915050565b60006101408284031215610a5757610a5661085d565b5b610a626101006108d3565b90506000610a728482850161090f565b6000830152506020610a86848285016109b8565b6020830152506060610a9a848285016109b8565b60408301525060a0610aae8482850161096d565b60608301525060c0610ac28482850161096d565b60808301525060e0610ad6848285016109a3565b60a083015250610100610aeb848285016109a3565b60c083015250610120610b0084828501610a2b565b60e08301525092915050565b6000806000806101a08587031215610b2757610b26610822565b5b6000610b3587828801610848565b9450506020610b4687828801610a40565b935050610160610b588782880161090f565b925050610180610b6a8782880161096d565b91505092959194509250565b60008060408385031215610b8d57610b8c610822565b5b6000610b9b85828601610848565b9250506020610bac8582860161090f565b9150509250929050565b6000819050919050565b610bc981610bb6565b8114610bd457600080fd5b50565b600081359050610be681610bc0565b92915050565b600060808284031215610c0257610c0161085d565b5b610c0c60806108d3565b90506000610c1c848285016109a3565b6000830152506020610c308482850161096d565b6020830152506040610c448482850161090f565b6040830152506060610c58848285016109a3565b60608301525092915050565b60008060a08385031215610c7b57610c7a610822565b5b6000610c8985828601610bd7565b9250506020610c9a85828601610bec565b9150509250929050565b60008060408385031215610cbb57610cba610822565b5b6000610cc98582860161090f565b9250506020610cda8582860161096d565b9150509250929050565b610ced816108ee565b82525050565b6000602082019050610d086000830184610ce4565b92915050565b7f4e487b7100000000000000000000000000000000000000000000000000000000600052602160045260246000fd5b610d4681610944565b82525050565b610d55816108ee565b82525050565b6000604082019050610d706000830185610d3d565b610d7d6020830184610d4c565b939250505056fea264697066735822122075122cb075b0ca2e6aca65d791bba9ac7c1ddc19120fb5a3d32dfa6c79e7167864736f6c63430008140033",
  "linkReferences": {},
  "deployedLinkReferences": {}
}