{
  "_format": "hh-sol-artifact-1",
  "contractName": "AtomicSwapStateLogic",
  "sourceName": "contracts/inchain_atomicswap/logic/AtomicSwapStateLogic.sol",
  "abi": [
    {
      "inputs": [
        {
          "internalType": "uint256",
          "name": "provided",
          "type": "uint256"
        },
        {
          "internalType": "uint256",
          "name": "maximum",
          "type": "uint256"
        }
      ],
      "name": "InvalidExpirationTime",
      "type": "error"
    },
    {
      "inputs": [],
      "name": "OrderAlreadyExists",
      "type": "error"
    },
    {
      "inputs": [
        {
          "internalType": "bytes32",
          "name": "uuid",
          "type": "bytes32"
        },
        {
          "internalType": "address",
          "name": "contractAddress",
          "type": "address"
        }
      ],
      "name": "generateNewAtomicSwapID",
      "outputs": [
        {
          "internalType": "bytes32",
          "name": "id",
          "type": "bytes32"
        }
      ],
      "stateMutability": "pure",
      "type": "function"
    }
  ],
  "bytecode": "0x611fcd610053600b82828239805160001a607314610046577f4e487b7100000000000000000000000000000000000000000000000000000000600052600060045260246000fd5b30600052607381538281f3fe73000000000000000000000000000000000000000030146080604052600436106100405760003560e01c806319887ca314610045578063d81ab44f14610084575b600080fd5b81801561005157600080fd5b5061006c600480360381019061006791906112bb565b6100b4565b60405161007b93929190611397565b60405180910390f35b61009e600480360381019061009991906113fa565b61027e565b6040516100ab919061143a565b60405180910390f35b60008060006100c789600001353061027e565b9250600073ffffffffffffffffffffffffffffffffffffffff168a600085815260200190815260200160002060010160019054906101000a900473ffffffffffffffffffffffffffffffffffffffff1673ffffffffffffffffffffffffffffffffffffffff1614610164576040517f966753c500000000000000000000000000000000000000000000000000000000815260040160405180910390fd5b4289610140016080013510156101bb57886101400160800135426040517ff00605cf0000000000000000000000000000000000000000000000000000000081526004016101b2929190611464565b60405180910390fd5b42896101e00160800135101561021257886101e00160800135426040517ff00605cf000000000000000000000000000000000000000000000000000000008152600401610209929190611464565b60405180910390fd5b6102218387878c8c8c8a6102b1565b61023c8a8a80360381019061023691906116d2565b85610585565b82896101400160600160208101906102549190611700565b8a6101e001606001602081019061026b9190611700565b9250925092509750975097945050505050565b6000818360405160200161029392919061174b565b60405160208183030381529060405280519060200120905092915050565b60006102bc85610836565b90508673ffffffffffffffffffffffffffffffffffffffff1663a1b996c18660200160000160208101906102f09190611700565b308860200160200135858a610140016040518663ffffffff1660e01b815260040161031f95949392919061189c565b600060405180830381600087803b15801561033957600080fd5b505af115801561034d573d6000803e3d6000fd5b505050508673ffffffffffffffffffffffffffffffffffffffff1663a1b996c18660600160000160208101906103839190611700565b308860600160200135858a6101e0016040518663ffffffff1660e01b81526004016103b295949392919061189c565b600060405180830381600087803b1580156103cc57600080fd5b505af11580156103e0573d6000803e3d6000fd5b5050505073__$72db6579a70a8599b5113e23abb066a6fe$__637f2ca76f888760600160000160208101906104159190611700565b886101e001606001602081019061042c9190611700565b896101400160600160208101906104439190611700565b8a60600160200135886000015189604001518a606001518e61010001602081019061046e91906118f0565b6040518a63ffffffff1660e01b81526004016104929998979695949392919061193b565b60006040518083038186803b1580156104aa57600080fd5b505af41580156104be573d6000803e3d6000fd5b5050505061057b88866020018036038101906104da91906119c8565b8686808060200260200160405190810160405280939291908181526020016000905b8282101561052c5784848390506040020180360381019061051d9190611a45565b815260200190600101906104fc565b50505050508a8a8a61014001606001602081019061054a9190611700565b8b6101e00160600160208101906105619190611700565b898d61012001602081019061057691906118f0565b6108b7565b5050505050505050565b6000604051806101800160405280838152602001600060038111156105ad576105ac611a72565b5b81526020018461010001516060015173ffffffffffffffffffffffffffffffffffffffff16815260200184602001518152602001846060015173ffffffffffffffffffffffffffffffffffffffff168152602001846040015181526020018460800151815260200142815260200160008152602001600081526020018461010001516080015181526020018460a0015115158152509050808460008481526020019081526020016000206000820151816000015560208201518160010160006101000a81548160ff0219169083600381111561068c5761068b611a72565b5b021790555060408201518160010160016101000a81548173ffffffffffffffffffffffffffffffffffffffff021916908373ffffffffffffffffffffffffffffffffffffffff16021790555060608201518160020160008201518160000160006101000a81548173ffffffffffffffffffffffffffffffffffffffff021916908373ffffffffffffffffffffffffffffffffffffffff16021790555060208201518160010155505060808201518160040160006101000a81548173ffffffffffffffffffffffffffffffffffffffff021916908373ffffffffffffffffffffffffffffffffffffffff16021790555060a08201518160050160008201518160000160006101000a81548173ffffffffffffffffffffffffffffffffffffffff021916908373ffffffffffffffffffffffffffffffffffffffff16021790555060208201518160010155505060c0820151816007015560e08201518160080155610100820151816009015561012082015181600a015561014082015181600b015561016082015181600c0160006101000a81548160ff02191690831515021790555090505050505050565b6000816000013582602001836060018460a00160208101906108589190611700565b8560c001358660e001602081019061087091906118f0565b8761010001602081019061088491906118f0565b60405160200161089a9796959493929190611aef565b604051602081830303815290604052805190602001209050919050565b60008751036108d3576108ce8689868686866108f0565b6108e5565b6108e489878a878787878c8f61091d565b5b505050505050505050565b61091586866000015186868960200151876020015188604001518960600151896109db565b505050505050565b60008061092e896020015187610b24565b915091506109478a8a600001518a308d60200151610b5d565b8973ffffffffffffffffffffffffffffffffffffffff1663d9caed128a600001518860600151856040518463ffffffff1660e01b815260040161098c93929190611b60565b600060405180830381600087803b1580156109a657600080fd5b505af11580156109ba573d6000803e3d6000fd5b505050506109ce8b8b8b8a858a8a8a610cb8565b5050505050505050505050565b60008385876109ea9190611bc6565b6109f49190611c37565b905060008187610a049190611c68565b90508215610a8d57610a198b8b8b3085610b5d565b8a73ffffffffffffffffffffffffffffffffffffffff1663d9caed128b8a846040518463ffffffff1660e01b8152600401610a5693929190611b60565b600060405180830381600087803b158015610a7057600080fd5b505af1158015610a84573d6000803e3d6000fd5b50505050610a9b565b610a9a8b8b8b8b85610b5d565b5b610aa88b8b8b3086610b5d565b8a73ffffffffffffffffffffffffffffffffffffffff1663d9caed128b86856040518463ffffffff1660e01b8152600401610ae593929190611b60565b600060405180830381600087803b158015610aff57600080fd5b505af1158015610b13573d6000803e3d6000fd5b505050505050505050505050505050565b6000808260400151836020015185610b3c9190611bc6565b610b469190611c37565b91508184610b549190611c68565b90509250929050565b6000808673ffffffffffffffffffffffffffffffffffffffff166315dacbea60e01b87878787604051602401610b969493929190611c9c565b604051602081830303815290604052907bffffffffffffffffffffffffffffffffffffffffffffffffffffffff19166020820180517bffffffffffffffffffffffffffffffffffffffffffffffffffffffff8381831617835250505050604051610c009190611d52565b6000604051808303816000865af19150503d8060008114610c3d576040519150601f19603f3d011682016040523d82523d6000602084013e610c42565b606091505b5091509150818015610c705750600081511480610c6f575080806020019051810190610c6e9190611d7e565b5b5b610caf576040517f08c379a0000000000000000000000000000000000000000000000000000000008152600401610ca690611e08565b60405180910390fd5b50505050505050565b82610dc0578673ffffffffffffffffffffffffffffffffffffffff1663e1f21c67876000015184876040518463ffffffff1660e01b8152600401610cfe93929190611b60565b6020604051808303816000875af1158015610d1d573d6000803e3d6000fd5b505050506040513d601f19601f82011682018060405250810190610d419190611d7e565b508173ffffffffffffffffffffffffffffffffffffffff16632622981d898789600001518886896040518763ffffffff1660e01b8152600401610d8996959493929190611f06565b600060405180830381600087803b158015610da357600080fd5b505af1158015610db7573d6000803e3d6000fd5b50505050610dd0565b610dcf88888888888787610dda565b5b5050505050505050565b8573ffffffffffffffffffffffffffffffffffffffff1663d9caed12866000015130866040518463ffffffff1660e01b8152600401610e1b93929190611b60565b600060405180830381600087803b158015610e3557600080fd5b505af1158015610e49573d6000803e3d6000fd5b50505050600073ffffffffffffffffffffffffffffffffffffffff16856000015173ffffffffffffffffffffffffffffffffffffffff1603610f05578173ffffffffffffffffffffffffffffffffffffffff16632622981d8489878960000151888760016040518863ffffffff1660e01b8152600401610ece96959493929190611f06565b6000604051808303818588803b158015610ee757600080fd5b505af1158015610efb573d6000803e3d6000fd5b5050505050611003565b846000015173ffffffffffffffffffffffffffffffffffffffff1663095ea7b383856040518363ffffffff1660e01b8152600401610f44929190611f6e565b6020604051808303816000875af1158015610f63573d6000803e3d6000fd5b505050506040513d601f19601f82011682018060405250810190610f879190611d7e565b508173ffffffffffffffffffffffffffffffffffffffff16632622981d88868860000151878660016040518763ffffffff1660e01b8152600401610fd096959493929190611f06565b600060405180830381600087803b158015610fea57600080fd5b505af1158015610ffe573d6000803e3d6000fd5b505050505b50505050505050565b6000604051905090565b600080fd5b600080fd5b6000819050919050565b61103381611020565b811461103e57600080fd5b50565b6000813590506110508161102a565b92915050565b600080fd5b6000610280828403121561107257611071611056565b5b81905092915050565b600080fd5b600080fd5b600080fd5b60008083601f8401126110a05761109f61107b565b5b8235905067ffffffffffffffff8111156110bd576110bc611080565b5b6020830191508360408202830111156110d9576110d8611085565b5b9250929050565b600073ffffffffffffffffffffffffffffffffffffffff82169050919050565b600061110b826110e0565b9050919050565b61111b81611100565b811461112657600080fd5b50565b60008135905061113881611112565b92915050565b600061114982611100565b9050919050565b6111598161113e565b811461116457600080fd5b50565b60008135905061117681611150565b92915050565b600080fd5b6000601f19601f8301169050919050565b7f4e487b7100000000000000000000000000000000000000000000000000000000600052604160045260246000fd5b6111ca82611181565b810181811067ffffffffffffffff821117156111e9576111e8611192565b5b80604052505050565b60006111fc61100c565b905061120882826111c1565b919050565b6000819050919050565b6112208161120d565b811461122b57600080fd5b50565b60008135905061123d81611217565b92915050565b6000608082840312156112595761125861117c565b5b61126360806111f2565b905060006112738482850161122e565b60008301525060206112878482850161122e565b602083015250604061129b8482850161122e565b60408301525060606112af84828501611129565b60608301525092915050565b6000806000806000806000610380888a0312156112db576112da611016565b5b60006112e98a828b01611041565b97505060206112fa8a828b0161105b565b9650506102a088013567ffffffffffffffff81111561131c5761131b61101b565b5b6113288a828b0161108a565b95509550506102c061133c8a828b01611129565b9350506102e061134e8a828b01611167565b9250506103006113608a828b01611243565b91505092959891949750929550565b6000819050919050565b6113828161136f565b82525050565b61139181611100565b82525050565b60006060820190506113ac6000830186611379565b6113b96020830185611388565b6113c66040830184611388565b949350505050565b6113d78161136f565b81146113e257600080fd5b50565b6000813590506113f4816113ce565b92915050565b6000806040838503121561141157611410611016565b5b600061141f858286016113e5565b925050602061143085828601611129565b9150509250929050565b600060208201905061144f6000830184611379565b92915050565b61145e8161120d565b82525050565b60006040820190506114796000830185611455565b6114866020830184611455565b9392505050565b6000604082840312156114a3576114a261117c565b5b6114ad60406111f2565b905060006114bd84828501611129565b60008301525060206114d18482850161122e565b60208301525092915050565b60008115159050919050565b6114f2816114dd565b81146114fd57600080fd5b50565b60008135905061150f816114e9565b92915050565b600060ff82169050919050565b61152b81611515565b811461153657600080fd5b50565b60008135905061154881611522565b92915050565b600060a082840312156115645761156361117c565b5b61156e60a06111f2565b9050600061157e84828501611539565b6000830152506020611592848285016113e5565b60208301525060406115a6848285016113e5565b60408301525060606115ba84828501611129565b60608301525060806115ce8482850161122e565b60808301525092915050565b600061028082840312156115f1576115f061117c565b5b6115fc6101406111f2565b9050600061160c848285016113e5565b60008301525060206116208482850161148d565b60208301525060606116348482850161148d565b60408301525060a061164884828501611129565b60608301525060c061165c8482850161122e565b60808301525060e061167084828501611500565b60a08301525061010061168584828501611500565b60c08301525061012061169a84828501611500565b60e0830152506101406116af8482850161154e565b610100830152506101e06116c58482850161154e565b6101208301525092915050565b600061028082840312156116e9576116e8611016565b5b60006116f7848285016115da565b91505092915050565b60006020828403121561171657611715611016565b5b600061172484828501611129565b91505092915050565b61173681611100565b82525050565b6117458161136f565b82525050565b6000604082019050611760600083018561172d565b61176d602083018461173c565b9392505050565b60006117836020840184611539565b905092915050565b61179481611515565b82525050565b60006117a960208401846113e5565b905092915050565b6117ba8161136f565b82525050565b60006117cf6020840184611129565b905092915050565b6117e081611100565b82525050565b60006117f5602084018461122e565b905092915050565b6118068161120d565b82525050565b60a0820161181d6000830183611774565b61182a600085018261178b565b50611838602083018361179a565b61184560208501826117b1565b50611853604083018361179a565b61186060408501826117b1565b5061186e60608301836117c0565b61187b60608501826117d7565b5061188960808301836117e6565b61189660808501826117fd565b50505050565b6000610120820190506118b2600083018861172d565b6118bf602083018761172d565b6118cc6040830186611455565b6118d9606083018561173c565b6118e6608083018461180c565b9695505050505050565b60006020828403121561190657611905611016565b5b600061191484828501611500565b91505092915050565b6119268161120d565b82525050565b611935816114dd565b82525050565b600061012082019050611951600083018c611388565b61195e602083018b611388565b61196b604083018a611388565b6119786060830189611388565b611985608083018861191d565b61199260a083018761191d565b61199f60c083018661191d565b6119ac60e0830185611388565b6119ba61010083018461192c565b9a9950505050505050505050565b6000604082840312156119de576119dd611016565b5b60006119ec8482850161148d565b91505092915050565b600060408284031215611a0b57611a0a61117c565b5b611a1560406111f2565b90506000611a258482850161122e565b6000830152506020611a398482850161122e565b60208301525092915050565b600060408284031215611a5b57611a5a611016565b5b6000611a69848285016119f5565b91505092915050565b7f4e487b7100000000000000000000000000000000000000000000000000000000600052602160045260246000fd5b60408201611ab260008301836117c0565b611abf60008501826117d7565b50611acd60208301836117e6565b611ada60208501826117fd565b50505050565b611ae9816114dd565b82525050565b600061012082019050611b05600083018a61173c565b611b126020830189611aa1565b611b1f6060830188611aa1565b611b2c60a083018761172d565b611b3960c0830186611455565b611b4660e0830185611ae0565b611b54610100830184611ae0565b98975050505050505050565b6000606082019050611b75600083018661172d565b611b82602083018561172d565b611b8f6040830184611455565b949350505050565b7f4e487b7100000000000000000000000000000000000000000000000000000000600052601160045260246000fd5b6000611bd18261120d565b9150611bdc8361120d565b9250828202611bea8161120d565b91508282048414831517611c0157611c00611b97565b5b5092915050565b7f4e487b7100000000000000000000000000000000000000000000000000000000600052601260045260246000fd5b6000611c428261120d565b9150611c4d8361120d565b925082611c5d57611c5c611c08565b5b828204905092915050565b6000611c738261120d565b9150611c7e8361120d565b9250828203905081811115611c9657611c95611b97565b5b92915050565b6000608082019050611cb1600083018761172d565b611cbe602083018661172d565b611ccb604083018561172d565b611cd86060830184611455565b95945050505050565b600081519050919050565b600081905092915050565b60005b83811015611d15578082015181840152602081019050611cfa565b60008484015250505050565b6000611d2c82611ce1565b611d368185611cec565b9350611d46818560208601611cf7565b80840191505092915050565b6000611d5e8284611d21565b915081905092915050565b600081519050611d78816114e9565b92915050565b600060208284031215611d9457611d93611016565b5b6000611da284828501611d69565b91505092915050565b600082825260208201905092915050565b7f5354460000000000000000000000000000000000000000000000000000000000600082015250565b6000611df2600383611dab565b9150611dfd82611dbc565b602082019050919050565b60006020820190508181036000830152611e2181611de5565b9050919050565b600081519050919050565b600082825260208201905092915050565b6000819050602082019050919050565b604082016000820151611e6a60008501826117fd565b506020820151611e7d60208501826117fd565b50505050565b6000611e8f8383611e54565b60408301905092915050565b6000602082019050919050565b6000611eb382611e28565b611ebd8185611e33565b9350611ec883611e44565b8060005b83811015611ef9578151611ee08882611e83565b9750611eeb83611e9b565b925050600181019050611ecc565b5085935050505092915050565b600060c082019050611f1b600083018961173c565b611f28602083018861172d565b611f35604083018761172d565b611f426060830186611455565b8181036080830152611f548185611ea8565b9050611f6360a0830184611ae0565b979650505050505050565b6000604082019050611f83600083018561172d565b611f906020830184611455565b939250505056fea2646970667358221220b322b4a50b3eedc094f0b64e7e1271e67793299b8d4af60d3327c5a0b983efba64736f6c63430008140033",
  "linkReferences": {
    "contracts/abstracts/libs/AnteHandler.sol": {
      "AnteHandler": [
        {
          "length": 20,
          "start": 1081
        }
      ]
    }
  },
  "deployedLinkReferences": {
    "contracts/abstracts/libs/AnteHandler.sol": {
      "AnteHandler": [
        {
          "length": 20,
          "start": 998
        }
      ]
    }
  }
}