{"abi":[{"type":"receive","stateMutability":"payable"},{"type":"function","name":"DEFAULT_ADMIN_ROLE","inputs":[],"outputs":[{"name":"","type":"bytes32","internalType":"bytes32"}],"stateMutability":"view"},{"type":"function","name":"PAUSER_ROLE","inputs":[],"outputs":[{"name":"","type":"bytes32","internalType":"bytes32"}],"stateMutability":"view"},{"type":"function","name":"addAdmin","inputs":[{"name":"_account","type":"address","internalType":"address"}],"outputs":[],"stateMutability":"nonpayable"},{"type":"function","name":"addPauser","inputs":[{"name":"_account","type":"address","internalType":"address"}],"outputs":[],"stateMutability":"nonpayable"},{"type":"function","name":"approve","inputs":[{"name":"to","type":"address","internalType":"address"},{"name":"tokenId","type":"uint256","internalType":"uint256"}],"outputs":[],"stateMutability":"nonpayable"},{"type":"function","name":"balanceOf","inputs":[{"name":"owner","type":"address","internalType":"address"}],"outputs":[{"name":"","type":"uint256","internalType":"uint256"}],"stateMutability":"view"},{"type":"function","name":"getApproved","inputs":[{"name":"tokenId","type":"uint256","internalType":"uint256"}],"outputs":[{"name":"","type":"address","internalType":"address"}],"stateMutability":"view"},{"type":"function","name":"getRoleAdmin","inputs":[{"name":"role","type":"bytes32","internalType":"bytes32"}],"outputs":[{"name":"","type":"bytes32","internalType":"bytes32"}],"stateMutability":"view"},{"type":"function","name":"grantRole","inputs":[{"name":"role","type":"bytes32","internalType":"bytes32"},{"name":"account","type":"address","internalType":"address"}],"outputs":[],"stateMutability":"nonpayable"},{"type":"function","name":"hasRole","inputs":[{"name":"role","type":"bytes32","internalType":"bytes32"},{"name":"account","type":"address","internalType":"address"}],"outputs":[{"name":"","type":"bool","internalType":"bool"}],"stateMutability":"view"},{"type":"function","name":"initialize","inputs":[{"name":"admin","type":"address","internalType":"address"},{"name":"name","type":"string","internalType":"string"},{"name":"symbol","type":"string","internalType":"string"},{"name":"baseURL","type":"string","internalType":"string"}],"outputs":[],"stateMutability":"nonpayable"},{"type":"function","name":"isAdmin","inputs":[{"name":"_account","type":"address","internalType":"address"}],"outputs":[{"name":"","type":"bool","internalType":"bool"}],"stateMutability":"view"},{"type":"function","name":"isApprovedForAll","inputs":[{"name":"owner","type":"address","internalType":"address"},{"name":"operator","type":"address","internalType":"address"}],"outputs":[{"name":"","type":"bool","internalType":"bool"}],"stateMutability":"view"},{"type":"function","name":"isPauser","inputs":[{"name":"_account","type":"address","internalType":"address"}],"outputs":[{"name":"","type":"bool","internalType":"bool"}],"stateMutability":"view"},{"type":"function","name":"name","inputs":[],"outputs":[{"name":"","type":"string","internalType":"string"}],"stateMutability":"view"},{"type":"function","name":"ownerOf","inputs":[{"name":"tokenId","type":"uint256","internalType":"uint256"}],"outputs":[{"name":"","type":"address","internalType":"address"}],"stateMutability":"view"},{"type":"function","name":"paginationSize","inputs":[],"outputs":[{"name":"","type":"uint256","internalType":"uint256"}],"stateMutability":"view"},{"type":"function","name":"pause","inputs":[],"outputs":[],"stateMutability":"nonpayable"},{"type":"function","name":"paused","inputs":[],"outputs":[{"name":"","type":"bool","internalType":"bool"}],"stateMutability":"view"},{"type":"function","name":"release","inputs":[{"name":"vestingId","type":"uint256","internalType":"uint256"}],"outputs":[],"stateMutability":"nonpayable"},{"type":"function","name":"releaseInfo","inputs":[{"name":"","type":"uint256","internalType":"uint256"},{"name":"","type":"uint256","internalType":"uint256"}],"outputs":[{"name":"durationInHours","type":"uint256","internalType":"uint256"},{"name":"percentage","type":"uint256","internalType":"uint256"}],"stateMutability":"view"},{"type":"function","name":"removeAdmin","inputs":[{"name":"_account","type":"address","internalType":"address"}],"outputs":[],"stateMutability":"nonpayable"},{"type":"function","name":"removePauser","inputs":[{"name":"_account","type":"address","internalType":"address"}],"outputs":[],"stateMutability":"nonpayable"},{"type":"function","name":"renounceRole","inputs":[{"name":"role","type":"bytes32","internalType":"bytes32"},{"name":"callerConfirmation","type":"address","internalType":"address"}],"outputs":[],"stateMutability":"nonpayable"},{"type":"function","name":"revokeRole","inputs":[{"name":"role","type":"bytes32","internalType":"bytes32"},{"name":"account","type":"address","internalType":"address"}],"outputs":[],"stateMutability":"nonpayable"},{"type":"function","name":"safeTransferFrom","inputs":[{"name":"from","type":"address","internalType":"address"},{"name":"to","type":"address","internalType":"address"},{"name":"tokenId","type":"uint256","internalType":"uint256"}],"outputs":[],"stateMutability":"nonpayable"},{"type":"function","name":"safeTransferFrom","inputs":[{"name":"from","type":"address","internalType":"address"},{"name":"to","type":"address","internalType":"address"},{"name":"tokenId","type":"uint256","internalType":"uint256"},{"name":"data","type":"bytes","internalType":"bytes"}],"outputs":[],"stateMutability":"nonpayable"},{"type":"function","name":"setApprovalForAll","inputs":[{"name":"operator","type":"address","internalType":"address"},{"name":"approved","type":"bool","internalType":"bool"}],"outputs":[],"stateMutability":"nonpayable"},{"type":"function","name":"setPaginationSize","inputs":[{"name":"_paginationSize","type":"uint256","internalType":"uint256"}],"outputs":[],"stateMutability":"nonpayable"},{"type":"function","name":"startVesting","inputs":[{"name":"orderId","type":"bytes32","internalType":"bytes32"},{"name":"buyer","type":"address","internalType":"address"},{"name":"token","type":"address","internalType":"address"},{"name":"totalAmount","type":"uint256","internalType":"uint256"},{"name":"releases","type":"tuple[]","internalType":"struct IAtomicSwapBase.Release[]","components":[{"name":"durationInHours","type":"uint256","internalType":"uint256"},{"name":"percentage","type":"uint256","internalType":"uint256"}]}],"outputs":[],"stateMutability":"payable"},{"type":"function","name":"supportsInterface","inputs":[{"name":"interfaceId","type":"bytes4","internalType":"bytes4"}],"outputs":[{"name":"","type":"bool","internalType":"bool"}],"stateMutability":"view"},{"type":"function","name":"symbol","inputs":[],"outputs":[{"name":"","type":"string","internalType":"string"}],"stateMutability":"view"},{"type":"function","name":"tokenURI","inputs":[{"name":"tokenId","type":"uint256","internalType":"uint256"}],"outputs":[{"name":"","type":"string","internalType":"string"}],"stateMutability":"view"},{"type":"function","name":"transferFrom","inputs":[{"name":"from","type":"address","internalType":"address"},{"name":"to","type":"address","internalType":"address"},{"name":"tokenId","type":"uint256","internalType":"uint256"}],"outputs":[],"stateMutability":"nonpayable"},{"type":"function","name":"unpause","inputs":[],"outputs":[],"stateMutability":"nonpayable"},{"type":"function","name":"vesting","inputs":[{"name":"","type":"uint256","internalType":"uint256"}],"outputs":[{"name":"from","type":"address","internalType":"address"},{"name":"start","type":"uint256","internalType":"uint256"},{"name":"token","type":"address","internalType":"address"},{"name":"totalAmount","type":"uint256","internalType":"uint256"},{"name":"amountReleased","type":"uint256","internalType":"uint256"},{"name":"nextReleaseStep","type":"uint256","internalType":"uint256"}],"stateMutability":"view"},{"type":"event","name":"Approval","inputs":[{"name":"owner","type":"address","indexed":true,"internalType":"address"},{"name":"approved","type":"address","indexed":true,"internalType":"address"},{"name":"tokenId","type":"uint256","indexed":true,"internalType":"uint256"}],"anonymous":false},{"type":"event","name":"ApprovalForAll","inputs":[{"name":"owner","type":"address","indexed":true,"internalType":"address"},{"name":"operator","type":"address","indexed":true,"internalType":"address"},{"name":"approved","type":"bool","indexed":false,"internalType":"bool"}],"anonymous":false},{"type":"event","name":"Initialized","inputs":[{"name":"version","type":"uint64","indexed":false,"internalType":"uint64"}],"anonymous":false},{"type":"event","name":"NewVesting","inputs":[{"name":"vesting","type":"tuple","indexed":true,"internalType":"struct IVesting.VestingInfo","components":[{"name":"schedule","type":"tuple","internalType":"struct IVesting.VestingSchedule","components":[{"name":"from","type":"address","internalType":"address"},{"name":"start","type":"uint256","internalType":"uint256"},{"name":"token","type":"address","internalType":"address"},{"name":"totalAmount","type":"uint256","internalType":"uint256"},{"name":"amountReleased","type":"uint256","internalType":"uint256"},{"name":"nextReleaseStep","type":"uint256","internalType":"uint256"}]},{"name":"release","type":"tuple[]","internalType":"struct IAtomicSwapBase.Release[]","components":[{"name":"durationInHours","type":"uint256","internalType":"uint256"},{"name":"percentage","type":"uint256","internalType":"uint256"}]},{"name":"orderId","type":"bytes32","internalType":"bytes32"}]}],"anonymous":false},{"type":"event","name":"Paused","inputs":[{"name":"account","type":"address","indexed":false,"internalType":"address"}],"anonymous":false},{"type":"event","name":"Received","inputs":[{"name":"sender","type":"address","indexed":true,"internalType":"address"},{"name":"amount","type":"uint256","indexed":true,"internalType":"uint256"}],"anonymous":false},{"type":"event","name":"Released","inputs":[{"name":"beneficiary","type":"address","indexed":true,"internalType":"address"},{"name":"amount","type":"uint256","indexed":true,"internalType":"uint256"}],"anonymous":false},{"type":"event","name":"RoleAdminChanged","inputs":[{"name":"role","type":"bytes32","indexed":true,"internalType":"bytes32"},{"name":"previousAdminRole","type":"bytes32","indexed":true,"internalType":"bytes32"},{"name":"newAdminRole","type":"bytes32","indexed":true,"internalType":"bytes32"}],"anonymous":false},{"type":"event","name":"RoleGranted","inputs":[{"name":"role","type":"bytes32","indexed":true,"internalType":"bytes32"},{"name":"account","type":"address","indexed":true,"internalType":"address"},{"name":"sender","type":"address","indexed":true,"internalType":"address"}],"anonymous":false},{"type":"event","name":"RoleRevoked","inputs":[{"name":"role","type":"bytes32","indexed":true,"internalType":"bytes32"},{"name":"account","type":"address","indexed":true,"internalType":"address"},{"name":"sender","type":"address","indexed":true,"internalType":"address"}],"anonymous":false},{"type":"event","name":"Transfer","inputs":[{"name":"from","type":"address","indexed":true,"internalType":"address"},{"name":"to","type":"address","indexed":true,"internalType":"address"},{"name":"tokenId","type":"uint256","indexed":true,"internalType":"uint256"}],"anonymous":false},{"type":"event","name":"Unpaused","inputs":[{"name":"account","type":"address","indexed":false,"internalType":"address"}],"anonymous":false},{"type":"error","name":"AccessControlBadConfirmation","inputs":[]},{"type":"error","name":"AccessControlUnauthorizedAccount","inputs":[{"name":"account","type":"address","internalType":"address"},{"name":"neededRole","type":"bytes32","internalType":"bytes32"}]},{"type":"error","name":"DuplicateReleaseSchedule","inputs":[]},{"type":"error","name":"ERC721IncorrectOwner","inputs":[{"name":"sender","type":"address","internalType":"address"},{"name":"tokenId","type":"uint256","internalType":"uint256"},{"name":"owner","type":"address","internalType":"address"}]},{"type":"error","name":"ERC721InsufficientApproval","inputs":[{"name":"operator","type":"address","internalType":"address"},{"name":"tokenId","type":"uint256","internalType":"uint256"}]},{"type":"error","name":"ERC721InvalidApprover","inputs":[{"name":"approver","type":"address","internalType":"address"}]},{"type":"error","name":"ERC721InvalidOperator","inputs":[{"name":"operator","type":"address","internalType":"address"}]},{"type":"error","name":"ERC721InvalidOwner","inputs":[{"name":"owner","type":"address","internalType":"address"}]},{"type":"error","name":"ERC721InvalidReceiver","inputs":[{"name":"receiver","type":"address","internalType":"address"}]},{"type":"error","name":"ERC721InvalidSender","inputs":[{"name":"sender","type":"address","internalType":"address"}]},{"type":"error","name":"ERC721NonexistentToken","inputs":[{"name":"tokenId","type":"uint256","internalType":"uint256"}]},{"type":"error","name":"EnforcedPause","inputs":[]},{"type":"error","name":"ExpectedPause","inputs":[]},{"type":"error","name":"InvalidInitialization","inputs":[]},{"type":"error","name":"InvalidTotalPercentage","inputs":[]},{"type":"error","name":"InvalidVesting","inputs":[]},{"type":"error","name":"NoPermissionToRelease","inputs":[]},{"type":"error","name":"NoVestedTokensAvailable","inputs":[]},{"type":"error","name":"NoVestedTokensForRelease","inputs":[]},{"type":"error","name":"NotEnoughFund","inputs":[{"name":"real","type":"uint256","internalType":"uint256"},{"name":"expected","type":"uint256","internalType":"uint256"}]},{"type":"error","name":"NotInitializing","inputs":[]},{"type":"error","name":"OverMaximumReleaseStep","inputs":[]},{"type":"error","name":"ReentrancyGuardReentrantCall","inputs":[]},{"type":"error","name":"VestingAlreadyStarted","inputs":[{"name":"beneficiary","type":"address","internalType":"address"}]},{"type":"error","name":"VestingNotStarted","inputs":[]}],"bytecode":{"object":"0x608060405234801561001057600080fd5b50612db1806100206000396000f3fe6080604052600436106102135760003560e01c80635f1e6f6d1161011857806395d89b41116100a0578063c87b56dd1161006f578063c87b56dd146106be578063d547741f146106de578063e63ab1e9146106fe578063e985e9c514610720578063f2407ca41461074057600080fd5b806395d89b4114610654578063a217fddf14610669578063a22cb4651461067e578063b88d4fde1461069e57600080fd5b806370a08231116100e757806370a08231146105cc5780637623f00e146105ec57806382dc1ec4146105ff5780638456cb591461061f57806391d148541461063457600080fd5b80635f1e6f6d1461054c5780636352211e1461056c5780636b2c0f551461058c57806370480275146105ac57600080fd5b80632ffac82c1161019b5780633d538ecf1161016a5780633d538ecf146104bc5780633f4ba83a146104d257806342842e0e146104e757806346fbf68e146105075780635c975abb1461052757600080fd5b80632ffac82c146103ab57806336568abe1461044757806337bdc99b146104675780633bda01db1461048757600080fd5b80631785f53c116101e25780631785f53c146102fd57806323b872dd1461031d578063248a9ca31461033d57806324d7806c1461036b5780632f2ff15d1461038b57600080fd5b806301ffc9a71461024c57806306fdde0314610281578063081812fc146102a3578063095ea7b3146102db57600080fd5b3661024757604051349033907f88a5966d370b9919b20f3e2c13ff65706f196a4e32cc2c12bf57088f8852587490600090a3005b600080fd5b34801561025857600080fd5b5061026c610267366004612458565b610760565b60405190151581526020015b60405180910390f35b34801561028d57600080fd5b50610296610771565b60405161027891906124c5565b3480156102af57600080fd5b506102c36102be3660046124d8565b610815565b6040516001600160a01b039091168152602001610278565b3480156102e757600080fd5b506102fb6102f636600461250d565b61082a565b005b34801561030957600080fd5b506102fb610318366004612537565b610839565b34801561032957600080fd5b506102fb610338366004612552565b610847565b34801561034957600080fd5b5061035d6103583660046124d8565b6108d7565b604051908152602001610278565b34801561037757600080fd5b5061026c610386366004612537565b6108f9565b34801561039757600080fd5b506102fb6103a636600461258e565b610905565b3480156103b757600080fd5b506104096103c63660046124d8565b60026020819052600091825260409091208054600182015492820154600383015460048401546005909401546001600160a01b0393841695949390921692909186565b604080516001600160a01b039788168152602081019690965293909516928401929092526060830152608082015260a081019190915260c001610278565b34801561045357600080fd5b506102fb61046236600461258e565b610921565b34801561047357600080fd5b506102fb6104823660046124d8565b610959565b34801561049357600080fd5b506104a76104a23660046125ba565b610ba3565b60408051928352602083019190915201610278565b3480156104c857600080fd5b5061035d60005481565b3480156104de57600080fd5b506102fb610bdf565b3480156104f357600080fd5b506102fb610502366004612552565b610c1d565b34801561051357600080fd5b5061026c610522366004612537565b610c38565b34801561053357600080fd5b50600080516020612d3c8339815191525460ff1661026c565b34801561055857600080fd5b506102fb6105673660046126c1565b610c52565b34801561057857600080fd5b506102c36105873660046124d8565b610d68565b34801561059857600080fd5b506102fb6105a7366004612537565b610d73565b3480156105b857600080fd5b506102fb6105c7366004612537565b610d8b565b3480156105d857600080fd5b5061035d6105e7366004612537565b610d96565b6102fb6105fa366004612759565b610df2565b34801561060b57600080fd5b506102fb61061a366004612537565b611092565b34801561062b57600080fd5b506102fb6110aa565b34801561064057600080fd5b5061026c61064f36600461258e565b6110e6565b34801561066057600080fd5b5061029661111e565b34801561067557600080fd5b5061035d600081565b34801561068a57600080fd5b506102fb61069936600461286a565b61115d565b3480156106aa57600080fd5b506102fb6106b93660046128a1565b611168565b3480156106ca57600080fd5b506102966106d93660046124d8565b61117f565b3480156106ea57600080fd5b506102fb6106f936600461258e565b6111e7565b34801561070a57600080fd5b5061035d600080516020612cfc83398151915281565b34801561072c57600080fd5b5061026c61073b366004612910565b611203565b34801561074c57600080fd5b506102fb61075b3660046124d8565b611250565b600061076b826112cc565b92915050565b600080516020612cdc83398151915280546060919081906107919061293a565b80601f01602080910402602001604051908101604052809291908181526020018280546107bd9061293a565b801561080a5780601f106107df5761010080835404028352916020019161080a565b820191906000526020600020905b8154815290600101906020018083116107ed57829003601f168201915b505050505091505090565b60006108208261130c565b5061076b82611344565b61083582823361137e565b5050565b6108446000826111e7565b50565b6001600160a01b03821661087657604051633250574960e11b8152600060048201526024015b60405180910390fd5b600061088383833361138b565b9050836001600160a01b0316816001600160a01b0316146108d1576040516364283d7b60e01b81526001600160a01b038086166004830152602482018490528216604482015260640161086d565b50505050565b6000908152600080516020612d1c833981519152602052604090206001015490565b600061076b81836110e6565b61090e826108d7565b61091781611495565b6108d1838361149f565b6001600160a01b038116331461094a5760405163334bd91960e11b815260040160405180910390fd5b6109548282611544565b505050565b6109616115c0565b61096961160a565b3361097382610d68565b6001600160a01b03161461099a5760405163a736e60f60e01b815260040160405180910390fd5b60008181526002602090815260408083206003909252909120805415806109c657508054600583015410155b156109e457604051638bdb538160e01b815260040160405180910390fd5b6001820154600090815b8354811015610ab057838181548110610a0957610a09612974565b906000526020600020906002020160000154610e10610a2891906129a0565b610a3290836129b7565b915084600501548110610aa857814210610ab0576000612710858381548110610a5d57610a5d612974565b9060005260206000209060020201600101548760030154610a7e91906129a0565b610a8891906129ca565b9050610a9481856129b7565b9350610aa18260016129b7565b6005870155505b6001016109ee565b5060008211610ad257604051630350741560e41b815260040160405180910390fd5b81846004016000828254610ae691906129b7565b909155505060028401546001600160a01b031615610b1c576002840154610b17906001600160a01b0316338461163b565b610b26565b610b263383611765565b8360030154846004015403610b4957610b40333087610847565b610b498561183f565b604051829033907fb21fb52d5749b80f3182f8c6992236b5e5576681880914484d7f4c9b062e619e90600090a35050505061084460017f9b779b17422d0df92223018b32b4d1fa46e071723d6817e2486d003becc55f0055565b60036020528160005260406000208181548110610bbf57600080fd5b600091825260209091206002909102018054600190910154909250905082565b610bf7600080516020612cfc833981519152336110e6565b610c135760405162461bcd60e51b815260040161086d906129ec565b610c1b61187a565b565b61095483838360405180602001604052806000815250611168565b600061076b600080516020612cfc833981519152836110e6565b600080516020612d5c8339815191528054600160401b810460ff1615906001600160401b0316600081158015610c855750825b90506000826001600160401b03166001148015610ca15750303b155b905081158015610caf575080155b15610ccd5760405163f92ee8a960e01b815260040160405180910390fd5b845467ffffffffffffffff191660011785558315610cf757845460ff60401b1916600160401b1785555b610d00896118da565b610d0a88886119f4565b6001610d168782612a6b565b508315610d5d57845460ff60401b19168555604051600181527fc7f505b2f371ae2175ee4913f4499e1f2633a7b5936321eed1cdaeb6115181d29060200160405180910390a15b505050505050505050565b600061076b8261130c565b610844600080516020612cfc833981519152826111e7565b610844600082610905565b6000600080516020612cdc8339815191526001600160a01b038316610dd1576040516322718ad960e21b81526000600482015260240161086d565b6001600160a01b039092166000908152600390920160205250604090205490565b610dfa6115c0565b610e056000336110e6565b610e215760405162461bcd60e51b815260040161086d906129ec565b6000610e2d8587611a06565b6000818152600260205260409020549091506001600160a01b031615610e6657604051633146ddcb60e11b815260040160405180910390fd5b6040516333b988f560e01b815273__$2effe1973215a034e8e4a17bdeb5710028$__906333b988f590610e9d908590600401612b2a565b60006040518083038186803b158015610eb557600080fd5b505af4158015610ec9573d6000803e3d6000fd5b5050506001600160a01b0385169050610f0a57823414610f05576040516301055eed60e21b81526004810184905234602482015260440161086d565b610f16565b610f1684333086611a3a565b6040805160c0810182523381524260208083018281526001600160a01b03898116858701908152606086018a815260006080880181815260a089018281528b835260028089528b84208b5181549089166001600160a01b0319918216178255985160018201559551908601805491909716971696909617909455905160038084019190915592516004830155925160059091015590915292832090925b85518110156110055781868281518110610fcf57610fcf612974565b60209081029190910181015182546001818101855560009485529383902082516002909202019081559101519082015501610fb3565b5060405180606001604052808381526020018681526020018a81525060405161102e9190612b79565b604051908190038120907f9a4028570a7985008f06404aa6ad5e5e1a028f77009475627237e339802b2e0990600090a25050505061108b60017f9b779b17422d0df92223018b32b4d1fa46e071723d6817e2486d003becc55f0055565b5050505050565b610844600080516020612cfc83398151915282610905565b6110c2600080516020612cfc833981519152336110e6565b6110de5760405162461bcd60e51b815260040161086d906129ec565b610c1b611b70565b6000918252600080516020612d1c833981519152602090815260408084206001600160a01b0393909316845291905290205460ff1690565b7f80bb2b638cc20bc4d0a60d66940f3ab4a00c1d7b313497ca82fb0b4ab00793018054606091600080516020612cdc833981519152916107919061293a565b610835338383611bb9565b611173848484610847565b6108d184848484611c6a565b606061118a8261130c565b506000611195611d8c565b905060008151116111b557604051806020016040528060008152506111e0565b806111bf84611e1e565b6040516020016111d0929190612c19565b6040516020818303038152906040525b9392505050565b6111f0826108d7565b6111f981611495565b6108d18383611544565b6001600160a01b0391821660009081527f80bb2b638cc20bc4d0a60d66940f3ab4a00c1d7b313497ca82fb0b4ab00793056020908152604080832093909416825291909152205460ff1690565b61125b6000336110e6565b6112775760405162461bcd60e51b815260040161086d906129ec565b600081116112c75760405162461bcd60e51b815260206004820152601a60248201527f4d6f726967696e4170703a20696e76616c69642076616c756521000000000000604482015260640161086d565b600055565b60006001600160e01b031982166380ac58cd60e01b14806112fd57506001600160e01b03198216635b5e139f60e01b145b8061076b575061076b82611eb0565b60008061131883611ee5565b90506001600160a01b03811661076b57604051637e27328960e01b81526004810184905260240161086d565b60009081527f80bb2b638cc20bc4d0a60d66940f3ab4a00c1d7b313497ca82fb0b4ab007930460205260409020546001600160a01b031690565b6109548383836001611f1f565b6000600080516020612cdc833981519152816113a685611ee5565b90506001600160a01b038416156113c2576113c2818587612035565b6001600160a01b03811615611402576113df600086600080611f1f565b6001600160a01b0381166000908152600383016020526040902080546000190190555b6001600160a01b03861615611433576001600160a01b03861660009081526003830160205260409020805460010190555b600085815260028301602052604080822080546001600160a01b0319166001600160a01b038a811691821790925591518893918516917fddf252ad1be2c89b69c2b068fc378daa952ba7f163c4a11628f55a4df523b3ef91a495945050505050565b6108448133612099565b6000600080516020612d1c8339815191526114ba84846110e6565b61153a576000848152602082815260408083206001600160a01b03871684529091529020805460ff191660011790556114f03390565b6001600160a01b0316836001600160a01b0316857f2f8788117e7eff1d82e926ec794901d17c78024a50270940304540a733656f0d60405160405180910390a4600191505061076b565b600091505061076b565b6000600080516020612d1c83398151915261155f84846110e6565b1561153a576000848152602082815260408083206001600160a01b0387168085529252808320805460ff1916905551339287917ff6391f5c32d9c69d2a47ea670b442974b53935d1edc7fd64eb21e047a839171b9190a4600191505061076b565b7f9b779b17422d0df92223018b32b4d1fa46e071723d6817e2486d003becc55f0080546001190161160457604051633ee5aeb560e01b815260040160405180910390fd5b60029055565b600080516020612d3c8339815191525460ff1615610c1b5760405163d93c066560e01b815260040160405180910390fd5b604080516001600160a01b038481166024830152604480830185905283518084039091018152606490920183526020820180516001600160e01b031663a9059cbb60e01b17905291516000928392908716916116979190612c48565b6000604051808303816000865af19150503d80600081146116d4576040519150601f19603f3d011682016040523d82523d6000602084013e6116d9565b606091505b50915091508180156117035750805115806117035750808060200190518101906117039190612c64565b61108b5760405162461bcd60e51b815260206004820152602d60248201527f5472616e7366657248656c7065723a3a736166655472616e736665723a20747260448201526c185b9cd9995c8819985a5b1959609a1b606482015260840161086d565b604080516000808252602082019092526001600160a01b03841690839060405161178f9190612c48565b60006040518083038185875af1925050503d80600081146117cc576040519150601f19603f3d011682016040523d82523d6000602084013e6117d1565b606091505b50509050806109545760405162461bcd60e51b815260206004820152603460248201527f5472616e7366657248656c7065723a3a736166655472616e736665724554483a60448201527308115512081d1c985b9cd9995c8819985a5b195960621b606482015260840161086d565b600061184e600083600061138b565b90506001600160a01b03811661083557604051637e27328960e01b81526004810183905260240161086d565b6118826120d2565b600080516020612d3c833981519152805460ff191681557f5db9ee0a495bf2e6ff9c91a7834c1ba4fdd244a5e8aa4e537bd38aeae4b073aa335b6040516001600160a01b03909116815260200160405180910390a150565b600080516020612d5c8339815191528054600160401b810460ff1615906001600160401b031660008115801561190d5750825b90506000826001600160401b031660011480156119295750303b155b905081158015611937575080155b156119555760405163f92ee8a960e01b815260040160405180910390fd5b845467ffffffffffffffff19166001178555831561197f57845460ff60401b1916600160401b1785555b611987612102565b61198f612102565b61199761210a565b6119a08661212b565b606460005583156119ec57845460ff60401b19168555604051600181527fc7f505b2f371ae2175ee4913f4499e1f2633a7b5936321eed1cdaeb6115181d2906020015b60405180910390a15b505050505050565b6119fc612237565b610835828261226e565b6000611a1281336110e6565b611a2e5760405162461bcd60e51b815260040161086d906129ec565b508061076b838261229f565b604080516001600160a01b0385811660248301528481166044830152606480830185905283518084039091018152608490920183526020820180516001600160e01b03166323b872dd60e01b1790529151600092839290881691611a9e9190612c48565b6000604051808303816000865af19150503d8060008114611adb576040519150601f19603f3d011682016040523d82523d6000602084013e611ae0565b606091505b5091509150818015611b0a575080511580611b0a575080806020019051810190611b0a9190612c64565b6119ec5760405162461bcd60e51b815260206004820152603160248201527f5472616e7366657248656c7065723a3a7472616e7366657246726f6d3a207472604482015270185b9cd9995c919c9bdb4819985a5b1959607a1b606482015260840161086d565b611b7861160a565b600080516020612d3c833981519152805460ff191660011781557f62e78cea01bee320cd4e420270b5ea74000d11b0c9f74754ebdbfc544b05a258336118bc565b600080516020612cdc8339815191526001600160a01b038316611bfa57604051630b61174360e31b81526001600160a01b038416600482015260240161086d565b6001600160a01b038481166000818152600584016020908152604080832094881680845294825291829020805460ff191687151590811790915591519182527f17307eab39ab6107e8899845ad3d59bd9653f200f220920489ca2b5937696c31910160405180910390a350505050565b6001600160a01b0383163b156108d157604051630a85bd0160e11b81526001600160a01b0384169063150b7a0290611cac903390889087908790600401612c81565b6020604051808303816000875af1925050508015611ce7575060408051601f3d908101601f19168201909252611ce491810190612cbe565b60015b611d50573d808015611d15576040519150601f19603f3d011682016040523d82523d6000602084013e611d1a565b606091505b508051600003611d4857604051633250574960e11b81526001600160a01b038516600482015260240161086d565b805181602001fd5b6001600160e01b03198116630a85bd0160e11b1461108b57604051633250574960e11b81526001600160a01b038516600482015260240161086d565b606060018054611d9b9061293a565b80601f0160208091040260200160405190810160405280929190818152602001828054611dc79061293a565b8015611e145780601f10611de957610100808354040283529160200191611e14565b820191906000526020600020905b815481529060010190602001808311611df757829003601f168201915b5050505050905090565b60606000611e2b83612304565b60010190506000816001600160401b03811115611e4a57611e4a6125dc565b6040519080825280601f01601f191660200182016040528015611e74576020820181803683370190505b5090508181016020015b600019016f181899199a1a9b1b9c1cb0b131b232b360811b600a86061a8153600a8504945084611e7e57509392505050565b60006001600160e01b03198216637965db0b60e01b148061076b57506301ffc9a760e01b6001600160e01b031983161461076b565b60009081527f80bb2b638cc20bc4d0a60d66940f3ab4a00c1d7b313497ca82fb0b4ab007930260205260409020546001600160a01b031690565b600080516020612cdc8339815191528180611f4257506001600160a01b03831615155b15612004576000611f528561130c565b90506001600160a01b03841615801590611f7e5750836001600160a01b0316816001600160a01b031614155b8015611f915750611f8f8185611203565b155b15611fba5760405163a9fbf51f60e01b81526001600160a01b038516600482015260240161086d565b82156120025784866001600160a01b0316826001600160a01b03167f8c5be1e5ebec7d5bd14f71427d1e84f3dd0314c0f7b2291e5b200ac8c7c3b92560405160405180910390a45b505b600093845260040160205250506040902080546001600160a01b0319166001600160a01b0392909216919091179055565b6120408383836123dc565b610954576001600160a01b03831661206e57604051637e27328960e01b81526004810182905260240161086d565b60405163177e802f60e01b81526001600160a01b03831660048201526024810182905260440161086d565b6120a382826110e6565b6108355760405163e2517d3f60e01b81526001600160a01b03821660048201526024810183905260440161086d565b600080516020612d3c8339815191525460ff16610c1b57604051638dfc202b60e01b815260040160405180910390fd5b610c1b612237565b612112612237565b600080516020612d3c833981519152805460ff19169055565b600080516020612d5c8339815191528054600160401b810460ff1615906001600160401b031660008115801561215e5750825b90506000826001600160401b0316600114801561217a5750303b155b905081158015612188575080155b156121a65760405163f92ee8a960e01b815260040160405180910390fd5b845467ffffffffffffffff1916600117855583156121d057845460ff60401b1916600160401b1785555b6121db60008761149f565b506121f4600080516020612cfc8339815191528761149f565b5083156119ec57845460ff60401b19168555604051600181527fc7f505b2f371ae2175ee4913f4499e1f2633a7b5936321eed1cdaeb6115181d2906020016119e3565b600080516020612d5c83398151915254600160401b900460ff16610c1b57604051631afcd79f60e31b815260040160405180910390fd5b612276612237565b600080516020612cdc833981519152806122908482612a6b565b50600181016108d18382612a6b565b6001600160a01b0382166122c957604051633250574960e11b81526000600482015260240161086d565b60006122d78383600061138b565b90506001600160a01b03811615610954576040516339e3563760e11b81526000600482015260240161086d565b60008072184f03e93ff9f4daa797ed6e38ed64bf6a1f0160401b83106123435772184f03e93ff9f4daa797ed6e38ed64bf6a1f0160401b830492506040015b6d04ee2d6d415b85acef8100000000831061236f576d04ee2d6d415b85acef8100000000830492506020015b662386f26fc10000831061238d57662386f26fc10000830492506010015b6305f5e10083106123a5576305f5e100830492506008015b61271083106123b957612710830492506004015b606483106123cb576064830492506002015b600a831061076b5760010192915050565b60006001600160a01b0383161580159061243a5750826001600160a01b0316846001600160a01b0316148061241657506124168484611203565b8061243a5750826001600160a01b031661242f83611344565b6001600160a01b0316145b949350505050565b6001600160e01b03198116811461084457600080fd5b60006020828403121561246a57600080fd5b81356111e081612442565b60005b83811015612490578181015183820152602001612478565b50506000910152565b600081518084526124b1816020860160208601612475565b601f01601f19169290920160200192915050565b6020815260006111e06020830184612499565b6000602082840312156124ea57600080fd5b5035919050565b80356001600160a01b038116811461250857600080fd5b919050565b6000806040838503121561252057600080fd5b612529836124f1565b946020939093013593505050565b60006020828403121561254957600080fd5b6111e0826124f1565b60008060006060848603121561256757600080fd5b612570846124f1565b925061257e602085016124f1565b9150604084013590509250925092565b600080604083850312156125a157600080fd5b823591506125b1602084016124f1565b90509250929050565b600080604083850312156125cd57600080fd5b50508035926020909101359150565b634e487b7160e01b600052604160045260246000fd5b604080519081016001600160401b0381118282101715612614576126146125dc565b60405290565b604051601f8201601f191681016001600160401b0381118282101715612642576126426125dc565b604052919050565b60006001600160401b03831115612663576126636125dc565b612676601f8401601f191660200161261a565b905082815283838301111561268a57600080fd5b828260208301376000602084830101529392505050565b600082601f8301126126b257600080fd5b6111e08383356020850161264a565b600080600080608085870312156126d757600080fd5b6126e0856124f1565b935060208501356001600160401b03808211156126fc57600080fd5b612708888389016126a1565b9450604087013591508082111561271e57600080fd5b61272a888389016126a1565b9350606087013591508082111561274057600080fd5b5061274d878288016126a1565b91505092959194509250565b600080600080600060a0868803121561277157600080fd5b8535945060206127828188016124f1565b94506040612792604089016124f1565b94506060880135935060808801356001600160401b03808211156127b557600080fd5b818a0191508a601f8301126127c957600080fd5b8135818111156127db576127db6125dc565b6127e9858260051b0161261a565b818152858101925060069190911b83018501908c82111561280957600080fd5b928501925b818410156128495784848e0312156128265760008081fd5b61282e6125f2565b8435815286850135878201528352928401929185019161280e565b8096505050505050509295509295909350565b801515811461084457600080fd5b6000806040838503121561287d57600080fd5b612886836124f1565b915060208301356128968161285c565b809150509250929050565b600080600080608085870312156128b757600080fd5b6128c0856124f1565b93506128ce602086016124f1565b92506040850135915060608501356001600160401b038111156128f057600080fd5b8501601f8101871361290157600080fd5b61274d8782356020840161264a565b6000806040838503121561292357600080fd5b61292c836124f1565b91506125b1602084016124f1565b600181811c9082168061294e57607f821691505b60208210810361296e57634e487b7160e01b600052602260045260246000fd5b50919050565b634e487b7160e01b600052603260045260246000fd5b634e487b7160e01b600052601160045260246000fd5b808202811582820484141761076b5761076b61298a565b8082018082111561076b5761076b61298a565b6000826129e757634e487b7160e01b600052601260045260246000fd5b500490565b6020808252601e908201527f4f776e61626c655061757361626c653a206163636573732064656e6965640000604082015260600190565b601f821115610954576000816000526020600020601f850160051c81016020861015612a4c5750805b601f850160051c820191505b818110156119ec57828155600101612a58565b81516001600160401b03811115612a8457612a846125dc565b612a9881612a92845461293a565b84612a23565b602080601f831160018114612acd5760008415612ab55750858301515b600019600386901b1c1916600185901b1785556119ec565b600085815260208120601f198616915b82811015612afc57888601518255948401946001909101908401612add565b5085821015612b1a5787850151600019600388901b60f8161c191681555b5050505050600190811b01905550565b602080825282518282018190526000919060409081850190868401855b82811015612b6c57815180518552860151868501529284019290850190600101612b47565b5091979650505050505050565b815180516001600160a01b0390811683526020808301518185015260408084015190921682850152606080840151908501526080808401519085015260a092830151928401929092528184015180516000939182019284929160c08701905b80851015612c015785518051835284015184830152948301946001949094019390820190612bd8565b50604088015181526020810198975050505050505050565b60008351612c2b818460208801612475565b835190830190612c3f818360208801612475565b01949350505050565b60008251612c5a818460208701612475565b9190910192915050565b600060208284031215612c7657600080fd5b81516111e08161285c565b6001600160a01b0385811682528416602082015260408101839052608060608201819052600090612cb490830184612499565b9695505050505050565b600060208284031215612cd057600080fd5b81516111e08161244256fe80bb2b638cc20bc4d0a60d66940f3ab4a00c1d7b313497ca82fb0b4ab007930065d7a28e3265b37a6474929f336521b332c1681b933f6cb9f3376673440d862a02dd7bc7dec4dceedda775e58dd541e08a116c6c53815c0bd028192f7b626800cd5ed15c6e187e77e9aee88184c21f4f2182ab5827cb3b7e07fbedcd63f03300f0c57e16840df040f15088dc2f81fe391c3923bec73e23a9662efc9c229c6a00a2646970667358221220008247a770ceccab1a3b1b3e8c90f3f649cde487359f56d3b21343ad75a1be8964736f6c63430008170033","linkReferences":{"contracts/abstracts/libs/utils/AtomicSwapMsgValidator.sol":{"AtomicSwapMsgValidator":[{"start":3733,"length":20}]}}},"methodIdentifiers":{"DEFAULT_ADMIN_ROLE()":"a217fddf","PAUSER_ROLE()":"e63ab1e9","addAdmin(address)":"70480275","addPauser(address)":"82dc1ec4","approve(address,uint256)":"095ea7b3","balanceOf(address)":"70a08231","getApproved(uint256)":"081812fc","getRoleAdmin(bytes32)":"248a9ca3","grantRole(bytes32,address)":"2f2ff15d","hasRole(bytes32,address)":"91d14854","initialize(address,string,string,string)":"5f1e6f6d","isAdmin(address)":"24d7806c","isApprovedForAll(address,address)":"e985e9c5","isPauser(address)":"46fbf68e","name()":"06fdde03","ownerOf(uint256)":"6352211e","paginationSize()":"3d538ecf","pause()":"8456cb59","paused()":"5c975abb","release(uint256)":"37bdc99b","releaseInfo(uint256,uint256)":"3bda01db","removeAdmin(address)":"1785f53c","removePauser(address)":"6b2c0f55","renounceRole(bytes32,address)":"36568abe","revokeRole(bytes32,address)":"d547741f","safeTransferFrom(address,address,uint256)":"42842e0e","safeTransferFrom(address,address,uint256,bytes)":"b88d4fde","setApprovalForAll(address,bool)":"a22cb465","setPaginationSize(uint256)":"f2407ca4","startVesting(bytes32,address,address,uint256,(uint256,uint256)[])":"7623f00e","supportsInterface(bytes4)":"01ffc9a7","symbol()":"95d89b41","tokenURI(uint256)":"c87b56dd","transferFrom(address,address,uint256)":"23b872dd","unpause()":"3f4ba83a","vesting(uint256)":"2ffac82c"},"id":9}