{"abi":[{"type":"receive","stateMutability":"payable"},{"type":"function","name":"DEFAULT_ADMIN_ROLE","inputs":[],"outputs":[{"name":"","type":"bytes32","internalType":"bytes32"}],"stateMutability":"view"},{"type":"function","name":"PAUSER_ROLE","inputs":[],"outputs":[{"name":"","type":"bytes32","internalType":"bytes32"}],"stateMutability":"view"},{"type":"function","name":"addAdmin","inputs":[{"name":"_account","type":"address","internalType":"address"}],"outputs":[],"stateMutability":"nonpayable"},{"type":"function","name":"addPauser","inputs":[{"name":"_account","type":"address","internalType":"address"}],"outputs":[],"stateMutability":"nonpayable"},{"type":"function","name":"approve","inputs":[{"name":"to","type":"address","internalType":"address"},{"name":"tokenId","type":"uint256","internalType":"uint256"}],"outputs":[],"stateMutability":"nonpayable"},{"type":"function","name":"balanceOf","inputs":[{"name":"owner","type":"address","internalType":"address"}],"outputs":[{"name":"","type":"uint256","internalType":"uint256"}],"stateMutability":"view"},{"type":"function","name":"getApproved","inputs":[{"name":"tokenId","type":"uint256","internalType":"uint256"}],"outputs":[{"name":"","type":"address","internalType":"address"}],"stateMutability":"view"},{"type":"function","name":"getRoleAdmin","inputs":[{"name":"role","type":"bytes32","internalType":"bytes32"}],"outputs":[{"name":"","type":"bytes32","internalType":"bytes32"}],"stateMutability":"view"},{"type":"function","name":"grantRole","inputs":[{"name":"role","type":"bytes32","internalType":"bytes32"},{"name":"account","type":"address","internalType":"address"}],"outputs":[],"stateMutability":"nonpayable"},{"type":"function","name":"hasRole","inputs":[{"name":"role","type":"bytes32","internalType":"bytes32"},{"name":"account","type":"address","internalType":"address"}],"outputs":[{"name":"","type":"bool","internalType":"bool"}],"stateMutability":"view"},{"type":"function","name":"initialize","inputs":[{"name":"admin","type":"address","internalType":"address"},{"name":"name","type":"string","internalType":"string"},{"name":"symbol","type":"string","internalType":"string"},{"name":"baseURL","type":"string","internalType":"string"}],"outputs":[],"stateMutability":"nonpayable"},{"type":"function","name":"isAdmin","inputs":[{"name":"_account","type":"address","internalType":"address"}],"outputs":[{"name":"","type":"bool","internalType":"bool"}],"stateMutability":"view"},{"type":"function","name":"isApprovedForAll","inputs":[{"name":"owner","type":"address","internalType":"address"},{"name":"operator","type":"address","internalType":"address"}],"outputs":[{"name":"","type":"bool","internalType":"bool"}],"stateMutability":"view"},{"type":"function","name":"isPauser","inputs":[{"name":"_account","type":"address","internalType":"address"}],"outputs":[{"name":"","type":"bool","internalType":"bool"}],"stateMutability":"view"},{"type":"function","name":"name","inputs":[],"outputs":[{"name":"","type":"string","internalType":"string"}],"stateMutability":"view"},{"type":"function","name":"ownerOf","inputs":[{"name":"tokenId","type":"uint256","internalType":"uint256"}],"outputs":[{"name":"","type":"address","internalType":"address"}],"stateMutability":"view"},{"type":"function","name":"paginationSize","inputs":[],"outputs":[{"name":"","type":"uint256","internalType":"uint256"}],"stateMutability":"view"},{"type":"function","name":"pause","inputs":[],"outputs":[],"stateMutability":"nonpayable"},{"type":"function","name":"paused","inputs":[],"outputs":[{"name":"","type":"bool","internalType":"bool"}],"stateMutability":"view"},{"type":"function","name":"release","inputs":[{"name":"vestingId","type":"uint256","internalType":"uint256"}],"outputs":[],"stateMutability":"nonpayable"},{"type":"function","name":"releaseInfo","inputs":[{"name":"","type":"uint256","internalType":"uint256"},{"name":"","type":"uint256","internalType":"uint256"}],"outputs":[{"name":"durationInHours","type":"uint256","internalType":"uint256"},{"name":"percentage","type":"uint256","internalType":"uint256"}],"stateMutability":"view"},{"type":"function","name":"removeAdmin","inputs":[{"name":"_account","type":"address","internalType":"address"}],"outputs":[],"stateMutability":"nonpayable"},{"type":"function","name":"removePauser","inputs":[{"name":"_account","type":"address","internalType":"address"}],"outputs":[],"stateMutability":"nonpayable"},{"type":"function","name":"renounceRole","inputs":[{"name":"role","type":"bytes32","internalType":"bytes32"},{"name":"callerConfirmation","type":"address","internalType":"address"}],"outputs":[],"stateMutability":"nonpayable"},{"type":"function","name":"revokeRole","inputs":[{"name":"role","type":"bytes32","internalType":"bytes32"},{"name":"account","type":"address","internalType":"address"}],"outputs":[],"stateMutability":"nonpayable"},{"type":"function","name":"safeTransferFrom","inputs":[{"name":"from","type":"address","internalType":"address"},{"name":"to","type":"address","internalType":"address"},{"name":"tokenId","type":"uint256","internalType":"uint256"}],"outputs":[],"stateMutability":"nonpayable"},{"type":"function","name":"safeTransferFrom","inputs":[{"name":"from","type":"address","internalType":"address"},{"name":"to","type":"address","internalType":"address"},{"name":"tokenId","type":"uint256","internalType":"uint256"},{"name":"data","type":"bytes","internalType":"bytes"}],"outputs":[],"stateMutability":"nonpayable"},{"type":"function","name":"setApprovalForAll","inputs":[{"name":"operator","type":"address","internalType":"address"},{"name":"approved","type":"bool","internalType":"bool"}],"outputs":[],"stateMutability":"nonpayable"},{"type":"function","name":"setPaginationSize","inputs":[{"name":"_paginationSize","type":"uint256","internalType":"uint256"}],"outputs":[],"stateMutability":"nonpayable"},{"type":"function","name":"startVesting","inputs":[{"name":"orderId","type":"bytes32","internalType":"bytes32"},{"name":"buyer","type":"address","internalType":"address"},{"name":"token","type":"address","internalType":"address"},{"name":"totalAmount","type":"uint256","internalType":"uint256"},{"name":"releases","type":"tuple[]","internalType":"struct IAtomicSwapBase.Release[]","components":[{"name":"durationInHours","type":"uint256","internalType":"uint256"},{"name":"percentage","type":"uint256","internalType":"uint256"}]}],"outputs":[],"stateMutability":"payable"},{"type":"function","name":"supportsInterface","inputs":[{"name":"interfaceId","type":"bytes4","internalType":"bytes4"}],"outputs":[{"name":"","type":"bool","internalType":"bool"}],"stateMutability":"view"},{"type":"function","name":"symbol","inputs":[],"outputs":[{"name":"","type":"string","internalType":"string"}],"stateMutability":"view"},{"type":"function","name":"tokenURI","inputs":[{"name":"tokenId","type":"uint256","internalType":"uint256"}],"outputs":[{"name":"","type":"string","internalType":"string"}],"stateMutability":"view"},{"type":"function","name":"transferFrom","inputs":[{"name":"from","type":"address","internalType":"address"},{"name":"to","type":"address","internalType":"address"},{"name":"tokenId","type":"uint256","internalType":"uint256"}],"outputs":[],"stateMutability":"nonpayable"},{"type":"function","name":"unpause","inputs":[],"outputs":[],"stateMutability":"nonpayable"},{"type":"function","name":"vesting","inputs":[{"name":"","type":"uint256","internalType":"uint256"}],"outputs":[{"name":"from","type":"address","internalType":"address"},{"name":"start","type":"uint256","internalType":"uint256"},{"name":"token","type":"address","internalType":"address"},{"name":"totalAmount","type":"uint256","internalType":"uint256"},{"name":"amountReleased","type":"uint256","internalType":"uint256"},{"name":"nextReleaseStep","type":"uint256","internalType":"uint256"}],"stateMutability":"view"},{"type":"function","name":"vestingIds","inputs":[{"name":"","type":"bytes32","internalType":"bytes32"}],"outputs":[{"name":"","type":"uint256","internalType":"uint256"}],"stateMutability":"view"},{"type":"event","name":"Approval","inputs":[{"name":"owner","type":"address","indexed":true,"internalType":"address"},{"name":"approved","type":"address","indexed":true,"internalType":"address"},{"name":"tokenId","type":"uint256","indexed":true,"internalType":"uint256"}],"anonymous":false},{"type":"event","name":"ApprovalForAll","inputs":[{"name":"owner","type":"address","indexed":true,"internalType":"address"},{"name":"operator","type":"address","indexed":true,"internalType":"address"},{"name":"approved","type":"bool","indexed":false,"internalType":"bool"}],"anonymous":false},{"type":"event","name":"Initialized","inputs":[{"name":"version","type":"uint64","indexed":false,"internalType":"uint64"}],"anonymous":false},{"type":"event","name":"NewVesting","inputs":[{"name":"orderId","type":"bytes32","indexed":true,"internalType":"bytes32"},{"name":"tokenId","type":"uint256","indexed":false,"internalType":"uint256"}],"anonymous":false},{"type":"event","name":"Paused","inputs":[{"name":"account","type":"address","indexed":false,"internalType":"address"}],"anonymous":false},{"type":"event","name":"Received","inputs":[{"name":"sender","type":"address","indexed":true,"internalType":"address"},{"name":"amount","type":"uint256","indexed":true,"internalType":"uint256"}],"anonymous":false},{"type":"event","name":"Released","inputs":[{"name":"beneficiary","type":"address","indexed":true,"internalType":"address"},{"name":"amount","type":"uint256","indexed":true,"internalType":"uint256"}],"anonymous":false},{"type":"event","name":"RoleAdminChanged","inputs":[{"name":"role","type":"bytes32","indexed":true,"internalType":"bytes32"},{"name":"previousAdminRole","type":"bytes32","indexed":true,"internalType":"bytes32"},{"name":"newAdminRole","type":"bytes32","indexed":true,"internalType":"bytes32"}],"anonymous":false},{"type":"event","name":"RoleGranted","inputs":[{"name":"role","type":"bytes32","indexed":true,"internalType":"bytes32"},{"name":"account","type":"address","indexed":true,"internalType":"address"},{"name":"sender","type":"address","indexed":true,"internalType":"address"}],"anonymous":false},{"type":"event","name":"RoleRevoked","inputs":[{"name":"role","type":"bytes32","indexed":true,"internalType":"bytes32"},{"name":"account","type":"address","indexed":true,"internalType":"address"},{"name":"sender","type":"address","indexed":true,"internalType":"address"}],"anonymous":false},{"type":"event","name":"Transfer","inputs":[{"name":"from","type":"address","indexed":true,"internalType":"address"},{"name":"to","type":"address","indexed":true,"internalType":"address"},{"name":"tokenId","type":"uint256","indexed":true,"internalType":"uint256"}],"anonymous":false},{"type":"event","name":"Unpaused","inputs":[{"name":"account","type":"address","indexed":false,"internalType":"address"}],"anonymous":false},{"type":"error","name":"AccessControlBadConfirmation","inputs":[]},{"type":"error","name":"AccessControlUnauthorizedAccount","inputs":[{"name":"account","type":"address","internalType":"address"},{"name":"neededRole","type":"bytes32","internalType":"bytes32"}]},{"type":"error","name":"DuplicateReleaseSchedule","inputs":[]},{"type":"error","name":"ERC721IncorrectOwner","inputs":[{"name":"sender","type":"address","internalType":"address"},{"name":"tokenId","type":"uint256","internalType":"uint256"},{"name":"owner","type":"address","internalType":"address"}]},{"type":"error","name":"ERC721InsufficientApproval","inputs":[{"name":"operator","type":"address","internalType":"address"},{"name":"tokenId","type":"uint256","internalType":"uint256"}]},{"type":"error","name":"ERC721InvalidApprover","inputs":[{"name":"approver","type":"address","internalType":"address"}]},{"type":"error","name":"ERC721InvalidOperator","inputs":[{"name":"operator","type":"address","internalType":"address"}]},{"type":"error","name":"ERC721InvalidOwner","inputs":[{"name":"owner","type":"address","internalType":"address"}]},{"type":"error","name":"ERC721InvalidReceiver","inputs":[{"name":"receiver","type":"address","internalType":"address"}]},{"type":"error","name":"ERC721InvalidSender","inputs":[{"name":"sender","type":"address","internalType":"address"}]},{"type":"error","name":"ERC721NonexistentToken","inputs":[{"name":"tokenId","type":"uint256","internalType":"uint256"}]},{"type":"error","name":"EnforcedPause","inputs":[]},{"type":"error","name":"ExpectedPause","inputs":[]},{"type":"error","name":"InvalidInitialization","inputs":[]},{"type":"error","name":"InvalidTotalPercentage","inputs":[]},{"type":"error","name":"InvalidVesting","inputs":[]},{"type":"error","name":"NoPermissionToRelease","inputs":[]},{"type":"error","name":"NoVestedTokensAvailable","inputs":[]},{"type":"error","name":"NoVestedTokensForRelease","inputs":[]},{"type":"error","name":"NotEnoughFund","inputs":[{"name":"real","type":"uint256","internalType":"uint256"},{"name":"expected","type":"uint256","internalType":"uint256"}]},{"type":"error","name":"NotInitializing","inputs":[]},{"type":"error","name":"OverMaximumReleaseStep","inputs":[]},{"type":"error","name":"ReentrancyGuardReentrantCall","inputs":[]},{"type":"error","name":"StringsInsufficientHexLength","inputs":[{"name":"value","type":"uint256","internalType":"uint256"},{"name":"length","type":"uint256","internalType":"uint256"}]},{"type":"error","name":"VestingAlreadyStarted","inputs":[{"name":"beneficiary","type":"address","internalType":"address"}]},{"type":"error","name":"VestingNotStarted","inputs":[]}],"bytecode":{"object":"0x608060405234801561001057600080fd5b50612f75806100206000396000f3fe60806040526004361061021e5760003560e01c80635c975abb1161012357806391d14854116100ab578063c87b56dd1161006f578063c87b56dd146106f6578063d547741f14610716578063e63ab1e914610736578063e985e9c514610758578063f2407ca41461077857600080fd5b806391d148541461066c57806395d89b411461068c578063a217fddf146106a1578063a22cb465146106b6578063b88d4fde146106d657600080fd5b806370480275116100f257806370480275146105e457806370a08231146106045780637623f00e1461062457806382dc1ec4146106375780638456cb591461065757600080fd5b80635c975abb1461055f5780635f1e6f6d146105845780636352211e146105a45780636b2c0f55146105c457600080fd5b80632ffac82c116101a65780633d538ecf116101755780633d538ecf146104c75780633f4ba83a146104dd57806342842e0e146104f257806346fbf68e1461051257806348f6e3601461053257600080fd5b80632ffac82c146103b657806336568abe1461045257806337bdc99b146104725780633bda01db1461049257600080fd5b80631785f53c116101ed5780631785f53c1461030857806323b872dd14610328578063248a9ca31461034857806324d7806c146103765780632f2ff15d1461039657600080fd5b806301ffc9a71461025757806306fdde031461028c578063081812fc146102ae578063095ea7b3146102e657600080fd5b3661025257604051349033907f88a5966d370b9919b20f3e2c13ff65706f196a4e32cc2c12bf57088f8852587490600090a3005b600080fd5b34801561026357600080fd5b50610277610272366004612643565b610798565b60405190151581526020015b60405180910390f35b34801561029857600080fd5b506102a16107a9565b60405161028391906126b0565b3480156102ba57600080fd5b506102ce6102c93660046126c3565b61084d565b6040516001600160a01b039091168152602001610283565b3480156102f257600080fd5b506103066103013660046126f8565b610862565b005b34801561031457600080fd5b50610306610323366004612722565b610871565b34801561033457600080fd5b5061030661034336600461273d565b61087f565b34801561035457600080fd5b506103686103633660046126c3565b61090f565b604051908152602001610283565b34801561038257600080fd5b50610277610391366004612722565b610931565b3480156103a257600080fd5b506103066103b1366004612779565b61093d565b3480156103c257600080fd5b506104146103d13660046126c3565b60026020819052600091825260409091208054600182015492820154600383015460048401546005909401546001600160a01b0393841695949390921692909186565b604080516001600160a01b039788168152602081019690965293909516928401929092526060830152608082015260a081019190915260c001610283565b34801561045e57600080fd5b5061030661046d366004612779565b610959565b34801561047e57600080fd5b5061030661048d3660046126c3565b610991565b34801561049e57600080fd5b506104b26104ad3660046127a5565b610bdb565b60408051928352602083019190915201610283565b3480156104d357600080fd5b5061036860005481565b3480156104e957600080fd5b50610306610c17565b3480156104fe57600080fd5b5061030661050d36600461273d565b610c55565b34801561051e57600080fd5b5061027761052d366004612722565b610c70565b34801561053e57600080fd5b5061036861054d3660046126c3565b60046020526000908152604090205481565b34801561056b57600080fd5b50600080516020612f008339815191525460ff16610277565b34801561059057600080fd5b5061030661059f3660046128ac565b610c8a565b3480156105b057600080fd5b506102ce6105bf3660046126c3565b610da5565b3480156105d057600080fd5b506103066105df366004612722565b610db0565b3480156105f057600080fd5b506103066105ff366004612722565b610dc8565b34801561061057600080fd5b5061036861061f366004612722565b610dd3565b610306610632366004612944565b610e2f565b34801561064357600080fd5b50610306610652366004612722565b6110a3565b34801561066357600080fd5b506103066110bb565b34801561067857600080fd5b50610277610687366004612779565b6110f7565b34801561069857600080fd5b506102a161112f565b3480156106ad57600080fd5b50610368600081565b3480156106c257600080fd5b506103066106d1366004612a55565b61116e565b3480156106e257600080fd5b506103066106f1366004612a8c565b611179565b34801561070257600080fd5b506102a16107113660046126c3565b611190565b34801561072257600080fd5b50610306610731366004612779565b61120c565b34801561074257600080fd5b50610368600080516020612ec083398151915281565b34801561076457600080fd5b50610277610773366004612afb565b611228565b34801561078457600080fd5b506103066107933660046126c3565b611275565b60006107a3826112f1565b92915050565b600080516020612ea083398151915280546060919081906107c990612b25565b80601f01602080910402602001604051908101604052809291908181526020018280546107f590612b25565b80156108425780601f1061081757610100808354040283529160200191610842565b820191906000526020600020905b81548152906001019060200180831161082557829003601f168201915b505050505091505090565b600061085882611331565b506107a382611369565b61086d8282336113a3565b5050565b61087c60008261120c565b50565b6001600160a01b0382166108ae57604051633250574960e11b8152600060048201526024015b60405180910390fd5b60006108bb8383336113b0565b9050836001600160a01b0316816001600160a01b031614610909576040516364283d7b60e01b81526001600160a01b03808616600483015260248201849052821660448201526064016108a5565b50505050565b6000908152600080516020612ee0833981519152602052604090206001015490565b60006107a381836110f7565b6109468261090f565b61094f816114ba565b61090983836114c4565b6001600160a01b03811633146109825760405163334bd91960e11b815260040160405180910390fd5b61098c8282611569565b505050565b6109996115e5565b6109a161162f565b336109ab82610da5565b6001600160a01b0316146109d25760405163a736e60f60e01b815260040160405180910390fd5b60008181526002602090815260408083206005909252909120805415806109fe57508054600583015410155b15610a1c57604051638bdb538160e01b815260040160405180910390fd5b6001820154600090815b8354811015610ae857838181548110610a4157610a41612b5f565b906000526020600020906002020160000154610e10610a609190612b8b565b610a6a9083612ba2565b915084600501548110610ae057814210610ae8576000612710858381548110610a9557610a95612b5f565b9060005260206000209060020201600101548760030154610ab69190612b8b565b610ac09190612bb5565b9050610acc8185612ba2565b9350610ad9826001612ba2565b6005870155505b600101610a26565b5060008211610b0a57604051630350741560e41b815260040160405180910390fd5b81846004016000828254610b1e9190612ba2565b909155505060028401546001600160a01b031615610b54576002840154610b4f906001600160a01b03163384611660565b610b5e565b610b5e338361178a565b8360030154846004015403610b8157610b7833308761087f565b610b8185611864565b604051829033907fb21fb52d5749b80f3182f8c6992236b5e5576681880914484d7f4c9b062e619e90600090a35050505061087c60017f9b779b17422d0df92223018b32b4d1fa46e071723d6817e2486d003becc55f0055565b60056020528160005260406000208181548110610bf757600080fd5b600091825260209091206002909102018054600190910154909250905082565b610c2f600080516020612ec0833981519152336110f7565b610c4b5760405162461bcd60e51b81526004016108a590612bd7565b610c5361189f565b565b61098c83838360405180602001604052806000815250611179565b60006107a3600080516020612ec0833981519152836110f7565b600080516020612f208339815191528054600160401b810460ff1615906001600160401b0316600081158015610cbd5750825b90506000826001600160401b03166001148015610cd95750303b155b905081158015610ce7575080155b15610d055760405163f92ee8a960e01b815260040160405180910390fd5b845467ffffffffffffffff191660011785558315610d2f57845460ff60401b1916600160401b1785555b610d38896118ff565b610d428888611a19565b6001610d4e8782612c56565b5060006003558315610d9a57845460ff60401b19168555604051600181527fc7f505b2f371ae2175ee4913f4499e1f2633a7b5936321eed1cdaeb6115181d29060200160405180910390a15b505050505050505050565b60006107a382611331565b61087c600080516020612ec08339815191528261120c565b61087c60008261093d565b6000600080516020612ea08339815191526001600160a01b038316610e0e576040516322718ad960e21b8152600060048201526024016108a5565b6001600160a01b039092166000908152600390920160205250604090205490565b610e376115e5565b610e426000336110f7565b610e5e5760405162461bcd60e51b81526004016108a590612bd7565b60008581526004602052604090205415610e8b57604051633146ddcb60e11b815260040160405180910390fd5b6040516333b988f560e01b815273__$2effe1973215a034e8e4a17bdeb5710028$__906333b988f590610ec2908490600401612d15565b60006040518083038186803b158015610eda57600080fd5b505af4158015610eee573d6000803e3d6000fd5b5050506001600160a01b0384169050610f2f57813414610f2a576040516301055eed60e21b8152600481018390523460248201526044016108a5565b610f3b565b610f3b83333085611a2b565b426000610f488688611b61565b6040805160c08101825233815260208082018681526001600160a01b038a8116848601908152606085018b815260006080870181815260a088018281528a835260028089528a84208a5181549089166001600160a01b031991821617825598516001820155955190860180549190971697169690961790945590516003830155915160048201559151600592830155915291822092935091905b85518110156110345781868281518110610ffe57610ffe612b5f565b60209081029190910181015182546001818101855560009485529383902082516002909202019081559101519082015501610fe2565b50887f594f8f41d82fb10f72280441fa2e57d8a6eb22f177f4de984eb1d8469a1bd92c8460405161106791815260200190565b60405180910390a25050505061109c60017f9b779b17422d0df92223018b32b4d1fa46e071723d6817e2486d003becc55f0055565b5050505050565b61087c600080516020612ec08339815191528261093d565b6110d3600080516020612ec0833981519152336110f7565b6110ef5760405162461bcd60e51b81526004016108a590612bd7565b610c53611bc7565b6000918252600080516020612ee0833981519152602090815260408084206001600160a01b0393909316845291905290205460ff1690565b7f80bb2b638cc20bc4d0a60d66940f3ab4a00c1d7b313497ca82fb0b4ab00793018054606091600080516020612ea0833981519152916107c990612b25565b61086d338383611c10565b61118484848461087f565b61090984848484611cc1565b606061119b82611331565b5060006111a6611de3565b905060008151116111c65760405180602001604052806000815250611205565b806111d046611e75565b6111d930611f07565b6111e286611e75565b6040516020016111f59493929190612d64565b6040516020818303038152906040525b9392505050565b6112158261090f565b61121e816114ba565b6109098383611569565b6001600160a01b0391821660009081527f80bb2b638cc20bc4d0a60d66940f3ab4a00c1d7b313497ca82fb0b4ab00793056020908152604080832093909416825291909152205460ff1690565b6112806000336110f7565b61129c5760405162461bcd60e51b81526004016108a590612bd7565b600081116112ec5760405162461bcd60e51b815260206004820152601a60248201527f4d6f726967696e4170703a20696e76616c69642076616c75652100000000000060448201526064016108a5565b600055565b60006001600160e01b031982166380ac58cd60e01b148061132257506001600160e01b03198216635b5e139f60e01b145b806107a357506107a382611f1d565b60008061133d83611f52565b90506001600160a01b0381166107a357604051637e27328960e01b8152600481018490526024016108a5565b60009081527f80bb2b638cc20bc4d0a60d66940f3ab4a00c1d7b313497ca82fb0b4ab007930460205260409020546001600160a01b031690565b61098c8383836001611f8c565b6000600080516020612ea0833981519152816113cb85611f52565b90506001600160a01b038416156113e7576113e78185876120a2565b6001600160a01b0381161561142757611404600086600080611f8c565b6001600160a01b0381166000908152600383016020526040902080546000190190555b6001600160a01b03861615611458576001600160a01b03861660009081526003830160205260409020805460010190555b600085815260028301602052604080822080546001600160a01b0319166001600160a01b038a811691821790925591518893918516917fddf252ad1be2c89b69c2b068fc378daa952ba7f163c4a11628f55a4df523b3ef91a495945050505050565b61087c8133612106565b6000600080516020612ee08339815191526114df84846110f7565b61155f576000848152602082815260408083206001600160a01b03871684529091529020805460ff191660011790556115153390565b6001600160a01b0316836001600160a01b0316857f2f8788117e7eff1d82e926ec794901d17c78024a50270940304540a733656f0d60405160405180910390a460019150506107a3565b60009150506107a3565b6000600080516020612ee083398151915261158484846110f7565b1561155f576000848152602082815260408083206001600160a01b0387168085529252808320805460ff1916905551339287917ff6391f5c32d9c69d2a47ea670b442974b53935d1edc7fd64eb21e047a839171b9190a460019150506107a3565b7f9b779b17422d0df92223018b32b4d1fa46e071723d6817e2486d003becc55f0080546001190161162957604051633ee5aeb560e01b815260040160405180910390fd5b60029055565b600080516020612f008339815191525460ff1615610c535760405163d93c066560e01b815260040160405180910390fd5b604080516001600160a01b038481166024830152604480830185905283518084039091018152606490920183526020820180516001600160e01b031663a9059cbb60e01b17905291516000928392908716916116bc9190612ddc565b6000604051808303816000865af19150503d80600081146116f9576040519150601f19603f3d011682016040523d82523d6000602084013e6116fe565b606091505b50915091508180156117285750805115806117285750808060200190518101906117289190612df8565b61109c5760405162461bcd60e51b815260206004820152602d60248201527f5472616e7366657248656c7065723a3a736166655472616e736665723a20747260448201526c185b9cd9995c8819985a5b1959609a1b60648201526084016108a5565b604080516000808252602082019092526001600160a01b0384169083906040516117b49190612ddc565b60006040518083038185875af1925050503d80600081146117f1576040519150601f19603f3d011682016040523d82523d6000602084013e6117f6565b606091505b505090508061098c5760405162461bcd60e51b815260206004820152603460248201527f5472616e7366657248656c7065723a3a736166655472616e736665724554483a60448201527308115512081d1c985b9cd9995c8819985a5b195960621b60648201526084016108a5565b600061187360008360006113b0565b90506001600160a01b03811661086d57604051637e27328960e01b8152600481018390526024016108a5565b6118a761213f565b600080516020612f00833981519152805460ff191681557f5db9ee0a495bf2e6ff9c91a7834c1ba4fdd244a5e8aa4e537bd38aeae4b073aa335b6040516001600160a01b03909116815260200160405180910390a150565b600080516020612f208339815191528054600160401b810460ff1615906001600160401b03166000811580156119325750825b90506000826001600160401b0316600114801561194e5750303b155b90508115801561195c575080155b1561197a5760405163f92ee8a960e01b815260040160405180910390fd5b845467ffffffffffffffff1916600117855583156119a457845460ff60401b1916600160401b1785555b6119ac61216f565b6119b461216f565b6119bc612177565b6119c586612198565b60646000558315611a1157845460ff60401b19168555604051600181527fc7f505b2f371ae2175ee4913f4499e1f2633a7b5936321eed1cdaeb6115181d2906020015b60405180910390a15b505050505050565b611a216122a4565b61086d82826122db565b604080516001600160a01b0385811660248301528481166044830152606480830185905283518084039091018152608490920183526020820180516001600160e01b03166323b872dd60e01b1790529151600092839290881691611a8f9190612ddc565b6000604051808303816000865af19150503d8060008114611acc576040519150601f19603f3d011682016040523d82523d6000602084013e611ad1565b606091505b5091509150818015611afb575080511580611afb575080806020019051810190611afb9190612df8565b611a115760405162461bcd60e51b815260206004820152603160248201527f5472616e7366657248656c7065723a3a7472616e7366657246726f6d3a207472604482015270185b9cd9995c919c9bdb4819985a5b1959607a1b60648201526084016108a5565b6000611b6d81336110f7565b611b895760405162461bcd60e51b81526004016108a590612bd7565b60038054906000611b9983612e15565b90915550506003546000838152600460205260409020819055611bbd90849061230c565b5060035492915050565b611bcf61162f565b600080516020612f00833981519152805460ff191660011781557f62e78cea01bee320cd4e420270b5ea74000d11b0c9f74754ebdbfc544b05a258336118e1565b600080516020612ea08339815191526001600160a01b038316611c5157604051630b61174360e31b81526001600160a01b03841660048201526024016108a5565b6001600160a01b038481166000818152600584016020908152604080832094881680845294825291829020805460ff191687151590811790915591519182527f17307eab39ab6107e8899845ad3d59bd9653f200f220920489ca2b5937696c31910160405180910390a350505050565b6001600160a01b0383163b1561090957604051630a85bd0160e11b81526001600160a01b0384169063150b7a0290611d03903390889087908790600401612e2e565b6020604051808303816000875af1925050508015611d3e575060408051601f3d908101601f19168201909252611d3b91810190612e6b565b60015b611da7573d808015611d6c576040519150601f19603f3d011682016040523d82523d6000602084013e611d71565b606091505b508051600003611d9f57604051633250574960e11b81526001600160a01b03851660048201526024016108a5565b805181602001fd5b6001600160e01b03198116630a85bd0160e11b1461109c57604051633250574960e11b81526001600160a01b03851660048201526024016108a5565b606060018054611df290612b25565b80601f0160208091040260200160405190810160405280929190818152602001828054611e1e90612b25565b8015611e6b5780601f10611e4057610100808354040283529160200191611e6b565b820191906000526020600020905b815481529060010190602001808311611e4e57829003601f168201915b5050505050905090565b60606000611e8283612371565b60010190506000816001600160401b03811115611ea157611ea16127c7565b6040519080825280601f01601f191660200182016040528015611ecb576020820181803683370190505b5090508181016020015b600019016f181899199a1a9b1b9c1cb0b131b232b360811b600a86061a8153600a8504945084611ed557509392505050565b60606107a36001600160a01b0383166014612449565b60006001600160e01b03198216637965db0b60e01b14806107a357506301ffc9a760e01b6001600160e01b03198316146107a3565b60009081527f80bb2b638cc20bc4d0a60d66940f3ab4a00c1d7b313497ca82fb0b4ab007930260205260409020546001600160a01b031690565b600080516020612ea08339815191528180611faf57506001600160a01b03831615155b15612071576000611fbf85611331565b90506001600160a01b03841615801590611feb5750836001600160a01b0316816001600160a01b031614155b8015611ffe5750611ffc8185611228565b155b156120275760405163a9fbf51f60e01b81526001600160a01b03851660048201526024016108a5565b821561206f5784866001600160a01b0316826001600160a01b03167f8c5be1e5ebec7d5bd14f71427d1e84f3dd0314c0f7b2291e5b200ac8c7c3b92560405160405180910390a45b505b600093845260040160205250506040902080546001600160a01b0319166001600160a01b0392909216919091179055565b6120ad8383836125c8565b61098c576001600160a01b0383166120db57604051637e27328960e01b8152600481018290526024016108a5565b60405163177e802f60e01b81526001600160a01b0383166004820152602481018290526044016108a5565b61211082826110f7565b61086d5760405163e2517d3f60e01b81526001600160a01b0382166004820152602481018390526044016108a5565b600080516020612f008339815191525460ff16610c5357604051638dfc202b60e01b815260040160405180910390fd5b610c536122a4565b61217f6122a4565b600080516020612f00833981519152805460ff19169055565b600080516020612f208339815191528054600160401b810460ff1615906001600160401b03166000811580156121cb5750825b90506000826001600160401b031660011480156121e75750303b155b9050811580156121f5575080155b156122135760405163f92ee8a960e01b815260040160405180910390fd5b845467ffffffffffffffff19166001178555831561223d57845460ff60401b1916600160401b1785555b6122486000876114c4565b50612261600080516020612ec0833981519152876114c4565b508315611a1157845460ff60401b19168555604051600181527fc7f505b2f371ae2175ee4913f4499e1f2633a7b5936321eed1cdaeb6115181d290602001611a08565b600080516020612f2083398151915254600160401b900460ff16610c5357604051631afcd79f60e31b815260040160405180910390fd5b6122e36122a4565b600080516020612ea0833981519152806122fd8482612c56565b50600181016109098382612c56565b6001600160a01b03821661233657604051633250574960e11b8152600060048201526024016108a5565b6000612344838360006113b0565b90506001600160a01b0381161561098c576040516339e3563760e11b8152600060048201526024016108a5565b60008072184f03e93ff9f4daa797ed6e38ed64bf6a1f0160401b83106123b05772184f03e93ff9f4daa797ed6e38ed64bf6a1f0160401b830492506040015b6d04ee2d6d415b85acef810000000083106123dc576d04ee2d6d415b85acef8100000000830492506020015b662386f26fc1000083106123fa57662386f26fc10000830492506010015b6305f5e1008310612412576305f5e100830492506008015b612710831061242657612710830492506004015b60648310612438576064830492506002015b600a83106107a35760010192915050565b6060826000612459846002612b8b565b612464906002612ba2565b6001600160401b0381111561247b5761247b6127c7565b6040519080825280601f01601f1916602001820160405280156124a5576020820181803683370190505b509050600360fc1b816000815181106124c0576124c0612b5f565b60200101906001600160f81b031916908160001a905350600f60fb1b816001815181106124ef576124ef612b5f565b60200101906001600160f81b031916908160001a9053506000612513856002612b8b565b61251e906001612ba2565b90505b6001811115612596576f181899199a1a9b1b9c1cb0b131b232b360811b83600f166010811061255257612552612b5f565b1a60f81b82828151811061256857612568612b5f565b60200101906001600160f81b031916908160001a90535060049290921c9161258f81612e88565b9050612521565b5081156125c05760405163e22e27eb60e01b815260048101869052602481018590526044016108a5565b949350505050565b60006001600160a01b038316158015906125c05750826001600160a01b0316846001600160a01b0316148061260257506126028484611228565b806125c05750826001600160a01b031661261b83611369565b6001600160a01b031614949350505050565b6001600160e01b03198116811461087c57600080fd5b60006020828403121561265557600080fd5b81356112058161262d565b60005b8381101561267b578181015183820152602001612663565b50506000910152565b6000815180845261269c816020860160208601612660565b601f01601f19169290920160200192915050565b6020815260006112056020830184612684565b6000602082840312156126d557600080fd5b5035919050565b80356001600160a01b03811681146126f357600080fd5b919050565b6000806040838503121561270b57600080fd5b612714836126dc565b946020939093013593505050565b60006020828403121561273457600080fd5b611205826126dc565b60008060006060848603121561275257600080fd5b61275b846126dc565b9250612769602085016126dc565b9150604084013590509250925092565b6000806040838503121561278c57600080fd5b8235915061279c602084016126dc565b90509250929050565b600080604083850312156127b857600080fd5b50508035926020909101359150565b634e487b7160e01b600052604160045260246000fd5b604080519081016001600160401b03811182821017156127ff576127ff6127c7565b60405290565b604051601f8201601f191681016001600160401b038111828210171561282d5761282d6127c7565b604052919050565b60006001600160401b0383111561284e5761284e6127c7565b612861601f8401601f1916602001612805565b905082815283838301111561287557600080fd5b828260208301376000602084830101529392505050565b600082601f83011261289d57600080fd5b61120583833560208501612835565b600080600080608085870312156128c257600080fd5b6128cb856126dc565b935060208501356001600160401b03808211156128e757600080fd5b6128f38883890161288c565b9450604087013591508082111561290957600080fd5b6129158883890161288c565b9350606087013591508082111561292b57600080fd5b506129388782880161288c565b91505092959194509250565b600080600080600060a0868803121561295c57600080fd5b85359450602061296d8188016126dc565b9450604061297d604089016126dc565b94506060880135935060808801356001600160401b03808211156129a057600080fd5b818a0191508a601f8301126129b457600080fd5b8135818111156129c6576129c66127c7565b6129d4858260051b01612805565b818152858101925060069190911b83018501908c8211156129f457600080fd5b928501925b81841015612a345784848e031215612a115760008081fd5b612a196127dd565b843581528685013587820152835292840192918501916129f9565b8096505050505050509295509295909350565b801515811461087c57600080fd5b60008060408385031215612a6857600080fd5b612a71836126dc565b91506020830135612a8181612a47565b809150509250929050565b60008060008060808587031215612aa257600080fd5b612aab856126dc565b9350612ab9602086016126dc565b92506040850135915060608501356001600160401b03811115612adb57600080fd5b8501601f81018713612aec57600080fd5b61293887823560208401612835565b60008060408385031215612b0e57600080fd5b612b17836126dc565b915061279c602084016126dc565b600181811c90821680612b3957607f821691505b602082108103612b5957634e487b7160e01b600052602260045260246000fd5b50919050565b634e487b7160e01b600052603260045260246000fd5b634e487b7160e01b600052601160045260246000fd5b80820281158282048414176107a3576107a3612b75565b808201808211156107a3576107a3612b75565b600082612bd257634e487b7160e01b600052601260045260246000fd5b500490565b6020808252601e908201527f4f776e61626c655061757361626c653a206163636573732064656e6965640000604082015260600190565b601f82111561098c576000816000526020600020601f850160051c81016020861015612c375750805b601f850160051c820191505b81811015611a1157828155600101612c43565b81516001600160401b03811115612c6f57612c6f6127c7565b612c8381612c7d8454612b25565b84612c0e565b602080601f831160018114612cb85760008415612ca05750858301515b600019600386901b1c1916600185901b178555611a11565b600085815260208120601f198616915b82811015612ce757888601518255948401946001909101908401612cc8565b5085821015612d055787850151600019600388901b60f8161c191681555b5050505050600190811b01905550565b602080825282518282018190526000919060409081850190868401855b82811015612d5757815180518552860151868501529284019290850190600101612d32565b5091979650505050505050565b60008551612d76818460208a01612660565b8083019050602f60f81b8082528651612d96816001850160208b01612660565b600192019182018190528551612db3816002850160208a01612660565b60029201918201528351612dce816003840160208801612660565b016003019695505050505050565b60008251612dee818460208701612660565b9190910192915050565b600060208284031215612e0a57600080fd5b815161120581612a47565b600060018201612e2757612e27612b75565b5060010190565b6001600160a01b0385811682528416602082015260408101839052608060608201819052600090612e6190830184612684565b9695505050505050565b600060208284031215612e7d57600080fd5b81516112058161262d565b600081612e9757612e97612b75565b50600019019056fe80bb2b638cc20bc4d0a60d66940f3ab4a00c1d7b313497ca82fb0b4ab007930065d7a28e3265b37a6474929f336521b332c1681b933f6cb9f3376673440d862a02dd7bc7dec4dceedda775e58dd541e08a116c6c53815c0bd028192f7b626800cd5ed15c6e187e77e9aee88184c21f4f2182ab5827cb3b7e07fbedcd63f03300f0c57e16840df040f15088dc2f81fe391c3923bec73e23a9662efc9c229c6a00a26469706673582212209f4293daac5b16261958bbd6e86e99820b22216cab505364af0d9b604e33269164736f6c63430008170033","linkReferences":{"contracts/abstracts/libs/utils/AtomicSwapMsgValidator.sol":{"AtomicSwapMsgValidator":[{"start":3770,"length":20}]}}},"methodIdentifiers":{"DEFAULT_ADMIN_ROLE()":"a217fddf","PAUSER_ROLE()":"e63ab1e9","addAdmin(address)":"70480275","addPauser(address)":"82dc1ec4","approve(address,uint256)":"095ea7b3","balanceOf(address)":"70a08231","getApproved(uint256)":"081812fc","getRoleAdmin(bytes32)":"248a9ca3","grantRole(bytes32,address)":"2f2ff15d","hasRole(bytes32,address)":"91d14854","initialize(address,string,string,string)":"5f1e6f6d","isAdmin(address)":"24d7806c","isApprovedForAll(address,address)":"e985e9c5","isPauser(address)":"46fbf68e","name()":"06fdde03","ownerOf(uint256)":"6352211e","paginationSize()":"3d538ecf","pause()":"8456cb59","paused()":"5c975abb","release(uint256)":"37bdc99b","releaseInfo(uint256,uint256)":"3bda01db","removeAdmin(address)":"1785f53c","removePauser(address)":"6b2c0f55","renounceRole(bytes32,address)":"36568abe","revokeRole(bytes32,address)":"d547741f","safeTransferFrom(address,address,uint256)":"42842e0e","safeTransferFrom(address,address,uint256,bytes)":"b88d4fde","setApprovalForAll(address,bool)":"a22cb465","setPaginationSize(uint256)":"f2407ca4","startVesting(bytes32,address,address,uint256,(uint256,uint256)[])":"7623f00e","supportsInterface(bytes4)":"01ffc9a7","symbol()":"95d89b41","tokenURI(uint256)":"c87b56dd","transferFrom(address,address,uint256)":"23b872dd","unpause()":"3f4ba83a","vesting(uint256)":"2ffac82c","vestingIds(bytes32)":"48f6e360"},"id":10}