{"abi":[{"type":"receive","stateMutability":"payable"},{"type":"function","name":"DEFAULT_ADMIN_ROLE","inputs":[],"outputs":[{"name":"","type":"bytes32","internalType":"bytes32"}],"stateMutability":"view"},{"type":"function","name":"PAUSER_ROLE","inputs":[],"outputs":[{"name":"","type":"bytes32","internalType":"bytes32"}],"stateMutability":"view"},{"type":"function","name":"addAdmin","inputs":[{"name":"_account","type":"address","internalType":"address"}],"outputs":[],"stateMutability":"nonpayable"},{"type":"function","name":"addPauser","inputs":[{"name":"_account","type":"address","internalType":"address"}],"outputs":[],"stateMutability":"nonpayable"},{"type":"function","name":"approve","inputs":[{"name":"to","type":"address","internalType":"address"},{"name":"tokenId","type":"uint256","internalType":"uint256"}],"outputs":[],"stateMutability":"nonpayable"},{"type":"function","name":"balanceOf","inputs":[{"name":"owner","type":"address","internalType":"address"}],"outputs":[{"name":"","type":"uint256","internalType":"uint256"}],"stateMutability":"view"},{"type":"function","name":"getApproved","inputs":[{"name":"tokenId","type":"uint256","internalType":"uint256"}],"outputs":[{"name":"","type":"address","internalType":"address"}],"stateMutability":"view"},{"type":"function","name":"getRoleAdmin","inputs":[{"name":"role","type":"bytes32","internalType":"bytes32"}],"outputs":[{"name":"","type":"bytes32","internalType":"bytes32"}],"stateMutability":"view"},{"type":"function","name":"grantRole","inputs":[{"name":"role","type":"bytes32","internalType":"bytes32"},{"name":"account","type":"address","internalType":"address"}],"outputs":[],"stateMutability":"nonpayable"},{"type":"function","name":"hasRole","inputs":[{"name":"role","type":"bytes32","internalType":"bytes32"},{"name":"account","type":"address","internalType":"address"}],"outputs":[{"name":"","type":"bool","internalType":"bool"}],"stateMutability":"view"},{"type":"function","name":"initialize","inputs":[{"name":"admin","type":"address","internalType":"address"},{"name":"vault","type":"address","internalType":"address"},{"name":"name","type":"string","internalType":"string"},{"name":"symbol","type":"string","internalType":"string"},{"name":"baseURL","type":"string","internalType":"string"}],"outputs":[],"stateMutability":"nonpayable"},{"type":"function","name":"isAdmin","inputs":[{"name":"_account","type":"address","internalType":"address"}],"outputs":[{"name":"","type":"bool","internalType":"bool"}],"stateMutability":"view"},{"type":"function","name":"isApprovedForAll","inputs":[{"name":"owner","type":"address","internalType":"address"},{"name":"operator","type":"address","internalType":"address"}],"outputs":[{"name":"","type":"bool","internalType":"bool"}],"stateMutability":"view"},{"type":"function","name":"isPauser","inputs":[{"name":"_account","type":"address","internalType":"address"}],"outputs":[{"name":"","type":"bool","internalType":"bool"}],"stateMutability":"view"},{"type":"function","name":"name","inputs":[],"outputs":[{"name":"","type":"string","internalType":"string"}],"stateMutability":"view"},{"type":"function","name":"ownerOf","inputs":[{"name":"tokenId","type":"uint256","internalType":"uint256"}],"outputs":[{"name":"","type":"address","internalType":"address"}],"stateMutability":"view"},{"type":"function","name":"paginationSize","inputs":[],"outputs":[{"name":"","type":"uint256","internalType":"uint256"}],"stateMutability":"view"},{"type":"function","name":"pause","inputs":[],"outputs":[],"stateMutability":"nonpayable"},{"type":"function","name":"paused","inputs":[],"outputs":[{"name":"","type":"bool","internalType":"bool"}],"stateMutability":"view"},{"type":"function","name":"release","inputs":[{"name":"vestingId","type":"uint256","internalType":"uint256"}],"outputs":[],"stateMutability":"nonpayable"},{"type":"function","name":"releaseInfo","inputs":[{"name":"","type":"uint256","internalType":"uint256"},{"name":"","type":"uint256","internalType":"uint256"}],"outputs":[{"name":"durationInHours","type":"uint256","internalType":"uint256"},{"name":"percentage","type":"uint256","internalType":"uint256"}],"stateMutability":"view"},{"type":"function","name":"removeAdmin","inputs":[{"name":"_account","type":"address","internalType":"address"}],"outputs":[],"stateMutability":"nonpayable"},{"type":"function","name":"removePauser","inputs":[{"name":"_account","type":"address","internalType":"address"}],"outputs":[],"stateMutability":"nonpayable"},{"type":"function","name":"renounceRole","inputs":[{"name":"role","type":"bytes32","internalType":"bytes32"},{"name":"callerConfirmation","type":"address","internalType":"address"}],"outputs":[],"stateMutability":"nonpayable"},{"type":"function","name":"revokeRole","inputs":[{"name":"role","type":"bytes32","internalType":"bytes32"},{"name":"account","type":"address","internalType":"address"}],"outputs":[],"stateMutability":"nonpayable"},{"type":"function","name":"safeTransferFrom","inputs":[{"name":"from","type":"address","internalType":"address"},{"name":"to","type":"address","internalType":"address"},{"name":"tokenId","type":"uint256","internalType":"uint256"}],"outputs":[],"stateMutability":"nonpayable"},{"type":"function","name":"safeTransferFrom","inputs":[{"name":"from","type":"address","internalType":"address"},{"name":"to","type":"address","internalType":"address"},{"name":"tokenId","type":"uint256","internalType":"uint256"},{"name":"data","type":"bytes","internalType":"bytes"}],"outputs":[],"stateMutability":"nonpayable"},{"type":"function","name":"setApprovalForAll","inputs":[{"name":"operator","type":"address","internalType":"address"},{"name":"approved","type":"bool","internalType":"bool"}],"outputs":[],"stateMutability":"nonpayable"},{"type":"function","name":"setPaginationSize","inputs":[{"name":"_paginationSize","type":"uint256","internalType":"uint256"}],"outputs":[],"stateMutability":"nonpayable"},{"type":"function","name":"startVesting","inputs":[{"name":"orderId","type":"bytes32","internalType":"bytes32"},{"name":"buyer","type":"address","internalType":"address"},{"name":"token","type":"address","internalType":"address"},{"name":"totalAmount","type":"uint256","internalType":"uint256"},{"name":"releases","type":"tuple[]","internalType":"struct IAtomicSwapBase.Release[]","components":[{"name":"durationInHours","type":"uint256","internalType":"uint256"},{"name":"percentage","type":"uint256","internalType":"uint256"}]},{"name":"isWithdraw","type":"bool","internalType":"bool"}],"outputs":[],"stateMutability":"payable"},{"type":"function","name":"supportsInterface","inputs":[{"name":"interfaceId","type":"bytes4","internalType":"bytes4"}],"outputs":[{"name":"","type":"bool","internalType":"bool"}],"stateMutability":"view"},{"type":"function","name":"symbol","inputs":[],"outputs":[{"name":"","type":"string","internalType":"string"}],"stateMutability":"view"},{"type":"function","name":"tokenURI","inputs":[{"name":"tokenId","type":"uint256","internalType":"uint256"}],"outputs":[{"name":"","type":"string","internalType":"string"}],"stateMutability":"view"},{"type":"function","name":"transferFrom","inputs":[{"name":"from","type":"address","internalType":"address"},{"name":"to","type":"address","internalType":"address"},{"name":"tokenId","type":"uint256","internalType":"uint256"}],"outputs":[],"stateMutability":"nonpayable"},{"type":"function","name":"unpause","inputs":[],"outputs":[],"stateMutability":"nonpayable"},{"type":"function","name":"vesting","inputs":[{"name":"","type":"uint256","internalType":"uint256"}],"outputs":[{"name":"from","type":"address","internalType":"address"},{"name":"start","type":"uint256","internalType":"uint256"},{"name":"token","type":"address","internalType":"address"},{"name":"totalAmount","type":"uint256","internalType":"uint256"},{"name":"amountReleased","type":"uint256","internalType":"uint256"},{"name":"nextReleaseStep","type":"uint256","internalType":"uint256"},{"name":"isWithdraw","type":"bool","internalType":"bool"}],"stateMutability":"view"},{"type":"function","name":"vestingIds","inputs":[{"name":"","type":"bytes32","internalType":"bytes32"}],"outputs":[{"name":"","type":"uint256","internalType":"uint256"}],"stateMutability":"view"},{"type":"event","name":"Approval","inputs":[{"name":"owner","type":"address","indexed":true,"internalType":"address"},{"name":"approved","type":"address","indexed":true,"internalType":"address"},{"name":"tokenId","type":"uint256","indexed":true,"internalType":"uint256"}],"anonymous":false},{"type":"event","name":"ApprovalForAll","inputs":[{"name":"owner","type":"address","indexed":true,"internalType":"address"},{"name":"operator","type":"address","indexed":true,"internalType":"address"},{"name":"approved","type":"bool","indexed":false,"internalType":"bool"}],"anonymous":false},{"type":"event","name":"Initialized","inputs":[{"name":"version","type":"uint64","indexed":false,"internalType":"uint64"}],"anonymous":false},{"type":"event","name":"NewVesting","inputs":[{"name":"orderId","type":"bytes32","indexed":true,"internalType":"bytes32"},{"name":"tokenId","type":"uint256","indexed":false,"internalType":"uint256"}],"anonymous":false},{"type":"event","name":"Paused","inputs":[{"name":"account","type":"address","indexed":false,"internalType":"address"}],"anonymous":false},{"type":"event","name":"Received","inputs":[{"name":"sender","type":"address","indexed":true,"internalType":"address"},{"name":"amount","type":"uint256","indexed":true,"internalType":"uint256"}],"anonymous":false},{"type":"event","name":"Released","inputs":[{"name":"beneficiary","type":"address","indexed":true,"internalType":"address"},{"name":"amount","type":"uint256","indexed":true,"internalType":"uint256"}],"anonymous":false},{"type":"event","name":"RoleAdminChanged","inputs":[{"name":"role","type":"bytes32","indexed":true,"internalType":"bytes32"},{"name":"previousAdminRole","type":"bytes32","indexed":true,"internalType":"bytes32"},{"name":"newAdminRole","type":"bytes32","indexed":true,"internalType":"bytes32"}],"anonymous":false},{"type":"event","name":"RoleGranted","inputs":[{"name":"role","type":"bytes32","indexed":true,"internalType":"bytes32"},{"name":"account","type":"address","indexed":true,"internalType":"address"},{"name":"sender","type":"address","indexed":true,"internalType":"address"}],"anonymous":false},{"type":"event","name":"RoleRevoked","inputs":[{"name":"role","type":"bytes32","indexed":true,"internalType":"bytes32"},{"name":"account","type":"address","indexed":true,"internalType":"address"},{"name":"sender","type":"address","indexed":true,"internalType":"address"}],"anonymous":false},{"type":"event","name":"Transfer","inputs":[{"name":"from","type":"address","indexed":true,"internalType":"address"},{"name":"to","type":"address","indexed":true,"internalType":"address"},{"name":"tokenId","type":"uint256","indexed":true,"internalType":"uint256"}],"anonymous":false},{"type":"event","name":"Unpaused","inputs":[{"name":"account","type":"address","indexed":false,"internalType":"address"}],"anonymous":false},{"type":"error","name":"AccessControlBadConfirmation","inputs":[]},{"type":"error","name":"AccessControlUnauthorizedAccount","inputs":[{"name":"account","type":"address","internalType":"address"},{"name":"neededRole","type":"bytes32","internalType":"bytes32"}]},{"type":"error","name":"DuplicateReleaseSchedule","inputs":[]},{"type":"error","name":"ERC721IncorrectOwner","inputs":[{"name":"sender","type":"address","internalType":"address"},{"name":"tokenId","type":"uint256","internalType":"uint256"},{"name":"owner","type":"address","internalType":"address"}]},{"type":"error","name":"ERC721InsufficientApproval","inputs":[{"name":"operator","type":"address","internalType":"address"},{"name":"tokenId","type":"uint256","internalType":"uint256"}]},{"type":"error","name":"ERC721InvalidApprover","inputs":[{"name":"approver","type":"address","internalType":"address"}]},{"type":"error","name":"ERC721InvalidOperator","inputs":[{"name":"operator","type":"address","internalType":"address"}]},{"type":"error","name":"ERC721InvalidOwner","inputs":[{"name":"owner","type":"address","internalType":"address"}]},{"type":"error","name":"ERC721InvalidReceiver","inputs":[{"name":"receiver","type":"address","internalType":"address"}]},{"type":"error","name":"ERC721InvalidSender","inputs":[{"name":"sender","type":"address","internalType":"address"}]},{"type":"error","name":"ERC721NonexistentToken","inputs":[{"name":"tokenId","type":"uint256","internalType":"uint256"}]},{"type":"error","name":"EnforcedPause","inputs":[]},{"type":"error","name":"ExpectedPause","inputs":[]},{"type":"error","name":"InvalidInitialization","inputs":[]},{"type":"error","name":"InvalidReleasePercentage","inputs":[]},{"type":"error","name":"InvalidTotalPercentage","inputs":[]},{"type":"error","name":"InvalidVesting","inputs":[]},{"type":"error","name":"NoPermissionToRelease","inputs":[]},{"type":"error","name":"NoVestedTokensAvailable","inputs":[]},{"type":"error","name":"NoVestedTokensForRelease","inputs":[]},{"type":"error","name":"NotEnoughFund","inputs":[{"name":"real","type":"uint256","internalType":"uint256"},{"name":"expected","type":"uint256","internalType":"uint256"}]},{"type":"error","name":"NotInitializing","inputs":[]},{"type":"error","name":"OverMaximumReleaseStep","inputs":[]},{"type":"error","name":"ReentrancyGuardReentrantCall","inputs":[]},{"type":"error","name":"StringsInsufficientHexLength","inputs":[{"name":"value","type":"uint256","internalType":"uint256"},{"name":"length","type":"uint256","internalType":"uint256"}]},{"type":"error","name":"VestingAlreadyStarted","inputs":[{"name":"beneficiary","type":"address","internalType":"address"}]},{"type":"error","name":"VestingNotStarted","inputs":[]},{"type":"error","name":"ZeroReleaseSchedule","inputs":[]}],"bytecode":{"object":"0x608060405234801561001057600080fd5b5061328b806100206000396000f3fe60806040526004361061021e5760003560e01c806346fbf68e1161012357806391d14854116100ab578063c87b56dd1161006f578063c87b56dd14610708578063d547741f14610728578063e63ab1e914610748578063e985e9c51461076a578063f2407ca41461078a57600080fd5b806391d148541461067e57806395d89b411461069e578063a217fddf146106b3578063a22cb465146106c8578063b88d4fde146106e857600080fd5b80636b2c0f55116100f25780636b2c0f55146105e9578063704802751461060957806370a082311461062957806382dc1ec4146106495780638456cb591461066957600080fd5b806346fbf68e1461055757806348f6e360146105775780635c975abb146105a45780636352211e146105c957600080fd5b80632f2ff15d116101a65780633bda01db116101755780633bda01db146104b75780633d538ecf146104ec5780633f2f5ee2146105025780633f4ba83a1461052257806342842e0e1461053757600080fd5b80632f2ff15d146103a95780632ffac82c146103c957806336568abe1461047757806337bdc99b1461049757600080fd5b80631785f53c116101ed5780631785f53c1461030857806323b872dd14610328578063248a9ca31461034857806324d7806c146103765780632622981d1461039657600080fd5b806301ffc9a71461025757806306fdde031461028c578063081812fc146102ae578063095ea7b3146102e657600080fd5b3661025257604051349033907f88a5966d370b9919b20f3e2c13ff65706f196a4e32cc2c12bf57088f8852587490600090a3005b600080fd5b34801561026357600080fd5b5061027761027236600461297a565b6107aa565b60405190151581526020015b60405180910390f35b34801561029857600080fd5b506102a16107bb565b60405161028391906129e7565b3480156102ba57600080fd5b506102ce6102c93660046129fa565b61085f565b6040516001600160a01b039091168152602001610283565b3480156102f257600080fd5b50610306610301366004612a2f565b610874565b005b34801561031457600080fd5b50610306610323366004612a59565b610883565b34801561033457600080fd5b50610306610343366004612a74565b610891565b34801561035457600080fd5b506103686103633660046129fa565b610921565b604051908152602001610283565b34801561038257600080fd5b50610277610391366004612a59565b610943565b6103066103a4366004612b37565b61094f565b3480156103b557600080fd5b506103066103c4366004612c49565b610b5a565b3480156103d557600080fd5b506104316103e43660046129fa565b600260208190526000918252604090912080546001820154928201546003830154600484015460058501546006909501546001600160a01b03948516969593909416939192909160ff1687565b604080516001600160a01b039889168152602081019790975294909616938501939093526060840191909152608083015260a082015290151560c082015260e001610283565b34801561048357600080fd5b50610306610492366004612c49565b610b76565b3480156104a357600080fd5b506103066104b23660046129fa565b610bae565b3480156104c357600080fd5b506104d76104d2366004612c75565b610e29565b60408051928352602083019190915201610283565b3480156104f857600080fd5b5061036860005481565b34801561050e57600080fd5b5061030661051d366004612d0e565b610e65565b34801561052e57600080fd5b50610306610f9c565b34801561054357600080fd5b50610306610552366004612a74565b610fda565b34801561056357600080fd5b50610277610572366004612a59565b610ff5565b34801561058357600080fd5b506103686105923660046129fa565b60046020526000908152604090205481565b3480156105b057600080fd5b506000805160206132168339815191525460ff16610277565b3480156105d557600080fd5b506102ce6105e43660046129fa565b61100f565b3480156105f557600080fd5b50610306610604366004612a59565b61101a565b34801561061557600080fd5b50610306610624366004612a59565b611032565b34801561063557600080fd5b50610368610644366004612a59565b61103d565b34801561065557600080fd5b50610306610664366004612a59565b611099565b34801561067557600080fd5b506103066110b1565b34801561068a57600080fd5b50610277610699366004612c49565b6110ed565b3480156106aa57600080fd5b506102a1611125565b3480156106bf57600080fd5b50610368600081565b3480156106d457600080fd5b506103066106e3366004612db7565b611164565b3480156106f457600080fd5b50610306610703366004612dee565b61116f565b34801561071457600080fd5b506102a16107233660046129fa565b611186565b34801561073457600080fd5b50610306610743366004612c49565b611202565b34801561075457600080fd5b506103686000805160206131d683398151915281565b34801561077657600080fd5b50610277610785366004612e69565b61121e565b34801561079657600080fd5b506103066107a53660046129fa565b61126b565b60006107b5826112e7565b92915050565b6000805160206131b683398151915280546060919081906107db90612e93565b80601f016020809104026020016040519081016040528092919081815260200182805461080790612e93565b80156108545780601f1061082957610100808354040283529160200191610854565b820191906000526020600020905b81548152906001019060200180831161083757829003601f168201915b505050505091505090565b600061086a82611327565b506107b58261135f565b61087f828233611399565b5050565b61088e600082611202565b50565b6001600160a01b0382166108c057604051633250574960e11b8152600060048201526024015b60405180910390fd5b60006108cd8383336113a6565b9050836001600160a01b0316816001600160a01b03161461091b576040516364283d7b60e01b81526001600160a01b03808616600483015260248201849052821660448201526064016108b7565b50505050565b60009081526000805160206131f6833981519152602052604090206001015490565b60006107b581836110ed565b6109576114b0565b6109626000336110ed565b61097e5760405162461bcd60e51b81526004016108b790612ecd565b600086815260046020526040902054156109ab57604051633146ddcb60e11b815260040160405180910390fd5b6109b4826114fa565b6006546109cc906001600160a01b03168585846115c7565b4260006109d98789611621565b6040805160e08101825233815260208082018681526001600160a01b038b8116848601908152606085018c815260006080870181815260a088018281528d151560c08a019081528b84526002808a528b85208b518154908a166001600160a01b03199182161782559951600182015596519087018054919098169816979097179095559151600384015590516004830155915160058083019190915592516006909101805491151560ff19909216919091179055915291822092935091905b8651811015610aea5781878281518110610ab457610ab4612f04565b60209081029190910181015182546001818101855560009485529383902082516002909202019081559101519082015501610a98565b50897f594f8f41d82fb10f72280441fa2e57d8a6eb22f177f4de984eb1d8469a1bd92c84604051610b1d91815260200190565b60405180910390a250505050610b5260017f9b779b17422d0df92223018b32b4d1fa46e071723d6817e2486d003becc55f0055565b505050505050565b610b6382610921565b610b6c81611687565b61091b8383611691565b6001600160a01b0381163314610b9f5760405163334bd91960e11b815260040160405180910390fd5b610ba98282611736565b505050565b610bb66114b0565b610bbe6117b2565b33610bc88261100f565b6001600160a01b031614610bef5760405163a736e60f60e01b815260040160405180910390fd5b6000818152600260209081526040808320600590925290912080541580610c1b57508054600583015410155b15610c3957604051638bdb538160e01b815260040160405180910390fd5b6001820154600090815b8354811015610d0557838181548110610c5e57610c5e612f04565b906000526020600020906002020160000154610e10610c7d9190612f30565b610c879083612f47565b915084600501548110610cfd57814210610d05576000612710858381548110610cb257610cb2612f04565b9060005260206000209060020201600101548760030154610cd39190612f30565b610cdd9190612f5a565b9050610ce98185612f47565b9350610cf6826001612f47565b6005870155505b600101610c43565b5060008211610d2757604051630350741560e41b815260040160405180910390fd5b81846004016000828254610d3b9190612f47565b9091555050600684015460ff16610d71576006546002850154610d6c916001600160a01b03908116911633856117e3565b610dcf565b60028401546001600160a01b031615610da2576002840154610d9d906001600160a01b031633846118e4565b610dac565b610dac3383611a15565b8360030154846004015403610dcf57610dc6333087610891565b610dcf85611aef565b604051829033907fb21fb52d5749b80f3182f8c6992236b5e5576681880914484d7f4c9b062e619e90600090a35050505061088e60017f9b779b17422d0df92223018b32b4d1fa46e071723d6817e2486d003becc55f0055565b60056020528160005260406000208181548110610e4557600080fd5b600091825260209091206002909102018054600190910154909250905082565b6000805160206132368339815191528054600160401b810460ff1615906001600160401b0316600081158015610e985750825b90506000826001600160401b03166001148015610eb45750303b155b905081158015610ec2575080155b15610ee05760405163f92ee8a960e01b815260040160405180910390fd5b845467ffffffffffffffff191660011785558315610f0a57845460ff60401b1916600160401b1785555b610f138a611b2a565b610f1d8888611c43565b6001610f298782612fc4565b506000600355600680546001600160a01b0319166001600160a01b038b161790558315610f9057845460ff60401b19168555604051600181527fc7f505b2f371ae2175ee4913f4499e1f2633a7b5936321eed1cdaeb6115181d29060200160405180910390a15b50505050505050505050565b610fb46000805160206131d6833981519152336110ed565b610fd05760405162461bcd60e51b81526004016108b790612ecd565b610fd8611c55565b565b610ba98383836040518060200160405280600081525061116f565b60006107b56000805160206131d6833981519152836110ed565b60006107b582611327565b61088e6000805160206131d683398151915282611202565b61088e600082610b5a565b60006000805160206131b68339815191526001600160a01b038316611078576040516322718ad960e21b8152600060048201526024016108b7565b6001600160a01b039092166000908152600390920160205250604090205490565b61088e6000805160206131d683398151915282610b5a565b6110c96000805160206131d6833981519152336110ed565b6110e55760405162461bcd60e51b81526004016108b790612ecd565b610fd8611cb5565b60009182526000805160206131f6833981519152602090815260408084206001600160a01b0393909316845291905290205460ff1690565b7f80bb2b638cc20bc4d0a60d66940f3ab4a00c1d7b313497ca82fb0b4ab007930180546060916000805160206131b6833981519152916107db90612e93565b61087f338383611cfe565b61117a848484610891565b61091b84848484611daf565b606061119182611327565b50600061119c611ed1565b905060008151116111bc57604051806020016040528060008152506111fb565b806111c646611f63565b6111cf30611ff5565b6111d886611f63565b6040516020016111eb9493929190613083565b6040516020818303038152906040525b9392505050565b61120b82610921565b61121481611687565b61091b8383611736565b6001600160a01b0391821660009081527f80bb2b638cc20bc4d0a60d66940f3ab4a00c1d7b313497ca82fb0b4ab00793056020908152604080832093909416825291909152205460ff1690565b6112766000336110ed565b6112925760405162461bcd60e51b81526004016108b790612ecd565b600081116112e25760405162461bcd60e51b815260206004820152601a60248201527f4d6f726967696e4170703a20696e76616c69642076616c75652100000000000060448201526064016108b7565b600055565b60006001600160e01b031982166380ac58cd60e01b148061131857506001600160e01b03198216635b5e139f60e01b145b806107b557506107b58261200b565b60008061133383612040565b90506001600160a01b0381166107b557604051637e27328960e01b8152600481018490526024016108b7565b60009081527f80bb2b638cc20bc4d0a60d66940f3ab4a00c1d7b313497ca82fb0b4ab007930460205260409020546001600160a01b031690565b610ba9838383600161207a565b60006000805160206131b6833981519152816113c185612040565b90506001600160a01b038416156113dd576113dd818587612190565b6001600160a01b0381161561141d576113fa60008660008061207a565b6001600160a01b0381166000908152600383016020526040902080546000190190555b6001600160a01b0386161561144e576001600160a01b03861660009081526003830160205260409020805460010190555b600085815260028301602052604080822080546001600160a01b0319166001600160a01b038a811691821790925591518893918516917fddf252ad1be2c89b69c2b068fc378daa952ba7f163c4a11628f55a4df523b3ef91a495945050505050565b7f9b779b17422d0df92223018b32b4d1fa46e071723d6817e2486d003becc55f008054600119016114f457604051633ee5aeb560e01b815260040160405180910390fd5b60029055565b805160000361151c57604051637eb4703d60e11b815260040160405180910390fd5b6000805b825181101561158157600083828151811061153d5761153d612f04565b60200260200101516020015190508060000361156c57604051632b82b70d60e01b815260040160405180910390fd5b6115768184612f47565b925050600101611520565b5080612710146115a457604051630b8ad7f160e01b815260040160405180910390fd5b60968251111561087f57604051631531e37f60e01b815260040160405180910390fd5b806115de576115d984843330866121f4565b61091b565b6001600160a01b038316611615578134146115d9576040516301055eed60e21b8152600481018390523460248201526044016108b7565b61091b83333085612307565b600061162d81336110ed565b6116495760405162461bcd60e51b81526004016108b790612ecd565b60038054906000611659836130f2565b9091555050600354600083815260046020526040902081905561167d90849061243d565b5060035492915050565b61088e81336124a2565b60006000805160206131f68339815191526116ac84846110ed565b61172c576000848152602082815260408083206001600160a01b03871684529091529020805460ff191660011790556116e23390565b6001600160a01b0316836001600160a01b0316857f2f8788117e7eff1d82e926ec794901d17c78024a50270940304540a733656f0d60405160405180910390a460019150506107b5565b60009150506107b5565b60006000805160206131f683398151915261175184846110ed565b1561172c576000848152602082815260408083206001600160a01b0387168085529252808320805460ff1916905551339287917ff6391f5c32d9c69d2a47ea670b442974b53935d1edc7fd64eb21e047a839171b9190a460019150506107b5565b6000805160206132168339815191525460ff1615610fd85760405163d93c066560e01b815260040160405180910390fd5b604080516001600160a01b0385811660248301528481166044830152606480830185905283518084039091018152608490920183526020820180516001600160e01b03166317d5759960e31b1790529151600092839290881691611847919061310b565b6000604051808303816000865af19150503d8060008114611884576040519150601f19603f3d011682016040523d82523d6000602084013e611889565b606091505b50915091508180156118b35750805115806118b35750808060200190518101906118b39190613127565b610b525760405162461bcd60e51b815260206004820152600260248201526114d560f21b60448201526064016108b7565b604080516001600160a01b038481166024830152604480830185905283518084039091018152606490920183526020820180516001600160e01b031663a9059cbb60e01b1790529151600092839290871691611940919061310b565b6000604051808303816000865af19150503d806000811461197d576040519150601f19603f3d011682016040523d82523d6000602084013e611982565b606091505b50915091508180156119ac5750805115806119ac5750808060200190518101906119ac9190613127565b611a0e5760405162461bcd60e51b815260206004820152602d60248201527f5472616e7366657248656c7065723a3a736166655472616e736665723a20747260448201526c185b9cd9995c8819985a5b1959609a1b60648201526084016108b7565b5050505050565b604080516000808252602082019092526001600160a01b038416908390604051611a3f919061310b565b60006040518083038185875af1925050503d8060008114611a7c576040519150601f19603f3d011682016040523d82523d6000602084013e611a81565b606091505b5050905080610ba95760405162461bcd60e51b815260206004820152603460248201527f5472616e7366657248656c7065723a3a736166655472616e736665724554483a60448201527308115512081d1c985b9cd9995c8819985a5b195960621b60648201526084016108b7565b6000611afe60008360006113a6565b90506001600160a01b03811661087f57604051637e27328960e01b8152600481018390526024016108b7565b6000805160206132368339815191528054600160401b810460ff1615906001600160401b0316600081158015611b5d5750825b90506000826001600160401b03166001148015611b795750303b155b905081158015611b87575080155b15611ba55760405163f92ee8a960e01b815260040160405180910390fd5b845467ffffffffffffffff191660011785558315611bcf57845460ff60401b1916600160401b1785555b611bd76124db565b611bdf6124db565b611be76124e3565b611bf086612504565b60646000558315610b5257845460ff60401b19168555604051600181527fc7f505b2f371ae2175ee4913f4499e1f2633a7b5936321eed1cdaeb6115181d2906020015b60405180910390a1505050505050565b611c4b612610565b61087f8282612647565b611c5d612678565b600080516020613216833981519152805460ff191681557f5db9ee0a495bf2e6ff9c91a7834c1ba4fdd244a5e8aa4e537bd38aeae4b073aa335b6040516001600160a01b03909116815260200160405180910390a150565b611cbd6117b2565b600080516020613216833981519152805460ff191660011781557f62e78cea01bee320cd4e420270b5ea74000d11b0c9f74754ebdbfc544b05a25833611c97565b6000805160206131b68339815191526001600160a01b038316611d3f57604051630b61174360e31b81526001600160a01b03841660048201526024016108b7565b6001600160a01b038481166000818152600584016020908152604080832094881680845294825291829020805460ff191687151590811790915591519182527f17307eab39ab6107e8899845ad3d59bd9653f200f220920489ca2b5937696c31910160405180910390a350505050565b6001600160a01b0383163b1561091b57604051630a85bd0160e11b81526001600160a01b0384169063150b7a0290611df1903390889087908790600401613144565b6020604051808303816000875af1925050508015611e2c575060408051601f3d908101601f19168201909252611e2991810190613181565b60015b611e95573d808015611e5a576040519150601f19603f3d011682016040523d82523d6000602084013e611e5f565b606091505b508051600003611e8d57604051633250574960e11b81526001600160a01b03851660048201526024016108b7565b805181602001fd5b6001600160e01b03198116630a85bd0160e11b14611a0e57604051633250574960e11b81526001600160a01b03851660048201526024016108b7565b606060018054611ee090612e93565b80601f0160208091040260200160405190810160405280929190818152602001828054611f0c90612e93565b8015611f595780601f10611f2e57610100808354040283529160200191611f59565b820191906000526020600020905b815481529060010190602001808311611f3c57829003601f168201915b5050505050905090565b60606000611f70836126a8565b60010190506000816001600160401b03811115611f8f57611f8f612ab0565b6040519080825280601f01601f191660200182016040528015611fb9576020820181803683370190505b5090508181016020015b600019016f181899199a1a9b1b9c1cb0b131b232b360811b600a86061a8153600a8504945084611fc357509392505050565b60606107b56001600160a01b0383166014612780565b60006001600160e01b03198216637965db0b60e01b14806107b557506301ffc9a760e01b6001600160e01b03198316146107b5565b60009081527f80bb2b638cc20bc4d0a60d66940f3ab4a00c1d7b313497ca82fb0b4ab007930260205260409020546001600160a01b031690565b6000805160206131b6833981519152818061209d57506001600160a01b03831615155b1561215f5760006120ad85611327565b90506001600160a01b038416158015906120d95750836001600160a01b0316816001600160a01b031614155b80156120ec57506120ea818561121e565b155b156121155760405163a9fbf51f60e01b81526001600160a01b03851660048201526024016108b7565b821561215d5784866001600160a01b0316826001600160a01b03167f8c5be1e5ebec7d5bd14f71427d1e84f3dd0314c0f7b2291e5b200ac8c7c3b92560405160405180910390a45b505b600093845260040160205250506040902080546001600160a01b0319166001600160a01b0392909216919091179055565b61219b8383836128ff565b610ba9576001600160a01b0383166121c957604051637e27328960e01b8152600481018290526024016108b7565b60405163177e802f60e01b81526001600160a01b0383166004820152602481018290526044016108b7565b604080516001600160a01b0386811660248301528581166044830152848116606483015260848083018590528351808403909101815260a490920183526020820180516001600160e01b0316630aed65f560e11b1790529151600092839290891691612260919061310b565b6000604051808303816000865af19150503d806000811461229d576040519150601f19603f3d011682016040523d82523d6000602084013e6122a2565b606091505b50915091508180156122cc5750805115806122cc5750808060200190518101906122cc9190613127565b6122fe5760405162461bcd60e51b815260206004820152600360248201526229aa2360e91b60448201526064016108b7565b50505050505050565b604080516001600160a01b0385811660248301528481166044830152606480830185905283518084039091018152608490920183526020820180516001600160e01b03166323b872dd60e01b179052915160009283929088169161236b919061310b565b6000604051808303816000865af19150503d80600081146123a8576040519150601f19603f3d011682016040523d82523d6000602084013e6123ad565b606091505b50915091508180156123d75750805115806123d75750808060200190518101906123d79190613127565b610b525760405162461bcd60e51b815260206004820152603160248201527f5472616e7366657248656c7065723a3a7472616e7366657246726f6d3a207472604482015270185b9cd9995c919c9bdb4819985a5b1959607a1b60648201526084016108b7565b6001600160a01b03821661246757604051633250574960e11b8152600060048201526024016108b7565b6000612475838360006113a6565b90506001600160a01b03811615610ba9576040516339e3563760e11b8152600060048201526024016108b7565b6124ac82826110ed565b61087f5760405163e2517d3f60e01b81526001600160a01b0382166004820152602481018390526044016108b7565b610fd8612610565b6124eb612610565b600080516020613216833981519152805460ff19169055565b6000805160206132368339815191528054600160401b810460ff1615906001600160401b03166000811580156125375750825b90506000826001600160401b031660011480156125535750303b155b905081158015612561575080155b1561257f5760405163f92ee8a960e01b815260040160405180910390fd5b845467ffffffffffffffff1916600117855583156125a957845460ff60401b1916600160401b1785555b6125b4600087611691565b506125cd6000805160206131d683398151915287611691565b508315610b5257845460ff60401b19168555604051600181527fc7f505b2f371ae2175ee4913f4499e1f2633a7b5936321eed1cdaeb6115181d290602001611c33565b60008051602061323683398151915254600160401b900460ff16610fd857604051631afcd79f60e31b815260040160405180910390fd5b61264f612610565b6000805160206131b6833981519152806126698482612fc4565b506001810161091b8382612fc4565b6000805160206132168339815191525460ff16610fd857604051638dfc202b60e01b815260040160405180910390fd5b60008072184f03e93ff9f4daa797ed6e38ed64bf6a1f0160401b83106126e75772184f03e93ff9f4daa797ed6e38ed64bf6a1f0160401b830492506040015b6d04ee2d6d415b85acef81000000008310612713576d04ee2d6d415b85acef8100000000830492506020015b662386f26fc10000831061273157662386f26fc10000830492506010015b6305f5e1008310612749576305f5e100830492506008015b612710831061275d57612710830492506004015b6064831061276f576064830492506002015b600a83106107b55760010192915050565b6060826000612790846002612f30565b61279b906002612f47565b6001600160401b038111156127b2576127b2612ab0565b6040519080825280601f01601f1916602001820160405280156127dc576020820181803683370190505b509050600360fc1b816000815181106127f7576127f7612f04565b60200101906001600160f81b031916908160001a905350600f60fb1b8160018151811061282657612826612f04565b60200101906001600160f81b031916908160001a905350600061284a856002612f30565b612855906001612f47565b90505b60018111156128cd576f181899199a1a9b1b9c1cb0b131b232b360811b83600f166010811061288957612889612f04565b1a60f81b82828151811061289f5761289f612f04565b60200101906001600160f81b031916908160001a90535060049290921c916128c68161319e565b9050612858565b5081156128f75760405163e22e27eb60e01b815260048101869052602481018590526044016108b7565b949350505050565b60006001600160a01b038316158015906128f75750826001600160a01b0316846001600160a01b031614806129395750612939848461121e565b806128f75750826001600160a01b03166129528361135f565b6001600160a01b031614949350505050565b6001600160e01b03198116811461088e57600080fd5b60006020828403121561298c57600080fd5b81356111fb81612964565b60005b838110156129b257818101518382015260200161299a565b50506000910152565b600081518084526129d3816020860160208601612997565b601f01601f19169290920160200192915050565b6020815260006111fb60208301846129bb565b600060208284031215612a0c57600080fd5b5035919050565b80356001600160a01b0381168114612a2a57600080fd5b919050565b60008060408385031215612a4257600080fd5b612a4b83612a13565b946020939093013593505050565b600060208284031215612a6b57600080fd5b6111fb82612a13565b600080600060608486031215612a8957600080fd5b612a9284612a13565b9250612aa060208501612a13565b9150604084013590509250925092565b634e487b7160e01b600052604160045260246000fd5b604080519081016001600160401b0381118282101715612ae857612ae8612ab0565b60405290565b604051601f8201601f191681016001600160401b0381118282101715612b1657612b16612ab0565b604052919050565b801515811461088e57600080fd5b8035612a2a81612b1e565b60008060008060008060c08789031215612b5057600080fd5b863595506020612b61818901612a13565b95506040612b7160408a01612a13565b95506060890135945060808901356001600160401b0380821115612b9457600080fd5b818b0191508b601f830112612ba857600080fd5b813581811115612bba57612bba612ab0565b612bc8858260051b01612aee565b818152858101925060069190911b83018501908d821115612be857600080fd5b928501925b81841015612c285784848f031215612c055760008081fd5b612c0d612ac6565b84358152868501358782015283529284019291850191612bed565b809750505050505050612c3d60a08801612b2c565b90509295509295509295565b60008060408385031215612c5c57600080fd5b82359150612c6c60208401612a13565b90509250929050565b60008060408385031215612c8857600080fd5b50508035926020909101359150565b60006001600160401b03831115612cb057612cb0612ab0565b612cc3601f8401601f1916602001612aee565b9050828152838383011115612cd757600080fd5b828260208301376000602084830101529392505050565b600082601f830112612cff57600080fd5b6111fb83833560208501612c97565b600080600080600060a08688031215612d2657600080fd5b612d2f86612a13565b9450612d3d60208701612a13565b935060408601356001600160401b0380821115612d5957600080fd5b612d6589838a01612cee565b94506060880135915080821115612d7b57600080fd5b612d8789838a01612cee565b93506080880135915080821115612d9d57600080fd5b50612daa88828901612cee565b9150509295509295909350565b60008060408385031215612dca57600080fd5b612dd383612a13565b91506020830135612de381612b1e565b809150509250929050565b60008060008060808587031215612e0457600080fd5b612e0d85612a13565b9350612e1b60208601612a13565b92506040850135915060608501356001600160401b03811115612e3d57600080fd5b8501601f81018713612e4e57600080fd5b612e5d87823560208401612c97565b91505092959194509250565b60008060408385031215612e7c57600080fd5b612e8583612a13565b9150612c6c60208401612a13565b600181811c90821680612ea757607f821691505b602082108103612ec757634e487b7160e01b600052602260045260246000fd5b50919050565b6020808252601e908201527f4f776e61626c655061757361626c653a206163636573732064656e6965640000604082015260600190565b634e487b7160e01b600052603260045260246000fd5b634e487b7160e01b600052601160045260246000fd5b80820281158282048414176107b5576107b5612f1a565b808201808211156107b5576107b5612f1a565b600082612f7757634e487b7160e01b600052601260045260246000fd5b500490565b601f821115610ba9576000816000526020600020601f850160051c81016020861015612fa55750805b601f850160051c820191505b81811015610b5257828155600101612fb1565b81516001600160401b03811115612fdd57612fdd612ab0565b612ff181612feb8454612e93565b84612f7c565b602080601f831160018114613026576000841561300e5750858301515b600019600386901b1c1916600185901b178555610b52565b600085815260208120601f198616915b8281101561305557888601518255948401946001909101908401613036565b50858210156130735787850151600019600388901b60f8161c191681555b5050505050600190811b01905550565b60008551613095818460208a01612997565b8551908301906130a9818360208a01612997565b602f60f81b910181815285519091906130c9816001850160208a01612997565b600192019182015283516130e4816002840160208801612997565b016002019695505050505050565b60006001820161310457613104612f1a565b5060010190565b6000825161311d818460208701612997565b9190910192915050565b60006020828403121561313957600080fd5b81516111fb81612b1e565b6001600160a01b0385811682528416602082015260408101839052608060608201819052600090613177908301846129bb565b9695505050505050565b60006020828403121561319357600080fd5b81516111fb81612964565b6000816131ad576131ad612f1a565b50600019019056fe80bb2b638cc20bc4d0a60d66940f3ab4a00c1d7b313497ca82fb0b4ab007930065d7a28e3265b37a6474929f336521b332c1681b933f6cb9f3376673440d862a02dd7bc7dec4dceedda775e58dd541e08a116c6c53815c0bd028192f7b626800cd5ed15c6e187e77e9aee88184c21f4f2182ab5827cb3b7e07fbedcd63f03300f0c57e16840df040f15088dc2f81fe391c3923bec73e23a9662efc9c229c6a00a264697066735822122005adab3f8cad96e916d38e019772a51f671825ab8c9548b819217ba50f927e9d64736f6c63430008170033","linkReferences":{}},"methodIdentifiers":{"DEFAULT_ADMIN_ROLE()":"a217fddf","PAUSER_ROLE()":"e63ab1e9","addAdmin(address)":"70480275","addPauser(address)":"82dc1ec4","approve(address,uint256)":"095ea7b3","balanceOf(address)":"70a08231","getApproved(uint256)":"081812fc","getRoleAdmin(bytes32)":"248a9ca3","grantRole(bytes32,address)":"2f2ff15d","hasRole(bytes32,address)":"91d14854","initialize(address,address,string,string,string)":"3f2f5ee2","isAdmin(address)":"24d7806c","isApprovedForAll(address,address)":"e985e9c5","isPauser(address)":"46fbf68e","name()":"06fdde03","ownerOf(uint256)":"6352211e","paginationSize()":"3d538ecf","pause()":"8456cb59","paused()":"5c975abb","release(uint256)":"37bdc99b","releaseInfo(uint256,uint256)":"3bda01db","removeAdmin(address)":"1785f53c","removePauser(address)":"6b2c0f55","renounceRole(bytes32,address)":"36568abe","revokeRole(bytes32,address)":"d547741f","safeTransferFrom(address,address,uint256)":"42842e0e","safeTransferFrom(address,address,uint256,bytes)":"b88d4fde","setApprovalForAll(address,bool)":"a22cb465","setPaginationSize(uint256)":"f2407ca4","startVesting(bytes32,address,address,uint256,(uint256,uint256)[],bool)":"2622981d","supportsInterface(bytes4)":"01ffc9a7","symbol()":"95d89b41","tokenURI(uint256)":"c87b56dd","transferFrom(address,address,uint256)":"23b872dd","unpause()":"3f4ba83a","vesting(uint256)":"2ffac82c","vestingIds(bytes32)":"48f6e360"},"id":14}