{"abi":[{"type":"receive","stateMutability":"payable"},{"type":"function","name":"DEFAULT_ADMIN_ROLE","inputs":[],"outputs":[{"name":"","type":"bytes32","internalType":"bytes32"}],"stateMutability":"view"},{"type":"function","name":"PAUSER_ROLE","inputs":[],"outputs":[{"name":"","type":"bytes32","internalType":"bytes32"}],"stateMutability":"view"},{"type":"function","name":"addAdmin","inputs":[{"name":"_account","type":"address","internalType":"address"}],"outputs":[],"stateMutability":"nonpayable"},{"type":"function","name":"addPauser","inputs":[{"name":"_account","type":"address","internalType":"address"}],"outputs":[],"stateMutability":"nonpayable"},{"type":"function","name":"approve","inputs":[{"name":"to","type":"address","internalType":"address"},{"name":"tokenId","type":"uint256","internalType":"uint256"}],"outputs":[],"stateMutability":"nonpayable"},{"type":"function","name":"balanceOf","inputs":[{"name":"owner","type":"address","internalType":"address"}],"outputs":[{"name":"","type":"uint256","internalType":"uint256"}],"stateMutability":"view"},{"type":"function","name":"getApproved","inputs":[{"name":"tokenId","type":"uint256","internalType":"uint256"}],"outputs":[{"name":"","type":"address","internalType":"address"}],"stateMutability":"view"},{"type":"function","name":"getRoleAdmin","inputs":[{"name":"role","type":"bytes32","internalType":"bytes32"}],"outputs":[{"name":"","type":"bytes32","internalType":"bytes32"}],"stateMutability":"view"},{"type":"function","name":"grantRole","inputs":[{"name":"role","type":"bytes32","internalType":"bytes32"},{"name":"account","type":"address","internalType":"address"}],"outputs":[],"stateMutability":"nonpayable"},{"type":"function","name":"hasRole","inputs":[{"name":"role","type":"bytes32","internalType":"bytes32"},{"name":"account","type":"address","internalType":"address"}],"outputs":[{"name":"","type":"bool","internalType":"bool"}],"stateMutability":"view"},{"type":"function","name":"initialize","inputs":[{"name":"_admin","type":"address","internalType":"address"}],"outputs":[],"stateMutability":"nonpayable"},{"type":"function","name":"isAdmin","inputs":[{"name":"_account","type":"address","internalType":"address"}],"outputs":[{"name":"","type":"bool","internalType":"bool"}],"stateMutability":"view"},{"type":"function","name":"isApprovedForAll","inputs":[{"name":"owner","type":"address","internalType":"address"},{"name":"operator","type":"address","internalType":"address"}],"outputs":[{"name":"","type":"bool","internalType":"bool"}],"stateMutability":"view"},{"type":"function","name":"isPauser","inputs":[{"name":"_account","type":"address","internalType":"address"}],"outputs":[{"name":"","type":"bool","internalType":"bool"}],"stateMutability":"view"},{"type":"function","name":"name","inputs":[],"outputs":[{"name":"","type":"string","internalType":"string"}],"stateMutability":"view"},{"type":"function","name":"ownerOf","inputs":[{"name":"tokenId","type":"uint256","internalType":"uint256"}],"outputs":[{"name":"","type":"address","internalType":"address"}],"stateMutability":"view"},{"type":"function","name":"paginationSize","inputs":[],"outputs":[{"name":"","type":"uint256","internalType":"uint256"}],"stateMutability":"view"},{"type":"function","name":"pause","inputs":[],"outputs":[],"stateMutability":"nonpayable"},{"type":"function","name":"paused","inputs":[],"outputs":[{"name":"","type":"bool","internalType":"bool"}],"stateMutability":"view"},{"type":"function","name":"release","inputs":[{"name":"vestingId","type":"uint256","internalType":"uint256"}],"outputs":[],"stateMutability":"nonpayable"},{"type":"function","name":"releaseInfos","inputs":[{"name":"","type":"uint256","internalType":"uint256"},{"name":"","type":"uint256","internalType":"uint256"}],"outputs":[{"name":"durationInHours","type":"uint256","internalType":"uint256"},{"name":"percentage","type":"uint256","internalType":"uint256"}],"stateMutability":"view"},{"type":"function","name":"removeAdmin","inputs":[{"name":"_account","type":"address","internalType":"address"}],"outputs":[],"stateMutability":"nonpayable"},{"type":"function","name":"removePauser","inputs":[{"name":"_account","type":"address","internalType":"address"}],"outputs":[],"stateMutability":"nonpayable"},{"type":"function","name":"renounceRole","inputs":[{"name":"role","type":"bytes32","internalType":"bytes32"},{"name":"callerConfirmation","type":"address","internalType":"address"}],"outputs":[],"stateMutability":"nonpayable"},{"type":"function","name":"revokeRole","inputs":[{"name":"role","type":"bytes32","internalType":"bytes32"},{"name":"account","type":"address","internalType":"address"}],"outputs":[],"stateMutability":"nonpayable"},{"type":"function","name":"safeTransferFrom","inputs":[{"name":"from","type":"address","internalType":"address"},{"name":"to","type":"address","internalType":"address"},{"name":"tokenId","type":"uint256","internalType":"uint256"}],"outputs":[],"stateMutability":"nonpayable"},{"type":"function","name":"safeTransferFrom","inputs":[{"name":"from","type":"address","internalType":"address"},{"name":"to","type":"address","internalType":"address"},{"name":"tokenId","type":"uint256","internalType":"uint256"},{"name":"data","type":"bytes","internalType":"bytes"}],"outputs":[],"stateMutability":"nonpayable"},{"type":"function","name":"setApprovalForAll","inputs":[{"name":"operator","type":"address","internalType":"address"},{"name":"approved","type":"bool","internalType":"bool"}],"outputs":[],"stateMutability":"nonpayable"},{"type":"function","name":"setPaginationSize","inputs":[{"name":"_paginationSize","type":"uint256","internalType":"uint256"}],"outputs":[],"stateMutability":"nonpayable"},{"type":"function","name":"startVesting","inputs":[{"name":"orderId","type":"bytes32","internalType":"bytes32"},{"name":"buyer","type":"address","internalType":"address"},{"name":"token","type":"address","internalType":"address"},{"name":"totalAmount","type":"uint256","internalType":"uint256"},{"name":"releases","type":"tuple[]","internalType":"struct IAtomicSwapBase.Release[]","components":[{"name":"durationInHours","type":"uint256","internalType":"uint256"},{"name":"percentage","type":"uint256","internalType":"uint256"}]}],"outputs":[],"stateMutability":"payable"},{"type":"function","name":"supportsInterface","inputs":[{"name":"interfaceId","type":"bytes4","internalType":"bytes4"}],"outputs":[{"name":"","type":"bool","internalType":"bool"}],"stateMutability":"view"},{"type":"function","name":"symbol","inputs":[],"outputs":[{"name":"","type":"string","internalType":"string"}],"stateMutability":"view"},{"type":"function","name":"tokenURI","inputs":[{"name":"tokenId","type":"uint256","internalType":"uint256"}],"outputs":[{"name":"","type":"string","internalType":"string"}],"stateMutability":"view"},{"type":"function","name":"transferFrom","inputs":[{"name":"from","type":"address","internalType":"address"},{"name":"to","type":"address","internalType":"address"},{"name":"tokenId","type":"uint256","internalType":"uint256"}],"outputs":[],"stateMutability":"nonpayable"},{"type":"function","name":"unpause","inputs":[],"outputs":[],"stateMutability":"nonpayable"},{"type":"function","name":"vestingSchedules","inputs":[{"name":"","type":"uint256","internalType":"uint256"}],"outputs":[{"name":"from","type":"address","internalType":"address"},{"name":"start","type":"uint256","internalType":"uint256"},{"name":"token","type":"address","internalType":"address"},{"name":"totalAmount","type":"uint256","internalType":"uint256"},{"name":"amountReleased","type":"uint256","internalType":"uint256"},{"name":"nextReleaseStep","type":"uint256","internalType":"uint256"}],"stateMutability":"view"},{"type":"event","name":"Approval","inputs":[{"name":"owner","type":"address","indexed":true,"internalType":"address"},{"name":"approved","type":"address","indexed":true,"internalType":"address"},{"name":"tokenId","type":"uint256","indexed":true,"internalType":"uint256"}],"anonymous":false},{"type":"event","name":"ApprovalForAll","inputs":[{"name":"owner","type":"address","indexed":true,"internalType":"address"},{"name":"operator","type":"address","indexed":true,"internalType":"address"},{"name":"approved","type":"bool","indexed":false,"internalType":"bool"}],"anonymous":false},{"type":"event","name":"Initialized","inputs":[{"name":"version","type":"uint64","indexed":false,"internalType":"uint64"}],"anonymous":false},{"type":"event","name":"NewVesting","inputs":[{"name":"vesting","type":"tuple","indexed":true,"internalType":"struct IVesting.VestingInfo","components":[{"name":"schedule","type":"tuple","internalType":"struct IVesting.VestingSchedule","components":[{"name":"from","type":"address","internalType":"address"},{"name":"start","type":"uint256","internalType":"uint256"},{"name":"token","type":"address","internalType":"address"},{"name":"totalAmount","type":"uint256","internalType":"uint256"},{"name":"amountReleased","type":"uint256","internalType":"uint256"},{"name":"nextReleaseStep","type":"uint256","internalType":"uint256"}]},{"name":"release","type":"tuple[]","internalType":"struct IAtomicSwapBase.Release[]","components":[{"name":"durationInHours","type":"uint256","internalType":"uint256"},{"name":"percentage","type":"uint256","internalType":"uint256"}]},{"name":"orderId","type":"bytes32","internalType":"bytes32"}]}],"anonymous":false},{"type":"event","name":"Paused","inputs":[{"name":"account","type":"address","indexed":false,"internalType":"address"}],"anonymous":false},{"type":"event","name":"Received","inputs":[{"name":"sender","type":"address","indexed":true,"internalType":"address"},{"name":"amount","type":"uint256","indexed":true,"internalType":"uint256"}],"anonymous":false},{"type":"event","name":"Released","inputs":[{"name":"beneficiary","type":"address","indexed":true,"internalType":"address"},{"name":"amount","type":"uint256","indexed":true,"internalType":"uint256"}],"anonymous":false},{"type":"event","name":"RoleAdminChanged","inputs":[{"name":"role","type":"bytes32","indexed":true,"internalType":"bytes32"},{"name":"previousAdminRole","type":"bytes32","indexed":true,"internalType":"bytes32"},{"name":"newAdminRole","type":"bytes32","indexed":true,"internalType":"bytes32"}],"anonymous":false},{"type":"event","name":"RoleGranted","inputs":[{"name":"role","type":"bytes32","indexed":true,"internalType":"bytes32"},{"name":"account","type":"address","indexed":true,"internalType":"address"},{"name":"sender","type":"address","indexed":true,"internalType":"address"}],"anonymous":false},{"type":"event","name":"RoleRevoked","inputs":[{"name":"role","type":"bytes32","indexed":true,"internalType":"bytes32"},{"name":"account","type":"address","indexed":true,"internalType":"address"},{"name":"sender","type":"address","indexed":true,"internalType":"address"}],"anonymous":false},{"type":"event","name":"Transfer","inputs":[{"name":"from","type":"address","indexed":true,"internalType":"address"},{"name":"to","type":"address","indexed":true,"internalType":"address"},{"name":"tokenId","type":"uint256","indexed":true,"internalType":"uint256"}],"anonymous":false},{"type":"event","name":"Unpaused","inputs":[{"name":"account","type":"address","indexed":false,"internalType":"address"}],"anonymous":false},{"type":"error","name":"AccessControlBadConfirmation","inputs":[]},{"type":"error","name":"AccessControlUnauthorizedAccount","inputs":[{"name":"account","type":"address","internalType":"address"},{"name":"neededRole","type":"bytes32","internalType":"bytes32"}]},{"type":"error","name":"DuplicateReleaseSchedule","inputs":[]},{"type":"error","name":"ERC721IncorrectOwner","inputs":[{"name":"sender","type":"address","internalType":"address"},{"name":"tokenId","type":"uint256","internalType":"uint256"},{"name":"owner","type":"address","internalType":"address"}]},{"type":"error","name":"ERC721InsufficientApproval","inputs":[{"name":"operator","type":"address","internalType":"address"},{"name":"tokenId","type":"uint256","internalType":"uint256"}]},{"type":"error","name":"ERC721InvalidApprover","inputs":[{"name":"approver","type":"address","internalType":"address"}]},{"type":"error","name":"ERC721InvalidOperator","inputs":[{"name":"operator","type":"address","internalType":"address"}]},{"type":"error","name":"ERC721InvalidOwner","inputs":[{"name":"owner","type":"address","internalType":"address"}]},{"type":"error","name":"ERC721InvalidReceiver","inputs":[{"name":"receiver","type":"address","internalType":"address"}]},{"type":"error","name":"ERC721InvalidSender","inputs":[{"name":"sender","type":"address","internalType":"address"}]},{"type":"error","name":"ERC721NonexistentToken","inputs":[{"name":"tokenId","type":"uint256","internalType":"uint256"}]},{"type":"error","name":"EnforcedPause","inputs":[]},{"type":"error","name":"ExpectedPause","inputs":[]},{"type":"error","name":"InvalidInitialization","inputs":[]},{"type":"error","name":"InvalidTotalPercentage","inputs":[]},{"type":"error","name":"InvalidVesting","inputs":[]},{"type":"error","name":"NoPermissionToRelease","inputs":[]},{"type":"error","name":"NoVestedTokensAvailable","inputs":[]},{"type":"error","name":"NoVestedTokensForRelease","inputs":[]},{"type":"error","name":"NotEnoughFund","inputs":[{"name":"real","type":"uint256","internalType":"uint256"},{"name":"expected","type":"uint256","internalType":"uint256"}]},{"type":"error","name":"NotInitializing","inputs":[]},{"type":"error","name":"OverMaximumReleaseStep","inputs":[]},{"type":"error","name":"ReentrancyGuardReentrantCall","inputs":[]},{"type":"error","name":"VestingAlreadyStarted","inputs":[{"name":"beneficiary","type":"address","internalType":"address"}]},{"type":"error","name":"VestingNotStarted","inputs":[]}],"bytecode":{"object":"0x608060405234801561001057600080fd5b50612ccd806100206000396000f3fe6080604052600436106102135760003560e01c80636d3cbe2111610118578063a22cb465116100a0578063c87b56dd1161006f578063c87b56dd146106ef578063d547741f1461070f578063e63ab1e91461072f578063e985e9c514610751578063f2407ca41461077157600080fd5b8063a22cb4651461065a578063b88d4fde1461067a578063c46e043b1461069a578063c4d66de8146106cf57600080fd5b806382dc1ec4116100e757806382dc1ec4146105db5780638456cb59146105fb57806391d148541461061057806395d89b4114610630578063a217fddf1461064557600080fd5b80636d3cbe21146104eb578063704802751461058857806370a08231146105a85780637623f00e146105c857600080fd5b806336568abe1161019b57806342842e0e1161016a57806342842e0e1461044657806346fbf68e146104665780635c975abb146104865780636352211e146104ab5780636b2c0f55146104cb57600080fd5b806336568abe146103db57806337bdc99b146103fb5780633d538ecf1461041b5780633f4ba83a1461043157600080fd5b80631785f53c116101e25780631785f53c1461032d57806323b872dd1461034d578063248a9ca31461036d57806324d7806c1461039b5780632f2ff15d146103bb57600080fd5b806301ffc9a71461027c57806306fdde03146102b1578063081812fc146102d3578063095ea7b31461030b57600080fd5b3661027757610223600033610791565b6102485760405162461bcd60e51b815260040161023f90612418565b60405180910390fd5b604051349033907f88a5966d370b9919b20f3e2c13ff65706f196a4e32cc2c12bf57088f8852587490600090a3005b600080fd5b34801561028857600080fd5b5061029c610297366004612465565b6107cb565b60405190151581526020015b60405180910390f35b3480156102bd57600080fd5b506102c66107d6565b6040516102a891906124d2565b3480156102df57600080fd5b506102f36102ee3660046124e5565b61087a565b6040516001600160a01b0390911681526020016102a8565b34801561031757600080fd5b5061032b61032636600461251a565b61088f565b005b34801561033957600080fd5b5061032b610348366004612544565b61089e565b34801561035957600080fd5b5061032b61036836600461255f565b6108ac565b34801561037957600080fd5b5061038d6103883660046124e5565b610937565b6040519081526020016102a8565b3480156103a757600080fd5b5061029c6103b6366004612544565b610959565b3480156103c757600080fd5b5061032b6103d636600461259b565b610965565b3480156103e757600080fd5b5061032b6103f636600461259b565b610981565b34801561040757600080fd5b5061032b6104163660046124e5565b6109b9565b34801561042757600080fd5b5061038d60005481565b34801561043d57600080fd5b5061032b610c03565b34801561045257600080fd5b5061032b61046136600461255f565b610c41565b34801561047257600080fd5b5061029c610481366004612544565b610c5c565b34801561049257600080fd5b50600080516020612c588339815191525460ff1661029c565b3480156104b757600080fd5b506102f36104c63660046124e5565b610c76565b3480156104d757600080fd5b5061032b6104e6366004612544565b610c81565b3480156104f757600080fd5b5061054a6105063660046124e5565b60016020819052600091825260409091208054918101546002820154600383015460048401546005909401546001600160a01b039586169593949390921692909186565b604080516001600160a01b039788168152602081019690965293909516928401929092526060830152608082015260a081019190915260c0016102a8565b34801561059457600080fd5b5061032b6105a3366004612544565b610c99565b3480156105b457600080fd5b5061038d6105c3366004612544565b610ca4565b61032b6105d6366004612637565b610d00565b3480156105e757600080fd5b5061032b6105f6366004612544565b610f9e565b34801561060757600080fd5b5061032b610fb6565b34801561061c57600080fd5b5061029c61062b36600461259b565b610791565b34801561063c57600080fd5b506102c6610ff2565b34801561065157600080fd5b5061038d600081565b34801561066657600080fd5b5061032b610675366004612749565b611031565b34801561068657600080fd5b5061032b610695366004612780565b61103c565b3480156106a657600080fd5b506106ba6106b5366004612840565b611053565b604080519283526020830191909152016102a8565b3480156106db57600080fd5b5061032b6106ea366004612544565b61108f565b3480156106fb57600080fd5b506102c661070a3660046124e5565b6111e2565b34801561071b57600080fd5b5061032b61072a36600461259b565b611257565b34801561073b57600080fd5b5061038d600080516020612c1883398151915281565b34801561075d57600080fd5b5061029c61076c366004612862565b611273565b34801561077d57600080fd5b5061032b61078c3660046124e5565b6112c0565b6000828152600080516020612c38833981519152602090815260408083206001600160a01b038516845290915290205460ff165b92915050565b60006107c58261133c565b600080516020612bf883398151915280546060919081906107f69061288c565b80601f01602080910402602001604051908101604052809291908181526020018280546108229061288c565b801561086f5780601f106108445761010080835404028352916020019161086f565b820191906000526020600020905b81548152906001019060200180831161085257829003601f168201915b505050505091505090565b60006108858261137c565b506107c5826113b4565b61089a8282336113ee565b5050565b6108a9600082611257565b50565b6001600160a01b0382166108d657604051633250574960e11b81526000600482015260240161023f565b60006108e38383336113fb565b9050836001600160a01b0316816001600160a01b031614610931576040516364283d7b60e01b81526001600160a01b038086166004830152602482018490528216604482015260640161023f565b50505050565b6000908152600080516020612c38833981519152602052604090206001015490565b60006107c58183610791565b61096e82610937565b61097781611505565b610931838361150f565b6001600160a01b03811633146109aa5760405163334bd91960e11b815260040160405180910390fd5b6109b482826115b4565b505050565b6109c1611630565b6109c961167a565b336109d382610c76565b6001600160a01b0316146109fa5760405163a736e60f60e01b815260040160405180910390fd5b6000818152600160209081526040808320600290925290912080541580610a2657508054600583015410155b15610a4457604051638bdb538160e01b815260040160405180910390fd5b6001820154600090815b8354811015610b1057838181548110610a6957610a696128c6565b906000526020600020906002020160000154610e10610a8891906128f2565b610a929083612909565b915084600501548110610b0857814210610b10576000612710858381548110610abd57610abd6128c6565b9060005260206000209060020201600101548760030154610ade91906128f2565b610ae8919061291c565b9050610af48185612909565b9350610b01826001612909565b6005870155505b600101610a4e565b5060008211610b3257604051630350741560e41b815260040160405180910390fd5b81846004016000828254610b469190612909565b909155505060028401546001600160a01b031615610b7c576002840154610b77906001600160a01b031633846116ab565b610b86565b610b8633836117d5565b8360030154846004015403610ba957610ba03330876108ac565b610ba9856118af565b604051829033907fb21fb52d5749b80f3182f8c6992236b5e5576681880914484d7f4c9b062e619e90600090a3505050506108a960017f9b779b17422d0df92223018b32b4d1fa46e071723d6817e2486d003becc55f0055565b610c1b600080516020612c1883398151915233610791565b610c375760405162461bcd60e51b815260040161023f90612418565b610c3f6118ea565b565b6109b48383836040518060200160405280600081525061103c565b60006107c5600080516020612c1883398151915283610791565b60006107c58261137c565b6108a9600080516020612c1883398151915282611257565b6108a9600082610965565b6000600080516020612bf88339815191526001600160a01b038316610cdf576040516322718ad960e21b81526000600482015260240161023f565b6001600160a01b039092166000908152600390920160205250604090205490565b610d08611630565b610d13600033610791565b610d2f5760405162461bcd60e51b815260040161023f90612418565b6000610d3b858761194a565b6000818152600160205260409020549091506001600160a01b031615610d7457604051633146ddcb60e11b815260040160405180910390fd5b6040516333b988f560e01b815273__$2effe1973215a034e8e4a17bdeb5710028$__906333b988f590610dab90859060040161293e565b60006040518083038186803b158015610dc357600080fd5b505af4158015610dd7573d6000803e3d6000fd5b5050506001600160a01b0385169050610e1857823414610e13576040516301055eed60e21b81526004810184905234602482015260440161023f565b610e24565b610e248433308661197e565b6040805160c0810182523381524260208083018281526001600160a01b03898116858701908152606086018a815260006080880181815260a089018281528b835260018089528b84208b5181549089166001600160a01b031991821617825598519181019190915594516002808701805492909816919098161790955591516003840155905160048301559151600590910155915292832090925b8551811015610f115781868281518110610edb57610edb6128c6565b60209081029190910181015182546001818101855560009485529383902082516002909202019081559101519082015501610ebf565b5060405180606001604052808381526020018681526020018a815250604051610f3a919061298d565b604051908190038120907f9a4028570a7985008f06404aa6ad5e5e1a028f77009475627237e339802b2e0990600090a250505050610f9760017f9b779b17422d0df92223018b32b4d1fa46e071723d6817e2486d003becc55f0055565b5050505050565b6108a9600080516020612c1883398151915282610965565b610fce600080516020612c1883398151915233610791565b610fea5760405162461bcd60e51b815260040161023f90612418565b610c3f611ab4565b7f80bb2b638cc20bc4d0a60d66940f3ab4a00c1d7b313497ca82fb0b4ab00793018054606091600080516020612bf8833981519152916107f69061288c565b61089a338383611afd565b6110478484846108ac565b61093184848484611bae565b6002602052816000526040600020818154811061106f57600080fd5b600091825260209091206002909102018054600190910154909250905082565b600080516020612c788339815191528054600160401b810460ff16159067ffffffffffffffff166000811580156110c35750825b905060008267ffffffffffffffff1660011480156110e05750303b155b9050811580156110ee575080155b1561110c5760405163f92ee8a960e01b815260040160405180910390fd5b845467ffffffffffffffff19166001178555831561113657845460ff60401b1916600160401b1785555b61113f86611cd0565b6111936040518060400160405280600d81526020016c14da591955995cdd1a5b99d251609a1b8152506040518060400160405280600d81526020016c14da591955995cdd1a5b99d251609a1b815250611ddf565b83156111da57845460ff60401b19168555604051600181527fc7f505b2f371ae2175ee4913f4499e1f2633a7b5936321eed1cdaeb6115181d2906020015b60405180910390a15b505050505050565b60606111ed8261137c565b50600061120560408051602081019091526000815290565b905060008151116112255760405180602001604052806000815250611250565b8061122f84611df1565b604051602001611240929190612a2d565b6040516020818303038152906040525b9392505050565b61126082610937565b61126981611505565b61093183836115b4565b6001600160a01b0391821660009081527f80bb2b638cc20bc4d0a60d66940f3ab4a00c1d7b313497ca82fb0b4ab00793056020908152604080832093909416825291909152205460ff1690565b6112cb600033610791565b6112e75760405162461bcd60e51b815260040161023f90612418565b600081116113375760405162461bcd60e51b815260206004820152601a60248201527f4d6f726967696e4170703a20696e76616c69642076616c756521000000000000604482015260640161023f565b600055565b60006001600160e01b031982166380ac58cd60e01b148061136d57506001600160e01b03198216635b5e139f60e01b145b806107c557506107c582611e84565b60008061138883611eb9565b90506001600160a01b0381166107c557604051637e27328960e01b81526004810184905260240161023f565b60009081527f80bb2b638cc20bc4d0a60d66940f3ab4a00c1d7b313497ca82fb0b4ab007930460205260409020546001600160a01b031690565b6109b48383836001611ef3565b6000600080516020612bf88339815191528161141685611eb9565b90506001600160a01b0384161561143257611432818587612009565b6001600160a01b038116156114725761144f600086600080611ef3565b6001600160a01b0381166000908152600383016020526040902080546000190190555b6001600160a01b038616156114a3576001600160a01b03861660009081526003830160205260409020805460010190555b600085815260028301602052604080822080546001600160a01b0319166001600160a01b038a811691821790925591518893918516917fddf252ad1be2c89b69c2b068fc378daa952ba7f163c4a11628f55a4df523b3ef91a495945050505050565b6108a9813361206d565b6000600080516020612c3883398151915261152a8484610791565b6115aa576000848152602082815260408083206001600160a01b03871684529091529020805460ff191660011790556115603390565b6001600160a01b0316836001600160a01b0316857f2f8788117e7eff1d82e926ec794901d17c78024a50270940304540a733656f0d60405160405180910390a460019150506107c5565b60009150506107c5565b6000600080516020612c388339815191526115cf8484610791565b156115aa576000848152602082815260408083206001600160a01b0387168085529252808320805460ff1916905551339287917ff6391f5c32d9c69d2a47ea670b442974b53935d1edc7fd64eb21e047a839171b9190a460019150506107c5565b7f9b779b17422d0df92223018b32b4d1fa46e071723d6817e2486d003becc55f0080546001190161167457604051633ee5aeb560e01b815260040160405180910390fd5b60029055565b600080516020612c588339815191525460ff1615610c3f5760405163d93c066560e01b815260040160405180910390fd5b604080516001600160a01b038481166024830152604480830185905283518084039091018152606490920183526020820180516001600160e01b031663a9059cbb60e01b17905291516000928392908716916117079190612a5c565b6000604051808303816000865af19150503d8060008114611744576040519150601f19603f3d011682016040523d82523d6000602084013e611749565b606091505b50915091508180156117735750805115806117735750808060200190518101906117739190612a78565b610f975760405162461bcd60e51b815260206004820152602d60248201527f5472616e7366657248656c7065723a3a736166655472616e736665723a20747260448201526c185b9cd9995c8819985a5b1959609a1b606482015260840161023f565b604080516000808252602082019092526001600160a01b0384169083906040516117ff9190612a5c565b60006040518083038185875af1925050503d806000811461183c576040519150601f19603f3d011682016040523d82523d6000602084013e611841565b606091505b50509050806109b45760405162461bcd60e51b815260206004820152603460248201527f5472616e7366657248656c7065723a3a736166655472616e736665724554483a60448201527308115512081d1c985b9cd9995c8819985a5b195960621b606482015260840161023f565b60006118be60008360006113fb565b90506001600160a01b03811661089a57604051637e27328960e01b81526004810183905260240161023f565b6118f26120a6565b600080516020612c58833981519152805460ff191681557f5db9ee0a495bf2e6ff9c91a7834c1ba4fdd244a5e8aa4e537bd38aeae4b073aa335b6040516001600160a01b03909116815260200160405180910390a150565b60006119568133610791565b6119725760405162461bcd60e51b815260040161023f90612418565b50806107c583826120d6565b604080516001600160a01b0385811660248301528481166044830152606480830185905283518084039091018152608490920183526020820180516001600160e01b03166323b872dd60e01b17905291516000928392908816916119e29190612a5c565b6000604051808303816000865af19150503d8060008114611a1f576040519150601f19603f3d011682016040523d82523d6000602084013e611a24565b606091505b5091509150818015611a4e575080511580611a4e575080806020019051810190611a4e9190612a78565b6111da5760405162461bcd60e51b815260206004820152603160248201527f5472616e7366657248656c7065723a3a7472616e7366657246726f6d3a207472604482015270185b9cd9995c919c9bdb4819985a5b1959607a1b606482015260840161023f565b611abc61167a565b600080516020612c58833981519152805460ff191660011781557f62e78cea01bee320cd4e420270b5ea74000d11b0c9f74754ebdbfc544b05a2583361192c565b600080516020612bf88339815191526001600160a01b038316611b3e57604051630b61174360e31b81526001600160a01b038416600482015260240161023f565b6001600160a01b038481166000818152600584016020908152604080832094881680845294825291829020805460ff191687151590811790915591519182527f17307eab39ab6107e8899845ad3d59bd9653f200f220920489ca2b5937696c31910160405180910390a350505050565b6001600160a01b0383163b1561093157604051630a85bd0160e11b81526001600160a01b0384169063150b7a0290611bf0903390889087908790600401612a95565b6020604051808303816000875af1925050508015611c2b575060408051601f3d908101601f19168201909252611c2891810190612ad2565b60015b611c94573d808015611c59576040519150601f19603f3d011682016040523d82523d6000602084013e611c5e565b606091505b508051600003611c8c57604051633250574960e11b81526001600160a01b038516600482015260240161023f565b805181602001fd5b6001600160e01b03198116630a85bd0160e11b14610f9757604051633250574960e11b81526001600160a01b038516600482015260240161023f565b600080516020612c788339815191528054600160401b810460ff16159067ffffffffffffffff16600081158015611d045750825b905060008267ffffffffffffffff166001148015611d215750303b155b905081158015611d2f575080155b15611d4d5760405163f92ee8a960e01b815260040160405180910390fd5b845467ffffffffffffffff191660011785558315611d7757845460ff60401b1916600160401b1785555b611d7f61213b565b611d8761213b565b611d8f612143565b611d9886612164565b606460005583156111da57845460ff60401b19168555604051600181527fc7f505b2f371ae2175ee4913f4499e1f2633a7b5936321eed1cdaeb6115181d2906020016111d1565b611de7612272565b61089a82826122a9565b60606000611dfe836122da565b600101905060008167ffffffffffffffff811115611e1e57611e1e6125c7565b6040519080825280601f01601f191660200182016040528015611e48576020820181803683370190505b5090508181016020015b600019016f181899199a1a9b1b9c1cb0b131b232b360811b600a86061a8153600a8504945084611e5257509392505050565b60006001600160e01b03198216637965db0b60e01b14806107c557506301ffc9a760e01b6001600160e01b03198316146107c5565b60009081527f80bb2b638cc20bc4d0a60d66940f3ab4a00c1d7b313497ca82fb0b4ab007930260205260409020546001600160a01b031690565b600080516020612bf88339815191528180611f1657506001600160a01b03831615155b15611fd8576000611f268561137c565b90506001600160a01b03841615801590611f525750836001600160a01b0316816001600160a01b031614155b8015611f655750611f638185611273565b155b15611f8e5760405163a9fbf51f60e01b81526001600160a01b038516600482015260240161023f565b8215611fd65784866001600160a01b0316826001600160a01b03167f8c5be1e5ebec7d5bd14f71427d1e84f3dd0314c0f7b2291e5b200ac8c7c3b92560405160405180910390a45b505b600093845260040160205250506040902080546001600160a01b0319166001600160a01b0392909216919091179055565b6120148383836123b2565b6109b4576001600160a01b03831661204257604051637e27328960e01b81526004810182905260240161023f565b60405163177e802f60e01b81526001600160a01b03831660048201526024810182905260440161023f565b6120778282610791565b61089a5760405163e2517d3f60e01b81526001600160a01b03821660048201526024810183905260440161023f565b600080516020612c588339815191525460ff16610c3f57604051638dfc202b60e01b815260040160405180910390fd5b6001600160a01b03821661210057604051633250574960e11b81526000600482015260240161023f565b600061210e838360006113fb565b90506001600160a01b038116156109b4576040516339e3563760e11b81526000600482015260240161023f565b610c3f612272565b61214b612272565b600080516020612c58833981519152805460ff19169055565b600080516020612c788339815191528054600160401b810460ff16159067ffffffffffffffff166000811580156121985750825b905060008267ffffffffffffffff1660011480156121b55750303b155b9050811580156121c3575080155b156121e15760405163f92ee8a960e01b815260040160405180910390fd5b845467ffffffffffffffff19166001178555831561220b57845460ff60401b1916600160401b1785555b61221660008761150f565b5061222f600080516020612c188339815191528761150f565b5083156111da57845460ff60401b19168555604051600181527fc7f505b2f371ae2175ee4913f4499e1f2633a7b5936321eed1cdaeb6115181d2906020016111d1565b600080516020612c7883398151915254600160401b900460ff16610c3f57604051631afcd79f60e31b815260040160405180910390fd5b6122b1612272565b600080516020612bf8833981519152806122cb8482612b37565b50600181016109318382612b37565b60008072184f03e93ff9f4daa797ed6e38ed64bf6a1f0160401b83106123195772184f03e93ff9f4daa797ed6e38ed64bf6a1f0160401b830492506040015b6d04ee2d6d415b85acef81000000008310612345576d04ee2d6d415b85acef8100000000830492506020015b662386f26fc10000831061236357662386f26fc10000830492506010015b6305f5e100831061237b576305f5e100830492506008015b612710831061238f57612710830492506004015b606483106123a1576064830492506002015b600a83106107c55760010192915050565b60006001600160a01b038316158015906124105750826001600160a01b0316846001600160a01b031614806123ec57506123ec8484611273565b806124105750826001600160a01b0316612405836113b4565b6001600160a01b0316145b949350505050565b6020808252601e908201527f4f776e61626c655061757361626c653a206163636573732064656e6965640000604082015260600190565b6001600160e01b0319811681146108a957600080fd5b60006020828403121561247757600080fd5b81356112508161244f565b60005b8381101561249d578181015183820152602001612485565b50506000910152565b600081518084526124be816020860160208601612482565b601f01601f19169290920160200192915050565b60208152600061125060208301846124a6565b6000602082840312156124f757600080fd5b5035919050565b80356001600160a01b038116811461251557600080fd5b919050565b6000806040838503121561252d57600080fd5b612536836124fe565b946020939093013593505050565b60006020828403121561255657600080fd5b611250826124fe565b60008060006060848603121561257457600080fd5b61257d846124fe565b925061258b602085016124fe565b9150604084013590509250925092565b600080604083850312156125ae57600080fd5b823591506125be602084016124fe565b90509250929050565b634e487b7160e01b600052604160045260246000fd5b6040805190810167ffffffffffffffff81118282101715612600576126006125c7565b60405290565b604051601f8201601f1916810167ffffffffffffffff8111828210171561262f5761262f6125c7565b604052919050565b600080600080600060a0868803121561264f57600080fd5b8535945060206126608188016124fe565b94506040612670604089016124fe565b945060608801359350608088013567ffffffffffffffff8082111561269457600080fd5b818a0191508a601f8301126126a857600080fd5b8135818111156126ba576126ba6125c7565b6126c8858260051b01612606565b818152858101925060069190911b83018501908c8211156126e857600080fd5b928501925b818410156127285784848e0312156127055760008081fd5b61270d6125dd565b843581528685013587820152835292840192918501916126ed565b8096505050505050509295509295909350565b80151581146108a957600080fd5b6000806040838503121561275c57600080fd5b612765836124fe565b915060208301356127758161273b565b809150509250929050565b6000806000806080858703121561279657600080fd5b61279f856124fe565b935060206127ae8187016124fe565b935060408601359250606086013567ffffffffffffffff808211156127d257600080fd5b818801915088601f8301126127e657600080fd5b8135818111156127f8576127f86125c7565b61280a601f8201601f19168501612606565b9150808252898482850101111561282057600080fd5b808484018584013760008482840101525080935050505092959194509250565b6000806040838503121561285357600080fd5b50508035926020909101359150565b6000806040838503121561287557600080fd5b61287e836124fe565b91506125be602084016124fe565b600181811c908216806128a057607f821691505b6020821081036128c057634e487b7160e01b600052602260045260246000fd5b50919050565b634e487b7160e01b600052603260045260246000fd5b634e487b7160e01b600052601160045260246000fd5b80820281158282048414176107c5576107c56128dc565b808201808211156107c5576107c56128dc565b60008261293957634e487b7160e01b600052601260045260246000fd5b500490565b602080825282518282018190526000919060409081850190868401855b828110156129805781518051855286015186850152928401929085019060010161295b565b5091979650505050505050565b815180516001600160a01b0390811683526020808301518185015260408084015190921682850152606080840151908501526080808401519085015260a092830151928401929092528184015180516000939182019284929160c08701905b80851015612a1557855180518352840151848301529483019460019490940193908201906129ec565b50604088015181526020810198975050505050505050565b60008351612a3f818460208801612482565b835190830190612a53818360208801612482565b01949350505050565b60008251612a6e818460208701612482565b9190910192915050565b600060208284031215612a8a57600080fd5b81516112508161273b565b6001600160a01b0385811682528416602082015260408101839052608060608201819052600090612ac8908301846124a6565b9695505050505050565b600060208284031215612ae457600080fd5b81516112508161244f565b601f8211156109b4576000816000526020600020601f850160051c81016020861015612b185750805b601f850160051c820191505b818110156111da57828155600101612b24565b815167ffffffffffffffff811115612b5157612b516125c7565b612b6581612b5f845461288c565b84612aef565b602080601f831160018114612b9a5760008415612b825750858301515b600019600386901b1c1916600185901b1785556111da565b600085815260208120601f198616915b82811015612bc957888601518255948401946001909101908401612baa565b5085821015612be75787850151600019600388901b60f8161c191681555b5050505050600190811b0190555056fe80bb2b638cc20bc4d0a60d66940f3ab4a00c1d7b313497ca82fb0b4ab007930065d7a28e3265b37a6474929f336521b332c1681b933f6cb9f3376673440d862a02dd7bc7dec4dceedda775e58dd541e08a116c6c53815c0bd028192f7b626800cd5ed15c6e187e77e9aee88184c21f4f2182ab5827cb3b7e07fbedcd63f03300f0c57e16840df040f15088dc2f81fe391c3923bec73e23a9662efc9c229c6a00a2646970667358221220b0c763fa68128c2cbdd6bdaefe544d4d089c61e3ff52f7b42543ec56151635d264736f6c63430008170033","linkReferences":{"contracts/abstracts/libs/utils/AtomicSwapMsgValidator.sol":{"AtomicSwapMsgValidator":[{"start":3491,"length":20}]}}},"methodIdentifiers":{"DEFAULT_ADMIN_ROLE()":"a217fddf","PAUSER_ROLE()":"e63ab1e9","addAdmin(address)":"70480275","addPauser(address)":"82dc1ec4","approve(address,uint256)":"095ea7b3","balanceOf(address)":"70a08231","getApproved(uint256)":"081812fc","getRoleAdmin(bytes32)":"248a9ca3","grantRole(bytes32,address)":"2f2ff15d","hasRole(bytes32,address)":"91d14854","initialize(address)":"c4d66de8","isAdmin(address)":"24d7806c","isApprovedForAll(address,address)":"e985e9c5","isPauser(address)":"46fbf68e","name()":"06fdde03","ownerOf(uint256)":"6352211e","paginationSize()":"3d538ecf","pause()":"8456cb59","paused()":"5c975abb","release(uint256)":"37bdc99b","releaseInfos(uint256,uint256)":"c46e043b","removeAdmin(address)":"1785f53c","removePauser(address)":"6b2c0f55","renounceRole(bytes32,address)":"36568abe","revokeRole(bytes32,address)":"d547741f","safeTransferFrom(address,address,uint256)":"42842e0e","safeTransferFrom(address,address,uint256,bytes)":"b88d4fde","setApprovalForAll(address,bool)":"a22cb465","setPaginationSize(uint256)":"f2407ca4","startVesting(bytes32,address,address,uint256,(uint256,uint256)[])":"7623f00e","supportsInterface(bytes4)":"01ffc9a7","symbol()":"95d89b41","tokenURI(uint256)":"c87b56dd","transferFrom(address,address,uint256)":"23b872dd","unpause()":"3f4ba83a","vestingSchedules(uint256)":"6d3cbe21"},"id":10}