{
  "_format": "hh-sol-artifact-1",
  "contractName": "SideLzAppUpgradable",
  "sourceName": "contracts/interchain_atomicswap/lzApp/SideLzAppUpgradble.sol",
  "abi": [
    {
      "inputs": [],
      "name": "InvalidInitialization",
      "type": "error"
    },
    {
      "inputs": [],
      "name": "NotInitializing",
      "type": "error"
    },
    {
      "inputs": [
        {
          "internalType": "address",
          "name": "owner",
          "type": "address"
        }
      ],
      "name": "OwnableInvalidOwner",
      "type": "error"
    },
    {
      "inputs": [
        {
          "internalType": "address",
          "name": "account",
          "type": "address"
        }
      ],
      "name": "OwnableUnauthorizedAccount",
      "type": "error"
    },
    {
      "anonymous": false,
      "inputs": [
        {
          "indexed": false,
          "internalType": "uint64",
          "name": "version",
          "type": "uint64"
        }
      ],
      "name": "Initialized",
      "type": "event"
    },
    {
      "anonymous": false,
      "inputs": [
        {
          "indexed": false,
          "internalType": "uint16",
          "name": "_srcChainId",
          "type": "uint16"
        },
        {
          "indexed": false,
          "internalType": "bytes",
          "name": "_srcAddress",
          "type": "bytes"
        },
        {
          "indexed": false,
          "internalType": "uint64",
          "name": "_nonce",
          "type": "uint64"
        },
        {
          "indexed": false,
          "internalType": "bytes",
          "name": "_payload",
          "type": "bytes"
        },
        {
          "indexed": false,
          "internalType": "bytes",
          "name": "_reason",
          "type": "bytes"
        }
      ],
      "name": "MessageFailed",
      "type": "event"
    },
    {
      "anonymous": false,
      "inputs": [
        {
          "indexed": true,
          "internalType": "address",
          "name": "previousOwner",
          "type": "address"
        },
        {
          "indexed": true,
          "internalType": "address",
          "name": "newOwner",
          "type": "address"
        }
      ],
      "name": "OwnershipTransferred",
      "type": "event"
    },
    {
      "anonymous": false,
      "inputs": [
        {
          "indexed": false,
          "internalType": "uint16",
          "name": "_srcChainId",
          "type": "uint16"
        },
        {
          "indexed": false,
          "internalType": "bytes",
          "name": "_srcAddress",
          "type": "bytes"
        },
        {
          "indexed": false,
          "internalType": "uint64",
          "name": "_nonce",
          "type": "uint64"
        },
        {
          "indexed": false,
          "internalType": "bytes32",
          "name": "_payloadHash",
          "type": "bytes32"
        }
      ],
      "name": "RetryMessageSuccess",
      "type": "event"
    },
    {
      "anonymous": false,
      "inputs": [
        {
          "indexed": false,
          "internalType": "uint16",
          "name": "_dstChainId",
          "type": "uint16"
        },
        {
          "indexed": false,
          "internalType": "uint16",
          "name": "_type",
          "type": "uint16"
        },
        {
          "indexed": false,
          "internalType": "uint256",
          "name": "_minDstGas",
          "type": "uint256"
        }
      ],
      "name": "SetMinDstGas",
      "type": "event"
    },
    {
      "anonymous": false,
      "inputs": [
        {
          "indexed": false,
          "internalType": "address",
          "name": "precrime",
          "type": "address"
        }
      ],
      "name": "SetPrecrime",
      "type": "event"
    },
    {
      "anonymous": false,
      "inputs": [
        {
          "indexed": false,
          "internalType": "uint16",
          "name": "_remoteChainId",
          "type": "uint16"
        },
        {
          "indexed": false,
          "internalType": "bytes",
          "name": "_path",
          "type": "bytes"
        }
      ],
      "name": "SetTrustedRemote",
      "type": "event"
    },
    {
      "anonymous": false,
      "inputs": [
        {
          "indexed": false,
          "internalType": "uint16",
          "name": "_remoteChainId",
          "type": "uint16"
        },
        {
          "indexed": false,
          "internalType": "bytes",
          "name": "_remoteAddress",
          "type": "bytes"
        }
      ],
      "name": "SetTrustedRemoteAddress",
      "type": "event"
    },
    {
      "inputs": [],
      "name": "DEFAULT_PAYLOAD_SIZE_LIMIT",
      "outputs": [
        {
          "internalType": "uint256",
          "name": "",
          "type": "uint256"
        }
      ],
      "stateMutability": "view",
      "type": "function"
    },
    {
      "inputs": [
        {
          "internalType": "uint16",
          "name": "_dstChainId",
          "type": "uint16"
        },
        {
          "internalType": "bool",
          "name": "_useZro",
          "type": "bool"
        },
        {
          "internalType": "bytes",
          "name": "_adapterParams",
          "type": "bytes"
        },
        {
          "internalType": "bytes",
          "name": "_payload",
          "type": "bytes"
        }
      ],
      "name": "estimateFee",
      "outputs": [
        {
          "internalType": "uint256",
          "name": "nativeFee",
          "type": "uint256"
        },
        {
          "internalType": "uint256",
          "name": "zroFee",
          "type": "uint256"
        }
      ],
      "stateMutability": "view",
      "type": "function"
    },
    {
      "inputs": [
        {
          "internalType": "uint16",
          "name": "",
          "type": "uint16"
        },
        {
          "internalType": "bytes",
          "name": "",
          "type": "bytes"
        },
        {
          "internalType": "uint64",
          "name": "",
          "type": "uint64"
        }
      ],
      "name": "failedMessages",
      "outputs": [
        {
          "internalType": "bytes32",
          "name": "",
          "type": "bytes32"
        }
      ],
      "stateMutability": "view",
      "type": "function"
    },
    {
      "inputs": [
        {
          "internalType": "uint16",
          "name": "_srcChainId",
          "type": "uint16"
        },
        {
          "internalType": "bytes",
          "name": "_srcAddress",
          "type": "bytes"
        }
      ],
      "name": "forceResumeReceive",
      "outputs": [],
      "stateMutability": "nonpayable",
      "type": "function"
    },
    {
      "inputs": [
        {
          "internalType": "uint16",
          "name": "_version",
          "type": "uint16"
        },
        {
          "internalType": "uint16",
          "name": "_chainId",
          "type": "uint16"
        },
        {
          "internalType": "address",
          "name": "",
          "type": "address"
        },
        {
          "internalType": "uint256",
          "name": "_configType",
          "type": "uint256"
        }
      ],
      "name": "getConfig",
      "outputs": [
        {
          "internalType": "bytes",
          "name": "",
          "type": "bytes"
        }
      ],
      "stateMutability": "view",
      "type": "function"
    },
    {
      "inputs": [
        {
          "internalType": "uint16",
          "name": "_remoteChainId",
          "type": "uint16"
        }
      ],
      "name": "getTrustedRemoteAddress",
      "outputs": [
        {
          "internalType": "bytes",
          "name": "",
          "type": "bytes"
        }
      ],
      "stateMutability": "view",
      "type": "function"
    },
    {
      "inputs": [
        {
          "internalType": "address",
          "name": "admin",
          "type": "address"
        },
        {
          "internalType": "address",
          "name": "_endpoint",
          "type": "address"
        }
      ],
      "name": "initialize",
      "outputs": [],
      "stateMutability": "nonpayable",
      "type": "function"
    },
    {
      "inputs": [
        {
          "internalType": "uint16",
          "name": "_srcChainId",
          "type": "uint16"
        },
        {
          "internalType": "bytes",
          "name": "_srcAddress",
          "type": "bytes"
        }
      ],
      "name": "isTrustedRemote",
      "outputs": [
        {
          "internalType": "bool",
          "name": "",
          "type": "bool"
        }
      ],
      "stateMutability": "view",
      "type": "function"
    },
    {
      "inputs": [],
      "name": "lzEndpoint",
      "outputs": [
        {
          "internalType": "contract ILayerZeroEndpointUpgradeable",
          "name": "",
          "type": "address"
        }
      ],
      "stateMutability": "view",
      "type": "function"
    },
    {
      "inputs": [
        {
          "internalType": "uint16",
          "name": "_srcChainId",
          "type": "uint16"
        },
        {
          "internalType": "bytes",
          "name": "_srcAddress",
          "type": "bytes"
        },
        {
          "internalType": "uint64",
          "name": "_nonce",
          "type": "uint64"
        },
        {
          "internalType": "bytes",
          "name": "_payload",
          "type": "bytes"
        }
      ],
      "name": "lzReceive",
      "outputs": [],
      "stateMutability": "nonpayable",
      "type": "function"
    },
    {
      "inputs": [
        {
          "internalType": "uint16",
          "name": "",
          "type": "uint16"
        },
        {
          "internalType": "uint16",
          "name": "",
          "type": "uint16"
        }
      ],
      "name": "minDstGasLookup",
      "outputs": [
        {
          "internalType": "uint256",
          "name": "",
          "type": "uint256"
        }
      ],
      "stateMutability": "view",
      "type": "function"
    },
    {
      "inputs": [
        {
          "internalType": "uint16",
          "name": "_srcChainId",
          "type": "uint16"
        },
        {
          "internalType": "bytes",
          "name": "_srcAddress",
          "type": "bytes"
        },
        {
          "internalType": "uint64",
          "name": "_nonce",
          "type": "uint64"
        },
        {
          "internalType": "bytes",
          "name": "_payload",
          "type": "bytes"
        }
      ],
      "name": "nonblockingLzReceive",
      "outputs": [],
      "stateMutability": "nonpayable",
      "type": "function"
    },
    {
      "inputs": [],
      "name": "owner",
      "outputs": [
        {
          "internalType": "address",
          "name": "",
          "type": "address"
        }
      ],
      "stateMutability": "view",
      "type": "function"
    },
    {
      "inputs": [
        {
          "internalType": "uint16",
          "name": "",
          "type": "uint16"
        }
      ],
      "name": "payloadSizeLimitLookup",
      "outputs": [
        {
          "internalType": "uint256",
          "name": "",
          "type": "uint256"
        }
      ],
      "stateMutability": "view",
      "type": "function"
    },
    {
      "inputs": [],
      "name": "precrime",
      "outputs": [
        {
          "internalType": "address",
          "name": "",
          "type": "address"
        }
      ],
      "stateMutability": "view",
      "type": "function"
    },
    {
      "inputs": [],
      "name": "renounceOwnership",
      "outputs": [],
      "stateMutability": "nonpayable",
      "type": "function"
    },
    {
      "inputs": [
        {
          "internalType": "uint16",
          "name": "_srcChainId",
          "type": "uint16"
        },
        {
          "internalType": "bytes",
          "name": "_srcAddress",
          "type": "bytes"
        },
        {
          "internalType": "uint64",
          "name": "_nonce",
          "type": "uint64"
        },
        {
          "internalType": "bytes",
          "name": "_payload",
          "type": "bytes"
        }
      ],
      "name": "retryMessage",
      "outputs": [],
      "stateMutability": "payable",
      "type": "function"
    },
    {
      "inputs": [
        {
          "internalType": "uint16",
          "name": "_srcChainId",
          "type": "uint16"
        },
        {
          "internalType": "address payable",
          "name": "sender",
          "type": "address"
        },
        {
          "internalType": "bytes",
          "name": "_payload",
          "type": "bytes"
        }
      ],
      "name": "sendLzMsg",
      "outputs": [],
      "stateMutability": "payable",
      "type": "function"
    },
    {
      "inputs": [
        {
          "internalType": "uint16",
          "name": "_version",
          "type": "uint16"
        },
        {
          "internalType": "uint16",
          "name": "_chainId",
          "type": "uint16"
        },
        {
          "internalType": "uint256",
          "name": "_configType",
          "type": "uint256"
        },
        {
          "internalType": "bytes",
          "name": "_config",
          "type": "bytes"
        }
      ],
      "name": "setConfig",
      "outputs": [],
      "stateMutability": "nonpayable",
      "type": "function"
    },
    {
      "inputs": [
        {
          "internalType": "uint16",
          "name": "_dstChainId",
          "type": "uint16"
        },
        {
          "internalType": "uint16",
          "name": "_packetType",
          "type": "uint16"
        },
        {
          "internalType": "uint256",
          "name": "_minGas",
          "type": "uint256"
        }
      ],
      "name": "setMinDstGas",
      "outputs": [],
      "stateMutability": "nonpayable",
      "type": "function"
    },
    {
      "inputs": [
        {
          "internalType": "uint16",
          "name": "dstChainId",
          "type": "uint16"
        },
        {
          "internalType": "address",
          "name": "oracle",
          "type": "address"
        }
      ],
      "name": "setOracle",
      "outputs": [],
      "stateMutability": "nonpayable",
      "type": "function"
    },
    {
      "inputs": [
        {
          "internalType": "address",
          "name": "_atomicswap",
          "type": "address"
        },
        {
          "internalType": "address",
          "name": "_interchainswap",
          "type": "address"
        }
      ],
      "name": "setPacketReceivers",
      "outputs": [],
      "stateMutability": "nonpayable",
      "type": "function"
    },
    {
      "inputs": [
        {
          "internalType": "uint16",
          "name": "_dstChainId",
          "type": "uint16"
        },
        {
          "internalType": "uint256",
          "name": "_size",
          "type": "uint256"
        }
      ],
      "name": "setPayloadSizeLimit",
      "outputs": [],
      "stateMutability": "nonpayable",
      "type": "function"
    },
    {
      "inputs": [
        {
          "internalType": "address",
          "name": "_precrime",
          "type": "address"
        }
      ],
      "name": "setPrecrime",
      "outputs": [],
      "stateMutability": "nonpayable",
      "type": "function"
    },
    {
      "inputs": [
        {
          "internalType": "uint16",
          "name": "_version",
          "type": "uint16"
        }
      ],
      "name": "setReceiveVersion",
      "outputs": [],
      "stateMutability": "nonpayable",
      "type": "function"
    },
    {
      "inputs": [
        {
          "internalType": "uint16",
          "name": "_version",
          "type": "uint16"
        }
      ],
      "name": "setSendVersion",
      "outputs": [],
      "stateMutability": "nonpayable",
      "type": "function"
    },
    {
      "inputs": [
        {
          "internalType": "uint16",
          "name": "_srcChainId",
          "type": "uint16"
        },
        {
          "internalType": "bytes",
          "name": "_path",
          "type": "bytes"
        }
      ],
      "name": "setTrustedRemote",
      "outputs": [],
      "stateMutability": "nonpayable",
      "type": "function"
    },
    {
      "inputs": [
        {
          "internalType": "uint16",
          "name": "_remoteChainId",
          "type": "uint16"
        },
        {
          "internalType": "bytes",
          "name": "_remoteAddress",
          "type": "bytes"
        }
      ],
      "name": "setTrustedRemoteAddress",
      "outputs": [],
      "stateMutability": "nonpayable",
      "type": "function"
    },
    {
      "inputs": [
        {
          "internalType": "address",
          "name": "newOwner",
          "type": "address"
        }
      ],
      "name": "transferOwnership",
      "outputs": [],
      "stateMutability": "nonpayable",
      "type": "function"
    },
    {
      "inputs": [
        {
          "internalType": "uint16",
          "name": "",
          "type": "uint16"
        }
      ],
      "name": "trustedRemoteLookup",
      "outputs": [
        {
          "internalType": "bytes",
          "name": "",
          "type": "bytes"
        }
      ],
      "stateMutability": "view",
      "type": "function"
    }
  ],
  "bytecode": "0x608060405234801561001057600080fd5b5061428d806100206000396000f3fe6080604052600436106101cc5760003560e01c80638cfd8f5c116100f7578063c446183411610095578063e4a8b2f911610064578063e4a8b2f914610671578063eb8d72b71461068d578063f2fde38b146106b6578063f5ecbdbc146106df576101cc565b8063c4461834146105d8578063cbed8b9c14610603578063d1deba1f1461062c578063df2a5b3b14610648576101cc565b80639f38369a116100d15780639f38369a1461051e578063a6c3d1651461055b578063b353aaa714610584578063baf3292d146105af576101cc565b80638cfd8f5c1461048b5780638da5cb5b146104c8578063950c8a74146104f3576101cc565b80633f1f4fa41161016f5780635b8c41e61161013e5780635b8c41e6146103d157806366ad5c8a1461040e578063715018a6146104375780637533d7881461044e576101cc565b80633f1f4fa41461031957806342d65a8d14610356578063485cc9551461037f578063492e527e146103a8576101cc565b80630df37483116101ab5780630df374831461026157806310ddb1371461028a5780631d01191b146102b35780633d8b38f6146102dc576101cc565b80621d3567146101d157806307e0db17146101fa5780630bd856fa14610223575b600080fd5b3480156101dd57600080fd5b506101f860048036038101906101f391906126ea565b61071c565b005b34801561020657600080fd5b50610221600480360381019061021c9190612791565b61092f565b005b34801561022f57600080fd5b5061024a600480360381019061024591906127f6565b6109c5565b6040516102589291906128b6565b60405180910390f35b34801561026d57600080fd5b506102886004803603810190610283919061290b565b610a7c565b005b34801561029657600080fd5b506102b160048036038101906102ac9190612791565b610aa8565b005b3480156102bf57600080fd5b506102da60048036038101906102d591906129a9565b610b3e565b005b3480156102e857600080fd5b5061030360048036038101906102fe91906129e9565b610b8b565b6040516103109190612a58565b60405180910390f35b34801561032557600080fd5b50610340600480360381019061033b9190612791565b610c5f565b60405161034d9190612a73565b60405180910390f35b34801561036257600080fd5b5061037d600480360381019061037891906129e9565b610c77565b005b34801561038b57600080fd5b506103a660048036038101906103a191906129a9565b610d13565b005b3480156103b457600080fd5b506103cf60048036038101906103ca9190612a8e565b610eac565b005b3480156103dd57600080fd5b506103f860048036038101906103f39190612c0f565b611008565b6040516104059190612c97565b60405180910390f35b34801561041a57600080fd5b50610435600480360381019061043091906126ea565b611050565b005b34801561044357600080fd5b5061044c61111e565b005b34801561045a57600080fd5b5061047560048036038101906104709190612791565b611132565b6040516104829190612d31565b60405180910390f35b34801561049757600080fd5b506104b260048036038101906104ad9190612d53565b6111d2565b6040516104bf9190612a73565b60405180910390f35b3480156104d457600080fd5b506104dd6111f7565b6040516104ea9190612da2565b60405180910390f35b3480156104ff57600080fd5b5061050861122f565b6040516105159190612da2565b60405180910390f35b34801561052a57600080fd5b5061054560048036038101906105409190612791565b611255565b6040516105529190612d31565b60405180910390f35b34801561056757600080fd5b50610582600480360381019061057d91906129e9565b61136e565b005b34801561059057600080fd5b50610599611402565b6040516105a69190612e1c565b60405180910390f35b3480156105bb57600080fd5b506105d660048036038101906105d19190612e37565b611426565b005b3480156105e457600080fd5b506105ed6114a9565b6040516105fa9190612a73565b60405180910390f35b34801561060f57600080fd5b5061062a60048036038101906106259190612e64565b6114af565b005b610646600480360381019061064191906126ea565b611551565b005b34801561065457600080fd5b5061066f600480360381019061066a9190612eec565b611751565b005b61068b60048036038101906106869190612f7d565b611815565b005b34801561069957600080fd5b506106b460048036038101906106af91906129e9565b61190d565b005b3480156106c257600080fd5b506106dd60048036038101906106d89190612e37565b611980565b005b3480156106eb57600080fd5b5061070660048036038101906107019190612ff1565b611a06565b6040516107139190612d31565b60405180910390f35b60008054906101000a900473ffffffffffffffffffffffffffffffffffffffff1673ffffffffffffffffffffffffffffffffffffffff1661075b611ab7565b73ffffffffffffffffffffffffffffffffffffffff16146107b1576040517f08c379a00000000000000000000000000000000000000000000000000000000081526004016107a8906130b5565b60405180910390fd5b6000600160008861ffff1661ffff16815260200190815260200160002080546107d990613104565b80601f016020809104026020016040519081016040528092919081815260200182805461080590613104565b80156108525780601f1061082757610100808354040283529160200191610852565b820191906000526020600020905b81548152906001019060200180831161083557829003601f168201915b5050505050905080518686905014801561086d575060008151115b801561089657508080519060200120868660405161088c929190613165565b6040518091039020145b6108d5576040517f08c379a00000000000000000000000000000000000000000000000000000000081526004016108cc906131f0565b60405180910390fd5b6109268787878080601f016020809104026020016040519081016040528093929190818152602001838380828437600081840152601f19601f82011690508083019250505050505050868686611abf565b50505050505050565b610937611bd1565b60008054906101000a900473ffffffffffffffffffffffffffffffffffffffff1673ffffffffffffffffffffffffffffffffffffffff166307e0db17826040518263ffffffff1660e01b8152600401610990919061321f565b600060405180830381600087803b1580156109aa57600080fd5b505af11580156109be573d6000803e3d6000fd5b5050505050565b60008060008054906101000a900473ffffffffffffffffffffffffffffffffffffffff1673ffffffffffffffffffffffffffffffffffffffff166340a7bb10893087878c8c8c6040518863ffffffff1660e01b8152600401610a2d9796959493929190613267565b6040805180830381865afa158015610a49573d6000803e3d6000fd5b505050506040513d601f19601f82011682018060405250810190610a6d91906132e1565b91509150965096945050505050565b610a84611bd1565b80600360008461ffff1661ffff168152602001908152602001600020819055505050565b610ab0611bd1565b60008054906101000a900473ffffffffffffffffffffffffffffffffffffffff1673ffffffffffffffffffffffffffffffffffffffff166310ddb137826040518263ffffffff1660e01b8152600401610b09919061321f565b600060405180830381600087803b158015610b2357600080fd5b505af1158015610b37573d6000803e3d6000fd5b5050505050565b610b46611bd1565b81606460006101000a81548173ffffffffffffffffffffffffffffffffffffffff021916908373ffffffffffffffffffffffffffffffffffffffff1602179055505050565b600080600160008661ffff1661ffff1681526020019081526020016000208054610bb490613104565b80601f0160208091040260200160405190810160405280929190818152602001828054610be090613104565b8015610c2d5780601f10610c0257610100808354040283529160200191610c2d565b820191906000526020600020905b815481529060010190602001808311610c1057829003601f168201915b505050505090508383604051610c44929190613165565b60405180910390208180519060200120149150509392505050565b60036020528060005260406000206000915090505481565b610c7f611bd1565b60008054906101000a900473ffffffffffffffffffffffffffffffffffffffff1673ffffffffffffffffffffffffffffffffffffffff166342d65a8d8484846040518463ffffffff1660e01b8152600401610cdc93929190613321565b600060405180830381600087803b158015610cf657600080fd5b505af1158015610d0a573d6000803e3d6000fd5b50505050505050565b6000610d1d611c58565b905060008160000160089054906101000a900460ff1615905060008260000160009054906101000a900467ffffffffffffffff1690506000808267ffffffffffffffff16148015610d6b5750825b9050600060018367ffffffffffffffff16148015610da0575060003073ffffffffffffffffffffffffffffffffffffffff163b145b905081158015610dae575080155b15610de5576040517ff92ee8a900000000000000000000000000000000000000000000000000000000815260040160405180910390fd5b60018560000160006101000a81548167ffffffffffffffff021916908367ffffffffffffffff1602179055508315610e355760018560000160086101000a81548160ff0219169083151502179055505b610e3e87611c80565b610e4786611d06565b8315610ea35760008560000160086101000a81548160ff0219169083151502179055507fc7f505b2f371ae2175ee4913f4499e1f2633a7b5936321eed1cdaeb6115181d26001604051610e9a919061338e565b60405180910390a15b50505050505050565b610eb4611bd1565b60006006905060008054906101000a900473ffffffffffffffffffffffffffffffffffffffff1673ffffffffffffffffffffffffffffffffffffffff1663cbed8b9c60008054906101000a900473ffffffffffffffffffffffffffffffffffffffff1673ffffffffffffffffffffffffffffffffffffffff1663096568f6306040518263ffffffff1660e01b8152600401610f4f9190612da2565b602060405180830381865afa158015610f6c573d6000803e3d6000fd5b505050506040513d601f19601f82011682018060405250810190610f9091906133be565b858486604051602001610fa39190612da2565b6040516020818303038152906040526040518563ffffffff1660e01b8152600401610fd194939291906133eb565b600060405180830381600087803b158015610feb57600080fd5b505af1158015610fff573d6000803e3d6000fd5b50505050505050565b60326020528260005260406000208280516020810182018051848252602083016020850120818352809550505050505060205280600052604060002060009250925050505481565b3073ffffffffffffffffffffffffffffffffffffffff1661106f611ab7565b73ffffffffffffffffffffffffffffffffffffffff16146110c5576040517f08c379a00000000000000000000000000000000000000000000000000000000081526004016110bc906134a9565b60405180910390fd5b6111168686868080601f016020809104026020016040519081016040528093929190818152602001838380828437600081840152601f19601f82011690508083019250505050505050858585611d23565b505050505050565b611126611bd1565b6111306000611ef4565b565b6001602052806000526040600020600091509050805461115190613104565b80601f016020809104026020016040519081016040528092919081815260200182805461117d90613104565b80156111ca5780601f1061119f576101008083540402835291602001916111ca565b820191906000526020600020905b8154815290600101906020018083116111ad57829003601f168201915b505050505081565b6002602052816000526040600020602052806000526040600020600091509150505481565b600080611202611fcb565b90508060000160009054906101000a900473ffffffffffffffffffffffffffffffffffffffff1691505090565b600460009054906101000a900473ffffffffffffffffffffffffffffffffffffffff1681565b60606000600160008461ffff1661ffff168152602001908152602001600020805461127f90613104565b80601f01602080910402602001604051908101604052809291908181526020018280546112ab90613104565b80156112f85780601f106112cd576101008083540402835291602001916112f8565b820191906000526020600020905b8154815290600101906020018083116112db57829003601f168201915b505050505090506000815103611343576040517f08c379a000000000000000000000000000000000000000000000000000000000815260040161133a90613515565b60405180910390fd5b6113666000601483516113569190613564565b83611ff39092919063ffffffff16565b915050919050565b611376611bd1565b81813060405160200161138b939291906135e0565b604051602081830303815290604052600160008561ffff1661ffff16815260200190815260200160002090816113c191906137ac565b507f8c0400cfe2d1199b1a725c78960bcc2a344d869b80590d0f2bd005db15a572ce8383836040516113f593929190613321565b60405180910390a1505050565b60008054906101000a900473ffffffffffffffffffffffffffffffffffffffff1681565b61142e611bd1565b80600460006101000a81548173ffffffffffffffffffffffffffffffffffffffff021916908373ffffffffffffffffffffffffffffffffffffffff1602179055507f5db758e995a17ec1ad84bdef7e8c3293a0bd6179bcce400dff5d4c3d87db726b8160405161149e9190612da2565b60405180910390a150565b61271081565b6114b7611bd1565b60008054906101000a900473ffffffffffffffffffffffffffffffffffffffff1673ffffffffffffffffffffffffffffffffffffffff1663cbed8b9c86868686866040518663ffffffff1660e01b815260040161151895949392919061387e565b600060405180830381600087803b15801561153257600080fd5b505af1158015611546573d6000803e3d6000fd5b505050505050505050565b6000603260008861ffff1661ffff168152602001908152602001600020868660405161157e929190613165565b908152602001604051809103902060008567ffffffffffffffff1667ffffffffffffffff1681526020019081526020016000205490506000801b81036115f9576040517f08c379a00000000000000000000000000000000000000000000000000000000081526004016115f09061393e565b60405180910390fd5b80838360405161160a929190613165565b604051809103902014611652576040517f08c379a0000000000000000000000000000000000000000000000000000000008152600401611649906139d0565b60405180910390fd5b6000801b603260008961ffff1661ffff1681526020019081526020016000208787604051611681929190613165565b908152602001604051809103902060008667ffffffffffffffff1667ffffffffffffffff168152602001908152602001600020819055506117098787878080601f016020809104026020016040519081016040528093929190818152602001838380828437600081840152601f19601f82011690508083019250505050505050868686611d23565b7fc264d91f3adc5588250e1551f547752ca0cfa8f6b530d243b9f9f4cab10ea8e587878787856040516117409594939291906139ff565b60405180910390a150505050505050565b611759611bd1565b6000811161179c576040517f08c379a000000000000000000000000000000000000000000000000000000000815260040161179390613a99565b60405180910390fd5b80600260008561ffff1661ffff16815260200190815260200160002060008461ffff1661ffff168152602001908152602001600020819055507f9d5c7c0b934da8fefa9c7760c98383778a12dfbfc0c3b3106518f43fb9508ac083838360405161180893929190613ab9565b60405180910390a1505050565b606460009054906101000a900473ffffffffffffffffffffffffffffffffffffffff1673ffffffffffffffffffffffffffffffffffffffff163373ffffffffffffffffffffffffffffffffffffffff16146118a5576040517f08c379a000000000000000000000000000000000000000000000000000000000815260040161189c90613b3c565b60405180910390fd5b6119078483838080601f016020809104026020016040519081016040528093929190818152602001838380828437600081840152601f19601f820116905080830192505050505050508560006040518060200160405280600081525034612111565b50505050565b611915611bd1565b8181600160008661ffff1661ffff168152602001908152602001600020918261193f929190613b67565b507ffa41487ad5d6728f0b19276fa1eddc16558578f5109fc39d2dc33c3230470dab83838360405161197393929190613321565b60405180910390a1505050565b611988611bd1565b600073ffffffffffffffffffffffffffffffffffffffff168173ffffffffffffffffffffffffffffffffffffffff16036119fa5760006040517f1e4fbdf70000000000000000000000000000000000000000000000000000000081526004016119f19190612da2565b60405180910390fd5b611a0381611ef4565b50565b606060008054906101000a900473ffffffffffffffffffffffffffffffffffffffff1673ffffffffffffffffffffffffffffffffffffffff1663f5ecbdbc868630866040518563ffffffff1660e01b8152600401611a679493929190613c37565b600060405180830381865afa158015611a84573d6000803e3d6000fd5b505050506040513d6000823e3d601f19601f82011682018060405250810190611aad9190613cec565b9050949350505050565b600033905090565b600080611b6d5a60966366ad5c8a60e01b8a8a8a8a8a604051602401611ae9959493929190613d35565b604051602081830303815290604052907bffffffffffffffffffffffffffffffffffffffffffffffffffffffff19166020820180517bffffffffffffffffffffffffffffffffffffffffffffffffffffffff83818316178352505050503073ffffffffffffffffffffffffffffffffffffffff166122a7909392919063ffffffff16565b9150915081611bc857611bc787878787878080601f016020809104026020016040519081016040528093929190818152602001838380828437600081840152601f19601f820116905080830192505050505050508561233f565b5b50505050505050565b611bd9611ab7565b73ffffffffffffffffffffffffffffffffffffffff16611bf76111f7565b73ffffffffffffffffffffffffffffffffffffffff1614611c5657611c1a611ab7565b6040517f118cdaa7000000000000000000000000000000000000000000000000000000008152600401611c4d9190612da2565b60405180910390fd5b565b60007ff0c57e16840df040f15088dc2f81fe391c3923bec73e23a9662efc9c229c6a00905090565b611c886123ed565b600073ffffffffffffffffffffffffffffffffffffffff168173ffffffffffffffffffffffffffffffffffffffff1603611cfa5760006040517f1e4fbdf7000000000000000000000000000000000000000000000000000000008152600401611cf19190612da2565b60405180910390fd5b611d0381611ef4565b50565b611d0e6123ed565b611d1733611c80565b611d208161242d565b50565b60008282600090602092611d3993929190613d94565b90611d449190613dcf565b90506000801b8103611dfb57606460009054906101000a900473ffffffffffffffffffffffffffffffffffffffff1673ffffffffffffffffffffffffffffffffffffffff166340d7185c87878787876020908092611da493929190613d94565b6040518663ffffffff1660e01b8152600401611dc4959493929190613e2e565b600060405180830381600087803b158015611dde57600080fd5b505af1158015611df2573d6000803e3d6000fd5b50505050611eec565b600160001b8103611eeb57611e446040518060400160405280600f81526020017f5265636569766564205061636b65740000000000000000000000000000000000815250612478565b606460009054906101000a900473ffffffffffffffffffffffffffffffffffffffff1673ffffffffffffffffffffffffffffffffffffffff1663fce9f79087878787876020908092611e9893929190613d94565b6040518663ffffffff1660e01b8152600401611eb8959493929190613e2e565b600060405180830381600087803b158015611ed257600080fd5b505af1158015611ee6573d6000803e3d6000fd5b505050505b5b505050505050565b6000611efe611fcb565b905060008160000160009054906101000a900473ffffffffffffffffffffffffffffffffffffffff169050828260000160006101000a81548173ffffffffffffffffffffffffffffffffffffffff021916908373ffffffffffffffffffffffffffffffffffffffff1602179055508273ffffffffffffffffffffffffffffffffffffffff168173ffffffffffffffffffffffffffffffffffffffff167f8be0079c531659141344cd1fd0a4f28419497f9722a3daafe3b4186f6b6457e060405160405180910390a3505050565b60007f9016d09d72d40fdae2fd8ceac6b6234c7706214fd39c1cd1e609a0528c199300905090565b606081601f836120039190613e83565b1015612044576040517f08c379a000000000000000000000000000000000000000000000000000000000815260040161203b90613f03565b60405180910390fd5b81836120509190613e83565b84511015612093576040517f08c379a000000000000000000000000000000000000000000000000000000000815260040161208a90613f6f565b60405180910390fd5b60608215600081146120b45760405191506000825260208201604052612105565b6040519150601f8416801560200281840101858101878315602002848b0101015b818310156120f257805183526020830192506020810190506120d5565b50868552601f19601f8301166040525050505b50809150509392505050565b6000600160008861ffff1661ffff168152602001908152602001600020805461213990613104565b80601f016020809104026020016040519081016040528092919081815260200182805461216590613104565b80156121b25780601f10612187576101008083540402835291602001916121b2565b820191906000526020600020905b81548152906001019060200180831161219557829003601f168201915b5050505050905060008151036121fd576040517f08c379a00000000000000000000000000000000000000000000000000000000081526004016121f490614001565b60405180910390fd5b612208878751612511565b60008054906101000a900473ffffffffffffffffffffffffffffffffffffffff1673ffffffffffffffffffffffffffffffffffffffff1663c58031008389848a8a8a8a6040518863ffffffff1660e01b815260040161226c96959493929190614030565b6000604051808303818588803b15801561228557600080fd5b505af1158015612299573d6000803e3d6000fd5b505050505050505050505050565b6000606060008060008661ffff1667ffffffffffffffff8111156122ce576122cd612ae4565b5b6040519080825280601f01601f1916602001820160405280156123005781602001600182028036833780820191505090505b50905060008087516020890160008d8df191503d925086831115612322578692505b828152826000602083013e81819450945050505094509492505050565b8180519060200120603260008761ffff1661ffff1681526020019081526020016000208560405161237091906140d7565b908152602001604051809103902060008567ffffffffffffffff1667ffffffffffffffff168152602001908152602001600020819055507fe183f33de2837795525b4792ca4cd60535bd77c53b7e7030060bfcf5734d6b0c85858585856040516123de9594939291906140ee565b60405180910390a15050505050565b6123f5612587565b61242b576040517fd7e6bcf800000000000000000000000000000000000000000000000000000000815260040160405180910390fd5b565b6124356123ed565b806000806101000a81548173ffffffffffffffffffffffffffffffffffffffff021916908373ffffffffffffffffffffffffffffffffffffffff16021790555050565b61250e8160405160240161248c919061419a565b6040516020818303038152906040527f41304fac000000000000000000000000000000000000000000000000000000007bffffffffffffffffffffffffffffffffffffffffffffffffffffffff19166020820180517bffffffffffffffffffffffffffffffffffffffffffffffffffffffff83818316178352505050506125a7565b50565b6000600360008461ffff1661ffff1681526020019081526020016000205490506000810361253f5761271090505b80821115612582576040517f08c379a000000000000000000000000000000000000000000000000000000000815260040161257990614208565b60405180910390fd5b505050565b6000612591611c58565b60000160089054906101000a900460ff16905090565b6125be816125b66125c16125e2565b63ffffffff16565b50565b60006a636f6e736f6c652e6c6f679050600080835160208501845afa505050565b6125ed819050919050565b6125f5614228565b565b6000604051905090565b600080fd5b600080fd5b600061ffff82169050919050565b6126228161260b565b811461262d57600080fd5b50565b60008135905061263f81612619565b92915050565b600080fd5b600080fd5b600080fd5b60008083601f84011261266a57612669612645565b5b8235905067ffffffffffffffff8111156126875761268661264a565b5b6020830191508360018202830111156126a3576126a261264f565b5b9250929050565b600067ffffffffffffffff82169050919050565b6126c7816126aa565b81146126d257600080fd5b50565b6000813590506126e4816126be565b92915050565b6000806000806000806080878903121561270757612706612601565b5b600061271589828a01612630565b965050602087013567ffffffffffffffff81111561273657612735612606565b5b61274289828a01612654565b9550955050604061275589828a016126d5565b935050606087013567ffffffffffffffff81111561277657612775612606565b5b61278289828a01612654565b92509250509295509295509295565b6000602082840312156127a7576127a6612601565b5b60006127b584828501612630565b91505092915050565b60008115159050919050565b6127d3816127be565b81146127de57600080fd5b50565b6000813590506127f0816127ca565b92915050565b6000806000806000806080878903121561281357612812612601565b5b600061282189828a01612630565b965050602061283289828a016127e1565b955050604087013567ffffffffffffffff81111561285357612852612606565b5b61285f89828a01612654565b9450945050606087013567ffffffffffffffff81111561288257612881612606565b5b61288e89828a01612654565b92509250509295509295509295565b6000819050919050565b6128b08161289d565b82525050565b60006040820190506128cb60008301856128a7565b6128d860208301846128a7565b9392505050565b6128e88161289d565b81146128f357600080fd5b50565b600081359050612905816128df565b92915050565b6000806040838503121561292257612921612601565b5b600061293085828601612630565b9250506020612941858286016128f6565b9150509250929050565b600073ffffffffffffffffffffffffffffffffffffffff82169050919050565b60006129768261294b565b9050919050565b6129868161296b565b811461299157600080fd5b50565b6000813590506129a38161297d565b92915050565b600080604083850312156129c0576129bf612601565b5b60006129ce85828601612994565b92505060206129df85828601612994565b9150509250929050565b600080600060408486031215612a0257612a01612601565b5b6000612a1086828701612630565b935050602084013567ffffffffffffffff811115612a3157612a30612606565b5b612a3d86828701612654565b92509250509250925092565b612a52816127be565b82525050565b6000602082019050612a6d6000830184612a49565b92915050565b6000602082019050612a8860008301846128a7565b92915050565b60008060408385031215612aa557612aa4612601565b5b6000612ab385828601612630565b9250506020612ac485828601612994565b9150509250929050565b600080fd5b6000601f19601f8301169050919050565b7f4e487b7100000000000000000000000000000000000000000000000000000000600052604160045260246000fd5b612b1c82612ad3565b810181811067ffffffffffffffff82111715612b3b57612b3a612ae4565b5b80604052505050565b6000612b4e6125f7565b9050612b5a8282612b13565b919050565b600067ffffffffffffffff821115612b7a57612b79612ae4565b5b612b8382612ad3565b9050602081019050919050565b82818337600083830152505050565b6000612bb2612bad84612b5f565b612b44565b905082815260208101848484011115612bce57612bcd612ace565b5b612bd9848285612b90565b509392505050565b600082601f830112612bf657612bf5612645565b5b8135612c06848260208601612b9f565b91505092915050565b600080600060608486031215612c2857612c27612601565b5b6000612c3686828701612630565b935050602084013567ffffffffffffffff811115612c5757612c56612606565b5b612c6386828701612be1565b9250506040612c74868287016126d5565b9150509250925092565b6000819050919050565b612c9181612c7e565b82525050565b6000602082019050612cac6000830184612c88565b92915050565b600081519050919050565b600082825260208201905092915050565b60005b83811015612cec578082015181840152602081019050612cd1565b60008484015250505050565b6000612d0382612cb2565b612d0d8185612cbd565b9350612d1d818560208601612cce565b612d2681612ad3565b840191505092915050565b60006020820190508181036000830152612d4b8184612cf8565b905092915050565b60008060408385031215612d6a57612d69612601565b5b6000612d7885828601612630565b9250506020612d8985828601612630565b9150509250929050565b612d9c8161296b565b82525050565b6000602082019050612db76000830184612d93565b92915050565b6000819050919050565b6000612de2612ddd612dd88461294b565b612dbd565b61294b565b9050919050565b6000612df482612dc7565b9050919050565b6000612e0682612de9565b9050919050565b612e1681612dfb565b82525050565b6000602082019050612e316000830184612e0d565b92915050565b600060208284031215612e4d57612e4c612601565b5b6000612e5b84828501612994565b91505092915050565b600080600080600060808688031215612e8057612e7f612601565b5b6000612e8e88828901612630565b9550506020612e9f88828901612630565b9450506040612eb0888289016128f6565b935050606086013567ffffffffffffffff811115612ed157612ed0612606565b5b612edd88828901612654565b92509250509295509295909350565b600080600060608486031215612f0557612f04612601565b5b6000612f1386828701612630565b9350506020612f2486828701612630565b9250506040612f35868287016128f6565b9150509250925092565b6000612f4a8261294b565b9050919050565b612f5a81612f3f565b8114612f6557600080fd5b50565b600081359050612f7781612f51565b92915050565b60008060008060608587031215612f9757612f96612601565b5b6000612fa587828801612630565b9450506020612fb687828801612f68565b935050604085013567ffffffffffffffff811115612fd757612fd6612606565b5b612fe387828801612654565b925092505092959194509250565b6000806000806080858703121561300b5761300a612601565b5b600061301987828801612630565b945050602061302a87828801612630565b935050604061303b87828801612994565b925050606061304c878288016128f6565b91505092959194509250565b600082825260208201905092915050565b7f4c7a4170703a20696e76616c696420656e64706f696e742063616c6c65720000600082015250565b600061309f601e83613058565b91506130aa82613069565b602082019050919050565b600060208201905081810360008301526130ce81613092565b9050919050565b7f4e487b7100000000000000000000000000000000000000000000000000000000600052602260045260246000fd5b6000600282049050600182168061311c57607f821691505b60208210810361312f5761312e6130d5565b5b50919050565b600081905092915050565b600061314c8385613135565b9350613159838584612b90565b82840190509392505050565b6000613172828486613140565b91508190509392505050565b7f4c7a4170703a20696e76616c696420736f757263652073656e64696e6720636f60008201527f6e74726163740000000000000000000000000000000000000000000000000000602082015250565b60006131da602683613058565b91506131e58261317e565b604082019050919050565b60006020820190508181036000830152613209816131cd565b9050919050565b6132198161260b565b82525050565b60006020820190506132346000830184613210565b92915050565b60006132468385612cbd565b9350613253838584612b90565b61325c83612ad3565b840190509392505050565b600060a08201905061327c600083018a613210565b6132896020830189612d93565b818103604083015261329c81878961323a565b90506132ab6060830186612a49565b81810360808301526132be81848661323a565b905098975050505050505050565b6000815190506132db816128df565b92915050565b600080604083850312156132f8576132f7612601565b5b6000613306858286016132cc565b9250506020613317858286016132cc565b9150509250929050565b60006040820190506133366000830186613210565b818103602083015261334981848661323a565b9050949350505050565b6000819050919050565b600061337861337361336e84613353565b612dbd565b6126aa565b9050919050565b6133888161335d565b82525050565b60006020820190506133a3600083018461337f565b92915050565b6000815190506133b881612619565b92915050565b6000602082840312156133d4576133d3612601565b5b60006133e2848285016133a9565b91505092915050565b60006080820190506134006000830187613210565b61340d6020830186613210565b61341a60408301856128a7565b818103606083015261342c8184612cf8565b905095945050505050565b7f4e6f6e626c6f636b696e674c7a4170703a2063616c6c6572206d75737420626560008201527f204c7a4170700000000000000000000000000000000000000000000000000000602082015250565b6000613493602683613058565b915061349e82613437565b604082019050919050565b600060208201905081810360008301526134c281613486565b9050919050565b7f4c7a4170703a206e6f20747275737465642070617468207265636f7264000000600082015250565b60006134ff601d83613058565b915061350a826134c9565b602082019050919050565b6000602082019050818103600083015261352e816134f2565b9050919050565b7f4e487b7100000000000000000000000000000000000000000000000000000000600052601160045260246000fd5b600061356f8261289d565b915061357a8361289d565b925082820390508181111561359257613591613535565b5b92915050565b60008160601b9050919050565b60006135b082613598565b9050919050565b60006135c2826135a5565b9050919050565b6135da6135d58261296b565b6135b7565b82525050565b60006135ed828587613140565b91506135f982846135c9565b601482019150819050949350505050565b60008190508160005260206000209050919050565b60006020601f8301049050919050565b600082821b905092915050565b60006008830261366c7fffffffffffffffffffffffffffffffffffffffffffffffffffffffffffffffff8261362f565b613676868361362f565b95508019841693508086168417925050509392505050565b60006136a96136a461369f8461289d565b612dbd565b61289d565b9050919050565b6000819050919050565b6136c38361368e565b6136d76136cf826136b0565b84845461363c565b825550505050565b600090565b6136ec6136df565b6136f78184846136ba565b505050565b5b8181101561371b576137106000826136e4565b6001810190506136fd565b5050565b601f821115613760576137318161360a565b61373a8461361f565b81016020851015613749578190505b61375d6137558561361f565b8301826136fc565b50505b505050565b600082821c905092915050565b600061378360001984600802613765565b1980831691505092915050565b600061379c8383613772565b9150826002028217905092915050565b6137b582612cb2565b67ffffffffffffffff8111156137ce576137cd612ae4565b5b6137d88254613104565b6137e382828561371f565b600060209050601f8311600181146138165760008415613804578287015190505b61380e8582613790565b865550613876565b601f1984166138248661360a565b60005b8281101561384c57848901518255600182019150602085019450602081019050613827565b868310156138695784890151613865601f891682613772565b8355505b6001600288020188555050505b505050505050565b60006080820190506138936000830188613210565b6138a06020830187613210565b6138ad60408301866128a7565b81810360608301526138c081848661323a565b90509695505050505050565b7f4e6f6e626c6f636b696e674c7a4170703a206e6f2073746f726564206d65737360008201527f6167650000000000000000000000000000000000000000000000000000000000602082015250565b6000613928602383613058565b9150613933826138cc565b604082019050919050565b600060208201905081810360008301526139578161391b565b9050919050565b7f4e6f6e626c6f636b696e674c7a4170703a20696e76616c6964207061796c6f6160008201527f6400000000000000000000000000000000000000000000000000000000000000602082015250565b60006139ba602183613058565b91506139c58261395e565b604082019050919050565b600060208201905081810360008301526139e9816139ad565b9050919050565b6139f9816126aa565b82525050565b6000608082019050613a146000830188613210565b8181036020830152613a2781868861323a565b9050613a3660408301856139f0565b613a436060830184612c88565b9695505050505050565b7f4c7a4170703a20696e76616c6964206d696e4761730000000000000000000000600082015250565b6000613a83601583613058565b9150613a8e82613a4d565b602082019050919050565b60006020820190508181036000830152613ab281613a76565b9050919050565b6000606082019050613ace6000830186613210565b613adb6020830185613210565b613ae860408301846128a7565b949350505050565b7f4e6f207065726d697373696f6e20746f20757365000000000000000000000000600082015250565b6000613b26601483613058565b9150613b3182613af0565b602082019050919050565b60006020820190508181036000830152613b5581613b19565b9050919050565b600082905092915050565b613b718383613b5c565b67ffffffffffffffff811115613b8a57613b89612ae4565b5b613b948254613104565b613b9f82828561371f565b6000601f831160018114613bce5760008415613bbc578287013590505b613bc68582613790565b865550613c2e565b601f198416613bdc8661360a565b60005b82811015613c0457848901358255600182019150602085019450602081019050613bdf565b86831015613c215784890135613c1d601f891682613772565b8355505b6001600288020188555050505b50505050505050565b6000608082019050613c4c6000830187613210565b613c596020830186613210565b613c666040830185612d93565b613c7360608301846128a7565b95945050505050565b6000613c8f613c8a84612b5f565b612b44565b905082815260208101848484011115613cab57613caa612ace565b5b613cb6848285612cce565b509392505050565b600082601f830112613cd357613cd2612645565b5b8151613ce3848260208601613c7c565b91505092915050565b600060208284031215613d0257613d01612601565b5b600082015167ffffffffffffffff811115613d2057613d1f612606565b5b613d2c84828501613cbe565b91505092915050565b6000608082019050613d4a6000830188613210565b8181036020830152613d5c8187612cf8565b9050613d6b60408301866139f0565b8181036060830152613d7e81848661323a565b90509695505050505050565b600080fd5b600080fd5b60008085851115613da857613da7613d8a565b5b83861115613db957613db8613d8f565b5b6001850283019150848603905094509492505050565b6000613ddb8383613b5c565b82613de68135612c7e565b92506020821015613e2657613e217fffffffffffffffffffffffffffffffffffffffffffffffffffffffffffffffff8360200360080261362f565b831692505b505092915050565b6000608082019050613e436000830188613210565b8181036020830152613e558187612cf8565b9050613e6460408301866139f0565b8181036060830152613e7781848661323a565b90509695505050505050565b6000613e8e8261289d565b9150613e998361289d565b9250828201905080821115613eb157613eb0613535565b5b92915050565b7f736c6963655f6f766572666c6f77000000000000000000000000000000000000600082015250565b6000613eed600e83613058565b9150613ef882613eb7565b602082019050919050565b60006020820190508181036000830152613f1c81613ee0565b9050919050565b7f736c6963655f6f75744f66426f756e6473000000000000000000000000000000600082015250565b6000613f59601183613058565b9150613f6482613f23565b602082019050919050565b60006020820190508181036000830152613f8881613f4c565b9050919050565b7f4c7a4170703a2064657374696e6174696f6e20636861696e206973206e6f742060008201527f61207472757374656420736f7572636500000000000000000000000000000000602082015250565b6000613feb603083613058565b9150613ff682613f8f565b604082019050919050565b6000602082019050818103600083015261401a81613fde565b9050919050565b61402a81612f3f565b82525050565b600060c0820190506140456000830189613210565b81810360208301526140578188612cf8565b9050818103604083015261406b8187612cf8565b905061407a6060830186614021565b6140876080830185612d93565b81810360a08301526140998184612cf8565b9050979650505050505050565b60006140b182612cb2565b6140bb8185613135565b93506140cb818560208601612cce565b80840191505092915050565b60006140e382846140a6565b915081905092915050565b600060a0820190506141036000830188613210565b81810360208301526141158187612cf8565b905061412460408301866139f0565b81810360608301526141368185612cf8565b9050818103608083015261414a8184612cf8565b90509695505050505050565b600081519050919050565b600061416c82614156565b6141768185613058565b9350614186818560208601612cce565b61418f81612ad3565b840191505092915050565b600060208201905081810360008301526141b48184614161565b905092915050565b7f4c7a4170703a207061796c6f61642073697a6520697320746f6f206c61726765600082015250565b60006141f2602083613058565b91506141fd826141bc565b602082019050919050565b60006020820190508181036000830152614221816141e5565b9050919050565b7f4e487b7100000000000000000000000000000000000000000000000000000000600052605160045260246000fdfea2646970667358221220274b6b8bf9b70bc5496179848c8e5c05c2f053366073b1ea0fcb2cf01db4b49164736f6c63430008140033",
  "linkReferences": {},
  "deployedLinkReferences": {}
}