{
  "_format": "hh-sol-artifact-1",
  "contractName": "VaultPermit",
  "sourceName": "contracts/vault/VaultPermit.sol",
  "abi": [
    {
      "inputs": [
        {
          "internalType": "string",
          "name": "name",
          "type": "string"
        }
      ],
      "stateMutability": "nonpayable",
      "type": "constructor"
    },
    {
      "inputs": [],
      "name": "ECDSAInvalidSignature",
      "type": "error"
    },
    {
      "inputs": [
        {
          "internalType": "uint256",
          "name": "length",
          "type": "uint256"
        }
      ],
      "name": "ECDSAInvalidSignatureLength",
      "type": "error"
    },
    {
      "inputs": [
        {
          "internalType": "bytes32",
          "name": "s",
          "type": "bytes32"
        }
      ],
      "name": "ECDSAInvalidSignatureS",
      "type": "error"
    },
    {
      "inputs": [
        {
          "internalType": "address",
          "name": "account",
          "type": "address"
        },
        {
          "internalType": "uint256",
          "name": "currentNonce",
          "type": "uint256"
        }
      ],
      "name": "InvalidAccountNonce",
      "type": "error"
    },
    {
      "inputs": [],
      "name": "InvalidShortString",
      "type": "error"
    },
    {
      "inputs": [
        {
          "internalType": "string",
          "name": "str",
          "type": "string"
        }
      ],
      "name": "StringTooLong",
      "type": "error"
    },
    {
      "inputs": [
        {
          "internalType": "uint256",
          "name": "deadline",
          "type": "uint256"
        }
      ],
      "name": "VaultExpiredSignature",
      "type": "error"
    },
    {
      "inputs": [
        {
          "internalType": "address",
          "name": "spender",
          "type": "address"
        },
        {
          "internalType": "uint256",
          "name": "currentAllowance",
          "type": "uint256"
        },
        {
          "internalType": "uint256",
          "name": "value",
          "type": "uint256"
        }
      ],
      "name": "VaultInsufficientAllowance",
      "type": "error"
    },
    {
      "inputs": [
        {
          "internalType": "address",
          "name": "token",
          "type": "address"
        },
        {
          "internalType": "address",
          "name": "from",
          "type": "address"
        },
        {
          "internalType": "uint256",
          "name": "fromBalance",
          "type": "uint256"
        },
        {
          "internalType": "uint256",
          "name": "value",
          "type": "uint256"
        }
      ],
      "name": "VaultInsufficientBalance",
      "type": "error"
    },
    {
      "inputs": [
        {
          "internalType": "address",
          "name": "approver",
          "type": "address"
        }
      ],
      "name": "VaultInvalidApprover",
      "type": "error"
    },
    {
      "inputs": [
        {
          "internalType": "address",
          "name": "receiver",
          "type": "address"
        }
      ],
      "name": "VaultInvalidReceiver",
      "type": "error"
    },
    {
      "inputs": [
        {
          "internalType": "address",
          "name": "sender",
          "type": "address"
        }
      ],
      "name": "VaultInvalidSender",
      "type": "error"
    },
    {
      "inputs": [
        {
          "internalType": "address",
          "name": "signer",
          "type": "address"
        },
        {
          "internalType": "address",
          "name": "owner",
          "type": "address"
        }
      ],
      "name": "VaultInvalidSigner",
      "type": "error"
    },
    {
      "inputs": [
        {
          "internalType": "address",
          "name": "spender",
          "type": "address"
        }
      ],
      "name": "VaultInvalidSpender",
      "type": "error"
    },
    {
      "anonymous": false,
      "inputs": [
        {
          "indexed": true,
          "internalType": "address",
          "name": "token",
          "type": "address"
        },
        {
          "indexed": true,
          "internalType": "address",
          "name": "from",
          "type": "address"
        },
        {
          "indexed": false,
          "internalType": "uint256",
          "name": "value",
          "type": "uint256"
        }
      ],
      "name": "Deposit",
      "type": "event"
    },
    {
      "anonymous": false,
      "inputs": [],
      "name": "EIP712DomainChanged",
      "type": "event"
    },
    {
      "anonymous": false,
      "inputs": [
        {
          "indexed": true,
          "internalType": "address",
          "name": "owner",
          "type": "address"
        },
        {
          "indexed": true,
          "internalType": "address",
          "name": "spender",
          "type": "address"
        },
        {
          "indexed": true,
          "internalType": "uint256",
          "name": "value",
          "type": "uint256"
        }
      ],
      "name": "VaultApproval",
      "type": "event"
    },
    {
      "anonymous": false,
      "inputs": [
        {
          "indexed": false,
          "internalType": "address",
          "name": "token",
          "type": "address"
        },
        {
          "indexed": false,
          "internalType": "address",
          "name": "from",
          "type": "address"
        },
        {
          "indexed": false,
          "internalType": "address",
          "name": "to",
          "type": "address"
        },
        {
          "indexed": false,
          "internalType": "uint256",
          "name": "value",
          "type": "uint256"
        }
      ],
      "name": "VaultTransfer",
      "type": "event"
    },
    {
      "anonymous": false,
      "inputs": [
        {
          "indexed": true,
          "internalType": "address",
          "name": "token",
          "type": "address"
        },
        {
          "indexed": true,
          "internalType": "address",
          "name": "to",
          "type": "address"
        },
        {
          "indexed": false,
          "internalType": "uint256",
          "name": "value",
          "type": "uint256"
        }
      ],
      "name": "Withdrawal",
      "type": "event"
    },
    {
      "stateMutability": "payable",
      "type": "fallback"
    },
    {
      "inputs": [],
      "name": "DOMAIN_SEPARATOR",
      "outputs": [
        {
          "internalType": "bytes32",
          "name": "",
          "type": "bytes32"
        }
      ],
      "stateMutability": "view",
      "type": "function"
    },
    {
      "inputs": [
        {
          "internalType": "address",
          "name": "token",
          "type": "address"
        },
        {
          "internalType": "address",
          "name": "owner",
          "type": "address"
        },
        {
          "internalType": "address",
          "name": "spender",
          "type": "address"
        }
      ],
      "name": "allowance",
      "outputs": [
        {
          "internalType": "uint256",
          "name": "",
          "type": "uint256"
        }
      ],
      "stateMutability": "view",
      "type": "function"
    },
    {
      "inputs": [
        {
          "internalType": "address",
          "name": "token",
          "type": "address"
        },
        {
          "internalType": "address",
          "name": "spender",
          "type": "address"
        },
        {
          "internalType": "uint256",
          "name": "value",
          "type": "uint256"
        }
      ],
      "name": "approve",
      "outputs": [
        {
          "internalType": "bool",
          "name": "",
          "type": "bool"
        }
      ],
      "stateMutability": "nonpayable",
      "type": "function"
    },
    {
      "inputs": [
        {
          "internalType": "address",
          "name": "account",
          "type": "address"
        },
        {
          "internalType": "address",
          "name": "token",
          "type": "address"
        }
      ],
      "name": "balanceOf",
      "outputs": [
        {
          "internalType": "uint256",
          "name": "",
          "type": "uint256"
        }
      ],
      "stateMutability": "view",
      "type": "function"
    },
    {
      "inputs": [
        {
          "internalType": "address",
          "name": "token",
          "type": "address"
        },
        {
          "internalType": "uint256",
          "name": "amount",
          "type": "uint256"
        }
      ],
      "name": "deposit",
      "outputs": [],
      "stateMutability": "payable",
      "type": "function"
    },
    {
      "inputs": [],
      "name": "eip712Domain",
      "outputs": [
        {
          "internalType": "bytes1",
          "name": "fields",
          "type": "bytes1"
        },
        {
          "internalType": "string",
          "name": "name",
          "type": "string"
        },
        {
          "internalType": "string",
          "name": "version",
          "type": "string"
        },
        {
          "internalType": "uint256",
          "name": "chainId",
          "type": "uint256"
        },
        {
          "internalType": "address",
          "name": "verifyingContract",
          "type": "address"
        },
        {
          "internalType": "bytes32",
          "name": "salt",
          "type": "bytes32"
        },
        {
          "internalType": "uint256[]",
          "name": "extensions",
          "type": "uint256[]"
        }
      ],
      "stateMutability": "view",
      "type": "function"
    },
    {
      "inputs": [
        {
          "internalType": "address",
          "name": "owner",
          "type": "address"
        }
      ],
      "name": "nonces",
      "outputs": [
        {
          "internalType": "uint256",
          "name": "",
          "type": "uint256"
        }
      ],
      "stateMutability": "view",
      "type": "function"
    },
    {
      "inputs": [
        {
          "internalType": "address",
          "name": "token",
          "type": "address"
        },
        {
          "internalType": "address",
          "name": "spender",
          "type": "address"
        },
        {
          "internalType": "uint256",
          "name": "value",
          "type": "uint256"
        },
        {
          "internalType": "bytes32",
          "name": "agreement",
          "type": "bytes32"
        },
        {
          "components": [
            {
              "internalType": "uint8",
              "name": "v",
              "type": "uint8"
            },
            {
              "internalType": "bytes32",
              "name": "r",
              "type": "bytes32"
            },
            {
              "internalType": "bytes32",
              "name": "s",
              "type": "bytes32"
            },
            {
              "internalType": "address",
              "name": "owner",
              "type": "address"
            },
            {
              "internalType": "uint256",
              "name": "deadline",
              "type": "uint256"
            }
          ],
          "internalType": "struct IAtomicSwapBase.PermitSignature",
          "name": "signature",
          "type": "tuple"
        }
      ],
      "name": "permit",
      "outputs": [],
      "stateMutability": "nonpayable",
      "type": "function"
    },
    {
      "inputs": [
        {
          "internalType": "address",
          "name": "token",
          "type": "address"
        },
        {
          "internalType": "address",
          "name": "to",
          "type": "address"
        },
        {
          "internalType": "uint256",
          "name": "value",
          "type": "uint256"
        }
      ],
      "name": "transfer",
      "outputs": [
        {
          "internalType": "bool",
          "name": "",
          "type": "bool"
        }
      ],
      "stateMutability": "nonpayable",
      "type": "function"
    },
    {
      "inputs": [
        {
          "internalType": "address",
          "name": "token",
          "type": "address"
        },
        {
          "internalType": "address",
          "name": "from",
          "type": "address"
        },
        {
          "internalType": "address",
          "name": "to",
          "type": "address"
        },
        {
          "internalType": "uint256",
          "name": "value",
          "type": "uint256"
        }
      ],
      "name": "transferFrom",
      "outputs": [
        {
          "internalType": "bool",
          "name": "",
          "type": "bool"
        }
      ],
      "stateMutability": "nonpayable",
      "type": "function"
    },
    {
      "inputs": [
        {
          "internalType": "address",
          "name": "token",
          "type": "address"
        },
        {
          "internalType": "address",
          "name": "to",
          "type": "address"
        },
        {
          "internalType": "uint256",
          "name": "amount",
          "type": "uint256"
        }
      ],
      "name": "withdraw",
      "outputs": [],
      "stateMutability": "nonpayable",
      "type": "function"
    },
    {
      "inputs": [
        {
          "internalType": "address",
          "name": "token",
          "type": "address"
        },
        {
          "internalType": "address",
          "name": "from",
          "type": "address"
        },
        {
          "internalType": "address",
          "name": "to",
          "type": "address"
        },
        {
          "internalType": "uint256",
          "name": "amount",
          "type": "uint256"
        }
      ],
      "name": "withdrawFrom",
      "outputs": [],
      "stateMutability": "nonpayable",
      "type": "function"
    },
    {
      "stateMutability": "payable",
      "type": "receive"
    }
  ],
  "bytecode": "0x6101606040523480156200001257600080fd5b50604051620036cc380380620036cc8339818101604052810190620000389190620003e5565b806040518060400160405280600181526020017f3100000000000000000000000000000000000000000000000000000000000000815250620000856002836200012660201b90919060201c565b6101208181525050620000a36003826200012660201b90919060201c565b6101408181525050818051906020012060e08181525050808051906020012061010081815250504660a08181525050620000e26200017e60201b60201c565b608081815250503073ffffffffffffffffffffffffffffffffffffffff1660c08173ffffffffffffffffffffffffffffffffffffffff16815250505050506200094e565b60006020835110156200014c576200014483620001db60201b60201c565b905062000178565b826200015e836200024860201b60201c565b60000190816200016f919062000681565b5060ff60001b90505b92915050565b60007f8b73c3c69bb8fe3d512ecc4cf759cc79239f7b179b0ffacaa9a75d522b39400f60e051610100514630604051602001620001c0959493929190620007d9565b60405160208183030381529060405280519060200120905090565b600080829050601f815111156200022b57826040517f305a27a900000000000000000000000000000000000000000000000000000000815260040162000222919062000888565b60405180910390fd5b8051816200023990620008de565b60001c1760001b915050919050565b6000819050919050565b6000604051905090565b600080fd5b600080fd5b600080fd5b600080fd5b6000601f19601f8301169050919050565b7f4e487b7100000000000000000000000000000000000000000000000000000000600052604160045260246000fd5b620002bb8262000270565b810181811067ffffffffffffffff82111715620002dd57620002dc62000281565b5b80604052505050565b6000620002f262000252565b9050620003008282620002b0565b919050565b600067ffffffffffffffff82111562000323576200032262000281565b5b6200032e8262000270565b9050602081019050919050565b60005b838110156200035b5780820151818401526020810190506200033e565b60008484015250505050565b60006200037e620003788462000305565b620002e6565b9050828152602081018484840111156200039d576200039c6200026b565b5b620003aa8482856200033b565b509392505050565b600082601f830112620003ca57620003c962000266565b5b8151620003dc84826020860162000367565b91505092915050565b600060208284031215620003fe57620003fd6200025c565b5b600082015167ffffffffffffffff8111156200041f576200041e62000261565b5b6200042d84828501620003b2565b91505092915050565b600081519050919050565b7f4e487b7100000000000000000000000000000000000000000000000000000000600052602260045260246000fd5b600060028204905060018216806200048957607f821691505b6020821081036200049f576200049e62000441565b5b50919050565b60008190508160005260206000209050919050565b60006020601f8301049050919050565b600082821b905092915050565b600060088302620005097fffffffffffffffffffffffffffffffffffffffffffffffffffffffffffffffff82620004ca565b620005158683620004ca565b95508019841693508086168417925050509392505050565b6000819050919050565b6000819050919050565b6000620005626200055c62000556846200052d565b62000537565b6200052d565b9050919050565b6000819050919050565b6200057e8362000541565b620005966200058d8262000569565b848454620004d7565b825550505050565b600090565b620005ad6200059e565b620005ba81848462000573565b505050565b5b81811015620005e257620005d6600082620005a3565b600181019050620005c0565b5050565b601f8211156200063157620005fb81620004a5565b6200060684620004ba565b8101602085101562000616578190505b6200062e6200062585620004ba565b830182620005bf565b50505b505050565b600082821c905092915050565b6000620006566000198460080262000636565b1980831691505092915050565b600062000671838362000643565b9150826002028217905092915050565b6200068c8262000436565b67ffffffffffffffff811115620006a857620006a762000281565b5b620006b4825462000470565b620006c1828285620005e6565b600060209050601f831160018114620006f95760008415620006e4578287015190505b620006f0858262000663565b86555062000760565b601f1984166200070986620004a5565b60005b8281101562000733578489015182556001820191506020850194506020810190506200070c565b868310156200075357848901516200074f601f89168262000643565b8355505b6001600288020188555050505b505050505050565b6000819050919050565b6200077d8162000768565b82525050565b6200078e816200052d565b82525050565b600073ffffffffffffffffffffffffffffffffffffffff82169050919050565b6000620007c18262000794565b9050919050565b620007d381620007b4565b82525050565b600060a082019050620007f0600083018862000772565b620007ff602083018762000772565b6200080e604083018662000772565b6200081d606083018562000783565b6200082c6080830184620007c8565b9695505050505050565b600082825260208201905092915050565b6000620008548262000436565b62000860818562000836565b9350620008728185602086016200033b565b6200087d8162000270565b840191505092915050565b60006020820190508181036000830152620008a4818462000847565b905092915050565b600081519050919050565b6000819050602082019050919050565b6000620008d5825162000768565b80915050919050565b6000620008eb82620008ac565b82620008f784620008b7565b90506200090481620008c7565b925060208210156200094757620009427fffffffffffffffffffffffffffffffffffffffffffffffffffffffffffffffff83602003600802620004ca565b831692505b5050919050565b60805160a05160c05160e051610100516101205161014051612d23620009a960003960006114a90152600061146e015260006119e7015260006119c60152600061123001526000611286015260006112af0152612d236000f3fe6080604052600436106100ab5760003560e01c8063927da10511610064578063927da105146101cf578063a1b996c11461020c578063beabacc814610235578063d9caed1214610272578063e1f21c671461029b578063f7888aec146102d8576100b2565b806315dacbea146100b457806326441318146100f15780633644e5151461011a57806347e7ef24146101455780637ecebe001461016157806384b0196e1461019e576100b2565b366100b257005b005b3480156100c057600080fd5b506100db60048036038101906100d69190611edd565b610315565b6040516100e89190611f5f565b60405180910390f35b3480156100fd57600080fd5b5061011860048036038101906101139190611edd565b610347565b005b34801561012657600080fd5b5061012f610656565b60405161013c9190611f93565b60405180910390f35b61015f600480360381019061015a9190611fae565b610665565b005b34801561016d57600080fd5b5061018860048036038101906101839190611fee565b610840565b604051610195919061202a565b60405180910390f35b3480156101aa57600080fd5b506101b3610852565b6040516101c697969594939291906121dd565b60405180910390f35b3480156101db57600080fd5b506101f660048036038101906101f19190612261565b6108fc565b604051610203919061202a565b60405180910390f35b34801561021857600080fd5b50610233600480360381019061022e9190612304565b6109c1565b005b34801561024157600080fd5b5061025c60048036038101906102579190612380565b610b8c565b6040516102699190611f5f565b60405180910390f35b34801561027e57600080fd5b5061029960048036038101906102949190612380565b610bb1565b005b3480156102a757600080fd5b506102c260048036038101906102bd9190612380565b610eb4565b6040516102cf9190611f5f565b60405180910390f35b3480156102e457600080fd5b506102ff60048036038101906102fa91906123d3565b610edb565b60405161030c919061202a565b60405180910390f35b600080610320610f61565b905061032e86868386610f69565b61033a86868686611000565b6001915050949350505050565b6000610351610f61565b905061035f85858385610f69565b600082116103a2576040517f08c379a00000000000000000000000000000000000000000000000000000000081526004016103999061245f565b60405180910390fd5b60008060008373ffffffffffffffffffffffffffffffffffffffff1673ffffffffffffffffffffffffffffffffffffffff16815260200190815260200160002060008773ffffffffffffffffffffffffffffffffffffffff1673ffffffffffffffffffffffffffffffffffffffff16815260200190815260200160002054905082811015610465576040517f08c379a000000000000000000000000000000000000000000000000000000000815260040161045c906124f1565b60405180910390fd5b826000808473ffffffffffffffffffffffffffffffffffffffff1673ffffffffffffffffffffffffffffffffffffffff16815260200190815260200160002060008873ffffffffffffffffffffffffffffffffffffffff1673ffffffffffffffffffffffffffffffffffffffff16815260200190815260200160002060008282546104f09190612540565b92505081905550600073ffffffffffffffffffffffffffffffffffffffff168673ffffffffffffffffffffffffffffffffffffffff16036105dd5760008473ffffffffffffffffffffffffffffffffffffffff1684604051610551906125a5565b60006040518083038185875af1925050503d806000811461058e576040519150601f19603f3d011682016040523d82523d6000602084013e610593565b606091505b50509050806105d7576040517f08c379a00000000000000000000000000000000000000000000000000000000081526004016105ce90612606565b60405180910390fd5b5061064e565b6105e88685856110f6565b8373ffffffffffffffffffffffffffffffffffffffff168673ffffffffffffffffffffffffffffffffffffffff167f2717ead6b9200dd235aad468c9809ea400fe33ac69b5bfaa6d3e90fc922b639885604051610645919061202a565b60405180910390a35b505050505050565b600061066061122c565b905090565b600073ffffffffffffffffffffffffffffffffffffffff168273ffffffffffffffffffffffffffffffffffffffff16146106f457600034146106dc576040517f08c379a00000000000000000000000000000000000000000000000000000000081526004016106d390612698565b60405180910390fd5b6106ef826106e8610f61565b30846112e3565b610737565b803403610736576040517f08c379a000000000000000000000000000000000000000000000000000000000815260040161072d9061272a565b60405180910390fd5b5b80600080610743610f61565b73ffffffffffffffffffffffffffffffffffffffff1673ffffffffffffffffffffffffffffffffffffffff16815260200190815260200160002060008473ffffffffffffffffffffffffffffffffffffffff1673ffffffffffffffffffffffffffffffffffffffff16815260200190815260200160002060008282546107c9919061274a565b925050819055506107d8610f61565b73ffffffffffffffffffffffffffffffffffffffff168273ffffffffffffffffffffffffffffffffffffffff167f5548c837ab068cf56a2c2479df0882a4922fd203edb7517321831d95078c5f6283604051610834919061202a565b60405180910390a35050565b600061084b8261141c565b9050919050565b600060608060008060006060610866611465565b61086e6114a0565b46306000801b600067ffffffffffffffff81111561088f5761088e61277e565b5b6040519080825280602002602001820160405280156108bd5781602001602082028036833780820191505090505b507f0f00000000000000000000000000000000000000000000000000000000000000959493929190965096509650965096509650965090919293949596565b6000600160008473ffffffffffffffffffffffffffffffffffffffff1673ffffffffffffffffffffffffffffffffffffffff16815260200190815260200160002060008573ffffffffffffffffffffffffffffffffffffffff1673ffffffffffffffffffffffffffffffffffffffff16815260200190815260200160002060008373ffffffffffffffffffffffffffffffffffffffff1673ffffffffffffffffffffffffffffffffffffffff1681526020019081526020016000205490509392505050565b8060800135421115610a0e5780608001356040517f0891870a000000000000000000000000000000000000000000000000000000008152600401610a05919061202a565b60405180910390fd5b60007f3fab43f23bf59e08a21b0b38b3838025d762030e5ddfea412cffa158f6d0a3ad826060016020810190610a449190611fee565b868686610a62876060016020810190610a5d9190611fee565b6114db565b8760800135604051602001610a7d97969594939291906127ad565b6040516020818303038152906040528051906020012090506000610aa082611532565b90506000610aca82856000016020810190610abb9190612855565b8660200135876040013561154c565b9050836060016020810190610adf9190611fee565b73ffffffffffffffffffffffffffffffffffffffff168173ffffffffffffffffffffffffffffffffffffffff1614610b625780846060016020810190610b259190611fee565b6040517f6babb097000000000000000000000000000000000000000000000000000000008152600401610b59929190612882565b60405180910390fd5b610b8288856060016020810190610b799190611fee565b8989600161157c565b5050505050505050565b600080610b97610f61565b9050610ba585828686611000565b60019150509392505050565b60008111610bf4576040517f08c379a0000000000000000000000000000000000000000000000000000000008152600401610beb9061245f565b60405180910390fd5b6000806000610c01610f61565b73ffffffffffffffffffffffffffffffffffffffff1673ffffffffffffffffffffffffffffffffffffffff16815260200190815260200160002060008573ffffffffffffffffffffffffffffffffffffffff1673ffffffffffffffffffffffffffffffffffffffff16815260200190815260200160002054905081811015610cbe576040517f08c379a0000000000000000000000000000000000000000000000000000000008152600401610cb5906124f1565b60405180910390fd5b81600080610cca610f61565b73ffffffffffffffffffffffffffffffffffffffff1673ffffffffffffffffffffffffffffffffffffffff16815260200190815260200160002060008673ffffffffffffffffffffffffffffffffffffffff1673ffffffffffffffffffffffffffffffffffffffff1681526020019081526020016000206000828254610d509190612540565b92505081905550600073ffffffffffffffffffffffffffffffffffffffff168473ffffffffffffffffffffffffffffffffffffffff1603610e3d5760008373ffffffffffffffffffffffffffffffffffffffff1683604051610db1906125a5565b60006040518083038185875af1925050503d8060008114610dee576040519150601f19603f3d011682016040523d82523d6000602084013e610df3565b606091505b5050905080610e37576040517f08c379a0000000000000000000000000000000000000000000000000000000008152600401610e2e90612606565b60405180910390fd5b50610eae565b610e488484846110f6565b8273ffffffffffffffffffffffffffffffffffffffff168473ffffffffffffffffffffffffffffffffffffffff167f2717ead6b9200dd235aad468c9809ea400fe33ac69b5bfaa6d3e90fc922b639884604051610ea5919061202a565b60405180910390a35b50505050565b600080610ebf610f61565b9050610ecf85828686600161157c565b60019150509392505050565b60008060008473ffffffffffffffffffffffffffffffffffffffff1673ffffffffffffffffffffffffffffffffffffffff16815260200190815260200160002060008373ffffffffffffffffffffffffffffffffffffffff1673ffffffffffffffffffffffffffffffffffffffff16815260200190815260200160002054905092915050565b600033905090565b6000610f768585856108fc565b90507fffffffffffffffffffffffffffffffffffffffffffffffffffffffffffffffff8114610ff95781811015610fe8578281836040517fcf7e3678000000000000000000000000000000000000000000000000000000008152600401610fdf939291906128ab565b60405180910390fd5b610ff8858585858503600061157c565b5b5050505050565b600073ffffffffffffffffffffffffffffffffffffffff168373ffffffffffffffffffffffffffffffffffffffff16036110725760006040517ff4d2be2900000000000000000000000000000000000000000000000000000000815260040161106991906128e2565b60405180910390fd5b600073ffffffffffffffffffffffffffffffffffffffff168273ffffffffffffffffffffffffffffffffffffffff16036110e45760006040517fe0823dd80000000000000000000000000000000000000000000000000000000081526004016110db91906128e2565b60405180910390fd5b6110f084848484611787565b50505050565b6000808473ffffffffffffffffffffffffffffffffffffffff1663a9059cbb85856040516024016111289291906128fd565b6040516020818303038152906040529060e01b6020820180517bffffffffffffffffffffffffffffffffffffffffffffffffffffffff83818316178352505050506040516111769190612962565b6000604051808303816000865af19150503d80600081146111b3576040519150601f19603f3d011682016040523d82523d6000602084013e6111b8565b606091505b50915091508180156111e657506000815114806111e55750808060200190518101906111e491906129a5565b5b5b611225576040517f08c379a000000000000000000000000000000000000000000000000000000000815260040161121c90612a44565b60405180910390fd5b5050505050565b60007f000000000000000000000000000000000000000000000000000000000000000073ffffffffffffffffffffffffffffffffffffffff163073ffffffffffffffffffffffffffffffffffffffff161480156112a857507f000000000000000000000000000000000000000000000000000000000000000046145b156112d5577f000000000000000000000000000000000000000000000000000000000000000090506112e0565b6112dd6119a1565b90505b90565b6000808573ffffffffffffffffffffffffffffffffffffffff166323b872dd86868660405160240161131793929190612a64565b6040516020818303038152906040529060e01b6020820180517bffffffffffffffffffffffffffffffffffffffffffffffffffffffff83818316178352505050506040516113659190612962565b6000604051808303816000865af19150503d80600081146113a2576040519150601f19603f3d011682016040523d82523d6000602084013e6113a7565b606091505b50915091508180156113d557506000815114806113d45750808060200190518101906113d391906129a5565b5b5b611414576040517f08c379a000000000000000000000000000000000000000000000000000000000815260040161140b90612b0d565b60405180910390fd5b505050505050565b6000600460008373ffffffffffffffffffffffffffffffffffffffff1673ffffffffffffffffffffffffffffffffffffffff168152602001908152602001600020549050919050565b606061149b60027f0000000000000000000000000000000000000000000000000000000000000000611a3790919063ffffffff16565b905090565b60606114d660037f0000000000000000000000000000000000000000000000000000000000000000611a3790919063ffffffff16565b905090565b6000600460008373ffffffffffffffffffffffffffffffffffffffff1673ffffffffffffffffffffffffffffffffffffffff1681526020019081526020016000206000815480929190600101919050559050919050565b600061154561153f61122c565b83611ae7565b9050919050565b60008060008061155e88888888611b28565b92509250925061156e8282611c1c565b829350505050949350505050565b600073ffffffffffffffffffffffffffffffffffffffff168473ffffffffffffffffffffffffffffffffffffffff16036115ee5760006040517fd5d258fa0000000000000000000000000000000000000000000000000000000081526004016115e591906128e2565b60405180910390fd5b600073ffffffffffffffffffffffffffffffffffffffff168373ffffffffffffffffffffffffffffffffffffffff16036116605760006040517f0abbbe2e00000000000000000000000000000000000000000000000000000000815260040161165791906128e2565b60405180910390fd5b81600160008673ffffffffffffffffffffffffffffffffffffffff1673ffffffffffffffffffffffffffffffffffffffff16815260200190815260200160002060008773ffffffffffffffffffffffffffffffffffffffff1673ffffffffffffffffffffffffffffffffffffffff16815260200190815260200160002060008573ffffffffffffffffffffffffffffffffffffffff1673ffffffffffffffffffffffffffffffffffffffff16815260200190815260200160002081905550801561178057818373ffffffffffffffffffffffffffffffffffffffff168573ffffffffffffffffffffffffffffffffffffffff167f91ed140d4ef0d36cfe0e48d6e199657e7295b810bded34c1c95874b2b676e06d60405160405180910390a45b5050505050565b60008060008573ffffffffffffffffffffffffffffffffffffffff1673ffffffffffffffffffffffffffffffffffffffff16815260200190815260200160002060008673ffffffffffffffffffffffffffffffffffffffff1673ffffffffffffffffffffffffffffffffffffffff1681526020019081526020016000205490508181101561185257848482846040517f680f1b420000000000000000000000000000000000000000000000000000000081526004016118499493929190612b2d565b60405180910390fd5b8181036000808673ffffffffffffffffffffffffffffffffffffffff1673ffffffffffffffffffffffffffffffffffffffff16815260200190815260200160002060008773ffffffffffffffffffffffffffffffffffffffff1673ffffffffffffffffffffffffffffffffffffffff16815260200190815260200160002081905550816000808573ffffffffffffffffffffffffffffffffffffffff1673ffffffffffffffffffffffffffffffffffffffff16815260200190815260200160002060008773ffffffffffffffffffffffffffffffffffffffff1673ffffffffffffffffffffffffffffffffffffffff168152602001908152602001600020600082825401925050819055507fc4298a5beffbb92832adef4bde23a2148eea5117fee88fd06e963ddcb4a523f4858585856040516119929493929190612b72565b60405180910390a15050505050565b60007f8b73c3c69bb8fe3d512ecc4cf759cc79239f7b179b0ffacaa9a75d522b39400f7f00000000000000000000000000000000000000000000000000000000000000007f00000000000000000000000000000000000000000000000000000000000000004630604051602001611a1c959493929190612bb7565b60405160208183030381529060405280519060200120905090565b606060ff60001b8314611a5457611a4d83611d80565b9050611ae1565b818054611a6090612c39565b80601f0160208091040260200160405190810160405280929190818152602001828054611a8c90612c39565b8015611ad95780601f10611aae57610100808354040283529160200191611ad9565b820191906000526020600020905b815481529060010190602001808311611abc57829003601f168201915b505050505090505b92915050565b60006040517f190100000000000000000000000000000000000000000000000000000000000081528360028201528260228201526042812091505092915050565b60008060007f7fffffffffffffffffffffffffffffff5d576e7357a4501ddfe92f46681b20a08460001c1115611b68576000600385925092509250611c12565b600060018888888860405160008152602001604052604051611b8d9493929190612c79565b6020604051602081039080840390855afa158015611baf573d6000803e3d6000fd5b505050602060405103519050600073ffffffffffffffffffffffffffffffffffffffff168173ffffffffffffffffffffffffffffffffffffffff1603611c0357600060016000801b93509350935050611c12565b8060008060001b935093509350505b9450945094915050565b60006003811115611c3057611c2f612cbe565b5b826003811115611c4357611c42612cbe565b5b0315611d7c5760016003811115611c5d57611c5c612cbe565b5b826003811115611c7057611c6f612cbe565b5b03611ca7576040517ff645eedf00000000000000000000000000000000000000000000000000000000815260040160405180910390fd5b60026003811115611cbb57611cba612cbe565b5b826003811115611cce57611ccd612cbe565b5b03611d13578060001c6040517ffce698f7000000000000000000000000000000000000000000000000000000008152600401611d0a919061202a565b60405180910390fd5b600380811115611d2657611d25612cbe565b5b826003811115611d3957611d38612cbe565b5b03611d7b57806040517fd78bce0c000000000000000000000000000000000000000000000000000000008152600401611d729190611f93565b60405180910390fd5b5b5050565b60606000611d8d83611df4565b90506000602067ffffffffffffffff811115611dac57611dab61277e565b5b6040519080825280601f01601f191660200182016040528015611dde5781602001600182028036833780820191505090505b5090508181528360208201528092505050919050565b60008060ff8360001c169050601f811115611e3b576040517fb3512b0c00000000000000000000000000000000000000000000000000000000815260040160405180910390fd5b80915050919050565b600080fd5b600073ffffffffffffffffffffffffffffffffffffffff82169050919050565b6000611e7482611e49565b9050919050565b611e8481611e69565b8114611e8f57600080fd5b50565b600081359050611ea181611e7b565b92915050565b6000819050919050565b611eba81611ea7565b8114611ec557600080fd5b50565b600081359050611ed781611eb1565b92915050565b60008060008060808587031215611ef757611ef6611e44565b5b6000611f0587828801611e92565b9450506020611f1687828801611e92565b9350506040611f2787828801611e92565b9250506060611f3887828801611ec8565b91505092959194509250565b60008115159050919050565b611f5981611f44565b82525050565b6000602082019050611f746000830184611f50565b92915050565b6000819050919050565b611f8d81611f7a565b82525050565b6000602082019050611fa86000830184611f84565b92915050565b60008060408385031215611fc557611fc4611e44565b5b6000611fd385828601611e92565b9250506020611fe485828601611ec8565b9150509250929050565b60006020828403121561200457612003611e44565b5b600061201284828501611e92565b91505092915050565b61202481611ea7565b82525050565b600060208201905061203f600083018461201b565b92915050565b60007fff0000000000000000000000000000000000000000000000000000000000000082169050919050565b61207a81612045565b82525050565b600081519050919050565b600082825260208201905092915050565b60005b838110156120ba57808201518184015260208101905061209f565b60008484015250505050565b6000601f19601f8301169050919050565b60006120e282612080565b6120ec818561208b565b93506120fc81856020860161209c565b612105816120c6565b840191505092915050565b61211981611e69565b82525050565b600081519050919050565b600082825260208201905092915050565b6000819050602082019050919050565b61215481611ea7565b82525050565b6000612166838361214b565b60208301905092915050565b6000602082019050919050565b600061218a8261211f565b612194818561212a565b935061219f8361213b565b8060005b838110156121d05781516121b7888261215a565b97506121c283612172565b9250506001810190506121a3565b5085935050505092915050565b600060e0820190506121f2600083018a612071565b818103602083015261220481896120d7565b9050818103604083015261221881886120d7565b9050612227606083018761201b565b6122346080830186612110565b61224160a0830185611f84565b81810360c0830152612253818461217f565b905098975050505050505050565b60008060006060848603121561227a57612279611e44565b5b600061228886828701611e92565b935050602061229986828701611e92565b92505060406122aa86828701611e92565b9150509250925092565b6122bd81611f7a565b81146122c857600080fd5b50565b6000813590506122da816122b4565b92915050565b600080fd5b600060a082840312156122fb576122fa6122e0565b5b81905092915050565b6000806000806000610120868803121561232157612320611e44565b5b600061232f88828901611e92565b955050602061234088828901611e92565b945050604061235188828901611ec8565b9350506060612362888289016122cb565b9250506080612373888289016122e5565b9150509295509295909350565b60008060006060848603121561239957612398611e44565b5b60006123a786828701611e92565b93505060206123b886828701611e92565b92505060406123c986828701611ec8565b9150509250925092565b600080604083850312156123ea576123e9611e44565b5b60006123f885828601611e92565b925050602061240985828601611e92565b9150509250929050565b7f5661756c743a20776974686472617720616d6f756e74206973207a65726f0000600082015250565b6000612449601e8361208b565b915061245482612413565b602082019050919050565b600060208201905081810360008301526124788161243c565b9050919050565b7f5661756c743a20776974686472617720616d6f756e742065786365656473206260008201527f616c616e63650000000000000000000000000000000000000000000000000000602082015250565b60006124db60268361208b565b91506124e68261247f565b604082019050919050565b6000602082019050818103600083015261250a816124ce565b9050919050565b7f4e487b7100000000000000000000000000000000000000000000000000000000600052601160045260246000fd5b600061254b82611ea7565b915061255683611ea7565b925082820390508181111561256e5761256d612511565b5b92915050565b600081905092915050565b50565b600061258f600083612574565b915061259a8261257f565b600082019050919050565b60006125b082612582565b9150819050919050565b7f5661756c743a204661696c656420746f2073656e642045746865720000000000600082015250565b60006125f0601b8361208b565b91506125fb826125ba565b602082019050919050565b6000602082019050818103600083015261261f816125e3565b9050919050565b7f5661756c743a2045746865722073656e7420776974682045524332302064657060008201527f6f73697400000000000000000000000000000000000000000000000000000000602082015250565b600061268260248361208b565b915061268d82612626565b604082019050919050565b600060208201905081810360008301526126b181612675565b9050919050565b7f5661756c743a204574686572206465706f73697420616d6f756e74206973207a60008201527f65726f0000000000000000000000000000000000000000000000000000000000602082015250565b600061271460238361208b565b915061271f826126b8565b604082019050919050565b6000602082019050818103600083015261274381612707565b9050919050565b600061275582611ea7565b915061276083611ea7565b925082820190508082111561277857612777612511565b5b92915050565b7f4e487b7100000000000000000000000000000000000000000000000000000000600052604160045260246000fd5b600060e0820190506127c2600083018a611f84565b6127cf6020830189612110565b6127dc6040830188612110565b6127e9606083018761201b565b6127f66080830186611f84565b61280360a083018561201b565b61281060c083018461201b565b98975050505050505050565b600060ff82169050919050565b6128328161281c565b811461283d57600080fd5b50565b60008135905061284f81612829565b92915050565b60006020828403121561286b5761286a611e44565b5b600061287984828501612840565b91505092915050565b60006040820190506128976000830185612110565b6128a46020830184612110565b9392505050565b60006060820190506128c06000830186612110565b6128cd602083018561201b565b6128da604083018461201b565b949350505050565b60006020820190506128f76000830184612110565b92915050565b60006040820190506129126000830185612110565b61291f602083018461201b565b9392505050565b600081519050919050565b600061293c82612926565b6129468185612574565b935061295681856020860161209c565b80840191505092915050565b600061296e8284612931565b915081905092915050565b61298281611f44565b811461298d57600080fd5b50565b60008151905061299f81612979565b92915050565b6000602082840312156129bb576129ba611e44565b5b60006129c984828501612990565b91505092915050565b7f5472616e7366657248656c7065723a3a736166655472616e736665723a20747260008201527f616e73666572206661696c656400000000000000000000000000000000000000602082015250565b6000612a2e602d8361208b565b9150612a39826129d2565b604082019050919050565b60006020820190508181036000830152612a5d81612a21565b9050919050565b6000606082019050612a796000830186612110565b612a866020830185612110565b612a93604083018461201b565b949350505050565b7f5472616e7366657248656c7065723a3a7472616e7366657246726f6d3a20747260008201527f616e7366657246726f6d206661696c6564000000000000000000000000000000602082015250565b6000612af760318361208b565b9150612b0282612a9b565b604082019050919050565b60006020820190508181036000830152612b2681612aea565b9050919050565b6000608082019050612b426000830187612110565b612b4f6020830186612110565b612b5c604083018561201b565b612b69606083018461201b565b95945050505050565b6000608082019050612b876000830187612110565b612b946020830186612110565b612ba16040830185612110565b612bae606083018461201b565b95945050505050565b600060a082019050612bcc6000830188611f84565b612bd96020830187611f84565b612be66040830186611f84565b612bf3606083018561201b565b612c006080830184612110565b9695505050505050565b7f4e487b7100000000000000000000000000000000000000000000000000000000600052602260045260246000fd5b60006002820490506001821680612c5157607f821691505b602082108103612c6457612c63612c0a565b5b50919050565b612c738161281c565b82525050565b6000608082019050612c8e6000830187611f84565b612c9b6020830186612c6a565b612ca86040830185611f84565b612cb56060830184611f84565b95945050505050565b7f4e487b7100000000000000000000000000000000000000000000000000000000600052602160045260246000fdfea26469706673582212202ae33ae707b933a6d1781cf3fc11b15b2b2d0dff4041183341fbf37ba9c679ad64736f6c63430008140033",
  "linkReferences": {},
  "deployedLinkReferences": {}
}