{"abi":[{"type":"fallback","stateMutability":"payable"},{"type":"receive","stateMutability":"payable"},{"type":"function","name":"DEFAULT_ADMIN_ROLE","inputs":[],"outputs":[{"name":"","type":"bytes32","internalType":"bytes32"}],"stateMutability":"view"},{"type":"function","name":"DOMAIN_SEPARATOR","inputs":[],"outputs":[{"name":"","type":"bytes32","internalType":"bytes32"}],"stateMutability":"view"},{"type":"function","name":"PAUSER_ROLE","inputs":[],"outputs":[{"name":"","type":"bytes32","internalType":"bytes32"}],"stateMutability":"view"},{"type":"function","name":"addAdmin","inputs":[{"name":"_account","type":"address","internalType":"address"}],"outputs":[],"stateMutability":"nonpayable"},{"type":"function","name":"addPauser","inputs":[{"name":"_account","type":"address","internalType":"address"}],"outputs":[],"stateMutability":"nonpayable"},{"type":"function","name":"allowance","inputs":[{"name":"token","type":"address","internalType":"address"},{"name":"owner","type":"address","internalType":"address"},{"name":"spender","type":"address","internalType":"address"}],"outputs":[{"name":"","type":"uint256","internalType":"uint256"}],"stateMutability":"view"},{"type":"function","name":"approve","inputs":[{"name":"token","type":"address","internalType":"address"},{"name":"spender","type":"address","internalType":"address"},{"name":"value","type":"uint256","internalType":"uint256"}],"outputs":[{"name":"","type":"bool","internalType":"bool"}],"stateMutability":"nonpayable"},{"type":"function","name":"balanceOf","inputs":[{"name":"account","type":"address","internalType":"address"},{"name":"token","type":"address","internalType":"address"}],"outputs":[{"name":"","type":"uint256","internalType":"uint256"}],"stateMutability":"view"},{"type":"function","name":"cancelPermit","inputs":[{"name":"token","type":"address","internalType":"address"},{"name":"spender","type":"address","internalType":"address"},{"name":"value","type":"uint256","internalType":"uint256"},{"name":"agreement","type":"bytes32","internalType":"bytes32"},{"name":"signature","type":"tuple","internalType":"struct IAtomicSwapBase.PermitSignature","components":[{"name":"v","type":"uint8","internalType":"uint8"},{"name":"r","type":"bytes32","internalType":"bytes32"},{"name":"s","type":"bytes32","internalType":"bytes32"},{"name":"owner","type":"address","internalType":"address"},{"name":"deadline","type":"uint256","internalType":"uint256"}]}],"outputs":[],"stateMutability":"nonpayable"},{"type":"function","name":"deposit","inputs":[{"name":"token","type":"address","internalType":"address"},{"name":"amount","type":"uint256","internalType":"uint256"}],"outputs":[],"stateMutability":"payable"},{"type":"function","name":"eip712Domain","inputs":[],"outputs":[{"name":"fields","type":"bytes1","internalType":"bytes1"},{"name":"name","type":"string","internalType":"string"},{"name":"version","type":"string","internalType":"string"},{"name":"chainId","type":"uint256","internalType":"uint256"},{"name":"verifyingContract","type":"address","internalType":"address"},{"name":"salt","type":"bytes32","internalType":"bytes32"},{"name":"extensions","type":"uint256[]","internalType":"uint256[]"}],"stateMutability":"view"},{"type":"function","name":"getRoleAdmin","inputs":[{"name":"role","type":"bytes32","internalType":"bytes32"}],"outputs":[{"name":"","type":"bytes32","internalType":"bytes32"}],"stateMutability":"view"},{"type":"function","name":"grantRole","inputs":[{"name":"role","type":"bytes32","internalType":"bytes32"},{"name":"account","type":"address","internalType":"address"}],"outputs":[],"stateMutability":"nonpayable"},{"type":"function","name":"hasRole","inputs":[{"name":"role","type":"bytes32","internalType":"bytes32"},{"name":"account","type":"address","internalType":"address"}],"outputs":[{"name":"","type":"bool","internalType":"bool"}],"stateMutability":"view"},{"type":"function","name":"initialize","inputs":[{"name":"admin","type":"address","internalType":"address"},{"name":"name","type":"string","internalType":"string"}],"outputs":[],"stateMutability":"nonpayable"},{"type":"function","name":"isAdmin","inputs":[{"name":"_account","type":"address","internalType":"address"}],"outputs":[{"name":"","type":"bool","internalType":"bool"}],"stateMutability":"view"},{"type":"function","name":"isPauser","inputs":[{"name":"_account","type":"address","internalType":"address"}],"outputs":[{"name":"","type":"bool","internalType":"bool"}],"stateMutability":"view"},{"type":"function","name":"paginationSize","inputs":[],"outputs":[{"name":"","type":"uint256","internalType":"uint256"}],"stateMutability":"view"},{"type":"function","name":"pause","inputs":[],"outputs":[],"stateMutability":"nonpayable"},{"type":"function","name":"paused","inputs":[],"outputs":[{"name":"","type":"bool","internalType":"bool"}],"stateMutability":"view"},{"type":"function","name":"permit","inputs":[{"name":"token","type":"address","internalType":"address"},{"name":"spender","type":"address","internalType":"address"},{"name":"value","type":"uint256","internalType":"uint256"},{"name":"agreement","type":"bytes32","internalType":"bytes32"},{"name":"signature","type":"tuple","internalType":"struct IAtomicSwapBase.PermitSignature","components":[{"name":"v","type":"uint8","internalType":"uint8"},{"name":"r","type":"bytes32","internalType":"bytes32"},{"name":"s","type":"bytes32","internalType":"bytes32"},{"name":"owner","type":"address","internalType":"address"},{"name":"deadline","type":"uint256","internalType":"uint256"}]}],"outputs":[],"stateMutability":"nonpayable"},{"type":"function","name":"removeAdmin","inputs":[{"name":"_account","type":"address","internalType":"address"}],"outputs":[],"stateMutability":"nonpayable"},{"type":"function","name":"removePauser","inputs":[{"name":"_account","type":"address","internalType":"address"}],"outputs":[],"stateMutability":"nonpayable"},{"type":"function","name":"renounceRole","inputs":[{"name":"role","type":"bytes32","internalType":"bytes32"},{"name":"callerConfirmation","type":"address","internalType":"address"}],"outputs":[],"stateMutability":"nonpayable"},{"type":"function","name":"revokeRole","inputs":[{"name":"role","type":"bytes32","internalType":"bytes32"},{"name":"account","type":"address","internalType":"address"}],"outputs":[],"stateMutability":"nonpayable"},{"type":"function","name":"setPaginationSize","inputs":[{"name":"_paginationSize","type":"uint256","internalType":"uint256"}],"outputs":[],"stateMutability":"nonpayable"},{"type":"function","name":"supportsInterface","inputs":[{"name":"interfaceId","type":"bytes4","internalType":"bytes4"}],"outputs":[{"name":"","type":"bool","internalType":"bool"}],"stateMutability":"view"},{"type":"function","name":"transfer","inputs":[{"name":"token","type":"address","internalType":"address"},{"name":"to","type":"address","internalType":"address"},{"name":"value","type":"uint256","internalType":"uint256"}],"outputs":[{"name":"","type":"bool","internalType":"bool"}],"stateMutability":"nonpayable"},{"type":"function","name":"transferFrom","inputs":[{"name":"token","type":"address","internalType":"address"},{"name":"from","type":"address","internalType":"address"},{"name":"to","type":"address","internalType":"address"},{"name":"value","type":"uint256","internalType":"uint256"}],"outputs":[{"name":"","type":"bool","internalType":"bool"}],"stateMutability":"nonpayable"},{"type":"function","name":"unpause","inputs":[],"outputs":[],"stateMutability":"nonpayable"},{"type":"function","name":"withdraw","inputs":[{"name":"token","type":"address","internalType":"address"},{"name":"to","type":"address","internalType":"address"},{"name":"amount","type":"uint256","internalType":"uint256"}],"outputs":[],"stateMutability":"nonpayable"},{"type":"event","name":"Deposit","inputs":[{"name":"token","type":"address","indexed":true,"internalType":"address"},{"name":"from","type":"address","indexed":true,"internalType":"address"},{"name":"value","type":"uint256","indexed":false,"internalType":"uint256"}],"anonymous":false},{"type":"event","name":"EIP712DomainChanged","inputs":[],"anonymous":false},{"type":"event","name":"Initialized","inputs":[{"name":"version","type":"uint64","indexed":false,"internalType":"uint64"}],"anonymous":false},{"type":"event","name":"Paused","inputs":[{"name":"account","type":"address","indexed":false,"internalType":"address"}],"anonymous":false},{"type":"event","name":"RoleAdminChanged","inputs":[{"name":"role","type":"bytes32","indexed":true,"internalType":"bytes32"},{"name":"previousAdminRole","type":"bytes32","indexed":true,"internalType":"bytes32"},{"name":"newAdminRole","type":"bytes32","indexed":true,"internalType":"bytes32"}],"anonymous":false},{"type":"event","name":"RoleGranted","inputs":[{"name":"role","type":"bytes32","indexed":true,"internalType":"bytes32"},{"name":"account","type":"address","indexed":true,"internalType":"address"},{"name":"sender","type":"address","indexed":true,"internalType":"address"}],"anonymous":false},{"type":"event","name":"RoleRevoked","inputs":[{"name":"role","type":"bytes32","indexed":true,"internalType":"bytes32"},{"name":"account","type":"address","indexed":true,"internalType":"address"},{"name":"sender","type":"address","indexed":true,"internalType":"address"}],"anonymous":false},{"type":"event","name":"Unpaused","inputs":[{"name":"account","type":"address","indexed":false,"internalType":"address"}],"anonymous":false},{"type":"event","name":"VaultApproval","inputs":[{"name":"owner","type":"address","indexed":true,"internalType":"address"},{"name":"spender","type":"address","indexed":true,"internalType":"address"},{"name":"value","type":"uint256","indexed":true,"internalType":"uint256"}],"anonymous":false},{"type":"event","name":"VaultTransfer","inputs":[{"name":"token","type":"address","indexed":false,"internalType":"address"},{"name":"from","type":"address","indexed":false,"internalType":"address"},{"name":"to","type":"address","indexed":false,"internalType":"address"},{"name":"value","type":"uint256","indexed":false,"internalType":"uint256"}],"anonymous":false},{"type":"event","name":"Withdrawal","inputs":[{"name":"token","type":"address","indexed":true,"internalType":"address"},{"name":"to","type":"address","indexed":true,"internalType":"address"},{"name":"value","type":"uint256","indexed":false,"internalType":"uint256"}],"anonymous":false},{"type":"error","name":"AccessControlBadConfirmation","inputs":[]},{"type":"error","name":"AccessControlUnauthorizedAccount","inputs":[{"name":"account","type":"address","internalType":"address"},{"name":"neededRole","type":"bytes32","internalType":"bytes32"}]},{"type":"error","name":"ECDSAInvalidSignature","inputs":[]},{"type":"error","name":"ECDSAInvalidSignatureLength","inputs":[{"name":"length","type":"uint256","internalType":"uint256"}]},{"type":"error","name":"ECDSAInvalidSignatureS","inputs":[{"name":"s","type":"bytes32","internalType":"bytes32"}]},{"type":"error","name":"EnforcedPause","inputs":[]},{"type":"error","name":"ExpectedPause","inputs":[]},{"type":"error","name":"InvalidInitialization","inputs":[]},{"type":"error","name":"NotInitializing","inputs":[]},{"type":"error","name":"VaultDuplicatedAgreement","inputs":[{"name":"agreement","type":"bytes32","internalType":"bytes32"}]},{"type":"error","name":"VaultExpiredSignature","inputs":[{"name":"deadline","type":"uint256","internalType":"uint256"}]},{"type":"error","name":"VaultInsufficientAllowance","inputs":[{"name":"spender","type":"address","internalType":"address"},{"name":"currentAllowance","type":"uint256","internalType":"uint256"},{"name":"value","type":"uint256","internalType":"uint256"}]},{"type":"error","name":"VaultInsufficientBalance","inputs":[{"name":"token","type":"address","internalType":"address"},{"name":"from","type":"address","internalType":"address"},{"name":"fromBalance","type":"uint256","internalType":"uint256"},{"name":"value","type":"uint256","internalType":"uint256"}]},{"type":"error","name":"VaultInvalidApprover","inputs":[{"name":"approver","type":"address","internalType":"address"}]},{"type":"error","name":"VaultInvalidReceiver","inputs":[{"name":"receiver","type":"address","internalType":"address"}]},{"type":"error","name":"VaultInvalidSender","inputs":[{"name":"sender","type":"address","internalType":"address"}]},{"type":"error","name":"VaultInvalidSigner","inputs":[{"name":"signer","type":"address","internalType":"address"},{"name":"owner","type":"address","internalType":"address"}]},{"type":"error","name":"VaultInvalidSpender","inputs":[{"name":"spender","type":"address","internalType":"address"}]}],"bytecode":{"object":"0x608060405234801561001057600080fd5b506126b7806100206000396000f3fe6080604052600436106101c45760003560e01c806370480275116100f6578063beabacc81161008f578063e63ab1e911610061578063e63ab1e914610549578063f2407ca41461056b578063f399e22e1461058b578063f7888aec146105ab57005b8063beabacc8146104c9578063d547741f146104e9578063d9caed1214610509578063e1f21c671461052957005b806391d14854116100c857806391d1485414610425578063927da10514610445578063a1b996c114610494578063a217fddf146104b457005b806370480275146103a857806382dc1ec4146103c85780638456cb59146103e857806384b0196e146103fd57005b80633644e5151161016857806346fbf68e1161013a57806346fbf68e1461033057806347e7ef24146103505780635c975abb146103635780636b2c0f551461038857005b80633644e515146102d057806336568abe146102e55780633d538ecf146103055780633f4ba83a1461031b57005b80631785f53c116101a15780631785f53c14610242578063248a9ca31461026257806324d7806c146102905780632f2ff15d146102b057005b806301ffc9a7146101cd578063053cc8ab1461020257806315dacbea1461022257005b366101cb57005b005b3480156101d957600080fd5b506101ed6101e8366004611fcc565b6105ef565b60405190151581526020015b60405180910390f35b34801561020e57600080fd5b506101cb61021d366004612012565b610626565b34801561022e57600080fd5b506101ed61023d366004612076565b61079a565b34801561024e57600080fd5b506101cb61025d3660046120c1565b6107c1565b34801561026e57600080fd5b5061028261027d3660046120dc565b6107cf565b6040519081526020016101f9565b34801561029c57600080fd5b506101ed6102ab3660046120c1565b6107f1565b3480156102bc57600080fd5b506101cb6102cb3660046120f5565b6107fd565b3480156102dc57600080fd5b5061028261081f565b3480156102f157600080fd5b506101cb6103003660046120f5565b61082e565b34801561031157600080fd5b5061028260025481565b34801561032757600080fd5b506101cb610866565b34801561033c57600080fd5b506101ed61034b3660046120c1565b6108a4565b6101cb61035e366004612121565b6108be565b34801561036f57600080fd5b506000805160206126428339815191525460ff166101ed565b34801561039457600080fd5b506101cb6103a33660046120c1565b610a0d565b3480156103b457600080fd5b506101cb6103c33660046120c1565b610a25565b3480156103d457600080fd5b506101cb6103e33660046120c1565b610a30565b3480156103f457600080fd5b506101cb610a48565b34801561040957600080fd5b50610412610a84565b6040516101f9979695949392919061219b565b34801561043157600080fd5b506101ed6104403660046120f5565b610b30565b34801561045157600080fd5b50610282610460366004612234565b6001600160a01b03918216600090815260016020908152604080832095851683529481528482209290931681529152205490565b3480156104a057600080fd5b506101cb6104af366004612012565b610b68565b3480156104c057600080fd5b50610282600081565b3480156104d557600080fd5b506101ed6104e4366004612277565b610cc1565b3480156104f557600080fd5b506101cb6105043660046120f5565b610cdb565b34801561051557600080fd5b506101cb610524366004612277565b610cf7565b34801561053557600080fd5b506101ed610544366004612277565b610f13565b34801561055557600080fd5b5061028260008051602061260283398151915281565b34801561057757600080fd5b506101cb6105863660046120dc565b610f24565b34801561059757600080fd5b506101cb6105a63660046122c9565b610fa0565b3480156105b757600080fd5b506102826105c636600461238b565b6001600160a01b0391821660009081526020818152604080832093909416825291909152205490565b60006001600160e01b03198216637965db0b60e01b148061062057506301ffc9a760e01b6001600160e01b03198316145b92915050565b806080013542111561065657604051630448c38560e11b8152608082013560048201526024015b60405180910390fd5b60007f1bcd16601e2086d958cf8198037b6718bdc081870f18734581ae91ee73069e9561068960808401606085016120c1565b6040805160208101939093526001600160a01b039182169083015286166060820152608081810186905260a0820185905283013560c082015260e00160405160208183030381529060405280519060200120905060006106e8826110c2565b9050600061070c826106fd60208701876123b5565b866020013587604001356110ef565b905061071e60808501606086016120c1565b6001600160a01b0316816001600160a01b031614610773578061074760808601606087016120c1565b604051636babb09760e01b81526001600160a01b0392831660048201529116602482015260440161064d565b6107908861078760808701606088016120c1565b8989600161111d565b5050505050505050565b6000336107a9868683866111f2565b6107b586868686611275565b50600195945050505050565b6107cc600082610cdb565b50565b6000908152600080516020612622833981519152602052604090206001015490565b60006106208183610b30565b610806826107cf565b61080f816112d5565b61081983836112df565b50505050565b6000610829611384565b905090565b6001600160a01b03811633146108575760405163334bd91960e11b815260040160405180910390fd5b610861828261138e565b505050565b61087e60008051602061260283398151915233610b30565b61089a5760405162461bcd60e51b815260040161064d906123d8565b6108a261140a565b565b600061062060008051602061260283398151915283610b30565b6001600160a01b038216156109385734156109275760405162461bcd60e51b8152602060048201526024808201527f5661756c743a2045746865722073656e742077697468204552433230206465706044820152631bdcda5d60e21b606482015260840161064d565b6109338233308461146a565b610993565b8034146109935760405162461bcd60e51b815260206004820152602360248201527f5661756c743a204574686572206465706f73697420616d6f756e74206973207a60448201526265726f60e81b606482015260840161064d565b336000908152602081815260408083206001600160a01b0386168452909152812080548392906109c4908490612425565b909155505060405181815233906001600160a01b038416907f5548c837ab068cf56a2c2479df0882a4922fd203edb7517321831d95078c5f629060200160405180910390a35050565b6107cc60008051602061260283398151915282610cdb565b6107cc6000826107fd565b6107cc600080516020612602833981519152826107fd565b610a6060008051602061260283398151915233610b30565b610a7c5760405162461bcd60e51b815260040161064d906123d8565b6108a26115a8565b600060608082808083816000805160206125e28339815191528054909150158015610ab157506001810154155b610af55760405162461bcd60e51b81526020600482015260156024820152741152540dcc4c8e88155b9a5b9a5d1a585b1a5e9959605a1b604482015260640161064d565b610afd6115f1565b610b056116b4565b60408051600080825260208201909252600f60f81b9c939b5091995046985030975095509350915050565b6000918252600080516020612622833981519152602090815260408084206001600160a01b0393909316845291905290205460ff1690565b610b736003836116f3565b15610b945760405163591145fb60e01b81526004810183905260240161064d565b8060800135421115610bbf57604051630448c38560e11b81526080820135600482015260240161064d565b60007f1bcd16601e2086d958cf8198037b6718bdc081870f18734581ae91ee73069e95610bf260808401606085016120c1565b6040805160208101939093526001600160a01b039182169083015286166060820152608081810186905260a0820185905283013560c082015260e0016040516020818303038152906040528051906020012090506000610c51826110c2565b90506000610c66826106fd60208701876123b5565b9050610c7860808501606086016120c1565b6001600160a01b0316816001600160a01b031614610ca1578061074760808601606087016120c1565b610cac60038661170e565b506107908861078760808701606088016120c1565b600033610cd085828686611275565b506001949350505050565b610ce4826107cf565b610ced816112d5565b610819838361138e565b60008111610d475760405162461bcd60e51b815260206004820152601e60248201527f5661756c743a20776974686472617720616d6f756e74206973207a65726f0000604482015260640161064d565b336000908152602081815260408083206001600160a01b038716845290915290205481811015610dc85760405162461bcd60e51b815260206004820152602660248201527f5661756c743a20776974686472617720616d6f756e7420657863656564732062604482015265616c616e636560d01b606482015260840161064d565b336000908152602081815260408083206001600160a01b038816845290915281208054849290610df9908490612438565b90915550506001600160a01b038416610eb5576000836001600160a01b03168360405160006040518083038185875af1925050503d8060008114610e59576040519150601f19603f3d011682016040523d82523d6000602084013e610e5e565b606091505b5050905080610eaf5760405162461bcd60e51b815260206004820152601b60248201527f5661756c743a204661696c656420746f2073656e642045746865720000000000604482015260640161064d565b50610819565b610ec084848461171a565b826001600160a01b0316846001600160a01b03167f2717ead6b9200dd235aad468c9809ea400fe33ac69b5bfaa6d3e90fc922b639884604051610f0591815260200190565b60405180910390a350505050565b600033610cd085828686600161111d565b610f2f600033610b30565b610f4b5760405162461bcd60e51b815260040161064d906123d8565b60008111610f9b5760405162461bcd60e51b815260206004820152601a60248201527f4d6f726967696e4170703a20696e76616c69642076616c756521000000000000604482015260640161064d565b600255565b6000805160206126628339815191528054600160401b810460ff16159067ffffffffffffffff16600081158015610fd45750825b905060008267ffffffffffffffff166001148015610ff15750303b155b905081158015610fff575080155b1561101d5760405163f92ee8a960e01b815260040160405180910390fd5b845467ffffffffffffffff19166001178555831561104757845460ff60401b1916600160401b1785555b61105087611844565b61107386604051806040016040528060018152602001603160f81b81525061195f565b83156110b957845460ff60401b19168555604051600181527fc7f505b2f371ae2175ee4913f4499e1f2633a7b5936321eed1cdaeb6115181d29060200160405180910390a15b50505050505050565b60006106206110cf611384565b8360405161190160f01b8152600281019290925260228201526042902090565b60008060008061110188888888611975565b9250925092506111118282611a44565b50909695505050505050565b6001600160a01b03841661114757604051636ae92c7d60e11b81526000600482015260240161064d565b6001600160a01b0383166111715760405163055ddf1760e11b81526000600482015260240161064d565b6001600160a01b0380851660009081526001602090815260408083208985168452825280832093871683529290522082905580156111eb5781836001600160a01b0316856001600160a01b03167f91ed140d4ef0d36cfe0e48d6e199657e7295b810bded34c1c95874b2b676e06d60405160405180910390a45b5050505050565b6001600160a01b038381166000908152600160209081526040808320888516845282528083209386168352929052205460001981146111eb5781811015611265576040516319efc6cf60e31b81526001600160a01b0384166004820152602481018290526044810183905260640161064d565b6111eb858585858503600061111d565b6001600160a01b03831661129f5760405163f4d2be2960e01b81526000600482015260240161064d565b6001600160a01b0382166112c957604051631c1047bb60e31b81526000600482015260240161064d565b61081984848484611afd565b6107cc8133611bf2565b60006000805160206126228339815191526112fa8484610b30565b61137a576000848152602082815260408083206001600160a01b03871684529091529020805460ff191660011790556113303390565b6001600160a01b0316836001600160a01b0316857f2f8788117e7eff1d82e926ec794901d17c78024a50270940304540a733656f0d60405160405180910390a46001915050610620565b6000915050610620565b6000610829611c2b565b60006000805160206126228339815191526113a98484610b30565b1561137a576000848152602082815260408083206001600160a01b0387168085529252808320805460ff1916905551339287917ff6391f5c32d9c69d2a47ea670b442974b53935d1edc7fd64eb21e047a839171b9190a46001915050610620565b611412611c9f565b600080516020612642833981519152805460ff191681557f5db9ee0a495bf2e6ff9c91a7834c1ba4fdd244a5e8aa4e537bd38aeae4b073aa335b6040516001600160a01b03909116815260200160405180910390a150565b604080516001600160a01b0385811660248301528481166044830152606480830185905283518084039091018152608490920183526020820180516001600160e01b03166323b872dd60e01b17905291516000928392908816916114ce919061244b565b6000604051808303816000865af19150503d806000811461150b576040519150601f19603f3d011682016040523d82523d6000602084013e611510565b606091505b509150915081801561153a57508051158061153a57508080602001905181019061153a9190612467565b6115a05760405162461bcd60e51b815260206004820152603160248201527f5472616e7366657248656c7065723a3a7472616e7366657246726f6d3a207472604482015270185b9cd9995c919c9bdb4819985a5b1959607a1b606482015260840161064d565b505050505050565b6115b0611ccf565b600080516020612642833981519152805460ff191660011781557f62e78cea01bee320cd4e420270b5ea74000d11b0c9f74754ebdbfc544b05a2583361144c565b7fa16a46d94261c7517cc8ff89f61c0ce93598e3c849801011dee649a6a557d10280546060916000805160206125e28339815191529161163090612489565b80601f016020809104026020016040519081016040528092919081815260200182805461165c90612489565b80156116a95780601f1061167e576101008083540402835291602001916116a9565b820191906000526020600020905b81548152906001019060200180831161168c57829003601f168201915b505050505091505090565b7fa16a46d94261c7517cc8ff89f61c0ce93598e3c849801011dee649a6a557d10380546060916000805160206125e28339815191529161163090612489565b600081815260018301602052604081205415155b9392505050565b60006117078383611d00565b604080516001600160a01b038481166024830152604480830185905283518084039091018152606490920183526020820180516001600160e01b031663a9059cbb60e01b1790529151600092839290871691611776919061244b565b6000604051808303816000865af19150503d80600081146117b3576040519150601f19603f3d011682016040523d82523d6000602084013e6117b8565b606091505b50915091508180156117e25750805115806117e25750808060200190518101906117e29190612467565b6111eb5760405162461bcd60e51b815260206004820152602d60248201527f5472616e7366657248656c7065723a3a736166655472616e736665723a20747260448201526c185b9cd9995c8819985a5b1959609a1b606482015260840161064d565b6000805160206126628339815191528054600160401b810460ff16159067ffffffffffffffff166000811580156118785750825b905060008267ffffffffffffffff1660011480156118955750303b155b9050811580156118a3575080155b156118c15760405163f92ee8a960e01b815260040160405180910390fd5b845467ffffffffffffffff1916600117855583156118eb57845460ff60401b1916600160401b1785555b6118f3611d4f565b6118fb611d4f565b611903611d57565b61190c86611d78565b606460025583156115a057845460ff60401b19168555604051600181527fc7f505b2f371ae2175ee4913f4499e1f2633a7b5936321eed1cdaeb6115181d2906020015b60405180910390a1505050505050565b611967611e86565b6119718282611ebd565b5050565b600080807f7fffffffffffffffffffffffffffffff5d576e7357a4501ddfe92f46681b20a08411156119b05750600091506003905082611a3a565b604080516000808252602082018084528a905260ff891692820192909252606081018790526080810186905260019060a0016020604051602081039080840390855afa158015611a04573d6000803e3d6000fd5b5050604051601f1901519150506001600160a01b038116611a3057506000925060019150829050611a3a565b9250600091508190505b9450945094915050565b6000826003811115611a5857611a586124c3565b03611a61575050565b6001826003811115611a7557611a756124c3565b03611a935760405163f645eedf60e01b815260040160405180910390fd5b6002826003811115611aa757611aa76124c3565b03611ac85760405163fce698f760e01b81526004810182905260240161064d565b6003826003811115611adc57611adc6124c3565b03611971576040516335e2f38360e21b81526004810182905260240161064d565b6001600160a01b038084166000908152602081815260408083209388168352929052205481811015611b63576040516334078da160e11b81526001600160a01b03808716600483015285166024820152604481018290526064810183905260840161064d565b6001600160a01b038481166000818152602081815260408083208a861680855290835281842088880390559488168084528383528184208685528352928190208054880190558051948552908401929092528282015260608201849052517fc4298a5beffbb92832adef4bde23a2148eea5117fee88fd06e963ddcb4a523f49181900360800190a15050505050565b611bfc8282610b30565b6119715760405163e2517d3f60e01b81526001600160a01b03821660048201526024810183905260440161064d565b60007f8b73c3c69bb8fe3d512ecc4cf759cc79239f7b179b0ffacaa9a75d522b39400f611c56611f1e565b611c5e611f88565b60408051602081019490945283019190915260608201524660808201523060a082015260c00160405160208183030381529060405280519060200120905090565b6000805160206126428339815191525460ff166108a257604051638dfc202b60e01b815260040160405180910390fd5b6000805160206126428339815191525460ff16156108a25760405163d93c066560e01b815260040160405180910390fd5b6000818152600183016020526040812054611d4757508154600181810184556000848152602080822090930184905584548482528286019093526040902091909155610620565b506000610620565b6108a2611e86565b611d5f611e86565b600080516020612642833981519152805460ff19169055565b6000805160206126628339815191528054600160401b810460ff16159067ffffffffffffffff16600081158015611dac5750825b905060008267ffffffffffffffff166001148015611dc95750303b155b905081158015611dd7575080155b15611df55760405163f92ee8a960e01b815260040160405180910390fd5b845467ffffffffffffffff191660011785558315611e1f57845460ff60401b1916600160401b1785555b611e2a6000876112df565b50611e43600080516020612602833981519152876112df565b5083156115a057845460ff60401b19168555604051600181527fc7f505b2f371ae2175ee4913f4499e1f2633a7b5936321eed1cdaeb6115181d29060200161194f565b60008051602061266283398151915254600160401b900460ff166108a257604051631afcd79f60e31b815260040160405180910390fd5b611ec5611e86565b6000805160206125e28339815191527fa16a46d94261c7517cc8ff89f61c0ce93598e3c849801011dee649a6a557d102611eff8482612521565b5060038101611f0e8382612521565b5060008082556001909101555050565b60006000805160206125e283398151915281611f386115f1565b805190915015611f5057805160209091012092915050565b81548015611f5f579392505050565b7fc5d2460186f7233c927e7db2dcc703c0e500b653ca82273b7bfad8045d85a470935050505090565b60006000805160206125e283398151915281611fa26116b4565b805190915015611fba57805160209091012092915050565b60018201548015611f5f579392505050565b600060208284031215611fde57600080fd5b81356001600160e01b03198116811461170757600080fd5b80356001600160a01b038116811461200d57600080fd5b919050565b600080600080600085870361012081121561202c57600080fd5b61203587611ff6565b955061204360208801611ff6565b9450604087013593506060870135925060a0607f198201121561206557600080fd5b506080860190509295509295909350565b6000806000806080858703121561208c57600080fd5b61209585611ff6565b93506120a360208601611ff6565b92506120b160408601611ff6565b9396929550929360600135925050565b6000602082840312156120d357600080fd5b61170782611ff6565b6000602082840312156120ee57600080fd5b5035919050565b6000806040838503121561210857600080fd5b8235915061211860208401611ff6565b90509250929050565b6000806040838503121561213457600080fd5b61213d83611ff6565b946020939093013593505050565b60005b8381101561216657818101518382015260200161214e565b50506000910152565b6000815180845261218781602086016020860161214b565b601f01601f19169290920160200192915050565b60ff60f81b881681526000602060e060208401526121bc60e084018a61216f565b83810360408501526121ce818a61216f565b606085018990526001600160a01b038816608086015260a0850187905284810360c08601528551808252602080880193509091019060005b8181101561222257835183529284019291840191600101612206565b50909c9b505050505050505050505050565b60008060006060848603121561224957600080fd5b61225284611ff6565b925061226060208501611ff6565b915061226e60408501611ff6565b90509250925092565b60008060006060848603121561228c57600080fd5b61229584611ff6565b92506122a360208501611ff6565b9150604084013590509250925092565b634e487b7160e01b600052604160045260246000fd5b600080604083850312156122dc57600080fd5b6122e583611ff6565b9150602083013567ffffffffffffffff8082111561230257600080fd5b818501915085601f83011261231657600080fd5b813581811115612328576123286122b3565b604051601f8201601f19908116603f01168101908382118183101715612350576123506122b3565b8160405282815288602084870101111561236957600080fd5b8260208601602083013760006020848301015280955050505050509250929050565b6000806040838503121561239e57600080fd5b6123a783611ff6565b915061211860208401611ff6565b6000602082840312156123c757600080fd5b813560ff8116811461170757600080fd5b6020808252601e908201527f4f776e61626c655061757361626c653a206163636573732064656e6965640000604082015260600190565b634e487b7160e01b600052601160045260246000fd5b808201808211156106205761062061240f565b818103818111156106205761062061240f565b6000825161245d81846020870161214b565b9190910192915050565b60006020828403121561247957600080fd5b8151801515811461170757600080fd5b600181811c9082168061249d57607f821691505b6020821081036124bd57634e487b7160e01b600052602260045260246000fd5b50919050565b634e487b7160e01b600052602160045260246000fd5b601f821115610861576000816000526020600020601f850160051c810160208610156125025750805b601f850160051c820191505b818110156115a05782815560010161250e565b815167ffffffffffffffff81111561253b5761253b6122b3565b61254f816125498454612489565b846124d9565b602080601f831160018114612584576000841561256c5750858301515b600019600386901b1c1916600185901b1785556115a0565b600085815260208120601f198616915b828110156125b357888601518255948401946001909101908401612594565b50858210156125d15787850151600019600388901b60f8161c191681555b5050505050600190811b0190555056fea16a46d94261c7517cc8ff89f61c0ce93598e3c849801011dee649a6a557d10065d7a28e3265b37a6474929f336521b332c1681b933f6cb9f3376673440d862a02dd7bc7dec4dceedda775e58dd541e08a116c6c53815c0bd028192f7b626800cd5ed15c6e187e77e9aee88184c21f4f2182ab5827cb3b7e07fbedcd63f03300f0c57e16840df040f15088dc2f81fe391c3923bec73e23a9662efc9c229c6a00a26469706673582212203c5560ead67a4566b01c8dacb108a50569fcc0dcd6888b96c9cbf4e048965a7164736f6c63430008170033","linkReferences":{}},"methodIdentifiers":{"DEFAULT_ADMIN_ROLE()":"a217fddf","DOMAIN_SEPARATOR()":"3644e515","PAUSER_ROLE()":"e63ab1e9","addAdmin(address)":"70480275","addPauser(address)":"82dc1ec4","allowance(address,address,address)":"927da105","approve(address,address,uint256)":"e1f21c67","balanceOf(address,address)":"f7888aec","cancelPermit(address,address,uint256,bytes32,(uint8,bytes32,bytes32,address,uint256))":"053cc8ab","deposit(address,uint256)":"47e7ef24","eip712Domain()":"84b0196e","getRoleAdmin(bytes32)":"248a9ca3","grantRole(bytes32,address)":"2f2ff15d","hasRole(bytes32,address)":"91d14854","initialize(address,string)":"f399e22e","isAdmin(address)":"24d7806c","isPauser(address)":"46fbf68e","paginationSize()":"3d538ecf","pause()":"8456cb59","paused()":"5c975abb","permit(address,address,uint256,bytes32,(uint8,bytes32,bytes32,address,uint256))":"a1b996c1","removeAdmin(address)":"1785f53c","removePauser(address)":"6b2c0f55","renounceRole(bytes32,address)":"36568abe","revokeRole(bytes32,address)":"d547741f","setPaginationSize(uint256)":"f2407ca4","supportsInterface(bytes4)":"01ffc9a7","transfer(address,address,uint256)":"beabacc8","transferFrom(address,address,address,uint256)":"15dacbea","unpause()":"3f4ba83a","withdraw(address,address,uint256)":"d9caed12"},"id":12}