{"abi":[{"type":"fallback","stateMutability":"payable"},{"type":"receive","stateMutability":"payable"},{"type":"function","name":"DEFAULT_ADMIN_ROLE","inputs":[],"outputs":[{"name":"","type":"bytes32","internalType":"bytes32"}],"stateMutability":"view"},{"type":"function","name":"DOMAIN_SEPARATOR","inputs":[],"outputs":[{"name":"","type":"bytes32","internalType":"bytes32"}],"stateMutability":"view"},{"type":"function","name":"PAUSER_ROLE","inputs":[],"outputs":[{"name":"","type":"bytes32","internalType":"bytes32"}],"stateMutability":"view"},{"type":"function","name":"addAdmin","inputs":[{"name":"_account","type":"address","internalType":"address"}],"outputs":[],"stateMutability":"nonpayable"},{"type":"function","name":"addPauser","inputs":[{"name":"_account","type":"address","internalType":"address"}],"outputs":[],"stateMutability":"nonpayable"},{"type":"function","name":"allowance","inputs":[{"name":"token","type":"address","internalType":"address"},{"name":"owner","type":"address","internalType":"address"},{"name":"spender","type":"address","internalType":"address"}],"outputs":[{"name":"","type":"uint256","internalType":"uint256"}],"stateMutability":"view"},{"type":"function","name":"approve","inputs":[{"name":"token","type":"address","internalType":"address"},{"name":"spender","type":"address","internalType":"address"},{"name":"value","type":"uint256","internalType":"uint256"}],"outputs":[{"name":"","type":"bool","internalType":"bool"}],"stateMutability":"nonpayable"},{"type":"function","name":"balanceOf","inputs":[{"name":"account","type":"address","internalType":"address"},{"name":"token","type":"address","internalType":"address"}],"outputs":[{"name":"","type":"uint256","internalType":"uint256"}],"stateMutability":"view"},{"type":"function","name":"deposit","inputs":[{"name":"token","type":"address","internalType":"address"},{"name":"amount","type":"uint256","internalType":"uint256"}],"outputs":[],"stateMutability":"payable"},{"type":"function","name":"eip712Domain","inputs":[],"outputs":[{"name":"fields","type":"bytes1","internalType":"bytes1"},{"name":"name","type":"string","internalType":"string"},{"name":"version","type":"string","internalType":"string"},{"name":"chainId","type":"uint256","internalType":"uint256"},{"name":"verifyingContract","type":"address","internalType":"address"},{"name":"salt","type":"bytes32","internalType":"bytes32"},{"name":"extensions","type":"uint256[]","internalType":"uint256[]"}],"stateMutability":"view"},{"type":"function","name":"getRoleAdmin","inputs":[{"name":"role","type":"bytes32","internalType":"bytes32"}],"outputs":[{"name":"","type":"bytes32","internalType":"bytes32"}],"stateMutability":"view"},{"type":"function","name":"grantRole","inputs":[{"name":"role","type":"bytes32","internalType":"bytes32"},{"name":"account","type":"address","internalType":"address"}],"outputs":[],"stateMutability":"nonpayable"},{"type":"function","name":"hasRole","inputs":[{"name":"role","type":"bytes32","internalType":"bytes32"},{"name":"account","type":"address","internalType":"address"}],"outputs":[{"name":"","type":"bool","internalType":"bool"}],"stateMutability":"view"},{"type":"function","name":"initialize","inputs":[{"name":"admin","type":"address","internalType":"address"},{"name":"name","type":"string","internalType":"string"}],"outputs":[],"stateMutability":"nonpayable"},{"type":"function","name":"isAdmin","inputs":[{"name":"_account","type":"address","internalType":"address"}],"outputs":[{"name":"","type":"bool","internalType":"bool"}],"stateMutability":"view"},{"type":"function","name":"isPauser","inputs":[{"name":"_account","type":"address","internalType":"address"}],"outputs":[{"name":"","type":"bool","internalType":"bool"}],"stateMutability":"view"},{"type":"function","name":"paginationSize","inputs":[],"outputs":[{"name":"","type":"uint256","internalType":"uint256"}],"stateMutability":"view"},{"type":"function","name":"pause","inputs":[],"outputs":[],"stateMutability":"nonpayable"},{"type":"function","name":"paused","inputs":[],"outputs":[{"name":"","type":"bool","internalType":"bool"}],"stateMutability":"view"},{"type":"function","name":"permit","inputs":[{"name":"token","type":"address","internalType":"address"},{"name":"spender","type":"address","internalType":"address"},{"name":"value","type":"uint256","internalType":"uint256"},{"name":"agreement","type":"bytes32","internalType":"bytes32"},{"name":"signature","type":"tuple","internalType":"struct IAtomicSwapBase.PermitSignature","components":[{"name":"v","type":"uint8","internalType":"uint8"},{"name":"r","type":"bytes32","internalType":"bytes32"},{"name":"s","type":"bytes32","internalType":"bytes32"},{"name":"owner","type":"address","internalType":"address"},{"name":"deadline","type":"uint256","internalType":"uint256"}]}],"outputs":[],"stateMutability":"nonpayable"},{"type":"function","name":"removeAdmin","inputs":[{"name":"_account","type":"address","internalType":"address"}],"outputs":[],"stateMutability":"nonpayable"},{"type":"function","name":"removePauser","inputs":[{"name":"_account","type":"address","internalType":"address"}],"outputs":[],"stateMutability":"nonpayable"},{"type":"function","name":"renounceRole","inputs":[{"name":"role","type":"bytes32","internalType":"bytes32"},{"name":"callerConfirmation","type":"address","internalType":"address"}],"outputs":[],"stateMutability":"nonpayable"},{"type":"function","name":"revokeRole","inputs":[{"name":"role","type":"bytes32","internalType":"bytes32"},{"name":"account","type":"address","internalType":"address"}],"outputs":[],"stateMutability":"nonpayable"},{"type":"function","name":"setPaginationSize","inputs":[{"name":"_paginationSize","type":"uint256","internalType":"uint256"}],"outputs":[],"stateMutability":"nonpayable"},{"type":"function","name":"supportsInterface","inputs":[{"name":"interfaceId","type":"bytes4","internalType":"bytes4"}],"outputs":[{"name":"","type":"bool","internalType":"bool"}],"stateMutability":"view"},{"type":"function","name":"transfer","inputs":[{"name":"token","type":"address","internalType":"address"},{"name":"to","type":"address","internalType":"address"},{"name":"value","type":"uint256","internalType":"uint256"}],"outputs":[{"name":"","type":"bool","internalType":"bool"}],"stateMutability":"nonpayable"},{"type":"function","name":"transferFrom","inputs":[{"name":"token","type":"address","internalType":"address"},{"name":"from","type":"address","internalType":"address"},{"name":"to","type":"address","internalType":"address"},{"name":"value","type":"uint256","internalType":"uint256"}],"outputs":[{"name":"","type":"bool","internalType":"bool"}],"stateMutability":"nonpayable"},{"type":"function","name":"unpause","inputs":[],"outputs":[],"stateMutability":"nonpayable"},{"type":"function","name":"withdraw","inputs":[{"name":"token","type":"address","internalType":"address"},{"name":"to","type":"address","internalType":"address"},{"name":"amount","type":"uint256","internalType":"uint256"}],"outputs":[],"stateMutability":"nonpayable"},{"type":"event","name":"Deposit","inputs":[{"name":"token","type":"address","indexed":true,"internalType":"address"},{"name":"from","type":"address","indexed":true,"internalType":"address"},{"name":"value","type":"uint256","indexed":false,"internalType":"uint256"}],"anonymous":false},{"type":"event","name":"EIP712DomainChanged","inputs":[],"anonymous":false},{"type":"event","name":"Initialized","inputs":[{"name":"version","type":"uint64","indexed":false,"internalType":"uint64"}],"anonymous":false},{"type":"event","name":"Paused","inputs":[{"name":"account","type":"address","indexed":false,"internalType":"address"}],"anonymous":false},{"type":"event","name":"RoleAdminChanged","inputs":[{"name":"role","type":"bytes32","indexed":true,"internalType":"bytes32"},{"name":"previousAdminRole","type":"bytes32","indexed":true,"internalType":"bytes32"},{"name":"newAdminRole","type":"bytes32","indexed":true,"internalType":"bytes32"}],"anonymous":false},{"type":"event","name":"RoleGranted","inputs":[{"name":"role","type":"bytes32","indexed":true,"internalType":"bytes32"},{"name":"account","type":"address","indexed":true,"internalType":"address"},{"name":"sender","type":"address","indexed":true,"internalType":"address"}],"anonymous":false},{"type":"event","name":"RoleRevoked","inputs":[{"name":"role","type":"bytes32","indexed":true,"internalType":"bytes32"},{"name":"account","type":"address","indexed":true,"internalType":"address"},{"name":"sender","type":"address","indexed":true,"internalType":"address"}],"anonymous":false},{"type":"event","name":"Unpaused","inputs":[{"name":"account","type":"address","indexed":false,"internalType":"address"}],"anonymous":false},{"type":"event","name":"VaultApproval","inputs":[{"name":"owner","type":"address","indexed":true,"internalType":"address"},{"name":"spender","type":"address","indexed":true,"internalType":"address"},{"name":"value","type":"uint256","indexed":true,"internalType":"uint256"}],"anonymous":false},{"type":"event","name":"VaultTransfer","inputs":[{"name":"token","type":"address","indexed":false,"internalType":"address"},{"name":"from","type":"address","indexed":false,"internalType":"address"},{"name":"to","type":"address","indexed":false,"internalType":"address"},{"name":"value","type":"uint256","indexed":false,"internalType":"uint256"}],"anonymous":false},{"type":"event","name":"Withdrawal","inputs":[{"name":"token","type":"address","indexed":true,"internalType":"address"},{"name":"to","type":"address","indexed":true,"internalType":"address"},{"name":"value","type":"uint256","indexed":false,"internalType":"uint256"}],"anonymous":false},{"type":"error","name":"AccessControlBadConfirmation","inputs":[]},{"type":"error","name":"AccessControlUnauthorizedAccount","inputs":[{"name":"account","type":"address","internalType":"address"},{"name":"neededRole","type":"bytes32","internalType":"bytes32"}]},{"type":"error","name":"ECDSAInvalidSignature","inputs":[]},{"type":"error","name":"ECDSAInvalidSignatureLength","inputs":[{"name":"length","type":"uint256","internalType":"uint256"}]},{"type":"error","name":"ECDSAInvalidSignatureS","inputs":[{"name":"s","type":"bytes32","internalType":"bytes32"}]},{"type":"error","name":"EnforcedPause","inputs":[]},{"type":"error","name":"ExpectedPause","inputs":[]},{"type":"error","name":"InvalidInitialization","inputs":[]},{"type":"error","name":"NotInitializing","inputs":[]},{"type":"error","name":"VaultAdditionalEther","inputs":[{"name":"amount","type":"uint256","internalType":"uint256"}]},{"type":"error","name":"VaultDuplicatedAgreement","inputs":[{"name":"agreement","type":"bytes32","internalType":"bytes32"}]},{"type":"error","name":"VaultExpiredSignature","inputs":[{"name":"deadline","type":"uint256","internalType":"uint256"}]},{"type":"error","name":"VaultInsufficientAllowance","inputs":[{"name":"spender","type":"address","internalType":"address"},{"name":"currentAllowance","type":"uint256","internalType":"uint256"},{"name":"value","type":"uint256","internalType":"uint256"}]},{"type":"error","name":"VaultInsufficientBalance","inputs":[{"name":"token","type":"address","internalType":"address"},{"name":"from","type":"address","internalType":"address"},{"name":"fromBalance","type":"uint256","internalType":"uint256"},{"name":"value","type":"uint256","internalType":"uint256"}]},{"type":"error","name":"VaultInvalidAmount","inputs":[{"name":"amount","type":"uint256","internalType":"uint256"}]},{"type":"error","name":"VaultInvalidApprover","inputs":[{"name":"approver","type":"address","internalType":"address"}]},{"type":"error","name":"VaultInvalidReceiver","inputs":[{"name":"receiver","type":"address","internalType":"address"}]},{"type":"error","name":"VaultInvalidSender","inputs":[{"name":"sender","type":"address","internalType":"address"}]},{"type":"error","name":"VaultInvalidSigner","inputs":[{"name":"signer","type":"address","internalType":"address"},{"name":"owner","type":"address","internalType":"address"}]},{"type":"error","name":"VaultInvalidSpender","inputs":[{"name":"spender","type":"address","internalType":"address"}]}],"bytecode":{"object":"0x608060405234801561001057600080fd5b5061247a806100206000396000f3fe6080604052600436106101b95760003560e01c806382dc1ec4116100eb578063beabacc81161008f578063e63ab1e911610061578063e63ab1e91461051e578063f2407ca414610540578063f399e22e14610560578063f7888aec1461058057005b8063beabacc81461049e578063d547741f146104be578063d9caed12146104de578063e1f21c67146104fe57005b806391d14854116100c857806391d14854146103fa578063927da1051461041a578063a1b996c114610469578063a217fddf1461048957005b806382dc1ec41461039d5780638456cb59146103bd57806384b0196e146103d257005b806336568abe1161015d57806347e7ef241161012f57806347e7ef24146103255780635c975abb146103385780636b2c0f551461035d578063704802751461037d57005b806336568abe146102ba5780633d538ecf146102da5780633f4ba83a146102f057806346fbf68e1461030557005b8063248a9ca311610196578063248a9ca31461023757806324d7806c146102655780632f2ff15d146102855780633644e515146102a557005b806301ffc9a7146101c257806315dacbea146101f75780631785f53c1461021757005b366101c057005b005b3480156101ce57600080fd5b506101e26101dd366004611d8f565b6105c4565b60405190151581526020015b60405180910390f35b34801561020357600080fd5b506101e2610212366004611dd5565b6105fb565b34801561022357600080fd5b506101c0610232366004611e20565b610622565b34801561024357600080fd5b50610257610252366004611e3b565b610630565b6040519081526020016101ee565b34801561027157600080fd5b506101e2610280366004611e20565b610652565b34801561029157600080fd5b506101c06102a0366004611e54565b61065e565b3480156102b157600080fd5b50610257610680565b3480156102c657600080fd5b506101c06102d5366004611e54565b61068f565b3480156102e657600080fd5b5061025760025481565b3480156102fc57600080fd5b506101c06106c7565b34801561031157600080fd5b506101e2610320366004611e20565b61070e565b6101c0610333366004611e80565b610728565b34801561034457600080fd5b506000805160206124058339815191525460ff166101e2565b34801561036957600080fd5b506101c0610378366004611e20565b610807565b34801561038957600080fd5b506101c0610398366004611e20565b61081f565b3480156103a957600080fd5b506101c06103b8366004611e20565b61082a565b3480156103c957600080fd5b506101c0610842565b3480156103de57600080fd5b506103e761087e565b6040516101ee9796959493929190611efa565b34801561040657600080fd5b506101e2610415366004611e54565b61092a565b34801561042657600080fd5b50610257610435366004611f93565b6001600160a01b03918216600090815260016020908152604080832095851683529481528482209290931681529152205490565b34801561047557600080fd5b506101c0610484366004611fd6565b610962565b34801561049557600080fd5b50610257600081565b3480156104aa57600080fd5b506101e26104b936600461203a565b610b09565b3480156104ca57600080fd5b506101c06104d9366004611e54565b610b23565b3480156104ea57600080fd5b506101c06104f936600461203a565b610b3f565b34801561050a57600080fd5b506101e261051936600461203a565b610cd0565b34801561052a57600080fd5b506102576000805160206123c583398151915281565b34801561054c57600080fd5b506101c061055b366004611e3b565b610ce1565b34801561056c57600080fd5b506101c061057b36600461208c565b610d5d565b34801561058c57600080fd5b5061025761059b36600461214e565b6001600160a01b0391821660009081526020818152604080832093909416825291909152205490565b60006001600160e01b03198216637965db0b60e01b14806105f557506301ffc9a760e01b6001600160e01b03198316145b92915050565b60003361060a86868386610e7f565b61061686868686610f09565b50600195945050505050565b61062d600082610b23565b50565b60009081526000805160206123e5833981519152602052604090206001015490565b60006105f5818361092a565b61066782610630565b61067081610f69565b61067a8383610f73565b50505050565b600061068a611018565b905090565b6001600160a01b03811633146106b85760405163334bd91960e11b815260040160405180910390fd5b6106c28282611022565b505050565b6106df6000805160206123c58339815191523361092a565b6107045760405162461bcd60e51b81526004016106fb90612178565b60405180910390fd5b61070c61109e565b565b60006105f56000805160206123c58339815191528361092a565b6001600160a01b0382161561076a57341561075957604051630798612f60e11b8152600481018290526024016106fb565b610765823330846110fe565b61078d565b80341461078d5760405163e279109d60e01b8152600481018290526024016106fb565b336000908152602081815260408083206001600160a01b0386168452909152812080548392906107be9084906121c5565b909155505060405181815233906001600160a01b038416907f5548c837ab068cf56a2c2479df0882a4922fd203edb7517321831d95078c5f629060200160405180910390a35050565b61062d6000805160206123c583398151915282610b23565b61062d60008261065e565b61062d6000805160206123c58339815191528261065e565b61085a6000805160206123c58339815191523361092a565b6108765760405162461bcd60e51b81526004016106fb90612178565b61070c61123c565b600060608082808083816000805160206123a583398151915280549091501580156108ab57506001810154155b6108ef5760405162461bcd60e51b81526020600482015260156024820152741152540dcc4c8e88155b9a5b9a5d1a585b1a5e9959605a1b60448201526064016106fb565b6108f7611285565b6108ff611348565b60408051600080825260208201909252600f60f81b9c939b5091995046985030975095509350915050565b60009182526000805160206123e5833981519152602090815260408084206001600160a01b0393909316845291905290205460ff1690565b61096d600383611387565b1561098e5760405163591145fb60e01b8152600481018390526024016106fb565b80608001354211156109b957604051630448c38560e11b8152608082013560048201526024016106fb565b60007f1bcd16601e2086d958cf8198037b6718bdc081870f18734581ae91ee73069e956109ec6080840160608501611e20565b6040805160208101939093526001600160a01b039182169083015286166060820152608081810186905260a0820185905283013560c082015260e0016040516020818303038152906040528051906020012090506000610a4b826113a2565b90506000610a6f82610a6060208701876121d8565b866020013587604001356113cf565b9050610a816080850160608601611e20565b6001600160a01b0316816001600160a01b031614610ad65780610aaa6080860160608701611e20565b604051636babb09760e01b81526001600160a01b039283166004820152911660248201526044016106fb565b610ae16003866113fd565b50610aff88610af66080870160608801611e20565b89896001611409565b5050505050505050565b600033610b1885828686610f09565b506001949350505050565b610b2c82610630565b610b3581610f69565b61067a8383611022565b336000908152602081815260408083206001600160a01b038716845290915290205481811015610b855760405163e279109d60e01b8152600481018390526024016106fb565b336000908152602081815260408083206001600160a01b038816845290915281208054849290610bb69084906121fb565b90915550506001600160a01b038416610c72576000836001600160a01b03168360405160006040518083038185875af1925050503d8060008114610c16576040519150601f19603f3d011682016040523d82523d6000602084013e610c1b565b606091505b5050905080610c6c5760405162461bcd60e51b815260206004820152601b60248201527f5661756c743a204661696c656420746f2073656e64204574686572000000000060448201526064016106fb565b5061067a565b610c7d8484846114dd565b826001600160a01b0316846001600160a01b03167f2717ead6b9200dd235aad468c9809ea400fe33ac69b5bfaa6d3e90fc922b639884604051610cc291815260200190565b60405180910390a350505050565b600033610b18858286866001611409565b610cec60003361092a565b610d085760405162461bcd60e51b81526004016106fb90612178565b60008111610d585760405162461bcd60e51b815260206004820152601a60248201527f4d6f726967696e4170703a20696e76616c69642076616c75652100000000000060448201526064016106fb565b600255565b6000805160206124258339815191528054600160401b810460ff16159067ffffffffffffffff16600081158015610d915750825b905060008267ffffffffffffffff166001148015610dae5750303b155b905081158015610dbc575080155b15610dda5760405163f92ee8a960e01b815260040160405180910390fd5b845467ffffffffffffffff191660011785558315610e0457845460ff60401b1916600160401b1785555b610e0d87611607565b610e3086604051806040016040528060018152602001603160f81b815250611722565b8315610e7657845460ff60401b19168555604051600181527fc7f505b2f371ae2175ee4913f4499e1f2633a7b5936321eed1cdaeb6115181d29060200160405180910390a15b50505050505050565b6001600160a01b03838116600090815260016020908152604080832088851684528252808320938616835292905220546000198114610f025781811015610ef2576040516319efc6cf60e31b81526001600160a01b038416600482015260248101829052604481018390526064016106fb565b610f028585858585036000611409565b5050505050565b6001600160a01b038316610f335760405163f4d2be2960e01b8152600060048201526024016106fb565b6001600160a01b038216610f5d57604051631c1047bb60e31b8152600060048201526024016106fb565b61067a84848484611738565b61062d813361182d565b60006000805160206123e5833981519152610f8e848461092a565b61100e576000848152602082815260408083206001600160a01b03871684529091529020805460ff19166001179055610fc43390565b6001600160a01b0316836001600160a01b0316857f2f8788117e7eff1d82e926ec794901d17c78024a50270940304540a733656f0d60405160405180910390a460019150506105f5565b60009150506105f5565b600061068a611866565b60006000805160206123e583398151915261103d848461092a565b1561100e576000848152602082815260408083206001600160a01b0387168085529252808320805460ff1916905551339287917ff6391f5c32d9c69d2a47ea670b442974b53935d1edc7fd64eb21e047a839171b9190a460019150506105f5565b6110a66118da565b600080516020612405833981519152805460ff191681557f5db9ee0a495bf2e6ff9c91a7834c1ba4fdd244a5e8aa4e537bd38aeae4b073aa335b6040516001600160a01b03909116815260200160405180910390a150565b604080516001600160a01b0385811660248301528481166044830152606480830185905283518084039091018152608490920183526020820180516001600160e01b03166323b872dd60e01b1790529151600092839290881691611162919061220e565b6000604051808303816000865af19150503d806000811461119f576040519150601f19603f3d011682016040523d82523d6000602084013e6111a4565b606091505b50915091508180156111ce5750805115806111ce5750808060200190518101906111ce919061222a565b6112345760405162461bcd60e51b815260206004820152603160248201527f5472616e7366657248656c7065723a3a7472616e7366657246726f6d3a207472604482015270185b9cd9995c919c9bdb4819985a5b1959607a1b60648201526084016106fb565b505050505050565b61124461190a565b600080516020612405833981519152805460ff191660011781557f62e78cea01bee320cd4e420270b5ea74000d11b0c9f74754ebdbfc544b05a258336110e0565b7fa16a46d94261c7517cc8ff89f61c0ce93598e3c849801011dee649a6a557d10280546060916000805160206123a5833981519152916112c49061224c565b80601f01602080910402602001604051908101604052809291908181526020018280546112f09061224c565b801561133d5780601f106113125761010080835404028352916020019161133d565b820191906000526020600020905b81548152906001019060200180831161132057829003601f168201915b505050505091505090565b7fa16a46d94261c7517cc8ff89f61c0ce93598e3c849801011dee649a6a557d10380546060916000805160206123a5833981519152916112c49061224c565b600081815260018301602052604081205415155b9392505050565b60006105f56113af611018565b8360405161190160f01b8152600281019290925260228201526042902090565b6000806000806113e18888888861193b565b9250925092506113f18282611a0a565b50909695505050505050565b600061139b8383611ac3565b6001600160a01b03841661143357604051636ae92c7d60e11b8152600060048201526024016106fb565b6001600160a01b03831661145d5760405163055ddf1760e11b8152600060048201526024016106fb565b6001600160a01b038085166000908152600160209081526040808320898516845282528083209387168352929052208290558015610f025781836001600160a01b0316856001600160a01b03167f91ed140d4ef0d36cfe0e48d6e199657e7295b810bded34c1c95874b2b676e06d60405160405180910390a45050505050565b604080516001600160a01b038481166024830152604480830185905283518084039091018152606490920183526020820180516001600160e01b031663a9059cbb60e01b1790529151600092839290871691611539919061220e565b6000604051808303816000865af19150503d8060008114611576576040519150601f19603f3d011682016040523d82523d6000602084013e61157b565b606091505b50915091508180156115a55750805115806115a55750808060200190518101906115a5919061222a565b610f025760405162461bcd60e51b815260206004820152602d60248201527f5472616e7366657248656c7065723a3a736166655472616e736665723a20747260448201526c185b9cd9995c8819985a5b1959609a1b60648201526084016106fb565b6000805160206124258339815191528054600160401b810460ff16159067ffffffffffffffff1660008115801561163b5750825b905060008267ffffffffffffffff1660011480156116585750303b155b905081158015611666575080155b156116845760405163f92ee8a960e01b815260040160405180910390fd5b845467ffffffffffffffff1916600117855583156116ae57845460ff60401b1916600160401b1785555b6116b6611b12565b6116be611b12565b6116c6611b1a565b6116cf86611b3b565b6064600255831561123457845460ff60401b19168555604051600181527fc7f505b2f371ae2175ee4913f4499e1f2633a7b5936321eed1cdaeb6115181d2906020015b60405180910390a1505050505050565b61172a611c49565b6117348282611c80565b5050565b6001600160a01b03808416600090815260208181526040808320938816835292905220548181101561179e576040516334078da160e11b81526001600160a01b0380871660048301528516602482015260448101829052606481018390526084016106fb565b6001600160a01b038481166000818152602081815260408083208a861680855290835281842088880390559488168084528383528184208685528352928190208054880190558051948552908401929092528282015260608201849052517fc4298a5beffbb92832adef4bde23a2148eea5117fee88fd06e963ddcb4a523f49181900360800190a15050505050565b611837828261092a565b6117345760405163e2517d3f60e01b81526001600160a01b0382166004820152602481018390526044016106fb565b60007f8b73c3c69bb8fe3d512ecc4cf759cc79239f7b179b0ffacaa9a75d522b39400f611891611ce1565b611899611d4b565b60408051602081019490945283019190915260608201524660808201523060a082015260c00160405160208183030381529060405280519060200120905090565b6000805160206124058339815191525460ff1661070c57604051638dfc202b60e01b815260040160405180910390fd5b6000805160206124058339815191525460ff161561070c5760405163d93c066560e01b815260040160405180910390fd5b600080807f7fffffffffffffffffffffffffffffff5d576e7357a4501ddfe92f46681b20a08411156119765750600091506003905082611a00565b604080516000808252602082018084528a905260ff891692820192909252606081018790526080810186905260019060a0016020604051602081039080840390855afa1580156119ca573d6000803e3d6000fd5b5050604051601f1901519150506001600160a01b0381166119f657506000925060019150829050611a00565b9250600091508190505b9450945094915050565b6000826003811115611a1e57611a1e612286565b03611a27575050565b6001826003811115611a3b57611a3b612286565b03611a595760405163f645eedf60e01b815260040160405180910390fd5b6002826003811115611a6d57611a6d612286565b03611a8e5760405163fce698f760e01b8152600481018290526024016106fb565b6003826003811115611aa257611aa2612286565b03611734576040516335e2f38360e21b8152600481018290526024016106fb565b6000818152600183016020526040812054611b0a575081546001818101845560008481526020808220909301849055845484825282860190935260409020919091556105f5565b5060006105f5565b61070c611c49565b611b22611c49565b600080516020612405833981519152805460ff19169055565b6000805160206124258339815191528054600160401b810460ff16159067ffffffffffffffff16600081158015611b6f5750825b905060008267ffffffffffffffff166001148015611b8c5750303b155b905081158015611b9a575080155b15611bb85760405163f92ee8a960e01b815260040160405180910390fd5b845467ffffffffffffffff191660011785558315611be257845460ff60401b1916600160401b1785555b611bed600087610f73565b50611c066000805160206123c583398151915287610f73565b50831561123457845460ff60401b19168555604051600181527fc7f505b2f371ae2175ee4913f4499e1f2633a7b5936321eed1cdaeb6115181d290602001611712565b60008051602061242583398151915254600160401b900460ff1661070c57604051631afcd79f60e31b815260040160405180910390fd5b611c88611c49565b6000805160206123a58339815191527fa16a46d94261c7517cc8ff89f61c0ce93598e3c849801011dee649a6a557d102611cc284826122e4565b5060038101611cd183826122e4565b5060008082556001909101555050565b60006000805160206123a583398151915281611cfb611285565b805190915015611d1357805160209091012092915050565b81548015611d22579392505050565b7fc5d2460186f7233c927e7db2dcc703c0e500b653ca82273b7bfad8045d85a470935050505090565b60006000805160206123a583398151915281611d65611348565b805190915015611d7d57805160209091012092915050565b60018201548015611d22579392505050565b600060208284031215611da157600080fd5b81356001600160e01b03198116811461139b57600080fd5b80356001600160a01b0381168114611dd057600080fd5b919050565b60008060008060808587031215611deb57600080fd5b611df485611db9565b9350611e0260208601611db9565b9250611e1060408601611db9565b9396929550929360600135925050565b600060208284031215611e3257600080fd5b61139b82611db9565b600060208284031215611e4d57600080fd5b5035919050565b60008060408385031215611e6757600080fd5b82359150611e7760208401611db9565b90509250929050565b60008060408385031215611e9357600080fd5b611e9c83611db9565b946020939093013593505050565b60005b83811015611ec5578181015183820152602001611ead565b50506000910152565b60008151808452611ee6816020860160208601611eaa565b601f01601f19169290920160200192915050565b60ff60f81b881681526000602060e06020840152611f1b60e084018a611ece565b8381036040850152611f2d818a611ece565b606085018990526001600160a01b038816608086015260a0850187905284810360c08601528551808252602080880193509091019060005b81811015611f8157835183529284019291840191600101611f65565b50909c9b505050505050505050505050565b600080600060608486031215611fa857600080fd5b611fb184611db9565b9250611fbf60208501611db9565b9150611fcd60408501611db9565b90509250925092565b6000806000806000858703610120811215611ff057600080fd5b611ff987611db9565b955061200760208801611db9565b9450604087013593506060870135925060a0607f198201121561202957600080fd5b506080860190509295509295909350565b60008060006060848603121561204f57600080fd5b61205884611db9565b925061206660208501611db9565b9150604084013590509250925092565b634e487b7160e01b600052604160045260246000fd5b6000806040838503121561209f57600080fd5b6120a883611db9565b9150602083013567ffffffffffffffff808211156120c557600080fd5b818501915085601f8301126120d957600080fd5b8135818111156120eb576120eb612076565b604051601f8201601f19908116603f0116810190838211818310171561211357612113612076565b8160405282815288602084870101111561212c57600080fd5b8260208601602083013760006020848301015280955050505050509250929050565b6000806040838503121561216157600080fd5b61216a83611db9565b9150611e7760208401611db9565b6020808252601e908201527f4f776e61626c655061757361626c653a206163636573732064656e6965640000604082015260600190565b634e487b7160e01b600052601160045260246000fd5b808201808211156105f5576105f56121af565b6000602082840312156121ea57600080fd5b813560ff8116811461139b57600080fd5b818103818111156105f5576105f56121af565b60008251612220818460208701611eaa565b9190910192915050565b60006020828403121561223c57600080fd5b8151801515811461139b57600080fd5b600181811c9082168061226057607f821691505b60208210810361228057634e487b7160e01b600052602260045260246000fd5b50919050565b634e487b7160e01b600052602160045260246000fd5b601f8211156106c2576000816000526020600020601f850160051c810160208610156122c55750805b601f850160051c820191505b81811015611234578281556001016122d1565b815167ffffffffffffffff8111156122fe576122fe612076565b6123128161230c845461224c565b8461229c565b602080601f831160018114612347576000841561232f5750858301515b600019600386901b1c1916600185901b178555611234565b600085815260208120601f198616915b8281101561237657888601518255948401946001909101908401612357565b50858210156123945787850151600019600388901b60f8161c191681555b5050505050600190811b0190555056fea16a46d94261c7517cc8ff89f61c0ce93598e3c849801011dee649a6a557d10065d7a28e3265b37a6474929f336521b332c1681b933f6cb9f3376673440d862a02dd7bc7dec4dceedda775e58dd541e08a116c6c53815c0bd028192f7b626800cd5ed15c6e187e77e9aee88184c21f4f2182ab5827cb3b7e07fbedcd63f03300f0c57e16840df040f15088dc2f81fe391c3923bec73e23a9662efc9c229c6a00a26469706673582212207989a0f09fe37944f21af2d15f33ab2d237008342bf1d8c25d53e46243d3ab6764736f6c63430008170033","linkReferences":{}},"methodIdentifiers":{"DEFAULT_ADMIN_ROLE()":"a217fddf","DOMAIN_SEPARATOR()":"3644e515","PAUSER_ROLE()":"e63ab1e9","addAdmin(address)":"70480275","addPauser(address)":"82dc1ec4","allowance(address,address,address)":"927da105","approve(address,address,uint256)":"e1f21c67","balanceOf(address,address)":"f7888aec","deposit(address,uint256)":"47e7ef24","eip712Domain()":"84b0196e","getRoleAdmin(bytes32)":"248a9ca3","grantRole(bytes32,address)":"2f2ff15d","hasRole(bytes32,address)":"91d14854","initialize(address,string)":"f399e22e","isAdmin(address)":"24d7806c","isPauser(address)":"46fbf68e","paginationSize()":"3d538ecf","pause()":"8456cb59","paused()":"5c975abb","permit(address,address,uint256,bytes32,(uint8,bytes32,bytes32,address,uint256))":"a1b996c1","removeAdmin(address)":"1785f53c","removePauser(address)":"6b2c0f55","renounceRole(bytes32,address)":"36568abe","revokeRole(bytes32,address)":"d547741f","setPaginationSize(uint256)":"f2407ca4","supportsInterface(bytes4)":"01ffc9a7","transfer(address,address,uint256)":"beabacc8","transferFrom(address,address,address,uint256)":"15dacbea","unpause()":"3f4ba83a","withdraw(address,address,uint256)":"d9caed12"},"id":12}