{
  "_format": "hh-sol-artifact-1",
  "contractName": "MockToken",
  "sourceName": "contracts/mocks/MockToken.sol",
  "abi": [
    {
      "inputs": [
        {
          "internalType": "string",
          "name": "name",
          "type": "string"
        },
        {
          "internalType": "string",
          "name": "symbol",
          "type": "string"
        }
      ],
      "stateMutability": "nonpayable",
      "type": "constructor"
    },
    {
      "inputs": [],
      "name": "ECDSAInvalidSignature",
      "type": "error"
    },
    {
      "inputs": [
        {
          "internalType": "uint256",
          "name": "length",
          "type": "uint256"
        }
      ],
      "name": "ECDSAInvalidSignatureLength",
      "type": "error"
    },
    {
      "inputs": [
        {
          "internalType": "bytes32",
          "name": "s",
          "type": "bytes32"
        }
      ],
      "name": "ECDSAInvalidSignatureS",
      "type": "error"
    },
    {
      "inputs": [
        {
          "internalType": "address",
          "name": "spender",
          "type": "address"
        },
        {
          "internalType": "uint256",
          "name": "allowance",
          "type": "uint256"
        },
        {
          "internalType": "uint256",
          "name": "needed",
          "type": "uint256"
        }
      ],
      "name": "ERC20InsufficientAllowance",
      "type": "error"
    },
    {
      "inputs": [
        {
          "internalType": "address",
          "name": "sender",
          "type": "address"
        },
        {
          "internalType": "uint256",
          "name": "balance",
          "type": "uint256"
        },
        {
          "internalType": "uint256",
          "name": "needed",
          "type": "uint256"
        }
      ],
      "name": "ERC20InsufficientBalance",
      "type": "error"
    },
    {
      "inputs": [
        {
          "internalType": "address",
          "name": "approver",
          "type": "address"
        }
      ],
      "name": "ERC20InvalidApprover",
      "type": "error"
    },
    {
      "inputs": [
        {
          "internalType": "address",
          "name": "receiver",
          "type": "address"
        }
      ],
      "name": "ERC20InvalidReceiver",
      "type": "error"
    },
    {
      "inputs": [
        {
          "internalType": "address",
          "name": "sender",
          "type": "address"
        }
      ],
      "name": "ERC20InvalidSender",
      "type": "error"
    },
    {
      "inputs": [
        {
          "internalType": "address",
          "name": "spender",
          "type": "address"
        }
      ],
      "name": "ERC20InvalidSpender",
      "type": "error"
    },
    {
      "inputs": [
        {
          "internalType": "uint256",
          "name": "deadline",
          "type": "uint256"
        }
      ],
      "name": "ERC2612ExpiredSignature",
      "type": "error"
    },
    {
      "inputs": [
        {
          "internalType": "address",
          "name": "signer",
          "type": "address"
        },
        {
          "internalType": "address",
          "name": "owner",
          "type": "address"
        }
      ],
      "name": "ERC2612InvalidSigner",
      "type": "error"
    },
    {
      "inputs": [
        {
          "internalType": "address",
          "name": "account",
          "type": "address"
        },
        {
          "internalType": "uint256",
          "name": "currentNonce",
          "type": "uint256"
        }
      ],
      "name": "InvalidAccountNonce",
      "type": "error"
    },
    {
      "inputs": [],
      "name": "InvalidShortString",
      "type": "error"
    },
    {
      "inputs": [
        {
          "internalType": "string",
          "name": "str",
          "type": "string"
        }
      ],
      "name": "StringTooLong",
      "type": "error"
    },
    {
      "anonymous": false,
      "inputs": [
        {
          "indexed": true,
          "internalType": "address",
          "name": "owner",
          "type": "address"
        },
        {
          "indexed": true,
          "internalType": "address",
          "name": "spender",
          "type": "address"
        },
        {
          "indexed": false,
          "internalType": "uint256",
          "name": "value",
          "type": "uint256"
        }
      ],
      "name": "Approval",
      "type": "event"
    },
    {
      "anonymous": false,
      "inputs": [],
      "name": "EIP712DomainChanged",
      "type": "event"
    },
    {
      "anonymous": false,
      "inputs": [
        {
          "indexed": true,
          "internalType": "address",
          "name": "from",
          "type": "address"
        },
        {
          "indexed": true,
          "internalType": "address",
          "name": "to",
          "type": "address"
        },
        {
          "indexed": false,
          "internalType": "uint256",
          "name": "value",
          "type": "uint256"
        }
      ],
      "name": "Transfer",
      "type": "event"
    },
    {
      "inputs": [],
      "name": "DOMAIN_SEPARATOR",
      "outputs": [
        {
          "internalType": "bytes32",
          "name": "",
          "type": "bytes32"
        }
      ],
      "stateMutability": "view",
      "type": "function"
    },
    {
      "inputs": [
        {
          "internalType": "address",
          "name": "owner",
          "type": "address"
        },
        {
          "internalType": "address",
          "name": "spender",
          "type": "address"
        }
      ],
      "name": "allowance",
      "outputs": [
        {
          "internalType": "uint256",
          "name": "",
          "type": "uint256"
        }
      ],
      "stateMutability": "view",
      "type": "function"
    },
    {
      "inputs": [
        {
          "internalType": "address",
          "name": "spender",
          "type": "address"
        },
        {
          "internalType": "uint256",
          "name": "value",
          "type": "uint256"
        }
      ],
      "name": "approve",
      "outputs": [
        {
          "internalType": "bool",
          "name": "",
          "type": "bool"
        }
      ],
      "stateMutability": "nonpayable",
      "type": "function"
    },
    {
      "inputs": [
        {
          "internalType": "address",
          "name": "account",
          "type": "address"
        }
      ],
      "name": "balanceOf",
      "outputs": [
        {
          "internalType": "uint256",
          "name": "",
          "type": "uint256"
        }
      ],
      "stateMutability": "view",
      "type": "function"
    },
    {
      "inputs": [],
      "name": "decimals",
      "outputs": [
        {
          "internalType": "uint8",
          "name": "",
          "type": "uint8"
        }
      ],
      "stateMutability": "view",
      "type": "function"
    },
    {
      "inputs": [],
      "name": "eip712Domain",
      "outputs": [
        {
          "internalType": "bytes1",
          "name": "fields",
          "type": "bytes1"
        },
        {
          "internalType": "string",
          "name": "name",
          "type": "string"
        },
        {
          "internalType": "string",
          "name": "version",
          "type": "string"
        },
        {
          "internalType": "uint256",
          "name": "chainId",
          "type": "uint256"
        },
        {
          "internalType": "address",
          "name": "verifyingContract",
          "type": "address"
        },
        {
          "internalType": "bytes32",
          "name": "salt",
          "type": "bytes32"
        },
        {
          "internalType": "uint256[]",
          "name": "extensions",
          "type": "uint256[]"
        }
      ],
      "stateMutability": "view",
      "type": "function"
    },
    {
      "inputs": [],
      "name": "failTransferFrom",
      "outputs": [
        {
          "internalType": "bool",
          "name": "",
          "type": "bool"
        }
      ],
      "stateMutability": "view",
      "type": "function"
    },
    {
      "inputs": [
        {
          "internalType": "address",
          "name": "to",
          "type": "address"
        },
        {
          "internalType": "uint256",
          "name": "amount",
          "type": "uint256"
        }
      ],
      "name": "mint",
      "outputs": [],
      "stateMutability": "nonpayable",
      "type": "function"
    },
    {
      "inputs": [],
      "name": "name",
      "outputs": [
        {
          "internalType": "string",
          "name": "",
          "type": "string"
        }
      ],
      "stateMutability": "view",
      "type": "function"
    },
    {
      "inputs": [
        {
          "internalType": "address",
          "name": "owner",
          "type": "address"
        }
      ],
      "name": "nonces",
      "outputs": [
        {
          "internalType": "uint256",
          "name": "",
          "type": "uint256"
        }
      ],
      "stateMutability": "view",
      "type": "function"
    },
    {
      "inputs": [
        {
          "internalType": "address",
          "name": "owner",
          "type": "address"
        },
        {
          "internalType": "address",
          "name": "spender",
          "type": "address"
        },
        {
          "internalType": "uint256",
          "name": "value",
          "type": "uint256"
        },
        {
          "internalType": "uint256",
          "name": "deadline",
          "type": "uint256"
        },
        {
          "internalType": "uint8",
          "name": "v",
          "type": "uint8"
        },
        {
          "internalType": "bytes32",
          "name": "r",
          "type": "bytes32"
        },
        {
          "internalType": "bytes32",
          "name": "s",
          "type": "bytes32"
        }
      ],
      "name": "permit",
      "outputs": [],
      "stateMutability": "nonpayable",
      "type": "function"
    },
    {
      "inputs": [
        {
          "internalType": "bool",
          "name": "_value",
          "type": "bool"
        }
      ],
      "name": "setFailTransferFrom",
      "outputs": [],
      "stateMutability": "nonpayable",
      "type": "function"
    },
    {
      "inputs": [],
      "name": "symbol",
      "outputs": [
        {
          "internalType": "string",
          "name": "",
          "type": "string"
        }
      ],
      "stateMutability": "view",
      "type": "function"
    },
    {
      "inputs": [],
      "name": "totalSupply",
      "outputs": [
        {
          "internalType": "uint256",
          "name": "",
          "type": "uint256"
        }
      ],
      "stateMutability": "view",
      "type": "function"
    },
    {
      "inputs": [
        {
          "internalType": "address",
          "name": "to",
          "type": "address"
        },
        {
          "internalType": "uint256",
          "name": "value",
          "type": "uint256"
        }
      ],
      "name": "transfer",
      "outputs": [
        {
          "internalType": "bool",
          "name": "",
          "type": "bool"
        }
      ],
      "stateMutability": "nonpayable",
      "type": "function"
    },
    {
      "inputs": [
        {
          "internalType": "address",
          "name": "sender",
          "type": "address"
        },
        {
          "internalType": "address",
          "name": "recipient",
          "type": "address"
        },
        {
          "internalType": "uint256",
          "name": "amount",
          "type": "uint256"
        }
      ],
      "name": "transferFrom",
      "outputs": [
        {
          "internalType": "bool",
          "name": "",
          "type": "bool"
        }
      ],
      "stateMutability": "nonpayable",
      "type": "function"
    }
  ],
  "bytecode": "0x6101606040526000600860006101000a81548160ff0219169083151502179055503480156200002d57600080fd5b506040516200280f3803806200280f83398181016040528101906200005391906200042b565b81806040518060400160405280600181526020017f3100000000000000000000000000000000000000000000000000000000000000815250848481600390816200009e9190620006fb565b508060049081620000b09190620006fb565b505050620000c96005836200016c60201b90919060201c565b6101208181525050620000e76006826200016c60201b90919060201c565b6101408181525050818051906020012060e08181525050808051906020012061010081815250504660a0818152505062000126620001c460201b60201c565b608081815250503073ffffffffffffffffffffffffffffffffffffffff1660c08173ffffffffffffffffffffffffffffffffffffffff16815250505050505050620009c8565b600060208351101562000192576200018a836200022160201b60201c565b9050620001be565b82620001a4836200028e60201b60201c565b6000019081620001b59190620006fb565b5060ff60001b90505b92915050565b60007f8b73c3c69bb8fe3d512ecc4cf759cc79239f7b179b0ffacaa9a75d522b39400f60e0516101005146306040516020016200020695949392919062000853565b60405160208183030381529060405280519060200120905090565b600080829050601f815111156200027157826040517f305a27a900000000000000000000000000000000000000000000000000000000815260040162000268919062000902565b60405180910390fd5b8051816200027f9062000958565b60001c1760001b915050919050565b6000819050919050565b6000604051905090565b600080fd5b600080fd5b600080fd5b600080fd5b6000601f19601f8301169050919050565b7f4e487b7100000000000000000000000000000000000000000000000000000000600052604160045260246000fd5b6200030182620002b6565b810181811067ffffffffffffffff82111715620003235762000322620002c7565b5b80604052505050565b60006200033862000298565b9050620003468282620002f6565b919050565b600067ffffffffffffffff821115620003695762000368620002c7565b5b6200037482620002b6565b9050602081019050919050565b60005b83811015620003a157808201518184015260208101905062000384565b60008484015250505050565b6000620003c4620003be846200034b565b6200032c565b905082815260208101848484011115620003e357620003e2620002b1565b5b620003f084828562000381565b509392505050565b600082601f83011262000410576200040f620002ac565b5b815162000422848260208601620003ad565b91505092915050565b60008060408385031215620004455762000444620002a2565b5b600083015167ffffffffffffffff811115620004665762000465620002a7565b5b6200047485828601620003f8565b925050602083015167ffffffffffffffff811115620004985762000497620002a7565b5b620004a685828601620003f8565b9150509250929050565b600081519050919050565b7f4e487b7100000000000000000000000000000000000000000000000000000000600052602260045260246000fd5b600060028204905060018216806200050357607f821691505b602082108103620005195762000518620004bb565b5b50919050565b60008190508160005260206000209050919050565b60006020601f8301049050919050565b600082821b905092915050565b600060088302620005837fffffffffffffffffffffffffffffffffffffffffffffffffffffffffffffffff8262000544565b6200058f868362000544565b95508019841693508086168417925050509392505050565b6000819050919050565b6000819050919050565b6000620005dc620005d6620005d084620005a7565b620005b1565b620005a7565b9050919050565b6000819050919050565b620005f883620005bb565b620006106200060782620005e3565b84845462000551565b825550505050565b600090565b6200062762000618565b62000634818484620005ed565b505050565b5b818110156200065c57620006506000826200061d565b6001810190506200063a565b5050565b601f821115620006ab5762000675816200051f565b620006808462000534565b8101602085101562000690578190505b620006a86200069f8562000534565b83018262000639565b50505b505050565b600082821c905092915050565b6000620006d060001984600802620006b0565b1980831691505092915050565b6000620006eb8383620006bd565b9150826002028217905092915050565b6200070682620004b0565b67ffffffffffffffff811115620007225762000721620002c7565b5b6200072e8254620004ea565b6200073b82828562000660565b600060209050601f8311600181146200077357600084156200075e578287015190505b6200076a8582620006dd565b865550620007da565b601f19841662000783866200051f565b60005b82811015620007ad5784890151825560018201915060208501945060208101905062000786565b86831015620007cd5784890151620007c9601f891682620006bd565b8355505b6001600288020188555050505b505050505050565b6000819050919050565b620007f781620007e2565b82525050565b6200080881620005a7565b82525050565b600073ffffffffffffffffffffffffffffffffffffffff82169050919050565b60006200083b826200080e565b9050919050565b6200084d816200082e565b82525050565b600060a0820190506200086a6000830188620007ec565b620008796020830187620007ec565b620008886040830186620007ec565b620008976060830185620007fd565b620008a6608083018462000842565b9695505050505050565b600082825260208201905092915050565b6000620008ce82620004b0565b620008da8185620008b0565b9350620008ec81856020860162000381565b620008f781620002b6565b840191505092915050565b600060208201905081810360008301526200091e8184620008c1565b905092915050565b600081519050919050565b6000819050602082019050919050565b60006200094f8251620007e2565b80915050919050565b6000620009658262000926565b82620009718462000931565b90506200097e8162000941565b92506020821015620009c157620009bc7fffffffffffffffffffffffffffffffffffffffffffffffffffffffffffffffff8360200360080262000544565b831692505b5050919050565b60805160a05160c05160e051610100516101205161014051611dec62000a236000396000610a32015260006109f701526000610eaa01526000610e8901526000610870015260006108c6015260006108ef0152611dec6000f3fe608060405234801561001057600080fd5b50600436106101005760003560e01c806370a0823111610097578063a9059cbb11610066578063a9059cbb146102b7578063d17c8d43146102e7578063d505accf14610305578063dd62ed3e1461032157610100565b806370a08231146102155780637ecebe001461024557806384b0196e1461027557806395d89b411461029957610100565b8063313ce567116100d3578063313ce567146101a15780633644e515146101bf5780633c57c565146101dd57806340c10f19146101f957610100565b806306fdde0314610105578063095ea7b31461012357806318160ddd1461015357806323b872dd14610171575b600080fd5b61010d610351565b60405161011a91906115bc565b60405180910390f35b61013d60048036038101906101389190611677565b6103e3565b60405161014a91906116d2565b60405180910390f35b61015b610406565b60405161016891906116fc565b60405180910390f35b61018b60048036038101906101869190611717565b610410565b60405161019891906116d2565b60405180910390f35b6101a9610445565b6040516101b69190611786565b60405180910390f35b6101c761044e565b6040516101d491906117ba565b60405180910390f35b6101f760048036038101906101f29190611801565b61045d565b005b610213600480360381019061020e9190611677565b61047a565b005b61022f600480360381019061022a919061182e565b610488565b60405161023c91906116fc565b60405180910390f35b61025f600480360381019061025a919061182e565b6104d0565b60405161026c91906116fc565b60405180910390f35b61027d6104e2565b6040516102909796959493929190611963565b60405180910390f35b6102a161058c565b6040516102ae91906115bc565b60405180910390f35b6102d160048036038101906102cc9190611677565b61061e565b6040516102de91906116d2565b60405180910390f35b6102ef610641565b6040516102fc91906116d2565b60405180910390f35b61031f600480360381019061031a9190611a3f565b610654565b005b61033b60048036038101906103369190611ae1565b61079c565b60405161034891906116fc565b60405180910390f35b60606003805461036090611b50565b80601f016020809104026020016040519081016040528092919081815260200182805461038c90611b50565b80156103d95780601f106103ae576101008083540402835291602001916103d9565b820191906000526020600020905b8154815290600101906020018083116103bc57829003601f168201915b5050505050905090565b6000806103ee610823565b90506103fb81858561082b565b600191505092915050565b6000600254905090565b6000600860009054906101000a900460ff1615610430576000905061043e565b61043b84848461083d565b90505b9392505050565b60006012905090565b600061045861086c565b905090565b80600860006101000a81548160ff02191690831515021790555050565b6104848282610923565b5050565b60008060008373ffffffffffffffffffffffffffffffffffffffff1673ffffffffffffffffffffffffffffffffffffffff168152602001908152602001600020549050919050565b60006104db826109a5565b9050919050565b6000606080600080600060606104f66109ee565b6104fe610a29565b46306000801b600067ffffffffffffffff81111561051f5761051e611b81565b5b60405190808252806020026020018201604052801561054d5781602001602082028036833780820191505090505b507f0f00000000000000000000000000000000000000000000000000000000000000959493929190965096509650965096509650965090919293949596565b60606004805461059b90611b50565b80601f01602080910402602001604051908101604052809291908181526020018280546105c790611b50565b80156106145780601f106105e957610100808354040283529160200191610614565b820191906000526020600020905b8154815290600101906020018083116105f757829003601f168201915b5050505050905090565b600080610629610823565b9050610636818585610a64565b600191505092915050565b600860009054906101000a900460ff1681565b8342111561069957836040517f6279130200000000000000000000000000000000000000000000000000000000815260040161069091906116fc565b60405180910390fd5b60007f6e71edae12b1b97f4d1f60370fef10105fa2faae0126114a169c64845d6126c98888886106c88c610b58565b896040516020016106de96959493929190611bb0565b604051602081830303815290604052805190602001209050600061070182610baf565b9050600061071182878787610bc9565b90508973ffffffffffffffffffffffffffffffffffffffff168173ffffffffffffffffffffffffffffffffffffffff161461078557808a6040517f4b800e4600000000000000000000000000000000000000000000000000000000815260040161077c929190611c11565b60405180910390fd5b6107908a8a8a61082b565b50505050505050505050565b6000600160008473ffffffffffffffffffffffffffffffffffffffff1673ffffffffffffffffffffffffffffffffffffffff16815260200190815260200160002060008373ffffffffffffffffffffffffffffffffffffffff1673ffffffffffffffffffffffffffffffffffffffff16815260200190815260200160002054905092915050565b600033905090565b6108388383836001610bf9565b505050565b600080610848610823565b9050610855858285610dd0565b610860858585610a64565b60019150509392505050565b60007f000000000000000000000000000000000000000000000000000000000000000073ffffffffffffffffffffffffffffffffffffffff163073ffffffffffffffffffffffffffffffffffffffff161480156108e857507f000000000000000000000000000000000000000000000000000000000000000046145b15610915577f00000000000000000000000000000000000000000000000000000000000000009050610920565b61091d610e64565b90505b90565b600073ffffffffffffffffffffffffffffffffffffffff168273ffffffffffffffffffffffffffffffffffffffff16036109955760006040517fec442f0500000000000000000000000000000000000000000000000000000000815260040161098c9190611c3a565b60405180910390fd5b6109a160008383610efa565b5050565b6000600760008373ffffffffffffffffffffffffffffffffffffffff1673ffffffffffffffffffffffffffffffffffffffff168152602001908152602001600020549050919050565b6060610a2460057f000000000000000000000000000000000000000000000000000000000000000061111f90919063ffffffff16565b905090565b6060610a5f60067f000000000000000000000000000000000000000000000000000000000000000061111f90919063ffffffff16565b905090565b600073ffffffffffffffffffffffffffffffffffffffff168373ffffffffffffffffffffffffffffffffffffffff1603610ad65760006040517f96c6fd1e000000000000000000000000000000000000000000000000000000008152600401610acd9190611c3a565b60405180910390fd5b600073ffffffffffffffffffffffffffffffffffffffff168273ffffffffffffffffffffffffffffffffffffffff1603610b485760006040517fec442f05000000000000000000000000000000000000000000000000000000008152600401610b3f9190611c3a565b60405180910390fd5b610b53838383610efa565b505050565b6000600760008373ffffffffffffffffffffffffffffffffffffffff1673ffffffffffffffffffffffffffffffffffffffff1681526020019081526020016000206000815480929190600101919050559050919050565b6000610bc2610bbc61086c565b836111cf565b9050919050565b600080600080610bdb88888888611210565b925092509250610beb8282611304565b829350505050949350505050565b600073ffffffffffffffffffffffffffffffffffffffff168473ffffffffffffffffffffffffffffffffffffffff1603610c6b5760006040517fe602df05000000000000000000000000000000000000000000000000000000008152600401610c629190611c3a565b60405180910390fd5b600073ffffffffffffffffffffffffffffffffffffffff168373ffffffffffffffffffffffffffffffffffffffff1603610cdd5760006040517f94280d62000000000000000000000000000000000000000000000000000000008152600401610cd49190611c3a565b60405180910390fd5b81600160008673ffffffffffffffffffffffffffffffffffffffff1673ffffffffffffffffffffffffffffffffffffffff16815260200190815260200160002060008573ffffffffffffffffffffffffffffffffffffffff1673ffffffffffffffffffffffffffffffffffffffff168152602001908152602001600020819055508015610dca578273ffffffffffffffffffffffffffffffffffffffff168473ffffffffffffffffffffffffffffffffffffffff167f8c5be1e5ebec7d5bd14f71427d1e84f3dd0314c0f7b2291e5b200ac8c7c3b92584604051610dc191906116fc565b60405180910390a35b50505050565b6000610ddc848461079c565b90507fffffffffffffffffffffffffffffffffffffffffffffffffffffffffffffffff8114610e5e5781811015610e4e578281836040517ffb8f41b2000000000000000000000000000000000000000000000000000000008152600401610e4593929190611c55565b60405180910390fd5b610e5d84848484036000610bf9565b5b50505050565b60007f8b73c3c69bb8fe3d512ecc4cf759cc79239f7b179b0ffacaa9a75d522b39400f7f00000000000000000000000000000000000000000000000000000000000000007f00000000000000000000000000000000000000000000000000000000000000004630604051602001610edf959493929190611c8c565b60405160208183030381529060405280519060200120905090565b600073ffffffffffffffffffffffffffffffffffffffff168373ffffffffffffffffffffffffffffffffffffffff1603610f4c578060026000828254610f409190611d0e565b9250508190555061101f565b60008060008573ffffffffffffffffffffffffffffffffffffffff1673ffffffffffffffffffffffffffffffffffffffff16815260200190815260200160002054905081811015610fd8578381836040517fe450d38c000000000000000000000000000000000000000000000000000000008152600401610fcf93929190611c55565b60405180910390fd5b8181036000808673ffffffffffffffffffffffffffffffffffffffff1673ffffffffffffffffffffffffffffffffffffffff16815260200190815260200160002081905550505b600073ffffffffffffffffffffffffffffffffffffffff168273ffffffffffffffffffffffffffffffffffffffff160361106857806002600082825403925050819055506110b5565b806000808473ffffffffffffffffffffffffffffffffffffffff1673ffffffffffffffffffffffffffffffffffffffff168152602001908152602001600020600082825401925050819055505b8173ffffffffffffffffffffffffffffffffffffffff168373ffffffffffffffffffffffffffffffffffffffff167fddf252ad1be2c89b69c2b068fc378daa952ba7f163c4a11628f55a4df523b3ef8360405161111291906116fc565b60405180910390a3505050565b606060ff60001b831461113c5761113583611468565b90506111c9565b81805461114890611b50565b80601f016020809104026020016040519081016040528092919081815260200182805461117490611b50565b80156111c15780601f10611196576101008083540402835291602001916111c1565b820191906000526020600020905b8154815290600101906020018083116111a457829003601f168201915b505050505090505b92915050565b60006040517f190100000000000000000000000000000000000000000000000000000000000081528360028201528260228201526042812091505092915050565b60008060007f7fffffffffffffffffffffffffffffff5d576e7357a4501ddfe92f46681b20a08460001c11156112505760006003859250925092506112fa565b6000600188888888604051600081526020016040526040516112759493929190611d42565b6020604051602081039080840390855afa158015611297573d6000803e3d6000fd5b505050602060405103519050600073ffffffffffffffffffffffffffffffffffffffff168173ffffffffffffffffffffffffffffffffffffffff16036112eb57600060016000801b935093509350506112fa565b8060008060001b935093509350505b9450945094915050565b6000600381111561131857611317611d87565b5b82600381111561132b5761132a611d87565b5b0315611464576001600381111561134557611344611d87565b5b82600381111561135857611357611d87565b5b0361138f576040517ff645eedf00000000000000000000000000000000000000000000000000000000815260040160405180910390fd5b600260038111156113a3576113a2611d87565b5b8260038111156113b6576113b5611d87565b5b036113fb578060001c6040517ffce698f70000000000000000000000000000000000000000000000000000000081526004016113f291906116fc565b60405180910390fd5b60038081111561140e5761140d611d87565b5b82600381111561142157611420611d87565b5b0361146357806040517fd78bce0c00000000000000000000000000000000000000000000000000000000815260040161145a91906117ba565b60405180910390fd5b5b5050565b60606000611475836114dc565b90506000602067ffffffffffffffff81111561149457611493611b81565b5b6040519080825280601f01601f1916602001820160405280156114c65781602001600182028036833780820191505090505b5090508181528360208201528092505050919050565b60008060ff8360001c169050601f811115611523576040517fb3512b0c00000000000000000000000000000000000000000000000000000000815260040160405180910390fd5b80915050919050565b600081519050919050565b600082825260208201905092915050565b60005b8381101561156657808201518184015260208101905061154b565b60008484015250505050565b6000601f19601f8301169050919050565b600061158e8261152c565b6115988185611537565b93506115a8818560208601611548565b6115b181611572565b840191505092915050565b600060208201905081810360008301526115d68184611583565b905092915050565b600080fd5b600073ffffffffffffffffffffffffffffffffffffffff82169050919050565b600061160e826115e3565b9050919050565b61161e81611603565b811461162957600080fd5b50565b60008135905061163b81611615565b92915050565b6000819050919050565b61165481611641565b811461165f57600080fd5b50565b6000813590506116718161164b565b92915050565b6000806040838503121561168e5761168d6115de565b5b600061169c8582860161162c565b92505060206116ad85828601611662565b9150509250929050565b60008115159050919050565b6116cc816116b7565b82525050565b60006020820190506116e760008301846116c3565b92915050565b6116f681611641565b82525050565b600060208201905061171160008301846116ed565b92915050565b6000806000606084860312156117305761172f6115de565b5b600061173e8682870161162c565b935050602061174f8682870161162c565b925050604061176086828701611662565b9150509250925092565b600060ff82169050919050565b6117808161176a565b82525050565b600060208201905061179b6000830184611777565b92915050565b6000819050919050565b6117b4816117a1565b82525050565b60006020820190506117cf60008301846117ab565b92915050565b6117de816116b7565b81146117e957600080fd5b50565b6000813590506117fb816117d5565b92915050565b600060208284031215611817576118166115de565b5b6000611825848285016117ec565b91505092915050565b600060208284031215611844576118436115de565b5b60006118528482850161162c565b91505092915050565b60007fff0000000000000000000000000000000000000000000000000000000000000082169050919050565b6118908161185b565b82525050565b61189f81611603565b82525050565b600081519050919050565b600082825260208201905092915050565b6000819050602082019050919050565b6118da81611641565b82525050565b60006118ec83836118d1565b60208301905092915050565b6000602082019050919050565b6000611910826118a5565b61191a81856118b0565b9350611925836118c1565b8060005b8381101561195657815161193d88826118e0565b9750611948836118f8565b925050600181019050611929565b5085935050505092915050565b600060e082019050611978600083018a611887565b818103602083015261198a8189611583565b9050818103604083015261199e8188611583565b90506119ad60608301876116ed565b6119ba6080830186611896565b6119c760a08301856117ab565b81810360c08301526119d98184611905565b905098975050505050505050565b6119f08161176a565b81146119fb57600080fd5b50565b600081359050611a0d816119e7565b92915050565b611a1c816117a1565b8114611a2757600080fd5b50565b600081359050611a3981611a13565b92915050565b600080600080600080600060e0888a031215611a5e57611a5d6115de565b5b6000611a6c8a828b0161162c565b9750506020611a7d8a828b0161162c565b9650506040611a8e8a828b01611662565b9550506060611a9f8a828b01611662565b9450506080611ab08a828b016119fe565b93505060a0611ac18a828b01611a2a565b92505060c0611ad28a828b01611a2a565b91505092959891949750929550565b60008060408385031215611af857611af76115de565b5b6000611b068582860161162c565b9250506020611b178582860161162c565b9150509250929050565b7f4e487b7100000000000000000000000000000000000000000000000000000000600052602260045260246000fd5b60006002820490506001821680611b6857607f821691505b602082108103611b7b57611b7a611b21565b5b50919050565b7f4e487b7100000000000000000000000000000000000000000000000000000000600052604160045260246000fd5b600060c082019050611bc560008301896117ab565b611bd26020830188611896565b611bdf6040830187611896565b611bec60608301866116ed565b611bf960808301856116ed565b611c0660a08301846116ed565b979650505050505050565b6000604082019050611c266000830185611896565b611c336020830184611896565b9392505050565b6000602082019050611c4f6000830184611896565b92915050565b6000606082019050611c6a6000830186611896565b611c7760208301856116ed565b611c8460408301846116ed565b949350505050565b600060a082019050611ca160008301886117ab565b611cae60208301876117ab565b611cbb60408301866117ab565b611cc860608301856116ed565b611cd56080830184611896565b9695505050505050565b7f4e487b7100000000000000000000000000000000000000000000000000000000600052601160045260246000fd5b6000611d1982611641565b9150611d2483611641565b9250828201905080821115611d3c57611d3b611cdf565b5b92915050565b6000608082019050611d5760008301876117ab565b611d646020830186611777565b611d7160408301856117ab565b611d7e60608301846117ab565b95945050505050565b7f4e487b7100000000000000000000000000000000000000000000000000000000600052602160045260246000fdfea26469706673582212209f6515456a388aae8bccf3f67d067c49e4539394d6391371b5d3e13617de923564736f6c63430008140033",
  "linkReferences": {},
  "deployedLinkReferences": {}
}