{
  "_format": "hh-sol-artifact-1",
  "contractName": "LZEndpointMock",
  "sourceName": "contracts/mocks/LZEndpointMock.sol",
  "abi": [
    {
      "inputs": [
        {
          "internalType": "uint16",
          "name": "_chainId",
          "type": "uint16"
        }
      ],
      "stateMutability": "nonpayable",
      "type": "constructor"
    },
    {
      "anonymous": false,
      "inputs": [
        {
          "indexed": false,
          "internalType": "uint16",
          "name": "srcChainId",
          "type": "uint16"
        },
        {
          "indexed": false,
          "internalType": "bytes",
          "name": "srcAddress",
          "type": "bytes"
        },
        {
          "indexed": false,
          "internalType": "uint64",
          "name": "nonce",
          "type": "uint64"
        },
        {
          "indexed": false,
          "internalType": "address",
          "name": "dstAddress",
          "type": "address"
        }
      ],
      "name": "PayloadCleared",
      "type": "event"
    },
    {
      "anonymous": false,
      "inputs": [
        {
          "indexed": false,
          "internalType": "uint16",
          "name": "srcChainId",
          "type": "uint16"
        },
        {
          "indexed": false,
          "internalType": "bytes",
          "name": "srcAddress",
          "type": "bytes"
        },
        {
          "indexed": false,
          "internalType": "address",
          "name": "dstAddress",
          "type": "address"
        },
        {
          "indexed": false,
          "internalType": "uint64",
          "name": "nonce",
          "type": "uint64"
        },
        {
          "indexed": false,
          "internalType": "bytes",
          "name": "payload",
          "type": "bytes"
        },
        {
          "indexed": false,
          "internalType": "bytes",
          "name": "reason",
          "type": "bytes"
        }
      ],
      "name": "PayloadStored",
      "type": "event"
    },
    {
      "anonymous": false,
      "inputs": [
        {
          "indexed": false,
          "internalType": "uint16",
          "name": "chainId",
          "type": "uint16"
        },
        {
          "indexed": false,
          "internalType": "bytes",
          "name": "srcAddress",
          "type": "bytes"
        }
      ],
      "name": "UaForceResumeReceive",
      "type": "event"
    },
    {
      "anonymous": false,
      "inputs": [
        {
          "indexed": true,
          "internalType": "address",
          "name": "to",
          "type": "address"
        },
        {
          "indexed": true,
          "internalType": "uint256",
          "name": "quantity",
          "type": "uint256"
        }
      ],
      "name": "ValueTransferFailed",
      "type": "event"
    },
    {
      "inputs": [],
      "name": "blockNextMsg",
      "outputs": [],
      "stateMutability": "nonpayable",
      "type": "function"
    },
    {
      "inputs": [],
      "name": "defaultAdapterParams",
      "outputs": [
        {
          "internalType": "bytes",
          "name": "",
          "type": "bytes"
        }
      ],
      "stateMutability": "view",
      "type": "function"
    },
    {
      "inputs": [
        {
          "internalType": "uint16",
          "name": "_dstChainId",
          "type": "uint16"
        },
        {
          "internalType": "address",
          "name": "_userApplication",
          "type": "address"
        },
        {
          "internalType": "bytes",
          "name": "_payload",
          "type": "bytes"
        },
        {
          "internalType": "bool",
          "name": "_payInZRO",
          "type": "bool"
        },
        {
          "internalType": "bytes",
          "name": "_adapterParams",
          "type": "bytes"
        }
      ],
      "name": "estimateFees",
      "outputs": [
        {
          "internalType": "uint256",
          "name": "nativeFee",
          "type": "uint256"
        },
        {
          "internalType": "uint256",
          "name": "zroFee",
          "type": "uint256"
        }
      ],
      "stateMutability": "view",
      "type": "function"
    },
    {
      "inputs": [
        {
          "internalType": "uint16",
          "name": "_srcChainId",
          "type": "uint16"
        },
        {
          "internalType": "bytes",
          "name": "_path",
          "type": "bytes"
        }
      ],
      "name": "forceResumeReceive",
      "outputs": [],
      "stateMutability": "nonpayable",
      "type": "function"
    },
    {
      "inputs": [],
      "name": "getChainId",
      "outputs": [
        {
          "internalType": "uint16",
          "name": "",
          "type": "uint16"
        }
      ],
      "stateMutability": "view",
      "type": "function"
    },
    {
      "inputs": [
        {
          "internalType": "uint16",
          "name": "",
          "type": "uint16"
        },
        {
          "internalType": "uint16",
          "name": "",
          "type": "uint16"
        },
        {
          "internalType": "address",
          "name": "",
          "type": "address"
        },
        {
          "internalType": "uint256",
          "name": "",
          "type": "uint256"
        }
      ],
      "name": "getConfig",
      "outputs": [
        {
          "internalType": "bytes",
          "name": "",
          "type": "bytes"
        }
      ],
      "stateMutability": "pure",
      "type": "function"
    },
    {
      "inputs": [
        {
          "internalType": "uint16",
          "name": "_chainID",
          "type": "uint16"
        },
        {
          "internalType": "bytes",
          "name": "_path",
          "type": "bytes"
        }
      ],
      "name": "getInboundNonce",
      "outputs": [
        {
          "internalType": "uint64",
          "name": "",
          "type": "uint64"
        }
      ],
      "stateMutability": "view",
      "type": "function"
    },
    {
      "inputs": [
        {
          "internalType": "uint16",
          "name": "_srcChainId",
          "type": "uint16"
        },
        {
          "internalType": "bytes",
          "name": "_srcAddress",
          "type": "bytes"
        }
      ],
      "name": "getLengthOfQueue",
      "outputs": [
        {
          "internalType": "uint256",
          "name": "",
          "type": "uint256"
        }
      ],
      "stateMutability": "view",
      "type": "function"
    },
    {
      "inputs": [
        {
          "internalType": "uint16",
          "name": "_chainID",
          "type": "uint16"
        },
        {
          "internalType": "address",
          "name": "_srcAddress",
          "type": "address"
        }
      ],
      "name": "getOutboundNonce",
      "outputs": [
        {
          "internalType": "uint64",
          "name": "",
          "type": "uint64"
        }
      ],
      "stateMutability": "view",
      "type": "function"
    },
    {
      "inputs": [
        {
          "internalType": "address",
          "name": "",
          "type": "address"
        }
      ],
      "name": "getReceiveLibraryAddress",
      "outputs": [
        {
          "internalType": "address",
          "name": "",
          "type": "address"
        }
      ],
      "stateMutability": "view",
      "type": "function"
    },
    {
      "inputs": [
        {
          "internalType": "address",
          "name": "",
          "type": "address"
        }
      ],
      "name": "getReceiveVersion",
      "outputs": [
        {
          "internalType": "uint16",
          "name": "",
          "type": "uint16"
        }
      ],
      "stateMutability": "pure",
      "type": "function"
    },
    {
      "inputs": [
        {
          "internalType": "address",
          "name": "",
          "type": "address"
        }
      ],
      "name": "getSendLibraryAddress",
      "outputs": [
        {
          "internalType": "address",
          "name": "",
          "type": "address"
        }
      ],
      "stateMutability": "view",
      "type": "function"
    },
    {
      "inputs": [
        {
          "internalType": "address",
          "name": "",
          "type": "address"
        }
      ],
      "name": "getSendVersion",
      "outputs": [
        {
          "internalType": "uint16",
          "name": "",
          "type": "uint16"
        }
      ],
      "stateMutability": "pure",
      "type": "function"
    },
    {
      "inputs": [
        {
          "internalType": "uint16",
          "name": "_srcChainId",
          "type": "uint16"
        },
        {
          "internalType": "bytes",
          "name": "_path",
          "type": "bytes"
        }
      ],
      "name": "hasStoredPayload",
      "outputs": [
        {
          "internalType": "bool",
          "name": "",
          "type": "bool"
        }
      ],
      "stateMutability": "view",
      "type": "function"
    },
    {
      "inputs": [
        {
          "internalType": "uint16",
          "name": "",
          "type": "uint16"
        },
        {
          "internalType": "bytes",
          "name": "",
          "type": "bytes"
        }
      ],
      "name": "inboundNonce",
      "outputs": [
        {
          "internalType": "uint64",
          "name": "",
          "type": "uint64"
        }
      ],
      "stateMutability": "view",
      "type": "function"
    },
    {
      "inputs": [],
      "name": "isReceivingPayload",
      "outputs": [
        {
          "internalType": "bool",
          "name": "",
          "type": "bool"
        }
      ],
      "stateMutability": "view",
      "type": "function"
    },
    {
      "inputs": [],
      "name": "isSendingPayload",
      "outputs": [
        {
          "internalType": "bool",
          "name": "",
          "type": "bool"
        }
      ],
      "stateMutability": "view",
      "type": "function"
    },
    {
      "inputs": [
        {
          "internalType": "address",
          "name": "",
          "type": "address"
        }
      ],
      "name": "lzEndpointLookup",
      "outputs": [
        {
          "internalType": "address",
          "name": "",
          "type": "address"
        }
      ],
      "stateMutability": "view",
      "type": "function"
    },
    {
      "inputs": [],
      "name": "mockChainId",
      "outputs": [
        {
          "internalType": "uint16",
          "name": "",
          "type": "uint16"
        }
      ],
      "stateMutability": "view",
      "type": "function"
    },
    {
      "inputs": [
        {
          "internalType": "uint16",
          "name": "",
          "type": "uint16"
        },
        {
          "internalType": "bytes",
          "name": "",
          "type": "bytes"
        },
        {
          "internalType": "uint256",
          "name": "",
          "type": "uint256"
        }
      ],
      "name": "msgsToDeliver",
      "outputs": [
        {
          "internalType": "address",
          "name": "dstAddress",
          "type": "address"
        },
        {
          "internalType": "uint64",
          "name": "nonce",
          "type": "uint64"
        },
        {
          "internalType": "bytes",
          "name": "payload",
          "type": "bytes"
        }
      ],
      "stateMutability": "view",
      "type": "function"
    },
    {
      "inputs": [],
      "name": "nextMsgBlocked",
      "outputs": [
        {
          "internalType": "bool",
          "name": "",
          "type": "bool"
        }
      ],
      "stateMutability": "view",
      "type": "function"
    },
    {
      "inputs": [],
      "name": "oracleFee",
      "outputs": [
        {
          "internalType": "uint256",
          "name": "",
          "type": "uint256"
        }
      ],
      "stateMutability": "view",
      "type": "function"
    },
    {
      "inputs": [
        {
          "internalType": "uint16",
          "name": "",
          "type": "uint16"
        },
        {
          "internalType": "address",
          "name": "",
          "type": "address"
        }
      ],
      "name": "outboundNonce",
      "outputs": [
        {
          "internalType": "uint64",
          "name": "",
          "type": "uint64"
        }
      ],
      "stateMutability": "view",
      "type": "function"
    },
    {
      "inputs": [],
      "name": "protocolFeeConfig",
      "outputs": [
        {
          "internalType": "uint256",
          "name": "zroFee",
          "type": "uint256"
        },
        {
          "internalType": "uint256",
          "name": "nativeBP",
          "type": "uint256"
        }
      ],
      "stateMutability": "view",
      "type": "function"
    },
    {
      "inputs": [
        {
          "internalType": "uint16",
          "name": "_srcChainId",
          "type": "uint16"
        },
        {
          "internalType": "bytes",
          "name": "_path",
          "type": "bytes"
        },
        {
          "internalType": "address",
          "name": "_dstAddress",
          "type": "address"
        },
        {
          "internalType": "uint64",
          "name": "_nonce",
          "type": "uint64"
        },
        {
          "internalType": "uint256",
          "name": "_gasLimit",
          "type": "uint256"
        },
        {
          "internalType": "bytes",
          "name": "_payload",
          "type": "bytes"
        }
      ],
      "name": "receivePayload",
      "outputs": [],
      "stateMutability": "nonpayable",
      "type": "function"
    },
    {
      "inputs": [],
      "name": "relayerFeeConfig",
      "outputs": [
        {
          "internalType": "uint128",
          "name": "dstPriceRatio",
          "type": "uint128"
        },
        {
          "internalType": "uint128",
          "name": "dstGasPriceInWei",
          "type": "uint128"
        },
        {
          "internalType": "uint128",
          "name": "dstNativeAmtCap",
          "type": "uint128"
        },
        {
          "internalType": "uint64",
          "name": "baseGas",
          "type": "uint64"
        },
        {
          "internalType": "uint64",
          "name": "gasPerByte",
          "type": "uint64"
        }
      ],
      "stateMutability": "view",
      "type": "function"
    },
    {
      "inputs": [
        {
          "internalType": "uint16",
          "name": "_srcChainId",
          "type": "uint16"
        },
        {
          "internalType": "bytes",
          "name": "_path",
          "type": "bytes"
        },
        {
          "internalType": "bytes",
          "name": "_payload",
          "type": "bytes"
        }
      ],
      "name": "retryPayload",
      "outputs": [],
      "stateMutability": "nonpayable",
      "type": "function"
    },
    {
      "inputs": [
        {
          "internalType": "uint16",
          "name": "_chainId",
          "type": "uint16"
        },
        {
          "internalType": "bytes",
          "name": "_path",
          "type": "bytes"
        },
        {
          "internalType": "bytes",
          "name": "_payload",
          "type": "bytes"
        },
        {
          "internalType": "address payable",
          "name": "_refundAddress",
          "type": "address"
        },
        {
          "internalType": "address",
          "name": "_zroPaymentAddress",
          "type": "address"
        },
        {
          "internalType": "bytes",
          "name": "_adapterParams",
          "type": "bytes"
        }
      ],
      "name": "send",
      "outputs": [],
      "stateMutability": "payable",
      "type": "function"
    },
    {
      "inputs": [
        {
          "internalType": "uint16",
          "name": "",
          "type": "uint16"
        },
        {
          "internalType": "uint16",
          "name": "",
          "type": "uint16"
        },
        {
          "internalType": "uint256",
          "name": "",
          "type": "uint256"
        },
        {
          "internalType": "bytes",
          "name": "",
          "type": "bytes"
        }
      ],
      "name": "setConfig",
      "outputs": [],
      "stateMutability": "nonpayable",
      "type": "function"
    },
    {
      "inputs": [
        {
          "internalType": "bytes",
          "name": "_adapterParams",
          "type": "bytes"
        }
      ],
      "name": "setDefaultAdapterParams",
      "outputs": [],
      "stateMutability": "nonpayable",
      "type": "function"
    },
    {
      "inputs": [
        {
          "internalType": "address",
          "name": "destAddr",
          "type": "address"
        },
        {
          "internalType": "address",
          "name": "lzEndpointAddr",
          "type": "address"
        }
      ],
      "name": "setDestLzEndpoint",
      "outputs": [],
      "stateMutability": "nonpayable",
      "type": "function"
    },
    {
      "inputs": [
        {
          "internalType": "uint256",
          "name": "_oracleFee",
          "type": "uint256"
        }
      ],
      "name": "setOracleFee",
      "outputs": [],
      "stateMutability": "nonpayable",
      "type": "function"
    },
    {
      "inputs": [
        {
          "internalType": "uint256",
          "name": "_zroFee",
          "type": "uint256"
        },
        {
          "internalType": "uint256",
          "name": "_nativeBP",
          "type": "uint256"
        }
      ],
      "name": "setProtocolFee",
      "outputs": [],
      "stateMutability": "nonpayable",
      "type": "function"
    },
    {
      "inputs": [
        {
          "internalType": "uint16",
          "name": "",
          "type": "uint16"
        }
      ],
      "name": "setReceiveVersion",
      "outputs": [],
      "stateMutability": "nonpayable",
      "type": "function"
    },
    {
      "inputs": [
        {
          "internalType": "uint128",
          "name": "_dstPriceRatio",
          "type": "uint128"
        },
        {
          "internalType": "uint128",
          "name": "_dstGasPriceInWei",
          "type": "uint128"
        },
        {
          "internalType": "uint128",
          "name": "_dstNativeAmtCap",
          "type": "uint128"
        },
        {
          "internalType": "uint64",
          "name": "_baseGas",
          "type": "uint64"
        },
        {
          "internalType": "uint64",
          "name": "_gasPerByte",
          "type": "uint64"
        }
      ],
      "name": "setRelayerPrice",
      "outputs": [],
      "stateMutability": "nonpayable",
      "type": "function"
    },
    {
      "inputs": [
        {
          "internalType": "uint16",
          "name": "",
          "type": "uint16"
        }
      ],
      "name": "setSendVersion",
      "outputs": [],
      "stateMutability": "nonpayable",
      "type": "function"
    },
    {
      "inputs": [
        {
          "internalType": "uint16",
          "name": "",
          "type": "uint16"
        },
        {
          "internalType": "bytes",
          "name": "",
          "type": "bytes"
        }
      ],
      "name": "storedPayload",
      "outputs": [
        {
          "internalType": "uint64",
          "name": "payloadLength",
          "type": "uint64"
        },
        {
          "internalType": "address",
          "name": "dstAddress",
          "type": "address"
        },
        {
          "internalType": "bytes32",
          "name": "payloadHash",
          "type": "bytes32"
        }
      ],
      "stateMutability": "view",
      "type": "function"
    }
  ],
  "bytecode": "0x60806040526001600c60006101000a81548160ff021916908360ff1602179055506001600c60016101000a81548160ff021916908360ff1602179055503480156200004957600080fd5b506040516200527f3803806200527f83398181016040528101906200006f919062000315565b80600160006101000a81548161ffff021916908361ffff1602179055506040518060a001604052806402540be4006fffffffffffffffffffffffffffffffff1681526020016402540be4006fffffffffffffffffffffffffffffffff168152602001678ac7230489e800006fffffffffffffffffffffffffffffffff168152602001606467ffffffffffffffff168152602001600167ffffffffffffffff16815250600260008201518160000160006101000a8154816fffffffffffffffffffffffffffffffff02191690836fffffffffffffffffffffffffffffffff16021790555060208201518160000160106101000a8154816fffffffffffffffffffffffffffffffff02191690836fffffffffffffffffffffffffffffffff16021790555060408201518160010160006101000a8154816fffffffffffffffffffffffffffffffff02191690836fffffffffffffffffffffffffffffffff16021790555060608201518160010160106101000a81548167ffffffffffffffff021916908367ffffffffffffffff16021790555060808201518160010160186101000a81548167ffffffffffffffff021916908367ffffffffffffffff1602179055509050506040518060400160405280670de0b6b3a764000081526020016103e881525060046000820151816000015560208201518160010155905050662386f26fc100006006819055506200028b62030d40620002a360201b60201c565b600790816200029b9190620005c1565b505062000739565b6060600182604051602001620002bb92919062000709565b6040516020818303038152906040529050919050565b600080fd5b600061ffff82169050919050565b620002ef81620002d6565b8114620002fb57600080fd5b50565b6000815190506200030f81620002e4565b92915050565b6000602082840312156200032e576200032d620002d1565b5b60006200033e84828501620002fe565b91505092915050565b600081519050919050565b7f4e487b7100000000000000000000000000000000000000000000000000000000600052604160045260246000fd5b7f4e487b7100000000000000000000000000000000000000000000000000000000600052602260045260246000fd5b60006002820490506001821680620003c957607f821691505b602082108103620003df57620003de62000381565b5b50919050565b60008190508160005260206000209050919050565b60006020601f8301049050919050565b600082821b905092915050565b600060088302620004497fffffffffffffffffffffffffffffffffffffffffffffffffffffffffffffffff826200040a565b6200045586836200040a565b95508019841693508086168417925050509392505050565b6000819050919050565b6000819050919050565b6000620004a26200049c62000496846200046d565b62000477565b6200046d565b9050919050565b6000819050919050565b620004be8362000481565b620004d6620004cd82620004a9565b84845462000417565b825550505050565b600090565b620004ed620004de565b620004fa818484620004b3565b505050565b5b81811015620005225762000516600082620004e3565b60018101905062000500565b5050565b601f82111562000571576200053b81620003e5565b6200054684620003fa565b8101602085101562000556578190505b6200056e6200056585620003fa565b830182620004ff565b50505b505050565b600082821c905092915050565b6000620005966000198460080262000576565b1980831691505092915050565b6000620005b1838362000583565b9150826002028217905092915050565b620005cc8262000347565b67ffffffffffffffff811115620005e857620005e762000352565b5b620005f48254620003b0565b6200060182828562000526565b600060209050601f83116001811462000639576000841562000624578287015190505b620006308582620005a3565b865550620006a0565b601f1984166200064986620003e5565b60005b8281101562000673578489015182556001820191506020850194506020810190506200064c565b868310156200069357848901516200068f601f89168262000583565b8355505b6001600288020188555050505b505050505050565b60008160f01b9050919050565b6000620006c282620006a8565b9050919050565b620006de620006d882620002d6565b620006b5565b82525050565b6000819050919050565b62000703620006fd826200046d565b620006e4565b82525050565b6000620007178285620006c9565b600282019150620007298284620006ee565b6020820191508190509392505050565b614b3680620007496000396000f3fe60806040526004361061021a5760003560e01c80639924d33b11610123578063ca066b35116100ab578063e97a448a1161006f578063e97a448a1461083c578063f5ecbdbc14610867578063f9cd3ceb146108a4578063fbba623b146108cf578063fdc07c70146108f85761021a565b8063ca066b3514610769578063cbed8b9c14610794578063d23104f1146107bd578063da1a7c9a146107d4578063db14f305146108115761021a565b8063b6d9ef60116100f2578063b6d9ef6014610695578063c08f15a1146106be578063c2fa4813146106e7578063c580310014610710578063c81b383a1461072c5761021a565b80639924d33b146105b55780639c729da1146105f2578063aaff5f161461062f578063b2086499146106585761021a565b80633408e470116101a657806371ba2fd61161017557806371ba2fd61461049057806376a386dc146104cd5780637a1457481461050c5780637f6df8e614610549578063907c5e7e146105865761021a565b80633408e470146103d35780633e0dd83e146103fe57806340a7bb101461042957806342d65a8d146104675761021a565b806310ddb137116101ed57806310ddb137146102ee57806312a9ee6b14610317578063240de27714610356578063272bd3841461037f5780632c365e25146103aa5761021a565b806307d3277f1461021f57806307e0db171461024b578063096568f6146102745780630eaf6ea6146102b1575b600080fd5b34801561022b57600080fd5b50610234610935565b604051610242929190612d79565b60405180910390f35b34801561025757600080fd5b50610272600480360381019061026d9190612df0565b610947565b005b34801561028057600080fd5b5061029b60048036038101906102969190612e7b565b61094a565b6040516102a89190612eb7565b60405180910390f35b3480156102bd57600080fd5b506102d860048036038101906102d39190612f37565b610955565b6040516102e59190612fb2565b60405180910390f35b3480156102fa57600080fd5b5061031560048036038101906103109190612df0565b6109a8565b005b34801561032357600080fd5b5061033e6004803603810190610339919061313a565b6109ab565b60405161034d9392919061325a565b60405180910390f35b34801561036257600080fd5b5061037d60048036038101906103789190613298565b610ad1565b005b34801561038b57600080fd5b50610394610ae9565b6040516103a191906132d8565b60405180910390f35b3480156103b657600080fd5b506103d160048036038101906103cc919061336e565b610b77565b005b3480156103df57600080fd5b506103e8610c8a565b6040516103f59190612eb7565b60405180910390f35b34801561040a57600080fd5b50610413610ca2565b6040516104209190612fb2565b60405180910390f35b34801561043557600080fd5b50610450600480360381019061044b9190613415565b610cb5565b60405161045e929190612d79565b60405180910390f35b34801561047357600080fd5b5061048e60048036038101906104899190612f37565b610db6565b005b34801561049c57600080fd5b506104b760048036038101906104b29190612e7b565b610f96565b6040516104c491906134c8565b60405180910390f35b3480156104d957600080fd5b506104f460048036038101906104ef91906134e3565b610fa0565b60405161050393929190613558565b60405180910390f35b34801561051857600080fd5b50610533600480360381019061052e919061358f565b611021565b60405161054091906135cf565b60405180910390f35b34801561055557600080fd5b50610570600480360381019061056b9190612f37565b611098565b60405161057d91906135ea565b60405180910390f35b34801561059257600080fd5b5061059b6110e0565b6040516105ac959493929190613614565b60405180910390f35b3480156105c157600080fd5b506105dc60048036038101906105d791906134e3565b611180565b6040516105e991906135cf565b60405180910390f35b3480156105fe57600080fd5b5061061960048036038101906106149190612e7b565b6111cc565b60405161062691906134c8565b60405180910390f35b34801561063b57600080fd5b5061065660048036038101906106519190613667565b6111d6565b005b34801561066457600080fd5b5061067f600480360381019061067a919061358f565b61149d565b60405161068c91906135cf565b60405180910390f35b3480156106a157600080fd5b506106bc60048036038101906106b791906136fc565b6114d3565b005b3480156106ca57600080fd5b506106e560048036038101906106e09190613729565b6114dd565b005b3480156106f357600080fd5b5061070e60048036038101906107099190613769565b61155e565b005b61072a60048036038101906107259190613876565b611f0d565b005b34801561073857600080fd5b50610753600480360381019061074e9190612e7b565b612569565b60405161076091906134c8565b60405180910390f35b34801561077557600080fd5b5061077e61259c565b60405161078b9190612fb2565b60405180910390f35b3480156107a057600080fd5b506107bb60048036038101906107b6919061395d565b6125bc565b005b3480156107c957600080fd5b506107d26125c2565b005b3480156107e057600080fd5b506107fb60048036038101906107f69190612e7b565b6125de565b6040516108089190612eb7565b60405180910390f35b34801561081d57600080fd5b506108266125e9565b6040516108339190612eb7565b60405180910390f35b34801561084857600080fd5b506108516125fd565b60405161085e9190612fb2565b60405180910390f35b34801561087357600080fd5b5061088e600480360381019061088991906139e0565b61261d565b60405161089b91906132d8565b60405180910390f35b3480156108b057600080fd5b506108b9612639565b6040516108c691906135ea565b60405180910390f35b3480156108db57600080fd5b506108f660048036038101906108f19190613a47565b61263f565b005b34801561090457600080fd5b5061091f600480360381019061091a9190612f37565b612652565b60405161092c91906135cf565b60405180910390f35b60048060000154908060010154905082565b50565b600060019050919050565b600080600a60008661ffff1661ffff1681526020019081526020016000208484604051610983929190613ac0565b908152602001604051809103902090506000801b816001015414159150509392505050565b50565b600b6020528260005260406000208280516020810182018051848252602083016020850120818352809550505050505081815481106109e957600080fd5b906000526020600020906002020160009250925050508060000160009054906101000a900473ffffffffffffffffffffffffffffffffffffffff16908060000160149054906101000a900467ffffffffffffffff1690806001018054610a4e90613b08565b80601f0160208091040260200160405190810160405280929190818152602001828054610a7a90613b08565b8015610ac75780601f10610a9c57610100808354040283529160200191610ac7565b820191906000526020600020905b815481529060010190602001808311610aaa57829003601f168201915b5050505050905083565b81600460000181905550806004600101819055505050565b60078054610af690613b08565b80601f0160208091040260200160405190810160405280929190818152602001828054610b2290613b08565b8015610b6f5780601f10610b4457610100808354040283529160200191610b6f565b820191906000526020600020905b815481529060010190602001808311610b5257829003601f168201915b505050505081565b84600260000160006101000a8154816fffffffffffffffffffffffffffffffff02191690836fffffffffffffffffffffffffffffffff16021790555083600260000160106101000a8154816fffffffffffffffffffffffffffffffff02191690836fffffffffffffffffffffffffffffffff16021790555082600260010160006101000a8154816fffffffffffffffffffffffffffffffff02191690836fffffffffffffffffffffffffffffffff16021790555081600260010160106101000a81548167ffffffffffffffff021916908367ffffffffffffffff16021790555080600260010160186101000a81548167ffffffffffffffff021916908367ffffffffffffffff1602179055505050505050565b6000600160009054906101000a900461ffff16905090565b600160029054906101000a900460ff1681565b600080600080845111610d525760078054610ccf90613b08565b80601f0160208091040260200160405190810160405280929190818152602001828054610cfb90613b08565b8015610d485780601f10610d1d57610100808354040283529160200191610d48565b820191906000526020600020905b815481529060010190602001808311610d2b57829003601f168201915b5050505050610d54565b835b90506000610d678960018a8a51866126ab565b90506000610d7887836006546128f1565b905086610d885780945084610d8d565b809350835b506006548286610d9d9190613b68565b610da79190613b68565b94505050509550959350505050565b6000600a60008561ffff1661ffff1681526020019081526020016000208383604051610de3929190613ac0565b908152602001604051809103902090506000801b816001015403610e3c576040517f08c379a0000000000000000000000000000000000000000000000000000000008152600401610e3390613bf9565b60405180910390fd5b3373ffffffffffffffffffffffffffffffffffffffff168160000160089054906101000a900473ffffffffffffffffffffffffffffffffffffffff1673ffffffffffffffffffffffffffffffffffffffff1614610ece576040517f08c379a0000000000000000000000000000000000000000000000000000000008152600401610ec590613c65565b60405180910390fd5b60008160000160006101000a81548167ffffffffffffffff021916908367ffffffffffffffff16021790555060008160000160086101000a81548173ffffffffffffffffffffffffffffffffffffffff021916908373ffffffffffffffffffffffffffffffffffffffff1602179055506000801b81600101819055507f23d2684f396e92a6e2ff2d16f98e6fea00d50cb27a64b531bc0748f730211f98848484604051610f7d93929190613cb2565b60405180910390a1610f90848484612939565b50505050565b6000309050919050565b600a60205281600052604060002081805160208101820180518482526020830160208501208183528095505050505050600091509150508060000160009054906101000a900467ffffffffffffffff16908060000160089054906101000a900473ffffffffffffffffffffffffffffffffffffffff16908060010154905083565b6000600960008461ffff1661ffff16815260200190815260200160002060008373ffffffffffffffffffffffffffffffffffffffff1673ffffffffffffffffffffffffffffffffffffffff16815260200190815260200160002060009054906101000a900467ffffffffffffffff16905092915050565b6000600b60008561ffff1661ffff16815260200190815260200160002083836040516110c5929190613ac0565b90815260200160405180910390208054905090509392505050565b60028060000160009054906101000a90046fffffffffffffffffffffffffffffffff16908060000160109054906101000a90046fffffffffffffffffffffffffffffffff16908060010160009054906101000a90046fffffffffffffffffffffffffffffffff16908060010160109054906101000a900467ffffffffffffffff16908060010160189054906101000a900467ffffffffffffffff16905085565b6008602052816000526040600020818051602081018201805184825260208301602085012081835280955050505050506000915091509054906101000a900467ffffffffffffffff1681565b6000309050919050565b6000600a60008761ffff1661ffff1681526020019081526020016000208585604051611203929190613ac0565b908152602001604051809103902090506000801b81600101540361125c576040517f08c379a000000000000000000000000000000000000000000000000000000000815260040161125390613bf9565b60405180910390fd5b8060000160009054906101000a900467ffffffffffffffff1667ffffffffffffffff16838390501480156112aa5750806001015483836040516112a0929190613ac0565b6040518091039020145b6112e9576040517f08c379a00000000000000000000000000000000000000000000000000000000081526004016112e090613d30565b60405180910390fd5b60008160000160089054906101000a900473ffffffffffffffffffffffffffffffffffffffff16905060008260000160006101000a81548167ffffffffffffffff021916908367ffffffffffffffff16021790555060008260000160086101000a81548173ffffffffffffffffffffffffffffffffffffffff021916908373ffffffffffffffffffffffffffffffffffffffff1602179055506000801b82600101819055506000600860008961ffff1661ffff16815260200190815260200160002087876040516113bb929190613ac0565b908152602001604051809103902060009054906101000a900467ffffffffffffffff1690508173ffffffffffffffffffffffffffffffffffffffff16621d3567898989858a8a6040518763ffffffff1660e01b815260040161142296959493929190613d50565b600060405180830381600087803b15801561143c57600080fd5b505af1158015611450573d6000803e3d6000fd5b505050507f612434f39581c8e7d99746c9c20c6eb0ce8c0eb99f007c5719d620841370957d888888848660405161148b959493929190613da7565b60405180910390a15050505050505050565b60096020528160005260406000206020528060005260406000206000915091509054906101000a900467ffffffffffffffff1681565b8060068190555050565b806000808473ffffffffffffffffffffffffffffffffffffffff1673ffffffffffffffffffffffffffffffffffffffff16815260200190815260200160002060006101000a81548173ffffffffffffffffffffffffffffffffffffffff021916908373ffffffffffffffffffffffffffffffffffffffff1602179055505050565b600160ff16600c60019054906101000a900460ff1660ff16146115b6576040517f08c379a00000000000000000000000000000000000000000000000000000000081526004016115ad90613e67565b60405180910390fd5b6002600c60016101000a81548160ff021916908360ff1602179055506000600a60008a61ffff1661ffff16815260200190815260200160002088886040516115ff929190613ac0565b90815260200160405180910390209050600860008a61ffff1661ffff168152602001908152602001600020888860405161163a929190613ac0565b9081526020016040518091039020600081819054906101000a900467ffffffffffffffff1661166890613e87565b91906101000a81548167ffffffffffffffff021916908367ffffffffffffffff160217905567ffffffffffffffff168567ffffffffffffffff16146116e2576040517f08c379a00000000000000000000000000000000000000000000000000000000081526004016116d990613f03565b60405180910390fd5b6000801b816001015414611b2d576000600b60008b61ffff1661ffff168152602001908152602001600020898960405161171d929190613ac0565b90815260200160405180910390209050600060405180606001604052808973ffffffffffffffffffffffffffffffffffffffff1681526020018867ffffffffffffffff16815260200186868080601f016020809104026020016040519081016040528093929190818152602001838380828437600081840152601f19601f820116905080830192505050505050508152509050600082805490501115611a6c578181908060018154018082558091505060019003906000526020600020906002020160009091909190915060008201518160000160006101000a81548173ffffffffffffffffffffffffffffffffffffffff021916908373ffffffffffffffffffffffffffffffffffffffff16021790555060208201518160000160146101000a81548167ffffffffffffffff021916908367ffffffffffffffff160217905550604082015181600101908161187391906140cf565b50505060005b6001838054905061188a91906141a1565b8110156119b4578281815481106118a4576118a36141d5565b5b9060005260206000209060020201836001836118c09190613b68565b815481106118d1576118d06141d5565b5b90600052602060002090600202016000820160009054906101000a900473ffffffffffffffffffffffffffffffffffffffff168160000160006101000a81548173ffffffffffffffffffffffffffffffffffffffff021916908373ffffffffffffffffffffffffffffffffffffffff1602179055506000820160149054906101000a900467ffffffffffffffff168160000160146101000a81548167ffffffffffffffff021916908367ffffffffffffffff1602179055506001820181600101908161199d919061421a565b5090505080806119ac90614302565b915050611879565b5080826000815481106119ca576119c96141d5565b5b906000526020600020906002020160008201518160000160006101000a81548173ffffffffffffffffffffffffffffffffffffffff021916908373ffffffffffffffffffffffffffffffffffffffff16021790555060208201518160000160146101000a81548167ffffffffffffffff021916908367ffffffffffffffff1602179055506040820151816001019081611a6391906140cf565b50905050611b26565b8181908060018154018082558091505060019003906000526020600020906002020160009091909190915060008201518160000160006101000a81548173ffffffffffffffffffffffffffffffffffffffff021916908373ffffffffffffffffffffffffffffffffffffffff16021790555060208201518160000160146101000a81548167ffffffffffffffff021916908367ffffffffffffffff1602179055506040820151816001019081611b2291906140cf565b5050505b5050611ee6565b600160029054906101000a900460ff1615611cc75760405180606001604052808484905067ffffffffffffffff1681526020018773ffffffffffffffffffffffffffffffffffffffff1681526020018484604051611b8c929190613ac0565b6040518091039020815250600a60008b61ffff1661ffff1681526020019081526020016000208989604051611bc2929190613ac0565b908152602001604051809103902060008201518160000160006101000a81548167ffffffffffffffff021916908367ffffffffffffffff16021790555060208201518160000160086101000a81548173ffffffffffffffffffffffffffffffffffffffff021916908373ffffffffffffffffffffffffffffffffffffffff160217905550604082015181600101559050507f0f9e4d95b62f08222d612b5ab92039cd8fbbbea550a95e8df9f927436bbdf5db8989898989888860405180602001604052806000815250604051611c9f98979695949392919061434a565b60405180910390a16000600160026101000a81548160ff021916908315150217905550611ee5565b8573ffffffffffffffffffffffffffffffffffffffff16621d3567858b8b8b8a89896040518863ffffffff1660e01b8152600401611d0a96959493929190613d50565b600060405180830381600088803b158015611d2457600080fd5b5087f193505050508015611d36575060015b611ee3573d8060008114611d66576040519150601f19603f3d011682016040523d82523d6000602084013e611d6b565b606091505b5060405180606001604052808585905067ffffffffffffffff1681526020018873ffffffffffffffffffffffffffffffffffffffff1681526020018585604051611db6929190613ac0565b6040518091039020815250600a60008c61ffff1661ffff1681526020019081526020016000208a8a604051611dec929190613ac0565b908152602001604051809103902060008201518160000160006101000a81548167ffffffffffffffff021916908367ffffffffffffffff16021790555060208201518160000160086101000a81548173ffffffffffffffffffffffffffffffffffffffff021916908373ffffffffffffffffffffffffffffffffffffffff160217905550604082015181600101559050507f0f9e4d95b62f08222d612b5ab92039cd8fbbbea550a95e8df9f927436bbdf5db8a8a8a8a8a898988604051611eba98979695949392919061434a565b60405180910390a16000600160026101000a81548160ff02191690831515021790555050611ee4565b5b5b5b506001600c60016101000a81548160ff021916908360ff1602179055505050505050505050565b600160ff16600c60009054906101000a900460ff1660ff1614611f65576040517f08c379a0000000000000000000000000000000000000000000000000000000008152600401611f5c90614436565b60405180910390fd5b6002600c60006101000a81548160ff021916908360ff1602179055506028865114611fc5576040517f08c379a0000000000000000000000000000000000000000000000000000000008152600401611fbc906144c8565b60405180910390fd5b60006014870151905060008060008373ffffffffffffffffffffffffffffffffffffffff1673ffffffffffffffffffffffffffffffffffffffff16815260200190815260200160002060009054906101000a900473ffffffffffffffffffffffffffffffffffffffff169050600073ffffffffffffffffffffffffffffffffffffffff168173ffffffffffffffffffffffffffffffffffffffff16036120a0576040517f08c379a00000000000000000000000000000000000000000000000000000000081526004016120979061455a565b60405180910390fd5b60008084511161213a57600780546120b790613b08565b80601f01602080910402602001604051908101604052809291908181526020018280546120e390613b08565b80156121305780601f1061210557610100808354040283529160200191612130565b820191906000526020600020905b81548152906001019060200180831161211357829003601f168201915b505050505061213c565b835b905060006121c18b338b8b8080601f016020809104026020016040519081016040528093929190818152602001838380828437600081840152601f19601f82011690508083019250505050505050600073ffffffffffffffffffffffffffffffffffffffff168a73ffffffffffffffffffffffffffffffffffffffff16141586610cb5565b50905080341015612207576040517f08c379a00000000000000000000000000000000000000000000000000000000081526004016121fe906145ec565b60405180910390fd5b6000600960008d61ffff1661ffff16815260200190815260200160002060003373ffffffffffffffffffffffffffffffffffffffff1673ffffffffffffffffffffffffffffffffffffffff168152602001908152602001600020600081819054906101000a900467ffffffffffffffff1661228190613e87565b91906101000a81548167ffffffffffffffff021916908367ffffffffffffffff16021790559050600082346122b691906141a1565b9050600081111561236f5760008973ffffffffffffffffffffffffffffffffffffffff16826040516122e790614632565b60006040518083038185875af1925050503d8060008114612324576040519150601f19603f3d011682016040523d82523d6000602084013e612329565b606091505b505090508061236d576040517f08c379a000000000000000000000000000000000000000000000000000000000815260040161236490614693565b60405180910390fd5b505b600080600061237d87612be4565b9350935093505060008211156124455760008173ffffffffffffffffffffffffffffffffffffffff16836040516123b390614632565b60006040518083038185875af1925050503d80600081146123f0576040519150601f19603f3d011682016040523d82523d6000602084013e6123f5565b606091505b505090508061244357828273ffffffffffffffffffffffffffffffffffffffff167f2c7a964ca3de5ec1d42d9822f9bbd0eb142a59cc9f855e9d93813b773192c7a360405160405180910390a35b505b6000338a60405160200161245a9291906146fb565b604051602081830303815290604052905060008f8f8080601f016020809104026020016040519081016040528093929190818152602001838380828437600081840152601f19601f8201169050808301925050505050505090508973ffffffffffffffffffffffffffffffffffffffff1663c2fa4813600160009054906101000a900461ffff16848e8b8a876040518763ffffffff1660e01b815260040161250796959493929190614727565b600060405180830381600087803b15801561252157600080fd5b505af1158015612535573d6000803e3d6000fd5b5050505050505050505050505050506001600c60006101000a81548160ff021916908360ff16021790555050505050505050565b60006020528060005260406000206000915054906101000a900473ffffffffffffffffffffffffffffffffffffffff1681565b6000600260ff16600c60019054906101000a900460ff1660ff1614905090565b50505050565b60018060026101000a81548160ff021916908315150217905550565b600060019050919050565b600160009054906101000a900461ffff1681565b6000600260ff16600c60009054906101000a900460ff1660ff1614905090565b6060604051806020016040528060008152509050949350505050565b60065481565b806007908161264e91906140cf565b5050565b6000600860008561ffff1661ffff168152602001908152602001600020838360405161267f929190613ac0565b908152602001604051809103902060009054906101000a900467ffffffffffffffff1690509392505050565b6000806000806126ba85612be4565b50925092509250600060028461ffff16036127545781600260010160009054906101000a90046fffffffffffffffffffffffffffffffff166fffffffffffffffffffffffffffffffff161015612745576040517f08c379a000000000000000000000000000000000000000000000000000000000815260040161273c90614808565b60405180910390fd5b81816127519190613b68565b90505b600083600260010160109054906101000a900467ffffffffffffffff1667ffffffffffffffff166127859190613b68565b600260000160109054906101000a90046fffffffffffffffffffffffffffffffff166fffffffffffffffffffffffffffffffff166127c39190614828565b905080826127d19190613b68565b915060006402540be400600260000160009054906101000a90046fffffffffffffffffffffffffffffffff166fffffffffffffffffffffffffffffffff168461281a9190614828565b6128249190614899565b905060006402540be400600260000160009054906101000a90046fffffffffffffffffffffffffffffffff16600260010160189054906101000a900467ffffffffffffffff1667ffffffffffffffff16600260000160109054906101000a90046fffffffffffffffffffffffffffffffff166128a091906148ca565b6128aa91906148ca565b6128b49190614907565b6fffffffffffffffffffffffffffffffff169050808a6128d49190614828565b826128df9190613b68565b97505050505050505095945050505050565b60008315612906576004600001549050612932565b612710600460010154838561291b9190613b68565b6129259190614828565b61292f9190614899565b90505b9392505050565b6000600b60008561ffff1661ffff1681526020019081526020016000208383604051612966929190613ac0565b908152602001604051809103902090505b600081805490501115612bde576000816001838054905061299891906141a1565b815481106129a9576129a86141d5565b5b90600052602060002090600202016040518060600160405290816000820160009054906101000a900473ffffffffffffffffffffffffffffffffffffffff1673ffffffffffffffffffffffffffffffffffffffff1673ffffffffffffffffffffffffffffffffffffffff1681526020016000820160149054906101000a900467ffffffffffffffff1667ffffffffffffffff1667ffffffffffffffff168152602001600182018054612a5a90613b08565b80601f0160208091040260200160405190810160405280929190818152602001828054612a8690613b08565b8015612ad35780601f10612aa857610100808354040283529160200191612ad3565b820191906000526020600020905b815481529060010190602001808311612ab657829003601f168201915b5050505050815250509050806000015173ffffffffffffffffffffffffffffffffffffffff16621d3567868686856020015186604001516040518663ffffffff1660e01b8152600401612b2a959493929190614938565b600060405180830381600087803b158015612b4457600080fd5b505af1158015612b58573d6000803e3d6000fd5b5050505081805480612b6d57612b6c61498d565b5b6001900381819060005260206000209060020201600080820160006101000a81549073ffffffffffffffffffffffffffffffffffffffff02191690556000820160146101000a81549067ffffffffffffffff0219169055600182016000612bd49190612d03565b5050905550612977565b50505050565b600080600080602285511480612bfb575060428551115b612c3a576040517f08c379a0000000000000000000000000000000000000000000000000000000008152600401612c3190614a08565b60405180910390fd5b600285015193506022850151925060018461ffff161480612c5f575060028461ffff16145b612c9e576040517f08c379a0000000000000000000000000000000000000000000000000000000008152600401612c9590614a74565b60405180910390fd5b60008311612ce1576040517f08c379a0000000000000000000000000000000000000000000000000000000008152600401612cd890614ae0565b60405180910390fd5b60028461ffff1603612cfc5760428501519150605685015190505b9193509193565b508054612d0f90613b08565b6000825580601f10612d215750612d40565b601f016020900490600052602060002090810190612d3f9190612d43565b5b50565b5b80821115612d5c576000816000905550600101612d44565b5090565b6000819050919050565b612d7381612d60565b82525050565b6000604082019050612d8e6000830185612d6a565b612d9b6020830184612d6a565b9392505050565b6000604051905090565b600080fd5b600080fd5b600061ffff82169050919050565b612dcd81612db6565b8114612dd857600080fd5b50565b600081359050612dea81612dc4565b92915050565b600060208284031215612e0657612e05612dac565b5b6000612e1484828501612ddb565b91505092915050565b600073ffffffffffffffffffffffffffffffffffffffff82169050919050565b6000612e4882612e1d565b9050919050565b612e5881612e3d565b8114612e6357600080fd5b50565b600081359050612e7581612e4f565b92915050565b600060208284031215612e9157612e90612dac565b5b6000612e9f84828501612e66565b91505092915050565b612eb181612db6565b82525050565b6000602082019050612ecc6000830184612ea8565b92915050565b600080fd5b600080fd5b600080fd5b60008083601f840112612ef757612ef6612ed2565b5b8235905067ffffffffffffffff811115612f1457612f13612ed7565b5b602083019150836001820283011115612f3057612f2f612edc565b5b9250929050565b600080600060408486031215612f5057612f4f612dac565b5b6000612f5e86828701612ddb565b935050602084013567ffffffffffffffff811115612f7f57612f7e612db1565b5b612f8b86828701612ee1565b92509250509250925092565b60008115159050919050565b612fac81612f97565b82525050565b6000602082019050612fc76000830184612fa3565b92915050565b600080fd5b6000601f19601f8301169050919050565b7f4e487b7100000000000000000000000000000000000000000000000000000000600052604160045260246000fd5b61301b82612fd2565b810181811067ffffffffffffffff8211171561303a57613039612fe3565b5b80604052505050565b600061304d612da2565b90506130598282613012565b919050565b600067ffffffffffffffff82111561307957613078612fe3565b5b61308282612fd2565b9050602081019050919050565b82818337600083830152505050565b60006130b16130ac8461305e565b613043565b9050828152602081018484840111156130cd576130cc612fcd565b5b6130d884828561308f565b509392505050565b600082601f8301126130f5576130f4612ed2565b5b813561310584826020860161309e565b91505092915050565b61311781612d60565b811461312257600080fd5b50565b6000813590506131348161310e565b92915050565b60008060006060848603121561315357613152612dac565b5b600061316186828701612ddb565b935050602084013567ffffffffffffffff81111561318257613181612db1565b5b61318e868287016130e0565b925050604061319f86828701613125565b9150509250925092565b6131b281612e3d565b82525050565b600067ffffffffffffffff82169050919050565b6131d5816131b8565b82525050565b600081519050919050565b600082825260208201905092915050565b60005b838110156132155780820151818401526020810190506131fa565b60008484015250505050565b600061322c826131db565b61323681856131e6565b93506132468185602086016131f7565b61324f81612fd2565b840191505092915050565b600060608201905061326f60008301866131a9565b61327c60208301856131cc565b818103604083015261328e8184613221565b9050949350505050565b600080604083850312156132af576132ae612dac565b5b60006132bd85828601613125565b92505060206132ce85828601613125565b9150509250929050565b600060208201905081810360008301526132f28184613221565b905092915050565b60006fffffffffffffffffffffffffffffffff82169050919050565b61331f816132fa565b811461332a57600080fd5b50565b60008135905061333c81613316565b92915050565b61334b816131b8565b811461335657600080fd5b50565b60008135905061336881613342565b92915050565b600080600080600060a0868803121561338a57613389612dac565b5b60006133988882890161332d565b95505060206133a98882890161332d565b94505060406133ba8882890161332d565b93505060606133cb88828901613359565b92505060806133dc88828901613359565b9150509295509295909350565b6133f281612f97565b81146133fd57600080fd5b50565b60008135905061340f816133e9565b92915050565b600080600080600060a0868803121561343157613430612dac565b5b600061343f88828901612ddb565b955050602061345088828901612e66565b945050604086013567ffffffffffffffff81111561347157613470612db1565b5b61347d888289016130e0565b935050606061348e88828901613400565b925050608086013567ffffffffffffffff8111156134af576134ae612db1565b5b6134bb888289016130e0565b9150509295509295909350565b60006020820190506134dd60008301846131a9565b92915050565b600080604083850312156134fa576134f9612dac565b5b600061350885828601612ddb565b925050602083013567ffffffffffffffff81111561352957613528612db1565b5b613535858286016130e0565b9150509250929050565b6000819050919050565b6135528161353f565b82525050565b600060608201905061356d60008301866131cc565b61357a60208301856131a9565b6135876040830184613549565b949350505050565b600080604083850312156135a6576135a5612dac565b5b60006135b485828601612ddb565b92505060206135c585828601612e66565b9150509250929050565b60006020820190506135e460008301846131cc565b92915050565b60006020820190506135ff6000830184612d6a565b92915050565b61360e816132fa565b82525050565b600060a0820190506136296000830188613605565b6136366020830187613605565b6136436040830186613605565b61365060608301856131cc565b61365d60808301846131cc565b9695505050505050565b60008060008060006060868803121561368357613682612dac565b5b600061369188828901612ddb565b955050602086013567ffffffffffffffff8111156136b2576136b1612db1565b5b6136be88828901612ee1565b9450945050604086013567ffffffffffffffff8111156136e1576136e0612db1565b5b6136ed88828901612ee1565b92509250509295509295909350565b60006020828403121561371257613711612dac565b5b600061372084828501613125565b91505092915050565b600080604083850312156137405761373f612dac565b5b600061374e85828601612e66565b925050602061375f85828601612e66565b9150509250929050565b60008060008060008060008060c0898b03121561378957613788612dac565b5b60006137978b828c01612ddb565b985050602089013567ffffffffffffffff8111156137b8576137b7612db1565b5b6137c48b828c01612ee1565b975097505060406137d78b828c01612e66565b95505060606137e88b828c01613359565b94505060806137f98b828c01613125565b93505060a089013567ffffffffffffffff81111561381a57613819612db1565b5b6138268b828c01612ee1565b92509250509295985092959890939650565b600061384382612e1d565b9050919050565b61385381613838565b811461385e57600080fd5b50565b6000813590506138708161384a565b92915050565b600080600080600080600060c0888a03121561389557613894612dac565b5b60006138a38a828b01612ddb565b975050602088013567ffffffffffffffff8111156138c4576138c3612db1565b5b6138d08a828b016130e0565b965050604088013567ffffffffffffffff8111156138f1576138f0612db1565b5b6138fd8a828b01612ee1565b955095505060606139108a828b01613861565b93505060806139218a828b01612e66565b92505060a088013567ffffffffffffffff81111561394257613941612db1565b5b61394e8a828b016130e0565b91505092959891949750929550565b6000806000806080858703121561397757613976612dac565b5b600061398587828801612ddb565b945050602061399687828801612ddb565b93505060406139a787828801613125565b925050606085013567ffffffffffffffff8111156139c8576139c7612db1565b5b6139d4878288016130e0565b91505092959194509250565b600080600080608085870312156139fa576139f9612dac565b5b6000613a0887828801612ddb565b9450506020613a1987828801612ddb565b9350506040613a2a87828801612e66565b9250506060613a3b87828801613125565b91505092959194509250565b600060208284031215613a5d57613a5c612dac565b5b600082013567ffffffffffffffff811115613a7b57613a7a612db1565b5b613a87848285016130e0565b91505092915050565b600081905092915050565b6000613aa78385613a90565b9350613ab483858461308f565b82840190509392505050565b6000613acd828486613a9b565b91508190509392505050565b7f4e487b7100000000000000000000000000000000000000000000000000000000600052602260045260246000fd5b60006002820490506001821680613b2057607f821691505b602082108103613b3357613b32613ad9565b5b50919050565b7f4e487b7100000000000000000000000000000000000000000000000000000000600052601160045260246000fd5b6000613b7382612d60565b9150613b7e83612d60565b9250828201905080821115613b9657613b95613b39565b5b92915050565b600082825260208201905092915050565b7f4c617965725a65726f4d6f636b3a206e6f2073746f726564207061796c6f6164600082015250565b6000613be3602083613b9c565b9150613bee82613bad565b602082019050919050565b60006020820190508181036000830152613c1281613bd6565b9050919050565b7f4c617965725a65726f4d6f636b3a20696e76616c69642063616c6c6572000000600082015250565b6000613c4f601d83613b9c565b9150613c5a82613c19565b602082019050919050565b60006020820190508181036000830152613c7e81613c42565b9050919050565b6000613c9183856131e6565b9350613c9e83858461308f565b613ca783612fd2565b840190509392505050565b6000604082019050613cc76000830186612ea8565b8181036020830152613cda818486613c85565b9050949350505050565b7f4c617965725a65726f4d6f636b3a20696e76616c6964207061796c6f61640000600082015250565b6000613d1a601e83613b9c565b9150613d2582613ce4565b602082019050919050565b60006020820190508181036000830152613d4981613d0d565b9050919050565b6000608082019050613d656000830189612ea8565b8181036020830152613d78818789613c85565b9050613d8760408301866131cc565b8181036060830152613d9a818486613c85565b9050979650505050505050565b6000608082019050613dbc6000830188612ea8565b8181036020830152613dcf818688613c85565b9050613dde60408301856131cc565b613deb60608301846131a9565b9695505050505050565b7f4c617965725a65726f4d6f636b3a206e6f2072656365697665207265656e747260008201527f616e637900000000000000000000000000000000000000000000000000000000602082015250565b6000613e51602483613b9c565b9150613e5c82613df5565b604082019050919050565b60006020820190508181036000830152613e8081613e44565b9050919050565b6000613e92826131b8565b915067ffffffffffffffff8203613eac57613eab613b39565b5b600182019050919050565b7f4c617965725a65726f4d6f636b3a2077726f6e67206e6f6e6365000000000000600082015250565b6000613eed601a83613b9c565b9150613ef882613eb7565b602082019050919050565b60006020820190508181036000830152613f1c81613ee0565b9050919050565b60008190508160005260206000209050919050565b60006020601f8301049050919050565b600082821b905092915050565b600060088302613f857fffffffffffffffffffffffffffffffffffffffffffffffffffffffffffffffff82613f48565b613f8f8683613f48565b95508019841693508086168417925050509392505050565b6000819050919050565b6000613fcc613fc7613fc284612d60565b613fa7565b612d60565b9050919050565b6000819050919050565b613fe683613fb1565b613ffa613ff282613fd3565b848454613f55565b825550505050565b600090565b61400f614002565b61401a818484613fdd565b505050565b5b8181101561403e57614033600082614007565b600181019050614020565b5050565b601f8211156140835761405481613f23565b61405d84613f38565b8101602085101561406c578190505b61408061407885613f38565b83018261401f565b50505b505050565b600082821c905092915050565b60006140a660001984600802614088565b1980831691505092915050565b60006140bf8383614095565b9150826002028217905092915050565b6140d8826131db565b67ffffffffffffffff8111156140f1576140f0612fe3565b5b6140fb8254613b08565b614106828285614042565b600060209050601f8311600181146141395760008415614127578287015190505b61413185826140b3565b865550614199565b601f19841661414786613f23565b60005b8281101561416f5784890151825560018201915060208501945060208101905061414a565b8683101561418c5784890151614188601f891682614095565b8355505b6001600288020188555050505b505050505050565b60006141ac82612d60565b91506141b783612d60565b92508282039050818111156141cf576141ce613b39565b5b92915050565b7f4e487b7100000000000000000000000000000000000000000000000000000000600052603260045260246000fd5b60008154905061421381613b08565b9050919050565b818103614228575050614300565b61423182614204565b67ffffffffffffffff81111561424a57614249612fe3565b5b6142548254613b08565b61425f828285614042565b6000601f83116001811461428e576000841561427c578287015490505b61428685826140b3565b8655506142f9565b601f19841661429c87613f23565b96506142a786613f23565b60005b828110156142cf578489015482556001820191506001850194506020810190506142aa565b868310156142ec57848901546142e8601f891682614095565b8355505b6001600288020188555050505b5050505050505b565b600061430d82612d60565b91507fffffffffffffffffffffffffffffffffffffffffffffffffffffffffffffffff820361433f5761433e613b39565b5b600182019050919050565b600060c08201905061435f600083018b612ea8565b818103602083015261437281898b613c85565b905061438160408301886131a9565b61438e60608301876131cc565b81810360808301526143a1818587613c85565b905081810360a08301526143b58184613221565b90509998505050505050505050565b7f4c617965725a65726f4d6f636b3a206e6f2073656e64207265656e7472616e6360008201527f7900000000000000000000000000000000000000000000000000000000000000602082015250565b6000614420602183613b9c565b915061442b826143c4565b604082019050919050565b6000602082019050818103600083015261444f81614413565b9050919050565b7f4c617965725a65726f4d6f636b3a20696e636f72726563742072656d6f74652060008201527f616464726573732073697a650000000000000000000000000000000000000000602082015250565b60006144b2602c83613b9c565b91506144bd82614456565b604082019050919050565b600060208201905081810360008301526144e1816144a5565b9050919050565b7f4c617965725a65726f4d6f636b3a2064657374696e6174696f6e204c6179657260008201527f5a65726f20456e64706f696e74206e6f7420666f756e64000000000000000000602082015250565b6000614544603783613b9c565b915061454f826144e8565b604082019050919050565b6000602082019050818103600083015261457381614537565b9050919050565b7f4c617965725a65726f4d6f636b3a206e6f7420656e6f756768206e617469766560008201527f20666f7220666565730000000000000000000000000000000000000000000000602082015250565b60006145d6602983613b9c565b91506145e18261457a565b604082019050919050565b60006020820190508181036000830152614605816145c9565b9050919050565b50565b600061461c600083613a90565b91506146278261460c565b600082019050919050565b600061463d8261460f565b9150819050919050565b7f4c617965725a65726f4d6f636b3a206661696c656420746f20726566756e6400600082015250565b600061467d601f83613b9c565b915061468882614647565b602082019050919050565b600060208201905081810360008301526146ac81614670565b9050919050565b60008160601b9050919050565b60006146cb826146b3565b9050919050565b60006146dd826146c0565b9050919050565b6146f56146f082612e3d565b6146d2565b82525050565b600061470782856146e4565b60148201915061471782846146e4565b6014820191508190509392505050565b600060c08201905061473c6000830189612ea8565b818103602083015261474e8188613221565b905061475d60408301876131a9565b61476a60608301866131cc565b6147776080830185612d6a565b81810360a08301526147898184613221565b9050979650505050505050565b7f4c617965725a65726f4d6f636b3a206473744e6174697665416d7420746f6f2060008201527f6c61726765200000000000000000000000000000000000000000000000000000602082015250565b60006147f2602683613b9c565b91506147fd82614796565b604082019050919050565b60006020820190508181036000830152614821816147e5565b9050919050565b600061483382612d60565b915061483e83612d60565b925082820261484c81612d60565b9150828204841483151761486357614862613b39565b5b5092915050565b7f4e487b7100000000000000000000000000000000000000000000000000000000600052601260045260246000fd5b60006148a482612d60565b91506148af83612d60565b9250826148bf576148be61486a565b5b828204905092915050565b60006148d5826132fa565b91506148e0836132fa565b92508282026148ee816132fa565b9150808214614900576148ff613b39565b5b5092915050565b6000614912826132fa565b915061491d836132fa565b92508261492d5761492c61486a565b5b828204905092915050565b600060808201905061494d6000830188612ea8565b8181036020830152614960818688613c85565b905061496f60408301856131cc565b81810360608301526149818184613221565b90509695505050505050565b7f4e487b7100000000000000000000000000000000000000000000000000000000600052603160045260246000fd5b7f496e76616c69642061646170746572506172616d730000000000000000000000600082015250565b60006149f2601583613b9c565b91506149fd826149bc565b602082019050919050565b60006020820190508181036000830152614a21816149e5565b9050919050565b7f556e737570706f72746564207478547970650000000000000000000000000000600082015250565b6000614a5e601283613b9c565b9150614a6982614a28565b602082019050919050565b60006020820190508181036000830152614a8d81614a51565b9050919050565b7f47617320746f6f206c6f77000000000000000000000000000000000000000000600082015250565b6000614aca600b83613b9c565b9150614ad582614a94565b602082019050919050565b60006020820190508181036000830152614af981614abd565b905091905056fea2646970667358221220e031008d73404c03083c645b7e26de61e5d4b9829c157d36991e9bbb467f1c2a64736f6c63430008140033",
  "linkReferences": {},
  "deployedLinkReferences": {}
}