{
  "_format": "hh-sol-artifact-1",
  "contractName": "InchainAtomicSwap",
  "sourceName": "contracts/inchain_atomicswap/InchainAtomicSwap.sol",
  "abi": [
    {
      "inputs": [],
      "name": "AccessControlBadConfirmation",
      "type": "error"
    },
    {
      "inputs": [
        {
          "internalType": "address",
          "name": "account",
          "type": "address"
        },
        {
          "internalType": "bytes32",
          "name": "neededRole",
          "type": "bytes32"
        }
      ],
      "name": "AccessControlUnauthorizedAccount",
      "type": "error"
    },
    {
      "inputs": [
        {
          "internalType": "uint256",
          "name": "provided",
          "type": "uint256"
        },
        {
          "internalType": "uint256",
          "name": "expectedExpiry",
          "type": "uint256"
        }
      ],
      "name": "BidAlreadyExpired",
      "type": "error"
    },
    {
      "inputs": [],
      "name": "BidAlreadyPlaced",
      "type": "error"
    },
    {
      "inputs": [],
      "name": "BidDoesNotExist",
      "type": "error"
    },
    {
      "inputs": [],
      "name": "BidNotAllowed",
      "type": "error"
    },
    {
      "inputs": [
        {
          "internalType": "enum IAtomicSwapBase.BidStatus",
          "name": "status",
          "type": "uint8"
        }
      ],
      "name": "BidNotInPlacedStatus",
      "type": "error"
    },
    {
      "inputs": [],
      "name": "DuplicateReleaseSchedule",
      "type": "error"
    },
    {
      "inputs": [],
      "name": "EnforcedPause",
      "type": "error"
    },
    {
      "inputs": [],
      "name": "ExpectedPause",
      "type": "error"
    },
    {
      "inputs": [],
      "name": "InactiveOrder",
      "type": "error"
    },
    {
      "inputs": [],
      "name": "InvaldAddition",
      "type": "error"
    },
    {
      "inputs": [],
      "name": "InvalidAddress",
      "type": "error"
    },
    {
      "inputs": [],
      "name": "InvalidBidderAddress",
      "type": "error"
    },
    {
      "inputs": [],
      "name": "InvalidBuyerFee",
      "type": "error"
    },
    {
      "inputs": [
        {
          "internalType": "address",
          "name": "contractAddress",
          "type": "address"
        }
      ],
      "name": "InvalidContractAddress",
      "type": "error"
    },
    {
      "inputs": [
        {
          "internalType": "uint256",
          "name": "provided",
          "type": "uint256"
        },
        {
          "internalType": "uint256",
          "name": "maximum",
          "type": "uint256"
        }
      ],
      "name": "InvalidExpirationTime",
      "type": "error"
    },
    {
      "inputs": [],
      "name": "InvalidInitialization",
      "type": "error"
    },
    {
      "inputs": [],
      "name": "InvalidMinimumBidLimit",
      "type": "error"
    },
    {
      "inputs": [],
      "name": "InvalidReleasePercentage",
      "type": "error"
    },
    {
      "inputs": [],
      "name": "InvalidSellerFee",
      "type": "error"
    },
    {
      "inputs": [],
      "name": "InvalidTotalPercentage",
      "type": "error"
    },
    {
      "inputs": [],
      "name": "InvalidTreasuryAddress",
      "type": "error"
    },
    {
      "inputs": [
        {
          "internalType": "uint256",
          "name": "amount",
          "type": "uint256"
        }
      ],
      "name": "MismatchedBidAmount",
      "type": "error"
    },
    {
      "inputs": [],
      "name": "NoBidPlaced",
      "type": "error"
    },
    {
      "inputs": [
        {
          "internalType": "uint256",
          "name": "amount",
          "type": "uint256"
        },
        {
          "internalType": "uint256",
          "name": "allowance",
          "type": "uint256"
        }
      ],
      "name": "NotAllowedTransferAmount",
      "type": "error"
    },
    {
      "inputs": [
        {
          "internalType": "uint256",
          "name": "real",
          "type": "uint256"
        },
        {
          "internalType": "uint256",
          "name": "expected",
          "type": "uint256"
        }
      ],
      "name": "NotEnoughFund",
      "type": "error"
    },
    {
      "inputs": [],
      "name": "NotInitializing",
      "type": "error"
    },
    {
      "inputs": [],
      "name": "OrderAlreadyExists",
      "type": "error"
    },
    {
      "inputs": [
        {
          "internalType": "uint256",
          "name": "current",
          "type": "uint256"
        },
        {
          "internalType": "uint256",
          "name": "expiredTime",
          "type": "uint256"
        }
      ],
      "name": "OrderAlreadyExpired",
      "type": "error"
    },
    {
      "inputs": [],
      "name": "OrderCanceled",
      "type": "error"
    },
    {
      "inputs": [],
      "name": "OrderDoesNotExist",
      "type": "error"
    },
    {
      "inputs": [],
      "name": "OrderNotAllowTake",
      "type": "error"
    },
    {
      "inputs": [],
      "name": "OverMaximumReleaseStep",
      "type": "error"
    },
    {
      "inputs": [],
      "name": "ReentrancyGuardReentrantCall",
      "type": "error"
    },
    {
      "inputs": [
        {
          "internalType": "address",
          "name": "to",
          "type": "address"
        },
        {
          "internalType": "uint256",
          "name": "amount",
          "type": "uint256"
        }
      ],
      "name": "TransferFailed",
      "type": "error"
    },
    {
      "inputs": [
        {
          "internalType": "address",
          "name": "from",
          "type": "address"
        },
        {
          "internalType": "address",
          "name": "to",
          "type": "address"
        },
        {
          "internalType": "uint256",
          "name": "amount",
          "type": "uint256"
        }
      ],
      "name": "TransferFromFailed",
      "type": "error"
    },
    {
      "inputs": [
        {
          "internalType": "address",
          "name": "recipient",
          "type": "address"
        },
        {
          "internalType": "uint256",
          "name": "amount",
          "type": "uint256"
        }
      ],
      "name": "TransferToRecipientFailed",
      "type": "error"
    },
    {
      "inputs": [
        {
          "internalType": "address",
          "name": "recipient",
          "type": "address"
        },
        {
          "internalType": "uint256",
          "name": "amount",
          "type": "uint256"
        }
      ],
      "name": "TransferToTreasuryFailed",
      "type": "error"
    },
    {
      "inputs": [
        {
          "internalType": "address",
          "name": "caller",
          "type": "address"
        },
        {
          "internalType": "address",
          "name": "expected",
          "type": "address"
        }
      ],
      "name": "UnauthorizedAcceptAction",
      "type": "error"
    },
    {
      "inputs": [],
      "name": "UnauthorizedCancelAction",
      "type": "error"
    },
    {
      "inputs": [],
      "name": "UnauthorizedSender",
      "type": "error"
    },
    {
      "inputs": [],
      "name": "UnauthorizedTakeAction",
      "type": "error"
    },
    {
      "inputs": [],
      "name": "UnsupportedTokenPair",
      "type": "error"
    },
    {
      "inputs": [],
      "name": "ZeroReleaseSchedule",
      "type": "error"
    },
    {
      "anonymous": false,
      "inputs": [
        {
          "indexed": true,
          "internalType": "bytes32",
          "name": "orderID",
          "type": "bytes32"
        },
        {
          "indexed": true,
          "internalType": "address",
          "name": "bidder",
          "type": "address"
        },
        {
          "indexed": true,
          "internalType": "uint256",
          "name": "amount",
          "type": "uint256"
        }
      ],
      "name": "AcceptedBid",
      "type": "event"
    },
    {
      "anonymous": false,
      "inputs": [
        {
          "indexed": true,
          "internalType": "bytes32",
          "name": "id",
          "type": "bytes32"
        }
      ],
      "name": "AtomicSwapOrderCanceled",
      "type": "event"
    },
    {
      "anonymous": false,
      "inputs": [
        {
          "indexed": true,
          "internalType": "bytes32",
          "name": "id",
          "type": "bytes32"
        }
      ],
      "name": "AtomicSwapOrderCreated",
      "type": "event"
    },
    {
      "anonymous": false,
      "inputs": [
        {
          "indexed": true,
          "internalType": "address",
          "name": "maker",
          "type": "address"
        },
        {
          "indexed": true,
          "internalType": "address",
          "name": "taker",
          "type": "address"
        },
        {
          "indexed": true,
          "internalType": "bytes32",
          "name": "id",
          "type": "bytes32"
        }
      ],
      "name": "AtomicSwapOrderTook",
      "type": "event"
    },
    {
      "anonymous": false,
      "inputs": [
        {
          "indexed": true,
          "internalType": "bytes32",
          "name": "orderID",
          "type": "bytes32"
        },
        {
          "indexed": true,
          "internalType": "address",
          "name": "bidder",
          "type": "address"
        }
      ],
      "name": "CanceledBid",
      "type": "event"
    },
    {
      "anonymous": false,
      "inputs": [
        {
          "indexed": false,
          "internalType": "uint64",
          "name": "version",
          "type": "uint64"
        }
      ],
      "name": "Initialized",
      "type": "event"
    },
    {
      "anonymous": false,
      "inputs": [
        {
          "indexed": false,
          "internalType": "address",
          "name": "account",
          "type": "address"
        }
      ],
      "name": "Paused",
      "type": "event"
    },
    {
      "anonymous": false,
      "inputs": [
        {
          "indexed": true,
          "internalType": "bytes32",
          "name": "orderID",
          "type": "bytes32"
        },
        {
          "indexed": true,
          "internalType": "address",
          "name": "bidder",
          "type": "address"
        },
        {
          "indexed": true,
          "internalType": "uint256",
          "name": "amount",
          "type": "uint256"
        }
      ],
      "name": "PlacedBid",
      "type": "event"
    },
    {
      "anonymous": false,
      "inputs": [
        {
          "indexed": true,
          "internalType": "bytes32",
          "name": "role",
          "type": "bytes32"
        },
        {
          "indexed": true,
          "internalType": "bytes32",
          "name": "previousAdminRole",
          "type": "bytes32"
        },
        {
          "indexed": true,
          "internalType": "bytes32",
          "name": "newAdminRole",
          "type": "bytes32"
        }
      ],
      "name": "RoleAdminChanged",
      "type": "event"
    },
    {
      "anonymous": false,
      "inputs": [
        {
          "indexed": true,
          "internalType": "bytes32",
          "name": "role",
          "type": "bytes32"
        },
        {
          "indexed": true,
          "internalType": "address",
          "name": "account",
          "type": "address"
        },
        {
          "indexed": true,
          "internalType": "address",
          "name": "sender",
          "type": "address"
        }
      ],
      "name": "RoleGranted",
      "type": "event"
    },
    {
      "anonymous": false,
      "inputs": [
        {
          "indexed": true,
          "internalType": "bytes32",
          "name": "role",
          "type": "bytes32"
        },
        {
          "indexed": true,
          "internalType": "address",
          "name": "account",
          "type": "address"
        },
        {
          "indexed": true,
          "internalType": "address",
          "name": "sender",
          "type": "address"
        }
      ],
      "name": "RoleRevoked",
      "type": "event"
    },
    {
      "anonymous": false,
      "inputs": [
        {
          "indexed": false,
          "internalType": "address",
          "name": "account",
          "type": "address"
        }
      ],
      "name": "Unpaused",
      "type": "event"
    },
    {
      "anonymous": false,
      "inputs": [
        {
          "indexed": true,
          "internalType": "bytes32",
          "name": "orderID",
          "type": "bytes32"
        },
        {
          "indexed": true,
          "internalType": "address",
          "name": "bidder",
          "type": "address"
        },
        {
          "indexed": true,
          "internalType": "uint256",
          "name": "amount",
          "type": "uint256"
        }
      ],
      "name": "UpdatedBid",
      "type": "event"
    },
    {
      "inputs": [],
      "name": "DEFAULT_ADMIN_ROLE",
      "outputs": [
        {
          "internalType": "bytes32",
          "name": "",
          "type": "bytes32"
        }
      ],
      "stateMutability": "view",
      "type": "function"
    },
    {
      "inputs": [],
      "name": "PAUSER_ROLE",
      "outputs": [
        {
          "internalType": "bytes32",
          "name": "",
          "type": "bytes32"
        }
      ],
      "stateMutability": "view",
      "type": "function"
    },
    {
      "inputs": [
        {
          "components": [
            {
              "internalType": "bytes32",
              "name": "orderID",
              "type": "bytes32"
            },
            {
              "internalType": "address",
              "name": "bidder",
              "type": "address"
            }
          ],
          "internalType": "struct IAtomicSwapBase.AcceptBidMsg",
          "name": "acceptBidMsg",
          "type": "tuple"
        }
      ],
      "name": "acceptBid",
      "outputs": [],
      "stateMutability": "payable",
      "type": "function"
    },
    {
      "inputs": [
        {
          "internalType": "address",
          "name": "_account",
          "type": "address"
        }
      ],
      "name": "addAdmin",
      "outputs": [],
      "stateMutability": "nonpayable",
      "type": "function"
    },
    {
      "inputs": [
        {
          "internalType": "address",
          "name": "_account",
          "type": "address"
        }
      ],
      "name": "addPauser",
      "outputs": [],
      "stateMutability": "nonpayable",
      "type": "function"
    },
    {
      "inputs": [
        {
          "internalType": "bytes32",
          "name": "",
          "type": "bytes32"
        },
        {
          "internalType": "address",
          "name": "",
          "type": "address"
        }
      ],
      "name": "bids",
      "outputs": [
        {
          "internalType": "uint256",
          "name": "amount",
          "type": "uint256"
        },
        {
          "internalType": "bytes32",
          "name": "order",
          "type": "bytes32"
        },
        {
          "internalType": "enum IAtomicSwapBase.BidStatus",
          "name": "status",
          "type": "uint8"
        },
        {
          "internalType": "address",
          "name": "bidder",
          "type": "address"
        },
        {
          "internalType": "uint256",
          "name": "receiveTimestamp",
          "type": "uint256"
        },
        {
          "internalType": "uint256",
          "name": "expireTimestamp",
          "type": "uint256"
        }
      ],
      "stateMutability": "view",
      "type": "function"
    },
    {
      "inputs": [],
      "name": "buyerFeeRate",
      "outputs": [
        {
          "internalType": "uint256",
          "name": "",
          "type": "uint256"
        }
      ],
      "stateMutability": "view",
      "type": "function"
    },
    {
      "inputs": [
        {
          "internalType": "bytes32",
          "name": "orderID",
          "type": "bytes32"
        }
      ],
      "name": "cancelBid",
      "outputs": [],
      "stateMutability": "payable",
      "type": "function"
    },
    {
      "inputs": [
        {
          "components": [
            {
              "internalType": "bytes32",
              "name": "orderID",
              "type": "bytes32"
            }
          ],
          "internalType": "struct IAtomicSwapBase.CancelSwapMsg",
          "name": "cancelswap",
          "type": "tuple"
        }
      ],
      "name": "cancelSwap",
      "outputs": [],
      "stateMutability": "payable",
      "type": "function"
    },
    {
      "inputs": [
        {
          "internalType": "bytes32",
          "name": "",
          "type": "bytes32"
        },
        {
          "internalType": "address",
          "name": "",
          "type": "address"
        }
      ],
      "name": "counteroffers",
      "outputs": [
        {
          "internalType": "uint256",
          "name": "",
          "type": "uint256"
        }
      ],
      "stateMutability": "view",
      "type": "function"
    },
    {
      "inputs": [
        {
          "components": [
            {
              "internalType": "bytes32",
              "name": "uuid",
              "type": "bytes32"
            },
            {
              "components": [
                {
                  "internalType": "address",
                  "name": "token",
                  "type": "address"
                },
                {
                  "internalType": "uint256",
                  "name": "amount",
                  "type": "uint256"
                }
              ],
              "internalType": "struct IAtomicSwapBase.Coin",
              "name": "sellToken",
              "type": "tuple"
            },
            {
              "components": [
                {
                  "internalType": "address",
                  "name": "token",
                  "type": "address"
                },
                {
                  "internalType": "uint256",
                  "name": "amount",
                  "type": "uint256"
                }
              ],
              "internalType": "struct IAtomicSwapBase.Coin",
              "name": "buyToken",
              "type": "tuple"
            },
            {
              "internalType": "address",
              "name": "desiredTaker",
              "type": "address"
            },
            {
              "internalType": "uint256",
              "name": "minBidAmount",
              "type": "uint256"
            },
            {
              "internalType": "bool",
              "name": "acceptBid",
              "type": "bool"
            },
            {
              "internalType": "bytes",
              "name": "makerPermitSignature",
              "type": "bytes"
            },
            {
              "internalType": "bytes",
              "name": "takerPermitSignature",
              "type": "bytes"
            }
          ],
          "internalType": "struct IAtomicSwapBase.SwapWithPermitMsg",
          "name": "swap",
          "type": "tuple"
        },
        {
          "components": [
            {
              "internalType": "uint256",
              "name": "durationInHours",
              "type": "uint256"
            },
            {
              "internalType": "uint256",
              "name": "percentage",
              "type": "uint256"
            }
          ],
          "internalType": "struct IAtomicSwapBase.Release[]",
          "name": "releases",
          "type": "tuple[]"
        }
      ],
      "name": "executeSwapWithPermit",
      "outputs": [],
      "stateMutability": "nonpayable",
      "type": "function"
    },
    {
      "inputs": [
        {
          "internalType": "bytes32",
          "name": "role",
          "type": "bytes32"
        }
      ],
      "name": "getRoleAdmin",
      "outputs": [
        {
          "internalType": "bytes32",
          "name": "",
          "type": "bytes32"
        }
      ],
      "stateMutability": "view",
      "type": "function"
    },
    {
      "inputs": [
        {
          "internalType": "bytes32",
          "name": "role",
          "type": "bytes32"
        },
        {
          "internalType": "address",
          "name": "account",
          "type": "address"
        }
      ],
      "name": "grantRole",
      "outputs": [],
      "stateMutability": "nonpayable",
      "type": "function"
    },
    {
      "inputs": [
        {
          "internalType": "bytes32",
          "name": "role",
          "type": "bytes32"
        },
        {
          "internalType": "address",
          "name": "account",
          "type": "address"
        }
      ],
      "name": "hasRole",
      "outputs": [
        {
          "internalType": "bool",
          "name": "",
          "type": "bool"
        }
      ],
      "stateMutability": "view",
      "type": "function"
    },
    {
      "inputs": [
        {
          "internalType": "address",
          "name": "_admin",
          "type": "address"
        },
        {
          "internalType": "address",
          "name": "_vestingManager",
          "type": "address"
        },
        {
          "internalType": "address",
          "name": "_treasury",
          "type": "address"
        },
        {
          "internalType": "uint256",
          "name": "_sellerFee",
          "type": "uint256"
        },
        {
          "internalType": "uint256",
          "name": "_buyerFee",
          "type": "uint256"
        }
      ],
      "name": "initialize",
      "outputs": [],
      "stateMutability": "nonpayable",
      "type": "function"
    },
    {
      "inputs": [
        {
          "internalType": "address",
          "name": "_account",
          "type": "address"
        }
      ],
      "name": "isAdmin",
      "outputs": [
        {
          "internalType": "bool",
          "name": "",
          "type": "bool"
        }
      ],
      "stateMutability": "view",
      "type": "function"
    },
    {
      "inputs": [
        {
          "internalType": "address",
          "name": "_account",
          "type": "address"
        }
      ],
      "name": "isPauser",
      "outputs": [
        {
          "internalType": "bool",
          "name": "",
          "type": "bool"
        }
      ],
      "stateMutability": "view",
      "type": "function"
    },
    {
      "inputs": [
        {
          "components": [
            {
              "internalType": "bytes32",
              "name": "uuid",
              "type": "bytes32"
            },
            {
              "components": [
                {
                  "internalType": "address",
                  "name": "token",
                  "type": "address"
                },
                {
                  "internalType": "uint256",
                  "name": "amount",
                  "type": "uint256"
                }
              ],
              "internalType": "struct IAtomicSwapBase.Coin",
              "name": "sellToken",
              "type": "tuple"
            },
            {
              "components": [
                {
                  "internalType": "address",
                  "name": "token",
                  "type": "address"
                },
                {
                  "internalType": "uint256",
                  "name": "amount",
                  "type": "uint256"
                }
              ],
              "internalType": "struct IAtomicSwapBase.Coin",
              "name": "buyToken",
              "type": "tuple"
            },
            {
              "internalType": "address",
              "name": "maker",
              "type": "address"
            },
            {
              "internalType": "address",
              "name": "desiredTaker",
              "type": "address"
            },
            {
              "internalType": "uint256",
              "name": "minBidAmount",
              "type": "uint256"
            },
            {
              "internalType": "uint256",
              "name": "expireAt",
              "type": "uint256"
            },
            {
              "internalType": "bool",
              "name": "acceptBid",
              "type": "bool"
            }
          ],
          "internalType": "struct IAtomicSwapBase.MakeSwapMsg",
          "name": "makeswap",
          "type": "tuple"
        }
      ],
      "name": "makeSwap",
      "outputs": [
        {
          "internalType": "bytes32",
          "name": "id",
          "type": "bytes32"
        }
      ],
      "stateMutability": "payable",
      "type": "function"
    },
    {
      "inputs": [
        {
          "components": [
            {
              "internalType": "bytes32",
              "name": "uuid",
              "type": "bytes32"
            },
            {
              "components": [
                {
                  "internalType": "address",
                  "name": "token",
                  "type": "address"
                },
                {
                  "internalType": "uint256",
                  "name": "amount",
                  "type": "uint256"
                }
              ],
              "internalType": "struct IAtomicSwapBase.Coin",
              "name": "sellToken",
              "type": "tuple"
            },
            {
              "components": [
                {
                  "internalType": "address",
                  "name": "token",
                  "type": "address"
                },
                {
                  "internalType": "uint256",
                  "name": "amount",
                  "type": "uint256"
                }
              ],
              "internalType": "struct IAtomicSwapBase.Coin",
              "name": "buyToken",
              "type": "tuple"
            },
            {
              "internalType": "address",
              "name": "maker",
              "type": "address"
            },
            {
              "internalType": "address",
              "name": "desiredTaker",
              "type": "address"
            },
            {
              "internalType": "uint256",
              "name": "minBidAmount",
              "type": "uint256"
            },
            {
              "internalType": "uint256",
              "name": "expireAt",
              "type": "uint256"
            },
            {
              "internalType": "bool",
              "name": "acceptBid",
              "type": "bool"
            }
          ],
          "internalType": "struct IAtomicSwapBase.MakeSwapMsg",
          "name": "makeswap",
          "type": "tuple"
        },
        {
          "components": [
            {
              "internalType": "uint256",
              "name": "durationInHours",
              "type": "uint256"
            },
            {
              "internalType": "uint256",
              "name": "percentage",
              "type": "uint256"
            }
          ],
          "internalType": "struct IAtomicSwapBase.Release[]",
          "name": "releases",
          "type": "tuple[]"
        }
      ],
      "name": "makeSwapWithVesting",
      "outputs": [
        {
          "internalType": "bytes32",
          "name": "orderId",
          "type": "bytes32"
        }
      ],
      "stateMutability": "payable",
      "type": "function"
    },
    {
      "inputs": [],
      "name": "paginationSize",
      "outputs": [
        {
          "internalType": "uint256",
          "name": "",
          "type": "uint256"
        }
      ],
      "stateMutability": "view",
      "type": "function"
    },
    {
      "inputs": [],
      "name": "pause",
      "outputs": [],
      "stateMutability": "nonpayable",
      "type": "function"
    },
    {
      "inputs": [],
      "name": "paused",
      "outputs": [
        {
          "internalType": "bool",
          "name": "",
          "type": "bool"
        }
      ],
      "stateMutability": "view",
      "type": "function"
    },
    {
      "inputs": [
        {
          "components": [
            {
              "internalType": "uint256",
              "name": "bidAmount",
              "type": "uint256"
            },
            {
              "internalType": "address",
              "name": "bidder",
              "type": "address"
            },
            {
              "internalType": "bytes32",
              "name": "orderID",
              "type": "bytes32"
            },
            {
              "internalType": "uint256",
              "name": "expireTimestamp",
              "type": "uint256"
            }
          ],
          "internalType": "struct IAtomicSwapBase.PlaceBidMsg",
          "name": "placeBidMsg",
          "type": "tuple"
        }
      ],
      "name": "placeBid",
      "outputs": [],
      "stateMutability": "payable",
      "type": "function"
    },
    {
      "inputs": [
        {
          "internalType": "address",
          "name": "_account",
          "type": "address"
        }
      ],
      "name": "removeAdmin",
      "outputs": [],
      "stateMutability": "nonpayable",
      "type": "function"
    },
    {
      "inputs": [
        {
          "internalType": "address",
          "name": "_account",
          "type": "address"
        }
      ],
      "name": "removePauser",
      "outputs": [],
      "stateMutability": "nonpayable",
      "type": "function"
    },
    {
      "inputs": [
        {
          "internalType": "bytes32",
          "name": "role",
          "type": "bytes32"
        },
        {
          "internalType": "address",
          "name": "callerConfirmation",
          "type": "address"
        }
      ],
      "name": "renounceRole",
      "outputs": [],
      "stateMutability": "nonpayable",
      "type": "function"
    },
    {
      "inputs": [
        {
          "internalType": "bytes32",
          "name": "role",
          "type": "bytes32"
        },
        {
          "internalType": "address",
          "name": "account",
          "type": "address"
        }
      ],
      "name": "revokeRole",
      "outputs": [],
      "stateMutability": "nonpayable",
      "type": "function"
    },
    {
      "inputs": [],
      "name": "sellerFeeRate",
      "outputs": [
        {
          "internalType": "uint256",
          "name": "",
          "type": "uint256"
        }
      ],
      "stateMutability": "view",
      "type": "function"
    },
    {
      "inputs": [
        {
          "internalType": "uint256",
          "name": "_paginationSize",
          "type": "uint256"
        }
      ],
      "name": "setPaginationSize",
      "outputs": [],
      "stateMutability": "nonpayable",
      "type": "function"
    },
    {
      "inputs": [
        {
          "internalType": "bytes4",
          "name": "interfaceId",
          "type": "bytes4"
        }
      ],
      "name": "supportsInterface",
      "outputs": [
        {
          "internalType": "bool",
          "name": "",
          "type": "bool"
        }
      ],
      "stateMutability": "view",
      "type": "function"
    },
    {
      "inputs": [
        {
          "internalType": "bytes32",
          "name": "",
          "type": "bytes32"
        }
      ],
      "name": "swapOrder",
      "outputs": [
        {
          "internalType": "bytes32",
          "name": "id",
          "type": "bytes32"
        },
        {
          "internalType": "enum IAtomicSwapBase.OrderStatus",
          "name": "status",
          "type": "uint8"
        },
        {
          "internalType": "address",
          "name": "maker",
          "type": "address"
        },
        {
          "components": [
            {
              "internalType": "address",
              "name": "token",
              "type": "address"
            },
            {
              "internalType": "uint256",
              "name": "amount",
              "type": "uint256"
            }
          ],
          "internalType": "struct IAtomicSwapBase.Coin",
          "name": "sellToken",
          "type": "tuple"
        },
        {
          "internalType": "address",
          "name": "taker",
          "type": "address"
        },
        {
          "components": [
            {
              "internalType": "address",
              "name": "token",
              "type": "address"
            },
            {
              "internalType": "uint256",
              "name": "amount",
              "type": "uint256"
            }
          ],
          "internalType": "struct IAtomicSwapBase.Coin",
          "name": "buyToken",
          "type": "tuple"
        },
        {
          "internalType": "uint256",
          "name": "minBidAmount",
          "type": "uint256"
        },
        {
          "internalType": "uint256",
          "name": "createdAt",
          "type": "uint256"
        },
        {
          "internalType": "uint256",
          "name": "canceledAt",
          "type": "uint256"
        },
        {
          "internalType": "uint256",
          "name": "completedAt",
          "type": "uint256"
        },
        {
          "internalType": "uint256",
          "name": "expiredAt",
          "type": "uint256"
        },
        {
          "internalType": "bool",
          "name": "acceptBid",
          "type": "bool"
        }
      ],
      "stateMutability": "view",
      "type": "function"
    },
    {
      "inputs": [
        {
          "internalType": "bytes32",
          "name": "",
          "type": "bytes32"
        },
        {
          "internalType": "uint256",
          "name": "",
          "type": "uint256"
        }
      ],
      "name": "swapOrderVestingParams",
      "outputs": [
        {
          "internalType": "uint256",
          "name": "durationInHours",
          "type": "uint256"
        },
        {
          "internalType": "uint256",
          "name": "percentage",
          "type": "uint256"
        }
      ],
      "stateMutability": "view",
      "type": "function"
    },
    {
      "inputs": [
        {
          "components": [
            {
              "internalType": "bytes32",
              "name": "orderID",
              "type": "bytes32"
            },
            {
              "internalType": "address",
              "name": "takerReceiver",
              "type": "address"
            }
          ],
          "internalType": "struct IAtomicSwapBase.TakeSwapMsg",
          "name": "takeswap",
          "type": "tuple"
        }
      ],
      "name": "takeSwap",
      "outputs": [],
      "stateMutability": "payable",
      "type": "function"
    },
    {
      "inputs": [],
      "name": "unpause",
      "outputs": [],
      "stateMutability": "nonpayable",
      "type": "function"
    },
    {
      "inputs": [
        {
          "components": [
            {
              "internalType": "bytes32",
              "name": "orderID",
              "type": "bytes32"
            },
            {
              "internalType": "address",
              "name": "bidder",
              "type": "address"
            },
            {
              "internalType": "uint256",
              "name": "addition",
              "type": "uint256"
            }
          ],
          "internalType": "struct IAtomicSwapBase.UpdateBidMsg",
          "name": "updateBidMsg",
          "type": "tuple"
        }
      ],
      "name": "updateBid",
      "outputs": [],
      "stateMutability": "payable",
      "type": "function"
    }
  ],
  "bytecode": "0x608060405234801561001057600080fd5b50614740806100206000396000f3fe6080604052600436106102045760003560e01c806366e929bf11610118578063a217fddf116100a0578063d547741f1161006f578063d547741f14610730578063df7cec2814610759578063e63ab1e914610775578063f2407ca4146107a0578063fca6caa1146107c957610204565b8063a217fddf1461066f578063a6b63eb81461069a578063a743a3d0146106c3578063d2a252831461070057610204565b806382dc1ec4116100e757806382dc1ec4146105895780638456cb59146105b257806389f68190146105c95780638d6cb1c4146105f457806391d148541461063257610204565b806366e929bf146104cc5780636b2c0f551461050e578063704802751461053757806374be6a9e1461056057610204565b80632f2ff15d1161019b5780633d9bd2fc1161016a5780633d9bd2fc146104065780633f4ba83a1461042257806346fbf68e1461043957806353f10c80146104765780635c975abb146104a157610204565b80632f2ff15d1461036d57806336568abe1461039657806337be0022146103bf5780633d538ecf146103db57610204565b80631785f53c116101d75780631785f53c1461029a578063248a9ca3146102c357806324d7806c146103005780632b2b65111461033d57610204565b806301ffc9a714610209578063022066611461024657806306be619c1461026257806316b50a821461027e575b600080fd5b34801561021557600080fd5b50610230600480360381019061022b9190612d5e565b610811565b60405161023d9190612da6565b60405180910390f35b610260600480360381019061025b9190612de5565b61088b565b005b61027c60048036038101906102779190612e31565b610af7565b005b61029860048036038101906102939190612e7d565b610dd5565b005b3480156102a657600080fd5b506102c160048036038101906102bc9190612f08565b610fd5565b005b3480156102cf57600080fd5b506102ea60048036038101906102e59190612f6b565b610fe5565b6040516102f79190612fa7565b60405180910390f35b34801561030c57600080fd5b5061032760048036038101906103229190612f08565b611013565b6040516103349190612da6565b60405180910390f35b61035760048036038101906103529190613047565b611029565b6040516103649190612fa7565b60405180910390f35b34801561037957600080fd5b50610394600480360381019061038f91906130a9565b611181565b005b3480156103a257600080fd5b506103bd60048036038101906103b891906130a9565b6111a3565b005b6103d960048036038101906103d49190613108565b61121e565b005b3480156103e757600080fd5b506103f0611418565b6040516103fd919061314e565b60405180910390f35b610420600480360381019061041b9190613188565b61141e565b005b34801561042e57600080fd5b50610437611633565b005b34801561044557600080fd5b50610460600480360381019061045b9190612f08565b6116a6565b60405161046d9190612da6565b60405180910390f35b34801561048257600080fd5b5061048b6116d9565b604051610498919061314e565b60405180910390f35b3480156104ad57600080fd5b506104b66116df565b6040516104c39190612da6565b60405180910390f35b3480156104d857600080fd5b506104f360048036038101906104ee91906130a9565b611704565b6040516105059695949392919061323b565b60405180910390f35b34801561051a57600080fd5b5061053560048036038101906105309190612f08565b61177a565b005b34801561054357600080fd5b5061055e60048036038101906105599190612f08565b6117a7565b005b34801561056c57600080fd5b50610587600480360381019061058291906132bc565b6117b7565b005b34801561059557600080fd5b506105b060048036038101906105ab9190612f08565b6119df565b005b3480156105be57600080fd5b506105c7611a0c565b005b3480156105d557600080fd5b506105de611a7f565b6040516105eb919061314e565b60405180910390f35b34801561060057600080fd5b5061061b60048036038101906106169190613364565b611a85565b6040516106299291906133a4565b60405180910390f35b34801561063e57600080fd5b50610659600480360381019061065491906130a9565b611ac6565b6040516106669190612da6565b60405180910390f35b34801561067b57600080fd5b50610684611b3f565b6040516106919190612fa7565b60405180910390f35b3480156106a657600080fd5b506106c160048036038101906106bc91906133cd565b611b46565b005b3480156106cf57600080fd5b506106ea60048036038101906106e591906130a9565b611e47565b6040516106f7919061314e565b60405180910390f35b61071a60048036038101906107159190613448565b611e6c565b6040516107279190612fa7565b60405180910390f35b34801561073c57600080fd5b50610757600480360381019061075291906130a9565b611f9e565b005b610773600480360381019061076e9190612f6b565b611fc0565b005b34801561078157600080fd5b5061078a612142565b6040516107979190612fa7565b60405180910390f35b3480156107ac57600080fd5b506107c760048036038101906107c29190613476565b612166565b005b3480156107d557600080fd5b506107f060048036038101906107eb9190612f6b565b6121ff565b6040516108089c9b9a99989796959493929190613538565b60405180910390f35b60007f7965db0b000000000000000000000000000000000000000000000000000000007bffffffffffffffffffffffffffffffffffffffffffffffffffffffff1916827bffffffffffffffffffffffffffffffffffffffffffffffffffffffff1916148061088457506108838261238d565b5b9050919050565b6108936123f7565b61089b612438565b8060000135600073ffffffffffffffffffffffffffffffffffffffff166001600083815260200190815260200160002060010160019054906101000a900473ffffffffffffffffffffffffffffffffffffffff1673ffffffffffffffffffffffffffffffffffffffff160361093c576040517f5dcaf2d700000000000000000000000000000000000000000000000000000000815260040160405180910390fd5b816000013560006003811115610955576109546131b5565b5b6001600083815260200190815260200160002060010160009054906101000a900460ff16600381111561098b5761098a6131b5565b5b146109c2576040517fd4dbb56500000000000000000000000000000000000000000000000000000000815260040160405180910390fd5b600080600173__$8ad05547f64aebe22f2eafad9eff5b91dd$__634e9036e190916003600289600460009054906101000a900473ffffffffffffffffffffffffffffffffffffffff16600654600754612710600560009054906101000a900473ffffffffffffffffffffffffffffffffffffffff166040518a63ffffffff1660e01b8152600401610a5b99989796959493929190613711565b6040805180830381865af4158015610a77573d6000803e3d6000fd5b505050506040513d601f19601f82011682018060405250810190610a9b91906137c9565b91509150808273ffffffffffffffffffffffffffffffffffffffff1686600001357fadd1d5b6c827fee45fa32e72964c9d43d2191c9b8b083889fb2e3f468c71856860405160405180910390a450505050610af461248f565b50565b610aff6123f7565b610b07612438565b8060000135600073ffffffffffffffffffffffffffffffffffffffff166001600083815260200190815260200160002060010160019054906101000a900473ffffffffffffffffffffffffffffffffffffffff1673ffffffffffffffffffffffffffffffffffffffff1603610ba8576040517f5dcaf2d700000000000000000000000000000000000000000000000000000000815260040160405180910390fd5b816000013560006003811115610bc157610bc06131b5565b5b6001600083815260200190815260200160002060010160009054906101000a900460ff166003811115610bf757610bf66131b5565b5b14610c2e576040517fd4dbb56500000000000000000000000000000000000000000000000000000000815260040160405180910390fd5b6000600160008560000135815260200190815260200160002090508073__$8ad05547f64aebe22f2eafad9eff5b91dd$__63ae80de409091866002600086600001548152602001908152602001600020600460009054906101000a900473ffffffffffffffffffffffffffffffffffffffff16600654600754612710600560009054906101000a900473ffffffffffffffffffffffffffffffffffffffff166040518963ffffffff1660e01b8152600401610cf0989796959493929190613989565b60006040518083038186803b158015610d0857600080fd5b505af4158015610d1c573d6000803e3d6000fd5b5050505083600001358160040160009054906101000a900473ffffffffffffffffffffffffffffffffffffffff1673ffffffffffffffffffffffffffffffffffffffff168260010160019054906101000a900473ffffffffffffffffffffffffffffffffffffffff1673ffffffffffffffffffffffffffffffffffffffff167f6bf7309f141d1b44e414f1fc04d98491cd0acf98f0f1e5ad885d0a7ce164e6fa60405160405180910390a4505050610dd261248f565b50565b610ddd612438565b610de56123f7565b8060400135600073ffffffffffffffffffffffffffffffffffffffff166001600083815260200190815260200160002060010160019054906101000a900473ffffffffffffffffffffffffffffffffffffffff1673ffffffffffffffffffffffffffffffffffffffff1603610e86576040517f5dcaf2d700000000000000000000000000000000000000000000000000000000815260040160405180910390fd5b816040013560006003811115610e9f57610e9e6131b5565b5b6001600083815260200190815260200160002060010160009054906101000a900460ff166003811115610ed557610ed46131b5565b5b14610f0c576040517fd4dbb56500000000000000000000000000000000000000000000000000000000815260040160405180910390fd5b600173__$8ad05547f64aebe22f2eafad9eff5b91dd$__6304e3299a90916003866040518463ffffffff1660e01b8152600401610f4b93929190613a9b565b60006040518083038186803b158015610f6357600080fd5b505af4158015610f77573d6000803e3d6000fd5b5050505082600001353373ffffffffffffffffffffffffffffffffffffffff1684604001357f1126836d9a6f07e69d20f7ac2db448d68d9bb24718d7e8e0e85b8cfd96bb04c160405160405180910390a45050610fd261248f565b50565b610fe26000801b82611f9e565b50565b600080610ff06124a8565b905080600001600084815260200190815260200160002060010154915050919050565b60006110226000801b83611ac6565b9050919050565b60008282808060200260200160405190810160405280939291908181526020016000905b8282101561107d5784848390506040020180360381019061106e9190613bb3565b8152602001906001019061104d565b505050505073__$2effe1973215a034e8e4a17bdeb5710028$__6333b988f590916040518263ffffffff1660e01b81526004016110ba9190613cad565b60006040518083038186803b1580156110d257600080fd5b505af41580156110e6573d6000803e3d6000fd5b505050506110f384611e6c565b905060005b83839050811015611179576002600083815260200190815260200160002084848381811061112957611128613ccf565b5b905060400201908060018154018082558091505060019003906000526020600020906002020160009091909190915081816111649190613df8565b5050808061117190613e35565b9150506110f8565b509392505050565b61118a82610fe5565b611193816124d0565b61119d83836124e4565b50505050565b6111ab6125e5565b73ffffffffffffffffffffffffffffffffffffffff168173ffffffffffffffffffffffffffffffffffffffff161461120f576040517f6697b23200000000000000000000000000000000000000000000000000000000815260040160405180910390fd5b61121982826125ed565b505050565b6112266123f7565b61122e612438565b8060000135600073ffffffffffffffffffffffffffffffffffffffff166001600083815260200190815260200160002060010160019054906101000a900473ffffffffffffffffffffffffffffffffffffffff1673ffffffffffffffffffffffffffffffffffffffff16036112cf576040517f5dcaf2d700000000000000000000000000000000000000000000000000000000815260040160405180910390fd5b8160000135600060038111156112e8576112e76131b5565b5b6001600083815260200190815260200160002060010160009054906101000a900460ff16600381111561131e5761131d6131b5565b5b14611355576040517fd4dbb56500000000000000000000000000000000000000000000000000000000815260040160405180910390fd5b6000600160008560000135815260200190815260200160002090508073__$8ad05547f64aebe22f2eafad9eff5b91dd$__639f09fff690916040518263ffffffff1660e01b81526004016113a99190613e7d565b60006040518083038186803b1580156113c157600080fd5b505af41580156113d5573d6000803e3d6000fd5b5050505083600001357ff68aeec8f55d67a9b2cf2b6caea31e11f2c14e09da250170575d63911f26aa6e60405160405180910390a250505061141561248f565b50565b60005481565b6114266123f7565b61142e612438565b8060000135600073ffffffffffffffffffffffffffffffffffffffff166001600083815260200190815260200160002060010160019054906101000a900473ffffffffffffffffffffffffffffffffffffffff1673ffffffffffffffffffffffffffffffffffffffff16036114cf576040517f5dcaf2d700000000000000000000000000000000000000000000000000000000815260040160405180910390fd5b8160000135600060038111156114e8576114e76131b5565b5b6001600083815260200190815260200160002060010160009054906101000a900460ff16600381111561151e5761151d6131b5565b5b14611555576040517fd4dbb56500000000000000000000000000000000000000000000000000000000815260040160405180910390fd5b600080600173__$8ad05547f64aebe22f2eafad9eff5b91dd$__63a25027a890916003886040518463ffffffff1660e01b815260040161159793929190613ef2565b6040805180830381865af41580156115b3573d6000803e3d6000fd5b505050506040513d601f19601f820116820180604052508101906115d791906137c9565b91509150808273ffffffffffffffffffffffffffffffffffffffff1686600001357f7786094a5edc61a0463300b9b97a1b22d338bc800ed33404ba9a3888b71de0fc60405160405180910390a45050505061163061248f565b50565b61165d7f65d7a28e3265b37a6474929f336521b332c1681b933f6cb9f3376673440d862a33611ac6565b61169c576040517f08c379a000000000000000000000000000000000000000000000000000000000815260040161169390613f86565b60405180910390fd5b6116a46126ef565b565b60006116d27f65d7a28e3265b37a6474929f336521b332c1681b933f6cb9f3376673440d862a83611ac6565b9050919050565b60075481565b6000806116ea612761565b90508060000160009054906101000a900460ff1691505090565b6003602052816000526040600020602052806000526040600020600091509150508060000154908060010154908060020160009054906101000a900460ff16908060020160019054906101000a900473ffffffffffffffffffffffffffffffffffffffff16908060030154908060040154905086565b6117a47f65d7a28e3265b37a6474929f336521b332c1681b933f6cb9f3376673440d862a82611f9e565b50565b6117b46000801b82611181565b50565b6117bf612438565b6117c76123f7565b60006040518060800160405280600654815260200160075481526020016127108152602001600560009054906101000a900473ffffffffffffffffffffffffffffffffffffffff1673ffffffffffffffffffffffffffffffffffffffff1681525090506000806000600173__$8ad05547f64aebe22f2eafad9eff5b91dd$__63884268949091898989600460009054906101000a900473ffffffffffffffffffffffffffffffffffffffff168a6040518763ffffffff1660e01b81526004016118959695949392919061432b565b606060405180830381865af41580156118b2573d6000803e3d6000fd5b505050506040513d601f19601f820116820180604052508101906118d691906143a4565b925092509250827f8b82d32987f9a4ae1bc7868a6f104edb711227ec3c9fccb0416a14fcc29bec5a60405160405180910390a28660e001602081019061191c91906143f7565b156119725786606001602001358273ffffffffffffffffffffffffffffffffffffffff16847fadd1d5b6c827fee45fa32e72964c9d43d2191c9b8b083889fb2e3f468c71856860405160405180910390a46119ce565b828173ffffffffffffffffffffffffffffffffffffffff168373ffffffffffffffffffffffffffffffffffffffff167f6bf7309f141d1b44e414f1fc04d98491cd0acf98f0f1e5ad885d0a7ce164e6fa60405160405180910390a45b505050506119da61248f565b505050565b611a097f65d7a28e3265b37a6474929f336521b332c1681b933f6cb9f3376673440d862a82611181565b50565b611a367f65d7a28e3265b37a6474929f336521b332c1681b933f6cb9f3376673440d862a33611ac6565b611a75576040517f08c379a0000000000000000000000000000000000000000000000000000000008152600401611a6c90613f86565b60405180910390fd5b611a7d612789565b565b60065481565b60026020528160005260406000208181548110611aa157600080fd5b9060005260206000209060020201600091509150508060000154908060010154905082565b600080611ad16124a8565b905080600001600085815260200190815260200160002060000160008473ffffffffffffffffffffffffffffffffffffffff1673ffffffffffffffffffffffffffffffffffffffff16815260200190815260200160002060009054906101000a900460ff1691505092915050565b6000801b81565b6000611b506127fb565b905060008160000160089054906101000a900460ff1615905060008260000160009054906101000a900467ffffffffffffffff1690506000808267ffffffffffffffff16148015611b9e5750825b9050600060018367ffffffffffffffff16148015611bd3575060003073ffffffffffffffffffffffffffffffffffffffff163b145b905081158015611be1575080155b15611c18576040517ff92ee8a900000000000000000000000000000000000000000000000000000000815260040160405180910390fd5b60018560000160006101000a81548167ffffffffffffffff021916908367ffffffffffffffff1602179055508315611c685760018560000160086101000a81548160ff0219169083151502179055505b611c718a612823565b612710871115611cad576040517fce43144600000000000000000000000000000000000000000000000000000000815260040160405180910390fd5b612710861115611ce9576040517fb089e48e00000000000000000000000000000000000000000000000000000000815260040160405180910390fd5b600073ffffffffffffffffffffffffffffffffffffffff168873ffffffffffffffffffffffffffffffffffffffff1603611d4f576040517fcfe2ea6300000000000000000000000000000000000000000000000000000000815260040160405180910390fd5b866006819055508560078190555087600560006101000a81548173ffffffffffffffffffffffffffffffffffffffff021916908373ffffffffffffffffffffffffffffffffffffffff16021790555088600460006101000a81548173ffffffffffffffffffffffffffffffffffffffff021916908373ffffffffffffffffffffffffffffffffffffffff1602179055508315611e3b5760008560000160086101000a81548160ff0219169083151502179055507fc7f505b2f371ae2175ee4913f4499e1f2633a7b5936321eed1cdaeb6115181d26001604051611e329190614473565b60405180910390a15b50505050505050505050565b6008602052816000526040600020602052806000526040600020600091509150505481565b6000611e76612438565b611e7e6123f7565b73__$2effe1973215a034e8e4a17bdeb5710028$__639a0ebe00836040518263ffffffff1660e01b8152600401611eb59190614574565b60006040518083038186803b158015611ecd57600080fd5b505af4158015611ee1573d6000803e3d6000fd5b50505050600173__$8ad05547f64aebe22f2eafad9eff5b91dd$__639bbeb95d9091846040518363ffffffff1660e01b8152600401611f21929190614590565b602060405180830381865af4158015611f3e573d6000803e3d6000fd5b505050506040513d601f19601f82011682018060405250810190611f6291906145ba565b9050807f8b82d32987f9a4ae1bc7868a6f104edb711227ec3c9fccb0416a14fcc29bec5a60405160405180910390a2611f9961248f565b919050565b611fa782610fe5565b611fb0816124d0565b611fba83836125ed565b50505050565b611fc86123f7565b611fd0612438565b80600073ffffffffffffffffffffffffffffffffffffffff166001600083815260200190815260200160002060010160019054906101000a900473ffffffffffffffffffffffffffffffffffffffff1673ffffffffffffffffffffffffffffffffffffffff160361206d576040517f5dcaf2d700000000000000000000000000000000000000000000000000000000815260040160405180910390fd5b6000600173__$8ad05547f64aebe22f2eafad9eff5b91dd$__630cbc368890916003866040518463ffffffff1660e01b81526004016120ae939291906145f6565b602060405180830381865af41580156120cb573d6000803e3d6000fd5b505050506040513d601f19601f820116820180604052508101906120ef919061462d565b90508073ffffffffffffffffffffffffffffffffffffffff16837f6c2a0bb8117ecfbc53a4385a5421be8eb081718159b9eb3d7c273ecb07fe7cfd60405160405180910390a3505061213f61248f565b50565b7f65d7a28e3265b37a6474929f336521b332c1681b933f6cb9f3376673440d862a81565b6121736000801b33611ac6565b6121b2576040517f08c379a00000000000000000000000000000000000000000000000000000000081526004016121a990613f86565b60405180910390fd5b600081116121f5576040517f08c379a00000000000000000000000000000000000000000000000000000000081526004016121ec906146a6565b60405180910390fd5b8060008190555050565b60016020528060005260406000206000915090508060000154908060010160009054906101000a900460ff16908060010160019054906101000a900473ffffffffffffffffffffffffffffffffffffffff1690806002016040518060400160405290816000820160009054906101000a900473ffffffffffffffffffffffffffffffffffffffff1673ffffffffffffffffffffffffffffffffffffffff1673ffffffffffffffffffffffffffffffffffffffff168152602001600182015481525050908060040160009054906101000a900473ffffffffffffffffffffffffffffffffffffffff1690806005016040518060400160405290816000820160009054906101000a900473ffffffffffffffffffffffffffffffffffffffff1673ffffffffffffffffffffffffffffffffffffffff1673ffffffffffffffffffffffffffffffffffffffff1681526020016001820154815250509080600701549080600801549080600901549080600a01549080600b01549080600c0160009054906101000a900460ff1690508c565b60007f01ffc9a7000000000000000000000000000000000000000000000000000000007bffffffffffffffffffffffffffffffffffffffffffffffffffffffff1916827bffffffffffffffffffffffffffffffffffffffffffffffffffffffff1916149050919050565b6123ff6116df565b15612436576040517fd93c066500000000000000000000000000000000000000000000000000000000815260040160405180910390fd5b565b60006124426129d2565b90506002816000015403612482576040517f3ee5aeb500000000000000000000000000000000000000000000000000000000815260040160405180910390fd5b6002816000018190555050565b60006124996129d2565b90506001816000018190555050565b60007f02dd7bc7dec4dceedda775e58dd541e08a116c6c53815c0bd028192f7b626800905090565b6124e1816124dc6125e5565b6129fa565b50565b6000806124ef6124a8565b90506124fb8484611ac6565b6125d957600181600001600086815260200190815260200160002060000160008573ffffffffffffffffffffffffffffffffffffffff1673ffffffffffffffffffffffffffffffffffffffff16815260200190815260200160002060006101000a81548160ff0219169083151502179055506125756125e5565b73ffffffffffffffffffffffffffffffffffffffff168373ffffffffffffffffffffffffffffffffffffffff16857f2f8788117e7eff1d82e926ec794901d17c78024a50270940304540a733656f0d60405160405180910390a460019150506125df565b60009150505b92915050565b600033905090565b6000806125f86124a8565b90506126048484611ac6565b156126e357600081600001600086815260200190815260200160002060000160008573ffffffffffffffffffffffffffffffffffffffff1673ffffffffffffffffffffffffffffffffffffffff16815260200190815260200160002060006101000a81548160ff02191690831515021790555061267f6125e5565b73ffffffffffffffffffffffffffffffffffffffff168373ffffffffffffffffffffffffffffffffffffffff16857ff6391f5c32d9c69d2a47ea670b442974b53935d1edc7fd64eb21e047a839171b60405160405180910390a460019150506126e9565b60009150505b92915050565b6126f7612a4b565b6000612701612761565b905060008160000160006101000a81548160ff0219169083151502179055507f5db9ee0a495bf2e6ff9c91a7834c1ba4fdd244a5e8aa4e537bd38aeae4b073aa6127496125e5565b60405161275691906146c6565b60405180910390a150565b60007fcd5ed15c6e187e77e9aee88184c21f4f2182ab5827cb3b7e07fbedcd63f03300905090565b6127916123f7565b600061279b612761565b905060018160000160006101000a81548160ff0219169083151502179055507f62e78cea01bee320cd4e420270b5ea74000d11b0c9f74754ebdbfc544b05a2586127e36125e5565b6040516127f091906146c6565b60405180910390a150565b60007ff0c57e16840df040f15088dc2f81fe391c3923bec73e23a9662efc9c229c6a00905090565b600061282d6127fb565b905060008160000160089054906101000a900460ff1615905060008260000160009054906101000a900467ffffffffffffffff1690506000808267ffffffffffffffff1614801561287b5750825b9050600060018367ffffffffffffffff161480156128b0575060003073ffffffffffffffffffffffffffffffffffffffff163b145b9050811580156128be575080155b156128f5576040517ff92ee8a900000000000000000000000000000000000000000000000000000000815260040160405180910390fd5b60018560000160006101000a81548167ffffffffffffffff021916908367ffffffffffffffff16021790555083156129455760018560000160086101000a81548160ff0219169083151502179055505b61294d612a8b565b612955612a95565b61295d612a9f565b61296686612ad3565b606460008190555083156129ca5760008560000160086101000a81548160ff0219169083151502179055507fc7f505b2f371ae2175ee4913f4499e1f2633a7b5936321eed1cdaeb6115181d260016040516129c19190614473565b60405180910390a15b505050505050565b60007f9b779b17422d0df92223018b32b4d1fa46e071723d6817e2486d003becc55f00905090565b612a048282611ac6565b612a475780826040517fe2517d3f000000000000000000000000000000000000000000000000000000008152600401612a3e9291906146e1565b60405180910390fd5b5050565b612a536116df565b612a89576040517f8dfc202b00000000000000000000000000000000000000000000000000000000815260040160405180910390fd5b565b612a93612c92565b565b612a9d612c92565b565b612aa7612c92565b6000612ab1612761565b905060008160000160006101000a81548160ff02191690831515021790555050565b6000612add6127fb565b905060008160000160089054906101000a900460ff1615905060008260000160009054906101000a900467ffffffffffffffff1690506000808267ffffffffffffffff16148015612b2b5750825b9050600060018367ffffffffffffffff16148015612b60575060003073ffffffffffffffffffffffffffffffffffffffff163b145b905081158015612b6e575080155b15612ba5576040517ff92ee8a900000000000000000000000000000000000000000000000000000000815260040160405180910390fd5b60018560000160006101000a81548167ffffffffffffffff021916908367ffffffffffffffff1602179055508315612bf55760018560000160086101000a81548160ff0219169083151502179055505b612c026000801b876124e4565b50612c2d7f65d7a28e3265b37a6474929f336521b332c1681b933f6cb9f3376673440d862a876124e4565b508315612c8a5760008560000160086101000a81548160ff0219169083151502179055507fc7f505b2f371ae2175ee4913f4499e1f2633a7b5936321eed1cdaeb6115181d26001604051612c819190614473565b60405180910390a15b505050505050565b612c9a612cd2565b612cd0576040517fd7e6bcf800000000000000000000000000000000000000000000000000000000815260040160405180910390fd5b565b6000612cdc6127fb565b60000160089054906101000a900460ff16905090565b6000604051905090565b600080fd5b600080fd5b60007fffffffff0000000000000000000000000000000000000000000000000000000082169050919050565b612d3b81612d06565b8114612d4657600080fd5b50565b600081359050612d5881612d32565b92915050565b600060208284031215612d7457612d73612cfc565b5b6000612d8284828501612d49565b91505092915050565b60008115159050919050565b612da081612d8b565b82525050565b6000602082019050612dbb6000830184612d97565b92915050565b600080fd5b600060408284031215612ddc57612ddb612dc1565b5b81905092915050565b600060408284031215612dfb57612dfa612cfc565b5b6000612e0984828501612dc6565b91505092915050565b600060408284031215612e2857612e27612dc1565b5b81905092915050565b600060408284031215612e4757612e46612cfc565b5b6000612e5584828501612e12565b91505092915050565b600060808284031215612e7457612e73612dc1565b5b81905092915050565b600060808284031215612e9357612e92612cfc565b5b6000612ea184828501612e5e565b91505092915050565b600073ffffffffffffffffffffffffffffffffffffffff82169050919050565b6000612ed582612eaa565b9050919050565b612ee581612eca565b8114612ef057600080fd5b50565b600081359050612f0281612edc565b92915050565b600060208284031215612f1e57612f1d612cfc565b5b6000612f2c84828501612ef3565b91505092915050565b6000819050919050565b612f4881612f35565b8114612f5357600080fd5b50565b600081359050612f6581612f3f565b92915050565b600060208284031215612f8157612f80612cfc565b5b6000612f8f84828501612f56565b91505092915050565b612fa181612f35565b82525050565b6000602082019050612fbc6000830184612f98565b92915050565b60006101408284031215612fd957612fd8612dc1565b5b81905092915050565b600080fd5b600080fd5b600080fd5b60008083601f84011261300757613006612fe2565b5b8235905067ffffffffffffffff81111561302457613023612fe7565b5b6020830191508360408202830111156130405761303f612fec565b5b9250929050565b6000806000610160848603121561306157613060612cfc565b5b600061306f86828701612fc2565b93505061014084013567ffffffffffffffff81111561309157613090612d01565b5b61309d86828701612ff1565b92509250509250925092565b600080604083850312156130c0576130bf612cfc565b5b60006130ce85828601612f56565b92505060206130df85828601612ef3565b9150509250929050565b6000602082840312156130ff576130fe612dc1565b5b81905092915050565b60006020828403121561311e5761311d612cfc565b5b600061312c848285016130e9565b91505092915050565b6000819050919050565b61314881613135565b82525050565b6000602082019050613163600083018461313f565b92915050565b60006060828403121561317f5761317e612dc1565b5b81905092915050565b60006060828403121561319e5761319d612cfc565b5b60006131ac84828501613169565b91505092915050565b7f4e487b7100000000000000000000000000000000000000000000000000000000600052602160045260246000fd5b600381106131f5576131f46131b5565b5b50565b6000819050613206826131e4565b919050565b6000613216826131f8565b9050919050565b6132268161320b565b82525050565b61323581612eca565b82525050565b600060c082019050613250600083018961313f565b61325d6020830188612f98565b61326a604083018761321d565b613277606083018661322c565b613284608083018561313f565b61329160a083018461313f565b979650505050505050565b600061014082840312156132b3576132b2612dc1565b5b81905092915050565b6000806000604084860312156132d5576132d4612cfc565b5b600084013567ffffffffffffffff8111156132f3576132f2612d01565b5b6132ff8682870161329c565b935050602084013567ffffffffffffffff8111156133205761331f612d01565b5b61332c86828701612ff1565b92509250509250925092565b61334181613135565b811461334c57600080fd5b50565b60008135905061335e81613338565b92915050565b6000806040838503121561337b5761337a612cfc565b5b600061338985828601612f56565b925050602061339a8582860161334f565b9150509250929050565b60006040820190506133b9600083018561313f565b6133c6602083018461313f565b9392505050565b600080600080600060a086880312156133e9576133e8612cfc565b5b60006133f788828901612ef3565b955050602061340888828901612ef3565b945050604061341988828901612ef3565b935050606061342a8882890161334f565b925050608061343b8882890161334f565b9150509295509295909350565b6000610140828403121561345f5761345e612cfc565b5b600061346d84828501612fc2565b91505092915050565b60006020828403121561348c5761348b612cfc565b5b600061349a8482850161334f565b91505092915050565b600481106134b4576134b36131b5565b5b50565b60008190506134c5826134a3565b919050565b60006134d5826134b7565b9050919050565b6134e5816134ca565b82525050565b6134f481612eca565b82525050565b61350381613135565b82525050565b60408201600082015161351f60008501826134eb565b50602082015161353260208501826134fa565b50505050565b60006101c08201905061354e600083018f612f98565b61355b602083018e6134dc565b613568604083018d61322c565b613575606083018c613509565b61358260a083018b61322c565b61358f60c083018a613509565b61359d61010083018961313f565b6135ab61012083018861313f565b6135b961014083018761313f565b6135c761016083018661313f565b6135d561018083018561313f565b6135e36101a0830184612d97565b9d9c50505050505050505050505050565b8082525050565b8082525050565b8082525050565b60006136186020840184612f56565b905092915050565b61362981612f35565b82525050565b600061363e6020840184612ef3565b905092915050565b61364f81612eca565b82525050565b604082016136666000830183613609565b6136736000850182613620565b50613681602083018361362f565b61368e6020850182613646565b50505050565b6000819050919050565b60006136b96136b46136af84612eaa565b613694565b612eaa565b9050919050565b60006136cb8261369e565b9050919050565b60006136dd826136c0565b9050919050565b6136ed816136d2565b82525050565b6136fc81613135565b82525050565b61370b81612eca565b82525050565b600061014082019050613727600083018c6135f4565b613734602083018b6135fb565b613741604083018a613602565b61374e6060830189613655565b61375b60a08301886136e4565b61376860c08301876136f3565b61377560e08301866136f3565b6137836101008301856136f3565b613791610120830184613702565b9a9950505050505050505050565b6000815190506137ae81612edc565b92915050565b6000815190506137c381613338565b92915050565b600080604083850312156137e0576137df612cfc565b5b60006137ee8582860161379f565b92505060206137ff858286016137b4565b9150509250929050565b8082525050565b604082016138216000830183613609565b61382e6000850182613620565b5061383c602083018361362f565b6138496020850182613646565b50505050565b600081549050919050565b600082825260208201905092915050565b60008190508160005260206000209050919050565b60008160001c9050919050565b6000819050919050565b60006138aa6138a583613880565b61388d565b9050919050565b6138ba81613135565b82525050565b6040820160008083015490506138d581613897565b6138e260008601826138b1565b50600183015490506138f381613897565b61390060208601826138b1565b5050505050565b600061391383836138c0565b60408301905092915050565b6000600282019050919050565b60006139378261384f565b613941818561385a565b935061394c8361386b565b8060005b8381101561397c57816139638882613907565b975061396e8361391f565b925050600181019050613950565b5085935050505092915050565b60006101208201905061399f600083018b613809565b6139ac602083018a613810565b81810360608301526139be818961392c565b90506139cd60808301886136e4565b6139da60a08301876136f3565b6139e760c08301866136f3565b6139f460e08301856136f3565b613a02610100830184613702565b9998505050505050505050565b6000613a1e602084018461334f565b905092915050565b60808201613a376000830183613a0f565b613a4460008501826138b1565b50613a52602083018361362f565b613a5f6020850182613646565b50613a6d6040830183613609565b613a7a6040850182613620565b50613a886060830183613a0f565b613a9560608501826138b1565b50505050565b600060c082019050613ab060008301866135f4565b613abd60208301856135fb565b613aca6040830184613a26565b949350505050565b600080fd5b6000601f19601f8301169050919050565b7f4e487b7100000000000000000000000000000000000000000000000000000000600052604160045260246000fd5b613b2082613ad7565b810181811067ffffffffffffffff82111715613b3f57613b3e613ae8565b5b80604052505050565b6000613b52612cf2565b9050613b5e8282613b17565b919050565b600060408284031215613b7957613b78613ad2565b5b613b836040613b48565b90506000613b938482850161334f565b6000830152506020613ba78482850161334f565b60208301525092915050565b600060408284031215613bc957613bc8612cfc565b5b6000613bd784828501613b63565b91505092915050565b600081519050919050565b6000819050602082019050919050565b604082016000820151613c1160008501826138b1565b506020820151613c2460208501826138b1565b50505050565b6000613c368383613bfb565b60408301905092915050565b6000602082019050919050565b6000613c5a82613be0565b613c64818561385a565b9350613c6f83613beb565b8060005b83811015613ca0578151613c878882613c2a565b9750613c9283613c42565b925050600181019050613c73565b5085935050505092915050565b60006020820190508181036000830152613cc78184613c4f565b905092915050565b7f4e487b7100000000000000000000000000000000000000000000000000000000600052603260045260246000fd5b60008135613d0b81613338565b80915050919050565b60008160001b9050919050565b60007fffffffffffffffffffffffffffffffffffffffffffffffffffffffffffffffff613d4d84613d14565b9350801983169250808416831791505092915050565b6000613d7e613d79613d7484613135565b613694565b613135565b9050919050565b6000819050919050565b613d9882613d63565b613dab613da482613d85565b8354613d21565b8255505050565b600081016000830180613dc481613cfe565b9050613dd08184613d8f565b505050600181016020830180613de581613cfe565b9050613df18184613d8f565b5050505050565b613e028282613db2565b5050565b7f4e487b7100000000000000000000000000000000000000000000000000000000600052601160045260246000fd5b6000613e4082613135565b91507fffffffffffffffffffffffffffffffffffffffffffffffffffffffffffffffff8203613e7257613e71613e06565b5b600182019050919050565b6000602082019050613e926000830184613809565b92915050565b60608201613ea96000830183613609565b613eb66000850182613620565b50613ec4602083018361362f565b613ed16020850182613646565b50613edf6040830183613a0f565b613eec60408501826138b1565b50505050565b600060a082019050613f0760008301866135f4565b613f1460208301856135fb565b613f216040830184613e98565b949350505050565b600082825260208201905092915050565b7f4f776e61626c655061757361626c653a206163636573732064656e6965640000600082015250565b6000613f70601e83613f29565b9150613f7b82613f3a565b602082019050919050565b60006020820190508181036000830152613f9f81613f63565b9050919050565b600082905092915050565b60408201613fc2600083018361362f565b613fcf6000850182613646565b50613fdd6020830183613a0f565b613fea60208501826138b1565b50505050565b613ff981612d8b565b811461400457600080fd5b50565b60008135905061401681613ff0565b92915050565b600061402b6020840184614007565b905092915050565b61403c81612d8b565b82525050565b600080fd5b600080fd5b600080fd5b6000808335600160200384360303811261406e5761406d61404c565b5b83810192508235915060208301925067ffffffffffffffff82111561409657614095614042565b5b6001820236038313156140ac576140ab614047565b5b509250929050565b600082825260208201905092915050565b82818337600083830152505050565b60006140e083856140b4565b93506140ed8385846140c5565b6140f683613ad7565b840190509392505050565b600061014083016141156000840184613609565b6141226000860182613620565b506141306020840184613fa6565b61413d6020860182613fb1565b5061414b6060840184613fa6565b6141586060860182613fb1565b5061416660a084018461362f565b61417360a0860182613646565b5061418160c0840184613a0f565b61418e60c08601826138b1565b5061419c60e084018461401c565b6141a960e0860182614033565b506141b8610100840184614051565b8583036101008701526141cc8382846140d4565b925050506141de610120840184614051565b8583036101208701526141f28382846140d4565b925050508091505092915050565b6000819050919050565b6040820161421b6000830183613a0f565b61422860008501826138b1565b506142366020830183613a0f565b61424360208501826138b1565b50505050565b6000614255838361420a565b60408301905092915050565b600082905092915050565b6000604082019050919050565b6000614285838561385a565b935061429082614200565b8060005b858110156142c9576142a68284614261565b6142b08882614249565b97506142bb8361426c565b925050600181019050614294565b5085925050509392505050565b6080820160008201516142ec60008501826138b1565b5060208201516142ff60208501826138b1565b50604082015161431260408501826138b1565b5060608201516143256060850182613646565b50505050565b60006101008201905061434160008301896135f4565b81810360208301526143538188614101565b90508181036040830152614368818688614279565b905061437760608301856136e4565b61438460808301846142d6565b979650505050505050565b60008151905061439e81612f3f565b92915050565b6000806000606084860312156143bd576143bc612cfc565b5b60006143cb8682870161438f565b93505060206143dc8682870161379f565b92505060406143ed8682870161379f565b9150509250925092565b60006020828403121561440d5761440c612cfc565b5b600061441b84828501614007565b91505092915050565b6000819050919050565b600067ffffffffffffffff82169050919050565b600061445d61445861445384614424565b613694565b61442e565b9050919050565b61446d81614442565b82525050565b60006020820190506144886000830184614464565b92915050565b61014082016144a06000830183613609565b6144ad6000850182613620565b506144bb6020830183613fa6565b6144c86020850182613fb1565b506144d66060830183613fa6565b6144e36060850182613fb1565b506144f160a083018361362f565b6144fe60a0850182613646565b5061450c60c083018361362f565b61451960c0850182613646565b5061452760e0830183613a0f565b61453460e08501826138b1565b50614543610100830183613a0f565b6145516101008501826138b1565b5061456061012083018361401c565b61456e610120850182614033565b50505050565b60006101408201905061458a600083018461448e565b92915050565b6000610160820190506145a660008301856135f4565b6145b3602083018461448e565b9392505050565b6000602082840312156145d0576145cf612cfc565b5b60006145de8482850161438f565b91505092915050565b6145f081612f35565b82525050565b600060608201905061460b60008301866135f4565b61461860208301856135fb565b61462560408301846145e7565b949350505050565b60006020828403121561464357614642612cfc565b5b60006146518482850161379f565b91505092915050565b7f4d6f726967696e4170703a20696e76616c69642076616c756521000000000000600082015250565b6000614690601a83613f29565b915061469b8261465a565b602082019050919050565b600060208201905081810360008301526146bf81614683565b9050919050565b60006020820190506146db600083018461322c565b92915050565b60006040820190506146f6600083018561322c565b6147036020830184612f98565b939250505056fea26469706673582212207a3d16a673705239868a4baa3a570570f34562fce0e8d75fc71f02380205a5a564736f6c63430008140033",
  "linkReferences": {
    "contracts/abstracts/libs/logic/AtomicSwapStateLogic.sol": {
      "AtomicSwapStateLogic": [
        {
          "length": 20,
          "start": 2537
        },
        {
          "length": 20,
          "start": 3180
        },
        {
          "length": 20,
          "start": 3888
        },
        {
          "length": 20,
          "start": 5011
        },
        {
          "length": 20,
          "start": 5500
        },
        {
          "length": 20,
          "start": 6227
        },
        {
          "length": 20,
          "start": 7945
        },
        {
          "length": 20,
          "start": 8339
        }
      ]
    },
    "contracts/abstracts/libs/utils/AtomicSwapMsgValidator.sol": {
      "AtomicSwapMsgValidator": [
        {
          "length": 20,
          "start": 4260
        },
        {
          "length": 20,
          "start": 7840
        }
      ]
    }
  },
  "deployedLinkReferences": {
    "contracts/abstracts/libs/logic/AtomicSwapStateLogic.sol": {
      "AtomicSwapStateLogic": [
        {
          "length": 20,
          "start": 2505
        },
        {
          "length": 20,
          "start": 3148
        },
        {
          "length": 20,
          "start": 3856
        },
        {
          "length": 20,
          "start": 4979
        },
        {
          "length": 20,
          "start": 5468
        },
        {
          "length": 20,
          "start": 6195
        },
        {
          "length": 20,
          "start": 7913
        },
        {
          "length": 20,
          "start": 8307
        }
      ]
    },
    "contracts/abstracts/libs/utils/AtomicSwapMsgValidator.sol": {
      "AtomicSwapMsgValidator": [
        {
          "length": 20,
          "start": 4228
        },
        {
          "length": 20,
          "start": 7808
        }
      ]
    }
  }
}