{
  "_format": "hh-sol-artifact-1",
  "contractName": "InchainAtomicSwap",
  "sourceName": "contracts/inchain_atomicswap/InchainAtomicSwap.sol",
  "abi": [
    {
      "inputs": [
        {
          "internalType": "uint256",
          "name": "provided",
          "type": "uint256"
        },
        {
          "internalType": "uint256",
          "name": "expectedExpiry",
          "type": "uint256"
        }
      ],
      "name": "BidAlreadyExpired",
      "type": "error"
    },
    {
      "inputs": [],
      "name": "BidAlreadyPlaced",
      "type": "error"
    },
    {
      "inputs": [],
      "name": "BidDoesNotExist",
      "type": "error"
    },
    {
      "inputs": [],
      "name": "BidNotAllowed",
      "type": "error"
    },
    {
      "inputs": [
        {
          "internalType": "enum IAtomicSwapBase.BidStatus",
          "name": "status",
          "type": "uint8"
        }
      ],
      "name": "BidNotInPlacedStatus",
      "type": "error"
    },
    {
      "inputs": [],
      "name": "InactiveOrder",
      "type": "error"
    },
    {
      "inputs": [],
      "name": "InvaldAddition",
      "type": "error"
    },
    {
      "inputs": [],
      "name": "InvalidAddress",
      "type": "error"
    },
    {
      "inputs": [],
      "name": "InvalidBidderAddress",
      "type": "error"
    },
    {
      "inputs": [],
      "name": "InvalidBuyerFee",
      "type": "error"
    },
    {
      "inputs": [
        {
          "internalType": "address",
          "name": "contractAddress",
          "type": "address"
        }
      ],
      "name": "InvalidContractAddress",
      "type": "error"
    },
    {
      "inputs": [
        {
          "internalType": "uint256",
          "name": "provided",
          "type": "uint256"
        },
        {
          "internalType": "uint256",
          "name": "maximum",
          "type": "uint256"
        }
      ],
      "name": "InvalidExpirationTime",
      "type": "error"
    },
    {
      "inputs": [],
      "name": "InvalidInitialization",
      "type": "error"
    },
    {
      "inputs": [],
      "name": "InvalidMinimumBidLimit",
      "type": "error"
    },
    {
      "inputs": [],
      "name": "InvalidReleasePercentage",
      "type": "error"
    },
    {
      "inputs": [],
      "name": "InvalidSellerFee",
      "type": "error"
    },
    {
      "inputs": [],
      "name": "InvalidTotalPercentage",
      "type": "error"
    },
    {
      "inputs": [],
      "name": "InvalidTreasuryAddress",
      "type": "error"
    },
    {
      "inputs": [
        {
          "internalType": "uint256",
          "name": "amount",
          "type": "uint256"
        }
      ],
      "name": "MismatchedBidAmount",
      "type": "error"
    },
    {
      "inputs": [],
      "name": "NoBidPlaced",
      "type": "error"
    },
    {
      "inputs": [
        {
          "internalType": "uint256",
          "name": "amount",
          "type": "uint256"
        },
        {
          "internalType": "uint256",
          "name": "allowance",
          "type": "uint256"
        }
      ],
      "name": "NotAllowedTransferAmount",
      "type": "error"
    },
    {
      "inputs": [
        {
          "internalType": "uint256",
          "name": "real",
          "type": "uint256"
        },
        {
          "internalType": "uint256",
          "name": "expected",
          "type": "uint256"
        }
      ],
      "name": "NotEnoughFund",
      "type": "error"
    },
    {
      "inputs": [],
      "name": "NotInitializing",
      "type": "error"
    },
    {
      "inputs": [],
      "name": "OrderAlreadyExists",
      "type": "error"
    },
    {
      "inputs": [],
      "name": "OrderCanceled",
      "type": "error"
    },
    {
      "inputs": [],
      "name": "OrderDoesNotExist",
      "type": "error"
    },
    {
      "inputs": [],
      "name": "OrderNotAllowTake",
      "type": "error"
    },
    {
      "inputs": [],
      "name": "OverMaximumReleaseStep",
      "type": "error"
    },
    {
      "inputs": [
        {
          "internalType": "address",
          "name": "owner",
          "type": "address"
        }
      ],
      "name": "OwnableInvalidOwner",
      "type": "error"
    },
    {
      "inputs": [
        {
          "internalType": "address",
          "name": "account",
          "type": "address"
        }
      ],
      "name": "OwnableUnauthorizedAccount",
      "type": "error"
    },
    {
      "inputs": [],
      "name": "ReentrancyGuardReentrantCall",
      "type": "error"
    },
    {
      "inputs": [
        {
          "internalType": "address",
          "name": "to",
          "type": "address"
        },
        {
          "internalType": "uint256",
          "name": "amount",
          "type": "uint256"
        }
      ],
      "name": "TransferFailed",
      "type": "error"
    },
    {
      "inputs": [
        {
          "internalType": "address",
          "name": "from",
          "type": "address"
        },
        {
          "internalType": "address",
          "name": "to",
          "type": "address"
        },
        {
          "internalType": "uint256",
          "name": "amount",
          "type": "uint256"
        }
      ],
      "name": "TransferFromFailed",
      "type": "error"
    },
    {
      "inputs": [
        {
          "internalType": "address",
          "name": "recipient",
          "type": "address"
        },
        {
          "internalType": "uint256",
          "name": "amount",
          "type": "uint256"
        }
      ],
      "name": "TransferToRecipientFailed",
      "type": "error"
    },
    {
      "inputs": [
        {
          "internalType": "address",
          "name": "recipient",
          "type": "address"
        },
        {
          "internalType": "uint256",
          "name": "amount",
          "type": "uint256"
        }
      ],
      "name": "TransferToTreasuryFailed",
      "type": "error"
    },
    {
      "inputs": [
        {
          "internalType": "address",
          "name": "caller",
          "type": "address"
        },
        {
          "internalType": "address",
          "name": "expected",
          "type": "address"
        }
      ],
      "name": "UnauthorizedAcceptAction",
      "type": "error"
    },
    {
      "inputs": [],
      "name": "UnauthorizedCancelAction",
      "type": "error"
    },
    {
      "inputs": [],
      "name": "UnauthorizedSender",
      "type": "error"
    },
    {
      "inputs": [],
      "name": "UnauthorizedTakeAction",
      "type": "error"
    },
    {
      "inputs": [],
      "name": "UnsupportedTokenPair",
      "type": "error"
    },
    {
      "inputs": [],
      "name": "ZeroReleaseSchedule",
      "type": "error"
    },
    {
      "anonymous": false,
      "inputs": [
        {
          "indexed": true,
          "internalType": "bytes32",
          "name": "orderID",
          "type": "bytes32"
        },
        {
          "indexed": true,
          "internalType": "address",
          "name": "bidder",
          "type": "address"
        },
        {
          "indexed": true,
          "internalType": "uint256",
          "name": "amount",
          "type": "uint256"
        }
      ],
      "name": "AcceptedBid",
      "type": "event"
    },
    {
      "anonymous": false,
      "inputs": [
        {
          "indexed": true,
          "internalType": "bytes32",
          "name": "id",
          "type": "bytes32"
        }
      ],
      "name": "AtomicSwapOrderCanceled",
      "type": "event"
    },
    {
      "anonymous": false,
      "inputs": [
        {
          "indexed": true,
          "internalType": "bytes32",
          "name": "id",
          "type": "bytes32"
        }
      ],
      "name": "AtomicSwapOrderCreated",
      "type": "event"
    },
    {
      "anonymous": false,
      "inputs": [
        {
          "indexed": true,
          "internalType": "address",
          "name": "maker",
          "type": "address"
        },
        {
          "indexed": true,
          "internalType": "address",
          "name": "taker",
          "type": "address"
        },
        {
          "indexed": true,
          "internalType": "bytes32",
          "name": "id",
          "type": "bytes32"
        }
      ],
      "name": "AtomicSwapOrderTook",
      "type": "event"
    },
    {
      "anonymous": false,
      "inputs": [
        {
          "indexed": true,
          "internalType": "bytes32",
          "name": "orderID",
          "type": "bytes32"
        },
        {
          "indexed": true,
          "internalType": "address",
          "name": "bidder",
          "type": "address"
        }
      ],
      "name": "CanceledBid",
      "type": "event"
    },
    {
      "anonymous": false,
      "inputs": [
        {
          "indexed": false,
          "internalType": "uint64",
          "name": "version",
          "type": "uint64"
        }
      ],
      "name": "Initialized",
      "type": "event"
    },
    {
      "anonymous": false,
      "inputs": [
        {
          "indexed": true,
          "internalType": "address",
          "name": "previousOwner",
          "type": "address"
        },
        {
          "indexed": true,
          "internalType": "address",
          "name": "newOwner",
          "type": "address"
        }
      ],
      "name": "OwnershipTransferred",
      "type": "event"
    },
    {
      "anonymous": false,
      "inputs": [
        {
          "indexed": true,
          "internalType": "bytes32",
          "name": "orderID",
          "type": "bytes32"
        },
        {
          "indexed": true,
          "internalType": "address",
          "name": "bidder",
          "type": "address"
        },
        {
          "indexed": true,
          "internalType": "uint256",
          "name": "amount",
          "type": "uint256"
        }
      ],
      "name": "PlacedBid",
      "type": "event"
    },
    {
      "anonymous": false,
      "inputs": [
        {
          "indexed": true,
          "internalType": "bytes32",
          "name": "orderID",
          "type": "bytes32"
        },
        {
          "indexed": true,
          "internalType": "address",
          "name": "bidder",
          "type": "address"
        },
        {
          "indexed": true,
          "internalType": "uint256",
          "name": "amount",
          "type": "uint256"
        }
      ],
      "name": "ReceivedNewBid",
      "type": "event"
    },
    {
      "anonymous": false,
      "inputs": [
        {
          "indexed": true,
          "internalType": "bytes32",
          "name": "orderID",
          "type": "bytes32"
        },
        {
          "indexed": true,
          "internalType": "address",
          "name": "bidder",
          "type": "address"
        },
        {
          "indexed": true,
          "internalType": "uint256",
          "name": "amount",
          "type": "uint256"
        }
      ],
      "name": "UpdatedBid",
      "type": "event"
    },
    {
      "inputs": [
        {
          "components": [
            {
              "internalType": "bytes32",
              "name": "orderID",
              "type": "bytes32"
            },
            {
              "internalType": "address",
              "name": "bidder",
              "type": "address"
            }
          ],
          "internalType": "struct IAtomicSwapBase.AcceptBidMsg",
          "name": "acceptBidMsg",
          "type": "tuple"
        }
      ],
      "name": "acceptBid",
      "outputs": [],
      "stateMutability": "payable",
      "type": "function"
    },
    {
      "inputs": [
        {
          "internalType": "bytes32",
          "name": "",
          "type": "bytes32"
        },
        {
          "internalType": "address",
          "name": "",
          "type": "address"
        }
      ],
      "name": "bids",
      "outputs": [
        {
          "internalType": "uint256",
          "name": "amount",
          "type": "uint256"
        },
        {
          "internalType": "bytes32",
          "name": "order",
          "type": "bytes32"
        },
        {
          "internalType": "enum IAtomicSwapBase.BidStatus",
          "name": "status",
          "type": "uint8"
        },
        {
          "internalType": "address",
          "name": "bidder",
          "type": "address"
        },
        {
          "internalType": "uint256",
          "name": "receiveTimestamp",
          "type": "uint256"
        },
        {
          "internalType": "uint256",
          "name": "expireTimestamp",
          "type": "uint256"
        }
      ],
      "stateMutability": "view",
      "type": "function"
    },
    {
      "inputs": [],
      "name": "buyerFeeRate",
      "outputs": [
        {
          "internalType": "uint256",
          "name": "",
          "type": "uint256"
        }
      ],
      "stateMutability": "view",
      "type": "function"
    },
    {
      "inputs": [
        {
          "internalType": "bytes32",
          "name": "_orderID",
          "type": "bytes32"
        }
      ],
      "name": "cancelBid",
      "outputs": [],
      "stateMutability": "payable",
      "type": "function"
    },
    {
      "inputs": [
        {
          "components": [
            {
              "internalType": "bytes32",
              "name": "orderID",
              "type": "bytes32"
            }
          ],
          "internalType": "struct IAtomicSwapBase.CancelSwapMsg",
          "name": "cancelswap",
          "type": "tuple"
        }
      ],
      "name": "cancelSwap",
      "outputs": [],
      "stateMutability": "payable",
      "type": "function"
    },
    {
      "inputs": [
        {
          "internalType": "bytes32",
          "name": "",
          "type": "bytes32"
        },
        {
          "internalType": "address",
          "name": "",
          "type": "address"
        }
      ],
      "name": "counteroffers",
      "outputs": [
        {
          "internalType": "uint256",
          "name": "",
          "type": "uint256"
        }
      ],
      "stateMutability": "view",
      "type": "function"
    },
    {
      "inputs": [
        {
          "internalType": "address",
          "name": "_admin",
          "type": "address"
        },
        {
          "internalType": "address",
          "name": "_vestingManager",
          "type": "address"
        },
        {
          "internalType": "address",
          "name": "_treasury",
          "type": "address"
        },
        {
          "internalType": "uint256",
          "name": "_sellerFee",
          "type": "uint256"
        },
        {
          "internalType": "uint256",
          "name": "_buyerFee",
          "type": "uint256"
        }
      ],
      "name": "initialize",
      "outputs": [],
      "stateMutability": "nonpayable",
      "type": "function"
    },
    {
      "inputs": [
        {
          "components": [
            {
              "internalType": "bytes32",
              "name": "uuid",
              "type": "bytes32"
            },
            {
              "components": [
                {
                  "internalType": "address",
                  "name": "token",
                  "type": "address"
                },
                {
                  "internalType": "uint256",
                  "name": "amount",
                  "type": "uint256"
                }
              ],
              "internalType": "struct IAtomicSwapBase.Coin",
              "name": "sellToken",
              "type": "tuple"
            },
            {
              "components": [
                {
                  "internalType": "address",
                  "name": "token",
                  "type": "address"
                },
                {
                  "internalType": "uint256",
                  "name": "amount",
                  "type": "uint256"
                }
              ],
              "internalType": "struct IAtomicSwapBase.Coin",
              "name": "buyToken",
              "type": "tuple"
            },
            {
              "internalType": "address",
              "name": "maker",
              "type": "address"
            },
            {
              "internalType": "address",
              "name": "desiredTaker",
              "type": "address"
            },
            {
              "internalType": "uint256",
              "name": "minBidAmount",
              "type": "uint256"
            },
            {
              "internalType": "uint256",
              "name": "expireAt",
              "type": "uint256"
            },
            {
              "internalType": "bool",
              "name": "acceptBid",
              "type": "bool"
            }
          ],
          "internalType": "struct IAtomicSwapBase.MakeSwapMsg",
          "name": "makeswap",
          "type": "tuple"
        }
      ],
      "name": "makeSwap",
      "outputs": [
        {
          "internalType": "bytes32",
          "name": "",
          "type": "bytes32"
        }
      ],
      "stateMutability": "payable",
      "type": "function"
    },
    {
      "inputs": [
        {
          "components": [
            {
              "internalType": "bytes32",
              "name": "uuid",
              "type": "bytes32"
            },
            {
              "components": [
                {
                  "internalType": "address",
                  "name": "token",
                  "type": "address"
                },
                {
                  "internalType": "uint256",
                  "name": "amount",
                  "type": "uint256"
                }
              ],
              "internalType": "struct IAtomicSwapBase.Coin",
              "name": "sellToken",
              "type": "tuple"
            },
            {
              "components": [
                {
                  "internalType": "address",
                  "name": "token",
                  "type": "address"
                },
                {
                  "internalType": "uint256",
                  "name": "amount",
                  "type": "uint256"
                }
              ],
              "internalType": "struct IAtomicSwapBase.Coin",
              "name": "buyToken",
              "type": "tuple"
            },
            {
              "internalType": "address",
              "name": "maker",
              "type": "address"
            },
            {
              "internalType": "address",
              "name": "desiredTaker",
              "type": "address"
            },
            {
              "internalType": "uint256",
              "name": "minBidAmount",
              "type": "uint256"
            },
            {
              "internalType": "uint256",
              "name": "expireAt",
              "type": "uint256"
            },
            {
              "internalType": "bool",
              "name": "acceptBid",
              "type": "bool"
            }
          ],
          "internalType": "struct IAtomicSwapBase.MakeSwapMsg",
          "name": "makeswap",
          "type": "tuple"
        },
        {
          "components": [
            {
              "internalType": "uint256",
              "name": "durationInHours",
              "type": "uint256"
            },
            {
              "internalType": "uint256",
              "name": "percentage",
              "type": "uint256"
            }
          ],
          "internalType": "struct IAtomicSwapBase.Release[]",
          "name": "releases",
          "type": "tuple[]"
        }
      ],
      "name": "makeSwapWithVesting",
      "outputs": [],
      "stateMutability": "payable",
      "type": "function"
    },
    {
      "inputs": [],
      "name": "owner",
      "outputs": [
        {
          "internalType": "address",
          "name": "",
          "type": "address"
        }
      ],
      "stateMutability": "view",
      "type": "function"
    },
    {
      "inputs": [
        {
          "components": [
            {
              "internalType": "uint256",
              "name": "bidAmount",
              "type": "uint256"
            },
            {
              "internalType": "address",
              "name": "bidder",
              "type": "address"
            },
            {
              "internalType": "bytes32",
              "name": "orderID",
              "type": "bytes32"
            },
            {
              "internalType": "uint256",
              "name": "expireTimestamp",
              "type": "uint256"
            }
          ],
          "internalType": "struct IAtomicSwapBase.PlaceBidMsg",
          "name": "placeBidMsg",
          "type": "tuple"
        }
      ],
      "name": "placeBid",
      "outputs": [],
      "stateMutability": "payable",
      "type": "function"
    },
    {
      "inputs": [],
      "name": "renounceOwnership",
      "outputs": [],
      "stateMutability": "nonpayable",
      "type": "function"
    },
    {
      "inputs": [],
      "name": "sellerFeeRate",
      "outputs": [
        {
          "internalType": "uint256",
          "name": "",
          "type": "uint256"
        }
      ],
      "stateMutability": "view",
      "type": "function"
    },
    {
      "inputs": [
        {
          "internalType": "bytes32",
          "name": "",
          "type": "bytes32"
        }
      ],
      "name": "swapOrder",
      "outputs": [
        {
          "internalType": "bytes32",
          "name": "id",
          "type": "bytes32"
        },
        {
          "internalType": "enum IAtomicSwapBase.OrderStatus",
          "name": "status",
          "type": "uint8"
        },
        {
          "internalType": "address",
          "name": "maker",
          "type": "address"
        },
        {
          "components": [
            {
              "internalType": "address",
              "name": "token",
              "type": "address"
            },
            {
              "internalType": "uint256",
              "name": "amount",
              "type": "uint256"
            }
          ],
          "internalType": "struct IAtomicSwapBase.Coin",
          "name": "sellToken",
          "type": "tuple"
        },
        {
          "internalType": "address",
          "name": "taker",
          "type": "address"
        },
        {
          "components": [
            {
              "internalType": "address",
              "name": "token",
              "type": "address"
            },
            {
              "internalType": "uint256",
              "name": "amount",
              "type": "uint256"
            }
          ],
          "internalType": "struct IAtomicSwapBase.Coin",
          "name": "buyToken",
          "type": "tuple"
        },
        {
          "internalType": "uint256",
          "name": "minBidAmount",
          "type": "uint256"
        },
        {
          "internalType": "uint256",
          "name": "createdAt",
          "type": "uint256"
        },
        {
          "internalType": "uint256",
          "name": "canceledAt",
          "type": "uint256"
        },
        {
          "internalType": "uint256",
          "name": "completedAt",
          "type": "uint256"
        },
        {
          "internalType": "uint256",
          "name": "expiredAt",
          "type": "uint256"
        },
        {
          "internalType": "bool",
          "name": "acceptBid",
          "type": "bool"
        }
      ],
      "stateMutability": "view",
      "type": "function"
    },
    {
      "inputs": [
        {
          "internalType": "bytes32",
          "name": "",
          "type": "bytes32"
        },
        {
          "internalType": "uint256",
          "name": "",
          "type": "uint256"
        }
      ],
      "name": "swapOrderVestingParams",
      "outputs": [
        {
          "internalType": "uint256",
          "name": "durationInHours",
          "type": "uint256"
        },
        {
          "internalType": "uint256",
          "name": "percentage",
          "type": "uint256"
        }
      ],
      "stateMutability": "view",
      "type": "function"
    },
    {
      "inputs": [
        {
          "components": [
            {
              "internalType": "bytes32",
              "name": "orderID",
              "type": "bytes32"
            },
            {
              "internalType": "address",
              "name": "takerReceiver",
              "type": "address"
            }
          ],
          "internalType": "struct IAtomicSwapBase.TakeSwapMsg",
          "name": "takeswapMsg",
          "type": "tuple"
        }
      ],
      "name": "takeSwap",
      "outputs": [],
      "stateMutability": "payable",
      "type": "function"
    },
    {
      "inputs": [
        {
          "internalType": "address",
          "name": "newOwner",
          "type": "address"
        }
      ],
      "name": "transferOwnership",
      "outputs": [],
      "stateMutability": "nonpayable",
      "type": "function"
    },
    {
      "inputs": [
        {
          "components": [
            {
              "internalType": "bytes32",
              "name": "orderID",
              "type": "bytes32"
            },
            {
              "internalType": "address",
              "name": "bidder",
              "type": "address"
            },
            {
              "internalType": "uint256",
              "name": "addition",
              "type": "uint256"
            }
          ],
          "internalType": "struct IAtomicSwapBase.UpdateBidMsg",
          "name": "updateBidMsg",
          "type": "tuple"
        }
      ],
      "name": "updateBid",
      "outputs": [],
      "stateMutability": "payable",
      "type": "function"
    }
  ],
  "bytecode": "0x608060405234801561001057600080fd5b506170cb80620000216000396000f3fe6080604052600436106101095760003560e01c806389f6819011610095578063a743a3d011610064578063a743a3d0146102f7578063d2a2528314610334578063df7cec2814610364578063f2fde38b14610380578063fca6caa1146103a957610109565b806389f681901461023a5780638d6cb1c4146102655780638da5cb5b146102a3578063a6b63eb8146102ce57610109565b806337be0022116100dc57806337be00221461017e5780633d9bd2fc1461019a57806353f10c80146101b657806366e929bf146101e1578063715018a61461022357610109565b8063022066611461010e57806306be619c1461012a57806316b50a82146101465780632b2b651114610162575b600080fd5b610128600480360381019061012391906159ef565b6103f1565b005b610144600480360381019061013f9190615a3b565b610ef8565b005b610160600480360381019061015b9190615a87565b6115f3565b005b61017c60048036038101906101779190615b39565b611f7b565b005b61019860048036038101906101939190615bba565b612186565b005b6101b460048036038101906101af9190615c06565b612a1c565b005b3480156101c257600080fd5b506101cb6133b4565b6040516101d89190615c4c565b60405180910390f35b3480156101ed57600080fd5b5061020860048036038101906102039190615cfb565b6133ba565b60405161021a96959493929190615dd0565b60405180910390f35b34801561022f57600080fd5b50610238613430565b005b34801561024657600080fd5b5061024f613444565b60405161025c9190615c4c565b60405180910390f35b34801561027157600080fd5b5061028c60048036038101906102879190615e5d565b61344a565b60405161029a929190615e9d565b60405180910390f35b3480156102af57600080fd5b506102b861348b565b6040516102c59190615ec6565b60405180910390f35b3480156102da57600080fd5b506102f560048036038101906102f09190615ee1565b6134c3565b005b34801561030357600080fd5b5061031e60048036038101906103199190615cfb565b6139a4565b60405161032b9190615c4c565b60405180910390f35b61034e60048036038101906103499190615f5c565b6139c9565b60405161035b9190615f8a565b60405180910390f35b61037e60048036038101906103799190615fa5565b613f3d565b005b34801561038c57600080fd5b506103a760048036038101906103a29190615fd2565b614690565b005b3480156103b557600080fd5b506103d060048036038101906103cb9190615fa5565b614716565b6040516103e89c9b9a999897969594939291906160af565b60405180910390f35b61040567d0bf00c1792d40ed60c01b6148a4565b61040d6148a7565b6104216741131361520dc83860c01b6148a4565b61043567051769b3a130091360c01b6148a4565b806000013561044e6718b2b56d066efd0460c01b6148fe565b610462677b1b1ffa8fad79b160c01b6148fe565b610476673d390455bb90840360c01b6148fe565b6000801b60008083815260200190815260200160002060000154036104ef576104a967ced22d93201b06d560c01b6148fe565b6104bd67d22590866453aff260c01b6148fe565b6040517f5dcaf2d700000000000000000000000000000000000000000000000000000000815260040160405180910390fd5b610503670393a760c180511460c01b6148fe565b61051767f3c8792634af115160c01b6148fe565b61052b67a325ae24c282764960c01b6148a4565b61053f67a4f8d042fec04de960c01b6148a4565b8160000135610558670eda633c5957d32560c01b6148fe565b61056b66b27eacc416f22760c01b6148fe565b61057f678f4cfc2cf3bc047260c01b6148fe565b6000600381111561059357610592615d4a565b5b60008083815260200190815260200160002060010160009054906101000a900460ff1660038111156105c8576105c7615d4a565b5b14610627576105e1672751150a072430c360c01b6148fe565b6105f567ff8a6ca70a79579560c01b6148fe565b6040517fd4dbb56500000000000000000000000000000000000000000000000000000000815260040160405180910390fd5b61063b677b692b2024257bf960c01b6148fe565b61064f679c2db1f7fadbaa6b60c01b6148fe565b6106636794e22098725becec60c01b6148a4565b61067767e2de7f3e5d52572260c01b6148a4565b61068b67d443756cc97b32f560c01b6148a4565b61069f67a3cbeec13d01c84860c01b6148a4565b6000836000013590506106bc67f4150bb08655820d60c01b6148a4565b6106d067cf6dfb6cd4d10e0260c01b6148a4565b60008460200160208101906106e59190615fd2565b90506106fb6780ebef31e4e6ba2a60c01b6148a4565b61070f67c4475553bde7739d60c01b6148a4565b600073ffffffffffffffffffffffffffffffffffffffff163373ffffffffffffffffffffffffffffffffffffffff160361079d57610757671b4f064c65d0216b60c01b6148a4565b61076b67a5798ce345515b7260c01b6148a4565b6040517f0809490800000000000000000000000000000000000000000000000000000000815260040160405180910390fd5b6107b1677544fa9b7b875ca560c01b6148a4565b6107c567c2f055178eb43e1f60c01b6148a4565b6107d9672ca0eef88cb36d7160c01b6148a4565b60008060008481526020019081526020016000209050610803671c0c8536619ecac960c01b6148a4565b61081767391f0bf8a037b78a60c01b6148a4565b80600c0160009054906101000a900460ff16610887576108416710155da097332f1360c01b6148a4565b6108556737c29655cbf1ee3f60c01b6148a4565b6040517f3c24fafc00000000000000000000000000000000000000000000000000000000815260040160405180910390fd5b61089b672081906feee4cba860c01b6148a4565b6108af67abdc4e47ffa0c12f60c01b6148a4565b6108c3674159af82466fb43960c01b6148a4565b3373ffffffffffffffffffffffffffffffffffffffff168160010160019054906101000a900473ffffffffffffffffffffffffffffffffffffffff1673ffffffffffffffffffffffffffffffffffffffff16146109a55761092e677373d977d22a9f4760c01b6148a4565b61094267dd3048c400e15ee060c01b6148a4565b8060010160019054906101000a900473ffffffffffffffffffffffffffffffffffffffff16336040517f0500cb4c00000000000000000000000000000000000000000000000000000000815260040161099c92919061616b565b60405180910390fd5b6109b967f09e4410cbb6dc9b60c01b6148a4565b6109cd6781903fafc9b0549660c01b6148a4565b6109e167c65c34b16c4bc58960c01b6148a4565b60006002600085815260200190815260200160002060008473ffffffffffffffffffffffffffffffffffffffff1673ffffffffffffffffffffffffffffffffffffffff1681526020019081526020016000209050610a4967cacddef33c2a0b5f60c01b6148a4565b610a5d6792a3d2a17e3fca3160c01b6148a4565b600280811115610a7057610a6f615d4a565b5b8160020160009054906101000a900460ff166002811115610a9457610a93615d4a565b5b14610b0f57610aad679074a13349b3690460c01b6148a4565b610ac1678084f897133c813160c01b6148a4565b8060020160009054906101000a900460ff166040517f64b08c06000000000000000000000000000000000000000000000000000000008152600401610b069190616194565b60405180910390fd5b610b23676a4e27d2a25f2cce60c01b6148a4565b610b376722c4c84cd2d044c460c01b6148a4565b610b4b67606495f18cc3317960c01b6148a4565b4281600401541015610bc257610b6b672e7330e381e0c74560c01b6148a4565b610b7f6730d9611e9d33ebe860c01b6148a4565b8060040154426040517f1d355639000000000000000000000000000000000000000000000000000000008152600401610bb9929190615e9d565b60405180910390fd5b610bd667b9f51eb8ecd2c65c60c01b6148a4565b610bea67782ffdedbd78c27b60c01b6148a4565b60028260010160006101000a81548160ff02191690836003811115610c1257610c11615d4a565b5b0217905550610c2b671b956d944c8e556060c01b6148a4565b4282600a0181905550610c4867b220324b863638e660c01b6148a4565b828260040160006101000a81548173ffffffffffffffffffffffffffffffffffffffff021916908373ffffffffffffffffffffffffffffffffffffffff160217905550610c9f67658315a29ef8562460c01b6148a4565b60018160020160006101000a81548160ff02191690836002811115610cc757610cc6615d4a565b5b0217905550610ce067ef6313686a5b5c5e60c01b6148a4565b610cf46770f4da16b05d67ce60c01b6148a4565b610d22828260020160019054906101000a900473ffffffffffffffffffffffffffffffffffffffff16614901565b610d3667c838b360cd1e759760c01b6148a4565b610d4a67f14af97c1ce2cff960c01b6148a4565b6000826005019050610d66673738b8a4bde21f2860c01b6148a4565b610d7a6790298997a41a07c860c01b6148a4565b8060000160009054906101000a900473ffffffffffffffffffffffffffffffffffffffff1673ffffffffffffffffffffffffffffffffffffffff1673__$b9ebb88af43d68d18cc83c52d00a91a1a0$__6306cf228090918560010160019054906101000a900473ffffffffffffffffffffffffffffffffffffffff168560000154600554612710600460009054906101000a900473ffffffffffffffffffffffffffffffffffffffff166040518763ffffffff1660e01b8152600401610e45969594939291906161cd565b60006040518083038186803b158015610e5d57600080fd5b505af4158015610e71573d6000803e3d6000fd5b50505050610e8967dc0e94579a5d40d560c01b6148a4565b610e9d6720a071292efbcc4b60c01b6148a4565b81600001548473ffffffffffffffffffffffffffffffffffffffff16867fadd1d5b6c827fee45fa32e72964c9d43d2191c9b8b083889fb2e3f468c71856860405160405180910390a450505050505050610ef5615149565b50565b610f0c67646a0a7eac9ab01260c01b6148a4565b610f146148a7565b610f2867b07866ce9fcdc8c460c01b6148a4565b610f3c678d2433a5a7ab958660c01b6148a4565b8060000135610f556718b2b56d066efd0460c01b6148fe565b610f69677b1b1ffa8fad79b160c01b6148fe565b610f7d673d390455bb90840360c01b6148fe565b6000801b6000808381526020019081526020016000206000015403610ff657610fb067ced22d93201b06d560c01b6148fe565b610fc467d22590866453aff260c01b6148fe565b6040517f5dcaf2d700000000000000000000000000000000000000000000000000000000815260040160405180910390fd5b61100a670393a760c180511460c01b6148fe565b61101e67f3c8792634af115160c01b6148fe565b6110326794375fea9d9797f460c01b6148a4565b61104667a96c77943382d1e560c01b6148a4565b816000013561105f670eda633c5957d32560c01b6148fe565b61107266b27eacc416f22760c01b6148fe565b611086678f4cfc2cf3bc047260c01b6148fe565b6000600381111561109a57611099615d4a565b5b60008083815260200190815260200160002060010160009054906101000a900460ff1660038111156110cf576110ce615d4a565b5b1461112e576110e8672751150a072430c360c01b6148fe565b6110fc67ff8a6ca70a79579560c01b6148fe565b6040517fd4dbb56500000000000000000000000000000000000000000000000000000000815260040160405180910390fd5b611142677b692b2024257bf960c01b6148fe565b611156679c2db1f7fadbaa6b60c01b6148fe565b61116a67bf02043c13cecc7360c01b6148a4565b61117e673fe33d544debadfb60c01b6148a4565b611192676a02ef725ea5e54b60c01b6148a4565b6111a667374200f7dec080df60c01b6148a4565b828036038101906111b7919061630f565b73__$2effe1973215a034e8e4a17bdeb5710028$__63c27eeaac90916040518263ffffffff1660e01b81526004016111ef9190616389565b60006040518083038186803b15801561120757600080fd5b505af415801561121b573d6000803e3d6000fd5b50505050611233675cf4216133821af660c01b6148a4565b61124767a06413b2aa0717df60c01b6148a4565b600080600085600001358152602001908152602001600020905061127567209190453734d84d60c01b6148a4565b6112896771e9de9809a980f360c01b6148a4565b8073__$2effe1973215a034e8e4a17bdeb5710028$__637aa10b6a90916040518263ffffffff1660e01b81526004016112c291906163ab565b60006040518083038186803b1580156112da57600080fd5b505af41580156112ee573d6000803e3d6000fd5b505050506113066707e122f013ae9e5460c01b6148a4565b60028160010160006101000a81548160ff0219169083600381111561132e5761132d615d4a565b5b021790555061134767c3e64c00449e762960c01b6148a4565b4281600a018190555061136467062c856a1794c18860c01b6148a4565b338160040160006101000a81548173ffffffffffffffffffffffffffffffffffffffff021916908373ffffffffffffffffffffffffffffffffffffffff1602179055506113bb6775f23668df49323360c01b6148a4565b6113cf677137c4eba8c93fc860c01b6148a4565b6113eb818560200160208101906113e69190615fd2565b614901565b6113ff6759d71b965760e10460c01b6148a4565b61141367e9e8483d238e7ead60c01b6148a4565b8060050160000160009054906101000a900473ffffffffffffffffffffffffffffffffffffffff1673ffffffffffffffffffffffffffffffffffffffff1673__$b9ebb88af43d68d18cc83c52d00a91a1a0$__638dbb76c79091338460010160019054906101000a900473ffffffffffffffffffffffffffffffffffffffff168560050160010154600554612710600460009054906101000a900473ffffffffffffffffffffffffffffffffffffffff166040518863ffffffff1660e01b81526004016114e697969594939291906163c6565b60006040518083038186803b1580156114fe57600080fd5b505af4158015611512573d6000803e3d6000fd5b5050505061152a67dd436bad902d9cb060c01b6148a4565b61153e676ccf221387ceeede60c01b6148a4565b83600001358160040160009054906101000a900473ffffffffffffffffffffffffffffffffffffffff1673ffffffffffffffffffffffffffffffffffffffff168260010160019054906101000a900473ffffffffffffffffffffffffffffffffffffffff1673ffffffffffffffffffffffffffffffffffffffff167f6bf7309f141d1b44e414f1fc04d98491cd0acf98f0f1e5ad885d0a7ce164e6fa60405160405180910390a45050506115f0615149565b50565b611607672dd0808e6e0c6da460c01b6148a4565b61160f6148a7565b61162367455b629632de90e760c01b6148a4565b61163767ac888138488b25d260c01b6148a4565b80604001356116506718b2b56d066efd0460c01b6148fe565b611664677b1b1ffa8fad79b160c01b6148fe565b611678673d390455bb90840360c01b6148fe565b6000801b60008083815260200190815260200160002060000154036116f1576116ab67ced22d93201b06d560c01b6148fe565b6116bf67d22590866453aff260c01b6148fe565b6040517f5dcaf2d700000000000000000000000000000000000000000000000000000000815260040160405180910390fd5b611705670393a760c180511460c01b6148fe565b61171967f3c8792634af115160c01b6148fe565b61172d677c79f9e85533815460c01b6148a4565b6117416756d468b1b6f7909c60c01b6148a4565b816040013561175a670eda633c5957d32560c01b6148fe565b61176d66b27eacc416f22760c01b6148fe565b611781678f4cfc2cf3bc047260c01b6148fe565b6000600381111561179557611794615d4a565b5b60008083815260200190815260200160002060010160009054906101000a900460ff1660038111156117ca576117c9615d4a565b5b14611829576117e3672751150a072430c360c01b6148fe565b6117f767ff8a6ca70a79579560c01b6148fe565b6040517fd4dbb56500000000000000000000000000000000000000000000000000000000815260040160405180910390fd5b61183d677b692b2024257bf960c01b6148fe565b611851679c2db1f7fadbaa6b60c01b6148fe565b61186567a2c9b54293d9410460c01b6148a4565b611879674eddcf2b066d2c9c60c01b6148a4565b61188d67ea861f008d85870d60c01b6148a4565b6118a167c8e19fdcf10a1deb60c01b6148a4565b6000836040013590506118be67410dfeb9cf7df6f060c01b6148a4565b6118d267a8abc1650d33634260c01b6148a4565b6000846000013590506118ef678ab20d83c39bf36860c01b6148a4565b61190367365528b7f62aa72a60c01b6148a4565b3373ffffffffffffffffffffffffffffffffffffffff1685602001602081019061192d9190615fd2565b73ffffffffffffffffffffffffffffffffffffffff16146119a25761195c679da819e71799765660c01b6148a4565b61197067ce040bbd6d42a02860c01b6148a4565b6040517f8294ac0200000000000000000000000000000000000000000000000000000000815260040160405180910390fd5b6119b667c3e2fa4ac33fc54960c01b6148a4565b6119ca678d5208fb0d883b3260c01b6148a4565b6119de6770e8282a3cadb94960c01b6148a4565b60006002600084815260200190815260200160002060003373ffffffffffffffffffffffffffffffffffffffff1673ffffffffffffffffffffffffffffffffffffffff1681526020019081526020016000209050611a46678a9d19c71594a71b60c01b6148a4565b611a5a67d9f87fddb10e892660c01b6148a4565b600073ffffffffffffffffffffffffffffffffffffffff168160020160019054906101000a900473ffffffffffffffffffffffffffffffffffffffff1673ffffffffffffffffffffffffffffffffffffffff1614611b0c57611ac66776856ccddb475a0960c01b6148a4565b611ada670c713aeb8c3af4a160c01b6148a4565b6040517fb8cee9f000000000000000000000000000000000000000000000000000000000815260040160405180910390fd5b611b2067afeb9db8af7c398a60c01b6148a4565b611b3467535173e8b8b7e55360c01b6148a4565b611b4867ea88106dce1cde7f60c01b6148a4565b6000806000886040013581526020019081526020016000209050611b7667b2c03f0ab6a1468460c01b6148a4565b611b8a67a803f369164aa0f060c01b6148a4565b806007015483108015611bad5750611bac67bfa3a31130718e2f60c01b615162565b5b80611bda5750806005016001015483118015611bd95750611bd867a253b2f1aace406960c01b615162565b5b5b15611c4457611bf3674cbbeadaf7271e0660c01b6148a4565b611c0767d413534d79b931a860c01b6148a4565b826040517fd9cf167e000000000000000000000000000000000000000000000000000000008152600401611c3b9190615c4c565b60405180910390fd5b611c5867678f81d9cc7cc94460c01b6148a4565b611c6c67a930989659668de260c01b6148a4565b611c806722d82c801c12286060c01b6148a4565b60008060008681526020019081526020016000206005019050611cad672fd906fb9242db3b60c01b6148a4565b611cc167b314c0875a53c41b60c01b6148a4565b600073ffffffffffffffffffffffffffffffffffffffff168160000160009054906101000a900473ffffffffffffffffffffffffffffffffffffffff1673ffffffffffffffffffffffffffffffffffffffff1614611dab57611d2d67b650437c76b059c160c01b6148a4565b611d41670df1ee6378cd0a6a60c01b6148a4565b611d5567099fdd7c3b212bc760c01b6148a4565b611da63330868460000160009054906101000a900473ffffffffffffffffffffffffffffffffffffffff1673ffffffffffffffffffffffffffffffffffffffff1661516d909392919063ffffffff16565b611e68565b611dbf67f3414a9338faee9b60c01b6148a4565b611dd3671f27555de3b89bcb60c01b6148a4565b611de767aaaa8bb2ac21158060c01b6148a4565b833414611e5357611e02675a42329805cec5f360c01b6148a4565b611e16674f6a0c5f6b8265ec60c01b6148a4565b346040517fd9cf167e000000000000000000000000000000000000000000000000000000008152600401611e4a9190615c4c565b60405180910390fd5b611e67676255efe214d8c0a460c01b6148a4565b5b611e7c67c27f2c2e685ec09960c01b6148a4565b611e90671eabd5f91bf9c66260c01b6148a4565b600273__$8ad05547f64aebe22f2eafad9eff5b91dd$__63cc76f93190918a6040518363ffffffff1660e01b8152600401611ecc929190616505565b60006040518083038186803b158015611ee457600080fd5b505af4158015611ef8573d6000803e3d6000fd5b50505050611f10676528f0ab53a538b460c01b6148a4565b611f2467d2101210bf2ae5bd60c01b6148a4565b833373ffffffffffffffffffffffffffffffffffffffff16867f1126836d9a6f07e69d20f7ac2db448d68d9bb24718d7e8e0e85b8cfd96bb04c160405160405180910390a450505050505050611f78615149565b50565b611f8f67ce9087907282a68460c01b6148a4565b611fa3678d954271e70dadae60c01b6148a4565b611fb76722a9d3d96ab55bf860c01b6148a4565b8181808060200260200160405190810160405280939291908181526020016000905b8282101561200957848483905060400201803603810190611ffa919061657e565b81526020019060010190611fd9565b505050505073__$2effe1973215a034e8e4a17bdeb5710028$__6333b988f590916040518263ffffffff1660e01b81526004016120469190616689565b60006040518083038186803b15801561205e57600080fd5b505af4158015612072573d6000803e3d6000fd5b5050505061208a6748227621688037c760c01b6148a4565b61209e677df8e58611adf56a60c01b6148a4565b60006120a9846139c9565b90506120bf67f00a9c605f3ef2c360c01b6148a4565b6120d367a73669620288b8f260c01b6148a4565b60005b8383905081101561217f576120f5676329bf9640f8f08a60c01b6148a4565b612109671e15a4d732537f1a60c01b6148a4565b6001600083815260200190815260200160002084848381811061212f5761212e6166ab565b5b9050604002019080600181540180825580915050600190039060005260206000209060020201600090919091909150818161216a91906167de565b505080806121779061681b565b9150506120d6565b5050505050565b61219a6703ed96c3a68265ba60c01b6148a4565b6121a26148a7565b6121b667d313b35957bee3ad60c01b6148a4565b6121ca6782fcf0e8c22b7b5060c01b6148a4565b80600001356121e36718b2b56d066efd0460c01b6148fe565b6121f7677b1b1ffa8fad79b160c01b6148fe565b61220b673d390455bb90840360c01b6148fe565b6000801b60008083815260200190815260200160002060000154036122845761223e67ced22d93201b06d560c01b6148fe565b61225267d22590866453aff260c01b6148fe565b6040517f5dcaf2d700000000000000000000000000000000000000000000000000000000815260040160405180910390fd5b612298670393a760c180511460c01b6148fe565b6122ac67f3c8792634af115160c01b6148fe565b6122c067385e47df83f1d27b60c01b6148a4565b6122d467843952e25a7dab9660c01b6148a4565b81600001356122ed670eda633c5957d32560c01b6148fe565b61230066b27eacc416f22760c01b6148fe565b612314678f4cfc2cf3bc047260c01b6148fe565b6000600381111561232857612327615d4a565b5b60008083815260200190815260200160002060010160009054906101000a900460ff16600381111561235d5761235c615d4a565b5b146123bc57612376672751150a072430c360c01b6148fe565b61238a67ff8a6ca70a79579560c01b6148fe565b6040517fd4dbb56500000000000000000000000000000000000000000000000000000000815260040160405180910390fd5b6123d0677b692b2024257bf960c01b6148fe565b6123e4679c2db1f7fadbaa6b60c01b6148fe565b6123f867387789a212b0301160c01b6148a4565b61240c6764b70b912814edce60c01b6148a4565b612420677b1f747e9a04d15160c01b6148a4565b612434676aab34cd2df0054160c01b6148a4565b6000806000856000013581526020019081526020016000209050612462672a3f0ece6c488b7a60c01b6148a4565b61247667bfdd02046512d09060c01b6148a4565b8073__$2effe1973215a034e8e4a17bdeb5710028$__63c3aee15d90916040518263ffffffff1660e01b81526004016124af91906163ab565b60006040518083038186803b1580156124c757600080fd5b505af41580156124db573d6000803e3d6000fd5b505050506124f3675f2fabd197c8c76a60c01b6148a4565b60018160010160006101000a81548160ff0219169083600381111561251b5761251a615d4a565b5b02179055506125346765ee3f064d7c647660c01b6148a4565b61254867f4cd75b31b4f70b160c01b6148a4565b600073ffffffffffffffffffffffffffffffffffffffff168160020160000160009054906101000a900473ffffffffffffffffffffffffffffffffffffffff1673ffffffffffffffffffffffffffffffffffffffff1603612707576125b76762d267737cd4c4cd60c01b6148a4565b6125cb67ef15637af2847a0360c01b6148a4565b6125df67b17f5f30815462b360c01b6148a4565b60003373ffffffffffffffffffffffffffffffffffffffff16826002016001015460405161260c90616894565b60006040518083038185875af1925050503d8060008114612649576040519150601f19603f3d011682016040523d82523d6000602084013e61264e565b606091505b505090506126666766c1b04161f4c1ba60c01b6148a4565b61267a67f3359540dd19c77760c01b6148a4565b806126ed57612693678d2420e5dba9563560c01b6148a4565b6126a767537ab3c574169e1a60c01b6148a4565b3382600201600101546040517f1c43b9760000000000000000000000000000000000000000000000000000000081526004016126e49291906168a9565b60405180910390fd5b61270167901988a20e2c21cc60c01b6148a4565b50612876565b61271b67d07f4234764f5f2060c01b6148a4565b61272f671a3b51255728789660c01b6148a4565b61274367751e348c8fe879a260c01b6148a4565b8060020160000160009054906101000a900473ffffffffffffffffffffffffffffffffffffffff1673ffffffffffffffffffffffffffffffffffffffff1663a9059cbb3383600201600101546040518363ffffffff1660e01b81526004016127ac9291906168a9565b6020604051808303816000875af11580156127cb573d6000803e3d6000fd5b505050506040513d601f19601f820116820180604052508101906127ef91906168fe565b6128615761280767162783963c6c9e9860c01b6148a4565b61281b67a028eaad005b74d260c01b6148a4565b3381600201600101546040517f1c43b9760000000000000000000000000000000000000000000000000000000081526004016128589291906168a9565b60405180910390fd5b612875676055b550faabc7ac60c01b6148a4565b5b61288a6726e7a008f34e74d060c01b6148a4565b600080856000013581526020019081526020016000206000808201600090556001820160006101000a81549060ff02191690556001820160016101000a81549073ffffffffffffffffffffffffffffffffffffffff021916905560028201600080820160006101000a81549073ffffffffffffffffffffffffffffffffffffffff0219169055600182016000905550506004820160006101000a81549073ffffffffffffffffffffffffffffffffffffffff021916905560058201600080820160006101000a81549073ffffffffffffffffffffffffffffffffffffffff021916905560018201600090555050600782016000905560088201600090556009820160009055600a820160009055600b820160009055600c820160006101000a81549060ff021916905550506129c967ac35b23d4bb95c4660c01b6148a4565b6129dd6710732507d2e974ae60c01b6148a4565b83600001357ff68aeec8f55d67a9b2cf2b6caea31e11f2c14e09da250170575d63911f26aa6e60405160405180910390a2505050612a19615149565b50565b612a306774637de69896439b60c01b6148a4565b612a386148a7565b612a4c67015cdac4efde4df560c01b6148a4565b612a60671eeecc04654a5d0160c01b6148a4565b8060000135612a796718b2b56d066efd0460c01b6148fe565b612a8d677b1b1ffa8fad79b160c01b6148fe565b612aa1673d390455bb90840360c01b6148fe565b6000801b6000808381526020019081526020016000206000015403612b1a57612ad467ced22d93201b06d560c01b6148fe565b612ae867d22590866453aff260c01b6148fe565b6040517f5dcaf2d700000000000000000000000000000000000000000000000000000000815260040160405180910390fd5b612b2e670393a760c180511460c01b6148fe565b612b4267f3c8792634af115160c01b6148fe565b612b5667c6949bfb4dee560a60c01b6148a4565b612b6a6779d84f728abfdc3760c01b6148a4565b8160000135612b83670eda633c5957d32560c01b6148fe565b612b9666b27eacc416f22760c01b6148fe565b612baa678f4cfc2cf3bc047260c01b6148fe565b60006003811115612bbe57612bbd615d4a565b5b60008083815260200190815260200160002060010160009054906101000a900460ff166003811115612bf357612bf2615d4a565b5b14612c5257612c0c672751150a072430c360c01b6148fe565b612c2067ff8a6ca70a79579560c01b6148fe565b6040517fd4dbb56500000000000000000000000000000000000000000000000000000000815260040160405180910390fd5b612c66677b692b2024257bf960c01b6148fe565b612c7a679c2db1f7fadbaa6b60c01b6148fe565b612c8e67f9f8ac5c9049ecd860c01b6148a4565b612ca2676ef653f009e4b76160c01b6148a4565b612cb667c657d1ec6b1bff8e60c01b6148a4565b612cca67fe911d7a16e18c2f60c01b6148a4565b600083600001359050612ce767b5319f3b2b377c8560c01b6148a4565b612cfb678ac53a7779bc6f9e60c01b6148a4565b600084604001359050612d1867b23160e9878309b060c01b6148a4565b612d2c6721c3c278f715f6b660c01b6148a4565b60006002600084815260200190815260200160002060003373ffffffffffffffffffffffffffffffffffffffff1673ffffffffffffffffffffffffffffffffffffffff1681526020019081526020016000209050612d9467e312a9233fedbc6e60c01b6148a4565b612da8677660eed4805c369860c01b6148a4565b600073ffffffffffffffffffffffffffffffffffffffff168160020160019054906101000a900473ffffffffffffffffffffffffffffffffffffffff1673ffffffffffffffffffffffffffffffffffffffff1603612e5a57612e14673eecd1228570d3c960c01b6148a4565b612e2867e6d73e60f45d7a2260c01b6148a4565b6040517f0a0c23ee00000000000000000000000000000000000000000000000000000000815260040160405180910390fd5b612e6e67c4bea124c123092960c01b6148a4565b612e8267b7dc7034e24ac0d460c01b6148a4565b612e96677eb1ba951ffdc6f260c01b6148a4565b60008060008581526020019081526020016000209050612ec06792d55b8925ffb1ea60c01b6148a4565b612ed467057e0a20cba7146860c01b6148a4565b600280811115612ee757612ee6615d4a565b5b8260020160009054906101000a900460ff166002811115612f0b57612f0a615d4a565b5b14612f6a57612f2467466652a8688740b660c01b6148a4565b612f3867109052eac5a01c8560c01b6148a4565b6040517f0a0c23ee00000000000000000000000000000000000000000000000000000000815260040160405180910390fd5b612f7e6758acc236735ca11b60c01b6148a4565b612f9267fb4123e70da0845960c01b6148a4565b612fa6678007d56358504e6d60c01b6148a4565b6000830361301357612fc267f258cd330050097160c01b6148a4565b612fd667d0a62d90a6ae488060c01b6148a4565b826040517fd9cf167e00000000000000000000000000000000000000000000000000000000815260040161300a9190615c4c565b60405180910390fd5b613027676bc05460abd755a260c01b6148a4565b61303b67cc4dc18f451da87b60c01b6148a4565b8282600001600082825461304f919061692b565b9250508190555061306a67ff1393ee36026bac60c01b6148a4565b61307e677f2a5e6f0bf8260260c01b6148a4565b8060050160010154826000015411156130fa576130a567202ab95f4d52101e60c01b6148a4565b6130b9675cec281e1a16fd5060c01b6148a4565b81600001546040517fd9cf167e0000000000000000000000000000000000000000000000000000000081526004016130f19190615c4c565b60405180910390fd5b61310e67bf2363a7e8d5576760c01b6148a4565b61312267d79e378069d6211360c01b6148a4565b613136675b275f42a338b4a860c01b6148a4565b60008160050190506131526717feb67e06390fcb60c01b6148a4565b61316667c50103f1b0de532260c01b6148a4565b600073ffffffffffffffffffffffffffffffffffffffff168160000160009054906101000a900473ffffffffffffffffffffffffffffffffffffffff1673ffffffffffffffffffffffffffffffffffffffff1614613250576131d267fbc1096eba9a2d8160c01b6148a4565b6131e66768c7f0dd3aa166e760c01b6148a4565b6131fa6783f96f42d1f15e6a60c01b6148a4565b61324b3330868460000160009054906101000a900473ffffffffffffffffffffffffffffffffffffffff1673ffffffffffffffffffffffffffffffffffffffff1661516d909392919063ffffffff16565b61330d565b613264673724246bfe00da9460c01b6148a4565b6132786783b335c96527f80f60c01b6148a4565b61328c67728914ae443d71bc60c01b6148a4565b8334146132f8576132a767197e05024960a70260c01b6148a4565b6132bb678ca8179da9dd563d60c01b6148a4565b346040517fd9cf167e0000000000000000000000000000000000000000000000000000000081526004016132ef9190615c4c565b60405180910390fd5b61330c677c159bb9358322ba60c01b6148a4565b5b6133216740697e71584a127760c01b6148a4565b613335677c76ad0e6d1b2a0060c01b6148a4565b82600001548360020160019054906101000a900473ffffffffffffffffffffffffffffffffffffffff1673ffffffffffffffffffffffffffffffffffffffff16867f7786094a5edc61a0463300b9b97a1b22d338bc800ed33404ba9a3888b71de0fc60405160405180910390a4505050505050506133b1615149565b50565b60065481565b6002602052816000526040600020602052806000526040600020600091509150508060000154908060010154908060020160009054906101000a900460ff16908060020160019054906101000a900473ffffffffffffffffffffffffffffffffffffffff16908060030154908060040154905086565b613438615584565b613442600061560b565b565b60055481565b6001602052816000526040600020818154811061346657600080fd5b9060005260206000209060020201600091509150508060000154908060010154905082565b6000806134966156e2565b90508060000160009054906101000a900473ffffffffffffffffffffffffffffffffffffffff1691505090565b6134d7676b51d48d0d2d13f760c01b6148a4565b60006134e161570a565b905060008160000160089054906101000a900460ff1615905060008260000160009054906101000a900467ffffffffffffffff1690506000808267ffffffffffffffff1614801561352f5750825b9050600060018367ffffffffffffffff16148015613564575060003073ffffffffffffffffffffffffffffffffffffffff163b145b905081158015613572575080155b156135a9576040517ff92ee8a900000000000000000000000000000000000000000000000000000000815260040160405180910390fd5b60018560000160006101000a81548167ffffffffffffffff021916908367ffffffffffffffff16021790555083156135f95760018560000160086101000a81548160ff0219169083151502179055505b61360d6794766eb686279b3860c01b6148a4565b613621673f08cfc4675dd39f60c01b6148a4565b6136356754ec29f51a4ef24460c01b6148a4565b61364967d93e3a71c7e4cb7060c01b6148a4565b6136528a615732565b613666678317f6a0544a0bbb60c01b6148a4565b61367a674a7001c584c92e4f60c01b6148a4565b6127108711156136de5761369867015b409665da020860c01b6148a4565b6136ac6797fc258355aa705d60c01b6148a4565b6040517fce43144600000000000000000000000000000000000000000000000000000000815260040160405180910390fd5b6136f2671e4d5b5de0957a3d60c01b6148a4565b61370667daef7709e0cf717260c01b6148a4565b61371a673a23a4316c66533e60c01b6148a4565b61271086111561377e5761373867e3e1130ab7918a9b60c01b6148a4565b61374c6796b98bf965f4ae2660c01b6148a4565b6040517fb089e48e00000000000000000000000000000000000000000000000000000000815260040160405180910390fd5b6137926778ac3128ff8fad8960c01b6148a4565b6137a667dfe6c05f8bd5577260c01b6148a4565b6137ba67b2e99f05c20d184160c01b6148a4565b600073ffffffffffffffffffffffffffffffffffffffff168873ffffffffffffffffffffffffffffffffffffffff16036138485761380267116e38e876aa52b460c01b6148a4565b61381667633af4075bbc5d7460c01b6148a4565b6040517fcfe2ea6300000000000000000000000000000000000000000000000000000000815260040160405180910390fd5b61385c67742bf07af393c53760c01b6148a4565b6138706774d735ebba8d61ea60c01b6148a4565b8660058190555061388b674734665e957671b060c01b6148a4565b856006819055506138a6670e8c2be361098f6e60c01b6148a4565b87600460006101000a81548173ffffffffffffffffffffffffffffffffffffffff021916908373ffffffffffffffffffffffffffffffffffffffff1602179055506138fb678d070cedb8cc313860c01b6148a4565b88600360006101000a81548173ffffffffffffffffffffffffffffffffffffffff021916908373ffffffffffffffffffffffffffffffffffffffff16021790555083156139985760008560000160086101000a81548160ff0219169083151502179055507fc7f505b2f371ae2175ee4913f4499e1f2633a7b5936321eed1cdaeb6115181d2600160405161398f91906169ae565b60405180910390a15b50505050505050505050565b6007602052816000526040600020602052806000526040600020600091509150505481565b60006139df67dca691c83f9b6bbf60c01b6148a4565b6139e76148a7565b6139fb67713fc6b56321666160c01b6148a4565b613a0f677565c17ee7e9bd8260c01b6148a4565b613a23676a26f54c232a2dfd60c01b6148a4565b613a376798eb7131ca7a714f60c01b6148a4565b816060016000016020810190613a4d9190615fd2565b73ffffffffffffffffffffffffffffffffffffffff16826020016000016020810190613a799190615fd2565b73ffffffffffffffffffffffffffffffffffffffff1603613aed57613aa8674eab502d0f337a7860c01b6148a4565b613abb66a0e544cd3bd21760c01b6148a4565b6040517f45b3a4c700000000000000000000000000000000000000000000000000000000815260040160405180910390fd5b613b0167783582c27e91582160c01b6148a4565b613b1567a34041915d3f899860c01b6148a4565b613b29671041cbed47a2736a60c01b6148a4565b81803603810190613b3a9190616afa565b73__$2effe1973215a034e8e4a17bdeb5710028$__639a0ebe0090916040518263ffffffff1660e01b8152600401613b729190616c0a565b60006040518083038186803b158015613b8a57600080fd5b505af4158015613b9e573d6000803e3d6000fd5b50505050613bb667c86298fe2098bc5d60c01b6148a4565b613bca678e2737583fbe590d60c01b6148a4565b6000826000013573__$8ad05547f64aebe22f2eafad9eff5b91dd$__63d81ab44f9091306040518363ffffffff1660e01b8152600401613c0b929190616c35565b602060405180830381865af4158015613c28573d6000803e3d6000fd5b505050506040513d601f19601f82011682018060405250810190613c4c9190616c73565b9050613c626743e77caa3e6f2e7960c01b6148a4565b613c7667c9a4af9e0d54b91b60c01b6148a4565b600073__$8ad05547f64aebe22f2eafad9eff5b91dd$__632296d7e090918584336040518563ffffffff1660e01b8152600401613cb69493929190616dee565b60006040518083038186803b158015613cce57600080fd5b505af4158015613ce2573d6000803e3d6000fd5b50505050613cfa675bf7ae65a7987f7e60c01b6148a4565b613d0e676f116b46bb9936ec60c01b6148a4565b600073ffffffffffffffffffffffffffffffffffffffff16836020016000016020810190613d3c9190615fd2565b73ffffffffffffffffffffffffffffffffffffffff1603613e2957613d6b677d0e7ebb2aad7ecc60c01b6148a4565b613d7f67dbc9833569fe0e5b60c01b6148a4565b613d93679022f5003bacafc760c01b6148a4565b8260200160200135341015613e1057613db66778d14668176521f960c01b6148a4565b613dca67c620883558dbb24b60c01b6148a4565b3483602001602001356040517f04157bb4000000000000000000000000000000000000000000000000000000008152600401613e07929190615e9d565b60405180910390fd5b613e2467b649a41313e3fca060c01b6148a4565b613eaf565b613e3d67dca7f0240818cae860c01b6148a4565b613e5167785824c5453859f860c01b6148a4565b613e65674e6a00813bc4dd9b60c01b6148a4565b613eae33308560200160200135866020016000016020810190613e889190615fd2565b73ffffffffffffffffffffffffffffffffffffffff1661516d909392919063ffffffff16565b5b613ec367a7efbbb8976ce21660c01b6148a4565b613ed7671d4a502dd9a2f95f60c01b6148a4565b807f8b82d32987f9a4ae1bc7868a6f104edb711227ec3c9fccb0416a14fcc29bec5a60405160405180910390a2613f1867397c2544966f808d60c01b6148a4565b613f2c670e6064e79633459e60c01b6148a4565b80915050613f38615149565b919050565b613f51677175eb8f16c40e5d60c01b6148a4565b613f596148a7565b613f6d67dcd1872fae6c5a6360c01b6148a4565b613f81674fc7f6be666cf68d60c01b6148a4565b80613f966718b2b56d066efd0460c01b6148fe565b613faa677b1b1ffa8fad79b160c01b6148fe565b613fbe673d390455bb90840360c01b6148fe565b6000801b600080838152602001908152602001600020600001540361403757613ff167ced22d93201b06d560c01b6148fe565b61400567d22590866453aff260c01b6148fe565b6040517f5dcaf2d700000000000000000000000000000000000000000000000000000000815260040160405180910390fd5b61404b670393a760c180511460c01b6148fe565b61405f67f3c8792634af115160c01b6148fe565b61407367f85592e51a19f6d260c01b6148a4565b614087679fd121de9292902e60c01b6148a4565b61409b672cadebea0ee0739260c01b6148a4565b6140af67119e20d12c52d03e60c01b6148a4565b60006002600084815260200190815260200160002060003373ffffffffffffffffffffffffffffffffffffffff1673ffffffffffffffffffffffffffffffffffffffff168152602001908152602001600020905061411767cae4e01d426ad59460c01b6148a4565b61412b67edd26b8cd2a734fa60c01b6148a4565b3373ffffffffffffffffffffffffffffffffffffffff168160020160019054906101000a900473ffffffffffffffffffffffffffffffffffffffff1673ffffffffffffffffffffffffffffffffffffffff16146141dc5761419667abb024bc2289510960c01b6148a4565b6141aa67e28e6e33a7b09c7560c01b6148a4565b6040517f978f045600000000000000000000000000000000000000000000000000000000815260040160405180910390fd5b6141f067cedcf0804ffd4e1160c01b6148a4565b614204673d0e285c2d87407760c01b6148a4565b614218679e71c0a06423182360c01b6148a4565b60028081111561422b5761422a615d4a565b5b8160020160009054906101000a900460ff16600281111561424f5761424e615d4a565b5b146142ca57614268671a8f773fdac8a76060c01b6148a4565b61427c67202400c8e5c4ef2e60c01b6148a4565b8060020160009054906101000a900460ff166040517f64b08c060000000000000000000000000000000000000000000000000000000081526004016142c19190616194565b60405180910390fd5b6142de6708412df0a3e26e5260c01b6148a4565b6142f26701998925c9906d0e60c01b6148a4565b60008160020160006101000a81548160ff0219169083600281111561431a57614319615d4a565b5b021790555061433367b2eec490590d66ed60c01b6148a4565b61434767f3d341f18eca7ad360c01b6148a4565b6000806000858152602001908152602001600020600501905061437467a4fd8b341b4fe51d60c01b6148a4565b6143886780746c30b94cd21e60c01b6148a4565b600073ffffffffffffffffffffffffffffffffffffffff168160000160009054906101000a900473ffffffffffffffffffffffffffffffffffffffff1673ffffffffffffffffffffffffffffffffffffffff1614614498576143f4672f636095f768450b60c01b6148a4565b61440867b82c24506343748060c01b6148a4565b61441c670567c71bb545f62060c01b6148a4565b6144938260020160019054906101000a900473ffffffffffffffffffffffffffffffffffffffff1683600001548360000160009054906101000a900473ffffffffffffffffffffffffffffffffffffffff1673ffffffffffffffffffffffffffffffffffffffff166157b89092919063ffffffff16565b6145f2565b6144ac673ffe9c8139e58edf60c01b6148a4565b6144c067e443307895b9b2f060c01b6148a4565b6144d467c82e6d277080d3af60c01b6148a4565b60003373ffffffffffffffffffffffffffffffffffffffff1683600001546040516144fe90616894565b60006040518083038185875af1925050503d806000811461453b576040519150601f19603f3d011682016040523d82523d6000602084013e614540565b606091505b505090506145586797877b61a270dea460c01b6148a4565b61456c67159f04b54ad12f0e60c01b6148a4565b806145dc5761458567c48da951e8e6ff3f60c01b6148a4565b61459967b8299b6c671075a560c01b6148a4565b3383600001546040517f1c43b9760000000000000000000000000000000000000000000000000000000081526004016145d39291906168a9565b60405180910390fd5b6145f0675d72593dba1778a260c01b6148a4565b505b61460667ae97370e18136ad160c01b6148a4565b61461a67b1f79653f2424db760c01b6148a4565b8160020160019054906101000a900473ffffffffffffffffffffffffffffffffffffffff1673ffffffffffffffffffffffffffffffffffffffff16847f6c2a0bb8117ecfbc53a4385a5421be8eb081718159b9eb3d7c273ecb07fe7cfd60405160405180910390a350505061468d615149565b50565b614698615584565b600073ffffffffffffffffffffffffffffffffffffffff168173ffffffffffffffffffffffffffffffffffffffff160361470a5760006040517f1e4fbdf70000000000000000000000000000000000000000000000000000000081526004016147019190615ec6565b60405180910390fd5b6147138161560b565b50565b60006020528060005260406000206000915090508060000154908060010160009054906101000a900460ff16908060010160019054906101000a900473ffffffffffffffffffffffffffffffffffffffff1690806002016040518060400160405290816000820160009054906101000a900473ffffffffffffffffffffffffffffffffffffffff1673ffffffffffffffffffffffffffffffffffffffff1673ffffffffffffffffffffffffffffffffffffffff168152602001600182015481525050908060040160009054906101000a900473ffffffffffffffffffffffffffffffffffffffff1690806005016040518060400160405290816000820160009054906101000a900473ffffffffffffffffffffffffffffffffffffffff1673ffffffffffffffffffffffffffffffffffffffff1673ffffffffffffffffffffffffffffffffffffffff1681526020016001820154815250509080600701549080600801549080600901549080600a01549080600b01549080600c0160009054906101000a900460ff1690508c565b50565b60006148b1615924565b905060028160000154036148f1576040517f3ee5aeb500000000000000000000000000000000000000000000000000000000815260040160405180910390fd5b6002816000018190555050565b50565b61491567f7ee300b036b2dee60c01b6148a4565b61492967d09858cfefcfca4e60c01b6148a4565b61493d67a680e531dc6cb14260c01b6148a4565b60006001600084600001548152602001908152602001600020805480602002602001604051908101604052809291908181526020016000905b828210156149bc57838290600052602060002090600202016040518060400160405290816000820154815260200160018201548152505081526020019060010190614976565b5050505090506149d66781c6eef3a7def5dc60c01b6148a4565b6149ea674188ea0f808c97b360c01b6148a4565b6000815103614b1157614a0767fe044c7cc880baf860c01b6148a4565b614a1b678da134e315b4e9ed60c01b6148a4565b614a2f67af6d3bb2802fc9e260c01b6148a4565b8260020160000160009054906101000a900473ffffffffffffffffffffffffffffffffffffffff1673ffffffffffffffffffffffffffffffffffffffff1673__$b9ebb88af43d68d18cc83c52d00a91a1a0$__6306cf22809091848660020160010154600654612710600460009054906101000a900473ffffffffffffffffffffffffffffffffffffffff166040518763ffffffff1660e01b8152600401614adc969594939291906161cd565b60006040518083038186803b158015614af457600080fd5b505af4158015614b08573d6000803e3d6000fd5b50505050615144565b614b2567dc9a3266dbb2099660c01b6148a4565b614b39670dfe15a058a46a5460c01b6148a4565b614b4d67919cb29a9c97bcd660c01b6148a4565b60006127106006548560020160010154614b679190616e36565b614b719190616ea7565b9050614b876735721e27d75899c960c01b6148a4565b614b9b6765e82dd6016dad3060c01b6148a4565b6000818560020160010154614bb09190616ed8565b9050614bc667734873a3275d1f5960c01b6148a4565b614bda67859bf377db0b4b6f60c01b6148a4565b600073ffffffffffffffffffffffffffffffffffffffff168560020160000160009054906101000a900473ffffffffffffffffffffffffffffffffffffffff1673ffffffffffffffffffffffffffffffffffffffff1603614eb857614c4967524f3fb56bcb095460c01b6148a4565b614c5d6704ab1272d34444a860c01b6148a4565b614c7167d80af83313704d3260c01b6148a4565b6000600460009054906101000a900473ffffffffffffffffffffffffffffffffffffffff1673ffffffffffffffffffffffffffffffffffffffff1683604051614cb990616894565b60006040518083038185875af1925050503d8060008114614cf6576040519150601f19603f3d011682016040523d82523d6000602084013e614cfb565b606091505b50509050614d13672351838cb0bc4e5960c01b6148a4565b614d276766a88c9d7de73dbf60c01b6148a4565b80614db557614d4067730232ec1be4f9fd60c01b6148a4565b614d54673b0ad9dc62de7e5360c01b6148a4565b600460009054906101000a900473ffffffffffffffffffffffffffffffffffffffff16836040517f1c43b976000000000000000000000000000000000000000000000000000000008152600401614dac9291906168a9565b60405180910390fd5b614dc967b548f8b35e50669860c01b6148a4565b614ddd674eb94eacf93cf82260c01b6148a4565b614df16714019baa97c92ead60c01b6148a4565b600360009054906101000a900473ffffffffffffffffffffffffffffffffffffffff1673ffffffffffffffffffffffffffffffffffffffff16637623f00e838860000154888a60020160000160009054906101000a900473ffffffffffffffffffffffffffffffffffffffff16878a6040518763ffffffff1660e01b8152600401614e80959493929190616fc2565b6000604051808303818588803b158015614e9957600080fd5b505af1158015614ead573d6000803e3d6000fd5b505050505050615141565b614ecc67d7d57cf19215b9df60c01b6148a4565b614ee0673aa3df3d6f38b43b60c01b6148a4565b614ef467811b8fb110d6475260c01b6148a4565b614f68600460009054906101000a900473ffffffffffffffffffffffffffffffffffffffff16838760020160000160009054906101000a900473ffffffffffffffffffffffffffffffffffffffff1673ffffffffffffffffffffffffffffffffffffffff166157b89092919063ffffffff16565b614f7c6781b068664c9bb35760c01b6148a4565b614f9067a676482ca3a9637260c01b6148a4565b8460020160000160009054906101000a900473ffffffffffffffffffffffffffffffffffffffff1673ffffffffffffffffffffffffffffffffffffffff1663095ea7b3600360009054906101000a900473ffffffffffffffffffffffffffffffffffffffff16836040518363ffffffff1660e01b81526004016150149291906168a9565b6020604051808303816000875af1158015615033573d6000803e3d6000fd5b505050506040513d601f19601f8201168201806040525081019061505791906168fe565b5061506c6795aac8633251bbde60c01b6148a4565b6150806718826c7e936a2d9160c01b6148a4565b600360009054906101000a900473ffffffffffffffffffffffffffffffffffffffff1673ffffffffffffffffffffffffffffffffffffffff16637623f00e8660000154868860020160000160009054906101000a900473ffffffffffffffffffffffffffffffffffffffff1685886040518663ffffffff1660e01b815260040161510e959493929190616fc2565b600060405180830381600087803b15801561512857600080fd5b505af115801561513c573d6000803e3d6000fd5b505050505b50505b505050565b6000615153615924565b90506001816000018190555050565b600060019050919050565b61518167d5bb11b40b8d85de60c01b61594c565b61519567e0c2ee17bb22d96c60c01b61594c565b6151a9676de994029db56a8160c01b61594c565b60008490506151c2670260d199604f632360c01b61594c565b6151d667ff7443fc8f01649f60c01b61594c565b60008173ffffffffffffffffffffffffffffffffffffffff1663dd62ed3e86306040518363ffffffff1660e01b815260040161521392919061616b565b602060405180830381865afa158015615230573d6000803e3d6000fd5b505050506040513d601f19601f820116820180604052508101906152549190617031565b905061526a670eb73587eab1b39260c01b61594c565b61527e670fe23579011748ec60c01b61594c565b828110156152ed5761529a67b8c562dbe1562d6260c01b61594c565b6152ae675483ff18762645e360c01b61594c565b80836040517f7c8db62f0000000000000000000000000000000000000000000000000000000081526004016152e4929190615e9d565b60405180910390fd5b615301675e9099c83112ec5e60c01b61594c565b6153156780b579eda42621de60c01b61594c565b61532967f0be8341f779e4c560c01b61594c565b60008273ffffffffffffffffffffffffffffffffffffffff166370a08231876040518263ffffffff1660e01b81526004016153649190615ec6565b602060405180830381865afa158015615381573d6000803e3d6000fd5b505050506040513d601f19601f820116820180604052508101906153a59190617031565b90506153bb67165099529f52e6aa60c01b61594c565b6153cf6733dddeae6f26392460c01b61594c565b8381101561543e576153eb675a4fd416a36b0ea960c01b61594c565b6153ff67b4190ea1c3f3fb8c60c01b61594c565b80846040517f04157bb4000000000000000000000000000000000000000000000000000000008152600401615435929190615e9d565b60405180910390fd5b61545267294d4201cb443c2b60c01b61594c565b615466672001196c2885b22a60c01b61594c565b61547a677ea5c946caf682e860c01b61594c565b8273ffffffffffffffffffffffffffffffffffffffff166323b872dd8787876040518463ffffffff1660e01b81526004016154b79392919061705e565b6020604051808303816000875af11580156154d6573d6000803e3d6000fd5b505050506040513d601f19601f820116820180604052508101906154fa91906168fe565b615567576155126794bddaae641e02da60c01b61594c565b61552667fbf0ce16b7f9d5b860c01b61594c565b8585856040517fca7f5f0e00000000000000000000000000000000000000000000000000000000815260040161555e9392919061705e565b60405180910390fd5b61557b679935c26a8ebc4c5960c01b61594c565b50505050505050565b61558c61594f565b73ffffffffffffffffffffffffffffffffffffffff166155aa61348b565b73ffffffffffffffffffffffffffffffffffffffff1614615609576155cd61594f565b6040517f118cdaa70000000000000000000000000000000000000000000000000000000081526004016156009190615ec6565b60405180910390fd5b565b60006156156156e2565b905060008160000160009054906101000a900473ffffffffffffffffffffffffffffffffffffffff169050828260000160006101000a81548173ffffffffffffffffffffffffffffffffffffffff021916908373ffffffffffffffffffffffffffffffffffffffff1602179055508273ffffffffffffffffffffffffffffffffffffffff168173ffffffffffffffffffffffffffffffffffffffff167f8be0079c531659141344cd1fd0a4f28419497f9722a3daafe3b4186f6b6457e060405160405180910390a3505050565b60007f9016d09d72d40fdae2fd8ceac6b6234c7706214fd39c1cd1e609a0528c199300905090565b60007ff0c57e16840df040f15088dc2f81fe391c3923bec73e23a9662efc9c229c6a00905090565b61573a615957565b600073ffffffffffffffffffffffffffffffffffffffff168173ffffffffffffffffffffffffffffffffffffffff16036157ac5760006040517f1e4fbdf70000000000000000000000000000000000000000000000000000000081526004016157a39190615ec6565b60405180910390fd5b6157b58161560b565b50565b6157cc67acef6ba5cb7b0da460c01b61594c565b6157e067547f2e2c49b2d62060c01b61594c565b6157f46740f0d2ae8d2efd0860c01b61594c565b600083905061580d67617c27e05e4586ad60c01b61594c565b615821679382a20c72ca1b2b60c01b61594c565b8073ffffffffffffffffffffffffffffffffffffffff1663a9059cbb84846040518363ffffffff1660e01b815260040161585c9291906168a9565b6020604051808303816000875af115801561587b573d6000803e3d6000fd5b505050506040513d601f19601f8201168201806040525081019061589f91906168fe565b61590a576158b7673ab56001dc249f5860c01b61594c565b6158cb673cbbc04e9c19dc4260c01b61594c565b82826040517f1c43b9760000000000000000000000000000000000000000000000000000000081526004016159019291906168a9565b60405180910390fd5b61591e67fda467ec834b964f60c01b61594c565b50505050565b60007f9b779b17422d0df92223018b32b4d1fa46e071723d6817e2486d003becc55f00905090565b50565b600033905090565b61595f615997565b615995576040517fd7e6bcf800000000000000000000000000000000000000000000000000000000815260040160405180910390fd5b565b60006159a161570a565b60000160089054906101000a900460ff16905090565b6000604051905090565b600080fd5b600080fd5b600080fd5b6000604082840312156159e6576159e56159cb565b5b81905092915050565b600060408284031215615a0557615a046159c1565b5b6000615a13848285016159d0565b91505092915050565b600060408284031215615a3257615a316159cb565b5b81905092915050565b600060408284031215615a5157615a506159c1565b5b6000615a5f84828501615a1c565b91505092915050565b600060808284031215615a7e57615a7d6159cb565b5b81905092915050565b600060808284031215615a9d57615a9c6159c1565b5b6000615aab84828501615a68565b91505092915050565b60006101408284031215615acb57615aca6159cb565b5b81905092915050565b600080fd5b600080fd5b600080fd5b60008083601f840112615af957615af8615ad4565b5b8235905067ffffffffffffffff811115615b1657615b15615ad9565b5b602083019150836040820283011115615b3257615b31615ade565b5b9250929050565b60008060006101608486031215615b5357615b526159c1565b5b6000615b6186828701615ab4565b93505061014084013567ffffffffffffffff811115615b8357615b826159c6565b5b615b8f86828701615ae3565b92509250509250925092565b600060208284031215615bb157615bb06159cb565b5b81905092915050565b600060208284031215615bd057615bcf6159c1565b5b6000615bde84828501615b9b565b91505092915050565b600060608284031215615bfd57615bfc6159cb565b5b81905092915050565b600060608284031215615c1c57615c1b6159c1565b5b6000615c2a84828501615be7565b91505092915050565b6000819050919050565b615c4681615c33565b82525050565b6000602082019050615c616000830184615c3d565b92915050565b6000819050919050565b615c7a81615c67565b8114615c8557600080fd5b50565b600081359050615c9781615c71565b92915050565b600073ffffffffffffffffffffffffffffffffffffffff82169050919050565b6000615cc882615c9d565b9050919050565b615cd881615cbd565b8114615ce357600080fd5b50565b600081359050615cf581615ccf565b92915050565b60008060408385031215615d1257615d116159c1565b5b6000615d2085828601615c88565b9250506020615d3185828601615ce6565b9150509250929050565b615d4481615c67565b82525050565b7f4e487b7100000000000000000000000000000000000000000000000000000000600052602160045260246000fd5b60038110615d8a57615d89615d4a565b5b50565b6000819050615d9b82615d79565b919050565b6000615dab82615d8d565b9050919050565b615dbb81615da0565b82525050565b615dca81615cbd565b82525050565b600060c082019050615de56000830189615c3d565b615df26020830188615d3b565b615dff6040830187615db2565b615e0c6060830186615dc1565b615e196080830185615c3d565b615e2660a0830184615c3d565b979650505050505050565b615e3a81615c33565b8114615e4557600080fd5b50565b600081359050615e5781615e31565b92915050565b60008060408385031215615e7457615e736159c1565b5b6000615e8285828601615c88565b9250506020615e9385828601615e48565b9150509250929050565b6000604082019050615eb26000830185615c3d565b615ebf6020830184615c3d565b9392505050565b6000602082019050615edb6000830184615dc1565b92915050565b600080600080600060a08688031215615efd57615efc6159c1565b5b6000615f0b88828901615ce6565b9550506020615f1c88828901615ce6565b9450506040615f2d88828901615ce6565b9350506060615f3e88828901615e48565b9250506080615f4f88828901615e48565b9150509295509295909350565b60006101408284031215615f7357615f726159c1565b5b6000615f8184828501615ab4565b91505092915050565b6000602082019050615f9f6000830184615d3b565b92915050565b600060208284031215615fbb57615fba6159c1565b5b6000615fc984828501615c88565b91505092915050565b600060208284031215615fe857615fe76159c1565b5b6000615ff684828501615ce6565b91505092915050565b600481106160105761600f615d4a565b5b50565b600081905061602182615fff565b919050565b600061603182616013565b9050919050565b61604181616026565b82525050565b61605081615cbd565b82525050565b61605f81615c33565b82525050565b60408201600082015161607b6000850182616047565b50602082015161608e6020850182616056565b50505050565b60008115159050919050565b6160a981616094565b82525050565b60006101c0820190506160c5600083018f615d3b565b6160d2602083018e616038565b6160df604083018d615dc1565b6160ec606083018c616065565b6160f960a083018b615dc1565b61610660c083018a616065565b616114610100830189615c3d565b616122610120830188615c3d565b616130610140830187615c3d565b61613e610160830186615c3d565b61614c610180830185615c3d565b61615a6101a08301846160a0565b9d9c50505050505050505050505050565b60006040820190506161806000830185615dc1565b61618d6020830184615dc1565b9392505050565b60006020820190506161a96000830184615db2565b92915050565b6161b881615cbd565b82525050565b6161c781615c33565b82525050565b600060c0820190506161e260008301896161af565b6161ef60208301886161af565b6161fc60408301876161be565b61620960608301866161be565b61621660808301856161be565b61622360a08301846161af565b979650505050505050565b600080fd5b6000601f19601f8301169050919050565b7f4e487b7100000000000000000000000000000000000000000000000000000000600052604160045260246000fd5b61627c82616233565b810181811067ffffffffffffffff8211171561629b5761629a616244565b5b80604052505050565b60006162ae6159b7565b90506162ba8282616273565b919050565b6000604082840312156162d5576162d461622e565b5b6162df60406162a4565b905060006162ef84828501615c88565b600083015250602061630384828501615ce6565b60208301525092915050565b600060408284031215616325576163246159c1565b5b6000616333848285016162bf565b91505092915050565b61634581615c67565b82525050565b61635481615cbd565b82525050565b604082016000820151616370600085018261633c565b506020820151616383602085018261634b565b50505050565b600060408201905061639e600083018461635a565b92915050565b8082525050565b60006020820190506163c060008301846163a4565b92915050565b600060e0820190506163db600083018a6161af565b6163e860208301896161af565b6163f560408301886161af565b61640260608301876161be565b61640f60808301866161be565b61641c60a08301856161be565b61642960c08301846161af565b98975050505050505050565b8082525050565b600061644b6020840184615e48565b905092915050565b61645c81615c33565b82525050565b60006164716020840184615ce6565b905092915050565b60006164886020840184615c88565b905092915050565b608082016164a1600083018361643c565b6164ae6000850182616453565b506164bc6020830183616462565b6164c9602085018261634b565b506164d76040830183616479565b6164e4604085018261633c565b506164f2606083018361643c565b6164ff6060850182616453565b50505050565b600060a08201905061651a6000830185616435565b6165276020830184616490565b9392505050565b6000604082840312156165445761654361622e565b5b61654e60406162a4565b9050600061655e84828501615e48565b600083015250602061657284828501615e48565b60208301525092915050565b600060408284031215616594576165936159c1565b5b60006165a28482850161652e565b91505092915050565b600081519050919050565b600082825260208201905092915050565b6000819050602082019050919050565b6040820160008201516165ed6000850182616453565b5060208201516166006020850182616453565b50505050565b600061661283836165d7565b60408301905092915050565b6000602082019050919050565b6000616636826165ab565b61664081856165b6565b935061664b836165c7565b8060005b8381101561667c5781516166638882616606565b975061666e8361661e565b92505060018101905061664f565b5085935050505092915050565b600060208201905081810360008301526166a3818461662b565b905092915050565b7f4e487b7100000000000000000000000000000000000000000000000000000000600052603260045260246000fd5b600081356166e781615e31565b80915050919050565b60008160001b9050919050565b60007fffffffffffffffffffffffffffffffffffffffffffffffffffffffffffffffff616729846166f0565b9350801983169250808416831791505092915050565b6000819050919050565b600061676461675f61675a84615c33565b61673f565b615c33565b9050919050565b6000819050919050565b61677e82616749565b61679161678a8261676b565b83546166fd565b8255505050565b6000810160008301806167aa816166da565b90506167b68184616775565b5050506001810160208301806167cb816166da565b90506167d78184616775565b5050505050565b6167e88282616798565b5050565b7f4e487b7100000000000000000000000000000000000000000000000000000000600052601160045260246000fd5b600061682682615c33565b91507fffffffffffffffffffffffffffffffffffffffffffffffffffffffffffffffff8203616858576168576167ec565b5b600182019050919050565b600081905092915050565b50565b600061687e600083616863565b91506168898261686e565b600082019050919050565b600061689f82616871565b9150819050919050565b60006040820190506168be6000830185615dc1565b6168cb6020830184615c3d565b9392505050565b6168db81616094565b81146168e657600080fd5b50565b6000815190506168f8816168d2565b92915050565b600060208284031215616914576169136159c1565b5b6000616922848285016168e9565b91505092915050565b600061693682615c33565b915061694183615c33565b9250828201905080821115616959576169586167ec565b5b92915050565b6000819050919050565b600067ffffffffffffffff82169050919050565b600061699861699361698e8461695f565b61673f565b616969565b9050919050565b6169a88161697d565b82525050565b60006020820190506169c3600083018461699f565b92915050565b6000604082840312156169df576169de61622e565b5b6169e960406162a4565b905060006169f984828501615ce6565b6000830152506020616a0d84828501615e48565b60208301525092915050565b600081359050616a28816168d2565b92915050565b60006101408284031215616a4557616a4461622e565b5b616a506101006162a4565b90506000616a6084828501615c88565b6000830152506020616a74848285016169c9565b6020830152506060616a88848285016169c9565b60408301525060a0616a9c84828501615ce6565b60608301525060c0616ab084828501615ce6565b60808301525060e0616ac484828501615e48565b60a083015250610100616ad984828501615e48565b60c083015250610120616aee84828501616a19565b60e08301525092915050565b60006101408284031215616b1157616b106159c1565b5b6000616b1f84828501616a2e565b91505092915050565b604082016000820151616b3e600085018261634b565b506020820151616b516020850182616453565b50505050565b616b6081616094565b82525050565b61014082016000820151616b7d600085018261633c565b506020820151616b906020850182616b28565b506040820151616ba36060850182616b28565b506060820151616bb660a085018261634b565b506080820151616bc960c085018261634b565b5060a0820151616bdc60e0850182616453565b5060c0820151616bf0610100850182616453565b5060e0820151616c04610120850182616b57565b50505050565b600061014082019050616c206000830184616b66565b92915050565b616c2f81615c67565b82525050565b6000604082019050616c4a6000830185616c26565b616c5760208301846161af565b9392505050565b600081519050616c6d81615c71565b92915050565b600060208284031215616c8957616c886159c1565b5b6000616c9784828501616c5e565b91505092915050565b8082525050565b600082905092915050565b60408201616cc36000830183616462565b616cd0600085018261634b565b50616cde602083018361643c565b616ceb6020850182616453565b50505050565b6000616d006020840184616a19565b905092915050565b6101408201616d1a6000830183616479565b616d27600085018261633c565b50616d356020830183616ca7565b616d426020850182616cb2565b50616d506060830183616ca7565b616d5d6060850182616cb2565b50616d6b60a0830183616462565b616d7860a085018261634b565b50616d8660c0830183616462565b616d9360c085018261634b565b50616da160e083018361643c565b616dae60e0850182616453565b50616dbd61010083018361643c565b616dcb610100850182616453565b50616dda610120830183616cf1565b616de8610120850182616b57565b50505050565b60006101a082019050616e046000830187616ca0565b616e116020830186616d08565b616e1f610160830185616c26565b616e2d6101808301846161af565b95945050505050565b6000616e4182615c33565b9150616e4c83615c33565b9250828202616e5a81615c33565b91508282048414831517616e7157616e706167ec565b5b5092915050565b7f4e487b7100000000000000000000000000000000000000000000000000000000600052601260045260246000fd5b6000616eb282615c33565b9150616ebd83615c33565b925082616ecd57616ecc616e78565b5b828204905092915050565b6000616ee382615c33565b9150616eee83615c33565b9250828203905081811115616f0657616f056167ec565b5b92915050565b600082825260208201905092915050565b604082016000820151616f336000850182616056565b506020820151616f466020850182616056565b50505050565b6000616f588383616f1d565b60408301905092915050565b6000616f6f826165ab565b616f798185616f0c565b9350616f84836165c7565b8060005b83811015616fb5578151616f9c8882616f4c565b9750616fa78361661e565b925050600181019050616f88565b5085935050505092915050565b600060a082019050616fd76000830188615d3b565b616fe46020830187615dc1565b616ff16040830186615dc1565b616ffe6060830185615c3d565b81810360808301526170108184616f64565b90509695505050505050565b60008151905061702b81615e31565b92915050565b600060208284031215617047576170466159c1565b5b60006170558482850161701c565b91505092915050565b60006060820190506170736000830186615dc1565b6170806020830185615dc1565b61708d6040830184615c3d565b94935050505056fea2646970667358221220a756ca5db46a0f57ddc2fd574aaaa404367cc42b496bb6ff4c2b9d6579e32ce164736f6c63430008140033",
  "linkReferences": {
    "contracts/abstracts/libs/logic/AtomicSwapStateLogic.sol": {
      "AtomicSwapStateLogic": [
        {
          "length": 20,
          "start": 7861
        },
        {
          "length": 20,
          "start": 15348
        },
        {
          "length": 20,
          "start": 15515
        }
      ]
    },
    "contracts/abstracts/libs/utils/AtomicSwapMsgValidator.sol": {
      "AtomicSwapMsgValidator": [
        {
          "length": 20,
          "start": 4570
        },
        {
          "length": 20,
          "start": 4781
        },
        {
          "length": 20,
          "start": 8241
        },
        {
          "length": 20,
          "start": 9370
        },
        {
          "length": 20,
          "start": 15197
        }
      ]
    },
    "contracts/abstracts/libs/utils/TokenTransferHelper.sol": {
      "TokenTransferHelper": [
        {
          "length": 20,
          "start": 3544
        },
        {
          "length": 20,
          "start": 5236
        },
        {
          "length": 20,
          "start": 19088
        }
      ]
    }
  },
  "deployedLinkReferences": {
    "contracts/abstracts/libs/logic/AtomicSwapStateLogic.sol": {
      "AtomicSwapStateLogic": [
        {
          "length": 20,
          "start": 7828
        },
        {
          "length": 20,
          "start": 15315
        },
        {
          "length": 20,
          "start": 15482
        }
      ]
    },
    "contracts/abstracts/libs/utils/AtomicSwapMsgValidator.sol": {
      "AtomicSwapMsgValidator": [
        {
          "length": 20,
          "start": 4537
        },
        {
          "length": 20,
          "start": 4748
        },
        {
          "length": 20,
          "start": 8208
        },
        {
          "length": 20,
          "start": 9337
        },
        {
          "length": 20,
          "start": 15164
        }
      ]
    },
    "contracts/abstracts/libs/utils/TokenTransferHelper.sol": {
      "TokenTransferHelper": [
        {
          "length": 20,
          "start": 3511
        },
        {
          "length": 20,
          "start": 5203
        },
        {
          "length": 20,
          "start": 19055
        }
      ]
    }
  }
}