{
  "_format": "hh-sol-artifact-1",
  "contractName": "InchainAtomicSwap",
  "sourceName": "contracts/inchain_atomicswap/InchainAtomicSwap.sol",
  "abi": [
    {
      "inputs": [],
      "name": "AccessControlBadConfirmation",
      "type": "error"
    },
    {
      "inputs": [
        {
          "internalType": "address",
          "name": "account",
          "type": "address"
        },
        {
          "internalType": "bytes32",
          "name": "neededRole",
          "type": "bytes32"
        }
      ],
      "name": "AccessControlUnauthorizedAccount",
      "type": "error"
    },
    {
      "inputs": [
        {
          "internalType": "uint256",
          "name": "provided",
          "type": "uint256"
        },
        {
          "internalType": "uint256",
          "name": "expectedExpiry",
          "type": "uint256"
        }
      ],
      "name": "BidAlreadyExpired",
      "type": "error"
    },
    {
      "inputs": [],
      "name": "BidAlreadyPlaced",
      "type": "error"
    },
    {
      "inputs": [],
      "name": "BidDoesNotExist",
      "type": "error"
    },
    {
      "inputs": [],
      "name": "BidNotAllowed",
      "type": "error"
    },
    {
      "inputs": [
        {
          "internalType": "enum IAtomicSwapBase.BidStatus",
          "name": "status",
          "type": "uint8"
        }
      ],
      "name": "BidNotInPlacedStatus",
      "type": "error"
    },
    {
      "inputs": [],
      "name": "DuplicateReleaseSchedule",
      "type": "error"
    },
    {
      "inputs": [],
      "name": "EnforcedPause",
      "type": "error"
    },
    {
      "inputs": [],
      "name": "ExpectedPause",
      "type": "error"
    },
    {
      "inputs": [],
      "name": "InactiveOrder",
      "type": "error"
    },
    {
      "inputs": [],
      "name": "InvaldAddition",
      "type": "error"
    },
    {
      "inputs": [],
      "name": "InvalidAddress",
      "type": "error"
    },
    {
      "inputs": [],
      "name": "InvalidBidderAddress",
      "type": "error"
    },
    {
      "inputs": [],
      "name": "InvalidBuyerFee",
      "type": "error"
    },
    {
      "inputs": [
        {
          "internalType": "address",
          "name": "contractAddress",
          "type": "address"
        }
      ],
      "name": "InvalidContractAddress",
      "type": "error"
    },
    {
      "inputs": [
        {
          "internalType": "uint256",
          "name": "provided",
          "type": "uint256"
        },
        {
          "internalType": "uint256",
          "name": "maximum",
          "type": "uint256"
        }
      ],
      "name": "InvalidExpirationTime",
      "type": "error"
    },
    {
      "inputs": [],
      "name": "InvalidInitialization",
      "type": "error"
    },
    {
      "inputs": [],
      "name": "InvalidMinimumBidLimit",
      "type": "error"
    },
    {
      "inputs": [],
      "name": "InvalidReleasePercentage",
      "type": "error"
    },
    {
      "inputs": [],
      "name": "InvalidSellerFee",
      "type": "error"
    },
    {
      "inputs": [],
      "name": "InvalidTotalPercentage",
      "type": "error"
    },
    {
      "inputs": [],
      "name": "InvalidTreasuryAddress",
      "type": "error"
    },
    {
      "inputs": [
        {
          "internalType": "uint256",
          "name": "amount",
          "type": "uint256"
        }
      ],
      "name": "MismatchedBidAmount",
      "type": "error"
    },
    {
      "inputs": [],
      "name": "NoBidPlaced",
      "type": "error"
    },
    {
      "inputs": [
        {
          "internalType": "uint256",
          "name": "amount",
          "type": "uint256"
        },
        {
          "internalType": "uint256",
          "name": "allowance",
          "type": "uint256"
        }
      ],
      "name": "NotAllowedTransferAmount",
      "type": "error"
    },
    {
      "inputs": [
        {
          "internalType": "uint256",
          "name": "real",
          "type": "uint256"
        },
        {
          "internalType": "uint256",
          "name": "expected",
          "type": "uint256"
        }
      ],
      "name": "NotEnoughFund",
      "type": "error"
    },
    {
      "inputs": [],
      "name": "NotInitializing",
      "type": "error"
    },
    {
      "inputs": [],
      "name": "OrderAlreadyExists",
      "type": "error"
    },
    {
      "inputs": [
        {
          "internalType": "uint256",
          "name": "current",
          "type": "uint256"
        },
        {
          "internalType": "uint256",
          "name": "expiredTime",
          "type": "uint256"
        }
      ],
      "name": "OrderAlreadyExpired",
      "type": "error"
    },
    {
      "inputs": [],
      "name": "OrderCanceled",
      "type": "error"
    },
    {
      "inputs": [],
      "name": "OrderDoesNotExist",
      "type": "error"
    },
    {
      "inputs": [],
      "name": "OrderNotAllowTake",
      "type": "error"
    },
    {
      "inputs": [],
      "name": "OverMaximumReleaseStep",
      "type": "error"
    },
    {
      "inputs": [],
      "name": "ReentrancyGuardReentrantCall",
      "type": "error"
    },
    {
      "inputs": [
        {
          "internalType": "address",
          "name": "to",
          "type": "address"
        },
        {
          "internalType": "uint256",
          "name": "amount",
          "type": "uint256"
        }
      ],
      "name": "TransferFailed",
      "type": "error"
    },
    {
      "inputs": [
        {
          "internalType": "address",
          "name": "from",
          "type": "address"
        },
        {
          "internalType": "address",
          "name": "to",
          "type": "address"
        },
        {
          "internalType": "uint256",
          "name": "amount",
          "type": "uint256"
        }
      ],
      "name": "TransferFromFailed",
      "type": "error"
    },
    {
      "inputs": [
        {
          "internalType": "address",
          "name": "recipient",
          "type": "address"
        },
        {
          "internalType": "uint256",
          "name": "amount",
          "type": "uint256"
        }
      ],
      "name": "TransferToRecipientFailed",
      "type": "error"
    },
    {
      "inputs": [
        {
          "internalType": "address",
          "name": "recipient",
          "type": "address"
        },
        {
          "internalType": "uint256",
          "name": "amount",
          "type": "uint256"
        }
      ],
      "name": "TransferToTreasuryFailed",
      "type": "error"
    },
    {
      "inputs": [
        {
          "internalType": "address",
          "name": "caller",
          "type": "address"
        },
        {
          "internalType": "address",
          "name": "expected",
          "type": "address"
        }
      ],
      "name": "UnauthorizedAcceptAction",
      "type": "error"
    },
    {
      "inputs": [],
      "name": "UnauthorizedCancelAction",
      "type": "error"
    },
    {
      "inputs": [],
      "name": "UnauthorizedSender",
      "type": "error"
    },
    {
      "inputs": [],
      "name": "UnauthorizedTakeAction",
      "type": "error"
    },
    {
      "inputs": [],
      "name": "UnsupportedTokenPair",
      "type": "error"
    },
    {
      "inputs": [],
      "name": "ZeroReleaseSchedule",
      "type": "error"
    },
    {
      "anonymous": false,
      "inputs": [
        {
          "indexed": true,
          "internalType": "bytes32",
          "name": "orderID",
          "type": "bytes32"
        },
        {
          "indexed": true,
          "internalType": "address",
          "name": "bidder",
          "type": "address"
        },
        {
          "indexed": true,
          "internalType": "uint256",
          "name": "amount",
          "type": "uint256"
        }
      ],
      "name": "AcceptedBid",
      "type": "event"
    },
    {
      "anonymous": false,
      "inputs": [
        {
          "indexed": true,
          "internalType": "bytes32",
          "name": "id",
          "type": "bytes32"
        }
      ],
      "name": "AtomicSwapOrderCanceled",
      "type": "event"
    },
    {
      "anonymous": false,
      "inputs": [
        {
          "indexed": true,
          "internalType": "bytes32",
          "name": "id",
          "type": "bytes32"
        }
      ],
      "name": "AtomicSwapOrderCreated",
      "type": "event"
    },
    {
      "anonymous": false,
      "inputs": [
        {
          "indexed": true,
          "internalType": "address",
          "name": "maker",
          "type": "address"
        },
        {
          "indexed": true,
          "internalType": "address",
          "name": "taker",
          "type": "address"
        },
        {
          "indexed": true,
          "internalType": "bytes32",
          "name": "id",
          "type": "bytes32"
        }
      ],
      "name": "AtomicSwapOrderTook",
      "type": "event"
    },
    {
      "anonymous": false,
      "inputs": [
        {
          "indexed": true,
          "internalType": "bytes32",
          "name": "orderID",
          "type": "bytes32"
        },
        {
          "indexed": true,
          "internalType": "address",
          "name": "bidder",
          "type": "address"
        }
      ],
      "name": "CanceledBid",
      "type": "event"
    },
    {
      "anonymous": false,
      "inputs": [
        {
          "indexed": false,
          "internalType": "uint64",
          "name": "version",
          "type": "uint64"
        }
      ],
      "name": "Initialized",
      "type": "event"
    },
    {
      "anonymous": false,
      "inputs": [
        {
          "indexed": false,
          "internalType": "address",
          "name": "account",
          "type": "address"
        }
      ],
      "name": "Paused",
      "type": "event"
    },
    {
      "anonymous": false,
      "inputs": [
        {
          "indexed": true,
          "internalType": "bytes32",
          "name": "orderID",
          "type": "bytes32"
        },
        {
          "indexed": true,
          "internalType": "address",
          "name": "bidder",
          "type": "address"
        },
        {
          "indexed": true,
          "internalType": "uint256",
          "name": "amount",
          "type": "uint256"
        }
      ],
      "name": "PlacedBid",
      "type": "event"
    },
    {
      "anonymous": false,
      "inputs": [
        {
          "indexed": true,
          "internalType": "bytes32",
          "name": "role",
          "type": "bytes32"
        },
        {
          "indexed": true,
          "internalType": "bytes32",
          "name": "previousAdminRole",
          "type": "bytes32"
        },
        {
          "indexed": true,
          "internalType": "bytes32",
          "name": "newAdminRole",
          "type": "bytes32"
        }
      ],
      "name": "RoleAdminChanged",
      "type": "event"
    },
    {
      "anonymous": false,
      "inputs": [
        {
          "indexed": true,
          "internalType": "bytes32",
          "name": "role",
          "type": "bytes32"
        },
        {
          "indexed": true,
          "internalType": "address",
          "name": "account",
          "type": "address"
        },
        {
          "indexed": true,
          "internalType": "address",
          "name": "sender",
          "type": "address"
        }
      ],
      "name": "RoleGranted",
      "type": "event"
    },
    {
      "anonymous": false,
      "inputs": [
        {
          "indexed": true,
          "internalType": "bytes32",
          "name": "role",
          "type": "bytes32"
        },
        {
          "indexed": true,
          "internalType": "address",
          "name": "account",
          "type": "address"
        },
        {
          "indexed": true,
          "internalType": "address",
          "name": "sender",
          "type": "address"
        }
      ],
      "name": "RoleRevoked",
      "type": "event"
    },
    {
      "anonymous": false,
      "inputs": [
        {
          "indexed": false,
          "internalType": "address",
          "name": "account",
          "type": "address"
        }
      ],
      "name": "Unpaused",
      "type": "event"
    },
    {
      "anonymous": false,
      "inputs": [
        {
          "indexed": true,
          "internalType": "bytes32",
          "name": "orderID",
          "type": "bytes32"
        },
        {
          "indexed": true,
          "internalType": "address",
          "name": "bidder",
          "type": "address"
        },
        {
          "indexed": true,
          "internalType": "uint256",
          "name": "amount",
          "type": "uint256"
        }
      ],
      "name": "UpdatedBid",
      "type": "event"
    },
    {
      "inputs": [],
      "name": "DEFAULT_ADMIN_ROLE",
      "outputs": [
        {
          "internalType": "bytes32",
          "name": "",
          "type": "bytes32"
        }
      ],
      "stateMutability": "view",
      "type": "function"
    },
    {
      "inputs": [],
      "name": "PAUSER_ROLE",
      "outputs": [
        {
          "internalType": "bytes32",
          "name": "",
          "type": "bytes32"
        }
      ],
      "stateMutability": "view",
      "type": "function"
    },
    {
      "inputs": [
        {
          "components": [
            {
              "internalType": "bytes32",
              "name": "orderID",
              "type": "bytes32"
            },
            {
              "internalType": "address",
              "name": "bidder",
              "type": "address"
            }
          ],
          "internalType": "struct IAtomicSwapBase.AcceptBidMsg",
          "name": "acceptBidMsg",
          "type": "tuple"
        }
      ],
      "name": "acceptBid",
      "outputs": [],
      "stateMutability": "payable",
      "type": "function"
    },
    {
      "inputs": [
        {
          "internalType": "address",
          "name": "_account",
          "type": "address"
        }
      ],
      "name": "addAdmin",
      "outputs": [],
      "stateMutability": "nonpayable",
      "type": "function"
    },
    {
      "inputs": [
        {
          "internalType": "address",
          "name": "_account",
          "type": "address"
        }
      ],
      "name": "addPauser",
      "outputs": [],
      "stateMutability": "nonpayable",
      "type": "function"
    },
    {
      "inputs": [
        {
          "internalType": "bytes32",
          "name": "",
          "type": "bytes32"
        },
        {
          "internalType": "address",
          "name": "",
          "type": "address"
        }
      ],
      "name": "bids",
      "outputs": [
        {
          "internalType": "uint256",
          "name": "amount",
          "type": "uint256"
        },
        {
          "internalType": "bytes32",
          "name": "order",
          "type": "bytes32"
        },
        {
          "internalType": "enum IAtomicSwapBase.BidStatus",
          "name": "status",
          "type": "uint8"
        },
        {
          "internalType": "address",
          "name": "bidder",
          "type": "address"
        },
        {
          "internalType": "uint256",
          "name": "receiveTimestamp",
          "type": "uint256"
        },
        {
          "internalType": "uint256",
          "name": "expireTimestamp",
          "type": "uint256"
        }
      ],
      "stateMutability": "view",
      "type": "function"
    },
    {
      "inputs": [],
      "name": "buyerFeeRate",
      "outputs": [
        {
          "internalType": "uint256",
          "name": "",
          "type": "uint256"
        }
      ],
      "stateMutability": "view",
      "type": "function"
    },
    {
      "inputs": [
        {
          "internalType": "bytes32",
          "name": "orderID",
          "type": "bytes32"
        }
      ],
      "name": "cancelBid",
      "outputs": [],
      "stateMutability": "payable",
      "type": "function"
    },
    {
      "inputs": [
        {
          "components": [
            {
              "internalType": "bytes32",
              "name": "orderID",
              "type": "bytes32"
            }
          ],
          "internalType": "struct IAtomicSwapBase.CancelSwapMsg",
          "name": "cancelswap",
          "type": "tuple"
        }
      ],
      "name": "cancelSwap",
      "outputs": [],
      "stateMutability": "payable",
      "type": "function"
    },
    {
      "inputs": [
        {
          "internalType": "bytes32",
          "name": "",
          "type": "bytes32"
        },
        {
          "internalType": "address",
          "name": "",
          "type": "address"
        }
      ],
      "name": "counteroffers",
      "outputs": [
        {
          "internalType": "uint256",
          "name": "",
          "type": "uint256"
        }
      ],
      "stateMutability": "view",
      "type": "function"
    },
    {
      "inputs": [
        {
          "components": [
            {
              "internalType": "bytes32",
              "name": "uuid",
              "type": "bytes32"
            },
            {
              "components": [
                {
                  "internalType": "address",
                  "name": "token",
                  "type": "address"
                },
                {
                  "internalType": "uint256",
                  "name": "amount",
                  "type": "uint256"
                }
              ],
              "internalType": "struct IAtomicSwapBase.Coin",
              "name": "sellToken",
              "type": "tuple"
            },
            {
              "components": [
                {
                  "internalType": "address",
                  "name": "token",
                  "type": "address"
                },
                {
                  "internalType": "uint256",
                  "name": "amount",
                  "type": "uint256"
                }
              ],
              "internalType": "struct IAtomicSwapBase.Coin",
              "name": "buyToken",
              "type": "tuple"
            },
            {
              "internalType": "address",
              "name": "desiredTaker",
              "type": "address"
            },
            {
              "internalType": "uint256",
              "name": "minBidAmount",
              "type": "uint256"
            },
            {
              "internalType": "bool",
              "name": "acceptBid",
              "type": "bool"
            },
            {
              "components": [
                {
                  "internalType": "uint256",
                  "name": "deadline",
                  "type": "uint256"
                },
                {
                  "internalType": "uint8",
                  "name": "v",
                  "type": "uint8"
                },
                {
                  "internalType": "bytes32",
                  "name": "r",
                  "type": "bytes32"
                },
                {
                  "internalType": "bytes32",
                  "name": "s",
                  "type": "bytes32"
                },
                {
                  "internalType": "address",
                  "name": "sender",
                  "type": "address"
                }
              ],
              "internalType": "struct IAtomicSwapBase.PermitSignature",
              "name": "makerSignature",
              "type": "tuple"
            },
            {
              "components": [
                {
                  "internalType": "uint256",
                  "name": "deadline",
                  "type": "uint256"
                },
                {
                  "internalType": "uint8",
                  "name": "v",
                  "type": "uint8"
                },
                {
                  "internalType": "bytes32",
                  "name": "r",
                  "type": "bytes32"
                },
                {
                  "internalType": "bytes32",
                  "name": "s",
                  "type": "bytes32"
                },
                {
                  "internalType": "address",
                  "name": "sender",
                  "type": "address"
                }
              ],
              "internalType": "struct IAtomicSwapBase.PermitSignature",
              "name": "takerSignature",
              "type": "tuple"
            }
          ],
          "internalType": "struct IAtomicSwapBase.SwapWithPermitMsg",
          "name": "swap",
          "type": "tuple"
        },
        {
          "components": [
            {
              "internalType": "uint256",
              "name": "durationInHours",
              "type": "uint256"
            },
            {
              "internalType": "uint256",
              "name": "percentage",
              "type": "uint256"
            }
          ],
          "internalType": "struct IAtomicSwapBase.Release[]",
          "name": "releases",
          "type": "tuple[]"
        }
      ],
      "name": "executeSwapWithPermit",
      "outputs": [],
      "stateMutability": "nonpayable",
      "type": "function"
    },
    {
      "inputs": [
        {
          "internalType": "bytes32",
          "name": "role",
          "type": "bytes32"
        }
      ],
      "name": "getRoleAdmin",
      "outputs": [
        {
          "internalType": "bytes32",
          "name": "",
          "type": "bytes32"
        }
      ],
      "stateMutability": "view",
      "type": "function"
    },
    {
      "inputs": [
        {
          "internalType": "bytes32",
          "name": "role",
          "type": "bytes32"
        },
        {
          "internalType": "address",
          "name": "account",
          "type": "address"
        }
      ],
      "name": "grantRole",
      "outputs": [],
      "stateMutability": "nonpayable",
      "type": "function"
    },
    {
      "inputs": [
        {
          "internalType": "bytes32",
          "name": "role",
          "type": "bytes32"
        },
        {
          "internalType": "address",
          "name": "account",
          "type": "address"
        }
      ],
      "name": "hasRole",
      "outputs": [
        {
          "internalType": "bool",
          "name": "",
          "type": "bool"
        }
      ],
      "stateMutability": "view",
      "type": "function"
    },
    {
      "inputs": [
        {
          "internalType": "address",
          "name": "_admin",
          "type": "address"
        },
        {
          "internalType": "address",
          "name": "_vestingManager",
          "type": "address"
        },
        {
          "internalType": "address",
          "name": "_treasury",
          "type": "address"
        },
        {
          "internalType": "uint256",
          "name": "_sellerFee",
          "type": "uint256"
        },
        {
          "internalType": "uint256",
          "name": "_buyerFee",
          "type": "uint256"
        }
      ],
      "name": "initialize",
      "outputs": [],
      "stateMutability": "nonpayable",
      "type": "function"
    },
    {
      "inputs": [
        {
          "internalType": "address",
          "name": "_account",
          "type": "address"
        }
      ],
      "name": "isAdmin",
      "outputs": [
        {
          "internalType": "bool",
          "name": "",
          "type": "bool"
        }
      ],
      "stateMutability": "view",
      "type": "function"
    },
    {
      "inputs": [
        {
          "internalType": "address",
          "name": "_account",
          "type": "address"
        }
      ],
      "name": "isPauser",
      "outputs": [
        {
          "internalType": "bool",
          "name": "",
          "type": "bool"
        }
      ],
      "stateMutability": "view",
      "type": "function"
    },
    {
      "inputs": [
        {
          "components": [
            {
              "internalType": "bytes32",
              "name": "uuid",
              "type": "bytes32"
            },
            {
              "components": [
                {
                  "internalType": "address",
                  "name": "token",
                  "type": "address"
                },
                {
                  "internalType": "uint256",
                  "name": "amount",
                  "type": "uint256"
                }
              ],
              "internalType": "struct IAtomicSwapBase.Coin",
              "name": "sellToken",
              "type": "tuple"
            },
            {
              "components": [
                {
                  "internalType": "address",
                  "name": "token",
                  "type": "address"
                },
                {
                  "internalType": "uint256",
                  "name": "amount",
                  "type": "uint256"
                }
              ],
              "internalType": "struct IAtomicSwapBase.Coin",
              "name": "buyToken",
              "type": "tuple"
            },
            {
              "internalType": "address",
              "name": "maker",
              "type": "address"
            },
            {
              "internalType": "address",
              "name": "desiredTaker",
              "type": "address"
            },
            {
              "internalType": "uint256",
              "name": "minBidAmount",
              "type": "uint256"
            },
            {
              "internalType": "uint256",
              "name": "expireAt",
              "type": "uint256"
            },
            {
              "internalType": "bool",
              "name": "acceptBid",
              "type": "bool"
            }
          ],
          "internalType": "struct IAtomicSwapBase.MakeSwapMsg",
          "name": "makeswap",
          "type": "tuple"
        }
      ],
      "name": "makeSwap",
      "outputs": [
        {
          "internalType": "bytes32",
          "name": "id",
          "type": "bytes32"
        }
      ],
      "stateMutability": "payable",
      "type": "function"
    },
    {
      "inputs": [
        {
          "components": [
            {
              "internalType": "bytes32",
              "name": "uuid",
              "type": "bytes32"
            },
            {
              "components": [
                {
                  "internalType": "address",
                  "name": "token",
                  "type": "address"
                },
                {
                  "internalType": "uint256",
                  "name": "amount",
                  "type": "uint256"
                }
              ],
              "internalType": "struct IAtomicSwapBase.Coin",
              "name": "sellToken",
              "type": "tuple"
            },
            {
              "components": [
                {
                  "internalType": "address",
                  "name": "token",
                  "type": "address"
                },
                {
                  "internalType": "uint256",
                  "name": "amount",
                  "type": "uint256"
                }
              ],
              "internalType": "struct IAtomicSwapBase.Coin",
              "name": "buyToken",
              "type": "tuple"
            },
            {
              "internalType": "address",
              "name": "maker",
              "type": "address"
            },
            {
              "internalType": "address",
              "name": "desiredTaker",
              "type": "address"
            },
            {
              "internalType": "uint256",
              "name": "minBidAmount",
              "type": "uint256"
            },
            {
              "internalType": "uint256",
              "name": "expireAt",
              "type": "uint256"
            },
            {
              "internalType": "bool",
              "name": "acceptBid",
              "type": "bool"
            }
          ],
          "internalType": "struct IAtomicSwapBase.MakeSwapMsg",
          "name": "makeswap",
          "type": "tuple"
        },
        {
          "components": [
            {
              "internalType": "uint256",
              "name": "durationInHours",
              "type": "uint256"
            },
            {
              "internalType": "uint256",
              "name": "percentage",
              "type": "uint256"
            }
          ],
          "internalType": "struct IAtomicSwapBase.Release[]",
          "name": "releases",
          "type": "tuple[]"
        }
      ],
      "name": "makeSwapWithVesting",
      "outputs": [
        {
          "internalType": "bytes32",
          "name": "orderId",
          "type": "bytes32"
        }
      ],
      "stateMutability": "payable",
      "type": "function"
    },
    {
      "inputs": [],
      "name": "paginationSize",
      "outputs": [
        {
          "internalType": "uint256",
          "name": "",
          "type": "uint256"
        }
      ],
      "stateMutability": "view",
      "type": "function"
    },
    {
      "inputs": [],
      "name": "pause",
      "outputs": [],
      "stateMutability": "nonpayable",
      "type": "function"
    },
    {
      "inputs": [],
      "name": "paused",
      "outputs": [
        {
          "internalType": "bool",
          "name": "",
          "type": "bool"
        }
      ],
      "stateMutability": "view",
      "type": "function"
    },
    {
      "inputs": [
        {
          "components": [
            {
              "internalType": "uint256",
              "name": "bidAmount",
              "type": "uint256"
            },
            {
              "internalType": "address",
              "name": "bidder",
              "type": "address"
            },
            {
              "internalType": "bytes32",
              "name": "orderID",
              "type": "bytes32"
            },
            {
              "internalType": "uint256",
              "name": "expireTimestamp",
              "type": "uint256"
            }
          ],
          "internalType": "struct IAtomicSwapBase.PlaceBidMsg",
          "name": "placeBidMsg",
          "type": "tuple"
        }
      ],
      "name": "placeBid",
      "outputs": [],
      "stateMutability": "payable",
      "type": "function"
    },
    {
      "inputs": [
        {
          "internalType": "address",
          "name": "_account",
          "type": "address"
        }
      ],
      "name": "removeAdmin",
      "outputs": [],
      "stateMutability": "nonpayable",
      "type": "function"
    },
    {
      "inputs": [
        {
          "internalType": "address",
          "name": "_account",
          "type": "address"
        }
      ],
      "name": "removePauser",
      "outputs": [],
      "stateMutability": "nonpayable",
      "type": "function"
    },
    {
      "inputs": [
        {
          "internalType": "bytes32",
          "name": "role",
          "type": "bytes32"
        },
        {
          "internalType": "address",
          "name": "callerConfirmation",
          "type": "address"
        }
      ],
      "name": "renounceRole",
      "outputs": [],
      "stateMutability": "nonpayable",
      "type": "function"
    },
    {
      "inputs": [
        {
          "internalType": "bytes32",
          "name": "role",
          "type": "bytes32"
        },
        {
          "internalType": "address",
          "name": "account",
          "type": "address"
        }
      ],
      "name": "revokeRole",
      "outputs": [],
      "stateMutability": "nonpayable",
      "type": "function"
    },
    {
      "inputs": [],
      "name": "sellerFeeRate",
      "outputs": [
        {
          "internalType": "uint256",
          "name": "",
          "type": "uint256"
        }
      ],
      "stateMutability": "view",
      "type": "function"
    },
    {
      "inputs": [
        {
          "internalType": "uint256",
          "name": "_paginationSize",
          "type": "uint256"
        }
      ],
      "name": "setPaginationSize",
      "outputs": [],
      "stateMutability": "nonpayable",
      "type": "function"
    },
    {
      "inputs": [
        {
          "internalType": "bytes4",
          "name": "interfaceId",
          "type": "bytes4"
        }
      ],
      "name": "supportsInterface",
      "outputs": [
        {
          "internalType": "bool",
          "name": "",
          "type": "bool"
        }
      ],
      "stateMutability": "view",
      "type": "function"
    },
    {
      "inputs": [
        {
          "internalType": "bytes32",
          "name": "",
          "type": "bytes32"
        }
      ],
      "name": "swapOrder",
      "outputs": [
        {
          "internalType": "bytes32",
          "name": "id",
          "type": "bytes32"
        },
        {
          "internalType": "enum IAtomicSwapBase.OrderStatus",
          "name": "status",
          "type": "uint8"
        },
        {
          "internalType": "address",
          "name": "maker",
          "type": "address"
        },
        {
          "components": [
            {
              "internalType": "address",
              "name": "token",
              "type": "address"
            },
            {
              "internalType": "uint256",
              "name": "amount",
              "type": "uint256"
            }
          ],
          "internalType": "struct IAtomicSwapBase.Coin",
          "name": "sellToken",
          "type": "tuple"
        },
        {
          "internalType": "address",
          "name": "taker",
          "type": "address"
        },
        {
          "components": [
            {
              "internalType": "address",
              "name": "token",
              "type": "address"
            },
            {
              "internalType": "uint256",
              "name": "amount",
              "type": "uint256"
            }
          ],
          "internalType": "struct IAtomicSwapBase.Coin",
          "name": "buyToken",
          "type": "tuple"
        },
        {
          "internalType": "uint256",
          "name": "minBidAmount",
          "type": "uint256"
        },
        {
          "internalType": "uint256",
          "name": "createdAt",
          "type": "uint256"
        },
        {
          "internalType": "uint256",
          "name": "canceledAt",
          "type": "uint256"
        },
        {
          "internalType": "uint256",
          "name": "completedAt",
          "type": "uint256"
        },
        {
          "internalType": "uint256",
          "name": "expiredAt",
          "type": "uint256"
        },
        {
          "internalType": "bool",
          "name": "acceptBid",
          "type": "bool"
        }
      ],
      "stateMutability": "view",
      "type": "function"
    },
    {
      "inputs": [
        {
          "internalType": "bytes32",
          "name": "",
          "type": "bytes32"
        },
        {
          "internalType": "uint256",
          "name": "",
          "type": "uint256"
        }
      ],
      "name": "swapOrderVestingParams",
      "outputs": [
        {
          "internalType": "uint256",
          "name": "durationInHours",
          "type": "uint256"
        },
        {
          "internalType": "uint256",
          "name": "percentage",
          "type": "uint256"
        }
      ],
      "stateMutability": "view",
      "type": "function"
    },
    {
      "inputs": [
        {
          "components": [
            {
              "internalType": "bytes32",
              "name": "orderID",
              "type": "bytes32"
            },
            {
              "internalType": "address",
              "name": "takerReceiver",
              "type": "address"
            }
          ],
          "internalType": "struct IAtomicSwapBase.TakeSwapMsg",
          "name": "takeswap",
          "type": "tuple"
        }
      ],
      "name": "takeSwap",
      "outputs": [],
      "stateMutability": "payable",
      "type": "function"
    },
    {
      "inputs": [],
      "name": "unpause",
      "outputs": [],
      "stateMutability": "nonpayable",
      "type": "function"
    },
    {
      "inputs": [
        {
          "components": [
            {
              "internalType": "bytes32",
              "name": "orderID",
              "type": "bytes32"
            },
            {
              "internalType": "address",
              "name": "bidder",
              "type": "address"
            },
            {
              "internalType": "uint256",
              "name": "addition",
              "type": "uint256"
            }
          ],
          "internalType": "struct IAtomicSwapBase.UpdateBidMsg",
          "name": "updateBidMsg",
          "type": "tuple"
        }
      ],
      "name": "updateBid",
      "outputs": [],
      "stateMutability": "payable",
      "type": "function"
    }
  ],
  "bytecode": "0x608060405234801561001057600080fd5b506147d3806100206000396000f3fe6080604052600436106102045760003560e01c806366e929bf11610118578063a6b63eb8116100a0578063d7d5bbb11161006f578063d7d5bbb114610730578063df7cec2814610759578063e63ab1e914610775578063f2407ca4146107a0578063fca6caa1146107c957610204565b8063a6b63eb814610671578063a743a3d01461069a578063d2a25283146106d7578063d547741f1461070757610204565b80638456cb59116100e75780638456cb591461058957806389f68190146105a05780638d6cb1c4146105cb57806391d1485414610609578063a217fddf1461064657610204565b806366e929bf146104cc5780636b2c0f551461050e578063704802751461053757806382dc1ec41461056057610204565b80632f2ff15d1161019b5780633d9bd2fc1161016a5780633d9bd2fc146104065780633f4ba83a1461042257806346fbf68e1461043957806353f10c80146104765780635c975abb146104a157610204565b80632f2ff15d1461036d57806336568abe1461039657806337be0022146103bf5780633d538ecf146103db57610204565b80631785f53c116101d75780631785f53c1461029a578063248a9ca3146102c357806324d7806c146103005780632b2b65111461033d57610204565b806301ffc9a714610209578063022066611461024657806306be619c1461026257806316b50a821461027e575b600080fd5b34801561021557600080fd5b50610230600480360381019061022b9190612ded565b610811565b60405161023d9190612e35565b60405180910390f35b610260600480360381019061025b9190612e74565b61088b565b005b61027c60048036038101906102779190612ec0565b610af7565b005b61029860048036038101906102939190612f0c565b610dd5565b005b3480156102a657600080fd5b506102c160048036038101906102bc9190612f97565b610fd5565b005b3480156102cf57600080fd5b506102ea60048036038101906102e59190612ffa565b610fe5565b6040516102f79190613036565b60405180910390f35b34801561030c57600080fd5b5061032760048036038101906103229190612f97565b611013565b6040516103349190612e35565b60405180910390f35b610357600480360381019061035291906130d6565b611029565b6040516103649190613036565b60405180910390f35b34801561037957600080fd5b50610394600480360381019061038f9190613138565b611181565b005b3480156103a257600080fd5b506103bd60048036038101906103b89190613138565b6111a3565b005b6103d960048036038101906103d49190613197565b61121e565b005b3480156103e757600080fd5b506103f0611418565b6040516103fd91906131dd565b60405180910390f35b610420600480360381019061041b9190613217565b61141e565b005b34801561042e57600080fd5b50610437611633565b005b34801561044557600080fd5b50610460600480360381019061045b9190612f97565b6116a6565b60405161046d9190612e35565b60405180910390f35b34801561048257600080fd5b5061048b6116d9565b60405161049891906131dd565b60405180910390f35b3480156104ad57600080fd5b506104b66116df565b6040516104c39190612e35565b60405180910390f35b3480156104d857600080fd5b506104f360048036038101906104ee9190613138565b611704565b604051610505969594939291906132ca565b60405180910390f35b34801561051a57600080fd5b5061053560048036038101906105309190612f97565b61177a565b005b34801561054357600080fd5b5061055e60048036038101906105599190612f97565b6117a7565b005b34801561056c57600080fd5b5061058760048036038101906105829190612f97565b6117b7565b005b34801561059557600080fd5b5061059e6117e4565b005b3480156105ac57600080fd5b506105b5611857565b6040516105c291906131dd565b60405180910390f35b3480156105d757600080fd5b506105f260048036038101906105ed9190613357565b61185d565b604051610600929190613397565b60405180910390f35b34801561061557600080fd5b50610630600480360381019061062b9190613138565b61189e565b60405161063d9190612e35565b60405180910390f35b34801561065257600080fd5b5061065b611917565b6040516106689190613036565b60405180910390f35b34801561067d57600080fd5b50610698600480360381019061069391906133c0565b61191e565b005b3480156106a657600080fd5b506106c160048036038101906106bc9190613138565b611c1f565b6040516106ce91906131dd565b60405180910390f35b6106f160048036038101906106ec919061343b565b611c44565b6040516106fe9190613036565b60405180910390f35b34801561071357600080fd5b5061072e60048036038101906107299190613138565b611d76565b005b34801561073c57600080fd5b5061075760048036038101906107529190613489565b611d98565b005b610773600480360381019061076e9190612ffa565b61204f565b005b34801561078157600080fd5b5061078a6121d1565b6040516107979190613036565b60405180910390f35b3480156107ac57600080fd5b506107c760048036038101906107c291906134eb565b6121f5565b005b3480156107d557600080fd5b506107f060048036038101906107eb9190612ffa565b61228e565b6040516108089c9b9a999897969594939291906135ad565b60405180910390f35b60007f7965db0b000000000000000000000000000000000000000000000000000000007bffffffffffffffffffffffffffffffffffffffffffffffffffffffff1916827bffffffffffffffffffffffffffffffffffffffffffffffffffffffff1916148061088457506108838261241c565b5b9050919050565b610893612486565b61089b6124c7565b8060000135600073ffffffffffffffffffffffffffffffffffffffff166001600083815260200190815260200160002060010160019054906101000a900473ffffffffffffffffffffffffffffffffffffffff1673ffffffffffffffffffffffffffffffffffffffff160361093c576040517f5dcaf2d700000000000000000000000000000000000000000000000000000000815260040160405180910390fd5b81600001356000600381111561095557610954613244565b5b6001600083815260200190815260200160002060010160009054906101000a900460ff16600381111561098b5761098a613244565b5b146109c2576040517fd4dbb56500000000000000000000000000000000000000000000000000000000815260040160405180910390fd5b600080600173__$8ad05547f64aebe22f2eafad9eff5b91dd$__634e9036e190916003600289600460009054906101000a900473ffffffffffffffffffffffffffffffffffffffff16600654600754612710600560009054906101000a900473ffffffffffffffffffffffffffffffffffffffff166040518a63ffffffff1660e01b8152600401610a5b99989796959493929190613786565b6040805180830381865af4158015610a77573d6000803e3d6000fd5b505050506040513d601f19601f82011682018060405250810190610a9b919061383e565b91509150808273ffffffffffffffffffffffffffffffffffffffff1686600001357fadd1d5b6c827fee45fa32e72964c9d43d2191c9b8b083889fb2e3f468c71856860405160405180910390a450505050610af461251e565b50565b610aff612486565b610b076124c7565b8060000135600073ffffffffffffffffffffffffffffffffffffffff166001600083815260200190815260200160002060010160019054906101000a900473ffffffffffffffffffffffffffffffffffffffff1673ffffffffffffffffffffffffffffffffffffffff1603610ba8576040517f5dcaf2d700000000000000000000000000000000000000000000000000000000815260040160405180910390fd5b816000013560006003811115610bc157610bc0613244565b5b6001600083815260200190815260200160002060010160009054906101000a900460ff166003811115610bf757610bf6613244565b5b14610c2e576040517fd4dbb56500000000000000000000000000000000000000000000000000000000815260040160405180910390fd5b6000600160008560000135815260200190815260200160002090508073__$8ad05547f64aebe22f2eafad9eff5b91dd$__63ae80de409091866002600086600001548152602001908152602001600020600460009054906101000a900473ffffffffffffffffffffffffffffffffffffffff16600654600754612710600560009054906101000a900473ffffffffffffffffffffffffffffffffffffffff166040518963ffffffff1660e01b8152600401610cf09897969594939291906139fe565b60006040518083038186803b158015610d0857600080fd5b505af4158015610d1c573d6000803e3d6000fd5b5050505083600001358160040160009054906101000a900473ffffffffffffffffffffffffffffffffffffffff1673ffffffffffffffffffffffffffffffffffffffff168260010160019054906101000a900473ffffffffffffffffffffffffffffffffffffffff1673ffffffffffffffffffffffffffffffffffffffff167f6bf7309f141d1b44e414f1fc04d98491cd0acf98f0f1e5ad885d0a7ce164e6fa60405160405180910390a4505050610dd261251e565b50565b610ddd6124c7565b610de5612486565b8060400135600073ffffffffffffffffffffffffffffffffffffffff166001600083815260200190815260200160002060010160019054906101000a900473ffffffffffffffffffffffffffffffffffffffff1673ffffffffffffffffffffffffffffffffffffffff1603610e86576040517f5dcaf2d700000000000000000000000000000000000000000000000000000000815260040160405180910390fd5b816040013560006003811115610e9f57610e9e613244565b5b6001600083815260200190815260200160002060010160009054906101000a900460ff166003811115610ed557610ed4613244565b5b14610f0c576040517fd4dbb56500000000000000000000000000000000000000000000000000000000815260040160405180910390fd5b600173__$8ad05547f64aebe22f2eafad9eff5b91dd$__6304e3299a90916003866040518463ffffffff1660e01b8152600401610f4b93929190613b10565b60006040518083038186803b158015610f6357600080fd5b505af4158015610f77573d6000803e3d6000fd5b5050505082600001353373ffffffffffffffffffffffffffffffffffffffff1684604001357f1126836d9a6f07e69d20f7ac2db448d68d9bb24718d7e8e0e85b8cfd96bb04c160405160405180910390a45050610fd261251e565b50565b610fe26000801b82611d76565b50565b600080610ff0612537565b905080600001600084815260200190815260200160002060010154915050919050565b60006110226000801b8361189e565b9050919050565b60008282808060200260200160405190810160405280939291908181526020016000905b8282101561107d5784848390506040020180360381019061106e9190613c28565b8152602001906001019061104d565b505050505073__$2effe1973215a034e8e4a17bdeb5710028$__6333b988f590916040518263ffffffff1660e01b81526004016110ba9190613d22565b60006040518083038186803b1580156110d257600080fd5b505af41580156110e6573d6000803e3d6000fd5b505050506110f384611c44565b905060005b83839050811015611179576002600083815260200190815260200160002084848381811061112957611128613d44565b5b905060400201908060018154018082558091505060019003906000526020600020906002020160009091909190915081816111649190613e6d565b5050808061117190613eaa565b9150506110f8565b509392505050565b61118a82610fe5565b6111938161255f565b61119d8383612573565b50505050565b6111ab612674565b73ffffffffffffffffffffffffffffffffffffffff168173ffffffffffffffffffffffffffffffffffffffff161461120f576040517f6697b23200000000000000000000000000000000000000000000000000000000815260040160405180910390fd5b611219828261267c565b505050565b611226612486565b61122e6124c7565b8060000135600073ffffffffffffffffffffffffffffffffffffffff166001600083815260200190815260200160002060010160019054906101000a900473ffffffffffffffffffffffffffffffffffffffff1673ffffffffffffffffffffffffffffffffffffffff16036112cf576040517f5dcaf2d700000000000000000000000000000000000000000000000000000000815260040160405180910390fd5b8160000135600060038111156112e8576112e7613244565b5b6001600083815260200190815260200160002060010160009054906101000a900460ff16600381111561131e5761131d613244565b5b14611355576040517fd4dbb56500000000000000000000000000000000000000000000000000000000815260040160405180910390fd5b6000600160008560000135815260200190815260200160002090508073__$8ad05547f64aebe22f2eafad9eff5b91dd$__639f09fff690916040518263ffffffff1660e01b81526004016113a99190613ef2565b60006040518083038186803b1580156113c157600080fd5b505af41580156113d5573d6000803e3d6000fd5b5050505083600001357ff68aeec8f55d67a9b2cf2b6caea31e11f2c14e09da250170575d63911f26aa6e60405160405180910390a250505061141561251e565b50565b60005481565b611426612486565b61142e6124c7565b8060000135600073ffffffffffffffffffffffffffffffffffffffff166001600083815260200190815260200160002060010160019054906101000a900473ffffffffffffffffffffffffffffffffffffffff1673ffffffffffffffffffffffffffffffffffffffff16036114cf576040517f5dcaf2d700000000000000000000000000000000000000000000000000000000815260040160405180910390fd5b8160000135600060038111156114e8576114e7613244565b5b6001600083815260200190815260200160002060010160009054906101000a900460ff16600381111561151e5761151d613244565b5b14611555576040517fd4dbb56500000000000000000000000000000000000000000000000000000000815260040160405180910390fd5b600080600173__$8ad05547f64aebe22f2eafad9eff5b91dd$__63a25027a890916003886040518463ffffffff1660e01b815260040161159793929190613f67565b6040805180830381865af41580156115b3573d6000803e3d6000fd5b505050506040513d601f19601f820116820180604052508101906115d7919061383e565b91509150808273ffffffffffffffffffffffffffffffffffffffff1686600001357f7786094a5edc61a0463300b9b97a1b22d338bc800ed33404ba9a3888b71de0fc60405160405180910390a45050505061163061251e565b50565b61165d7f65d7a28e3265b37a6474929f336521b332c1681b933f6cb9f3376673440d862a3361189e565b61169c576040517f08c379a000000000000000000000000000000000000000000000000000000000815260040161169390613ffb565b60405180910390fd5b6116a461277e565b565b60006116d27f65d7a28e3265b37a6474929f336521b332c1681b933f6cb9f3376673440d862a8361189e565b9050919050565b60075481565b6000806116ea6127f0565b90508060000160009054906101000a900460ff1691505090565b6003602052816000526040600020602052806000526040600020600091509150508060000154908060010154908060020160009054906101000a900460ff16908060020160019054906101000a900473ffffffffffffffffffffffffffffffffffffffff16908060030154908060040154905086565b6117a47f65d7a28e3265b37a6474929f336521b332c1681b933f6cb9f3376673440d862a82611d76565b50565b6117b46000801b82611181565b50565b6117e17f65d7a28e3265b37a6474929f336521b332c1681b933f6cb9f3376673440d862a82611181565b50565b61180e7f65d7a28e3265b37a6474929f336521b332c1681b933f6cb9f3376673440d862a3361189e565b61184d576040517f08c379a000000000000000000000000000000000000000000000000000000000815260040161184490613ffb565b60405180910390fd5b611855612818565b565b60065481565b6002602052816000526040600020818154811061187957600080fd5b9060005260206000209060020201600091509150508060000154908060010154905082565b6000806118a9612537565b905080600001600085815260200190815260200160002060000160008473ffffffffffffffffffffffffffffffffffffffff1673ffffffffffffffffffffffffffffffffffffffff16815260200190815260200160002060009054906101000a900460ff1691505092915050565b6000801b81565b600061192861288a565b905060008160000160089054906101000a900460ff1615905060008260000160009054906101000a900467ffffffffffffffff1690506000808267ffffffffffffffff161480156119765750825b9050600060018367ffffffffffffffff161480156119ab575060003073ffffffffffffffffffffffffffffffffffffffff163b145b9050811580156119b9575080155b156119f0576040517ff92ee8a900000000000000000000000000000000000000000000000000000000815260040160405180910390fd5b60018560000160006101000a81548167ffffffffffffffff021916908367ffffffffffffffff1602179055508315611a405760018560000160086101000a81548160ff0219169083151502179055505b611a498a6128b2565b612710871115611a85576040517fce43144600000000000000000000000000000000000000000000000000000000815260040160405180910390fd5b612710861115611ac1576040517fb089e48e00000000000000000000000000000000000000000000000000000000815260040160405180910390fd5b600073ffffffffffffffffffffffffffffffffffffffff168873ffffffffffffffffffffffffffffffffffffffff1603611b27576040517fcfe2ea6300000000000000000000000000000000000000000000000000000000815260040160405180910390fd5b866006819055508560078190555087600560006101000a81548173ffffffffffffffffffffffffffffffffffffffff021916908373ffffffffffffffffffffffffffffffffffffffff16021790555088600460006101000a81548173ffffffffffffffffffffffffffffffffffffffff021916908373ffffffffffffffffffffffffffffffffffffffff1602179055508315611c135760008560000160086101000a81548160ff0219169083151502179055507fc7f505b2f371ae2175ee4913f4499e1f2633a7b5936321eed1cdaeb6115181d26001604051611c0a919061406a565b60405180910390a15b50505050505050505050565b6008602052816000526040600020602052806000526040600020600091509150505481565b6000611c4e6124c7565b611c56612486565b73__$2effe1973215a034e8e4a17bdeb5710028$__639a0ebe00836040518263ffffffff1660e01b8152600401611c8d9190614207565b60006040518083038186803b158015611ca557600080fd5b505af4158015611cb9573d6000803e3d6000fd5b50505050600173__$8ad05547f64aebe22f2eafad9eff5b91dd$__639bbeb95d9091846040518363ffffffff1660e01b8152600401611cf9929190614223565b602060405180830381865af4158015611d16573d6000803e3d6000fd5b505050506040513d601f19601f82011682018060405250810190611d3a9190614262565b9050807f8b82d32987f9a4ae1bc7868a6f104edb711227ec3c9fccb0416a14fcc29bec5a60405160405180910390a2611d7161251e565b919050565b611d7f82610fe5565b611d888161255f565b611d92838361267c565b50505050565b611da06124c7565b611da8612486565b826060016000016020810190611dbe9190612f97565b73ffffffffffffffffffffffffffffffffffffffff16836020016000016020810190611dea9190612f97565b73ffffffffffffffffffffffffffffffffffffffff1603611e37576040517f45b3a4c700000000000000000000000000000000000000000000000000000000815260040160405180910390fd5b60006040518060800160405280600654815260200160075481526020016127108152602001600560009054906101000a900473ffffffffffffffffffffffffffffffffffffffff1673ffffffffffffffffffffffffffffffffffffffff1681525090506000806000600173__$8ad05547f64aebe22f2eafad9eff5b91dd$__63884268949091898989600460009054906101000a900473ffffffffffffffffffffffffffffffffffffffff168a6040518763ffffffff1660e01b8152600401611f059695949392919061459a565b606060405180830381865af4158015611f22573d6000803e3d6000fd5b505050506040513d601f19601f82011682018060405250810190611f4691906145fa565b925092509250827f8b82d32987f9a4ae1bc7868a6f104edb711227ec3c9fccb0416a14fcc29bec5a60405160405180910390a28660e0016020810190611f8c919061464d565b15611fe25786606001602001358273ffffffffffffffffffffffffffffffffffffffff16847fadd1d5b6c827fee45fa32e72964c9d43d2191c9b8b083889fb2e3f468c71856860405160405180910390a461203e565b828173ffffffffffffffffffffffffffffffffffffffff168373ffffffffffffffffffffffffffffffffffffffff167f6bf7309f141d1b44e414f1fc04d98491cd0acf98f0f1e5ad885d0a7ce164e6fa60405160405180910390a45b5050505061204a61251e565b505050565b612057612486565b61205f6124c7565b80600073ffffffffffffffffffffffffffffffffffffffff166001600083815260200190815260200160002060010160019054906101000a900473ffffffffffffffffffffffffffffffffffffffff1673ffffffffffffffffffffffffffffffffffffffff16036120fc576040517f5dcaf2d700000000000000000000000000000000000000000000000000000000815260040160405180910390fd5b6000600173__$8ad05547f64aebe22f2eafad9eff5b91dd$__630cbc368890916003866040518463ffffffff1660e01b815260040161213d93929190614689565b602060405180830381865af415801561215a573d6000803e3d6000fd5b505050506040513d601f19601f8201168201806040525081019061217e91906146c0565b90508073ffffffffffffffffffffffffffffffffffffffff16837f6c2a0bb8117ecfbc53a4385a5421be8eb081718159b9eb3d7c273ecb07fe7cfd60405160405180910390a350506121ce61251e565b50565b7f65d7a28e3265b37a6474929f336521b332c1681b933f6cb9f3376673440d862a81565b6122026000801b3361189e565b612241576040517f08c379a000000000000000000000000000000000000000000000000000000000815260040161223890613ffb565b60405180910390fd5b60008111612284576040517f08c379a000000000000000000000000000000000000000000000000000000000815260040161227b90614739565b60405180910390fd5b8060008190555050565b60016020528060005260406000206000915090508060000154908060010160009054906101000a900460ff16908060010160019054906101000a900473ffffffffffffffffffffffffffffffffffffffff1690806002016040518060400160405290816000820160009054906101000a900473ffffffffffffffffffffffffffffffffffffffff1673ffffffffffffffffffffffffffffffffffffffff1673ffffffffffffffffffffffffffffffffffffffff168152602001600182015481525050908060040160009054906101000a900473ffffffffffffffffffffffffffffffffffffffff1690806005016040518060400160405290816000820160009054906101000a900473ffffffffffffffffffffffffffffffffffffffff1673ffffffffffffffffffffffffffffffffffffffff1673ffffffffffffffffffffffffffffffffffffffff1681526020016001820154815250509080600701549080600801549080600901549080600a01549080600b01549080600c0160009054906101000a900460ff1690508c565b60007f01ffc9a7000000000000000000000000000000000000000000000000000000007bffffffffffffffffffffffffffffffffffffffffffffffffffffffff1916827bffffffffffffffffffffffffffffffffffffffffffffffffffffffff1916149050919050565b61248e6116df565b156124c5576040517fd93c066500000000000000000000000000000000000000000000000000000000815260040160405180910390fd5b565b60006124d1612a61565b90506002816000015403612511576040517f3ee5aeb500000000000000000000000000000000000000000000000000000000815260040160405180910390fd5b6002816000018190555050565b6000612528612a61565b90506001816000018190555050565b60007f02dd7bc7dec4dceedda775e58dd541e08a116c6c53815c0bd028192f7b626800905090565b6125708161256b612674565b612a89565b50565b60008061257e612537565b905061258a848461189e565b61266857600181600001600086815260200190815260200160002060000160008573ffffffffffffffffffffffffffffffffffffffff1673ffffffffffffffffffffffffffffffffffffffff16815260200190815260200160002060006101000a81548160ff021916908315150217905550612604612674565b73ffffffffffffffffffffffffffffffffffffffff168373ffffffffffffffffffffffffffffffffffffffff16857f2f8788117e7eff1d82e926ec794901d17c78024a50270940304540a733656f0d60405160405180910390a4600191505061266e565b60009150505b92915050565b600033905090565b600080612687612537565b9050612693848461189e565b1561277257600081600001600086815260200190815260200160002060000160008573ffffffffffffffffffffffffffffffffffffffff1673ffffffffffffffffffffffffffffffffffffffff16815260200190815260200160002060006101000a81548160ff02191690831515021790555061270e612674565b73ffffffffffffffffffffffffffffffffffffffff168373ffffffffffffffffffffffffffffffffffffffff16857ff6391f5c32d9c69d2a47ea670b442974b53935d1edc7fd64eb21e047a839171b60405160405180910390a46001915050612778565b60009150505b92915050565b612786612ada565b60006127906127f0565b905060008160000160006101000a81548160ff0219169083151502179055507f5db9ee0a495bf2e6ff9c91a7834c1ba4fdd244a5e8aa4e537bd38aeae4b073aa6127d8612674565b6040516127e59190614759565b60405180910390a150565b60007fcd5ed15c6e187e77e9aee88184c21f4f2182ab5827cb3b7e07fbedcd63f03300905090565b612820612486565b600061282a6127f0565b905060018160000160006101000a81548160ff0219169083151502179055507f62e78cea01bee320cd4e420270b5ea74000d11b0c9f74754ebdbfc544b05a258612872612674565b60405161287f9190614759565b60405180910390a150565b60007ff0c57e16840df040f15088dc2f81fe391c3923bec73e23a9662efc9c229c6a00905090565b60006128bc61288a565b905060008160000160089054906101000a900460ff1615905060008260000160009054906101000a900467ffffffffffffffff1690506000808267ffffffffffffffff1614801561290a5750825b9050600060018367ffffffffffffffff1614801561293f575060003073ffffffffffffffffffffffffffffffffffffffff163b145b90508115801561294d575080155b15612984576040517ff92ee8a900000000000000000000000000000000000000000000000000000000815260040160405180910390fd5b60018560000160006101000a81548167ffffffffffffffff021916908367ffffffffffffffff16021790555083156129d45760018560000160086101000a81548160ff0219169083151502179055505b6129dc612b1a565b6129e4612b24565b6129ec612b2e565b6129f586612b62565b60646000819055508315612a595760008560000160086101000a81548160ff0219169083151502179055507fc7f505b2f371ae2175ee4913f4499e1f2633a7b5936321eed1cdaeb6115181d26001604051612a50919061406a565b60405180910390a15b505050505050565b60007f9b779b17422d0df92223018b32b4d1fa46e071723d6817e2486d003becc55f00905090565b612a93828261189e565b612ad65780826040517fe2517d3f000000000000000000000000000000000000000000000000000000008152600401612acd929190614774565b60405180910390fd5b5050565b612ae26116df565b612b18576040517f8dfc202b00000000000000000000000000000000000000000000000000000000815260040160405180910390fd5b565b612b22612d21565b565b612b2c612d21565b565b612b36612d21565b6000612b406127f0565b905060008160000160006101000a81548160ff02191690831515021790555050565b6000612b6c61288a565b905060008160000160089054906101000a900460ff1615905060008260000160009054906101000a900467ffffffffffffffff1690506000808267ffffffffffffffff16148015612bba5750825b9050600060018367ffffffffffffffff16148015612bef575060003073ffffffffffffffffffffffffffffffffffffffff163b145b905081158015612bfd575080155b15612c34576040517ff92ee8a900000000000000000000000000000000000000000000000000000000815260040160405180910390fd5b60018560000160006101000a81548167ffffffffffffffff021916908367ffffffffffffffff1602179055508315612c845760018560000160086101000a81548160ff0219169083151502179055505b612c916000801b87612573565b50612cbc7f65d7a28e3265b37a6474929f336521b332c1681b933f6cb9f3376673440d862a87612573565b508315612d195760008560000160086101000a81548160ff0219169083151502179055507fc7f505b2f371ae2175ee4913f4499e1f2633a7b5936321eed1cdaeb6115181d26001604051612d10919061406a565b60405180910390a15b505050505050565b612d29612d61565b612d5f576040517fd7e6bcf800000000000000000000000000000000000000000000000000000000815260040160405180910390fd5b565b6000612d6b61288a565b60000160089054906101000a900460ff16905090565b6000604051905090565b600080fd5b600080fd5b60007fffffffff0000000000000000000000000000000000000000000000000000000082169050919050565b612dca81612d95565b8114612dd557600080fd5b50565b600081359050612de781612dc1565b92915050565b600060208284031215612e0357612e02612d8b565b5b6000612e1184828501612dd8565b91505092915050565b60008115159050919050565b612e2f81612e1a565b82525050565b6000602082019050612e4a6000830184612e26565b92915050565b600080fd5b600060408284031215612e6b57612e6a612e50565b5b81905092915050565b600060408284031215612e8a57612e89612d8b565b5b6000612e9884828501612e55565b91505092915050565b600060408284031215612eb757612eb6612e50565b5b81905092915050565b600060408284031215612ed657612ed5612d8b565b5b6000612ee484828501612ea1565b91505092915050565b600060808284031215612f0357612f02612e50565b5b81905092915050565b600060808284031215612f2257612f21612d8b565b5b6000612f3084828501612eed565b91505092915050565b600073ffffffffffffffffffffffffffffffffffffffff82169050919050565b6000612f6482612f39565b9050919050565b612f7481612f59565b8114612f7f57600080fd5b50565b600081359050612f9181612f6b565b92915050565b600060208284031215612fad57612fac612d8b565b5b6000612fbb84828501612f82565b91505092915050565b6000819050919050565b612fd781612fc4565b8114612fe257600080fd5b50565b600081359050612ff481612fce565b92915050565b6000602082840312156130105761300f612d8b565b5b600061301e84828501612fe5565b91505092915050565b61303081612fc4565b82525050565b600060208201905061304b6000830184613027565b92915050565b6000610140828403121561306857613067612e50565b5b81905092915050565b600080fd5b600080fd5b600080fd5b60008083601f84011261309657613095613071565b5b8235905067ffffffffffffffff8111156130b3576130b2613076565b5b6020830191508360408202830111156130cf576130ce61307b565b5b9250929050565b600080600061016084860312156130f0576130ef612d8b565b5b60006130fe86828701613051565b93505061014084013567ffffffffffffffff8111156131205761311f612d90565b5b61312c86828701613080565b92509250509250925092565b6000806040838503121561314f5761314e612d8b565b5b600061315d85828601612fe5565b925050602061316e85828601612f82565b9150509250929050565b60006020828403121561318e5761318d612e50565b5b81905092915050565b6000602082840312156131ad576131ac612d8b565b5b60006131bb84828501613178565b91505092915050565b6000819050919050565b6131d7816131c4565b82525050565b60006020820190506131f260008301846131ce565b92915050565b60006060828403121561320e5761320d612e50565b5b81905092915050565b60006060828403121561322d5761322c612d8b565b5b600061323b848285016131f8565b91505092915050565b7f4e487b7100000000000000000000000000000000000000000000000000000000600052602160045260246000fd5b6003811061328457613283613244565b5b50565b600081905061329582613273565b919050565b60006132a582613287565b9050919050565b6132b58161329a565b82525050565b6132c481612f59565b82525050565b600060c0820190506132df60008301896131ce565b6132ec6020830188613027565b6132f960408301876132ac565b61330660608301866132bb565b61331360808301856131ce565b61332060a08301846131ce565b979650505050505050565b613334816131c4565b811461333f57600080fd5b50565b6000813590506133518161332b565b92915050565b6000806040838503121561336e5761336d612d8b565b5b600061337c85828601612fe5565b925050602061338d85828601613342565b9150509250929050565b60006040820190506133ac60008301856131ce565b6133b960208301846131ce565b9392505050565b600080600080600060a086880312156133dc576133db612d8b565b5b60006133ea88828901612f82565b95505060206133fb88828901612f82565b945050604061340c88828901612f82565b935050606061341d88828901613342565b925050608061342e88828901613342565b9150509295509295909350565b6000610140828403121561345257613451612d8b565b5b600061346084828501613051565b91505092915050565b600061024082840312156134805761347f612e50565b5b81905092915050565b600080600061026084860312156134a3576134a2612d8b565b5b60006134b186828701613469565b93505061024084013567ffffffffffffffff8111156134d3576134d2612d90565b5b6134df86828701613080565b92509250509250925092565b60006020828403121561350157613500612d8b565b5b600061350f84828501613342565b91505092915050565b6004811061352957613528613244565b5b50565b600081905061353a82613518565b919050565b600061354a8261352c565b9050919050565b61355a8161353f565b82525050565b61356981612f59565b82525050565b613578816131c4565b82525050565b6040820160008201516135946000850182613560565b5060208201516135a7602085018261356f565b50505050565b60006101c0820190506135c3600083018f613027565b6135d0602083018e613551565b6135dd604083018d6132bb565b6135ea606083018c61357e565b6135f760a083018b6132bb565b61360460c083018a61357e565b6136126101008301896131ce565b6136206101208301886131ce565b61362e6101408301876131ce565b61363c6101608301866131ce565b61364a6101808301856131ce565b6136586101a0830184612e26565b9d9c50505050505050505050505050565b8082525050565b8082525050565b8082525050565b600061368d6020840184612fe5565b905092915050565b61369e81612fc4565b82525050565b60006136b36020840184612f82565b905092915050565b6136c481612f59565b82525050565b604082016136db600083018361367e565b6136e86000850182613695565b506136f660208301836136a4565b61370360208501826136bb565b50505050565b6000819050919050565b600061372e61372961372484612f39565b613709565b612f39565b9050919050565b600061374082613713565b9050919050565b600061375282613735565b9050919050565b61376281613747565b82525050565b613771816131c4565b82525050565b61378081612f59565b82525050565b60006101408201905061379c600083018c613669565b6137a9602083018b613670565b6137b6604083018a613677565b6137c360608301896136ca565b6137d060a0830188613759565b6137dd60c0830187613768565b6137ea60e0830186613768565b6137f8610100830185613768565b613806610120830184613777565b9a9950505050505050505050565b60008151905061382381612f6b565b92915050565b6000815190506138388161332b565b92915050565b6000806040838503121561385557613854612d8b565b5b600061386385828601613814565b925050602061387485828601613829565b9150509250929050565b8082525050565b60408201613896600083018361367e565b6138a36000850182613695565b506138b160208301836136a4565b6138be60208501826136bb565b50505050565b600081549050919050565b600082825260208201905092915050565b60008190508160005260206000209050919050565b60008160001c9050919050565b6000819050919050565b600061391f61391a836138f5565b613902565b9050919050565b61392f816131c4565b82525050565b60408201600080830154905061394a8161390c565b6139576000860182613926565b50600183015490506139688161390c565b6139756020860182613926565b5050505050565b60006139888383613935565b60408301905092915050565b6000600282019050919050565b60006139ac826138c4565b6139b681856138cf565b93506139c1836138e0565b8060005b838110156139f157816139d8888261397c565b97506139e383613994565b9250506001810190506139c5565b5085935050505092915050565b600061012082019050613a14600083018b61387e565b613a21602083018a613885565b8181036060830152613a3381896139a1565b9050613a426080830188613759565b613a4f60a0830187613768565b613a5c60c0830186613768565b613a6960e0830185613768565b613a77610100830184613777565b9998505050505050505050565b6000613a936020840184613342565b905092915050565b60808201613aac6000830183613a84565b613ab96000850182613926565b50613ac760208301836136a4565b613ad460208501826136bb565b50613ae2604083018361367e565b613aef6040850182613695565b50613afd6060830183613a84565b613b0a6060850182613926565b50505050565b600060c082019050613b256000830186613669565b613b326020830185613670565b613b3f6040830184613a9b565b949350505050565b600080fd5b6000601f19601f8301169050919050565b7f4e487b7100000000000000000000000000000000000000000000000000000000600052604160045260246000fd5b613b9582613b4c565b810181811067ffffffffffffffff82111715613bb457613bb3613b5d565b5b80604052505050565b6000613bc7612d81565b9050613bd38282613b8c565b919050565b600060408284031215613bee57613bed613b47565b5b613bf86040613bbd565b90506000613c0884828501613342565b6000830152506020613c1c84828501613342565b60208301525092915050565b600060408284031215613c3e57613c3d612d8b565b5b6000613c4c84828501613bd8565b91505092915050565b600081519050919050565b6000819050602082019050919050565b604082016000820151613c866000850182613926565b506020820151613c996020850182613926565b50505050565b6000613cab8383613c70565b60408301905092915050565b6000602082019050919050565b6000613ccf82613c55565b613cd981856138cf565b9350613ce483613c60565b8060005b83811015613d15578151613cfc8882613c9f565b9750613d0783613cb7565b925050600181019050613ce8565b5085935050505092915050565b60006020820190508181036000830152613d3c8184613cc4565b905092915050565b7f4e487b7100000000000000000000000000000000000000000000000000000000600052603260045260246000fd5b60008135613d808161332b565b80915050919050565b60008160001b9050919050565b60007fffffffffffffffffffffffffffffffffffffffffffffffffffffffffffffffff613dc284613d89565b9350801983169250808416831791505092915050565b6000613df3613dee613de9846131c4565b613709565b6131c4565b9050919050565b6000819050919050565b613e0d82613dd8565b613e20613e1982613dfa565b8354613d96565b8255505050565b600081016000830180613e3981613d73565b9050613e458184613e04565b505050600181016020830180613e5a81613d73565b9050613e668184613e04565b5050505050565b613e778282613e27565b5050565b7f4e487b7100000000000000000000000000000000000000000000000000000000600052601160045260246000fd5b6000613eb5826131c4565b91507fffffffffffffffffffffffffffffffffffffffffffffffffffffffffffffffff8203613ee757613ee6613e7b565b5b600182019050919050565b6000602082019050613f07600083018461387e565b92915050565b60608201613f1e600083018361367e565b613f2b6000850182613695565b50613f3960208301836136a4565b613f4660208501826136bb565b50613f546040830183613a84565b613f616040850182613926565b50505050565b600060a082019050613f7c6000830186613669565b613f896020830185613670565b613f966040830184613f0d565b949350505050565b600082825260208201905092915050565b7f4f776e61626c655061757361626c653a206163636573732064656e6965640000600082015250565b6000613fe5601e83613f9e565b9150613ff082613faf565b602082019050919050565b6000602082019050818103600083015261401481613fd8565b9050919050565b6000819050919050565b600067ffffffffffffffff82169050919050565b600061405461404f61404a8461401b565b613709565b614025565b9050919050565b61406481614039565b82525050565b600060208201905061407f600083018461405b565b92915050565b600082905092915050565b604082016140a160008301836136a4565b6140ae60008501826136bb565b506140bc6020830183613a84565b6140c96020850182613926565b50505050565b6140d881612e1a565b81146140e357600080fd5b50565b6000813590506140f5816140cf565b92915050565b600061410a60208401846140e6565b905092915050565b61411b81612e1a565b82525050565b6101408201614133600083018361367e565b6141406000850182613695565b5061414e6020830183614085565b61415b6020850182614090565b506141696060830183614085565b6141766060850182614090565b5061418460a08301836136a4565b61419160a08501826136bb565b5061419f60c08301836136a4565b6141ac60c08501826136bb565b506141ba60e0830183613a84565b6141c760e0850182613926565b506141d6610100830183613a84565b6141e4610100850182613926565b506141f36101208301836140fb565b614201610120850182614112565b50505050565b60006101408201905061421d6000830184614121565b92915050565b6000610160820190506142396000830185613669565b6142466020830184614121565b9392505050565b60008151905061425c81612fce565b92915050565b60006020828403121561427857614277612d8b565b5b60006142868482850161424d565b91505092915050565b600082905092915050565b600060ff82169050919050565b6142b08161429a565b81146142bb57600080fd5b50565b6000813590506142cd816142a7565b92915050565b60006142e260208401846142be565b905092915050565b6142f38161429a565b82525050565b60a0820161430a6000830183613a84565b6143176000850182613926565b5061432560208301836142d3565b61433260208501826142ea565b50614340604083018361367e565b61434d6040850182613695565b5061435b606083018361367e565b6143686060850182613695565b5061437660808301836136a4565b61438360808501826136bb565b50505050565b610240820161439b600083018361367e565b6143a86000850182613695565b506143b66020830183614085565b6143c36020850182614090565b506143d16060830183614085565b6143de6060850182614090565b506143ec60a08301836136a4565b6143f960a08501826136bb565b5061440760c0830183613a84565b61441460c0850182613926565b5061442260e08301836140fb565b61442f60e0850182614112565b5061443e61010083018361428f565b61444c6101008501826142f9565b5061445b6101a083018361428f565b6144696101a08501826142f9565b50505050565b6000819050919050565b6040820161448a6000830183613a84565b6144976000850182613926565b506144a56020830183613a84565b6144b26020850182613926565b50505050565b60006144c48383614479565b60408301905092915050565b600082905092915050565b6000604082019050919050565b60006144f483856138cf565b93506144ff8261446f565b8060005b858110156145385761451582846144d0565b61451f88826144b8565b975061452a836144db565b925050600181019050614503565b5085925050509392505050565b60808201600082015161455b6000850182613926565b50602082015161456e6020850182613926565b5060408201516145816040850182613926565b50606082015161459460608501826136bb565b50505050565b6000610320820190506145b06000830189613669565b6145bd6020830188614389565b8181036102608301526145d18186886144e8565b90506145e1610280830185613759565b6145ef6102a0830184614545565b979650505050505050565b60008060006060848603121561461357614612612d8b565b5b60006146218682870161424d565b935050602061463286828701613814565b925050604061464386828701613814565b9150509250925092565b60006020828403121561466357614662612d8b565b5b6000614671848285016140e6565b91505092915050565b61468381612fc4565b82525050565b600060608201905061469e6000830186613669565b6146ab6020830185613670565b6146b8604083018461467a565b949350505050565b6000602082840312156146d6576146d5612d8b565b5b60006146e484828501613814565b91505092915050565b7f4d6f726967696e4170703a20696e76616c69642076616c756521000000000000600082015250565b6000614723601a83613f9e565b915061472e826146ed565b602082019050919050565b6000602082019050818103600083015261475281614716565b9050919050565b600060208201905061476e60008301846132bb565b92915050565b600060408201905061478960008301856132bb565b6147966020830184613027565b939250505056fea26469706673582212207cf76756716f53170df2ee0a9c875113fbe211999d133e845f34e7d06202d79d64736f6c63430008140033",
  "linkReferences": {
    "contracts/abstracts/libs/logic/AtomicSwapStateLogic.sol": {
      "AtomicSwapStateLogic": [
        {
          "length": 20,
          "start": 2537
        },
        {
          "length": 20,
          "start": 3180
        },
        {
          "length": 20,
          "start": 3888
        },
        {
          "length": 20,
          "start": 5011
        },
        {
          "length": 20,
          "start": 5500
        },
        {
          "length": 20,
          "start": 7393
        },
        {
          "length": 20,
          "start": 7875
        },
        {
          "length": 20,
          "start": 8482
        }
      ]
    },
    "contracts/abstracts/libs/utils/AtomicSwapMsgValidator.sol": {
      "AtomicSwapMsgValidator": [
        {
          "length": 20,
          "start": 4260
        },
        {
          "length": 20,
          "start": 7288
        }
      ]
    }
  },
  "deployedLinkReferences": {
    "contracts/abstracts/libs/logic/AtomicSwapStateLogic.sol": {
      "AtomicSwapStateLogic": [
        {
          "length": 20,
          "start": 2505
        },
        {
          "length": 20,
          "start": 3148
        },
        {
          "length": 20,
          "start": 3856
        },
        {
          "length": 20,
          "start": 4979
        },
        {
          "length": 20,
          "start": 5468
        },
        {
          "length": 20,
          "start": 7361
        },
        {
          "length": 20,
          "start": 7843
        },
        {
          "length": 20,
          "start": 8450
        }
      ]
    },
    "contracts/abstracts/libs/utils/AtomicSwapMsgValidator.sol": {
      "AtomicSwapMsgValidator": [
        {
          "length": 20,
          "start": 4228
        },
        {
          "length": 20,
          "start": 7256
        }
      ]
    }
  }
}