{
  "_format": "hh-sol-artifact-1",
  "contractName": "InchainAtomicSwap",
  "sourceName": "contracts/inchain_atomicswap/InchainAtomicSwap.sol",
  "abi": [
    {
      "inputs": [
        {
          "internalType": "uint256",
          "name": "provided",
          "type": "uint256"
        },
        {
          "internalType": "uint256",
          "name": "expectedExpiry",
          "type": "uint256"
        }
      ],
      "name": "BidAlreadyExpired",
      "type": "error"
    },
    {
      "inputs": [],
      "name": "BidAlreadyPlaced",
      "type": "error"
    },
    {
      "inputs": [],
      "name": "BidDoesNotExist",
      "type": "error"
    },
    {
      "inputs": [],
      "name": "BidNotAllowed",
      "type": "error"
    },
    {
      "inputs": [
        {
          "internalType": "enum IAtomicSwapBase.BidStatus",
          "name": "status",
          "type": "uint8"
        }
      ],
      "name": "BidNotInPlacedStatus",
      "type": "error"
    },
    {
      "inputs": [
        {
          "internalType": "address",
          "name": "contractAddress",
          "type": "address"
        }
      ],
      "name": "InvalidContractAddress",
      "type": "error"
    },
    {
      "inputs": [
        {
          "internalType": "uint256",
          "name": "provided",
          "type": "uint256"
        },
        {
          "internalType": "uint256",
          "name": "maximum",
          "type": "uint256"
        }
      ],
      "name": "InvalidExpirationTime",
      "type": "error"
    },
    {
      "inputs": [],
      "name": "InvalidInitialization",
      "type": "error"
    },
    {
      "inputs": [],
      "name": "InvalidMinimumBidLimit",
      "type": "error"
    },
    {
      "inputs": [],
      "name": "InvalidTotalPercentage",
      "type": "error"
    },
    {
      "inputs": [
        {
          "internalType": "uint256",
          "name": "amount",
          "type": "uint256"
        }
      ],
      "name": "MismatchedBidAmount",
      "type": "error"
    },
    {
      "inputs": [],
      "name": "NoBidPlaced",
      "type": "error"
    },
    {
      "inputs": [
        {
          "internalType": "uint256",
          "name": "amount",
          "type": "uint256"
        },
        {
          "internalType": "uint256",
          "name": "allowance",
          "type": "uint256"
        }
      ],
      "name": "NotAllowedTransferAmount",
      "type": "error"
    },
    {
      "inputs": [
        {
          "internalType": "uint256",
          "name": "real",
          "type": "uint256"
        },
        {
          "internalType": "uint256",
          "name": "expected",
          "type": "uint256"
        }
      ],
      "name": "NotEnoughFund",
      "type": "error"
    },
    {
      "inputs": [],
      "name": "NotInitializing",
      "type": "error"
    },
    {
      "inputs": [],
      "name": "OrderAlreadyCompleted",
      "type": "error"
    },
    {
      "inputs": [],
      "name": "OrderAlreadyExists",
      "type": "error"
    },
    {
      "inputs": [],
      "name": "OrderDoesNotExist",
      "type": "error"
    },
    {
      "inputs": [],
      "name": "OrderNotAllowTake",
      "type": "error"
    },
    {
      "inputs": [],
      "name": "OverMaximumReleaseStep",
      "type": "error"
    },
    {
      "inputs": [
        {
          "internalType": "address",
          "name": "owner",
          "type": "address"
        }
      ],
      "name": "OwnableInvalidOwner",
      "type": "error"
    },
    {
      "inputs": [
        {
          "internalType": "address",
          "name": "account",
          "type": "address"
        }
      ],
      "name": "OwnableUnauthorizedAccount",
      "type": "error"
    },
    {
      "inputs": [],
      "name": "ReentrancyGuardReentrantCall",
      "type": "error"
    },
    {
      "inputs": [
        {
          "internalType": "address",
          "name": "caller",
          "type": "address"
        },
        {
          "internalType": "address",
          "name": "expected",
          "type": "address"
        }
      ],
      "name": "UnauthorizedAcceptAction",
      "type": "error"
    },
    {
      "inputs": [],
      "name": "UnauthorizedCancelAction",
      "type": "error"
    },
    {
      "inputs": [],
      "name": "UnauthorizedSender",
      "type": "error"
    },
    {
      "inputs": [],
      "name": "UnauthorizedTakeAction",
      "type": "error"
    },
    {
      "inputs": [],
      "name": "UnsupportedTokenPair",
      "type": "error"
    },
    {
      "inputs": [],
      "name": "ZeroReleaseSchedule",
      "type": "error"
    },
    {
      "anonymous": false,
      "inputs": [
        {
          "indexed": true,
          "internalType": "bytes32",
          "name": "orderID",
          "type": "bytes32"
        },
        {
          "indexed": true,
          "internalType": "address",
          "name": "bidder",
          "type": "address"
        },
        {
          "indexed": true,
          "internalType": "uint256",
          "name": "amount",
          "type": "uint256"
        }
      ],
      "name": "AcceptedBid",
      "type": "event"
    },
    {
      "anonymous": false,
      "inputs": [
        {
          "indexed": true,
          "internalType": "bytes32",
          "name": "id",
          "type": "bytes32"
        }
      ],
      "name": "AtomicSwapOrderCanceled",
      "type": "event"
    },
    {
      "anonymous": false,
      "inputs": [
        {
          "indexed": true,
          "internalType": "bytes32",
          "name": "id",
          "type": "bytes32"
        }
      ],
      "name": "AtomicSwapOrderCreated",
      "type": "event"
    },
    {
      "anonymous": false,
      "inputs": [
        {
          "indexed": true,
          "internalType": "address",
          "name": "maker",
          "type": "address"
        },
        {
          "indexed": true,
          "internalType": "address",
          "name": "taker",
          "type": "address"
        },
        {
          "indexed": true,
          "internalType": "bytes32",
          "name": "id",
          "type": "bytes32"
        }
      ],
      "name": "AtomicSwapOrderTook",
      "type": "event"
    },
    {
      "anonymous": false,
      "inputs": [
        {
          "indexed": true,
          "internalType": "bytes32",
          "name": "orderID",
          "type": "bytes32"
        },
        {
          "indexed": true,
          "internalType": "address",
          "name": "bidder",
          "type": "address"
        }
      ],
      "name": "CanceledBid",
      "type": "event"
    },
    {
      "anonymous": false,
      "inputs": [
        {
          "indexed": false,
          "internalType": "uint64",
          "name": "version",
          "type": "uint64"
        }
      ],
      "name": "Initialized",
      "type": "event"
    },
    {
      "anonymous": false,
      "inputs": [
        {
          "indexed": true,
          "internalType": "address",
          "name": "previousOwner",
          "type": "address"
        },
        {
          "indexed": true,
          "internalType": "address",
          "name": "newOwner",
          "type": "address"
        }
      ],
      "name": "OwnershipTransferred",
      "type": "event"
    },
    {
      "anonymous": false,
      "inputs": [
        {
          "indexed": true,
          "internalType": "bytes32",
          "name": "orderID",
          "type": "bytes32"
        },
        {
          "indexed": true,
          "internalType": "address",
          "name": "bidder",
          "type": "address"
        },
        {
          "indexed": true,
          "internalType": "uint256",
          "name": "amount",
          "type": "uint256"
        }
      ],
      "name": "PlacedBid",
      "type": "event"
    },
    {
      "anonymous": false,
      "inputs": [
        {
          "indexed": true,
          "internalType": "bytes32",
          "name": "orderID",
          "type": "bytes32"
        },
        {
          "indexed": true,
          "internalType": "address",
          "name": "bidder",
          "type": "address"
        },
        {
          "indexed": true,
          "internalType": "uint256",
          "name": "amount",
          "type": "uint256"
        }
      ],
      "name": "ReceivedNewBid",
      "type": "event"
    },
    {
      "anonymous": false,
      "inputs": [
        {
          "indexed": true,
          "internalType": "bytes32",
          "name": "orderID",
          "type": "bytes32"
        },
        {
          "indexed": true,
          "internalType": "address",
          "name": "bidder",
          "type": "address"
        },
        {
          "indexed": true,
          "internalType": "uint256",
          "name": "amount",
          "type": "uint256"
        }
      ],
      "name": "UpdatedBid",
      "type": "event"
    },
    {
      "inputs": [
        {
          "components": [
            {
              "internalType": "bytes32",
              "name": "orderID",
              "type": "bytes32"
            },
            {
              "internalType": "address",
              "name": "bidder",
              "type": "address"
            }
          ],
          "internalType": "struct IAtomicSwapBase.AcceptBidMsg",
          "name": "acceptBidMsg",
          "type": "tuple"
        }
      ],
      "name": "acceptBid",
      "outputs": [],
      "stateMutability": "payable",
      "type": "function"
    },
    {
      "inputs": [
        {
          "internalType": "bytes32",
          "name": "",
          "type": "bytes32"
        },
        {
          "internalType": "address",
          "name": "",
          "type": "address"
        }
      ],
      "name": "bids",
      "outputs": [
        {
          "internalType": "uint256",
          "name": "amount",
          "type": "uint256"
        },
        {
          "internalType": "bytes32",
          "name": "order",
          "type": "bytes32"
        },
        {
          "internalType": "enum IAtomicSwapBase.BidStatus",
          "name": "status",
          "type": "uint8"
        },
        {
          "internalType": "address",
          "name": "bidder",
          "type": "address"
        },
        {
          "internalType": "address",
          "name": "bidderReceiver",
          "type": "address"
        },
        {
          "internalType": "uint256",
          "name": "receiveTimestamp",
          "type": "uint256"
        },
        {
          "internalType": "uint256",
          "name": "expireTimestamp",
          "type": "uint256"
        }
      ],
      "stateMutability": "view",
      "type": "function"
    },
    {
      "inputs": [],
      "name": "buyerFeeRate",
      "outputs": [
        {
          "internalType": "uint256",
          "name": "",
          "type": "uint256"
        }
      ],
      "stateMutability": "view",
      "type": "function"
    },
    {
      "inputs": [
        {
          "internalType": "bytes32",
          "name": "_orderID",
          "type": "bytes32"
        }
      ],
      "name": "cancelBid",
      "outputs": [],
      "stateMutability": "payable",
      "type": "function"
    },
    {
      "inputs": [
        {
          "components": [
            {
              "internalType": "bytes32",
              "name": "orderID",
              "type": "bytes32"
            }
          ],
          "internalType": "struct IAtomicSwapBase.CancelSwapMsg",
          "name": "cancelswap",
          "type": "tuple"
        }
      ],
      "name": "cancelSwap",
      "outputs": [],
      "stateMutability": "payable",
      "type": "function"
    },
    {
      "inputs": [
        {
          "internalType": "bytes32",
          "name": "",
          "type": "bytes32"
        },
        {
          "internalType": "address",
          "name": "",
          "type": "address"
        }
      ],
      "name": "counteroffers",
      "outputs": [
        {
          "internalType": "uint256",
          "name": "",
          "type": "uint256"
        }
      ],
      "stateMutability": "view",
      "type": "function"
    },
    {
      "inputs": [
        {
          "internalType": "address",
          "name": "_admin",
          "type": "address"
        },
        {
          "internalType": "address",
          "name": "_vestingManager",
          "type": "address"
        },
        {
          "internalType": "address",
          "name": "_treasury",
          "type": "address"
        },
        {
          "internalType": "uint256",
          "name": "_sellerFee",
          "type": "uint256"
        },
        {
          "internalType": "uint256",
          "name": "_buyerFee",
          "type": "uint256"
        }
      ],
      "name": "initialize",
      "outputs": [],
      "stateMutability": "nonpayable",
      "type": "function"
    },
    {
      "inputs": [
        {
          "components": [
            {
              "internalType": "bytes32",
              "name": "uuid",
              "type": "bytes32"
            },
            {
              "components": [
                {
                  "internalType": "address",
                  "name": "token",
                  "type": "address"
                },
                {
                  "internalType": "uint256",
                  "name": "amount",
                  "type": "uint256"
                }
              ],
              "internalType": "struct IAtomicSwapBase.Coin",
              "name": "sellToken",
              "type": "tuple"
            },
            {
              "components": [
                {
                  "internalType": "address",
                  "name": "token",
                  "type": "address"
                },
                {
                  "internalType": "uint256",
                  "name": "amount",
                  "type": "uint256"
                }
              ],
              "internalType": "struct IAtomicSwapBase.Coin",
              "name": "buyToken",
              "type": "tuple"
            },
            {
              "internalType": "address",
              "name": "maker",
              "type": "address"
            },
            {
              "internalType": "address",
              "name": "desiredTaker",
              "type": "address"
            },
            {
              "internalType": "uint256",
              "name": "minBidAmount",
              "type": "uint256"
            },
            {
              "internalType": "uint256",
              "name": "expireAt",
              "type": "uint256"
            },
            {
              "internalType": "bool",
              "name": "acceptBid",
              "type": "bool"
            }
          ],
          "internalType": "struct IAtomicSwapBase.MakeSwapMsg",
          "name": "makeswap",
          "type": "tuple"
        }
      ],
      "name": "makeSwap",
      "outputs": [
        {
          "internalType": "bytes32",
          "name": "",
          "type": "bytes32"
        }
      ],
      "stateMutability": "payable",
      "type": "function"
    },
    {
      "inputs": [
        {
          "components": [
            {
              "internalType": "bytes32",
              "name": "uuid",
              "type": "bytes32"
            },
            {
              "components": [
                {
                  "internalType": "address",
                  "name": "token",
                  "type": "address"
                },
                {
                  "internalType": "uint256",
                  "name": "amount",
                  "type": "uint256"
                }
              ],
              "internalType": "struct IAtomicSwapBase.Coin",
              "name": "sellToken",
              "type": "tuple"
            },
            {
              "components": [
                {
                  "internalType": "address",
                  "name": "token",
                  "type": "address"
                },
                {
                  "internalType": "uint256",
                  "name": "amount",
                  "type": "uint256"
                }
              ],
              "internalType": "struct IAtomicSwapBase.Coin",
              "name": "buyToken",
              "type": "tuple"
            },
            {
              "internalType": "address",
              "name": "maker",
              "type": "address"
            },
            {
              "internalType": "address",
              "name": "desiredTaker",
              "type": "address"
            },
            {
              "internalType": "uint256",
              "name": "minBidAmount",
              "type": "uint256"
            },
            {
              "internalType": "uint256",
              "name": "expireAt",
              "type": "uint256"
            },
            {
              "internalType": "bool",
              "name": "acceptBid",
              "type": "bool"
            }
          ],
          "internalType": "struct IAtomicSwapBase.MakeSwapMsg",
          "name": "makeswap",
          "type": "tuple"
        },
        {
          "components": [
            {
              "internalType": "uint256",
              "name": "durationInHours",
              "type": "uint256"
            },
            {
              "internalType": "uint256",
              "name": "percentage",
              "type": "uint256"
            }
          ],
          "internalType": "struct IAtomicSwapBase.Release[]",
          "name": "releases",
          "type": "tuple[]"
        }
      ],
      "name": "makeSwapWithVesting",
      "outputs": [],
      "stateMutability": "payable",
      "type": "function"
    },
    {
      "inputs": [],
      "name": "owner",
      "outputs": [
        {
          "internalType": "address",
          "name": "",
          "type": "address"
        }
      ],
      "stateMutability": "view",
      "type": "function"
    },
    {
      "inputs": [
        {
          "components": [
            {
              "internalType": "uint256",
              "name": "bidAmount",
              "type": "uint256"
            },
            {
              "internalType": "address",
              "name": "bidder",
              "type": "address"
            },
            {
              "internalType": "address",
              "name": "bidderReceiver",
              "type": "address"
            },
            {
              "internalType": "bytes32",
              "name": "orderID",
              "type": "bytes32"
            },
            {
              "internalType": "uint256",
              "name": "expireTimestamp",
              "type": "uint256"
            }
          ],
          "internalType": "struct IAtomicSwapBase.PlaceBidMsg",
          "name": "placeBidMsg",
          "type": "tuple"
        }
      ],
      "name": "placeBid",
      "outputs": [],
      "stateMutability": "payable",
      "type": "function"
    },
    {
      "inputs": [],
      "name": "renounceOwnership",
      "outputs": [],
      "stateMutability": "nonpayable",
      "type": "function"
    },
    {
      "inputs": [],
      "name": "sellerFeeRate",
      "outputs": [
        {
          "internalType": "uint256",
          "name": "",
          "type": "uint256"
        }
      ],
      "stateMutability": "view",
      "type": "function"
    },
    {
      "inputs": [
        {
          "internalType": "bytes32",
          "name": "",
          "type": "bytes32"
        }
      ],
      "name": "swapOrder",
      "outputs": [
        {
          "internalType": "bytes32",
          "name": "id",
          "type": "bytes32"
        },
        {
          "internalType": "enum IAtomicSwapBase.OrderStatus",
          "name": "status",
          "type": "uint8"
        },
        {
          "internalType": "address",
          "name": "maker",
          "type": "address"
        },
        {
          "components": [
            {
              "internalType": "address",
              "name": "token",
              "type": "address"
            },
            {
              "internalType": "uint256",
              "name": "amount",
              "type": "uint256"
            }
          ],
          "internalType": "struct IAtomicSwapBase.Coin",
          "name": "sellToken",
          "type": "tuple"
        },
        {
          "internalType": "address",
          "name": "taker",
          "type": "address"
        },
        {
          "components": [
            {
              "internalType": "address",
              "name": "token",
              "type": "address"
            },
            {
              "internalType": "uint256",
              "name": "amount",
              "type": "uint256"
            }
          ],
          "internalType": "struct IAtomicSwapBase.Coin",
          "name": "buyToken",
          "type": "tuple"
        },
        {
          "internalType": "uint256",
          "name": "minBidAmount",
          "type": "uint256"
        },
        {
          "internalType": "uint256",
          "name": "createdAt",
          "type": "uint256"
        },
        {
          "internalType": "uint256",
          "name": "canceledAt",
          "type": "uint256"
        },
        {
          "internalType": "uint256",
          "name": "completedAt",
          "type": "uint256"
        },
        {
          "internalType": "uint256",
          "name": "expiredAt",
          "type": "uint256"
        },
        {
          "internalType": "bool",
          "name": "acceptBid",
          "type": "bool"
        }
      ],
      "stateMutability": "view",
      "type": "function"
    },
    {
      "inputs": [
        {
          "internalType": "bytes32",
          "name": "",
          "type": "bytes32"
        },
        {
          "internalType": "uint256",
          "name": "",
          "type": "uint256"
        }
      ],
      "name": "swapOrderVestingParams",
      "outputs": [
        {
          "internalType": "uint256",
          "name": "durationInHours",
          "type": "uint256"
        },
        {
          "internalType": "uint256",
          "name": "percentage",
          "type": "uint256"
        }
      ],
      "stateMutability": "view",
      "type": "function"
    },
    {
      "inputs": [
        {
          "components": [
            {
              "internalType": "bytes32",
              "name": "orderID",
              "type": "bytes32"
            },
            {
              "internalType": "address",
              "name": "takerReceiver",
              "type": "address"
            }
          ],
          "internalType": "struct IAtomicSwapBase.TakeSwapMsg",
          "name": "takeswap",
          "type": "tuple"
        }
      ],
      "name": "takeSwap",
      "outputs": [],
      "stateMutability": "payable",
      "type": "function"
    },
    {
      "inputs": [
        {
          "internalType": "address",
          "name": "newOwner",
          "type": "address"
        }
      ],
      "name": "transferOwnership",
      "outputs": [],
      "stateMutability": "nonpayable",
      "type": "function"
    },
    {
      "inputs": [
        {
          "components": [
            {
              "internalType": "bytes32",
              "name": "orderID",
              "type": "bytes32"
            },
            {
              "internalType": "address",
              "name": "bidder",
              "type": "address"
            },
            {
              "internalType": "uint256",
              "name": "addition",
              "type": "uint256"
            }
          ],
          "internalType": "struct IAtomicSwapBase.UpdateBidMsg",
          "name": "updateBidMsg",
          "type": "tuple"
        }
      ],
      "name": "updateBid",
      "outputs": [],
      "stateMutability": "payable",
      "type": "function"
    }
  ],
  "bytecode": "0x608060405234801561001057600080fd5b50614ae7806100206000396000f3fe6080604052600436106101095760003560e01c806389f6819011610095578063a743a3d011610064578063a743a3d0146102f8578063d2a2528314610335578063df7cec2814610365578063f2fde38b14610381578063fca6caa1146103aa57610109565b806389f681901461023b5780638d6cb1c4146102665780638da5cb5b146102a4578063a6b63eb8146102cf57610109565b80633d9bd2fc116100dc5780633d9bd2fc1461017e57806352c95b2a1461019a57806353f10c80146101b657806366e929bf146101e1578063715018a61461022457610109565b8063022066611461010e57806306be619c1461012a5780632b2b65111461014657806337be002214610162575b600080fd5b610128600480360381019061012391906132bc565b6103f2565b005b610144600480360381019061013f9190613308565b6109a9565b005b610160600480360381019061015b91906133ba565b61116e565b005b61017c6004803603810190610177919061343b565b6112c5565b005b61019860048036038101906101939190613487565b6117cb565b005b6101b460048036038101906101af91906134d3565b611b5c565b005b3480156101c257600080fd5b506101cb611f01565b6040516101d89190613519565b60405180910390f35b3480156101ed57600080fd5b50610208600480360381019061020391906135c8565b611f07565b60405161021b979695949392919061369d565b60405180910390f35b34801561023057600080fd5b50610239611fa3565b005b34801561024757600080fd5b50610250611fb7565b60405161025d9190613519565b60405180910390f35b34801561027257600080fd5b5061028d60048036038101906102889190613738565b611fbd565b60405161029b929190613778565b60405180910390f35b3480156102b057600080fd5b506102b9611ffe565b6040516102c691906137a1565b60405180910390f35b3480156102db57600080fd5b506102f660048036038101906102f191906137bc565b612036565b005b34801561030457600080fd5b5061031f600480360381019061031a91906135c8565b612350565b60405161032c9190613519565b60405180910390f35b61034f600480360381019061034a9190613837565b612375565b60405161035c9190613865565b60405180910390f35b61037f600480360381019061037a9190613880565b61269b565b005b34801561038d57600080fd5b506103a860048036038101906103a391906138ad565b612ae1565b005b3480156103b657600080fd5b506103d160048036038101906103cc9190613880565b612b67565b6040516103e99c9b9a9998979695949392919061398a565b60405180910390f35b6103fa612cf5565b80600001356000801b6000808381526020019081526020016000206000015403610450576040517f5dcaf2d700000000000000000000000000000000000000000000000000000000815260040160405180910390fd5b600082600001359050600083602001602081019061046e91906138ad565b9050600073ffffffffffffffffffffffffffffffffffffffff163373ffffffffffffffffffffffffffffffffffffffff16036104d6576040517f0809490800000000000000000000000000000000000000000000000000000000815260040160405180910390fd5b6000806000848152602001908152602001600020905080600c0160009054906101000a900460ff16610534576040517f3c24fafc00000000000000000000000000000000000000000000000000000000815260040160405180910390fd5b3373ffffffffffffffffffffffffffffffffffffffff168160010160019054906101000a900473ffffffffffffffffffffffffffffffffffffffff1673ffffffffffffffffffffffffffffffffffffffff16146105ee578060010160019054906101000a900473ffffffffffffffffffffffffffffffffffffffff16336040517f0500cb4c0000000000000000000000000000000000000000000000000000000081526004016105e5929190613a46565b60405180910390fd5b60006002600085815260200190815260200160002060008473ffffffffffffffffffffffffffffffffffffffff1673ffffffffffffffffffffffffffffffffffffffff168152602001908152602001600020905060028081111561065557610654613617565b5b8160020160009054906101000a900460ff16600281111561067957610678613617565b5b146106cc578060020160009054906101000a900460ff166040517f64b08c060000000000000000000000000000000000000000000000000000000081526004016106c39190613a6f565b60405180910390fd5b428160050154101561071b578060050154426040517f1d355639000000000000000000000000000000000000000000000000000000008152600401610712929190613778565b60405180910390fd5b60018160020160006101000a81548160ff0219169083600281111561074357610742613617565b5b021790555060008260020190508060000160009054906101000a900473ffffffffffffffffffffffffffffffffffffffff1673ffffffffffffffffffffffffffffffffffffffff1673__$b9ebb88af43d68d18cc83c52d00a91a1a0$__6306cf228090918460020160019054906101000a900473ffffffffffffffffffffffffffffffffffffffff168460010154600654612710600460009054906101000a900473ffffffffffffffffffffffffffffffffffffffff166040518763ffffffff1660e01b815260040161081b96959493929190613aa8565b60006040518083038186803b15801561083357600080fd5b505af4158015610847573d6000803e3d6000fd5b5050505060008360050190508060000160009054906101000a900473ffffffffffffffffffffffffffffffffffffffff1673ffffffffffffffffffffffffffffffffffffffff1673__$b9ebb88af43d68d18cc83c52d00a91a1a0$__6306cf228090918660010160019054906101000a900473ffffffffffffffffffffffffffffffffffffffff168660000154600554612710600460009054906101000a900473ffffffffffffffffffffffffffffffffffffffff166040518763ffffffff1660e01b815260040161091e96959493929190613aa8565b60006040518083038186803b15801561093657600080fd5b505af415801561094a573d6000803e3d6000fd5b5050505082600001548573ffffffffffffffffffffffffffffffffffffffff16877fadd1d5b6c827fee45fa32e72964c9d43d2191c9b8b083889fb2e3f468c71856860405160405180910390a4505050505050506109a6612d4c565b50565b6109b1612cf5565b80600001356000801b6000808381526020019081526020016000206000015403610a07576040517f5dcaf2d700000000000000000000000000000000000000000000000000000000815260040160405180910390fd5b6000806000846000013581526020019081526020016000209050600073ffffffffffffffffffffffffffffffffffffffff168160040160009054906101000a900473ffffffffffffffffffffffffffffffffffffffff1673ffffffffffffffffffffffffffffffffffffffff1614158015610ad257503373ffffffffffffffffffffffffffffffffffffffff168160040160009054906101000a900473ffffffffffffffffffffffffffffffffffffffff1673ffffffffffffffffffffffffffffffffffffffff1614155b15610b09576040517fbe544a2b00000000000000000000000000000000000000000000000000000000815260040160405180910390fd5b60026003811115610b1d57610b1c613617565b5b8160010160009054906101000a900460ff166003811115610b4157610b40613617565b5b03610b78576040517f0368368700000000000000000000000000000000000000000000000000000000815260040160405180910390fd5b60028160010160006101000a81548160ff02191690836003811115610ba057610b9f613617565b5b02179055504281600a018190555060006001600083600001548152602001908152602001600020805480602002602001604051908101604052809291908181526020016000905b82821015610c2d57838290600052602060002090600202016040518060400160405290816000820154815260200160018201548152505081526020019060010190610be7565b5050505090506000815103610e33578160020160000160009054906101000a900473ffffffffffffffffffffffffffffffffffffffff1673ffffffffffffffffffffffffffffffffffffffff1673__$b9ebb88af43d68d18cc83c52d00a91a1a0$__6306cf22809091866020016020810190610ca991906138ad565b8560020160010154600654612710600460009054906101000a900473ffffffffffffffffffffffffffffffffffffffff166040518763ffffffff1660e01b8152600401610cfb96959493929190613aa8565b60006040518083038186803b158015610d1357600080fd5b505af4158015610d27573d6000803e3d6000fd5b505050508160050160000160009054906101000a900473ffffffffffffffffffffffffffffffffffffffff1673ffffffffffffffffffffffffffffffffffffffff1673__$b9ebb88af43d68d18cc83c52d00a91a1a0$__638dbb76c79091338560010160019054906101000a900473ffffffffffffffffffffffffffffffffffffffff168660050160010154600554612710600460009054906101000a900473ffffffffffffffffffffffffffffffffffffffff166040518863ffffffff1660e01b8152600401610dfe9796959493929190613b09565b60006040518083038186803b158015610e1657600080fd5b505af4158015610e2a573d6000803e3d6000fd5b505050506110b9565b600073ffffffffffffffffffffffffffffffffffffffff168260020160000160009054906101000a900473ffffffffffffffffffffffffffffffffffffffff1673ffffffffffffffffffffffffffffffffffffffff1603610f69576000600360009054906101000a900473ffffffffffffffffffffffffffffffffffffffff1673ffffffffffffffffffffffffffffffffffffffff168360020160010154604051610edd90613ba9565b60006040518083038185875af1925050503d8060008114610f1a576040519150601f19603f3d011682016040523d82523d6000602084013e610f1f565b606091505b5050905080610f63576040517f08c379a0000000000000000000000000000000000000000000000000000000008152600401610f5a90613c1b565b60405180910390fd5b50610fe5565b610fe4600360009054906101000a900473ffffffffffffffffffffffffffffffffffffffff1683600201600101548460020160000160009054906101000a900473ffffffffffffffffffffffffffffffffffffffff1673ffffffffffffffffffffffffffffffffffffffff16612d659092919063ffffffff16565b5b600360009054906101000a900473ffffffffffffffffffffffffffffffffffffffff1673ffffffffffffffffffffffffffffffffffffffff1663d20252a185602001602081019061103691906138ad565b8460020160000160009054906101000a900473ffffffffffffffffffffffffffffffffffffffff168560020160010154856040518563ffffffff1660e01b81526004016110869493929190613d19565b600060405180830381600087803b1580156110a057600080fd5b505af11580156110b4573d6000803e3d6000fd5b505050505b83600001358260040160009054906101000a900473ffffffffffffffffffffffffffffffffffffffff1673ffffffffffffffffffffffffffffffffffffffff168360010160019054906101000a900473ffffffffffffffffffffffffffffffffffffffff1673ffffffffffffffffffffffffffffffffffffffff167f6bf7309f141d1b44e414f1fc04d98491cd0acf98f0f1e5ad885d0a7ce164e6fa60405160405180910390a450505061116b612d4c565b50565b8181808060200260200160405190810160405280939291908181526020016000905b828210156111c0578484839050604002018036038101906111b19190613e46565b81526020019060010190611190565b505050505073__$2effe1973215a034e8e4a17bdeb5710028$__6333b988f590916040518263ffffffff1660e01b81526004016111fd9190613f38565b60006040518083038186803b15801561121557600080fd5b505af4158015611229573d6000803e3d6000fd5b50505050600061123884612375565b905060005b838390508110156112be576001600083815260200190815260200160002084848381811061126e5761126d613f5a565b5b905060400201908060018154018082558091505060019003906000526020600020906002020160009091909190915081816112a9919061408d565b505080806112b6906140ca565b91505061123d565b5050505050565b6112cd612cf5565b80600001356000801b6000808381526020019081526020016000206000015403611323576040517f5dcaf2d700000000000000000000000000000000000000000000000000000000815260040160405180910390fd5b60008060008460000135815260200190815260200160002090503373ffffffffffffffffffffffffffffffffffffffff168160010160019054906101000a900473ffffffffffffffffffffffffffffffffffffffff1673ffffffffffffffffffffffffffffffffffffffff16146113c6576040517f978f045600000000000000000000000000000000000000000000000000000000815260040160405180910390fd5b600060038111156113da576113d9613617565b5b8160010160009054906101000a900460ff1660038111156113fe576113fd613617565b5b14611435576040517f0368368700000000000000000000000000000000000000000000000000000000815260040160405180910390fd5b60018160010160006101000a81548160ff0219169083600381111561145d5761145c613617565b5b0217905550600073ffffffffffffffffffffffffffffffffffffffff168160020160000160009054906101000a900473ffffffffffffffffffffffffffffffffffffffff1673ffffffffffffffffffffffffffffffffffffffff16036115765760003373ffffffffffffffffffffffffffffffffffffffff1682600201600101546040516114ea90613ba9565b60006040518083038185875af1925050503d8060008114611527576040519150601f19603f3d011682016040523d82523d6000602084013e61152c565b606091505b5050905080611570576040517f08c379a000000000000000000000000000000000000000000000000000000000815260040161156790613c1b565b60405180910390fd5b50611662565b8060020160000160009054906101000a900473ffffffffffffffffffffffffffffffffffffffff1673ffffffffffffffffffffffffffffffffffffffff1663a9059cbb3383600201600101546040518363ffffffff1660e01b81526004016115df929190614112565b6020604051808303816000875af11580156115fe573d6000803e3d6000fd5b505050506040513d601f19601f820116820180604052508101906116229190614167565b611661576040517f08c379a000000000000000000000000000000000000000000000000000000000815260040161165890613c1b565b60405180910390fd5b5b600080846000013581526020019081526020016000206000808201600090556001820160006101000a81549060ff02191690556001820160016101000a81549073ffffffffffffffffffffffffffffffffffffffff021916905560028201600080820160006101000a81549073ffffffffffffffffffffffffffffffffffffffff0219169055600182016000905550506004820160006101000a81549073ffffffffffffffffffffffffffffffffffffffff021916905560058201600080820160006101000a81549073ffffffffffffffffffffffffffffffffffffffff021916905560018201600090555050600782016000905560088201600090556009820160009055600a820160009055600b820160009055600c820160006101000a81549060ff0219169055505082600001357ff68aeec8f55d67a9b2cf2b6caea31e11f2c14e09da250170575d63911f26aa6e60405160405180910390a250506117c8612d4c565b50565b6117d3612cf5565b80600001356000801b6000808381526020019081526020016000206000015403611829576040517f5dcaf2d700000000000000000000000000000000000000000000000000000000815260040160405180910390fd5b60008260000135905060008360400135905060006002600084815260200190815260200160002060003373ffffffffffffffffffffffffffffffffffffffff1673ffffffffffffffffffffffffffffffffffffffff1681526020019081526020016000209050600073ffffffffffffffffffffffffffffffffffffffff168160020160019054906101000a900473ffffffffffffffffffffffffffffffffffffffff1673ffffffffffffffffffffffffffffffffffffffff1603611919576040517f0a0c23ee00000000000000000000000000000000000000000000000000000000815260040160405180910390fd5b600080600085815260200190815260200160002090506000830361197457826040517fd9cf167e00000000000000000000000000000000000000000000000000000000815260040161196b9190613519565b60405180910390fd5b828260000160008282546119889190614194565b925050819055508060050160010154826000015411156119e35781600001546040517fd9cf167e0000000000000000000000000000000000000000000000000000000081526004016119da9190613519565b60405180910390fd5b6000816005019050600073ffffffffffffffffffffffffffffffffffffffff168160000160009054906101000a900473ffffffffffffffffffffffffffffffffffffffff1673ffffffffffffffffffffffffffffffffffffffff1614611a9957611a943330868460000160009054906101000a900473ffffffffffffffffffffffffffffffffffffffff1673ffffffffffffffffffffffffffffffffffffffff16612e2d909392919063ffffffff16565b611ade565b833414611add57346040517fd9cf167e000000000000000000000000000000000000000000000000000000008152600401611ad49190613519565b60405180910390fd5b5b82600001548360020160019054906101000a900473ffffffffffffffffffffffffffffffffffffffff1673ffffffffffffffffffffffffffffffffffffffff16867f7786094a5edc61a0463300b9b97a1b22d338bc800ed33404ba9a3888b71de0fc60405160405180910390a4505050505050611b59612d4c565b50565b611b64612cf5565b80606001356000801b6000808381526020019081526020016000206000015403611bba576040517f5dcaf2d700000000000000000000000000000000000000000000000000000000815260040160405180910390fd5b60008260600135905060008360000135905060006002600084815260200190815260200160002060003373ffffffffffffffffffffffffffffffffffffffff1673ffffffffffffffffffffffffffffffffffffffff1681526020019081526020016000209050600073ffffffffffffffffffffffffffffffffffffffff168160020160019054906101000a900473ffffffffffffffffffffffffffffffffffffffff1673ffffffffffffffffffffffffffffffffffffffff1614611caa576040517fb8cee9f000000000000000000000000000000000000000000000000000000000815260040160405180910390fd5b60008060008760600135815260200190815260200160002090508060070154831080611cdc5750806005016001015483115b15611d1e57826040517fd9cf167e000000000000000000000000000000000000000000000000000000008152600401611d159190613519565b60405180910390fd5b6000826000015484611d3091906141c8565b905060008060008781526020019081526020016000206005019050600073ffffffffffffffffffffffffffffffffffffffff168160000160009054906101000a900473ffffffffffffffffffffffffffffffffffffffff1673ffffffffffffffffffffffffffffffffffffffff1614611df957611df43330848460000160009054906101000a900473ffffffffffffffffffffffffffffffffffffffff1673ffffffffffffffffffffffffffffffffffffffff16612e2d909392919063ffffffff16565b611e3e565b813414611e3d57346040517fd9cf167e000000000000000000000000000000000000000000000000000000008152600401611e349190613519565b60405180910390fd5b5b600273__$8ad05547f64aebe22f2eafad9eff5b91dd$__63cc76f93190918a6040518363ffffffff1660e01b8152600401611e7a9291906142f6565b60006040518083038186803b158015611e9257600080fd5b505af4158015611ea6573d6000803e3d6000fd5b50505050843373ffffffffffffffffffffffffffffffffffffffff16877f1126836d9a6f07e69d20f7ac2db448d68d9bb24718d7e8e0e85b8cfd96bb04c160405160405180910390a450505050505050611efe612d4c565b50565b60065481565b6002602052816000526040600020602052806000526040600020600091509150508060000154908060010154908060020160009054906101000a900460ff16908060020160019054906101000a900473ffffffffffffffffffffffffffffffffffffffff16908060030160009054906101000a900473ffffffffffffffffffffffffffffffffffffffff16908060040154908060050154905087565b611fab612fc0565b611fb56000613047565b565b60055481565b60016020528160005260406000208181548110611fd957600080fd5b9060005260206000209060020201600091509150508060000154908060010154905082565b60008061200961311e565b90508060000160009054906101000a900473ffffffffffffffffffffffffffffffffffffffff1691505090565b6000612040613146565b905060008160000160089054906101000a900460ff1615905060008260000160009054906101000a900467ffffffffffffffff1690506000808267ffffffffffffffff1614801561208e5750825b9050600060018367ffffffffffffffff161480156120c3575060003073ffffffffffffffffffffffffffffffffffffffff163b145b9050811580156120d1575080155b15612108576040517ff92ee8a900000000000000000000000000000000000000000000000000000000815260040160405180910390fd5b60018560000160006101000a81548167ffffffffffffffff021916908367ffffffffffffffff16021790555083156121585760018560000160086101000a81548160ff0219169083151502179055505b6121618a61316e565b61271087106121a5576040517f08c379a000000000000000000000000000000000000000000000000000000000815260040161219c90614391565b60405180910390fd5b61271086106121e9576040517f08c379a00000000000000000000000000000000000000000000000000000000081526004016121e090614391565b60405180910390fd5b600073ffffffffffffffffffffffffffffffffffffffff168873ffffffffffffffffffffffffffffffffffffffff1603612258576040517f08c379a000000000000000000000000000000000000000000000000000000000815260040161224f906143fd565b60405180910390fd5b866005819055508560068190555087600460006101000a81548173ffffffffffffffffffffffffffffffffffffffff021916908373ffffffffffffffffffffffffffffffffffffffff16021790555088600360006101000a81548173ffffffffffffffffffffffffffffffffffffffff021916908373ffffffffffffffffffffffffffffffffffffffff16021790555083156123445760008560000160086101000a81548160ff0219169083151502179055507fc7f505b2f371ae2175ee4913f4499e1f2633a7b5936321eed1cdaeb6115181d2600160405161233b919061446c565b60405180910390a15b50505050505050505050565b6007602052816000526040600020602052806000526040600020600091509150505481565b600061237f612cf5565b81606001600001602081019061239591906138ad565b73ffffffffffffffffffffffffffffffffffffffff168260200160000160208101906123c191906138ad565b73ffffffffffffffffffffffffffffffffffffffff160361240e576040517f45b3a4c700000000000000000000000000000000000000000000000000000000815260040160405180910390fd5b8180360381019061241f91906145b8565b73__$2effe1973215a034e8e4a17bdeb5710028$__639a0ebe0090916040518263ffffffff1660e01b815260040161245791906146c8565b60006040518083038186803b15801561246f57600080fd5b505af4158015612483573d6000803e3d6000fd5b505050506000826000013573__$8ad05547f64aebe22f2eafad9eff5b91dd$__63d81ab44f9091306040518363ffffffff1660e01b81526004016124c89291906146f3565b602060405180830381865af41580156124e5573d6000803e3d6000fd5b505050506040513d601f19601f820116820180604052508101906125099190614731565b9050600073__$8ad05547f64aebe22f2eafad9eff5b91dd$__632296d7e090918584336040518563ffffffff1660e01b815260040161254b94939291906148ac565b60006040518083038186803b15801561256357600080fd5b505af4158015612577573d6000803e3d6000fd5b50505050600073ffffffffffffffffffffffffffffffffffffffff168360200160000160208101906125a991906138ad565b73ffffffffffffffffffffffffffffffffffffffff160361261357826020016020013534101561260e576040517f08c379a000000000000000000000000000000000000000000000000000000000815260040161260590614940565b60405180910390fd5b61265d565b61265c3330856020016020013586602001600001602081019061263691906138ad565b73ffffffffffffffffffffffffffffffffffffffff16612e2d909392919063ffffffff16565b5b807f8b82d32987f9a4ae1bc7868a6f104edb711227ec3c9fccb0416a14fcc29bec5a60405160405180910390a280915050612696612d4c565b919050565b6126a3612cf5565b806000801b60008083815260200190815260200160002060000154036126f5576040517f5dcaf2d700000000000000000000000000000000000000000000000000000000815260040160405180910390fd5b60003414612738576040517f08c379a000000000000000000000000000000000000000000000000000000000815260040161272f906149ac565b60405180910390fd5b60006002600084815260200190815260200160002060003373ffffffffffffffffffffffffffffffffffffffff1673ffffffffffffffffffffffffffffffffffffffff16815260200190815260200160002090503373ffffffffffffffffffffffffffffffffffffffff168160020160019054906101000a900473ffffffffffffffffffffffffffffffffffffffff1673ffffffffffffffffffffffffffffffffffffffff1614612815576040517f978f045600000000000000000000000000000000000000000000000000000000815260040160405180910390fd5b60028081111561282857612827613617565b5b8160020160009054906101000a900460ff16600281111561284c5761284b613617565b5b1461289f578060020160009054906101000a900460ff166040517f64b08c060000000000000000000000000000000000000000000000000000000081526004016128969190613a6f565b60405180910390fd5b60008160020160006101000a81548160ff021916908360028111156128c7576128c6613617565b5b021790555060008060008581526020019081526020016000206005019050600073ffffffffffffffffffffffffffffffffffffffff168160000160009054906101000a900473ffffffffffffffffffffffffffffffffffffffff1673ffffffffffffffffffffffffffffffffffffffff16146129b9576129b48260020160019054906101000a900473ffffffffffffffffffffffffffffffffffffffff1683600001548360000160009054906101000a900473ffffffffffffffffffffffffffffffffffffffff1673ffffffffffffffffffffffffffffffffffffffff16612d659092919063ffffffff16565b612a6b565b60003373ffffffffffffffffffffffffffffffffffffffff1683600001546040516129e390613ba9565b60006040518083038185875af1925050503d8060008114612a20576040519150601f19603f3d011682016040523d82523d6000602084013e612a25565b606091505b5050905080612a69576040517f08c379a0000000000000000000000000000000000000000000000000000000008152600401612a6090613c1b565b60405180910390fd5b505b8160020160019054906101000a900473ffffffffffffffffffffffffffffffffffffffff1673ffffffffffffffffffffffffffffffffffffffff16847f6c2a0bb8117ecfbc53a4385a5421be8eb081718159b9eb3d7c273ecb07fe7cfd60405160405180910390a3505050612ade612d4c565b50565b612ae9612fc0565b600073ffffffffffffffffffffffffffffffffffffffff168173ffffffffffffffffffffffffffffffffffffffff1603612b5b5760006040517f1e4fbdf7000000000000000000000000000000000000000000000000000000008152600401612b5291906137a1565b60405180910390fd5b612b6481613047565b50565b60006020528060005260406000206000915090508060000154908060010160009054906101000a900460ff16908060010160019054906101000a900473ffffffffffffffffffffffffffffffffffffffff1690806002016040518060400160405290816000820160009054906101000a900473ffffffffffffffffffffffffffffffffffffffff1673ffffffffffffffffffffffffffffffffffffffff1673ffffffffffffffffffffffffffffffffffffffff168152602001600182015481525050908060040160009054906101000a900473ffffffffffffffffffffffffffffffffffffffff1690806005016040518060400160405290816000820160009054906101000a900473ffffffffffffffffffffffffffffffffffffffff1673ffffffffffffffffffffffffffffffffffffffff1673ffffffffffffffffffffffffffffffffffffffff1681526020016001820154815250509080600701549080600801549080600901549080600a01549080600b01549080600c0160009054906101000a900460ff1690508c565b6000612cff6131f4565b90506002816000015403612d3f576040517f3ee5aeb500000000000000000000000000000000000000000000000000000000815260040160405180910390fd5b6002816000018190555050565b6000612d566131f4565b90506001816000018190555050565b60008390508073ffffffffffffffffffffffffffffffffffffffff1663a9059cbb84846040518363ffffffff1660e01b8152600401612da5929190614112565b6020604051808303816000875af1158015612dc4573d6000803e3d6000fd5b505050506040513d601f19601f82011682018060405250810190612de89190614167565b612e27576040517f08c379a0000000000000000000000000000000000000000000000000000000008152600401612e1e90613c1b565b60405180910390fd5b50505050565b600084905060008173ffffffffffffffffffffffffffffffffffffffff1663dd62ed3e86306040518363ffffffff1660e01b8152600401612e6f929190613a46565b602060405180830381865afa158015612e8c573d6000803e3d6000fd5b505050506040513d601f19601f82011682018060405250810190612eb091906149e1565b905082811015612ef95780836040517f7c8db62f000000000000000000000000000000000000000000000000000000008152600401612ef0929190613778565b60405180910390fd5b8173ffffffffffffffffffffffffffffffffffffffff166323b872dd8686866040518463ffffffff1660e01b8152600401612f3693929190614a0e565b6020604051808303816000875af1158015612f55573d6000803e3d6000fd5b505050506040513d601f19601f82011682018060405250810190612f799190614167565b612fb8576040517f08c379a0000000000000000000000000000000000000000000000000000000008152600401612faf90614a91565b60405180910390fd5b505050505050565b612fc861321c565b73ffffffffffffffffffffffffffffffffffffffff16612fe6611ffe565b73ffffffffffffffffffffffffffffffffffffffff16146130455761300961321c565b6040517f118cdaa700000000000000000000000000000000000000000000000000000000815260040161303c91906137a1565b60405180910390fd5b565b600061305161311e565b905060008160000160009054906101000a900473ffffffffffffffffffffffffffffffffffffffff169050828260000160006101000a81548173ffffffffffffffffffffffffffffffffffffffff021916908373ffffffffffffffffffffffffffffffffffffffff1602179055508273ffffffffffffffffffffffffffffffffffffffff168173ffffffffffffffffffffffffffffffffffffffff167f8be0079c531659141344cd1fd0a4f28419497f9722a3daafe3b4186f6b6457e060405160405180910390a3505050565b60007f9016d09d72d40fdae2fd8ceac6b6234c7706214fd39c1cd1e609a0528c199300905090565b60007ff0c57e16840df040f15088dc2f81fe391c3923bec73e23a9662efc9c229c6a00905090565b613176613224565b600073ffffffffffffffffffffffffffffffffffffffff168173ffffffffffffffffffffffffffffffffffffffff16036131e85760006040517f1e4fbdf70000000000000000000000000000000000000000000000000000000081526004016131df91906137a1565b60405180910390fd5b6131f181613047565b50565b60007f9b779b17422d0df92223018b32b4d1fa46e071723d6817e2486d003becc55f00905090565b600033905090565b61322c613264565b613262576040517fd7e6bcf800000000000000000000000000000000000000000000000000000000815260040160405180910390fd5b565b600061326e613146565b60000160089054906101000a900460ff16905090565b6000604051905090565b600080fd5b600080fd5b600080fd5b6000604082840312156132b3576132b2613298565b5b81905092915050565b6000604082840312156132d2576132d161328e565b5b60006132e08482850161329d565b91505092915050565b6000604082840312156132ff576132fe613298565b5b81905092915050565b60006040828403121561331e5761331d61328e565b5b600061332c848285016132e9565b91505092915050565b6000610140828403121561334c5761334b613298565b5b81905092915050565b600080fd5b600080fd5b600080fd5b60008083601f84011261337a57613379613355565b5b8235905067ffffffffffffffff8111156133975761339661335a565b5b6020830191508360408202830111156133b3576133b261335f565b5b9250929050565b600080600061016084860312156133d4576133d361328e565b5b60006133e286828701613335565b93505061014084013567ffffffffffffffff81111561340457613403613293565b5b61341086828701613364565b92509250509250925092565b60006020828403121561343257613431613298565b5b81905092915050565b6000602082840312156134515761345061328e565b5b600061345f8482850161341c565b91505092915050565b60006060828403121561347e5761347d613298565b5b81905092915050565b60006060828403121561349d5761349c61328e565b5b60006134ab84828501613468565b91505092915050565b600060a082840312156134ca576134c9613298565b5b81905092915050565b600060a082840312156134e9576134e861328e565b5b60006134f7848285016134b4565b91505092915050565b6000819050919050565b61351381613500565b82525050565b600060208201905061352e600083018461350a565b92915050565b6000819050919050565b61354781613534565b811461355257600080fd5b50565b6000813590506135648161353e565b92915050565b600073ffffffffffffffffffffffffffffffffffffffff82169050919050565b60006135958261356a565b9050919050565b6135a58161358a565b81146135b057600080fd5b50565b6000813590506135c28161359c565b92915050565b600080604083850312156135df576135de61328e565b5b60006135ed85828601613555565b92505060206135fe858286016135b3565b9150509250929050565b61361181613534565b82525050565b7f4e487b7100000000000000000000000000000000000000000000000000000000600052602160045260246000fd5b6003811061365757613656613617565b5b50565b600081905061366882613646565b919050565b60006136788261365a565b9050919050565b6136888161366d565b82525050565b6136978161358a565b82525050565b600060e0820190506136b2600083018a61350a565b6136bf6020830189613608565b6136cc604083018861367f565b6136d9606083018761368e565b6136e6608083018661368e565b6136f360a083018561350a565b61370060c083018461350a565b98975050505050505050565b61371581613500565b811461372057600080fd5b50565b6000813590506137328161370c565b92915050565b6000806040838503121561374f5761374e61328e565b5b600061375d85828601613555565b925050602061376e85828601613723565b9150509250929050565b600060408201905061378d600083018561350a565b61379a602083018461350a565b9392505050565b60006020820190506137b6600083018461368e565b92915050565b600080600080600060a086880312156137d8576137d761328e565b5b60006137e6888289016135b3565b95505060206137f7888289016135b3565b9450506040613808888289016135b3565b935050606061381988828901613723565b925050608061382a88828901613723565b9150509295509295909350565b6000610140828403121561384e5761384d61328e565b5b600061385c84828501613335565b91505092915050565b600060208201905061387a6000830184613608565b92915050565b6000602082840312156138965761389561328e565b5b60006138a484828501613555565b91505092915050565b6000602082840312156138c3576138c261328e565b5b60006138d1848285016135b3565b91505092915050565b600481106138eb576138ea613617565b5b50565b60008190506138fc826138da565b919050565b600061390c826138ee565b9050919050565b61391c81613901565b82525050565b61392b8161358a565b82525050565b61393a81613500565b82525050565b6040820160008201516139566000850182613922565b5060208201516139696020850182613931565b50505050565b60008115159050919050565b6139848161396f565b82525050565b60006101c0820190506139a0600083018f613608565b6139ad602083018e613913565b6139ba604083018d61368e565b6139c7606083018c613940565b6139d460a083018b61368e565b6139e160c083018a613940565b6139ef61010083018961350a565b6139fd61012083018861350a565b613a0b61014083018761350a565b613a1961016083018661350a565b613a2761018083018561350a565b613a356101a083018461397b565b9d9c50505050505050505050505050565b6000604082019050613a5b600083018561368e565b613a68602083018461368e565b9392505050565b6000602082019050613a84600083018461367f565b92915050565b613a938161358a565b82525050565b613aa281613500565b82525050565b600060c082019050613abd6000830189613a8a565b613aca6020830188613a8a565b613ad76040830187613a99565b613ae46060830186613a99565b613af16080830185613a99565b613afe60a0830184613a8a565b979650505050505050565b600060e082019050613b1e600083018a613a8a565b613b2b6020830189613a8a565b613b386040830188613a8a565b613b456060830187613a99565b613b526080830186613a99565b613b5f60a0830185613a99565b613b6c60c0830184613a8a565b98975050505050505050565b600081905092915050565b50565b6000613b93600083613b78565b9150613b9e82613b83565b600082019050919050565b6000613bb482613b86565b9150819050919050565b600082825260208201905092915050565b7f5472616e73666572206661696c65642e00000000000000000000000000000000600082015250565b6000613c05601083613bbe565b9150613c1082613bcf565b602082019050919050565b60006020820190508181036000830152613c3481613bf8565b9050919050565b600081519050919050565b600082825260208201905092915050565b6000819050602082019050919050565b604082016000820151613c7d6000850182613931565b506020820151613c906020850182613931565b50505050565b6000613ca28383613c67565b60408301905092915050565b6000602082019050919050565b6000613cc682613c3b565b613cd08185613c46565b9350613cdb83613c57565b8060005b83811015613d0c578151613cf38882613c96565b9750613cfe83613cae565b925050600181019050613cdf565b5085935050505092915050565b6000608082019050613d2e600083018761368e565b613d3b602083018661368e565b613d48604083018561350a565b8181036060830152613d5a8184613cbb565b905095945050505050565b600080fd5b6000601f19601f8301169050919050565b7f4e487b7100000000000000000000000000000000000000000000000000000000600052604160045260246000fd5b613db382613d6a565b810181811067ffffffffffffffff82111715613dd257613dd1613d7b565b5b80604052505050565b6000613de5613284565b9050613df18282613daa565b919050565b600060408284031215613e0c57613e0b613d65565b5b613e166040613ddb565b90506000613e2684828501613723565b6000830152506020613e3a84828501613723565b60208301525092915050565b600060408284031215613e5c57613e5b61328e565b5b6000613e6a84828501613df6565b91505092915050565b600082825260208201905092915050565b613e8d81613500565b82525050565b604082016000820151613ea96000850182613e84565b506020820151613ebc6020850182613e84565b50505050565b6000613ece8383613e93565b60408301905092915050565b6000613ee582613c3b565b613eef8185613e73565b9350613efa83613c57565b8060005b83811015613f2b578151613f128882613ec2565b9750613f1d83613cae565b925050600181019050613efe565b5085935050505092915050565b60006020820190508181036000830152613f528184613eda565b905092915050565b7f4e487b7100000000000000000000000000000000000000000000000000000000600052603260045260246000fd5b60008135613f968161370c565b80915050919050565b60008160001b9050919050565b60007fffffffffffffffffffffffffffffffffffffffffffffffffffffffffffffffff613fd884613f9f565b9350801983169250808416831791505092915050565b6000819050919050565b600061401361400e61400984613500565b613fee565b613500565b9050919050565b6000819050919050565b61402d82613ff8565b6140406140398261401a565b8354613fac565b8255505050565b60008101600083018061405981613f89565b90506140658184614024565b50505060018101602083018061407a81613f89565b90506140868184614024565b5050505050565b6140978282614047565b5050565b7f4e487b7100000000000000000000000000000000000000000000000000000000600052601160045260246000fd5b60006140d582613500565b91507fffffffffffffffffffffffffffffffffffffffffffffffffffffffffffffffff82036141075761410661409b565b5b600182019050919050565b6000604082019050614127600083018561368e565b614134602083018461350a565b9392505050565b6141448161396f565b811461414f57600080fd5b50565b6000815190506141618161413b565b92915050565b60006020828403121561417d5761417c61328e565b5b600061418b84828501614152565b91505092915050565b600061419f82613500565b91506141aa83613500565b92508282019050808211156141c2576141c161409b565b5b92915050565b60006141d382613500565b91506141de83613500565b92508282039050818111156141f6576141f561409b565b5b92915050565b8082525050565b60006142126020840184613723565b905092915050565b600061422960208401846135b3565b905092915050565b61423a8161358a565b82525050565b600061424f6020840184613555565b905092915050565b61426081613534565b82525050565b60a082016142776000830183614203565b6142846000850182613e84565b50614292602083018361421a565b61429f6020850182614231565b506142ad604083018361421a565b6142ba6040850182614231565b506142c86060830183614240565b6142d56060850182614257565b506142e36080830183614203565b6142f06080850182613e84565b50505050565b600060c08201905061430b60008301856141fc565b6143186020830184614266565b9392505050565b7f73656c6c65724665652068617320746f20626520736d616c6c6572207468616e60008201527f206d617846656500000000000000000000000000000000000000000000000000602082015250565b600061437b602783613bbe565b91506143868261431f565b604082019050919050565b600060208201905081810360008301526143aa8161436e565b9050919050565b7f696e76616c696420747265617375727920616464726573730000000000000000600082015250565b60006143e7601883613bbe565b91506143f2826143b1565b602082019050919050565b60006020820190508181036000830152614416816143da565b9050919050565b6000819050919050565b600067ffffffffffffffff82169050919050565b600061445661445161444c8461441d565b613fee565b614427565b9050919050565b6144668161443b565b82525050565b6000602082019050614481600083018461445d565b92915050565b60006040828403121561449d5761449c613d65565b5b6144a76040613ddb565b905060006144b7848285016135b3565b60008301525060206144cb84828501613723565b60208301525092915050565b6000813590506144e68161413b565b92915050565b6000610140828403121561450357614502613d65565b5b61450e610100613ddb565b9050600061451e84828501613555565b600083015250602061453284828501614487565b602083015250606061454684828501614487565b60408301525060a061455a848285016135b3565b60608301525060c061456e848285016135b3565b60808301525060e061458284828501613723565b60a08301525061010061459784828501613723565b60c0830152506101206145ac848285016144d7565b60e08301525092915050565b600061014082840312156145cf576145ce61328e565b5b60006145dd848285016144ec565b91505092915050565b6040820160008201516145fc6000850182614231565b50602082015161460f6020850182613e84565b50505050565b61461e8161396f565b82525050565b6101408201600082015161463b6000850182614257565b50602082015161464e60208501826145e6565b50604082015161466160608501826145e6565b50606082015161467460a0850182614231565b50608082015161468760c0850182614231565b5060a082015161469a60e0850182613e84565b5060c08201516146ae610100850182613e84565b5060e08201516146c2610120850182614615565b50505050565b6000610140820190506146de6000830184614624565b92915050565b6146ed81613534565b82525050565b600060408201905061470860008301856146e4565b6147156020830184613a8a565b9392505050565b60008151905061472b8161353e565b92915050565b6000602082840312156147475761474661328e565b5b60006147558482850161471c565b91505092915050565b8082525050565b600082905092915050565b60408201614781600083018361421a565b61478e6000850182614231565b5061479c6020830183614203565b6147a96020850182613e84565b50505050565b60006147be60208401846144d7565b905092915050565b61014082016147d86000830183614240565b6147e56000850182614257565b506147f36020830183614765565b6148006020850182614770565b5061480e6060830183614765565b61481b6060850182614770565b5061482960a083018361421a565b61483660a0850182614231565b5061484460c083018361421a565b61485160c0850182614231565b5061485f60e0830183614203565b61486c60e0850182613e84565b5061487b610100830183614203565b614889610100850182613e84565b506148986101208301836147af565b6148a6610120850182614615565b50505050565b60006101a0820190506148c2600083018761475e565b6148cf60208301866147c6565b6148dd6101608301856146e4565b6148eb610180830184613a8a565b95945050505050565b7f4e6f7420656e6f75676820657468657200000000000000000000000000000000600082015250565b600061492a601083613bbe565b9150614935826148f4565b602082019050919050565b600060208201905081810360008301526149598161491d565b9050919050565b7f556e65787065637465642045746865722073656e740000000000000000000000600082015250565b6000614996601583613bbe565b91506149a182614960565b602082019050919050565b600060208201905081810360008301526149c581614989565b9050919050565b6000815190506149db8161370c565b92915050565b6000602082840312156149f7576149f661328e565b5b6000614a05848285016149cc565b91505092915050565b6000606082019050614a23600083018661368e565b614a30602083018561368e565b614a3d604083018461350a565b949350505050565b7f5472616e7366657246726f6d206661696c65642e000000000000000000000000600082015250565b6000614a7b601483613bbe565b9150614a8682614a45565b602082019050919050565b60006020820190508181036000830152614aaa81614a6e565b905091905056fea26469706673582212201265abef7f9080661e7ee9b40386a2ae96658a624edf9d506115e8eb3581504e64736f6c63430008140033",
  "linkReferences": {
    "contracts/abstracts/libs/logic/AtomicSwapStateLogic.sol": {
      "AtomicSwapStateLogic": [
        {
          "length": 20,
          "start": 7778
        },
        {
          "length": 20,
          "start": 9392
        },
        {
          "length": 20,
          "start": 9519
        }
      ]
    },
    "contracts/abstracts/libs/utils/AtomicSwapMsgValidator.sol": {
      "AtomicSwapMsgValidator": [
        {
          "length": 20,
          "start": 4583
        },
        {
          "length": 20,
          "start": 9281
        }
      ]
    },
    "contracts/abstracts/libs/utils/TokenTransferHelper.sol": {
      "TokenTransferHelper": [
        {
          "length": 20,
          "start": 1965
        },
        {
          "length": 20,
          "start": 2224
        },
        {
          "length": 20,
          "start": 3228
        },
        {
          "length": 20,
          "start": 3467
        }
      ]
    }
  },
  "deployedLinkReferences": {
    "contracts/abstracts/libs/logic/AtomicSwapStateLogic.sol": {
      "AtomicSwapStateLogic": [
        {
          "length": 20,
          "start": 7746
        },
        {
          "length": 20,
          "start": 9360
        },
        {
          "length": 20,
          "start": 9487
        }
      ]
    },
    "contracts/abstracts/libs/utils/AtomicSwapMsgValidator.sol": {
      "AtomicSwapMsgValidator": [
        {
          "length": 20,
          "start": 4551
        },
        {
          "length": 20,
          "start": 9249
        }
      ]
    },
    "contracts/abstracts/libs/utils/TokenTransferHelper.sol": {
      "TokenTransferHelper": [
        {
          "length": 20,
          "start": 1933
        },
        {
          "length": 20,
          "start": 2192
        },
        {
          "length": 20,
          "start": 3196
        },
        {
          "length": 20,
          "start": 3435
        }
      ]
    }
  }
}