{
  "_format": "hh-sol-artifact-1",
  "contractName": "InchainAtomicSwap",
  "sourceName": "contracts/inchain_atomicswap/InchainAtomicSwap.sol",
  "abi": [
    {
      "inputs": [],
      "name": "AccessControlBadConfirmation",
      "type": "error"
    },
    {
      "inputs": [
        {
          "internalType": "address",
          "name": "account",
          "type": "address"
        },
        {
          "internalType": "bytes32",
          "name": "neededRole",
          "type": "bytes32"
        }
      ],
      "name": "AccessControlUnauthorizedAccount",
      "type": "error"
    },
    {
      "inputs": [],
      "name": "DuplicateReleaseSchedule",
      "type": "error"
    },
    {
      "inputs": [],
      "name": "EnforcedPause",
      "type": "error"
    },
    {
      "inputs": [],
      "name": "ExpectedPause",
      "type": "error"
    },
    {
      "inputs": [],
      "name": "InvalidAddress",
      "type": "error"
    },
    {
      "inputs": [],
      "name": "InvalidBuyerFee",
      "type": "error"
    },
    {
      "inputs": [
        {
          "internalType": "uint256",
          "name": "provided",
          "type": "uint256"
        },
        {
          "internalType": "uint256",
          "name": "maximum",
          "type": "uint256"
        }
      ],
      "name": "InvalidExpirationTime",
      "type": "error"
    },
    {
      "inputs": [],
      "name": "InvalidInitialization",
      "type": "error"
    },
    {
      "inputs": [
        {
          "internalType": "uint256",
          "name": "amount",
          "type": "uint256"
        }
      ],
      "name": "InvalidMinBidAmount",
      "type": "error"
    },
    {
      "inputs": [],
      "name": "InvalidReleasePercentage",
      "type": "error"
    },
    {
      "inputs": [],
      "name": "InvalidSellerFee",
      "type": "error"
    },
    {
      "inputs": [],
      "name": "InvalidSigners",
      "type": "error"
    },
    {
      "inputs": [],
      "name": "InvalidTotalPercentage",
      "type": "error"
    },
    {
      "inputs": [],
      "name": "InvalidTreasuryAddress",
      "type": "error"
    },
    {
      "inputs": [
        {
          "internalType": "uint256",
          "name": "real",
          "type": "uint256"
        },
        {
          "internalType": "uint256",
          "name": "expected",
          "type": "uint256"
        }
      ],
      "name": "NotEnoughFund",
      "type": "error"
    },
    {
      "inputs": [],
      "name": "NotInitializing",
      "type": "error"
    },
    {
      "inputs": [],
      "name": "OrderAlreadyExists",
      "type": "error"
    },
    {
      "inputs": [
        {
          "internalType": "uint256",
          "name": "current",
          "type": "uint256"
        },
        {
          "internalType": "uint256",
          "name": "expiredTime",
          "type": "uint256"
        }
      ],
      "name": "OrderAlreadyExpired",
      "type": "error"
    },
    {
      "inputs": [],
      "name": "OverMaximumReleaseStep",
      "type": "error"
    },
    {
      "inputs": [],
      "name": "ReentrancyGuardReentrantCall",
      "type": "error"
    },
    {
      "inputs": [],
      "name": "UnauthorizedSender",
      "type": "error"
    },
    {
      "inputs": [],
      "name": "UnsupportedTokenPair",
      "type": "error"
    },
    {
      "inputs": [],
      "name": "ZeroReleaseSchedule",
      "type": "error"
    },
    {
      "anonymous": false,
      "inputs": [
        {
          "indexed": true,
          "internalType": "bytes32",
          "name": "orderID",
          "type": "bytes32"
        },
        {
          "indexed": true,
          "internalType": "address",
          "name": "bidder",
          "type": "address"
        },
        {
          "indexed": true,
          "internalType": "uint256",
          "name": "amount",
          "type": "uint256"
        }
      ],
      "name": "AcceptedBid",
      "type": "event"
    },
    {
      "anonymous": false,
      "inputs": [
        {
          "indexed": true,
          "internalType": "bytes32",
          "name": "id",
          "type": "bytes32"
        }
      ],
      "name": "AtomicSwapOrderCreated",
      "type": "event"
    },
    {
      "anonymous": false,
      "inputs": [
        {
          "indexed": true,
          "internalType": "address",
          "name": "maker",
          "type": "address"
        },
        {
          "indexed": true,
          "internalType": "address",
          "name": "taker",
          "type": "address"
        },
        {
          "indexed": true,
          "internalType": "bytes32",
          "name": "id",
          "type": "bytes32"
        }
      ],
      "name": "AtomicSwapOrderTook",
      "type": "event"
    },
    {
      "anonymous": false,
      "inputs": [
        {
          "indexed": false,
          "internalType": "uint64",
          "name": "version",
          "type": "uint64"
        }
      ],
      "name": "Initialized",
      "type": "event"
    },
    {
      "anonymous": false,
      "inputs": [
        {
          "indexed": false,
          "internalType": "address",
          "name": "account",
          "type": "address"
        }
      ],
      "name": "Paused",
      "type": "event"
    },
    {
      "anonymous": false,
      "inputs": [
        {
          "indexed": true,
          "internalType": "bytes32",
          "name": "role",
          "type": "bytes32"
        },
        {
          "indexed": true,
          "internalType": "bytes32",
          "name": "previousAdminRole",
          "type": "bytes32"
        },
        {
          "indexed": true,
          "internalType": "bytes32",
          "name": "newAdminRole",
          "type": "bytes32"
        }
      ],
      "name": "RoleAdminChanged",
      "type": "event"
    },
    {
      "anonymous": false,
      "inputs": [
        {
          "indexed": true,
          "internalType": "bytes32",
          "name": "role",
          "type": "bytes32"
        },
        {
          "indexed": true,
          "internalType": "address",
          "name": "account",
          "type": "address"
        },
        {
          "indexed": true,
          "internalType": "address",
          "name": "sender",
          "type": "address"
        }
      ],
      "name": "RoleGranted",
      "type": "event"
    },
    {
      "anonymous": false,
      "inputs": [
        {
          "indexed": true,
          "internalType": "bytes32",
          "name": "role",
          "type": "bytes32"
        },
        {
          "indexed": true,
          "internalType": "address",
          "name": "account",
          "type": "address"
        },
        {
          "indexed": true,
          "internalType": "address",
          "name": "sender",
          "type": "address"
        }
      ],
      "name": "RoleRevoked",
      "type": "event"
    },
    {
      "anonymous": false,
      "inputs": [
        {
          "indexed": false,
          "internalType": "address",
          "name": "account",
          "type": "address"
        }
      ],
      "name": "Unpaused",
      "type": "event"
    },
    {
      "inputs": [],
      "name": "DEFAULT_ADMIN_ROLE",
      "outputs": [
        {
          "internalType": "bytes32",
          "name": "",
          "type": "bytes32"
        }
      ],
      "stateMutability": "view",
      "type": "function"
    },
    {
      "inputs": [],
      "name": "PAUSER_ROLE",
      "outputs": [
        {
          "internalType": "bytes32",
          "name": "",
          "type": "bytes32"
        }
      ],
      "stateMutability": "view",
      "type": "function"
    },
    {
      "inputs": [
        {
          "internalType": "address",
          "name": "_account",
          "type": "address"
        }
      ],
      "name": "addAdmin",
      "outputs": [],
      "stateMutability": "nonpayable",
      "type": "function"
    },
    {
      "inputs": [
        {
          "internalType": "address",
          "name": "_account",
          "type": "address"
        }
      ],
      "name": "addPauser",
      "outputs": [],
      "stateMutability": "nonpayable",
      "type": "function"
    },
    {
      "inputs": [],
      "name": "buyerFeeRate",
      "outputs": [
        {
          "internalType": "uint256",
          "name": "",
          "type": "uint256"
        }
      ],
      "stateMutability": "view",
      "type": "function"
    },
    {
      "inputs": [
        {
          "components": [
            {
              "internalType": "bytes32",
              "name": "uuid",
              "type": "bytes32"
            },
            {
              "components": [
                {
                  "internalType": "address",
                  "name": "token",
                  "type": "address"
                },
                {
                  "internalType": "uint256",
                  "name": "amount",
                  "type": "uint256"
                }
              ],
              "internalType": "struct IAtomicSwapBase.Coin",
              "name": "sellToken",
              "type": "tuple"
            },
            {
              "components": [
                {
                  "internalType": "address",
                  "name": "token",
                  "type": "address"
                },
                {
                  "internalType": "uint256",
                  "name": "amount",
                  "type": "uint256"
                }
              ],
              "internalType": "struct IAtomicSwapBase.Coin",
              "name": "buyToken",
              "type": "tuple"
            },
            {
              "internalType": "address",
              "name": "desiredTaker",
              "type": "address"
            },
            {
              "internalType": "uint256",
              "name": "minBidAmount",
              "type": "uint256"
            },
            {
              "internalType": "bool",
              "name": "acceptBid",
              "type": "bool"
            },
            {
              "internalType": "bool",
              "name": "withdrawToSellerAccount",
              "type": "bool"
            },
            {
              "internalType": "bool",
              "name": "withdrawToBuyerAccount",
              "type": "bool"
            },
            {
              "components": [
                {
                  "internalType": "uint8",
                  "name": "v",
                  "type": "uint8"
                },
                {
                  "internalType": "bytes32",
                  "name": "r",
                  "type": "bytes32"
                },
                {
                  "internalType": "bytes32",
                  "name": "s",
                  "type": "bytes32"
                },
                {
                  "internalType": "address",
                  "name": "owner",
                  "type": "address"
                },
                {
                  "internalType": "uint256",
                  "name": "deadline",
                  "type": "uint256"
                }
              ],
              "internalType": "struct IAtomicSwapBase.PermitSignature",
              "name": "sellerSignature",
              "type": "tuple"
            },
            {
              "components": [
                {
                  "internalType": "uint8",
                  "name": "v",
                  "type": "uint8"
                },
                {
                  "internalType": "bytes32",
                  "name": "r",
                  "type": "bytes32"
                },
                {
                  "internalType": "bytes32",
                  "name": "s",
                  "type": "bytes32"
                },
                {
                  "internalType": "address",
                  "name": "owner",
                  "type": "address"
                },
                {
                  "internalType": "uint256",
                  "name": "deadline",
                  "type": "uint256"
                }
              ],
              "internalType": "struct IAtomicSwapBase.PermitSignature",
              "name": "buyerSignature",
              "type": "tuple"
            }
          ],
          "internalType": "struct IAtomicSwapBase.SwapWithPermitMsg",
          "name": "swap",
          "type": "tuple"
        },
        {
          "components": [
            {
              "internalType": "uint256",
              "name": "durationInHours",
              "type": "uint256"
            },
            {
              "internalType": "uint256",
              "name": "percentage",
              "type": "uint256"
            }
          ],
          "internalType": "struct IAtomicSwapBase.Release[]",
          "name": "releases",
          "type": "tuple[]"
        }
      ],
      "name": "executeSwapWithPermit",
      "outputs": [],
      "stateMutability": "nonpayable",
      "type": "function"
    },
    {
      "inputs": [
        {
          "internalType": "bytes32",
          "name": "role",
          "type": "bytes32"
        }
      ],
      "name": "getRoleAdmin",
      "outputs": [
        {
          "internalType": "bytes32",
          "name": "",
          "type": "bytes32"
        }
      ],
      "stateMutability": "view",
      "type": "function"
    },
    {
      "inputs": [
        {
          "internalType": "bytes32",
          "name": "role",
          "type": "bytes32"
        },
        {
          "internalType": "address",
          "name": "account",
          "type": "address"
        }
      ],
      "name": "grantRole",
      "outputs": [],
      "stateMutability": "nonpayable",
      "type": "function"
    },
    {
      "inputs": [
        {
          "internalType": "bytes32",
          "name": "role",
          "type": "bytes32"
        },
        {
          "internalType": "address",
          "name": "account",
          "type": "address"
        }
      ],
      "name": "hasRole",
      "outputs": [
        {
          "internalType": "bool",
          "name": "",
          "type": "bool"
        }
      ],
      "stateMutability": "view",
      "type": "function"
    },
    {
      "inputs": [
        {
          "internalType": "address",
          "name": "_admin",
          "type": "address"
        },
        {
          "internalType": "address",
          "name": "_vault",
          "type": "address"
        },
        {
          "internalType": "address",
          "name": "_vestingManager",
          "type": "address"
        },
        {
          "internalType": "address",
          "name": "_treasury",
          "type": "address"
        },
        {
          "internalType": "uint256",
          "name": "_sellerFee",
          "type": "uint256"
        },
        {
          "internalType": "uint256",
          "name": "_buyerFee",
          "type": "uint256"
        }
      ],
      "name": "initialize",
      "outputs": [],
      "stateMutability": "nonpayable",
      "type": "function"
    },
    {
      "inputs": [
        {
          "internalType": "address",
          "name": "_account",
          "type": "address"
        }
      ],
      "name": "isAdmin",
      "outputs": [
        {
          "internalType": "bool",
          "name": "",
          "type": "bool"
        }
      ],
      "stateMutability": "view",
      "type": "function"
    },
    {
      "inputs": [
        {
          "internalType": "address",
          "name": "_account",
          "type": "address"
        }
      ],
      "name": "isPauser",
      "outputs": [
        {
          "internalType": "bool",
          "name": "",
          "type": "bool"
        }
      ],
      "stateMutability": "view",
      "type": "function"
    },
    {
      "inputs": [],
      "name": "paginationSize",
      "outputs": [
        {
          "internalType": "uint256",
          "name": "",
          "type": "uint256"
        }
      ],
      "stateMutability": "view",
      "type": "function"
    },
    {
      "inputs": [],
      "name": "pause",
      "outputs": [],
      "stateMutability": "nonpayable",
      "type": "function"
    },
    {
      "inputs": [],
      "name": "paused",
      "outputs": [
        {
          "internalType": "bool",
          "name": "",
          "type": "bool"
        }
      ],
      "stateMutability": "view",
      "type": "function"
    },
    {
      "inputs": [
        {
          "internalType": "address",
          "name": "_account",
          "type": "address"
        }
      ],
      "name": "removeAdmin",
      "outputs": [],
      "stateMutability": "nonpayable",
      "type": "function"
    },
    {
      "inputs": [
        {
          "internalType": "address",
          "name": "_account",
          "type": "address"
        }
      ],
      "name": "removePauser",
      "outputs": [],
      "stateMutability": "nonpayable",
      "type": "function"
    },
    {
      "inputs": [
        {
          "internalType": "bytes32",
          "name": "role",
          "type": "bytes32"
        },
        {
          "internalType": "address",
          "name": "callerConfirmation",
          "type": "address"
        }
      ],
      "name": "renounceRole",
      "outputs": [],
      "stateMutability": "nonpayable",
      "type": "function"
    },
    {
      "inputs": [
        {
          "internalType": "bytes32",
          "name": "role",
          "type": "bytes32"
        },
        {
          "internalType": "address",
          "name": "account",
          "type": "address"
        }
      ],
      "name": "revokeRole",
      "outputs": [],
      "stateMutability": "nonpayable",
      "type": "function"
    },
    {
      "inputs": [],
      "name": "sellerFeeRate",
      "outputs": [
        {
          "internalType": "uint256",
          "name": "",
          "type": "uint256"
        }
      ],
      "stateMutability": "view",
      "type": "function"
    },
    {
      "inputs": [
        {
          "internalType": "uint256",
          "name": "_paginationSize",
          "type": "uint256"
        }
      ],
      "name": "setPaginationSize",
      "outputs": [],
      "stateMutability": "nonpayable",
      "type": "function"
    },
    {
      "inputs": [
        {
          "internalType": "bytes4",
          "name": "interfaceId",
          "type": "bytes4"
        }
      ],
      "name": "supportsInterface",
      "outputs": [
        {
          "internalType": "bool",
          "name": "",
          "type": "bool"
        }
      ],
      "stateMutability": "view",
      "type": "function"
    },
    {
      "inputs": [
        {
          "internalType": "bytes32",
          "name": "",
          "type": "bytes32"
        }
      ],
      "name": "swapOrder",
      "outputs": [
        {
          "internalType": "bytes32",
          "name": "id",
          "type": "bytes32"
        },
        {
          "internalType": "enum IAtomicSwapBase.OrderStatus",
          "name": "status",
          "type": "uint8"
        },
        {
          "internalType": "address",
          "name": "maker",
          "type": "address"
        },
        {
          "components": [
            {
              "internalType": "address",
              "name": "token",
              "type": "address"
            },
            {
              "internalType": "uint256",
              "name": "amount",
              "type": "uint256"
            }
          ],
          "internalType": "struct IAtomicSwapBase.Coin",
          "name": "sellToken",
          "type": "tuple"
        },
        {
          "internalType": "address",
          "name": "taker",
          "type": "address"
        },
        {
          "components": [
            {
              "internalType": "address",
              "name": "token",
              "type": "address"
            },
            {
              "internalType": "uint256",
              "name": "amount",
              "type": "uint256"
            }
          ],
          "internalType": "struct IAtomicSwapBase.Coin",
          "name": "buyToken",
          "type": "tuple"
        },
        {
          "internalType": "uint256",
          "name": "minBidAmount",
          "type": "uint256"
        },
        {
          "internalType": "uint256",
          "name": "createdAt",
          "type": "uint256"
        },
        {
          "internalType": "uint256",
          "name": "canceledAt",
          "type": "uint256"
        },
        {
          "internalType": "uint256",
          "name": "completedAt",
          "type": "uint256"
        },
        {
          "internalType": "uint256",
          "name": "expiredAt",
          "type": "uint256"
        },
        {
          "internalType": "bool",
          "name": "acceptBid",
          "type": "bool"
        }
      ],
      "stateMutability": "view",
      "type": "function"
    },
    {
      "inputs": [
        {
          "internalType": "bytes32",
          "name": "",
          "type": "bytes32"
        },
        {
          "internalType": "uint256",
          "name": "",
          "type": "uint256"
        }
      ],
      "name": "swapOrderVestingParams",
      "outputs": [
        {
          "internalType": "uint256",
          "name": "durationInHours",
          "type": "uint256"
        },
        {
          "internalType": "uint256",
          "name": "percentage",
          "type": "uint256"
        }
      ],
      "stateMutability": "view",
      "type": "function"
    },
    {
      "inputs": [],
      "name": "unpause",
      "outputs": [],
      "stateMutability": "nonpayable",
      "type": "function"
    },
    {
      "stateMutability": "payable",
      "type": "receive"
    }
  ],
  "bytecode": "0x608060405234801561001057600080fd5b50612a98806100206000396000f3fe60806040526004361061016a5760003560e01c806370480275116100d1578063a217fddf1161008a578063d7c41c7911610064578063d7c41c7914610532578063e63ab1e91461055b578063f2407ca414610586578063fca6caa1146105af57610171565b8063a217fddf146104b5578063b0803c1c146104e0578063d547741f1461050957610171565b806370480275146103a657806382dc1ec4146103cf5780638456cb59146103f857806389f681901461040f5780638d6cb1c41461043a57806391d148541461047857610171565b80633d538ecf116101235780633d538ecf146102a85780633f4ba83a146102d357806346fbf68e146102ea57806353f10c80146103275780635c975abb146103525780636b2c0f551461037d57610171565b806301ffc9a7146101765780631785f53c146101b3578063248a9ca3146101dc57806324d7806c146102195780632f2ff15d1461025657806336568abe1461027f57610171565b3661017157005b600080fd5b34801561018257600080fd5b5061019d60048036038101906101989190611d20565b6105f7565b6040516101aa9190611d68565b60405180910390f35b3480156101bf57600080fd5b506101da60048036038101906101d59190611de1565b610671565b005b3480156101e857600080fd5b5061020360048036038101906101fe9190611e44565b610681565b6040516102109190611e80565b60405180910390f35b34801561022557600080fd5b50610240600480360381019061023b9190611de1565b6106af565b60405161024d9190611d68565b60405180910390f35b34801561026257600080fd5b5061027d60048036038101906102789190611e9b565b6106c5565b005b34801561028b57600080fd5b506102a660048036038101906102a19190611e9b565b6106e7565b005b3480156102b457600080fd5b506102bd610762565b6040516102ca9190611ef4565b60405180910390f35b3480156102df57600080fd5b506102e8610768565b005b3480156102f657600080fd5b50610311600480360381019061030c9190611de1565b6107db565b60405161031e9190611d68565b60405180910390f35b34801561033357600080fd5b5061033c61080e565b6040516103499190611ef4565b60405180910390f35b34801561035e57600080fd5b50610367610814565b6040516103749190611d68565b60405180910390f35b34801561038957600080fd5b506103a4600480360381019061039f9190611de1565b610839565b005b3480156103b257600080fd5b506103cd60048036038101906103c89190611de1565b610866565b005b3480156103db57600080fd5b506103f660048036038101906103f19190611de1565b610876565b005b34801561040457600080fd5b5061040d6108a3565b005b34801561041b57600080fd5b50610424610916565b6040516104319190611ef4565b60405180910390f35b34801561044657600080fd5b50610461600480360381019061045c9190611f3b565b61091c565b60405161046f929190611f7b565b60405180910390f35b34801561048457600080fd5b5061049f600480360381019061049a9190611e9b565b61095d565b6040516104ac9190611d68565b60405180910390f35b3480156104c157600080fd5b506104ca6109d6565b6040516104d79190611e80565b60405180910390f35b3480156104ec57600080fd5b506105076004803603810190610502919061202e565b6109dd565b005b34801561051557600080fd5b50610530600480360381019061052b9190611e9b565b610c32565b005b34801561053e57600080fd5b5061055960048036038101906105549190612090565b610c54565b005b34801561056757600080fd5b50610570610f97565b60405161057d9190611e80565b60405180910390f35b34801561059257600080fd5b506105ad60048036038101906105a8919061211d565b610fbb565b005b3480156105bb57600080fd5b506105d660048036038101906105d19190611e44565b611054565b6040516105ee9c9b9a9998979695949392919061221d565b60405180910390f35b60007f7965db0b000000000000000000000000000000000000000000000000000000007bffffffffffffffffffffffffffffffffffffffffffffffffffffffff1916827bffffffffffffffffffffffffffffffffffffffffffffffffffffffff1916148061066a5750610669826111e2565b5b9050919050565b61067e6000801b82610c32565b50565b60008061068c61124c565b905080600001600084815260200190815260200160002060010154915050919050565b60006106be6000801b8361095d565b9050919050565b6106ce82610681565b6106d781611274565b6106e18383611288565b50505050565b6106ef611389565b73ffffffffffffffffffffffffffffffffffffffff168173ffffffffffffffffffffffffffffffffffffffff1614610753576040517f6697b23200000000000000000000000000000000000000000000000000000000815260040160405180910390fd5b61075d8282611391565b505050565b60005481565b6107927f65d7a28e3265b37a6474929f336521b332c1681b933f6cb9f3376673440d862a3361095d565b6107d1576040517f08c379a00000000000000000000000000000000000000000000000000000000081526004016107c890612336565b60405180910390fd5b6107d9611493565b565b60006108077f65d7a28e3265b37a6474929f336521b332c1681b933f6cb9f3376673440d862a8361095d565b9050919050565b60075481565b60008061081f611505565b90508060000160009054906101000a900460ff1691505090565b6108637f65d7a28e3265b37a6474929f336521b332c1681b933f6cb9f3376673440d862a82610c32565b50565b6108736000801b826106c5565b50565b6108a07f65d7a28e3265b37a6474929f336521b332c1681b933f6cb9f3376673440d862a826106c5565b50565b6108cd7f65d7a28e3265b37a6474929f336521b332c1681b933f6cb9f3376673440d862a3361095d565b61090c576040517f08c379a000000000000000000000000000000000000000000000000000000000815260040161090390612336565b60405180910390fd5b61091461152d565b565b60065481565b6002602052816000526040600020818154811061093857600080fd5b9060005260206000209060020201600091509150508060000154908060010154905082565b60008061096861124c565b905080600001600085815260200190815260200160002060000160008473ffffffffffffffffffffffffffffffffffffffff1673ffffffffffffffffffffffffffffffffffffffff16815260200190815260200160002060009054906101000a900460ff1691505092915050565b6000801b81565b6109e561159f565b6109ed6115f6565b6109f683611637565b60006040518060800160405280600654815260200160075481526020016127108152602001600560009054906101000a900473ffffffffffffffffffffffffffffffffffffffff1673ffffffffffffffffffffffffffffffffffffffff1681525090506000806000600173__$0f262aedcaca17139081476b6881c33748$__6319887ca39091898989600460009054906101000a900473ffffffffffffffffffffffffffffffffffffffff16600360009054906101000a900473ffffffffffffffffffffffffffffffffffffffff168b6040518863ffffffff1660e01b8152600401610ae8979695949392919061282f565b606060405180830381865af4158015610b05573d6000803e3d6000fd5b505050506040513d601f19601f82011682018060405250810190610b2991906128c8565b925092509250827f8b82d32987f9a4ae1bc7868a6f104edb711227ec3c9fccb0416a14fcc29bec5a60405160405180910390a28660e0016020810190610b6f919061291b565b15610bc55786606001602001358273ffffffffffffffffffffffffffffffffffffffff16847fadd1d5b6c827fee45fa32e72964c9d43d2191c9b8b083889fb2e3f468c71856860405160405180910390a4610c21565b828173ffffffffffffffffffffffffffffffffffffffff168373ffffffffffffffffffffffffffffffffffffffff167f6bf7309f141d1b44e414f1fc04d98491cd0acf98f0f1e5ad885d0a7ce164e6fa60405160405180910390a45b50505050610c2d6117ae565b505050565b610c3b82610681565b610c4481611274565b610c4e8383611391565b50505050565b6000610c5e6117c7565b905060008160000160089054906101000a900460ff1615905060008260000160009054906101000a900467ffffffffffffffff1690506000808267ffffffffffffffff16148015610cac5750825b9050600060018367ffffffffffffffff16148015610ce1575060003073ffffffffffffffffffffffffffffffffffffffff163b145b905081158015610cef575080155b15610d26576040517ff92ee8a900000000000000000000000000000000000000000000000000000000815260040160405180910390fd5b60018560000160006101000a81548167ffffffffffffffff021916908367ffffffffffffffff1602179055508315610d765760018560000160086101000a81548160ff0219169083151502179055505b610d7f8b6117ef565b612710871115610dbb576040517fce43144600000000000000000000000000000000000000000000000000000000815260040160405180910390fd5b612710861115610df7576040517fb089e48e00000000000000000000000000000000000000000000000000000000815260040160405180910390fd5b600073ffffffffffffffffffffffffffffffffffffffff168873ffffffffffffffffffffffffffffffffffffffff1603610e5d576040517fcfe2ea6300000000000000000000000000000000000000000000000000000000815260040160405180910390fd5b866006819055508560078190555087600560006101000a81548173ffffffffffffffffffffffffffffffffffffffff021916908373ffffffffffffffffffffffffffffffffffffffff16021790555089600460006101000a81548173ffffffffffffffffffffffffffffffffffffffff021916908373ffffffffffffffffffffffffffffffffffffffff16021790555088600360006101000a81548173ffffffffffffffffffffffffffffffffffffffff021916908373ffffffffffffffffffffffffffffffffffffffff1602179055508315610f8a5760008560000160086101000a81548160ff0219169083151502179055507fc7f505b2f371ae2175ee4913f4499e1f2633a7b5936321eed1cdaeb6115181d26001604051610f819190612997565b60405180910390a15b5050505050505050505050565b7f65d7a28e3265b37a6474929f336521b332c1681b933f6cb9f3376673440d862a81565b610fc86000801b3361095d565b611007576040517f08c379a0000000000000000000000000000000000000000000000000000000008152600401610ffe90612336565b60405180910390fd5b6000811161104a576040517f08c379a0000000000000000000000000000000000000000000000000000000008152600401611041906129fe565b60405180910390fd5b8060008190555050565b60016020528060005260406000206000915090508060000154908060010160009054906101000a900460ff16908060010160019054906101000a900473ffffffffffffffffffffffffffffffffffffffff1690806002016040518060400160405290816000820160009054906101000a900473ffffffffffffffffffffffffffffffffffffffff1673ffffffffffffffffffffffffffffffffffffffff1673ffffffffffffffffffffffffffffffffffffffff168152602001600182015481525050908060040160009054906101000a900473ffffffffffffffffffffffffffffffffffffffff1690806005016040518060400160405290816000820160009054906101000a900473ffffffffffffffffffffffffffffffffffffffff1673ffffffffffffffffffffffffffffffffffffffff1673ffffffffffffffffffffffffffffffffffffffff1681526020016001820154815250509080600701549080600801549080600901549080600a01549080600b01549080600c0160009054906101000a900460ff1690508c565b60007f01ffc9a7000000000000000000000000000000000000000000000000000000007bffffffffffffffffffffffffffffffffffffffffffffffffffffffff1916827bffffffffffffffffffffffffffffffffffffffffffffffffffffffff1916149050919050565b60007f02dd7bc7dec4dceedda775e58dd541e08a116c6c53815c0bd028192f7b626800905090565b61128581611280611389565b61199e565b50565b60008061129361124c565b905061129f848461095d565b61137d57600181600001600086815260200190815260200160002060000160008573ffffffffffffffffffffffffffffffffffffffff1673ffffffffffffffffffffffffffffffffffffffff16815260200190815260200160002060006101000a81548160ff021916908315150217905550611319611389565b73ffffffffffffffffffffffffffffffffffffffff168373ffffffffffffffffffffffffffffffffffffffff16857f2f8788117e7eff1d82e926ec794901d17c78024a50270940304540a733656f0d60405160405180910390a46001915050611383565b60009150505b92915050565b600033905090565b60008061139c61124c565b90506113a8848461095d565b1561148757600081600001600086815260200190815260200160002060000160008573ffffffffffffffffffffffffffffffffffffffff1673ffffffffffffffffffffffffffffffffffffffff16815260200190815260200160002060006101000a81548160ff021916908315150217905550611423611389565b73ffffffffffffffffffffffffffffffffffffffff168373ffffffffffffffffffffffffffffffffffffffff16857ff6391f5c32d9c69d2a47ea670b442974b53935d1edc7fd64eb21e047a839171b60405160405180910390a4600191505061148d565b60009150505b92915050565b61149b6119ef565b60006114a5611505565b905060008160000160006101000a81548160ff0219169083151502179055507f5db9ee0a495bf2e6ff9c91a7834c1ba4fdd244a5e8aa4e537bd38aeae4b073aa6114ed611389565b6040516114fa9190612a1e565b60405180910390a150565b60007fcd5ed15c6e187e77e9aee88184c21f4f2182ab5827cb3b7e07fbedcd63f03300905090565b6115356115f6565b600061153f611505565b905060018160000160006101000a81548160ff0219169083151502179055507f62e78cea01bee320cd4e420270b5ea74000d11b0c9f74754ebdbfc544b05a258611587611389565b6040516115949190612a1e565b60405180910390a150565b60006115a9611a2f565b905060028160000154036115e9576040517f3ee5aeb500000000000000000000000000000000000000000000000000000000815260040160405180910390fd5b6002816000018190555050565b6115fe610814565b15611635576040517fd93c066500000000000000000000000000000000000000000000000000000000815260040160405180910390fd5b565b80606001600001602081019061164d9190611de1565b73ffffffffffffffffffffffffffffffffffffffff168160200160000160208101906116799190611de1565b73ffffffffffffffffffffffffffffffffffffffff16036116c6576040517f45b3a4c700000000000000000000000000000000000000000000000000000000815260040160405180910390fd5b806101e00160600160208101906116dd9190611de1565b73ffffffffffffffffffffffffffffffffffffffff168161014001606001602081019061170a9190611de1565b73ffffffffffffffffffffffffffffffffffffffff1603611757576040517f5e231fff00000000000000000000000000000000000000000000000000000000815260040160405180910390fd5b80602001602001358160c0013511156117ab578060c001356040517f46d9be140000000000000000000000000000000000000000000000000000000081526004016117a29190611ef4565b60405180910390fd5b50565b60006117b8611a2f565b90506001816000018190555050565b60007ff0c57e16840df040f15088dc2f81fe391c3923bec73e23a9662efc9c229c6a00905090565b60006117f96117c7565b905060008160000160089054906101000a900460ff1615905060008260000160009054906101000a900467ffffffffffffffff1690506000808267ffffffffffffffff161480156118475750825b9050600060018367ffffffffffffffff1614801561187c575060003073ffffffffffffffffffffffffffffffffffffffff163b145b90508115801561188a575080155b156118c1576040517ff92ee8a900000000000000000000000000000000000000000000000000000000815260040160405180910390fd5b60018560000160006101000a81548167ffffffffffffffff021916908367ffffffffffffffff16021790555083156119115760018560000160086101000a81548160ff0219169083151502179055505b611919611a57565b611921611a61565b611929611a6b565b61193286611a9f565b606460008190555083156119965760008560000160086101000a81548160ff0219169083151502179055507fc7f505b2f371ae2175ee4913f4499e1f2633a7b5936321eed1cdaeb6115181d2600160405161198d9190612997565b60405180910390a15b505050505050565b6119a8828261095d565b6119eb5780826040517fe2517d3f0000000000000000000000000000000000000000000000000000000081526004016119e2929190612a39565b60405180910390fd5b5050565b6119f7610814565b611a2d576040517f8dfc202b00000000000000000000000000000000000000000000000000000000815260040160405180910390fd5b565b60007f9b779b17422d0df92223018b32b4d1fa46e071723d6817e2486d003becc55f00905090565b611a5f611c5e565b565b611a69611c5e565b565b611a73611c5e565b6000611a7d611505565b905060008160000160006101000a81548160ff02191690831515021790555050565b6000611aa96117c7565b905060008160000160089054906101000a900460ff1615905060008260000160009054906101000a900467ffffffffffffffff1690506000808267ffffffffffffffff16148015611af75750825b9050600060018367ffffffffffffffff16148015611b2c575060003073ffffffffffffffffffffffffffffffffffffffff163b145b905081158015611b3a575080155b15611b71576040517ff92ee8a900000000000000000000000000000000000000000000000000000000815260040160405180910390fd5b60018560000160006101000a81548167ffffffffffffffff021916908367ffffffffffffffff1602179055508315611bc15760018560000160086101000a81548160ff0219169083151502179055505b611bce6000801b87611288565b50611bf97f65d7a28e3265b37a6474929f336521b332c1681b933f6cb9f3376673440d862a87611288565b508315611c565760008560000160086101000a81548160ff0219169083151502179055507fc7f505b2f371ae2175ee4913f4499e1f2633a7b5936321eed1cdaeb6115181d26001604051611c4d9190612997565b60405180910390a15b505050505050565b611c66611c9e565b611c9c576040517fd7e6bcf800000000000000000000000000000000000000000000000000000000815260040160405180910390fd5b565b6000611ca86117c7565b60000160089054906101000a900460ff16905090565b600080fd5b600080fd5b60007fffffffff0000000000000000000000000000000000000000000000000000000082169050919050565b611cfd81611cc8565b8114611d0857600080fd5b50565b600081359050611d1a81611cf4565b92915050565b600060208284031215611d3657611d35611cbe565b5b6000611d4484828501611d0b565b91505092915050565b60008115159050919050565b611d6281611d4d565b82525050565b6000602082019050611d7d6000830184611d59565b92915050565b600073ffffffffffffffffffffffffffffffffffffffff82169050919050565b6000611dae82611d83565b9050919050565b611dbe81611da3565b8114611dc957600080fd5b50565b600081359050611ddb81611db5565b92915050565b600060208284031215611df757611df6611cbe565b5b6000611e0584828501611dcc565b91505092915050565b6000819050919050565b611e2181611e0e565b8114611e2c57600080fd5b50565b600081359050611e3e81611e18565b92915050565b600060208284031215611e5a57611e59611cbe565b5b6000611e6884828501611e2f565b91505092915050565b611e7a81611e0e565b82525050565b6000602082019050611e956000830184611e71565b92915050565b60008060408385031215611eb257611eb1611cbe565b5b6000611ec085828601611e2f565b9250506020611ed185828601611dcc565b9150509250929050565b6000819050919050565b611eee81611edb565b82525050565b6000602082019050611f096000830184611ee5565b92915050565b611f1881611edb565b8114611f2357600080fd5b50565b600081359050611f3581611f0f565b92915050565b60008060408385031215611f5257611f51611cbe565b5b6000611f6085828601611e2f565b9250506020611f7185828601611f26565b9150509250929050565b6000604082019050611f906000830185611ee5565b611f9d6020830184611ee5565b9392505050565b600080fd5b60006102808284031215611fc057611fbf611fa4565b5b81905092915050565b600080fd5b600080fd5b600080fd5b60008083601f840112611fee57611fed611fc9565b5b8235905067ffffffffffffffff81111561200b5761200a611fce565b5b60208301915083604082028301111561202757612026611fd3565b5b9250929050565b60008060006102a0848603121561204857612047611cbe565b5b600061205686828701611fa9565b93505061028084013567ffffffffffffffff81111561207857612077611cc3565b5b61208486828701611fd8565b92509250509250925092565b60008060008060008060c087890312156120ad576120ac611cbe565b5b60006120bb89828a01611dcc565b96505060206120cc89828a01611dcc565b95505060406120dd89828a01611dcc565b94505060606120ee89828a01611dcc565b93505060806120ff89828a01611f26565b92505060a061211089828a01611f26565b9150509295509295509295565b60006020828403121561213357612132611cbe565b5b600061214184828501611f26565b91505092915050565b7f4e487b7100000000000000000000000000000000000000000000000000000000600052602160045260246000fd5b6004811061218a5761218961214a565b5b50565b600081905061219b82612179565b919050565b60006121ab8261218d565b9050919050565b6121bb816121a0565b82525050565b6121ca81611da3565b82525050565b6121d981611da3565b82525050565b6121e881611edb565b82525050565b60408201600082015161220460008501826121d0565b50602082015161221760208501826121df565b50505050565b60006101c082019050612233600083018f611e71565b612240602083018e6121b2565b61224d604083018d6121c1565b61225a606083018c6121ee565b61226760a083018b6121c1565b61227460c083018a6121ee565b612282610100830189611ee5565b612290610120830188611ee5565b61229e610140830187611ee5565b6122ac610160830186611ee5565b6122ba610180830185611ee5565b6122c86101a0830184611d59565b9d9c50505050505050505050505050565b600082825260208201905092915050565b7f4f776e61626c655061757361626c653a206163636573732064656e6965640000600082015250565b6000612320601e836122d9565b915061232b826122ea565b602082019050919050565b6000602082019050818103600083015261234f81612313565b9050919050565b8082525050565b600061236c6020840184611e2f565b905092915050565b61237d81611e0e565b82525050565b600082905092915050565b600061239d6020840184611dcc565b905092915050565b6123ae81611da3565b82525050565b60006123c36020840184611f26565b905092915050565b6123d481611edb565b82525050565b604082016123eb600083018361238e565b6123f860008501826123a5565b5061240660208301836123b4565b61241360208501826123cb565b50505050565b61242281611d4d565b811461242d57600080fd5b50565b60008135905061243f81612419565b92915050565b60006124546020840184612430565b905092915050565b61246581611d4d565b82525050565b600082905092915050565b600060ff82169050919050565b61248c81612476565b811461249757600080fd5b50565b6000813590506124a981612483565b92915050565b60006124be602084018461249a565b905092915050565b6124cf81612476565b82525050565b60a082016124e660008301836124af565b6124f360008501826124c6565b50612501602083018361235d565b61250e6020850182612374565b5061251c604083018361235d565b6125296040850182612374565b50612537606083018361238e565b61254460608501826123a5565b5061255260808301836123b4565b61255f60808501826123cb565b50505050565b6102808201612577600083018361235d565b6125846000850182612374565b506125926020830183612383565b61259f60208501826123da565b506125ad6060830183612383565b6125ba60608501826123da565b506125c860a083018361238e565b6125d560a08501826123a5565b506125e360c08301836123b4565b6125f060c08501826123cb565b506125fe60e0830183612445565b61260b60e085018261245c565b5061261a610100830183612445565b61262861010085018261245c565b50612637610120830183612445565b61264561012085018261245c565b5061265461014083018361246b565b6126626101408501826124d5565b506126716101e083018361246b565b61267f6101e08501826124d5565b50505050565b600082825260208201905092915050565b6000819050919050565b604082016126b160008301836123b4565b6126be60008501826123cb565b506126cc60208301836123b4565b6126d960208501826123cb565b50505050565b60006126eb83836126a0565b60408301905092915050565b600082905092915050565b6000604082019050919050565b600061271b8385612685565b935061272682612696565b8060005b8581101561275f5761273c82846126f7565b61274688826126df565b975061275183612702565b92505060018101905061272a565b5085925050509392505050565b61277581611da3565b82525050565b6000819050919050565b60006127a061279b61279684611d83565b61277b565b611d83565b9050919050565b60006127b282612785565b9050919050565b60006127c4826127a7565b9050919050565b6127d4816127b9565b82525050565b6080820160008201516127f060008501826123cb565b50602082015161280360208501826123cb565b50604082015161281660408501826123cb565b50606082015161282960608501826123a5565b50505050565b600061038082019050612845600083018a612356565b6128526020830189612565565b8181036102a083015261286681878961270f565b90506128766102c083018661276c565b6128846102e08301856127cb565b6128926103008301846127da565b98975050505050505050565b6000815190506128ad81611e18565b92915050565b6000815190506128c281611db5565b92915050565b6000806000606084860312156128e1576128e0611cbe565b5b60006128ef8682870161289e565b9350506020612900868287016128b3565b9250506040612911868287016128b3565b9150509250925092565b60006020828403121561293157612930611cbe565b5b600061293f84828501612430565b91505092915050565b6000819050919050565b600067ffffffffffffffff82169050919050565b600061298161297c61297784612948565b61277b565b612952565b9050919050565b61299181612966565b82525050565b60006020820190506129ac6000830184612988565b92915050565b7f4d6f726967696e4170703a20696e76616c69642076616c756521000000000000600082015250565b60006129e8601a836122d9565b91506129f3826129b2565b602082019050919050565b60006020820190508181036000830152612a17816129db565b9050919050565b6000602082019050612a3360008301846121c1565b92915050565b6000604082019050612a4e60008301856121c1565b612a5b6020830184611e71565b939250505056fea26469706673582212201fc0477ed7d8112aecbfbe06781666d65179162603fb3c428d8c35d4915742c364736f6c63430008140033",
  "linkReferences": {
    "contracts/inchain_atomicswap/logic/AtomicSwapStateLogic.sol": {
      "AtomicSwapStateLogic": [
        {
          "length": 20,
          "start": 2690
        }
      ]
    }
  },
  "deployedLinkReferences": {
    "contracts/inchain_atomicswap/logic/AtomicSwapStateLogic.sol": {
      "AtomicSwapStateLogic": [
        {
          "length": 20,
          "start": 2658
        }
      ]
    }
  }
}