{"abi":[{"type":"function","name":"isContract","inputs":[{"name":"_addr","type":"address","internalType":"address"}],"outputs":[{"name":"","type":"bool","internalType":"bool"}],"stateMutability":"view"},{"type":"function","name":"validateMakeSwapParams","inputs":[{"name":"makeswap","type":"tuple","internalType":"struct IAtomicSwapBase.MakeSwapMsg","components":[{"name":"uuid","type":"bytes32","internalType":"bytes32"},{"name":"sellToken","type":"tuple","internalType":"struct IAtomicSwapBase.Coin","components":[{"name":"token","type":"address","internalType":"address"},{"name":"amount","type":"uint256","internalType":"uint256"}]},{"name":"buyToken","type":"tuple","internalType":"struct IAtomicSwapBase.Coin","components":[{"name":"token","type":"address","internalType":"address"},{"name":"amount","type":"uint256","internalType":"uint256"}]},{"name":"maker","type":"address","internalType":"address"},{"name":"desiredTaker","type":"address","internalType":"address"},{"name":"minBidAmount","type":"uint256","internalType":"uint256"},{"name":"expireAt","type":"uint256","internalType":"uint256"},{"name":"acceptBid","type":"bool","internalType":"bool"}]}],"outputs":[],"stateMutability":"view"},{"type":"function","name":"validateVestingParams","inputs":[{"name":"releases","type":"tuple[]","internalType":"struct IAtomicSwapBase.Release[]","components":[{"name":"durationInHours","type":"uint256","internalType":"uint256"},{"name":"percentage","type":"uint256","internalType":"uint256"}]}],"outputs":[],"stateMutability":"pure"},{"type":"error","name":"InvalidContractAddress","inputs":[{"name":"contractAddress","type":"address","internalType":"address"}]},{"type":"error","name":"InvalidExpirationTime","inputs":[{"name":"provided","type":"uint256","internalType":"uint256"},{"name":"maximum","type":"uint256","internalType":"uint256"}]},{"type":"error","name":"InvalidMinimumBidLimit","inputs":[]},{"type":"error","name":"InvalidReleasePercentage","inputs":[]},{"type":"error","name":"InvalidTotalPercentage","inputs":[]},{"type":"error","name":"OrderAlreadyExpired","inputs":[{"name":"current","type":"uint256","internalType":"uint256"},{"name":"expiredTime","type":"uint256","internalType":"uint256"}]},{"type":"error","name":"OverMaximumReleaseStep","inputs":[]},{"type":"error","name":"UnauthorizedCancelAction","inputs":[]},{"type":"error","name":"UnauthorizedSender","inputs":[]},{"type":"error","name":"UnauthorizedTakeAction","inputs":[]},{"type":"error","name":"ZeroReleaseSchedule","inputs":[]}],"bytecode":{"object":"0x61073661003a600b82828239805160001a60731461002d57634e487b7160e01b600052600060045260246000fd5b30600052607381538281f3fe73000000000000000000000000000000000000000030146080604052600436106100615760003560e01c8063162790551461006657806333b988f51461009457806362e454f7146100a95780639a0ebe00146100bc578063c3aee15d146100cf575b600080fd5b6100806100743660046103f7565b3b63ffffffff16151590565b604051901515815260200160405180910390f35b6100a76100a23660046104ad565b6100e2565b005b6100a76100b736600461057a565b6101b3565b6100a76100ca366004610617565b61025e565b6100a76100dd3660046106aa565b6103a9565b805160000361010457604051637eb4703d60e11b815260040160405180910390fd5b6000805b8251811015610169576000838281518110610125576101256106c3565b60200260200101516020015190508060000361015457604051632b82b70d60e01b815260040160405180910390fd5b61015e81846106d9565b925050600101610108565b50806127101461018c57604051630b8ad7f160e01b815260040160405180910390fd5b6096825111156101af57604051631531e37f60e01b815260040160405180910390fd5b5050565b60208101516001600160a01b03166101de57604051630101292160e31b815260040160405180910390fd5b60048201546001600160a01b031615801590610207575060048201546001600160a01b03163314155b156102255760405163be544a2b60e01b815260040160405180910390fd5b4282600b015410156101af57600b820154604051630fe77d7d60e01b815242600482015260248101919091526044015b60405180910390fd5b6020810151516001600160a01b03161580159061028557506020810151513b63ffffffff16155b156102b5576020810151516040516319bb402960e01b81526001600160a01b039091166004820152602401610255565b6040810151516001600160a01b0316158015906102dc57506040810151513b63ffffffff16155b1561030c576040818101515190516319bb402960e01b81526001600160a01b039091166004820152602401610255565b60008160a001511161033157604051635fe07c7d60e01b815260040160405180910390fd5b331580610354575080606001516001600160a01b0316336001600160a01b031614155b1561037257604051630101292160e31b815260040160405180910390fd5b428160c0015110156103a65760c081015160405163f00605cf60e01b81526004810191909152426024820152604401610255565b50565b600181015461010090046001600160a01b031633146103a657604051634bc7822b60e11b815260040160405180910390fd5b80356001600160a01b03811681146103f257600080fd5b919050565b60006020828403121561040957600080fd5b610412826103db565b9392505050565b634e487b7160e01b600052604160045260246000fd5b6040805190810167ffffffffffffffff8111828210171561045257610452610419565b60405290565b604051610100810167ffffffffffffffff8111828210171561045257610452610419565b604051601f8201601f1916810167ffffffffffffffff811182821017156104a5576104a5610419565b604052919050565b600060208083850312156104c057600080fd5b823567ffffffffffffffff808211156104d857600080fd5b818501915085601f8301126104ec57600080fd5b8135818111156104fe576104fe610419565b61050c848260051b0161047c565b818152848101925060069190911b83018401908782111561052c57600080fd5b928401925b8184101561056f576040848903121561054a5760008081fd5b61055261042f565b843581528585013586820152835260409093019291840191610531565b979650505050505050565b600080828403606081121561058e57600080fd5b833592506040601f19820112156105a457600080fd5b506105ad61042f565b602084013581526105c0604085016103db565b6020820152809150509250929050565b6000604082840312156105e257600080fd5b6105ea61042f565b90506105f5826103db565b81526020820135602082015292915050565b803580151581146103f257600080fd5b6000610140828403121561062a57600080fd5b610632610458565b8235815261064384602085016105d0565b602082015261065584606085016105d0565b604082015261066660a084016103db565b606082015261067760c084016103db565b608082015260e083013560a082015261010083013560c082015261069e6101208401610607565b60e08201529392505050565b6000602082840312156106bc57600080fd5b5035919050565b634e487b7160e01b600052603260045260246000fd5b808201808211156106fa57634e487b7160e01b600052601160045260246000fd5b9291505056fea2646970667358221220d8477c27ac8e73e29d38c23d8eab5be14675df9851f900ae2c9839c8ca8adc8164736f6c63430008170033","linkReferences":{}},"methodIdentifiers":{"isContract(address)":"16279055","validateCancelSwap(IAtomicSwapBase.AtomicSwapOrder storage)":"c3aee15d","validateMakeSwapParams(IAtomicSwapBase.MakeSwapMsg)":"9a0ebe00","validateTakeSwap(IAtomicSwapBase.AtomicSwapOrder storage,IAtomicSwapBase.TakeSwapMsg)":"62e454f7","validateVestingParams(IAtomicSwapBase.Release[])":"33b988f5"},"id":6}