{
  "_format": "hh-sol-artifact-1",
  "contractName": "Vesting",
  "sourceName": "contracts/vesting/Vesting.sol",
  "abi": [
    {
      "inputs": [],
      "name": "AccessControlBadConfirmation",
      "type": "error"
    },
    {
      "inputs": [
        {
          "internalType": "address",
          "name": "account",
          "type": "address"
        },
        {
          "internalType": "bytes32",
          "name": "neededRole",
          "type": "bytes32"
        }
      ],
      "name": "AccessControlUnauthorizedAccount",
      "type": "error"
    },
    {
      "inputs": [],
      "name": "DuplicateReleaseSchedule",
      "type": "error"
    },
    {
      "inputs": [
        {
          "internalType": "address",
          "name": "sender",
          "type": "address"
        },
        {
          "internalType": "uint256",
          "name": "tokenId",
          "type": "uint256"
        },
        {
          "internalType": "address",
          "name": "owner",
          "type": "address"
        }
      ],
      "name": "ERC721IncorrectOwner",
      "type": "error"
    },
    {
      "inputs": [
        {
          "internalType": "address",
          "name": "operator",
          "type": "address"
        },
        {
          "internalType": "uint256",
          "name": "tokenId",
          "type": "uint256"
        }
      ],
      "name": "ERC721InsufficientApproval",
      "type": "error"
    },
    {
      "inputs": [
        {
          "internalType": "address",
          "name": "approver",
          "type": "address"
        }
      ],
      "name": "ERC721InvalidApprover",
      "type": "error"
    },
    {
      "inputs": [
        {
          "internalType": "address",
          "name": "operator",
          "type": "address"
        }
      ],
      "name": "ERC721InvalidOperator",
      "type": "error"
    },
    {
      "inputs": [
        {
          "internalType": "address",
          "name": "owner",
          "type": "address"
        }
      ],
      "name": "ERC721InvalidOwner",
      "type": "error"
    },
    {
      "inputs": [
        {
          "internalType": "address",
          "name": "receiver",
          "type": "address"
        }
      ],
      "name": "ERC721InvalidReceiver",
      "type": "error"
    },
    {
      "inputs": [
        {
          "internalType": "address",
          "name": "sender",
          "type": "address"
        }
      ],
      "name": "ERC721InvalidSender",
      "type": "error"
    },
    {
      "inputs": [
        {
          "internalType": "uint256",
          "name": "tokenId",
          "type": "uint256"
        }
      ],
      "name": "ERC721NonexistentToken",
      "type": "error"
    },
    {
      "inputs": [],
      "name": "EnforcedPause",
      "type": "error"
    },
    {
      "inputs": [],
      "name": "ExpectedPause",
      "type": "error"
    },
    {
      "inputs": [],
      "name": "InvalidInitialization",
      "type": "error"
    },
    {
      "inputs": [],
      "name": "InvalidReleasePercentage",
      "type": "error"
    },
    {
      "inputs": [],
      "name": "InvalidTotalPercentage",
      "type": "error"
    },
    {
      "inputs": [],
      "name": "InvalidVesting",
      "type": "error"
    },
    {
      "inputs": [],
      "name": "NoPermissionToRelease",
      "type": "error"
    },
    {
      "inputs": [],
      "name": "NoVestedTokensAvailable",
      "type": "error"
    },
    {
      "inputs": [],
      "name": "NoVestedTokensForRelease",
      "type": "error"
    },
    {
      "inputs": [
        {
          "internalType": "uint256",
          "name": "real",
          "type": "uint256"
        },
        {
          "internalType": "uint256",
          "name": "expected",
          "type": "uint256"
        }
      ],
      "name": "NotEnoughFund",
      "type": "error"
    },
    {
      "inputs": [],
      "name": "NotInitializing",
      "type": "error"
    },
    {
      "inputs": [],
      "name": "OverMaximumReleaseStep",
      "type": "error"
    },
    {
      "inputs": [],
      "name": "ReentrancyGuardReentrantCall",
      "type": "error"
    },
    {
      "inputs": [
        {
          "internalType": "uint256",
          "name": "value",
          "type": "uint256"
        },
        {
          "internalType": "uint256",
          "name": "length",
          "type": "uint256"
        }
      ],
      "name": "StringsInsufficientHexLength",
      "type": "error"
    },
    {
      "inputs": [
        {
          "internalType": "address",
          "name": "beneficiary",
          "type": "address"
        }
      ],
      "name": "VestingAlreadyStarted",
      "type": "error"
    },
    {
      "inputs": [],
      "name": "VestingNotStarted",
      "type": "error"
    },
    {
      "inputs": [],
      "name": "ZeroReleaseSchedule",
      "type": "error"
    },
    {
      "anonymous": false,
      "inputs": [
        {
          "indexed": true,
          "internalType": "address",
          "name": "owner",
          "type": "address"
        },
        {
          "indexed": true,
          "internalType": "address",
          "name": "approved",
          "type": "address"
        },
        {
          "indexed": true,
          "internalType": "uint256",
          "name": "tokenId",
          "type": "uint256"
        }
      ],
      "name": "Approval",
      "type": "event"
    },
    {
      "anonymous": false,
      "inputs": [
        {
          "indexed": true,
          "internalType": "address",
          "name": "owner",
          "type": "address"
        },
        {
          "indexed": true,
          "internalType": "address",
          "name": "operator",
          "type": "address"
        },
        {
          "indexed": false,
          "internalType": "bool",
          "name": "approved",
          "type": "bool"
        }
      ],
      "name": "ApprovalForAll",
      "type": "event"
    },
    {
      "anonymous": false,
      "inputs": [
        {
          "indexed": false,
          "internalType": "uint64",
          "name": "version",
          "type": "uint64"
        }
      ],
      "name": "Initialized",
      "type": "event"
    },
    {
      "anonymous": false,
      "inputs": [
        {
          "indexed": true,
          "internalType": "bytes32",
          "name": "orderId",
          "type": "bytes32"
        },
        {
          "indexed": false,
          "internalType": "uint256",
          "name": "tokenId",
          "type": "uint256"
        }
      ],
      "name": "NewVesting",
      "type": "event"
    },
    {
      "anonymous": false,
      "inputs": [
        {
          "indexed": false,
          "internalType": "address",
          "name": "account",
          "type": "address"
        }
      ],
      "name": "Paused",
      "type": "event"
    },
    {
      "anonymous": false,
      "inputs": [
        {
          "indexed": true,
          "internalType": "address",
          "name": "sender",
          "type": "address"
        },
        {
          "indexed": true,
          "internalType": "uint256",
          "name": "amount",
          "type": "uint256"
        }
      ],
      "name": "Received",
      "type": "event"
    },
    {
      "anonymous": false,
      "inputs": [
        {
          "indexed": true,
          "internalType": "address",
          "name": "beneficiary",
          "type": "address"
        },
        {
          "indexed": true,
          "internalType": "uint256",
          "name": "amount",
          "type": "uint256"
        }
      ],
      "name": "Released",
      "type": "event"
    },
    {
      "anonymous": false,
      "inputs": [
        {
          "indexed": true,
          "internalType": "bytes32",
          "name": "role",
          "type": "bytes32"
        },
        {
          "indexed": true,
          "internalType": "bytes32",
          "name": "previousAdminRole",
          "type": "bytes32"
        },
        {
          "indexed": true,
          "internalType": "bytes32",
          "name": "newAdminRole",
          "type": "bytes32"
        }
      ],
      "name": "RoleAdminChanged",
      "type": "event"
    },
    {
      "anonymous": false,
      "inputs": [
        {
          "indexed": true,
          "internalType": "bytes32",
          "name": "role",
          "type": "bytes32"
        },
        {
          "indexed": true,
          "internalType": "address",
          "name": "account",
          "type": "address"
        },
        {
          "indexed": true,
          "internalType": "address",
          "name": "sender",
          "type": "address"
        }
      ],
      "name": "RoleGranted",
      "type": "event"
    },
    {
      "anonymous": false,
      "inputs": [
        {
          "indexed": true,
          "internalType": "bytes32",
          "name": "role",
          "type": "bytes32"
        },
        {
          "indexed": true,
          "internalType": "address",
          "name": "account",
          "type": "address"
        },
        {
          "indexed": true,
          "internalType": "address",
          "name": "sender",
          "type": "address"
        }
      ],
      "name": "RoleRevoked",
      "type": "event"
    },
    {
      "anonymous": false,
      "inputs": [
        {
          "indexed": true,
          "internalType": "address",
          "name": "from",
          "type": "address"
        },
        {
          "indexed": true,
          "internalType": "address",
          "name": "to",
          "type": "address"
        },
        {
          "indexed": true,
          "internalType": "uint256",
          "name": "tokenId",
          "type": "uint256"
        }
      ],
      "name": "Transfer",
      "type": "event"
    },
    {
      "anonymous": false,
      "inputs": [
        {
          "indexed": false,
          "internalType": "address",
          "name": "account",
          "type": "address"
        }
      ],
      "name": "Unpaused",
      "type": "event"
    },
    {
      "inputs": [],
      "name": "DEFAULT_ADMIN_ROLE",
      "outputs": [
        {
          "internalType": "bytes32",
          "name": "",
          "type": "bytes32"
        }
      ],
      "stateMutability": "view",
      "type": "function"
    },
    {
      "inputs": [],
      "name": "PAUSER_ROLE",
      "outputs": [
        {
          "internalType": "bytes32",
          "name": "",
          "type": "bytes32"
        }
      ],
      "stateMutability": "view",
      "type": "function"
    },
    {
      "inputs": [
        {
          "internalType": "address",
          "name": "_account",
          "type": "address"
        }
      ],
      "name": "addAdmin",
      "outputs": [],
      "stateMutability": "nonpayable",
      "type": "function"
    },
    {
      "inputs": [
        {
          "internalType": "address",
          "name": "_account",
          "type": "address"
        }
      ],
      "name": "addPauser",
      "outputs": [],
      "stateMutability": "nonpayable",
      "type": "function"
    },
    {
      "inputs": [
        {
          "internalType": "address",
          "name": "to",
          "type": "address"
        },
        {
          "internalType": "uint256",
          "name": "tokenId",
          "type": "uint256"
        }
      ],
      "name": "approve",
      "outputs": [],
      "stateMutability": "nonpayable",
      "type": "function"
    },
    {
      "inputs": [
        {
          "internalType": "address",
          "name": "owner",
          "type": "address"
        }
      ],
      "name": "balanceOf",
      "outputs": [
        {
          "internalType": "uint256",
          "name": "",
          "type": "uint256"
        }
      ],
      "stateMutability": "view",
      "type": "function"
    },
    {
      "inputs": [
        {
          "internalType": "uint256",
          "name": "tokenId",
          "type": "uint256"
        }
      ],
      "name": "getApproved",
      "outputs": [
        {
          "internalType": "address",
          "name": "",
          "type": "address"
        }
      ],
      "stateMutability": "view",
      "type": "function"
    },
    {
      "inputs": [
        {
          "internalType": "bytes32",
          "name": "role",
          "type": "bytes32"
        }
      ],
      "name": "getRoleAdmin",
      "outputs": [
        {
          "internalType": "bytes32",
          "name": "",
          "type": "bytes32"
        }
      ],
      "stateMutability": "view",
      "type": "function"
    },
    {
      "inputs": [
        {
          "internalType": "bytes32",
          "name": "role",
          "type": "bytes32"
        },
        {
          "internalType": "address",
          "name": "account",
          "type": "address"
        }
      ],
      "name": "grantRole",
      "outputs": [],
      "stateMutability": "nonpayable",
      "type": "function"
    },
    {
      "inputs": [
        {
          "internalType": "bytes32",
          "name": "role",
          "type": "bytes32"
        },
        {
          "internalType": "address",
          "name": "account",
          "type": "address"
        }
      ],
      "name": "hasRole",
      "outputs": [
        {
          "internalType": "bool",
          "name": "",
          "type": "bool"
        }
      ],
      "stateMutability": "view",
      "type": "function"
    },
    {
      "inputs": [
        {
          "internalType": "address",
          "name": "admin",
          "type": "address"
        },
        {
          "internalType": "address",
          "name": "vault",
          "type": "address"
        },
        {
          "internalType": "string",
          "name": "name",
          "type": "string"
        },
        {
          "internalType": "string",
          "name": "symbol",
          "type": "string"
        },
        {
          "internalType": "string",
          "name": "baseURL",
          "type": "string"
        }
      ],
      "name": "initialize",
      "outputs": [],
      "stateMutability": "nonpayable",
      "type": "function"
    },
    {
      "inputs": [
        {
          "internalType": "address",
          "name": "_account",
          "type": "address"
        }
      ],
      "name": "isAdmin",
      "outputs": [
        {
          "internalType": "bool",
          "name": "",
          "type": "bool"
        }
      ],
      "stateMutability": "view",
      "type": "function"
    },
    {
      "inputs": [
        {
          "internalType": "address",
          "name": "owner",
          "type": "address"
        },
        {
          "internalType": "address",
          "name": "operator",
          "type": "address"
        }
      ],
      "name": "isApprovedForAll",
      "outputs": [
        {
          "internalType": "bool",
          "name": "",
          "type": "bool"
        }
      ],
      "stateMutability": "view",
      "type": "function"
    },
    {
      "inputs": [
        {
          "internalType": "address",
          "name": "_account",
          "type": "address"
        }
      ],
      "name": "isPauser",
      "outputs": [
        {
          "internalType": "bool",
          "name": "",
          "type": "bool"
        }
      ],
      "stateMutability": "view",
      "type": "function"
    },
    {
      "inputs": [],
      "name": "name",
      "outputs": [
        {
          "internalType": "string",
          "name": "",
          "type": "string"
        }
      ],
      "stateMutability": "view",
      "type": "function"
    },
    {
      "inputs": [
        {
          "internalType": "uint256",
          "name": "tokenId",
          "type": "uint256"
        }
      ],
      "name": "ownerOf",
      "outputs": [
        {
          "internalType": "address",
          "name": "",
          "type": "address"
        }
      ],
      "stateMutability": "view",
      "type": "function"
    },
    {
      "inputs": [],
      "name": "paginationSize",
      "outputs": [
        {
          "internalType": "uint256",
          "name": "",
          "type": "uint256"
        }
      ],
      "stateMutability": "view",
      "type": "function"
    },
    {
      "inputs": [],
      "name": "pause",
      "outputs": [],
      "stateMutability": "nonpayable",
      "type": "function"
    },
    {
      "inputs": [],
      "name": "paused",
      "outputs": [
        {
          "internalType": "bool",
          "name": "",
          "type": "bool"
        }
      ],
      "stateMutability": "view",
      "type": "function"
    },
    {
      "inputs": [
        {
          "internalType": "uint256",
          "name": "vestingId",
          "type": "uint256"
        }
      ],
      "name": "release",
      "outputs": [],
      "stateMutability": "nonpayable",
      "type": "function"
    },
    {
      "inputs": [
        {
          "internalType": "uint256",
          "name": "",
          "type": "uint256"
        },
        {
          "internalType": "uint256",
          "name": "",
          "type": "uint256"
        }
      ],
      "name": "releaseInfo",
      "outputs": [
        {
          "internalType": "uint256",
          "name": "durationInHours",
          "type": "uint256"
        },
        {
          "internalType": "uint256",
          "name": "percentage",
          "type": "uint256"
        }
      ],
      "stateMutability": "view",
      "type": "function"
    },
    {
      "inputs": [
        {
          "internalType": "address",
          "name": "_account",
          "type": "address"
        }
      ],
      "name": "removeAdmin",
      "outputs": [],
      "stateMutability": "nonpayable",
      "type": "function"
    },
    {
      "inputs": [
        {
          "internalType": "address",
          "name": "_account",
          "type": "address"
        }
      ],
      "name": "removePauser",
      "outputs": [],
      "stateMutability": "nonpayable",
      "type": "function"
    },
    {
      "inputs": [
        {
          "internalType": "bytes32",
          "name": "role",
          "type": "bytes32"
        },
        {
          "internalType": "address",
          "name": "callerConfirmation",
          "type": "address"
        }
      ],
      "name": "renounceRole",
      "outputs": [],
      "stateMutability": "nonpayable",
      "type": "function"
    },
    {
      "inputs": [
        {
          "internalType": "bytes32",
          "name": "role",
          "type": "bytes32"
        },
        {
          "internalType": "address",
          "name": "account",
          "type": "address"
        }
      ],
      "name": "revokeRole",
      "outputs": [],
      "stateMutability": "nonpayable",
      "type": "function"
    },
    {
      "inputs": [
        {
          "internalType": "address",
          "name": "from",
          "type": "address"
        },
        {
          "internalType": "address",
          "name": "to",
          "type": "address"
        },
        {
          "internalType": "uint256",
          "name": "tokenId",
          "type": "uint256"
        }
      ],
      "name": "safeTransferFrom",
      "outputs": [],
      "stateMutability": "nonpayable",
      "type": "function"
    },
    {
      "inputs": [
        {
          "internalType": "address",
          "name": "from",
          "type": "address"
        },
        {
          "internalType": "address",
          "name": "to",
          "type": "address"
        },
        {
          "internalType": "uint256",
          "name": "tokenId",
          "type": "uint256"
        },
        {
          "internalType": "bytes",
          "name": "data",
          "type": "bytes"
        }
      ],
      "name": "safeTransferFrom",
      "outputs": [],
      "stateMutability": "nonpayable",
      "type": "function"
    },
    {
      "inputs": [
        {
          "internalType": "address",
          "name": "operator",
          "type": "address"
        },
        {
          "internalType": "bool",
          "name": "approved",
          "type": "bool"
        }
      ],
      "name": "setApprovalForAll",
      "outputs": [],
      "stateMutability": "nonpayable",
      "type": "function"
    },
    {
      "inputs": [
        {
          "internalType": "uint256",
          "name": "_paginationSize",
          "type": "uint256"
        }
      ],
      "name": "setPaginationSize",
      "outputs": [],
      "stateMutability": "nonpayable",
      "type": "function"
    },
    {
      "inputs": [
        {
          "internalType": "bytes32",
          "name": "orderId",
          "type": "bytes32"
        },
        {
          "internalType": "address",
          "name": "buyer",
          "type": "address"
        },
        {
          "internalType": "address",
          "name": "token",
          "type": "address"
        },
        {
          "internalType": "uint256",
          "name": "totalAmount",
          "type": "uint256"
        },
        {
          "components": [
            {
              "internalType": "uint256",
              "name": "durationInHours",
              "type": "uint256"
            },
            {
              "internalType": "uint256",
              "name": "percentage",
              "type": "uint256"
            }
          ],
          "internalType": "struct IAtomicSwapBase.Release[]",
          "name": "releases",
          "type": "tuple[]"
        },
        {
          "internalType": "bool",
          "name": "isWithdraw",
          "type": "bool"
        }
      ],
      "name": "startVesting",
      "outputs": [],
      "stateMutability": "payable",
      "type": "function"
    },
    {
      "inputs": [
        {
          "internalType": "bytes4",
          "name": "interfaceId",
          "type": "bytes4"
        }
      ],
      "name": "supportsInterface",
      "outputs": [
        {
          "internalType": "bool",
          "name": "",
          "type": "bool"
        }
      ],
      "stateMutability": "view",
      "type": "function"
    },
    {
      "inputs": [],
      "name": "symbol",
      "outputs": [
        {
          "internalType": "string",
          "name": "",
          "type": "string"
        }
      ],
      "stateMutability": "view",
      "type": "function"
    },
    {
      "inputs": [
        {
          "internalType": "uint256",
          "name": "tokenId",
          "type": "uint256"
        }
      ],
      "name": "tokenURI",
      "outputs": [
        {
          "internalType": "string",
          "name": "",
          "type": "string"
        }
      ],
      "stateMutability": "view",
      "type": "function"
    },
    {
      "inputs": [
        {
          "internalType": "address",
          "name": "from",
          "type": "address"
        },
        {
          "internalType": "address",
          "name": "to",
          "type": "address"
        },
        {
          "internalType": "uint256",
          "name": "tokenId",
          "type": "uint256"
        }
      ],
      "name": "transferFrom",
      "outputs": [],
      "stateMutability": "nonpayable",
      "type": "function"
    },
    {
      "inputs": [],
      "name": "unpause",
      "outputs": [],
      "stateMutability": "nonpayable",
      "type": "function"
    },
    {
      "inputs": [
        {
          "internalType": "uint256",
          "name": "",
          "type": "uint256"
        }
      ],
      "name": "vesting",
      "outputs": [
        {
          "internalType": "address",
          "name": "from",
          "type": "address"
        },
        {
          "internalType": "uint256",
          "name": "start",
          "type": "uint256"
        },
        {
          "internalType": "address",
          "name": "token",
          "type": "address"
        },
        {
          "internalType": "uint256",
          "name": "totalAmount",
          "type": "uint256"
        },
        {
          "internalType": "uint256",
          "name": "amountReleased",
          "type": "uint256"
        },
        {
          "internalType": "uint256",
          "name": "nextReleaseStep",
          "type": "uint256"
        },
        {
          "internalType": "bool",
          "name": "isWithdraw",
          "type": "bool"
        }
      ],
      "stateMutability": "view",
      "type": "function"
    },
    {
      "inputs": [
        {
          "internalType": "bytes32",
          "name": "",
          "type": "bytes32"
        }
      ],
      "name": "vestingIds",
      "outputs": [
        {
          "internalType": "uint256",
          "name": "",
          "type": "uint256"
        }
      ],
      "stateMutability": "view",
      "type": "function"
    },
    {
      "stateMutability": "payable",
      "type": "receive"
    }
  ],
  "bytecode": "0x608060405234801561001057600080fd5b506156e580620000216000396000f3fe60806040526004361061021e5760003560e01c806346fbf68e1161012357806391d14854116100ab578063c87b56dd1161006f578063c87b56dd1461084a578063d547741f14610887578063e63ab1e9146108b0578063e985e9c5146108db578063f2407ca41461091857610269565b806391d148541461076557806395d89b41146107a2578063a217fddf146107cd578063a22cb465146107f8578063b88d4fde1461082157610269565b80636b2c0f55116100f25780636b2c0f551461069657806370480275146106bf57806370a08231146106e857806382dc1ec4146107255780638456cb591461074e57610269565b806346fbf68e146105b457806348f6e360146105f15780635c975abb1461062e5780636352211e1461065957610269565b80632f2ff15d116101a65780633bda01db116101755780633bda01db146104e25780633d538ecf146105205780633f2f5ee21461054b5780633f4ba83a1461057457806342842e0e1461058b57610269565b80632f2ff15d146104245780632ffac82c1461044d57806336568abe1461049057806337bdc99b146104b957610269565b80631785f53c116101ed5780631785f53c1461033c57806323b872dd14610365578063248a9ca31461038e57806324d7806c146103cb5780632622981d1461040857610269565b806301ffc9a71461026e57806306fdde03146102ab578063081812fc146102d6578063095ea7b31461031357610269565b3661026957343373ffffffffffffffffffffffffffffffffffffffff167f88a5966d370b9919b20f3e2c13ff65706f196a4e32cc2c12bf57088f8852587460405160405180910390a3005b600080fd5b34801561027a57600080fd5b50610295600480360381019061029091906140da565b610941565b6040516102a29190614122565b60405180910390f35b3480156102b757600080fd5b506102c0610953565b6040516102cd91906141cd565b60405180910390f35b3480156102e257600080fd5b506102fd60048036038101906102f89190614225565b6109f4565b60405161030a9190614293565b60405180910390f35b34801561031f57600080fd5b5061033a600480360381019061033591906142da565b610a10565b005b34801561034857600080fd5b50610363600480360381019061035e919061431a565b610a26565b005b34801561037157600080fd5b5061038c60048036038101906103879190614347565b610a36565b005b34801561039a57600080fd5b506103b560048036038101906103b091906143d0565b610b38565b6040516103c2919061440c565b60405180910390f35b3480156103d757600080fd5b506103f260048036038101906103ed919061431a565b610b66565b6040516103ff9190614122565b60405180910390f35b610422600480360381019061041d91906145f0565b610b7c565b005b34801561043057600080fd5b5061044b60048036038101906104469190614699565b610eba565b005b34801561045957600080fd5b50610474600480360381019061046f9190614225565b610edc565b60405161048797969594939291906146e8565b60405180910390f35b34801561049c57600080fd5b506104b760048036038101906104b29190614699565b610f6b565b005b3480156104c557600080fd5b506104e060048036038101906104db9190614225565b610fe6565b005b3480156104ee57600080fd5b5061050960048036038101906105049190614757565b61139c565b604051610517929190614797565b60405180910390f35b34801561052c57600080fd5b506105356113dd565b60405161054291906147c0565b60405180910390f35b34801561055757600080fd5b50610572600480360381019061056d9190614890565b6113e3565b005b34801561058057600080fd5b506105896115d9565b005b34801561059757600080fd5b506105b260048036038101906105ad9190614347565b61164c565b005b3480156105c057600080fd5b506105db60048036038101906105d6919061431a565b61166c565b6040516105e89190614122565b60405180910390f35b3480156105fd57600080fd5b50610618600480360381019061061391906143d0565b61169f565b60405161062591906147c0565b60405180910390f35b34801561063a57600080fd5b506106436116b7565b6040516106509190614122565b60405180910390f35b34801561066557600080fd5b50610680600480360381019061067b9190614225565b6116dc565b60405161068d9190614293565b60405180910390f35b3480156106a257600080fd5b506106bd60048036038101906106b8919061431a565b6116ee565b005b3480156106cb57600080fd5b506106e660048036038101906106e1919061431a565b61171b565b005b3480156106f457600080fd5b5061070f600480360381019061070a919061431a565b61172b565b60405161071c91906147c0565b60405180910390f35b34801561073157600080fd5b5061074c6004803603810190610747919061431a565b6117f4565b005b34801561075a57600080fd5b50610763611821565b005b34801561077157600080fd5b5061078c60048036038101906107879190614699565b611894565b6040516107999190614122565b60405180910390f35b3480156107ae57600080fd5b506107b761190d565b6040516107c491906141cd565b60405180910390f35b3480156107d957600080fd5b506107e26119ae565b6040516107ef919061440c565b60405180910390f35b34801561080457600080fd5b5061081f600480360381019061081a919061495f565b6119b5565b005b34801561082d57600080fd5b5061084860048036038101906108439190614a40565b6119cb565b005b34801561085657600080fd5b50610871600480360381019061086c9190614225565b6119e8565b60405161087e91906141cd565b60405180910390f35b34801561089357600080fd5b506108ae60048036038101906108a99190614699565b611a7b565b005b3480156108bc57600080fd5b506108c5611a9d565b6040516108d2919061440c565b60405180910390f35b3480156108e757600080fd5b5061090260048036038101906108fd9190614ac3565b611ac1565b60405161090f9190614122565b60405180910390f35b34801561092457600080fd5b5061093f600480360381019061093a9190614225565b611b63565b005b600061094c82611bfc565b9050919050565b6060600061095f611cde565b905080600001805461097090614b32565b80601f016020809104026020016040519081016040528092919081815260200182805461099c90614b32565b80156109e95780601f106109be576101008083540402835291602001916109e9565b820191906000526020600020905b8154815290600101906020018083116109cc57829003601f168201915b505050505091505090565b60006109ff82611d06565b50610a0982611d8e565b9050919050565b610a228282610a1d611dd9565b611de1565b5050565b610a336000801b82611a7b565b50565b600073ffffffffffffffffffffffffffffffffffffffff168273ffffffffffffffffffffffffffffffffffffffff1603610aa85760006040517f64a0ae92000000000000000000000000000000000000000000000000000000008152600401610a9f9190614293565b60405180910390fd5b6000610abc8383610ab7611dd9565b611df3565b90508373ffffffffffffffffffffffffffffffffffffffff168173ffffffffffffffffffffffffffffffffffffffff1614610b32578382826040517f64283d7b000000000000000000000000000000000000000000000000000000008152600401610b2993929190614b63565b60405180910390fd5b50505050565b600080610b43612020565b905080600001600084815260200190815260200160002060010154915050919050565b6000610b756000801b83611894565b9050919050565b610b84612048565b610b916000801b33611894565b610bd0576040517f08c379a0000000000000000000000000000000000000000000000000000000008152600401610bc790614be6565b60405180910390fd5b6000600460008881526020019081526020016000205414610c1d576040517f628dbb9600000000000000000000000000000000000000000000000000000000815260040160405180910390fd5b610c268261209f565b610c75848483600660009054906101000a900473ffffffffffffffffffffffffffffffffffffffff1673ffffffffffffffffffffffffffffffffffffffff166121e2909392919063ffffffff16565b60004290506000610c86878961228c565b905060006040518060e001604052803373ffffffffffffffffffffffffffffffffffffffff1681526020018481526020018873ffffffffffffffffffffffffffffffffffffffff16815260200187815260200160008152602001600081526020018515158152509050806002600084815260200190815260200160002060008201518160000160006101000a81548173ffffffffffffffffffffffffffffffffffffffff021916908373ffffffffffffffffffffffffffffffffffffffff1602179055506020820151816001015560408201518160020160006101000a81548173ffffffffffffffffffffffffffffffffffffffff021916908373ffffffffffffffffffffffffffffffffffffffff160217905550606082015181600301556080820151816004015560a0820151816005015560c08201518160060160006101000a81548160ff021916908315150217905550905050600060056000848152602001908152602001600020905060005b8651811015610e6d5781878281518110610e1357610e12614c06565b5b60200260200101519080600181540180825580915050600190039060005260206000209060020201600090919091909150600082015181600001556020820151816001015550508080610e6590614c64565b915050610df6565b50897f594f8f41d82fb10f72280441fa2e57d8a6eb22f177f4de984eb1d8469a1bd92c84604051610e9e91906147c0565b60405180910390a250505050610eb2612323565b505050505050565b610ec382610b38565b610ecc8161233c565b610ed68383612350565b50505050565b60026020528060005260406000206000915090508060000160009054906101000a900473ffffffffffffffffffffffffffffffffffffffff16908060010154908060020160009054906101000a900473ffffffffffffffffffffffffffffffffffffffff16908060030154908060040154908060050154908060060160009054906101000a900460ff16905087565b610f73611dd9565b73ffffffffffffffffffffffffffffffffffffffff168173ffffffffffffffffffffffffffffffffffffffff1614610fd7576040517f6697b23200000000000000000000000000000000000000000000000000000000815260040160405180910390fd5b610fe18282612451565b505050565b610fee612048565b610ff6612553565b3373ffffffffffffffffffffffffffffffffffffffff16611016826116dc565b73ffffffffffffffffffffffffffffffffffffffff1614611063576040517fa736e60f00000000000000000000000000000000000000000000000000000000815260040160405180910390fd5b600060026000838152602001908152602001600020905060006005600084815260200190815260200160002090506000818054905014806110ac57508080549050826005015410155b156110e3576040517f8bdb538100000000000000000000000000000000000000000000000000000000815260040160405180910390fd5b6000808360010154905060005b83805490508110156111ca57610e1084828154811061111257611111614c06565b5b90600052602060002090600202016000015461112e9190614cac565b826111399190614cee565b9150846005015481106111b7578142106111ca57600061271085838154811061116557611164614c06565b5b90600052602060002090600202016001015487600301546111869190614cac565b6111909190614d51565b9050808461119e9190614cee565b93506001826111ad9190614cee565b8660050181905550505b80806111c290614c64565b9150506110f0565b5060008211611205576040517f3507415000000000000000000000000000000000000000000000000000000000815260040160405180910390fd5b818460040160008282546112199190614cee565b925050819055508360060160009054906101000a900460ff1661128d57611288600660009054906101000a900473ffffffffffffffffffffffffffffffffffffffff168560020160009054906101000a900473ffffffffffffffffffffffffffffffffffffffff163385612594565b611349565b600073ffffffffffffffffffffffffffffffffffffffff168460020160009054906101000a900473ffffffffffffffffffffffffffffffffffffffff1673ffffffffffffffffffffffffffffffffffffffff1614611319576113148460020160009054906101000a900473ffffffffffffffffffffffffffffffffffffffff1633846126ec565b611324565b6113233383612822565b5b83600301548460040154036113485761133e333087610a36565b61134785612922565b5b5b813373ffffffffffffffffffffffffffffffffffffffff167fb21fb52d5749b80f3182f8c6992236b5e5576681880914484d7f4c9b062e619e60405160405180910390a350505050611399612323565b50565b600560205281600052604060002081815481106113b857600080fd5b9060005260206000209060020201600091509150508060000154908060010154905082565b60005481565b60006113ed6129a8565b905060008160000160089054906101000a900460ff1615905060008260000160009054906101000a900467ffffffffffffffff1690506000808267ffffffffffffffff1614801561143b5750825b9050600060018367ffffffffffffffff16148015611470575060003073ffffffffffffffffffffffffffffffffffffffff163b145b90508115801561147e575080155b156114b5576040517ff92ee8a900000000000000000000000000000000000000000000000000000000815260040160405180910390fd5b60018560000160006101000a81548167ffffffffffffffff021916908367ffffffffffffffff16021790555083156115055760018560000160086101000a81548160ff0219169083151502179055505b61150e8a6129d0565b6115188888612b7f565b85600190816115279190614f2e565b50600060038190555088600660006101000a81548173ffffffffffffffffffffffffffffffffffffffff021916908373ffffffffffffffffffffffffffffffffffffffff16021790555083156115cd5760008560000160086101000a81548160ff0219169083151502179055507fc7f505b2f371ae2175ee4913f4499e1f2633a7b5936321eed1cdaeb6115181d260016040516115c4919061504f565b60405180910390a15b50505050505050505050565b6116037f65d7a28e3265b37a6474929f336521b332c1681b933f6cb9f3376673440d862a33611894565b611642576040517f08c379a000000000000000000000000000000000000000000000000000000000815260040161163990614be6565b60405180910390fd5b61164a612b95565b565b611667838383604051806020016040528060008152506119cb565b505050565b60006116987f65d7a28e3265b37a6474929f336521b332c1681b933f6cb9f3376673440d862a83611894565b9050919050565b60046020528060005260406000206000915090505481565b6000806116c2612c07565b90508060000160009054906101000a900460ff1691505090565b60006116e782611d06565b9050919050565b6117187f65d7a28e3265b37a6474929f336521b332c1681b933f6cb9f3376673440d862a82611a7b565b50565b6117286000801b82610eba565b50565b600080611736611cde565b9050600073ffffffffffffffffffffffffffffffffffffffff168373ffffffffffffffffffffffffffffffffffffffff16036117aa5760006040517f89c62b640000000000000000000000000000000000000000000000000000000081526004016117a19190614293565b60405180910390fd5b8060030160008473ffffffffffffffffffffffffffffffffffffffff1673ffffffffffffffffffffffffffffffffffffffff16815260200190815260200160002054915050919050565b61181e7f65d7a28e3265b37a6474929f336521b332c1681b933f6cb9f3376673440d862a82610eba565b50565b61184b7f65d7a28e3265b37a6474929f336521b332c1681b933f6cb9f3376673440d862a33611894565b61188a576040517f08c379a000000000000000000000000000000000000000000000000000000000815260040161188190614be6565b60405180910390fd5b611892612c2f565b565b60008061189f612020565b905080600001600085815260200190815260200160002060000160008473ffffffffffffffffffffffffffffffffffffffff1673ffffffffffffffffffffffffffffffffffffffff16815260200190815260200160002060009054906101000a900460ff1691505092915050565b60606000611919611cde565b905080600101805461192a90614b32565b80601f016020809104026020016040519081016040528092919081815260200182805461195690614b32565b80156119a35780601f10611978576101008083540402835291602001916119a3565b820191906000526020600020905b81548152906001019060200180831161198657829003601f168201915b505050505091505090565b6000801b81565b6119c76119c0611dd9565b8383612ca1565b5050565b6119d6848484610a36565b6119e284848484612e1f565b50505050565b60606119f382611d06565b5060006119fe612fd6565b90506000815111611a1e5760405180602001604052806000815250611a73565b80611a2846613068565b611a473073ffffffffffffffffffffffffffffffffffffffff16613136565b611a5086613068565b604051602001611a6394939291906150f2565b6040516020818303038152906040525b915050919050565b611a8482610b38565b611a8d8161233c565b611a978383612451565b50505050565b7f65d7a28e3265b37a6474929f336521b332c1681b933f6cb9f3376673440d862a81565b600080611acc611cde565b90508060050160008573ffffffffffffffffffffffffffffffffffffffff1673ffffffffffffffffffffffffffffffffffffffff16815260200190815260200160002060008473ffffffffffffffffffffffffffffffffffffffff1673ffffffffffffffffffffffffffffffffffffffff16815260200190815260200160002060009054906101000a900460ff1691505092915050565b611b706000801b33611894565b611baf576040517f08c379a0000000000000000000000000000000000000000000000000000000008152600401611ba690614be6565b60405180910390fd5b60008111611bf2576040517f08c379a0000000000000000000000000000000000000000000000000000000008152600401611be990615192565b60405180910390fd5b8060008190555050565b60007f80ac58cd000000000000000000000000000000000000000000000000000000007bffffffffffffffffffffffffffffffffffffffffffffffffffffffff1916827bffffffffffffffffffffffffffffffffffffffffffffffffffffffff19161480611cc757507f5b5e139f000000000000000000000000000000000000000000000000000000007bffffffffffffffffffffffffffffffffffffffffffffffffffffffff1916827bffffffffffffffffffffffffffffffffffffffffffffffffffffffff1916145b80611cd75750611cd682613163565b5b9050919050565b60007f80bb2b638cc20bc4d0a60d66940f3ab4a00c1d7b313497ca82fb0b4ab0079300905090565b600080611d12836131dd565b9050600073ffffffffffffffffffffffffffffffffffffffff168173ffffffffffffffffffffffffffffffffffffffff1603611d8557826040517f7e273289000000000000000000000000000000000000000000000000000000008152600401611d7c91906147c0565b60405180910390fd5b80915050919050565b600080611d99611cde565b905080600401600084815260200190815260200160002060009054906101000a900473ffffffffffffffffffffffffffffffffffffffff16915050919050565b600033905090565b611dee8383836001613228565b505050565b600080611dfe611cde565b90506000611e0b856131dd565b9050600073ffffffffffffffffffffffffffffffffffffffff168473ffffffffffffffffffffffffffffffffffffffff1614611e4d57611e4c8185876133fc565b5b600073ffffffffffffffffffffffffffffffffffffffff168173ffffffffffffffffffffffffffffffffffffffff1614611ee057611e8f600086600080613228565b60018260030160008373ffffffffffffffffffffffffffffffffffffffff1673ffffffffffffffffffffffffffffffffffffffff168152602001908152602001600020600082825403925050819055505b600073ffffffffffffffffffffffffffffffffffffffff168673ffffffffffffffffffffffffffffffffffffffff1614611f655760018260030160008873ffffffffffffffffffffffffffffffffffffffff1673ffffffffffffffffffffffffffffffffffffffff168152602001908152602001600020600082825401925050819055505b8582600201600087815260200190815260200160002060006101000a81548173ffffffffffffffffffffffffffffffffffffffff021916908373ffffffffffffffffffffffffffffffffffffffff160217905550848673ffffffffffffffffffffffffffffffffffffffff168273ffffffffffffffffffffffffffffffffffffffff167fddf252ad1be2c89b69c2b068fc378daa952ba7f163c4a11628f55a4df523b3ef60405160405180910390a480925050509392505050565b60007f02dd7bc7dec4dceedda775e58dd541e08a116c6c53815c0bd028192f7b626800905090565b60006120526134c0565b90506002816000015403612092576040517f3ee5aeb500000000000000000000000000000000000000000000000000000000815260040160405180910390fd5b6002816000018190555050565b60008151036120da576040517ffd68e07a00000000000000000000000000000000000000000000000000000000815260040160405180910390fd5b6000805b82518110156121665760008382815181106120fc576120fb614c06565b5b602002602001015160200151905060008103612144576040517f2b82b70d00000000000000000000000000000000000000000000000000000000815260040160405180910390fd5b80836121509190614cee565b925050808061215e90614c64565b9150506120de565b5061271081146121a2576040517f0b8ad7f100000000000000000000000000000000000000000000000000000000815260040160405180910390fd5b6096825111156121de576040517f1531e37f00000000000000000000000000000000000000000000000000000000815260040160405180910390fd5b5050565b806121f9576121f484843330866134e8565b612286565b600073ffffffffffffffffffffffffffffffffffffffff168373ffffffffffffffffffffffffffffffffffffffff1603612278578134146122735781346040517f04157bb400000000000000000000000000000000000000000000000000000000815260040161226a929190614797565b60405180910390fd5b612285565b61228483333085613643565b5b5b50505050565b600061229b6000801b33611894565b6122da576040517f08c379a00000000000000000000000000000000000000000000000000000000081526004016122d190614be6565b60405180910390fd5b600360008154809291906122ed90614c64565b919050555060035460046000848152602001908152602001600020819055506123188360035461377c565b600354905092915050565b600061232d6134c0565b90506001816000018190555050565b61234d81612348611dd9565b613875565b50565b60008061235b612020565b90506123678484611894565b61244557600181600001600086815260200190815260200160002060000160008573ffffffffffffffffffffffffffffffffffffffff1673ffffffffffffffffffffffffffffffffffffffff16815260200190815260200160002060006101000a81548160ff0219169083151502179055506123e1611dd9565b73ffffffffffffffffffffffffffffffffffffffff168373ffffffffffffffffffffffffffffffffffffffff16857f2f8788117e7eff1d82e926ec794901d17c78024a50270940304540a733656f0d60405160405180910390a4600191505061244b565b60009150505b92915050565b60008061245c612020565b90506124688484611894565b1561254757600081600001600086815260200190815260200160002060000160008573ffffffffffffffffffffffffffffffffffffffff1673ffffffffffffffffffffffffffffffffffffffff16815260200190815260200160002060006101000a81548160ff0219169083151502179055506124e3611dd9565b73ffffffffffffffffffffffffffffffffffffffff168373ffffffffffffffffffffffffffffffffffffffff16857ff6391f5c32d9c69d2a47ea670b442974b53935d1edc7fd64eb21e047a839171b60405160405180910390a4600191505061254d565b60009150505b92915050565b61255b6116b7565b15612592576040517fd93c066500000000000000000000000000000000000000000000000000000000815260040160405180910390fd5b565b6000808573ffffffffffffffffffffffffffffffffffffffff1663beabacc860e01b8686866040516024016125cb939291906151b2565b604051602081830303815290604052907bffffffffffffffffffffffffffffffffffffffffffffffffffffffff19166020820180517bffffffffffffffffffffffffffffffffffffffffffffffffffffffff83818316178352505050506040516126359190615230565b6000604051808303816000865af19150503d8060008114612672576040519150601f19603f3d011682016040523d82523d6000602084013e612677565b606091505b50915091508180156126a557506000815114806126a45750808060200190518101906126a3919061525c565b5b5b6126e4576040517f08c379a00000000000000000000000000000000000000000000000000000000081526004016126db906152d5565b60405180910390fd5b505050505050565b6000808473ffffffffffffffffffffffffffffffffffffffff1663a9059cbb858560405160240161271e9291906152f5565b6040516020818303038152906040529060e01b6020820180517bffffffffffffffffffffffffffffffffffffffffffffffffffffffff838183161783525050505060405161276c9190615230565b6000604051808303816000865af19150503d80600081146127a9576040519150601f19603f3d011682016040523d82523d6000602084013e6127ae565b606091505b50915091508180156127dc57506000815114806127db5750808060200190518101906127da919061525c565b5b5b61281b576040517f08c379a000000000000000000000000000000000000000000000000000000000815260040161281290615390565b60405180910390fd5b5050505050565b60008273ffffffffffffffffffffffffffffffffffffffff1682600067ffffffffffffffff8111156128575761285661442c565b5b6040519080825280601f01601f1916602001820160405280156128895781602001600182028036833780820191505090505b506040516128979190615230565b60006040518083038185875af1925050503d80600081146128d4576040519150601f19603f3d011682016040523d82523d6000602084013e6128d9565b606091505b505090508061291d576040517f08c379a000000000000000000000000000000000000000000000000000000000815260040161291490615422565b60405180910390fd5b505050565b60006129316000836000611df3565b9050600073ffffffffffffffffffffffffffffffffffffffff168173ffffffffffffffffffffffffffffffffffffffff16036129a457816040517f7e27328900000000000000000000000000000000000000000000000000000000815260040161299b91906147c0565b60405180910390fd5b5050565b60007ff0c57e16840df040f15088dc2f81fe391c3923bec73e23a9662efc9c229c6a00905090565b60006129da6129a8565b905060008160000160089054906101000a900460ff1615905060008260000160009054906101000a900467ffffffffffffffff1690506000808267ffffffffffffffff16148015612a285750825b9050600060018367ffffffffffffffff16148015612a5d575060003073ffffffffffffffffffffffffffffffffffffffff163b145b905081158015612a6b575080155b15612aa2576040517ff92ee8a900000000000000000000000000000000000000000000000000000000815260040160405180910390fd5b60018560000160006101000a81548167ffffffffffffffff021916908367ffffffffffffffff1602179055508315612af25760018560000160086101000a81548160ff0219169083151502179055505b612afa6138c6565b612b026138d0565b612b0a6138da565b612b138661390e565b60646000819055508315612b775760008560000160086101000a81548160ff0219169083151502179055507fc7f505b2f371ae2175ee4913f4499e1f2633a7b5936321eed1cdaeb6115181d26001604051612b6e919061504f565b60405180910390a15b505050505050565b612b87613acd565b612b918282613b0d565b5050565b612b9d613b4a565b6000612ba7612c07565b905060008160000160006101000a81548160ff0219169083151502179055507f5db9ee0a495bf2e6ff9c91a7834c1ba4fdd244a5e8aa4e537bd38aeae4b073aa612bef611dd9565b604051612bfc9190614293565b60405180910390a150565b60007fcd5ed15c6e187e77e9aee88184c21f4f2182ab5827cb3b7e07fbedcd63f03300905090565b612c37612553565b6000612c41612c07565b905060018160000160006101000a81548160ff0219169083151502179055507f62e78cea01bee320cd4e420270b5ea74000d11b0c9f74754ebdbfc544b05a258612c89611dd9565b604051612c969190614293565b60405180910390a150565b6000612cab611cde565b9050600073ffffffffffffffffffffffffffffffffffffffff168373ffffffffffffffffffffffffffffffffffffffff1603612d1e57826040517f5b08ba18000000000000000000000000000000000000000000000000000000008152600401612d159190614293565b60405180910390fd5b818160050160008673ffffffffffffffffffffffffffffffffffffffff1673ffffffffffffffffffffffffffffffffffffffff16815260200190815260200160002060008573ffffffffffffffffffffffffffffffffffffffff1673ffffffffffffffffffffffffffffffffffffffff16815260200190815260200160002060006101000a81548160ff0219169083151502179055508273ffffffffffffffffffffffffffffffffffffffff168473ffffffffffffffffffffffffffffffffffffffff167f17307eab39ab6107e8899845ad3d59bd9653f200f220920489ca2b5937696c3184604051612e119190614122565b60405180910390a350505050565b60008373ffffffffffffffffffffffffffffffffffffffff163b1115612fd0578273ffffffffffffffffffffffffffffffffffffffff1663150b7a02612e63611dd9565b8685856040518563ffffffff1660e01b8152600401612e85949392919061548c565b6020604051808303816000875af1925050508015612ec157506040513d601f19601f82011682018060405250810190612ebe91906154ed565b60015b612f45573d8060008114612ef1576040519150601f19603f3d011682016040523d82523d6000602084013e612ef6565b606091505b506000815103612f3d57836040517f64a0ae92000000000000000000000000000000000000000000000000000000008152600401612f349190614293565b60405180910390fd5b805181602001fd5b63150b7a0260e01b7bffffffffffffffffffffffffffffffffffffffffffffffffffffffff1916817bffffffffffffffffffffffffffffffffffffffffffffffffffffffff191614612fce57836040517f64a0ae92000000000000000000000000000000000000000000000000000000008152600401612fc59190614293565b60405180910390fd5b505b50505050565b606060018054612fe590614b32565b80601f016020809104026020016040519081016040528092919081815260200182805461301190614b32565b801561305e5780601f106130335761010080835404028352916020019161305e565b820191906000526020600020905b81548152906001019060200180831161304157829003601f168201915b5050505050905090565b60606000600161307784613b8a565b01905060008167ffffffffffffffff8111156130965761309561442c565b5b6040519080825280601f01601f1916602001820160405280156130c85781602001600182028036833780820191505090505b509050600082602001820190505b60011561312b578080600190039150507f3031323334353637383961626364656600000000000000000000000000000000600a86061a8153600a858161311f5761311e614d22565b5b049450600085036130d6575b819350505050919050565b606061315c8273ffffffffffffffffffffffffffffffffffffffff16601460ff16613cdd565b9050919050565b60007f7965db0b000000000000000000000000000000000000000000000000000000007bffffffffffffffffffffffffffffffffffffffffffffffffffffffff1916827bffffffffffffffffffffffffffffffffffffffffffffffffffffffff191614806131d657506131d582613f23565b5b9050919050565b6000806131e8611cde565b905080600201600084815260200190815260200160002060009054906101000a900473ffffffffffffffffffffffffffffffffffffffff16915050919050565b6000613232611cde565b9050818061326d5750600073ffffffffffffffffffffffffffffffffffffffff168373ffffffffffffffffffffffffffffffffffffffff1614155b156133a157600061327d85611d06565b9050600073ffffffffffffffffffffffffffffffffffffffff168473ffffffffffffffffffffffffffffffffffffffff16141580156132e857508373ffffffffffffffffffffffffffffffffffffffff168173ffffffffffffffffffffffffffffffffffffffff1614155b80156132fb57506132f98185611ac1565b155b1561333d57836040517fa9fbf51f0000000000000000000000000000000000000000000000000000000081526004016133349190614293565b60405180910390fd5b821561339f57848673ffffffffffffffffffffffffffffffffffffffff168273ffffffffffffffffffffffffffffffffffffffff167f8c5be1e5ebec7d5bd14f71427d1e84f3dd0314c0f7b2291e5b200ac8c7c3b92560405160405180910390a45b505b8481600401600086815260200190815260200160002060006101000a81548173ffffffffffffffffffffffffffffffffffffffff021916908373ffffffffffffffffffffffffffffffffffffffff1602179055505050505050565b613407838383613f8d565b6134bb57600073ffffffffffffffffffffffffffffffffffffffff168373ffffffffffffffffffffffffffffffffffffffff160361347c57806040517f7e27328900000000000000000000000000000000000000000000000000000000815260040161347391906147c0565b60405180910390fd5b81816040517f177e802f0000000000000000000000000000000000000000000000000000000081526004016134b29291906152f5565b60405180910390fd5b505050565b60007f9b779b17422d0df92223018b32b4d1fa46e071723d6817e2486d003becc55f00905090565b6000808673ffffffffffffffffffffffffffffffffffffffff166315dacbea60e01b87878787604051602401613521949392919061551a565b604051602081830303815290604052907bffffffffffffffffffffffffffffffffffffffffffffffffffffffff19166020820180517bffffffffffffffffffffffffffffffffffffffffffffffffffffffff838183161783525050505060405161358b9190615230565b6000604051808303816000865af19150503d80600081146135c8576040519150601f19603f3d011682016040523d82523d6000602084013e6135cd565b606091505b50915091508180156135fb57506000815114806135fa5750808060200190518101906135f9919061525c565b5b5b61363a576040517f08c379a0000000000000000000000000000000000000000000000000000000008152600401613631906155ab565b60405180910390fd5b50505050505050565b6000808573ffffffffffffffffffffffffffffffffffffffff166323b872dd868686604051602401613677939291906151b2565b6040516020818303038152906040529060e01b6020820180517bffffffffffffffffffffffffffffffffffffffffffffffffffffffff83818316178352505050506040516136c59190615230565b6000604051808303816000865af19150503d8060008114613702576040519150601f19603f3d011682016040523d82523d6000602084013e613707565b606091505b50915091508180156137355750600081511480613734575080806020019051810190613733919061525c565b5b5b613774576040517f08c379a000000000000000000000000000000000000000000000000000000000815260040161376b9061563d565b60405180910390fd5b505050505050565b600073ffffffffffffffffffffffffffffffffffffffff168273ffffffffffffffffffffffffffffffffffffffff16036137ee5760006040517f64a0ae920000000000000000000000000000000000000000000000000000000081526004016137e59190614293565b60405180910390fd5b60006137fc83836000611df3565b9050600073ffffffffffffffffffffffffffffffffffffffff168173ffffffffffffffffffffffffffffffffffffffff16146138705760006040517f73c6ac6e0000000000000000000000000000000000000000000000000000000081526004016138679190614293565b60405180910390fd5b505050565b61387f8282611894565b6138c25780826040517fe2517d3f0000000000000000000000000000000000000000000000000000000081526004016138b992919061565d565b60405180910390fd5b5050565b6138ce613acd565b565b6138d8613acd565b565b6138e2613acd565b60006138ec612c07565b905060008160000160006101000a81548160ff02191690831515021790555050565b60006139186129a8565b905060008160000160089054906101000a900460ff1615905060008260000160009054906101000a900467ffffffffffffffff1690506000808267ffffffffffffffff161480156139665750825b9050600060018367ffffffffffffffff1614801561399b575060003073ffffffffffffffffffffffffffffffffffffffff163b145b9050811580156139a9575080155b156139e0576040517ff92ee8a900000000000000000000000000000000000000000000000000000000815260040160405180910390fd5b60018560000160006101000a81548167ffffffffffffffff021916908367ffffffffffffffff1602179055508315613a305760018560000160086101000a81548160ff0219169083151502179055505b613a3d6000801b87612350565b50613a687f65d7a28e3265b37a6474929f336521b332c1681b933f6cb9f3376673440d862a87612350565b508315613ac55760008560000160086101000a81548160ff0219169083151502179055507fc7f505b2f371ae2175ee4913f4499e1f2633a7b5936321eed1cdaeb6115181d26001604051613abc919061504f565b60405180910390a15b505050505050565b613ad561404e565b613b0b576040517fd7e6bcf800000000000000000000000000000000000000000000000000000000815260040160405180910390fd5b565b613b15613acd565b6000613b1f611cde565b905082816000019081613b329190614f2e565b5081816001019081613b449190614f2e565b50505050565b613b526116b7565b613b88576040517f8dfc202b00000000000000000000000000000000000000000000000000000000815260040160405180910390fd5b565b600080600090507a184f03e93ff9f4daa797ed6e38ed64bf6a1f0100000000000000008310613be8577a184f03e93ff9f4daa797ed6e38ed64bf6a1f0100000000000000008381613bde57613bdd614d22565b5b0492506040810190505b6d04ee2d6d415b85acef81000000008310613c25576d04ee2d6d415b85acef81000000008381613c1b57613c1a614d22565b5b0492506020810190505b662386f26fc100008310613c5457662386f26fc100008381613c4a57613c49614d22565b5b0492506010810190505b6305f5e1008310613c7d576305f5e1008381613c7357613c72614d22565b5b0492506008810190505b6127108310613ca2576127108381613c9857613c97614d22565b5b0492506004810190505b60648310613cc55760648381613cbb57613cba614d22565b5b0492506002810190505b600a8310613cd4576001810190505b80915050919050565b6060600083905060006002846002613cf59190614cac565b613cff9190614cee565b67ffffffffffffffff811115613d1857613d1761442c565b5b6040519080825280601f01601f191660200182016040528015613d4a5781602001600182028036833780820191505090505b5090507f300000000000000000000000000000000000000000000000000000000000000081600081518110613d8257613d81614c06565b5b60200101907effffffffffffffffffffffffffffffffffffffffffffffffffffffffffffff1916908160001a9053507f780000000000000000000000000000000000000000000000000000000000000081600181518110613de657613de5614c06565b5b60200101907effffffffffffffffffffffffffffffffffffffffffffffffffffffffffffff1916908160001a90535060006001856002613e269190614cac565b613e309190614cee565b90505b6001811115613ed0577f3031323334353637383961626364656600000000000000000000000000000000600f841660108110613e7257613e71614c06565b5b1a60f81b828281518110613e8957613e88614c06565b5b60200101907effffffffffffffffffffffffffffffffffffffffffffffffffffffffffffff1916908160001a905350600483901c925080613ec990615686565b9050613e33565b5060008214613f185784846040517fe22e27eb000000000000000000000000000000000000000000000000000000008152600401613f0f929190614797565b60405180910390fd5b809250505092915050565b60007f01ffc9a7000000000000000000000000000000000000000000000000000000007bffffffffffffffffffffffffffffffffffffffffffffffffffffffff1916827bffffffffffffffffffffffffffffffffffffffffffffffffffffffff1916149050919050565b60008073ffffffffffffffffffffffffffffffffffffffff168373ffffffffffffffffffffffffffffffffffffffff161415801561404557508273ffffffffffffffffffffffffffffffffffffffff168473ffffffffffffffffffffffffffffffffffffffff16148061400657506140058484611ac1565b5b8061404457508273ffffffffffffffffffffffffffffffffffffffff1661402c83611d8e565b73ffffffffffffffffffffffffffffffffffffffff16145b5b90509392505050565b60006140586129a8565b60000160089054906101000a900460ff16905090565b6000604051905090565b600080fd5b600080fd5b60007fffffffff0000000000000000000000000000000000000000000000000000000082169050919050565b6140b781614082565b81146140c257600080fd5b50565b6000813590506140d4816140ae565b92915050565b6000602082840312156140f0576140ef614078565b5b60006140fe848285016140c5565b91505092915050565b60008115159050919050565b61411c81614107565b82525050565b60006020820190506141376000830184614113565b92915050565b600081519050919050565b600082825260208201905092915050565b60005b8381101561417757808201518184015260208101905061415c565b60008484015250505050565b6000601f19601f8301169050919050565b600061419f8261413d565b6141a98185614148565b93506141b9818560208601614159565b6141c281614183565b840191505092915050565b600060208201905081810360008301526141e78184614194565b905092915050565b6000819050919050565b614202816141ef565b811461420d57600080fd5b50565b60008135905061421f816141f9565b92915050565b60006020828403121561423b5761423a614078565b5b600061424984828501614210565b91505092915050565b600073ffffffffffffffffffffffffffffffffffffffff82169050919050565b600061427d82614252565b9050919050565b61428d81614272565b82525050565b60006020820190506142a86000830184614284565b92915050565b6142b781614272565b81146142c257600080fd5b50565b6000813590506142d4816142ae565b92915050565b600080604083850312156142f1576142f0614078565b5b60006142ff858286016142c5565b925050602061431085828601614210565b9150509250929050565b6000602082840312156143305761432f614078565b5b600061433e848285016142c5565b91505092915050565b6000806000606084860312156143605761435f614078565b5b600061436e868287016142c5565b935050602061437f868287016142c5565b925050604061439086828701614210565b9150509250925092565b6000819050919050565b6143ad8161439a565b81146143b857600080fd5b50565b6000813590506143ca816143a4565b92915050565b6000602082840312156143e6576143e5614078565b5b60006143f4848285016143bb565b91505092915050565b6144068161439a565b82525050565b600060208201905061442160008301846143fd565b92915050565b600080fd5b7f4e487b7100000000000000000000000000000000000000000000000000000000600052604160045260246000fd5b61446482614183565b810181811067ffffffffffffffff821117156144835761448261442c565b5b80604052505050565b600061449661406e565b90506144a2828261445b565b919050565b600067ffffffffffffffff8211156144c2576144c161442c565b5b602082029050602081019050919050565b600080fd5b600080fd5b6000604082840312156144f3576144f26144d8565b5b6144fd604061448c565b9050600061450d84828501614210565b600083015250602061452184828501614210565b60208301525092915050565b600061454061453b846144a7565b61448c565b90508083825260208201905060408402830185811115614563576145626144d3565b5b835b8181101561458c578061457888826144dd565b845260208401935050604081019050614565565b5050509392505050565b600082601f8301126145ab576145aa614427565b5b81356145bb84826020860161452d565b91505092915050565b6145cd81614107565b81146145d857600080fd5b50565b6000813590506145ea816145c4565b92915050565b60008060008060008060c0878903121561460d5761460c614078565b5b600061461b89828a016143bb565b965050602061462c89828a016142c5565b955050604061463d89828a016142c5565b945050606061464e89828a01614210565b935050608087013567ffffffffffffffff81111561466f5761466e61407d565b5b61467b89828a01614596565b92505060a061468c89828a016145db565b9150509295509295509295565b600080604083850312156146b0576146af614078565b5b60006146be858286016143bb565b92505060206146cf858286016142c5565b9150509250929050565b6146e2816141ef565b82525050565b600060e0820190506146fd600083018a614284565b61470a60208301896146d9565b6147176040830188614284565b61472460608301876146d9565b61473160808301866146d9565b61473e60a08301856146d9565b61474b60c0830184614113565b98975050505050505050565b6000806040838503121561476e5761476d614078565b5b600061477c85828601614210565b925050602061478d85828601614210565b9150509250929050565b60006040820190506147ac60008301856146d9565b6147b960208301846146d9565b9392505050565b60006020820190506147d560008301846146d9565b92915050565b600080fd5b600067ffffffffffffffff8211156147fb576147fa61442c565b5b61480482614183565b9050602081019050919050565b82818337600083830152505050565b600061483361482e846147e0565b61448c565b90508281526020810184848401111561484f5761484e6147db565b5b61485a848285614811565b509392505050565b600082601f83011261487757614876614427565b5b8135614887848260208601614820565b91505092915050565b600080600080600060a086880312156148ac576148ab614078565b5b60006148ba888289016142c5565b95505060206148cb888289016142c5565b945050604086013567ffffffffffffffff8111156148ec576148eb61407d565b5b6148f888828901614862565b935050606086013567ffffffffffffffff8111156149195761491861407d565b5b61492588828901614862565b925050608086013567ffffffffffffffff8111156149465761494561407d565b5b61495288828901614862565b9150509295509295909350565b6000806040838503121561497657614975614078565b5b6000614984858286016142c5565b9250506020614995858286016145db565b9150509250929050565b600067ffffffffffffffff8211156149ba576149b961442c565b5b6149c382614183565b9050602081019050919050565b60006149e36149de8461499f565b61448c565b9050828152602081018484840111156149ff576149fe6147db565b5b614a0a848285614811565b509392505050565b600082601f830112614a2757614a26614427565b5b8135614a378482602086016149d0565b91505092915050565b60008060008060808587031215614a5a57614a59614078565b5b6000614a68878288016142c5565b9450506020614a79878288016142c5565b9350506040614a8a87828801614210565b925050606085013567ffffffffffffffff811115614aab57614aaa61407d565b5b614ab787828801614a12565b91505092959194509250565b60008060408385031215614ada57614ad9614078565b5b6000614ae8858286016142c5565b9250506020614af9858286016142c5565b9150509250929050565b7f4e487b7100000000000000000000000000000000000000000000000000000000600052602260045260246000fd5b60006002820490506001821680614b4a57607f821691505b602082108103614b5d57614b5c614b03565b5b50919050565b6000606082019050614b786000830186614284565b614b8560208301856146d9565b614b926040830184614284565b949350505050565b7f4f776e61626c655061757361626c653a206163636573732064656e6965640000600082015250565b6000614bd0601e83614148565b9150614bdb82614b9a565b602082019050919050565b60006020820190508181036000830152614bff81614bc3565b9050919050565b7f4e487b7100000000000000000000000000000000000000000000000000000000600052603260045260246000fd5b7f4e487b7100000000000000000000000000000000000000000000000000000000600052601160045260246000fd5b6000614c6f826141ef565b91507fffffffffffffffffffffffffffffffffffffffffffffffffffffffffffffffff8203614ca157614ca0614c35565b5b600182019050919050565b6000614cb7826141ef565b9150614cc2836141ef565b9250828202614cd0816141ef565b91508282048414831517614ce757614ce6614c35565b5b5092915050565b6000614cf9826141ef565b9150614d04836141ef565b9250828201905080821115614d1c57614d1b614c35565b5b92915050565b7f4e487b7100000000000000000000000000000000000000000000000000000000600052601260045260246000fd5b6000614d5c826141ef565b9150614d67836141ef565b925082614d7757614d76614d22565b5b828204905092915050565b60008190508160005260206000209050919050565b60006020601f8301049050919050565b600082821b905092915050565b600060088302614de47fffffffffffffffffffffffffffffffffffffffffffffffffffffffffffffffff82614da7565b614dee8683614da7565b95508019841693508086168417925050509392505050565b6000819050919050565b6000614e2b614e26614e21846141ef565b614e06565b6141ef565b9050919050565b6000819050919050565b614e4583614e10565b614e59614e5182614e32565b848454614db4565b825550505050565b600090565b614e6e614e61565b614e79818484614e3c565b505050565b5b81811015614e9d57614e92600082614e66565b600181019050614e7f565b5050565b601f821115614ee257614eb381614d82565b614ebc84614d97565b81016020851015614ecb578190505b614edf614ed785614d97565b830182614e7e565b50505b505050565b600082821c905092915050565b6000614f0560001984600802614ee7565b1980831691505092915050565b6000614f1e8383614ef4565b9150826002028217905092915050565b614f378261413d565b67ffffffffffffffff811115614f5057614f4f61442c565b5b614f5a8254614b32565b614f65828285614ea1565b600060209050601f831160018114614f985760008415614f86578287015190505b614f908582614f12565b865550614ff8565b601f198416614fa686614d82565b60005b82811015614fce57848901518255600182019150602085019450602081019050614fa9565b86831015614feb5784890151614fe7601f891682614ef4565b8355505b6001600288020188555050505b505050505050565b6000819050919050565b600067ffffffffffffffff82169050919050565b600061503961503461502f84615000565b614e06565b61500a565b9050919050565b6150498161501e565b82525050565b60006020820190506150646000830184615040565b92915050565b600081905092915050565b60006150808261413d565b61508a818561506a565b935061509a818560208601614159565b80840191505092915050565b7f2f00000000000000000000000000000000000000000000000000000000000000600082015250565b60006150dc60018361506a565b91506150e7826150a6565b600182019050919050565b60006150fe8287615075565b915061510a8286615075565b9150615115826150cf565b91506151218285615075565b915061512c826150cf565b91506151388284615075565b915081905095945050505050565b7f4d6f726967696e4170703a20696e76616c69642076616c756521000000000000600082015250565b600061517c601a83614148565b915061518782615146565b602082019050919050565b600060208201905081810360008301526151ab8161516f565b9050919050565b60006060820190506151c76000830186614284565b6151d46020830185614284565b6151e160408301846146d9565b949350505050565b600081519050919050565b600081905092915050565b600061520a826151e9565b61521481856151f4565b9350615224818560208601614159565b80840191505092915050565b600061523c82846151ff565b915081905092915050565b600081519050615256816145c4565b92915050565b60006020828403121561527257615271614078565b5b600061528084828501615247565b91505092915050565b7f5354000000000000000000000000000000000000000000000000000000000000600082015250565b60006152bf600283614148565b91506152ca82615289565b602082019050919050565b600060208201905081810360008301526152ee816152b2565b9050919050565b600060408201905061530a6000830185614284565b61531760208301846146d9565b9392505050565b7f5472616e7366657248656c7065723a3a736166655472616e736665723a20747260008201527f616e73666572206661696c656400000000000000000000000000000000000000602082015250565b600061537a602d83614148565b91506153858261531e565b604082019050919050565b600060208201905081810360008301526153a98161536d565b9050919050565b7f5472616e7366657248656c7065723a3a736166655472616e736665724554483a60008201527f20455448207472616e73666572206661696c6564000000000000000000000000602082015250565b600061540c603483614148565b9150615417826153b0565b604082019050919050565b6000602082019050818103600083015261543b816153ff565b9050919050565b600082825260208201905092915050565b600061545e826151e9565b6154688185615442565b9350615478818560208601614159565b61548181614183565b840191505092915050565b60006080820190506154a16000830187614284565b6154ae6020830186614284565b6154bb60408301856146d9565b81810360608301526154cd8184615453565b905095945050505050565b6000815190506154e7816140ae565b92915050565b60006020828403121561550357615502614078565b5b6000615511848285016154d8565b91505092915050565b600060808201905061552f6000830187614284565b61553c6020830186614284565b6155496040830185614284565b61555660608301846146d9565b95945050505050565b7f5354460000000000000000000000000000000000000000000000000000000000600082015250565b6000615595600383614148565b91506155a08261555f565b602082019050919050565b600060208201905081810360008301526155c481615588565b9050919050565b7f5472616e7366657248656c7065723a3a7472616e7366657246726f6d3a20747260008201527f616e7366657246726f6d206661696c6564000000000000000000000000000000602082015250565b6000615627603183614148565b9150615632826155cb565b604082019050919050565b600060208201905081810360008301526156568161561a565b9050919050565b60006040820190506156726000830185614284565b61567f60208301846143fd565b9392505050565b6000615691826141ef565b9150600082036156a4576156a3614c35565b5b60018203905091905056fea2646970667358221220d750fbff5735b90f4af25976e0be14f47a4d04efef67db8d4771e1e4356ff28264736f6c63430008140033",
  "linkReferences": {},
  "deployedLinkReferences": {}
}