{
  "_format": "hh-sol-artifact-1",
  "contractName": "Vesting",
  "sourceName": "contracts/vesting/Vesting.sol",
  "abi": [
    {
      "inputs": [],
      "name": "InvalidInitialization",
      "type": "error"
    },
    {
      "inputs": [],
      "name": "InvalidTotalPercentage",
      "type": "error"
    },
    {
      "inputs": [],
      "name": "InvalidVesting",
      "type": "error"
    },
    {
      "inputs": [],
      "name": "NoVestedTokensAvailable",
      "type": "error"
    },
    {
      "inputs": [],
      "name": "NoVestedTokensForRelease",
      "type": "error"
    },
    {
      "inputs": [
        {
          "internalType": "uint256",
          "name": "amount",
          "type": "uint256"
        },
        {
          "internalType": "uint256",
          "name": "allowance",
          "type": "uint256"
        }
      ],
      "name": "NotAllowedTransferAmount",
      "type": "error"
    },
    {
      "inputs": [
        {
          "internalType": "uint256",
          "name": "real",
          "type": "uint256"
        },
        {
          "internalType": "uint256",
          "name": "expected",
          "type": "uint256"
        }
      ],
      "name": "NotEnoughFund",
      "type": "error"
    },
    {
      "inputs": [],
      "name": "NotInitializing",
      "type": "error"
    },
    {
      "inputs": [],
      "name": "OverMaximumReleaseStep",
      "type": "error"
    },
    {
      "inputs": [
        {
          "internalType": "address",
          "name": "owner",
          "type": "address"
        }
      ],
      "name": "OwnableInvalidOwner",
      "type": "error"
    },
    {
      "inputs": [
        {
          "internalType": "address",
          "name": "account",
          "type": "address"
        }
      ],
      "name": "OwnableUnauthorizedAccount",
      "type": "error"
    },
    {
      "inputs": [],
      "name": "ReentrancyGuardReentrantCall",
      "type": "error"
    },
    {
      "inputs": [
        {
          "internalType": "address",
          "name": "to",
          "type": "address"
        },
        {
          "internalType": "uint256",
          "name": "amount",
          "type": "uint256"
        }
      ],
      "name": "TransferFailed",
      "type": "error"
    },
    {
      "inputs": [
        {
          "internalType": "address",
          "name": "from",
          "type": "address"
        },
        {
          "internalType": "address",
          "name": "to",
          "type": "address"
        },
        {
          "internalType": "uint256",
          "name": "amount",
          "type": "uint256"
        }
      ],
      "name": "TransferFromFailed",
      "type": "error"
    },
    {
      "inputs": [
        {
          "internalType": "address",
          "name": "recipient",
          "type": "address"
        },
        {
          "internalType": "uint256",
          "name": "amount",
          "type": "uint256"
        }
      ],
      "name": "TransferToRecipientFailed",
      "type": "error"
    },
    {
      "inputs": [
        {
          "internalType": "address",
          "name": "beneficiary",
          "type": "address"
        }
      ],
      "name": "VestingAlreadyStarted",
      "type": "error"
    },
    {
      "inputs": [],
      "name": "VestingNotStarted",
      "type": "error"
    },
    {
      "anonymous": false,
      "inputs": [
        {
          "indexed": false,
          "internalType": "uint64",
          "name": "version",
          "type": "uint64"
        }
      ],
      "name": "Initialized",
      "type": "event"
    },
    {
      "anonymous": false,
      "inputs": [
        {
          "components": [
            {
              "components": [
                {
                  "internalType": "address",
                  "name": "from",
                  "type": "address"
                },
                {
                  "internalType": "uint256",
                  "name": "start",
                  "type": "uint256"
                },
                {
                  "internalType": "address",
                  "name": "token",
                  "type": "address"
                },
                {
                  "internalType": "uint256",
                  "name": "totalAmount",
                  "type": "uint256"
                },
                {
                  "internalType": "uint256",
                  "name": "amountReleased",
                  "type": "uint256"
                },
                {
                  "internalType": "uint256",
                  "name": "lastReleasedStep",
                  "type": "uint256"
                }
              ],
              "internalType": "struct IVesting.VestingSchedule",
              "name": "schedule",
              "type": "tuple"
            },
            {
              "components": [
                {
                  "internalType": "uint256",
                  "name": "durationInHours",
                  "type": "uint256"
                },
                {
                  "internalType": "uint256",
                  "name": "percentage",
                  "type": "uint256"
                }
              ],
              "internalType": "struct IAtomicSwapBase.Release[]",
              "name": "release",
              "type": "tuple[]"
            },
            {
              "internalType": "address",
              "name": "beneficiary",
              "type": "address"
            },
            {
              "internalType": "bytes32",
              "name": "orderId",
              "type": "bytes32"
            }
          ],
          "indexed": true,
          "internalType": "struct IVesting.VestingInfo",
          "name": "vesting",
          "type": "tuple"
        }
      ],
      "name": "NewVesting",
      "type": "event"
    },
    {
      "anonymous": false,
      "inputs": [
        {
          "indexed": true,
          "internalType": "address",
          "name": "previousOwner",
          "type": "address"
        },
        {
          "indexed": true,
          "internalType": "address",
          "name": "newOwner",
          "type": "address"
        }
      ],
      "name": "OwnershipTransferred",
      "type": "event"
    },
    {
      "anonymous": false,
      "inputs": [
        {
          "indexed": true,
          "internalType": "address",
          "name": "sender",
          "type": "address"
        },
        {
          "indexed": true,
          "internalType": "uint256",
          "name": "amount",
          "type": "uint256"
        }
      ],
      "name": "Received",
      "type": "event"
    },
    {
      "anonymous": false,
      "inputs": [
        {
          "indexed": true,
          "internalType": "address",
          "name": "beneficiary",
          "type": "address"
        },
        {
          "indexed": true,
          "internalType": "uint256",
          "name": "amount",
          "type": "uint256"
        }
      ],
      "name": "Released",
      "type": "event"
    },
    {
      "inputs": [
        {
          "internalType": "address",
          "name": "_admin",
          "type": "address"
        }
      ],
      "name": "initialize",
      "outputs": [],
      "stateMutability": "nonpayable",
      "type": "function"
    },
    {
      "inputs": [],
      "name": "owner",
      "outputs": [
        {
          "internalType": "address",
          "name": "",
          "type": "address"
        }
      ],
      "stateMutability": "view",
      "type": "function"
    },
    {
      "inputs": [
        {
          "internalType": "address",
          "name": "beneficiary",
          "type": "address"
        },
        {
          "internalType": "bytes32",
          "name": "orderId",
          "type": "bytes32"
        }
      ],
      "name": "release",
      "outputs": [],
      "stateMutability": "nonpayable",
      "type": "function"
    },
    {
      "inputs": [
        {
          "internalType": "address",
          "name": "",
          "type": "address"
        },
        {
          "internalType": "bytes32",
          "name": "",
          "type": "bytes32"
        },
        {
          "internalType": "uint256",
          "name": "",
          "type": "uint256"
        }
      ],
      "name": "releaseInfos",
      "outputs": [
        {
          "internalType": "uint256",
          "name": "durationInHours",
          "type": "uint256"
        },
        {
          "internalType": "uint256",
          "name": "percentage",
          "type": "uint256"
        }
      ],
      "stateMutability": "view",
      "type": "function"
    },
    {
      "inputs": [],
      "name": "renounceOwnership",
      "outputs": [],
      "stateMutability": "nonpayable",
      "type": "function"
    },
    {
      "inputs": [
        {
          "internalType": "bytes32",
          "name": "orderId",
          "type": "bytes32"
        },
        {
          "internalType": "address",
          "name": "beneficiary",
          "type": "address"
        },
        {
          "internalType": "address",
          "name": "token",
          "type": "address"
        },
        {
          "internalType": "uint256",
          "name": "totalAmount",
          "type": "uint256"
        },
        {
          "components": [
            {
              "internalType": "uint256",
              "name": "durationInHours",
              "type": "uint256"
            },
            {
              "internalType": "uint256",
              "name": "percentage",
              "type": "uint256"
            }
          ],
          "internalType": "struct IAtomicSwapBase.Release[]",
          "name": "releases",
          "type": "tuple[]"
        }
      ],
      "name": "startVesting",
      "outputs": [],
      "stateMutability": "payable",
      "type": "function"
    },
    {
      "inputs": [
        {
          "internalType": "address",
          "name": "newOwner",
          "type": "address"
        }
      ],
      "name": "transferOwnership",
      "outputs": [],
      "stateMutability": "nonpayable",
      "type": "function"
    },
    {
      "inputs": [
        {
          "internalType": "address",
          "name": "",
          "type": "address"
        },
        {
          "internalType": "bytes32",
          "name": "",
          "type": "bytes32"
        }
      ],
      "name": "vestingSchedules",
      "outputs": [
        {
          "internalType": "address",
          "name": "from",
          "type": "address"
        },
        {
          "internalType": "uint256",
          "name": "start",
          "type": "uint256"
        },
        {
          "internalType": "address",
          "name": "token",
          "type": "address"
        },
        {
          "internalType": "uint256",
          "name": "totalAmount",
          "type": "uint256"
        },
        {
          "internalType": "uint256",
          "name": "amountReleased",
          "type": "uint256"
        },
        {
          "internalType": "uint256",
          "name": "lastReleasedStep",
          "type": "uint256"
        }
      ],
      "stateMutability": "view",
      "type": "function"
    },
    {
      "stateMutability": "payable",
      "type": "receive"
    }
  ],
  "bytecode": "0x608060405234801561001057600080fd5b5061273b806100206000396000f3fe60806040526004361061007f5760003560e01c80638da5cb5b1161004e5780638da5cb5b14610196578063c4d66de8146101c1578063d7c2eec7146101ea578063f2fde38b14610213576100de565b8063715018a6146100e35780637623f00e146100fa5780637b00ffad1461011657806382a969e214610158576100de565b366100de5761009867626c14372c802ee660c01b61023c565b343373ffffffffffffffffffffffffffffffffffffffff167f88a5966d370b9919b20f3e2c13ff65706f196a4e32cc2c12bf57088f8852587460405160405180910390a3005b600080fd5b3480156100ef57600080fd5b506100f861023f565b005b610114600480360381019061010f9190611f2b565b610253565b005b34801561012257600080fd5b5061013d60048036038101906101389190611fc2565b6107b2565b60405161014f96959493929190612020565b60405180910390f35b34801561016457600080fd5b5061017f600480360381019061017a9190612081565b61083b565b60405161018d9291906120d4565b60405180910390f35b3480156101a257600080fd5b506101ab610889565b6040516101b891906120fd565b60405180910390f35b3480156101cd57600080fd5b506101e860048036038101906101e39190612118565b6108c1565b005b3480156101f657600080fd5b50610211600480360381019061020c9190611fc2565b610ab4565b005b34801561021f57600080fd5b5061023a60048036038101906102359190612118565b611354565b005b50565b6102476113da565b6102516000611461565b565b6102676764ce3547672f6b1f60c01b61023c565b61027b679d116e679729d01b60c01b61023c565b61028f6712e7a7f6e75a572b60c01b61023c565b600073ffffffffffffffffffffffffffffffffffffffff168373ffffffffffffffffffffffffffffffffffffffff1603610386576102d767174c9874765ed83860c01b61023c565b6102eb67060b00d450914fa760c01b61023c565b6102ff677fda6ed3d313f4f260c01b61023c565b81341461036d5761031a6708763aa591c5eee260c01b61023c565b61032e67cc6579f9796c65de60c01b61023c565b81346040517f04157bb40000000000000000000000000000000000000000000000000000000081526004016103649291906120d4565b60405180910390fd5b6103816726e2114294ca7ecc60c01b61023c565b6103f0565b61039a670d88a9f3e610ceed60c01b61023c565b6103ae67967701fce9a67fbf60c01b61023c565b6103c267d6a2bd0705e6a7cf60c01b61023c565b6103ef3330848673ffffffffffffffffffffffffffffffffffffffff16611538909392919063ffffffff16565b5b610404670a9af94e0e65fff360c01b61023c565b61041867ba653c1fb773c14160c01b61023c565b600042905061043167563cdfdf96bcb9e760c01b61023c565b61044567626ef6009750a13b60c01b61023c565b60006040518060c001604052803373ffffffffffffffffffffffffffffffffffffffff1681526020018381526020018673ffffffffffffffffffffffffffffffffffffffff16815260200185815260200160008152602001600081525090506104b867edf4fd815ba70d5d60c01b61023c565b806000808873ffffffffffffffffffffffffffffffffffffffff1673ffffffffffffffffffffffffffffffffffffffff168152602001908152602001600020600089815260200190815260200160002060008201518160000160006101000a81548173ffffffffffffffffffffffffffffffffffffffff021916908373ffffffffffffffffffffffffffffffffffffffff1602179055506020820151816001015560408201518160020160006101000a81548173ffffffffffffffffffffffffffffffffffffffff021916908373ffffffffffffffffffffffffffffffffffffffff160217905550606082015181600301556080820151816004015560a082015181600501559050506105d5673ce50746b132e6cd60c01b61023c565b6105e967191037c42923ca8160c01b61023c565b6000600160008873ffffffffffffffffffffffffffffffffffffffff1673ffffffffffffffffffffffffffffffffffffffff16815260200190815260200160002060008981526020019081526020016000209050610651676c409758cf0567c160c01b61023c565b610665671de87474d515cd4760c01b61023c565b60005b84518110156107075761068567cf9561ac1e8a354260c01b61023c565b610699674f9a2e46351ae1fc60c01b61023c565b818582815181106106ad576106ac612145565b5b602002602001015190806001815401808255809150506001900390600052602060002090600202016000909190919091506000820151816000015560208201518160010155505080806106ff906121a3565b915050610668565b5061071c674f6deb350bd0620460c01b61023c565b61073067d8fbe129f0398d1360c01b61023c565b60405180608001604052808381526020018581526020018873ffffffffffffffffffffffffffffffffffffffff16815260200189815250604051610774919061242e565b60405180910390207fb16abbea6ba3704f5f2a80a6e86817bd96545258a4bbe645becfc85ab722675260405160405180910390a25050505050505050565b6000602052816000526040600020602052806000526040600020600091509150508060000160009054906101000a900473ffffffffffffffffffffffffffffffffffffffff16908060010154908060020160009054906101000a900473ffffffffffffffffffffffffffffffffffffffff16908060030154908060040154908060050154905086565b6001602052826000526040600020602052816000526040600020818154811061086357600080fd5b906000526020600020906002020160009250925050508060000154908060010154905082565b60008061089461194f565b90508060000160009054906101000a900473ffffffffffffffffffffffffffffffffffffffff1691505090565b6108d56746dc4b68608d920d60c01b61023c565b60006108df611977565b905060008160000160089054906101000a900460ff1615905060008260000160009054906101000a900467ffffffffffffffff1690506000808267ffffffffffffffff1614801561092d5750825b9050600060018367ffffffffffffffff16148015610962575060003073ffffffffffffffffffffffffffffffffffffffff163b145b905081158015610970575080155b156109a7576040517ff92ee8a900000000000000000000000000000000000000000000000000000000815260040160405180910390fd5b60018560000160006101000a81548167ffffffffffffffff021916908367ffffffffffffffff16021790555083156109f75760018560000160086101000a81548160ff0219169083151502179055505b610a0b67076485d4d9c34b8260c01b61023c565b610a1f6784a310f45c070b0060c01b61023c565b610a3367690e9f74bdd95f0b60c01b61023c565b610a476721f15a17e18744c560c01b61023c565b610a508661199f565b8315610aac5760008560000160086101000a81548160ff0219169083151502179055507fc7f505b2f371ae2175ee4913f4499e1f2633a7b5936321eed1cdaeb6115181d26001604051610aa3919061249e565b60405180910390a15b505050505050565b610ac867c2ad1f8a748d091c60c01b61023c565b610ad0611a25565b610ae4676e9cded4ec78c91460c01b61023c565b610af8678d212f793f1446f560c01b61023c565b610b0c67b2a33b4eabcedf7660c01b61023c565b610b2067a5ab2c257dc3722960c01b61023c565b60008060008473ffffffffffffffffffffffffffffffffffffffff1673ffffffffffffffffffffffffffffffffffffffff16815260200190815260200160002060008381526020019081526020016000209050610b8767fa0318ec2d14460760c01b61023c565b610b9b6790c605381bf3787260c01b61023c565b6000600160008573ffffffffffffffffffffffffffffffffffffffff1673ffffffffffffffffffffffffffffffffffffffff16815260200190815260200160002060008481526020019081526020016000209050610c0367d4d233e2ddc3506460c01b61023c565b610c1767d7dfbf9bc845b7c660c01b61023c565b8160010154421015610c7d57610c3767d8050d480ca583fc60c01b61023c565b610c4b6766cb256f53dc550a60c01b61023c565b6040517f35549be800000000000000000000000000000000000000000000000000000000815260040160405180910390fd5b610c91675b6faf1ecbd04b2d60c01b61023c565b610ca5674190c232e5f4857a60c01b61023c565b610cb967656bd59471f39a0a60c01b61023c565b60008180549050148015610cdd5750610cdc67197dc519081d346960c01b611a7c565b5b80610d0c57508080549050826005015410158015610d0b5750610d0a67d9d591f25317779b60c01b611a7c565b5b5b15610d6b57610d256732ae366d8dcfbbca60c01b61023c565b610d3967b8d84165513d37b160c01b61023c565b6040517f8bdb538100000000000000000000000000000000000000000000000000000000815260040160405180910390fd5b610d7f671b4c099900fcc18c60c01b61023c565b610d936798279d5ba7c606da60c01b61023c565b610da767713082e1c6f5a7b060c01b61023c565b6000610dbd67ac28a9ade5cec69360c01b61023c565b610dd167baaa4fc732ce9b5360c01b61023c565b600083600101549050610dee6744638803f9ee2bcf60c01b61023c565b610e0267dc2a203cf63a5eac60c01b61023c565b6000846005015490505b8380549050811015610fa857610e2c67a0ccb692683e52aa60c01b61023c565b610e10848281548110610e4257610e41612145565b5b906000526020600020906002020160000154610e5e91906124b9565b82610e6991906124fb565b9150610e7f6751789acee37d71c360c01b61023c565b610e936705848bcd45c9ca6760c01b61023c565b81421015610ec857610eaf6720426a53772b012360c01b61023c565b610ec36705e5658b8ffab72160c01b61023c565b610fa8565b610edc67a808fe4aa1277e8a60c01b61023c565b610ef06750b80b22e691662760c01b61023c565b610f0467b3ab70738d9307cf60c01b61023c565b6000612710858381548110610f1c57610f1b612145565b5b9060005260206000209060020201600101548760030154610f3d91906124b9565b610f47919061255e565b9050610f5d67d5b4d623607a0b0860c01b61023c565b8084610f6991906124fb565b9350610f7f67943e5da236990e1060c01b61023c565b600182610f8c91906124fb565b8660050181905550508080610fa0906121a3565b915050610e0c565b50610fbd673c07df66f2bb5e4a60c01b61023c565b610fd1677494c9e3f399ea5960c01b61023c565b6000821161103357610fed67f8bd6bf00a04551160c01b61023c565b61100167f892925af9cd822860c01b61023c565b6040517f3507415000000000000000000000000000000000000000000000000000000000815260040160405180910390fd5b61104767c43072b3aaee685260c01b61023c565b61105b67051d4a041eeca15e60c01b61023c565b8184600401600082825461106f91906124fb565b9250508190555061108a677c892e5c80bc7d1d60c01b61023c565b61109e67b37e8466b07d884060c01b61023c565b600073ffffffffffffffffffffffffffffffffffffffff168460020160009054906101000a900473ffffffffffffffffffffffffffffffffffffffff1673ffffffffffffffffffffffffffffffffffffffff16146111865761110a67b8ea0ea9edba6a0460c01b61023c565b61111e6729556080f295801160c01b61023c565b61113267de94bb7392a3616060c01b61023c565b61118186838660020160009054906101000a900473ffffffffffffffffffffffffffffffffffffffff1673ffffffffffffffffffffffffffffffffffffffff16611a879092919063ffffffff16565b6112d8565b61119a67bd3f480f97e2c88160c01b61023c565b6111ae67e3eb6e909bdaa8d960c01b61023c565b6111c26710889d049e78a6ae60c01b61023c565b60008673ffffffffffffffffffffffffffffffffffffffff16836040516111e8906125c0565b60006040518083038185875af1925050503d8060008114611225576040519150601f19603f3d011682016040523d82523d6000602084013e61122a565b606091505b5050905061124267db1f75804fe1608760c01b61023c565b61125667eb2a03d2e885c84b60c01b61023c565b806112c25761126f678a2b25401adc715860c01b61023c565b611283675187465849efe27a60c01b61023c565b86836040517fbcaf58d00000000000000000000000000000000000000000000000000000000081526004016112b99291906125d5565b60405180910390fd5b6112d667abffdfb58e93328560c01b61023c565b505b6112ec67b9a938d5d99cf12860c01b61023c565b611300671704aaea6cfa94b560c01b61023c565b818673ffffffffffffffffffffffffffffffffffffffff167fb21fb52d5749b80f3182f8c6992236b5e5576681880914484d7f4c9b062e619e60405160405180910390a350505050611350611bf3565b5050565b61135c6113da565b600073ffffffffffffffffffffffffffffffffffffffff168173ffffffffffffffffffffffffffffffffffffffff16036113ce5760006040517f1e4fbdf70000000000000000000000000000000000000000000000000000000081526004016113c591906120fd565b60405180910390fd5b6113d781611461565b50565b6113e2611c0c565b73ffffffffffffffffffffffffffffffffffffffff16611400610889565b73ffffffffffffffffffffffffffffffffffffffff161461145f57611423611c0c565b6040517f118cdaa700000000000000000000000000000000000000000000000000000000815260040161145691906120fd565b60405180910390fd5b565b600061146b61194f565b905060008160000160009054906101000a900473ffffffffffffffffffffffffffffffffffffffff169050828260000160006101000a81548173ffffffffffffffffffffffffffffffffffffffff021916908373ffffffffffffffffffffffffffffffffffffffff1602179055508273ffffffffffffffffffffffffffffffffffffffff168173ffffffffffffffffffffffffffffffffffffffff167f8be0079c531659141344cd1fd0a4f28419497f9722a3daafe3b4186f6b6457e060405160405180910390a3505050565b61154c67d5bb11b40b8d85de60c01b611c14565b61156067e0c2ee17bb22d96c60c01b611c14565b611574676de994029db56a8160c01b611c14565b600084905061158d670260d199604f632360c01b611c14565b6115a167ff7443fc8f01649f60c01b611c14565b60008173ffffffffffffffffffffffffffffffffffffffff1663dd62ed3e86306040518363ffffffff1660e01b81526004016115de9291906125fe565b602060405180830381865afa1580156115fb573d6000803e3d6000fd5b505050506040513d601f19601f8201168201806040525081019061161f919061263c565b9050611635670eb73587eab1b39260c01b611c14565b611649670fe23579011748ec60c01b611c14565b828110156116b85761166567b8c562dbe1562d6260c01b611c14565b611679675483ff18762645e360c01b611c14565b80836040517f7c8db62f0000000000000000000000000000000000000000000000000000000081526004016116af9291906120d4565b60405180910390fd5b6116cc675e9099c83112ec5e60c01b611c14565b6116e06780b579eda42621de60c01b611c14565b6116f467f0be8341f779e4c560c01b611c14565b60008273ffffffffffffffffffffffffffffffffffffffff166370a08231876040518263ffffffff1660e01b815260040161172f91906120fd565b602060405180830381865afa15801561174c573d6000803e3d6000fd5b505050506040513d601f19601f82011682018060405250810190611770919061263c565b905061178667165099529f52e6aa60c01b611c14565b61179a6733dddeae6f26392460c01b611c14565b83811015611809576117b6675a4fd416a36b0ea960c01b611c14565b6117ca67b4190ea1c3f3fb8c60c01b611c14565b80846040517f04157bb40000000000000000000000000000000000000000000000000000000081526004016118009291906120d4565b60405180910390fd5b61181d67294d4201cb443c2b60c01b611c14565b611831672001196c2885b22a60c01b611c14565b611845677ea5c946caf682e860c01b611c14565b8273ffffffffffffffffffffffffffffffffffffffff166323b872dd8787876040518463ffffffff1660e01b815260040161188293929190612669565b6020604051808303816000875af11580156118a1573d6000803e3d6000fd5b505050506040513d601f19601f820116820180604052508101906118c591906126d8565b611932576118dd6794bddaae641e02da60c01b611c14565b6118f167fbf0ce16b7f9d5b860c01b611c14565b8585856040517fca7f5f0e00000000000000000000000000000000000000000000000000000000815260040161192993929190612669565b60405180910390fd5b611946679935c26a8ebc4c5960c01b611c14565b50505050505050565b60007f9016d09d72d40fdae2fd8ceac6b6234c7706214fd39c1cd1e609a0528c199300905090565b60007ff0c57e16840df040f15088dc2f81fe391c3923bec73e23a9662efc9c229c6a00905090565b6119a7611c17565b600073ffffffffffffffffffffffffffffffffffffffff168173ffffffffffffffffffffffffffffffffffffffff1603611a195760006040517f1e4fbdf7000000000000000000000000000000000000000000000000000000008152600401611a1091906120fd565b60405180910390fd5b611a2281611461565b50565b6000611a2f611c57565b90506002816000015403611a6f576040517f3ee5aeb500000000000000000000000000000000000000000000000000000000815260040160405180910390fd5b6002816000018190555050565b600060019050919050565b611a9b67acef6ba5cb7b0da460c01b611c14565b611aaf67547f2e2c49b2d62060c01b611c14565b611ac36740f0d2ae8d2efd0860c01b611c14565b6000839050611adc67617c27e05e4586ad60c01b611c14565b611af0679382a20c72ca1b2b60c01b611c14565b8073ffffffffffffffffffffffffffffffffffffffff1663a9059cbb84846040518363ffffffff1660e01b8152600401611b2b9291906125d5565b6020604051808303816000875af1158015611b4a573d6000803e3d6000fd5b505050506040513d601f19601f82011682018060405250810190611b6e91906126d8565b611bd957611b86673ab56001dc249f5860c01b611c14565b611b9a673cbbc04e9c19dc4260c01b611c14565b82826040517f1c43b976000000000000000000000000000000000000000000000000000000008152600401611bd09291906125d5565b60405180910390fd5b611bed67fda467ec834b964f60c01b611c14565b50505050565b6000611bfd611c57565b90506001816000018190555050565b600033905090565b50565b611c1f611c7f565b611c55576040517fd7e6bcf800000000000000000000000000000000000000000000000000000000815260040160405180910390fd5b565b60007f9b779b17422d0df92223018b32b4d1fa46e071723d6817e2486d003becc55f00905090565b6000611c89611977565b60000160089054906101000a900460ff16905090565b6000604051905090565b600080fd5b600080fd5b6000819050919050565b611cc681611cb3565b8114611cd157600080fd5b50565b600081359050611ce381611cbd565b92915050565b600073ffffffffffffffffffffffffffffffffffffffff82169050919050565b6000611d1482611ce9565b9050919050565b611d2481611d09565b8114611d2f57600080fd5b50565b600081359050611d4181611d1b565b92915050565b6000819050919050565b611d5a81611d47565b8114611d6557600080fd5b50565b600081359050611d7781611d51565b92915050565b600080fd5b6000601f19601f8301169050919050565b7f4e487b7100000000000000000000000000000000000000000000000000000000600052604160045260246000fd5b611dcb82611d82565b810181811067ffffffffffffffff82111715611dea57611de9611d93565b5b80604052505050565b6000611dfd611c9f565b9050611e098282611dc2565b919050565b600067ffffffffffffffff821115611e2957611e28611d93565b5b602082029050602081019050919050565b600080fd5b600080fd5b600060408284031215611e5a57611e59611e3f565b5b611e646040611df3565b90506000611e7484828501611d68565b6000830152506020611e8884828501611d68565b60208301525092915050565b6000611ea7611ea284611e0e565b611df3565b90508083825260208201905060408402830185811115611eca57611ec9611e3a565b5b835b81811015611ef35780611edf8882611e44565b845260208401935050604081019050611ecc565b5050509392505050565b600082601f830112611f1257611f11611d7d565b5b8135611f22848260208601611e94565b91505092915050565b600080600080600060a08688031215611f4757611f46611ca9565b5b6000611f5588828901611cd4565b9550506020611f6688828901611d32565b9450506040611f7788828901611d32565b9350506060611f8888828901611d68565b925050608086013567ffffffffffffffff811115611fa957611fa8611cae565b5b611fb588828901611efd565b9150509295509295909350565b60008060408385031215611fd957611fd8611ca9565b5b6000611fe785828601611d32565b9250506020611ff885828601611cd4565b9150509250929050565b61200b81611d09565b82525050565b61201a81611d47565b82525050565b600060c0820190506120356000830189612002565b6120426020830188612011565b61204f6040830187612002565b61205c6060830186612011565b6120696080830185612011565b61207660a0830184612011565b979650505050505050565b60008060006060848603121561209a57612099611ca9565b5b60006120a886828701611d32565b93505060206120b986828701611cd4565b92505060406120ca86828701611d68565b9150509250925092565b60006040820190506120e96000830185612011565b6120f66020830184612011565b9392505050565b60006020820190506121126000830184612002565b92915050565b60006020828403121561212e5761212d611ca9565b5b600061213c84828501611d32565b91505092915050565b7f4e487b7100000000000000000000000000000000000000000000000000000000600052603260045260246000fd5b7f4e487b7100000000000000000000000000000000000000000000000000000000600052601160045260246000fd5b60006121ae82611d47565b91507fffffffffffffffffffffffffffffffffffffffffffffffffffffffffffffffff82036121e0576121df612174565b5b600182019050919050565b6121f481611d09565b82525050565b600061220683836121eb565b60208301905092915050565b61221b81611d47565b82525050565b600061222d8383612212565b60208301905092915050565b60008201600082015161224c84826121fa565b935050602082015161225e8482612221565b935050604082015161227084826121fa565b93505060608201516122828482612221565b93505060808201516122948482612221565b93505060a08201516122a68482612221565b935050505050565b60006122ba8383612239565b60c08301905092915050565b600081519050919050565b600081905092915050565b6000819050602082019050919050565b6000820160008201516122ff8482612221565b93505060208201516123118482612221565b935050505050565b600061232583836122ec565b60408301905092915050565b6000602082019050919050565b6000612349826122c6565b61235381856122d1565b935061235e836122dc565b8060005b8381101561238f5781516123768882612319565b975061238183612331565b925050600181019050612362565b5085935050505092915050565b60006123a8838361233e565b905092915050565b6123b981611cb3565b82525050565b60006123cb83836123b0565b60208301905092915050565b600080830160008301516123eb85826122ae565b94505060208301516123fd858261239c565b945050604083015161240f85826121fa565b945050606083015161242185826123bf565b9450508391505092915050565b600061243a82846123d7565b915081905092915050565b6000819050919050565b600067ffffffffffffffff82169050919050565b6000819050919050565b600061248861248361247e84612445565b612463565b61244f565b9050919050565b6124988161246d565b82525050565b60006020820190506124b3600083018461248f565b92915050565b60006124c482611d47565b91506124cf83611d47565b92508282026124dd81611d47565b915082820484148315176124f4576124f3612174565b5b5092915050565b600061250682611d47565b915061251183611d47565b925082820190508082111561252957612528612174565b5b92915050565b7f4e487b7100000000000000000000000000000000000000000000000000000000600052601260045260246000fd5b600061256982611d47565b915061257483611d47565b9250826125845761258361252f565b5b828204905092915050565b600081905092915050565b50565b60006125aa60008361258f565b91506125b58261259a565b600082019050919050565b60006125cb8261259d565b9150819050919050565b60006040820190506125ea6000830185612002565b6125f76020830184612011565b9392505050565b60006040820190506126136000830185612002565b6126206020830184612002565b9392505050565b60008151905061263681611d51565b92915050565b60006020828403121561265257612651611ca9565b5b600061266084828501612627565b91505092915050565b600060608201905061267e6000830186612002565b61268b6020830185612002565b6126986040830184612011565b949350505050565b60008115159050919050565b6126b5816126a0565b81146126c057600080fd5b50565b6000815190506126d2816126ac565b92915050565b6000602082840312156126ee576126ed611ca9565b5b60006126fc848285016126c3565b9150509291505056fea26469706673582212207bc7185fb7f0fee2b5e0e23205f3afa3c0a152c0c714cf400cb416a7b9e8eac064736f6c63430008140033",
  "linkReferences": {},
  "deployedLinkReferences": {}
}