{"abi":[{"type":"receive","stateMutability":"payable"},{"type":"function","name":"DEFAULT_ADMIN_ROLE","inputs":[],"outputs":[{"name":"","type":"bytes32","internalType":"bytes32"}],"stateMutability":"view"},{"type":"function","name":"PAUSER_ROLE","inputs":[],"outputs":[{"name":"","type":"bytes32","internalType":"bytes32"}],"stateMutability":"view"},{"type":"function","name":"addAdmin","inputs":[{"name":"_account","type":"address","internalType":"address"}],"outputs":[],"stateMutability":"nonpayable"},{"type":"function","name":"addPauser","inputs":[{"name":"_account","type":"address","internalType":"address"}],"outputs":[],"stateMutability":"nonpayable"},{"type":"function","name":"buyerFeeRate","inputs":[],"outputs":[{"name":"","type":"uint256","internalType":"uint256"}],"stateMutability":"view"},{"type":"function","name":"executeSwapWithPermit","inputs":[{"name":"swap","type":"tuple","internalType":"struct IAtomicSwapBase.SwapWithPermitMsg","components":[{"name":"uuid","type":"bytes32","internalType":"bytes32"},{"name":"sellToken","type":"tuple","internalType":"struct IAtomicSwapBase.Coin","components":[{"name":"token","type":"address","internalType":"address"},{"name":"amount","type":"uint256","internalType":"uint256"}]},{"name":"buyToken","type":"tuple","internalType":"struct IAtomicSwapBase.Coin","components":[{"name":"token","type":"address","internalType":"address"},{"name":"amount","type":"uint256","internalType":"uint256"}]},{"name":"desiredTaker","type":"address","internalType":"address"},{"name":"minBidAmount","type":"uint256","internalType":"uint256"},{"name":"acceptBid","type":"bool","internalType":"bool"},{"name":"withdrawToSellerAccount","type":"bool","internalType":"bool"},{"name":"withdrawToBuyerAccount","type":"bool","internalType":"bool"},{"name":"sellerSignature","type":"tuple","internalType":"struct IAtomicSwapBase.PermitSignature","components":[{"name":"v","type":"uint8","internalType":"uint8"},{"name":"r","type":"bytes32","internalType":"bytes32"},{"name":"s","type":"bytes32","internalType":"bytes32"},{"name":"owner","type":"address","internalType":"address"},{"name":"deadline","type":"uint256","internalType":"uint256"}]},{"name":"buyerSignature","type":"tuple","internalType":"struct IAtomicSwapBase.PermitSignature","components":[{"name":"v","type":"uint8","internalType":"uint8"},{"name":"r","type":"bytes32","internalType":"bytes32"},{"name":"s","type":"bytes32","internalType":"bytes32"},{"name":"owner","type":"address","internalType":"address"},{"name":"deadline","type":"uint256","internalType":"uint256"}]}]},{"name":"releases","type":"tuple[]","internalType":"struct IAtomicSwapBase.Release[]","components":[{"name":"durationInHours","type":"uint256","internalType":"uint256"},{"name":"percentage","type":"uint256","internalType":"uint256"}]}],"outputs":[],"stateMutability":"nonpayable"},{"type":"function","name":"getRoleAdmin","inputs":[{"name":"role","type":"bytes32","internalType":"bytes32"}],"outputs":[{"name":"","type":"bytes32","internalType":"bytes32"}],"stateMutability":"view"},{"type":"function","name":"grantRole","inputs":[{"name":"role","type":"bytes32","internalType":"bytes32"},{"name":"account","type":"address","internalType":"address"}],"outputs":[],"stateMutability":"nonpayable"},{"type":"function","name":"hasRole","inputs":[{"name":"role","type":"bytes32","internalType":"bytes32"},{"name":"account","type":"address","internalType":"address"}],"outputs":[{"name":"","type":"bool","internalType":"bool"}],"stateMutability":"view"},{"type":"function","name":"initialize","inputs":[{"name":"_admin","type":"address","internalType":"address"},{"name":"_vault","type":"address","internalType":"address"},{"name":"_vestingManager","type":"address","internalType":"address"},{"name":"_treasury","type":"address","internalType":"address"},{"name":"_sellerFee","type":"uint256","internalType":"uint256"},{"name":"_buyerFee","type":"uint256","internalType":"uint256"}],"outputs":[],"stateMutability":"nonpayable"},{"type":"function","name":"isAdmin","inputs":[{"name":"_account","type":"address","internalType":"address"}],"outputs":[{"name":"","type":"bool","internalType":"bool"}],"stateMutability":"view"},{"type":"function","name":"isPauser","inputs":[{"name":"_account","type":"address","internalType":"address"}],"outputs":[{"name":"","type":"bool","internalType":"bool"}],"stateMutability":"view"},{"type":"function","name":"paginationSize","inputs":[],"outputs":[{"name":"","type":"uint256","internalType":"uint256"}],"stateMutability":"view"},{"type":"function","name":"pause","inputs":[],"outputs":[],"stateMutability":"nonpayable"},{"type":"function","name":"paused","inputs":[],"outputs":[{"name":"","type":"bool","internalType":"bool"}],"stateMutability":"view"},{"type":"function","name":"removeAdmin","inputs":[{"name":"_account","type":"address","internalType":"address"}],"outputs":[],"stateMutability":"nonpayable"},{"type":"function","name":"removePauser","inputs":[{"name":"_account","type":"address","internalType":"address"}],"outputs":[],"stateMutability":"nonpayable"},{"type":"function","name":"renounceRole","inputs":[{"name":"role","type":"bytes32","internalType":"bytes32"},{"name":"callerConfirmation","type":"address","internalType":"address"}],"outputs":[],"stateMutability":"nonpayable"},{"type":"function","name":"revokeRole","inputs":[{"name":"role","type":"bytes32","internalType":"bytes32"},{"name":"account","type":"address","internalType":"address"}],"outputs":[],"stateMutability":"nonpayable"},{"type":"function","name":"sellerFeeRate","inputs":[],"outputs":[{"name":"","type":"uint256","internalType":"uint256"}],"stateMutability":"view"},{"type":"function","name":"setPaginationSize","inputs":[{"name":"_paginationSize","type":"uint256","internalType":"uint256"}],"outputs":[],"stateMutability":"nonpayable"},{"type":"function","name":"supportsInterface","inputs":[{"name":"interfaceId","type":"bytes4","internalType":"bytes4"}],"outputs":[{"name":"","type":"bool","internalType":"bool"}],"stateMutability":"view"},{"type":"function","name":"swapOrder","inputs":[{"name":"","type":"bytes32","internalType":"bytes32"}],"outputs":[{"name":"id","type":"bytes32","internalType":"bytes32"},{"name":"status","type":"uint8","internalType":"enum IAtomicSwapBase.OrderStatus"},{"name":"maker","type":"address","internalType":"address"},{"name":"sellToken","type":"tuple","internalType":"struct IAtomicSwapBase.Coin","components":[{"name":"token","type":"address","internalType":"address"},{"name":"amount","type":"uint256","internalType":"uint256"}]},{"name":"taker","type":"address","internalType":"address"},{"name":"buyToken","type":"tuple","internalType":"struct IAtomicSwapBase.Coin","components":[{"name":"token","type":"address","internalType":"address"},{"name":"amount","type":"uint256","internalType":"uint256"}]},{"name":"minBidAmount","type":"uint256","internalType":"uint256"},{"name":"createdAt","type":"uint256","internalType":"uint256"},{"name":"canceledAt","type":"uint256","internalType":"uint256"},{"name":"completedAt","type":"uint256","internalType":"uint256"},{"name":"expiredAt","type":"uint256","internalType":"uint256"},{"name":"acceptBid","type":"bool","internalType":"bool"}],"stateMutability":"view"},{"type":"function","name":"swapOrderVestingParams","inputs":[{"name":"","type":"bytes32","internalType":"bytes32"},{"name":"","type":"uint256","internalType":"uint256"}],"outputs":[{"name":"durationInHours","type":"uint256","internalType":"uint256"},{"name":"percentage","type":"uint256","internalType":"uint256"}],"stateMutability":"view"},{"type":"function","name":"unpause","inputs":[],"outputs":[],"stateMutability":"nonpayable"},{"type":"event","name":"AcceptedBid","inputs":[{"name":"orderID","type":"bytes32","indexed":true,"internalType":"bytes32"},{"name":"bidder","type":"address","indexed":true,"internalType":"address"},{"name":"amount","type":"uint256","indexed":true,"internalType":"uint256"}],"anonymous":false},{"type":"event","name":"AtomicSwapOrderCreated","inputs":[{"name":"id","type":"bytes32","indexed":true,"internalType":"bytes32"}],"anonymous":false},{"type":"event","name":"AtomicSwapOrderTook","inputs":[{"name":"maker","type":"address","indexed":true,"internalType":"address"},{"name":"taker","type":"address","indexed":true,"internalType":"address"},{"name":"id","type":"bytes32","indexed":true,"internalType":"bytes32"}],"anonymous":false},{"type":"event","name":"Initialized","inputs":[{"name":"version","type":"uint64","indexed":false,"internalType":"uint64"}],"anonymous":false},{"type":"event","name":"Paused","inputs":[{"name":"account","type":"address","indexed":false,"internalType":"address"}],"anonymous":false},{"type":"event","name":"RoleAdminChanged","inputs":[{"name":"role","type":"bytes32","indexed":true,"internalType":"bytes32"},{"name":"previousAdminRole","type":"bytes32","indexed":true,"internalType":"bytes32"},{"name":"newAdminRole","type":"bytes32","indexed":true,"internalType":"bytes32"}],"anonymous":false},{"type":"event","name":"RoleGranted","inputs":[{"name":"role","type":"bytes32","indexed":true,"internalType":"bytes32"},{"name":"account","type":"address","indexed":true,"internalType":"address"},{"name":"sender","type":"address","indexed":true,"internalType":"address"}],"anonymous":false},{"type":"event","name":"RoleRevoked","inputs":[{"name":"role","type":"bytes32","indexed":true,"internalType":"bytes32"},{"name":"account","type":"address","indexed":true,"internalType":"address"},{"name":"sender","type":"address","indexed":true,"internalType":"address"}],"anonymous":false},{"type":"event","name":"Unpaused","inputs":[{"name":"account","type":"address","indexed":false,"internalType":"address"}],"anonymous":false},{"type":"error","name":"AccessControlBadConfirmation","inputs":[]},{"type":"error","name":"AccessControlUnauthorizedAccount","inputs":[{"name":"account","type":"address","internalType":"address"},{"name":"neededRole","type":"bytes32","internalType":"bytes32"}]},{"type":"error","name":"DuplicateReleaseSchedule","inputs":[]},{"type":"error","name":"EnforcedPause","inputs":[]},{"type":"error","name":"ExpectedPause","inputs":[]},{"type":"error","name":"InvalidAddress","inputs":[]},{"type":"error","name":"InvalidBuyerFee","inputs":[]},{"type":"error","name":"InvalidExpirationTime","inputs":[{"name":"provided","type":"uint256","internalType":"uint256"},{"name":"maximum","type":"uint256","internalType":"uint256"}]},{"type":"error","name":"InvalidInitialization","inputs":[]},{"type":"error","name":"InvalidMinBidAmount","inputs":[{"name":"amount","type":"uint256","internalType":"uint256"}]},{"type":"error","name":"InvalidReleasePercentage","inputs":[]},{"type":"error","name":"InvalidSellerFee","inputs":[]},{"type":"error","name":"InvalidSigners","inputs":[]},{"type":"error","name":"InvalidTotalPercentage","inputs":[]},{"type":"error","name":"InvalidTreasuryAddress","inputs":[]},{"type":"error","name":"NotEnoughFund","inputs":[{"name":"real","type":"uint256","internalType":"uint256"},{"name":"expected","type":"uint256","internalType":"uint256"}]},{"type":"error","name":"NotInitializing","inputs":[]},{"type":"error","name":"OrderAlreadyExists","inputs":[]},{"type":"error","name":"OrderAlreadyExpired","inputs":[{"name":"current","type":"uint256","internalType":"uint256"},{"name":"expiredTime","type":"uint256","internalType":"uint256"}]},{"type":"error","name":"OverMaximumReleaseStep","inputs":[]},{"type":"error","name":"ReentrancyGuardReentrantCall","inputs":[]},{"type":"error","name":"UnauthorizedSender","inputs":[]},{"type":"error","name":"UnsupportedTokenPair","inputs":[]},{"type":"error","name":"ZeroReleaseSchedule","inputs":[]}],"bytecode":{"object":"0x608060405234801561001057600080fd5b5061179a806100206000396000f3fe60806040526004361061016a5760003560e01c806370480275116100d1578063a217fddf1161008a578063d7c41c7911610064578063d7c41c7914610416578063e63ab1e914610436578063f2407ca414610458578063fca6caa11461047857600080fd5b8063a217fddf146103c1578063b0803c1c146103d6578063d547741f146103f657600080fd5b8063704802751461030157806382dc1ec4146103215780638456cb591461034157806389f68190146103565780638d6cb1c41461036c57806391d14854146103a157600080fd5b80633d538ecf116101235780633d538ecf1461025b5780633f4ba83a1461027157806346fbf68e1461028657806353f10c80146102a65780635c975abb146102bc5780636b2c0f55146102e157600080fd5b806301ffc9a7146101765780631785f53c146101ab578063248a9ca3146101cd57806324d7806c146101fb5780632f2ff15d1461021b57806336568abe1461023b57600080fd5b3661017157005b600080fd5b34801561018257600080fd5b506101966101913660046111a6565b61054d565b60405190151581526020015b60405180910390f35b3480156101b757600080fd5b506101cb6101c63660046111ec565b610584565b005b3480156101d957600080fd5b506101ed6101e8366004611209565b610592565b6040519081526020016101a2565b34801561020757600080fd5b506101966102163660046111ec565b6105b4565b34801561022757600080fd5b506101cb610236366004611222565b6105c0565b34801561024757600080fd5b506101cb610256366004611222565b6105e2565b34801561026757600080fd5b506101ed60005481565b34801561027d57600080fd5b506101cb61061a565b34801561029257600080fd5b506101966102a13660046111ec565b610661565b3480156102b257600080fd5b506101ed60075481565b3480156102c857600080fd5b506000805160206117258339815191525460ff16610196565b3480156102ed57600080fd5b506101cb6102fc3660046111ec565b61067b565b34801561030d57600080fd5b506101cb61031c3660046111ec565b610693565b34801561032d57600080fd5b506101cb61033c3660046111ec565b61069e565b34801561034d57600080fd5b506101cb6106b6565b34801561036257600080fd5b506101ed60065481565b34801561037857600080fd5b5061038c610387366004611252565b6106f2565b604080519283526020830191909152016101a2565b3480156103ad57600080fd5b506101966103bc366004611222565b61072e565b3480156103cd57600080fd5b506101ed600081565b3480156103e257600080fd5b506101cb6103f1366004611274565b610766565b34801561040257600080fd5b506101cb610411366004611222565b61093e565b34801561042257600080fd5b506101cb610431366004611304565b61095a565b34801561044257600080fd5b506101ed6000805160206116e583398151915281565b34801561046457600080fd5b506101cb610473366004611209565b610b11565b34801561048457600080fd5b50610535610493366004611209565b6001602081815260009283526040928390208054928101548451808601865260028301546001600160a01b03908116825260038401548286015260048401548751808901909852600585015482168852600685015495880195909552600784015460088501546009860154600a870154600b880154600c90980154999a60ff8089169b61010090990487169a979997909616979096949593949293919291168c565b6040516101a29c9b9a99989796959493929190611372565b60006001600160e01b03198216637965db0b60e01b148061057e57506301ffc9a760e01b6001600160e01b03198316145b92915050565b61058f60008261093e565b50565b6000908152600080516020611705833981519152602052604090206001015490565b600061057e818361072e565b6105c982610592565b6105d281610b8d565b6105dc8383610b97565b50505050565b6001600160a01b038116331461060b5760405163334bd91960e11b815260040160405180910390fd5b6106158282610c3c565b505050565b6106326000805160206116e58339815191523361072e565b6106575760405162461bcd60e51b815260040161064e90611439565b60405180910390fd5b61065f610cb8565b565b600061057e6000805160206116e58339815191528361072e565b61058f6000805160206116e58339815191528261093e565b61058f6000826105c0565b61058f6000805160206116e5833981519152826105c0565b6106ce6000805160206116e58339815191523361072e565b6106ea5760405162461bcd60e51b815260040161064e90611439565b61065f610d18565b6002602052816000526040600020818154811061070e57600080fd5b600091825260209091206002909102018054600190910154909250905082565b6000918252600080516020611705833981519152602090815260408084206001600160a01b0393909316845291905290205460ff1690565b61076e610d61565b610776610dab565b61077f83610ddc565b6040805160808101825260065481526007546020820152612710818301526005546001600160a01b0390811660608301526004805460035494516319887ca360e01b815293946000948594859473__$0f262aedcaca17139081476b6881c33748$__946319887ca394610804946001948f948f948f94908316939216918e9101611539565b606060405180830381865af4158015610821573d6000803e3d6000fd5b505050506040513d601f19601f820116820180604052508101906108459190611686565b925092509250827f8b82d32987f9a4ae1bc7868a6f104edb711227ec3c9fccb0416a14fcc29bec5a60405160405180910390a2610889610100880160e089016116c9565b156108cf576040516080880135906001600160a01b0384169085907fadd1d5b6c827fee45fa32e72964c9d43d2191c9b8b083889fb2e3f468c71856890600090a4610911565b82816001600160a01b0316836001600160a01b03167f6bf7309f141d1b44e414f1fc04d98491cd0acf98f0f1e5ad885d0a7ce164e6fa60405160405180910390a45b5050505061061560017f9b779b17422d0df92223018b32b4d1fa46e071723d6817e2486d003becc55f0055565b61094782610592565b61095081610b8d565b6105dc8383610c3c565b6000805160206117458339815191528054600160401b810460ff16159067ffffffffffffffff1660008115801561098e5750825b905060008267ffffffffffffffff1660011480156109ab5750303b155b9050811580156109b9575080155b156109d75760405163f92ee8a960e01b815260040160405180910390fd5b845467ffffffffffffffff191660011785558315610a0157845460ff60401b1916600160401b1785555b610a0a8b610eaf565b612710871115610a2d576040516367218a2360e11b815260040160405180910390fd5b612710861115610a5057604051635844f24760e11b815260040160405180910390fd5b6001600160a01b038816610a775760405163cfe2ea6360e01b815260040160405180910390fd5b60068790556007869055600580546001600160a01b03808b166001600160a01b031992831617909255600480548d841690831617905560038054928c16929091169190911790558315610b0457845460ff60401b19168555604051600181527fc7f505b2f371ae2175ee4913f4499e1f2633a7b5936321eed1cdaeb6115181d29060200160405180910390a15b5050505050505050505050565b610b1c60003361072e565b610b385760405162461bcd60e51b815260040161064e90611439565b60008111610b885760405162461bcd60e51b815260206004820152601a60248201527f4d6f726967696e4170703a20696e76616c69642076616c756521000000000000604482015260640161064e565b600055565b61058f8133610fcb565b6000600080516020611705833981519152610bb2848461072e565b610c32576000848152602082815260408083206001600160a01b03871684529091529020805460ff19166001179055610be83390565b6001600160a01b0316836001600160a01b0316857f2f8788117e7eff1d82e926ec794901d17c78024a50270940304540a733656f0d60405160405180910390a4600191505061057e565b600091505061057e565b6000600080516020611705833981519152610c57848461072e565b15610c32576000848152602082815260408083206001600160a01b0387168085529252808320805460ff1916905551339287917ff6391f5c32d9c69d2a47ea670b442974b53935d1edc7fd64eb21e047a839171b9190a4600191505061057e565b610cc0611008565b600080516020611725833981519152805460ff191681557f5db9ee0a495bf2e6ff9c91a7834c1ba4fdd244a5e8aa4e537bd38aeae4b073aa335b6040516001600160a01b03909116815260200160405180910390a150565b610d20610dab565b600080516020611725833981519152805460ff191660011781557f62e78cea01bee320cd4e420270b5ea74000d11b0c9f74754ebdbfc544b05a25833610cfa565b7f9b779b17422d0df92223018b32b4d1fa46e071723d6817e2486d003becc55f00805460011901610da557604051633ee5aeb560e01b815260040160405180910390fd5b60029055565b6000805160206117258339815191525460ff161561065f5760405163d93c066560e01b815260040160405180910390fd5b610dec60808201606083016111ec565b6001600160a01b0316610e0560408301602084016111ec565b6001600160a01b031603610e2c576040516345b3a4c760e01b815260040160405180910390fd5b610e3e610260820161024083016111ec565b6001600160a01b0316610e596101c083016101a084016111ec565b6001600160a01b031603610e8057604051635e231fff60e01b815260040160405180910390fd5b604081013560c0820135111561058f576040516311b66f8560e21b815260c0820135600482015260240161064e565b6000805160206117458339815191528054600160401b810460ff16159067ffffffffffffffff16600081158015610ee35750825b905060008267ffffffffffffffff166001148015610f005750303b155b905081158015610f0e575080155b15610f2c5760405163f92ee8a960e01b815260040160405180910390fd5b845467ffffffffffffffff191660011785558315610f5657845460ff60401b1916600160401b1785555b610f5e611038565b610f66611038565b610f6e611040565b610f7786611061565b60646000558315610fc357845460ff60401b19168555604051600181527fc7f505b2f371ae2175ee4913f4499e1f2633a7b5936321eed1cdaeb6115181d2906020015b60405180910390a15b505050505050565b610fd5828261072e565b6110045760405163e2517d3f60e01b81526001600160a01b03821660048201526024810183905260440161064e565b5050565b6000805160206117258339815191525460ff1661065f57604051638dfc202b60e01b815260040160405180910390fd5b61065f61116f565b61104861116f565b600080516020611725833981519152805460ff19169055565b6000805160206117458339815191528054600160401b810460ff16159067ffffffffffffffff166000811580156110955750825b905060008267ffffffffffffffff1660011480156110b25750303b155b9050811580156110c0575080155b156110de5760405163f92ee8a960e01b815260040160405180910390fd5b845467ffffffffffffffff19166001178555831561110857845460ff60401b1916600160401b1785555b611113600087610b97565b5061112c6000805160206116e583398151915287610b97565b508315610fc357845460ff60401b19168555604051600181527fc7f505b2f371ae2175ee4913f4499e1f2633a7b5936321eed1cdaeb6115181d290602001610fba565b60008051602061174583398151915254600160401b900460ff1661065f57604051631afcd79f60e31b815260040160405180910390fd5b6000602082840312156111b857600080fd5b81356001600160e01b0319811681146111d057600080fd5b9392505050565b6001600160a01b038116811461058f57600080fd5b6000602082840312156111fe57600080fd5b81356111d0816111d7565b60006020828403121561121b57600080fd5b5035919050565b6000806040838503121561123557600080fd5b823591506020830135611247816111d7565b809150509250929050565b6000806040838503121561126557600080fd5b50508035926020909101359150565b60008060008385036102a081121561128b57600080fd5b6102808082121561129b57600080fd5b859450840135905067ffffffffffffffff808211156112b957600080fd5b818601915086601f8301126112cd57600080fd5b8135818111156112dc57600080fd5b8760208260061b85010111156112f157600080fd5b6020830194508093505050509250925092565b60008060008060008060c0878903121561131d57600080fd5b8635611328816111d7565b95506020870135611338816111d7565b94506040870135611348816111d7565b93506060870135611358816111d7565b9598949750929560808101359460a0909101359350915050565b8c81526101c0810160048d1061139857634e487b7160e01b600052602160045260246000fd5b8c60208301526113b3604083018d6001600160a01b03169052565b8a516001600160a01b0316606083015260208b015160808301526001600160a01b038a1660a083015288516001600160a01b031660c0830152602089015160e083015287610100830152866101208301528561014083015284610160830152836101808301526114286101a083018415159052565b9d9c50505050505050505050505050565b6020808252601e908201527f4f776e61626c655061757361626c653a206163636573732064656e6965640000604082015260600190565b803561147b816111d7565b6001600160a01b03168252602090810135910152565b803580151581146114a157600080fd5b919050565b803560ff81168082146114b857600080fd5b8084525050602081013560208301526040810135604083015260608101356114df816111d7565b6001600160a01b03166060830152608090810135910152565b8183526000602080850194508260005b8581101561152e5781358752828201358388015260409687019690910190600101611508565b509495945050505050565b6000610380898352883560208401526115586040840160208b01611470565b6115686080840160608b01611470565b60a0890135611576816111d7565b60018060a01b03811660c08501525060c089013560e084015261159b60e08a01611491565b6101006115ab8186018315159052565b6115b6818c01611491565b9150506101206115c98186018315159052565b6115d4818c01611491565b9150506101406115e78186018315159052565b6115f76101608601828d016114a6565b505061160b61020084016101e08b016114a6565b806102a084015261161f818401888a6114f8565b9150506116386102c08301866001600160a01b03169052565b6001600160a01b0384166102e083015282516103008301526020830151610320830152604083015161034083015260608301516001600160a01b031661036083015298975050505050505050565b60008060006060848603121561169b57600080fd5b8351925060208401516116ad816111d7565b60408501519092506116be816111d7565b809150509250925092565b6000602082840312156116db57600080fd5b6111d08261149156fe65d7a28e3265b37a6474929f336521b332c1681b933f6cb9f3376673440d862a02dd7bc7dec4dceedda775e58dd541e08a116c6c53815c0bd028192f7b626800cd5ed15c6e187e77e9aee88184c21f4f2182ab5827cb3b7e07fbedcd63f03300f0c57e16840df040f15088dc2f81fe391c3923bec73e23a9662efc9c229c6a00a264697066735822122087d1c86eb06b31afee87eada341327ab6926dfe663c9042f52553f7f291021e964736f6c63430008170033","linkReferences":{"contracts/inchain_atomicswap/logic/AtomicSwapStateLogic.sol":{"AtomicSwapStateLogic":[{"start":2030,"length":20}]}}},"methodIdentifiers":{"DEFAULT_ADMIN_ROLE()":"a217fddf","PAUSER_ROLE()":"e63ab1e9","addAdmin(address)":"70480275","addPauser(address)":"82dc1ec4","buyerFeeRate()":"53f10c80","executeSwapWithPermit((bytes32,(address,uint256),(address,uint256),address,uint256,bool,bool,bool,(uint8,bytes32,bytes32,address,uint256),(uint8,bytes32,bytes32,address,uint256)),(uint256,uint256)[])":"b0803c1c","getRoleAdmin(bytes32)":"248a9ca3","grantRole(bytes32,address)":"2f2ff15d","hasRole(bytes32,address)":"91d14854","initialize(address,address,address,address,uint256,uint256)":"d7c41c79","isAdmin(address)":"24d7806c","isPauser(address)":"46fbf68e","paginationSize()":"3d538ecf","pause()":"8456cb59","paused()":"5c975abb","removeAdmin(address)":"1785f53c","removePauser(address)":"6b2c0f55","renounceRole(bytes32,address)":"36568abe","revokeRole(bytes32,address)":"d547741f","sellerFeeRate()":"89f68190","setPaginationSize(uint256)":"f2407ca4","supportsInterface(bytes4)":"01ffc9a7","swapOrder(bytes32)":"fca6caa1","swapOrderVestingParams(bytes32,uint256)":"8d6cb1c4","unpause()":"3f4ba83a"},"id":8}