{"abi":[{"type":"function","name":"DEFAULT_ADMIN_ROLE","inputs":[],"outputs":[{"name":"","type":"bytes32","internalType":"bytes32"}],"stateMutability":"view"},{"type":"function","name":"PAUSER_ROLE","inputs":[],"outputs":[{"name":"","type":"bytes32","internalType":"bytes32"}],"stateMutability":"view"},{"type":"function","name":"acceptBid","inputs":[{"name":"acceptBidMsg","type":"tuple","internalType":"struct IAtomicSwapBase.AcceptBidMsg","components":[{"name":"orderID","type":"bytes32","internalType":"bytes32"},{"name":"bidder","type":"address","internalType":"address"}]}],"outputs":[],"stateMutability":"payable"},{"type":"function","name":"addAdmin","inputs":[{"name":"_account","type":"address","internalType":"address"}],"outputs":[],"stateMutability":"nonpayable"},{"type":"function","name":"addPauser","inputs":[{"name":"_account","type":"address","internalType":"address"}],"outputs":[],"stateMutability":"nonpayable"},{"type":"function","name":"bids","inputs":[{"name":"","type":"bytes32","internalType":"bytes32"},{"name":"","type":"address","internalType":"address"}],"outputs":[{"name":"amount","type":"uint256","internalType":"uint256"},{"name":"order","type":"bytes32","internalType":"bytes32"},{"name":"status","type":"uint8","internalType":"enum IAtomicSwapBase.BidStatus"},{"name":"bidder","type":"address","internalType":"address"},{"name":"receiveTimestamp","type":"uint256","internalType":"uint256"},{"name":"expireTimestamp","type":"uint256","internalType":"uint256"}],"stateMutability":"view"},{"type":"function","name":"buyerFeeRate","inputs":[],"outputs":[{"name":"","type":"uint256","internalType":"uint256"}],"stateMutability":"view"},{"type":"function","name":"cancelBid","inputs":[{"name":"orderID","type":"bytes32","internalType":"bytes32"}],"outputs":[],"stateMutability":"payable"},{"type":"function","name":"cancelSwap","inputs":[{"name":"cancelswap","type":"tuple","internalType":"struct IAtomicSwapBase.CancelSwapMsg","components":[{"name":"orderID","type":"bytes32","internalType":"bytes32"}]}],"outputs":[],"stateMutability":"payable"},{"type":"function","name":"counteroffers","inputs":[{"name":"","type":"bytes32","internalType":"bytes32"},{"name":"","type":"address","internalType":"address"}],"outputs":[{"name":"","type":"uint256","internalType":"uint256"}],"stateMutability":"view"},{"type":"function","name":"getRoleAdmin","inputs":[{"name":"role","type":"bytes32","internalType":"bytes32"}],"outputs":[{"name":"","type":"bytes32","internalType":"bytes32"}],"stateMutability":"view"},{"type":"function","name":"grantRole","inputs":[{"name":"role","type":"bytes32","internalType":"bytes32"},{"name":"account","type":"address","internalType":"address"}],"outputs":[],"stateMutability":"nonpayable"},{"type":"function","name":"hasRole","inputs":[{"name":"role","type":"bytes32","internalType":"bytes32"},{"name":"account","type":"address","internalType":"address"}],"outputs":[{"name":"","type":"bool","internalType":"bool"}],"stateMutability":"view"},{"type":"function","name":"initialize","inputs":[{"name":"_admin","type":"address","internalType":"address"},{"name":"_vestingManager","type":"address","internalType":"address"},{"name":"_treasury","type":"address","internalType":"address"},{"name":"_sellerFee","type":"uint256","internalType":"uint256"},{"name":"_buyerFee","type":"uint256","internalType":"uint256"}],"outputs":[],"stateMutability":"nonpayable"},{"type":"function","name":"isAdmin","inputs":[{"name":"_account","type":"address","internalType":"address"}],"outputs":[{"name":"","type":"bool","internalType":"bool"}],"stateMutability":"view"},{"type":"function","name":"isPauser","inputs":[{"name":"_account","type":"address","internalType":"address"}],"outputs":[{"name":"","type":"bool","internalType":"bool"}],"stateMutability":"view"},{"type":"function","name":"makeSwap","inputs":[{"name":"makeswap","type":"tuple","internalType":"struct IAtomicSwapBase.MakeSwapMsg","components":[{"name":"uuid","type":"bytes32","internalType":"bytes32"},{"name":"sellToken","type":"tuple","internalType":"struct IAtomicSwapBase.Coin","components":[{"name":"token","type":"address","internalType":"address"},{"name":"amount","type":"uint256","internalType":"uint256"}]},{"name":"buyToken","type":"tuple","internalType":"struct IAtomicSwapBase.Coin","components":[{"name":"token","type":"address","internalType":"address"},{"name":"amount","type":"uint256","internalType":"uint256"}]},{"name":"maker","type":"address","internalType":"address"},{"name":"desiredTaker","type":"address","internalType":"address"},{"name":"minBidAmount","type":"uint256","internalType":"uint256"},{"name":"expireAt","type":"uint256","internalType":"uint256"},{"name":"acceptBid","type":"bool","internalType":"bool"}]}],"outputs":[{"name":"","type":"bytes32","internalType":"bytes32"}],"stateMutability":"payable"},{"type":"function","name":"makeSwapWithVesting","inputs":[{"name":"makeswap","type":"tuple","internalType":"struct IAtomicSwapBase.MakeSwapMsg","components":[{"name":"uuid","type":"bytes32","internalType":"bytes32"},{"name":"sellToken","type":"tuple","internalType":"struct IAtomicSwapBase.Coin","components":[{"name":"token","type":"address","internalType":"address"},{"name":"amount","type":"uint256","internalType":"uint256"}]},{"name":"buyToken","type":"tuple","internalType":"struct IAtomicSwapBase.Coin","components":[{"name":"token","type":"address","internalType":"address"},{"name":"amount","type":"uint256","internalType":"uint256"}]},{"name":"maker","type":"address","internalType":"address"},{"name":"desiredTaker","type":"address","internalType":"address"},{"name":"minBidAmount","type":"uint256","internalType":"uint256"},{"name":"expireAt","type":"uint256","internalType":"uint256"},{"name":"acceptBid","type":"bool","internalType":"bool"}]},{"name":"releases","type":"tuple[]","internalType":"struct IAtomicSwapBase.Release[]","components":[{"name":"durationInHours","type":"uint256","internalType":"uint256"},{"name":"percentage","type":"uint256","internalType":"uint256"}]}],"outputs":[],"stateMutability":"payable"},{"type":"function","name":"paginationSize","inputs":[],"outputs":[{"name":"","type":"uint256","internalType":"uint256"}],"stateMutability":"view"},{"type":"function","name":"pause","inputs":[],"outputs":[],"stateMutability":"nonpayable"},{"type":"function","name":"paused","inputs":[],"outputs":[{"name":"","type":"bool","internalType":"bool"}],"stateMutability":"view"},{"type":"function","name":"placeBid","inputs":[{"name":"placeBidMsg","type":"tuple","internalType":"struct IAtomicSwapBase.PlaceBidMsg","components":[{"name":"bidAmount","type":"uint256","internalType":"uint256"},{"name":"bidder","type":"address","internalType":"address"},{"name":"orderID","type":"bytes32","internalType":"bytes32"},{"name":"expireTimestamp","type":"uint256","internalType":"uint256"}]}],"outputs":[],"stateMutability":"payable"},{"type":"function","name":"removeAdmin","inputs":[{"name":"_account","type":"address","internalType":"address"}],"outputs":[],"stateMutability":"nonpayable"},{"type":"function","name":"removePauser","inputs":[{"name":"_account","type":"address","internalType":"address"}],"outputs":[],"stateMutability":"nonpayable"},{"type":"function","name":"renounceRole","inputs":[{"name":"role","type":"bytes32","internalType":"bytes32"},{"name":"callerConfirmation","type":"address","internalType":"address"}],"outputs":[],"stateMutability":"nonpayable"},{"type":"function","name":"revokeRole","inputs":[{"name":"role","type":"bytes32","internalType":"bytes32"},{"name":"account","type":"address","internalType":"address"}],"outputs":[],"stateMutability":"nonpayable"},{"type":"function","name":"sellerFeeRate","inputs":[],"outputs":[{"name":"","type":"uint256","internalType":"uint256"}],"stateMutability":"view"},{"type":"function","name":"setPaginationSize","inputs":[{"name":"_paginationSize","type":"uint256","internalType":"uint256"}],"outputs":[],"stateMutability":"nonpayable"},{"type":"function","name":"supportsInterface","inputs":[{"name":"interfaceId","type":"bytes4","internalType":"bytes4"}],"outputs":[{"name":"","type":"bool","internalType":"bool"}],"stateMutability":"view"},{"type":"function","name":"swapOrder","inputs":[{"name":"","type":"bytes32","internalType":"bytes32"}],"outputs":[{"name":"id","type":"bytes32","internalType":"bytes32"},{"name":"status","type":"uint8","internalType":"enum IAtomicSwapBase.OrderStatus"},{"name":"maker","type":"address","internalType":"address"},{"name":"sellToken","type":"tuple","internalType":"struct IAtomicSwapBase.Coin","components":[{"name":"token","type":"address","internalType":"address"},{"name":"amount","type":"uint256","internalType":"uint256"}]},{"name":"taker","type":"address","internalType":"address"},{"name":"buyToken","type":"tuple","internalType":"struct IAtomicSwapBase.Coin","components":[{"name":"token","type":"address","internalType":"address"},{"name":"amount","type":"uint256","internalType":"uint256"}]},{"name":"minBidAmount","type":"uint256","internalType":"uint256"},{"name":"createdAt","type":"uint256","internalType":"uint256"},{"name":"canceledAt","type":"uint256","internalType":"uint256"},{"name":"completedAt","type":"uint256","internalType":"uint256"},{"name":"expiredAt","type":"uint256","internalType":"uint256"},{"name":"acceptBid","type":"bool","internalType":"bool"}],"stateMutability":"view"},{"type":"function","name":"swapOrderVestingParams","inputs":[{"name":"","type":"bytes32","internalType":"bytes32"},{"name":"","type":"uint256","internalType":"uint256"}],"outputs":[{"name":"durationInHours","type":"uint256","internalType":"uint256"},{"name":"percentage","type":"uint256","internalType":"uint256"}],"stateMutability":"view"},{"type":"function","name":"takeSwap","inputs":[{"name":"takeswap","type":"tuple","internalType":"struct IAtomicSwapBase.TakeSwapMsg","components":[{"name":"orderID","type":"bytes32","internalType":"bytes32"},{"name":"takerReceiver","type":"address","internalType":"address"}]}],"outputs":[],"stateMutability":"payable"},{"type":"function","name":"unpause","inputs":[],"outputs":[],"stateMutability":"nonpayable"},{"type":"function","name":"updateBid","inputs":[{"name":"updateBidMsg","type":"tuple","internalType":"struct IAtomicSwapBase.UpdateBidMsg","components":[{"name":"orderID","type":"bytes32","internalType":"bytes32"},{"name":"bidder","type":"address","internalType":"address"},{"name":"addition","type":"uint256","internalType":"uint256"}]}],"outputs":[],"stateMutability":"payable"},{"type":"event","name":"AcceptedBid","inputs":[{"name":"orderID","type":"bytes32","indexed":true,"internalType":"bytes32"},{"name":"bidder","type":"address","indexed":true,"internalType":"address"},{"name":"amount","type":"uint256","indexed":true,"internalType":"uint256"}],"anonymous":false},{"type":"event","name":"AtomicSwapOrderCanceled","inputs":[{"name":"id","type":"bytes32","indexed":true,"internalType":"bytes32"}],"anonymous":false},{"type":"event","name":"AtomicSwapOrderCreated","inputs":[{"name":"id","type":"bytes32","indexed":true,"internalType":"bytes32"}],"anonymous":false},{"type":"event","name":"AtomicSwapOrderTook","inputs":[{"name":"maker","type":"address","indexed":true,"internalType":"address"},{"name":"taker","type":"address","indexed":true,"internalType":"address"},{"name":"id","type":"bytes32","indexed":true,"internalType":"bytes32"}],"anonymous":false},{"type":"event","name":"CanceledBid","inputs":[{"name":"orderID","type":"bytes32","indexed":true,"internalType":"bytes32"},{"name":"bidder","type":"address","indexed":true,"internalType":"address"}],"anonymous":false},{"type":"event","name":"Initialized","inputs":[{"name":"version","type":"uint64","indexed":false,"internalType":"uint64"}],"anonymous":false},{"type":"event","name":"Paused","inputs":[{"name":"account","type":"address","indexed":false,"internalType":"address"}],"anonymous":false},{"type":"event","name":"PlacedBid","inputs":[{"name":"orderID","type":"bytes32","indexed":true,"internalType":"bytes32"},{"name":"bidder","type":"address","indexed":true,"internalType":"address"},{"name":"amount","type":"uint256","indexed":true,"internalType":"uint256"}],"anonymous":false},{"type":"event","name":"RoleAdminChanged","inputs":[{"name":"role","type":"bytes32","indexed":true,"internalType":"bytes32"},{"name":"previousAdminRole","type":"bytes32","indexed":true,"internalType":"bytes32"},{"name":"newAdminRole","type":"bytes32","indexed":true,"internalType":"bytes32"}],"anonymous":false},{"type":"event","name":"RoleGranted","inputs":[{"name":"role","type":"bytes32","indexed":true,"internalType":"bytes32"},{"name":"account","type":"address","indexed":true,"internalType":"address"},{"name":"sender","type":"address","indexed":true,"internalType":"address"}],"anonymous":false},{"type":"event","name":"RoleRevoked","inputs":[{"name":"role","type":"bytes32","indexed":true,"internalType":"bytes32"},{"name":"account","type":"address","indexed":true,"internalType":"address"},{"name":"sender","type":"address","indexed":true,"internalType":"address"}],"anonymous":false},{"type":"event","name":"Unpaused","inputs":[{"name":"account","type":"address","indexed":false,"internalType":"address"}],"anonymous":false},{"type":"event","name":"UpdatedBid","inputs":[{"name":"orderID","type":"bytes32","indexed":true,"internalType":"bytes32"},{"name":"bidder","type":"address","indexed":true,"internalType":"address"},{"name":"amount","type":"uint256","indexed":true,"internalType":"uint256"}],"anonymous":false},{"type":"error","name":"AccessControlBadConfirmation","inputs":[]},{"type":"error","name":"AccessControlUnauthorizedAccount","inputs":[{"name":"account","type":"address","internalType":"address"},{"name":"neededRole","type":"bytes32","internalType":"bytes32"}]},{"type":"error","name":"BidAlreadyExpired","inputs":[{"name":"provided","type":"uint256","internalType":"uint256"},{"name":"expectedExpiry","type":"uint256","internalType":"uint256"}]},{"type":"error","name":"BidAlreadyPlaced","inputs":[]},{"type":"error","name":"BidDoesNotExist","inputs":[]},{"type":"error","name":"BidNotAllowed","inputs":[]},{"type":"error","name":"BidNotInPlacedStatus","inputs":[{"name":"status","type":"uint8","internalType":"enum IAtomicSwapBase.BidStatus"}]},{"type":"error","name":"DuplicateReleaseSchedule","inputs":[]},{"type":"error","name":"EnforcedPause","inputs":[]},{"type":"error","name":"ExpectedPause","inputs":[]},{"type":"error","name":"InactiveOrder","inputs":[]},{"type":"error","name":"InvaldAddition","inputs":[]},{"type":"error","name":"InvalidAddress","inputs":[]},{"type":"error","name":"InvalidBidderAddress","inputs":[]},{"type":"error","name":"InvalidBuyerFee","inputs":[]},{"type":"error","name":"InvalidContractAddress","inputs":[{"name":"contractAddress","type":"address","internalType":"address"}]},{"type":"error","name":"InvalidExpirationTime","inputs":[{"name":"provided","type":"uint256","internalType":"uint256"},{"name":"maximum","type":"uint256","internalType":"uint256"}]},{"type":"error","name":"InvalidInitialization","inputs":[]},{"type":"error","name":"InvalidMinimumBidLimit","inputs":[]},{"type":"error","name":"InvalidReleasePercentage","inputs":[]},{"type":"error","name":"InvalidSellerFee","inputs":[]},{"type":"error","name":"InvalidTotalPercentage","inputs":[]},{"type":"error","name":"InvalidTreasuryAddress","inputs":[]},{"type":"error","name":"MismatchedBidAmount","inputs":[{"name":"amount","type":"uint256","internalType":"uint256"}]},{"type":"error","name":"NoBidPlaced","inputs":[]},{"type":"error","name":"NotAllowedTransferAmount","inputs":[{"name":"amount","type":"uint256","internalType":"uint256"},{"name":"allowance","type":"uint256","internalType":"uint256"}]},{"type":"error","name":"NotEnoughFund","inputs":[{"name":"real","type":"uint256","internalType":"uint256"},{"name":"expected","type":"uint256","internalType":"uint256"}]},{"type":"error","name":"NotInitializing","inputs":[]},{"type":"error","name":"OrderAlreadyExists","inputs":[]},{"type":"error","name":"OrderAlreadyExpired","inputs":[{"name":"current","type":"uint256","internalType":"uint256"},{"name":"expiredTime","type":"uint256","internalType":"uint256"}]},{"type":"error","name":"OrderCanceled","inputs":[]},{"type":"error","name":"OrderDoesNotExist","inputs":[]},{"type":"error","name":"OrderNotAllowTake","inputs":[]},{"type":"error","name":"OverMaximumReleaseStep","inputs":[]},{"type":"error","name":"ReentrancyGuardReentrantCall","inputs":[]},{"type":"error","name":"TransferFailed","inputs":[{"name":"to","type":"address","internalType":"address"},{"name":"amount","type":"uint256","internalType":"uint256"}]},{"type":"error","name":"TransferFromFailed","inputs":[{"name":"from","type":"address","internalType":"address"},{"name":"to","type":"address","internalType":"address"},{"name":"amount","type":"uint256","internalType":"uint256"}]},{"type":"error","name":"TransferToRecipientFailed","inputs":[{"name":"recipient","type":"address","internalType":"address"},{"name":"amount","type":"uint256","internalType":"uint256"}]},{"type":"error","name":"TransferToTreasuryFailed","inputs":[{"name":"recipient","type":"address","internalType":"address"},{"name":"amount","type":"uint256","internalType":"uint256"}]},{"type":"error","name":"UnauthorizedAcceptAction","inputs":[{"name":"caller","type":"address","internalType":"address"},{"name":"expected","type":"address","internalType":"address"}]},{"type":"error","name":"UnauthorizedCancelAction","inputs":[]},{"type":"error","name":"UnauthorizedSender","inputs":[]},{"type":"error","name":"UnauthorizedTakeAction","inputs":[]},{"type":"error","name":"UnsupportedTokenPair","inputs":[]},{"type":"error","name":"ZeroReleaseSchedule","inputs":[]}],"bytecode":{"object":"0x608060405234801561001057600080fd5b50613255806100206000396000f3fe6080604052600436106101f95760003560e01c806366e929bf1161010d578063a217fddf116100a0578063d547741f1161006f578063d547741f146105b3578063df7cec28146105d3578063e63ab1e9146105e6578063f2407ca414610608578063fca6caa11461062857600080fd5b8063a217fddf14610533578063a6b63eb814610548578063a743a3d014610568578063d2a25283146105a057600080fd5b80638456cb59116100dc5780638456cb59146104b357806389f68190146104c85780638d6cb1c4146104de57806391d148541461051357600080fd5b806366e929bf146103db5780636b2c0f5514610453578063704802751461047357806382dc1ec41461049357600080fd5b80632f2ff15d116101905780633d9bd2fc1161015f5780633d9bd2fc146103585780633f4ba83a1461036b57806346fbf68e1461038057806353f10c80146103a05780635c975abb146103b657600080fd5b80632f2ff15d146102ef57806336568abe1461030f57806337be00221461032f5780633d538ecf1461034257600080fd5b80631785f53c116101cc5780631785f53c1461026e578063248a9ca31461028e57806324d7806c146102bc5780632b2b6511146102dc57600080fd5b806301ffc9a7146101fe578063022066611461023357806306be619c1461024857806316b50a821461025b575b600080fd5b34801561020a57600080fd5b5061021e61021936600461291c565b6106fd565b60405190151581526020015b60405180910390f35b610246610241366004612965565b610734565b005b610246610256366004612965565b610a67565b610246610269366004612981565b610cb7565b34801561027a57600080fd5b506102466102893660046129aa565b610f96565b34801561029a57600080fd5b506102ae6102a93660046129c5565b610fa1565b60405190815260200161022a565b3480156102c857600080fd5b5061021e6102d73660046129aa565b610fc3565b6102466102ea3660046129f1565b610fcf565b3480156102fb57600080fd5b5061024661030a366004612a7a565b61110c565b34801561031b57600080fd5b5061024661032a366004612a7a565b61112e565b61024661033d366004612aa6565b611166565b34801561034e57600080fd5b506102ae60005481565b610246610366366004612ab8565b61130d565b34801561037757600080fd5b50610246611586565b34801561038c57600080fd5b5061021e61039b3660046129aa565b6115c4565b3480156103ac57600080fd5b506102ae60075481565b3480156103c257600080fd5b506000805160206131c08339815191525460ff1661021e565b3480156103e757600080fd5b506104416103f6366004612a7a565b60036020818152600093845260408085209091529183529120805460018201546002830154938301546004909301549193909260ff8216926101009092046001600160a01b03169186565b60405161022a96959493929190612af4565b34801561045f57600080fd5b5061024661046e3660046129aa565b6115de565b34801561047f57600080fd5b5061024661048e3660046129aa565b6115f6565b34801561049f57600080fd5b506102466104ae3660046129aa565b611601565b3480156104bf57600080fd5b50610246611619565b3480156104d457600080fd5b506102ae60065481565b3480156104ea57600080fd5b506104fe6104f9366004612b35565b611655565b6040805192835260208301919091520161022a565b34801561051f57600080fd5b5061021e61052e366004612a7a565b611691565b34801561053f57600080fd5b506102ae600081565b34801561055457600080fd5b50610246610563366004612b57565b6116c9565b34801561057457600080fd5b506102ae610583366004612a7a565b600860209081526000928352604080842090915290825290205481565b6102ae6105ae366004612bac565b611872565b3480156105bf57600080fd5b506102466105ce366004612a7a565b611b66565b6102466105e13660046129c5565b611b82565b3480156105f257600080fd5b506102ae60008051602061318083398151915281565b34801561061457600080fd5b506102466106233660046129c5565b611d1f565b34801561063457600080fd5b506106e56106433660046129c5565b6001602081815260009283526040928390208054928101548451808601865260028301546001600160a01b03908116825260038401548286015260048401548751808901909852600585015482168852600685015495880195909552600784015460088501546009860154600a870154600b880154600c90980154999a60ff8089169b61010090990487169a979997909616979096949593949293919291168c565b60405161022a9c9b9a99989796959493929190612bc9565b60006001600160e01b03198216637965db0b60e01b148061072e57506301ffc9a760e01b6001600160e01b03198316145b92915050565b61073c611d9b565b610744611dcc565b80356000818152600160208190526040909120015461010090046001600160a01b031661078457604051635dcaf2d760e01b815260040160405180910390fd5b813560008181526001602081905260408220015460ff1660038111156107ac576107ac612aca565b146107ca5760405163d4dbb56560e01b815260040160405180910390fd5b823560006107de60408601602087016129aa565b9050336107fe57604051630101292160e31b815260040160405180910390fd5b6000828152600160205260409020600c81015460ff1661083157604051630f093ebf60e21b815260040160405180910390fd5b600181015461010090046001600160a01b0316331461088357600181015460405163014032d360e21b81526101009091046001600160a01b031660048201523360248201526044015b60405180910390fd5b60008381526003602090815260408083206001600160a01b0386168452909152902060028082015460ff16818111156108be576108be612aca565b146108e5576002810154604051633258460360e11b815261087a9160ff1690600401612c69565b428160040154101561091657600481810154604051631d35563960e01b81529182015242602482015260440161087a565b60018281018054600260ff19918216811790925542600a8601556004850180546001600160a01b0319166001600160a01b038881169190911790915591840180549091169092179182905561097391849161010090910416611e04565b60058281018054600185015484546006549454604051620d9e4560e71b8152949573__$8c89b81c02acb1dc8a3fc156e2431517d3$__956306cf2280956109dc956001600160a01b03918216956101009091048216949093926127109290911690600401612c77565b60006040518083038186803b1580156109f457600080fd5b505af4158015610a08573d6000803e3d6000fd5b505083546040519092506001600160a01b038716915087907fadd1d5b6c827fee45fa32e72964c9d43d2191c9b8b083889fb2e3f468c71856890600090a450505050505050610a6460016000805160206131e083398151915255565b50565b610a6f611d9b565b610a77611dcc565b80356000818152600160208190526040909120015461010090046001600160a01b0316610ab757604051635dcaf2d760e01b815260040160405180910390fd5b813560008181526001602081905260408220015460ff166003811115610adf57610adf612aca565b14610afd5760405163d4dbb56560e01b815260040160405180910390fd5b82356000908152600160205260409081902090516362e454f760e01b815273__$2effe1973215a034e8e4a17bdeb5710028$__906362e454f790610b479084908890600401612caf565b60006040518083038186803b158015610b5f57600080fd5b505af4158015610b73573d6000803e3d6000fd5b5050505060018101805460ff1916600217905542600a820155600481018054336001600160a01b0319909116179055610bbb81610bb660408701602088016129aa565b611e04565b600581810154600183015460068085015490549354604051632ea886e360e21b815273__$8c89b81c02acb1dc8a3fc156e2431517d3$__9563baa21b8c95610c24956001600160a01b039182169561010090910482169490936127109290911690600401612c77565b60006040518083038186803b158015610c3c57600080fd5b505af4158015610c50573d6000803e3d6000fd5b50505050600481015460018201546040518635926001600160a01b0390811692610100900416907f6bf7309f141d1b44e414f1fc04d98491cd0acf98f0f1e5ad885d0a7ce164e6fa90600090a4505050610a6460016000805160206131e083398151915255565b610cbf611dcc565b610cc7611d9b565b6040808201356000818152600160208190529290209091015461010090046001600160a01b0316610d0b57604051635dcaf2d760e01b815260040160405180910390fd5b6040820135600080828152600160208190526040909120015460ff166003811115610d3857610d38612aca565b14610d565760405163d4dbb56560e01b815260040160405180910390fd5b604083018035908435903390610d6f90602088016129aa565b6001600160a01b031614610d965760405163414a560160e11b815260040160405180910390fd5b60008281526003602090815260408083203384529091529020600281015461010090046001600160a01b031615610de057604051630b8cee9f60e41b815260040160405180910390fd5b6040808701356000908152600160205220600c81015460ff16610e1657604051630f093ebf60e21b815260040160405180910390fd5b4281600b01541015610e4a57600b81015460405163f00605cf60e01b8152600481019190915242602482015260440161087a565b8060070154831080610e5f5750600681015483115b15610e8057604051636ce78b3f60e11b81526004810184905260240161087a565b600084815260016020526040902060050180546001600160a01b031615610ebd578054610eb8906001600160a01b0316333087612110565b610edf565b833414610edf57604051636ce78b3f60e11b815234600482015260240161087a565b60405163cc76f93160e01b815273__$8ad05547f64aebe22f2eafad9eff5b91dd$__9063cc76f93190610f19906003908c90600401612ce3565b60006040518083038186803b158015610f3157600080fd5b505af4158015610f45573d6000803e3d6000fd5b505060405186925033915087907f1126836d9a6f07e69d20f7ac2db448d68d9bb24718d7e8e0e85b8cfd96bb04c190600090a450505050505050610a6460016000805160206131e083398151915255565b610a64600082611b66565b60009081526000805160206131a0833981519152602052604090206001015490565b600061072e8183611691565b8181808060200260200160405190810160405280939291908181526020016000905b8282101561101d5761100e60408302860136819003810190612d94565b81526020019060010190610ff1565b50506040516333b988f560e01b815273__$2effe1973215a034e8e4a17bdeb5710028$__946333b988f5945061105893509150600401612dc6565b60006040518083038186803b15801561107057600080fd5b505af4158015611084573d6000803e3d6000fd5b50505050600061109384611872565b905060005b828110156111055760008281526002602052604090208484838181106110c0576110c0612e1d565b8354600181018555600094855260209094206040909102929092019260020290910190506110fb828281358155602082013560018201555050565b5050600101611098565b5050505050565b61111582610fa1565b61111e8161224e565b6111288383612258565b50505050565b6001600160a01b03811633146111575760405163334bd91960e11b815260040160405180910390fd5b61116182826122fd565b505050565b61116e611d9b565b611176611dcc565b80356000818152600160208190526040909120015461010090046001600160a01b03166111b657604051635dcaf2d760e01b815260040160405180910390fd5b813560008181526001602081905260408220015460ff1660038111156111de576111de612aca565b146111fc5760405163d4dbb56560e01b815260040160405180910390fd5b823560009081526001602052604090819020905163c3aee15d60e01b81526004810182905273__$2effe1973215a034e8e4a17bdeb5710028$__9063c3aee15d9060240160006040518083038186803b15801561125857600080fd5b505af415801561126c573d6000803e3d6000fd5b505050506001818101805460ff1916909117905560028101546001600160a01b03166112a8576112a3338260020160010154612379565b6112c7565b600281015460038201546112c7916001600160a01b0316903390612453565b6040518435907ff68aeec8f55d67a9b2cf2b6caea31e11f2c14e09da250170575d63911f26aa6e90600090a2505050610a6460016000805160206131e083398151915255565b611315611d9b565b61131d611dcc565b80356000818152600160208190526040909120015461010090046001600160a01b031661135d57604051635dcaf2d760e01b815260040160405180910390fd5b813560008181526001602081905260408220015460ff16600381111561138557611385612aca565b146113a35760405163d4dbb56560e01b815260040160405180910390fd5b8235600081815260036020908152604080832033845290915290819020600481015491860135914211156113f657600481810154604051631d35563960e01b81529182015242602482015260440161087a565b600281015461010090046001600160a01b03166114265760405163050611f760e11b815260040160405180910390fd5b600083815260016020526040902060028281015460ff168181111561144d5761144d612aca565b1461146b5760405163050611f760e11b815260040160405180910390fd5b8260000361148f57604051636ce78b3f60e11b81526004810184905260240161087a565b828260000160008282546114a39190612e49565b90915550506006810154825411156114d4578154604051636ce78b3f60e11b8152600481019190915260240161087a565b6005810180546001600160a01b0316156115045780546114ff906001600160a01b0316333087612110565b611526565b83341461152657604051636ce78b3f60e11b815234600482015260240161087a565b825460028401546040516101009091046001600160a01b03169087907f7786094a5edc61a0463300b9b97a1b22d338bc800ed33404ba9a3888b71de0fc90600090a450505050505050610a6460016000805160206131e083398151915255565b61159e60008051602061318083398151915233611691565b6115ba5760405162461bcd60e51b815260040161087a90612e5c565b6115c261257d565b565b600061072e60008051602061318083398151915283611691565b610a6460008051602061318083398151915282611b66565b610a6460008261110c565b610a646000805160206131808339815191528261110c565b61163160008051602061318083398151915233611691565b61164d5760405162461bcd60e51b815260040161087a90612e5c565b6115c26125dd565b6002602052816000526040600020818154811061167157600080fd5b600091825260209091206002909102018054600190910154909250905082565b60009182526000805160206131a0833981519152602090815260408084206001600160a01b0393909316845291905290205460ff1690565b6000805160206132008339815191528054600160401b810460ff16159067ffffffffffffffff166000811580156116fd5750825b905060008267ffffffffffffffff16600114801561171a5750303b155b905081158015611728575080155b156117465760405163f92ee8a960e01b815260040160405180910390fd5b845467ffffffffffffffff19166001178555831561177057845460ff60401b1916600160401b1785555b6117798a612626565b61271087111561179c576040516367218a2360e11b815260040160405180910390fd5b6127108611156117bf57604051635844f24760e11b815260040160405180910390fd5b6001600160a01b0388166117e65760405163cfe2ea6360e01b815260040160405180910390fd5b60068790556007869055600580546001600160a01b03808b166001600160a01b03199283161790925560048054928c1692909116919091179055831561186657845460ff60401b19168555604051600181527fc7f505b2f371ae2175ee4913f4499e1f2633a7b5936321eed1cdaeb6115181d29060200160405180910390a15b50505050505050505050565b600061187c611dcc565b611884611d9b565b61189460808301606084016129aa565b6001600160a01b03166118ad60408401602085016129aa565b6001600160a01b0316036118d4576040516345b3a4c760e01b815260040160405180910390fd5b6118e336839003830183612ee3565b60408051624d075f60e91b81528251600482015260208084015180516001600160a01b03908116602485015290820151604484015292840151805184166064840152015160848201526060830151821660a4820152608083015190911660c482015260a082015160e482015260c082015161010482015260e090910151151561012482015273__$2effe1973215a034e8e4a17bdeb5710028$__90639a0ebe00906101440160006040518083038186803b1580156119a057600080fd5b505af41580156119b4573d6000803e3d6000fd5b505060405163d81ab44f60e01b8152843560048201523060248201526000925073__$8ad05547f64aebe22f2eafad9eff5b91dd$__915063d81ab44f90604401602060405180830381865af4158015611a11573d6000803e3d6000fd5b505050506040513d601f19601f82011682018060405250810190611a359190612f76565b604051630114b6bf60e51b815290915073__$8ad05547f64aebe22f2eafad9eff5b91dd$__90632296d7e090611a7690600190879086903390600401612fae565b60006040518083038186803b158015611a8e57600080fd5b505af4158015611aa2573d6000803e3d6000fd5b5060009250611aba91505060408501602086016129aa565b6001600160a01b031603611afe576040830135341015611af957604080516301055eed60e21b815234600482015290840135602482015260440161087a565b611b1d565b611b1d611b1160408501602086016129aa565b33306040870135612110565b60405181907f8b82d32987f9a4ae1bc7868a6f104edb711227ec3c9fccb0416a14fcc29bec5a90600090a29050611b6160016000805160206131e083398151915255565b919050565b611b6f82610fa1565b611b788161224e565b61112883836122fd565b611b8a611d9b565b611b92611dcc565b60008181526001602081905260409091200154819061010090046001600160a01b0316611bd257604051635dcaf2d760e01b815260040160405180910390fd5b6000828152600360209081526040808320338085529252909120600281015490916101009091046001600160a01b031614611c2057604051634bc7822b60e11b815260040160405180910390fd5b60028181015460ff1681811115611c3957611c39612aca565b14611c60576002810154604051633258460360e11b815261087a9160ff1690600401612c69565b60028101805460ff19169055600083815260016020526040902060050180546001600160a01b031615611cb757805460028301548354611cb2926001600160a01b039081169261010090041690612453565b611cc5565b611cc5338360000154612379565b60028201546040516101009091046001600160a01b03169085907f6c2a0bb8117ecfbc53a4385a5421be8eb081718159b9eb3d7c273ecb07fe7cfd90600090a3505050610a6460016000805160206131e083398151915255565b611d2a600033611691565b611d465760405162461bcd60e51b815260040161087a90612e5c565b60008111611d965760405162461bcd60e51b815260206004820152601a60248201527f4d6f726967696e4170703a20696e76616c69642076616c756521000000000000604482015260640161087a565b600055565b6000805160206131c08339815191525460ff16156115c25760405163d93c066560e01b815260040160405180910390fd5b6000805160206131e0833981519152805460011901611dfe57604051633ee5aeb560e01b815260040160405180910390fd5b60029055565b8154600090815260026020908152604080832080548251818502810185019093528083529192909190849084015b82821015611e7857838290600052602060002090600202016040518060400160405290816000820154815260200160018201548152505081526020019060010190611e32565b5050505090508051600003611f1a5760028301546003840154600754600554604051620d9e4560e71b815273__$8c89b81c02acb1dc8a3fc156e2431517d3$__946306cf228094611ee5946001600160a01b03928316948a94929391926127109290911690600401612c77565b60006040518083038186803b158015611efd57600080fd5b505af4158015611f11573d6000803e3d6000fd5b50505050505050565b60006127106007548560020160010154611f349190613061565b611f3e9190613078565b90506000818560020160010154611f55919061309a565b60028601549091506001600160a01b0316611ffa57600554611f80906001600160a01b031683612379565b6004805486546002880154604051633b11f80760e11b81526001600160a01b0393841694637623f00e948794611fc39490938c93919092169186918c91016130ad565b6000604051808303818588803b158015611fdc57600080fd5b505af1158015611ff0573d6000803e3d6000fd5b5050505050611105565b6002850154600554612019916001600160a01b03908116911684612453565b60028501546004805460405163095ea7b360e01b81526001600160a01b0391821692810192909252602482018490529091169063095ea7b3906044016020604051808303816000875af1158015612074573d6000803e3d6000fd5b505050506040513d601f19601f820116820180604052508101906120989190613133565b506004805486546002880154604051633b11f80760e11b81526001600160a01b0393841694637623f00e946120d794938b9391169188918b91016130ad565b600060405180830381600087803b1580156120f157600080fd5b505af1158015612105573d6000803e3d6000fd5b505050505050505050565b604080516001600160a01b0385811660248301528481166044830152606480830185905283518084039091018152608490920183526020820180516001600160e01b03166323b872dd60e01b17905291516000928392908816916121749190613150565b6000604051808303816000865af19150503d80600081146121b1576040519150601f19603f3d011682016040523d82523d6000602084013e6121b6565b606091505b50915091508180156121e05750805115806121e05750808060200190518101906121e09190613133565b6122465760405162461bcd60e51b815260206004820152603160248201527f5472616e7366657248656c7065723a3a7472616e7366657246726f6d3a207472604482015270185b9cd9995c919c9bdb4819985a5b1959607a1b606482015260840161087a565b505050505050565b610a648133612741565b60006000805160206131a08339815191526122738484611691565b6122f3576000848152602082815260408083206001600160a01b03871684529091529020805460ff191660011790556122a93390565b6001600160a01b0316836001600160a01b0316857f2f8788117e7eff1d82e926ec794901d17c78024a50270940304540a733656f0d60405160405180910390a4600191505061072e565b600091505061072e565b60006000805160206131a08339815191526123188484611691565b156122f3576000848152602082815260408083206001600160a01b0387168085529252808320805460ff1916905551339287917ff6391f5c32d9c69d2a47ea670b442974b53935d1edc7fd64eb21e047a839171b9190a4600191505061072e565b604080516000808252602082019092526001600160a01b0384169083906040516123a39190613150565b60006040518083038185875af1925050503d80600081146123e0576040519150601f19603f3d011682016040523d82523d6000602084013e6123e5565b606091505b50509050806111615760405162461bcd60e51b815260206004820152603460248201527f5472616e7366657248656c7065723a3a736166655472616e736665724554483a60448201527308115512081d1c985b9cd9995c8819985a5b195960621b606482015260840161087a565b604080516001600160a01b038481166024830152604480830185905283518084039091018152606490920183526020820180516001600160e01b031663a9059cbb60e01b17905291516000928392908716916124af9190613150565b6000604051808303816000865af19150503d80600081146124ec576040519150601f19603f3d011682016040523d82523d6000602084013e6124f1565b606091505b509150915081801561251b57508051158061251b57508080602001905181019061251b9190613133565b6111055760405162461bcd60e51b815260206004820152602d60248201527f5472616e7366657248656c7065723a3a736166655472616e736665723a20747260448201526c185b9cd9995c8819985a5b1959609a1b606482015260840161087a565b61258561277e565b6000805160206131c0833981519152805460ff191681557f5db9ee0a495bf2e6ff9c91a7834c1ba4fdd244a5e8aa4e537bd38aeae4b073aa335b6040516001600160a01b03909116815260200160405180910390a150565b6125e5611d9b565b6000805160206131c0833981519152805460ff191660011781557f62e78cea01bee320cd4e420270b5ea74000d11b0c9f74754ebdbfc544b05a258336125bf565b6000805160206132008339815191528054600160401b810460ff16159067ffffffffffffffff1660008115801561265a5750825b905060008267ffffffffffffffff1660011480156126775750303b155b905081158015612685575080155b156126a35760405163f92ee8a960e01b815260040160405180910390fd5b845467ffffffffffffffff1916600117855583156126cd57845460ff60401b1916600160401b1785555b6126d56127ae565b6126dd6127ae565b6126e56127b6565b6126ee866127d7565b6064600055831561224657845460ff60401b19168555604051600181527fc7f505b2f371ae2175ee4913f4499e1f2633a7b5936321eed1cdaeb6115181d2906020015b60405180910390a1505050505050565b61274b8282611691565b61277a5760405163e2517d3f60e01b81526001600160a01b03821660048201526024810183905260440161087a565b5050565b6000805160206131c08339815191525460ff166115c257604051638dfc202b60e01b815260040160405180910390fd5b6115c26128e5565b6127be6128e5565b6000805160206131c0833981519152805460ff19169055565b6000805160206132008339815191528054600160401b810460ff16159067ffffffffffffffff1660008115801561280b5750825b905060008267ffffffffffffffff1660011480156128285750303b155b905081158015612836575080155b156128545760405163f92ee8a960e01b815260040160405180910390fd5b845467ffffffffffffffff19166001178555831561287e57845460ff60401b1916600160401b1785555b612889600087612258565b506128a260008051602061318083398151915287612258565b50831561224657845460ff60401b19168555604051600181527fc7f505b2f371ae2175ee4913f4499e1f2633a7b5936321eed1cdaeb6115181d290602001612731565b60008051602061320083398151915254600160401b900460ff166115c257604051631afcd79f60e31b815260040160405180910390fd5b60006020828403121561292e57600080fd5b81356001600160e01b03198116811461294657600080fd5b9392505050565b60006040828403121561295f57600080fd5b50919050565b60006040828403121561297757600080fd5b612946838361294d565b60006080828403121561295f57600080fd5b80356001600160a01b0381168114611b6157600080fd5b6000602082840312156129bc57600080fd5b61294682612993565b6000602082840312156129d757600080fd5b5035919050565b6000610140828403121561295f57600080fd5b60008060006101608486031215612a0757600080fd5b612a1185856129de565b925061014084013567ffffffffffffffff80821115612a2f57600080fd5b818601915086601f830112612a4357600080fd5b813581811115612a5257600080fd5b8760208260061b8501011115612a6757600080fd5b6020830194508093505050509250925092565b60008060408385031215612a8d57600080fd5b82359150612a9d60208401612993565b90509250929050565b60006020828403121561295f57600080fd5b60006060828403121561295f57600080fd5b634e487b7160e01b600052602160045260246000fd5b60038110612af057612af0612aca565b9052565b8681526020810186905260c08101612b0f6040830187612ae0565b6001600160a01b03949094166060820152608081019290925260a0909101529392505050565b60008060408385031215612b4857600080fd5b50508035926020909101359150565b600080600080600060a08688031215612b6f57600080fd5b612b7886612993565b9450612b8660208701612993565b9350612b9460408701612993565b94979396509394606081013594506080013592915050565b60006101408284031215612bbf57600080fd5b61294683836129de565b8c81526101c0810160048d10612be157612be1612aca565b60208281018e90526001600160a01b038d811660408501528c5181166060850152908c015160808401528a1660a083015288516001600160a01b031660c0830152602089015160e083015287610100830152866101208301528561014083015284610160830152836101808301528215156101a08301529d9c50505050505050505050505050565b6020810161072e8284612ae0565b6001600160a01b039687168152948616602086015260408501939093526060840191909152608083015290911660a082015260c00190565b828152813560208083019190915260608201906001600160a01b0390612cd6908501612993565b1660408301529392505050565b828152813560208083019190915260a08201906001600160a01b0390612d0a908501612993565b16604083015260408301356060830152606083013560808301529392505050565b6040805190810167ffffffffffffffff81118282101715612d5c57634e487b7160e01b600052604160045260246000fd5b60405290565b604051610100810167ffffffffffffffff81118282101715612d5c57634e487b7160e01b600052604160045260246000fd5b600060408284031215612da657600080fd5b612dae612d2b565b82358152602083013560208201528091505092915050565b602080825282518282018190526000919060409081850190868401855b82811015612e1057612e0084835180518252602090810151910152565b9284019290850190600101612de3565b5091979650505050505050565b634e487b7160e01b600052603260045260246000fd5b634e487b7160e01b600052601160045260246000fd5b8082018082111561072e5761072e612e33565b6020808252601e908201527f4f776e61626c655061757361626c653a206163636573732064656e6965640000604082015260600190565b600060408284031215612ea557600080fd5b612ead612d2b565b9050612eb882612993565b81526020820135602082015292915050565b8015158114610a6457600080fd5b8035611b6181612eca565b60006101408284031215612ef657600080fd5b612efe612d62565b82358152612f0f8460208501612e93565b6020820152612f218460608501612e93565b6040820152612f3260a08401612993565b6060820152612f4360c08401612993565b608082015260e083013560a082015261010083013560c0820152612f6a6101208401612ed8565b60e08201529392505050565b600060208284031215612f8857600080fd5b5051919050565b6001600160a01b03612fa082612993565b168252602090810135910152565b60006101a08201905085825284356020830152612fd16040830160208701612f8f565b612fe16080830160608701612f8f565b612fed60a08601612993565b60018060a01b0380821660c08501528061300960c08901612993565b1660e0850152505061010060e08601358184015261012081870135818501528087013591505061303881612eca565b151561014083015261016082018490526001600160a01b03831661018083015295945050505050565b808202811582820484141761072e5761072e612e33565b60008261309557634e487b7160e01b600052601260045260246000fd5b500490565b8181038181111561072e5761072e612e33565b600060a08201878352602060018060a01b0380891660208601526040818916604087015287606087015260a06080870152839150865180855260c08701925060208801945060005b818110156131225761311284875180518252602090810151910152565b94840194928201926001016130f5565b50919b9a5050505050505050505050565b60006020828403121561314557600080fd5b815161294681612eca565b6000825160005b818110156131715760208186018101518583015201613157565b50600092019182525091905056fe65d7a28e3265b37a6474929f336521b332c1681b933f6cb9f3376673440d862a02dd7bc7dec4dceedda775e58dd541e08a116c6c53815c0bd028192f7b626800cd5ed15c6e187e77e9aee88184c21f4f2182ab5827cb3b7e07fbedcd63f033009b779b17422d0df92223018b32b4d1fa46e071723d6817e2486d003becc55f00f0c57e16840df040f15088dc2f81fe391c3923bec73e23a9662efc9c229c6a00a2646970667358221220044f7763c3ad947fd6edef62ac21de4651fb7f6b69ee3abf6cb12b6f4f46800164736f6c63430008170033","linkReferences":{"contracts/abstracts/libs/logic/AtomicSwapStateLogic.sol":{"AtomicSwapStateLogic":[{"start":3854,"length":20},{"start":6646,"length":20},{"start":6759,"length":20}]},"contracts/abstracts/libs/utils/AnteHandler.sol":{"AnteHandler":[{"start":2486,"length":20},{"start":3071,"length":20},{"start":7877,"length":20}]},"contracts/abstracts/libs/utils/AtomicSwapMsgValidator.sol":{"AtomicSwapMsgValidator":[{"start":2877,"length":20},{"start":4174,"length":20},{"start":4675,"length":20},{"start":6538,"length":20}]}}},"methodIdentifiers":{"DEFAULT_ADMIN_ROLE()":"a217fddf","PAUSER_ROLE()":"e63ab1e9","acceptBid((bytes32,address))":"02206661","addAdmin(address)":"70480275","addPauser(address)":"82dc1ec4","bids(bytes32,address)":"66e929bf","buyerFeeRate()":"53f10c80","cancelBid(bytes32)":"df7cec28","cancelSwap((bytes32))":"37be0022","counteroffers(bytes32,address)":"a743a3d0","getRoleAdmin(bytes32)":"248a9ca3","grantRole(bytes32,address)":"2f2ff15d","hasRole(bytes32,address)":"91d14854","initialize(address,address,address,uint256,uint256)":"a6b63eb8","isAdmin(address)":"24d7806c","isPauser(address)":"46fbf68e","makeSwap((bytes32,(address,uint256),(address,uint256),address,address,uint256,uint256,bool))":"d2a25283","makeSwapWithVesting((bytes32,(address,uint256),(address,uint256),address,address,uint256,uint256,bool),(uint256,uint256)[])":"2b2b6511","paginationSize()":"3d538ecf","pause()":"8456cb59","paused()":"5c975abb","placeBid((uint256,address,bytes32,uint256))":"16b50a82","removeAdmin(address)":"1785f53c","removePauser(address)":"6b2c0f55","renounceRole(bytes32,address)":"36568abe","revokeRole(bytes32,address)":"d547741f","sellerFeeRate()":"89f68190","setPaginationSize(uint256)":"f2407ca4","supportsInterface(bytes4)":"01ffc9a7","swapOrder(bytes32)":"fca6caa1","swapOrderVestingParams(bytes32,uint256)":"8d6cb1c4","takeSwap((bytes32,address))":"06be619c","unpause()":"3f4ba83a","updateBid((bytes32,address,uint256))":"3d9bd2fc"},"id":7}