{
  "_format": "hh-sol-artifact-1",
  "contractName": "AtomicSwapMsgValidator",
  "sourceName": "contracts/abstracts/libs/utils/AtomicSwapMsgValidator.sol",
  "abi": [
    {
      "inputs": [
        {
          "internalType": "address",
          "name": "contractAddress",
          "type": "address"
        }
      ],
      "name": "InvalidContractAddress",
      "type": "error"
    },
    {
      "inputs": [
        {
          "internalType": "uint256",
          "name": "provided",
          "type": "uint256"
        },
        {
          "internalType": "uint256",
          "name": "maximum",
          "type": "uint256"
        }
      ],
      "name": "InvalidExpirationTime",
      "type": "error"
    },
    {
      "inputs": [],
      "name": "InvalidMinimumBidLimit",
      "type": "error"
    },
    {
      "inputs": [],
      "name": "InvalidReleasePercentage",
      "type": "error"
    },
    {
      "inputs": [],
      "name": "InvalidTotalPercentage",
      "type": "error"
    },
    {
      "inputs": [
        {
          "internalType": "uint256",
          "name": "current",
          "type": "uint256"
        },
        {
          "internalType": "uint256",
          "name": "expiredTime",
          "type": "uint256"
        }
      ],
      "name": "OrderAlreadyExpired",
      "type": "error"
    },
    {
      "inputs": [],
      "name": "OverMaximumReleaseStep",
      "type": "error"
    },
    {
      "inputs": [],
      "name": "UnauthorizedCancelAction",
      "type": "error"
    },
    {
      "inputs": [],
      "name": "UnauthorizedSender",
      "type": "error"
    },
    {
      "inputs": [],
      "name": "UnauthorizedTakeAction",
      "type": "error"
    },
    {
      "inputs": [],
      "name": "ZeroReleaseSchedule",
      "type": "error"
    },
    {
      "inputs": [
        {
          "internalType": "address",
          "name": "_addr",
          "type": "address"
        }
      ],
      "name": "isContract",
      "outputs": [
        {
          "internalType": "bool",
          "name": "",
          "type": "bool"
        }
      ],
      "stateMutability": "view",
      "type": "function"
    },
    {
      "inputs": [
        {
          "components": [
            {
              "internalType": "bytes32",
              "name": "uuid",
              "type": "bytes32"
            },
            {
              "components": [
                {
                  "internalType": "address",
                  "name": "token",
                  "type": "address"
                },
                {
                  "internalType": "uint256",
                  "name": "amount",
                  "type": "uint256"
                }
              ],
              "internalType": "struct IAtomicSwapBase.Coin",
              "name": "sellToken",
              "type": "tuple"
            },
            {
              "components": [
                {
                  "internalType": "address",
                  "name": "token",
                  "type": "address"
                },
                {
                  "internalType": "uint256",
                  "name": "amount",
                  "type": "uint256"
                }
              ],
              "internalType": "struct IAtomicSwapBase.Coin",
              "name": "buyToken",
              "type": "tuple"
            },
            {
              "internalType": "address",
              "name": "maker",
              "type": "address"
            },
            {
              "internalType": "address",
              "name": "desiredTaker",
              "type": "address"
            },
            {
              "internalType": "uint256",
              "name": "minBidAmount",
              "type": "uint256"
            },
            {
              "internalType": "uint256",
              "name": "expireAt",
              "type": "uint256"
            },
            {
              "internalType": "bool",
              "name": "acceptBid",
              "type": "bool"
            }
          ],
          "internalType": "struct IAtomicSwapBase.MakeSwapMsg",
          "name": "makeswap",
          "type": "tuple"
        }
      ],
      "name": "validateMakeSwapParams",
      "outputs": [],
      "stateMutability": "view",
      "type": "function"
    },
    {
      "inputs": [
        {
          "components": [
            {
              "internalType": "uint256",
              "name": "durationInHours",
              "type": "uint256"
            },
            {
              "internalType": "uint256",
              "name": "percentage",
              "type": "uint256"
            }
          ],
          "internalType": "struct IAtomicSwapBase.Release[]",
          "name": "releases",
          "type": "tuple[]"
        }
      ],
      "name": "validateVestingParams",
      "outputs": [],
      "stateMutability": "pure",
      "type": "function"
    }
  ],
  "bytecode": "0x610e12610053600b82828239805160001a607314610046577f4e487b7100000000000000000000000000000000000000000000000000000000600052600060045260246000fd5b30600052607381538281f3fe73000000000000000000000000000000000000000030146080604052600436106100615760003560e01c8063162790551461006657806333b988f51461009657806362e454f7146100b25780639a0ebe00146100ce578063c3aee15d146100ea575b600080fd5b610080600480360381019061007b9190610771565b610106565b60405161008d91906107b9565b60405180910390f35b6100b060048036038101906100ab91906109b8565b61011f565b005b6100cc60048036038101906100c79190610abd565b610262565b005b6100e860048036038101906100e39190610c45565b610407565b005b61010460048036038101906100ff9190610c73565b610673565b005b600080823b905060008163ffffffff1611915050919050565b600081510361015a576040517ffd68e07a00000000000000000000000000000000000000000000000000000000815260040160405180910390fd5b6000805b82518110156101e657600083828151811061017c5761017b610ca0565b5b6020026020010151602001519050600081036101c4576040517f2b82b70d00000000000000000000000000000000000000000000000000000000815260040160405180910390fd5b80836101d09190610cfe565b92505080806101de90610d32565b91505061015e565b506127108114610222576040517f0b8ad7f100000000000000000000000000000000000000000000000000000000815260040160405180910390fd5b60968251111561025e576040517f1531e37f00000000000000000000000000000000000000000000000000000000815260040160405180910390fd5b5050565b600073ffffffffffffffffffffffffffffffffffffffff16816020015173ffffffffffffffffffffffffffffffffffffffff16036102cc576040517f0809490800000000000000000000000000000000000000000000000000000000815260040160405180910390fd5b600073ffffffffffffffffffffffffffffffffffffffff168260040160009054906101000a900473ffffffffffffffffffffffffffffffffffffffff1673ffffffffffffffffffffffffffffffffffffffff161415801561037d57503373ffffffffffffffffffffffffffffffffffffffff168260040160009054906101000a900473ffffffffffffffffffffffffffffffffffffffff1673ffffffffffffffffffffffffffffffffffffffff1614155b156103b4576040517fbe544a2b00000000000000000000000000000000000000000000000000000000815260040160405180910390fd5b4282600b01541015610403574282600b01546040517f0fe77d7d0000000000000000000000000000000000000000000000000000000081526004016103fa929190610d89565b60405180910390fd5b5050565b600073ffffffffffffffffffffffffffffffffffffffff1681602001516000015173ffffffffffffffffffffffffffffffffffffffff161415801561045a5750610458816020015160000151610106565b155b156104a4578060200151600001516040517f19bb402900000000000000000000000000000000000000000000000000000000815260040161049b9190610dc1565b60405180910390fd5b600073ffffffffffffffffffffffffffffffffffffffff1681604001516000015173ffffffffffffffffffffffffffffffffffffffff16141580156104f757506104f5816040015160000151610106565b155b15610541578060400151600001516040517f19bb40290000000000000000000000000000000000000000000000000000000081526004016105389190610dc1565b60405180910390fd5b60008160a001511161057f576040517f5fe07c7d00000000000000000000000000000000000000000000000000000000815260040160405180910390fd5b600073ffffffffffffffffffffffffffffffffffffffff163373ffffffffffffffffffffffffffffffffffffffff1614806105ea5750806060015173ffffffffffffffffffffffffffffffffffffffff163373ffffffffffffffffffffffffffffffffffffffff1614155b15610621576040517f0809490800000000000000000000000000000000000000000000000000000000815260040160405180910390fd5b428160c001511015610670578060c00151426040517ff00605cf000000000000000000000000000000000000000000000000000000008152600401610667929190610d89565b60405180910390fd5b50565b3373ffffffffffffffffffffffffffffffffffffffff168160010160019054906101000a900473ffffffffffffffffffffffffffffffffffffffff1673ffffffffffffffffffffffffffffffffffffffff16146106fc576040517f978f045600000000000000000000000000000000000000000000000000000000815260040160405180910390fd5b50565b6000604051905090565b600080fd5b600080fd5b600073ffffffffffffffffffffffffffffffffffffffff82169050919050565b600061073e82610713565b9050919050565b61074e81610733565b811461075957600080fd5b50565b60008135905061076b81610745565b92915050565b60006020828403121561078757610786610709565b5b60006107958482850161075c565b91505092915050565b60008115159050919050565b6107b38161079e565b82525050565b60006020820190506107ce60008301846107aa565b92915050565b600080fd5b6000601f19601f8301169050919050565b7f4e487b7100000000000000000000000000000000000000000000000000000000600052604160045260246000fd5b610822826107d9565b810181811067ffffffffffffffff82111715610841576108406107ea565b5b80604052505050565b60006108546106ff565b90506108608282610819565b919050565b600067ffffffffffffffff8211156108805761087f6107ea565b5b602082029050602081019050919050565b600080fd5b600080fd5b6000819050919050565b6108ae8161089b565b81146108b957600080fd5b50565b6000813590506108cb816108a5565b92915050565b6000604082840312156108e7576108e6610896565b5b6108f1604061084a565b90506000610901848285016108bc565b6000830152506020610915848285016108bc565b60208301525092915050565b600061093461092f84610865565b61084a565b9050808382526020820190506040840283018581111561095757610956610891565b5b835b81811015610980578061096c88826108d1565b845260208401935050604081019050610959565b5050509392505050565b600082601f83011261099f5761099e6107d4565b5b81356109af848260208601610921565b91505092915050565b6000602082840312156109ce576109cd610709565b5b600082013567ffffffffffffffff8111156109ec576109eb61070e565b5b6109f88482850161098a565b91505092915050565b6000819050919050565b610a1481610a01565b8114610a1f57600080fd5b50565b600081359050610a3181610a0b565b92915050565b6000819050919050565b610a4a81610a37565b8114610a5557600080fd5b50565b600081359050610a6781610a41565b92915050565b600060408284031215610a8357610a82610896565b5b610a8d604061084a565b90506000610a9d84828501610a58565b6000830152506020610ab18482850161075c565b60208301525092915050565b60008060608385031215610ad457610ad3610709565b5b6000610ae285828601610a22565b9250506020610af385828601610a6d565b9150509250929050565b600060408284031215610b1357610b12610896565b5b610b1d604061084a565b90506000610b2d8482850161075c565b6000830152506020610b41848285016108bc565b60208301525092915050565b610b568161079e565b8114610b6157600080fd5b50565b600081359050610b7381610b4d565b92915050565b60006101408284031215610b9057610b8f610896565b5b610b9b61010061084a565b90506000610bab84828501610a58565b6000830152506020610bbf84828501610afd565b6020830152506060610bd384828501610afd565b60408301525060a0610be78482850161075c565b60608301525060c0610bfb8482850161075c565b60808301525060e0610c0f848285016108bc565b60a083015250610100610c24848285016108bc565b60c083015250610120610c3984828501610b64565b60e08301525092915050565b60006101408284031215610c5c57610c5b610709565b5b6000610c6a84828501610b79565b91505092915050565b600060208284031215610c8957610c88610709565b5b6000610c9784828501610a22565b91505092915050565b7f4e487b7100000000000000000000000000000000000000000000000000000000600052603260045260246000fd5b7f4e487b7100000000000000000000000000000000000000000000000000000000600052601160045260246000fd5b6000610d098261089b565b9150610d148361089b565b9250828201905080821115610d2c57610d2b610ccf565b5b92915050565b6000610d3d8261089b565b91507fffffffffffffffffffffffffffffffffffffffffffffffffffffffffffffffff8203610d6f57610d6e610ccf565b5b600182019050919050565b610d838161089b565b82525050565b6000604082019050610d9e6000830185610d7a565b610dab6020830184610d7a565b9392505050565b610dbb81610733565b82525050565b6000602082019050610dd66000830184610db2565b9291505056fea2646970667358221220498b72344e1c9597a4032b5ea0bedab69037c3044b1e4bc221edf88b039709a764736f6c63430008140033",
  "linkReferences": {},
  "deployedLinkReferences": {}
}