{
  "_format": "hh-sol-artifact-1",
  "contractName": "AtomicSwapMsgValidator",
  "sourceName": "contracts/abstracts/libs/utils/AtomicSwapMsgValidator.sol",
  "abi": [
    {
      "inputs": [
        {
          "internalType": "address",
          "name": "contractAddress",
          "type": "address"
        }
      ],
      "name": "InvalidContractAddress",
      "type": "error"
    },
    {
      "inputs": [
        {
          "internalType": "uint256",
          "name": "provided",
          "type": "uint256"
        },
        {
          "internalType": "uint256",
          "name": "maximum",
          "type": "uint256"
        }
      ],
      "name": "InvalidExpirationTime",
      "type": "error"
    },
    {
      "inputs": [],
      "name": "InvalidMinimumBidLimit",
      "type": "error"
    },
    {
      "inputs": [],
      "name": "InvalidReleasePercentage",
      "type": "error"
    },
    {
      "inputs": [],
      "name": "InvalidTotalPercentage",
      "type": "error"
    },
    {
      "inputs": [],
      "name": "OverMaximumReleaseStep",
      "type": "error"
    },
    {
      "inputs": [],
      "name": "UnauthorizedCancelAction",
      "type": "error"
    },
    {
      "inputs": [],
      "name": "UnauthorizedSender",
      "type": "error"
    },
    {
      "inputs": [],
      "name": "UnauthorizedTakeAction",
      "type": "error"
    },
    {
      "inputs": [],
      "name": "ZeroReleaseSchedule",
      "type": "error"
    },
    {
      "inputs": [
        {
          "internalType": "address",
          "name": "_addr",
          "type": "address"
        }
      ],
      "name": "isContract",
      "outputs": [
        {
          "internalType": "bool",
          "name": "",
          "type": "bool"
        }
      ],
      "stateMutability": "view",
      "type": "function"
    },
    {
      "inputs": [
        {
          "components": [
            {
              "internalType": "bytes32",
              "name": "uuid",
              "type": "bytes32"
            },
            {
              "components": [
                {
                  "internalType": "address",
                  "name": "token",
                  "type": "address"
                },
                {
                  "internalType": "uint256",
                  "name": "amount",
                  "type": "uint256"
                }
              ],
              "internalType": "struct IAtomicSwapBase.Coin",
              "name": "sellToken",
              "type": "tuple"
            },
            {
              "components": [
                {
                  "internalType": "address",
                  "name": "token",
                  "type": "address"
                },
                {
                  "internalType": "uint256",
                  "name": "amount",
                  "type": "uint256"
                }
              ],
              "internalType": "struct IAtomicSwapBase.Coin",
              "name": "buyToken",
              "type": "tuple"
            },
            {
              "internalType": "address",
              "name": "maker",
              "type": "address"
            },
            {
              "internalType": "address",
              "name": "desiredTaker",
              "type": "address"
            },
            {
              "internalType": "uint256",
              "name": "minBidAmount",
              "type": "uint256"
            },
            {
              "internalType": "uint256",
              "name": "expireAt",
              "type": "uint256"
            },
            {
              "internalType": "bool",
              "name": "acceptBid",
              "type": "bool"
            }
          ],
          "internalType": "struct IAtomicSwapBase.MakeSwapMsg",
          "name": "makeswap",
          "type": "tuple"
        }
      ],
      "name": "validateMakeSwapParams",
      "outputs": [],
      "stateMutability": "view",
      "type": "function"
    },
    {
      "inputs": [
        {
          "components": [
            {
              "internalType": "bytes32",
              "name": "orderID",
              "type": "bytes32"
            },
            {
              "internalType": "address",
              "name": "takerReceiver",
              "type": "address"
            }
          ],
          "internalType": "struct IAtomicSwapBase.TakeSwapMsg",
          "name": "takeswap",
          "type": "tuple"
        }
      ],
      "name": "validateTakeSwapParams",
      "outputs": [],
      "stateMutability": "pure",
      "type": "function"
    },
    {
      "inputs": [
        {
          "components": [
            {
              "internalType": "uint256",
              "name": "durationInHours",
              "type": "uint256"
            },
            {
              "internalType": "uint256",
              "name": "percentage",
              "type": "uint256"
            }
          ],
          "internalType": "struct IAtomicSwapBase.Release[]",
          "name": "releases",
          "type": "tuple[]"
        }
      ],
      "name": "validateVestingParams",
      "outputs": [],
      "stateMutability": "pure",
      "type": "function"
    }
  ],
  "bytecode": "0x611489610053600b82828239805160001a607314610046577f4e487b7100000000000000000000000000000000000000000000000000000000600052600060045260246000fd5b30600052607381538281f3fe730000000000000000000000000000000000000000301460806040526004361061006c5760003560e01c8063162790551461007157806333b988f5146100a15780637aa10b6a146100bd5780639a0ebe00146100d9578063c27eeaac146100f5578063c3aee15d14610111575b600080fd5b61008b60048036038101906100869190610dfb565b61012d565b6040516100989190610e43565b60405180910390f35b6100bb60048036038101906100b69190611042565b6101bf565b005b6100d760048036038101906100d291906110c1565b610583565b005b6100f360048036038101906100ee919061126c565b6106e6565b005b61010f600480360381019061010a91906112ea565b610b92565b005b61012b600480360381019061012691906110c1565b610c77565b005b6000610143675b4c45d3329eb43860c01b610d7b565b6101576750beae34d826e78060c01b610d7b565b61016b6776c139d8d301d16a60c01b610d7b565b600061018167d1a71a9d4df19dcd60c01b610d7b565b823b905061019967b1289c86d8b25f7e60c01b610d7b565b6101ad6736c4bcf58b83c79a60c01b610d7b565b60008163ffffffff1611915050919050565b6101d36767c73532ecab35da60c01b610d7b565b6101e76738ad17ced532a09c60c01b610d7b565b6101fb6719586cd41d6685f260c01b610d7b565b600081510361025e5761021867d565f861eba43d5960c01b610d7b565b61022c678cc15cbd5857699360c01b610d7b565b6040517ffd68e07a00000000000000000000000000000000000000000000000000000000815260040160405180910390fd5b61027267bc03002bc35fed2860c01b610d7b565b61028667435100b04bf4971a60c01b610d7b565b61029a674da44e058d8144f260c01b610d7b565b60006102b06751fd4365fbd3180d60c01b610d7b565b6102c4676f554e24381e0f6960c01b610d7b565b60005b825181101561043f576102e4676d4c6fa1870a7dc360c01b610d7b565b6102f867f6ee19ac69bc5ef760c01b610d7b565b600083828151811061030d5761030c611317565b5b602002602001015160200151905061032f67da1149aa5cf6895060c01b610d7b565b61034367209ef427472f165660c01b610d7b565b600081108015610363575061036267f67b5f7a706d25f660c01b610d7e565b5b8061039657506000821180156103795750600081145b801561039557506103946770be7a22637ad10d60c01b610d7e565b5b5b156103f5576103af6714e7d0ab8127f05460c01b610d7b565b6103c3670c02c4326488a32360c01b610d7b565b6040517f2b82b70d00000000000000000000000000000000000000000000000000000000815260040160405180910390fd5b61040967991ca455a8a84e8d60c01b610d7b565b61041d675130a34032e801c760c01b610d7b565b80836104299190611375565b9250508080610437906113a9565b9150506102c7565b506104546744ba011051292f4860c01b610d7b565b6104686782603bf6ab44275760c01b610d7b565b61271081146104cb5761048567c50373a75fa1b66b60c01b610d7b565b610499675d3781495bc15ef360c01b610d7b565b6040517f0b8ad7f100000000000000000000000000000000000000000000000000000000815260040160405180910390fd5b6104df67cafcbb129da54c6a60c01b610d7b565b6104f367f0208871e92f801360c01b610d7b565b610507674724cd1a14ded26560c01b610d7b565b60968251111561056b5761052567df9356f57cc63f3060c01b610d7b565b61053967e498554fa690f7b960c01b610d7b565b6040517f1531e37f00000000000000000000000000000000000000000000000000000000815260040160405180910390fd5b61057f67a87a7063f6d22a6860c01b610d7b565b5050565b610597674384c15004b5c11460c01b610d7b565b6105ab672b66ff9b8e8dca7960c01b610d7b565b6105bf67a076235c96f89f8e60c01b610d7b565b600073ffffffffffffffffffffffffffffffffffffffff168160040160009054906101000a900473ffffffffffffffffffffffffffffffffffffffff1673ffffffffffffffffffffffffffffffffffffffff161415801561067057503373ffffffffffffffffffffffffffffffffffffffff168160040160009054906101000a900473ffffffffffffffffffffffffffffffffffffffff1673ffffffffffffffffffffffffffffffffffffffff1614155b156106cf5761068967c1bf389306182c9060c01b610d7b565b61069d671b04126822dbf33d60c01b610d7b565b6040517fbe544a2b00000000000000000000000000000000000000000000000000000000815260040160405180910390fd5b6106e367d63b23d52f8d368a60c01b610d7b565b50565b6106fa678c0813353e78b7e460c01b610d7b565b61070e677e491f87a95ec46260c01b610d7b565b610722672350fb6ecdaab46060c01b610d7b565b600073ffffffffffffffffffffffffffffffffffffffff1681602001516000015173ffffffffffffffffffffffffffffffffffffffff1614158015610775575061077381602001516000015161012d565b155b156107e75761078e6741137b8b13922e0160c01b610d7b565b6107a2670fa1b2c0e6feb35360c01b610d7b565b8060200151600001516040517f19bb40290000000000000000000000000000000000000000000000000000000081526004016107de9190611400565b60405180910390fd5b6107fb67b1b2c24944f9198460c01b610d7b565b61080f671738033ac4743bc760c01b610d7b565b61082367369b263f9690876860c01b610d7b565b600073ffffffffffffffffffffffffffffffffffffffff1681604001516000015173ffffffffffffffffffffffffffffffffffffffff1614158015610876575061087481604001516000015161012d565b155b156108e85761088f67f938427120a6f3ff60c01b610d7b565b6108a3674d7f182039e6ee1e60c01b610d7b565b8060400151600001516040517f19bb40290000000000000000000000000000000000000000000000000000000081526004016108df9190611400565b60405180910390fd5b6108fc67f96f24f9b0319ad060c01b610d7b565b61091067ede1b52868e7d9b560c01b610d7b565b61092467ffbaecef789645c960c01b610d7b565b60008160a001511161098a5761094467dc292fbf9ac6823260c01b610d7b565b610958678084903cdd1eb77e60c01b610d7b565b6040517f5fe07c7d00000000000000000000000000000000000000000000000000000000815260040160405180910390fd5b61099e67deb730439fb0f50260c01b610d7b565b6109b2670645b817ba0ec2bd60c01b610d7b565b6109c667c5d25564715597b160c01b610d7b565b600073ffffffffffffffffffffffffffffffffffffffff163373ffffffffffffffffffffffffffffffffffffffff16148015610a125750610a11672d1720c60456eef360c01b610d7e565b5b80610a695750806060015173ffffffffffffffffffffffffffffffffffffffff163373ffffffffffffffffffffffffffffffffffffffff1614158015610a685750610a6767e6dc8579e07e218d60c01b610d7e565b5b5b15610ac857610a8267ef2c9124e4d6f92560c01b610d7b565b610a9667af3bae9488c6a6d960c01b610d7b565b6040517f0809490800000000000000000000000000000000000000000000000000000000815260040160405180910390fd5b610adc679f4fff4c5ab2306260c01b610d7b565b610af067587141bd0b0df3ac60c01b610d7b565b610b0467cb1beec6444d85e760c01b610d7b565b428160c001511015610b7b57610b2467a5ed61012fe0ad2660c01b610d7b565b610b3867874c6db9043f459060c01b610d7b565b8060c00151426040517ff00605cf000000000000000000000000000000000000000000000000000000008152600401610b7292919061142a565b60405180910390fd5b610b8f6728928cb232a8ae9360c01b610d7b565b50565b610ba66766c0977e62f4c97760c01b610d7b565b610bba673358d7ff7abc885f60c01b610d7b565b610bce67590a76e29da0f21a60c01b610d7b565b600073ffffffffffffffffffffffffffffffffffffffff16816020015173ffffffffffffffffffffffffffffffffffffffff1603610c6057610c1a673d6e3f948dfdd11660c01b610d7b565b610c2e6717f4f4a97a395e3360c01b610d7b565b6040517f0809490800000000000000000000000000000000000000000000000000000000815260040160405180910390fd5b610c7467d4368f17c4e0e87c60c01b610d7b565b50565b610c8b6791259554e8c34d6960c01b610d7b565b610c9f67d1505abbd9434ef360c01b610d7b565b610cb3671877d13b1c237c9060c01b610d7b565b3373ffffffffffffffffffffffffffffffffffffffff168160010160019054906101000a900473ffffffffffffffffffffffffffffffffffffffff1673ffffffffffffffffffffffffffffffffffffffff1614610d6457610d1e67a3711a6eee942f0760c01b610d7b565b610d3267a4ab9bf7edec2ae660c01b610d7b565b6040517f978f045600000000000000000000000000000000000000000000000000000000815260040160405180910390fd5b610d786786af009c8f9b232f60c01b610d7b565b50565b50565b600060019050919050565b6000604051905090565b600080fd5b600080fd5b600073ffffffffffffffffffffffffffffffffffffffff82169050919050565b6000610dc882610d9d565b9050919050565b610dd881610dbd565b8114610de357600080fd5b50565b600081359050610df581610dcf565b92915050565b600060208284031215610e1157610e10610d93565b5b6000610e1f84828501610de6565b91505092915050565b60008115159050919050565b610e3d81610e28565b82525050565b6000602082019050610e586000830184610e34565b92915050565b600080fd5b6000601f19601f8301169050919050565b7f4e487b7100000000000000000000000000000000000000000000000000000000600052604160045260246000fd5b610eac82610e63565b810181811067ffffffffffffffff82111715610ecb57610eca610e74565b5b80604052505050565b6000610ede610d89565b9050610eea8282610ea3565b919050565b600067ffffffffffffffff821115610f0a57610f09610e74565b5b602082029050602081019050919050565b600080fd5b600080fd5b6000819050919050565b610f3881610f25565b8114610f4357600080fd5b50565b600081359050610f5581610f2f565b92915050565b600060408284031215610f7157610f70610f20565b5b610f7b6040610ed4565b90506000610f8b84828501610f46565b6000830152506020610f9f84828501610f46565b60208301525092915050565b6000610fbe610fb984610eef565b610ed4565b90508083825260208201905060408402830185811115610fe157610fe0610f1b565b5b835b8181101561100a5780610ff68882610f5b565b845260208401935050604081019050610fe3565b5050509392505050565b600082601f83011261102957611028610e5e565b5b8135611039848260208601610fab565b91505092915050565b60006020828403121561105857611057610d93565b5b600082013567ffffffffffffffff81111561107657611075610d98565b5b61108284828501611014565b91505092915050565b6000819050919050565b61109e8161108b565b81146110a957600080fd5b50565b6000813590506110bb81611095565b92915050565b6000602082840312156110d7576110d6610d93565b5b60006110e5848285016110ac565b91505092915050565b6000819050919050565b611101816110ee565b811461110c57600080fd5b50565b60008135905061111e816110f8565b92915050565b60006040828403121561113a57611139610f20565b5b6111446040610ed4565b9050600061115484828501610de6565b600083015250602061116884828501610f46565b60208301525092915050565b61117d81610e28565b811461118857600080fd5b50565b60008135905061119a81611174565b92915050565b600061014082840312156111b7576111b6610f20565b5b6111c2610100610ed4565b905060006111d28482850161110f565b60008301525060206111e684828501611124565b60208301525060606111fa84828501611124565b60408301525060a061120e84828501610de6565b60608301525060c061122284828501610de6565b60808301525060e061123684828501610f46565b60a08301525061010061124b84828501610f46565b60c0830152506101206112608482850161118b565b60e08301525092915050565b6000610140828403121561128357611282610d93565b5b6000611291848285016111a0565b91505092915050565b6000604082840312156112b0576112af610f20565b5b6112ba6040610ed4565b905060006112ca8482850161110f565b60008301525060206112de84828501610de6565b60208301525092915050565b600060408284031215611300576112ff610d93565b5b600061130e8482850161129a565b91505092915050565b7f4e487b7100000000000000000000000000000000000000000000000000000000600052603260045260246000fd5b7f4e487b7100000000000000000000000000000000000000000000000000000000600052601160045260246000fd5b600061138082610f25565b915061138b83610f25565b92508282019050808211156113a3576113a2611346565b5b92915050565b60006113b482610f25565b91507fffffffffffffffffffffffffffffffffffffffffffffffffffffffffffffffff82036113e6576113e5611346565b5b600182019050919050565b6113fa81610dbd565b82525050565b600060208201905061141560008301846113f1565b92915050565b61142481610f25565b82525050565b600060408201905061143f600083018561141b565b61144c602083018461141b565b939250505056fea2646970667358221220ca17949f733b224cbfd7cf5e8e91529b9beb924d44dda0c6ce25734c4214a05e64736f6c63430008140033",
  "linkReferences": {},
  "deployedLinkReferences": {}
}