{
  "_format": "hh-sol-artifact-1",
  "contractName": "InterchainAtomicSwap",
  "sourceName": "contracts/interchain_atomicswap/InterchainAtomicSwap.sol",
  "abi": [
    {
      "inputs": [
        {
          "internalType": "uint256",
          "name": "provided",
          "type": "uint256"
        },
        {
          "internalType": "uint256",
          "name": "expectedExpiry",
          "type": "uint256"
        }
      ],
      "name": "BidAlreadyExpired",
      "type": "error"
    },
    {
      "inputs": [],
      "name": "BidAlreadyPlaced",
      "type": "error"
    },
    {
      "inputs": [],
      "name": "BidDoesNotExist",
      "type": "error"
    },
    {
      "inputs": [],
      "name": "BidNotAllowed",
      "type": "error"
    },
    {
      "inputs": [
        {
          "internalType": "enum IAtomicSwapBase.BidStatus",
          "name": "status",
          "type": "uint8"
        }
      ],
      "name": "BidNotInPlacedStatus",
      "type": "error"
    },
    {
      "inputs": [
        {
          "internalType": "address",
          "name": "contractAddress",
          "type": "address"
        }
      ],
      "name": "InvalidContractAddress",
      "type": "error"
    },
    {
      "inputs": [
        {
          "internalType": "uint256",
          "name": "provided",
          "type": "uint256"
        },
        {
          "internalType": "uint256",
          "name": "maximum",
          "type": "uint256"
        }
      ],
      "name": "InvalidExpirationTime",
      "type": "error"
    },
    {
      "inputs": [],
      "name": "InvalidInitialization",
      "type": "error"
    },
    {
      "inputs": [],
      "name": "InvalidMinimumBidLimit",
      "type": "error"
    },
    {
      "inputs": [
        {
          "internalType": "uint256",
          "name": "amount",
          "type": "uint256"
        }
      ],
      "name": "MismatchedBidAmount",
      "type": "error"
    },
    {
      "inputs": [],
      "name": "NoBidPlaced",
      "type": "error"
    },
    {
      "inputs": [
        {
          "internalType": "uint256",
          "name": "amount",
          "type": "uint256"
        },
        {
          "internalType": "uint256",
          "name": "allowance",
          "type": "uint256"
        }
      ],
      "name": "NotAllowedTransferAmount",
      "type": "error"
    },
    {
      "inputs": [
        {
          "internalType": "uint256",
          "name": "real",
          "type": "uint256"
        },
        {
          "internalType": "uint256",
          "name": "expected",
          "type": "uint256"
        }
      ],
      "name": "NotEnoughFund",
      "type": "error"
    },
    {
      "inputs": [],
      "name": "NotInitializing",
      "type": "error"
    },
    {
      "inputs": [],
      "name": "OrderAlreadyCompleted",
      "type": "error"
    },
    {
      "inputs": [],
      "name": "OrderAlreadyExists",
      "type": "error"
    },
    {
      "inputs": [],
      "name": "OrderDoesNotExist",
      "type": "error"
    },
    {
      "inputs": [],
      "name": "OrderNotAllowTake",
      "type": "error"
    },
    {
      "inputs": [
        {
          "internalType": "address",
          "name": "owner",
          "type": "address"
        }
      ],
      "name": "OwnableInvalidOwner",
      "type": "error"
    },
    {
      "inputs": [
        {
          "internalType": "address",
          "name": "account",
          "type": "address"
        }
      ],
      "name": "OwnableUnauthorizedAccount",
      "type": "error"
    },
    {
      "inputs": [],
      "name": "ReentrancyGuardReentrantCall",
      "type": "error"
    },
    {
      "inputs": [
        {
          "internalType": "address",
          "name": "caller",
          "type": "address"
        },
        {
          "internalType": "address",
          "name": "expected",
          "type": "address"
        }
      ],
      "name": "UnauthorizedAcceptAction",
      "type": "error"
    },
    {
      "inputs": [],
      "name": "UnauthorizedCancelAction",
      "type": "error"
    },
    {
      "inputs": [],
      "name": "UnauthorizedSender",
      "type": "error"
    },
    {
      "inputs": [],
      "name": "UnauthorizedTakeAction",
      "type": "error"
    },
    {
      "inputs": [],
      "name": "UnsupportedTokenPair",
      "type": "error"
    },
    {
      "anonymous": false,
      "inputs": [
        {
          "indexed": true,
          "internalType": "bytes32",
          "name": "orderID",
          "type": "bytes32"
        },
        {
          "indexed": true,
          "internalType": "address",
          "name": "bidder",
          "type": "address"
        },
        {
          "indexed": true,
          "internalType": "uint256",
          "name": "amount",
          "type": "uint256"
        }
      ],
      "name": "AcceptedBid",
      "type": "event"
    },
    {
      "anonymous": false,
      "inputs": [
        {
          "indexed": true,
          "internalType": "bytes32",
          "name": "id",
          "type": "bytes32"
        }
      ],
      "name": "AtomicSwapOrderCanceled",
      "type": "event"
    },
    {
      "anonymous": false,
      "inputs": [
        {
          "indexed": true,
          "internalType": "bytes32",
          "name": "id",
          "type": "bytes32"
        }
      ],
      "name": "AtomicSwapOrderCreated",
      "type": "event"
    },
    {
      "anonymous": false,
      "inputs": [
        {
          "indexed": true,
          "internalType": "address",
          "name": "maker",
          "type": "address"
        },
        {
          "indexed": true,
          "internalType": "address",
          "name": "taker",
          "type": "address"
        },
        {
          "indexed": true,
          "internalType": "bytes32",
          "name": "id",
          "type": "bytes32"
        }
      ],
      "name": "AtomicSwapOrderTook",
      "type": "event"
    },
    {
      "anonymous": false,
      "inputs": [
        {
          "indexed": true,
          "internalType": "bytes32",
          "name": "orderID",
          "type": "bytes32"
        },
        {
          "indexed": true,
          "internalType": "address",
          "name": "bidder",
          "type": "address"
        }
      ],
      "name": "CanceledBid",
      "type": "event"
    },
    {
      "anonymous": false,
      "inputs": [
        {
          "indexed": false,
          "internalType": "uint64",
          "name": "version",
          "type": "uint64"
        }
      ],
      "name": "Initialized",
      "type": "event"
    },
    {
      "anonymous": false,
      "inputs": [
        {
          "indexed": true,
          "internalType": "address",
          "name": "previousOwner",
          "type": "address"
        },
        {
          "indexed": true,
          "internalType": "address",
          "name": "newOwner",
          "type": "address"
        }
      ],
      "name": "OwnershipTransferred",
      "type": "event"
    },
    {
      "anonymous": false,
      "inputs": [
        {
          "indexed": true,
          "internalType": "bytes32",
          "name": "orderID",
          "type": "bytes32"
        },
        {
          "indexed": true,
          "internalType": "address",
          "name": "bidder",
          "type": "address"
        },
        {
          "indexed": true,
          "internalType": "uint256",
          "name": "amount",
          "type": "uint256"
        }
      ],
      "name": "PlacedBid",
      "type": "event"
    },
    {
      "anonymous": false,
      "inputs": [
        {
          "indexed": true,
          "internalType": "bytes32",
          "name": "orderID",
          "type": "bytes32"
        },
        {
          "indexed": true,
          "internalType": "address",
          "name": "bidder",
          "type": "address"
        },
        {
          "indexed": true,
          "internalType": "uint256",
          "name": "amount",
          "type": "uint256"
        }
      ],
      "name": "ReceivedNewBid",
      "type": "event"
    },
    {
      "anonymous": false,
      "inputs": [
        {
          "indexed": true,
          "internalType": "bytes32",
          "name": "orderID",
          "type": "bytes32"
        },
        {
          "indexed": true,
          "internalType": "address",
          "name": "bidder",
          "type": "address"
        },
        {
          "indexed": true,
          "internalType": "uint256",
          "name": "amount",
          "type": "uint256"
        }
      ],
      "name": "UpdatedBid",
      "type": "event"
    },
    {
      "inputs": [
        {
          "components": [
            {
              "internalType": "bytes32",
              "name": "orderID",
              "type": "bytes32"
            },
            {
              "internalType": "address",
              "name": "bidder",
              "type": "address"
            }
          ],
          "internalType": "struct IAtomicSwapBase.AcceptBidMsg",
          "name": "acceptBidMsg",
          "type": "tuple"
        }
      ],
      "name": "acceptBid",
      "outputs": [],
      "stateMutability": "payable",
      "type": "function"
    },
    {
      "inputs": [
        {
          "internalType": "bytes32",
          "name": "",
          "type": "bytes32"
        },
        {
          "internalType": "address",
          "name": "",
          "type": "address"
        }
      ],
      "name": "bids",
      "outputs": [
        {
          "internalType": "uint256",
          "name": "amount",
          "type": "uint256"
        },
        {
          "internalType": "bytes32",
          "name": "order",
          "type": "bytes32"
        },
        {
          "internalType": "enum IAtomicSwapBase.BidStatus",
          "name": "status",
          "type": "uint8"
        },
        {
          "internalType": "address",
          "name": "bidder",
          "type": "address"
        },
        {
          "internalType": "address",
          "name": "bidderReceiver",
          "type": "address"
        },
        {
          "internalType": "uint256",
          "name": "receiveTimestamp",
          "type": "uint256"
        },
        {
          "internalType": "uint256",
          "name": "expireTimestamp",
          "type": "uint256"
        }
      ],
      "stateMutability": "view",
      "type": "function"
    },
    {
      "inputs": [],
      "name": "bridge",
      "outputs": [
        {
          "internalType": "contract ISideLzAppUpgradable",
          "name": "",
          "type": "address"
        }
      ],
      "stateMutability": "view",
      "type": "function"
    },
    {
      "inputs": [],
      "name": "buyerFeeRate",
      "outputs": [
        {
          "internalType": "uint256",
          "name": "",
          "type": "uint256"
        }
      ],
      "stateMutability": "view",
      "type": "function"
    },
    {
      "inputs": [
        {
          "internalType": "bytes",
          "name": "data",
          "type": "bytes"
        }
      ],
      "name": "bytesToAddress",
      "outputs": [
        {
          "internalType": "address",
          "name": "",
          "type": "address"
        }
      ],
      "stateMutability": "pure",
      "type": "function"
    },
    {
      "inputs": [
        {
          "internalType": "bytes32",
          "name": "_orderID",
          "type": "bytes32"
        }
      ],
      "name": "cancelBid",
      "outputs": [],
      "stateMutability": "payable",
      "type": "function"
    },
    {
      "inputs": [
        {
          "components": [
            {
              "internalType": "bytes32",
              "name": "orderID",
              "type": "bytes32"
            }
          ],
          "internalType": "struct IAtomicSwapBase.CancelSwapMsg",
          "name": "cancelswap",
          "type": "tuple"
        }
      ],
      "name": "cancelSwap",
      "outputs": [],
      "stateMutability": "payable",
      "type": "function"
    },
    {
      "inputs": [
        {
          "internalType": "bytes32",
          "name": "",
          "type": "bytes32"
        },
        {
          "internalType": "address",
          "name": "",
          "type": "address"
        }
      ],
      "name": "counteroffers",
      "outputs": [
        {
          "internalType": "uint256",
          "name": "",
          "type": "uint256"
        }
      ],
      "stateMutability": "view",
      "type": "function"
    },
    {
      "inputs": [
        {
          "components": [
            {
              "internalType": "address",
              "name": "admin",
              "type": "address"
            },
            {
              "internalType": "uint16",
              "name": "chainID",
              "type": "uint16"
            },
            {
              "internalType": "address",
              "name": "bridge",
              "type": "address"
            },
            {
              "internalType": "address",
              "name": "treasury",
              "type": "address"
            },
            {
              "internalType": "uint256",
              "name": "sellerFee",
              "type": "uint256"
            },
            {
              "internalType": "uint256",
              "name": "buyerFee",
              "type": "uint256"
            }
          ],
          "internalType": "struct IInterchainAtomicSwap.InitialParams",
          "name": "_params",
          "type": "tuple"
        }
      ],
      "name": "initialize",
      "outputs": [],
      "stateMutability": "nonpayable",
      "type": "function"
    },
    {
      "inputs": [
        {
          "components": [
            {
              "components": [
                {
                  "internalType": "bytes32",
                  "name": "uuid",
                  "type": "bytes32"
                },
                {
                  "components": [
                    {
                      "internalType": "address",
                      "name": "token",
                      "type": "address"
                    },
                    {
                      "internalType": "uint256",
                      "name": "amount",
                      "type": "uint256"
                    }
                  ],
                  "internalType": "struct IAtomicSwapBase.Coin",
                  "name": "sellToken",
                  "type": "tuple"
                },
                {
                  "components": [
                    {
                      "internalType": "address",
                      "name": "token",
                      "type": "address"
                    },
                    {
                      "internalType": "uint256",
                      "name": "amount",
                      "type": "uint256"
                    }
                  ],
                  "internalType": "struct IAtomicSwapBase.Coin",
                  "name": "buyToken",
                  "type": "tuple"
                },
                {
                  "internalType": "address",
                  "name": "maker",
                  "type": "address"
                },
                {
                  "internalType": "address",
                  "name": "desiredTaker",
                  "type": "address"
                },
                {
                  "internalType": "uint256",
                  "name": "minBidAmount",
                  "type": "uint256"
                },
                {
                  "internalType": "uint256",
                  "name": "expireAt",
                  "type": "uint256"
                },
                {
                  "internalType": "bool",
                  "name": "acceptBid",
                  "type": "bool"
                }
              ],
              "internalType": "struct IAtomicSwapBase.MakeSwapMsg",
              "name": "base",
              "type": "tuple"
            },
            {
              "internalType": "address",
              "name": "makerReceiver",
              "type": "address"
            },
            {
              "internalType": "address",
              "name": "desiredTaker",
              "type": "address"
            },
            {
              "internalType": "uint16",
              "name": "dstChainID",
              "type": "uint16"
            }
          ],
          "internalType": "struct IInterchainAtomicSwap.ICMakeSwapMsg",
          "name": "icMakeSwap",
          "type": "tuple"
        }
      ],
      "name": "makeSwap",
      "outputs": [],
      "stateMutability": "payable",
      "type": "function"
    },
    {
      "inputs": [
        {
          "internalType": "uint16",
          "name": "_srcChainID",
          "type": "uint16"
        },
        {
          "internalType": "bytes",
          "name": "_srcAddress",
          "type": "bytes"
        },
        {
          "internalType": "uint64",
          "name": "_nonce",
          "type": "uint64"
        },
        {
          "internalType": "bytes",
          "name": "_payload",
          "type": "bytes"
        }
      ],
      "name": "onReceivePacket",
      "outputs": [],
      "stateMutability": "payable",
      "type": "function"
    },
    {
      "inputs": [],
      "name": "owner",
      "outputs": [
        {
          "internalType": "address",
          "name": "",
          "type": "address"
        }
      ],
      "stateMutability": "view",
      "type": "function"
    },
    {
      "inputs": [
        {
          "components": [
            {
              "internalType": "uint256",
              "name": "bidAmount",
              "type": "uint256"
            },
            {
              "internalType": "address",
              "name": "bidder",
              "type": "address"
            },
            {
              "internalType": "address",
              "name": "bidderReceiver",
              "type": "address"
            },
            {
              "internalType": "bytes32",
              "name": "orderID",
              "type": "bytes32"
            },
            {
              "internalType": "uint256",
              "name": "expireTimestamp",
              "type": "uint256"
            }
          ],
          "internalType": "struct IAtomicSwapBase.PlaceBidMsg",
          "name": "placeBidMsg",
          "type": "tuple"
        }
      ],
      "name": "placeBid",
      "outputs": [],
      "stateMutability": "payable",
      "type": "function"
    },
    {
      "inputs": [],
      "name": "renounceOwnership",
      "outputs": [],
      "stateMutability": "nonpayable",
      "type": "function"
    },
    {
      "inputs": [],
      "name": "sellerFeeRate",
      "outputs": [
        {
          "internalType": "uint256",
          "name": "",
          "type": "uint256"
        }
      ],
      "stateMutability": "view",
      "type": "function"
    },
    {
      "inputs": [
        {
          "internalType": "bytes32",
          "name": "",
          "type": "bytes32"
        }
      ],
      "name": "swapOrder",
      "outputs": [
        {
          "internalType": "bytes32",
          "name": "id",
          "type": "bytes32"
        },
        {
          "internalType": "enum IAtomicSwapBase.OrderStatus",
          "name": "status",
          "type": "uint8"
        },
        {
          "internalType": "address",
          "name": "maker",
          "type": "address"
        },
        {
          "components": [
            {
              "internalType": "address",
              "name": "token",
              "type": "address"
            },
            {
              "internalType": "uint256",
              "name": "amount",
              "type": "uint256"
            }
          ],
          "internalType": "struct IAtomicSwapBase.Coin",
          "name": "sellToken",
          "type": "tuple"
        },
        {
          "internalType": "address",
          "name": "taker",
          "type": "address"
        },
        {
          "components": [
            {
              "internalType": "address",
              "name": "token",
              "type": "address"
            },
            {
              "internalType": "uint256",
              "name": "amount",
              "type": "uint256"
            }
          ],
          "internalType": "struct IAtomicSwapBase.Coin",
          "name": "buyToken",
          "type": "tuple"
        },
        {
          "internalType": "uint256",
          "name": "minBidAmount",
          "type": "uint256"
        },
        {
          "internalType": "uint256",
          "name": "createdAt",
          "type": "uint256"
        },
        {
          "internalType": "uint256",
          "name": "canceledAt",
          "type": "uint256"
        },
        {
          "internalType": "uint256",
          "name": "completedAt",
          "type": "uint256"
        },
        {
          "internalType": "uint256",
          "name": "expiredAt",
          "type": "uint256"
        },
        {
          "internalType": "bool",
          "name": "acceptBid",
          "type": "bool"
        }
      ],
      "stateMutability": "view",
      "type": "function"
    },
    {
      "inputs": [
        {
          "internalType": "bytes32",
          "name": "",
          "type": "bytes32"
        }
      ],
      "name": "swapOrderITCParams",
      "outputs": [
        {
          "internalType": "enum IInterchainAtomicSwap.Side",
          "name": "side",
          "type": "uint8"
        },
        {
          "internalType": "address",
          "name": "makerReceiver",
          "type": "address"
        },
        {
          "internalType": "address",
          "name": "takerReceiver",
          "type": "address"
        },
        {
          "internalType": "uint16",
          "name": "srcChainID",
          "type": "uint16"
        },
        {
          "internalType": "uint16",
          "name": "dstChainID",
          "type": "uint16"
        }
      ],
      "stateMutability": "view",
      "type": "function"
    },
    {
      "inputs": [
        {
          "components": [
            {
              "internalType": "bytes32",
              "name": "orderID",
              "type": "bytes32"
            },
            {
              "internalType": "address",
              "name": "takerReceiver",
              "type": "address"
            }
          ],
          "internalType": "struct IAtomicSwapBase.TakeSwapMsg",
          "name": "takeswap",
          "type": "tuple"
        }
      ],
      "name": "takeSwap",
      "outputs": [],
      "stateMutability": "payable",
      "type": "function"
    },
    {
      "inputs": [
        {
          "internalType": "address",
          "name": "newOwner",
          "type": "address"
        }
      ],
      "name": "transferOwnership",
      "outputs": [],
      "stateMutability": "nonpayable",
      "type": "function"
    },
    {
      "inputs": [
        {
          "components": [
            {
              "internalType": "bytes32",
              "name": "orderID",
              "type": "bytes32"
            },
            {
              "internalType": "address",
              "name": "bidder",
              "type": "address"
            },
            {
              "internalType": "uint256",
              "name": "addition",
              "type": "uint256"
            }
          ],
          "internalType": "struct IAtomicSwapBase.UpdateBidMsg",
          "name": "updateBidMsg",
          "type": "tuple"
        }
      ],
      "name": "updateBid",
      "outputs": [],
      "stateMutability": "payable",
      "type": "function"
    }
  ],
  "bytecode": "0x608060405234801561001057600080fd5b506159b880620000216000396000f3fe60806040526004361061011f5760003560e01c80636220b2e5116100a0578063a743a3d011610064578063a743a3d01461036a578063df7cec28146103a7578063e78cea92146103c3578063f2fde38b146103ee578063fca6caa1146104175761011f565b80636220b2e51461027957806366e929bf146102ba578063715018a6146102fd57806389f68190146103145780638da5cb5b1461033f5761011f565b806342526e4e116100e757806342526e4e146101b057806352c95b2a146101ed57806353f10c80146102095780635436a65f14610234578063593333f0146102505761011f565b8063022066611461012457806306be619c1461014057806337be00221461015c5780633d9bd2fc1461017857806340d7185c14610194575b600080fd5b61013e60048036038101906101399190613a30565b61045f565b005b61015a60048036038101906101559190613a7c565b6109f8565b005b61017660048036038101906101719190613ac8565b610eaa565b005b610192600480360381019061018d9190613b14565b6112b0565b005b6101ae60048036038101906101a99190613d61565b611726565b005b3480156101bc57600080fd5b506101d760048036038101906101d29190613e05565b611e1b565b6040516101e49190613e8f565b60405180910390f35b61020760048036038101906102029190613ec9565b611e31565b005b34801561021557600080fd5b5061021e61227f565b60405161022b9190613f0f565b60405180910390f35b61024e60048036038101906102499190613f4a565b612285565b005b34801561025c57600080fd5b5061027760048036038101906102729190613f97565b612843565b005b34801561028557600080fd5b506102a0600480360381019061029b9190613ffa565b612b4c565b6040516102b19594939291906140ad565b60405180910390f35b3480156102c657600080fd5b506102e160048036038101906102dc919061412c565b612beb565b6040516102f497969594939291906141c3565b60405180910390f35b34801561030957600080fd5b50610312612c87565b005b34801561032057600080fd5b50610329612c9b565b6040516103369190613f0f565b60405180910390f35b34801561034b57600080fd5b50610354612ca1565b6040516103619190613e8f565b60405180910390f35b34801561037657600080fd5b50610391600480360381019061038c919061412c565b612cd9565b60405161039e9190613f0f565b60405180910390f35b6103c160048036038101906103bc9190613ffa565b612cfe565b005b3480156103cf57600080fd5b506103d861322f565b6040516103e59190614291565b60405180910390f35b3480156103fa57600080fd5b50610415600480360381019061041091906142ac565b613255565b005b34801561042357600080fd5b5061043e60048036038101906104399190613ffa565b6132db565b6040516104569c9b9a99989796959493929190614389565b60405180910390f35b610467613469565b80600001356000801b60008083815260200190815260200160002060000154036104bd576040517f5dcaf2d700000000000000000000000000000000000000000000000000000000815260040160405180910390fd5b60008260000135905060008360200160208101906104db91906142ac565b9050600073ffffffffffffffffffffffffffffffffffffffff163373ffffffffffffffffffffffffffffffffffffffff1603610543576040517f0809490800000000000000000000000000000000000000000000000000000000815260040160405180910390fd5b6000806000848152602001908152602001600020905080600c0160009054906101000a900460ff166105a1576040517f3c24fafc00000000000000000000000000000000000000000000000000000000815260040160405180910390fd5b3373ffffffffffffffffffffffffffffffffffffffff168160010160019054906101000a900473ffffffffffffffffffffffffffffffffffffffff1673ffffffffffffffffffffffffffffffffffffffff161461065b578060010160019054906101000a900473ffffffffffffffffffffffffffffffffffffffff16336040517f0500cb4c000000000000000000000000000000000000000000000000000000008152600401610652929190614445565b60405180910390fd5b60006001600085815260200190815260200160002060008473ffffffffffffffffffffffffffffffffffffffff1673ffffffffffffffffffffffffffffffffffffffff16815260200190815260200160002090506002808111156106c2576106c1614027565b5b8160020160009054906101000a900460ff1660028111156106e6576106e5614027565b5b14610739578060020160009054906101000a900460ff166040517f64b08c06000000000000000000000000000000000000000000000000000000008152600401610730919061446e565b60405180910390fd5b4281600501541015610788578060050154426040517f1d35563900000000000000000000000000000000000000000000000000000000815260040161077f929190614489565b60405180910390fd5b60018160020160006101000a81548160ff021916908360028111156107b0576107af614027565b5b021790555060008260020190508060000160009054906101000a900473ffffffffffffffffffffffffffffffffffffffff1673ffffffffffffffffffffffffffffffffffffffff1673__$a132ddf224bcaf7b77631cdf10c807360d$__6343b03b5d90918460030160009054906101000a900473ffffffffffffffffffffffffffffffffffffffff1684600101546004546103e8600260009054906101000a900473ffffffffffffffffffffffffffffffffffffffff166040518763ffffffff1660e01b8152600401610888969594939291906144d0565b60006040518083038186803b1580156108a057600080fd5b505af41580156108b4573d6000803e3d6000fd5b505050506000806005896040516020016108d09392919061463d565b604051602081830303815290604052905060006007600088815260200190815260200160002060010160169054906101000a900461ffff169050600660009054906101000a900473ffffffffffffffffffffffffffffffffffffffff1673ffffffffffffffffffffffffffffffffffffffff1663e4a8b2f9348333866040518563ffffffff1660e01b815260040161096a93929190614714565b6000604051808303818588803b15801561098357600080fd5b505af1158015610997573d6000803e3d6000fd5b505050505083600001548673ffffffffffffffffffffffffffffffffffffffff16887fadd1d5b6c827fee45fa32e72964c9d43d2191c9b8b083889fb2e3f468c71856860405160405180910390a450505050505050506109f56134c0565b50565b610a00613469565b80600001356000801b6000808381526020019081526020016000206000015403610a56576040517f5dcaf2d700000000000000000000000000000000000000000000000000000000815260040160405180910390fd5b60008060008460000135815260200190815260200160002090506000600760008560000135815260200190815260200160002060000160019054906101000a900473ffffffffffffffffffffffffffffffffffffffff16905083803603810190610ac091906147a7565b73__$5b078b893398f17544ec956d77642311f9$__632dbbbec0909160006040518363ffffffff1660e01b8152600401610afb929190614828565b60006040518083038186803b158015610b1357600080fd5b505af4158015610b27573d6000803e3d6000fd5b5050505060028260010160006101000a81548160ff02191690836003811115610b5357610b52614027565b5b02179055504282600a01819055506000349050600073ffffffffffffffffffffffffffffffffffffffff168360050160000160009054906101000a900473ffffffffffffffffffffffffffffffffffffffff1673ffffffffffffffffffffffffffffffffffffffff1603610c2b5782600501600101543411610c15573483600501600101546040517f04157bb4000000000000000000000000000000000000000000000000000000008152600401610c0c929190614489565b60405180910390fd5b826005016001015434610c289190614880565b90505b8260050160000160009054906101000a900473ffffffffffffffffffffffffffffffffffffffff1673ffffffffffffffffffffffffffffffffffffffff1673__$a132ddf224bcaf7b77631cdf10c807360d$__6311f1248b9091338587600501600101546003546103e8600260009054906101000a900473ffffffffffffffffffffffffffffffffffffffff166040518863ffffffff1660e01b8152600401610cda97969594939291906148b4565b60006040518083038186803b158015610cf257600080fd5b505af4158015610d06573d6000803e3d6000fd5b50505050600080600187604051602001610d2293929190614962565b60405160208183030381529060405290506000600760008860000135815260200190815260200160002060010160169054906101000a900461ffff169050600660009054906101000a900473ffffffffffffffffffffffffffffffffffffffff1673ffffffffffffffffffffffffffffffffffffffff1663e4a8b2f9848333866040518563ffffffff1660e01b8152600401610dc093929190614714565b6000604051808303818588803b158015610dd957600080fd5b505af1158015610ded573d6000803e3d6000fd5b505050505086600001358560040160009054906101000a900473ffffffffffffffffffffffffffffffffffffffff1673ffffffffffffffffffffffffffffffffffffffff168660010160019054906101000a900473ffffffffffffffffffffffffffffffffffffffff1673ffffffffffffffffffffffffffffffffffffffff167f6bf7309f141d1b44e414f1fc04d98491cd0acf98f0f1e5ad885d0a7ce164e6fa60405160405180910390a4505050505050610ea76134c0565b50565b610eb2613469565b80600001356000801b6000808381526020019081526020016000206000015403610f08576040517f5dcaf2d700000000000000000000000000000000000000000000000000000000815260040160405180910390fd5b60008060008460000135815260200190815260200160002090508073__$5b078b893398f17544ec956d77642311f9$__639efdfeb190916040518263ffffffff1660e01b8152600401610f5b91906149a0565b60006040518083038186803b158015610f7357600080fd5b505af4158015610f87573d6000803e3d6000fd5b5050505060018160010160006101000a81548160ff02191690836003811115610fb357610fb2614027565b5b0217905550600073ffffffffffffffffffffffffffffffffffffffff168160020160000160009054906101000a900473ffffffffffffffffffffffffffffffffffffffff1673ffffffffffffffffffffffffffffffffffffffff1603611066573373ffffffffffffffffffffffffffffffffffffffff166108fc82600501600101549081150290604051600060405180830381858888f19350505050158015611060573d6000803e3d6000fd5b50611114565b8060020160000160009054906101000a900473ffffffffffffffffffffffffffffffffffffffff1673ffffffffffffffffffffffffffffffffffffffff1663a9059cbb3383600501600101546040518363ffffffff1660e01b81526004016110cf9291906149bb565b6020604051808303816000875af11580156110ee573d6000803e3d6000fd5b505050506040513d601f19601f820116820180604052508101906111129190614a10565b505b6000806002856000013560405160200161113093929190614a3d565b6040516020818303038152906040529050600073__$a132ddf224bcaf7b77631cdf10c807360d$__63a2040cee909186600001356040518363ffffffff1660e01b8152600401611181929190614a83565b60006040518083038186803b15801561119957600080fd5b505af41580156111ad573d6000803e3d6000fd5b505050506000600760008660000135815260200190815260200160002060010160169054906101000a900461ffff169050600660009054906101000a900473ffffffffffffffffffffffffffffffffffffffff1673ffffffffffffffffffffffffffffffffffffffff1663e4a8b2f9348333866040518563ffffffff1660e01b815260040161123e93929190614714565b6000604051808303818588803b15801561125757600080fd5b505af115801561126b573d6000803e3d6000fd5b505050505084600001357ff68aeec8f55d67a9b2cf2b6caea31e11f2c14e09da250170575d63911f26aa6e60405160405180910390a2505050506112ad6134c0565b50565b6112b8613469565b80600001356000801b600080838152602001908152602001600020600001540361130e576040517f5dcaf2d700000000000000000000000000000000000000000000000000000000815260040160405180910390fd5b60008260000135905060008360400135905060006001600084815260200190815260200160002060003373ffffffffffffffffffffffffffffffffffffffff1673ffffffffffffffffffffffffffffffffffffffff1681526020019081526020016000209050600073ffffffffffffffffffffffffffffffffffffffff168160020160019054906101000a900473ffffffffffffffffffffffffffffffffffffffff1673ffffffffffffffffffffffffffffffffffffffff16036113fe576040517f0a0c23ee00000000000000000000000000000000000000000000000000000000815260040160405180910390fd5b600080600085815260200190815260200160002090506000830361145957826040517fd9cf167e0000000000000000000000000000000000000000000000000000000081526004016114509190613f0f565b60405180910390fd5b8282600001600082825461146d9190614aac565b925050819055508060050160010154826000015411156114c85781600001546040517fd9cf167e0000000000000000000000000000000000000000000000000000000081526004016114bf9190613f0f565b60405180910390fd5b60008160050190506000349050600073ffffffffffffffffffffffffffffffffffffffff168260000160009054906101000a900473ffffffffffffffffffffffffffffffffffffffff1673ffffffffffffffffffffffffffffffffffffffff16146115835761157e3330878560000160009054906101000a900473ffffffffffffffffffffffffffffffffffffffff1673ffffffffffffffffffffffffffffffffffffffff166134d9909392919063ffffffff16565b6115d7565b843410156115c857346040517fd9cf167e0000000000000000000000000000000000000000000000000000000081526004016115bf9190613f0f565b60405180910390fd5b84816115d49190614880565b90505b60008060048a6040516020016115ef93929190614b7d565b6040516020818303038152906040529050600660009054906101000a900473ffffffffffffffffffffffffffffffffffffffff1673ffffffffffffffffffffffffffffffffffffffff1663e4a8b2f983600860009054906101000a900461ffff1633856040518563ffffffff1660e01b815260040161167093929190614714565b6000604051808303818588803b15801561168957600080fd5b505af115801561169d573d6000803e3d6000fd5b505050505084600001548560020160019054906101000a900473ffffffffffffffffffffffffffffffffffffffff1673ffffffffffffffffffffffffffffffffffffffff168a600001357f7786094a5edc61a0463300b9b97a1b22d338bc800ed33404ba9a3888b71de0fc60405160405180910390a450505050505050506117236134c0565b50565b6000828260009060209261173c93929190614bbe565b8101906117499190614c1e565b90506000600681111561175f5761175e614027565b5b81600681111561177257611771614027565b5b03611908576000838360209060409261178d93929190614bbe565b906117989190614c63565b90506000848460409080926117af93929190614bbe565b8101906117bc9190614db3565b905081600080848152602001908152602001600020600001819055508060600151600080848152602001908152602001600020600c0160006101000a81548160ff021916908315150217905550806000015160008084815260200190815260200160002060050160008201518160000160006101000a81548173ffffffffffffffffffffffffffffffffffffffff021916908373ffffffffffffffffffffffffffffffffffffffff1602179055506020820151816001015590505080602001516007600084815260200190815260200160002060000160016101000a81548173ffffffffffffffffffffffffffffffffffffffff021916908373ffffffffffffffffffffffffffffffffffffffff160217905550876007600084815260200190815260200160002060010160166101000a81548161ffff021916908361ffff1602179055505050611e13565b6001600681111561191c5761191b614027565b5b81600681111561192f5761192e614027565b5b036119a05760008383602090809261194993929190614bbe565b81019061195691906147a7565b905060026000808360000151815260200190815260200160002060010160006101000a81548160ff0219169083600381111561199557611994614027565b5b021790555050611e12565b600260068111156119b4576119b3614027565b5b8160068111156119c7576119c6614027565b5b03611a60576000838360209080926119e193929190614bbe565b906119ec9190614c63565b9050600073__$a132ddf224bcaf7b77631cdf10c807360d$__63a2040cee9091836040518363ffffffff1660e01b8152600401611a2a929190614a83565b60006040518083038186803b158015611a4257600080fd5b505af4158015611a56573d6000803e3d6000fd5b5050505050611e11565b60036006811115611a7457611a73614027565b5b816006811115611a8757611a86614027565b5b03611b2257600083836020908092611aa193929190614bbe565b810190611aae9190614e6c565b9050600173__$a132ddf224bcaf7b77631cdf10c807360d$__63cc76f9319091836040518363ffffffff1660e01b8152600401611aec929190614f17565b60006040518083038186803b158015611b0457600080fd5b505af4158015611b18573d6000803e3d6000fd5b5050505050611e10565b60056006811115611b3657611b35614027565b5b816006811115611b4957611b48614027565b5b03611d3457600083836020908092611b6393929190614bbe565b810190611b709190614f90565b90506000816000015190506000826020015190506000806000848152602001908152602001600020600501905060006007600085815260200190815260200160002060000160019054906101000a900473ffffffffffffffffffffffffffffffffffffffff1690508160000160009054906101000a900473ffffffffffffffffffffffffffffffffffffffff1673ffffffffffffffffffffffffffffffffffffffff1673__$a132ddf224bcaf7b77631cdf10c807360d$__6343b03b5d90918385600101546003546103e8600260009054906101000a900473ffffffffffffffffffffffffffffffffffffffff166040518763ffffffff1660e01b8152600401611c7f969594939291906144d0565b60006040518083038186803b158015611c9757600080fd5b505af4158015611cab573d6000803e3d6000fd5b50505050600180600086815260200190815260200160002060008573ffffffffffffffffffffffffffffffffffffffff1673ffffffffffffffffffffffffffffffffffffffff16815260200190815260200160002060020160006101000a81548160ff02191690836002811115611d2557611d24614027565b5b02179055505050505050611e0f565b60046006811115611d4857611d47614027565b5b816006811115611d5b57611d5a614027565b5b03611e0e57600083836020908092611d7593929190614bbe565b810190611d829190615021565b905060008160000151905060008260200151905060006001600084815260200190815260200160002060008373ffffffffffffffffffffffffffffffffffffffff1673ffffffffffffffffffffffffffffffffffffffff16815260200190815260200160002090508360400151816000016000828254611e029190614aac565b92505081905550505050505b5b5b5b5b5b505050505050565b600081611e279061509f565b60601c9050919050565b611e39613469565b80606001356000801b6000808381526020019081526020016000206000015403611e8f576040517f5dcaf2d700000000000000000000000000000000000000000000000000000000815260040160405180910390fd5b60008260600135905060008360000135905060006001600084815260200190815260200160002060003373ffffffffffffffffffffffffffffffffffffffff1673ffffffffffffffffffffffffffffffffffffffff1681526020019081526020016000209050600073ffffffffffffffffffffffffffffffffffffffff168160020160019054906101000a900473ffffffffffffffffffffffffffffffffffffffff1673ffffffffffffffffffffffffffffffffffffffff1614611f7f576040517fb8cee9f000000000000000000000000000000000000000000000000000000000815260040160405180910390fd5b60008060008760600135815260200190815260200160002090508060070154831015611fe257826040517fd9cf167e000000000000000000000000000000000000000000000000000000008152600401611fd99190613f0f565b60405180910390fd5b6000826000015484611ff49190614880565b9050600080600087815260200190815260200160002060050190506000349050600073ffffffffffffffffffffffffffffffffffffffff168260000160009054906101000a900473ffffffffffffffffffffffffffffffffffffffff1673ffffffffffffffffffffffffffffffffffffffff16146120c2576120bd3330858560000160009054906101000a900473ffffffffffffffffffffffffffffffffffffffff1673ffffffffffffffffffffffffffffffffffffffff166134d9909392919063ffffffff16565b612116565b8234101561210757346040517fd9cf167e0000000000000000000000000000000000000000000000000000000081526004016120fe9190613f0f565b60405180910390fd5b82816121139190614880565b90505b600173__$a132ddf224bcaf7b77631cdf10c807360d$__63cc76f93190918b6040518363ffffffff1660e01b8152600401612152929190615196565b60006040518083038186803b15801561216a57600080fd5b505af415801561217e573d6000803e3d6000fd5b5050505060008060038b60405160200161219a9392919061524f565b60405160208183030381529060405290506000600760008c60600135815260200190815260200160002060010160169054906101000a900461ffff169050600660009054906101000a900473ffffffffffffffffffffffffffffffffffffffff1673ffffffffffffffffffffffffffffffffffffffff1663e4a8b2f9848333866040518563ffffffff1660e01b815260040161223893929190614714565b6000604051808303818588803b15801561225157600080fd5b505af1158015612265573d6000803e3d6000fd5b50505050505050505050505050505061227c6134c0565b50565b60045481565b61228d613469565b6000816000018036038101906122a39190615352565b90508073__$5b078b893398f17544ec956d77642311f9$__6357fc12b090916040518263ffffffff1660e01b81526004016122de9190615462565b60006040518083038186803b1580156122f657600080fd5b505af415801561230a573d6000803e3d6000fd5b505050506000816000015173__$a132ddf224bcaf7b77631cdf10c807360d$__63d81ab44f9091306040518363ffffffff1660e01b815260040161234f92919061547e565b602060405180830381865af415801561236c573d6000803e3d6000fd5b505050506040513d601f19601f8201168201806040525081019061239091906154bc565b9050600073__$a132ddf224bcaf7b77631cdf10c807360d$__632296d7e090918484336040518563ffffffff1660e01b81526004016123d294939291906154e9565b60006040518083038186803b1580156123ea57600080fd5b505af41580156123fe573d6000803e3d6000fd5b5050505060006040518060a0016040528060018081111561242257612421614027565b5b81526020018561014001602081019061243b91906142ac565b73ffffffffffffffffffffffffffffffffffffffff168152602001600073ffffffffffffffffffffffffffffffffffffffff168152602001600860009054906101000a900461ffff1661ffff168152602001856101800160208101906124a19190615531565b61ffff168152509050806007600084815260200190815260200160002060008201518160000160006101000a81548160ff021916908360018111156124e9576124e8614027565b5b021790555060208201518160000160016101000a81548173ffffffffffffffffffffffffffffffffffffffff021916908373ffffffffffffffffffffffffffffffffffffffff16021790555060408201518160010160006101000a81548173ffffffffffffffffffffffffffffffffffffffff021916908373ffffffffffffffffffffffffffffffffffffffff16021790555060608201518160010160146101000a81548161ffff021916908361ffff16021790555060808201518160010160166101000a81548161ffff021916908361ffff1602179055509050506000349050600073ffffffffffffffffffffffffffffffffffffffff1684602001516000015173ffffffffffffffffffffffffffffffffffffffff160361266c57836020015160200151341015612651576040517f08c379a0000000000000000000000000000000000000000000000000000000008152600401612648906155bb565b60405180910390fd5b836020015160200151816126659190614880565b90506126aa565b6126a9333086602001516020015187602001516000015173ffffffffffffffffffffffffffffffffffffffff166134d9909392919063ffffffff16565b5b60006040518060a0016040528086604001518152602001876101400160208101906126d591906142ac565b73ffffffffffffffffffffffffffffffffffffffff1681526020018761016001602081019061270491906142ac565b73ffffffffffffffffffffffffffffffffffffffff1681526020018660e00151151581526020018660c0015181525090506000806000868460405160200161274f9493929190615681565b6040516020818303038152906040529050600660009054906101000a900473ffffffffffffffffffffffffffffffffffffffff1673ffffffffffffffffffffffffffffffffffffffff1663e4a8b2f984896101800160208101906127b39190615531565b33856040518563ffffffff1660e01b81526004016127d393929190614714565b6000604051808303818588803b1580156127ec57600080fd5b505af1158015612800573d6000803e3d6000fd5b5050505050847f8b82d32987f9a4ae1bc7868a6f104edb711227ec3c9fccb0416a14fcc29bec5a60405160405180910390a25050505050506128406134c0565b50565b600061284d61366c565b905060008160000160089054906101000a900460ff1615905060008260000160009054906101000a900467ffffffffffffffff1690506000808267ffffffffffffffff1614801561289b5750825b9050600060018367ffffffffffffffff161480156128d0575060003073ffffffffffffffffffffffffffffffffffffffff163b145b9050811580156128de575080155b15612915576040517ff92ee8a900000000000000000000000000000000000000000000000000000000815260040160405180910390fd5b60018560000160006101000a81548167ffffffffffffffff021916908367ffffffffffffffff16021790555083156129655760018560000160086101000a81548160ff0219169083151502179055505b61298086600001602081019061297b91906142ac565b613694565b858036038101906129919190615767565b73__$6f3146d13761fe4efe0c3dc8c4b43c2873$__63cf5bfc7c90916103e86040518363ffffffff1660e01b81526004016129cd92919061581e565b60006040518083038186803b1580156129e557600080fd5b505af41580156129f9573d6000803e3d6000fd5b5050505085608001356003819055508560a00135600481905550856060016020810190612a2691906142ac565b600260006101000a81548173ffffffffffffffffffffffffffffffffffffffff021916908373ffffffffffffffffffffffffffffffffffffffff160217905550856020016020810190612a799190615531565b600860006101000a81548161ffff021916908361ffff160217905550856040016020810190612aa891906142ac565b600660006101000a81548173ffffffffffffffffffffffffffffffffffffffff021916908373ffffffffffffffffffffffffffffffffffffffff1602179055508315612b445760008560000160086101000a81548160ff0219169083151502179055507fc7f505b2f371ae2175ee4913f4499e1f2633a7b5936321eed1cdaeb6115181d26001604051612b3b9190615882565b60405180910390a15b505050505050565b60076020528060005260406000206000915090508060000160009054906101000a900460ff16908060000160019054906101000a900473ffffffffffffffffffffffffffffffffffffffff16908060010160009054906101000a900473ffffffffffffffffffffffffffffffffffffffff16908060010160149054906101000a900461ffff16908060010160169054906101000a900461ffff16905085565b6001602052816000526040600020602052806000526040600020600091509150508060000154908060010154908060020160009054906101000a900460ff16908060020160019054906101000a900473ffffffffffffffffffffffffffffffffffffffff16908060030160009054906101000a900473ffffffffffffffffffffffffffffffffffffffff16908060040154908060050154905087565b612c8f61371a565b612c9960006137a1565b565b60035481565b600080612cac613878565b90508060000160009054906101000a900473ffffffffffffffffffffffffffffffffffffffff1691505090565b6005602052816000526040600020602052806000526040600020600091509150505481565b612d06613469565b806000801b6000808381526020019081526020016000206000015403612d58576040517f5dcaf2d700000000000000000000000000000000000000000000000000000000815260040160405180910390fd5b60006001600084815260200190815260200160002060003373ffffffffffffffffffffffffffffffffffffffff1673ffffffffffffffffffffffffffffffffffffffff1681526020019081526020016000209050600073ffffffffffffffffffffffffffffffffffffffff168160020160019054906101000a900473ffffffffffffffffffffffffffffffffffffffff1673ffffffffffffffffffffffffffffffffffffffff1603612e36576040517fac96c2bd00000000000000000000000000000000000000000000000000000000815260040160405180910390fd5b3373ffffffffffffffffffffffffffffffffffffffff168160020160019054906101000a900473ffffffffffffffffffffffffffffffffffffffff1673ffffffffffffffffffffffffffffffffffffffff1614612ebf576040517f978f045600000000000000000000000000000000000000000000000000000000815260040160405180910390fd5b600280811115612ed257612ed1614027565b5b8160020160009054906101000a900460ff166002811115612ef657612ef5614027565b5b14612f49578060020160009054906101000a900460ff166040517f64b08c06000000000000000000000000000000000000000000000000000000008152600401612f40919061446e565b60405180910390fd5b60008160020160006101000a81548160ff02191690836002811115612f7157612f70614027565b5b021790555060008060008581526020019081526020016000206005019050600073ffffffffffffffffffffffffffffffffffffffff168160000160009054906101000a900473ffffffffffffffffffffffffffffffffffffffff1673ffffffffffffffffffffffffffffffffffffffff16146130635761305e8260020160019054906101000a900473ffffffffffffffffffffffffffffffffffffffff1683600001548360000160009054906101000a900473ffffffffffffffffffffffffffffffffffffffff1673ffffffffffffffffffffffffffffffffffffffff166138a09092919063ffffffff16565b6130d3565b8160020160019054906101000a900473ffffffffffffffffffffffffffffffffffffffff1673ffffffffffffffffffffffffffffffffffffffff166108fc83600001549081150290604051600060405180830381858888f193505050501580156130d1573d6000803e3d6000fd5b505b6000806005866040516020016130eb93929190614a3d565b604051602081830303815290604052905060006007600087815260200190815260200160002060010160169054906101000a900461ffff169050600660009054906101000a900473ffffffffffffffffffffffffffffffffffffffff1673ffffffffffffffffffffffffffffffffffffffff1663e4a8b2f9348333866040518563ffffffff1660e01b815260040161318593929190614714565b6000604051808303818588803b15801561319e57600080fd5b505af11580156131b2573d6000803e3d6000fd5b50505050508360020160019054906101000a900473ffffffffffffffffffffffffffffffffffffffff1673ffffffffffffffffffffffffffffffffffffffff16867f6c2a0bb8117ecfbc53a4385a5421be8eb081718159b9eb3d7c273ecb07fe7cfd60405160405180910390a3505050505061322c6134c0565b50565b600660009054906101000a900473ffffffffffffffffffffffffffffffffffffffff1681565b61325d61371a565b600073ffffffffffffffffffffffffffffffffffffffff168173ffffffffffffffffffffffffffffffffffffffff16036132cf5760006040517f1e4fbdf70000000000000000000000000000000000000000000000000000000081526004016132c69190613e8f565b60405180910390fd5b6132d8816137a1565b50565b60006020528060005260406000206000915090508060000154908060010160009054906101000a900460ff16908060010160019054906101000a900473ffffffffffffffffffffffffffffffffffffffff1690806002016040518060400160405290816000820160009054906101000a900473ffffffffffffffffffffffffffffffffffffffff1673ffffffffffffffffffffffffffffffffffffffff1673ffffffffffffffffffffffffffffffffffffffff168152602001600182015481525050908060040160009054906101000a900473ffffffffffffffffffffffffffffffffffffffff1690806005016040518060400160405290816000820160009054906101000a900473ffffffffffffffffffffffffffffffffffffffff1673ffffffffffffffffffffffffffffffffffffffff1673ffffffffffffffffffffffffffffffffffffffff1681526020016001820154815250509080600701549080600801549080600901549080600a01549080600b01549080600c0160009054906101000a900460ff1690508c565b6000613473613968565b905060028160000154036134b3576040517f3ee5aeb500000000000000000000000000000000000000000000000000000000815260040160405180910390fd5b6002816000018190555050565b60006134ca613968565b90506001816000018190555050565b600084905060008173ffffffffffffffffffffffffffffffffffffffff1663dd62ed3e86306040518363ffffffff1660e01b815260040161351b929190614445565b602060405180830381865afa158015613538573d6000803e3d6000fd5b505050506040513d601f19601f8201168201806040525081019061355c91906158b2565b9050828110156135a55780836040517f7c8db62f00000000000000000000000000000000000000000000000000000000815260040161359c929190614489565b60405180910390fd5b8173ffffffffffffffffffffffffffffffffffffffff166323b872dd8686866040518463ffffffff1660e01b81526004016135e2939291906158df565b6020604051808303816000875af1158015613601573d6000803e3d6000fd5b505050506040513d601f19601f820116820180604052508101906136259190614a10565b613664576040517f08c379a000000000000000000000000000000000000000000000000000000000815260040161365b90615962565b60405180910390fd5b505050505050565b60007ff0c57e16840df040f15088dc2f81fe391c3923bec73e23a9662efc9c229c6a00905090565b61369c613990565b600073ffffffffffffffffffffffffffffffffffffffff168173ffffffffffffffffffffffffffffffffffffffff160361370e5760006040517f1e4fbdf70000000000000000000000000000000000000000000000000000000081526004016137059190613e8f565b60405180910390fd5b613717816137a1565b50565b6137226139d0565b73ffffffffffffffffffffffffffffffffffffffff16613740612ca1565b73ffffffffffffffffffffffffffffffffffffffff161461379f576137636139d0565b6040517f118cdaa70000000000000000000000000000000000000000000000000000000081526004016137969190613e8f565b60405180910390fd5b565b60006137ab613878565b905060008160000160009054906101000a900473ffffffffffffffffffffffffffffffffffffffff169050828260000160006101000a81548173ffffffffffffffffffffffffffffffffffffffff021916908373ffffffffffffffffffffffffffffffffffffffff1602179055508273ffffffffffffffffffffffffffffffffffffffff168173ffffffffffffffffffffffffffffffffffffffff167f8be0079c531659141344cd1fd0a4f28419497f9722a3daafe3b4186f6b6457e060405160405180910390a3505050565b60007f9016d09d72d40fdae2fd8ceac6b6234c7706214fd39c1cd1e609a0528c199300905090565b60008390508073ffffffffffffffffffffffffffffffffffffffff1663a9059cbb84846040518363ffffffff1660e01b81526004016138e09291906149bb565b6020604051808303816000875af11580156138ff573d6000803e3d6000fd5b505050506040513d601f19601f820116820180604052508101906139239190614a10565b613962576040517f08c379a000000000000000000000000000000000000000000000000000000000815260040161395990615962565b60405180910390fd5b50505050565b60007f9b779b17422d0df92223018b32b4d1fa46e071723d6817e2486d003becc55f00905090565b6139986139d8565b6139ce576040517fd7e6bcf800000000000000000000000000000000000000000000000000000000815260040160405180910390fd5b565b600033905090565b60006139e261366c565b60000160089054906101000a900460ff16905090565b6000604051905090565b600080fd5b600080fd5b600080fd5b600060408284031215613a2757613a26613a0c565b5b81905092915050565b600060408284031215613a4657613a45613a02565b5b6000613a5484828501613a11565b91505092915050565b600060408284031215613a7357613a72613a0c565b5b81905092915050565b600060408284031215613a9257613a91613a02565b5b6000613aa084828501613a5d565b91505092915050565b600060208284031215613abf57613abe613a0c565b5b81905092915050565b600060208284031215613ade57613add613a02565b5b6000613aec84828501613aa9565b91505092915050565b600060608284031215613b0b57613b0a613a0c565b5b81905092915050565b600060608284031215613b2a57613b29613a02565b5b6000613b3884828501613af5565b91505092915050565b600061ffff82169050919050565b613b5881613b41565b8114613b6357600080fd5b50565b600081359050613b7581613b4f565b92915050565b600080fd5b600080fd5b6000601f19601f8301169050919050565b7f4e487b7100000000000000000000000000000000000000000000000000000000600052604160045260246000fd5b613bce82613b85565b810181811067ffffffffffffffff82111715613bed57613bec613b96565b5b80604052505050565b6000613c006139f8565b9050613c0c8282613bc5565b919050565b600067ffffffffffffffff821115613c2c57613c2b613b96565b5b613c3582613b85565b9050602081019050919050565b82818337600083830152505050565b6000613c64613c5f84613c11565b613bf6565b905082815260208101848484011115613c8057613c7f613b80565b5b613c8b848285613c42565b509392505050565b600082601f830112613ca857613ca7613b7b565b5b8135613cb8848260208601613c51565b91505092915050565b600067ffffffffffffffff82169050919050565b613cde81613cc1565b8114613ce957600080fd5b50565b600081359050613cfb81613cd5565b92915050565b600080fd5b600080fd5b60008083601f840112613d2157613d20613b7b565b5b8235905067ffffffffffffffff811115613d3e57613d3d613d01565b5b602083019150836001820283011115613d5a57613d59613d06565b5b9250929050565b600080600080600060808688031215613d7d57613d7c613a02565b5b6000613d8b88828901613b66565b955050602086013567ffffffffffffffff811115613dac57613dab613a07565b5b613db888828901613c93565b9450506040613dc988828901613cec565b935050606086013567ffffffffffffffff811115613dea57613de9613a07565b5b613df688828901613d0b565b92509250509295509295909350565b600060208284031215613e1b57613e1a613a02565b5b600082013567ffffffffffffffff811115613e3957613e38613a07565b5b613e4584828501613c93565b91505092915050565b600073ffffffffffffffffffffffffffffffffffffffff82169050919050565b6000613e7982613e4e565b9050919050565b613e8981613e6e565b82525050565b6000602082019050613ea46000830184613e80565b92915050565b600060a08284031215613ec057613ebf613a0c565b5b81905092915050565b600060a08284031215613edf57613ede613a02565b5b6000613eed84828501613eaa565b91505092915050565b6000819050919050565b613f0981613ef6565b82525050565b6000602082019050613f246000830184613f00565b92915050565b60006101a08284031215613f4157613f40613a0c565b5b81905092915050565b60006101a08284031215613f6157613f60613a02565b5b6000613f6f84828501613f2a565b91505092915050565b600060c08284031215613f8e57613f8d613a0c565b5b81905092915050565b600060c08284031215613fad57613fac613a02565b5b6000613fbb84828501613f78565b91505092915050565b6000819050919050565b613fd781613fc4565b8114613fe257600080fd5b50565b600081359050613ff481613fce565b92915050565b6000602082840312156140105761400f613a02565b5b600061401e84828501613fe5565b91505092915050565b7f4e487b7100000000000000000000000000000000000000000000000000000000600052602160045260246000fd5b6002811061406757614066614027565b5b50565b600081905061407882614056565b919050565b60006140888261406a565b9050919050565b6140988161407d565b82525050565b6140a781613b41565b82525050565b600060a0820190506140c2600083018861408f565b6140cf6020830187613e80565b6140dc6040830186613e80565b6140e9606083018561409e565b6140f6608083018461409e565b9695505050505050565b61410981613e6e565b811461411457600080fd5b50565b60008135905061412681614100565b92915050565b6000806040838503121561414357614142613a02565b5b600061415185828601613fe5565b925050602061416285828601614117565b9150509250929050565b61417581613fc4565b82525050565b6003811061418c5761418b614027565b5b50565b600081905061419d8261417b565b919050565b60006141ad8261418f565b9050919050565b6141bd816141a2565b82525050565b600060e0820190506141d8600083018a613f00565b6141e5602083018961416c565b6141f260408301886141b4565b6141ff6060830187613e80565b61420c6080830186613e80565b61421960a0830185613f00565b61422660c0830184613f00565b98975050505050505050565b6000819050919050565b600061425761425261424d84613e4e565b614232565b613e4e565b9050919050565b60006142698261423c565b9050919050565b600061427b8261425e565b9050919050565b61428b81614270565b82525050565b60006020820190506142a66000830184614282565b92915050565b6000602082840312156142c2576142c1613a02565b5b60006142d084828501614117565b91505092915050565b600481106142ea576142e9614027565b5b50565b60008190506142fb826142d9565b919050565b600061430b826142ed565b9050919050565b61431b81614300565b82525050565b61432a81613e6e565b82525050565b61433981613ef6565b82525050565b6040820160008201516143556000850182614321565b5060208201516143686020850182614330565b50505050565b60008115159050919050565b6143838161436e565b82525050565b60006101c08201905061439f600083018f61416c565b6143ac602083018e614312565b6143b9604083018d613e80565b6143c6606083018c61433f565b6143d360a083018b613e80565b6143e060c083018a61433f565b6143ee610100830189613f00565b6143fc610120830188613f00565b61440a610140830187613f00565b614418610160830186613f00565b614426610180830185613f00565b6144346101a083018461437a565b9d9c50505050505050505050505050565b600060408201905061445a6000830185613e80565b6144676020830184613e80565b9392505050565b600060208201905061448360008301846141b4565b92915050565b600060408201905061449e6000830185613f00565b6144ab6020830184613f00565b9392505050565b6144bb81613e6e565b82525050565b6144ca81613ef6565b82525050565b600060c0820190506144e560008301896144b2565b6144f260208301886144b2565b6144ff60408301876144c1565b61450c60608301866144c1565b61451960808301856144c1565b61452660a08301846144b2565b979650505050505050565b6000819050919050565b600060ff82169050919050565b600061456361455e61455984614531565b614232565b61453b565b9050919050565b61457381614548565b82525050565b6007811061458a57614589614027565b5b50565b600081905061459b82614579565b919050565b60006145ab8261458d565b9050919050565b6145bb816145a0565b82525050565b60006145d06020840184613fe5565b905092915050565b6145e181613fc4565b82525050565b60006145f66020840184614117565b905092915050565b6040820161460f60008301836145c1565b61461c60008501826145d8565b5061462a60208301836145e7565b6146376020850182614321565b50505050565b6000608082019050614652600083018661456a565b61465f60208301856145b2565b61466c60408301846145fe565b949350505050565b600061467f82613e4e565b9050919050565b61468f81614674565b82525050565b600081519050919050565b600082825260208201905092915050565b60005b838110156146cf5780820151818401526020810190506146b4565b60008484015250505050565b60006146e682614695565b6146f081856146a0565b93506147008185602086016146b1565b61470981613b85565b840191505092915050565b6000606082019050614729600083018661409e565b6147366020830185614686565b818103604083015261474881846146db565b9050949350505050565b600080fd5b60006040828403121561476d5761476c614752565b5b6147776040613bf6565b9050600061478784828501613fe5565b600083015250602061479b84828501614117565b60208301525092915050565b6000604082840312156147bd576147bc613a02565b5b60006147cb84828501614757565b91505092915050565b6147dd81613fc4565b82525050565b6147ec81613e6e565b82525050565b60408201600082015161480860008501826147d4565b50602082015161481b60208501826147e3565b50505050565b8082525050565b600060608201905061483d60008301856147f2565b61484a6040830184614821565b9392505050565b7f4e487b7100000000000000000000000000000000000000000000000000000000600052601160045260246000fd5b600061488b82613ef6565b915061489683613ef6565b92508282039050818111156148ae576148ad614851565b5b92915050565b600060e0820190506148c9600083018a6144b2565b6148d660208301896144b2565b6148e360408301886144b2565b6148f060608301876144c1565b6148fd60808301866144c1565b61490a60a08301856144c1565b61491760c08301846144b2565b98975050505050505050565b6040820161493460008301836145c1565b61494160008501826145d8565b5061494f60208301836145e7565b61495c6020850182614321565b50505050565b6000608082019050614977600083018661456a565b61498460208301856145b2565b6149916040830184614923565b949350505050565b8082525050565b60006020820190506149b56000830184614999565b92915050565b60006040820190506149d06000830185613e80565b6149dd6020830184613f00565b9392505050565b6149ed8161436e565b81146149f857600080fd5b50565b600081519050614a0a816149e4565b92915050565b600060208284031215614a2657614a25613a02565b5b6000614a34848285016149fb565b91505092915050565b6000606082019050614a52600083018661456a565b614a5f60208301856145b2565b614a6c604083018461416c565b949350505050565b614a7d81613fc4565b82525050565b6000604082019050614a986000830185614821565b614aa56020830184614a74565b9392505050565b6000614ab782613ef6565b9150614ac283613ef6565b9250828201905080821115614ada57614ad9614851565b5b92915050565b614ae981613ef6565b8114614af457600080fd5b50565b600081359050614b0681614ae0565b92915050565b6000614b1b6020840184614af7565b905092915050565b60608201614b3460008301836145c1565b614b4160008501826145d8565b50614b4f60208301836145e7565b614b5c6020850182614321565b50614b6a6040830183614b0c565b614b776040850182614330565b50505050565b600060a082019050614b92600083018661456a565b614b9f60208301856145b2565b614bac6040830184614b23565b949350505050565b600080fd5b600080fd5b60008085851115614bd257614bd1614bb4565b5b83861115614be357614be2614bb9565b5b6001850283019150848603905094509492505050565b60078110614c0657600080fd5b50565b600081359050614c1881614bf9565b92915050565b600060208284031215614c3457614c33613a02565b5b6000614c4284828501614c09565b91505092915050565b600082905092915050565b600082821b905092915050565b6000614c6f8383614c4b565b82614c7a8135613fc4565b92506020821015614cba57614cb57fffffffffffffffffffffffffffffffffffffffffffffffffffffffffffffffff83602003600802614c56565b831692505b505092915050565b600060408284031215614cd857614cd7614752565b5b614ce26040613bf6565b90506000614cf284828501614117565b6000830152506020614d0684828501614af7565b60208301525092915050565b600081359050614d21816149e4565b92915050565b600060c08284031215614d3d57614d3c614752565b5b614d4760a0613bf6565b90506000614d5784828501614cc2565b6000830152506040614d6b84828501614117565b6020830152506060614d7f84828501614117565b6040830152506080614d9384828501614d12565b60608301525060a0614da784828501614af7565b60808301525092915050565b600060c08284031215614dc957614dc8613a02565b5b6000614dd784828501614d27565b91505092915050565b600060a08284031215614df657614df5614752565b5b614e0060a0613bf6565b90506000614e1084828501614af7565b6000830152506020614e2484828501614117565b6020830152506040614e3884828501614117565b6040830152506060614e4c84828501613fe5565b6060830152506080614e6084828501614af7565b60808301525092915050565b600060a08284031215614e8257614e81613a02565b5b6000614e9084828501614de0565b91505092915050565b8082525050565b614ea981613ef6565b82525050565b60a082016000820151614ec56000850182614ea0565b506020820151614ed860208501826147e3565b506040820151614eeb60408501826147e3565b506060820151614efe60608501826147d4565b506080820151614f116080850182614ea0565b50505050565b600060c082019050614f2c6000830185614e99565b614f396020830184614eaf565b9392505050565b600060408284031215614f5657614f55614752565b5b614f606040613bf6565b90506000614f7084828501613fe5565b6000830152506020614f8484828501614117565b60208301525092915050565b600060408284031215614fa657614fa5613a02565b5b6000614fb484828501614f40565b91505092915050565b600060608284031215614fd357614fd2614752565b5b614fdd6060613bf6565b90506000614fed84828501613fe5565b600083015250602061500184828501614117565b602083015250604061501584828501614af7565b60408301525092915050565b60006060828403121561503757615036613a02565b5b600061504584828501614fbd565b91505092915050565b6000819050602082019050919050565b60007fffffffffffffffffffffffffffffffffffffffff00000000000000000000000082169050919050565b6000615096825161505e565b80915050919050565b60006150aa82614695565b826150b48461504e565b90506150bf8161508a565b925060148210156150ff576150fa7fffffffffffffffffffffffffffffffffffffffff00000000000000000000000083601403600802614c56565b831692505b5050919050565b60a082016151176000830183614b0c565b6151246000850182614ea0565b5061513260208301836145e7565b61513f60208501826147e3565b5061514d60408301836145e7565b61515a60408501826147e3565b5061516860608301836145c1565b61517560608501826147d4565b506151836080830183614b0c565b6151906080850182614ea0565b50505050565b600060c0820190506151ab6000830185614e99565b6151b86020830184615106565b9392505050565b60a082016151d06000830183614b0c565b6151dd6000850182614330565b506151eb60208301836145e7565b6151f86020850182614321565b5061520660408301836145e7565b6152136040850182614321565b5061522160608301836145c1565b61522e60608501826145d8565b5061523c6080830183614b0c565b6152496080850182614330565b50505050565b600060e082019050615264600083018661456a565b61527160208301856145b2565b61527e60408301846151bf565b949350505050565b6000610140828403121561529d5761529c614752565b5b6152a8610100613bf6565b905060006152b884828501613fe5565b60008301525060206152cc84828501614cc2565b60208301525060606152e084828501614cc2565b60408301525060a06152f484828501614117565b60608301525060c061530884828501614117565b60808301525060e061531c84828501614af7565b60a08301525061010061533184828501614af7565b60c08301525061012061534684828501614d12565b60e08301525092915050565b6000610140828403121561536957615368613a02565b5b600061537784828501615286565b91505092915050565b60408201600082015161539660008501826147e3565b5060208201516153a96020850182614ea0565b50505050565b6153b88161436e565b82525050565b610140820160008201516153d560008501826147d4565b5060208201516153e86020850182615380565b5060408201516153fb6060850182615380565b50606082015161540e60a08501826147e3565b50608082015161542160c08501826147e3565b5060a082015161543460e0850182614ea0565b5060c0820151615448610100850182614ea0565b5060e082015161545c6101208501826153af565b50505050565b60006101408201905061547860008301846153be565b92915050565b60006040820190506154936000830185614a74565b6154a060208301846144b2565b9392505050565b6000815190506154b681613fce565b92915050565b6000602082840312156154d2576154d1613a02565b5b60006154e0848285016154a7565b91505092915050565b60006101a0820190506154ff6000830187614821565b61550c60208301866153be565b61551a610160830185614a74565b6155286101808301846144b2565b95945050505050565b60006020828403121561554757615546613a02565b5b600061555584828501613b66565b91505092915050565b600082825260208201905092915050565b7f4e6f7420656e6f75676820657468657200000000000000000000000000000000600082015250565b60006155a560108361555e565b91506155b08261556f565b602082019050919050565b600060208201905081810360008301526155d481615598565b9050919050565b6040820160008201516155f16000850182614321565b5060208201516156046020850182614330565b50505050565b6156138161436e565b82525050565b60c08201600082015161562f60008501826155db565b5060208201516156426040850182614321565b5060408201516156556060850182614321565b506060820151615668608085018261560a565b50608082015161567b60a0850182614330565b50505050565b600061012082019050615697600083018761456a565b6156a460208301866145b2565b6156b1604083018561416c565b6156be6060830184615619565b95945050505050565b600060c082840312156156dd576156dc614752565b5b6156e760c0613bf6565b905060006156f784828501614117565b600083015250602061570b84828501613b66565b602083015250604061571f84828501614117565b604083015250606061573384828501614117565b606083015250608061574784828501614af7565b60808301525060a061575b84828501614af7565b60a08301525092915050565b600060c0828403121561577d5761577c613a02565b5b600061578b848285016156c7565b91505092915050565b61579d81613b41565b82525050565b60c0820160008201516157b960008501826147e3565b5060208201516157cc6020850182615794565b5060408201516157df60408501826147e3565b5060608201516157f260608501826147e3565b5060808201516158056080850182614ea0565b5060a082015161581860a0850182614ea0565b50505050565b600060e08201905061583360008301856157a3565b61584060c08301846144c1565b9392505050565b6000819050919050565b600061586c61586761586284615847565b614232565b613cc1565b9050919050565b61587c81615851565b82525050565b60006020820190506158976000830184615873565b92915050565b6000815190506158ac81614ae0565b92915050565b6000602082840312156158c8576158c7613a02565b5b60006158d68482850161589d565b91505092915050565b60006060820190506158f46000830186613e80565b6159016020830185613e80565b61590e6040830184613f00565b949350505050565b7f4661696c656420746f207472616e736665722066726f6d000000000000000000600082015250565b600061594c60178361555e565b915061595782615916565b602082019050919050565b6000602082019050818103600083015261597b8161593f565b905091905056fea2646970667358221220895133d3d816cfb8955ba1f20907d59171198ef9065e5072622be7bf1584bcfb64736f6c63430008140033",
  "linkReferences": {
    "contracts/abstracts/libs/AtomicSwapHelper.sol": {
      "AtomicSwapHelper": [
        {
          "length": 20,
          "start": 2075
        },
        {
          "length": 20,
          "start": 3212
        },
        {
          "length": 20,
          "start": 4454
        },
        {
          "length": 20,
          "start": 6675
        },
        {
          "length": 20,
          "start": 6869
        },
        {
          "length": 20,
          "start": 7222
        },
        {
          "length": 20,
          "start": 8507
        },
        {
          "length": 20,
          "start": 9016
        },
        {
          "length": 20,
          "start": 9143
        }
      ]
    },
    "contracts/abstracts/libs/AtomicSwapMsgValidator.sol": {
      "AtomicSwapMsgValidator": [
        {
          "length": 20,
          "start": 2787
        },
        {
          "length": 20,
          "start": 3910
        },
        {
          "length": 20,
          "start": 8905
        }
      ]
    },
    "contracts/interchain_atomicswap/libs/InterchainAtomicSwapLogic.sol": {
      "InterchainAtomicSwapLogic": [
        {
          "length": 20,
          "start": 10676
        }
      ]
    }
  },
  "deployedLinkReferences": {
    "contracts/abstracts/libs/AtomicSwapHelper.sol": {
      "AtomicSwapHelper": [
        {
          "length": 20,
          "start": 2042
        },
        {
          "length": 20,
          "start": 3179
        },
        {
          "length": 20,
          "start": 4421
        },
        {
          "length": 20,
          "start": 6642
        },
        {
          "length": 20,
          "start": 6836
        },
        {
          "length": 20,
          "start": 7189
        },
        {
          "length": 20,
          "start": 8474
        },
        {
          "length": 20,
          "start": 8983
        },
        {
          "length": 20,
          "start": 9110
        }
      ]
    },
    "contracts/abstracts/libs/AtomicSwapMsgValidator.sol": {
      "AtomicSwapMsgValidator": [
        {
          "length": 20,
          "start": 2754
        },
        {
          "length": 20,
          "start": 3877
        },
        {
          "length": 20,
          "start": 8872
        }
      ]
    },
    "contracts/interchain_atomicswap/libs/InterchainAtomicSwapLogic.sol": {
      "InterchainAtomicSwapLogic": [
        {
          "length": 20,
          "start": 10643
        }
      ]
    }
  }
}