{
  "_format": "hh-sol-artifact-1",
  "contractName": "InterchainAtomicSwap",
  "sourceName": "contracts/interchain_atomicswap/InterchainAtomicSwap.sol",
  "abi": [
    {
      "inputs": [
        {
          "internalType": "uint256",
          "name": "provided",
          "type": "uint256"
        },
        {
          "internalType": "uint256",
          "name": "expectedExpiry",
          "type": "uint256"
        }
      ],
      "name": "BidAlreadyExpired",
      "type": "error"
    },
    {
      "inputs": [],
      "name": "BidAlreadyPlaced",
      "type": "error"
    },
    {
      "inputs": [],
      "name": "BidDoesNotExist",
      "type": "error"
    },
    {
      "inputs": [],
      "name": "BidNotAllowed",
      "type": "error"
    },
    {
      "inputs": [
        {
          "internalType": "enum IAtomicSwapBase.BidStatus",
          "name": "status",
          "type": "uint8"
        }
      ],
      "name": "BidNotInPlacedStatus",
      "type": "error"
    },
    {
      "inputs": [
        {
          "internalType": "address",
          "name": "contractAddress",
          "type": "address"
        }
      ],
      "name": "InvalidContractAddress",
      "type": "error"
    },
    {
      "inputs": [
        {
          "internalType": "uint256",
          "name": "provided",
          "type": "uint256"
        },
        {
          "internalType": "uint256",
          "name": "maximum",
          "type": "uint256"
        }
      ],
      "name": "InvalidExpirationTime",
      "type": "error"
    },
    {
      "inputs": [],
      "name": "InvalidInitialization",
      "type": "error"
    },
    {
      "inputs": [],
      "name": "InvalidMinimumBidLimit",
      "type": "error"
    },
    {
      "inputs": [],
      "name": "InvalidTotalPercentage",
      "type": "error"
    },
    {
      "inputs": [
        {
          "internalType": "uint256",
          "name": "amount",
          "type": "uint256"
        }
      ],
      "name": "MismatchedBidAmount",
      "type": "error"
    },
    {
      "inputs": [],
      "name": "NoBidPlaced",
      "type": "error"
    },
    {
      "inputs": [
        {
          "internalType": "uint256",
          "name": "amount",
          "type": "uint256"
        },
        {
          "internalType": "uint256",
          "name": "allowance",
          "type": "uint256"
        }
      ],
      "name": "NotAllowedTransferAmount",
      "type": "error"
    },
    {
      "inputs": [
        {
          "internalType": "uint256",
          "name": "real",
          "type": "uint256"
        },
        {
          "internalType": "uint256",
          "name": "expected",
          "type": "uint256"
        }
      ],
      "name": "NotEnoughFund",
      "type": "error"
    },
    {
      "inputs": [],
      "name": "NotInitializing",
      "type": "error"
    },
    {
      "inputs": [],
      "name": "OrderAlreadyCompleted",
      "type": "error"
    },
    {
      "inputs": [],
      "name": "OrderAlreadyExists",
      "type": "error"
    },
    {
      "inputs": [],
      "name": "OrderDoesNotExist",
      "type": "error"
    },
    {
      "inputs": [],
      "name": "OrderNotAllowTake",
      "type": "error"
    },
    {
      "inputs": [],
      "name": "OverMaximumReleaseStep",
      "type": "error"
    },
    {
      "inputs": [
        {
          "internalType": "address",
          "name": "owner",
          "type": "address"
        }
      ],
      "name": "OwnableInvalidOwner",
      "type": "error"
    },
    {
      "inputs": [
        {
          "internalType": "address",
          "name": "account",
          "type": "address"
        }
      ],
      "name": "OwnableUnauthorizedAccount",
      "type": "error"
    },
    {
      "inputs": [],
      "name": "ReentrancyGuardReentrantCall",
      "type": "error"
    },
    {
      "inputs": [
        {
          "internalType": "address",
          "name": "caller",
          "type": "address"
        },
        {
          "internalType": "address",
          "name": "expected",
          "type": "address"
        }
      ],
      "name": "UnauthorizedAcceptAction",
      "type": "error"
    },
    {
      "inputs": [],
      "name": "UnauthorizedCancelAction",
      "type": "error"
    },
    {
      "inputs": [],
      "name": "UnauthorizedSender",
      "type": "error"
    },
    {
      "inputs": [],
      "name": "UnauthorizedTakeAction",
      "type": "error"
    },
    {
      "inputs": [],
      "name": "UnsupportedTokenPair",
      "type": "error"
    },
    {
      "inputs": [],
      "name": "ZeroReleaseSchedule",
      "type": "error"
    },
    {
      "anonymous": false,
      "inputs": [
        {
          "indexed": true,
          "internalType": "bytes32",
          "name": "orderID",
          "type": "bytes32"
        },
        {
          "indexed": true,
          "internalType": "address",
          "name": "bidder",
          "type": "address"
        },
        {
          "indexed": true,
          "internalType": "uint256",
          "name": "amount",
          "type": "uint256"
        }
      ],
      "name": "AcceptedBid",
      "type": "event"
    },
    {
      "anonymous": false,
      "inputs": [
        {
          "indexed": true,
          "internalType": "bytes32",
          "name": "id",
          "type": "bytes32"
        }
      ],
      "name": "AtomicSwapOrderCanceled",
      "type": "event"
    },
    {
      "anonymous": false,
      "inputs": [
        {
          "indexed": true,
          "internalType": "bytes32",
          "name": "id",
          "type": "bytes32"
        }
      ],
      "name": "AtomicSwapOrderCreated",
      "type": "event"
    },
    {
      "anonymous": false,
      "inputs": [
        {
          "indexed": true,
          "internalType": "address",
          "name": "maker",
          "type": "address"
        },
        {
          "indexed": true,
          "internalType": "address",
          "name": "taker",
          "type": "address"
        },
        {
          "indexed": true,
          "internalType": "bytes32",
          "name": "id",
          "type": "bytes32"
        }
      ],
      "name": "AtomicSwapOrderTook",
      "type": "event"
    },
    {
      "anonymous": false,
      "inputs": [
        {
          "indexed": true,
          "internalType": "bytes32",
          "name": "orderID",
          "type": "bytes32"
        },
        {
          "indexed": true,
          "internalType": "address",
          "name": "bidder",
          "type": "address"
        }
      ],
      "name": "CanceledBid",
      "type": "event"
    },
    {
      "anonymous": false,
      "inputs": [
        {
          "indexed": false,
          "internalType": "uint64",
          "name": "version",
          "type": "uint64"
        }
      ],
      "name": "Initialized",
      "type": "event"
    },
    {
      "anonymous": false,
      "inputs": [
        {
          "indexed": true,
          "internalType": "address",
          "name": "previousOwner",
          "type": "address"
        },
        {
          "indexed": true,
          "internalType": "address",
          "name": "newOwner",
          "type": "address"
        }
      ],
      "name": "OwnershipTransferred",
      "type": "event"
    },
    {
      "anonymous": false,
      "inputs": [
        {
          "indexed": true,
          "internalType": "bytes32",
          "name": "orderID",
          "type": "bytes32"
        },
        {
          "indexed": true,
          "internalType": "address",
          "name": "bidder",
          "type": "address"
        },
        {
          "indexed": true,
          "internalType": "uint256",
          "name": "amount",
          "type": "uint256"
        }
      ],
      "name": "PlacedBid",
      "type": "event"
    },
    {
      "anonymous": false,
      "inputs": [
        {
          "indexed": true,
          "internalType": "bytes32",
          "name": "orderID",
          "type": "bytes32"
        },
        {
          "indexed": true,
          "internalType": "address",
          "name": "bidder",
          "type": "address"
        },
        {
          "indexed": true,
          "internalType": "uint256",
          "name": "amount",
          "type": "uint256"
        }
      ],
      "name": "ReceivedNewBid",
      "type": "event"
    },
    {
      "anonymous": false,
      "inputs": [
        {
          "indexed": true,
          "internalType": "bytes32",
          "name": "orderID",
          "type": "bytes32"
        },
        {
          "indexed": true,
          "internalType": "address",
          "name": "bidder",
          "type": "address"
        },
        {
          "indexed": true,
          "internalType": "uint256",
          "name": "amount",
          "type": "uint256"
        }
      ],
      "name": "UpdatedBid",
      "type": "event"
    },
    {
      "inputs": [
        {
          "components": [
            {
              "internalType": "bytes32",
              "name": "orderID",
              "type": "bytes32"
            },
            {
              "internalType": "address",
              "name": "bidder",
              "type": "address"
            }
          ],
          "internalType": "struct IAtomicSwapBase.AcceptBidMsg",
          "name": "acceptBidMsg",
          "type": "tuple"
        }
      ],
      "name": "acceptBid",
      "outputs": [],
      "stateMutability": "payable",
      "type": "function"
    },
    {
      "inputs": [
        {
          "internalType": "bytes32",
          "name": "",
          "type": "bytes32"
        },
        {
          "internalType": "address",
          "name": "",
          "type": "address"
        }
      ],
      "name": "bids",
      "outputs": [
        {
          "internalType": "uint256",
          "name": "amount",
          "type": "uint256"
        },
        {
          "internalType": "bytes32",
          "name": "order",
          "type": "bytes32"
        },
        {
          "internalType": "enum IAtomicSwapBase.BidStatus",
          "name": "status",
          "type": "uint8"
        },
        {
          "internalType": "address",
          "name": "bidder",
          "type": "address"
        },
        {
          "internalType": "address",
          "name": "bidderReceiver",
          "type": "address"
        },
        {
          "internalType": "uint256",
          "name": "receiveTimestamp",
          "type": "uint256"
        },
        {
          "internalType": "uint256",
          "name": "expireTimestamp",
          "type": "uint256"
        }
      ],
      "stateMutability": "view",
      "type": "function"
    },
    {
      "inputs": [],
      "name": "bridge",
      "outputs": [
        {
          "internalType": "contract ISideLzAppUpgradable",
          "name": "",
          "type": "address"
        }
      ],
      "stateMutability": "view",
      "type": "function"
    },
    {
      "inputs": [],
      "name": "buyerFeeRate",
      "outputs": [
        {
          "internalType": "uint256",
          "name": "",
          "type": "uint256"
        }
      ],
      "stateMutability": "view",
      "type": "function"
    },
    {
      "inputs": [
        {
          "internalType": "bytes",
          "name": "data",
          "type": "bytes"
        }
      ],
      "name": "bytesToAddress",
      "outputs": [
        {
          "internalType": "address",
          "name": "",
          "type": "address"
        }
      ],
      "stateMutability": "pure",
      "type": "function"
    },
    {
      "inputs": [
        {
          "internalType": "bytes32",
          "name": "_orderID",
          "type": "bytes32"
        }
      ],
      "name": "cancelBid",
      "outputs": [],
      "stateMutability": "payable",
      "type": "function"
    },
    {
      "inputs": [
        {
          "components": [
            {
              "internalType": "bytes32",
              "name": "orderID",
              "type": "bytes32"
            }
          ],
          "internalType": "struct IAtomicSwapBase.CancelSwapMsg",
          "name": "cancelswap",
          "type": "tuple"
        }
      ],
      "name": "cancelSwap",
      "outputs": [],
      "stateMutability": "payable",
      "type": "function"
    },
    {
      "inputs": [
        {
          "internalType": "bytes32",
          "name": "",
          "type": "bytes32"
        },
        {
          "internalType": "address",
          "name": "",
          "type": "address"
        }
      ],
      "name": "counteroffers",
      "outputs": [
        {
          "internalType": "uint256",
          "name": "",
          "type": "uint256"
        }
      ],
      "stateMutability": "view",
      "type": "function"
    },
    {
      "inputs": [
        {
          "components": [
            {
              "internalType": "address",
              "name": "admin",
              "type": "address"
            },
            {
              "internalType": "address",
              "name": "vestingManager",
              "type": "address"
            },
            {
              "internalType": "uint16",
              "name": "chainID",
              "type": "uint16"
            },
            {
              "internalType": "address",
              "name": "bridge",
              "type": "address"
            },
            {
              "internalType": "address",
              "name": "treasury",
              "type": "address"
            },
            {
              "internalType": "uint256",
              "name": "sellerFee",
              "type": "uint256"
            },
            {
              "internalType": "uint256",
              "name": "buyerFee",
              "type": "uint256"
            }
          ],
          "internalType": "struct IInterchainAtomicSwap.InitialParams",
          "name": "_params",
          "type": "tuple"
        }
      ],
      "name": "initialize",
      "outputs": [],
      "stateMutability": "nonpayable",
      "type": "function"
    },
    {
      "inputs": [
        {
          "components": [
            {
              "components": [
                {
                  "internalType": "bytes32",
                  "name": "uuid",
                  "type": "bytes32"
                },
                {
                  "components": [
                    {
                      "internalType": "address",
                      "name": "token",
                      "type": "address"
                    },
                    {
                      "internalType": "uint256",
                      "name": "amount",
                      "type": "uint256"
                    }
                  ],
                  "internalType": "struct IAtomicSwapBase.Coin",
                  "name": "sellToken",
                  "type": "tuple"
                },
                {
                  "components": [
                    {
                      "internalType": "address",
                      "name": "token",
                      "type": "address"
                    },
                    {
                      "internalType": "uint256",
                      "name": "amount",
                      "type": "uint256"
                    }
                  ],
                  "internalType": "struct IAtomicSwapBase.Coin",
                  "name": "buyToken",
                  "type": "tuple"
                },
                {
                  "internalType": "address",
                  "name": "maker",
                  "type": "address"
                },
                {
                  "internalType": "address",
                  "name": "desiredTaker",
                  "type": "address"
                },
                {
                  "internalType": "uint256",
                  "name": "minBidAmount",
                  "type": "uint256"
                },
                {
                  "internalType": "uint256",
                  "name": "expireAt",
                  "type": "uint256"
                },
                {
                  "internalType": "bool",
                  "name": "acceptBid",
                  "type": "bool"
                }
              ],
              "internalType": "struct IAtomicSwapBase.MakeSwapMsg",
              "name": "base",
              "type": "tuple"
            },
            {
              "internalType": "address",
              "name": "makerReceiver",
              "type": "address"
            },
            {
              "internalType": "address",
              "name": "desiredTaker",
              "type": "address"
            },
            {
              "internalType": "uint16",
              "name": "dstChainID",
              "type": "uint16"
            }
          ],
          "internalType": "struct IInterchainAtomicSwap.ICMakeSwapMsg",
          "name": "icMakeSwap",
          "type": "tuple"
        }
      ],
      "name": "makeSwap",
      "outputs": [
        {
          "internalType": "bytes32",
          "name": "",
          "type": "bytes32"
        }
      ],
      "stateMutability": "payable",
      "type": "function"
    },
    {
      "inputs": [
        {
          "internalType": "uint16",
          "name": "_srcChainID",
          "type": "uint16"
        },
        {
          "internalType": "bytes",
          "name": "_srcAddress",
          "type": "bytes"
        },
        {
          "internalType": "uint64",
          "name": "_nonce",
          "type": "uint64"
        },
        {
          "internalType": "bytes",
          "name": "_payload",
          "type": "bytes"
        }
      ],
      "name": "onReceivePacket",
      "outputs": [],
      "stateMutability": "payable",
      "type": "function"
    },
    {
      "inputs": [],
      "name": "owner",
      "outputs": [
        {
          "internalType": "address",
          "name": "",
          "type": "address"
        }
      ],
      "stateMutability": "view",
      "type": "function"
    },
    {
      "inputs": [
        {
          "components": [
            {
              "internalType": "uint256",
              "name": "bidAmount",
              "type": "uint256"
            },
            {
              "internalType": "address",
              "name": "bidder",
              "type": "address"
            },
            {
              "internalType": "address",
              "name": "bidderReceiver",
              "type": "address"
            },
            {
              "internalType": "bytes32",
              "name": "orderID",
              "type": "bytes32"
            },
            {
              "internalType": "uint256",
              "name": "expireTimestamp",
              "type": "uint256"
            }
          ],
          "internalType": "struct IAtomicSwapBase.PlaceBidMsg",
          "name": "placeBidMsg",
          "type": "tuple"
        }
      ],
      "name": "placeBid",
      "outputs": [],
      "stateMutability": "payable",
      "type": "function"
    },
    {
      "inputs": [],
      "name": "renounceOwnership",
      "outputs": [],
      "stateMutability": "nonpayable",
      "type": "function"
    },
    {
      "inputs": [],
      "name": "sellerFeeRate",
      "outputs": [
        {
          "internalType": "uint256",
          "name": "",
          "type": "uint256"
        }
      ],
      "stateMutability": "view",
      "type": "function"
    },
    {
      "inputs": [
        {
          "internalType": "bytes32",
          "name": "",
          "type": "bytes32"
        }
      ],
      "name": "swapOrder",
      "outputs": [
        {
          "internalType": "bytes32",
          "name": "id",
          "type": "bytes32"
        },
        {
          "internalType": "enum IAtomicSwapBase.OrderStatus",
          "name": "status",
          "type": "uint8"
        },
        {
          "internalType": "address",
          "name": "maker",
          "type": "address"
        },
        {
          "components": [
            {
              "internalType": "address",
              "name": "token",
              "type": "address"
            },
            {
              "internalType": "uint256",
              "name": "amount",
              "type": "uint256"
            }
          ],
          "internalType": "struct IAtomicSwapBase.Coin",
          "name": "sellToken",
          "type": "tuple"
        },
        {
          "internalType": "address",
          "name": "taker",
          "type": "address"
        },
        {
          "components": [
            {
              "internalType": "address",
              "name": "token",
              "type": "address"
            },
            {
              "internalType": "uint256",
              "name": "amount",
              "type": "uint256"
            }
          ],
          "internalType": "struct IAtomicSwapBase.Coin",
          "name": "buyToken",
          "type": "tuple"
        },
        {
          "internalType": "uint256",
          "name": "minBidAmount",
          "type": "uint256"
        },
        {
          "internalType": "uint256",
          "name": "createdAt",
          "type": "uint256"
        },
        {
          "internalType": "uint256",
          "name": "canceledAt",
          "type": "uint256"
        },
        {
          "internalType": "uint256",
          "name": "completedAt",
          "type": "uint256"
        },
        {
          "internalType": "uint256",
          "name": "expiredAt",
          "type": "uint256"
        },
        {
          "internalType": "bool",
          "name": "acceptBid",
          "type": "bool"
        }
      ],
      "stateMutability": "view",
      "type": "function"
    },
    {
      "inputs": [
        {
          "internalType": "bytes32",
          "name": "",
          "type": "bytes32"
        }
      ],
      "name": "swapOrderITCParams",
      "outputs": [
        {
          "internalType": "enum IInterchainAtomicSwap.Side",
          "name": "side",
          "type": "uint8"
        },
        {
          "internalType": "address",
          "name": "makerReceiver",
          "type": "address"
        },
        {
          "internalType": "address",
          "name": "takerReceiver",
          "type": "address"
        },
        {
          "internalType": "uint16",
          "name": "srcChainID",
          "type": "uint16"
        },
        {
          "internalType": "uint16",
          "name": "dstChainID",
          "type": "uint16"
        }
      ],
      "stateMutability": "view",
      "type": "function"
    },
    {
      "inputs": [
        {
          "internalType": "bytes32",
          "name": "",
          "type": "bytes32"
        },
        {
          "internalType": "uint256",
          "name": "",
          "type": "uint256"
        }
      ],
      "name": "swapOrderVestingParams",
      "outputs": [
        {
          "internalType": "uint256",
          "name": "durationInHours",
          "type": "uint256"
        },
        {
          "internalType": "uint256",
          "name": "percentage",
          "type": "uint256"
        }
      ],
      "stateMutability": "view",
      "type": "function"
    },
    {
      "inputs": [
        {
          "components": [
            {
              "internalType": "bytes32",
              "name": "orderID",
              "type": "bytes32"
            },
            {
              "internalType": "address",
              "name": "takerReceiver",
              "type": "address"
            }
          ],
          "internalType": "struct IAtomicSwapBase.TakeSwapMsg",
          "name": "takeswap",
          "type": "tuple"
        }
      ],
      "name": "takeSwap",
      "outputs": [],
      "stateMutability": "payable",
      "type": "function"
    },
    {
      "inputs": [
        {
          "internalType": "address",
          "name": "newOwner",
          "type": "address"
        }
      ],
      "name": "transferOwnership",
      "outputs": [],
      "stateMutability": "nonpayable",
      "type": "function"
    },
    {
      "inputs": [
        {
          "components": [
            {
              "internalType": "bytes32",
              "name": "orderID",
              "type": "bytes32"
            },
            {
              "internalType": "address",
              "name": "bidder",
              "type": "address"
            },
            {
              "internalType": "uint256",
              "name": "addition",
              "type": "uint256"
            }
          ],
          "internalType": "struct IAtomicSwapBase.UpdateBidMsg",
          "name": "updateBidMsg",
          "type": "tuple"
        }
      ],
      "name": "updateBid",
      "outputs": [],
      "stateMutability": "payable",
      "type": "function"
    }
  ],
  "bytecode": "0x608060405234801561001057600080fd5b50615f3880620000216000396000f3fe60806040526004361061012a5760003560e01c806366e929bf116100ab5780638da5cb5b1161006f5780638da5cb5b1461039c578063a743a3d0146103c7578063df7cec2814610404578063e78cea9214610420578063f2fde38b1461044b578063fca6caa1146104745761012a565b806366e929bf146102b0578063715018a6146102f357806373d060931461030a57806389f68190146103335780638d6cb1c41461035e5761012a565b806342526e4e116100f257806342526e4e146101bb57806352c95b2a146101f857806353f10c80146102145780635436a65f1461023f5780636220b2e51461026f5761012a565b8063022066611461012f57806306be619c1461014b57806337be0022146101675780633d9bd2fc1461018357806340d7185c1461019f575b600080fd5b61014960048036038101906101449190613dc0565b6104bc565b005b61016560048036038101906101609190613e0c565b610a55565b005b610181600480360381019061017c9190613e58565b6111f1565b005b61019d60048036038101906101989190613ea4565b6115f7565b005b6101b960048036038101906101b491906140f1565b611a6d565b005b3480156101c757600080fd5b506101e260048036038101906101dd9190614195565b612163565b6040516101ef919061421f565b60405180910390f35b610212600480360381019061020d9190614259565b612179565b005b34801561022057600080fd5b506102296125c7565b604051610236919061429f565b60405180910390f35b610259600480360381019061025491906142da565b6125cd565b6040516102669190614321565b60405180910390f35b34801561027b57600080fd5b5061029660048036038101906102919190614368565b612b92565b6040516102a795949392919061441b565b60405180910390f35b3480156102bc57600080fd5b506102d760048036038101906102d2919061449a565b612c31565b6040516102ea9796959493929190614522565b60405180910390f35b3480156102ff57600080fd5b50610308612ccd565b005b34801561031657600080fd5b50610331600480360381019061032c91906145b0565b612ce1565b005b34801561033f57600080fd5b50610348612fea565b604051610355919061429f565b60405180910390f35b34801561036a57600080fd5b5061038560048036038101906103809190614609565b612ff0565b604051610393929190614649565b60405180910390f35b3480156103a857600080fd5b506103b1613031565b6040516103be919061421f565b60405180910390f35b3480156103d357600080fd5b506103ee60048036038101906103e9919061449a565b613069565b6040516103fb919061429f565b60405180910390f35b61041e60048036038101906104199190614368565b61308e565b005b34801561042c57600080fd5b506104356135bf565b60405161044291906146d1565b60405180910390f35b34801561045757600080fd5b50610472600480360381019061046d91906146ec565b6135e5565b005b34801561048057600080fd5b5061049b60048036038101906104969190614368565b61366b565b6040516104b39c9b9a999897969594939291906147c9565b60405180910390f35b6104c46137f9565b80600001356000801b600080838152602001908152602001600020600001540361051a576040517f5dcaf2d700000000000000000000000000000000000000000000000000000000815260040160405180910390fd5b600082600001359050600083602001602081019061053891906146ec565b9050600073ffffffffffffffffffffffffffffffffffffffff163373ffffffffffffffffffffffffffffffffffffffff16036105a0576040517f0809490800000000000000000000000000000000000000000000000000000000815260040160405180910390fd5b6000806000848152602001908152602001600020905080600c0160009054906101000a900460ff166105fe576040517f3c24fafc00000000000000000000000000000000000000000000000000000000815260040160405180910390fd5b3373ffffffffffffffffffffffffffffffffffffffff168160010160019054906101000a900473ffffffffffffffffffffffffffffffffffffffff1673ffffffffffffffffffffffffffffffffffffffff16146106b8578060010160019054906101000a900473ffffffffffffffffffffffffffffffffffffffff16336040517f0500cb4c0000000000000000000000000000000000000000000000000000000081526004016106af929190614885565b60405180910390fd5b60006002600085815260200190815260200160002060008473ffffffffffffffffffffffffffffffffffffffff1673ffffffffffffffffffffffffffffffffffffffff168152602001908152602001600020905060028081111561071f5761071e614395565b5b8160020160009054906101000a900460ff16600281111561074357610742614395565b5b14610796578060020160009054906101000a900460ff166040517f64b08c0600000000000000000000000000000000000000000000000000000000815260040161078d91906148ae565b60405180910390fd5b42816005015410156107e5578060050154426040517f1d3556390000000000000000000000000000000000000000000000000000000081526004016107dc929190614649565b60405180910390fd5b60018160020160006101000a81548160ff0219169083600281111561080d5761080c614395565b5b021790555060008260020190508060000160009054906101000a900473ffffffffffffffffffffffffffffffffffffffff1673ffffffffffffffffffffffffffffffffffffffff1673__$b9ebb88af43d68d18cc83c52d00a91a1a0$__6306cf228090918460030160009054906101000a900473ffffffffffffffffffffffffffffffffffffffff168460010154600654612710600460009054906101000a900473ffffffffffffffffffffffffffffffffffffffff166040518763ffffffff1660e01b81526004016108e5969594939291906148e7565b60006040518083038186803b1580156108fd57600080fd5b505af4158015610911573d6000803e3d6000fd5b5050505060008060058960405160200161092d93929190614a54565b604051602081830303815290604052905060006009600088815260200190815260200160002060010160169054906101000a900461ffff169050600860009054906101000a900473ffffffffffffffffffffffffffffffffffffffff1673ffffffffffffffffffffffffffffffffffffffff1663e4a8b2f9348333866040518563ffffffff1660e01b81526004016109c793929190614b2b565b6000604051808303818588803b1580156109e057600080fd5b505af11580156109f4573d6000803e3d6000fd5b505050505083600001548673ffffffffffffffffffffffffffffffffffffffff16887fadd1d5b6c827fee45fa32e72964c9d43d2191c9b8b083889fb2e3f468c71856860405160405180910390a45050505050505050610a52613850565b50565b610a5d6137f9565b80600001356000801b6000808381526020019081526020016000206000015403610ab3576040517f5dcaf2d700000000000000000000000000000000000000000000000000000000815260040160405180910390fd5b600080600084600001358152602001908152602001600020905082803603810190610ade9190614bbe565b73__$2effe1973215a034e8e4a17bdeb5710028$__63fe963084909160006040518363ffffffff1660e01b8152600401610b19929190614c3f565b60006040518083038186803b158015610b3157600080fd5b505af4158015610b45573d6000803e3d6000fd5b5050505060028160010160006101000a81548160ff02191690836003811115610b7157610b70614395565b5b02179055504281600a01819055506000349050600073ffffffffffffffffffffffffffffffffffffffff168260050160000160009054906101000a900473ffffffffffffffffffffffffffffffffffffffff1673ffffffffffffffffffffffffffffffffffffffff1603610c495781600501600101543411610c33573482600501600101546040517f04157bb4000000000000000000000000000000000000000000000000000000008152600401610c2a929190614649565b60405180910390fd5b816005016001015434610c469190614c97565b90505b60006001600084600001548152602001908152602001600020805480602002602001604051908101604052809291908181526020016000905b82821015610cc857838290600052602060002090600202016040518060400160405290816000820154815260200160018201548152505081526020019060010190610c82565b5050505090506000815103610dcb578260020160000160009054906101000a900473ffffffffffffffffffffffffffffffffffffffff1673ffffffffffffffffffffffffffffffffffffffff1673__$b9ebb88af43d68d18cc83c52d00a91a1a0$__6306cf22809091876020016020810190610d4491906146ec565b8660020160010154600654612710600460009054906101000a900473ffffffffffffffffffffffffffffffffffffffff166040518763ffffffff1660e01b8152600401610d96969594939291906148e7565b60006040518083038186803b158015610dae57600080fd5b505af4158015610dc2573d6000803e3d6000fd5b50505050611051565b600073ffffffffffffffffffffffffffffffffffffffff168360020160000160009054906101000a900473ffffffffffffffffffffffffffffffffffffffff1673ffffffffffffffffffffffffffffffffffffffff1603610f01576000600360009054906101000a900473ffffffffffffffffffffffffffffffffffffffff1673ffffffffffffffffffffffffffffffffffffffff168460020160010154604051610e7590614cfc565b60006040518083038185875af1925050503d8060008114610eb2576040519150601f19603f3d011682016040523d82523d6000602084013e610eb7565b606091505b5050905080610efb576040517f08c379a0000000000000000000000000000000000000000000000000000000008152600401610ef290614d6e565b60405180910390fd5b50610f7d565b610f7c600360009054906101000a900473ffffffffffffffffffffffffffffffffffffffff1684600201600101548560020160000160009054906101000a900473ffffffffffffffffffffffffffffffffffffffff1673ffffffffffffffffffffffffffffffffffffffff166138699092919063ffffffff16565b5b600360009054906101000a900473ffffffffffffffffffffffffffffffffffffffff1673ffffffffffffffffffffffffffffffffffffffff1663d20252a1866020016020810190610fce91906146ec565b8560020160000160009054906101000a900473ffffffffffffffffffffffffffffffffffffffff168660020160010154856040518563ffffffff1660e01b815260040161101e9493929190614e6c565b600060405180830381600087803b15801561103857600080fd5b505af115801561104c573d6000803e3d6000fd5b505050505b60008060018760405160200161106993929190614ef7565b60405160208183030381529060405290506000600960008860000135815260200190815260200160002060010160169054906101000a900461ffff169050600860009054906101000a900473ffffffffffffffffffffffffffffffffffffffff1673ffffffffffffffffffffffffffffffffffffffff1663e4a8b2f9858333866040518563ffffffff1660e01b815260040161110793929190614b2b565b6000604051808303818588803b15801561112057600080fd5b505af1158015611134573d6000803e3d6000fd5b505050505086600001358560040160009054906101000a900473ffffffffffffffffffffffffffffffffffffffff1673ffffffffffffffffffffffffffffffffffffffff168660010160019054906101000a900473ffffffffffffffffffffffffffffffffffffffff1673ffffffffffffffffffffffffffffffffffffffff167f6bf7309f141d1b44e414f1fc04d98491cd0acf98f0f1e5ad885d0a7ce164e6fa60405160405180910390a45050505050506111ee613850565b50565b6111f96137f9565b80600001356000801b600080838152602001908152602001600020600001540361124f576040517f5dcaf2d700000000000000000000000000000000000000000000000000000000815260040160405180910390fd5b60008060008460000135815260200190815260200160002090508073__$2effe1973215a034e8e4a17bdeb5710028$__63c3aee15d90916040518263ffffffff1660e01b81526004016112a29190614f35565b60006040518083038186803b1580156112ba57600080fd5b505af41580156112ce573d6000803e3d6000fd5b5050505060018160010160006101000a81548160ff021916908360038111156112fa576112f9614395565b5b0217905550600073ffffffffffffffffffffffffffffffffffffffff168160020160000160009054906101000a900473ffffffffffffffffffffffffffffffffffffffff1673ffffffffffffffffffffffffffffffffffffffff16036113ad573373ffffffffffffffffffffffffffffffffffffffff166108fc82600501600101549081150290604051600060405180830381858888f193505050501580156113a7573d6000803e3d6000fd5b5061145b565b8060020160000160009054906101000a900473ffffffffffffffffffffffffffffffffffffffff1673ffffffffffffffffffffffffffffffffffffffff1663a9059cbb3383600501600101546040518363ffffffff1660e01b8152600401611416929190614f50565b6020604051808303816000875af1158015611435573d6000803e3d6000fd5b505050506040513d601f19601f820116820180604052508101906114599190614fa5565b505b6000806002856000013560405160200161147793929190614fd2565b6040516020818303038152906040529050600073__$8ad05547f64aebe22f2eafad9eff5b91dd$__63a2040cee909186600001356040518363ffffffff1660e01b81526004016114c8929190615018565b60006040518083038186803b1580156114e057600080fd5b505af41580156114f4573d6000803e3d6000fd5b505050506000600960008660000135815260200190815260200160002060010160169054906101000a900461ffff169050600860009054906101000a900473ffffffffffffffffffffffffffffffffffffffff1673ffffffffffffffffffffffffffffffffffffffff1663e4a8b2f9348333866040518563ffffffff1660e01b815260040161158593929190614b2b565b6000604051808303818588803b15801561159e57600080fd5b505af11580156115b2573d6000803e3d6000fd5b505050505084600001357ff68aeec8f55d67a9b2cf2b6caea31e11f2c14e09da250170575d63911f26aa6e60405160405180910390a2505050506115f4613850565b50565b6115ff6137f9565b80600001356000801b6000808381526020019081526020016000206000015403611655576040517f5dcaf2d700000000000000000000000000000000000000000000000000000000815260040160405180910390fd5b60008260000135905060008360400135905060006002600084815260200190815260200160002060003373ffffffffffffffffffffffffffffffffffffffff1673ffffffffffffffffffffffffffffffffffffffff1681526020019081526020016000209050600073ffffffffffffffffffffffffffffffffffffffff168160020160019054906101000a900473ffffffffffffffffffffffffffffffffffffffff1673ffffffffffffffffffffffffffffffffffffffff1603611745576040517f0a0c23ee00000000000000000000000000000000000000000000000000000000815260040160405180910390fd5b60008060008581526020019081526020016000209050600083036117a057826040517fd9cf167e000000000000000000000000000000000000000000000000000000008152600401611797919061429f565b60405180910390fd5b828260000160008282546117b49190615041565b9250508190555080600501600101548260000154111561180f5781600001546040517fd9cf167e000000000000000000000000000000000000000000000000000000008152600401611806919061429f565b60405180910390fd5b60008160050190506000349050600073ffffffffffffffffffffffffffffffffffffffff168260000160009054906101000a900473ffffffffffffffffffffffffffffffffffffffff1673ffffffffffffffffffffffffffffffffffffffff16146118ca576118c53330878560000160009054906101000a900473ffffffffffffffffffffffffffffffffffffffff1673ffffffffffffffffffffffffffffffffffffffff16613931909392919063ffffffff16565b61191e565b8434101561190f57346040517fd9cf167e000000000000000000000000000000000000000000000000000000008152600401611906919061429f565b60405180910390fd5b848161191b9190614c97565b90505b60008060048a604051602001611936939291906150e6565b6040516020818303038152906040529050600860009054906101000a900473ffffffffffffffffffffffffffffffffffffffff1673ffffffffffffffffffffffffffffffffffffffff1663e4a8b2f983600a60009054906101000a900461ffff1633856040518563ffffffff1660e01b81526004016119b793929190614b2b565b6000604051808303818588803b1580156119d057600080fd5b505af11580156119e4573d6000803e3d6000fd5b505050505084600001548560020160019054906101000a900473ffffffffffffffffffffffffffffffffffffffff1673ffffffffffffffffffffffffffffffffffffffff168a600001357f7786094a5edc61a0463300b9b97a1b22d338bc800ed33404ba9a3888b71de0fc60405160405180910390a45050505050505050611a6a613850565b50565b60008282600090602092611a8393929190615127565b810190611a909190615187565b905060006006811115611aa657611aa5614395565b5b816006811115611ab957611ab8614395565b5b03611c4f5760008383602090604092611ad493929190615127565b90611adf91906151cc565b9050600084846040908092611af693929190615127565b810190611b03919061531c565b905081600080848152602001908152602001600020600001819055508060600151600080848152602001908152602001600020600c0160006101000a81548160ff021916908315150217905550806000015160008084815260200190815260200160002060050160008201518160000160006101000a81548173ffffffffffffffffffffffffffffffffffffffff021916908373ffffffffffffffffffffffffffffffffffffffff1602179055506020820151816001015590505080602001516009600084815260200190815260200160002060000160016101000a81548173ffffffffffffffffffffffffffffffffffffffff021916908373ffffffffffffffffffffffffffffffffffffffff160217905550876009600084815260200190815260200160002060010160166101000a81548161ffff021916908361ffff160217905550505061215b565b60016006811115611c6357611c62614395565b5b816006811115611c7657611c75614395565b5b03611ce757600083836020908092611c9093929190615127565b810190611c9d9190614bbe565b905060026000808360000151815260200190815260200160002060010160006101000a81548160ff02191690836003811115611cdc57611cdb614395565b5b02179055505061215a565b60026006811115611cfb57611cfa614395565b5b816006811115611d0e57611d0d614395565b5b03611da757600083836020908092611d2893929190615127565b90611d3391906151cc565b9050600073__$8ad05547f64aebe22f2eafad9eff5b91dd$__63a2040cee9091836040518363ffffffff1660e01b8152600401611d71929190615018565b60006040518083038186803b158015611d8957600080fd5b505af4158015611d9d573d6000803e3d6000fd5b5050505050612159565b60036006811115611dbb57611dba614395565b5b816006811115611dce57611dcd614395565b5b03611e6957600083836020908092611de893929190615127565b810190611df591906153d5565b9050600273__$8ad05547f64aebe22f2eafad9eff5b91dd$__63cc76f9319091836040518363ffffffff1660e01b8152600401611e33929190615480565b60006040518083038186803b158015611e4b57600080fd5b505af4158015611e5f573d6000803e3d6000fd5b5050505050612158565b60056006811115611e7d57611e7c614395565b5b816006811115611e9057611e8f614395565b5b0361207c57600083836020908092611eaa93929190615127565b810190611eb791906154f9565b90506000816000015190506000826020015190506000806000848152602001908152602001600020600501905060006009600085815260200190815260200160002060000160019054906101000a900473ffffffffffffffffffffffffffffffffffffffff1690508160000160009054906101000a900473ffffffffffffffffffffffffffffffffffffffff1673ffffffffffffffffffffffffffffffffffffffff1673__$b9ebb88af43d68d18cc83c52d00a91a1a0$__6306cf22809091838560010154600554612710600460009054906101000a900473ffffffffffffffffffffffffffffffffffffffff166040518763ffffffff1660e01b8152600401611fc6969594939291906148e7565b60006040518083038186803b158015611fde57600080fd5b505af4158015611ff2573d6000803e3d6000fd5b5050505060016002600086815260200190815260200160002060008573ffffffffffffffffffffffffffffffffffffffff1673ffffffffffffffffffffffffffffffffffffffff16815260200190815260200160002060020160006101000a81548160ff0219169083600281111561206d5761206c614395565b5b02179055505050505050612157565b600460068111156120905761208f614395565b5b8160068111156120a3576120a2614395565b5b03612156576000838360209080926120bd93929190615127565b8101906120ca919061558a565b905060008160000151905060008260200151905060006002600084815260200190815260200160002060008373ffffffffffffffffffffffffffffffffffffffff1673ffffffffffffffffffffffffffffffffffffffff1681526020019081526020016000209050836040015181600001600082825461214a9190615041565b92505081905550505050505b5b5b5b5b5b505050505050565b60008161216f90615608565b60601c9050919050565b6121816137f9565b80606001356000801b60008083815260200190815260200160002060000154036121d7576040517f5dcaf2d700000000000000000000000000000000000000000000000000000000815260040160405180910390fd5b60008260600135905060008360000135905060006002600084815260200190815260200160002060003373ffffffffffffffffffffffffffffffffffffffff1673ffffffffffffffffffffffffffffffffffffffff1681526020019081526020016000209050600073ffffffffffffffffffffffffffffffffffffffff168160020160019054906101000a900473ffffffffffffffffffffffffffffffffffffffff1673ffffffffffffffffffffffffffffffffffffffff16146122c7576040517fb8cee9f000000000000000000000000000000000000000000000000000000000815260040160405180910390fd5b6000806000876060013581526020019081526020016000209050806007015483101561232a57826040517fd9cf167e000000000000000000000000000000000000000000000000000000008152600401612321919061429f565b60405180910390fd5b600082600001548461233c9190614c97565b9050600080600087815260200190815260200160002060050190506000349050600073ffffffffffffffffffffffffffffffffffffffff168260000160009054906101000a900473ffffffffffffffffffffffffffffffffffffffff1673ffffffffffffffffffffffffffffffffffffffff161461240a576124053330858560000160009054906101000a900473ffffffffffffffffffffffffffffffffffffffff1673ffffffffffffffffffffffffffffffffffffffff16613931909392919063ffffffff16565b61245e565b8234101561244f57346040517fd9cf167e000000000000000000000000000000000000000000000000000000008152600401612446919061429f565b60405180910390fd5b828161245b9190614c97565b90505b600273__$8ad05547f64aebe22f2eafad9eff5b91dd$__63cc76f93190918b6040518363ffffffff1660e01b815260040161249a9291906156ff565b60006040518083038186803b1580156124b257600080fd5b505af41580156124c6573d6000803e3d6000fd5b5050505060008060038b6040516020016124e2939291906157b8565b60405160208183030381529060405290506000600960008c60600135815260200190815260200160002060010160169054906101000a900461ffff169050600860009054906101000a900473ffffffffffffffffffffffffffffffffffffffff1673ffffffffffffffffffffffffffffffffffffffff1663e4a8b2f9848333866040518563ffffffff1660e01b815260040161258093929190614b2b565b6000604051808303818588803b15801561259957600080fd5b505af11580156125ad573d6000803e3d6000fd5b5050505050505050505050505050506125c4613850565b50565b60065481565b60006125d76137f9565b6000826000018036038101906125ed91906158bb565b90508073__$2effe1973215a034e8e4a17bdeb5710028$__639a0ebe0090916040518263ffffffff1660e01b815260040161262891906159cb565b60006040518083038186803b15801561264057600080fd5b505af4158015612654573d6000803e3d6000fd5b505050506000816000015173__$8ad05547f64aebe22f2eafad9eff5b91dd$__63d81ab44f9091306040518363ffffffff1660e01b81526004016126999291906159e7565b602060405180830381865af41580156126b6573d6000803e3d6000fd5b505050506040513d601f19601f820116820180604052508101906126da9190615a25565b9050600073__$8ad05547f64aebe22f2eafad9eff5b91dd$__632296d7e090918484336040518563ffffffff1660e01b815260040161271c9493929190615a52565b60006040518083038186803b15801561273457600080fd5b505af4158015612748573d6000803e3d6000fd5b5050505060006040518060a0016040528060018081111561276c5761276b614395565b5b81526020018661014001602081019061278591906146ec565b73ffffffffffffffffffffffffffffffffffffffff168152602001600073ffffffffffffffffffffffffffffffffffffffff168152602001600a60009054906101000a900461ffff1661ffff168152602001866101800160208101906127eb9190615a9a565b61ffff168152509050806009600084815260200190815260200160002060008201518160000160006101000a81548160ff0219169083600181111561283357612832614395565b5b021790555060208201518160000160016101000a81548173ffffffffffffffffffffffffffffffffffffffff021916908373ffffffffffffffffffffffffffffffffffffffff16021790555060408201518160010160006101000a81548173ffffffffffffffffffffffffffffffffffffffff021916908373ffffffffffffffffffffffffffffffffffffffff16021790555060608201518160010160146101000a81548161ffff021916908361ffff16021790555060808201518160010160166101000a81548161ffff021916908361ffff1602179055509050506000349050600073ffffffffffffffffffffffffffffffffffffffff1684602001516000015173ffffffffffffffffffffffffffffffffffffffff16036129b65783602001516020015134101561299b576040517f08c379a000000000000000000000000000000000000000000000000000000000815260040161299290615b13565b60405180910390fd5b836020015160200151816129af9190614c97565b90506129f4565b6129f3333086602001516020015187602001516000015173ffffffffffffffffffffffffffffffffffffffff16613931909392919063ffffffff16565b5b60006040518060a001604052808660400151815260200188610140016020810190612a1f91906146ec565b73ffffffffffffffffffffffffffffffffffffffff16815260200188610160016020810190612a4e91906146ec565b73ffffffffffffffffffffffffffffffffffffffff1681526020018660e00151151581526020018660c00151815250905060008060008684604051602001612a999493929190615bd9565b6040516020818303038152906040529050600860009054906101000a900473ffffffffffffffffffffffffffffffffffffffff1673ffffffffffffffffffffffffffffffffffffffff1663e4a8b2f9848a610180016020810190612afd9190615a9a565b33856040518563ffffffff1660e01b8152600401612b1d93929190614b2b565b6000604051808303818588803b158015612b3657600080fd5b505af1158015612b4a573d6000803e3d6000fd5b5050505050847f8b82d32987f9a4ae1bc7868a6f104edb711227ec3c9fccb0416a14fcc29bec5a60405160405180910390a2849650505050505050612b8d613850565b919050565b60096020528060005260406000206000915090508060000160009054906101000a900460ff16908060000160019054906101000a900473ffffffffffffffffffffffffffffffffffffffff16908060010160009054906101000a900473ffffffffffffffffffffffffffffffffffffffff16908060010160149054906101000a900461ffff16908060010160169054906101000a900461ffff16905085565b6002602052816000526040600020602052806000526040600020600091509150508060000154908060010154908060020160009054906101000a900460ff16908060020160019054906101000a900473ffffffffffffffffffffffffffffffffffffffff16908060030160009054906101000a900473ffffffffffffffffffffffffffffffffffffffff16908060040154908060050154905087565b612cd5613ac4565b612cdf6000613b4b565b565b6000612ceb613c22565b905060008160000160089054906101000a900460ff1615905060008260000160009054906101000a900467ffffffffffffffff1690506000808267ffffffffffffffff16148015612d395750825b9050600060018367ffffffffffffffff16148015612d6e575060003073ffffffffffffffffffffffffffffffffffffffff163b145b905081158015612d7c575080155b15612db3576040517ff92ee8a900000000000000000000000000000000000000000000000000000000815260040160405180910390fd5b60018560000160006101000a81548167ffffffffffffffff021916908367ffffffffffffffff1602179055508315612e035760018560000160086101000a81548160ff0219169083151502179055505b612e1e866000016020810190612e1991906146ec565b613c4a565b85803603810190612e2f9190615cd3565b73__$6f3146d13761fe4efe0c3dc8c4b43c2873$__63cf5bfc7c90916127106040518363ffffffff1660e01b8152600401612e6b929190615d9d565b60006040518083038186803b158015612e8357600080fd5b505af4158015612e97573d6000803e3d6000fd5b505050508560a001356005819055508560c00135600681905550856080016020810190612ec491906146ec565b600460006101000a81548173ffffffffffffffffffffffffffffffffffffffff021916908373ffffffffffffffffffffffffffffffffffffffff160217905550856040016020810190612f179190615a9a565b600a60006101000a81548161ffff021916908361ffff160217905550856060016020810190612f4691906146ec565b600860006101000a81548173ffffffffffffffffffffffffffffffffffffffff021916908373ffffffffffffffffffffffffffffffffffffffff1602179055508315612fe25760008560000160086101000a81548160ff0219169083151502179055507fc7f505b2f371ae2175ee4913f4499e1f2633a7b5936321eed1cdaeb6115181d26001604051612fd99190615e02565b60405180910390a15b505050505050565b60055481565b6001602052816000526040600020818154811061300c57600080fd5b9060005260206000209060020201600091509150508060000154908060010154905082565b60008061303c613cd0565b90508060000160009054906101000a900473ffffffffffffffffffffffffffffffffffffffff1691505090565b6007602052816000526040600020602052806000526040600020600091509150505481565b6130966137f9565b806000801b60008083815260200190815260200160002060000154036130e8576040517f5dcaf2d700000000000000000000000000000000000000000000000000000000815260040160405180910390fd5b60006002600084815260200190815260200160002060003373ffffffffffffffffffffffffffffffffffffffff1673ffffffffffffffffffffffffffffffffffffffff1681526020019081526020016000209050600073ffffffffffffffffffffffffffffffffffffffff168160020160019054906101000a900473ffffffffffffffffffffffffffffffffffffffff1673ffffffffffffffffffffffffffffffffffffffff16036131c6576040517fac96c2bd00000000000000000000000000000000000000000000000000000000815260040160405180910390fd5b3373ffffffffffffffffffffffffffffffffffffffff168160020160019054906101000a900473ffffffffffffffffffffffffffffffffffffffff1673ffffffffffffffffffffffffffffffffffffffff161461324f576040517f978f045600000000000000000000000000000000000000000000000000000000815260040160405180910390fd5b60028081111561326257613261614395565b5b8160020160009054906101000a900460ff16600281111561328657613285614395565b5b146132d9578060020160009054906101000a900460ff166040517f64b08c060000000000000000000000000000000000000000000000000000000081526004016132d091906148ae565b60405180910390fd5b60008160020160006101000a81548160ff0219169083600281111561330157613300614395565b5b021790555060008060008581526020019081526020016000206005019050600073ffffffffffffffffffffffffffffffffffffffff168160000160009054906101000a900473ffffffffffffffffffffffffffffffffffffffff1673ffffffffffffffffffffffffffffffffffffffff16146133f3576133ee8260020160019054906101000a900473ffffffffffffffffffffffffffffffffffffffff1683600001548360000160009054906101000a900473ffffffffffffffffffffffffffffffffffffffff1673ffffffffffffffffffffffffffffffffffffffff166138699092919063ffffffff16565b613463565b8160020160019054906101000a900473ffffffffffffffffffffffffffffffffffffffff1673ffffffffffffffffffffffffffffffffffffffff166108fc83600001549081150290604051600060405180830381858888f19350505050158015613461573d6000803e3d6000fd5b505b60008060058660405160200161347b93929190614fd2565b604051602081830303815290604052905060006009600087815260200190815260200160002060010160169054906101000a900461ffff169050600860009054906101000a900473ffffffffffffffffffffffffffffffffffffffff1673ffffffffffffffffffffffffffffffffffffffff1663e4a8b2f9348333866040518563ffffffff1660e01b815260040161351593929190614b2b565b6000604051808303818588803b15801561352e57600080fd5b505af1158015613542573d6000803e3d6000fd5b50505050508360020160019054906101000a900473ffffffffffffffffffffffffffffffffffffffff1673ffffffffffffffffffffffffffffffffffffffff16867f6c2a0bb8117ecfbc53a4385a5421be8eb081718159b9eb3d7c273ecb07fe7cfd60405160405180910390a350505050506135bc613850565b50565b600860009054906101000a900473ffffffffffffffffffffffffffffffffffffffff1681565b6135ed613ac4565b600073ffffffffffffffffffffffffffffffffffffffff168173ffffffffffffffffffffffffffffffffffffffff160361365f5760006040517f1e4fbdf7000000000000000000000000000000000000000000000000000000008152600401613656919061421f565b60405180910390fd5b61366881613b4b565b50565b60006020528060005260406000206000915090508060000154908060010160009054906101000a900460ff16908060010160019054906101000a900473ffffffffffffffffffffffffffffffffffffffff1690806002016040518060400160405290816000820160009054906101000a900473ffffffffffffffffffffffffffffffffffffffff1673ffffffffffffffffffffffffffffffffffffffff1673ffffffffffffffffffffffffffffffffffffffff168152602001600182015481525050908060040160009054906101000a900473ffffffffffffffffffffffffffffffffffffffff1690806005016040518060400160405290816000820160009054906101000a900473ffffffffffffffffffffffffffffffffffffffff1673ffffffffffffffffffffffffffffffffffffffff1673ffffffffffffffffffffffffffffffffffffffff1681526020016001820154815250509080600701549080600801549080600901549080600a01549080600b01549080600c0160009054906101000a900460ff1690508c565b6000613803613cf8565b90506002816000015403613843576040517f3ee5aeb500000000000000000000000000000000000000000000000000000000815260040160405180910390fd5b6002816000018190555050565b600061385a613cf8565b90506001816000018190555050565b60008390508073ffffffffffffffffffffffffffffffffffffffff1663a9059cbb84846040518363ffffffff1660e01b81526004016138a9929190614f50565b6020604051808303816000875af11580156138c8573d6000803e3d6000fd5b505050506040513d601f19601f820116820180604052508101906138ec9190614fa5565b61392b576040517f08c379a000000000000000000000000000000000000000000000000000000000815260040161392290614d6e565b60405180910390fd5b50505050565b600084905060008173ffffffffffffffffffffffffffffffffffffffff1663dd62ed3e86306040518363ffffffff1660e01b8152600401613973929190614885565b602060405180830381865afa158015613990573d6000803e3d6000fd5b505050506040513d601f19601f820116820180604052508101906139b49190615e32565b9050828110156139fd5780836040517f7c8db62f0000000000000000000000000000000000000000000000000000000081526004016139f4929190614649565b60405180910390fd5b8173ffffffffffffffffffffffffffffffffffffffff166323b872dd8686866040518463ffffffff1660e01b8152600401613a3a93929190615e5f565b6020604051808303816000875af1158015613a59573d6000803e3d6000fd5b505050506040513d601f19601f82011682018060405250810190613a7d9190614fa5565b613abc576040517f08c379a0000000000000000000000000000000000000000000000000000000008152600401613ab390615ee2565b60405180910390fd5b505050505050565b613acc613d20565b73ffffffffffffffffffffffffffffffffffffffff16613aea613031565b73ffffffffffffffffffffffffffffffffffffffff1614613b4957613b0d613d20565b6040517f118cdaa7000000000000000000000000000000000000000000000000000000008152600401613b40919061421f565b60405180910390fd5b565b6000613b55613cd0565b905060008160000160009054906101000a900473ffffffffffffffffffffffffffffffffffffffff169050828260000160006101000a81548173ffffffffffffffffffffffffffffffffffffffff021916908373ffffffffffffffffffffffffffffffffffffffff1602179055508273ffffffffffffffffffffffffffffffffffffffff168173ffffffffffffffffffffffffffffffffffffffff167f8be0079c531659141344cd1fd0a4f28419497f9722a3daafe3b4186f6b6457e060405160405180910390a3505050565b60007ff0c57e16840df040f15088dc2f81fe391c3923bec73e23a9662efc9c229c6a00905090565b613c52613d28565b600073ffffffffffffffffffffffffffffffffffffffff168173ffffffffffffffffffffffffffffffffffffffff1603613cc45760006040517f1e4fbdf7000000000000000000000000000000000000000000000000000000008152600401613cbb919061421f565b60405180910390fd5b613ccd81613b4b565b50565b60007f9016d09d72d40fdae2fd8ceac6b6234c7706214fd39c1cd1e609a0528c199300905090565b60007f9b779b17422d0df92223018b32b4d1fa46e071723d6817e2486d003becc55f00905090565b600033905090565b613d30613d68565b613d66576040517fd7e6bcf800000000000000000000000000000000000000000000000000000000815260040160405180910390fd5b565b6000613d72613c22565b60000160089054906101000a900460ff16905090565b6000604051905090565b600080fd5b600080fd5b600080fd5b600060408284031215613db757613db6613d9c565b5b81905092915050565b600060408284031215613dd657613dd5613d92565b5b6000613de484828501613da1565b91505092915050565b600060408284031215613e0357613e02613d9c565b5b81905092915050565b600060408284031215613e2257613e21613d92565b5b6000613e3084828501613ded565b91505092915050565b600060208284031215613e4f57613e4e613d9c565b5b81905092915050565b600060208284031215613e6e57613e6d613d92565b5b6000613e7c84828501613e39565b91505092915050565b600060608284031215613e9b57613e9a613d9c565b5b81905092915050565b600060608284031215613eba57613eb9613d92565b5b6000613ec884828501613e85565b91505092915050565b600061ffff82169050919050565b613ee881613ed1565b8114613ef357600080fd5b50565b600081359050613f0581613edf565b92915050565b600080fd5b600080fd5b6000601f19601f8301169050919050565b7f4e487b7100000000000000000000000000000000000000000000000000000000600052604160045260246000fd5b613f5e82613f15565b810181811067ffffffffffffffff82111715613f7d57613f7c613f26565b5b80604052505050565b6000613f90613d88565b9050613f9c8282613f55565b919050565b600067ffffffffffffffff821115613fbc57613fbb613f26565b5b613fc582613f15565b9050602081019050919050565b82818337600083830152505050565b6000613ff4613fef84613fa1565b613f86565b9050828152602081018484840111156140105761400f613f10565b5b61401b848285613fd2565b509392505050565b600082601f83011261403857614037613f0b565b5b8135614048848260208601613fe1565b91505092915050565b600067ffffffffffffffff82169050919050565b61406e81614051565b811461407957600080fd5b50565b60008135905061408b81614065565b92915050565b600080fd5b600080fd5b60008083601f8401126140b1576140b0613f0b565b5b8235905067ffffffffffffffff8111156140ce576140cd614091565b5b6020830191508360018202830111156140ea576140e9614096565b5b9250929050565b60008060008060006080868803121561410d5761410c613d92565b5b600061411b88828901613ef6565b955050602086013567ffffffffffffffff81111561413c5761413b613d97565b5b61414888828901614023565b94505060406141598882890161407c565b935050606086013567ffffffffffffffff81111561417a57614179613d97565b5b6141868882890161409b565b92509250509295509295909350565b6000602082840312156141ab576141aa613d92565b5b600082013567ffffffffffffffff8111156141c9576141c8613d97565b5b6141d584828501614023565b91505092915050565b600073ffffffffffffffffffffffffffffffffffffffff82169050919050565b6000614209826141de565b9050919050565b614219816141fe565b82525050565b60006020820190506142346000830184614210565b92915050565b600060a082840312156142505761424f613d9c565b5b81905092915050565b600060a0828403121561426f5761426e613d92565b5b600061427d8482850161423a565b91505092915050565b6000819050919050565b61429981614286565b82525050565b60006020820190506142b46000830184614290565b92915050565b60006101a082840312156142d1576142d0613d9c565b5b81905092915050565b60006101a082840312156142f1576142f0613d92565b5b60006142ff848285016142ba565b91505092915050565b6000819050919050565b61431b81614308565b82525050565b60006020820190506143366000830184614312565b92915050565b61434581614308565b811461435057600080fd5b50565b6000813590506143628161433c565b92915050565b60006020828403121561437e5761437d613d92565b5b600061438c84828501614353565b91505092915050565b7f4e487b7100000000000000000000000000000000000000000000000000000000600052602160045260246000fd5b600281106143d5576143d4614395565b5b50565b60008190506143e6826143c4565b919050565b60006143f6826143d8565b9050919050565b614406816143eb565b82525050565b61441581613ed1565b82525050565b600060a08201905061443060008301886143fd565b61443d6020830187614210565b61444a6040830186614210565b614457606083018561440c565b614464608083018461440c565b9695505050505050565b614477816141fe565b811461448257600080fd5b50565b6000813590506144948161446e565b92915050565b600080604083850312156144b1576144b0613d92565b5b60006144bf85828601614353565b92505060206144d085828601614485565b9150509250929050565b600381106144eb576144ea614395565b5b50565b60008190506144fc826144da565b919050565b600061450c826144ee565b9050919050565b61451c81614501565b82525050565b600060e082019050614537600083018a614290565b6145446020830189614312565b6145516040830188614513565b61455e6060830187614210565b61456b6080830186614210565b61457860a0830185614290565b61458560c0830184614290565b98975050505050505050565b600060e082840312156145a7576145a6613d9c565b5b81905092915050565b600060e082840312156145c6576145c5613d92565b5b60006145d484828501614591565b91505092915050565b6145e681614286565b81146145f157600080fd5b50565b600081359050614603816145dd565b92915050565b600080604083850312156146205761461f613d92565b5b600061462e85828601614353565b925050602061463f858286016145f4565b9150509250929050565b600060408201905061465e6000830185614290565b61466b6020830184614290565b9392505050565b6000819050919050565b600061469761469261468d846141de565b614672565b6141de565b9050919050565b60006146a98261467c565b9050919050565b60006146bb8261469e565b9050919050565b6146cb816146b0565b82525050565b60006020820190506146e660008301846146c2565b92915050565b60006020828403121561470257614701613d92565b5b600061471084828501614485565b91505092915050565b6004811061472a57614729614395565b5b50565b600081905061473b82614719565b919050565b600061474b8261472d565b9050919050565b61475b81614740565b82525050565b61476a816141fe565b82525050565b61477981614286565b82525050565b6040820160008201516147956000850182614761565b5060208201516147a86020850182614770565b50505050565b60008115159050919050565b6147c3816147ae565b82525050565b60006101c0820190506147df600083018f614312565b6147ec602083018e614752565b6147f9604083018d614210565b614806606083018c61477f565b61481360a083018b614210565b61482060c083018a61477f565b61482e610100830189614290565b61483c610120830188614290565b61484a610140830187614290565b614858610160830186614290565b614866610180830185614290565b6148746101a08301846147ba565b9d9c50505050505050505050505050565b600060408201905061489a6000830185614210565b6148a76020830184614210565b9392505050565b60006020820190506148c36000830184614513565b92915050565b6148d2816141fe565b82525050565b6148e181614286565b82525050565b600060c0820190506148fc60008301896148c9565b61490960208301886148c9565b61491660408301876148d8565b61492360608301866148d8565b61493060808301856148d8565b61493d60a08301846148c9565b979650505050505050565b6000819050919050565b600060ff82169050919050565b600061497a61497561497084614948565b614672565b614952565b9050919050565b61498a8161495f565b82525050565b600781106149a1576149a0614395565b5b50565b60008190506149b282614990565b919050565b60006149c2826149a4565b9050919050565b6149d2816149b7565b82525050565b60006149e76020840184614353565b905092915050565b6149f881614308565b82525050565b6000614a0d6020840184614485565b905092915050565b60408201614a2660008301836149d8565b614a3360008501826149ef565b50614a4160208301836149fe565b614a4e6020850182614761565b50505050565b6000608082019050614a696000830186614981565b614a7660208301856149c9565b614a836040830184614a15565b949350505050565b6000614a96826141de565b9050919050565b614aa681614a8b565b82525050565b600081519050919050565b600082825260208201905092915050565b60005b83811015614ae6578082015181840152602081019050614acb565b60008484015250505050565b6000614afd82614aac565b614b078185614ab7565b9350614b17818560208601614ac8565b614b2081613f15565b840191505092915050565b6000606082019050614b40600083018661440c565b614b4d6020830185614a9d565b8181036040830152614b5f8184614af2565b9050949350505050565b600080fd5b600060408284031215614b8457614b83614b69565b5b614b8e6040613f86565b90506000614b9e84828501614353565b6000830152506020614bb284828501614485565b60208301525092915050565b600060408284031215614bd457614bd3613d92565b5b6000614be284828501614b6e565b91505092915050565b614bf481614308565b82525050565b614c03816141fe565b82525050565b604082016000820151614c1f6000850182614beb565b506020820151614c326020850182614bfa565b50505050565b8082525050565b6000606082019050614c546000830185614c09565b614c616040830184614c38565b9392505050565b7f4e487b7100000000000000000000000000000000000000000000000000000000600052601160045260246000fd5b6000614ca282614286565b9150614cad83614286565b9250828203905081811115614cc557614cc4614c68565b5b92915050565b600081905092915050565b50565b6000614ce6600083614ccb565b9150614cf182614cd6565b600082019050919050565b6000614d0782614cd9565b9150819050919050565b600082825260208201905092915050565b7f5472616e73666572206661696c65642e00000000000000000000000000000000600082015250565b6000614d58601083614d11565b9150614d6382614d22565b602082019050919050565b60006020820190508181036000830152614d8781614d4b565b9050919050565b600081519050919050565b600082825260208201905092915050565b6000819050602082019050919050565b604082016000820151614dd06000850182614770565b506020820151614de36020850182614770565b50505050565b6000614df58383614dba565b60408301905092915050565b6000602082019050919050565b6000614e1982614d8e565b614e238185614d99565b9350614e2e83614daa565b8060005b83811015614e5f578151614e468882614de9565b9750614e5183614e01565b925050600181019050614e32565b5085935050505092915050565b6000608082019050614e816000830187614210565b614e8e6020830186614210565b614e9b6040830185614290565b8181036060830152614ead8184614e0e565b905095945050505050565b60408201614ec960008301836149d8565b614ed660008501826149ef565b50614ee460208301836149fe565b614ef16020850182614761565b50505050565b6000608082019050614f0c6000830186614981565b614f1960208301856149c9565b614f266040830184614eb8565b949350505050565b8082525050565b6000602082019050614f4a6000830184614f2e565b92915050565b6000604082019050614f656000830185614210565b614f726020830184614290565b9392505050565b614f82816147ae565b8114614f8d57600080fd5b50565b600081519050614f9f81614f79565b92915050565b600060208284031215614fbb57614fba613d92565b5b6000614fc984828501614f90565b91505092915050565b6000606082019050614fe76000830186614981565b614ff460208301856149c9565b6150016040830184614312565b949350505050565b61501281614308565b82525050565b600060408201905061502d6000830185614c38565b61503a6020830184615009565b9392505050565b600061504c82614286565b915061505783614286565b925082820190508082111561506f5761506e614c68565b5b92915050565b600061508460208401846145f4565b905092915050565b6060820161509d60008301836149d8565b6150aa60008501826149ef565b506150b860208301836149fe565b6150c56020850182614761565b506150d36040830183615075565b6150e06040850182614770565b50505050565b600060a0820190506150fb6000830186614981565b61510860208301856149c9565b615115604083018461508c565b949350505050565b600080fd5b600080fd5b6000808585111561513b5761513a61511d565b5b8386111561514c5761514b615122565b5b6001850283019150848603905094509492505050565b6007811061516f57600080fd5b50565b60008135905061518181615162565b92915050565b60006020828403121561519d5761519c613d92565b5b60006151ab84828501615172565b91505092915050565b600082905092915050565b600082821b905092915050565b60006151d883836151b4565b826151e38135614308565b925060208210156152235761521e7fffffffffffffffffffffffffffffffffffffffffffffffffffffffffffffffff836020036008026151bf565b831692505b505092915050565b60006040828403121561524157615240614b69565b5b61524b6040613f86565b9050600061525b84828501614485565b600083015250602061526f848285016145f4565b60208301525092915050565b60008135905061528a81614f79565b92915050565b600060c082840312156152a6576152a5614b69565b5b6152b060a0613f86565b905060006152c08482850161522b565b60008301525060406152d484828501614485565b60208301525060606152e884828501614485565b60408301525060806152fc8482850161527b565b60608301525060a0615310848285016145f4565b60808301525092915050565b600060c0828403121561533257615331613d92565b5b600061534084828501615290565b91505092915050565b600060a0828403121561535f5761535e614b69565b5b61536960a0613f86565b90506000615379848285016145f4565b600083015250602061538d84828501614485565b60208301525060406153a184828501614485565b60408301525060606153b584828501614353565b60608301525060806153c9848285016145f4565b60808301525092915050565b600060a082840312156153eb576153ea613d92565b5b60006153f984828501615349565b91505092915050565b8082525050565b61541281614286565b82525050565b60a08201600082015161542e6000850182615409565b5060208201516154416020850182614bfa565b5060408201516154546040850182614bfa565b5060608201516154676060850182614beb565b50608082015161547a6080850182615409565b50505050565b600060c0820190506154956000830185615402565b6154a26020830184615418565b9392505050565b6000604082840312156154bf576154be614b69565b5b6154c96040613f86565b905060006154d984828501614353565b60008301525060206154ed84828501614485565b60208301525092915050565b60006040828403121561550f5761550e613d92565b5b600061551d848285016154a9565b91505092915050565b60006060828403121561553c5761553b614b69565b5b6155466060613f86565b9050600061555684828501614353565b600083015250602061556a84828501614485565b602083015250604061557e848285016145f4565b60408301525092915050565b6000606082840312156155a05761559f613d92565b5b60006155ae84828501615526565b91505092915050565b6000819050602082019050919050565b60007fffffffffffffffffffffffffffffffffffffffff00000000000000000000000082169050919050565b60006155ff82516155c7565b80915050919050565b600061561382614aac565b8261561d846155b7565b9050615628816155f3565b92506014821015615668576156637fffffffffffffffffffffffffffffffffffffffff000000000000000000000000836014036008026151bf565b831692505b5050919050565b60a082016156806000830183615075565b61568d6000850182615409565b5061569b60208301836149fe565b6156a86020850182614bfa565b506156b660408301836149fe565b6156c36040850182614bfa565b506156d160608301836149d8565b6156de6060850182614beb565b506156ec6080830183615075565b6156f96080850182615409565b50505050565b600060c0820190506157146000830185615402565b615721602083018461566f565b9392505050565b60a082016157396000830183615075565b6157466000850182614770565b5061575460208301836149fe565b6157616020850182614761565b5061576f60408301836149fe565b61577c6040850182614761565b5061578a60608301836149d8565b61579760608501826149ef565b506157a56080830183615075565b6157b26080850182614770565b50505050565b600060e0820190506157cd6000830186614981565b6157da60208301856149c9565b6157e76040830184615728565b949350505050565b6000610140828403121561580657615805614b69565b5b615811610100613f86565b9050600061582184828501614353565b60008301525060206158358482850161522b565b60208301525060606158498482850161522b565b60408301525060a061585d84828501614485565b60608301525060c061587184828501614485565b60808301525060e0615885848285016145f4565b60a08301525061010061589a848285016145f4565b60c0830152506101206158af8482850161527b565b60e08301525092915050565b600061014082840312156158d2576158d1613d92565b5b60006158e0848285016157ef565b91505092915050565b6040820160008201516158ff6000850182614bfa565b5060208201516159126020850182615409565b50505050565b615921816147ae565b82525050565b6101408201600082015161593e6000850182614beb565b50602082015161595160208501826158e9565b50604082015161596460608501826158e9565b50606082015161597760a0850182614bfa565b50608082015161598a60c0850182614bfa565b5060a082015161599d60e0850182615409565b5060c08201516159b1610100850182615409565b5060e08201516159c5610120850182615918565b50505050565b6000610140820190506159e16000830184615927565b92915050565b60006040820190506159fc6000830185615009565b615a0960208301846148c9565b9392505050565b600081519050615a1f8161433c565b92915050565b600060208284031215615a3b57615a3a613d92565b5b6000615a4984828501615a10565b91505092915050565b60006101a082019050615a686000830187614c38565b615a756020830186615927565b615a83610160830185615009565b615a916101808301846148c9565b95945050505050565b600060208284031215615ab057615aaf613d92565b5b6000615abe84828501613ef6565b91505092915050565b7f4e6f7420656e6f75676820657468657200000000000000000000000000000000600082015250565b6000615afd601083614d11565b9150615b0882615ac7565b602082019050919050565b60006020820190508181036000830152615b2c81615af0565b9050919050565b604082016000820151615b496000850182614761565b506020820151615b5c6020850182614770565b50505050565b615b6b816147ae565b82525050565b60c082016000820151615b876000850182615b33565b506020820151615b9a6040850182614761565b506040820151615bad6060850182614761565b506060820151615bc06080850182615b62565b506080820151615bd360a0850182614770565b50505050565b600061012082019050615bef6000830187614981565b615bfc60208301866149c9565b615c096040830185614312565b615c166060830184615b71565b95945050505050565b600060e08284031215615c3557615c34614b69565b5b615c3f60e0613f86565b90506000615c4f84828501614485565b6000830152506020615c6384828501614485565b6020830152506040615c7784828501613ef6565b6040830152506060615c8b84828501614485565b6060830152506080615c9f84828501614485565b60808301525060a0615cb3848285016145f4565b60a08301525060c0615cc7848285016145f4565b60c08301525092915050565b600060e08284031215615ce957615ce8613d92565b5b6000615cf784828501615c1f565b91505092915050565b615d0981613ed1565b82525050565b60e082016000820151615d256000850182614bfa565b506020820151615d386020850182614bfa565b506040820151615d4b6040850182615d00565b506060820151615d5e6060850182614bfa565b506080820151615d716080850182614bfa565b5060a0820151615d8460a0850182615409565b5060c0820151615d9760c0850182615409565b50505050565b600061010082019050615db36000830185615d0f565b615dc060e08301846148d8565b9392505050565b6000819050919050565b6000615dec615de7615de284615dc7565b614672565b614051565b9050919050565b615dfc81615dd1565b82525050565b6000602082019050615e176000830184615df3565b92915050565b600081519050615e2c816145dd565b92915050565b600060208284031215615e4857615e47613d92565b5b6000615e5684828501615e1d565b91505092915050565b6000606082019050615e746000830186614210565b615e816020830185614210565b615e8e6040830184614290565b949350505050565b7f5472616e7366657246726f6d206661696c65642e000000000000000000000000600082015250565b6000615ecc601483614d11565b9150615ed782615e96565b602082019050919050565b60006020820190508181036000830152615efb81615ebf565b905091905056fea2646970667358221220083054f3a6a7ec81c1fb869d08348d4bce2f896be01b8a2515676419683dac3964736f6c63430008140033",
  "linkReferences": {
    "contracts/abstracts/libs/logic/AtomicSwapStateLogic.sol": {
      "AtomicSwapStateLogic": [
        {
          "length": 20,
          "start": 5293
        },
        {
          "length": 20,
          "start": 7514
        },
        {
          "length": 20,
          "start": 7708
        },
        {
          "length": 20,
          "start": 9347
        },
        {
          "length": 20,
          "start": 9858
        },
        {
          "length": 20,
          "start": 9985
        }
      ]
    },
    "contracts/abstracts/libs/utils/AtomicSwapMsgValidator.sol": {
      "AtomicSwapMsgValidator": [
        {
          "length": 20,
          "start": 2817
        },
        {
          "length": 20,
          "start": 4749
        },
        {
          "length": 20,
          "start": 9747
        }
      ]
    },
    "contracts/abstracts/libs/utils/TokenTransferHelper.sol": {
      "TokenTransferHelper": [
        {
          "length": 20,
          "start": 2168
        },
        {
          "length": 20,
          "start": 3384
        },
        {
          "length": 20,
          "start": 8061
        }
      ]
    },
    "contracts/interchain_atomicswap/libs/InterchainAtomicSwapLogic.sol": {
      "InterchainAtomicSwapLogic": [
        {
          "length": 20,
          "start": 11858
        }
      ]
    }
  },
  "deployedLinkReferences": {
    "contracts/abstracts/libs/logic/AtomicSwapStateLogic.sol": {
      "AtomicSwapStateLogic": [
        {
          "length": 20,
          "start": 5260
        },
        {
          "length": 20,
          "start": 7481
        },
        {
          "length": 20,
          "start": 7675
        },
        {
          "length": 20,
          "start": 9314
        },
        {
          "length": 20,
          "start": 9825
        },
        {
          "length": 20,
          "start": 9952
        }
      ]
    },
    "contracts/abstracts/libs/utils/AtomicSwapMsgValidator.sol": {
      "AtomicSwapMsgValidator": [
        {
          "length": 20,
          "start": 2784
        },
        {
          "length": 20,
          "start": 4716
        },
        {
          "length": 20,
          "start": 9714
        }
      ]
    },
    "contracts/abstracts/libs/utils/TokenTransferHelper.sol": {
      "TokenTransferHelper": [
        {
          "length": 20,
          "start": 2135
        },
        {
          "length": 20,
          "start": 3351
        },
        {
          "length": 20,
          "start": 8028
        }
      ]
    },
    "contracts/interchain_atomicswap/libs/InterchainAtomicSwapLogic.sol": {
      "InterchainAtomicSwapLogic": [
        {
          "length": 20,
          "start": 11825
        }
      ]
    }
  }
}