{
  "_format": "hh-sol-artifact-1",
  "contractName": "InterchainAtomicSwap",
  "sourceName": "contracts/interchain_atomicswap/InterchainAtomicSwap.sol",
  "abi": [
    {
      "inputs": [
        {
          "internalType": "uint256",
          "name": "provided",
          "type": "uint256"
        },
        {
          "internalType": "uint256",
          "name": "expectedExpiry",
          "type": "uint256"
        }
      ],
      "name": "BidAlreadyExpired",
      "type": "error"
    },
    {
      "inputs": [],
      "name": "BidAlreadyPlaced",
      "type": "error"
    },
    {
      "inputs": [],
      "name": "BidDoesNotExist",
      "type": "error"
    },
    {
      "inputs": [],
      "name": "BidNotAllowed",
      "type": "error"
    },
    {
      "inputs": [
        {
          "internalType": "enum IAtomicSwapBase.BidStatus",
          "name": "status",
          "type": "uint8"
        }
      ],
      "name": "BidNotInPlacedStatus",
      "type": "error"
    },
    {
      "inputs": [
        {
          "internalType": "address",
          "name": "contractAddress",
          "type": "address"
        }
      ],
      "name": "InvalidContractAddress",
      "type": "error"
    },
    {
      "inputs": [
        {
          "internalType": "uint256",
          "name": "provided",
          "type": "uint256"
        },
        {
          "internalType": "uint256",
          "name": "maximum",
          "type": "uint256"
        }
      ],
      "name": "InvalidExpirationTime",
      "type": "error"
    },
    {
      "inputs": [],
      "name": "InvalidInitialization",
      "type": "error"
    },
    {
      "inputs": [],
      "name": "InvalidMinimumBidLimit",
      "type": "error"
    },
    {
      "inputs": [
        {
          "internalType": "uint256",
          "name": "amount",
          "type": "uint256"
        }
      ],
      "name": "MismatchedBidAmount",
      "type": "error"
    },
    {
      "inputs": [],
      "name": "NoBidPlaced",
      "type": "error"
    },
    {
      "inputs": [
        {
          "internalType": "uint256",
          "name": "amount",
          "type": "uint256"
        },
        {
          "internalType": "uint256",
          "name": "allowance",
          "type": "uint256"
        }
      ],
      "name": "NotAllowedTransferAmount",
      "type": "error"
    },
    {
      "inputs": [
        {
          "internalType": "uint256",
          "name": "real",
          "type": "uint256"
        },
        {
          "internalType": "uint256",
          "name": "expected",
          "type": "uint256"
        }
      ],
      "name": "NotEnoughFund",
      "type": "error"
    },
    {
      "inputs": [],
      "name": "NotInitializing",
      "type": "error"
    },
    {
      "inputs": [],
      "name": "OrderAlreadyCompleted",
      "type": "error"
    },
    {
      "inputs": [],
      "name": "OrderAlreadyExists",
      "type": "error"
    },
    {
      "inputs": [],
      "name": "OrderDoesNotExist",
      "type": "error"
    },
    {
      "inputs": [],
      "name": "OrderNotAllowTake",
      "type": "error"
    },
    {
      "inputs": [
        {
          "internalType": "address",
          "name": "owner",
          "type": "address"
        }
      ],
      "name": "OwnableInvalidOwner",
      "type": "error"
    },
    {
      "inputs": [
        {
          "internalType": "address",
          "name": "account",
          "type": "address"
        }
      ],
      "name": "OwnableUnauthorizedAccount",
      "type": "error"
    },
    {
      "inputs": [],
      "name": "ReentrancyGuardReentrantCall",
      "type": "error"
    },
    {
      "inputs": [
        {
          "internalType": "address",
          "name": "caller",
          "type": "address"
        },
        {
          "internalType": "address",
          "name": "expected",
          "type": "address"
        }
      ],
      "name": "UnauthorizedAcceptAction",
      "type": "error"
    },
    {
      "inputs": [],
      "name": "UnauthorizedCancelAction",
      "type": "error"
    },
    {
      "inputs": [],
      "name": "UnauthorizedSender",
      "type": "error"
    },
    {
      "inputs": [],
      "name": "UnauthorizedTakeAction",
      "type": "error"
    },
    {
      "inputs": [],
      "name": "UnsupportedTokenPair",
      "type": "error"
    },
    {
      "anonymous": false,
      "inputs": [
        {
          "indexed": true,
          "internalType": "bytes32",
          "name": "orderID",
          "type": "bytes32"
        },
        {
          "indexed": true,
          "internalType": "address",
          "name": "bidder",
          "type": "address"
        },
        {
          "indexed": true,
          "internalType": "uint256",
          "name": "amount",
          "type": "uint256"
        }
      ],
      "name": "AcceptedBid",
      "type": "event"
    },
    {
      "anonymous": false,
      "inputs": [
        {
          "indexed": true,
          "internalType": "bytes32",
          "name": "id",
          "type": "bytes32"
        }
      ],
      "name": "AtomicSwapOrderCanceled",
      "type": "event"
    },
    {
      "anonymous": false,
      "inputs": [
        {
          "indexed": true,
          "internalType": "bytes32",
          "name": "id",
          "type": "bytes32"
        }
      ],
      "name": "AtomicSwapOrderCreated",
      "type": "event"
    },
    {
      "anonymous": false,
      "inputs": [
        {
          "indexed": true,
          "internalType": "address",
          "name": "maker",
          "type": "address"
        },
        {
          "indexed": true,
          "internalType": "address",
          "name": "taker",
          "type": "address"
        },
        {
          "indexed": true,
          "internalType": "bytes32",
          "name": "id",
          "type": "bytes32"
        }
      ],
      "name": "AtomicSwapOrderTook",
      "type": "event"
    },
    {
      "anonymous": false,
      "inputs": [
        {
          "indexed": true,
          "internalType": "bytes32",
          "name": "orderID",
          "type": "bytes32"
        },
        {
          "indexed": true,
          "internalType": "address",
          "name": "bidder",
          "type": "address"
        }
      ],
      "name": "CanceledBid",
      "type": "event"
    },
    {
      "anonymous": false,
      "inputs": [
        {
          "indexed": false,
          "internalType": "uint64",
          "name": "version",
          "type": "uint64"
        }
      ],
      "name": "Initialized",
      "type": "event"
    },
    {
      "anonymous": false,
      "inputs": [
        {
          "indexed": true,
          "internalType": "address",
          "name": "previousOwner",
          "type": "address"
        },
        {
          "indexed": true,
          "internalType": "address",
          "name": "newOwner",
          "type": "address"
        }
      ],
      "name": "OwnershipTransferred",
      "type": "event"
    },
    {
      "anonymous": false,
      "inputs": [
        {
          "indexed": true,
          "internalType": "bytes32",
          "name": "orderID",
          "type": "bytes32"
        },
        {
          "indexed": true,
          "internalType": "address",
          "name": "bidder",
          "type": "address"
        },
        {
          "indexed": true,
          "internalType": "uint256",
          "name": "amount",
          "type": "uint256"
        }
      ],
      "name": "ReceivedNewBid",
      "type": "event"
    },
    {
      "anonymous": false,
      "inputs": [
        {
          "indexed": true,
          "internalType": "bytes32",
          "name": "orderID",
          "type": "bytes32"
        },
        {
          "indexed": true,
          "internalType": "address",
          "name": "bidder",
          "type": "address"
        },
        {
          "indexed": true,
          "internalType": "uint256",
          "name": "amount",
          "type": "uint256"
        }
      ],
      "name": "UpdatedBid",
      "type": "event"
    },
    {
      "inputs": [
        {
          "components": [
            {
              "internalType": "bytes32",
              "name": "orderID",
              "type": "bytes32"
            },
            {
              "internalType": "address",
              "name": "bidder",
              "type": "address"
            }
          ],
          "internalType": "struct IAtomicSwapBase.AcceptBidMsg",
          "name": "acceptBidMsg",
          "type": "tuple"
        }
      ],
      "name": "acceptBid",
      "outputs": [],
      "stateMutability": "payable",
      "type": "function"
    },
    {
      "inputs": [
        {
          "internalType": "bytes32",
          "name": "",
          "type": "bytes32"
        },
        {
          "internalType": "address",
          "name": "",
          "type": "address"
        }
      ],
      "name": "bids",
      "outputs": [
        {
          "internalType": "uint256",
          "name": "amount",
          "type": "uint256"
        },
        {
          "internalType": "bytes32",
          "name": "order",
          "type": "bytes32"
        },
        {
          "internalType": "enum IAtomicSwapBase.BidStatus",
          "name": "status",
          "type": "uint8"
        },
        {
          "internalType": "address",
          "name": "bidder",
          "type": "address"
        },
        {
          "internalType": "address",
          "name": "bidderReceiver",
          "type": "address"
        },
        {
          "internalType": "uint256",
          "name": "receiveTimestamp",
          "type": "uint256"
        },
        {
          "internalType": "uint256",
          "name": "expireTimestamp",
          "type": "uint256"
        }
      ],
      "stateMutability": "view",
      "type": "function"
    },
    {
      "inputs": [],
      "name": "bridge",
      "outputs": [
        {
          "internalType": "contract ISideLzAppUpgradable",
          "name": "",
          "type": "address"
        }
      ],
      "stateMutability": "view",
      "type": "function"
    },
    {
      "inputs": [],
      "name": "buyerFeeRate",
      "outputs": [
        {
          "internalType": "uint256",
          "name": "",
          "type": "uint256"
        }
      ],
      "stateMutability": "view",
      "type": "function"
    },
    {
      "inputs": [
        {
          "internalType": "bytes",
          "name": "data",
          "type": "bytes"
        }
      ],
      "name": "bytesToAddress",
      "outputs": [
        {
          "internalType": "address",
          "name": "",
          "type": "address"
        }
      ],
      "stateMutability": "pure",
      "type": "function"
    },
    {
      "inputs": [
        {
          "internalType": "bytes32",
          "name": "_orderID",
          "type": "bytes32"
        }
      ],
      "name": "cancelBid",
      "outputs": [],
      "stateMutability": "payable",
      "type": "function"
    },
    {
      "inputs": [
        {
          "components": [
            {
              "internalType": "bytes32",
              "name": "orderID",
              "type": "bytes32"
            }
          ],
          "internalType": "struct IAtomicSwapBase.CancelSwapMsg",
          "name": "cancelswap",
          "type": "tuple"
        }
      ],
      "name": "cancelSwap",
      "outputs": [],
      "stateMutability": "payable",
      "type": "function"
    },
    {
      "inputs": [
        {
          "internalType": "bytes32",
          "name": "",
          "type": "bytes32"
        },
        {
          "internalType": "address",
          "name": "",
          "type": "address"
        }
      ],
      "name": "counteroffers",
      "outputs": [
        {
          "internalType": "uint256",
          "name": "",
          "type": "uint256"
        }
      ],
      "stateMutability": "view",
      "type": "function"
    },
    {
      "inputs": [
        {
          "components": [
            {
              "internalType": "address",
              "name": "admin",
              "type": "address"
            },
            {
              "internalType": "uint16",
              "name": "chainID",
              "type": "uint16"
            },
            {
              "internalType": "address",
              "name": "bridge",
              "type": "address"
            },
            {
              "internalType": "address",
              "name": "treasury",
              "type": "address"
            },
            {
              "internalType": "uint256",
              "name": "sellerFee",
              "type": "uint256"
            },
            {
              "internalType": "uint256",
              "name": "buyerFee",
              "type": "uint256"
            }
          ],
          "internalType": "struct IInterchainAtomicSwap.InitialParams",
          "name": "_params",
          "type": "tuple"
        }
      ],
      "name": "initialize",
      "outputs": [],
      "stateMutability": "nonpayable",
      "type": "function"
    },
    {
      "inputs": [
        {
          "components": [
            {
              "components": [
                {
                  "components": [
                    {
                      "internalType": "address",
                      "name": "token",
                      "type": "address"
                    },
                    {
                      "internalType": "uint256",
                      "name": "amount",
                      "type": "uint256"
                    }
                  ],
                  "internalType": "struct IAtomicSwapBase.Coin",
                  "name": "sellToken",
                  "type": "tuple"
                },
                {
                  "components": [
                    {
                      "internalType": "address",
                      "name": "token",
                      "type": "address"
                    },
                    {
                      "internalType": "uint256",
                      "name": "amount",
                      "type": "uint256"
                    }
                  ],
                  "internalType": "struct IAtomicSwapBase.Coin",
                  "name": "buyToken",
                  "type": "tuple"
                },
                {
                  "internalType": "address",
                  "name": "maker",
                  "type": "address"
                },
                {
                  "internalType": "address",
                  "name": "desiredTaker",
                  "type": "address"
                },
                {
                  "internalType": "uint256",
                  "name": "minBidAmount",
                  "type": "uint256"
                },
                {
                  "internalType": "uint256",
                  "name": "expireAt",
                  "type": "uint256"
                },
                {
                  "internalType": "bool",
                  "name": "acceptBid",
                  "type": "bool"
                }
              ],
              "internalType": "struct IAtomicSwapBase.MakeSwapMsg",
              "name": "base",
              "type": "tuple"
            },
            {
              "internalType": "address",
              "name": "makerReceiver",
              "type": "address"
            },
            {
              "internalType": "address",
              "name": "desiredTaker",
              "type": "address"
            },
            {
              "internalType": "uint16",
              "name": "dstChainID",
              "type": "uint16"
            }
          ],
          "internalType": "struct IInterchainAtomicSwap.ICMakeSwapMsg",
          "name": "icMakeSwap",
          "type": "tuple"
        }
      ],
      "name": "makeSwap",
      "outputs": [],
      "stateMutability": "payable",
      "type": "function"
    },
    {
      "inputs": [
        {
          "internalType": "uint16",
          "name": "_srcChainID",
          "type": "uint16"
        },
        {
          "internalType": "bytes",
          "name": "_srcAddress",
          "type": "bytes"
        },
        {
          "internalType": "uint64",
          "name": "_nonce",
          "type": "uint64"
        },
        {
          "internalType": "bytes",
          "name": "_payload",
          "type": "bytes"
        }
      ],
      "name": "onReceivePacket",
      "outputs": [],
      "stateMutability": "payable",
      "type": "function"
    },
    {
      "inputs": [],
      "name": "owner",
      "outputs": [
        {
          "internalType": "address",
          "name": "",
          "type": "address"
        }
      ],
      "stateMutability": "view",
      "type": "function"
    },
    {
      "inputs": [
        {
          "components": [
            {
              "internalType": "uint256",
              "name": "bidAmount",
              "type": "uint256"
            },
            {
              "internalType": "address",
              "name": "bidder",
              "type": "address"
            },
            {
              "internalType": "address",
              "name": "bidderReceiver",
              "type": "address"
            },
            {
              "internalType": "bytes32",
              "name": "orderID",
              "type": "bytes32"
            },
            {
              "internalType": "uint256",
              "name": "expireTimestamp",
              "type": "uint256"
            }
          ],
          "internalType": "struct IAtomicSwapBase.PlaceBidMsg",
          "name": "placeBidMsg",
          "type": "tuple"
        }
      ],
      "name": "placeBid",
      "outputs": [],
      "stateMutability": "payable",
      "type": "function"
    },
    {
      "inputs": [],
      "name": "renounceOwnership",
      "outputs": [],
      "stateMutability": "nonpayable",
      "type": "function"
    },
    {
      "inputs": [],
      "name": "sellerFeeRate",
      "outputs": [
        {
          "internalType": "uint256",
          "name": "",
          "type": "uint256"
        }
      ],
      "stateMutability": "view",
      "type": "function"
    },
    {
      "inputs": [
        {
          "internalType": "bytes32",
          "name": "",
          "type": "bytes32"
        }
      ],
      "name": "swapOrder",
      "outputs": [
        {
          "internalType": "bytes32",
          "name": "id",
          "type": "bytes32"
        },
        {
          "internalType": "enum IAtomicSwapBase.OrderStatus",
          "name": "status",
          "type": "uint8"
        },
        {
          "internalType": "address",
          "name": "maker",
          "type": "address"
        },
        {
          "components": [
            {
              "internalType": "address",
              "name": "token",
              "type": "address"
            },
            {
              "internalType": "uint256",
              "name": "amount",
              "type": "uint256"
            }
          ],
          "internalType": "struct IAtomicSwapBase.Coin",
          "name": "sellToken",
          "type": "tuple"
        },
        {
          "internalType": "address",
          "name": "taker",
          "type": "address"
        },
        {
          "components": [
            {
              "internalType": "address",
              "name": "token",
              "type": "address"
            },
            {
              "internalType": "uint256",
              "name": "amount",
              "type": "uint256"
            }
          ],
          "internalType": "struct IAtomicSwapBase.Coin",
          "name": "buyToken",
          "type": "tuple"
        },
        {
          "internalType": "uint256",
          "name": "minBidAmount",
          "type": "uint256"
        },
        {
          "internalType": "uint256",
          "name": "createdAt",
          "type": "uint256"
        },
        {
          "internalType": "uint256",
          "name": "canceledAt",
          "type": "uint256"
        },
        {
          "internalType": "uint256",
          "name": "completedAt",
          "type": "uint256"
        },
        {
          "internalType": "uint256",
          "name": "expiredAt",
          "type": "uint256"
        },
        {
          "internalType": "bool",
          "name": "acceptBid",
          "type": "bool"
        }
      ],
      "stateMutability": "view",
      "type": "function"
    },
    {
      "inputs": [],
      "name": "swapOrderCounter",
      "outputs": [
        {
          "internalType": "uint256",
          "name": "",
          "type": "uint256"
        }
      ],
      "stateMutability": "view",
      "type": "function"
    },
    {
      "inputs": [
        {
          "internalType": "bytes32",
          "name": "",
          "type": "bytes32"
        }
      ],
      "name": "swapOrderITCParams",
      "outputs": [
        {
          "internalType": "enum IInterchainAtomicSwap.Side",
          "name": "side",
          "type": "uint8"
        },
        {
          "internalType": "address",
          "name": "makerReceiver",
          "type": "address"
        },
        {
          "internalType": "address",
          "name": "takerReceiver",
          "type": "address"
        },
        {
          "internalType": "uint16",
          "name": "srcChainID",
          "type": "uint16"
        },
        {
          "internalType": "uint16",
          "name": "dstChainID",
          "type": "uint16"
        }
      ],
      "stateMutability": "view",
      "type": "function"
    },
    {
      "inputs": [
        {
          "components": [
            {
              "internalType": "bytes32",
              "name": "orderID",
              "type": "bytes32"
            },
            {
              "internalType": "address",
              "name": "takerReceiver",
              "type": "address"
            }
          ],
          "internalType": "struct IAtomicSwapBase.TakeSwapMsg",
          "name": "takeswap",
          "type": "tuple"
        }
      ],
      "name": "takeSwap",
      "outputs": [],
      "stateMutability": "payable",
      "type": "function"
    },
    {
      "inputs": [
        {
          "internalType": "address",
          "name": "newOwner",
          "type": "address"
        }
      ],
      "name": "transferOwnership",
      "outputs": [],
      "stateMutability": "nonpayable",
      "type": "function"
    },
    {
      "inputs": [
        {
          "components": [
            {
              "internalType": "bytes32",
              "name": "orderID",
              "type": "bytes32"
            },
            {
              "internalType": "address",
              "name": "bidder",
              "type": "address"
            },
            {
              "internalType": "uint256",
              "name": "addition",
              "type": "uint256"
            }
          ],
          "internalType": "struct IAtomicSwapBase.UpdateBidMsg",
          "name": "updateBidMsg",
          "type": "tuple"
        }
      ],
      "name": "updateBid",
      "outputs": [],
      "stateMutability": "payable",
      "type": "function"
    }
  ],
  "bytecode": "0x608060405234801561001057600080fd5b50615cd380620000216000396000f3fe60806040526004361061012a5760003560e01c806366e929bf116100ab5780639ab3729d1161006f5780639ab3729d14610384578063a743a3d0146103a0578063df7cec28146103dd578063e78cea92146103f9578063f2fde38b14610424578063fca6caa11461044d5761012a565b806366e929bf146102a9578063715018a6146102ec57806389f68190146103035780638da5cb5b1461032e5780639053f2fe146103595761012a565b806342526e4e116100f257806342526e4e146101bb57806352c95b2a146101f857806353f10c8014610214578063593333f01461023f5780636220b2e5146102685761012a565b8063022066611461012f57806306be619c1461014b57806337be0022146101675780633d9bd2fc1461018357806340d7185c1461019f575b600080fd5b61014960048036038101906101449190613f3a565b610495565b005b61016560048036038101906101609190613f86565b61092a565b005b610181600480360381019061017c9190613fd2565b610d1c565b005b61019d6004803603810190610198919061401e565b6110a1565b005b6101b960048036038101906101b4919061426b565b6114f6565b005b3480156101c757600080fd5b506101e260048036038101906101dd919061430f565b611aab565b6040516101ef9190614399565b60405180910390f35b610212600480360381019061020d91906143d3565b611ac1565b005b34801561022057600080fd5b50610229611e7d565b6040516102369190614419565b60405180910390f35b34801561024b57600080fd5b5061026660048036038101906102619190614453565b611e83565b005b34801561027457600080fd5b5061028f600480360381019061028a91906144b6565b61218c565b6040516102a0959493929190614569565b60405180910390f35b3480156102b557600080fd5b506102d060048036038101906102cb91906145e8565b61222b565b6040516102e3979695949392919061467f565b60405180910390f35b3480156102f857600080fd5b506103016122c7565b005b34801561030f57600080fd5b506103186122db565b6040516103259190614419565b60405180910390f35b34801561033a57600080fd5b506103436122e1565b6040516103509190614399565b60405180910390f35b34801561036557600080fd5b5061036e612319565b60405161037b9190614419565b60405180910390f35b61039e6004803603810190610399919061470e565b61231f565b005b3480156103ac57600080fd5b506103c760048036038101906103c291906145e8565b61296e565b6040516103d49190614419565b60405180910390f35b6103f760048036038101906103f291906144b6565b612993565b005b34801561040557600080fd5b5061040e612e22565b60405161041b919061479b565b60405180910390f35b34801561043057600080fd5b5061044b600480360381019061044691906147b6565b612e48565b005b34801561045957600080fd5b50610474600480360381019061046f91906144b6565b612ece565b60405161048c9c9b9a99989796959493929190614893565b60405180910390f35b61049d61305c565b80600001356000801b60008083815260200190815260200160002060000154036104f3576040517f5dcaf2d700000000000000000000000000000000000000000000000000000000815260040160405180910390fd5b600082600001359050600083602001602081019061051191906147b6565b9050600073ffffffffffffffffffffffffffffffffffffffff163373ffffffffffffffffffffffffffffffffffffffff1603610579576040517f0809490800000000000000000000000000000000000000000000000000000000815260040160405180910390fd5b6000806000848152602001908152602001600020905080600c0160009054906101000a900460ff166105d7576040517f3c24fafc00000000000000000000000000000000000000000000000000000000815260040160405180910390fd5b3373ffffffffffffffffffffffffffffffffffffffff168160010160019054906101000a900473ffffffffffffffffffffffffffffffffffffffff1673ffffffffffffffffffffffffffffffffffffffff1614610691578060010160019054906101000a900473ffffffffffffffffffffffffffffffffffffffff16336040517f0500cb4c00000000000000000000000000000000000000000000000000000000815260040161068892919061494f565b60405180910390fd5b60006001600085815260200190815260200160002060008473ffffffffffffffffffffffffffffffffffffffff1673ffffffffffffffffffffffffffffffffffffffff16815260200190815260200160002090506002808111156106f8576106f76144e3565b5b8160020160009054906101000a900460ff16600281111561071c5761071b6144e3565b5b1461076f578060020160009054906101000a900460ff166040517f64b08c060000000000000000000000000000000000000000000000000000000081526004016107669190614978565b60405180910390fd5b42816005015410156107be578060050154426040517f1d3556390000000000000000000000000000000000000000000000000000000081526004016107b5929190614993565b60405180910390fd5b60018160020160006101000a81548160ff021916908360028111156107e6576107e56144e3565b5b0217905550600082600201905061084d8160000160009054906101000a900473ffffffffffffffffffffffffffffffffffffffff168360030160009054906101000a900473ffffffffffffffffffffffffffffffffffffffff1683600101546004546130b3565b60008060058960405160200161086593929190614ac8565b6040516020818303038152906040529050600760009054906101000a900473ffffffffffffffffffffffffffffffffffffffff1673ffffffffffffffffffffffffffffffffffffffff1663e4a8b2f934600960009054906101000a900461ffff1633856040518563ffffffff1660e01b81526004016108e693929190614b9f565b6000604051808303818588803b1580156108ff57600080fd5b505af1158015610913573d6000803e3d6000fd5b50505050505050505050505061092761320a565b50565b61093261305c565b80600001356000801b6000808381526020019081526020016000206000015403610988576040517f5dcaf2d700000000000000000000000000000000000000000000000000000000815260040160405180910390fd5b60008060008460000135815260200190815260200160002090506000600860008560000135815260200190815260200160002060000160019054906101000a900473ffffffffffffffffffffffffffffffffffffffff169050838036038101906109f29190614c32565b73__$5b078b893398f17544ec956d77642311f9$__632dbbbec0909160006040518363ffffffff1660e01b8152600401610a2d929190614cb3565b60006040518083038186803b158015610a4557600080fd5b505af4158015610a59573d6000803e3d6000fd5b5050505060028260010160006101000a81548160ff02191690836003811115610a8557610a846144e3565b5b02179055504282600a01819055506000349050600073ffffffffffffffffffffffffffffffffffffffff168360050160000160009054906101000a900473ffffffffffffffffffffffffffffffffffffffff1673ffffffffffffffffffffffffffffffffffffffff1603610b5d5782600501600101543411610b47573483600501600101546040517f04157bb4000000000000000000000000000000000000000000000000000000008152600401610b3e929190614993565b60405180910390fd5b826005016001015434610b5a9190614d0b565b90505b610b9a8360050160000160009054906101000a900473ffffffffffffffffffffffffffffffffffffffff1633848660050160010154600354613223565b600080600187604051602001610bb293929190614d7e565b6040516020818303038152906040529050600760009054906101000a900473ffffffffffffffffffffffffffffffffffffffff1673ffffffffffffffffffffffffffffffffffffffff1663e4a8b2f983600960009054906101000a900461ffff1633856040518563ffffffff1660e01b8152600401610c3393929190614b9f565b6000604051808303818588803b158015610c4c57600080fd5b505af1158015610c60573d6000803e3d6000fd5b505050505085600001358460040160009054906101000a900473ffffffffffffffffffffffffffffffffffffffff1673ffffffffffffffffffffffffffffffffffffffff168560010160019054906101000a900473ffffffffffffffffffffffffffffffffffffffff1673ffffffffffffffffffffffffffffffffffffffff167f6bf7309f141d1b44e414f1fc04d98491cd0acf98f0f1e5ad885d0a7ce164e6fa60405160405180910390a45050505050610d1961320a565b50565b610d2461305c565b80600001356000801b6000808381526020019081526020016000206000015403610d7a576040517f5dcaf2d700000000000000000000000000000000000000000000000000000000815260040160405180910390fd5b60008060008460000135815260200190815260200160002090508073__$5b078b893398f17544ec956d77642311f9$__639efdfeb190916040518263ffffffff1660e01b8152600401610dcd9190614dbc565b60006040518083038186803b158015610de557600080fd5b505af4158015610df9573d6000803e3d6000fd5b5050505060018160010160006101000a81548160ff02191690836003811115610e2557610e246144e3565b5b0217905550600073ffffffffffffffffffffffffffffffffffffffff168160020160000160009054906101000a900473ffffffffffffffffffffffffffffffffffffffff1673ffffffffffffffffffffffffffffffffffffffff1603610ed8573373ffffffffffffffffffffffffffffffffffffffff166108fc82600501600101549081150290604051600060405180830381858888f19350505050158015610ed2573d6000803e3d6000fd5b50610f86565b8060020160000160009054906101000a900473ffffffffffffffffffffffffffffffffffffffff1673ffffffffffffffffffffffffffffffffffffffff1663a9059cbb3383600501600101546040518363ffffffff1660e01b8152600401610f41929190614dd7565b6020604051808303816000875af1158015610f60573d6000803e3d6000fd5b505050506040513d601f19601f82011682018060405250810190610f849190614e2c565b505b60008060028560000135604051602001610fa293929190614e59565b6040516020818303038152906040529050610fc0846000013561337d565b600760009054906101000a900473ffffffffffffffffffffffffffffffffffffffff1673ffffffffffffffffffffffffffffffffffffffff1663e4a8b2f934600960009054906101000a900461ffff1633856040518563ffffffff1660e01b815260040161103093929190614b9f565b6000604051808303818588803b15801561104957600080fd5b505af115801561105d573d6000803e3d6000fd5b505050505083600001357ff68aeec8f55d67a9b2cf2b6caea31e11f2c14e09da250170575d63911f26aa6e60405160405180910390a250505061109e61320a565b50565b6110a961305c565b80600001356000801b60008083815260200190815260200160002060000154036110ff576040517f5dcaf2d700000000000000000000000000000000000000000000000000000000815260040160405180910390fd5b60008260000135905060008360400135905060006001600084815260200190815260200160002060003373ffffffffffffffffffffffffffffffffffffffff1673ffffffffffffffffffffffffffffffffffffffff1681526020019081526020016000209050600073ffffffffffffffffffffffffffffffffffffffff168160020160019054906101000a900473ffffffffffffffffffffffffffffffffffffffff1673ffffffffffffffffffffffffffffffffffffffff16036111ef576040517f0a0c23ee00000000000000000000000000000000000000000000000000000000815260040160405180910390fd5b600080600085815260200190815260200160002090506000830361124a57826040517fd9cf167e0000000000000000000000000000000000000000000000000000000081526004016112419190614419565b60405180910390fd5b8282600001600082825461125e9190614e90565b925050819055508060050160010154826000015411156112b95781600001546040517fd9cf167e0000000000000000000000000000000000000000000000000000000081526004016112b09190614419565b60405180910390fd5b60008160050190506000349050600073ffffffffffffffffffffffffffffffffffffffff168260000160009054906101000a900473ffffffffffffffffffffffffffffffffffffffff1673ffffffffffffffffffffffffffffffffffffffff16146113535761134e8260000160009054906101000a900473ffffffffffffffffffffffffffffffffffffffff163330886134a7565b6113a7565b8434101561139857346040517fd9cf167e00000000000000000000000000000000000000000000000000000000815260040161138f9190614419565b60405180910390fd5b84816113a49190614d0b565b90505b60008060048a6040516020016113bf93929190614f61565b6040516020818303038152906040529050600760009054906101000a900473ffffffffffffffffffffffffffffffffffffffff1673ffffffffffffffffffffffffffffffffffffffff1663e4a8b2f983600960009054906101000a900461ffff1633856040518563ffffffff1660e01b815260040161144093929190614b9f565b6000604051808303818588803b15801561145957600080fd5b505af115801561146d573d6000803e3d6000fd5b505050505084600001548560020160019054906101000a900473ffffffffffffffffffffffffffffffffffffffff1673ffffffffffffffffffffffffffffffffffffffff168a600001357f7786094a5edc61a0463300b9b97a1b22d338bc800ed33404ba9a3888b71de0fc60405160405180910390a450505050505050506114f361320a565b50565b6000828260009060209261150c93929190614fa2565b8101906115199190615002565b90506000600681111561152f5761152e6144e3565b5b816006811115611542576115416144e3565b5b036116ff576000838360209060409261155d93929190614fa2565b906115689190615047565b905060008484604090809261157f93929190614fa2565b81019061158c9190615197565b905081600080848152602001908152602001600020600001819055508060600151600080848152602001908152602001600020600c0160006101000a81548160ff021916908315150217905550806000015160008084815260200190815260200160002060050160008201518160000160006101000a81548173ffffffffffffffffffffffffffffffffffffffff021916908373ffffffffffffffffffffffffffffffffffffffff16021790555060208201518160010155905050806040015160008084815260200190815260200160002060040160006101000a81548173ffffffffffffffffffffffffffffffffffffffff021916908373ffffffffffffffffffffffffffffffffffffffff16021790555080602001516008600084815260200190815260200160002060000160016101000a81548173ffffffffffffffffffffffffffffffffffffffff021916908373ffffffffffffffffffffffffffffffffffffffff1602179055505050611aa3565b60016006811115611713576117126144e3565b5b816006811115611726576117256144e3565b5b036117975760008383602090809261174093929190614fa2565b81019061174d9190614c32565b905060026000808360000151815260200190815260200160002060010160006101000a81548160ff0219169083600381111561178c5761178b6144e3565b5b021790555050611aa2565b600260068111156117ab576117aa6144e3565b5b8160068111156117be576117bd6144e3565b5b036117f4576000838360209080926117d893929190614fa2565b906117e39190615047565b90506117ee8161337d565b50611aa1565b60036006811115611808576118076144e3565b5b81600681111561181b5761181a6144e3565b5b036118535760008383602090809261183593929190614fa2565b8101906118429190615250565b905061184d8161363a565b50611aa0565b60056006811115611867576118666144e3565b5b81600681111561187a576118796144e3565b5b036119c45760008383602090809261189493929190614fa2565b8101906118a191906152cd565b90506000816000015190506000826020015190506000806000848152602001908152602001600020600501905060006008600085815260200190815260200160002060000160019054906101000a900473ffffffffffffffffffffffffffffffffffffffff16905061193f8260000160009054906101000a900473ffffffffffffffffffffffffffffffffffffffff168284600101546003546130b3565b600180600086815260200190815260200160002060008573ffffffffffffffffffffffffffffffffffffffff1673ffffffffffffffffffffffffffffffffffffffff16815260200190815260200160002060020160006101000a81548160ff021916908360028111156119b5576119b46144e3565b5b02179055505050505050611a9f565b600460068111156119d8576119d76144e3565b5b8160068111156119eb576119ea6144e3565b5b03611a9e57600083836020908092611a0593929190614fa2565b810190611a12919061535e565b905060008160000151905060008260200151905060006001600084815260200190815260200160002060008373ffffffffffffffffffffffffffffffffffffffff1673ffffffffffffffffffffffffffffffffffffffff16815260200190815260200160002090508360400151816000016000828254611a929190614e90565b92505081905550505050505b5b5b5b5b5b505050505050565b600081611ab7906153dc565b60601c9050919050565b611ac961305c565b80606001356000801b6000808381526020019081526020016000206000015403611b1f576040517f5dcaf2d700000000000000000000000000000000000000000000000000000000815260040160405180910390fd5b60008260600135905060008360000135905060006001600084815260200190815260200160002060003373ffffffffffffffffffffffffffffffffffffffff1673ffffffffffffffffffffffffffffffffffffffff1681526020019081526020016000209050600073ffffffffffffffffffffffffffffffffffffffff168160020160019054906101000a900473ffffffffffffffffffffffffffffffffffffffff1673ffffffffffffffffffffffffffffffffffffffff1614611c0f576040517fb8cee9f000000000000000000000000000000000000000000000000000000000815260040160405180910390fd5b60008060008760600135815260200190815260200160002090508060070154831015611c7257826040517fd9cf167e000000000000000000000000000000000000000000000000000000008152600401611c699190614419565b60405180910390fd5b6000826000015484611c849190614d0b565b9050600080600087815260200190815260200160002060050190506000349050600073ffffffffffffffffffffffffffffffffffffffff168260000160009054906101000a900473ffffffffffffffffffffffffffffffffffffffff1673ffffffffffffffffffffffffffffffffffffffff1614611d3157611d2c8260000160009054906101000a900473ffffffffffffffffffffffffffffffffffffffff163330866134a7565b611d85565b82341015611d7657346040517fd9cf167e000000000000000000000000000000000000000000000000000000008152600401611d6d9190614419565b60405180910390fd5b8281611d829190614d0b565b90505b611d9e89803603810190611d999190615250565b61363a565b60008060038b604051602001611db6939291906154d3565b6040516020818303038152906040529050600760009054906101000a900473ffffffffffffffffffffffffffffffffffffffff1673ffffffffffffffffffffffffffffffffffffffff1663e4a8b2f983600960009054906101000a900461ffff1633856040518563ffffffff1660e01b8152600401611e3793929190614b9f565b6000604051808303818588803b158015611e5057600080fd5b505af1158015611e64573d6000803e3d6000fd5b5050505050505050505050505050611e7a61320a565b50565b60045481565b6000611e8d613809565b905060008160000160089054906101000a900460ff1615905060008260000160009054906101000a900467ffffffffffffffff1690506000808267ffffffffffffffff16148015611edb5750825b9050600060018367ffffffffffffffff16148015611f10575060003073ffffffffffffffffffffffffffffffffffffffff163b145b905081158015611f1e575080155b15611f55576040517ff92ee8a900000000000000000000000000000000000000000000000000000000815260040160405180910390fd5b60018560000160006101000a81548167ffffffffffffffff021916908367ffffffffffffffff1602179055508315611fa55760018560000160086101000a81548160ff0219169083151502179055505b611fc0866000016020810190611fbb91906147b6565b613831565b85803603810190611fd191906155aa565b73__$6f3146d13761fe4efe0c3dc8c4b43c2873$__63cf5bfc7c90916103e86040518363ffffffff1660e01b815260040161200d92919061567f565b60006040518083038186803b15801561202557600080fd5b505af4158015612039573d6000803e3d6000fd5b5050505085608001356003819055508560a0013560048190555085606001602081019061206691906147b6565b600260006101000a81548173ffffffffffffffffffffffffffffffffffffffff021916908373ffffffffffffffffffffffffffffffffffffffff1602179055508560200160208101906120b991906156a8565b600960006101000a81548161ffff021916908361ffff1602179055508560400160208101906120e891906147b6565b600760006101000a81548173ffffffffffffffffffffffffffffffffffffffff021916908373ffffffffffffffffffffffffffffffffffffffff16021790555083156121845760008560000160086101000a81548160ff0219169083151502179055507fc7f505b2f371ae2175ee4913f4499e1f2633a7b5936321eed1cdaeb6115181d2600160405161217b9190615710565b60405180910390a15b505050505050565b60086020528060005260406000206000915090508060000160009054906101000a900460ff16908060000160019054906101000a900473ffffffffffffffffffffffffffffffffffffffff16908060010160009054906101000a900473ffffffffffffffffffffffffffffffffffffffff16908060010160149054906101000a900461ffff16908060010160169054906101000a900461ffff16905085565b6001602052816000526040600020602052806000526040600020600091509150508060000154908060010154908060020160009054906101000a900460ff16908060020160019054906101000a900473ffffffffffffffffffffffffffffffffffffffff16908060030160009054906101000a900473ffffffffffffffffffffffffffffffffffffffff16908060040154908060050154905087565b6122cf6138b7565b6122d9600061393e565b565b60035481565b6000806122ec613a15565b90508060000160009054906101000a900473ffffffffffffffffffffffffffffffffffffffff1691505090565b60055481565b61232761305c565b60008160000180360381019061233d91906157e1565b90508073__$5b078b893398f17544ec956d77642311f9$__6357fc12b090916040518263ffffffff1660e01b815260040161237891906158dd565b60006040518083038186803b15801561239057600080fd5b505af41580156123a4573d6000803e3d6000fd5b5050505060006123b333613a3d565b90506123c0813384613a89565b60006040518060a001604052806001808111156123e0576123df6144e3565b5b8152602001856101200160208101906123f991906147b6565b73ffffffffffffffffffffffffffffffffffffffff168152602001600073ffffffffffffffffffffffffffffffffffffffff168152602001600960009054906101000a900461ffff1661ffff1681526020018561016001602081019061245f91906156a8565b61ffff168152509050806008600084815260200190815260200160002060008201518160000160006101000a81548160ff021916908360018111156124a7576124a66144e3565b5b021790555060208201518160000160016101000a81548173ffffffffffffffffffffffffffffffffffffffff021916908373ffffffffffffffffffffffffffffffffffffffff16021790555060408201518160010160006101000a81548173ffffffffffffffffffffffffffffffffffffffff021916908373ffffffffffffffffffffffffffffffffffffffff16021790555060608201518160010160146101000a81548161ffff021916908361ffff16021790555060808201518160010160166101000a81548161ffff021916908361ffff1602179055509050506000349050600073ffffffffffffffffffffffffffffffffffffffff1684600001516000015173ffffffffffffffffffffffffffffffffffffffff160361262a5783600001516020015134101561260f576040517f08c379a000000000000000000000000000000000000000000000000000000000815260040161260690615956565b60405180910390fd5b836000015160200151816126239190614d0b565b90506127d8565b6000846000015160000151905060008173ffffffffffffffffffffffffffffffffffffffff1663dd62ed3e33306040518363ffffffff1660e01b815260040161267492919061494f565b602060405180830381865afa158015612691573d6000803e3d6000fd5b505050506040513d601f19601f820116820180604052508101906126b5919061598b565b905085600001516020015181101561270e57856000015160200151816040517f7c8db62f000000000000000000000000000000000000000000000000000000008152600401612705929190614993565b60405180910390fd5b8173ffffffffffffffffffffffffffffffffffffffff166323b872dd33308960000151602001516040518463ffffffff1660e01b8152600401612753939291906159b8565b6020604051808303816000875af1158015612772573d6000803e3d6000fd5b505050506040513d601f19601f820116820180604052508101906127969190614e2c565b6127d5576040517f08c379a00000000000000000000000000000000000000000000000000000000081526004016127cc90615a3b565b60405180910390fd5b50505b60006040518060a00160405280866020015181526020018761012001602081019061280391906147b6565b73ffffffffffffffffffffffffffffffffffffffff1681526020018761014001602081019061283291906147b6565b73ffffffffffffffffffffffffffffffffffffffff1681526020018660c00151151581526020018660a0015181525090506000806000868460405160200161287d9493929190615b01565b6040516020818303038152906040529050600760009054906101000a900473ffffffffffffffffffffffffffffffffffffffff1673ffffffffffffffffffffffffffffffffffffffff1663e4a8b2f984600960009054906101000a900461ffff1633856040518563ffffffff1660e01b81526004016128fe93929190614b9f565b6000604051808303818588803b15801561291757600080fd5b505af115801561292b573d6000803e3d6000fd5b5050505050847f8b82d32987f9a4ae1bc7868a6f104edb711227ec3c9fccb0416a14fcc29bec5a60405160405180910390a250505050505061296b61320a565b50565b6006602052816000526040600020602052806000526040600020600091509150505481565b61299b61305c565b806000801b60008083815260200190815260200160002060000154036129ed576040517f5dcaf2d700000000000000000000000000000000000000000000000000000000815260040160405180910390fd5b60006001600084815260200190815260200160002060003373ffffffffffffffffffffffffffffffffffffffff1673ffffffffffffffffffffffffffffffffffffffff1681526020019081526020016000209050600073ffffffffffffffffffffffffffffffffffffffff168160020160019054906101000a900473ffffffffffffffffffffffffffffffffffffffff1673ffffffffffffffffffffffffffffffffffffffff1603612acb576040517fac96c2bd00000000000000000000000000000000000000000000000000000000815260040160405180910390fd5b3373ffffffffffffffffffffffffffffffffffffffff168160020160019054906101000a900473ffffffffffffffffffffffffffffffffffffffff1673ffffffffffffffffffffffffffffffffffffffff1614612b54576040517f978f045600000000000000000000000000000000000000000000000000000000815260040160405180910390fd5b600280811115612b6757612b666144e3565b5b8160020160009054906101000a900460ff166002811115612b8b57612b8a6144e3565b5b14612bde578060020160009054906101000a900460ff166040517f64b08c06000000000000000000000000000000000000000000000000000000008152600401612bd59190614978565b60405180910390fd5b60008160020160006101000a81548160ff02191690836002811115612c0657612c056144e3565b5b021790555060008060008581526020019081526020016000206005019050600073ffffffffffffffffffffffffffffffffffffffff168160000160009054906101000a900473ffffffffffffffffffffffffffffffffffffffff1673ffffffffffffffffffffffffffffffffffffffff1614612cd857612cd38160000160009054906101000a900473ffffffffffffffffffffffffffffffffffffffff168360020160019054906101000a900473ffffffffffffffffffffffffffffffffffffffff168460000154613daa565b612d48565b8160020160019054906101000a900473ffffffffffffffffffffffffffffffffffffffff1673ffffffffffffffffffffffffffffffffffffffff166108fc83600001549081150290604051600060405180830381858888f19350505050158015612d46573d6000803e3d6000fd5b505b600080600586604051602001612d6093929190614e59565b6040516020818303038152906040529050600760009054906101000a900473ffffffffffffffffffffffffffffffffffffffff1673ffffffffffffffffffffffffffffffffffffffff1663e4a8b2f934600960009054906101000a900461ffff1633856040518563ffffffff1660e01b8152600401612de193929190614b9f565b6000604051808303818588803b158015612dfa57600080fd5b505af1158015612e0e573d6000803e3d6000fd5b505050505050505050612e1f61320a565b50565b600760009054906101000a900473ffffffffffffffffffffffffffffffffffffffff1681565b612e506138b7565b600073ffffffffffffffffffffffffffffffffffffffff168173ffffffffffffffffffffffffffffffffffffffff1603612ec25760006040517f1e4fbdf7000000000000000000000000000000000000000000000000000000008152600401612eb99190614399565b60405180910390fd5b612ecb8161393e565b50565b60006020528060005260406000206000915090508060000154908060010160009054906101000a900460ff16908060010160019054906101000a900473ffffffffffffffffffffffffffffffffffffffff1690806002016040518060400160405290816000820160009054906101000a900473ffffffffffffffffffffffffffffffffffffffff1673ffffffffffffffffffffffffffffffffffffffff1673ffffffffffffffffffffffffffffffffffffffff168152602001600182015481525050908060040160009054906101000a900473ffffffffffffffffffffffffffffffffffffffff1690806005016040518060400160405290816000820160009054906101000a900473ffffffffffffffffffffffffffffffffffffffff1673ffffffffffffffffffffffffffffffffffffffff1673ffffffffffffffffffffffffffffffffffffffff1681526020016001820154815250509080600701549080600801549080600901549080600a01549080600b01549080600c0160009054906101000a900460ff1690508c565b6000613066613e72565b905060028160000154036130a6576040517f3ee5aeb500000000000000000000000000000000000000000000000000000000815260040160405180910390fd5b6002816000018190555050565b60006103e882846130c49190615b47565b6130ce9190615bb8565b9050600081846130de9190614d0b565b9050600073ffffffffffffffffffffffffffffffffffffffff168673ffffffffffffffffffffffffffffffffffffffff16146131515761311f868683613daa565b61314c86600260009054906101000a900473ffffffffffffffffffffffffffffffffffffffff1684613daa565b613202565b8473ffffffffffffffffffffffffffffffffffffffff166108fc829081150290604051600060405180830381858888f19350505050158015613197573d6000803e3d6000fd5b50600260009054906101000a900473ffffffffffffffffffffffffffffffffffffffff1673ffffffffffffffffffffffffffffffffffffffff166108fc839081150290604051600060405180830381858888f19350505050158015613200573d6000803e3d6000fd5b505b505050505050565b6000613214613e72565b90506001816000018190555050565b60006103e882846132349190615b47565b61323e9190615bb8565b90506000818461324e9190614d0b565b9050600073ffffffffffffffffffffffffffffffffffffffff168773ffffffffffffffffffffffffffffffffffffffff16146132c357613290878787846134a7565b6132be8787600260009054906101000a900473ffffffffffffffffffffffffffffffffffffffff16856134a7565b613374565b8473ffffffffffffffffffffffffffffffffffffffff166108fc829081150290604051600060405180830381858888f19350505050158015613309573d6000803e3d6000fd5b50600260009054906101000a900473ffffffffffffffffffffffffffffffffffffffff1673ffffffffffffffffffffffffffffffffffffffff166108fc839081150290604051600060405180830381858888f19350505050158015613372573d6000803e3d6000fd5b505b50505050505050565b6000808281526020019081526020016000206000808201600090556001820160006101000a81549060ff02191690556001820160016101000a81549073ffffffffffffffffffffffffffffffffffffffff021916905560028201600080820160006101000a81549073ffffffffffffffffffffffffffffffffffffffff0219169055600182016000905550506004820160006101000a81549073ffffffffffffffffffffffffffffffffffffffff021916905560058201600080820160006101000a81549073ffffffffffffffffffffffffffffffffffffffff021916905560018201600090555050600782016000905560088201600090556009820160009055600a820160009055600b820160009055600c820160006101000a81549060ff0219169055505050565b600084905060008173ffffffffffffffffffffffffffffffffffffffff1663dd62ed3e33306040518363ffffffff1660e01b81526004016134e992919061494f565b602060405180830381865afa158015613506573d6000803e3d6000fd5b505050506040513d601f19601f8201168201806040525081019061352a919061598b565b9050828110156135735780836040517f7c8db62f00000000000000000000000000000000000000000000000000000000815260040161356a929190614993565b60405180910390fd5b8173ffffffffffffffffffffffffffffffffffffffff166323b872dd8686866040518463ffffffff1660e01b81526004016135b0939291906159b8565b6020604051808303816000875af11580156135cf573d6000803e3d6000fd5b505050506040513d601f19601f820116820180604052508101906135f39190614e2c565b613632576040517f08c379a000000000000000000000000000000000000000000000000000000000815260040161362990615c35565b60405180910390fd5b505050505050565b60006040518060e00160405280836000015181526020018360600151815260200160028081111561366e5761366d6144e3565b5b8152602001836020015173ffffffffffffffffffffffffffffffffffffffff168152602001836040015173ffffffffffffffffffffffffffffffffffffffff168152602001428152602001836080015181525090508060016000846060015181526020019081526020016000206000846020015173ffffffffffffffffffffffffffffffffffffffff1673ffffffffffffffffffffffffffffffffffffffff168152602001908152602001600020600082015181600001556020820151816001015560408201518160020160006101000a81548160ff0219169083600281111561375b5761375a6144e3565b5b021790555060608201518160020160016101000a81548173ffffffffffffffffffffffffffffffffffffffff021916908373ffffffffffffffffffffffffffffffffffffffff16021790555060808201518160030160006101000a81548173ffffffffffffffffffffffffffffffffffffffff021916908373ffffffffffffffffffffffffffffffffffffffff16021790555060a0820151816004015560c082015181600501559050505050565b60007ff0c57e16840df040f15088dc2f81fe391c3923bec73e23a9662efc9c229c6a00905090565b613839613e9a565b600073ffffffffffffffffffffffffffffffffffffffff168173ffffffffffffffffffffffffffffffffffffffff16036138ab5760006040517f1e4fbdf70000000000000000000000000000000000000000000000000000000081526004016138a29190614399565b60405180910390fd5b6138b48161393e565b50565b6138bf613eda565b73ffffffffffffffffffffffffffffffffffffffff166138dd6122e1565b73ffffffffffffffffffffffffffffffffffffffff161461393c57613900613eda565b6040517f118cdaa70000000000000000000000000000000000000000000000000000000081526004016139339190614399565b60405180910390fd5b565b6000613948613a15565b905060008160000160009054906101000a900473ffffffffffffffffffffffffffffffffffffffff169050828260000160006101000a81548173ffffffffffffffffffffffffffffffffffffffff021916908373ffffffffffffffffffffffffffffffffffffffff1602179055508273ffffffffffffffffffffffffffffffffffffffff168173ffffffffffffffffffffffffffffffffffffffff167f8be0079c531659141344cd1fd0a4f28419497f9722a3daafe3b4186f6b6457e060405160405180910390a3505050565b60007f9016d09d72d40fdae2fd8ceac6b6234c7706214fd39c1cd1e609a0528c199300905090565b600081600554604051602001613a54929190614dd7565b60405160208183030381529060405280519060200120905060056000815480929190613a7f90615c55565b9190505550919050565b6000801b6000808581526020019081526020016000206000015414613ada576040517f966753c500000000000000000000000000000000000000000000000000000000815260040160405180910390fd5b600060405180610180016040528085815260200160006003811115613b0257613b016144e3565b5b81526020018473ffffffffffffffffffffffffffffffffffffffff16815260200183600001518152602001836060015173ffffffffffffffffffffffffffffffffffffffff168152602001836020015181526020018360800151815260200142815260200160008152602001600081526020018360a0015181526020018360c0015115158152509050806000808681526020019081526020016000206000820151816000015560208201518160010160006101000a81548160ff02191690836003811115613bd357613bd26144e3565b5b021790555060408201518160010160016101000a81548173ffffffffffffffffffffffffffffffffffffffff021916908373ffffffffffffffffffffffffffffffffffffffff16021790555060608201518160020160008201518160000160006101000a81548173ffffffffffffffffffffffffffffffffffffffff021916908373ffffffffffffffffffffffffffffffffffffffff16021790555060208201518160010155505060808201518160040160006101000a81548173ffffffffffffffffffffffffffffffffffffffff021916908373ffffffffffffffffffffffffffffffffffffffff16021790555060a08201518160050160008201518160000160006101000a81548173ffffffffffffffffffffffffffffffffffffffff021916908373ffffffffffffffffffffffffffffffffffffffff16021790555060208201518160010155505060c0820151816007015560e08201518160080155610100820151816009015561012082015181600a015561014082015181600b015561016082015181600c0160006101000a81548160ff021916908315150217905550905050837f8b82d32987f9a4ae1bc7868a6f104edb711227ec3c9fccb0416a14fcc29bec5a60405160405180910390a250505050565b60008390508073ffffffffffffffffffffffffffffffffffffffff1663a9059cbb84846040518363ffffffff1660e01b8152600401613dea929190614dd7565b6020604051808303816000875af1158015613e09573d6000803e3d6000fd5b505050506040513d601f19601f82011682018060405250810190613e2d9190614e2c565b613e6c576040517f08c379a0000000000000000000000000000000000000000000000000000000008152600401613e6390615c35565b60405180910390fd5b50505050565b60007f9b779b17422d0df92223018b32b4d1fa46e071723d6817e2486d003becc55f00905090565b613ea2613ee2565b613ed8576040517fd7e6bcf800000000000000000000000000000000000000000000000000000000815260040160405180910390fd5b565b600033905090565b6000613eec613809565b60000160089054906101000a900460ff16905090565b6000604051905090565b600080fd5b600080fd5b600080fd5b600060408284031215613f3157613f30613f16565b5b81905092915050565b600060408284031215613f5057613f4f613f0c565b5b6000613f5e84828501613f1b565b91505092915050565b600060408284031215613f7d57613f7c613f16565b5b81905092915050565b600060408284031215613f9c57613f9b613f0c565b5b6000613faa84828501613f67565b91505092915050565b600060208284031215613fc957613fc8613f16565b5b81905092915050565b600060208284031215613fe857613fe7613f0c565b5b6000613ff684828501613fb3565b91505092915050565b60006060828403121561401557614014613f16565b5b81905092915050565b60006060828403121561403457614033613f0c565b5b600061404284828501613fff565b91505092915050565b600061ffff82169050919050565b6140628161404b565b811461406d57600080fd5b50565b60008135905061407f81614059565b92915050565b600080fd5b600080fd5b6000601f19601f8301169050919050565b7f4e487b7100000000000000000000000000000000000000000000000000000000600052604160045260246000fd5b6140d88261408f565b810181811067ffffffffffffffff821117156140f7576140f66140a0565b5b80604052505050565b600061410a613f02565b905061411682826140cf565b919050565b600067ffffffffffffffff821115614136576141356140a0565b5b61413f8261408f565b9050602081019050919050565b82818337600083830152505050565b600061416e6141698461411b565b614100565b90508281526020810184848401111561418a5761418961408a565b5b61419584828561414c565b509392505050565b600082601f8301126141b2576141b1614085565b5b81356141c284826020860161415b565b91505092915050565b600067ffffffffffffffff82169050919050565b6141e8816141cb565b81146141f357600080fd5b50565b600081359050614205816141df565b92915050565b600080fd5b600080fd5b60008083601f84011261422b5761422a614085565b5b8235905067ffffffffffffffff8111156142485761424761420b565b5b60208301915083600182028301111561426457614263614210565b5b9250929050565b60008060008060006080868803121561428757614286613f0c565b5b600061429588828901614070565b955050602086013567ffffffffffffffff8111156142b6576142b5613f11565b5b6142c28882890161419d565b94505060406142d3888289016141f6565b935050606086013567ffffffffffffffff8111156142f4576142f3613f11565b5b61430088828901614215565b92509250509295509295909350565b60006020828403121561432557614324613f0c565b5b600082013567ffffffffffffffff81111561434357614342613f11565b5b61434f8482850161419d565b91505092915050565b600073ffffffffffffffffffffffffffffffffffffffff82169050919050565b600061438382614358565b9050919050565b61439381614378565b82525050565b60006020820190506143ae600083018461438a565b92915050565b600060a082840312156143ca576143c9613f16565b5b81905092915050565b600060a082840312156143e9576143e8613f0c565b5b60006143f7848285016143b4565b91505092915050565b6000819050919050565b61441381614400565b82525050565b600060208201905061442e600083018461440a565b92915050565b600060c0828403121561444a57614449613f16565b5b81905092915050565b600060c0828403121561446957614468613f0c565b5b600061447784828501614434565b91505092915050565b6000819050919050565b61449381614480565b811461449e57600080fd5b50565b6000813590506144b08161448a565b92915050565b6000602082840312156144cc576144cb613f0c565b5b60006144da848285016144a1565b91505092915050565b7f4e487b7100000000000000000000000000000000000000000000000000000000600052602160045260246000fd5b60028110614523576145226144e3565b5b50565b600081905061453482614512565b919050565b600061454482614526565b9050919050565b61455481614539565b82525050565b6145638161404b565b82525050565b600060a08201905061457e600083018861454b565b61458b602083018761438a565b614598604083018661438a565b6145a5606083018561455a565b6145b2608083018461455a565b9695505050505050565b6145c581614378565b81146145d057600080fd5b50565b6000813590506145e2816145bc565b92915050565b600080604083850312156145ff576145fe613f0c565b5b600061460d858286016144a1565b925050602061461e858286016145d3565b9150509250929050565b61463181614480565b82525050565b60038110614648576146476144e3565b5b50565b600081905061465982614637565b919050565b60006146698261464b565b9050919050565b6146798161465e565b82525050565b600060e082019050614694600083018a61440a565b6146a16020830189614628565b6146ae6040830188614670565b6146bb606083018761438a565b6146c8608083018661438a565b6146d560a083018561440a565b6146e260c083018461440a565b98975050505050505050565b6000610180828403121561470557614704613f16565b5b81905092915050565b6000610180828403121561472557614724613f0c565b5b6000614733848285016146ee565b91505092915050565b6000819050919050565b600061476161475c61475784614358565b61473c565b614358565b9050919050565b600061477382614746565b9050919050565b600061478582614768565b9050919050565b6147958161477a565b82525050565b60006020820190506147b0600083018461478c565b92915050565b6000602082840312156147cc576147cb613f0c565b5b60006147da848285016145d3565b91505092915050565b600481106147f4576147f36144e3565b5b50565b6000819050614805826147e3565b919050565b6000614815826147f7565b9050919050565b6148258161480a565b82525050565b61483481614378565b82525050565b61484381614400565b82525050565b60408201600082015161485f600085018261482b565b506020820151614872602085018261483a565b50505050565b60008115159050919050565b61488d81614878565b82525050565b60006101c0820190506148a9600083018f614628565b6148b6602083018e61481c565b6148c3604083018d61438a565b6148d0606083018c614849565b6148dd60a083018b61438a565b6148ea60c083018a614849565b6148f861010083018961440a565b61490661012083018861440a565b61491461014083018761440a565b61492261016083018661440a565b61493061018083018561440a565b61493e6101a0830184614884565b9d9c50505050505050505050505050565b6000604082019050614964600083018561438a565b614971602083018461438a565b9392505050565b600060208201905061498d6000830184614670565b92915050565b60006040820190506149a8600083018561440a565b6149b5602083018461440a565b9392505050565b6000819050919050565b600060ff82169050919050565b60006149ee6149e96149e4846149bc565b61473c565b6149c6565b9050919050565b6149fe816149d3565b82525050565b60078110614a1557614a146144e3565b5b50565b6000819050614a2682614a04565b919050565b6000614a3682614a18565b9050919050565b614a4681614a2b565b82525050565b6000614a5b60208401846144a1565b905092915050565b614a6c81614480565b82525050565b6000614a8160208401846145d3565b905092915050565b60408201614a9a6000830183614a4c565b614aa76000850182614a63565b50614ab56020830183614a72565b614ac2602085018261482b565b50505050565b6000608082019050614add60008301866149f5565b614aea6020830185614a3d565b614af76040830184614a89565b949350505050565b6000614b0a82614358565b9050919050565b614b1a81614aff565b82525050565b600081519050919050565b600082825260208201905092915050565b60005b83811015614b5a578082015181840152602081019050614b3f565b60008484015250505050565b6000614b7182614b20565b614b7b8185614b2b565b9350614b8b818560208601614b3c565b614b948161408f565b840191505092915050565b6000606082019050614bb4600083018661455a565b614bc16020830185614b11565b8181036040830152614bd38184614b66565b9050949350505050565b600080fd5b600060408284031215614bf857614bf7614bdd565b5b614c026040614100565b90506000614c12848285016144a1565b6000830152506020614c26848285016145d3565b60208301525092915050565b600060408284031215614c4857614c47613f0c565b5b6000614c5684828501614be2565b91505092915050565b614c6881614480565b82525050565b614c7781614378565b82525050565b604082016000820151614c936000850182614c5f565b506020820151614ca66020850182614c6e565b50505050565b8082525050565b6000606082019050614cc86000830185614c7d565b614cd56040830184614cac565b9392505050565b7f4e487b7100000000000000000000000000000000000000000000000000000000600052601160045260246000fd5b6000614d1682614400565b9150614d2183614400565b9250828203905081811115614d3957614d38614cdc565b5b92915050565b60408201614d506000830183614a4c565b614d5d6000850182614a63565b50614d6b6020830183614a72565b614d78602085018261482b565b50505050565b6000608082019050614d9360008301866149f5565b614da06020830185614a3d565b614dad6040830184614d3f565b949350505050565b8082525050565b6000602082019050614dd16000830184614db5565b92915050565b6000604082019050614dec600083018561438a565b614df9602083018461440a565b9392505050565b614e0981614878565b8114614e1457600080fd5b50565b600081519050614e2681614e00565b92915050565b600060208284031215614e4257614e41613f0c565b5b6000614e5084828501614e17565b91505092915050565b6000606082019050614e6e60008301866149f5565b614e7b6020830185614a3d565b614e886040830184614628565b949350505050565b6000614e9b82614400565b9150614ea683614400565b9250828201905080821115614ebe57614ebd614cdc565b5b92915050565b614ecd81614400565b8114614ed857600080fd5b50565b600081359050614eea81614ec4565b92915050565b6000614eff6020840184614edb565b905092915050565b60608201614f186000830183614a4c565b614f256000850182614a63565b50614f336020830183614a72565b614f40602085018261482b565b50614f4e6040830183614ef0565b614f5b604085018261483a565b50505050565b600060a082019050614f7660008301866149f5565b614f836020830185614a3d565b614f906040830184614f07565b949350505050565b600080fd5b600080fd5b60008085851115614fb657614fb5614f98565b5b83861115614fc757614fc6614f9d565b5b6001850283019150848603905094509492505050565b60078110614fea57600080fd5b50565b600081359050614ffc81614fdd565b92915050565b60006020828403121561501857615017613f0c565b5b600061502684828501614fed565b91505092915050565b600082905092915050565b600082821b905092915050565b6000615053838361502f565b8261505e8135614480565b9250602082101561509e576150997fffffffffffffffffffffffffffffffffffffffffffffffffffffffffffffffff8360200360080261503a565b831692505b505092915050565b6000604082840312156150bc576150bb614bdd565b5b6150c66040614100565b905060006150d6848285016145d3565b60008301525060206150ea84828501614edb565b60208301525092915050565b60008135905061510581614e00565b92915050565b600060c0828403121561512157615120614bdd565b5b61512b60a0614100565b9050600061513b848285016150a6565b600083015250604061514f848285016145d3565b6020830152506060615163848285016145d3565b6040830152506080615177848285016150f6565b60608301525060a061518b84828501614edb565b60808301525092915050565b600060c082840312156151ad576151ac613f0c565b5b60006151bb8482850161510b565b91505092915050565b600060a082840312156151da576151d9614bdd565b5b6151e460a0614100565b905060006151f484828501614edb565b6000830152506020615208848285016145d3565b602083015250604061521c848285016145d3565b6040830152506060615230848285016144a1565b606083015250608061524484828501614edb565b60808301525092915050565b600060a0828403121561526657615265613f0c565b5b6000615274848285016151c4565b91505092915050565b60006040828403121561529357615292614bdd565b5b61529d6040614100565b905060006152ad848285016144a1565b60008301525060206152c1848285016145d3565b60208301525092915050565b6000604082840312156152e3576152e2613f0c565b5b60006152f18482850161527d565b91505092915050565b6000606082840312156153105761530f614bdd565b5b61531a6060614100565b9050600061532a848285016144a1565b600083015250602061533e848285016145d3565b602083015250604061535284828501614edb565b60408301525092915050565b60006060828403121561537457615373613f0c565b5b6000615382848285016152fa565b91505092915050565b6000819050602082019050919050565b60007fffffffffffffffffffffffffffffffffffffffff00000000000000000000000082169050919050565b60006153d3825161539b565b80915050919050565b60006153e782614b20565b826153f18461538b565b90506153fc816153c7565b9250601482101561543c576154377fffffffffffffffffffffffffffffffffffffffff0000000000000000000000008360140360080261503a565b831692505b5050919050565b60a082016154546000830183614ef0565b615461600085018261483a565b5061546f6020830183614a72565b61547c602085018261482b565b5061548a6040830183614a72565b615497604085018261482b565b506154a56060830183614a4c565b6154b26060850182614a63565b506154c06080830183614ef0565b6154cd608085018261483a565b50505050565b600060e0820190506154e860008301866149f5565b6154f56020830185614a3d565b6155026040830184615443565b949350505050565b600060c082840312156155205761551f614bdd565b5b61552a60c0614100565b9050600061553a848285016145d3565b600083015250602061554e84828501614070565b6020830152506040615562848285016145d3565b6040830152506060615576848285016145d3565b606083015250608061558a84828501614edb565b60808301525060a061559e84828501614edb565b60a08301525092915050565b600060c082840312156155c0576155bf613f0c565b5b60006155ce8482850161550a565b91505092915050565b6155e08161404b565b82525050565b6155ef81614400565b82525050565b60c08201600082015161560b6000850182614c6e565b50602082015161561e60208501826155d7565b5060408201516156316040850182614c6e565b5060608201516156446060850182614c6e565b50608082015161565760808501826155e6565b5060a082015161566a60a08501826155e6565b50505050565b61567981614400565b82525050565b600060e08201905061569460008301856155f5565b6156a160c0830184615670565b9392505050565b6000602082840312156156be576156bd613f0c565b5b60006156cc84828501614070565b91505092915050565b6000819050919050565b60006156fa6156f56156f0846156d5565b61473c565b6141cb565b9050919050565b61570a816156df565b82525050565b60006020820190506157256000830184615701565b92915050565b6000610120828403121561574257615741614bdd565b5b61574c60e0614100565b9050600061575c848285016150a6565b6000830152506040615770848285016150a6565b6020830152506080615784848285016145d3565b60408301525060a0615798848285016145d3565b60608301525060c06157ac84828501614edb565b60808301525060e06157c084828501614edb565b60a0830152506101006157d5848285016150f6565b60c08301525092915050565b600061012082840312156157f8576157f7613f0c565b5b60006158068482850161572b565b91505092915050565b6040820160008201516158256000850182614c6e565b50602082015161583860208501826155e6565b50505050565b61584781614878565b82525050565b61012082016000820151615864600085018261580f565b506020820151615877604085018261580f565b50604082015161588a6080850182614c6e565b50606082015161589d60a0850182614c6e565b5060808201516158b060c08501826155e6565b5060a08201516158c360e08501826155e6565b5060c08201516158d761010085018261583e565b50505050565b6000610120820190506158f3600083018461584d565b92915050565b600082825260208201905092915050565b7f4e6f7420656e6f75676820657468657200000000000000000000000000000000600082015250565b60006159406010836158f9565b915061594b8261590a565b602082019050919050565b6000602082019050818103600083015261596f81615933565b9050919050565b60008151905061598581614ec4565b92915050565b6000602082840312156159a1576159a0613f0c565b5b60006159af84828501615976565b91505092915050565b60006060820190506159cd600083018661438a565b6159da602083018561438a565b6159e7604083018461440a565b949350505050565b7f4661696c656420696e204c6f636b20746f6b656e000000000000000000000000600082015250565b6000615a256014836158f9565b9150615a30826159ef565b602082019050919050565b60006020820190508181036000830152615a5481615a18565b9050919050565b604082016000820151615a71600085018261482b565b506020820151615a84602085018261483a565b50505050565b615a9381614878565b82525050565b60c082016000820151615aaf6000850182615a5b565b506020820151615ac2604085018261482b565b506040820151615ad5606085018261482b565b506060820151615ae86080850182615a8a565b506080820151615afb60a085018261483a565b50505050565b600061012082019050615b1760008301876149f5565b615b246020830186614a3d565b615b316040830185614628565b615b3e6060830184615a99565b95945050505050565b6000615b5282614400565b9150615b5d83614400565b9250828202615b6b81614400565b91508282048414831517615b8257615b81614cdc565b5b5092915050565b7f4e487b7100000000000000000000000000000000000000000000000000000000600052601260045260246000fd5b6000615bc382614400565b9150615bce83614400565b925082615bde57615bdd615b89565b5b828204905092915050565b7f4661696c656420746f207472616e736665722066726f6d000000000000000000600082015250565b6000615c1f6017836158f9565b9150615c2a82615be9565b602082019050919050565b60006020820190508181036000830152615c4e81615c12565b9050919050565b6000615c6082614400565b91507fffffffffffffffffffffffffffffffffffffffffffffffffffffffffffffffff8203615c9257615c91614cdc565b5b60018201905091905056fea264697066735822122023e36c3d20018b55aadfd1c7667b3a2cc2523dbf0f308bfb4495379191af528164736f6c63430008140033",
  "linkReferences": {
    "contracts/abstracts/libs/AtomicSwapMsgValidator.sol": {
      "AtomicSwapMsgValidator": [
        {
          "length": 20,
          "start": 2581
        },
        {
          "length": 20,
          "start": 3512
        },
        {
          "length": 20,
          "start": 9059
        }
      ]
    },
    "contracts/interchain_atomicswap/libs/InterchainAtomicSwapLogic.sol": {
      "InterchainAtomicSwapLogic": [
        {
          "length": 20,
          "start": 8180
        }
      ]
    }
  },
  "deployedLinkReferences": {
    "contracts/abstracts/libs/AtomicSwapMsgValidator.sol": {
      "AtomicSwapMsgValidator": [
        {
          "length": 20,
          "start": 2548
        },
        {
          "length": 20,
          "start": 3479
        },
        {
          "length": 20,
          "start": 9026
        }
      ]
    },
    "contracts/interchain_atomicswap/libs/InterchainAtomicSwapLogic.sol": {
      "InterchainAtomicSwapLogic": [
        {
          "length": 20,
          "start": 8147
        }
      ]
    }
  }
}