{
  "_format": "hh-sol-artifact-1",
  "contractName": "InterchainAtomicSwap",
  "sourceName": "contracts/interchain_atomicswap/InterchainAtomicSwap.sol",
  "abi": [
    {
      "inputs": [
        {
          "internalType": "uint256",
          "name": "provided",
          "type": "uint256"
        },
        {
          "internalType": "uint256",
          "name": "expectedExpiry",
          "type": "uint256"
        }
      ],
      "name": "BidAlreadyExpired",
      "type": "error"
    },
    {
      "inputs": [],
      "name": "BidAlreadyPlaced",
      "type": "error"
    },
    {
      "inputs": [],
      "name": "BidDoesNotExist",
      "type": "error"
    },
    {
      "inputs": [],
      "name": "BidNotAllowed",
      "type": "error"
    },
    {
      "inputs": [
        {
          "internalType": "enum IAtomicSwapBase.BidStatus",
          "name": "status",
          "type": "uint8"
        }
      ],
      "name": "BidNotInPlacedStatus",
      "type": "error"
    },
    {
      "inputs": [
        {
          "internalType": "address",
          "name": "contractAddress",
          "type": "address"
        }
      ],
      "name": "InvalidContractAddress",
      "type": "error"
    },
    {
      "inputs": [
        {
          "internalType": "uint256",
          "name": "provided",
          "type": "uint256"
        },
        {
          "internalType": "uint256",
          "name": "maximum",
          "type": "uint256"
        }
      ],
      "name": "InvalidExpirationTime",
      "type": "error"
    },
    {
      "inputs": [],
      "name": "InvalidInitialization",
      "type": "error"
    },
    {
      "inputs": [],
      "name": "InvalidMinimumBidLimit",
      "type": "error"
    },
    {
      "inputs": [
        {
          "internalType": "uint256",
          "name": "amount",
          "type": "uint256"
        }
      ],
      "name": "MismatchedBidAmount",
      "type": "error"
    },
    {
      "inputs": [],
      "name": "NoBidPlaced",
      "type": "error"
    },
    {
      "inputs": [
        {
          "internalType": "uint256",
          "name": "amount",
          "type": "uint256"
        },
        {
          "internalType": "uint256",
          "name": "allowance",
          "type": "uint256"
        }
      ],
      "name": "NotAllowedTransferAmount",
      "type": "error"
    },
    {
      "inputs": [
        {
          "internalType": "uint256",
          "name": "real",
          "type": "uint256"
        },
        {
          "internalType": "uint256",
          "name": "expected",
          "type": "uint256"
        }
      ],
      "name": "NotEnoughFund",
      "type": "error"
    },
    {
      "inputs": [],
      "name": "NotInitializing",
      "type": "error"
    },
    {
      "inputs": [],
      "name": "OrderAlreadyCompleted",
      "type": "error"
    },
    {
      "inputs": [],
      "name": "OrderAlreadyExists",
      "type": "error"
    },
    {
      "inputs": [],
      "name": "OrderDoesNotExist",
      "type": "error"
    },
    {
      "inputs": [],
      "name": "OrderNotAllowTake",
      "type": "error"
    },
    {
      "inputs": [
        {
          "internalType": "address",
          "name": "owner",
          "type": "address"
        }
      ],
      "name": "OwnableInvalidOwner",
      "type": "error"
    },
    {
      "inputs": [
        {
          "internalType": "address",
          "name": "account",
          "type": "address"
        }
      ],
      "name": "OwnableUnauthorizedAccount",
      "type": "error"
    },
    {
      "inputs": [],
      "name": "ReentrancyGuardReentrantCall",
      "type": "error"
    },
    {
      "inputs": [
        {
          "internalType": "address",
          "name": "caller",
          "type": "address"
        },
        {
          "internalType": "address",
          "name": "expected",
          "type": "address"
        }
      ],
      "name": "UnauthorizedAcceptAction",
      "type": "error"
    },
    {
      "inputs": [],
      "name": "UnauthorizedCancelAction",
      "type": "error"
    },
    {
      "inputs": [],
      "name": "UnauthorizedSender",
      "type": "error"
    },
    {
      "inputs": [],
      "name": "UnauthorizedTakeAction",
      "type": "error"
    },
    {
      "inputs": [],
      "name": "UnsupportedTokenPair",
      "type": "error"
    },
    {
      "anonymous": false,
      "inputs": [
        {
          "indexed": true,
          "internalType": "bytes32",
          "name": "orderID",
          "type": "bytes32"
        },
        {
          "indexed": true,
          "internalType": "address",
          "name": "bidder",
          "type": "address"
        },
        {
          "indexed": true,
          "internalType": "uint256",
          "name": "amount",
          "type": "uint256"
        }
      ],
      "name": "AcceptedBid",
      "type": "event"
    },
    {
      "anonymous": false,
      "inputs": [
        {
          "indexed": true,
          "internalType": "bytes32",
          "name": "id",
          "type": "bytes32"
        }
      ],
      "name": "AtomicSwapOrderCanceled",
      "type": "event"
    },
    {
      "anonymous": false,
      "inputs": [
        {
          "indexed": true,
          "internalType": "bytes32",
          "name": "id",
          "type": "bytes32"
        }
      ],
      "name": "AtomicSwapOrderCreated",
      "type": "event"
    },
    {
      "anonymous": false,
      "inputs": [
        {
          "indexed": true,
          "internalType": "address",
          "name": "maker",
          "type": "address"
        },
        {
          "indexed": true,
          "internalType": "address",
          "name": "taker",
          "type": "address"
        },
        {
          "indexed": true,
          "internalType": "bytes32",
          "name": "id",
          "type": "bytes32"
        }
      ],
      "name": "AtomicSwapOrderTook",
      "type": "event"
    },
    {
      "anonymous": false,
      "inputs": [
        {
          "indexed": true,
          "internalType": "bytes32",
          "name": "orderID",
          "type": "bytes32"
        },
        {
          "indexed": true,
          "internalType": "address",
          "name": "bidder",
          "type": "address"
        }
      ],
      "name": "CanceledBid",
      "type": "event"
    },
    {
      "anonymous": false,
      "inputs": [
        {
          "indexed": false,
          "internalType": "uint64",
          "name": "version",
          "type": "uint64"
        }
      ],
      "name": "Initialized",
      "type": "event"
    },
    {
      "anonymous": false,
      "inputs": [
        {
          "indexed": true,
          "internalType": "address",
          "name": "previousOwner",
          "type": "address"
        },
        {
          "indexed": true,
          "internalType": "address",
          "name": "newOwner",
          "type": "address"
        }
      ],
      "name": "OwnershipTransferred",
      "type": "event"
    },
    {
      "anonymous": false,
      "inputs": [
        {
          "indexed": true,
          "internalType": "bytes32",
          "name": "orderID",
          "type": "bytes32"
        },
        {
          "indexed": true,
          "internalType": "address",
          "name": "bidder",
          "type": "address"
        },
        {
          "indexed": true,
          "internalType": "uint256",
          "name": "amount",
          "type": "uint256"
        }
      ],
      "name": "ReceivedNewBid",
      "type": "event"
    },
    {
      "anonymous": false,
      "inputs": [
        {
          "indexed": true,
          "internalType": "bytes32",
          "name": "orderID",
          "type": "bytes32"
        },
        {
          "indexed": true,
          "internalType": "address",
          "name": "bidder",
          "type": "address"
        },
        {
          "indexed": true,
          "internalType": "uint256",
          "name": "amount",
          "type": "uint256"
        }
      ],
      "name": "UpdatedBid",
      "type": "event"
    },
    {
      "inputs": [
        {
          "components": [
            {
              "internalType": "bytes32",
              "name": "orderID",
              "type": "bytes32"
            },
            {
              "internalType": "address",
              "name": "bidder",
              "type": "address"
            }
          ],
          "internalType": "struct IAtomicSwapBase.AcceptBidMsg",
          "name": "acceptBidMsg",
          "type": "tuple"
        }
      ],
      "name": "acceptBid",
      "outputs": [],
      "stateMutability": "payable",
      "type": "function"
    },
    {
      "inputs": [
        {
          "internalType": "bytes32",
          "name": "",
          "type": "bytes32"
        },
        {
          "internalType": "address",
          "name": "",
          "type": "address"
        }
      ],
      "name": "bids",
      "outputs": [
        {
          "internalType": "uint256",
          "name": "amount",
          "type": "uint256"
        },
        {
          "internalType": "bytes32",
          "name": "order",
          "type": "bytes32"
        },
        {
          "internalType": "enum IAtomicSwapBase.BidStatus",
          "name": "status",
          "type": "uint8"
        },
        {
          "internalType": "address",
          "name": "bidder",
          "type": "address"
        },
        {
          "internalType": "address",
          "name": "bidderReceiver",
          "type": "address"
        },
        {
          "internalType": "uint256",
          "name": "receiveTimestamp",
          "type": "uint256"
        },
        {
          "internalType": "uint256",
          "name": "expireTimestamp",
          "type": "uint256"
        }
      ],
      "stateMutability": "view",
      "type": "function"
    },
    {
      "inputs": [],
      "name": "bridge",
      "outputs": [
        {
          "internalType": "contract ISideLzAppUpgradable",
          "name": "",
          "type": "address"
        }
      ],
      "stateMutability": "view",
      "type": "function"
    },
    {
      "inputs": [],
      "name": "buyerFeeRate",
      "outputs": [
        {
          "internalType": "uint256",
          "name": "",
          "type": "uint256"
        }
      ],
      "stateMutability": "view",
      "type": "function"
    },
    {
      "inputs": [
        {
          "internalType": "bytes",
          "name": "data",
          "type": "bytes"
        }
      ],
      "name": "bytesToAddress",
      "outputs": [
        {
          "internalType": "address",
          "name": "",
          "type": "address"
        }
      ],
      "stateMutability": "pure",
      "type": "function"
    },
    {
      "inputs": [
        {
          "internalType": "bytes32",
          "name": "_orderID",
          "type": "bytes32"
        }
      ],
      "name": "cancelBid",
      "outputs": [],
      "stateMutability": "payable",
      "type": "function"
    },
    {
      "inputs": [
        {
          "components": [
            {
              "internalType": "bytes32",
              "name": "orderID",
              "type": "bytes32"
            }
          ],
          "internalType": "struct IAtomicSwapBase.CancelSwapMsg",
          "name": "cancelswap",
          "type": "tuple"
        }
      ],
      "name": "cancelSwap",
      "outputs": [],
      "stateMutability": "payable",
      "type": "function"
    },
    {
      "inputs": [
        {
          "internalType": "bytes32",
          "name": "",
          "type": "bytes32"
        },
        {
          "internalType": "address",
          "name": "",
          "type": "address"
        }
      ],
      "name": "counteroffers",
      "outputs": [
        {
          "internalType": "uint256",
          "name": "",
          "type": "uint256"
        }
      ],
      "stateMutability": "view",
      "type": "function"
    },
    {
      "inputs": [
        {
          "components": [
            {
              "internalType": "address",
              "name": "admin",
              "type": "address"
            },
            {
              "internalType": "uint16",
              "name": "chainID",
              "type": "uint16"
            },
            {
              "internalType": "address",
              "name": "bridge",
              "type": "address"
            },
            {
              "internalType": "address",
              "name": "treasury",
              "type": "address"
            },
            {
              "internalType": "uint256",
              "name": "sellerFee",
              "type": "uint256"
            },
            {
              "internalType": "uint256",
              "name": "buyerFee",
              "type": "uint256"
            }
          ],
          "internalType": "struct IInterchainAtomicSwap.InitialParams",
          "name": "_params",
          "type": "tuple"
        }
      ],
      "name": "initialize",
      "outputs": [],
      "stateMutability": "nonpayable",
      "type": "function"
    },
    {
      "inputs": [
        {
          "components": [
            {
              "components": [
                {
                  "internalType": "bytes32",
                  "name": "uuid",
                  "type": "bytes32"
                },
                {
                  "components": [
                    {
                      "internalType": "address",
                      "name": "token",
                      "type": "address"
                    },
                    {
                      "internalType": "uint256",
                      "name": "amount",
                      "type": "uint256"
                    }
                  ],
                  "internalType": "struct IAtomicSwapBase.Coin",
                  "name": "sellToken",
                  "type": "tuple"
                },
                {
                  "components": [
                    {
                      "internalType": "address",
                      "name": "token",
                      "type": "address"
                    },
                    {
                      "internalType": "uint256",
                      "name": "amount",
                      "type": "uint256"
                    }
                  ],
                  "internalType": "struct IAtomicSwapBase.Coin",
                  "name": "buyToken",
                  "type": "tuple"
                },
                {
                  "internalType": "address",
                  "name": "maker",
                  "type": "address"
                },
                {
                  "internalType": "address",
                  "name": "desiredTaker",
                  "type": "address"
                },
                {
                  "internalType": "uint256",
                  "name": "minBidAmount",
                  "type": "uint256"
                },
                {
                  "internalType": "uint256",
                  "name": "expireAt",
                  "type": "uint256"
                },
                {
                  "internalType": "bool",
                  "name": "acceptBid",
                  "type": "bool"
                }
              ],
              "internalType": "struct IAtomicSwapBase.MakeSwapMsg",
              "name": "base",
              "type": "tuple"
            },
            {
              "internalType": "address",
              "name": "makerReceiver",
              "type": "address"
            },
            {
              "internalType": "address",
              "name": "desiredTaker",
              "type": "address"
            },
            {
              "internalType": "uint16",
              "name": "dstChainID",
              "type": "uint16"
            }
          ],
          "internalType": "struct IInterchainAtomicSwap.ICMakeSwapMsg",
          "name": "icMakeSwap",
          "type": "tuple"
        }
      ],
      "name": "makeSwap",
      "outputs": [],
      "stateMutability": "payable",
      "type": "function"
    },
    {
      "inputs": [
        {
          "internalType": "uint16",
          "name": "_srcChainID",
          "type": "uint16"
        },
        {
          "internalType": "bytes",
          "name": "_srcAddress",
          "type": "bytes"
        },
        {
          "internalType": "uint64",
          "name": "_nonce",
          "type": "uint64"
        },
        {
          "internalType": "bytes",
          "name": "_payload",
          "type": "bytes"
        }
      ],
      "name": "onReceivePacket",
      "outputs": [],
      "stateMutability": "payable",
      "type": "function"
    },
    {
      "inputs": [],
      "name": "owner",
      "outputs": [
        {
          "internalType": "address",
          "name": "",
          "type": "address"
        }
      ],
      "stateMutability": "view",
      "type": "function"
    },
    {
      "inputs": [
        {
          "components": [
            {
              "internalType": "uint256",
              "name": "bidAmount",
              "type": "uint256"
            },
            {
              "internalType": "address",
              "name": "bidder",
              "type": "address"
            },
            {
              "internalType": "address",
              "name": "bidderReceiver",
              "type": "address"
            },
            {
              "internalType": "bytes32",
              "name": "orderID",
              "type": "bytes32"
            },
            {
              "internalType": "uint256",
              "name": "expireTimestamp",
              "type": "uint256"
            }
          ],
          "internalType": "struct IAtomicSwapBase.PlaceBidMsg",
          "name": "placeBidMsg",
          "type": "tuple"
        }
      ],
      "name": "placeBid",
      "outputs": [],
      "stateMutability": "payable",
      "type": "function"
    },
    {
      "inputs": [],
      "name": "renounceOwnership",
      "outputs": [],
      "stateMutability": "nonpayable",
      "type": "function"
    },
    {
      "inputs": [],
      "name": "sellerFeeRate",
      "outputs": [
        {
          "internalType": "uint256",
          "name": "",
          "type": "uint256"
        }
      ],
      "stateMutability": "view",
      "type": "function"
    },
    {
      "inputs": [
        {
          "internalType": "bytes32",
          "name": "",
          "type": "bytes32"
        }
      ],
      "name": "swapOrder",
      "outputs": [
        {
          "internalType": "bytes32",
          "name": "id",
          "type": "bytes32"
        },
        {
          "internalType": "enum IAtomicSwapBase.OrderStatus",
          "name": "status",
          "type": "uint8"
        },
        {
          "internalType": "address",
          "name": "maker",
          "type": "address"
        },
        {
          "components": [
            {
              "internalType": "address",
              "name": "token",
              "type": "address"
            },
            {
              "internalType": "uint256",
              "name": "amount",
              "type": "uint256"
            }
          ],
          "internalType": "struct IAtomicSwapBase.Coin",
          "name": "sellToken",
          "type": "tuple"
        },
        {
          "internalType": "address",
          "name": "taker",
          "type": "address"
        },
        {
          "components": [
            {
              "internalType": "address",
              "name": "token",
              "type": "address"
            },
            {
              "internalType": "uint256",
              "name": "amount",
              "type": "uint256"
            }
          ],
          "internalType": "struct IAtomicSwapBase.Coin",
          "name": "buyToken",
          "type": "tuple"
        },
        {
          "internalType": "uint256",
          "name": "minBidAmount",
          "type": "uint256"
        },
        {
          "internalType": "uint256",
          "name": "createdAt",
          "type": "uint256"
        },
        {
          "internalType": "uint256",
          "name": "canceledAt",
          "type": "uint256"
        },
        {
          "internalType": "uint256",
          "name": "completedAt",
          "type": "uint256"
        },
        {
          "internalType": "uint256",
          "name": "expiredAt",
          "type": "uint256"
        },
        {
          "internalType": "bool",
          "name": "acceptBid",
          "type": "bool"
        }
      ],
      "stateMutability": "view",
      "type": "function"
    },
    {
      "inputs": [
        {
          "internalType": "bytes32",
          "name": "",
          "type": "bytes32"
        }
      ],
      "name": "swapOrderITCParams",
      "outputs": [
        {
          "internalType": "enum IInterchainAtomicSwap.Side",
          "name": "side",
          "type": "uint8"
        },
        {
          "internalType": "address",
          "name": "makerReceiver",
          "type": "address"
        },
        {
          "internalType": "address",
          "name": "takerReceiver",
          "type": "address"
        },
        {
          "internalType": "uint16",
          "name": "srcChainID",
          "type": "uint16"
        },
        {
          "internalType": "uint16",
          "name": "dstChainID",
          "type": "uint16"
        }
      ],
      "stateMutability": "view",
      "type": "function"
    },
    {
      "inputs": [
        {
          "components": [
            {
              "internalType": "bytes32",
              "name": "orderID",
              "type": "bytes32"
            },
            {
              "internalType": "address",
              "name": "takerReceiver",
              "type": "address"
            }
          ],
          "internalType": "struct IAtomicSwapBase.TakeSwapMsg",
          "name": "takeswap",
          "type": "tuple"
        }
      ],
      "name": "takeSwap",
      "outputs": [],
      "stateMutability": "payable",
      "type": "function"
    },
    {
      "inputs": [
        {
          "internalType": "address",
          "name": "newOwner",
          "type": "address"
        }
      ],
      "name": "transferOwnership",
      "outputs": [],
      "stateMutability": "nonpayable",
      "type": "function"
    },
    {
      "inputs": [
        {
          "components": [
            {
              "internalType": "bytes32",
              "name": "orderID",
              "type": "bytes32"
            },
            {
              "internalType": "address",
              "name": "bidder",
              "type": "address"
            },
            {
              "internalType": "uint256",
              "name": "addition",
              "type": "uint256"
            }
          ],
          "internalType": "struct IAtomicSwapBase.UpdateBidMsg",
          "name": "updateBidMsg",
          "type": "tuple"
        }
      ],
      "name": "updateBid",
      "outputs": [],
      "stateMutability": "payable",
      "type": "function"
    }
  ],
  "bytecode": "0x608060405234801561001057600080fd5b5061589d80620000216000396000f3fe60806040526004361061011f5760003560e01c80636220b2e5116100a0578063a743a3d011610064578063a743a3d01461036a578063df7cec28146103a7578063e78cea92146103c3578063f2fde38b146103ee578063fca6caa1146104175761011f565b80636220b2e51461027957806366e929bf146102ba578063715018a6146102fd57806389f68190146103145780638da5cb5b1461033f5761011f565b806342526e4e116100e757806342526e4e146101b057806352c95b2a146101ed57806353f10c80146102095780635436a65f14610234578063593333f0146102505761011f565b8063022066611461012457806306be619c1461014057806337be00221461015c5780633d9bd2fc1461017857806340d7185c14610194575b600080fd5b61013e60048036038101906101399190613915565b61045f565b005b61015a60048036038101906101559190613961565b610995565b005b610176600480360381019061017191906139ad565b610e29565b005b610192600480360381019061018d91906139f9565b611211565b005b6101ae60048036038101906101a99190613c46565b611687565b005b3480156101bc57600080fd5b506101d760048036038101906101d29190613cea565b611da3565b6040516101e49190613d74565b60405180910390f35b61020760048036038101906102029190613dae565b611db9565b005b34801561021557600080fd5b5061021e6121e9565b60405161022b9190613df4565b60405180910390f35b61024e60048036038101906102499190613e2f565b6121ef565b005b34801561025c57600080fd5b5061027760048036038101906102729190613e7c565b6127aa565b005b34801561028557600080fd5b506102a0600480360381019061029b9190613edf565b612ab3565b6040516102b1959493929190613f92565b60405180910390f35b3480156102c657600080fd5b506102e160048036038101906102dc9190614011565b612b52565b6040516102f497969594939291906140a8565b60405180910390f35b34801561030957600080fd5b50610312612bee565b005b34801561032057600080fd5b50610329612c02565b6040516103369190613df4565b60405180910390f35b34801561034b57600080fd5b50610354612c08565b6040516103619190613d74565b60405180910390f35b34801561037657600080fd5b50610391600480360381019061038c9190614011565b612c40565b60405161039e9190613df4565b60405180910390f35b6103c160048036038101906103bc9190613edf565b612c65565b005b3480156103cf57600080fd5b506103d8613114565b6040516103e59190614176565b60405180910390f35b3480156103fa57600080fd5b5061041560048036038101906104109190614191565b61313a565b005b34801561042357600080fd5b5061043e60048036038101906104399190613edf565b6131c0565b6040516104569c9b9a9998979695949392919061426e565b60405180910390f35b61046761334e565b80600001356000801b60008083815260200190815260200160002060000154036104bd576040517f5dcaf2d700000000000000000000000000000000000000000000000000000000815260040160405180910390fd5b60008260000135905060008360200160208101906104db9190614191565b9050600073ffffffffffffffffffffffffffffffffffffffff163373ffffffffffffffffffffffffffffffffffffffff1603610543576040517f0809490800000000000000000000000000000000000000000000000000000000815260040160405180910390fd5b6000806000848152602001908152602001600020905080600c0160009054906101000a900460ff166105a1576040517f3c24fafc00000000000000000000000000000000000000000000000000000000815260040160405180910390fd5b3373ffffffffffffffffffffffffffffffffffffffff168160010160019054906101000a900473ffffffffffffffffffffffffffffffffffffffff1673ffffffffffffffffffffffffffffffffffffffff161461065b578060010160019054906101000a900473ffffffffffffffffffffffffffffffffffffffff16336040517f0500cb4c00000000000000000000000000000000000000000000000000000000815260040161065292919061432a565b60405180910390fd5b60006001600085815260200190815260200160002060008473ffffffffffffffffffffffffffffffffffffffff1673ffffffffffffffffffffffffffffffffffffffff16815260200190815260200160002090506002808111156106c2576106c1613f0c565b5b8160020160009054906101000a900460ff1660028111156106e6576106e5613f0c565b5b14610739578060020160009054906101000a900460ff166040517f64b08c060000000000000000000000000000000000000000000000000000000081526004016107309190614353565b60405180910390fd5b4281600501541015610788578060050154426040517f1d35563900000000000000000000000000000000000000000000000000000000815260040161077f92919061436e565b60405180910390fd5b60018160020160006101000a81548160ff021916908360028111156107b0576107af613f0c565b5b021790555060008260020190508060000160009054906101000a900473ffffffffffffffffffffffffffffffffffffffff1673ffffffffffffffffffffffffffffffffffffffff1673__$a132ddf224bcaf7b77631cdf10c807360d$__6343b03b5d90918460030160009054906101000a900473ffffffffffffffffffffffffffffffffffffffff1684600101546004546103e8600260009054906101000a900473ffffffffffffffffffffffffffffffffffffffff166040518763ffffffff1660e01b8152600401610888969594939291906143b5565b60006040518083038186803b1580156108a057600080fd5b505af41580156108b4573d6000803e3d6000fd5b505050506000806005896040516020016108d093929190614522565b6040516020818303038152906040529050600660009054906101000a900473ffffffffffffffffffffffffffffffffffffffff1673ffffffffffffffffffffffffffffffffffffffff1663e4a8b2f934600860009054906101000a900461ffff1633856040518563ffffffff1660e01b8152600401610951939291906145f9565b6000604051808303818588803b15801561096a57600080fd5b505af115801561097e573d6000803e3d6000fd5b5050505050505050505050506109926133a5565b50565b61099d61334e565b80600001356000801b60008083815260200190815260200160002060000154036109f3576040517f5dcaf2d700000000000000000000000000000000000000000000000000000000815260040160405180910390fd5b60008060008460000135815260200190815260200160002090506000600760008560000135815260200190815260200160002060000160019054906101000a900473ffffffffffffffffffffffffffffffffffffffff16905083803603810190610a5d919061468c565b73__$5b078b893398f17544ec956d77642311f9$__632dbbbec0909160006040518363ffffffff1660e01b8152600401610a9892919061470d565b60006040518083038186803b158015610ab057600080fd5b505af4158015610ac4573d6000803e3d6000fd5b5050505060028260010160006101000a81548160ff02191690836003811115610af057610aef613f0c565b5b02179055504282600a01819055506000349050600073ffffffffffffffffffffffffffffffffffffffff168360050160000160009054906101000a900473ffffffffffffffffffffffffffffffffffffffff1673ffffffffffffffffffffffffffffffffffffffff1603610bc85782600501600101543411610bb2573483600501600101546040517f04157bb4000000000000000000000000000000000000000000000000000000008152600401610ba992919061436e565b60405180910390fd5b826005016001015434610bc59190614765565b90505b8260050160000160009054906101000a900473ffffffffffffffffffffffffffffffffffffffff1673ffffffffffffffffffffffffffffffffffffffff1673__$a132ddf224bcaf7b77631cdf10c807360d$__6311f1248b9091338587600501600101546003546103e8600260009054906101000a900473ffffffffffffffffffffffffffffffffffffffff166040518863ffffffff1660e01b8152600401610c779796959493929190614799565b60006040518083038186803b158015610c8f57600080fd5b505af4158015610ca3573d6000803e3d6000fd5b50505050600080600187604051602001610cbf93929190614847565b6040516020818303038152906040529050600660009054906101000a900473ffffffffffffffffffffffffffffffffffffffff1673ffffffffffffffffffffffffffffffffffffffff1663e4a8b2f983600860009054906101000a900461ffff1633856040518563ffffffff1660e01b8152600401610d40939291906145f9565b6000604051808303818588803b158015610d5957600080fd5b505af1158015610d6d573d6000803e3d6000fd5b505050505085600001358460040160009054906101000a900473ffffffffffffffffffffffffffffffffffffffff1673ffffffffffffffffffffffffffffffffffffffff168560010160019054906101000a900473ffffffffffffffffffffffffffffffffffffffff1673ffffffffffffffffffffffffffffffffffffffff167f6bf7309f141d1b44e414f1fc04d98491cd0acf98f0f1e5ad885d0a7ce164e6fa60405160405180910390a45050505050610e266133a5565b50565b610e3161334e565b80600001356000801b6000808381526020019081526020016000206000015403610e87576040517f5dcaf2d700000000000000000000000000000000000000000000000000000000815260040160405180910390fd5b60008060008460000135815260200190815260200160002090508073__$5b078b893398f17544ec956d77642311f9$__639efdfeb190916040518263ffffffff1660e01b8152600401610eda9190614885565b60006040518083038186803b158015610ef257600080fd5b505af4158015610f06573d6000803e3d6000fd5b5050505060018160010160006101000a81548160ff02191690836003811115610f3257610f31613f0c565b5b0217905550600073ffffffffffffffffffffffffffffffffffffffff168160020160000160009054906101000a900473ffffffffffffffffffffffffffffffffffffffff1673ffffffffffffffffffffffffffffffffffffffff1603610fe5573373ffffffffffffffffffffffffffffffffffffffff166108fc82600501600101549081150290604051600060405180830381858888f19350505050158015610fdf573d6000803e3d6000fd5b50611093565b8060020160000160009054906101000a900473ffffffffffffffffffffffffffffffffffffffff1673ffffffffffffffffffffffffffffffffffffffff1663a9059cbb3383600501600101546040518363ffffffff1660e01b815260040161104e9291906148a0565b6020604051808303816000875af115801561106d573d6000803e3d6000fd5b505050506040513d601f19601f8201168201806040525081019061109191906148f5565b505b600080600285600001356040516020016110af93929190614922565b6040516020818303038152906040529050600073__$a132ddf224bcaf7b77631cdf10c807360d$__63a2040cee909186600001356040518363ffffffff1660e01b8152600401611100929190614968565b60006040518083038186803b15801561111857600080fd5b505af415801561112c573d6000803e3d6000fd5b50505050600660009054906101000a900473ffffffffffffffffffffffffffffffffffffffff1673ffffffffffffffffffffffffffffffffffffffff1663e4a8b2f934600860009054906101000a900461ffff1633856040518563ffffffff1660e01b81526004016111a0939291906145f9565b6000604051808303818588803b1580156111b957600080fd5b505af11580156111cd573d6000803e3d6000fd5b505050505083600001357ff68aeec8f55d67a9b2cf2b6caea31e11f2c14e09da250170575d63911f26aa6e60405160405180910390a250505061120e6133a5565b50565b61121961334e565b80600001356000801b600080838152602001908152602001600020600001540361126f576040517f5dcaf2d700000000000000000000000000000000000000000000000000000000815260040160405180910390fd5b60008260000135905060008360400135905060006001600084815260200190815260200160002060003373ffffffffffffffffffffffffffffffffffffffff1673ffffffffffffffffffffffffffffffffffffffff1681526020019081526020016000209050600073ffffffffffffffffffffffffffffffffffffffff168160020160019054906101000a900473ffffffffffffffffffffffffffffffffffffffff1673ffffffffffffffffffffffffffffffffffffffff160361135f576040517f0a0c23ee00000000000000000000000000000000000000000000000000000000815260040160405180910390fd5b60008060008581526020019081526020016000209050600083036113ba57826040517fd9cf167e0000000000000000000000000000000000000000000000000000000081526004016113b19190613df4565b60405180910390fd5b828260000160008282546113ce9190614991565b925050819055508060050160010154826000015411156114295781600001546040517fd9cf167e0000000000000000000000000000000000000000000000000000000081526004016114209190613df4565b60405180910390fd5b60008160050190506000349050600073ffffffffffffffffffffffffffffffffffffffff168260000160009054906101000a900473ffffffffffffffffffffffffffffffffffffffff1673ffffffffffffffffffffffffffffffffffffffff16146114e4576114df3330878560000160009054906101000a900473ffffffffffffffffffffffffffffffffffffffff1673ffffffffffffffffffffffffffffffffffffffff166133be909392919063ffffffff16565b611538565b8434101561152957346040517fd9cf167e0000000000000000000000000000000000000000000000000000000081526004016115209190613df4565b60405180910390fd5b84816115359190614765565b90505b60008060048a60405160200161155093929190614a62565b6040516020818303038152906040529050600660009054906101000a900473ffffffffffffffffffffffffffffffffffffffff1673ffffffffffffffffffffffffffffffffffffffff1663e4a8b2f983600860009054906101000a900461ffff1633856040518563ffffffff1660e01b81526004016115d1939291906145f9565b6000604051808303818588803b1580156115ea57600080fd5b505af11580156115fe573d6000803e3d6000fd5b505050505084600001548560020160019054906101000a900473ffffffffffffffffffffffffffffffffffffffff1673ffffffffffffffffffffffffffffffffffffffff168a600001357f7786094a5edc61a0463300b9b97a1b22d338bc800ed33404ba9a3888b71de0fc60405160405180910390a450505050505050506116846133a5565b50565b6000828260009060209261169d93929190614aa3565b8101906116aa9190614b03565b9050600060068111156116c0576116bf613f0c565b5b8160068111156116d3576116d2613f0c565b5b0361189057600083836020906040926116ee93929190614aa3565b906116f99190614b48565b905060008484604090809261171093929190614aa3565b81019061171d9190614c98565b905081600080848152602001908152602001600020600001819055508060600151600080848152602001908152602001600020600c0160006101000a81548160ff021916908315150217905550806000015160008084815260200190815260200160002060050160008201518160000160006101000a81548173ffffffffffffffffffffffffffffffffffffffff021916908373ffffffffffffffffffffffffffffffffffffffff16021790555060208201518160010155905050806040015160008084815260200190815260200160002060040160006101000a81548173ffffffffffffffffffffffffffffffffffffffff021916908373ffffffffffffffffffffffffffffffffffffffff16021790555080602001516007600084815260200190815260200160002060000160016101000a81548173ffffffffffffffffffffffffffffffffffffffff021916908373ffffffffffffffffffffffffffffffffffffffff1602179055505050611d9b565b600160068111156118a4576118a3613f0c565b5b8160068111156118b7576118b6613f0c565b5b03611928576000838360209080926118d193929190614aa3565b8101906118de919061468c565b905060026000808360000151815260200190815260200160002060010160006101000a81548160ff0219169083600381111561191d5761191c613f0c565b5b021790555050611d9a565b6002600681111561193c5761193b613f0c565b5b81600681111561194f5761194e613f0c565b5b036119e85760008383602090809261196993929190614aa3565b906119749190614b48565b9050600073__$a132ddf224bcaf7b77631cdf10c807360d$__63a2040cee9091836040518363ffffffff1660e01b81526004016119b2929190614968565b60006040518083038186803b1580156119ca57600080fd5b505af41580156119de573d6000803e3d6000fd5b5050505050611d99565b600360068111156119fc576119fb613f0c565b5b816006811115611a0f57611a0e613f0c565b5b03611aaa57600083836020908092611a2993929190614aa3565b810190611a369190614d51565b9050600173__$a132ddf224bcaf7b77631cdf10c807360d$__63cc76f9319091836040518363ffffffff1660e01b8152600401611a74929190614dfc565b60006040518083038186803b158015611a8c57600080fd5b505af4158015611aa0573d6000803e3d6000fd5b5050505050611d98565b60056006811115611abe57611abd613f0c565b5b816006811115611ad157611ad0613f0c565b5b03611cbc57600083836020908092611aeb93929190614aa3565b810190611af89190614e75565b90506000816000015190506000826020015190506000806000848152602001908152602001600020600501905060006007600085815260200190815260200160002060000160019054906101000a900473ffffffffffffffffffffffffffffffffffffffff1690508160000160009054906101000a900473ffffffffffffffffffffffffffffffffffffffff1673ffffffffffffffffffffffffffffffffffffffff1673__$a132ddf224bcaf7b77631cdf10c807360d$__6343b03b5d90918385600101546003546103e8600260009054906101000a900473ffffffffffffffffffffffffffffffffffffffff166040518763ffffffff1660e01b8152600401611c07969594939291906143b5565b60006040518083038186803b158015611c1f57600080fd5b505af4158015611c33573d6000803e3d6000fd5b50505050600180600086815260200190815260200160002060008573ffffffffffffffffffffffffffffffffffffffff1673ffffffffffffffffffffffffffffffffffffffff16815260200190815260200160002060020160006101000a81548160ff02191690836002811115611cad57611cac613f0c565b5b02179055505050505050611d97565b60046006811115611cd057611ccf613f0c565b5b816006811115611ce357611ce2613f0c565b5b03611d9657600083836020908092611cfd93929190614aa3565b810190611d0a9190614f06565b905060008160000151905060008260200151905060006001600084815260200190815260200160002060008373ffffffffffffffffffffffffffffffffffffffff1673ffffffffffffffffffffffffffffffffffffffff16815260200190815260200160002090508360400151816000016000828254611d8a9190614991565b92505081905550505050505b5b5b5b5b5b505050505050565b600081611daf90614f84565b60601c9050919050565b611dc161334e565b80606001356000801b6000808381526020019081526020016000206000015403611e17576040517f5dcaf2d700000000000000000000000000000000000000000000000000000000815260040160405180910390fd5b60008260600135905060008360000135905060006001600084815260200190815260200160002060003373ffffffffffffffffffffffffffffffffffffffff1673ffffffffffffffffffffffffffffffffffffffff1681526020019081526020016000209050600073ffffffffffffffffffffffffffffffffffffffff168160020160019054906101000a900473ffffffffffffffffffffffffffffffffffffffff1673ffffffffffffffffffffffffffffffffffffffff1614611f07576040517fb8cee9f000000000000000000000000000000000000000000000000000000000815260040160405180910390fd5b60008060008760600135815260200190815260200160002090508060070154831015611f6a57826040517fd9cf167e000000000000000000000000000000000000000000000000000000008152600401611f619190613df4565b60405180910390fd5b6000826000015484611f7c9190614765565b9050600080600087815260200190815260200160002060050190506000349050600073ffffffffffffffffffffffffffffffffffffffff168260000160009054906101000a900473ffffffffffffffffffffffffffffffffffffffff1673ffffffffffffffffffffffffffffffffffffffff161461204a576120453330858560000160009054906101000a900473ffffffffffffffffffffffffffffffffffffffff1673ffffffffffffffffffffffffffffffffffffffff166133be909392919063ffffffff16565b61209e565b8234101561208f57346040517fd9cf167e0000000000000000000000000000000000000000000000000000000081526004016120869190613df4565b60405180910390fd5b828161209b9190614765565b90505b600173__$a132ddf224bcaf7b77631cdf10c807360d$__63cc76f93190918b6040518363ffffffff1660e01b81526004016120da92919061507b565b60006040518083038186803b1580156120f257600080fd5b505af4158015612106573d6000803e3d6000fd5b5050505060008060038b60405160200161212293929190615134565b6040516020818303038152906040529050600660009054906101000a900473ffffffffffffffffffffffffffffffffffffffff1673ffffffffffffffffffffffffffffffffffffffff1663e4a8b2f983600860009054906101000a900461ffff1633856040518563ffffffff1660e01b81526004016121a3939291906145f9565b6000604051808303818588803b1580156121bc57600080fd5b505af11580156121d0573d6000803e3d6000fd5b50505050505050505050505050506121e66133a5565b50565b60045481565b6121f761334e565b60008160000180360381019061220d9190615237565b90508073__$5b078b893398f17544ec956d77642311f9$__6357fc12b090916040518263ffffffff1660e01b81526004016122489190615347565b60006040518083038186803b15801561226057600080fd5b505af4158015612274573d6000803e3d6000fd5b505050506000816000015173__$a132ddf224bcaf7b77631cdf10c807360d$__63d81ab44f9091306040518363ffffffff1660e01b81526004016122b9929190615363565b602060405180830381865af41580156122d6573d6000803e3d6000fd5b505050506040513d601f19601f820116820180604052508101906122fa91906153a1565b9050600073__$a132ddf224bcaf7b77631cdf10c807360d$__632296d7e090918484336040518563ffffffff1660e01b815260040161233c94939291906153ce565b60006040518083038186803b15801561235457600080fd5b505af4158015612368573d6000803e3d6000fd5b5050505060006040518060a0016040528060018081111561238c5761238b613f0c565b5b8152602001856101400160208101906123a59190614191565b73ffffffffffffffffffffffffffffffffffffffff168152602001600073ffffffffffffffffffffffffffffffffffffffff168152602001600860009054906101000a900461ffff1661ffff1681526020018561018001602081019061240b9190615416565b61ffff168152509050806007600084815260200190815260200160002060008201518160000160006101000a81548160ff0219169083600181111561245357612452613f0c565b5b021790555060208201518160000160016101000a81548173ffffffffffffffffffffffffffffffffffffffff021916908373ffffffffffffffffffffffffffffffffffffffff16021790555060408201518160010160006101000a81548173ffffffffffffffffffffffffffffffffffffffff021916908373ffffffffffffffffffffffffffffffffffffffff16021790555060608201518160010160146101000a81548161ffff021916908361ffff16021790555060808201518160010160166101000a81548161ffff021916908361ffff1602179055509050506000349050600073ffffffffffffffffffffffffffffffffffffffff1684602001516000015173ffffffffffffffffffffffffffffffffffffffff16036125d6578360200151602001513410156125bb576040517f08c379a00000000000000000000000000000000000000000000000000000000081526004016125b2906154a0565b60405180910390fd5b836020015160200151816125cf9190614765565b9050612614565b612613333086602001516020015187602001516000015173ffffffffffffffffffffffffffffffffffffffff166133be909392919063ffffffff16565b5b60006040518060a00160405280866040015181526020018761014001602081019061263f9190614191565b73ffffffffffffffffffffffffffffffffffffffff1681526020018761016001602081019061266e9190614191565b73ffffffffffffffffffffffffffffffffffffffff1681526020018660e00151151581526020018660c001518152509050600080600086846040516020016126b99493929190615566565b6040516020818303038152906040529050600660009054906101000a900473ffffffffffffffffffffffffffffffffffffffff1673ffffffffffffffffffffffffffffffffffffffff1663e4a8b2f984600860009054906101000a900461ffff1633856040518563ffffffff1660e01b815260040161273a939291906145f9565b6000604051808303818588803b15801561275357600080fd5b505af1158015612767573d6000803e3d6000fd5b5050505050847f8b82d32987f9a4ae1bc7868a6f104edb711227ec3c9fccb0416a14fcc29bec5a60405160405180910390a25050505050506127a76133a5565b50565b60006127b4613551565b905060008160000160089054906101000a900460ff1615905060008260000160009054906101000a900467ffffffffffffffff1690506000808267ffffffffffffffff161480156128025750825b9050600060018367ffffffffffffffff16148015612837575060003073ffffffffffffffffffffffffffffffffffffffff163b145b905081158015612845575080155b1561287c576040517ff92ee8a900000000000000000000000000000000000000000000000000000000815260040160405180910390fd5b60018560000160006101000a81548167ffffffffffffffff021916908367ffffffffffffffff16021790555083156128cc5760018560000160086101000a81548160ff0219169083151502179055505b6128e78660000160208101906128e29190614191565b613579565b858036038101906128f8919061564c565b73__$6f3146d13761fe4efe0c3dc8c4b43c2873$__63cf5bfc7c90916103e86040518363ffffffff1660e01b8152600401612934929190615703565b60006040518083038186803b15801561294c57600080fd5b505af4158015612960573d6000803e3d6000fd5b5050505085608001356003819055508560a0013560048190555085606001602081019061298d9190614191565b600260006101000a81548173ffffffffffffffffffffffffffffffffffffffff021916908373ffffffffffffffffffffffffffffffffffffffff1602179055508560200160208101906129e09190615416565b600860006101000a81548161ffff021916908361ffff160217905550856040016020810190612a0f9190614191565b600660006101000a81548173ffffffffffffffffffffffffffffffffffffffff021916908373ffffffffffffffffffffffffffffffffffffffff1602179055508315612aab5760008560000160086101000a81548160ff0219169083151502179055507fc7f505b2f371ae2175ee4913f4499e1f2633a7b5936321eed1cdaeb6115181d26001604051612aa29190615767565b60405180910390a15b505050505050565b60076020528060005260406000206000915090508060000160009054906101000a900460ff16908060000160019054906101000a900473ffffffffffffffffffffffffffffffffffffffff16908060010160009054906101000a900473ffffffffffffffffffffffffffffffffffffffff16908060010160149054906101000a900461ffff16908060010160169054906101000a900461ffff16905085565b6001602052816000526040600020602052806000526040600020600091509150508060000154908060010154908060020160009054906101000a900460ff16908060020160019054906101000a900473ffffffffffffffffffffffffffffffffffffffff16908060030160009054906101000a900473ffffffffffffffffffffffffffffffffffffffff16908060040154908060050154905087565b612bf66135ff565b612c006000613686565b565b60035481565b600080612c1361375d565b90508060000160009054906101000a900473ffffffffffffffffffffffffffffffffffffffff1691505090565b6005602052816000526040600020602052806000526040600020600091509150505481565b612c6d61334e565b806000801b6000808381526020019081526020016000206000015403612cbf576040517f5dcaf2d700000000000000000000000000000000000000000000000000000000815260040160405180910390fd5b60006001600084815260200190815260200160002060003373ffffffffffffffffffffffffffffffffffffffff1673ffffffffffffffffffffffffffffffffffffffff1681526020019081526020016000209050600073ffffffffffffffffffffffffffffffffffffffff168160020160019054906101000a900473ffffffffffffffffffffffffffffffffffffffff1673ffffffffffffffffffffffffffffffffffffffff1603612d9d576040517fac96c2bd00000000000000000000000000000000000000000000000000000000815260040160405180910390fd5b3373ffffffffffffffffffffffffffffffffffffffff168160020160019054906101000a900473ffffffffffffffffffffffffffffffffffffffff1673ffffffffffffffffffffffffffffffffffffffff1614612e26576040517f978f045600000000000000000000000000000000000000000000000000000000815260040160405180910390fd5b600280811115612e3957612e38613f0c565b5b8160020160009054906101000a900460ff166002811115612e5d57612e5c613f0c565b5b14612eb0578060020160009054906101000a900460ff166040517f64b08c06000000000000000000000000000000000000000000000000000000008152600401612ea79190614353565b60405180910390fd5b60008160020160006101000a81548160ff02191690836002811115612ed857612ed7613f0c565b5b021790555060008060008581526020019081526020016000206005019050600073ffffffffffffffffffffffffffffffffffffffff168160000160009054906101000a900473ffffffffffffffffffffffffffffffffffffffff1673ffffffffffffffffffffffffffffffffffffffff1614612fca57612fc58260020160019054906101000a900473ffffffffffffffffffffffffffffffffffffffff1683600001548360000160009054906101000a900473ffffffffffffffffffffffffffffffffffffffff1673ffffffffffffffffffffffffffffffffffffffff166137859092919063ffffffff16565b61303a565b8160020160019054906101000a900473ffffffffffffffffffffffffffffffffffffffff1673ffffffffffffffffffffffffffffffffffffffff166108fc83600001549081150290604051600060405180830381858888f19350505050158015613038573d6000803e3d6000fd5b505b60008060058660405160200161305293929190614922565b6040516020818303038152906040529050600660009054906101000a900473ffffffffffffffffffffffffffffffffffffffff1673ffffffffffffffffffffffffffffffffffffffff1663e4a8b2f934600860009054906101000a900461ffff1633856040518563ffffffff1660e01b81526004016130d3939291906145f9565b6000604051808303818588803b1580156130ec57600080fd5b505af1158015613100573d6000803e3d6000fd5b5050505050505050506131116133a5565b50565b600660009054906101000a900473ffffffffffffffffffffffffffffffffffffffff1681565b6131426135ff565b600073ffffffffffffffffffffffffffffffffffffffff168173ffffffffffffffffffffffffffffffffffffffff16036131b45760006040517f1e4fbdf70000000000000000000000000000000000000000000000000000000081526004016131ab9190613d74565b60405180910390fd5b6131bd81613686565b50565b60006020528060005260406000206000915090508060000154908060010160009054906101000a900460ff16908060010160019054906101000a900473ffffffffffffffffffffffffffffffffffffffff1690806002016040518060400160405290816000820160009054906101000a900473ffffffffffffffffffffffffffffffffffffffff1673ffffffffffffffffffffffffffffffffffffffff1673ffffffffffffffffffffffffffffffffffffffff168152602001600182015481525050908060040160009054906101000a900473ffffffffffffffffffffffffffffffffffffffff1690806005016040518060400160405290816000820160009054906101000a900473ffffffffffffffffffffffffffffffffffffffff1673ffffffffffffffffffffffffffffffffffffffff1673ffffffffffffffffffffffffffffffffffffffff1681526020016001820154815250509080600701549080600801549080600901549080600a01549080600b01549080600c0160009054906101000a900460ff1690508c565b600061335861384d565b90506002816000015403613398576040517f3ee5aeb500000000000000000000000000000000000000000000000000000000815260040160405180910390fd5b6002816000018190555050565b60006133af61384d565b90506001816000018190555050565b600084905060008173ffffffffffffffffffffffffffffffffffffffff1663dd62ed3e86306040518363ffffffff1660e01b815260040161340092919061432a565b602060405180830381865afa15801561341d573d6000803e3d6000fd5b505050506040513d601f19601f820116820180604052508101906134419190615797565b90508281101561348a5780836040517f7c8db62f00000000000000000000000000000000000000000000000000000000815260040161348192919061436e565b60405180910390fd5b8173ffffffffffffffffffffffffffffffffffffffff166323b872dd8686866040518463ffffffff1660e01b81526004016134c7939291906157c4565b6020604051808303816000875af11580156134e6573d6000803e3d6000fd5b505050506040513d601f19601f8201168201806040525081019061350a91906148f5565b613549576040517f08c379a000000000000000000000000000000000000000000000000000000000815260040161354090615847565b60405180910390fd5b505050505050565b60007ff0c57e16840df040f15088dc2f81fe391c3923bec73e23a9662efc9c229c6a00905090565b613581613875565b600073ffffffffffffffffffffffffffffffffffffffff168173ffffffffffffffffffffffffffffffffffffffff16036135f35760006040517f1e4fbdf70000000000000000000000000000000000000000000000000000000081526004016135ea9190613d74565b60405180910390fd5b6135fc81613686565b50565b6136076138b5565b73ffffffffffffffffffffffffffffffffffffffff16613625612c08565b73ffffffffffffffffffffffffffffffffffffffff1614613684576136486138b5565b6040517f118cdaa700000000000000000000000000000000000000000000000000000000815260040161367b9190613d74565b60405180910390fd5b565b600061369061375d565b905060008160000160009054906101000a900473ffffffffffffffffffffffffffffffffffffffff169050828260000160006101000a81548173ffffffffffffffffffffffffffffffffffffffff021916908373ffffffffffffffffffffffffffffffffffffffff1602179055508273ffffffffffffffffffffffffffffffffffffffff168173ffffffffffffffffffffffffffffffffffffffff167f8be0079c531659141344cd1fd0a4f28419497f9722a3daafe3b4186f6b6457e060405160405180910390a3505050565b60007f9016d09d72d40fdae2fd8ceac6b6234c7706214fd39c1cd1e609a0528c199300905090565b60008390508073ffffffffffffffffffffffffffffffffffffffff1663a9059cbb84846040518363ffffffff1660e01b81526004016137c59291906148a0565b6020604051808303816000875af11580156137e4573d6000803e3d6000fd5b505050506040513d601f19601f8201168201806040525081019061380891906148f5565b613847576040517f08c379a000000000000000000000000000000000000000000000000000000000815260040161383e90615847565b60405180910390fd5b50505050565b60007f9b779b17422d0df92223018b32b4d1fa46e071723d6817e2486d003becc55f00905090565b61387d6138bd565b6138b3576040517fd7e6bcf800000000000000000000000000000000000000000000000000000000815260040160405180910390fd5b565b600033905090565b60006138c7613551565b60000160089054906101000a900460ff16905090565b6000604051905090565b600080fd5b600080fd5b600080fd5b60006040828403121561390c5761390b6138f1565b5b81905092915050565b60006040828403121561392b5761392a6138e7565b5b6000613939848285016138f6565b91505092915050565b600060408284031215613958576139576138f1565b5b81905092915050565b600060408284031215613977576139766138e7565b5b600061398584828501613942565b91505092915050565b6000602082840312156139a4576139a36138f1565b5b81905092915050565b6000602082840312156139c3576139c26138e7565b5b60006139d18482850161398e565b91505092915050565b6000606082840312156139f0576139ef6138f1565b5b81905092915050565b600060608284031215613a0f57613a0e6138e7565b5b6000613a1d848285016139da565b91505092915050565b600061ffff82169050919050565b613a3d81613a26565b8114613a4857600080fd5b50565b600081359050613a5a81613a34565b92915050565b600080fd5b600080fd5b6000601f19601f8301169050919050565b7f4e487b7100000000000000000000000000000000000000000000000000000000600052604160045260246000fd5b613ab382613a6a565b810181811067ffffffffffffffff82111715613ad257613ad1613a7b565b5b80604052505050565b6000613ae56138dd565b9050613af18282613aaa565b919050565b600067ffffffffffffffff821115613b1157613b10613a7b565b5b613b1a82613a6a565b9050602081019050919050565b82818337600083830152505050565b6000613b49613b4484613af6565b613adb565b905082815260208101848484011115613b6557613b64613a65565b5b613b70848285613b27565b509392505050565b600082601f830112613b8d57613b8c613a60565b5b8135613b9d848260208601613b36565b91505092915050565b600067ffffffffffffffff82169050919050565b613bc381613ba6565b8114613bce57600080fd5b50565b600081359050613be081613bba565b92915050565b600080fd5b600080fd5b60008083601f840112613c0657613c05613a60565b5b8235905067ffffffffffffffff811115613c2357613c22613be6565b5b602083019150836001820283011115613c3f57613c3e613beb565b5b9250929050565b600080600080600060808688031215613c6257613c616138e7565b5b6000613c7088828901613a4b565b955050602086013567ffffffffffffffff811115613c9157613c906138ec565b5b613c9d88828901613b78565b9450506040613cae88828901613bd1565b935050606086013567ffffffffffffffff811115613ccf57613cce6138ec565b5b613cdb88828901613bf0565b92509250509295509295909350565b600060208284031215613d0057613cff6138e7565b5b600082013567ffffffffffffffff811115613d1e57613d1d6138ec565b5b613d2a84828501613b78565b91505092915050565b600073ffffffffffffffffffffffffffffffffffffffff82169050919050565b6000613d5e82613d33565b9050919050565b613d6e81613d53565b82525050565b6000602082019050613d896000830184613d65565b92915050565b600060a08284031215613da557613da46138f1565b5b81905092915050565b600060a08284031215613dc457613dc36138e7565b5b6000613dd284828501613d8f565b91505092915050565b6000819050919050565b613dee81613ddb565b82525050565b6000602082019050613e096000830184613de5565b92915050565b60006101a08284031215613e2657613e256138f1565b5b81905092915050565b60006101a08284031215613e4657613e456138e7565b5b6000613e5484828501613e0f565b91505092915050565b600060c08284031215613e7357613e726138f1565b5b81905092915050565b600060c08284031215613e9257613e916138e7565b5b6000613ea084828501613e5d565b91505092915050565b6000819050919050565b613ebc81613ea9565b8114613ec757600080fd5b50565b600081359050613ed981613eb3565b92915050565b600060208284031215613ef557613ef46138e7565b5b6000613f0384828501613eca565b91505092915050565b7f4e487b7100000000000000000000000000000000000000000000000000000000600052602160045260246000fd5b60028110613f4c57613f4b613f0c565b5b50565b6000819050613f5d82613f3b565b919050565b6000613f6d82613f4f565b9050919050565b613f7d81613f62565b82525050565b613f8c81613a26565b82525050565b600060a082019050613fa76000830188613f74565b613fb46020830187613d65565b613fc16040830186613d65565b613fce6060830185613f83565b613fdb6080830184613f83565b9695505050505050565b613fee81613d53565b8114613ff957600080fd5b50565b60008135905061400b81613fe5565b92915050565b60008060408385031215614028576140276138e7565b5b600061403685828601613eca565b925050602061404785828601613ffc565b9150509250929050565b61405a81613ea9565b82525050565b6003811061407157614070613f0c565b5b50565b600081905061408282614060565b919050565b600061409282614074565b9050919050565b6140a281614087565b82525050565b600060e0820190506140bd600083018a613de5565b6140ca6020830189614051565b6140d76040830188614099565b6140e46060830187613d65565b6140f16080830186613d65565b6140fe60a0830185613de5565b61410b60c0830184613de5565b98975050505050505050565b6000819050919050565b600061413c61413761413284613d33565b614117565b613d33565b9050919050565b600061414e82614121565b9050919050565b600061416082614143565b9050919050565b61417081614155565b82525050565b600060208201905061418b6000830184614167565b92915050565b6000602082840312156141a7576141a66138e7565b5b60006141b584828501613ffc565b91505092915050565b600481106141cf576141ce613f0c565b5b50565b60008190506141e0826141be565b919050565b60006141f0826141d2565b9050919050565b614200816141e5565b82525050565b61420f81613d53565b82525050565b61421e81613ddb565b82525050565b60408201600082015161423a6000850182614206565b50602082015161424d6020850182614215565b50505050565b60008115159050919050565b61426881614253565b82525050565b60006101c082019050614284600083018f614051565b614291602083018e6141f7565b61429e604083018d613d65565b6142ab606083018c614224565b6142b860a083018b613d65565b6142c560c083018a614224565b6142d3610100830189613de5565b6142e1610120830188613de5565b6142ef610140830187613de5565b6142fd610160830186613de5565b61430b610180830185613de5565b6143196101a083018461425f565b9d9c50505050505050505050505050565b600060408201905061433f6000830185613d65565b61434c6020830184613d65565b9392505050565b60006020820190506143686000830184614099565b92915050565b60006040820190506143836000830185613de5565b6143906020830184613de5565b9392505050565b6143a081613d53565b82525050565b6143af81613ddb565b82525050565b600060c0820190506143ca6000830189614397565b6143d76020830188614397565b6143e460408301876143a6565b6143f160608301866143a6565b6143fe60808301856143a6565b61440b60a0830184614397565b979650505050505050565b6000819050919050565b600060ff82169050919050565b600061444861444361443e84614416565b614117565b614420565b9050919050565b6144588161442d565b82525050565b6007811061446f5761446e613f0c565b5b50565b60008190506144808261445e565b919050565b600061449082614472565b9050919050565b6144a081614485565b82525050565b60006144b56020840184613eca565b905092915050565b6144c681613ea9565b82525050565b60006144db6020840184613ffc565b905092915050565b604082016144f460008301836144a6565b61450160008501826144bd565b5061450f60208301836144cc565b61451c6020850182614206565b50505050565b6000608082019050614537600083018661444f565b6145446020830185614497565b61455160408301846144e3565b949350505050565b600061456482613d33565b9050919050565b61457481614559565b82525050565b600081519050919050565b600082825260208201905092915050565b60005b838110156145b4578082015181840152602081019050614599565b60008484015250505050565b60006145cb8261457a565b6145d58185614585565b93506145e5818560208601614596565b6145ee81613a6a565b840191505092915050565b600060608201905061460e6000830186613f83565b61461b602083018561456b565b818103604083015261462d81846145c0565b9050949350505050565b600080fd5b60006040828403121561465257614651614637565b5b61465c6040613adb565b9050600061466c84828501613eca565b600083015250602061468084828501613ffc565b60208301525092915050565b6000604082840312156146a2576146a16138e7565b5b60006146b08482850161463c565b91505092915050565b6146c281613ea9565b82525050565b6146d181613d53565b82525050565b6040820160008201516146ed60008501826146b9565b50602082015161470060208501826146c8565b50505050565b8082525050565b600060608201905061472260008301856146d7565b61472f6040830184614706565b9392505050565b7f4e487b7100000000000000000000000000000000000000000000000000000000600052601160045260246000fd5b600061477082613ddb565b915061477b83613ddb565b925082820390508181111561479357614792614736565b5b92915050565b600060e0820190506147ae600083018a614397565b6147bb6020830189614397565b6147c86040830188614397565b6147d560608301876143a6565b6147e260808301866143a6565b6147ef60a08301856143a6565b6147fc60c0830184614397565b98975050505050505050565b6040820161481960008301836144a6565b61482660008501826144bd565b5061483460208301836144cc565b6148416020850182614206565b50505050565b600060808201905061485c600083018661444f565b6148696020830185614497565b6148766040830184614808565b949350505050565b8082525050565b600060208201905061489a600083018461487e565b92915050565b60006040820190506148b56000830185613d65565b6148c26020830184613de5565b9392505050565b6148d281614253565b81146148dd57600080fd5b50565b6000815190506148ef816148c9565b92915050565b60006020828403121561490b5761490a6138e7565b5b6000614919848285016148e0565b91505092915050565b6000606082019050614937600083018661444f565b6149446020830185614497565b6149516040830184614051565b949350505050565b61496281613ea9565b82525050565b600060408201905061497d6000830185614706565b61498a6020830184614959565b9392505050565b600061499c82613ddb565b91506149a783613ddb565b92508282019050808211156149bf576149be614736565b5b92915050565b6149ce81613ddb565b81146149d957600080fd5b50565b6000813590506149eb816149c5565b92915050565b6000614a0060208401846149dc565b905092915050565b60608201614a1960008301836144a6565b614a2660008501826144bd565b50614a3460208301836144cc565b614a416020850182614206565b50614a4f60408301836149f1565b614a5c6040850182614215565b50505050565b600060a082019050614a77600083018661444f565b614a846020830185614497565b614a916040830184614a08565b949350505050565b600080fd5b600080fd5b60008085851115614ab757614ab6614a99565b5b83861115614ac857614ac7614a9e565b5b6001850283019150848603905094509492505050565b60078110614aeb57600080fd5b50565b600081359050614afd81614ade565b92915050565b600060208284031215614b1957614b186138e7565b5b6000614b2784828501614aee565b91505092915050565b600082905092915050565b600082821b905092915050565b6000614b548383614b30565b82614b5f8135613ea9565b92506020821015614b9f57614b9a7fffffffffffffffffffffffffffffffffffffffffffffffffffffffffffffffff83602003600802614b3b565b831692505b505092915050565b600060408284031215614bbd57614bbc614637565b5b614bc76040613adb565b90506000614bd784828501613ffc565b6000830152506020614beb848285016149dc565b60208301525092915050565b600081359050614c06816148c9565b92915050565b600060c08284031215614c2257614c21614637565b5b614c2c60a0613adb565b90506000614c3c84828501614ba7565b6000830152506040614c5084828501613ffc565b6020830152506060614c6484828501613ffc565b6040830152506080614c7884828501614bf7565b60608301525060a0614c8c848285016149dc565b60808301525092915050565b600060c08284031215614cae57614cad6138e7565b5b6000614cbc84828501614c0c565b91505092915050565b600060a08284031215614cdb57614cda614637565b5b614ce560a0613adb565b90506000614cf5848285016149dc565b6000830152506020614d0984828501613ffc565b6020830152506040614d1d84828501613ffc565b6040830152506060614d3184828501613eca565b6060830152506080614d45848285016149dc565b60808301525092915050565b600060a08284031215614d6757614d666138e7565b5b6000614d7584828501614cc5565b91505092915050565b8082525050565b614d8e81613ddb565b82525050565b60a082016000820151614daa6000850182614d85565b506020820151614dbd60208501826146c8565b506040820151614dd060408501826146c8565b506060820151614de360608501826146b9565b506080820151614df66080850182614d85565b50505050565b600060c082019050614e116000830185614d7e565b614e1e6020830184614d94565b9392505050565b600060408284031215614e3b57614e3a614637565b5b614e456040613adb565b90506000614e5584828501613eca565b6000830152506020614e6984828501613ffc565b60208301525092915050565b600060408284031215614e8b57614e8a6138e7565b5b6000614e9984828501614e25565b91505092915050565b600060608284031215614eb857614eb7614637565b5b614ec26060613adb565b90506000614ed284828501613eca565b6000830152506020614ee684828501613ffc565b6020830152506040614efa848285016149dc565b60408301525092915050565b600060608284031215614f1c57614f1b6138e7565b5b6000614f2a84828501614ea2565b91505092915050565b6000819050602082019050919050565b60007fffffffffffffffffffffffffffffffffffffffff00000000000000000000000082169050919050565b6000614f7b8251614f43565b80915050919050565b6000614f8f8261457a565b82614f9984614f33565b9050614fa481614f6f565b92506014821015614fe457614fdf7fffffffffffffffffffffffffffffffffffffffff00000000000000000000000083601403600802614b3b565b831692505b5050919050565b60a08201614ffc60008301836149f1565b6150096000850182614d85565b5061501760208301836144cc565b61502460208501826146c8565b5061503260408301836144cc565b61503f60408501826146c8565b5061504d60608301836144a6565b61505a60608501826146b9565b5061506860808301836149f1565b6150756080850182614d85565b50505050565b600060c0820190506150906000830185614d7e565b61509d6020830184614feb565b9392505050565b60a082016150b560008301836149f1565b6150c26000850182614215565b506150d060208301836144cc565b6150dd6020850182614206565b506150eb60408301836144cc565b6150f86040850182614206565b5061510660608301836144a6565b61511360608501826144bd565b5061512160808301836149f1565b61512e6080850182614215565b50505050565b600060e082019050615149600083018661444f565b6151566020830185614497565b61516360408301846150a4565b949350505050565b6000610140828403121561518257615181614637565b5b61518d610100613adb565b9050600061519d84828501613eca565b60008301525060206151b184828501614ba7565b60208301525060606151c584828501614ba7565b60408301525060a06151d984828501613ffc565b60608301525060c06151ed84828501613ffc565b60808301525060e0615201848285016149dc565b60a083015250610100615216848285016149dc565b60c08301525061012061522b84828501614bf7565b60e08301525092915050565b6000610140828403121561524e5761524d6138e7565b5b600061525c8482850161516b565b91505092915050565b60408201600082015161527b60008501826146c8565b50602082015161528e6020850182614d85565b50505050565b61529d81614253565b82525050565b610140820160008201516152ba60008501826146b9565b5060208201516152cd6020850182615265565b5060408201516152e06060850182615265565b5060608201516152f360a08501826146c8565b50608082015161530660c08501826146c8565b5060a082015161531960e0850182614d85565b5060c082015161532d610100850182614d85565b5060e0820151615341610120850182615294565b50505050565b60006101408201905061535d60008301846152a3565b92915050565b60006040820190506153786000830185614959565b6153856020830184614397565b9392505050565b60008151905061539b81613eb3565b92915050565b6000602082840312156153b7576153b66138e7565b5b60006153c58482850161538c565b91505092915050565b60006101a0820190506153e46000830187614706565b6153f160208301866152a3565b6153ff610160830185614959565b61540d610180830184614397565b95945050505050565b60006020828403121561542c5761542b6138e7565b5b600061543a84828501613a4b565b91505092915050565b600082825260208201905092915050565b7f4e6f7420656e6f75676820657468657200000000000000000000000000000000600082015250565b600061548a601083615443565b915061549582615454565b602082019050919050565b600060208201905081810360008301526154b98161547d565b9050919050565b6040820160008201516154d66000850182614206565b5060208201516154e96020850182614215565b50505050565b6154f881614253565b82525050565b60c08201600082015161551460008501826154c0565b5060208201516155276040850182614206565b50604082015161553a6060850182614206565b50606082015161554d60808501826154ef565b50608082015161556060a0850182614215565b50505050565b60006101208201905061557c600083018761444f565b6155896020830186614497565b6155966040830185614051565b6155a360608301846154fe565b95945050505050565b600060c082840312156155c2576155c1614637565b5b6155cc60c0613adb565b905060006155dc84828501613ffc565b60008301525060206155f084828501613a4b565b602083015250604061560484828501613ffc565b604083015250606061561884828501613ffc565b606083015250608061562c848285016149dc565b60808301525060a0615640848285016149dc565b60a08301525092915050565b600060c08284031215615662576156616138e7565b5b6000615670848285016155ac565b91505092915050565b61568281613a26565b82525050565b60c08201600082015161569e60008501826146c8565b5060208201516156b16020850182615679565b5060408201516156c460408501826146c8565b5060608201516156d760608501826146c8565b5060808201516156ea6080850182614d85565b5060a08201516156fd60a0850182614d85565b50505050565b600060e0820190506157186000830185615688565b61572560c08301846143a6565b9392505050565b6000819050919050565b600061575161574c6157478461572c565b614117565b613ba6565b9050919050565b61576181615736565b82525050565b600060208201905061577c6000830184615758565b92915050565b600081519050615791816149c5565b92915050565b6000602082840312156157ad576157ac6138e7565b5b60006157bb84828501615782565b91505092915050565b60006060820190506157d96000830186613d65565b6157e66020830185613d65565b6157f36040830184613de5565b949350505050565b7f4661696c656420746f207472616e736665722066726f6d000000000000000000600082015250565b6000615831601783615443565b915061583c826157fb565b602082019050919050565b6000602082019050818103600083015261586081615824565b905091905056fea2646970667358221220db0b673ae81d2f4a588a7a6b47ef367d9c606fce866433c694a0a460a798616464736f6c63430008140033",
  "linkReferences": {
    "contracts/abstracts/libs/AtomicSwapHelper.sol": {
      "AtomicSwapHelper": [
        {
          "length": 20,
          "start": 2075
        },
        {
          "length": 20,
          "start": 3113
        },
        {
          "length": 20,
          "start": 4325
        },
        {
          "length": 20,
          "start": 6555
        },
        {
          "length": 20,
          "start": 6749
        },
        {
          "length": 20,
          "start": 7102
        },
        {
          "length": 20,
          "start": 8387
        },
        {
          "length": 20,
          "start": 8866
        },
        {
          "length": 20,
          "start": 8993
        }
      ]
    },
    "contracts/abstracts/libs/AtomicSwapMsgValidator.sol": {
      "AtomicSwapMsgValidator": [
        {
          "length": 20,
          "start": 2688
        },
        {
          "length": 20,
          "start": 3781
        },
        {
          "length": 20,
          "start": 8755
        }
      ]
    },
    "contracts/interchain_atomicswap/libs/InterchainAtomicSwapLogic.sol": {
      "InterchainAtomicSwapLogic": [
        {
          "length": 20,
          "start": 10523
        }
      ]
    }
  },
  "deployedLinkReferences": {
    "contracts/abstracts/libs/AtomicSwapHelper.sol": {
      "AtomicSwapHelper": [
        {
          "length": 20,
          "start": 2042
        },
        {
          "length": 20,
          "start": 3080
        },
        {
          "length": 20,
          "start": 4292
        },
        {
          "length": 20,
          "start": 6522
        },
        {
          "length": 20,
          "start": 6716
        },
        {
          "length": 20,
          "start": 7069
        },
        {
          "length": 20,
          "start": 8354
        },
        {
          "length": 20,
          "start": 8833
        },
        {
          "length": 20,
          "start": 8960
        }
      ]
    },
    "contracts/abstracts/libs/AtomicSwapMsgValidator.sol": {
      "AtomicSwapMsgValidator": [
        {
          "length": 20,
          "start": 2655
        },
        {
          "length": 20,
          "start": 3748
        },
        {
          "length": 20,
          "start": 8722
        }
      ]
    },
    "contracts/interchain_atomicswap/libs/InterchainAtomicSwapLogic.sol": {
      "InterchainAtomicSwapLogic": [
        {
          "length": 20,
          "start": 10490
        }
      ]
    }
  }
}