{
  "_format": "hh-sol-artifact-1",
  "contractName": "InterchainAtomicSwap",
  "sourceName": "contracts/interchain_atomicswap/InterchainAtomicSwap.sol",
  "abi": [
    {
      "inputs": [
        {
          "internalType": "uint256",
          "name": "provided",
          "type": "uint256"
        },
        {
          "internalType": "uint256",
          "name": "expectedExpiry",
          "type": "uint256"
        }
      ],
      "name": "BidAlreadyExpired",
      "type": "error"
    },
    {
      "inputs": [],
      "name": "BidAlreadyPlaced",
      "type": "error"
    },
    {
      "inputs": [],
      "name": "BidDoesNotExist",
      "type": "error"
    },
    {
      "inputs": [],
      "name": "BidNotAllowed",
      "type": "error"
    },
    {
      "inputs": [
        {
          "internalType": "enum IAtomicSwapBase.BidStatus",
          "name": "status",
          "type": "uint8"
        }
      ],
      "name": "BidNotInPlacedStatus",
      "type": "error"
    },
    {
      "inputs": [
        {
          "internalType": "address",
          "name": "account",
          "type": "address"
        },
        {
          "internalType": "uint256",
          "name": "currentNonce",
          "type": "uint256"
        }
      ],
      "name": "InvalidAccountNonce",
      "type": "error"
    },
    {
      "inputs": [
        {
          "internalType": "address",
          "name": "contractAddress",
          "type": "address"
        }
      ],
      "name": "InvalidContractAddress",
      "type": "error"
    },
    {
      "inputs": [
        {
          "internalType": "uint256",
          "name": "provided",
          "type": "uint256"
        },
        {
          "internalType": "uint256",
          "name": "maximum",
          "type": "uint256"
        }
      ],
      "name": "InvalidExpirationTime",
      "type": "error"
    },
    {
      "inputs": [],
      "name": "InvalidInitialization",
      "type": "error"
    },
    {
      "inputs": [],
      "name": "InvalidMinimumBidLimit",
      "type": "error"
    },
    {
      "inputs": [
        {
          "internalType": "uint256",
          "name": "amount",
          "type": "uint256"
        }
      ],
      "name": "MismatchedBidAmount",
      "type": "error"
    },
    {
      "inputs": [],
      "name": "NoBidPlaced",
      "type": "error"
    },
    {
      "inputs": [
        {
          "internalType": "uint256",
          "name": "amount",
          "type": "uint256"
        },
        {
          "internalType": "uint256",
          "name": "allowance",
          "type": "uint256"
        }
      ],
      "name": "NotAllowedTransferAmount",
      "type": "error"
    },
    {
      "inputs": [
        {
          "internalType": "uint256",
          "name": "real",
          "type": "uint256"
        },
        {
          "internalType": "uint256",
          "name": "expected",
          "type": "uint256"
        }
      ],
      "name": "NotEnoughFund",
      "type": "error"
    },
    {
      "inputs": [],
      "name": "NotInitializing",
      "type": "error"
    },
    {
      "inputs": [],
      "name": "OrderAlreadyCompleted",
      "type": "error"
    },
    {
      "inputs": [],
      "name": "OrderAlreadyExists",
      "type": "error"
    },
    {
      "inputs": [],
      "name": "OrderDoesNotExist",
      "type": "error"
    },
    {
      "inputs": [],
      "name": "OrderNotAllowTake",
      "type": "error"
    },
    {
      "inputs": [
        {
          "internalType": "address",
          "name": "owner",
          "type": "address"
        }
      ],
      "name": "OwnableInvalidOwner",
      "type": "error"
    },
    {
      "inputs": [
        {
          "internalType": "address",
          "name": "account",
          "type": "address"
        }
      ],
      "name": "OwnableUnauthorizedAccount",
      "type": "error"
    },
    {
      "inputs": [],
      "name": "ReentrancyGuardReentrantCall",
      "type": "error"
    },
    {
      "inputs": [
        {
          "internalType": "address",
          "name": "caller",
          "type": "address"
        },
        {
          "internalType": "address",
          "name": "expected",
          "type": "address"
        }
      ],
      "name": "UnauthorizedAcceptAction",
      "type": "error"
    },
    {
      "inputs": [],
      "name": "UnauthorizedCancelAction",
      "type": "error"
    },
    {
      "inputs": [],
      "name": "UnauthorizedSender",
      "type": "error"
    },
    {
      "inputs": [],
      "name": "UnauthorizedTakeAction",
      "type": "error"
    },
    {
      "inputs": [],
      "name": "UnsupportedTokenPair",
      "type": "error"
    },
    {
      "anonymous": false,
      "inputs": [
        {
          "indexed": true,
          "internalType": "bytes32",
          "name": "orderID",
          "type": "bytes32"
        },
        {
          "indexed": true,
          "internalType": "address",
          "name": "bidder",
          "type": "address"
        },
        {
          "indexed": true,
          "internalType": "uint256",
          "name": "amount",
          "type": "uint256"
        }
      ],
      "name": "AcceptedBid",
      "type": "event"
    },
    {
      "anonymous": false,
      "inputs": [
        {
          "indexed": true,
          "internalType": "bytes32",
          "name": "id",
          "type": "bytes32"
        }
      ],
      "name": "AtomicSwapOrderCanceled",
      "type": "event"
    },
    {
      "anonymous": false,
      "inputs": [
        {
          "indexed": true,
          "internalType": "bytes32",
          "name": "id",
          "type": "bytes32"
        }
      ],
      "name": "AtomicSwapOrderCreated",
      "type": "event"
    },
    {
      "anonymous": false,
      "inputs": [
        {
          "indexed": true,
          "internalType": "address",
          "name": "maker",
          "type": "address"
        },
        {
          "indexed": true,
          "internalType": "address",
          "name": "taker",
          "type": "address"
        },
        {
          "indexed": true,
          "internalType": "bytes32",
          "name": "id",
          "type": "bytes32"
        }
      ],
      "name": "AtomicSwapOrderTook",
      "type": "event"
    },
    {
      "anonymous": false,
      "inputs": [
        {
          "indexed": true,
          "internalType": "bytes32",
          "name": "orderID",
          "type": "bytes32"
        },
        {
          "indexed": true,
          "internalType": "address",
          "name": "bidder",
          "type": "address"
        }
      ],
      "name": "CanceledBid",
      "type": "event"
    },
    {
      "anonymous": false,
      "inputs": [
        {
          "indexed": false,
          "internalType": "uint64",
          "name": "version",
          "type": "uint64"
        }
      ],
      "name": "Initialized",
      "type": "event"
    },
    {
      "anonymous": false,
      "inputs": [
        {
          "indexed": true,
          "internalType": "address",
          "name": "previousOwner",
          "type": "address"
        },
        {
          "indexed": true,
          "internalType": "address",
          "name": "newOwner",
          "type": "address"
        }
      ],
      "name": "OwnershipTransferred",
      "type": "event"
    },
    {
      "anonymous": false,
      "inputs": [
        {
          "indexed": true,
          "internalType": "bytes32",
          "name": "orderID",
          "type": "bytes32"
        },
        {
          "indexed": true,
          "internalType": "address",
          "name": "bidder",
          "type": "address"
        },
        {
          "indexed": true,
          "internalType": "uint256",
          "name": "amount",
          "type": "uint256"
        }
      ],
      "name": "ReceivedNewBid",
      "type": "event"
    },
    {
      "anonymous": false,
      "inputs": [
        {
          "indexed": true,
          "internalType": "bytes32",
          "name": "orderID",
          "type": "bytes32"
        },
        {
          "indexed": true,
          "internalType": "address",
          "name": "bidder",
          "type": "address"
        },
        {
          "indexed": true,
          "internalType": "uint256",
          "name": "amount",
          "type": "uint256"
        }
      ],
      "name": "UpdatedBid",
      "type": "event"
    },
    {
      "inputs": [
        {
          "components": [
            {
              "internalType": "bytes32",
              "name": "orderID",
              "type": "bytes32"
            },
            {
              "internalType": "address",
              "name": "bidder",
              "type": "address"
            }
          ],
          "internalType": "struct IAtomicSwapBase.AcceptBidMsg",
          "name": "acceptBidMsg",
          "type": "tuple"
        }
      ],
      "name": "acceptBid",
      "outputs": [],
      "stateMutability": "payable",
      "type": "function"
    },
    {
      "inputs": [
        {
          "internalType": "bytes32",
          "name": "",
          "type": "bytes32"
        },
        {
          "internalType": "address",
          "name": "",
          "type": "address"
        }
      ],
      "name": "bids",
      "outputs": [
        {
          "internalType": "uint256",
          "name": "amount",
          "type": "uint256"
        },
        {
          "internalType": "bytes32",
          "name": "order",
          "type": "bytes32"
        },
        {
          "internalType": "enum IAtomicSwapBase.BidStatus",
          "name": "status",
          "type": "uint8"
        },
        {
          "internalType": "address",
          "name": "bidder",
          "type": "address"
        },
        {
          "internalType": "address",
          "name": "bidderReceiver",
          "type": "address"
        },
        {
          "internalType": "uint256",
          "name": "receiveTimestamp",
          "type": "uint256"
        },
        {
          "internalType": "uint256",
          "name": "expireTimestamp",
          "type": "uint256"
        }
      ],
      "stateMutability": "view",
      "type": "function"
    },
    {
      "inputs": [],
      "name": "bridge",
      "outputs": [
        {
          "internalType": "contract ISideLzAppUpgradable",
          "name": "",
          "type": "address"
        }
      ],
      "stateMutability": "view",
      "type": "function"
    },
    {
      "inputs": [],
      "name": "buyerFeeRate",
      "outputs": [
        {
          "internalType": "uint256",
          "name": "",
          "type": "uint256"
        }
      ],
      "stateMutability": "view",
      "type": "function"
    },
    {
      "inputs": [
        {
          "internalType": "bytes",
          "name": "data",
          "type": "bytes"
        }
      ],
      "name": "bytesToAddress",
      "outputs": [
        {
          "internalType": "address",
          "name": "",
          "type": "address"
        }
      ],
      "stateMutability": "pure",
      "type": "function"
    },
    {
      "inputs": [
        {
          "internalType": "bytes32",
          "name": "_orderID",
          "type": "bytes32"
        }
      ],
      "name": "cancelBid",
      "outputs": [],
      "stateMutability": "payable",
      "type": "function"
    },
    {
      "inputs": [
        {
          "components": [
            {
              "internalType": "bytes32",
              "name": "orderID",
              "type": "bytes32"
            }
          ],
          "internalType": "struct IAtomicSwapBase.CancelSwapMsg",
          "name": "cancelswap",
          "type": "tuple"
        }
      ],
      "name": "cancelSwap",
      "outputs": [],
      "stateMutability": "payable",
      "type": "function"
    },
    {
      "inputs": [
        {
          "internalType": "bytes32",
          "name": "",
          "type": "bytes32"
        },
        {
          "internalType": "address",
          "name": "",
          "type": "address"
        }
      ],
      "name": "counteroffers",
      "outputs": [
        {
          "internalType": "uint256",
          "name": "",
          "type": "uint256"
        }
      ],
      "stateMutability": "view",
      "type": "function"
    },
    {
      "inputs": [
        {
          "components": [
            {
              "internalType": "address",
              "name": "admin",
              "type": "address"
            },
            {
              "internalType": "uint16",
              "name": "chainID",
              "type": "uint16"
            },
            {
              "internalType": "address",
              "name": "bridge",
              "type": "address"
            },
            {
              "internalType": "address",
              "name": "treasury",
              "type": "address"
            },
            {
              "internalType": "uint256",
              "name": "sellerFee",
              "type": "uint256"
            },
            {
              "internalType": "uint256",
              "name": "buyerFee",
              "type": "uint256"
            }
          ],
          "internalType": "struct IInterchainAtomicSwap.InitialParams",
          "name": "_params",
          "type": "tuple"
        }
      ],
      "name": "initialize",
      "outputs": [],
      "stateMutability": "nonpayable",
      "type": "function"
    },
    {
      "inputs": [
        {
          "components": [
            {
              "components": [
                {
                  "components": [
                    {
                      "internalType": "address",
                      "name": "token",
                      "type": "address"
                    },
                    {
                      "internalType": "uint256",
                      "name": "amount",
                      "type": "uint256"
                    }
                  ],
                  "internalType": "struct IAtomicSwapBase.Coin",
                  "name": "sellToken",
                  "type": "tuple"
                },
                {
                  "components": [
                    {
                      "internalType": "address",
                      "name": "token",
                      "type": "address"
                    },
                    {
                      "internalType": "uint256",
                      "name": "amount",
                      "type": "uint256"
                    }
                  ],
                  "internalType": "struct IAtomicSwapBase.Coin",
                  "name": "buyToken",
                  "type": "tuple"
                },
                {
                  "internalType": "address",
                  "name": "maker",
                  "type": "address"
                },
                {
                  "internalType": "address",
                  "name": "desiredTaker",
                  "type": "address"
                },
                {
                  "internalType": "uint256",
                  "name": "minBidAmount",
                  "type": "uint256"
                },
                {
                  "internalType": "uint256",
                  "name": "expireAt",
                  "type": "uint256"
                },
                {
                  "internalType": "bool",
                  "name": "acceptBid",
                  "type": "bool"
                }
              ],
              "internalType": "struct IAtomicSwapBase.MakeSwapMsg",
              "name": "base",
              "type": "tuple"
            },
            {
              "internalType": "address",
              "name": "makerReceiver",
              "type": "address"
            },
            {
              "internalType": "address",
              "name": "desiredTaker",
              "type": "address"
            },
            {
              "internalType": "uint16",
              "name": "dstChainID",
              "type": "uint16"
            }
          ],
          "internalType": "struct IInterchainAtomicSwap.ICMakeSwapMsg",
          "name": "icMakeSwap",
          "type": "tuple"
        }
      ],
      "name": "makeSwap",
      "outputs": [],
      "stateMutability": "payable",
      "type": "function"
    },
    {
      "inputs": [
        {
          "internalType": "address",
          "name": "owner",
          "type": "address"
        }
      ],
      "name": "nonces",
      "outputs": [
        {
          "internalType": "uint256",
          "name": "",
          "type": "uint256"
        }
      ],
      "stateMutability": "view",
      "type": "function"
    },
    {
      "inputs": [
        {
          "internalType": "uint16",
          "name": "_srcChainID",
          "type": "uint16"
        },
        {
          "internalType": "bytes",
          "name": "_srcAddress",
          "type": "bytes"
        },
        {
          "internalType": "uint64",
          "name": "_nonce",
          "type": "uint64"
        },
        {
          "internalType": "bytes",
          "name": "_payload",
          "type": "bytes"
        }
      ],
      "name": "onReceivePacket",
      "outputs": [],
      "stateMutability": "payable",
      "type": "function"
    },
    {
      "inputs": [],
      "name": "owner",
      "outputs": [
        {
          "internalType": "address",
          "name": "",
          "type": "address"
        }
      ],
      "stateMutability": "view",
      "type": "function"
    },
    {
      "inputs": [
        {
          "components": [
            {
              "internalType": "uint256",
              "name": "bidAmount",
              "type": "uint256"
            },
            {
              "internalType": "address",
              "name": "bidder",
              "type": "address"
            },
            {
              "internalType": "address",
              "name": "bidderReceiver",
              "type": "address"
            },
            {
              "internalType": "bytes32",
              "name": "orderID",
              "type": "bytes32"
            },
            {
              "internalType": "uint256",
              "name": "expireTimestamp",
              "type": "uint256"
            }
          ],
          "internalType": "struct IAtomicSwapBase.PlaceBidMsg",
          "name": "placeBidMsg",
          "type": "tuple"
        }
      ],
      "name": "placeBid",
      "outputs": [],
      "stateMutability": "payable",
      "type": "function"
    },
    {
      "inputs": [],
      "name": "renounceOwnership",
      "outputs": [],
      "stateMutability": "nonpayable",
      "type": "function"
    },
    {
      "inputs": [],
      "name": "sellerFeeRate",
      "outputs": [
        {
          "internalType": "uint256",
          "name": "",
          "type": "uint256"
        }
      ],
      "stateMutability": "view",
      "type": "function"
    },
    {
      "inputs": [
        {
          "internalType": "bytes32",
          "name": "",
          "type": "bytes32"
        }
      ],
      "name": "swapOrder",
      "outputs": [
        {
          "internalType": "bytes32",
          "name": "id",
          "type": "bytes32"
        },
        {
          "internalType": "enum IAtomicSwapBase.OrderStatus",
          "name": "status",
          "type": "uint8"
        },
        {
          "internalType": "address",
          "name": "maker",
          "type": "address"
        },
        {
          "components": [
            {
              "internalType": "address",
              "name": "token",
              "type": "address"
            },
            {
              "internalType": "uint256",
              "name": "amount",
              "type": "uint256"
            }
          ],
          "internalType": "struct IAtomicSwapBase.Coin",
          "name": "sellToken",
          "type": "tuple"
        },
        {
          "internalType": "address",
          "name": "taker",
          "type": "address"
        },
        {
          "components": [
            {
              "internalType": "address",
              "name": "token",
              "type": "address"
            },
            {
              "internalType": "uint256",
              "name": "amount",
              "type": "uint256"
            }
          ],
          "internalType": "struct IAtomicSwapBase.Coin",
          "name": "buyToken",
          "type": "tuple"
        },
        {
          "internalType": "uint256",
          "name": "minBidAmount",
          "type": "uint256"
        },
        {
          "internalType": "uint256",
          "name": "createdAt",
          "type": "uint256"
        },
        {
          "internalType": "uint256",
          "name": "canceledAt",
          "type": "uint256"
        },
        {
          "internalType": "uint256",
          "name": "completedAt",
          "type": "uint256"
        },
        {
          "internalType": "uint256",
          "name": "expiredAt",
          "type": "uint256"
        },
        {
          "internalType": "bool",
          "name": "acceptBid",
          "type": "bool"
        }
      ],
      "stateMutability": "view",
      "type": "function"
    },
    {
      "inputs": [
        {
          "internalType": "bytes32",
          "name": "",
          "type": "bytes32"
        }
      ],
      "name": "swapOrderITCParams",
      "outputs": [
        {
          "internalType": "enum IInterchainAtomicSwap.Side",
          "name": "side",
          "type": "uint8"
        },
        {
          "internalType": "address",
          "name": "makerReceiver",
          "type": "address"
        },
        {
          "internalType": "address",
          "name": "takerReceiver",
          "type": "address"
        },
        {
          "internalType": "uint16",
          "name": "srcChainID",
          "type": "uint16"
        },
        {
          "internalType": "uint16",
          "name": "dstChainID",
          "type": "uint16"
        }
      ],
      "stateMutability": "view",
      "type": "function"
    },
    {
      "inputs": [
        {
          "components": [
            {
              "internalType": "bytes32",
              "name": "orderID",
              "type": "bytes32"
            },
            {
              "internalType": "address",
              "name": "takerReceiver",
              "type": "address"
            }
          ],
          "internalType": "struct IAtomicSwapBase.TakeSwapMsg",
          "name": "takeswap",
          "type": "tuple"
        }
      ],
      "name": "takeSwap",
      "outputs": [],
      "stateMutability": "payable",
      "type": "function"
    },
    {
      "inputs": [
        {
          "internalType": "address",
          "name": "newOwner",
          "type": "address"
        }
      ],
      "name": "transferOwnership",
      "outputs": [],
      "stateMutability": "nonpayable",
      "type": "function"
    },
    {
      "inputs": [
        {
          "components": [
            {
              "internalType": "bytes32",
              "name": "orderID",
              "type": "bytes32"
            },
            {
              "internalType": "address",
              "name": "bidder",
              "type": "address"
            },
            {
              "internalType": "uint256",
              "name": "addition",
              "type": "uint256"
            }
          ],
          "internalType": "struct IAtomicSwapBase.UpdateBidMsg",
          "name": "updateBidMsg",
          "type": "tuple"
        }
      ],
      "name": "updateBid",
      "outputs": [],
      "stateMutability": "payable",
      "type": "function"
    }
  ],
  "bytecode": "0x608060405234801561001057600080fd5b506159a380620000216000396000f3fe60806040526004361061012a5760003560e01c806366e929bf116100ab5780639ab3729d1161006f5780639ab3729d14610396578063a743a3d0146103b2578063df7cec28146103ef578063e78cea921461040b578063f2fde38b14610436578063fca6caa11461045f5761012a565b806366e929bf146102a9578063715018a6146102ec5780637ecebe001461030357806389f68190146103405780638da5cb5b1461036b5761012a565b806342526e4e116100f257806342526e4e146101bb57806352c95b2a146101f857806353f10c8014610214578063593333f01461023f5780636220b2e5146102685761012a565b8063022066611461012f57806306be619c1461014b57806337be0022146101675780633d9bd2fc1461018357806340d7185c1461019f575b600080fd5b61014960048036038101906101449190613a45565b6104a7565b005b61016560048036038101906101609190613a91565b6109dd565b005b610181600480360381019061017c9190613add565b610e71565b005b61019d60048036038101906101989190613b29565b611259565b005b6101b960048036038101906101b49190613d76565b6116cf565b005b3480156101c757600080fd5b506101e260048036038101906101dd9190613e1a565b611deb565b6040516101ef9190613ea4565b60405180910390f35b610212600480360381019061020d9190613ede565b611e01565b005b34801561022057600080fd5b50610229612231565b6040516102369190613f24565b60405180910390f35b34801561024b57600080fd5b5061026660048036038101906102619190613f5e565b612237565b005b34801561027457600080fd5b5061028f600480360381019061028a9190613fc1565b612540565b6040516102a0959493929190614074565b60405180910390f35b3480156102b557600080fd5b506102d060048036038101906102cb91906140f3565b6125df565b6040516102e3979695949392919061418a565b60405180910390f35b3480156102f857600080fd5b5061030161267b565b005b34801561030f57600080fd5b5061032a600480360381019061032591906141f9565b61268f565b6040516103379190613f24565b60405180910390f35b34801561034c57600080fd5b506103556126e6565b6040516103629190613f24565b60405180910390f35b34801561037757600080fd5b506103806126ec565b60405161038d9190613ea4565b60405180910390f35b6103b060048036038101906103ab9190614246565b612724565b005b3480156103be57600080fd5b506103d960048036038101906103d491906140f3565b612ce3565b6040516103e69190613f24565b60405180910390f35b61040960048036038101906104049190613fc1565b612d08565b005b34801561041757600080fd5b506104206131b7565b60405161042d91906142d3565b60405180910390f35b34801561044257600080fd5b5061045d600480360381019061045891906141f9565b6131dd565b005b34801561046b57600080fd5b5061048660048036038101906104819190613fc1565b613263565b60405161049e9c9b9a9998979695949392919061439e565b60405180910390f35b6104af6133f1565b80600001356000801b6000808381526020019081526020016000206000015403610505576040517f5dcaf2d700000000000000000000000000000000000000000000000000000000815260040160405180910390fd5b600082600001359050600083602001602081019061052391906141f9565b9050600073ffffffffffffffffffffffffffffffffffffffff163373ffffffffffffffffffffffffffffffffffffffff160361058b576040517f0809490800000000000000000000000000000000000000000000000000000000815260040160405180910390fd5b6000806000848152602001908152602001600020905080600c0160009054906101000a900460ff166105e9576040517f3c24fafc00000000000000000000000000000000000000000000000000000000815260040160405180910390fd5b3373ffffffffffffffffffffffffffffffffffffffff168160010160019054906101000a900473ffffffffffffffffffffffffffffffffffffffff1673ffffffffffffffffffffffffffffffffffffffff16146106a3578060010160019054906101000a900473ffffffffffffffffffffffffffffffffffffffff16336040517f0500cb4c00000000000000000000000000000000000000000000000000000000815260040161069a92919061445a565b60405180910390fd5b60006001600085815260200190815260200160002060008473ffffffffffffffffffffffffffffffffffffffff1673ffffffffffffffffffffffffffffffffffffffff168152602001908152602001600020905060028081111561070a57610709613fee565b5b8160020160009054906101000a900460ff16600281111561072e5761072d613fee565b5b14610781578060020160009054906101000a900460ff166040517f64b08c060000000000000000000000000000000000000000000000000000000081526004016107789190614483565b60405180910390fd5b42816005015410156107d0578060050154426040517f1d3556390000000000000000000000000000000000000000000000000000000081526004016107c792919061449e565b60405180910390fd5b60018160020160006101000a81548160ff021916908360028111156107f8576107f7613fee565b5b021790555060008260020190508060000160009054906101000a900473ffffffffffffffffffffffffffffffffffffffff1673ffffffffffffffffffffffffffffffffffffffff1673__$a132ddf224bcaf7b77631cdf10c807360d$__6343b03b5d90918460030160009054906101000a900473ffffffffffffffffffffffffffffffffffffffff1684600101546004546103e8600260009054906101000a900473ffffffffffffffffffffffffffffffffffffffff166040518763ffffffff1660e01b81526004016108d0969594939291906144e5565b60006040518083038186803b1580156108e857600080fd5b505af41580156108fc573d6000803e3d6000fd5b5050505060008060058960405160200161091893929190614652565b6040516020818303038152906040529050600660009054906101000a900473ffffffffffffffffffffffffffffffffffffffff1673ffffffffffffffffffffffffffffffffffffffff1663e4a8b2f934600860009054906101000a900461ffff1633856040518563ffffffff1660e01b815260040161099993929190614729565b6000604051808303818588803b1580156109b257600080fd5b505af11580156109c6573d6000803e3d6000fd5b5050505050505050505050506109da613448565b50565b6109e56133f1565b80600001356000801b6000808381526020019081526020016000206000015403610a3b576040517f5dcaf2d700000000000000000000000000000000000000000000000000000000815260040160405180910390fd5b60008060008460000135815260200190815260200160002090506000600760008560000135815260200190815260200160002060000160019054906101000a900473ffffffffffffffffffffffffffffffffffffffff16905083803603810190610aa591906147bc565b73__$5b078b893398f17544ec956d77642311f9$__632dbbbec0909160006040518363ffffffff1660e01b8152600401610ae092919061483d565b60006040518083038186803b158015610af857600080fd5b505af4158015610b0c573d6000803e3d6000fd5b5050505060028260010160006101000a81548160ff02191690836003811115610b3857610b37613fee565b5b02179055504282600a01819055506000349050600073ffffffffffffffffffffffffffffffffffffffff168360050160000160009054906101000a900473ffffffffffffffffffffffffffffffffffffffff1673ffffffffffffffffffffffffffffffffffffffff1603610c105782600501600101543411610bfa573483600501600101546040517f04157bb4000000000000000000000000000000000000000000000000000000008152600401610bf192919061449e565b60405180910390fd5b826005016001015434610c0d9190614895565b90505b8260050160000160009054906101000a900473ffffffffffffffffffffffffffffffffffffffff1673ffffffffffffffffffffffffffffffffffffffff1673__$a132ddf224bcaf7b77631cdf10c807360d$__6311f1248b9091338587600501600101546003546103e8600260009054906101000a900473ffffffffffffffffffffffffffffffffffffffff166040518863ffffffff1660e01b8152600401610cbf97969594939291906148c9565b60006040518083038186803b158015610cd757600080fd5b505af4158015610ceb573d6000803e3d6000fd5b50505050600080600187604051602001610d0793929190614977565b6040516020818303038152906040529050600660009054906101000a900473ffffffffffffffffffffffffffffffffffffffff1673ffffffffffffffffffffffffffffffffffffffff1663e4a8b2f983600860009054906101000a900461ffff1633856040518563ffffffff1660e01b8152600401610d8893929190614729565b6000604051808303818588803b158015610da157600080fd5b505af1158015610db5573d6000803e3d6000fd5b505050505085600001358460040160009054906101000a900473ffffffffffffffffffffffffffffffffffffffff1673ffffffffffffffffffffffffffffffffffffffff168560010160019054906101000a900473ffffffffffffffffffffffffffffffffffffffff1673ffffffffffffffffffffffffffffffffffffffff167f6bf7309f141d1b44e414f1fc04d98491cd0acf98f0f1e5ad885d0a7ce164e6fa60405160405180910390a45050505050610e6e613448565b50565b610e796133f1565b80600001356000801b6000808381526020019081526020016000206000015403610ecf576040517f5dcaf2d700000000000000000000000000000000000000000000000000000000815260040160405180910390fd5b60008060008460000135815260200190815260200160002090508073__$5b078b893398f17544ec956d77642311f9$__639efdfeb190916040518263ffffffff1660e01b8152600401610f2291906149b5565b60006040518083038186803b158015610f3a57600080fd5b505af4158015610f4e573d6000803e3d6000fd5b5050505060018160010160006101000a81548160ff02191690836003811115610f7a57610f79613fee565b5b0217905550600073ffffffffffffffffffffffffffffffffffffffff168160020160000160009054906101000a900473ffffffffffffffffffffffffffffffffffffffff1673ffffffffffffffffffffffffffffffffffffffff160361102d573373ffffffffffffffffffffffffffffffffffffffff166108fc82600501600101549081150290604051600060405180830381858888f19350505050158015611027573d6000803e3d6000fd5b506110db565b8060020160000160009054906101000a900473ffffffffffffffffffffffffffffffffffffffff1673ffffffffffffffffffffffffffffffffffffffff1663a9059cbb3383600501600101546040518363ffffffff1660e01b81526004016110969291906149d0565b6020604051808303816000875af11580156110b5573d6000803e3d6000fd5b505050506040513d601f19601f820116820180604052508101906110d99190614a25565b505b600080600285600001356040516020016110f793929190614a52565b6040516020818303038152906040529050600073__$a132ddf224bcaf7b77631cdf10c807360d$__63a2040cee909186600001356040518363ffffffff1660e01b8152600401611148929190614a98565b60006040518083038186803b15801561116057600080fd5b505af4158015611174573d6000803e3d6000fd5b50505050600660009054906101000a900473ffffffffffffffffffffffffffffffffffffffff1673ffffffffffffffffffffffffffffffffffffffff1663e4a8b2f934600860009054906101000a900461ffff1633856040518563ffffffff1660e01b81526004016111e893929190614729565b6000604051808303818588803b15801561120157600080fd5b505af1158015611215573d6000803e3d6000fd5b505050505083600001357ff68aeec8f55d67a9b2cf2b6caea31e11f2c14e09da250170575d63911f26aa6e60405160405180910390a2505050611256613448565b50565b6112616133f1565b80600001356000801b60008083815260200190815260200160002060000154036112b7576040517f5dcaf2d700000000000000000000000000000000000000000000000000000000815260040160405180910390fd5b60008260000135905060008360400135905060006001600084815260200190815260200160002060003373ffffffffffffffffffffffffffffffffffffffff1673ffffffffffffffffffffffffffffffffffffffff1681526020019081526020016000209050600073ffffffffffffffffffffffffffffffffffffffff168160020160019054906101000a900473ffffffffffffffffffffffffffffffffffffffff1673ffffffffffffffffffffffffffffffffffffffff16036113a7576040517f0a0c23ee00000000000000000000000000000000000000000000000000000000815260040160405180910390fd5b600080600085815260200190815260200160002090506000830361140257826040517fd9cf167e0000000000000000000000000000000000000000000000000000000081526004016113f99190613f24565b60405180910390fd5b828260000160008282546114169190614ac1565b925050819055508060050160010154826000015411156114715781600001546040517fd9cf167e0000000000000000000000000000000000000000000000000000000081526004016114689190613f24565b60405180910390fd5b60008160050190506000349050600073ffffffffffffffffffffffffffffffffffffffff168260000160009054906101000a900473ffffffffffffffffffffffffffffffffffffffff1673ffffffffffffffffffffffffffffffffffffffff161461152c576115273330878560000160009054906101000a900473ffffffffffffffffffffffffffffffffffffffff1673ffffffffffffffffffffffffffffffffffffffff16613461909392919063ffffffff16565b611580565b8434101561157157346040517fd9cf167e0000000000000000000000000000000000000000000000000000000081526004016115689190613f24565b60405180910390fd5b848161157d9190614895565b90505b60008060048a60405160200161159893929190614b92565b6040516020818303038152906040529050600660009054906101000a900473ffffffffffffffffffffffffffffffffffffffff1673ffffffffffffffffffffffffffffffffffffffff1663e4a8b2f983600860009054906101000a900461ffff1633856040518563ffffffff1660e01b815260040161161993929190614729565b6000604051808303818588803b15801561163257600080fd5b505af1158015611646573d6000803e3d6000fd5b505050505084600001548560020160019054906101000a900473ffffffffffffffffffffffffffffffffffffffff1673ffffffffffffffffffffffffffffffffffffffff168a600001357f7786094a5edc61a0463300b9b97a1b22d338bc800ed33404ba9a3888b71de0fc60405160405180910390a450505050505050506116cc613448565b50565b600082826000906020926116e593929190614bd3565b8101906116f29190614c33565b90506000600681111561170857611707613fee565b5b81600681111561171b5761171a613fee565b5b036118d8576000838360209060409261173693929190614bd3565b906117419190614c78565b905060008484604090809261175893929190614bd3565b8101906117659190614dc8565b905081600080848152602001908152602001600020600001819055508060600151600080848152602001908152602001600020600c0160006101000a81548160ff021916908315150217905550806000015160008084815260200190815260200160002060050160008201518160000160006101000a81548173ffffffffffffffffffffffffffffffffffffffff021916908373ffffffffffffffffffffffffffffffffffffffff16021790555060208201518160010155905050806040015160008084815260200190815260200160002060040160006101000a81548173ffffffffffffffffffffffffffffffffffffffff021916908373ffffffffffffffffffffffffffffffffffffffff16021790555080602001516007600084815260200190815260200160002060000160016101000a81548173ffffffffffffffffffffffffffffffffffffffff021916908373ffffffffffffffffffffffffffffffffffffffff1602179055505050611de3565b600160068111156118ec576118eb613fee565b5b8160068111156118ff576118fe613fee565b5b036119705760008383602090809261191993929190614bd3565b81019061192691906147bc565b905060026000808360000151815260200190815260200160002060010160006101000a81548160ff0219169083600381111561196557611964613fee565b5b021790555050611de2565b6002600681111561198457611983613fee565b5b81600681111561199757611996613fee565b5b03611a30576000838360209080926119b193929190614bd3565b906119bc9190614c78565b9050600073__$a132ddf224bcaf7b77631cdf10c807360d$__63a2040cee9091836040518363ffffffff1660e01b81526004016119fa929190614a98565b60006040518083038186803b158015611a1257600080fd5b505af4158015611a26573d6000803e3d6000fd5b5050505050611de1565b60036006811115611a4457611a43613fee565b5b816006811115611a5757611a56613fee565b5b03611af257600083836020908092611a7193929190614bd3565b810190611a7e9190614e81565b9050600173__$a132ddf224bcaf7b77631cdf10c807360d$__63cc76f9319091836040518363ffffffff1660e01b8152600401611abc929190614f2c565b60006040518083038186803b158015611ad457600080fd5b505af4158015611ae8573d6000803e3d6000fd5b5050505050611de0565b60056006811115611b0657611b05613fee565b5b816006811115611b1957611b18613fee565b5b03611d0457600083836020908092611b3393929190614bd3565b810190611b409190614fa5565b90506000816000015190506000826020015190506000806000848152602001908152602001600020600501905060006007600085815260200190815260200160002060000160019054906101000a900473ffffffffffffffffffffffffffffffffffffffff1690508160000160009054906101000a900473ffffffffffffffffffffffffffffffffffffffff1673ffffffffffffffffffffffffffffffffffffffff1673__$a132ddf224bcaf7b77631cdf10c807360d$__6343b03b5d90918385600101546003546103e8600260009054906101000a900473ffffffffffffffffffffffffffffffffffffffff166040518763ffffffff1660e01b8152600401611c4f969594939291906144e5565b60006040518083038186803b158015611c6757600080fd5b505af4158015611c7b573d6000803e3d6000fd5b50505050600180600086815260200190815260200160002060008573ffffffffffffffffffffffffffffffffffffffff1673ffffffffffffffffffffffffffffffffffffffff16815260200190815260200160002060020160006101000a81548160ff02191690836002811115611cf557611cf4613fee565b5b02179055505050505050611ddf565b60046006811115611d1857611d17613fee565b5b816006811115611d2b57611d2a613fee565b5b03611dde57600083836020908092611d4593929190614bd3565b810190611d529190615036565b905060008160000151905060008260200151905060006001600084815260200190815260200160002060008373ffffffffffffffffffffffffffffffffffffffff1673ffffffffffffffffffffffffffffffffffffffff16815260200190815260200160002090508360400151816000016000828254611dd29190614ac1565b92505081905550505050505b5b5b5b5b5b505050505050565b600081611df7906150b4565b60601c9050919050565b611e096133f1565b80606001356000801b6000808381526020019081526020016000206000015403611e5f576040517f5dcaf2d700000000000000000000000000000000000000000000000000000000815260040160405180910390fd5b60008260600135905060008360000135905060006001600084815260200190815260200160002060003373ffffffffffffffffffffffffffffffffffffffff1673ffffffffffffffffffffffffffffffffffffffff1681526020019081526020016000209050600073ffffffffffffffffffffffffffffffffffffffff168160020160019054906101000a900473ffffffffffffffffffffffffffffffffffffffff1673ffffffffffffffffffffffffffffffffffffffff1614611f4f576040517fb8cee9f000000000000000000000000000000000000000000000000000000000815260040160405180910390fd5b60008060008760600135815260200190815260200160002090508060070154831015611fb257826040517fd9cf167e000000000000000000000000000000000000000000000000000000008152600401611fa99190613f24565b60405180910390fd5b6000826000015484611fc49190614895565b9050600080600087815260200190815260200160002060050190506000349050600073ffffffffffffffffffffffffffffffffffffffff168260000160009054906101000a900473ffffffffffffffffffffffffffffffffffffffff1673ffffffffffffffffffffffffffffffffffffffff16146120925761208d3330858560000160009054906101000a900473ffffffffffffffffffffffffffffffffffffffff1673ffffffffffffffffffffffffffffffffffffffff16613461909392919063ffffffff16565b6120e6565b823410156120d757346040517fd9cf167e0000000000000000000000000000000000000000000000000000000081526004016120ce9190613f24565b60405180910390fd5b82816120e39190614895565b90505b600173__$a132ddf224bcaf7b77631cdf10c807360d$__63cc76f93190918b6040518363ffffffff1660e01b81526004016121229291906151ab565b60006040518083038186803b15801561213a57600080fd5b505af415801561214e573d6000803e3d6000fd5b5050505060008060038b60405160200161216a93929190615264565b6040516020818303038152906040529050600660009054906101000a900473ffffffffffffffffffffffffffffffffffffffff1673ffffffffffffffffffffffffffffffffffffffff1663e4a8b2f983600860009054906101000a900461ffff1633856040518563ffffffff1660e01b81526004016121eb93929190614729565b6000604051808303818588803b15801561220457600080fd5b505af1158015612218573d6000803e3d6000fd5b505050505050505050505050505061222e613448565b50565b60045481565b60006122416135f4565b905060008160000160089054906101000a900460ff1615905060008260000160009054906101000a900467ffffffffffffffff1690506000808267ffffffffffffffff1614801561228f5750825b9050600060018367ffffffffffffffff161480156122c4575060003073ffffffffffffffffffffffffffffffffffffffff163b145b9050811580156122d2575080155b15612309576040517ff92ee8a900000000000000000000000000000000000000000000000000000000815260040160405180910390fd5b60018560000160006101000a81548167ffffffffffffffff021916908367ffffffffffffffff16021790555083156123595760018560000160086101000a81548160ff0219169083151502179055505b61237486600001602081019061236f91906141f9565b61361c565b85803603810190612385919061533b565b73__$6f3146d13761fe4efe0c3dc8c4b43c2873$__63cf5bfc7c90916103e86040518363ffffffff1660e01b81526004016123c19291906153f2565b60006040518083038186803b1580156123d957600080fd5b505af41580156123ed573d6000803e3d6000fd5b5050505085608001356003819055508560a0013560048190555085606001602081019061241a91906141f9565b600260006101000a81548173ffffffffffffffffffffffffffffffffffffffff021916908373ffffffffffffffffffffffffffffffffffffffff16021790555085602001602081019061246d919061541b565b600860006101000a81548161ffff021916908361ffff16021790555085604001602081019061249c91906141f9565b600660006101000a81548173ffffffffffffffffffffffffffffffffffffffff021916908373ffffffffffffffffffffffffffffffffffffffff16021790555083156125385760008560000160086101000a81548160ff0219169083151502179055507fc7f505b2f371ae2175ee4913f4499e1f2633a7b5936321eed1cdaeb6115181d2600160405161252f9190615483565b60405180910390a15b505050505050565b60076020528060005260406000206000915090508060000160009054906101000a900460ff16908060000160019054906101000a900473ffffffffffffffffffffffffffffffffffffffff16908060010160009054906101000a900473ffffffffffffffffffffffffffffffffffffffff16908060010160149054906101000a900461ffff16908060010160169054906101000a900461ffff16905085565b6001602052816000526040600020602052806000526040600020600091509150508060000154908060010154908060020160009054906101000a900460ff16908060020160019054906101000a900473ffffffffffffffffffffffffffffffffffffffff16908060030160009054906101000a900473ffffffffffffffffffffffffffffffffffffffff16908060040154908060050154905087565b6126836136a2565b61268d6000613729565b565b60008061269a613800565b90508060000160008473ffffffffffffffffffffffffffffffffffffffff1673ffffffffffffffffffffffffffffffffffffffff16815260200190815260200160002054915050919050565b60035481565b6000806126f7613828565b90508060000160009054906101000a900473ffffffffffffffffffffffffffffffffffffffff1691505090565b61272c6133f1565b6000816000018036038101906127429190615554565b90508073__$5b078b893398f17544ec956d77642311f9$__6357fc12b090916040518263ffffffff1660e01b815260040161277d9190615650565b60006040518083038186803b15801561279557600080fd5b505af41580156127a9573d6000803e3d6000fd5b5050505060006127b833613850565b73__$a132ddf224bcaf7b77631cdf10c807360d$__6331ceee549091336040518363ffffffff1660e01b81526004016127f292919061566c565b602060405180830381865af415801561280f573d6000803e3d6000fd5b505050506040513d601f19601f8201168201806040525081019061283391906156aa565b9050600073__$a132ddf224bcaf7b77631cdf10c807360d$__632296d7e090918484336040518563ffffffff1660e01b815260040161287594939291906156d7565b60006040518083038186803b15801561288d57600080fd5b505af41580156128a1573d6000803e3d6000fd5b5050505060006040518060a001604052806001808111156128c5576128c4613fee565b5b8152602001856101200160208101906128de91906141f9565b73ffffffffffffffffffffffffffffffffffffffff168152602001600073ffffffffffffffffffffffffffffffffffffffff168152602001600860009054906101000a900461ffff1661ffff16815260200185610160016020810190612944919061541b565b61ffff168152509050806007600084815260200190815260200160002060008201518160000160006101000a81548160ff0219169083600181111561298c5761298b613fee565b5b021790555060208201518160000160016101000a81548173ffffffffffffffffffffffffffffffffffffffff021916908373ffffffffffffffffffffffffffffffffffffffff16021790555060408201518160010160006101000a81548173ffffffffffffffffffffffffffffffffffffffff021916908373ffffffffffffffffffffffffffffffffffffffff16021790555060608201518160010160146101000a81548161ffff021916908361ffff16021790555060808201518160010160166101000a81548161ffff021916908361ffff1602179055509050506000349050600073ffffffffffffffffffffffffffffffffffffffff1684600001516000015173ffffffffffffffffffffffffffffffffffffffff1603612b0f57836000015160200151341015612af4576040517f08c379a0000000000000000000000000000000000000000000000000000000008152600401612aeb9061577c565b60405180910390fd5b83600001516020015181612b089190614895565b9050612b4d565b612b4c333086600001516020015187600001516000015173ffffffffffffffffffffffffffffffffffffffff16613461909392919063ffffffff16565b5b60006040518060a001604052808660200151815260200187610120016020810190612b7891906141f9565b73ffffffffffffffffffffffffffffffffffffffff16815260200187610140016020810190612ba791906141f9565b73ffffffffffffffffffffffffffffffffffffffff1681526020018660c00151151581526020018660a00151815250905060008060008684604051602001612bf29493929190615842565b6040516020818303038152906040529050600660009054906101000a900473ffffffffffffffffffffffffffffffffffffffff1673ffffffffffffffffffffffffffffffffffffffff1663e4a8b2f984600860009054906101000a900461ffff1633856040518563ffffffff1660e01b8152600401612c7393929190614729565b6000604051808303818588803b158015612c8c57600080fd5b505af1158015612ca0573d6000803e3d6000fd5b5050505050847f8b82d32987f9a4ae1bc7868a6f104edb711227ec3c9fccb0416a14fcc29bec5a60405160405180910390a2505050505050612ce0613448565b50565b6005602052816000526040600020602052806000526040600020600091509150505481565b612d106133f1565b806000801b6000808381526020019081526020016000206000015403612d62576040517f5dcaf2d700000000000000000000000000000000000000000000000000000000815260040160405180910390fd5b60006001600084815260200190815260200160002060003373ffffffffffffffffffffffffffffffffffffffff1673ffffffffffffffffffffffffffffffffffffffff1681526020019081526020016000209050600073ffffffffffffffffffffffffffffffffffffffff168160020160019054906101000a900473ffffffffffffffffffffffffffffffffffffffff1673ffffffffffffffffffffffffffffffffffffffff1603612e40576040517fac96c2bd00000000000000000000000000000000000000000000000000000000815260040160405180910390fd5b3373ffffffffffffffffffffffffffffffffffffffff168160020160019054906101000a900473ffffffffffffffffffffffffffffffffffffffff1673ffffffffffffffffffffffffffffffffffffffff1614612ec9576040517f978f045600000000000000000000000000000000000000000000000000000000815260040160405180910390fd5b600280811115612edc57612edb613fee565b5b8160020160009054906101000a900460ff166002811115612f0057612eff613fee565b5b14612f53578060020160009054906101000a900460ff166040517f64b08c06000000000000000000000000000000000000000000000000000000008152600401612f4a9190614483565b60405180910390fd5b60008160020160006101000a81548160ff02191690836002811115612f7b57612f7a613fee565b5b021790555060008060008581526020019081526020016000206005019050600073ffffffffffffffffffffffffffffffffffffffff168160000160009054906101000a900473ffffffffffffffffffffffffffffffffffffffff1673ffffffffffffffffffffffffffffffffffffffff161461306d576130688260020160019054906101000a900473ffffffffffffffffffffffffffffffffffffffff1683600001548360000160009054906101000a900473ffffffffffffffffffffffffffffffffffffffff1673ffffffffffffffffffffffffffffffffffffffff166138b59092919063ffffffff16565b6130dd565b8160020160019054906101000a900473ffffffffffffffffffffffffffffffffffffffff1673ffffffffffffffffffffffffffffffffffffffff166108fc83600001549081150290604051600060405180830381858888f193505050501580156130db573d6000803e3d6000fd5b505b6000806005866040516020016130f593929190614a52565b6040516020818303038152906040529050600660009054906101000a900473ffffffffffffffffffffffffffffffffffffffff1673ffffffffffffffffffffffffffffffffffffffff1663e4a8b2f934600860009054906101000a900461ffff1633856040518563ffffffff1660e01b815260040161317693929190614729565b6000604051808303818588803b15801561318f57600080fd5b505af11580156131a3573d6000803e3d6000fd5b5050505050505050506131b4613448565b50565b600660009054906101000a900473ffffffffffffffffffffffffffffffffffffffff1681565b6131e56136a2565b600073ffffffffffffffffffffffffffffffffffffffff168173ffffffffffffffffffffffffffffffffffffffff16036132575760006040517f1e4fbdf700000000000000000000000000000000000000000000000000000000815260040161324e9190613ea4565b60405180910390fd5b61326081613729565b50565b60006020528060005260406000206000915090508060000154908060010160009054906101000a900460ff16908060010160019054906101000a900473ffffffffffffffffffffffffffffffffffffffff1690806002016040518060400160405290816000820160009054906101000a900473ffffffffffffffffffffffffffffffffffffffff1673ffffffffffffffffffffffffffffffffffffffff1673ffffffffffffffffffffffffffffffffffffffff168152602001600182015481525050908060040160009054906101000a900473ffffffffffffffffffffffffffffffffffffffff1690806005016040518060400160405290816000820160009054906101000a900473ffffffffffffffffffffffffffffffffffffffff1673ffffffffffffffffffffffffffffffffffffffff1673ffffffffffffffffffffffffffffffffffffffff1681526020016001820154815250509080600701549080600801549080600901549080600a01549080600b01549080600c0160009054906101000a900460ff1690508c565b60006133fb61397d565b9050600281600001540361343b576040517f3ee5aeb500000000000000000000000000000000000000000000000000000000815260040160405180910390fd5b6002816000018190555050565b600061345261397d565b90506001816000018190555050565b600084905060008173ffffffffffffffffffffffffffffffffffffffff1663dd62ed3e33306040518363ffffffff1660e01b81526004016134a392919061445a565b602060405180830381865afa1580156134c0573d6000803e3d6000fd5b505050506040513d601f19601f820116820180604052508101906134e4919061589d565b90508281101561352d5780836040517f7c8db62f00000000000000000000000000000000000000000000000000000000815260040161352492919061449e565b60405180910390fd5b8173ffffffffffffffffffffffffffffffffffffffff166323b872dd8686866040518463ffffffff1660e01b815260040161356a939291906158ca565b6020604051808303816000875af1158015613589573d6000803e3d6000fd5b505050506040513d601f19601f820116820180604052508101906135ad9190614a25565b6135ec576040517f08c379a00000000000000000000000000000000000000000000000000000000081526004016135e39061594d565b60405180910390fd5b505050505050565b60007ff0c57e16840df040f15088dc2f81fe391c3923bec73e23a9662efc9c229c6a00905090565b6136246139a5565b600073ffffffffffffffffffffffffffffffffffffffff168173ffffffffffffffffffffffffffffffffffffffff16036136965760006040517f1e4fbdf700000000000000000000000000000000000000000000000000000000815260040161368d9190613ea4565b60405180910390fd5b61369f81613729565b50565b6136aa6139e5565b73ffffffffffffffffffffffffffffffffffffffff166136c86126ec565b73ffffffffffffffffffffffffffffffffffffffff1614613727576136eb6139e5565b6040517f118cdaa700000000000000000000000000000000000000000000000000000000815260040161371e9190613ea4565b60405180910390fd5b565b6000613733613828565b905060008160000160009054906101000a900473ffffffffffffffffffffffffffffffffffffffff169050828260000160006101000a81548173ffffffffffffffffffffffffffffffffffffffff021916908373ffffffffffffffffffffffffffffffffffffffff1602179055508273ffffffffffffffffffffffffffffffffffffffff168173ffffffffffffffffffffffffffffffffffffffff167f8be0079c531659141344cd1fd0a4f28419497f9722a3daafe3b4186f6b6457e060405160405180910390a3505050565b60007f5ab42ced628888259c08ac98db1eb0cf702fc1501344311d8b100cd1bfe4bb00905090565b60007f9016d09d72d40fdae2fd8ceac6b6234c7706214fd39c1cd1e609a0528c199300905090565b60008061385b613800565b90508060000160008473ffffffffffffffffffffffffffffffffffffffff1673ffffffffffffffffffffffffffffffffffffffff168152602001908152602001600020600081548092919060010191905055915050919050565b60008390508073ffffffffffffffffffffffffffffffffffffffff1663a9059cbb84846040518363ffffffff1660e01b81526004016138f59291906149d0565b6020604051808303816000875af1158015613914573d6000803e3d6000fd5b505050506040513d601f19601f820116820180604052508101906139389190614a25565b613977576040517f08c379a000000000000000000000000000000000000000000000000000000000815260040161396e9061594d565b60405180910390fd5b50505050565b60007f9b779b17422d0df92223018b32b4d1fa46e071723d6817e2486d003becc55f00905090565b6139ad6139ed565b6139e3576040517fd7e6bcf800000000000000000000000000000000000000000000000000000000815260040160405180910390fd5b565b600033905090565b60006139f76135f4565b60000160089054906101000a900460ff16905090565b6000604051905090565b600080fd5b600080fd5b600080fd5b600060408284031215613a3c57613a3b613a21565b5b81905092915050565b600060408284031215613a5b57613a5a613a17565b5b6000613a6984828501613a26565b91505092915050565b600060408284031215613a8857613a87613a21565b5b81905092915050565b600060408284031215613aa757613aa6613a17565b5b6000613ab584828501613a72565b91505092915050565b600060208284031215613ad457613ad3613a21565b5b81905092915050565b600060208284031215613af357613af2613a17565b5b6000613b0184828501613abe565b91505092915050565b600060608284031215613b2057613b1f613a21565b5b81905092915050565b600060608284031215613b3f57613b3e613a17565b5b6000613b4d84828501613b0a565b91505092915050565b600061ffff82169050919050565b613b6d81613b56565b8114613b7857600080fd5b50565b600081359050613b8a81613b64565b92915050565b600080fd5b600080fd5b6000601f19601f8301169050919050565b7f4e487b7100000000000000000000000000000000000000000000000000000000600052604160045260246000fd5b613be382613b9a565b810181811067ffffffffffffffff82111715613c0257613c01613bab565b5b80604052505050565b6000613c15613a0d565b9050613c218282613bda565b919050565b600067ffffffffffffffff821115613c4157613c40613bab565b5b613c4a82613b9a565b9050602081019050919050565b82818337600083830152505050565b6000613c79613c7484613c26565b613c0b565b905082815260208101848484011115613c9557613c94613b95565b5b613ca0848285613c57565b509392505050565b600082601f830112613cbd57613cbc613b90565b5b8135613ccd848260208601613c66565b91505092915050565b600067ffffffffffffffff82169050919050565b613cf381613cd6565b8114613cfe57600080fd5b50565b600081359050613d1081613cea565b92915050565b600080fd5b600080fd5b60008083601f840112613d3657613d35613b90565b5b8235905067ffffffffffffffff811115613d5357613d52613d16565b5b602083019150836001820283011115613d6f57613d6e613d1b565b5b9250929050565b600080600080600060808688031215613d9257613d91613a17565b5b6000613da088828901613b7b565b955050602086013567ffffffffffffffff811115613dc157613dc0613a1c565b5b613dcd88828901613ca8565b9450506040613dde88828901613d01565b935050606086013567ffffffffffffffff811115613dff57613dfe613a1c565b5b613e0b88828901613d20565b92509250509295509295909350565b600060208284031215613e3057613e2f613a17565b5b600082013567ffffffffffffffff811115613e4e57613e4d613a1c565b5b613e5a84828501613ca8565b91505092915050565b600073ffffffffffffffffffffffffffffffffffffffff82169050919050565b6000613e8e82613e63565b9050919050565b613e9e81613e83565b82525050565b6000602082019050613eb96000830184613e95565b92915050565b600060a08284031215613ed557613ed4613a21565b5b81905092915050565b600060a08284031215613ef457613ef3613a17565b5b6000613f0284828501613ebf565b91505092915050565b6000819050919050565b613f1e81613f0b565b82525050565b6000602082019050613f396000830184613f15565b92915050565b600060c08284031215613f5557613f54613a21565b5b81905092915050565b600060c08284031215613f7457613f73613a17565b5b6000613f8284828501613f3f565b91505092915050565b6000819050919050565b613f9e81613f8b565b8114613fa957600080fd5b50565b600081359050613fbb81613f95565b92915050565b600060208284031215613fd757613fd6613a17565b5b6000613fe584828501613fac565b91505092915050565b7f4e487b7100000000000000000000000000000000000000000000000000000000600052602160045260246000fd5b6002811061402e5761402d613fee565b5b50565b600081905061403f8261401d565b919050565b600061404f82614031565b9050919050565b61405f81614044565b82525050565b61406e81613b56565b82525050565b600060a0820190506140896000830188614056565b6140966020830187613e95565b6140a36040830186613e95565b6140b06060830185614065565b6140bd6080830184614065565b9695505050505050565b6140d081613e83565b81146140db57600080fd5b50565b6000813590506140ed816140c7565b92915050565b6000806040838503121561410a57614109613a17565b5b600061411885828601613fac565b9250506020614129858286016140de565b9150509250929050565b61413c81613f8b565b82525050565b6003811061415357614152613fee565b5b50565b600081905061416482614142565b919050565b600061417482614156565b9050919050565b61418481614169565b82525050565b600060e08201905061419f600083018a613f15565b6141ac6020830189614133565b6141b9604083018861417b565b6141c66060830187613e95565b6141d36080830186613e95565b6141e060a0830185613f15565b6141ed60c0830184613f15565b98975050505050505050565b60006020828403121561420f5761420e613a17565b5b600061421d848285016140de565b91505092915050565b6000610180828403121561423d5761423c613a21565b5b81905092915050565b6000610180828403121561425d5761425c613a17565b5b600061426b84828501614226565b91505092915050565b6000819050919050565b600061429961429461428f84613e63565b614274565b613e63565b9050919050565b60006142ab8261427e565b9050919050565b60006142bd826142a0565b9050919050565b6142cd816142b2565b82525050565b60006020820190506142e860008301846142c4565b92915050565b600481106142ff576142fe613fee565b5b50565b6000819050614310826142ee565b919050565b600061432082614302565b9050919050565b61433081614315565b82525050565b61433f81613e83565b82525050565b61434e81613f0b565b82525050565b60408201600082015161436a6000850182614336565b50602082015161437d6020850182614345565b50505050565b60008115159050919050565b61439881614383565b82525050565b60006101c0820190506143b4600083018f614133565b6143c1602083018e614327565b6143ce604083018d613e95565b6143db606083018c614354565b6143e860a083018b613e95565b6143f560c083018a614354565b614403610100830189613f15565b614411610120830188613f15565b61441f610140830187613f15565b61442d610160830186613f15565b61443b610180830185613f15565b6144496101a083018461438f565b9d9c50505050505050505050505050565b600060408201905061446f6000830185613e95565b61447c6020830184613e95565b9392505050565b6000602082019050614498600083018461417b565b92915050565b60006040820190506144b36000830185613f15565b6144c06020830184613f15565b9392505050565b6144d081613e83565b82525050565b6144df81613f0b565b82525050565b600060c0820190506144fa60008301896144c7565b61450760208301886144c7565b61451460408301876144d6565b61452160608301866144d6565b61452e60808301856144d6565b61453b60a08301846144c7565b979650505050505050565b6000819050919050565b600060ff82169050919050565b600061457861457361456e84614546565b614274565b614550565b9050919050565b6145888161455d565b82525050565b6007811061459f5761459e613fee565b5b50565b60008190506145b08261458e565b919050565b60006145c0826145a2565b9050919050565b6145d0816145b5565b82525050565b60006145e56020840184613fac565b905092915050565b6145f681613f8b565b82525050565b600061460b60208401846140de565b905092915050565b6040820161462460008301836145d6565b61463160008501826145ed565b5061463f60208301836145fc565b61464c6020850182614336565b50505050565b6000608082019050614667600083018661457f565b61467460208301856145c7565b6146816040830184614613565b949350505050565b600061469482613e63565b9050919050565b6146a481614689565b82525050565b600081519050919050565b600082825260208201905092915050565b60005b838110156146e45780820151818401526020810190506146c9565b60008484015250505050565b60006146fb826146aa565b61470581856146b5565b93506147158185602086016146c6565b61471e81613b9a565b840191505092915050565b600060608201905061473e6000830186614065565b61474b602083018561469b565b818103604083015261475d81846146f0565b9050949350505050565b600080fd5b60006040828403121561478257614781614767565b5b61478c6040613c0b565b9050600061479c84828501613fac565b60008301525060206147b0848285016140de565b60208301525092915050565b6000604082840312156147d2576147d1613a17565b5b60006147e08482850161476c565b91505092915050565b6147f281613f8b565b82525050565b61480181613e83565b82525050565b60408201600082015161481d60008501826147e9565b50602082015161483060208501826147f8565b50505050565b8082525050565b60006060820190506148526000830185614807565b61485f6040830184614836565b9392505050565b7f4e487b7100000000000000000000000000000000000000000000000000000000600052601160045260246000fd5b60006148a082613f0b565b91506148ab83613f0b565b92508282039050818111156148c3576148c2614866565b5b92915050565b600060e0820190506148de600083018a6144c7565b6148eb60208301896144c7565b6148f860408301886144c7565b61490560608301876144d6565b61491260808301866144d6565b61491f60a08301856144d6565b61492c60c08301846144c7565b98975050505050505050565b6040820161494960008301836145d6565b61495660008501826145ed565b5061496460208301836145fc565b6149716020850182614336565b50505050565b600060808201905061498c600083018661457f565b61499960208301856145c7565b6149a66040830184614938565b949350505050565b8082525050565b60006020820190506149ca60008301846149ae565b92915050565b60006040820190506149e56000830185613e95565b6149f26020830184613f15565b9392505050565b614a0281614383565b8114614a0d57600080fd5b50565b600081519050614a1f816149f9565b92915050565b600060208284031215614a3b57614a3a613a17565b5b6000614a4984828501614a10565b91505092915050565b6000606082019050614a67600083018661457f565b614a7460208301856145c7565b614a816040830184614133565b949350505050565b614a9281613f8b565b82525050565b6000604082019050614aad6000830185614836565b614aba6020830184614a89565b9392505050565b6000614acc82613f0b565b9150614ad783613f0b565b9250828201905080821115614aef57614aee614866565b5b92915050565b614afe81613f0b565b8114614b0957600080fd5b50565b600081359050614b1b81614af5565b92915050565b6000614b306020840184614b0c565b905092915050565b60608201614b4960008301836145d6565b614b5660008501826145ed565b50614b6460208301836145fc565b614b716020850182614336565b50614b7f6040830183614b21565b614b8c6040850182614345565b50505050565b600060a082019050614ba7600083018661457f565b614bb460208301856145c7565b614bc16040830184614b38565b949350505050565b600080fd5b600080fd5b60008085851115614be757614be6614bc9565b5b83861115614bf857614bf7614bce565b5b6001850283019150848603905094509492505050565b60078110614c1b57600080fd5b50565b600081359050614c2d81614c0e565b92915050565b600060208284031215614c4957614c48613a17565b5b6000614c5784828501614c1e565b91505092915050565b600082905092915050565b600082821b905092915050565b6000614c848383614c60565b82614c8f8135613f8b565b92506020821015614ccf57614cca7fffffffffffffffffffffffffffffffffffffffffffffffffffffffffffffffff83602003600802614c6b565b831692505b505092915050565b600060408284031215614ced57614cec614767565b5b614cf76040613c0b565b90506000614d07848285016140de565b6000830152506020614d1b84828501614b0c565b60208301525092915050565b600081359050614d36816149f9565b92915050565b600060c08284031215614d5257614d51614767565b5b614d5c60a0613c0b565b90506000614d6c84828501614cd7565b6000830152506040614d80848285016140de565b6020830152506060614d94848285016140de565b6040830152506080614da884828501614d27565b60608301525060a0614dbc84828501614b0c565b60808301525092915050565b600060c08284031215614dde57614ddd613a17565b5b6000614dec84828501614d3c565b91505092915050565b600060a08284031215614e0b57614e0a614767565b5b614e1560a0613c0b565b90506000614e2584828501614b0c565b6000830152506020614e39848285016140de565b6020830152506040614e4d848285016140de565b6040830152506060614e6184828501613fac565b6060830152506080614e7584828501614b0c565b60808301525092915050565b600060a08284031215614e9757614e96613a17565b5b6000614ea584828501614df5565b91505092915050565b8082525050565b614ebe81613f0b565b82525050565b60a082016000820151614eda6000850182614eb5565b506020820151614eed60208501826147f8565b506040820151614f0060408501826147f8565b506060820151614f1360608501826147e9565b506080820151614f266080850182614eb5565b50505050565b600060c082019050614f416000830185614eae565b614f4e6020830184614ec4565b9392505050565b600060408284031215614f6b57614f6a614767565b5b614f756040613c0b565b90506000614f8584828501613fac565b6000830152506020614f99848285016140de565b60208301525092915050565b600060408284031215614fbb57614fba613a17565b5b6000614fc984828501614f55565b91505092915050565b600060608284031215614fe857614fe7614767565b5b614ff26060613c0b565b9050600061500284828501613fac565b6000830152506020615016848285016140de565b602083015250604061502a84828501614b0c565b60408301525092915050565b60006060828403121561504c5761504b613a17565b5b600061505a84828501614fd2565b91505092915050565b6000819050602082019050919050565b60007fffffffffffffffffffffffffffffffffffffffff00000000000000000000000082169050919050565b60006150ab8251615073565b80915050919050565b60006150bf826146aa565b826150c984615063565b90506150d48161509f565b925060148210156151145761510f7fffffffffffffffffffffffffffffffffffffffff00000000000000000000000083601403600802614c6b565b831692505b5050919050565b60a0820161512c6000830183614b21565b6151396000850182614eb5565b5061514760208301836145fc565b61515460208501826147f8565b5061516260408301836145fc565b61516f60408501826147f8565b5061517d60608301836145d6565b61518a60608501826147e9565b506151986080830183614b21565b6151a56080850182614eb5565b50505050565b600060c0820190506151c06000830185614eae565b6151cd602083018461511b565b9392505050565b60a082016151e56000830183614b21565b6151f26000850182614345565b5061520060208301836145fc565b61520d6020850182614336565b5061521b60408301836145fc565b6152286040850182614336565b5061523660608301836145d6565b61524360608501826145ed565b506152516080830183614b21565b61525e6080850182614345565b50505050565b600060e082019050615279600083018661457f565b61528660208301856145c7565b61529360408301846151d4565b949350505050565b600060c082840312156152b1576152b0614767565b5b6152bb60c0613c0b565b905060006152cb848285016140de565b60008301525060206152df84828501613b7b565b60208301525060406152f3848285016140de565b6040830152506060615307848285016140de565b606083015250608061531b84828501614b0c565b60808301525060a061532f84828501614b0c565b60a08301525092915050565b600060c0828403121561535157615350613a17565b5b600061535f8482850161529b565b91505092915050565b61537181613b56565b82525050565b60c08201600082015161538d60008501826147f8565b5060208201516153a06020850182615368565b5060408201516153b360408501826147f8565b5060608201516153c660608501826147f8565b5060808201516153d96080850182614eb5565b5060a08201516153ec60a0850182614eb5565b50505050565b600060e0820190506154076000830185615377565b61541460c08301846144d6565b9392505050565b60006020828403121561543157615430613a17565b5b600061543f84828501613b7b565b91505092915050565b6000819050919050565b600061546d61546861546384615448565b614274565b613cd6565b9050919050565b61547d81615452565b82525050565b60006020820190506154986000830184615474565b92915050565b600061012082840312156154b5576154b4614767565b5b6154bf60e0613c0b565b905060006154cf84828501614cd7565b60008301525060406154e384828501614cd7565b60208301525060806154f7848285016140de565b60408301525060a061550b848285016140de565b60608301525060c061551f84828501614b0c565b60808301525060e061553384828501614b0c565b60a08301525061010061554884828501614d27565b60c08301525092915050565b6000610120828403121561556b5761556a613a17565b5b60006155798482850161549e565b91505092915050565b60408201600082015161559860008501826147f8565b5060208201516155ab6020850182614eb5565b50505050565b6155ba81614383565b82525050565b610120820160008201516155d76000850182615582565b5060208201516155ea6040850182615582565b5060408201516155fd60808501826147f8565b50606082015161561060a08501826147f8565b50608082015161562360c0850182614eb5565b5060a082015161563660e0850182614eb5565b5060c082015161564a6101008501826155b1565b50505050565b60006101208201905061566660008301846155c0565b92915050565b600060408201905061568160008301856144d6565b61568e60208301846144c7565b9392505050565b6000815190506156a481613f95565b92915050565b6000602082840312156156c0576156bf613a17565b5b60006156ce84828501615695565b91505092915050565b6000610180820190506156ed6000830187614836565b6156fa60208301866155c0565b615708610140830185614a89565b6157166101608301846144c7565b95945050505050565b600082825260208201905092915050565b7f4e6f7420656e6f75676820657468657200000000000000000000000000000000600082015250565b600061576660108361571f565b915061577182615730565b602082019050919050565b6000602082019050818103600083015261579581615759565b9050919050565b6040820160008201516157b26000850182614336565b5060208201516157c56020850182614345565b50505050565b6157d481614383565b82525050565b60c0820160008201516157f0600085018261579c565b5060208201516158036040850182614336565b5060408201516158166060850182614336565b50606082015161582960808501826157cb565b50608082015161583c60a0850182614345565b50505050565b600061012082019050615858600083018761457f565b61586560208301866145c7565b6158726040830185614133565b61587f60608301846157da565b95945050505050565b60008151905061589781614af5565b92915050565b6000602082840312156158b3576158b2613a17565b5b60006158c184828501615888565b91505092915050565b60006060820190506158df6000830186613e95565b6158ec6020830185613e95565b6158f96040830184613f15565b949350505050565b7f4661696c656420746f207472616e736665722066726f6d000000000000000000600082015250565b600061593760178361571f565b915061594282615901565b602082019050919050565b600060208201905081810360008301526159668161592a565b905091905056fea264697066735822122098002c5d1cf36c8a7f4015ff4eae3203ffc05841c7a687a346ba910240d9805864736f6c63430008140033",
  "linkReferences": {
    "contracts/abstracts/libs/AtomicSwapHelper.sol": {
      "AtomicSwapHelper": [
        {
          "length": 20,
          "start": 2147
        },
        {
          "length": 20,
          "start": 3185
        },
        {
          "length": 20,
          "start": 4397
        },
        {
          "length": 20,
          "start": 6627
        },
        {
          "length": 20,
          "start": 6821
        },
        {
          "length": 20,
          "start": 7174
        },
        {
          "length": 20,
          "start": 8459
        },
        {
          "length": 20,
          "start": 10203
        },
        {
          "length": 20,
          "start": 10330
        }
      ]
    },
    "contracts/abstracts/libs/AtomicSwapMsgValidator.sol": {
      "AtomicSwapMsgValidator": [
        {
          "length": 20,
          "start": 2760
        },
        {
          "length": 20,
          "start": 3853
        },
        {
          "length": 20,
          "start": 10088
        }
      ]
    },
    "contracts/interchain_atomicswap/libs/InterchainAtomicSwapLogic.sol": {
      "InterchainAtomicSwapLogic": [
        {
          "length": 20,
          "start": 9128
        }
      ]
    }
  },
  "deployedLinkReferences": {
    "contracts/abstracts/libs/AtomicSwapHelper.sol": {
      "AtomicSwapHelper": [
        {
          "length": 20,
          "start": 2114
        },
        {
          "length": 20,
          "start": 3152
        },
        {
          "length": 20,
          "start": 4364
        },
        {
          "length": 20,
          "start": 6594
        },
        {
          "length": 20,
          "start": 6788
        },
        {
          "length": 20,
          "start": 7141
        },
        {
          "length": 20,
          "start": 8426
        },
        {
          "length": 20,
          "start": 10170
        },
        {
          "length": 20,
          "start": 10297
        }
      ]
    },
    "contracts/abstracts/libs/AtomicSwapMsgValidator.sol": {
      "AtomicSwapMsgValidator": [
        {
          "length": 20,
          "start": 2727
        },
        {
          "length": 20,
          "start": 3820
        },
        {
          "length": 20,
          "start": 10055
        }
      ]
    },
    "contracts/interchain_atomicswap/libs/InterchainAtomicSwapLogic.sol": {
      "InterchainAtomicSwapLogic": [
        {
          "length": 20,
          "start": 9095
        }
      ]
    }
  }
}