{
  "_format": "hh-sol-artifact-1",
  "contractName": "Vault",
  "sourceName": "contracts/vault/Vault.sol",
  "abi": [
    {
      "inputs": [
        {
          "internalType": "string",
          "name": "name",
          "type": "string"
        }
      ],
      "stateMutability": "nonpayable",
      "type": "constructor"
    },
    {
      "inputs": [],
      "name": "ECDSAInvalidSignature",
      "type": "error"
    },
    {
      "inputs": [
        {
          "internalType": "uint256",
          "name": "length",
          "type": "uint256"
        }
      ],
      "name": "ECDSAInvalidSignatureLength",
      "type": "error"
    },
    {
      "inputs": [
        {
          "internalType": "bytes32",
          "name": "s",
          "type": "bytes32"
        }
      ],
      "name": "ECDSAInvalidSignatureS",
      "type": "error"
    },
    {
      "inputs": [
        {
          "internalType": "address",
          "name": "account",
          "type": "address"
        },
        {
          "internalType": "uint256",
          "name": "currentNonce",
          "type": "uint256"
        }
      ],
      "name": "InvalidAccountNonce",
      "type": "error"
    },
    {
      "inputs": [],
      "name": "InvalidShortString",
      "type": "error"
    },
    {
      "inputs": [
        {
          "internalType": "string",
          "name": "str",
          "type": "string"
        }
      ],
      "name": "StringTooLong",
      "type": "error"
    },
    {
      "inputs": [
        {
          "internalType": "uint256",
          "name": "deadline",
          "type": "uint256"
        }
      ],
      "name": "VaultExpiredSignature",
      "type": "error"
    },
    {
      "inputs": [
        {
          "internalType": "address",
          "name": "spender",
          "type": "address"
        },
        {
          "internalType": "uint256",
          "name": "currentAllowance",
          "type": "uint256"
        },
        {
          "internalType": "uint256",
          "name": "value",
          "type": "uint256"
        }
      ],
      "name": "VaultInsufficientAllowance",
      "type": "error"
    },
    {
      "inputs": [
        {
          "internalType": "address",
          "name": "token",
          "type": "address"
        },
        {
          "internalType": "address",
          "name": "from",
          "type": "address"
        },
        {
          "internalType": "uint256",
          "name": "fromBalance",
          "type": "uint256"
        },
        {
          "internalType": "uint256",
          "name": "value",
          "type": "uint256"
        }
      ],
      "name": "VaultInsufficientBalance",
      "type": "error"
    },
    {
      "inputs": [
        {
          "internalType": "address",
          "name": "approver",
          "type": "address"
        }
      ],
      "name": "VaultInvalidApprover",
      "type": "error"
    },
    {
      "inputs": [
        {
          "internalType": "address",
          "name": "receiver",
          "type": "address"
        }
      ],
      "name": "VaultInvalidReceiver",
      "type": "error"
    },
    {
      "inputs": [
        {
          "internalType": "address",
          "name": "sender",
          "type": "address"
        }
      ],
      "name": "VaultInvalidSender",
      "type": "error"
    },
    {
      "inputs": [
        {
          "internalType": "address",
          "name": "signer",
          "type": "address"
        },
        {
          "internalType": "address",
          "name": "owner",
          "type": "address"
        }
      ],
      "name": "VaultInvalidSigner",
      "type": "error"
    },
    {
      "inputs": [
        {
          "internalType": "address",
          "name": "spender",
          "type": "address"
        }
      ],
      "name": "VaultInvalidSpender",
      "type": "error"
    },
    {
      "anonymous": false,
      "inputs": [
        {
          "indexed": true,
          "internalType": "address",
          "name": "token",
          "type": "address"
        },
        {
          "indexed": true,
          "internalType": "address",
          "name": "from",
          "type": "address"
        },
        {
          "indexed": false,
          "internalType": "uint256",
          "name": "value",
          "type": "uint256"
        }
      ],
      "name": "Deposit",
      "type": "event"
    },
    {
      "anonymous": false,
      "inputs": [],
      "name": "EIP712DomainChanged",
      "type": "event"
    },
    {
      "anonymous": false,
      "inputs": [
        {
          "indexed": true,
          "internalType": "address",
          "name": "owner",
          "type": "address"
        },
        {
          "indexed": true,
          "internalType": "address",
          "name": "spender",
          "type": "address"
        },
        {
          "indexed": true,
          "internalType": "uint256",
          "name": "value",
          "type": "uint256"
        }
      ],
      "name": "VaultApproval",
      "type": "event"
    },
    {
      "anonymous": false,
      "inputs": [
        {
          "indexed": false,
          "internalType": "address",
          "name": "token",
          "type": "address"
        },
        {
          "indexed": false,
          "internalType": "address",
          "name": "from",
          "type": "address"
        },
        {
          "indexed": false,
          "internalType": "address",
          "name": "to",
          "type": "address"
        },
        {
          "indexed": false,
          "internalType": "uint256",
          "name": "value",
          "type": "uint256"
        }
      ],
      "name": "VaultTransfer",
      "type": "event"
    },
    {
      "anonymous": false,
      "inputs": [
        {
          "indexed": true,
          "internalType": "address",
          "name": "token",
          "type": "address"
        },
        {
          "indexed": true,
          "internalType": "address",
          "name": "to",
          "type": "address"
        },
        {
          "indexed": false,
          "internalType": "uint256",
          "name": "value",
          "type": "uint256"
        }
      ],
      "name": "Withdrawal",
      "type": "event"
    },
    {
      "stateMutability": "payable",
      "type": "fallback"
    },
    {
      "inputs": [],
      "name": "DOMAIN_SEPARATOR",
      "outputs": [
        {
          "internalType": "bytes32",
          "name": "",
          "type": "bytes32"
        }
      ],
      "stateMutability": "view",
      "type": "function"
    },
    {
      "inputs": [
        {
          "internalType": "address",
          "name": "token",
          "type": "address"
        },
        {
          "internalType": "address",
          "name": "owner",
          "type": "address"
        },
        {
          "internalType": "address",
          "name": "spender",
          "type": "address"
        }
      ],
      "name": "allowance",
      "outputs": [
        {
          "internalType": "uint256",
          "name": "",
          "type": "uint256"
        }
      ],
      "stateMutability": "view",
      "type": "function"
    },
    {
      "inputs": [
        {
          "internalType": "address",
          "name": "token",
          "type": "address"
        },
        {
          "internalType": "address",
          "name": "spender",
          "type": "address"
        },
        {
          "internalType": "uint256",
          "name": "value",
          "type": "uint256"
        }
      ],
      "name": "approve",
      "outputs": [
        {
          "internalType": "bool",
          "name": "",
          "type": "bool"
        }
      ],
      "stateMutability": "nonpayable",
      "type": "function"
    },
    {
      "inputs": [
        {
          "internalType": "address",
          "name": "account",
          "type": "address"
        },
        {
          "internalType": "address",
          "name": "token",
          "type": "address"
        }
      ],
      "name": "balanceOf",
      "outputs": [
        {
          "internalType": "uint256",
          "name": "",
          "type": "uint256"
        }
      ],
      "stateMutability": "view",
      "type": "function"
    },
    {
      "inputs": [
        {
          "internalType": "address",
          "name": "token",
          "type": "address"
        },
        {
          "internalType": "uint256",
          "name": "amount",
          "type": "uint256"
        }
      ],
      "name": "deposit",
      "outputs": [],
      "stateMutability": "payable",
      "type": "function"
    },
    {
      "inputs": [],
      "name": "eip712Domain",
      "outputs": [
        {
          "internalType": "bytes1",
          "name": "fields",
          "type": "bytes1"
        },
        {
          "internalType": "string",
          "name": "name",
          "type": "string"
        },
        {
          "internalType": "string",
          "name": "version",
          "type": "string"
        },
        {
          "internalType": "uint256",
          "name": "chainId",
          "type": "uint256"
        },
        {
          "internalType": "address",
          "name": "verifyingContract",
          "type": "address"
        },
        {
          "internalType": "bytes32",
          "name": "salt",
          "type": "bytes32"
        },
        {
          "internalType": "uint256[]",
          "name": "extensions",
          "type": "uint256[]"
        }
      ],
      "stateMutability": "view",
      "type": "function"
    },
    {
      "inputs": [
        {
          "internalType": "address",
          "name": "owner",
          "type": "address"
        }
      ],
      "name": "nonces",
      "outputs": [
        {
          "internalType": "uint256",
          "name": "",
          "type": "uint256"
        }
      ],
      "stateMutability": "view",
      "type": "function"
    },
    {
      "inputs": [
        {
          "internalType": "address",
          "name": "token",
          "type": "address"
        },
        {
          "internalType": "address",
          "name": "owner",
          "type": "address"
        },
        {
          "internalType": "address",
          "name": "spender",
          "type": "address"
        },
        {
          "internalType": "uint256",
          "name": "value",
          "type": "uint256"
        },
        {
          "components": [
            {
              "internalType": "uint256",
              "name": "deadline",
              "type": "uint256"
            },
            {
              "internalType": "uint8",
              "name": "v",
              "type": "uint8"
            },
            {
              "internalType": "bytes32",
              "name": "r",
              "type": "bytes32"
            },
            {
              "internalType": "bytes32",
              "name": "s",
              "type": "bytes32"
            },
            {
              "internalType": "address",
              "name": "sender",
              "type": "address"
            }
          ],
          "internalType": "struct IAtomicSwapBase.PermitSignature",
          "name": "signature",
          "type": "tuple"
        }
      ],
      "name": "permit",
      "outputs": [],
      "stateMutability": "nonpayable",
      "type": "function"
    },
    {
      "inputs": [
        {
          "internalType": "address",
          "name": "token",
          "type": "address"
        },
        {
          "internalType": "address",
          "name": "to",
          "type": "address"
        },
        {
          "internalType": "uint256",
          "name": "value",
          "type": "uint256"
        }
      ],
      "name": "transfer",
      "outputs": [
        {
          "internalType": "bool",
          "name": "",
          "type": "bool"
        }
      ],
      "stateMutability": "nonpayable",
      "type": "function"
    },
    {
      "inputs": [
        {
          "internalType": "address",
          "name": "token",
          "type": "address"
        },
        {
          "internalType": "address",
          "name": "from",
          "type": "address"
        },
        {
          "internalType": "address",
          "name": "to",
          "type": "address"
        },
        {
          "internalType": "uint256",
          "name": "value",
          "type": "uint256"
        }
      ],
      "name": "transferFrom",
      "outputs": [
        {
          "internalType": "bool",
          "name": "",
          "type": "bool"
        }
      ],
      "stateMutability": "nonpayable",
      "type": "function"
    },
    {
      "inputs": [
        {
          "internalType": "address",
          "name": "token",
          "type": "address"
        },
        {
          "internalType": "address",
          "name": "to",
          "type": "address"
        },
        {
          "internalType": "uint256",
          "name": "amount",
          "type": "uint256"
        }
      ],
      "name": "withdraw",
      "outputs": [],
      "stateMutability": "nonpayable",
      "type": "function"
    },
    {
      "inputs": [
        {
          "internalType": "address",
          "name": "token",
          "type": "address"
        },
        {
          "internalType": "address",
          "name": "from",
          "type": "address"
        },
        {
          "internalType": "address",
          "name": "to",
          "type": "address"
        },
        {
          "internalType": "uint256",
          "name": "amount",
          "type": "uint256"
        }
      ],
      "name": "withdrawFrom",
      "outputs": [],
      "stateMutability": "nonpayable",
      "type": "function"
    },
    {
      "stateMutability": "payable",
      "type": "receive"
    }
  ],
  "bytecode": "0x6101606040523480156200001257600080fd5b506040516200363f3803806200363f8339818101604052810190620000389190620003e5565b806040518060400160405280600181526020017f3100000000000000000000000000000000000000000000000000000000000000815250620000856000836200012660201b90919060201c565b6101208181525050620000a36001826200012660201b90919060201c565b6101408181525050818051906020012060e08181525050808051906020012061010081815250504660a08181525050620000e26200017e60201b60201c565b608081815250503073ffffffffffffffffffffffffffffffffffffffff1660c08173ffffffffffffffffffffffffffffffffffffffff16815250505050506200094e565b60006020835110156200014c576200014483620001db60201b60201c565b905062000178565b826200015e836200024860201b60201c565b60000190816200016f919062000681565b5060ff60001b90505b92915050565b60007f8b73c3c69bb8fe3d512ecc4cf759cc79239f7b179b0ffacaa9a75d522b39400f60e051610100514630604051602001620001c0959493929190620007d9565b60405160208183030381529060405280519060200120905090565b600080829050601f815111156200022b57826040517f305a27a900000000000000000000000000000000000000000000000000000000815260040162000222919062000888565b60405180910390fd5b8051816200023990620008de565b60001c1760001b915050919050565b6000819050919050565b6000604051905090565b600080fd5b600080fd5b600080fd5b600080fd5b6000601f19601f8301169050919050565b7f4e487b7100000000000000000000000000000000000000000000000000000000600052604160045260246000fd5b620002bb8262000270565b810181811067ffffffffffffffff82111715620002dd57620002dc62000281565b5b80604052505050565b6000620002f262000252565b9050620003008282620002b0565b919050565b600067ffffffffffffffff82111562000323576200032262000281565b5b6200032e8262000270565b9050602081019050919050565b60005b838110156200035b5780820151818401526020810190506200033e565b60008484015250505050565b60006200037e620003788462000305565b620002e6565b9050828152602081018484840111156200039d576200039c6200026b565b5b620003aa8482856200033b565b509392505050565b600082601f830112620003ca57620003c962000266565b5b8151620003dc84826020860162000367565b91505092915050565b600060208284031215620003fe57620003fd6200025c565b5b600082015167ffffffffffffffff8111156200041f576200041e62000261565b5b6200042d84828501620003b2565b91505092915050565b600081519050919050565b7f4e487b7100000000000000000000000000000000000000000000000000000000600052602260045260246000fd5b600060028204905060018216806200048957607f821691505b6020821081036200049f576200049e62000441565b5b50919050565b60008190508160005260206000209050919050565b60006020601f8301049050919050565b600082821b905092915050565b600060088302620005097fffffffffffffffffffffffffffffffffffffffffffffffffffffffffffffffff82620004ca565b620005158683620004ca565b95508019841693508086168417925050509392505050565b6000819050919050565b6000819050919050565b6000620005626200055c62000556846200052d565b62000537565b6200052d565b9050919050565b6000819050919050565b6200057e8362000541565b620005966200058d8262000569565b848454620004d7565b825550505050565b600090565b620005ad6200059e565b620005ba81848462000573565b505050565b5b81811015620005e257620005d6600082620005a3565b600181019050620005c0565b5050565b601f8211156200063157620005fb81620004a5565b6200060684620004ba565b8101602085101562000616578190505b6200062e6200062585620004ba565b830182620005bf565b50505b505050565b600082821c905092915050565b6000620006566000198460080262000636565b1980831691505092915050565b600062000671838362000643565b9150826002028217905092915050565b6200068c8262000436565b67ffffffffffffffff811115620006a857620006a762000281565b5b620006b4825462000470565b620006c1828285620005e6565b600060209050601f831160018114620006f95760008415620006e4578287015190505b620006f0858262000663565b86555062000760565b601f1984166200070986620004a5565b60005b8281101562000733578489015182556001820191506020850194506020810190506200070c565b868310156200075357848901516200074f601f89168262000643565b8355505b6001600288020188555050505b505050505050565b6000819050919050565b6200077d8162000768565b82525050565b6200078e816200052d565b82525050565b600073ffffffffffffffffffffffffffffffffffffffff82169050919050565b6000620007c18262000794565b9050919050565b620007d381620007b4565b82525050565b600060a082019050620007f0600083018862000772565b620007ff602083018762000772565b6200080e604083018662000772565b6200081d606083018562000783565b6200082c6080830184620007c8565b9695505050505050565b600082825260208201905092915050565b6000620008548262000436565b62000860818562000836565b9350620008728185602086016200033b565b6200087d8162000270565b840191505092915050565b60006020820190508181036000830152620008a4818462000847565b905092915050565b600081519050919050565b6000819050602082019050919050565b6000620008d5825162000768565b80915050919050565b6000620008eb82620008ac565b82620008f784620008b7565b90506200090481620008c7565b925060208210156200094757620009427fffffffffffffffffffffffffffffffffffffffffffffffffffffffffffffffff83602003600802620004ca565b831692505b5050919050565b60805160a05160c05160e051610100516101205161014051612c96620009a960003960006116ff015260006116c401526000611c2d01526000611c0c01526000611486015260006114dc015260006115050152612c966000f3fe6080604052600436106100ab5760003560e01c806384b0196e1161006457806384b0196e146101c7578063927da105146101f8578063beabacc814610235578063d9caed1214610272578063e1f21c671461029b578063f7888aec146102d8576100b2565b806315ada25a146100b457806315dacbea146100dd578063264413181461011a5780633644e5151461014357806347e7ef241461016e5780637ecebe001461018a576100b2565b366100b257005b005b3480156100c057600080fd5b506100db60048036038101906100d69190611eae565b610315565b005b3480156100e957600080fd5b5061010460048036038101906100ff9190611f2a565b610484565b6040516101119190611fac565b60405180910390f35b34801561012657600080fd5b50610141600480360381019061013c9190611f2a565b6104b6565b005b34801561014f57600080fd5b506101586107c7565b6040516101659190611fe0565b60405180910390f35b61018860048036038101906101839190611ffb565b6107d6565b005b34801561019657600080fd5b506101b160048036038101906101ac919061203b565b6109b2565b6040516101be9190612077565b60405180910390f35b3480156101d357600080fd5b506101dc6109c4565b6040516101ef979695949392919061222a565b60405180910390f35b34801561020457600080fd5b5061021f600480360381019061021a91906122ae565b610a6e565b60405161022c9190612077565b60405180910390f35b34801561024157600080fd5b5061025c60048036038101906102579190612301565b610b33565b6040516102699190611fac565b60405180910390f35b34801561027e57600080fd5b5061029960048036038101906102949190612301565b610b58565b005b3480156102a757600080fd5b506102c260048036038101906102bd9190612301565b610e5d565b6040516102cf9190611fac565b60405180910390f35b3480156102e457600080fd5b506102ff60048036038101906102fa9190612354565b610e84565b60405161030c9190612077565b60405180910390f35b80600001354211156103625780600001356040517f0891870a0000000000000000000000000000000000000000000000000000000081526004016103599190612077565b60405180910390fd5b60007f6e71edae12b1b97f4d1f60370fef10105fa2faae0126114a169c64845d6126c985858561039189610f0b565b86600001356040516020016103ab96959493929190612394565b60405160208183030381529060405280519060200120905060006103ce82610f62565b905060006103f8828560200160208101906103e9919061242e565b86604001358760600135610f7c565b90508673ffffffffffffffffffffffffffffffffffffffff168173ffffffffffffffffffffffffffffffffffffffff161461046c5780876040517f6babb09700000000000000000000000000000000000000000000000000000000815260040161046392919061245b565b60405180910390fd5b61047a888888886001610fac565b5050505050505050565b60008061048f6111b7565b905061049d868683866111bf565b6104a986868686611256565b6001915050949350505050565b60006104c06111b7565b90506104ce858583856111bf565b60008211610511576040517f08c379a0000000000000000000000000000000000000000000000000000000008152600401610508906124d0565b60405180910390fd5b6000600360008373ffffffffffffffffffffffffffffffffffffffff1673ffffffffffffffffffffffffffffffffffffffff16815260200190815260200160002060008773ffffffffffffffffffffffffffffffffffffffff1673ffffffffffffffffffffffffffffffffffffffff168152602001908152602001600020549050828110156105d5576040517f08c379a00000000000000000000000000000000000000000000000000000000081526004016105cc90612562565b60405180910390fd5b82600360008473ffffffffffffffffffffffffffffffffffffffff1673ffffffffffffffffffffffffffffffffffffffff16815260200190815260200160002060008873ffffffffffffffffffffffffffffffffffffffff1673ffffffffffffffffffffffffffffffffffffffff168152602001908152602001600020600082825461066191906125b1565b92505081905550600073ffffffffffffffffffffffffffffffffffffffff168673ffffffffffffffffffffffffffffffffffffffff160361074e5760008473ffffffffffffffffffffffffffffffffffffffff16846040516106c290612616565b60006040518083038185875af1925050503d80600081146106ff576040519150601f19603f3d011682016040523d82523d6000602084013e610704565b606091505b5050905080610748576040517f08c379a000000000000000000000000000000000000000000000000000000000815260040161073f90612677565b60405180910390fd5b506107bf565b61075986858561134c565b8373ffffffffffffffffffffffffffffffffffffffff168673ffffffffffffffffffffffffffffffffffffffff167f2717ead6b9200dd235aad468c9809ea400fe33ac69b5bfaa6d3e90fc922b6398856040516107b69190612077565b60405180910390a35b505050505050565b60006107d1611482565b905090565b600073ffffffffffffffffffffffffffffffffffffffff168273ffffffffffffffffffffffffffffffffffffffff1614610865576000341461084d576040517f08c379a000000000000000000000000000000000000000000000000000000000815260040161084490612709565b60405180910390fd5b610860826108596111b7565b3084611539565b6108a8565b8034036108a7576040517f08c379a000000000000000000000000000000000000000000000000000000000815260040161089e9061279b565b60405180910390fd5b5b80600360006108b56111b7565b73ffffffffffffffffffffffffffffffffffffffff1673ffffffffffffffffffffffffffffffffffffffff16815260200190815260200160002060008473ffffffffffffffffffffffffffffffffffffffff1673ffffffffffffffffffffffffffffffffffffffff168152602001908152602001600020600082825461093b91906127bb565b9250508190555061094a6111b7565b73ffffffffffffffffffffffffffffffffffffffff168273ffffffffffffffffffffffffffffffffffffffff167f5548c837ab068cf56a2c2479df0882a4922fd203edb7517321831d95078c5f62836040516109a69190612077565b60405180910390a35050565b60006109bd82611672565b9050919050565b6000606080600080600060606109d86116bb565b6109e06116f6565b46306000801b600067ffffffffffffffff811115610a0157610a006127ef565b5b604051908082528060200260200182016040528015610a2f5781602001602082028036833780820191505090505b507f0f00000000000000000000000000000000000000000000000000000000000000959493929190965096509650965096509650965090919293949596565b6000600460008473ffffffffffffffffffffffffffffffffffffffff1673ffffffffffffffffffffffffffffffffffffffff16815260200190815260200160002060008573ffffffffffffffffffffffffffffffffffffffff1673ffffffffffffffffffffffffffffffffffffffff16815260200190815260200160002060008373ffffffffffffffffffffffffffffffffffffffff1673ffffffffffffffffffffffffffffffffffffffff1681526020019081526020016000205490509392505050565b600080610b3e6111b7565b9050610b4c85828686611256565b60019150509392505050565b60008111610b9b576040517f08c379a0000000000000000000000000000000000000000000000000000000008152600401610b92906124d0565b60405180910390fd5b600060036000610ba96111b7565b73ffffffffffffffffffffffffffffffffffffffff1673ffffffffffffffffffffffffffffffffffffffff16815260200190815260200160002060008573ffffffffffffffffffffffffffffffffffffffff1673ffffffffffffffffffffffffffffffffffffffff16815260200190815260200160002054905081811015610c66576040517f08c379a0000000000000000000000000000000000000000000000000000000008152600401610c5d90612562565b60405180910390fd5b8160036000610c736111b7565b73ffffffffffffffffffffffffffffffffffffffff1673ffffffffffffffffffffffffffffffffffffffff16815260200190815260200160002060008673ffffffffffffffffffffffffffffffffffffffff1673ffffffffffffffffffffffffffffffffffffffff1681526020019081526020016000206000828254610cf991906125b1565b92505081905550600073ffffffffffffffffffffffffffffffffffffffff168473ffffffffffffffffffffffffffffffffffffffff1603610de65760008373ffffffffffffffffffffffffffffffffffffffff1683604051610d5a90612616565b60006040518083038185875af1925050503d8060008114610d97576040519150601f19603f3d011682016040523d82523d6000602084013e610d9c565b606091505b5050905080610de0576040517f08c379a0000000000000000000000000000000000000000000000000000000008152600401610dd790612677565b60405180910390fd5b50610e57565b610df184848461134c565b8273ffffffffffffffffffffffffffffffffffffffff168473ffffffffffffffffffffffffffffffffffffffff167f2717ead6b9200dd235aad468c9809ea400fe33ac69b5bfaa6d3e90fc922b639884604051610e4e9190612077565b60405180910390a35b50505050565b600080610e686111b7565b9050610e78858286866001610fac565b60019150509392505050565b6000600360008473ffffffffffffffffffffffffffffffffffffffff1673ffffffffffffffffffffffffffffffffffffffff16815260200190815260200160002060008373ffffffffffffffffffffffffffffffffffffffff1673ffffffffffffffffffffffffffffffffffffffff16815260200190815260200160002054905092915050565b6000600260008373ffffffffffffffffffffffffffffffffffffffff1673ffffffffffffffffffffffffffffffffffffffff1681526020019081526020016000206000815480929190600101919050559050919050565b6000610f75610f6f611482565b83611731565b9050919050565b600080600080610f8e88888888611772565b925092509250610f9e8282611866565b829350505050949350505050565b600073ffffffffffffffffffffffffffffffffffffffff168473ffffffffffffffffffffffffffffffffffffffff160361101e5760006040517fd5d258fa000000000000000000000000000000000000000000000000000000008152600401611015919061281e565b60405180910390fd5b600073ffffffffffffffffffffffffffffffffffffffff168373ffffffffffffffffffffffffffffffffffffffff16036110905760006040517f0abbbe2e000000000000000000000000000000000000000000000000000000008152600401611087919061281e565b60405180910390fd5b81600460008673ffffffffffffffffffffffffffffffffffffffff1673ffffffffffffffffffffffffffffffffffffffff16815260200190815260200160002060008773ffffffffffffffffffffffffffffffffffffffff1673ffffffffffffffffffffffffffffffffffffffff16815260200190815260200160002060008573ffffffffffffffffffffffffffffffffffffffff1673ffffffffffffffffffffffffffffffffffffffff1681526020019081526020016000208190555080156111b057818373ffffffffffffffffffffffffffffffffffffffff168573ffffffffffffffffffffffffffffffffffffffff167f91ed140d4ef0d36cfe0e48d6e199657e7295b810bded34c1c95874b2b676e06d60405160405180910390a45b5050505050565b600033905090565b60006111cc858585610a6e565b90507fffffffffffffffffffffffffffffffffffffffffffffffffffffffffffffffff811461124f578181101561123e578281836040517fcf7e367800000000000000000000000000000000000000000000000000000000815260040161123593929190612839565b60405180910390fd5b61124e8585858585036000610fac565b5b5050505050565b600073ffffffffffffffffffffffffffffffffffffffff168373ffffffffffffffffffffffffffffffffffffffff16036112c85760006040517ff4d2be290000000000000000000000000000000000000000000000000000000081526004016112bf919061281e565b60405180910390fd5b600073ffffffffffffffffffffffffffffffffffffffff168273ffffffffffffffffffffffffffffffffffffffff160361133a5760006040517fe0823dd8000000000000000000000000000000000000000000000000000000008152600401611331919061281e565b60405180910390fd5b611346848484846119ca565b50505050565b6000808473ffffffffffffffffffffffffffffffffffffffff1663a9059cbb858560405160240161137e929190612870565b6040516020818303038152906040529060e01b6020820180517bffffffffffffffffffffffffffffffffffffffffffffffffffffffff83818316178352505050506040516113cc91906128d5565b6000604051808303816000865af19150503d8060008114611409576040519150601f19603f3d011682016040523d82523d6000602084013e61140e565b606091505b509150915081801561143c575060008151148061143b57508080602001905181019061143a9190612918565b5b5b61147b576040517f08c379a0000000000000000000000000000000000000000000000000000000008152600401611472906129b7565b60405180910390fd5b5050505050565b60007f000000000000000000000000000000000000000000000000000000000000000073ffffffffffffffffffffffffffffffffffffffff163073ffffffffffffffffffffffffffffffffffffffff161480156114fe57507f000000000000000000000000000000000000000000000000000000000000000046145b1561152b577f00000000000000000000000000000000000000000000000000000000000000009050611536565b611533611be7565b90505b90565b6000808573ffffffffffffffffffffffffffffffffffffffff166323b872dd86868660405160240161156d939291906129d7565b6040516020818303038152906040529060e01b6020820180517bffffffffffffffffffffffffffffffffffffffffffffffffffffffff83818316178352505050506040516115bb91906128d5565b6000604051808303816000865af19150503d80600081146115f8576040519150601f19603f3d011682016040523d82523d6000602084013e6115fd565b606091505b509150915081801561162b575060008151148061162a5750808060200190518101906116299190612918565b5b5b61166a576040517f08c379a000000000000000000000000000000000000000000000000000000000815260040161166190612a80565b60405180910390fd5b505050505050565b6000600260008373ffffffffffffffffffffffffffffffffffffffff1673ffffffffffffffffffffffffffffffffffffffff168152602001908152602001600020549050919050565b60606116f160007f0000000000000000000000000000000000000000000000000000000000000000611c7d90919063ffffffff16565b905090565b606061172c60017f0000000000000000000000000000000000000000000000000000000000000000611c7d90919063ffffffff16565b905090565b60006040517f190100000000000000000000000000000000000000000000000000000000000081528360028201528260228201526042812091505092915050565b60008060007f7fffffffffffffffffffffffffffffff5d576e7357a4501ddfe92f46681b20a08460001c11156117b257600060038592509250925061185c565b6000600188888888604051600081526020016040526040516117d79493929190612aaf565b6020604051602081039080840390855afa1580156117f9573d6000803e3d6000fd5b505050602060405103519050600073ffffffffffffffffffffffffffffffffffffffff168173ffffffffffffffffffffffffffffffffffffffff160361184d57600060016000801b9350935093505061185c565b8060008060001b935093509350505b9450945094915050565b6000600381111561187a57611879612af4565b5b82600381111561188d5761188c612af4565b5b03156119c657600160038111156118a7576118a6612af4565b5b8260038111156118ba576118b9612af4565b5b036118f1576040517ff645eedf00000000000000000000000000000000000000000000000000000000815260040160405180910390fd5b6002600381111561190557611904612af4565b5b82600381111561191857611917612af4565b5b0361195d578060001c6040517ffce698f70000000000000000000000000000000000000000000000000000000081526004016119549190612077565b60405180910390fd5b6003808111156119705761196f612af4565b5b82600381111561198357611982612af4565b5b036119c557806040517fd78bce0c0000000000000000000000000000000000000000000000000000000081526004016119bc9190611fe0565b60405180910390fd5b5b5050565b6000600360008573ffffffffffffffffffffffffffffffffffffffff1673ffffffffffffffffffffffffffffffffffffffff16815260200190815260200160002060008673ffffffffffffffffffffffffffffffffffffffff1673ffffffffffffffffffffffffffffffffffffffff16815260200190815260200160002054905081811015611a9657848482846040517f680f1b42000000000000000000000000000000000000000000000000000000008152600401611a8d9493929190612b23565b60405180910390fd5b818103600360008673ffffffffffffffffffffffffffffffffffffffff1673ffffffffffffffffffffffffffffffffffffffff16815260200190815260200160002060008773ffffffffffffffffffffffffffffffffffffffff1673ffffffffffffffffffffffffffffffffffffffff1681526020019081526020016000208190555081600360008573ffffffffffffffffffffffffffffffffffffffff1673ffffffffffffffffffffffffffffffffffffffff16815260200190815260200160002060008773ffffffffffffffffffffffffffffffffffffffff1673ffffffffffffffffffffffffffffffffffffffff168152602001908152602001600020600082825401925050819055507fc4298a5beffbb92832adef4bde23a2148eea5117fee88fd06e963ddcb4a523f485858585604051611bd89493929190612b68565b60405180910390a15050505050565b60007f8b73c3c69bb8fe3d512ecc4cf759cc79239f7b179b0ffacaa9a75d522b39400f7f00000000000000000000000000000000000000000000000000000000000000007f00000000000000000000000000000000000000000000000000000000000000004630604051602001611c62959493929190612bad565b60405160208183030381529060405280519060200120905090565b606060ff60001b8314611c9a57611c9383611d2d565b9050611d27565b818054611ca690612c2f565b80601f0160208091040260200160405190810160405280929190818152602001828054611cd290612c2f565b8015611d1f5780601f10611cf457610100808354040283529160200191611d1f565b820191906000526020600020905b815481529060010190602001808311611d0257829003601f168201915b505050505090505b92915050565b60606000611d3a83611da1565b90506000602067ffffffffffffffff811115611d5957611d586127ef565b5b6040519080825280601f01601f191660200182016040528015611d8b5781602001600182028036833780820191505090505b5090508181528360208201528092505050919050565b60008060ff8360001c169050601f811115611de8576040517fb3512b0c00000000000000000000000000000000000000000000000000000000815260040160405180910390fd5b80915050919050565b600080fd5b600073ffffffffffffffffffffffffffffffffffffffff82169050919050565b6000611e2182611df6565b9050919050565b611e3181611e16565b8114611e3c57600080fd5b50565b600081359050611e4e81611e28565b92915050565b6000819050919050565b611e6781611e54565b8114611e7257600080fd5b50565b600081359050611e8481611e5e565b92915050565b600080fd5b600060a08284031215611ea557611ea4611e8a565b5b81905092915050565b60008060008060006101208688031215611ecb57611eca611df1565b5b6000611ed988828901611e3f565b9550506020611eea88828901611e3f565b9450506040611efb88828901611e3f565b9350506060611f0c88828901611e75565b9250506080611f1d88828901611e8f565b9150509295509295909350565b60008060008060808587031215611f4457611f43611df1565b5b6000611f5287828801611e3f565b9450506020611f6387828801611e3f565b9350506040611f7487828801611e3f565b9250506060611f8587828801611e75565b91505092959194509250565b60008115159050919050565b611fa681611f91565b82525050565b6000602082019050611fc16000830184611f9d565b92915050565b6000819050919050565b611fda81611fc7565b82525050565b6000602082019050611ff56000830184611fd1565b92915050565b6000806040838503121561201257612011611df1565b5b600061202085828601611e3f565b925050602061203185828601611e75565b9150509250929050565b60006020828403121561205157612050611df1565b5b600061205f84828501611e3f565b91505092915050565b61207181611e54565b82525050565b600060208201905061208c6000830184612068565b92915050565b60007fff0000000000000000000000000000000000000000000000000000000000000082169050919050565b6120c781612092565b82525050565b600081519050919050565b600082825260208201905092915050565b60005b838110156121075780820151818401526020810190506120ec565b60008484015250505050565b6000601f19601f8301169050919050565b600061212f826120cd565b61213981856120d8565b93506121498185602086016120e9565b61215281612113565b840191505092915050565b61216681611e16565b82525050565b600081519050919050565b600082825260208201905092915050565b6000819050602082019050919050565b6121a181611e54565b82525050565b60006121b38383612198565b60208301905092915050565b6000602082019050919050565b60006121d78261216c565b6121e18185612177565b93506121ec83612188565b8060005b8381101561221d57815161220488826121a7565b975061220f836121bf565b9250506001810190506121f0565b5085935050505092915050565b600060e08201905061223f600083018a6120be565b81810360208301526122518189612124565b905081810360408301526122658188612124565b90506122746060830187612068565b612281608083018661215d565b61228e60a0830185611fd1565b81810360c08301526122a081846121cc565b905098975050505050505050565b6000806000606084860312156122c7576122c6611df1565b5b60006122d586828701611e3f565b93505060206122e686828701611e3f565b92505060406122f786828701611e3f565b9150509250925092565b60008060006060848603121561231a57612319611df1565b5b600061232886828701611e3f565b935050602061233986828701611e3f565b925050604061234a86828701611e75565b9150509250925092565b6000806040838503121561236b5761236a611df1565b5b600061237985828601611e3f565b925050602061238a85828601611e3f565b9150509250929050565b600060c0820190506123a96000830189611fd1565b6123b6602083018861215d565b6123c3604083018761215d565b6123d06060830186612068565b6123dd6080830185612068565b6123ea60a0830184612068565b979650505050505050565b600060ff82169050919050565b61240b816123f5565b811461241657600080fd5b50565b60008135905061242881612402565b92915050565b60006020828403121561244457612443611df1565b5b600061245284828501612419565b91505092915050565b6000604082019050612470600083018561215d565b61247d602083018461215d565b9392505050565b7f5661756c743a20776974686472617720616d6f756e74206973207a65726f0000600082015250565b60006124ba601e836120d8565b91506124c582612484565b602082019050919050565b600060208201905081810360008301526124e9816124ad565b9050919050565b7f5661756c743a20776974686472617720616d6f756e742065786365656473206260008201527f616c616e63650000000000000000000000000000000000000000000000000000602082015250565b600061254c6026836120d8565b9150612557826124f0565b604082019050919050565b6000602082019050818103600083015261257b8161253f565b9050919050565b7f4e487b7100000000000000000000000000000000000000000000000000000000600052601160045260246000fd5b60006125bc82611e54565b91506125c783611e54565b92508282039050818111156125df576125de612582565b5b92915050565b600081905092915050565b50565b60006126006000836125e5565b915061260b826125f0565b600082019050919050565b6000612621826125f3565b9150819050919050565b7f5661756c743a204661696c656420746f2073656e642045746865720000000000600082015250565b6000612661601b836120d8565b915061266c8261262b565b602082019050919050565b6000602082019050818103600083015261269081612654565b9050919050565b7f5661756c743a2045746865722073656e7420776974682045524332302064657060008201527f6f73697400000000000000000000000000000000000000000000000000000000602082015250565b60006126f36024836120d8565b91506126fe82612697565b604082019050919050565b60006020820190508181036000830152612722816126e6565b9050919050565b7f5661756c743a204574686572206465706f73697420616d6f756e74206973207a60008201527f65726f0000000000000000000000000000000000000000000000000000000000602082015250565b60006127856023836120d8565b915061279082612729565b604082019050919050565b600060208201905081810360008301526127b481612778565b9050919050565b60006127c682611e54565b91506127d183611e54565b92508282019050808211156127e9576127e8612582565b5b92915050565b7f4e487b7100000000000000000000000000000000000000000000000000000000600052604160045260246000fd5b6000602082019050612833600083018461215d565b92915050565b600060608201905061284e600083018661215d565b61285b6020830185612068565b6128686040830184612068565b949350505050565b6000604082019050612885600083018561215d565b6128926020830184612068565b9392505050565b600081519050919050565b60006128af82612899565b6128b981856125e5565b93506128c98185602086016120e9565b80840191505092915050565b60006128e182846128a4565b915081905092915050565b6128f581611f91565b811461290057600080fd5b50565b600081519050612912816128ec565b92915050565b60006020828403121561292e5761292d611df1565b5b600061293c84828501612903565b91505092915050565b7f5472616e7366657248656c7065723a3a736166655472616e736665723a20747260008201527f616e73666572206661696c656400000000000000000000000000000000000000602082015250565b60006129a1602d836120d8565b91506129ac82612945565b604082019050919050565b600060208201905081810360008301526129d081612994565b9050919050565b60006060820190506129ec600083018661215d565b6129f9602083018561215d565b612a066040830184612068565b949350505050565b7f5472616e7366657248656c7065723a3a7472616e7366657246726f6d3a20747260008201527f616e7366657246726f6d206661696c6564000000000000000000000000000000602082015250565b6000612a6a6031836120d8565b9150612a7582612a0e565b604082019050919050565b60006020820190508181036000830152612a9981612a5d565b9050919050565b612aa9816123f5565b82525050565b6000608082019050612ac46000830187611fd1565b612ad16020830186612aa0565b612ade6040830185611fd1565b612aeb6060830184611fd1565b95945050505050565b7f4e487b7100000000000000000000000000000000000000000000000000000000600052602160045260246000fd5b6000608082019050612b38600083018761215d565b612b45602083018661215d565b612b526040830185612068565b612b5f6060830184612068565b95945050505050565b6000608082019050612b7d600083018761215d565b612b8a602083018661215d565b612b97604083018561215d565b612ba46060830184612068565b95945050505050565b600060a082019050612bc26000830188611fd1565b612bcf6020830187611fd1565b612bdc6040830186611fd1565b612be96060830185612068565b612bf6608083018461215d565b9695505050505050565b7f4e487b7100000000000000000000000000000000000000000000000000000000600052602260045260246000fd5b60006002820490506001821680612c4757607f821691505b602082108103612c5a57612c59612c00565b5b5091905056fea264697066735822122040f22457c5a93c824c7876ed1f8fb38ad93fcd24bdf339bd8d17d31342d8c53b64736f6c63430008140033",
  "linkReferences": {},
  "deployedLinkReferences": {}
}