{
  "_format": "hh-sol-artifact-1",
  "contractName": "AtomicSwapHelper",
  "sourceName": "contracts/abstracts/libs/AtomicSwapHelper.sol",
  "abi": [
    {
      "inputs": [
        {
          "internalType": "uint256",
          "name": "amount",
          "type": "uint256"
        },
        {
          "internalType": "uint256",
          "name": "allowance",
          "type": "uint256"
        }
      ],
      "name": "NotAllowedTransferAmount",
      "type": "error"
    },
    {
      "inputs": [],
      "name": "OrderAlreadyExists",
      "type": "error"
    },
    {
      "inputs": [
        {
          "internalType": "uint256",
          "name": "swapOrderCounter",
          "type": "uint256"
        },
        {
          "internalType": "address",
          "name": "sender",
          "type": "address"
        }
      ],
      "name": "generateNewAtomicSwapID",
      "outputs": [
        {
          "internalType": "bytes32",
          "name": "id",
          "type": "bytes32"
        }
      ],
      "stateMutability": "pure",
      "type": "function"
    }
  ],
  "bytecode": "0x6115c8610053600b82828239805160001a607314610046577f4e487b7100000000000000000000000000000000000000000000000000000000600052600060045260246000fd5b30600052607381538281f3fe730000000000000000000000000000000000000000301460806040526004361061006c5760003560e01c806311f1248b146100715780632296d7e01461009a57806331ceee54146100c357806343b03b5d146100f3578063a2040cee1461011c578063cc76f93114610145575b600080fd5b81801561007d57600080fd5b5061009860048036038101906100939190610cc5565b61016e565b005b8180156100a657600080fd5b506100c160048036038101906100bc9190610fa2565b610284565b005b6100dd60048036038101906100d8919061100c565b610579565b6040516100ea919061105b565b60405180910390f35b8180156100ff57600080fd5b5061011a60048036038101906101159190611076565b6105ba565b005b81801561012857600080fd5b50610143600480360381019061013e9190611103565b6106cd565b005b81801561015157600080fd5b5061016c60048036038101906101679190611205565b6107f8565b005b600082848661017d9190611274565b61018791906112e5565b9050600081866101979190611316565b9050600073ffffffffffffffffffffffffffffffffffffffff168973ffffffffffffffffffffffffffffffffffffffff16146101ea576101d9898989846109c7565b6101e5898985856109c7565b610279565b8673ffffffffffffffffffffffffffffffffffffffff166108fc829081150290604051600060405180830381858888f19350505050158015610230573d6000803e3d6000fd5b508273ffffffffffffffffffffffffffffffffffffffff166108fc839081150290604051600060405180830381858888f19350505050158015610277573d6000803e3d6000fd5b505b505050505050505050565b6000801b84600084815260200190815260200160002060000154146102d5576040517f966753c500000000000000000000000000000000000000000000000000000000815260040160405180910390fd5b6000604051806101800160405280848152602001600060038111156102fd576102fc61134a565b5b81526020018373ffffffffffffffffffffffffffffffffffffffff16815260200185600001518152602001856060015173ffffffffffffffffffffffffffffffffffffffff168152602001856020015181526020018560800151815260200142815260200160008152602001600081526020018560a0015181526020018560c0015115158152509050808560008581526020019081526020016000206000820151816000015560208201518160010160006101000a81548160ff021916908360038111156103ce576103cd61134a565b5b021790555060408201518160010160016101000a81548173ffffffffffffffffffffffffffffffffffffffff021916908373ffffffffffffffffffffffffffffffffffffffff16021790555060608201518160020160008201518160000160006101000a81548173ffffffffffffffffffffffffffffffffffffffff021916908373ffffffffffffffffffffffffffffffffffffffff16021790555060208201518160010155505060808201518160040160006101000a81548173ffffffffffffffffffffffffffffffffffffffff021916908373ffffffffffffffffffffffffffffffffffffffff16021790555060a08201518160050160008201518160000160006101000a81548173ffffffffffffffffffffffffffffffffffffffff021916908373ffffffffffffffffffffffffffffffffffffffff16021790555060208201518160010155505060c0820151816007015560e08201518160080155610100820151816009015561012082015181600a015561014082015181600b015561016082015181600c0160006101000a81548160ff0219169083151502179055509050505050505050565b6000818360405160200161058e929190611397565b60405160208183030381529060405280519060200120905082806105b1906113c0565b93505092915050565b60008284866105c99190611274565b6105d391906112e5565b9050600081866105e39190611316565b9050600073ffffffffffffffffffffffffffffffffffffffff168873ffffffffffffffffffffffffffffffffffffffff161461063457610624888883610b5a565b61062f888484610b5a565b6106c3565b8673ffffffffffffffffffffffffffffffffffffffff166108fc829081150290604051600060405180830381858888f1935050505015801561067a573d6000803e3d6000fd5b508273ffffffffffffffffffffffffffffffffffffffff166108fc839081150290604051600060405180830381858888f193505050501580156106c1573d6000803e3d6000fd5b505b5050505050505050565b8160008281526020019081526020016000206000808201600090556001820160006101000a81549060ff02191690556001820160016101000a81549073ffffffffffffffffffffffffffffffffffffffff021916905560028201600080820160006101000a81549073ffffffffffffffffffffffffffffffffffffffff0219169055600182016000905550506004820160006101000a81549073ffffffffffffffffffffffffffffffffffffffff021916905560058201600080820160006101000a81549073ffffffffffffffffffffffffffffffffffffffff021916905560018201600090555050600782016000905560088201600090556009820160009055600a820160009055600b820160009055600c820160006101000a81549060ff021916905550505050565b60006040518060e00160405280836000015181526020018360600151815260200160028081111561082c5761082b61134a565b5b8152602001836020015173ffffffffffffffffffffffffffffffffffffffff168152602001836040015173ffffffffffffffffffffffffffffffffffffffff1681526020014281526020018360800151815250905080836000846060015181526020019081526020016000206000846020015173ffffffffffffffffffffffffffffffffffffffff1673ffffffffffffffffffffffffffffffffffffffff168152602001908152602001600020600082015181600001556020820151816001015560408201518160020160006101000a81548160ff021916908360028111156109185761091761134a565b5b021790555060608201518160020160016101000a81548173ffffffffffffffffffffffffffffffffffffffff021916908373ffffffffffffffffffffffffffffffffffffffff16021790555060808201518160030160006101000a81548173ffffffffffffffffffffffffffffffffffffffff021916908373ffffffffffffffffffffffffffffffffffffffff16021790555060a0820151816004015560c08201518160050155905050505050565b600084905060008173ffffffffffffffffffffffffffffffffffffffff1663dd62ed3e33306040518363ffffffff1660e01b8152600401610a09929190611408565b602060405180830381865afa158015610a26573d6000803e3d6000fd5b505050506040513d601f19601f82011682018060405250810190610a4a9190611446565b905082811015610a935780836040517f7c8db62f000000000000000000000000000000000000000000000000000000008152600401610a8a929190611473565b60405180910390fd5b8173ffffffffffffffffffffffffffffffffffffffff166323b872dd8686866040518463ffffffff1660e01b8152600401610ad09392919061149c565b6020604051808303816000875af1158015610aef573d6000803e3d6000fd5b505050506040513d601f19601f82011682018060405250810190610b1391906114e8565b610b52576040517f08c379a0000000000000000000000000000000000000000000000000000000008152600401610b4990611572565b60405180910390fd5b505050505050565b60008390508073ffffffffffffffffffffffffffffffffffffffff1663a9059cbb84846040518363ffffffff1660e01b8152600401610b9a929190611397565b6020604051808303816000875af1158015610bb9573d6000803e3d6000fd5b505050506040513d601f19601f82011682018060405250810190610bdd91906114e8565b610c1c576040517f08c379a0000000000000000000000000000000000000000000000000000000008152600401610c1390611572565b60405180910390fd5b50505050565b6000604051905090565b600080fd5b600073ffffffffffffffffffffffffffffffffffffffff82169050919050565b6000610c5c82610c31565b9050919050565b610c6c81610c51565b8114610c7757600080fd5b50565b600081359050610c8981610c63565b92915050565b6000819050919050565b610ca281610c8f565b8114610cad57600080fd5b50565b600081359050610cbf81610c99565b92915050565b600080600080600080600060e0888a031215610ce457610ce3610c2c565b5b6000610cf28a828b01610c7a565b9750506020610d038a828b01610c7a565b9650506040610d148a828b01610c7a565b9550506060610d258a828b01610cb0565b9450506080610d368a828b01610cb0565b93505060a0610d478a828b01610cb0565b92505060c0610d588a828b01610c7a565b91505092959891949750929550565b6000819050919050565b610d7a81610d67565b8114610d8557600080fd5b50565b600081359050610d9781610d71565b92915050565b600080fd5b6000601f19601f8301169050919050565b7f4e487b7100000000000000000000000000000000000000000000000000000000600052604160045260246000fd5b610deb82610da2565b810181811067ffffffffffffffff82111715610e0a57610e09610db3565b5b80604052505050565b6000610e1d610c22565b9050610e298282610de2565b919050565b600060408284031215610e4457610e43610d9d565b5b610e4e6040610e13565b90506000610e5e84828501610c7a565b6000830152506020610e7284828501610cb0565b60208301525092915050565b60008115159050919050565b610e9381610e7e565b8114610e9e57600080fd5b50565b600081359050610eb081610e8a565b92915050565b60006101208284031215610ecd57610ecc610d9d565b5b610ed760e0610e13565b90506000610ee784828501610e2e565b6000830152506040610efb84828501610e2e565b6020830152506080610f0f84828501610c7a565b60408301525060a0610f2384828501610c7a565b60608301525060c0610f3784828501610cb0565b60808301525060e0610f4b84828501610cb0565b60a083015250610100610f6084828501610ea1565b60c08301525092915050565b6000819050919050565b610f7f81610f6c565b8114610f8a57600080fd5b50565b600081359050610f9c81610f76565b92915050565b6000806000806101808587031215610fbd57610fbc610c2c565b5b6000610fcb87828801610d88565b9450506020610fdc87828801610eb6565b935050610140610fee87828801610f8d565b92505061016061100087828801610c7a565b91505092959194509250565b6000806040838503121561102357611022610c2c565b5b600061103185828601610cb0565b925050602061104285828601610c7a565b9150509250929050565b61105581610f6c565b82525050565b6000602082019050611070600083018461104c565b92915050565b60008060008060008060c0878903121561109357611092610c2c565b5b60006110a189828a01610c7a565b96505060206110b289828a01610c7a565b95505060406110c389828a01610cb0565b94505060606110d489828a01610cb0565b93505060806110e589828a01610cb0565b92505060a06110f689828a01610c7a565b9150509295509295509295565b6000806040838503121561111a57611119610c2c565b5b600061112885828601610d88565b925050602061113985828601610f8d565b9150509250929050565b6000819050919050565b61115681611143565b811461116157600080fd5b50565b6000813590506111738161114d565b92915050565b600060a0828403121561118f5761118e610d9d565b5b61119960a0610e13565b905060006111a984828501610cb0565b60008301525060206111bd84828501610c7a565b60208301525060406111d184828501610c7a565b60408301525060606111e584828501610f8d565b60608301525060806111f984828501610cb0565b60808301525092915050565b60008060c0838503121561121c5761121b610c2c565b5b600061122a85828601611164565b925050602061123b85828601611179565b9150509250929050565b7f4e487b7100000000000000000000000000000000000000000000000000000000600052601160045260246000fd5b600061127f82610c8f565b915061128a83610c8f565b925082820261129881610c8f565b915082820484148315176112af576112ae611245565b5b5092915050565b7f4e487b7100000000000000000000000000000000000000000000000000000000600052601260045260246000fd5b60006112f082610c8f565b91506112fb83610c8f565b92508261130b5761130a6112b6565b5b828204905092915050565b600061132182610c8f565b915061132c83610c8f565b925082820390508181111561134457611343611245565b5b92915050565b7f4e487b7100000000000000000000000000000000000000000000000000000000600052602160045260246000fd5b61138281610c51565b82525050565b61139181610c8f565b82525050565b60006040820190506113ac6000830185611379565b6113b96020830184611388565b9392505050565b60006113cb82610c8f565b91507fffffffffffffffffffffffffffffffffffffffffffffffffffffffffffffffff82036113fd576113fc611245565b5b600182019050919050565b600060408201905061141d6000830185611379565b61142a6020830184611379565b9392505050565b60008151905061144081610c99565b92915050565b60006020828403121561145c5761145b610c2c565b5b600061146a84828501611431565b91505092915050565b60006040820190506114886000830185611388565b6114956020830184611388565b9392505050565b60006060820190506114b16000830186611379565b6114be6020830185611379565b6114cb6040830184611388565b949350505050565b6000815190506114e281610e8a565b92915050565b6000602082840312156114fe576114fd610c2c565b5b600061150c848285016114d3565b91505092915050565b600082825260208201905092915050565b7f4661696c656420746f207472616e736665722066726f6d000000000000000000600082015250565b600061155c601783611515565b915061156782611526565b602082019050919050565b6000602082019050818103600083015261158b8161154f565b905091905056fea264697066735822122068020480357a8590938e9d858ef9fa722d55c85d27c473aa08acb25381e7d22264736f6c63430008140033",
  "linkReferences": {},
  "deployedLinkReferences": {}
}