{
  "_format": "hh-sol-artifact-1",
  "contractName": "AtomicSwap",
  "sourceName": "contracts/AtomicSwap.sol",
  "abi": [
    {
      "inputs": [
        {
          "internalType": "uint256",
          "name": "provided",
          "type": "uint256"
        },
        {
          "internalType": "uint256",
          "name": "expectedExpiry",
          "type": "uint256"
        }
      ],
      "name": "BidAlreadyExpired",
      "type": "error"
    },
    {
      "inputs": [],
      "name": "BidAlreadyPlaced",
      "type": "error"
    },
    {
      "inputs": [],
      "name": "BidNotAllowed",
      "type": "error"
    },
    {
      "inputs": [
        {
          "internalType": "enum IAtomicSwap.BidStatus",
          "name": "status",
          "type": "uint8"
        }
      ],
      "name": "BidNotInPlacedStatus",
      "type": "error"
    },
    {
      "inputs": [
        {
          "internalType": "uint256",
          "name": "provided",
          "type": "uint256"
        },
        {
          "internalType": "uint256",
          "name": "maximum",
          "type": "uint256"
        }
      ],
      "name": "InvalidExpirationTime",
      "type": "error"
    },
    {
      "inputs": [],
      "name": "InvalidMinimumBidLimit",
      "type": "error"
    },
    {
      "inputs": [
        {
          "internalType": "uint256",
          "name": "amount",
          "type": "uint256"
        }
      ],
      "name": "MismatchedBidAmount",
      "type": "error"
    },
    {
      "inputs": [],
      "name": "NoBidPlaced",
      "type": "error"
    },
    {
      "inputs": [
        {
          "internalType": "uint256",
          "name": "amount",
          "type": "uint256"
        },
        {
          "internalType": "uint256",
          "name": "allowance",
          "type": "uint256"
        }
      ],
      "name": "NotAllowedTransferAmount",
      "type": "error"
    },
    {
      "inputs": [],
      "name": "OrderAlreadyCompleted",
      "type": "error"
    },
    {
      "inputs": [],
      "name": "OrderAlreadyExists",
      "type": "error"
    },
    {
      "inputs": [],
      "name": "OrderDoesNotExist",
      "type": "error"
    },
    {
      "inputs": [],
      "name": "OrderNotAllowTake",
      "type": "error"
    },
    {
      "inputs": [
        {
          "internalType": "address",
          "name": "caller",
          "type": "address"
        },
        {
          "internalType": "address",
          "name": "expected",
          "type": "address"
        }
      ],
      "name": "UnauthorizedAcceptAction",
      "type": "error"
    },
    {
      "inputs": [],
      "name": "UnauthorizedCancelAction",
      "type": "error"
    },
    {
      "inputs": [],
      "name": "UnauthorizedSender",
      "type": "error"
    },
    {
      "inputs": [],
      "name": "UnauthorizedTakeAction",
      "type": "error"
    },
    {
      "inputs": [],
      "name": "UnsupportedTokenPair",
      "type": "error"
    },
    {
      "anonymous": false,
      "inputs": [
        {
          "indexed": true,
          "internalType": "bytes32",
          "name": "orderID",
          "type": "bytes32"
        },
        {
          "indexed": true,
          "internalType": "address",
          "name": "bidder",
          "type": "address"
        },
        {
          "indexed": true,
          "internalType": "uint256",
          "name": "amount",
          "type": "uint256"
        }
      ],
      "name": "AcceptedBid",
      "type": "event"
    },
    {
      "anonymous": false,
      "inputs": [
        {
          "indexed": true,
          "internalType": "bytes32",
          "name": "id",
          "type": "bytes32"
        }
      ],
      "name": "AtomicSwapOrderCanceled",
      "type": "event"
    },
    {
      "anonymous": false,
      "inputs": [
        {
          "indexed": true,
          "internalType": "bytes32",
          "name": "id",
          "type": "bytes32"
        }
      ],
      "name": "AtomicSwapOrderCreated",
      "type": "event"
    },
    {
      "anonymous": false,
      "inputs": [
        {
          "indexed": true,
          "internalType": "address",
          "name": "maker",
          "type": "address"
        },
        {
          "indexed": true,
          "internalType": "address",
          "name": "taker",
          "type": "address"
        },
        {
          "indexed": true,
          "internalType": "bytes32",
          "name": "id",
          "type": "bytes32"
        }
      ],
      "name": "AtomicSwapOrderTook",
      "type": "event"
    },
    {
      "anonymous": false,
      "inputs": [
        {
          "indexed": true,
          "internalType": "bytes32",
          "name": "orderID",
          "type": "bytes32"
        },
        {
          "indexed": true,
          "internalType": "address",
          "name": "bidder",
          "type": "address"
        }
      ],
      "name": "CanceledBid",
      "type": "event"
    },
    {
      "anonymous": false,
      "inputs": [
        {
          "indexed": false,
          "internalType": "uint8",
          "name": "version",
          "type": "uint8"
        }
      ],
      "name": "Initialized",
      "type": "event"
    },
    {
      "anonymous": false,
      "inputs": [
        {
          "indexed": true,
          "internalType": "address",
          "name": "previousOwner",
          "type": "address"
        },
        {
          "indexed": true,
          "internalType": "address",
          "name": "newOwner",
          "type": "address"
        }
      ],
      "name": "OwnershipTransferred",
      "type": "event"
    },
    {
      "anonymous": false,
      "inputs": [
        {
          "indexed": true,
          "internalType": "bytes32",
          "name": "orderID",
          "type": "bytes32"
        },
        {
          "indexed": true,
          "internalType": "address",
          "name": "bidder",
          "type": "address"
        },
        {
          "indexed": true,
          "internalType": "uint256",
          "name": "amount",
          "type": "uint256"
        }
      ],
      "name": "ReceivedNewBid",
      "type": "event"
    },
    {
      "anonymous": false,
      "inputs": [
        {
          "indexed": true,
          "internalType": "bytes32",
          "name": "orderID",
          "type": "bytes32"
        },
        {
          "indexed": true,
          "internalType": "address",
          "name": "bidder",
          "type": "address"
        },
        {
          "indexed": true,
          "internalType": "uint256",
          "name": "amount",
          "type": "uint256"
        }
      ],
      "name": "UpdatedBid",
      "type": "event"
    },
    {
      "inputs": [
        {
          "components": [
            {
              "internalType": "bytes32",
              "name": "orderID",
              "type": "bytes32"
            },
            {
              "internalType": "address",
              "name": "bidder",
              "type": "address"
            }
          ],
          "internalType": "struct IAtomicSwap.AcceptBidMsg",
          "name": "acceptBidMsg",
          "type": "tuple"
        }
      ],
      "name": "acceptBid",
      "outputs": [],
      "stateMutability": "payable",
      "type": "function"
    },
    {
      "inputs": [
        {
          "internalType": "bytes32",
          "name": "",
          "type": "bytes32"
        },
        {
          "internalType": "address",
          "name": "",
          "type": "address"
        }
      ],
      "name": "bids",
      "outputs": [
        {
          "internalType": "uint256",
          "name": "amount",
          "type": "uint256"
        },
        {
          "internalType": "bytes32",
          "name": "order",
          "type": "bytes32"
        },
        {
          "internalType": "enum IAtomicSwap.BidStatus",
          "name": "status",
          "type": "uint8"
        },
        {
          "internalType": "address",
          "name": "bidder",
          "type": "address"
        },
        {
          "internalType": "uint256",
          "name": "receiveTimestamp",
          "type": "uint256"
        },
        {
          "internalType": "uint256",
          "name": "expireTimestamp",
          "type": "uint256"
        }
      ],
      "stateMutability": "view",
      "type": "function"
    },
    {
      "inputs": [],
      "name": "buyerFeeRate",
      "outputs": [
        {
          "internalType": "uint256",
          "name": "",
          "type": "uint256"
        }
      ],
      "stateMutability": "view",
      "type": "function"
    },
    {
      "inputs": [
        {
          "internalType": "bytes32",
          "name": "_orderID",
          "type": "bytes32"
        }
      ],
      "name": "cancelBid",
      "outputs": [],
      "stateMutability": "payable",
      "type": "function"
    },
    {
      "inputs": [
        {
          "components": [
            {
              "internalType": "bytes32",
              "name": "orderID",
              "type": "bytes32"
            }
          ],
          "internalType": "struct IAtomicSwap.CancelSwapMsg",
          "name": "cancelswap",
          "type": "tuple"
        }
      ],
      "name": "cancelSwap",
      "outputs": [],
      "stateMutability": "payable",
      "type": "function"
    },
    {
      "inputs": [
        {
          "internalType": "address",
          "name": "_admin",
          "type": "address"
        },
        {
          "internalType": "address",
          "name": "_treasury",
          "type": "address"
        },
        {
          "internalType": "uint256",
          "name": "_sellerFee",
          "type": "uint256"
        },
        {
          "internalType": "uint256",
          "name": "_buyerFee",
          "type": "uint256"
        }
      ],
      "name": "initialize",
      "outputs": [],
      "stateMutability": "nonpayable",
      "type": "function"
    },
    {
      "inputs": [
        {
          "components": [
            {
              "components": [
                {
                  "internalType": "address",
                  "name": "token",
                  "type": "address"
                },
                {
                  "internalType": "uint256",
                  "name": "amount",
                  "type": "uint256"
                }
              ],
              "internalType": "struct IAtomicSwap.Coin",
              "name": "sellToken",
              "type": "tuple"
            },
            {
              "components": [
                {
                  "internalType": "address",
                  "name": "token",
                  "type": "address"
                },
                {
                  "internalType": "uint256",
                  "name": "amount",
                  "type": "uint256"
                }
              ],
              "internalType": "struct IAtomicSwap.Coin",
              "name": "buyToken",
              "type": "tuple"
            },
            {
              "internalType": "address",
              "name": "desiredTaker",
              "type": "address"
            },
            {
              "internalType": "uint256",
              "name": "minBidAmount",
              "type": "uint256"
            },
            {
              "internalType": "uint256",
              "name": "expireAt",
              "type": "uint256"
            },
            {
              "internalType": "bool",
              "name": "acceptBid",
              "type": "bool"
            }
          ],
          "internalType": "struct IAtomicSwap.MakeSwapMsg",
          "name": "makeswap",
          "type": "tuple"
        }
      ],
      "name": "makeSwap",
      "outputs": [],
      "stateMutability": "payable",
      "type": "function"
    },
    {
      "inputs": [],
      "name": "owner",
      "outputs": [
        {
          "internalType": "address",
          "name": "",
          "type": "address"
        }
      ],
      "stateMutability": "view",
      "type": "function"
    },
    {
      "inputs": [
        {
          "components": [
            {
              "internalType": "uint256",
              "name": "bidAmount",
              "type": "uint256"
            },
            {
              "internalType": "bytes32",
              "name": "orderID",
              "type": "bytes32"
            },
            {
              "internalType": "uint256",
              "name": "expireTimestamp",
              "type": "uint256"
            }
          ],
          "internalType": "struct IAtomicSwap.PlaceBidMsg",
          "name": "placeBidMsg",
          "type": "tuple"
        }
      ],
      "name": "placeBid",
      "outputs": [],
      "stateMutability": "payable",
      "type": "function"
    },
    {
      "inputs": [],
      "name": "renounceOwnership",
      "outputs": [],
      "stateMutability": "nonpayable",
      "type": "function"
    },
    {
      "inputs": [],
      "name": "sellerFeeRate",
      "outputs": [
        {
          "internalType": "uint256",
          "name": "",
          "type": "uint256"
        }
      ],
      "stateMutability": "view",
      "type": "function"
    },
    {
      "inputs": [
        {
          "internalType": "bytes32",
          "name": "",
          "type": "bytes32"
        }
      ],
      "name": "swapOrder",
      "outputs": [
        {
          "internalType": "bytes32",
          "name": "id",
          "type": "bytes32"
        },
        {
          "internalType": "enum IAtomicSwap.OrderStatus",
          "name": "status",
          "type": "uint8"
        },
        {
          "internalType": "address",
          "name": "maker",
          "type": "address"
        },
        {
          "components": [
            {
              "internalType": "address",
              "name": "token",
              "type": "address"
            },
            {
              "internalType": "uint256",
              "name": "amount",
              "type": "uint256"
            }
          ],
          "internalType": "struct IAtomicSwap.Coin",
          "name": "sellToken",
          "type": "tuple"
        },
        {
          "internalType": "address",
          "name": "taker",
          "type": "address"
        },
        {
          "components": [
            {
              "internalType": "address",
              "name": "token",
              "type": "address"
            },
            {
              "internalType": "uint256",
              "name": "amount",
              "type": "uint256"
            }
          ],
          "internalType": "struct IAtomicSwap.Coin",
          "name": "buyToken",
          "type": "tuple"
        },
        {
          "internalType": "uint256",
          "name": "minBidAmount",
          "type": "uint256"
        },
        {
          "internalType": "uint256",
          "name": "createdAt",
          "type": "uint256"
        },
        {
          "internalType": "uint256",
          "name": "canceledAt",
          "type": "uint256"
        },
        {
          "internalType": "uint256",
          "name": "completedAt",
          "type": "uint256"
        },
        {
          "internalType": "uint256",
          "name": "expiredAt",
          "type": "uint256"
        },
        {
          "internalType": "bool",
          "name": "acceptBid",
          "type": "bool"
        }
      ],
      "stateMutability": "view",
      "type": "function"
    },
    {
      "inputs": [
        {
          "components": [
            {
              "internalType": "bytes32",
              "name": "orderID",
              "type": "bytes32"
            },
            {
              "internalType": "address",
              "name": "takerReceiver",
              "type": "address"
            }
          ],
          "internalType": "struct IAtomicSwap.TakeSwapMsg",
          "name": "takeswap",
          "type": "tuple"
        }
      ],
      "name": "takeSwap",
      "outputs": [],
      "stateMutability": "payable",
      "type": "function"
    },
    {
      "inputs": [
        {
          "internalType": "address",
          "name": "newOwner",
          "type": "address"
        }
      ],
      "name": "transferOwnership",
      "outputs": [],
      "stateMutability": "nonpayable",
      "type": "function"
    },
    {
      "inputs": [
        {
          "components": [
            {
              "internalType": "bytes32",
              "name": "orderID",
              "type": "bytes32"
            },
            {
              "internalType": "uint256",
              "name": "addition",
              "type": "uint256"
            }
          ],
          "internalType": "struct IAtomicSwap.UpdateBidMsg",
          "name": "updateBidMsg",
          "type": "tuple"
        }
      ],
      "name": "updateBid",
      "outputs": [],
      "stateMutability": "payable",
      "type": "function"
    }
  ],
  "bytecode": "0x608060405234801561001057600080fd5b5061419a806100206000396000f3fe6080604052600436106100e85760003560e01c8063715018a61161008a578063df7cec2811610059578063df7cec281461026f578063eb990c591461028b578063f2fde38b146102b4578063fca6caa1146102dd576100e8565b8063715018a6146101e657806389f68190146101fd5780638da5cb5b14610228578063b1e4eece14610253576100e8565b806337be0022116100c657806337be00221461014157806353f10c801461015d57806366e929bf146101885780636f1e24fe146101ca576100e8565b8063011605b1146100ed578063022066611461010957806306be619c14610125575b600080fd5b61010760048036038101906101029190612fa7565b610325565b005b610123600480360381019061011e9190612ff3565b610615565b005b61013f600480360381019061013a919061303f565b610a45565b005b61015b6004803603810190610156919061308b565b610fe1565b005b34801561016957600080fd5b50610172611457565b60405161017f91906130d1565b60405180910390f35b34801561019457600080fd5b506101af60048036038101906101aa9190613180565b61145d565b6040516101c196959493929190613255565b60405180910390f35b6101e460048036038101906101df91906132d5565b6114d3565b005b3480156101f257600080fd5b506101fb6117db565b005b34801561020957600080fd5b506102126117ef565b60405161021f91906130d1565b60405180910390f35b34801561023457600080fd5b5061023d6117f5565b60405161024a9190613302565b60405180910390f35b61026d6004803603810190610268919061333d565b61181f565b005b6102896004803603810190610284919061336b565b611c7a565b005b34801561029757600080fd5b506102b260048036038101906102ad91906133c4565b611ff9565b005b3480156102c057600080fd5b506102db60048036038101906102d6919061342b565b61228b565b005b3480156102e957600080fd5b5061030460048036038101906102ff919061336b565b61230f565b60405161031c9c9b9a99989796959493929190613508565b60405180910390f35b61032d61249d565b80602001356000801b60976000838152602001908152602001600020600001541415610385576040517f5dcaf2d700000000000000000000000000000000000000000000000000000000815260040160405180910390fd5b6000826020013590506000836000013590506000609b600084815260200190815260200160002060003373ffffffffffffffffffffffffffffffffffffffff1673ffffffffffffffffffffffffffffffffffffffff1681526020019081526020016000209050600073ffffffffffffffffffffffffffffffffffffffff168160020160019054906101000a900473ffffffffffffffffffffffffffffffffffffffff1673ffffffffffffffffffffffffffffffffffffffff1614610475576040517fb8cee9f000000000000000000000000000000000000000000000000000000000815260040160405180910390fd5b60006097600087602001358152602001908152602001600020905080600701548310806104a85750806005016001015483115b156104ea57826040517fd9cf167e0000000000000000000000000000000000000000000000000000000081526004016104e191906130d1565b60405180910390fd5b60008260000154846104fc91906135f3565b90506000609760008781526020019081526020016000206005019050600073ffffffffffffffffffffffffffffffffffffffff168160000160009054906101000a900473ffffffffffffffffffffffffffffffffffffffff1673ffffffffffffffffffffffffffffffffffffffff16146105a5576105a08160000160009054906101000a900473ffffffffffffffffffffffffffffffffffffffff163330856124ed565b6105ea565b8134146105e957346040517fd9cf167e0000000000000000000000000000000000000000000000000000000081526004016105e091906130d1565b60405180910390fd5b5b610603888036038101906105fe919061371c565b61269e565b505050505050506106126127fe565b50565b61061d61249d565b80600001356000801b60976000838152602001908152602001600020600001541415610675576040517f5dcaf2d700000000000000000000000000000000000000000000000000000000815260040160405180910390fd5b6000826000013590506000836020016020810190610693919061342b565b9050600073ffffffffffffffffffffffffffffffffffffffff163373ffffffffffffffffffffffffffffffffffffffff1614156106fc576040517f0809490800000000000000000000000000000000000000000000000000000000815260040160405180910390fd5b600060976000848152602001908152602001600020905080600c0160009054906101000a900460ff1661075b576040517f3c24fafc00000000000000000000000000000000000000000000000000000000815260040160405180910390fd5b3373ffffffffffffffffffffffffffffffffffffffff168160010160019054906101000a900473ffffffffffffffffffffffffffffffffffffffff1673ffffffffffffffffffffffffffffffffffffffff1614610815578060010160019054906101000a900473ffffffffffffffffffffffffffffffffffffffff16336040517f0500cb4c00000000000000000000000000000000000000000000000000000000815260040161080c929190613749565b60405180910390fd5b6000609b600085815260200190815260200160002060008473ffffffffffffffffffffffffffffffffffffffff1673ffffffffffffffffffffffffffffffffffffffff168152602001908152602001600020905060028081111561087c5761087b6131cf565b5b8160020160009054906101000a900460ff1660028111156108a05761089f6131cf565b5b146108f3578060020160009054906101000a900460ff166040517f64b08c060000000000000000000000000000000000000000000000000000000081526004016108ea9190613772565b60405180910390fd5b4281600401541015610942578060040154426040517f1d35563900000000000000000000000000000000000000000000000000000000815260040161093992919061378d565b60405180910390fd5b60018160020160006101000a81548160ff0219169083600281111561096a576109696131cf565b5b021790555060008260020190506109d18160000160009054906101000a900473ffffffffffffffffffffffffffffffffffffffff168360020160019054906101000a900473ffffffffffffffffffffffffffffffffffffffff168360010154609a54612808565b6000836005019050610a338160000160009054906101000a900473ffffffffffffffffffffffffffffffffffffffff168560010160019054906101000a900473ffffffffffffffffffffffffffffffffffffffff168560000154609954612808565b50505050505050610a426127fe565b50565b610a4d61249d565b80600001356000801b60976000838152602001908152602001600020600001541415610aa5576040517f5dcaf2d700000000000000000000000000000000000000000000000000000000815260040160405180910390fd5b60006097600084600001358152602001908152602001600020905080600c0160009054906101000a900460ff1615610b09576040517f531749dd00000000000000000000000000000000000000000000000000000000815260040160405180910390fd5b600073ffffffffffffffffffffffffffffffffffffffff168160040160009054906101000a900473ffffffffffffffffffffffffffffffffffffffff1673ffffffffffffffffffffffffffffffffffffffff1614158015610bba57503373ffffffffffffffffffffffffffffffffffffffff168160040160009054906101000a900473ffffffffffffffffffffffffffffffffffffffff1673ffffffffffffffffffffffffffffffffffffffff1614155b15610bf1576040517fbe544a2b00000000000000000000000000000000000000000000000000000000815260040160405180910390fd5b600280811115610c0457610c036131cf565b5b8160010160009054906101000a900460ff166002811115610c2857610c276131cf565b5b1415610c60576040517f0368368700000000000000000000000000000000000000000000000000000000815260040160405180910390fd5b60028160010160006101000a81548160ff02191690836002811115610c8857610c876131cf565b5b02179055504281600a0181905550610ce48160020160000160009054906101000a900473ffffffffffffffffffffffffffffffffffffffff16846020016020810190610cd4919061342b565b8360020160010154609a54612808565b60006103e86099548360050160010154610cfe91906137b6565b610d08919061383f565b90506000818360050160010154610d1f91906135f3565b9050600073ffffffffffffffffffffffffffffffffffffffff168360050160000160009054906101000a900473ffffffffffffffffffffffffffffffffffffffff1673ffffffffffffffffffffffffffffffffffffffff161415610ea0578260050160010154341015610dc7576040517f08c379a0000000000000000000000000000000000000000000000000000000008152600401610dbe906138cd565b60405180910390fd5b8260010160019054906101000a900473ffffffffffffffffffffffffffffffffffffffff1673ffffffffffffffffffffffffffffffffffffffff166108fc829081150290604051600060405180830381858888f19350505050158015610e31573d6000803e3d6000fd5b50609860009054906101000a900473ffffffffffffffffffffffffffffffffffffffff1673ffffffffffffffffffffffffffffffffffffffff166108fc839081150290604051600060405180830381858888f19350505050158015610e9a573d6000803e3d6000fd5b50610f2b565b610ee58360050160000160009054906101000a900473ffffffffffffffffffffffffffffffffffffffff1633876020016020810190610edf919061342b565b846124ed565b610f2a8360050160000160009054906101000a900473ffffffffffffffffffffffffffffffffffffffff1633876020016020810190610f24919061342b565b856124ed565b5b84600001358360040160009054906101000a900473ffffffffffffffffffffffffffffffffffffffff1673ffffffffffffffffffffffffffffffffffffffff168460010160019054906101000a900473ffffffffffffffffffffffffffffffffffffffff1673ffffffffffffffffffffffffffffffffffffffff167f6bf7309f141d1b44e414f1fc04d98491cd0acf98f0f1e5ad885d0a7ce164e6fa60405160405180910390a450505050610fde6127fe565b50565b610fe961249d565b80600001356000801b60976000838152602001908152602001600020600001541415611041576040517f5dcaf2d700000000000000000000000000000000000000000000000000000000815260040160405180910390fd5b6000609760008460000135815260200190815260200160002090503373ffffffffffffffffffffffffffffffffffffffff168160010160019054906101000a900473ffffffffffffffffffffffffffffffffffffffff1673ffffffffffffffffffffffffffffffffffffffff16146110e5576040517f978f045600000000000000000000000000000000000000000000000000000000815260040160405180910390fd5b600060028111156110f9576110f86131cf565b5b8160010160009054906101000a900460ff16600281111561111d5761111c6131cf565b5b14611154576040517f0368368700000000000000000000000000000000000000000000000000000000815260040160405180910390fd5b60018160010160006101000a81548160ff0219169083600281111561117c5761117b6131cf565b5b0217905550600073ffffffffffffffffffffffffffffffffffffffff168160020160000160009054906101000a900473ffffffffffffffffffffffffffffffffffffffff1673ffffffffffffffffffffffffffffffffffffffff161415611230573373ffffffffffffffffffffffffffffffffffffffff166108fc82600501600101549081150290604051600060405180830381858888f1935050505015801561122a573d6000803e3d6000fd5b506112ed565b8060020160000160009054906101000a900473ffffffffffffffffffffffffffffffffffffffff1673ffffffffffffffffffffffffffffffffffffffff1663a9059cbb3383600501600101546040518363ffffffff1660e01b81526004016112999291906138ed565b602060405180830381600087803b1580156112b357600080fd5b505af11580156112c7573d6000803e3d6000fd5b505050506040513d601f19601f820116820180604052508101906112eb9190613942565b505b82600001357ff68aeec8f55d67a9b2cf2b6caea31e11f2c14e09da250170575d63911f26aa6e60405160405180910390a260976000846000013581526020019081526020016000206000808201600090556001820160006101000a81549060ff02191690556001820160016101000a81549073ffffffffffffffffffffffffffffffffffffffff021916905560028201600080820160006101000a81549073ffffffffffffffffffffffffffffffffffffffff0219169055600182016000905550506004820160006101000a81549073ffffffffffffffffffffffffffffffffffffffff021916905560058201600080820160006101000a81549073ffffffffffffffffffffffffffffffffffffffff021916905560018201600090555050600782016000905560088201600090556009820160009055600a820160009055600b820160009055600c820160006101000a81549060ff0219169055505050506114546127fe565b50565b609a5481565b609b602052816000526040600020602052806000526040600020600091509150508060000154908060010154908060020160009054906101000a900460ff16908060020160019054906101000a900473ffffffffffffffffffffffffffffffffffffffff16908060030154908060040154905086565b6114db61249d565b80600001356000801b60976000838152602001908152602001600020600001541415611533576040517f5dcaf2d700000000000000000000000000000000000000000000000000000000815260040160405180910390fd5b6000826000013590506000836020013590506000609b600084815260200190815260200160002060003373ffffffffffffffffffffffffffffffffffffffff1673ffffffffffffffffffffffffffffffffffffffff1681526020019081526020016000209050600073ffffffffffffffffffffffffffffffffffffffff168160020160019054906101000a900473ffffffffffffffffffffffffffffffffffffffff1673ffffffffffffffffffffffffffffffffffffffff161415611624576040517f0a0c23ee00000000000000000000000000000000000000000000000000000000815260040160405180910390fd5b6000609760008581526020019081526020016000209050600083141561168157826040517fd9cf167e00000000000000000000000000000000000000000000000000000000815260040161167891906130d1565b60405180910390fd5b82826000016000828254611695919061396f565b925050819055508060050160010154826000015411156116f05781600001546040517fd9cf167e0000000000000000000000000000000000000000000000000000000081526004016116e791906130d1565b60405180910390fd5b6000816005019050600073ffffffffffffffffffffffffffffffffffffffff168160000160009054906101000a900473ffffffffffffffffffffffffffffffffffffffff1673ffffffffffffffffffffffffffffffffffffffff1614611785576117808160000160009054906101000a900473ffffffffffffffffffffffffffffffffffffffff163330876124ed565b6117ca565b8334146117c957346040517fd9cf167e0000000000000000000000000000000000000000000000000000000081526004016117c091906130d1565b60405180910390fd5b5b5050505050506117d86127fe565b50565b6117e361295f565b6117ed60006129dd565b565b60995481565b6000603360009054906101000a900473ffffffffffffffffffffffffffffffffffffffff16905090565b61182761249d565b80604001600001602081019061183d919061342b565b73ffffffffffffffffffffffffffffffffffffffff16816000016000016020810190611869919061342b565b73ffffffffffffffffffffffffffffffffffffffff1614156118b7576040517f45b3a4c700000000000000000000000000000000000000000000000000000000815260040160405180910390fd5b60008160a00135116118f5576040517f5fe07c7d00000000000000000000000000000000000000000000000000000000815260040160405180910390fd5b600073ffffffffffffffffffffffffffffffffffffffff163373ffffffffffffffffffffffffffffffffffffffff16141561195c576040517f0809490800000000000000000000000000000000000000000000000000000000815260040160405180910390fd5b428160c0013510156119ab578060c00135426040517ff00605cf0000000000000000000000000000000000000000000000000000000081526004016119a292919061378d565b60405180910390fd5b60006119b633612aa3565b90506119d281838036038101906119cd9190613acb565b612aef565b600073ffffffffffffffffffffffffffffffffffffffff16826000016000016020810190611a00919061342b565b73ffffffffffffffffffffffffffffffffffffffff161415611a6b578160000160200135341015611a66576040517f08c379a0000000000000000000000000000000000000000000000000000000008152600401611a5d90613b45565b60405180910390fd5b611c41565b6000826000016000016020810190611a83919061342b565b905060008173ffffffffffffffffffffffffffffffffffffffff1663dd62ed3e33306040518363ffffffff1660e01b8152600401611ac2929190613749565b60206040518083038186803b158015611ada57600080fd5b505afa158015611aee573d6000803e3d6000fd5b505050506040513d601f19601f82011682018060405250810190611b129190613b7a565b90508360000160200135811015611b69578360000160200135816040517f7c8db62f000000000000000000000000000000000000000000000000000000008152600401611b6092919061378d565b60405180910390fd5b8173ffffffffffffffffffffffffffffffffffffffff166323b872dd333087600001602001356040518463ffffffff1660e01b8152600401611bad93929190613ba7565b602060405180830381600087803b158015611bc757600080fd5b505af1158015611bdb573d6000803e3d6000fd5b505050506040513d601f19601f82011682018060405250810190611bff9190613942565b611c3e576040517f08c379a0000000000000000000000000000000000000000000000000000000008152600401611c3590613c2a565b60405180910390fd5b50505b807f8b82d32987f9a4ae1bc7868a6f104edb711227ec3c9fccb0416a14fcc29bec5a60405160405180910390a250611c776127fe565b50565b611c8261249d565b806000801b60976000838152602001908152602001600020600001541415611cd6576040517f5dcaf2d700000000000000000000000000000000000000000000000000000000815260040160405180910390fd5b60003414611d19576040517f08c379a0000000000000000000000000000000000000000000000000000000008152600401611d1090613c96565b60405180910390fd5b6000609b600084815260200190815260200160002060003373ffffffffffffffffffffffffffffffffffffffff1673ffffffffffffffffffffffffffffffffffffffff16815260200190815260200160002090503373ffffffffffffffffffffffffffffffffffffffff168160020160019054906101000a900473ffffffffffffffffffffffffffffffffffffffff1673ffffffffffffffffffffffffffffffffffffffff1614611df6576040517f978f045600000000000000000000000000000000000000000000000000000000815260040160405180910390fd5b600280811115611e0957611e086131cf565b5b8160020160009054906101000a900460ff166002811115611e2d57611e2c6131cf565b5b14611e80578060020160009054906101000a900460ff166040517f64b08c06000000000000000000000000000000000000000000000000000000008152600401611e779190613772565b60405180910390fd5b60008160020160006101000a81548160ff02191690836002811115611ea857611ea76131cf565b5b02179055506000609760008581526020019081526020016000206005019050600073ffffffffffffffffffffffffffffffffffffffff168160000160009054906101000a900473ffffffffffffffffffffffffffffffffffffffff1673ffffffffffffffffffffffffffffffffffffffff1614611f7b57611f768160000160009054906101000a900473ffffffffffffffffffffffffffffffffffffffff168360020160019054906101000a900473ffffffffffffffffffffffffffffffffffffffff168460000154612e11565b611feb565b8160020160019054906101000a900473ffffffffffffffffffffffffffffffffffffffff1673ffffffffffffffffffffffffffffffffffffffff166108fc83600001549081150290604051600060405180830381858888f19350505050158015611fe9573d6000803e3d6000fd5b505b505050611ff66127fe565b50565b60008060019054906101000a900460ff1615905080801561202a5750600160008054906101000a900460ff1660ff16105b80612057575061203930612ee8565b1580156120565750600160008054906101000a900460ff1660ff16145b5b612096576040517f08c379a000000000000000000000000000000000000000000000000000000000815260040161208d90613d28565b60405180910390fd5b60016000806101000a81548160ff021916908360ff16021790555080156120d3576001600060016101000a81548160ff0219169083151502179055505b6120db612f0b565b6120e48561228b565b6103e88310612128576040517f08c379a000000000000000000000000000000000000000000000000000000000815260040161211f90613dba565b60405180910390fd5b6103e8821061216c576040517f08c379a000000000000000000000000000000000000000000000000000000000815260040161216390613dba565b60405180910390fd5b600073ffffffffffffffffffffffffffffffffffffffff168473ffffffffffffffffffffffffffffffffffffffff1614156121dc576040517f08c379a00000000000000000000000000000000000000000000000000000000081526004016121d390613e26565b60405180910390fd5b8260998190555081609a8190555083609860006101000a81548173ffffffffffffffffffffffffffffffffffffffff021916908373ffffffffffffffffffffffffffffffffffffffff16021790555080156122845760008060016101000a81548160ff0219169083151502179055507f7f26b83ff96e1f2b6a682f133852f6798a09c465da95921460cefb3847402498600160405161227b9190613e98565b60405180910390a15b5050505050565b61229361295f565b600073ffffffffffffffffffffffffffffffffffffffff168173ffffffffffffffffffffffffffffffffffffffff161415612303576040517f08c379a00000000000000000000000000000000000000000000000000000000081526004016122fa90613f25565b60405180910390fd5b61230c816129dd565b50565b60976020528060005260406000206000915090508060000154908060010160009054906101000a900460ff16908060010160019054906101000a900473ffffffffffffffffffffffffffffffffffffffff1690806002016040518060400160405290816000820160009054906101000a900473ffffffffffffffffffffffffffffffffffffffff1673ffffffffffffffffffffffffffffffffffffffff1673ffffffffffffffffffffffffffffffffffffffff168152602001600182015481525050908060040160009054906101000a900473ffffffffffffffffffffffffffffffffffffffff1690806005016040518060400160405290816000820160009054906101000a900473ffffffffffffffffffffffffffffffffffffffff1673ffffffffffffffffffffffffffffffffffffffff1673ffffffffffffffffffffffffffffffffffffffff1681526020016001820154815250509080600701549080600801549080600901549080600a01549080600b01549080600c0160009054906101000a900460ff1690508c565b600260655414156124e3576040517f08c379a00000000000000000000000000000000000000000000000000000000081526004016124da90613f91565b60405180910390fd5b6002606581905550565b600084905060008173ffffffffffffffffffffffffffffffffffffffff1663dd62ed3e33306040518363ffffffff1660e01b815260040161252f929190613749565b60206040518083038186803b15801561254757600080fd5b505afa15801561255b573d6000803e3d6000fd5b505050506040513d601f19601f8201168201806040525081019061257f9190613b7a565b9050828110156125c85780836040517f7c8db62f0000000000000000000000000000000000000000000000000000000081526004016125bf92919061378d565b60405180910390fd5b8173ffffffffffffffffffffffffffffffffffffffff166323b872dd8686866040518463ffffffff1660e01b815260040161260593929190613ba7565b602060405180830381600087803b15801561261f57600080fd5b505af1158015612633573d6000803e3d6000fd5b505050506040513d601f19601f820116820180604052508101906126579190613942565b612696576040517f08c379a000000000000000000000000000000000000000000000000000000000815260040161268d90613ffd565b60405180910390fd5b505050505050565b60006040518060c0016040528083600001518152602001836020015181526020016002808111156126d2576126d16131cf565b5b81526020013373ffffffffffffffffffffffffffffffffffffffff1681526020014281526020018360400151815250905080609b60008460200151815260200190815260200160002060003373ffffffffffffffffffffffffffffffffffffffff1673ffffffffffffffffffffffffffffffffffffffff168152602001908152602001600020600082015181600001556020820151816001015560408201518160020160006101000a81548160ff02191690836002811115612797576127966131cf565b5b021790555060608201518160020160016101000a81548173ffffffffffffffffffffffffffffffffffffffff021916908373ffffffffffffffffffffffffffffffffffffffff1602179055506080820151816003015560a082015181600401559050505050565b6001606581905550565b60006103e8828461281991906137b6565b612823919061383f565b90506000818461283391906135f3565b9050600073ffffffffffffffffffffffffffffffffffffffff168673ffffffffffffffffffffffffffffffffffffffff16146128a657612874868683612e11565b6128a186609860009054906101000a900473ffffffffffffffffffffffffffffffffffffffff1684612e11565b612957565b8473ffffffffffffffffffffffffffffffffffffffff166108fc829081150290604051600060405180830381858888f193505050501580156128ec573d6000803e3d6000fd5b50609860009054906101000a900473ffffffffffffffffffffffffffffffffffffffff1673ffffffffffffffffffffffffffffffffffffffff166108fc839081150290604051600060405180830381858888f19350505050158015612955573d6000803e3d6000fd5b505b505050505050565b612967612f6c565b73ffffffffffffffffffffffffffffffffffffffff166129856117f5565b73ffffffffffffffffffffffffffffffffffffffff16146129db576040517f08c379a00000000000000000000000000000000000000000000000000000000081526004016129d290614069565b60405180910390fd5b565b6000603360009054906101000a900473ffffffffffffffffffffffffffffffffffffffff16905081603360006101000a81548173ffffffffffffffffffffffffffffffffffffffff021916908373ffffffffffffffffffffffffffffffffffffffff1602179055508173ffffffffffffffffffffffffffffffffffffffff168173ffffffffffffffffffffffffffffffffffffffff167f8be0079c531659141344cd1fd0a4f28419497f9722a3daafe3b4186f6b6457e060405160405180910390a35050565b600081609c54604051602001612aba9291906138ed565b604051602081830303815290604052805190602001209050609c6000815480929190612ae590614089565b9190505550919050565b6000801b609760008481526020019081526020016000206000015414612b41576040517f966753c500000000000000000000000000000000000000000000000000000000815260040160405180910390fd5b600060405180610180016040528084815260200160006002811115612b6957612b686131cf565b5b81526020013373ffffffffffffffffffffffffffffffffffffffff16815260200183600001518152602001836040015173ffffffffffffffffffffffffffffffffffffffff16815260200183602001518152602001836060015181526020014281526020016000815260200160008152602001836080015181526020018360a001511515815250905080609760008581526020019081526020016000206000820151816000015560208201518160010160006101000a81548160ff02191690836002811115612c3b57612c3a6131cf565b5b021790555060408201518160010160016101000a81548173ffffffffffffffffffffffffffffffffffffffff021916908373ffffffffffffffffffffffffffffffffffffffff16021790555060608201518160020160008201518160000160006101000a81548173ffffffffffffffffffffffffffffffffffffffff021916908373ffffffffffffffffffffffffffffffffffffffff16021790555060208201518160010155505060808201518160040160006101000a81548173ffffffffffffffffffffffffffffffffffffffff021916908373ffffffffffffffffffffffffffffffffffffffff16021790555060a08201518160050160008201518160000160006101000a81548173ffffffffffffffffffffffffffffffffffffffff021916908373ffffffffffffffffffffffffffffffffffffffff16021790555060208201518160010155505060c0820151816007015560e08201518160080155610100820151816009015561012082015181600a015561014082015181600b015561016082015181600c0160006101000a81548160ff021916908315150217905550905050827f8b82d32987f9a4ae1bc7868a6f104edb711227ec3c9fccb0416a14fcc29bec5a60405160405180910390a2505050565b60008390508073ffffffffffffffffffffffffffffffffffffffff1663a9059cbb84846040518363ffffffff1660e01b8152600401612e519291906138ed565b602060405180830381600087803b158015612e6b57600080fd5b505af1158015612e7f573d6000803e3d6000fd5b505050506040513d601f19601f82011682018060405250810190612ea39190613942565b612ee2576040517f08c379a0000000000000000000000000000000000000000000000000000000008152600401612ed990613ffd565b60405180910390fd5b50505050565b6000808273ffffffffffffffffffffffffffffffffffffffff163b119050919050565b600060019054906101000a900460ff16612f5a576040517f08c379a0000000000000000000000000000000000000000000000000000000008152600401612f5190614144565b60405180910390fd5b612f6a612f65612f6c565b6129dd565b565b600033905090565b6000604051905090565b600080fd5b600080fd5b600060608284031215612f9e57612f9d612f83565b5b81905092915050565b600060608284031215612fbd57612fbc612f7e565b5b6000612fcb84828501612f88565b91505092915050565b600060408284031215612fea57612fe9612f83565b5b81905092915050565b60006040828403121561300957613008612f7e565b5b600061301784828501612fd4565b91505092915050565b60006040828403121561303657613035612f83565b5b81905092915050565b60006040828403121561305557613054612f7e565b5b600061306384828501613020565b91505092915050565b60006020828403121561308257613081612f83565b5b81905092915050565b6000602082840312156130a1576130a0612f7e565b5b60006130af8482850161306c565b91505092915050565b6000819050919050565b6130cb816130b8565b82525050565b60006020820190506130e660008301846130c2565b92915050565b6000819050919050565b6130ff816130ec565b811461310a57600080fd5b50565b60008135905061311c816130f6565b92915050565b600073ffffffffffffffffffffffffffffffffffffffff82169050919050565b600061314d82613122565b9050919050565b61315d81613142565b811461316857600080fd5b50565b60008135905061317a81613154565b92915050565b6000806040838503121561319757613196612f7e565b5b60006131a58582860161310d565b92505060206131b68582860161316b565b9150509250929050565b6131c9816130ec565b82525050565b7f4e487b7100000000000000000000000000000000000000000000000000000000600052602160045260246000fd5b6003811061320f5761320e6131cf565b5b50565b6000819050613220826131fe565b919050565b600061323082613212565b9050919050565b61324081613225565b82525050565b61324f81613142565b82525050565b600060c08201905061326a60008301896130c2565b61327760208301886131c0565b6132846040830187613237565b6132916060830186613246565b61329e60808301856130c2565b6132ab60a08301846130c2565b979650505050505050565b6000604082840312156132cc576132cb612f83565b5b81905092915050565b6000604082840312156132eb576132ea612f7e565b5b60006132f9848285016132b6565b91505092915050565b60006020820190506133176000830184613246565b92915050565b6000610100828403121561333457613333612f83565b5b81905092915050565b6000610100828403121561335457613353612f7e565b5b60006133628482850161331d565b91505092915050565b60006020828403121561338157613380612f7e565b5b600061338f8482850161310d565b91505092915050565b6133a1816130b8565b81146133ac57600080fd5b50565b6000813590506133be81613398565b92915050565b600080600080608085870312156133de576133dd612f7e565b5b60006133ec8782880161316b565b94505060206133fd8782880161316b565b935050604061340e878288016133af565b925050606061341f878288016133af565b91505092959194509250565b60006020828403121561344157613440612f7e565b5b600061344f8482850161316b565b91505092915050565b60038110613469576134686131cf565b5b50565b600081905061347a82613458565b919050565b600061348a8261346c565b9050919050565b61349a8161347f565b82525050565b6134a981613142565b82525050565b6134b8816130b8565b82525050565b6040820160008201516134d460008501826134a0565b5060208201516134e760208501826134af565b50505050565b60008115159050919050565b613502816134ed565b82525050565b60006101c08201905061351e600083018f6131c0565b61352b602083018e613491565b613538604083018d613246565b613545606083018c6134be565b61355260a083018b613246565b61355f60c083018a6134be565b61356d6101008301896130c2565b61357b6101208301886130c2565b6135896101408301876130c2565b6135976101608301866130c2565b6135a56101808301856130c2565b6135b36101a08301846134f9565b9d9c50505050505050505050505050565b7f4e487b7100000000000000000000000000000000000000000000000000000000600052601160045260246000fd5b60006135fe826130b8565b9150613609836130b8565b92508282101561361c5761361b6135c4565b5b828203905092915050565b600080fd5b6000601f19601f8301169050919050565b7f4e487b7100000000000000000000000000000000000000000000000000000000600052604160045260246000fd5b6136758261362c565b810181811067ffffffffffffffff821117156136945761369361363d565b5b80604052505050565b60006136a7612f74565b90506136b3828261366c565b919050565b6000606082840312156136ce576136cd613627565b5b6136d8606061369d565b905060006136e8848285016133af565b60008301525060206136fc8482850161310d565b6020830152506040613710848285016133af565b60408301525092915050565b60006060828403121561373257613731612f7e565b5b6000613740848285016136b8565b91505092915050565b600060408201905061375e6000830185613246565b61376b6020830184613246565b9392505050565b60006020820190506137876000830184613237565b92915050565b60006040820190506137a260008301856130c2565b6137af60208301846130c2565b9392505050565b60006137c1826130b8565b91506137cc836130b8565b9250817fffffffffffffffffffffffffffffffffffffffffffffffffffffffffffffffff0483118215151615613805576138046135c4565b5b828202905092915050565b7f4e487b7100000000000000000000000000000000000000000000000000000000600052601260045260246000fd5b600061384a826130b8565b9150613855836130b8565b92508261386557613864613810565b5b828204905092915050565b600082825260208201905092915050565b7f4e6f7420656e6f7567682066756e647320746f20627579000000000000000000600082015250565b60006138b7601783613870565b91506138c282613881565b602082019050919050565b600060208201905081810360008301526138e6816138aa565b9050919050565b60006040820190506139026000830185613246565b61390f60208301846130c2565b9392505050565b61391f816134ed565b811461392a57600080fd5b50565b60008151905061393c81613916565b92915050565b60006020828403121561395857613957612f7e565b5b60006139668482850161392d565b91505092915050565b600061397a826130b8565b9150613985836130b8565b9250827fffffffffffffffffffffffffffffffffffffffffffffffffffffffffffffffff038211156139ba576139b96135c4565b5b828201905092915050565b6000604082840312156139db576139da613627565b5b6139e5604061369d565b905060006139f58482850161316b565b6000830152506020613a09848285016133af565b60208301525092915050565b600081359050613a2481613916565b92915050565b60006101008284031215613a4157613a40613627565b5b613a4b60c061369d565b90506000613a5b848285016139c5565b6000830152506040613a6f848285016139c5565b6020830152506080613a838482850161316b565b60408301525060a0613a97848285016133af565b60608301525060c0613aab848285016133af565b60808301525060e0613abf84828501613a15565b60a08301525092915050565b60006101008284031215613ae257613ae1612f7e565b5b6000613af084828501613a2a565b91505092915050565b7f4e6f7420656e6f75676820657468657200000000000000000000000000000000600082015250565b6000613b2f601083613870565b9150613b3a82613af9565b602082019050919050565b60006020820190508181036000830152613b5e81613b22565b9050919050565b600081519050613b7481613398565b92915050565b600060208284031215613b9057613b8f612f7e565b5b6000613b9e84828501613b65565b91505092915050565b6000606082019050613bbc6000830186613246565b613bc96020830185613246565b613bd660408301846130c2565b949350505050565b7f4661696c656420696e204c6f636b20746f6b656e000000000000000000000000600082015250565b6000613c14601483613870565b9150613c1f82613bde565b602082019050919050565b60006020820190508181036000830152613c4381613c07565b9050919050565b7f556e65787065637465642045746865722073656e740000000000000000000000600082015250565b6000613c80601583613870565b9150613c8b82613c4a565b602082019050919050565b60006020820190508181036000830152613caf81613c73565b9050919050565b7f496e697469616c697a61626c653a20636f6e747261637420697320616c72656160008201527f647920696e697469616c697a6564000000000000000000000000000000000000602082015250565b6000613d12602e83613870565b9150613d1d82613cb6565b604082019050919050565b60006020820190508181036000830152613d4181613d05565b9050919050565b7f73656c6c65724665652068617320746f20626520736d616c6c6572207468616e60008201527f206d617846656500000000000000000000000000000000000000000000000000602082015250565b6000613da4602783613870565b9150613daf82613d48565b604082019050919050565b60006020820190508181036000830152613dd381613d97565b9050919050565b7f696e76616c696420747265617375727920616464726573730000000000000000600082015250565b6000613e10601883613870565b9150613e1b82613dda565b602082019050919050565b60006020820190508181036000830152613e3f81613e03565b9050919050565b6000819050919050565b600060ff82169050919050565b6000819050919050565b6000613e82613e7d613e7884613e46565b613e5d565b613e50565b9050919050565b613e9281613e67565b82525050565b6000602082019050613ead6000830184613e89565b92915050565b7f4f776e61626c653a206e6577206f776e657220697320746865207a65726f206160008201527f6464726573730000000000000000000000000000000000000000000000000000602082015250565b6000613f0f602683613870565b9150613f1a82613eb3565b604082019050919050565b60006020820190508181036000830152613f3e81613f02565b9050919050565b7f5265656e7472616e637947756172643a207265656e7472616e742063616c6c00600082015250565b6000613f7b601f83613870565b9150613f8682613f45565b602082019050919050565b60006020820190508181036000830152613faa81613f6e565b9050919050565b7f4661696c656420746f207472616e736665722066726f6d000000000000000000600082015250565b6000613fe7601783613870565b9150613ff282613fb1565b602082019050919050565b6000602082019050818103600083015261401681613fda565b9050919050565b7f4f776e61626c653a2063616c6c6572206973206e6f7420746865206f776e6572600082015250565b6000614053602083613870565b915061405e8261401d565b602082019050919050565b6000602082019050818103600083015261408281614046565b9050919050565b6000614094826130b8565b91507fffffffffffffffffffffffffffffffffffffffffffffffffffffffffffffffff8214156140c7576140c66135c4565b5b600182019050919050565b7f496e697469616c697a61626c653a20636f6e7472616374206973206e6f74206960008201527f6e697469616c697a696e67000000000000000000000000000000000000000000602082015250565b600061412e602b83613870565b9150614139826140d2565b604082019050919050565b6000602082019050818103600083015261415d81614121565b905091905056fea26469706673582212202ae934362a321b40a11afe4f74c20fe45115aead525987ee0f380f2eb906f9b264736f6c63430008090033",
  "linkReferences": {},
  "deployedLinkReferences": {}
}