{
  "_format": "hh-sol-artifact-1",
  "contractName": "AtomicSwap",
  "sourceName": "contracts/AtomicSwap.sol",
  "abi": [
    {
      "inputs": [
        {
          "internalType": "uint256",
          "name": "provided",
          "type": "uint256"
        },
        {
          "internalType": "uint256",
          "name": "expectedExpiry",
          "type": "uint256"
        }
      ],
      "name": "BidAlreadyExpired",
      "type": "error"
    },
    {
      "inputs": [],
      "name": "BidAlreadyPlaced",
      "type": "error"
    },
    {
      "inputs": [],
      "name": "BidNotAllowed",
      "type": "error"
    },
    {
      "inputs": [
        {
          "internalType": "enum IAtomicSwap.BidStatus",
          "name": "status",
          "type": "uint8"
        }
      ],
      "name": "BidNotInPlacedStatus",
      "type": "error"
    },
    {
      "inputs": [
        {
          "internalType": "uint256",
          "name": "provided",
          "type": "uint256"
        },
        {
          "internalType": "uint256",
          "name": "maximum",
          "type": "uint256"
        }
      ],
      "name": "InvalidExpirationTime",
      "type": "error"
    },
    {
      "inputs": [],
      "name": "InvalidMinimumBidLimit",
      "type": "error"
    },
    {
      "inputs": [
        {
          "internalType": "uint256",
          "name": "amount",
          "type": "uint256"
        }
      ],
      "name": "MismatchedBidAmount",
      "type": "error"
    },
    {
      "inputs": [],
      "name": "NoBidPlaced",
      "type": "error"
    },
    {
      "inputs": [
        {
          "internalType": "uint256",
          "name": "amount",
          "type": "uint256"
        },
        {
          "internalType": "uint256",
          "name": "allowance",
          "type": "uint256"
        }
      ],
      "name": "NotAllowedTransferAmount",
      "type": "error"
    },
    {
      "inputs": [],
      "name": "OrderAlreadyCompleted",
      "type": "error"
    },
    {
      "inputs": [],
      "name": "OrderAlreadyExists",
      "type": "error"
    },
    {
      "inputs": [],
      "name": "OrderDoesNotExist",
      "type": "error"
    },
    {
      "inputs": [],
      "name": "OrderNotAllowTake",
      "type": "error"
    },
    {
      "inputs": [
        {
          "internalType": "address",
          "name": "caller",
          "type": "address"
        },
        {
          "internalType": "address",
          "name": "expected",
          "type": "address"
        }
      ],
      "name": "UnauthorizedAcceptAction",
      "type": "error"
    },
    {
      "inputs": [],
      "name": "UnauthorizedCancelAction",
      "type": "error"
    },
    {
      "inputs": [],
      "name": "UnauthorizedSender",
      "type": "error"
    },
    {
      "inputs": [],
      "name": "UnauthorizedTakeAction",
      "type": "error"
    },
    {
      "inputs": [],
      "name": "UnsupportedTokenPair",
      "type": "error"
    },
    {
      "anonymous": false,
      "inputs": [
        {
          "indexed": true,
          "internalType": "bytes32",
          "name": "orderID",
          "type": "bytes32"
        },
        {
          "indexed": true,
          "internalType": "address",
          "name": "bidder",
          "type": "address"
        },
        {
          "indexed": true,
          "internalType": "uint256",
          "name": "amount",
          "type": "uint256"
        }
      ],
      "name": "AcceptedBid",
      "type": "event"
    },
    {
      "anonymous": false,
      "inputs": [
        {
          "indexed": true,
          "internalType": "bytes32",
          "name": "id",
          "type": "bytes32"
        }
      ],
      "name": "AtomicSwapOrderCanceled",
      "type": "event"
    },
    {
      "anonymous": false,
      "inputs": [
        {
          "indexed": true,
          "internalType": "bytes32",
          "name": "id",
          "type": "bytes32"
        }
      ],
      "name": "AtomicSwapOrderCreated",
      "type": "event"
    },
    {
      "anonymous": false,
      "inputs": [
        {
          "indexed": true,
          "internalType": "address",
          "name": "maker",
          "type": "address"
        },
        {
          "indexed": true,
          "internalType": "address",
          "name": "taker",
          "type": "address"
        },
        {
          "indexed": true,
          "internalType": "bytes32",
          "name": "id",
          "type": "bytes32"
        }
      ],
      "name": "AtomicSwapOrderTook",
      "type": "event"
    },
    {
      "anonymous": false,
      "inputs": [
        {
          "indexed": true,
          "internalType": "bytes32",
          "name": "orderID",
          "type": "bytes32"
        },
        {
          "indexed": true,
          "internalType": "address",
          "name": "bidder",
          "type": "address"
        }
      ],
      "name": "CanceledBid",
      "type": "event"
    },
    {
      "anonymous": false,
      "inputs": [
        {
          "indexed": false,
          "internalType": "uint8",
          "name": "version",
          "type": "uint8"
        }
      ],
      "name": "Initialized",
      "type": "event"
    },
    {
      "anonymous": false,
      "inputs": [
        {
          "indexed": true,
          "internalType": "address",
          "name": "previousOwner",
          "type": "address"
        },
        {
          "indexed": true,
          "internalType": "address",
          "name": "newOwner",
          "type": "address"
        }
      ],
      "name": "OwnershipTransferred",
      "type": "event"
    },
    {
      "anonymous": false,
      "inputs": [
        {
          "indexed": true,
          "internalType": "bytes32",
          "name": "orderID",
          "type": "bytes32"
        },
        {
          "indexed": true,
          "internalType": "address",
          "name": "bidder",
          "type": "address"
        },
        {
          "indexed": true,
          "internalType": "uint256",
          "name": "amount",
          "type": "uint256"
        }
      ],
      "name": "ReceivedNewBid",
      "type": "event"
    },
    {
      "anonymous": false,
      "inputs": [
        {
          "indexed": true,
          "internalType": "bytes32",
          "name": "orderID",
          "type": "bytes32"
        },
        {
          "indexed": true,
          "internalType": "address",
          "name": "bidder",
          "type": "address"
        },
        {
          "indexed": true,
          "internalType": "uint256",
          "name": "amount",
          "type": "uint256"
        }
      ],
      "name": "UpdatedBid",
      "type": "event"
    },
    {
      "inputs": [
        {
          "components": [
            {
              "internalType": "bytes32",
              "name": "orderID",
              "type": "bytes32"
            },
            {
              "internalType": "address",
              "name": "bidder",
              "type": "address"
            }
          ],
          "internalType": "struct IAtomicSwap.AcceptBidMsg",
          "name": "acceptBidMsg",
          "type": "tuple"
        }
      ],
      "name": "acceptBid",
      "outputs": [],
      "stateMutability": "payable",
      "type": "function"
    },
    {
      "inputs": [
        {
          "components": [
            {
              "internalType": "bytes32",
              "name": "orderID",
              "type": "bytes32"
            },
            {
              "internalType": "address",
              "name": "bidder",
              "type": "address"
            },
            {
              "internalType": "uint256",
              "name": "amount",
              "type": "uint256"
            }
          ],
          "internalType": "struct IAtomicSwap.CounterOfferMsg",
          "name": "counterOfferMsg",
          "type": "tuple"
        }
      ],
      "name": "acceptCountOfffer",
      "outputs": [],
      "stateMutability": "nonpayable",
      "type": "function"
    },
    {
      "inputs": [
        {
          "internalType": "bytes32",
          "name": "",
          "type": "bytes32"
        },
        {
          "internalType": "address",
          "name": "",
          "type": "address"
        }
      ],
      "name": "bids",
      "outputs": [
        {
          "internalType": "uint256",
          "name": "amount",
          "type": "uint256"
        },
        {
          "internalType": "bytes32",
          "name": "order",
          "type": "bytes32"
        },
        {
          "internalType": "enum IAtomicSwap.BidStatus",
          "name": "status",
          "type": "uint8"
        },
        {
          "internalType": "address",
          "name": "bidder",
          "type": "address"
        },
        {
          "internalType": "uint256",
          "name": "receiveTimestamp",
          "type": "uint256"
        },
        {
          "internalType": "uint256",
          "name": "expireTimestamp",
          "type": "uint256"
        }
      ],
      "stateMutability": "view",
      "type": "function"
    },
    {
      "inputs": [],
      "name": "buyerFeeRate",
      "outputs": [
        {
          "internalType": "uint256",
          "name": "",
          "type": "uint256"
        }
      ],
      "stateMutability": "view",
      "type": "function"
    },
    {
      "inputs": [
        {
          "internalType": "bytes32",
          "name": "_orderID",
          "type": "bytes32"
        }
      ],
      "name": "cancelBid",
      "outputs": [],
      "stateMutability": "payable",
      "type": "function"
    },
    {
      "inputs": [
        {
          "components": [
            {
              "internalType": "bytes32",
              "name": "orderID",
              "type": "bytes32"
            }
          ],
          "internalType": "struct IAtomicSwap.CancelSwapMsg",
          "name": "cancelswap",
          "type": "tuple"
        }
      ],
      "name": "cancelSwap",
      "outputs": [],
      "stateMutability": "payable",
      "type": "function"
    },
    {
      "inputs": [
        {
          "components": [
            {
              "internalType": "bytes32",
              "name": "orderID",
              "type": "bytes32"
            },
            {
              "internalType": "address",
              "name": "bidder",
              "type": "address"
            },
            {
              "internalType": "uint256",
              "name": "amount",
              "type": "uint256"
            }
          ],
          "internalType": "struct IAtomicSwap.CounterOfferMsg",
          "name": "counterOfferMsg",
          "type": "tuple"
        }
      ],
      "name": "counteroffer",
      "outputs": [],
      "stateMutability": "nonpayable",
      "type": "function"
    },
    {
      "inputs": [
        {
          "internalType": "bytes32",
          "name": "",
          "type": "bytes32"
        },
        {
          "internalType": "address",
          "name": "",
          "type": "address"
        }
      ],
      "name": "counteroffers",
      "outputs": [
        {
          "internalType": "uint256",
          "name": "",
          "type": "uint256"
        }
      ],
      "stateMutability": "view",
      "type": "function"
    },
    {
      "inputs": [
        {
          "internalType": "address",
          "name": "_admin",
          "type": "address"
        },
        {
          "internalType": "address",
          "name": "_treasury",
          "type": "address"
        },
        {
          "internalType": "uint256",
          "name": "_sellerFee",
          "type": "uint256"
        },
        {
          "internalType": "uint256",
          "name": "_buyerFee",
          "type": "uint256"
        }
      ],
      "name": "initialize",
      "outputs": [],
      "stateMutability": "nonpayable",
      "type": "function"
    },
    {
      "inputs": [
        {
          "components": [
            {
              "components": [
                {
                  "internalType": "address",
                  "name": "token",
                  "type": "address"
                },
                {
                  "internalType": "uint256",
                  "name": "amount",
                  "type": "uint256"
                }
              ],
              "internalType": "struct IAtomicSwap.Coin",
              "name": "sellToken",
              "type": "tuple"
            },
            {
              "components": [
                {
                  "internalType": "address",
                  "name": "token",
                  "type": "address"
                },
                {
                  "internalType": "uint256",
                  "name": "amount",
                  "type": "uint256"
                }
              ],
              "internalType": "struct IAtomicSwap.Coin",
              "name": "buyToken",
              "type": "tuple"
            },
            {
              "internalType": "address",
              "name": "desiredTaker",
              "type": "address"
            },
            {
              "internalType": "uint256",
              "name": "minBidAmount",
              "type": "uint256"
            },
            {
              "internalType": "uint256",
              "name": "expireAt",
              "type": "uint256"
            },
            {
              "internalType": "bool",
              "name": "acceptBid",
              "type": "bool"
            }
          ],
          "internalType": "struct IAtomicSwap.MakeSwapMsg",
          "name": "makeswap",
          "type": "tuple"
        }
      ],
      "name": "makeSwap",
      "outputs": [],
      "stateMutability": "payable",
      "type": "function"
    },
    {
      "inputs": [],
      "name": "owner",
      "outputs": [
        {
          "internalType": "address",
          "name": "",
          "type": "address"
        }
      ],
      "stateMutability": "view",
      "type": "function"
    },
    {
      "inputs": [
        {
          "components": [
            {
              "internalType": "uint256",
              "name": "bidAmount",
              "type": "uint256"
            },
            {
              "internalType": "bytes32",
              "name": "orderID",
              "type": "bytes32"
            },
            {
              "internalType": "uint256",
              "name": "expireTimestamp",
              "type": "uint256"
            }
          ],
          "internalType": "struct IAtomicSwap.PlaceBidMsg",
          "name": "placeBidMsg",
          "type": "tuple"
        }
      ],
      "name": "placeBid",
      "outputs": [],
      "stateMutability": "payable",
      "type": "function"
    },
    {
      "inputs": [],
      "name": "renounceOwnership",
      "outputs": [],
      "stateMutability": "nonpayable",
      "type": "function"
    },
    {
      "inputs": [],
      "name": "sellerFeeRate",
      "outputs": [
        {
          "internalType": "uint256",
          "name": "",
          "type": "uint256"
        }
      ],
      "stateMutability": "view",
      "type": "function"
    },
    {
      "inputs": [
        {
          "internalType": "bytes32",
          "name": "",
          "type": "bytes32"
        }
      ],
      "name": "swapOrder",
      "outputs": [
        {
          "internalType": "bytes32",
          "name": "id",
          "type": "bytes32"
        },
        {
          "internalType": "enum IAtomicSwap.OrderStatus",
          "name": "status",
          "type": "uint8"
        },
        {
          "internalType": "address",
          "name": "maker",
          "type": "address"
        },
        {
          "components": [
            {
              "internalType": "address",
              "name": "token",
              "type": "address"
            },
            {
              "internalType": "uint256",
              "name": "amount",
              "type": "uint256"
            }
          ],
          "internalType": "struct IAtomicSwap.Coin",
          "name": "sellToken",
          "type": "tuple"
        },
        {
          "internalType": "address",
          "name": "taker",
          "type": "address"
        },
        {
          "components": [
            {
              "internalType": "address",
              "name": "token",
              "type": "address"
            },
            {
              "internalType": "uint256",
              "name": "amount",
              "type": "uint256"
            }
          ],
          "internalType": "struct IAtomicSwap.Coin",
          "name": "buyToken",
          "type": "tuple"
        },
        {
          "internalType": "uint256",
          "name": "minBidAmount",
          "type": "uint256"
        },
        {
          "internalType": "uint256",
          "name": "createdAt",
          "type": "uint256"
        },
        {
          "internalType": "uint256",
          "name": "canceledAt",
          "type": "uint256"
        },
        {
          "internalType": "uint256",
          "name": "completedAt",
          "type": "uint256"
        },
        {
          "internalType": "uint256",
          "name": "expiredAt",
          "type": "uint256"
        },
        {
          "internalType": "bool",
          "name": "acceptBid",
          "type": "bool"
        }
      ],
      "stateMutability": "view",
      "type": "function"
    },
    {
      "inputs": [
        {
          "components": [
            {
              "internalType": "bytes32",
              "name": "orderID",
              "type": "bytes32"
            },
            {
              "internalType": "address",
              "name": "takerReceiver",
              "type": "address"
            }
          ],
          "internalType": "struct IAtomicSwap.TakeSwapMsg",
          "name": "takeswap",
          "type": "tuple"
        }
      ],
      "name": "takeSwap",
      "outputs": [],
      "stateMutability": "payable",
      "type": "function"
    },
    {
      "inputs": [
        {
          "internalType": "address",
          "name": "newOwner",
          "type": "address"
        }
      ],
      "name": "transferOwnership",
      "outputs": [],
      "stateMutability": "nonpayable",
      "type": "function"
    },
    {
      "inputs": [
        {
          "components": [
            {
              "internalType": "bytes32",
              "name": "orderID",
              "type": "bytes32"
            },
            {
              "internalType": "uint256",
              "name": "addition",
              "type": "uint256"
            }
          ],
          "internalType": "struct IAtomicSwap.UpdateBidMsg",
          "name": "updateBidMsg",
          "type": "tuple"
        }
      ],
      "name": "updateBid",
      "outputs": [],
      "stateMutability": "payable",
      "type": "function"
    }
  ],
  "bytecode": "0x608060405234801561001057600080fd5b50614665806100206000396000f3fe6080604052600436106101095760003560e01c80638d241c7b11610095578063df7cec2811610064578063df7cec28146102f6578063dfa2e8e614610312578063eb990c591461033b578063f2fde38b14610364578063fca6caa11461038d57610109565b80638d241c7b146102495780638da5cb5b14610272578063a743a3d01461029d578063b1e4eece146102da57610109565b806353f10c80116100dc57806353f10c801461017e57806366e929bf146101a95780636f1e24fe146101eb578063715018a61461020757806389f681901461021e57610109565b8063011605b11461010e578063022066611461012a57806306be619c1461014657806337be002214610162575b600080fd5b61012860048036038101906101239190613426565b6103d5565b005b610144600480360381019061013f9190613472565b6106c5565b005b610160600480360381019061015b91906134be565b610af5565b005b61017c6004803603810190610177919061350a565b611091565b005b34801561018a57600080fd5b50610193611507565b6040516101a09190613550565b60405180910390f35b3480156101b557600080fd5b506101d060048036038101906101cb91906135ff565b61150d565b6040516101e2969594939291906136d4565b60405180910390f35b61020560048036038101906102009190613754565b611583565b005b34801561021357600080fd5b5061021c61188b565b005b34801561022a57600080fd5b5061023361189f565b6040516102409190613550565b60405180910390f35b34801561025557600080fd5b50610270600480360381019061026b91906137a0565b6118a5565b005b34801561027e57600080fd5b50610287611a7a565b60405161029491906137cd565b60405180910390f35b3480156102a957600080fd5b506102c460048036038101906102bf91906135ff565b611aa4565b6040516102d19190613550565b60405180910390f35b6102f460048036038101906102ef9190613808565b611ac9565b005b610310600480360381019061030b9190613836565b611f24565b005b34801561031e57600080fd5b50610339600480360381019061033491906137a0565b6122a3565b005b34801561034757600080fd5b50610362600480360381019061035d919061388f565b612478565b005b34801561037057600080fd5b5061038b600480360381019061038691906138f6565b61270a565b005b34801561039957600080fd5b506103b460048036038101906103af9190613836565b61278e565b6040516103cc9c9b9a999897969594939291906139d3565b60405180910390f35b6103dd61291c565b80602001356000801b60976000838152602001908152602001600020600001541415610435576040517f5dcaf2d700000000000000000000000000000000000000000000000000000000815260040160405180910390fd5b6000826020013590506000836000013590506000609b600084815260200190815260200160002060003373ffffffffffffffffffffffffffffffffffffffff1673ffffffffffffffffffffffffffffffffffffffff1681526020019081526020016000209050600073ffffffffffffffffffffffffffffffffffffffff168160020160019054906101000a900473ffffffffffffffffffffffffffffffffffffffff1673ffffffffffffffffffffffffffffffffffffffff1614610525576040517fb8cee9f000000000000000000000000000000000000000000000000000000000815260040160405180910390fd5b60006097600087602001358152602001908152602001600020905080600701548310806105585750806005016001015483115b1561059a57826040517fd9cf167e0000000000000000000000000000000000000000000000000000000081526004016105919190613550565b60405180910390fd5b60008260000154846105ac9190613abe565b90506000609760008781526020019081526020016000206005019050600073ffffffffffffffffffffffffffffffffffffffff168160000160009054906101000a900473ffffffffffffffffffffffffffffffffffffffff1673ffffffffffffffffffffffffffffffffffffffff1614610655576106508160000160009054906101000a900473ffffffffffffffffffffffffffffffffffffffff1633308561296c565b61069a565b81341461069957346040517fd9cf167e0000000000000000000000000000000000000000000000000000000081526004016106909190613550565b60405180910390fd5b5b6106b3888036038101906106ae9190613be7565b612b1d565b505050505050506106c2612c7d565b50565b6106cd61291c565b80600001356000801b60976000838152602001908152602001600020600001541415610725576040517f5dcaf2d700000000000000000000000000000000000000000000000000000000815260040160405180910390fd5b600082600001359050600083602001602081019061074391906138f6565b9050600073ffffffffffffffffffffffffffffffffffffffff163373ffffffffffffffffffffffffffffffffffffffff1614156107ac576040517f0809490800000000000000000000000000000000000000000000000000000000815260040160405180910390fd5b600060976000848152602001908152602001600020905080600c0160009054906101000a900460ff1661080b576040517f3c24fafc00000000000000000000000000000000000000000000000000000000815260040160405180910390fd5b3373ffffffffffffffffffffffffffffffffffffffff168160010160019054906101000a900473ffffffffffffffffffffffffffffffffffffffff1673ffffffffffffffffffffffffffffffffffffffff16146108c5578060010160019054906101000a900473ffffffffffffffffffffffffffffffffffffffff16336040517f0500cb4c0000000000000000000000000000000000000000000000000000000081526004016108bc929190613c14565b60405180910390fd5b6000609b600085815260200190815260200160002060008473ffffffffffffffffffffffffffffffffffffffff1673ffffffffffffffffffffffffffffffffffffffff168152602001908152602001600020905060028081111561092c5761092b61364e565b5b8160020160009054906101000a900460ff1660028111156109505761094f61364e565b5b146109a3578060020160009054906101000a900460ff166040517f64b08c0600000000000000000000000000000000000000000000000000000000815260040161099a9190613c3d565b60405180910390fd5b42816004015410156109f2578060040154426040517f1d3556390000000000000000000000000000000000000000000000000000000081526004016109e9929190613c58565b60405180910390fd5b60018160020160006101000a81548160ff02191690836002811115610a1a57610a1961364e565b5b02179055506000826002019050610a818160000160009054906101000a900473ffffffffffffffffffffffffffffffffffffffff168360020160019054906101000a900473ffffffffffffffffffffffffffffffffffffffff168360010154609a54612c87565b6000836005019050610ae38160000160009054906101000a900473ffffffffffffffffffffffffffffffffffffffff168560010160019054906101000a900473ffffffffffffffffffffffffffffffffffffffff168560000154609954612c87565b50505050505050610af2612c7d565b50565b610afd61291c565b80600001356000801b60976000838152602001908152602001600020600001541415610b55576040517f5dcaf2d700000000000000000000000000000000000000000000000000000000815260040160405180910390fd5b60006097600084600001358152602001908152602001600020905080600c0160009054906101000a900460ff1615610bb9576040517f531749dd00000000000000000000000000000000000000000000000000000000815260040160405180910390fd5b600073ffffffffffffffffffffffffffffffffffffffff168160040160009054906101000a900473ffffffffffffffffffffffffffffffffffffffff1673ffffffffffffffffffffffffffffffffffffffff1614158015610c6a57503373ffffffffffffffffffffffffffffffffffffffff168160040160009054906101000a900473ffffffffffffffffffffffffffffffffffffffff1673ffffffffffffffffffffffffffffffffffffffff1614155b15610ca1576040517fbe544a2b00000000000000000000000000000000000000000000000000000000815260040160405180910390fd5b600280811115610cb457610cb361364e565b5b8160010160009054906101000a900460ff166002811115610cd857610cd761364e565b5b1415610d10576040517f0368368700000000000000000000000000000000000000000000000000000000815260040160405180910390fd5b60028160010160006101000a81548160ff02191690836002811115610d3857610d3761364e565b5b02179055504281600a0181905550610d948160020160000160009054906101000a900473ffffffffffffffffffffffffffffffffffffffff16846020016020810190610d8491906138f6565b8360020160010154609a54612c87565b60006103e86099548360050160010154610dae9190613c81565b610db89190613d0a565b90506000818360050160010154610dcf9190613abe565b9050600073ffffffffffffffffffffffffffffffffffffffff168360050160000160009054906101000a900473ffffffffffffffffffffffffffffffffffffffff1673ffffffffffffffffffffffffffffffffffffffff161415610f50578260050160010154341015610e77576040517f08c379a0000000000000000000000000000000000000000000000000000000008152600401610e6e90613d98565b60405180910390fd5b8260010160019054906101000a900473ffffffffffffffffffffffffffffffffffffffff1673ffffffffffffffffffffffffffffffffffffffff166108fc829081150290604051600060405180830381858888f19350505050158015610ee1573d6000803e3d6000fd5b50609860009054906101000a900473ffffffffffffffffffffffffffffffffffffffff1673ffffffffffffffffffffffffffffffffffffffff166108fc839081150290604051600060405180830381858888f19350505050158015610f4a573d6000803e3d6000fd5b50610fdb565b610f958360050160000160009054906101000a900473ffffffffffffffffffffffffffffffffffffffff1633876020016020810190610f8f91906138f6565b8461296c565b610fda8360050160000160009054906101000a900473ffffffffffffffffffffffffffffffffffffffff1633876020016020810190610fd491906138f6565b8561296c565b5b84600001358360040160009054906101000a900473ffffffffffffffffffffffffffffffffffffffff1673ffffffffffffffffffffffffffffffffffffffff168460010160019054906101000a900473ffffffffffffffffffffffffffffffffffffffff1673ffffffffffffffffffffffffffffffffffffffff167f6bf7309f141d1b44e414f1fc04d98491cd0acf98f0f1e5ad885d0a7ce164e6fa60405160405180910390a45050505061108e612c7d565b50565b61109961291c565b80600001356000801b609760008381526020019081526020016000206000015414156110f1576040517f5dcaf2d700000000000000000000000000000000000000000000000000000000815260040160405180910390fd5b6000609760008460000135815260200190815260200160002090503373ffffffffffffffffffffffffffffffffffffffff168160010160019054906101000a900473ffffffffffffffffffffffffffffffffffffffff1673ffffffffffffffffffffffffffffffffffffffff1614611195576040517f978f045600000000000000000000000000000000000000000000000000000000815260040160405180910390fd5b600060028111156111a9576111a861364e565b5b8160010160009054906101000a900460ff1660028111156111cd576111cc61364e565b5b14611204576040517f0368368700000000000000000000000000000000000000000000000000000000815260040160405180910390fd5b60018160010160006101000a81548160ff0219169083600281111561122c5761122b61364e565b5b0217905550600073ffffffffffffffffffffffffffffffffffffffff168160020160000160009054906101000a900473ffffffffffffffffffffffffffffffffffffffff1673ffffffffffffffffffffffffffffffffffffffff1614156112e0573373ffffffffffffffffffffffffffffffffffffffff166108fc82600501600101549081150290604051600060405180830381858888f193505050501580156112da573d6000803e3d6000fd5b5061139d565b8060020160000160009054906101000a900473ffffffffffffffffffffffffffffffffffffffff1673ffffffffffffffffffffffffffffffffffffffff1663a9059cbb3383600501600101546040518363ffffffff1660e01b8152600401611349929190613db8565b602060405180830381600087803b15801561136357600080fd5b505af1158015611377573d6000803e3d6000fd5b505050506040513d601f19601f8201168201806040525081019061139b9190613e0d565b505b82600001357ff68aeec8f55d67a9b2cf2b6caea31e11f2c14e09da250170575d63911f26aa6e60405160405180910390a260976000846000013581526020019081526020016000206000808201600090556001820160006101000a81549060ff02191690556001820160016101000a81549073ffffffffffffffffffffffffffffffffffffffff021916905560028201600080820160006101000a81549073ffffffffffffffffffffffffffffffffffffffff0219169055600182016000905550506004820160006101000a81549073ffffffffffffffffffffffffffffffffffffffff021916905560058201600080820160006101000a81549073ffffffffffffffffffffffffffffffffffffffff021916905560018201600090555050600782016000905560088201600090556009820160009055600a820160009055600b820160009055600c820160006101000a81549060ff021916905550505050611504612c7d565b50565b609a5481565b609b602052816000526040600020602052806000526040600020600091509150508060000154908060010154908060020160009054906101000a900460ff16908060020160019054906101000a900473ffffffffffffffffffffffffffffffffffffffff16908060030154908060040154905086565b61158b61291c565b80600001356000801b609760008381526020019081526020016000206000015414156115e3576040517f5dcaf2d700000000000000000000000000000000000000000000000000000000815260040160405180910390fd5b6000826000013590506000836020013590506000609b600084815260200190815260200160002060003373ffffffffffffffffffffffffffffffffffffffff1673ffffffffffffffffffffffffffffffffffffffff1681526020019081526020016000209050600073ffffffffffffffffffffffffffffffffffffffff168160020160019054906101000a900473ffffffffffffffffffffffffffffffffffffffff1673ffffffffffffffffffffffffffffffffffffffff1614156116d4576040517f0a0c23ee00000000000000000000000000000000000000000000000000000000815260040160405180910390fd5b6000609760008581526020019081526020016000209050600083141561173157826040517fd9cf167e0000000000000000000000000000000000000000000000000000000081526004016117289190613550565b60405180910390fd5b828260000160008282546117459190613e3a565b925050819055508060050160010154826000015411156117a05781600001546040517fd9cf167e0000000000000000000000000000000000000000000000000000000081526004016117979190613550565b60405180910390fd5b6000816005019050600073ffffffffffffffffffffffffffffffffffffffff168160000160009054906101000a900473ffffffffffffffffffffffffffffffffffffffff1673ffffffffffffffffffffffffffffffffffffffff1614611835576118308160000160009054906101000a900473ffffffffffffffffffffffffffffffffffffffff1633308761296c565b61187a565b83341461187957346040517fd9cf167e0000000000000000000000000000000000000000000000000000000081526004016118709190613550565b60405180910390fd5b5b505050505050611888612c7d565b50565b611893612dde565b61189d6000612e5c565b565b60995481565b60008160000135905060008260200160208101906118c391906138f6565b9050600060976000848152602001908152602001600020905080600c0160009054906101000a900460ff16611924576040517f3c24fafc00000000000000000000000000000000000000000000000000000000815260040160405180910390fd5b6000609b600085815260200190815260200160002060008473ffffffffffffffffffffffffffffffffffffffff1673ffffffffffffffffffffffffffffffffffffffff16815260200190815260200160002090506000816000015414156119b7576040517f0a0c23ee00000000000000000000000000000000000000000000000000000000815260040160405180910390fd5b6000856040013514806119d4575081600501600101548560400135115b15611a1a5784604001356040517fd9cf167e000000000000000000000000000000000000000000000000000000008152600401611a119190613550565b60405180910390fd5b8460400135609c600086815260200190815260200160002060008573ffffffffffffffffffffffffffffffffffffffff1673ffffffffffffffffffffffffffffffffffffffff168152602001908152602001600020819055505050505050565b6000603360009054906101000a900473ffffffffffffffffffffffffffffffffffffffff16905090565b609c602052816000526040600020602052806000526040600020600091509150505481565b611ad161291c565b806040016000016020810190611ae791906138f6565b73ffffffffffffffffffffffffffffffffffffffff16816000016000016020810190611b1391906138f6565b73ffffffffffffffffffffffffffffffffffffffff161415611b61576040517f45b3a4c700000000000000000000000000000000000000000000000000000000815260040160405180910390fd5b60008160a0013511611b9f576040517f5fe07c7d00000000000000000000000000000000000000000000000000000000815260040160405180910390fd5b600073ffffffffffffffffffffffffffffffffffffffff163373ffffffffffffffffffffffffffffffffffffffff161415611c06576040517f0809490800000000000000000000000000000000000000000000000000000000815260040160405180910390fd5b428160c001351015611c55578060c00135426040517ff00605cf000000000000000000000000000000000000000000000000000000008152600401611c4c929190613c58565b60405180910390fd5b6000611c6033612f22565b9050611c7c8183803603810190611c779190613f96565b612f6e565b600073ffffffffffffffffffffffffffffffffffffffff16826000016000016020810190611caa91906138f6565b73ffffffffffffffffffffffffffffffffffffffff161415611d15578160000160200135341015611d10576040517f08c379a0000000000000000000000000000000000000000000000000000000008152600401611d0790614010565b60405180910390fd5b611eeb565b6000826000016000016020810190611d2d91906138f6565b905060008173ffffffffffffffffffffffffffffffffffffffff1663dd62ed3e33306040518363ffffffff1660e01b8152600401611d6c929190613c14565b60206040518083038186803b158015611d8457600080fd5b505afa158015611d98573d6000803e3d6000fd5b505050506040513d601f19601f82011682018060405250810190611dbc9190614045565b90508360000160200135811015611e13578360000160200135816040517f7c8db62f000000000000000000000000000000000000000000000000000000008152600401611e0a929190613c58565b60405180910390fd5b8173ffffffffffffffffffffffffffffffffffffffff166323b872dd333087600001602001356040518463ffffffff1660e01b8152600401611e5793929190614072565b602060405180830381600087803b158015611e7157600080fd5b505af1158015611e85573d6000803e3d6000fd5b505050506040513d601f19601f82011682018060405250810190611ea99190613e0d565b611ee8576040517f08c379a0000000000000000000000000000000000000000000000000000000008152600401611edf906140f5565b60405180910390fd5b50505b807f8b82d32987f9a4ae1bc7868a6f104edb711227ec3c9fccb0416a14fcc29bec5a60405160405180910390a250611f21612c7d565b50565b611f2c61291c565b806000801b60976000838152602001908152602001600020600001541415611f80576040517f5dcaf2d700000000000000000000000000000000000000000000000000000000815260040160405180910390fd5b60003414611fc3576040517f08c379a0000000000000000000000000000000000000000000000000000000008152600401611fba90614161565b60405180910390fd5b6000609b600084815260200190815260200160002060003373ffffffffffffffffffffffffffffffffffffffff1673ffffffffffffffffffffffffffffffffffffffff16815260200190815260200160002090503373ffffffffffffffffffffffffffffffffffffffff168160020160019054906101000a900473ffffffffffffffffffffffffffffffffffffffff1673ffffffffffffffffffffffffffffffffffffffff16146120a0576040517f978f045600000000000000000000000000000000000000000000000000000000815260040160405180910390fd5b6002808111156120b3576120b261364e565b5b8160020160009054906101000a900460ff1660028111156120d7576120d661364e565b5b1461212a578060020160009054906101000a900460ff166040517f64b08c060000000000000000000000000000000000000000000000000000000081526004016121219190613c3d565b60405180910390fd5b60008160020160006101000a81548160ff021916908360028111156121525761215161364e565b5b02179055506000609760008581526020019081526020016000206005019050600073ffffffffffffffffffffffffffffffffffffffff168160000160009054906101000a900473ffffffffffffffffffffffffffffffffffffffff1673ffffffffffffffffffffffffffffffffffffffff1614612225576122208160000160009054906101000a900473ffffffffffffffffffffffffffffffffffffffff168360020160019054906101000a900473ffffffffffffffffffffffffffffffffffffffff168460000154613290565b612295565b8160020160019054906101000a900473ffffffffffffffffffffffffffffffffffffffff1673ffffffffffffffffffffffffffffffffffffffff166108fc83600001549081150290604051600060405180830381858888f19350505050158015612293573d6000803e3d6000fd5b505b5050506122a0612c7d565b50565b60008160000135905060008260200160208101906122c191906138f6565b9050600060976000848152602001908152602001600020905080600c0160009054906101000a900460ff16612322576040517f3c24fafc00000000000000000000000000000000000000000000000000000000815260040160405180910390fd5b6000609b600085815260200190815260200160002060008473ffffffffffffffffffffffffffffffffffffffff1673ffffffffffffffffffffffffffffffffffffffff16815260200190815260200160002090506000816000015414156123b5576040517f0a0c23ee00000000000000000000000000000000000000000000000000000000815260040160405180910390fd5b6000856040013514806123d2575081600501600101548560400135115b156124185784604001356040517fd9cf167e00000000000000000000000000000000000000000000000000000000815260040161240f9190613550565b60405180910390fd5b8460400135609c600086815260200190815260200160002060008573ffffffffffffffffffffffffffffffffffffffff1673ffffffffffffffffffffffffffffffffffffffff168152602001908152602001600020819055505050505050565b60008060019054906101000a900460ff161590508080156124a95750600160008054906101000a900460ff1660ff16105b806124d657506124b830613367565b1580156124d55750600160008054906101000a900460ff1660ff16145b5b612515576040517f08c379a000000000000000000000000000000000000000000000000000000000815260040161250c906141f3565b60405180910390fd5b60016000806101000a81548160ff021916908360ff1602179055508015612552576001600060016101000a81548160ff0219169083151502179055505b61255a61338a565b6125638561270a565b6103e883106125a7576040517f08c379a000000000000000000000000000000000000000000000000000000000815260040161259e90614285565b60405180910390fd5b6103e882106125eb576040517f08c379a00000000000000000000000000000000000000000000000000000000081526004016125e290614285565b60405180910390fd5b600073ffffffffffffffffffffffffffffffffffffffff168473ffffffffffffffffffffffffffffffffffffffff16141561265b576040517f08c379a0000000000000000000000000000000000000000000000000000000008152600401612652906142f1565b60405180910390fd5b8260998190555081609a8190555083609860006101000a81548173ffffffffffffffffffffffffffffffffffffffff021916908373ffffffffffffffffffffffffffffffffffffffff16021790555080156127035760008060016101000a81548160ff0219169083151502179055507f7f26b83ff96e1f2b6a682f133852f6798a09c465da95921460cefb384740249860016040516126fa9190614363565b60405180910390a15b5050505050565b612712612dde565b600073ffffffffffffffffffffffffffffffffffffffff168173ffffffffffffffffffffffffffffffffffffffff161415612782576040517f08c379a0000000000000000000000000000000000000000000000000000000008152600401612779906143f0565b60405180910390fd5b61278b81612e5c565b50565b60976020528060005260406000206000915090508060000154908060010160009054906101000a900460ff16908060010160019054906101000a900473ffffffffffffffffffffffffffffffffffffffff1690806002016040518060400160405290816000820160009054906101000a900473ffffffffffffffffffffffffffffffffffffffff1673ffffffffffffffffffffffffffffffffffffffff1673ffffffffffffffffffffffffffffffffffffffff168152602001600182015481525050908060040160009054906101000a900473ffffffffffffffffffffffffffffffffffffffff1690806005016040518060400160405290816000820160009054906101000a900473ffffffffffffffffffffffffffffffffffffffff1673ffffffffffffffffffffffffffffffffffffffff1673ffffffffffffffffffffffffffffffffffffffff1681526020016001820154815250509080600701549080600801549080600901549080600a01549080600b01549080600c0160009054906101000a900460ff1690508c565b60026065541415612962576040517f08c379a00000000000000000000000000000000000000000000000000000000081526004016129599061445c565b60405180910390fd5b6002606581905550565b600084905060008173ffffffffffffffffffffffffffffffffffffffff1663dd62ed3e33306040518363ffffffff1660e01b81526004016129ae929190613c14565b60206040518083038186803b1580156129c657600080fd5b505afa1580156129da573d6000803e3d6000fd5b505050506040513d601f19601f820116820180604052508101906129fe9190614045565b905082811015612a475780836040517f7c8db62f000000000000000000000000000000000000000000000000000000008152600401612a3e929190613c58565b60405180910390fd5b8173ffffffffffffffffffffffffffffffffffffffff166323b872dd8686866040518463ffffffff1660e01b8152600401612a8493929190614072565b602060405180830381600087803b158015612a9e57600080fd5b505af1158015612ab2573d6000803e3d6000fd5b505050506040513d601f19601f82011682018060405250810190612ad69190613e0d565b612b15576040517f08c379a0000000000000000000000000000000000000000000000000000000008152600401612b0c906144c8565b60405180910390fd5b505050505050565b60006040518060c001604052808360000151815260200183602001518152602001600280811115612b5157612b5061364e565b5b81526020013373ffffffffffffffffffffffffffffffffffffffff1681526020014281526020018360400151815250905080609b60008460200151815260200190815260200160002060003373ffffffffffffffffffffffffffffffffffffffff1673ffffffffffffffffffffffffffffffffffffffff168152602001908152602001600020600082015181600001556020820151816001015560408201518160020160006101000a81548160ff02191690836002811115612c1657612c1561364e565b5b021790555060608201518160020160016101000a81548173ffffffffffffffffffffffffffffffffffffffff021916908373ffffffffffffffffffffffffffffffffffffffff1602179055506080820151816003015560a082015181600401559050505050565b6001606581905550565b60006103e88284612c989190613c81565b612ca29190613d0a565b905060008184612cb29190613abe565b9050600073ffffffffffffffffffffffffffffffffffffffff168673ffffffffffffffffffffffffffffffffffffffff1614612d2557612cf3868683613290565b612d2086609860009054906101000a900473ffffffffffffffffffffffffffffffffffffffff1684613290565b612dd6565b8473ffffffffffffffffffffffffffffffffffffffff166108fc829081150290604051600060405180830381858888f19350505050158015612d6b573d6000803e3d6000fd5b50609860009054906101000a900473ffffffffffffffffffffffffffffffffffffffff1673ffffffffffffffffffffffffffffffffffffffff166108fc839081150290604051600060405180830381858888f19350505050158015612dd4573d6000803e3d6000fd5b505b505050505050565b612de66133eb565b73ffffffffffffffffffffffffffffffffffffffff16612e04611a7a565b73ffffffffffffffffffffffffffffffffffffffff1614612e5a576040517f08c379a0000000000000000000000000000000000000000000000000000000008152600401612e5190614534565b60405180910390fd5b565b6000603360009054906101000a900473ffffffffffffffffffffffffffffffffffffffff16905081603360006101000a81548173ffffffffffffffffffffffffffffffffffffffff021916908373ffffffffffffffffffffffffffffffffffffffff1602179055508173ffffffffffffffffffffffffffffffffffffffff168173ffffffffffffffffffffffffffffffffffffffff167f8be0079c531659141344cd1fd0a4f28419497f9722a3daafe3b4186f6b6457e060405160405180910390a35050565b600081609d54604051602001612f39929190613db8565b604051602081830303815290604052805190602001209050609d6000815480929190612f6490614554565b9190505550919050565b6000801b609760008481526020019081526020016000206000015414612fc0576040517f966753c500000000000000000000000000000000000000000000000000000000815260040160405180910390fd5b600060405180610180016040528084815260200160006002811115612fe857612fe761364e565b5b81526020013373ffffffffffffffffffffffffffffffffffffffff16815260200183600001518152602001836040015173ffffffffffffffffffffffffffffffffffffffff16815260200183602001518152602001836060015181526020014281526020016000815260200160008152602001836080015181526020018360a001511515815250905080609760008581526020019081526020016000206000820151816000015560208201518160010160006101000a81548160ff021916908360028111156130ba576130b961364e565b5b021790555060408201518160010160016101000a81548173ffffffffffffffffffffffffffffffffffffffff021916908373ffffffffffffffffffffffffffffffffffffffff16021790555060608201518160020160008201518160000160006101000a81548173ffffffffffffffffffffffffffffffffffffffff021916908373ffffffffffffffffffffffffffffffffffffffff16021790555060208201518160010155505060808201518160040160006101000a81548173ffffffffffffffffffffffffffffffffffffffff021916908373ffffffffffffffffffffffffffffffffffffffff16021790555060a08201518160050160008201518160000160006101000a81548173ffffffffffffffffffffffffffffffffffffffff021916908373ffffffffffffffffffffffffffffffffffffffff16021790555060208201518160010155505060c0820151816007015560e08201518160080155610100820151816009015561012082015181600a015561014082015181600b015561016082015181600c0160006101000a81548160ff021916908315150217905550905050827f8b82d32987f9a4ae1bc7868a6f104edb711227ec3c9fccb0416a14fcc29bec5a60405160405180910390a2505050565b60008390508073ffffffffffffffffffffffffffffffffffffffff1663a9059cbb84846040518363ffffffff1660e01b81526004016132d0929190613db8565b602060405180830381600087803b1580156132ea57600080fd5b505af11580156132fe573d6000803e3d6000fd5b505050506040513d601f19601f820116820180604052508101906133229190613e0d565b613361576040517f08c379a0000000000000000000000000000000000000000000000000000000008152600401613358906144c8565b60405180910390fd5b50505050565b6000808273ffffffffffffffffffffffffffffffffffffffff163b119050919050565b600060019054906101000a900460ff166133d9576040517f08c379a00000000000000000000000000000000000000000000000000000000081526004016133d09061460f565b60405180910390fd5b6133e96133e46133eb565b612e5c565b565b600033905090565b6000604051905090565b600080fd5b600080fd5b60006060828403121561341d5761341c613402565b5b81905092915050565b60006060828403121561343c5761343b6133fd565b5b600061344a84828501613407565b91505092915050565b60006040828403121561346957613468613402565b5b81905092915050565b600060408284031215613488576134876133fd565b5b600061349684828501613453565b91505092915050565b6000604082840312156134b5576134b4613402565b5b81905092915050565b6000604082840312156134d4576134d36133fd565b5b60006134e28482850161349f565b91505092915050565b60006020828403121561350157613500613402565b5b81905092915050565b6000602082840312156135205761351f6133fd565b5b600061352e848285016134eb565b91505092915050565b6000819050919050565b61354a81613537565b82525050565b60006020820190506135656000830184613541565b92915050565b6000819050919050565b61357e8161356b565b811461358957600080fd5b50565b60008135905061359b81613575565b92915050565b600073ffffffffffffffffffffffffffffffffffffffff82169050919050565b60006135cc826135a1565b9050919050565b6135dc816135c1565b81146135e757600080fd5b50565b6000813590506135f9816135d3565b92915050565b60008060408385031215613616576136156133fd565b5b60006136248582860161358c565b9250506020613635858286016135ea565b9150509250929050565b6136488161356b565b82525050565b7f4e487b7100000000000000000000000000000000000000000000000000000000600052602160045260246000fd5b6003811061368e5761368d61364e565b5b50565b600081905061369f8261367d565b919050565b60006136af82613691565b9050919050565b6136bf816136a4565b82525050565b6136ce816135c1565b82525050565b600060c0820190506136e96000830189613541565b6136f6602083018861363f565b61370360408301876136b6565b61371060608301866136c5565b61371d6080830185613541565b61372a60a0830184613541565b979650505050505050565b60006040828403121561374b5761374a613402565b5b81905092915050565b60006040828403121561376a576137696133fd565b5b600061377884828501613735565b91505092915050565b60006060828403121561379757613796613402565b5b81905092915050565b6000606082840312156137b6576137b56133fd565b5b60006137c484828501613781565b91505092915050565b60006020820190506137e260008301846136c5565b92915050565b600061010082840312156137ff576137fe613402565b5b81905092915050565b6000610100828403121561381f5761381e6133fd565b5b600061382d848285016137e8565b91505092915050565b60006020828403121561384c5761384b6133fd565b5b600061385a8482850161358c565b91505092915050565b61386c81613537565b811461387757600080fd5b50565b60008135905061388981613863565b92915050565b600080600080608085870312156138a9576138a86133fd565b5b60006138b7878288016135ea565b94505060206138c8878288016135ea565b93505060406138d98782880161387a565b92505060606138ea8782880161387a565b91505092959194509250565b60006020828403121561390c5761390b6133fd565b5b600061391a848285016135ea565b91505092915050565b600381106139345761393361364e565b5b50565b600081905061394582613923565b919050565b600061395582613937565b9050919050565b6139658161394a565b82525050565b613974816135c1565b82525050565b61398381613537565b82525050565b60408201600082015161399f600085018261396b565b5060208201516139b2602085018261397a565b50505050565b60008115159050919050565b6139cd816139b8565b82525050565b60006101c0820190506139e9600083018f61363f565b6139f6602083018e61395c565b613a03604083018d6136c5565b613a10606083018c613989565b613a1d60a083018b6136c5565b613a2a60c083018a613989565b613a38610100830189613541565b613a46610120830188613541565b613a54610140830187613541565b613a62610160830186613541565b613a70610180830185613541565b613a7e6101a08301846139c4565b9d9c50505050505050505050505050565b7f4e487b7100000000000000000000000000000000000000000000000000000000600052601160045260246000fd5b6000613ac982613537565b9150613ad483613537565b925082821015613ae757613ae6613a8f565b5b828203905092915050565b600080fd5b6000601f19601f8301169050919050565b7f4e487b7100000000000000000000000000000000000000000000000000000000600052604160045260246000fd5b613b4082613af7565b810181811067ffffffffffffffff82111715613b5f57613b5e613b08565b5b80604052505050565b6000613b726133f3565b9050613b7e8282613b37565b919050565b600060608284031215613b9957613b98613af2565b5b613ba36060613b68565b90506000613bb38482850161387a565b6000830152506020613bc78482850161358c565b6020830152506040613bdb8482850161387a565b60408301525092915050565b600060608284031215613bfd57613bfc6133fd565b5b6000613c0b84828501613b83565b91505092915050565b6000604082019050613c2960008301856136c5565b613c3660208301846136c5565b9392505050565b6000602082019050613c5260008301846136b6565b92915050565b6000604082019050613c6d6000830185613541565b613c7a6020830184613541565b9392505050565b6000613c8c82613537565b9150613c9783613537565b9250817fffffffffffffffffffffffffffffffffffffffffffffffffffffffffffffffff0483118215151615613cd057613ccf613a8f565b5b828202905092915050565b7f4e487b7100000000000000000000000000000000000000000000000000000000600052601260045260246000fd5b6000613d1582613537565b9150613d2083613537565b925082613d3057613d2f613cdb565b5b828204905092915050565b600082825260208201905092915050565b7f4e6f7420656e6f7567682066756e647320746f20627579000000000000000000600082015250565b6000613d82601783613d3b565b9150613d8d82613d4c565b602082019050919050565b60006020820190508181036000830152613db181613d75565b9050919050565b6000604082019050613dcd60008301856136c5565b613dda6020830184613541565b9392505050565b613dea816139b8565b8114613df557600080fd5b50565b600081519050613e0781613de1565b92915050565b600060208284031215613e2357613e226133fd565b5b6000613e3184828501613df8565b91505092915050565b6000613e4582613537565b9150613e5083613537565b9250827fffffffffffffffffffffffffffffffffffffffffffffffffffffffffffffffff03821115613e8557613e84613a8f565b5b828201905092915050565b600060408284031215613ea657613ea5613af2565b5b613eb06040613b68565b90506000613ec0848285016135ea565b6000830152506020613ed48482850161387a565b60208301525092915050565b600081359050613eef81613de1565b92915050565b60006101008284031215613f0c57613f0b613af2565b5b613f1660c0613b68565b90506000613f2684828501613e90565b6000830152506040613f3a84828501613e90565b6020830152506080613f4e848285016135ea565b60408301525060a0613f628482850161387a565b60608301525060c0613f768482850161387a565b60808301525060e0613f8a84828501613ee0565b60a08301525092915050565b60006101008284031215613fad57613fac6133fd565b5b6000613fbb84828501613ef5565b91505092915050565b7f4e6f7420656e6f75676820657468657200000000000000000000000000000000600082015250565b6000613ffa601083613d3b565b915061400582613fc4565b602082019050919050565b6000602082019050818103600083015261402981613fed565b9050919050565b60008151905061403f81613863565b92915050565b60006020828403121561405b5761405a6133fd565b5b600061406984828501614030565b91505092915050565b600060608201905061408760008301866136c5565b61409460208301856136c5565b6140a16040830184613541565b949350505050565b7f4661696c656420696e204c6f636b20746f6b656e000000000000000000000000600082015250565b60006140df601483613d3b565b91506140ea826140a9565b602082019050919050565b6000602082019050818103600083015261410e816140d2565b9050919050565b7f556e65787065637465642045746865722073656e740000000000000000000000600082015250565b600061414b601583613d3b565b915061415682614115565b602082019050919050565b6000602082019050818103600083015261417a8161413e565b9050919050565b7f496e697469616c697a61626c653a20636f6e747261637420697320616c72656160008201527f647920696e697469616c697a6564000000000000000000000000000000000000602082015250565b60006141dd602e83613d3b565b91506141e882614181565b604082019050919050565b6000602082019050818103600083015261420c816141d0565b9050919050565b7f73656c6c65724665652068617320746f20626520736d616c6c6572207468616e60008201527f206d617846656500000000000000000000000000000000000000000000000000602082015250565b600061426f602783613d3b565b915061427a82614213565b604082019050919050565b6000602082019050818103600083015261429e81614262565b9050919050565b7f696e76616c696420747265617375727920616464726573730000000000000000600082015250565b60006142db601883613d3b565b91506142e6826142a5565b602082019050919050565b6000602082019050818103600083015261430a816142ce565b9050919050565b6000819050919050565b600060ff82169050919050565b6000819050919050565b600061434d61434861434384614311565b614328565b61431b565b9050919050565b61435d81614332565b82525050565b60006020820190506143786000830184614354565b92915050565b7f4f776e61626c653a206e6577206f776e657220697320746865207a65726f206160008201527f6464726573730000000000000000000000000000000000000000000000000000602082015250565b60006143da602683613d3b565b91506143e58261437e565b604082019050919050565b60006020820190508181036000830152614409816143cd565b9050919050565b7f5265656e7472616e637947756172643a207265656e7472616e742063616c6c00600082015250565b6000614446601f83613d3b565b915061445182614410565b602082019050919050565b6000602082019050818103600083015261447581614439565b9050919050565b7f4661696c656420746f207472616e736665722066726f6d000000000000000000600082015250565b60006144b2601783613d3b565b91506144bd8261447c565b602082019050919050565b600060208201905081810360008301526144e1816144a5565b9050919050565b7f4f776e61626c653a2063616c6c6572206973206e6f7420746865206f776e6572600082015250565b600061451e602083613d3b565b9150614529826144e8565b602082019050919050565b6000602082019050818103600083015261454d81614511565b9050919050565b600061455f82613537565b91507fffffffffffffffffffffffffffffffffffffffffffffffffffffffffffffffff82141561459257614591613a8f565b5b600182019050919050565b7f496e697469616c697a61626c653a20636f6e7472616374206973206e6f74206960008201527f6e697469616c697a696e67000000000000000000000000000000000000000000602082015250565b60006145f9602b83613d3b565b91506146048261459d565b604082019050919050565b60006020820190508181036000830152614628816145ec565b905091905056fea2646970667358221220c28404c72e2f199afbf5e4042c843b9bc83ff9ea08f3b564d8304d6423e1615e64736f6c63430008090033",
  "linkReferences": {},
  "deployedLinkReferences": {}
}