{
  "_format": "hh-sol-artifact-1",
  "contractName": "AtomicSwap",
  "sourceName": "contracts/AtomicSwap.sol",
  "abi": [
    {
      "inputs": [],
      "name": "AlreadyCompleted",
      "type": "error"
    },
    {
      "inputs": [],
      "name": "AlreadyExistPool",
      "type": "error"
    },
    {
      "inputs": [
        {
          "internalType": "uint256",
          "name": "real",
          "type": "uint256"
        },
        {
          "internalType": "uint256",
          "name": "expected",
          "type": "uint256"
        }
      ],
      "name": "AlreadyExpired",
      "type": "error"
    },
    {
      "inputs": [
        {
          "internalType": "uint256",
          "name": "amount",
          "type": "uint256"
        }
      ],
      "name": "InvalidBidAmount",
      "type": "error"
    },
    {
      "inputs": [
        {
          "internalType": "address",
          "name": "real",
          "type": "address"
        },
        {
          "internalType": "address",
          "name": "expected",
          "type": "address"
        }
      ],
      "name": "InvalidBidder",
      "type": "error"
    },
    {
      "inputs": [
        {
          "internalType": "uint256",
          "name": "max",
          "type": "uint256"
        },
        {
          "internalType": "uint256",
          "name": "value",
          "type": "uint256"
        }
      ],
      "name": "InvalidExpireTime",
      "type": "error"
    },
    {
      "inputs": [],
      "name": "InvalidMinBidCap",
      "type": "error"
    },
    {
      "inputs": [],
      "name": "InvalidSender",
      "type": "error"
    },
    {
      "inputs": [],
      "name": "InvalidTokenPair",
      "type": "error"
    },
    {
      "inputs": [
        {
          "internalType": "address",
          "name": "real",
          "type": "address"
        },
        {
          "internalType": "address",
          "name": "expected",
          "type": "address"
        }
      ],
      "name": "NoPermissionToAccept",
      "type": "error"
    },
    {
      "inputs": [],
      "name": "NoPermissionToCancel",
      "type": "error"
    },
    {
      "inputs": [],
      "name": "NoPermissionToTake",
      "type": "error"
    },
    {
      "inputs": [
        {
          "internalType": "enum IAtomicSwap.BidStatus",
          "name": "status",
          "type": "uint8"
        }
      ],
      "name": "NoPlaceStatusOfBid",
      "type": "error"
    },
    {
      "inputs": [],
      "name": "NonExistPool",
      "type": "error"
    },
    {
      "inputs": [
        {
          "internalType": "uint256",
          "name": "real",
          "type": "uint256"
        },
        {
          "internalType": "uint256",
          "name": "expected",
          "type": "uint256"
        }
      ],
      "name": "NotAllowedAmount",
      "type": "error"
    },
    {
      "inputs": [
        {
          "internalType": "uint256",
          "name": "real",
          "type": "uint256"
        },
        {
          "internalType": "uint256",
          "name": "expected",
          "type": "uint256"
        }
      ],
      "name": "NotExpired",
      "type": "error"
    },
    {
      "inputs": [],
      "name": "TokenTransferFailed",
      "type": "error"
    },
    {
      "inputs": [
        {
          "internalType": "uint256",
          "name": "real",
          "type": "uint256"
        },
        {
          "internalType": "uint256",
          "name": "current",
          "type": "uint256"
        }
      ],
      "name": "WrongExpireTime",
      "type": "error"
    },
    {
      "inputs": [],
      "name": "ZeroTokenAddress",
      "type": "error"
    },
    {
      "anonymous": false,
      "inputs": [
        {
          "indexed": true,
          "internalType": "bytes32",
          "name": "id",
          "type": "bytes32"
        }
      ],
      "name": "AtomicSwapOrderCanceled",
      "type": "event"
    },
    {
      "anonymous": false,
      "inputs": [
        {
          "indexed": true,
          "internalType": "bytes32",
          "name": "id",
          "type": "bytes32"
        }
      ],
      "name": "AtomicSwapOrderCreated",
      "type": "event"
    },
    {
      "anonymous": false,
      "inputs": [
        {
          "indexed": true,
          "internalType": "address",
          "name": "maker",
          "type": "address"
        },
        {
          "indexed": true,
          "internalType": "address",
          "name": "taker",
          "type": "address"
        },
        {
          "indexed": true,
          "internalType": "bytes32",
          "name": "id",
          "type": "bytes32"
        }
      ],
      "name": "AtomicSwapOrderTook",
      "type": "event"
    },
    {
      "anonymous": false,
      "inputs": [
        {
          "indexed": false,
          "internalType": "uint8",
          "name": "version",
          "type": "uint8"
        }
      ],
      "name": "Initialized",
      "type": "event"
    },
    {
      "anonymous": false,
      "inputs": [
        {
          "indexed": true,
          "internalType": "address",
          "name": "previousOwner",
          "type": "address"
        },
        {
          "indexed": true,
          "internalType": "address",
          "name": "newOwner",
          "type": "address"
        }
      ],
      "name": "OwnershipTransferred",
      "type": "event"
    },
    {
      "anonymous": false,
      "inputs": [
        {
          "indexed": true,
          "internalType": "address",
          "name": "payer",
          "type": "address"
        },
        {
          "indexed": false,
          "internalType": "uint256",
          "name": "amount",
          "type": "uint256"
        },
        {
          "indexed": false,
          "internalType": "uint256",
          "name": "daoShare",
          "type": "uint256"
        },
        {
          "indexed": false,
          "internalType": "uint256",
          "name": "burned",
          "type": "uint256"
        }
      ],
      "name": "PaymentReceived",
      "type": "event"
    },
    {
      "inputs": [
        {
          "internalType": "bytes32",
          "name": "_orderID",
          "type": "bytes32"
        },
        {
          "internalType": "address",
          "name": "_bidder",
          "type": "address"
        }
      ],
      "name": "acceptBid",
      "outputs": [],
      "stateMutability": "payable",
      "type": "function"
    },
    {
      "inputs": [
        {
          "internalType": "bytes32",
          "name": "",
          "type": "bytes32"
        },
        {
          "internalType": "address",
          "name": "",
          "type": "address"
        }
      ],
      "name": "bids",
      "outputs": [
        {
          "internalType": "uint256",
          "name": "amount",
          "type": "uint256"
        },
        {
          "internalType": "bytes32",
          "name": "order",
          "type": "bytes32"
        },
        {
          "internalType": "enum IAtomicSwap.BidStatus",
          "name": "status",
          "type": "uint8"
        },
        {
          "internalType": "address",
          "name": "bidder",
          "type": "address"
        },
        {
          "internalType": "uint256",
          "name": "receiveTimestamp",
          "type": "uint256"
        },
        {
          "internalType": "uint256",
          "name": "expireTimestamp",
          "type": "uint256"
        }
      ],
      "stateMutability": "view",
      "type": "function"
    },
    {
      "inputs": [],
      "name": "buyerFeeRate",
      "outputs": [
        {
          "internalType": "uint256",
          "name": "",
          "type": "uint256"
        }
      ],
      "stateMutability": "view",
      "type": "function"
    },
    {
      "inputs": [
        {
          "internalType": "bytes32",
          "name": "_orderID",
          "type": "bytes32"
        }
      ],
      "name": "cancelBid",
      "outputs": [],
      "stateMutability": "payable",
      "type": "function"
    },
    {
      "inputs": [
        {
          "components": [
            {
              "internalType": "bytes32",
              "name": "orderID",
              "type": "bytes32"
            }
          ],
          "internalType": "struct IAtomicSwap.CancelSwapMsg",
          "name": "cancelswap",
          "type": "tuple"
        }
      ],
      "name": "cancelSwap",
      "outputs": [],
      "stateMutability": "payable",
      "type": "function"
    },
    {
      "inputs": [
        {
          "internalType": "address",
          "name": "_admin",
          "type": "address"
        },
        {
          "internalType": "address",
          "name": "_treasury",
          "type": "address"
        },
        {
          "internalType": "uint256",
          "name": "_sellerFee",
          "type": "uint256"
        },
        {
          "internalType": "uint256",
          "name": "_buyerFee",
          "type": "uint256"
        }
      ],
      "name": "initialize",
      "outputs": [],
      "stateMutability": "nonpayable",
      "type": "function"
    },
    {
      "inputs": [
        {
          "components": [
            {
              "components": [
                {
                  "internalType": "address",
                  "name": "token",
                  "type": "address"
                },
                {
                  "internalType": "uint256",
                  "name": "amount",
                  "type": "uint256"
                }
              ],
              "internalType": "struct IAtomicSwap.Coin",
              "name": "sellToken",
              "type": "tuple"
            },
            {
              "components": [
                {
                  "internalType": "address",
                  "name": "token",
                  "type": "address"
                },
                {
                  "internalType": "uint256",
                  "name": "amount",
                  "type": "uint256"
                }
              ],
              "internalType": "struct IAtomicSwap.Coin",
              "name": "buyToken",
              "type": "tuple"
            },
            {
              "internalType": "address",
              "name": "desiredTaker",
              "type": "address"
            },
            {
              "internalType": "uint256",
              "name": "minBidCap",
              "type": "uint256"
            },
            {
              "internalType": "uint256",
              "name": "expireAt",
              "type": "uint256"
            }
          ],
          "internalType": "struct IAtomicSwap.MakeSwapMsg",
          "name": "makeswap",
          "type": "tuple"
        }
      ],
      "name": "makeSwap",
      "outputs": [],
      "stateMutability": "payable",
      "type": "function"
    },
    {
      "inputs": [],
      "name": "owner",
      "outputs": [
        {
          "internalType": "address",
          "name": "",
          "type": "address"
        }
      ],
      "stateMutability": "view",
      "type": "function"
    },
    {
      "inputs": [
        {
          "components": [
            {
              "internalType": "address",
              "name": "bidder",
              "type": "address"
            },
            {
              "internalType": "uint256",
              "name": "bidAmount",
              "type": "uint256"
            },
            {
              "internalType": "bytes32",
              "name": "orderID",
              "type": "bytes32"
            },
            {
              "internalType": "uint256",
              "name": "expireTimestamp",
              "type": "uint256"
            }
          ],
          "internalType": "struct IAtomicSwap.PlaceBidMsg",
          "name": "placeBidMsg",
          "type": "tuple"
        }
      ],
      "name": "placeBid",
      "outputs": [],
      "stateMutability": "payable",
      "type": "function"
    },
    {
      "inputs": [],
      "name": "renounceOwnership",
      "outputs": [],
      "stateMutability": "nonpayable",
      "type": "function"
    },
    {
      "inputs": [],
      "name": "sellerFeeRate",
      "outputs": [
        {
          "internalType": "uint256",
          "name": "",
          "type": "uint256"
        }
      ],
      "stateMutability": "view",
      "type": "function"
    },
    {
      "inputs": [
        {
          "internalType": "bytes32",
          "name": "",
          "type": "bytes32"
        }
      ],
      "name": "swapOrder",
      "outputs": [
        {
          "internalType": "bytes32",
          "name": "id",
          "type": "bytes32"
        },
        {
          "internalType": "enum IAtomicSwap.OrderStatus",
          "name": "status",
          "type": "uint8"
        },
        {
          "internalType": "address",
          "name": "maker",
          "type": "address"
        },
        {
          "components": [
            {
              "internalType": "address",
              "name": "token",
              "type": "address"
            },
            {
              "internalType": "uint256",
              "name": "amount",
              "type": "uint256"
            }
          ],
          "internalType": "struct IAtomicSwap.Coin",
          "name": "sellToken",
          "type": "tuple"
        },
        {
          "internalType": "address",
          "name": "taker",
          "type": "address"
        },
        {
          "components": [
            {
              "internalType": "address",
              "name": "token",
              "type": "address"
            },
            {
              "internalType": "uint256",
              "name": "amount",
              "type": "uint256"
            }
          ],
          "internalType": "struct IAtomicSwap.Coin",
          "name": "buyToken",
          "type": "tuple"
        },
        {
          "internalType": "uint256",
          "name": "minBidCap",
          "type": "uint256"
        },
        {
          "internalType": "uint256",
          "name": "createdAt",
          "type": "uint256"
        },
        {
          "internalType": "uint256",
          "name": "canceledAt",
          "type": "uint256"
        },
        {
          "internalType": "uint256",
          "name": "completedAt",
          "type": "uint256"
        },
        {
          "internalType": "uint256",
          "name": "expiredAt",
          "type": "uint256"
        }
      ],
      "stateMutability": "view",
      "type": "function"
    },
    {
      "inputs": [
        {
          "components": [
            {
              "internalType": "bytes32",
              "name": "orderID",
              "type": "bytes32"
            },
            {
              "internalType": "address",
              "name": "takerReceiver",
              "type": "address"
            }
          ],
          "internalType": "struct IAtomicSwap.TakeSwapMsg",
          "name": "takeswap",
          "type": "tuple"
        }
      ],
      "name": "takeSwap",
      "outputs": [],
      "stateMutability": "payable",
      "type": "function"
    },
    {
      "inputs": [
        {
          "internalType": "address",
          "name": "newOwner",
          "type": "address"
        }
      ],
      "name": "transferOwnership",
      "outputs": [],
      "stateMutability": "nonpayable",
      "type": "function"
    }
  ],
  "bytecode": "0x608060405234801561001057600080fd5b50613d7c806100206000396000f3fe6080604052600436106100dd5760003560e01c806389f681901161007f578063df7cec2811610059578063df7cec2814610248578063eb990c5914610264578063f2fde38b1461028d578063fca6caa1146102b6576100dd565b806389f68190146101d65780638da5cb5b14610201578063a4533b721461022c576100dd565b806356c380ab116100bb57806356c380ab1461014557806366e929bf14610161578063715018a6146101a3578063888a7934146101ba576100dd565b806306be619c146100e257806337be0022146100fe57806353f10c801461011a575b600080fd5b6100fc60048036038101906100f79190612c42565b6102fd565b005b61011860048036038101906101139190612c8e565b61084e565b005b34801561012657600080fd5b5061012f610cb0565b60405161013c9190612cd4565b60405180910390f35b61015f600480360381019061015a9190612d0e565b610cb6565b005b34801561016d57600080fd5b5061018860048036038101906101839190612dcf565b611008565b60405161019a96959493929190612ea4565b60405180910390f35b3480156101af57600080fd5b506101b861107e565b005b6101d460048036038101906101cf9190612dcf565b611092565b005b3480156101e257600080fd5b506101eb611473565b6040516101f89190612cd4565b60405180910390f35b34801561020d57600080fd5b50610216611479565b6040516102239190612f05565b60405180910390f35b61024660048036038101906102419190612f3f565b6114a3565b005b610262600480360381019061025d9190612f6c565b6118fe565b005b34801561027057600080fd5b5061028b60048036038101906102869190612fc5565b611ccc565b005b34801561029957600080fd5b506102b460048036038101906102af919061302c565b611f5e565b005b3480156102c257600080fd5b506102dd60048036038101906102d89190612f6c565b611fe2565b6040516102f49b9a999897969594939291906130ee565b60405180910390f35b61030561215d565b80600001356000801b6097600083815260200190815260200160002060000154141561035d576040517f21b490ba00000000000000000000000000000000000000000000000000000000815260040160405180910390fd5b600060976000846000013581526020019081526020016000209050600073ffffffffffffffffffffffffffffffffffffffff168160040160009054906101000a900473ffffffffffffffffffffffffffffffffffffffff1673ffffffffffffffffffffffffffffffffffffffff16148061042757503373ffffffffffffffffffffffffffffffffffffffff168160040160009054906101000a900473ffffffffffffffffffffffffffffffffffffffff1673ffffffffffffffffffffffffffffffffffffffff1614155b1561045e576040517f36033acc00000000000000000000000000000000000000000000000000000000815260040160405180910390fd5b60028081111561047157610470612e1e565b5b8160010160009054906101000a900460ff16600281111561049557610494612e1e565b5b14156104cd576040517f195332a500000000000000000000000000000000000000000000000000000000815260040160405180910390fd5b60028160010160006101000a81548160ff021916908360028111156104f5576104f4612e1e565b5b02179055504281600a01819055506105518160020160000160009054906101000a900473ffffffffffffffffffffffffffffffffffffffff16846020016020810190610541919061302c565b83600201600101546099546121ad565b60006103e8609a54836005016001015461056b91906131ca565b6105759190613253565b9050600081836005016001015461058c9190613284565b9050600073ffffffffffffffffffffffffffffffffffffffff168360050160000160009054906101000a900473ffffffffffffffffffffffffffffffffffffffff1673ffffffffffffffffffffffffffffffffffffffff16141561070d578260050160010154341015610634576040517f08c379a000000000000000000000000000000000000000000000000000000000815260040161062b90613315565b60405180910390fd5b8260010160019054906101000a900473ffffffffffffffffffffffffffffffffffffffff1673ffffffffffffffffffffffffffffffffffffffff166108fc829081150290604051600060405180830381858888f1935050505015801561069e573d6000803e3d6000fd5b50609860009054906101000a900473ffffffffffffffffffffffffffffffffffffffff1673ffffffffffffffffffffffffffffffffffffffff166108fc839081150290604051600060405180830381858888f19350505050158015610707573d6000803e3d6000fd5b50610798565b6107528360050160000160009054906101000a900473ffffffffffffffffffffffffffffffffffffffff163387602001602081019061074c919061302c565b84612304565b6107978360050160000160009054906101000a900473ffffffffffffffffffffffffffffffffffffffff1633876020016020810190610791919061302c565b85612304565b5b84600001358360040160009054906101000a900473ffffffffffffffffffffffffffffffffffffffff1673ffffffffffffffffffffffffffffffffffffffff168460010160019054906101000a900473ffffffffffffffffffffffffffffffffffffffff1673ffffffffffffffffffffffffffffffffffffffff167f6bf7309f141d1b44e414f1fc04d98491cd0acf98f0f1e5ad885d0a7ce164e6fa60405160405180910390a45050505061084b6124b5565b50565b61085661215d565b80600001356000801b609760008381526020019081526020016000206000015414156108ae576040517f21b490ba00000000000000000000000000000000000000000000000000000000815260040160405180910390fd5b6000609760008460000135815260200190815260200160002090503373ffffffffffffffffffffffffffffffffffffffff168160010160019054906101000a900473ffffffffffffffffffffffffffffffffffffffff1673ffffffffffffffffffffffffffffffffffffffff1614610952576040517f2bc8de4500000000000000000000000000000000000000000000000000000000815260040160405180910390fd5b6000600281111561096657610965612e1e565b5b8160010160009054906101000a900460ff16600281111561098a57610989612e1e565b5b146109c1576040517f195332a500000000000000000000000000000000000000000000000000000000815260040160405180910390fd5b60018160010160006101000a81548160ff021916908360028111156109e9576109e8612e1e565b5b0217905550600073ffffffffffffffffffffffffffffffffffffffff168160020160000160009054906101000a900473ffffffffffffffffffffffffffffffffffffffff1673ffffffffffffffffffffffffffffffffffffffff161415610a9d573373ffffffffffffffffffffffffffffffffffffffff166108fc82600501600101549081150290604051600060405180830381858888f19350505050158015610a97573d6000803e3d6000fd5b50610b5a565b8060020160000160009054906101000a900473ffffffffffffffffffffffffffffffffffffffff1673ffffffffffffffffffffffffffffffffffffffff1663a9059cbb3383600501600101546040518363ffffffff1660e01b8152600401610b06929190613335565b602060405180830381600087803b158015610b2057600080fd5b505af1158015610b34573d6000803e3d6000fd5b505050506040513d601f19601f82011682018060405250810190610b589190613396565b505b82600001357ff68aeec8f55d67a9b2cf2b6caea31e11f2c14e09da250170575d63911f26aa6e60405160405180910390a260976000846000013581526020019081526020016000206000808201600090556001820160006101000a81549060ff02191690556001820160016101000a81549073ffffffffffffffffffffffffffffffffffffffff021916905560028201600080820160006101000a81549073ffffffffffffffffffffffffffffffffffffffff0219169055600182016000905550506004820160006101000a81549073ffffffffffffffffffffffffffffffffffffffff021916905560058201600080820160006101000a81549073ffffffffffffffffffffffffffffffffffffffff021916905560018201600090555050600782016000905560088201600090556009820160009055600a820160009055600b82016000905550505050610cad6124b5565b50565b609a5481565b610cbe61215d565b80604001356000801b60976000838152602001908152602001600020600001541415610d16576040517f21b490ba00000000000000000000000000000000000000000000000000000000815260040160405180910390fd5b3373ffffffffffffffffffffffffffffffffffffffff16826000016020810190610d40919061302c565b73ffffffffffffffffffffffffffffffffffffffff1614610d96576040517f08c379a0000000000000000000000000000000000000000000000000000000008152600401610d8d9061340f565b60405180910390fd5b600060976000846040013581526020019081526020016000209050826060013581600b01541015610e085780600b015483606001356040517f81a15c93000000000000000000000000000000000000000000000000000000008152600401610dff92919061342f565b60405180910390fd5b6000836040013590506000846020013590506000609b600084815260200190815260200160002060003373ffffffffffffffffffffffffffffffffffffffff1673ffffffffffffffffffffffffffffffffffffffff16815260200190815260200160002090506000609760008581526020019081526020016000206007015490508160000154831080610e9a57508083105b15610edc57826040517f70014470000000000000000000000000000000000000000000000000000000008152600401610ed39190612cd4565b60405180910390fd5b6000826000015484610eee9190613284565b90506000609760008781526020019081526020016000206005019050600073ffffffffffffffffffffffffffffffffffffffff168160000160009054906101000a900473ffffffffffffffffffffffffffffffffffffffff1673ffffffffffffffffffffffffffffffffffffffff1614610f9757610f928160000160009054906101000a900473ffffffffffffffffffffffffffffffffffffffff16333085612304565b610fdc565b813414610fdb57346040517f70014470000000000000000000000000000000000000000000000000000000008152600401610fd29190612cd4565b60405180910390fd5b5b610ff589803603810190610ff09190613561565b6124bf565b50505050505050506110056124b5565b50565b609b602052816000526040600020602052806000526040600020600091509150508060000154908060010154908060020160009054906101000a900460ff16908060020160019054906101000a900473ffffffffffffffffffffffffffffffffffffffff16908060030154908060040154905086565b611086612627565b61109060006126a5565b565b61109a61215d565b816000801b609760008381526020019081526020016000206000015414156110ee576040517f21b490ba00000000000000000000000000000000000000000000000000000000815260040160405180910390fd5b60003414611131576040517f08c379a0000000000000000000000000000000000000000000000000000000008152600401611128906135da565b60405180910390fd5b3373ffffffffffffffffffffffffffffffffffffffff166097600085815260200190815260200160002060010160019054906101000a900473ffffffffffffffffffffffffffffffffffffffff1673ffffffffffffffffffffffffffffffffffffffff161461120f576097600084815260200190815260200160002060010160019054906101000a900473ffffffffffffffffffffffffffffffffffffffff16336040517f2a16fdee0000000000000000000000000000000000000000000000000000000081526004016112069291906135fa565b60405180910390fd5b6000609b600085815260200190815260200160002060008473ffffffffffffffffffffffffffffffffffffffff1673ffffffffffffffffffffffffffffffffffffffff168152602001908152602001600020905060028081111561127657611275612e1e565b5b8160020160009054906101000a900460ff16600281111561129a57611299612e1e565b5b146112ed578060020160009054906101000a900460ff166040517f4f1404470000000000000000000000000000000000000000000000000000000081526004016112e49190613623565b60405180910390fd5b428160040154101561133c578060040154426040517f6b0186e600000000000000000000000000000000000000000000000000000000815260040161133392919061342f565b60405180910390fd5b60018160020160006101000a81548160ff0219169083600281111561136457611363612e1e565b5b021790555060006097600086815260200190815260200160002060020190506113dd8160000160009054906101000a900473ffffffffffffffffffffffffffffffffffffffff168360020160019054906101000a900473ffffffffffffffffffffffffffffffffffffffff1683600101546099546121ad565b60006097600087815260200190815260200160002060050190506114638160000160009054906101000a900473ffffffffffffffffffffffffffffffffffffffff166097600089815260200190815260200160002060010160019054906101000a900473ffffffffffffffffffffffffffffffffffffffff168560000154609a546121ad565b5050505061146f6124b5565b5050565b60995481565b6000603360009054906101000a900473ffffffffffffffffffffffffffffffffffffffff16905090565b6114ab61215d565b8060400160000160208101906114c1919061302c565b73ffffffffffffffffffffffffffffffffffffffff168160000160000160208101906114ed919061302c565b73ffffffffffffffffffffffffffffffffffffffff16141561153b576040517f8686656d00000000000000000000000000000000000000000000000000000000815260040160405180910390fd5b60008160a0013511611579576040517f717e547900000000000000000000000000000000000000000000000000000000815260040160405180910390fd5b600073ffffffffffffffffffffffffffffffffffffffff163373ffffffffffffffffffffffffffffffffffffffff1614156115e0576040517fddb5de5e00000000000000000000000000000000000000000000000000000000815260040160405180910390fd5b428160c00135101561162f578060c00135426040517f3d450b1200000000000000000000000000000000000000000000000000000000815260040161162692919061342f565b60405180910390fd5b600061163a3361276b565b90506116568183803603810190611651919061371a565b6127b7565b600073ffffffffffffffffffffffffffffffffffffffff16826000016000016020810190611684919061302c565b73ffffffffffffffffffffffffffffffffffffffff1614156116ef5781600001602001353410156116ea576040517f08c379a00000000000000000000000000000000000000000000000000000000081526004016116e190613793565b60405180910390fd5b6118c5565b6000826000016000016020810190611707919061302c565b905060008173ffffffffffffffffffffffffffffffffffffffff1663dd62ed3e33306040518363ffffffff1660e01b81526004016117469291906135fa565b60206040518083038186803b15801561175e57600080fd5b505afa158015611772573d6000803e3d6000fd5b505050506040513d601f19601f8201168201806040525081019061179691906137c8565b905083600001602001358110156117ed578360000160200135816040517f55d931320000000000000000000000000000000000000000000000000000000081526004016117e492919061342f565b60405180910390fd5b8173ffffffffffffffffffffffffffffffffffffffff166323b872dd333087600001602001356040518463ffffffff1660e01b8152600401611831939291906137f5565b602060405180830381600087803b15801561184b57600080fd5b505af115801561185f573d6000803e3d6000fd5b505050506040513d601f19601f820116820180604052508101906118839190613396565b6118c2576040517f08c379a00000000000000000000000000000000000000000000000000000000081526004016118b990613878565b60405180910390fd5b50505b807f8b82d32987f9a4ae1bc7868a6f104edb711227ec3c9fccb0416a14fcc29bec5a60405160405180910390a2506118fb6124b5565b50565b61190661215d565b806000801b6097600083815260200190815260200160002060000154141561195a576040517f21b490ba00000000000000000000000000000000000000000000000000000000815260040160405180910390fd5b6000341461199d576040517f08c379a0000000000000000000000000000000000000000000000000000000008152600401611994906135da565b60405180910390fd5b6000609b600084815260200190815260200160002060003373ffffffffffffffffffffffffffffffffffffffff1673ffffffffffffffffffffffffffffffffffffffff16815260200190815260200160002090503373ffffffffffffffffffffffffffffffffffffffff168160020160019054906101000a900473ffffffffffffffffffffffffffffffffffffffff1673ffffffffffffffffffffffffffffffffffffffff1614611a7a576040517f2bc8de4500000000000000000000000000000000000000000000000000000000815260040160405180910390fd5b4281600401541015611ac9578060040154426040517fd05c31dc000000000000000000000000000000000000000000000000000000008152600401611ac092919061342f565b60405180910390fd5b600280811115611adc57611adb612e1e565b5b8160020160009054906101000a900460ff166002811115611b0057611aff612e1e565b5b14611b53578060020160009054906101000a900460ff166040517f4f140447000000000000000000000000000000000000000000000000000000008152600401611b4a9190613623565b60405180910390fd5b60008160020160006101000a81548160ff02191690836002811115611b7b57611b7a612e1e565b5b02179055506000609760008581526020019081526020016000206005019050600073ffffffffffffffffffffffffffffffffffffffff168160000160009054906101000a900473ffffffffffffffffffffffffffffffffffffffff1673ffffffffffffffffffffffffffffffffffffffff1614611c4e57611c498160000160009054906101000a900473ffffffffffffffffffffffffffffffffffffffff168360020160019054906101000a900473ffffffffffffffffffffffffffffffffffffffff168460000154612aac565b611cbe565b8160020160019054906101000a900473ffffffffffffffffffffffffffffffffffffffff1673ffffffffffffffffffffffffffffffffffffffff166108fc83600001549081150290604051600060405180830381858888f19350505050158015611cbc573d6000803e3d6000fd5b505b505050611cc96124b5565b50565b60008060019054906101000a900460ff16159050808015611cfd5750600160008054906101000a900460ff1660ff16105b80611d2a5750611d0c30612b83565b158015611d295750600160008054906101000a900460ff1660ff16145b5b611d69576040517f08c379a0000000000000000000000000000000000000000000000000000000008152600401611d609061390a565b60405180910390fd5b60016000806101000a81548160ff021916908360ff1602179055508015611da6576001600060016101000a81548160ff0219169083151502179055505b611dae612ba6565b611db785611f5e565b6103e88310611dfb576040517f08c379a0000000000000000000000000000000000000000000000000000000008152600401611df29061399c565b60405180910390fd5b6103e88210611e3f576040517f08c379a0000000000000000000000000000000000000000000000000000000008152600401611e369061399c565b60405180910390fd5b600073ffffffffffffffffffffffffffffffffffffffff168473ffffffffffffffffffffffffffffffffffffffff161415611eaf576040517f08c379a0000000000000000000000000000000000000000000000000000000008152600401611ea690613a08565b60405180910390fd5b8260998190555081609a8190555083609860006101000a81548173ffffffffffffffffffffffffffffffffffffffff021916908373ffffffffffffffffffffffffffffffffffffffff1602179055508015611f575760008060016101000a81548160ff0219169083151502179055507f7f26b83ff96e1f2b6a682f133852f6798a09c465da95921460cefb38474024986001604051611f4e9190613a7a565b60405180910390a15b5050505050565b611f66612627565b600073ffffffffffffffffffffffffffffffffffffffff168173ffffffffffffffffffffffffffffffffffffffff161415611fd6576040517f08c379a0000000000000000000000000000000000000000000000000000000008152600401611fcd90613b07565b60405180910390fd5b611fdf816126a5565b50565b60976020528060005260406000206000915090508060000154908060010160009054906101000a900460ff16908060010160019054906101000a900473ffffffffffffffffffffffffffffffffffffffff1690806002016040518060400160405290816000820160009054906101000a900473ffffffffffffffffffffffffffffffffffffffff1673ffffffffffffffffffffffffffffffffffffffff1673ffffffffffffffffffffffffffffffffffffffff168152602001600182015481525050908060040160009054906101000a900473ffffffffffffffffffffffffffffffffffffffff1690806005016040518060400160405290816000820160009054906101000a900473ffffffffffffffffffffffffffffffffffffffff1673ffffffffffffffffffffffffffffffffffffffff1673ffffffffffffffffffffffffffffffffffffffff1681526020016001820154815250509080600701549080600801549080600901549080600a01549080600b015490508b565b600260655414156121a3576040517f08c379a000000000000000000000000000000000000000000000000000000000815260040161219a90613b73565b60405180910390fd5b6002606581905550565b60006103e882846121be91906131ca565b6121c89190613253565b9050600081846121d89190613284565b9050600073ffffffffffffffffffffffffffffffffffffffff168673ffffffffffffffffffffffffffffffffffffffff161461224b57612219868683612aac565b61224686609860009054906101000a900473ffffffffffffffffffffffffffffffffffffffff1684612aac565b6122fc565b8473ffffffffffffffffffffffffffffffffffffffff166108fc829081150290604051600060405180830381858888f19350505050158015612291573d6000803e3d6000fd5b50609860009054906101000a900473ffffffffffffffffffffffffffffffffffffffff1673ffffffffffffffffffffffffffffffffffffffff166108fc839081150290604051600060405180830381858888f193505050501580156122fa573d6000803e3d6000fd5b505b505050505050565b600084905060008173ffffffffffffffffffffffffffffffffffffffff1663dd62ed3e33306040518363ffffffff1660e01b81526004016123469291906135fa565b60206040518083038186803b15801561235e57600080fd5b505afa158015612372573d6000803e3d6000fd5b505050506040513d601f19601f8201168201806040525081019061239691906137c8565b9050828110156123df5780836040517f55d931320000000000000000000000000000000000000000000000000000000081526004016123d692919061342f565b60405180910390fd5b8173ffffffffffffffffffffffffffffffffffffffff166323b872dd8686866040518463ffffffff1660e01b815260040161241c939291906137f5565b602060405180830381600087803b15801561243657600080fd5b505af115801561244a573d6000803e3d6000fd5b505050506040513d601f19601f8201168201806040525081019061246e9190613396565b6124ad576040517f08c379a00000000000000000000000000000000000000000000000000000000081526004016124a490613bdf565b60405180910390fd5b505050505050565b6001606581905550565b60006040518060c0016040528083602001518152602001836040015181526020016002808111156124f3576124f2612e1e565b5b8152602001836000015173ffffffffffffffffffffffffffffffffffffffff1681526020014281526020018360600151815250905080609b6000846040015181526020019081526020016000206000846000015173ffffffffffffffffffffffffffffffffffffffff1673ffffffffffffffffffffffffffffffffffffffff168152602001908152602001600020600082015181600001556020820151816001015560408201518160020160006101000a81548160ff021916908360028111156125c0576125bf612e1e565b5b021790555060608201518160020160016101000a81548173ffffffffffffffffffffffffffffffffffffffff021916908373ffffffffffffffffffffffffffffffffffffffff1602179055506080820151816003015560a082015181600401559050505050565b61262f612c07565b73ffffffffffffffffffffffffffffffffffffffff1661264d611479565b73ffffffffffffffffffffffffffffffffffffffff16146126a3576040517f08c379a000000000000000000000000000000000000000000000000000000000815260040161269a90613c4b565b60405180910390fd5b565b6000603360009054906101000a900473ffffffffffffffffffffffffffffffffffffffff16905081603360006101000a81548173ffffffffffffffffffffffffffffffffffffffff021916908373ffffffffffffffffffffffffffffffffffffffff1602179055508173ffffffffffffffffffffffffffffffffffffffff168173ffffffffffffffffffffffffffffffffffffffff167f8be0079c531659141344cd1fd0a4f28419497f9722a3daafe3b4186f6b6457e060405160405180910390a35050565b600081609c54604051602001612782929190613335565b604051602081830303815290604052805190602001209050609c60008154809291906127ad90613c6b565b9190505550919050565b6000801b609760008481526020019081526020016000206000015414612809576040517f86c8139e00000000000000000000000000000000000000000000000000000000815260040160405180910390fd5b60006040518061016001604052808481526020016000600281111561283157612830612e1e565b5b81526020013373ffffffffffffffffffffffffffffffffffffffff16815260200183600001518152602001836040015173ffffffffffffffffffffffffffffffffffffffff168152602001836020015181526020018360600151815260200142815260200160008152602001600081526020018360800151815250905080609760008581526020019081526020016000206000820151816000015560208201518160010160006101000a81548160ff021916908360028111156128f7576128f6612e1e565b5b021790555060408201518160010160016101000a81548173ffffffffffffffffffffffffffffffffffffffff021916908373ffffffffffffffffffffffffffffffffffffffff16021790555060608201518160020160008201518160000160006101000a81548173ffffffffffffffffffffffffffffffffffffffff021916908373ffffffffffffffffffffffffffffffffffffffff16021790555060208201518160010155505060808201518160040160006101000a81548173ffffffffffffffffffffffffffffffffffffffff021916908373ffffffffffffffffffffffffffffffffffffffff16021790555060a08201518160050160008201518160000160006101000a81548173ffffffffffffffffffffffffffffffffffffffff021916908373ffffffffffffffffffffffffffffffffffffffff16021790555060208201518160010155505060c0820151816007015560e08201518160080155610100820151816009015561012082015181600a015561014082015181600b0155905050827f8b82d32987f9a4ae1bc7868a6f104edb711227ec3c9fccb0416a14fcc29bec5a60405160405180910390a2505050565b60008390508073ffffffffffffffffffffffffffffffffffffffff1663a9059cbb84846040518363ffffffff1660e01b8152600401612aec929190613335565b602060405180830381600087803b158015612b0657600080fd5b505af1158015612b1a573d6000803e3d6000fd5b505050506040513d601f19601f82011682018060405250810190612b3e9190613396565b612b7d576040517f08c379a0000000000000000000000000000000000000000000000000000000008152600401612b7490613bdf565b60405180910390fd5b50505050565b6000808273ffffffffffffffffffffffffffffffffffffffff163b119050919050565b600060019054906101000a900460ff16612bf5576040517f08c379a0000000000000000000000000000000000000000000000000000000008152600401612bec90613d26565b60405180910390fd5b612c05612c00612c07565b6126a5565b565b600033905090565b6000604051905090565b600080fd5b600080fd5b600060408284031215612c3957612c38612c1e565b5b81905092915050565b600060408284031215612c5857612c57612c19565b5b6000612c6684828501612c23565b91505092915050565b600060208284031215612c8557612c84612c1e565b5b81905092915050565b600060208284031215612ca457612ca3612c19565b5b6000612cb284828501612c6f565b91505092915050565b6000819050919050565b612cce81612cbb565b82525050565b6000602082019050612ce96000830184612cc5565b92915050565b600060808284031215612d0557612d04612c1e565b5b81905092915050565b600060808284031215612d2457612d23612c19565b5b6000612d3284828501612cef565b91505092915050565b6000819050919050565b612d4e81612d3b565b8114612d5957600080fd5b50565b600081359050612d6b81612d45565b92915050565b600073ffffffffffffffffffffffffffffffffffffffff82169050919050565b6000612d9c82612d71565b9050919050565b612dac81612d91565b8114612db757600080fd5b50565b600081359050612dc981612da3565b92915050565b60008060408385031215612de657612de5612c19565b5b6000612df485828601612d5c565b9250506020612e0585828601612dba565b9150509250929050565b612e1881612d3b565b82525050565b7f4e487b7100000000000000000000000000000000000000000000000000000000600052602160045260246000fd5b60038110612e5e57612e5d612e1e565b5b50565b6000819050612e6f82612e4d565b919050565b6000612e7f82612e61565b9050919050565b612e8f81612e74565b82525050565b612e9e81612d91565b82525050565b600060c082019050612eb96000830189612cc5565b612ec66020830188612e0f565b612ed36040830187612e86565b612ee06060830186612e95565b612eed6080830185612cc5565b612efa60a0830184612cc5565b979650505050505050565b6000602082019050612f1a6000830184612e95565b92915050565b600060e08284031215612f3657612f35612c1e565b5b81905092915050565b600060e08284031215612f5557612f54612c19565b5b6000612f6384828501612f20565b91505092915050565b600060208284031215612f8257612f81612c19565b5b6000612f9084828501612d5c565b91505092915050565b612fa281612cbb565b8114612fad57600080fd5b50565b600081359050612fbf81612f99565b92915050565b60008060008060808587031215612fdf57612fde612c19565b5b6000612fed87828801612dba565b9450506020612ffe87828801612dba565b935050604061300f87828801612fb0565b925050606061302087828801612fb0565b91505092959194509250565b60006020828403121561304257613041612c19565b5b600061305084828501612dba565b91505092915050565b6003811061306a57613069612e1e565b5b50565b600081905061307b82613059565b919050565b600061308b8261306d565b9050919050565b61309b81613080565b82525050565b6130aa81612d91565b82525050565b6130b981612cbb565b82525050565b6040820160008201516130d560008501826130a1565b5060208201516130e860208501826130b0565b50505050565b60006101a082019050613104600083018e612e0f565b613111602083018d613092565b61311e604083018c612e95565b61312b606083018b6130bf565b61313860a083018a612e95565b61314560c08301896130bf565b613153610100830188612cc5565b613161610120830187612cc5565b61316f610140830186612cc5565b61317d610160830185612cc5565b61318b610180830184612cc5565b9c9b505050505050505050505050565b7f4e487b7100000000000000000000000000000000000000000000000000000000600052601160045260246000fd5b60006131d582612cbb565b91506131e083612cbb565b9250817fffffffffffffffffffffffffffffffffffffffffffffffffffffffffffffffff04831182151516156132195761321861319b565b5b828202905092915050565b7f4e487b7100000000000000000000000000000000000000000000000000000000600052601260045260246000fd5b600061325e82612cbb565b915061326983612cbb565b92508261327957613278613224565b5b828204905092915050565b600061328f82612cbb565b915061329a83612cbb565b9250828210156132ad576132ac61319b565b5b828203905092915050565b600082825260208201905092915050565b7f4e6f7420656e6f7567682066756e647320746f20627579000000000000000000600082015250565b60006132ff6017836132b8565b915061330a826132c9565b602082019050919050565b6000602082019050818103600083015261332e816132f2565b9050919050565b600060408201905061334a6000830185612e95565b6133576020830184612cc5565b9392505050565b60008115159050919050565b6133738161335e565b811461337e57600080fd5b50565b6000815190506133908161336a565b92915050565b6000602082840312156133ac576133ab612c19565b5b60006133ba84828501613381565b91505092915050565b7f4e6f742074686520626964646572000000000000000000000000000000000000600082015250565b60006133f9600e836132b8565b9150613404826133c3565b602082019050919050565b60006020820190508181036000830152613428816133ec565b9050919050565b60006040820190506134446000830185612cc5565b6134516020830184612cc5565b9392505050565b600080fd5b6000601f19601f8301169050919050565b7f4e487b7100000000000000000000000000000000000000000000000000000000600052604160045260246000fd5b6134a68261345d565b810181811067ffffffffffffffff821117156134c5576134c461346e565b5b80604052505050565b60006134d8612c0f565b90506134e4828261349d565b919050565b6000608082840312156134ff576134fe613458565b5b61350960806134ce565b9050600061351984828501612dba565b600083015250602061352d84828501612fb0565b602083015250604061354184828501612d5c565b604083015250606061355584828501612fb0565b60608301525092915050565b60006080828403121561357757613576612c19565b5b6000613585848285016134e9565b91505092915050565b7f556e65787065637465642045746865722073656e740000000000000000000000600082015250565b60006135c46015836132b8565b91506135cf8261358e565b602082019050919050565b600060208201905081810360008301526135f3816135b7565b9050919050565b600060408201905061360f6000830185612e95565b61361c6020830184612e95565b9392505050565b60006020820190506136386000830184612e86565b92915050565b60006040828403121561365457613653613458565b5b61365e60406134ce565b9050600061366e84828501612dba565b600083015250602061368284828501612fb0565b60208301525092915050565b600060e082840312156136a4576136a3613458565b5b6136ae60a06134ce565b905060006136be8482850161363e565b60008301525060406136d28482850161363e565b60208301525060806136e684828501612dba565b60408301525060a06136fa84828501612fb0565b60608301525060c061370e84828501612fb0565b60808301525092915050565b600060e082840312156137305761372f612c19565b5b600061373e8482850161368e565b91505092915050565b7f4e6f7420656e6f75676820657468657200000000000000000000000000000000600082015250565b600061377d6010836132b8565b915061378882613747565b602082019050919050565b600060208201905081810360008301526137ac81613770565b9050919050565b6000815190506137c281612f99565b92915050565b6000602082840312156137de576137dd612c19565b5b60006137ec848285016137b3565b91505092915050565b600060608201905061380a6000830186612e95565b6138176020830185612e95565b6138246040830184612cc5565b949350505050565b7f4661696c656420696e204c6f636b20746f6b656e000000000000000000000000600082015250565b60006138626014836132b8565b915061386d8261382c565b602082019050919050565b6000602082019050818103600083015261389181613855565b9050919050565b7f496e697469616c697a61626c653a20636f6e747261637420697320616c72656160008201527f647920696e697469616c697a6564000000000000000000000000000000000000602082015250565b60006138f4602e836132b8565b91506138ff82613898565b604082019050919050565b60006020820190508181036000830152613923816138e7565b9050919050565b7f73656c6c65724665652068617320746f20626520736d616c6c6572207468616e60008201527f206d617846656500000000000000000000000000000000000000000000000000602082015250565b60006139866027836132b8565b91506139918261392a565b604082019050919050565b600060208201905081810360008301526139b581613979565b9050919050565b7f696e76616c696420747265617375727920616464726573730000000000000000600082015250565b60006139f26018836132b8565b91506139fd826139bc565b602082019050919050565b60006020820190508181036000830152613a21816139e5565b9050919050565b6000819050919050565b600060ff82169050919050565b6000819050919050565b6000613a64613a5f613a5a84613a28565b613a3f565b613a32565b9050919050565b613a7481613a49565b82525050565b6000602082019050613a8f6000830184613a6b565b92915050565b7f4f776e61626c653a206e6577206f776e657220697320746865207a65726f206160008201527f6464726573730000000000000000000000000000000000000000000000000000602082015250565b6000613af16026836132b8565b9150613afc82613a95565b604082019050919050565b60006020820190508181036000830152613b2081613ae4565b9050919050565b7f5265656e7472616e637947756172643a207265656e7472616e742063616c6c00600082015250565b6000613b5d601f836132b8565b9150613b6882613b27565b602082019050919050565b60006020820190508181036000830152613b8c81613b50565b9050919050565b7f4661696c656420746f207472616e736665722066726f6d000000000000000000600082015250565b6000613bc96017836132b8565b9150613bd482613b93565b602082019050919050565b60006020820190508181036000830152613bf881613bbc565b9050919050565b7f4f776e61626c653a2063616c6c6572206973206e6f7420746865206f776e6572600082015250565b6000613c356020836132b8565b9150613c4082613bff565b602082019050919050565b60006020820190508181036000830152613c6481613c28565b9050919050565b6000613c7682612cbb565b91507fffffffffffffffffffffffffffffffffffffffffffffffffffffffffffffffff821415613ca957613ca861319b565b5b600182019050919050565b7f496e697469616c697a61626c653a20636f6e7472616374206973206e6f74206960008201527f6e697469616c697a696e67000000000000000000000000000000000000000000602082015250565b6000613d10602b836132b8565b9150613d1b82613cb4565b604082019050919050565b60006020820190508181036000830152613d3f81613d03565b905091905056fea2646970667358221220575fb90e4bd0bdbf2bab5f78678e2f90978d3024d91625e85e4be25994b85c6f64736f6c63430008090033",
  "linkReferences": {},
  "deployedLinkReferences": {}
}