{
  "_format": "hh-sol-artifact-1",
  "contractName": "CliffVesting",
  "sourceName": "contracts/vesting/CliffVesting.sol",
  "abi": [
    {
      "inputs": [],
      "name": "InvalidInitialization",
      "type": "error"
    },
    {
      "inputs": [],
      "name": "InvalidTotalPercentage",
      "type": "error"
    },
    {
      "inputs": [],
      "name": "InvalidVesting",
      "type": "error"
    },
    {
      "inputs": [],
      "name": "NoVestedTokensAvailable",
      "type": "error"
    },
    {
      "inputs": [],
      "name": "NoVestedTokensForRelease",
      "type": "error"
    },
    {
      "inputs": [],
      "name": "NotInitializing",
      "type": "error"
    },
    {
      "inputs": [],
      "name": "OverMaximumReleaseStep",
      "type": "error"
    },
    {
      "inputs": [
        {
          "internalType": "address",
          "name": "owner",
          "type": "address"
        }
      ],
      "name": "OwnableInvalidOwner",
      "type": "error"
    },
    {
      "inputs": [
        {
          "internalType": "address",
          "name": "account",
          "type": "address"
        }
      ],
      "name": "OwnableUnauthorizedAccount",
      "type": "error"
    },
    {
      "inputs": [],
      "name": "ReentrancyGuardReentrantCall",
      "type": "error"
    },
    {
      "inputs": [
        {
          "internalType": "address",
          "name": "beneficiary",
          "type": "address"
        }
      ],
      "name": "VestingAlreadyStarted",
      "type": "error"
    },
    {
      "inputs": [],
      "name": "VestingNotStarted",
      "type": "error"
    },
    {
      "anonymous": false,
      "inputs": [
        {
          "indexed": false,
          "internalType": "uint64",
          "name": "version",
          "type": "uint64"
        }
      ],
      "name": "Initialized",
      "type": "event"
    },
    {
      "anonymous": false,
      "inputs": [
        {
          "components": [
            {
              "components": [
                {
                  "internalType": "address",
                  "name": "from",
                  "type": "address"
                },
                {
                  "internalType": "uint256",
                  "name": "start",
                  "type": "uint256"
                },
                {
                  "internalType": "address",
                  "name": "token",
                  "type": "address"
                },
                {
                  "internalType": "uint256",
                  "name": "totalAmount",
                  "type": "uint256"
                },
                {
                  "internalType": "uint256",
                  "name": "amountReleased",
                  "type": "uint256"
                },
                {
                  "internalType": "uint256",
                  "name": "lastReleasedStep",
                  "type": "uint256"
                }
              ],
              "internalType": "struct ICliffVesting.VestingSchedule",
              "name": "schedule",
              "type": "tuple"
            },
            {
              "components": [
                {
                  "internalType": "uint256",
                  "name": "durationInHours",
                  "type": "uint256"
                },
                {
                  "internalType": "uint256",
                  "name": "percentage",
                  "type": "uint256"
                }
              ],
              "internalType": "struct IAtomicSwapBase.Release[]",
              "name": "release",
              "type": "tuple[]"
            },
            {
              "internalType": "address",
              "name": "beneficiary",
              "type": "address"
            },
            {
              "internalType": "bytes32",
              "name": "orderId",
              "type": "bytes32"
            }
          ],
          "indexed": true,
          "internalType": "struct ICliffVesting.VestingInfo",
          "name": "vesting",
          "type": "tuple"
        }
      ],
      "name": "NewVesting",
      "type": "event"
    },
    {
      "anonymous": false,
      "inputs": [
        {
          "indexed": true,
          "internalType": "address",
          "name": "previousOwner",
          "type": "address"
        },
        {
          "indexed": true,
          "internalType": "address",
          "name": "newOwner",
          "type": "address"
        }
      ],
      "name": "OwnershipTransferred",
      "type": "event"
    },
    {
      "anonymous": false,
      "inputs": [
        {
          "indexed": true,
          "internalType": "address",
          "name": "sender",
          "type": "address"
        },
        {
          "indexed": true,
          "internalType": "uint256",
          "name": "amount",
          "type": "uint256"
        }
      ],
      "name": "Received",
      "type": "event"
    },
    {
      "anonymous": false,
      "inputs": [
        {
          "indexed": true,
          "internalType": "address",
          "name": "beneficiary",
          "type": "address"
        },
        {
          "indexed": true,
          "internalType": "uint256",
          "name": "amount",
          "type": "uint256"
        }
      ],
      "name": "Released",
      "type": "event"
    },
    {
      "inputs": [
        {
          "internalType": "address",
          "name": "beneficiary",
          "type": "address"
        }
      ],
      "name": "getVestingScheduleCount",
      "outputs": [
        {
          "internalType": "uint256",
          "name": "",
          "type": "uint256"
        }
      ],
      "stateMutability": "view",
      "type": "function"
    },
    {
      "inputs": [
        {
          "internalType": "address",
          "name": "_admin",
          "type": "address"
        },
        {
          "internalType": "address",
          "name": "_treasury",
          "type": "address"
        },
        {
          "internalType": "uint256",
          "name": "_sellerFee",
          "type": "uint256"
        }
      ],
      "name": "initialize",
      "outputs": [],
      "stateMutability": "nonpayable",
      "type": "function"
    },
    {
      "inputs": [],
      "name": "owner",
      "outputs": [
        {
          "internalType": "address",
          "name": "",
          "type": "address"
        }
      ],
      "stateMutability": "view",
      "type": "function"
    },
    {
      "inputs": [
        {
          "internalType": "address",
          "name": "beneficiary",
          "type": "address"
        },
        {
          "internalType": "bytes32",
          "name": "orderId",
          "type": "bytes32"
        }
      ],
      "name": "release",
      "outputs": [],
      "stateMutability": "nonpayable",
      "type": "function"
    },
    {
      "inputs": [
        {
          "internalType": "address",
          "name": "",
          "type": "address"
        },
        {
          "internalType": "bytes32",
          "name": "",
          "type": "bytes32"
        },
        {
          "internalType": "uint256",
          "name": "",
          "type": "uint256"
        }
      ],
      "name": "releaseInfos",
      "outputs": [
        {
          "internalType": "uint256",
          "name": "durationInHours",
          "type": "uint256"
        },
        {
          "internalType": "uint256",
          "name": "percentage",
          "type": "uint256"
        }
      ],
      "stateMutability": "view",
      "type": "function"
    },
    {
      "inputs": [],
      "name": "renounceOwnership",
      "outputs": [],
      "stateMutability": "nonpayable",
      "type": "function"
    },
    {
      "inputs": [
        {
          "internalType": "bytes32",
          "name": "orderId",
          "type": "bytes32"
        },
        {
          "internalType": "address",
          "name": "beneficiary",
          "type": "address"
        },
        {
          "internalType": "address",
          "name": "token",
          "type": "address"
        },
        {
          "internalType": "uint256",
          "name": "totalAmount",
          "type": "uint256"
        },
        {
          "components": [
            {
              "internalType": "uint256",
              "name": "durationInHours",
              "type": "uint256"
            },
            {
              "internalType": "uint256",
              "name": "percentage",
              "type": "uint256"
            }
          ],
          "internalType": "struct IAtomicSwapBase.Release[]",
          "name": "releases",
          "type": "tuple[]"
        }
      ],
      "name": "startVesting",
      "outputs": [],
      "stateMutability": "nonpayable",
      "type": "function"
    },
    {
      "inputs": [
        {
          "internalType": "address",
          "name": "newOwner",
          "type": "address"
        }
      ],
      "name": "transferOwnership",
      "outputs": [],
      "stateMutability": "nonpayable",
      "type": "function"
    },
    {
      "inputs": [
        {
          "internalType": "address",
          "name": "",
          "type": "address"
        },
        {
          "internalType": "bytes32",
          "name": "",
          "type": "bytes32"
        }
      ],
      "name": "vestingSchedules",
      "outputs": [
        {
          "internalType": "address",
          "name": "from",
          "type": "address"
        },
        {
          "internalType": "uint256",
          "name": "start",
          "type": "uint256"
        },
        {
          "internalType": "address",
          "name": "token",
          "type": "address"
        },
        {
          "internalType": "uint256",
          "name": "totalAmount",
          "type": "uint256"
        },
        {
          "internalType": "uint256",
          "name": "amountReleased",
          "type": "uint256"
        },
        {
          "internalType": "uint256",
          "name": "lastReleasedStep",
          "type": "uint256"
        }
      ],
      "stateMutability": "view",
      "type": "function"
    },
    {
      "stateMutability": "payable",
      "type": "receive"
    }
  ],
  "bytecode": "0x608060405234801561001057600080fd5b50611a26806100206000396000f3fe60806040526004361061008a5760003560e01c80637b00ffad116100595780637b00ffad1461018057806382a969e2146101c25780638da5cb5b14610200578063d7c2eec71461022b578063f2fde38b14610254576100d5565b806307d0d916146100da5780631794bb3c14610117578063715018a6146101405780637623f00e14610157576100d5565b366100d557343373ffffffffffffffffffffffffffffffffffffffff167f88a5966d370b9919b20f3e2c13ff65706f196a4e32cc2c12bf57088f8852587460405160405180910390a3005b600080fd5b3480156100e657600080fd5b5061010160048036038101906100fc919061104a565b61027d565b60405161010e9190611090565b60405180910390f35b34801561012357600080fd5b5061013e600480360381019061013991906110d7565b6102c6565b005b34801561014c57600080fd5b5061015561049f565b005b34801561016357600080fd5b5061017e6004803603810190610179919061130e565b6104b3565b005b34801561018c57600080fd5b506101a760048036038101906101a291906113a5565b610771565b6040516101b9969594939291906113f4565b60405180910390f35b3480156101ce57600080fd5b506101e960048036038101906101e49190611455565b6107fa565b6040516101f79291906114a8565b60405180910390f35b34801561020c57600080fd5b50610215610848565b60405161022291906114d1565b60405180910390f35b34801561023757600080fd5b50610252600480360381019061024d91906113a5565b610880565b005b34801561026057600080fd5b5061027b6004803603810190610276919061104a565b610c1e565b005b6000600260008373ffffffffffffffffffffffffffffffffffffffff1673ffffffffffffffffffffffffffffffffffffffff168152602001908152602001600020549050919050565b60006102d0610ca4565b905060008160000160089054906101000a900460ff1615905060008260000160009054906101000a900467ffffffffffffffff1690506000808267ffffffffffffffff1614801561031e5750825b9050600060018367ffffffffffffffff16148015610353575060003073ffffffffffffffffffffffffffffffffffffffff163b145b905081158015610361575080155b15610398576040517ff92ee8a900000000000000000000000000000000000000000000000000000000815260040160405180910390fd5b60018560000160006101000a81548167ffffffffffffffff021916908367ffffffffffffffff16021790555083156103e85760018560000160086101000a81548160ff0219169083151502179055505b6103f188610ccc565b86600360006101000a81548173ffffffffffffffffffffffffffffffffffffffff021916908373ffffffffffffffffffffffffffffffffffffffff1602179055508560048190555083156104955760008560000160086101000a81548160ff0219169083151502179055507fc7f505b2f371ae2175ee4913f4499e1f2633a7b5936321eed1cdaeb6115181d2600160405161048c9190611545565b60405180910390a15b5050505050505050565b6104a7610d52565b6104b16000610dd9565b565b600042905060006040518060c001604052803373ffffffffffffffffffffffffffffffffffffffff1681526020018381526020018673ffffffffffffffffffffffffffffffffffffffff1681526020018581526020016000815260200160008152509050806000808873ffffffffffffffffffffffffffffffffffffffff1673ffffffffffffffffffffffffffffffffffffffff168152602001908152602001600020600089815260200190815260200160002060008201518160000160006101000a81548173ffffffffffffffffffffffffffffffffffffffff021916908373ffffffffffffffffffffffffffffffffffffffff1602179055506020820151816001015560408201518160020160006101000a81548173ffffffffffffffffffffffffffffffffffffffff021916908373ffffffffffffffffffffffffffffffffffffffff160217905550606082015181600301556080820151816004015560a082015181600501559050506000600160008873ffffffffffffffffffffffffffffffffffffffff1673ffffffffffffffffffffffffffffffffffffffff1681526020019081526020016000206000898152602001908152602001600020905060005b84518110156106ee578185828151811061069457610693611560565b5b602002602001015190806001815401808255809150506001900390600052602060002090600202016000909190919091506000820151816000015560208201518160010155505080806106e6906115be565b915050610677565b5060405180608001604052808381526020018581526020018873ffffffffffffffffffffffffffffffffffffffff168152602001898152506040516107339190611849565b60405180910390207fb16abbea6ba3704f5f2a80a6e86817bd96545258a4bbe645becfc85ab722675260405160405180910390a25050505050505050565b6000602052816000526040600020602052806000526040600020600091509150508060000160009054906101000a900473ffffffffffffffffffffffffffffffffffffffff16908060010154908060020160009054906101000a900473ffffffffffffffffffffffffffffffffffffffff16908060030154908060040154908060050154905086565b6001602052826000526040600020602052816000526040600020818154811061082257600080fd5b906000526020600020906002020160009250925050508060000154908060010154905082565b600080610853610eb0565b90508060000160009054906101000a900473ffffffffffffffffffffffffffffffffffffffff1691505090565b610888610ed8565b60008060008473ffffffffffffffffffffffffffffffffffffffff1673ffffffffffffffffffffffffffffffffffffffff168152602001908152602001600020600083815260200190815260200160002090506000600160008573ffffffffffffffffffffffffffffffffffffffff1673ffffffffffffffffffffffffffffffffffffffff16815260200190815260200160002060008481526020019081526020016000209050816001015442101561096d576040517f35549be800000000000000000000000000000000000000000000000000000000815260040160405180910390fd5b60008180549050148061098857508080549050826005015410155b156109bf576040517f8bdb538100000000000000000000000000000000000000000000000000000000815260040160405180910390fd5b600080836001015490506000846005015490505b8380549050811015610aa157610e108482815481106109f5576109f4611560565b5b906000526020600020906002020160000154610a119190611860565b82610a1c91906118a2565b9150814210610aa1576000612710858381548110610a3d57610a3c611560565b5b9060005260206000209060020201600101548760030154610a5e9190611860565b610a689190611905565b90508084610a7691906118a2565b9350600182610a8591906118a2565b8660050181905550508080610a99906115be565b9150506109d3565b5060008211610adc576040517f3507415000000000000000000000000000000000000000000000000000000000815260040160405180910390fd5b81846004016000828254610af091906118a2565b925050819055508360020160009054906101000a900473ffffffffffffffffffffffffffffffffffffffff1673ffffffffffffffffffffffffffffffffffffffff1673__$b9ebb88af43d68d18cc83c52d00a91a1a0$__6306cf2280909188856004546103e8600360009054906101000a900473ffffffffffffffffffffffffffffffffffffffff166040518763ffffffff1660e01b8152600401610b9a9695949392919061198f565b60006040518083038186803b158015610bb257600080fd5b505af4158015610bc6573d6000803e3d6000fd5b50505050818673ffffffffffffffffffffffffffffffffffffffff167fb21fb52d5749b80f3182f8c6992236b5e5576681880914484d7f4c9b062e619e60405160405180910390a350505050610c1a610f2f565b5050565b610c26610d52565b600073ffffffffffffffffffffffffffffffffffffffff168173ffffffffffffffffffffffffffffffffffffffff1603610c985760006040517f1e4fbdf7000000000000000000000000000000000000000000000000000000008152600401610c8f91906114d1565b60405180910390fd5b610ca181610dd9565b50565b60007ff0c57e16840df040f15088dc2f81fe391c3923bec73e23a9662efc9c229c6a00905090565b610cd4610f48565b600073ffffffffffffffffffffffffffffffffffffffff168173ffffffffffffffffffffffffffffffffffffffff1603610d465760006040517f1e4fbdf7000000000000000000000000000000000000000000000000000000008152600401610d3d91906114d1565b60405180910390fd5b610d4f81610dd9565b50565b610d5a610f88565b73ffffffffffffffffffffffffffffffffffffffff16610d78610848565b73ffffffffffffffffffffffffffffffffffffffff1614610dd757610d9b610f88565b6040517f118cdaa7000000000000000000000000000000000000000000000000000000008152600401610dce91906114d1565b60405180910390fd5b565b6000610de3610eb0565b905060008160000160009054906101000a900473ffffffffffffffffffffffffffffffffffffffff169050828260000160006101000a81548173ffffffffffffffffffffffffffffffffffffffff021916908373ffffffffffffffffffffffffffffffffffffffff1602179055508273ffffffffffffffffffffffffffffffffffffffff168173ffffffffffffffffffffffffffffffffffffffff167f8be0079c531659141344cd1fd0a4f28419497f9722a3daafe3b4186f6b6457e060405160405180910390a3505050565b60007f9016d09d72d40fdae2fd8ceac6b6234c7706214fd39c1cd1e609a0528c199300905090565b6000610ee2610f90565b90506002816000015403610f22576040517f3ee5aeb500000000000000000000000000000000000000000000000000000000815260040160405180910390fd5b6002816000018190555050565b6000610f39610f90565b90506001816000018190555050565b610f50610fb8565b610f86576040517fd7e6bcf800000000000000000000000000000000000000000000000000000000815260040160405180910390fd5b565b600033905090565b60007f9b779b17422d0df92223018b32b4d1fa46e071723d6817e2486d003becc55f00905090565b6000610fc2610ca4565b60000160089054906101000a900460ff16905090565b6000604051905090565b600080fd5b600080fd5b600073ffffffffffffffffffffffffffffffffffffffff82169050919050565b600061101782610fec565b9050919050565b6110278161100c565b811461103257600080fd5b50565b6000813590506110448161101e565b92915050565b6000602082840312156110605761105f610fe2565b5b600061106e84828501611035565b91505092915050565b6000819050919050565b61108a81611077565b82525050565b60006020820190506110a56000830184611081565b92915050565b6110b481611077565b81146110bf57600080fd5b50565b6000813590506110d1816110ab565b92915050565b6000806000606084860312156110f0576110ef610fe2565b5b60006110fe86828701611035565b935050602061110f86828701611035565b9250506040611120868287016110c2565b9150509250925092565b6000819050919050565b61113d8161112a565b811461114857600080fd5b50565b60008135905061115a81611134565b92915050565b600080fd5b6000601f19601f8301169050919050565b7f4e487b7100000000000000000000000000000000000000000000000000000000600052604160045260246000fd5b6111ae82611165565b810181811067ffffffffffffffff821117156111cd576111cc611176565b5b80604052505050565b60006111e0610fd8565b90506111ec82826111a5565b919050565b600067ffffffffffffffff82111561120c5761120b611176565b5b602082029050602081019050919050565b600080fd5b600080fd5b60006040828403121561123d5761123c611222565b5b61124760406111d6565b90506000611257848285016110c2565b600083015250602061126b848285016110c2565b60208301525092915050565b600061128a611285846111f1565b6111d6565b905080838252602082019050604084028301858111156112ad576112ac61121d565b5b835b818110156112d657806112c28882611227565b8452602084019350506040810190506112af565b5050509392505050565b600082601f8301126112f5576112f4611160565b5b8135611305848260208601611277565b91505092915050565b600080600080600060a0868803121561132a57611329610fe2565b5b60006113388882890161114b565b955050602061134988828901611035565b945050604061135a88828901611035565b935050606061136b888289016110c2565b925050608086013567ffffffffffffffff81111561138c5761138b610fe7565b5b611398888289016112e0565b9150509295509295909350565b600080604083850312156113bc576113bb610fe2565b5b60006113ca85828601611035565b92505060206113db8582860161114b565b9150509250929050565b6113ee8161100c565b82525050565b600060c08201905061140960008301896113e5565b6114166020830188611081565b61142360408301876113e5565b6114306060830186611081565b61143d6080830185611081565b61144a60a0830184611081565b979650505050505050565b60008060006060848603121561146e5761146d610fe2565b5b600061147c86828701611035565b935050602061148d8682870161114b565b925050604061149e868287016110c2565b9150509250925092565b60006040820190506114bd6000830185611081565b6114ca6020830184611081565b9392505050565b60006020820190506114e660008301846113e5565b92915050565b6000819050919050565b600067ffffffffffffffff82169050919050565b6000819050919050565b600061152f61152a611525846114ec565b61150a565b6114f6565b9050919050565b61153f81611514565b82525050565b600060208201905061155a6000830184611536565b92915050565b7f4e487b7100000000000000000000000000000000000000000000000000000000600052603260045260246000fd5b7f4e487b7100000000000000000000000000000000000000000000000000000000600052601160045260246000fd5b60006115c982611077565b91507fffffffffffffffffffffffffffffffffffffffffffffffffffffffffffffffff82036115fb576115fa61158f565b5b600182019050919050565b61160f8161100c565b82525050565b60006116218383611606565b60208301905092915050565b61163681611077565b82525050565b6000611648838361162d565b60208301905092915050565b6000820160008201516116678482611615565b9350506020820151611679848261163c565b935050604082015161168b8482611615565b935050606082015161169d848261163c565b93505060808201516116af848261163c565b93505060a08201516116c1848261163c565b935050505050565b60006116d58383611654565b60c08301905092915050565b600081519050919050565b600081905092915050565b6000819050602082019050919050565b60008201600082015161171a848261163c565b935050602082015161172c848261163c565b935050505050565b60006117408383611707565b60408301905092915050565b6000602082019050919050565b6000611764826116e1565b61176e81856116ec565b9350611779836116f7565b8060005b838110156117aa5781516117918882611734565b975061179c8361174c565b92505060018101905061177d565b5085935050505092915050565b60006117c38383611759565b905092915050565b6117d48161112a565b82525050565b60006117e683836117cb565b60208301905092915050565b6000808301600083015161180685826116c9565b945050602083015161181885826117b7565b945050604083015161182a8582611615565b945050606083015161183c85826117da565b9450508391505092915050565b600061185582846117f2565b915081905092915050565b600061186b82611077565b915061187683611077565b925082820261188481611077565b9150828204841483151761189b5761189a61158f565b5b5092915050565b60006118ad82611077565b91506118b883611077565b92508282019050808211156118d0576118cf61158f565b5b92915050565b7f4e487b7100000000000000000000000000000000000000000000000000000000600052601260045260246000fd5b600061191082611077565b915061191b83611077565b92508261192b5761192a6118d6565b5b828204905092915050565b61193f8161100c565b82525050565b61194e81611077565b82525050565b6000819050919050565b600061197961197461196f84611954565b61150a565b611077565b9050919050565b6119898161195e565b82525050565b600060c0820190506119a46000830189611936565b6119b16020830188611936565b6119be6040830187611945565b6119cb6060830186611945565b6119d86080830185611980565b6119e560a0830184611936565b97965050505050505056fea2646970667358221220837ca76c5a79789e3eb85708a2a688cc8203fa34f4d02ede1b5a27fd107ae97f64736f6c63430008140033",
  "linkReferences": {
    "contracts/abstracts/libs/utils/TokenTransferHelper.sol": {
      "TokenTransferHelper": [
        {
          "length": 20,
          "start": 2900
        }
      ]
    }
  },
  "deployedLinkReferences": {
    "contracts/abstracts/libs/utils/TokenTransferHelper.sol": {
      "TokenTransferHelper": [
        {
          "length": 20,
          "start": 2868
        }
      ]
    }
  }
}