{
  "_format": "hh-sol-artifact-1",
  "contractName": "CliffVesting",
  "sourceName": "contracts/vesting/CliffVesting.sol",
  "abi": [
    {
      "inputs": [],
      "name": "InvalidInitialization",
      "type": "error"
    },
    {
      "inputs": [],
      "name": "InvalidTotalPercentage",
      "type": "error"
    },
    {
      "inputs": [],
      "name": "InvalidVesting",
      "type": "error"
    },
    {
      "inputs": [],
      "name": "NoVestedTokensAvailable",
      "type": "error"
    },
    {
      "inputs": [],
      "name": "NoVestedTokensForRelease",
      "type": "error"
    },
    {
      "inputs": [],
      "name": "NotInitializing",
      "type": "error"
    },
    {
      "inputs": [],
      "name": "OverMaximumReleaseStep",
      "type": "error"
    },
    {
      "inputs": [
        {
          "internalType": "address",
          "name": "owner",
          "type": "address"
        }
      ],
      "name": "OwnableInvalidOwner",
      "type": "error"
    },
    {
      "inputs": [
        {
          "internalType": "address",
          "name": "account",
          "type": "address"
        }
      ],
      "name": "OwnableUnauthorizedAccount",
      "type": "error"
    },
    {
      "inputs": [],
      "name": "ReentrancyGuardReentrantCall",
      "type": "error"
    },
    {
      "inputs": [
        {
          "internalType": "address",
          "name": "beneficiary",
          "type": "address"
        }
      ],
      "name": "VestingAlreadyStarted",
      "type": "error"
    },
    {
      "inputs": [],
      "name": "VestingNotStarted",
      "type": "error"
    },
    {
      "anonymous": false,
      "inputs": [
        {
          "indexed": false,
          "internalType": "uint64",
          "name": "version",
          "type": "uint64"
        }
      ],
      "name": "Initialized",
      "type": "event"
    },
    {
      "anonymous": false,
      "inputs": [
        {
          "components": [
            {
              "components": [
                {
                  "internalType": "address",
                  "name": "from",
                  "type": "address"
                },
                {
                  "internalType": "uint256",
                  "name": "start",
                  "type": "uint256"
                },
                {
                  "internalType": "address",
                  "name": "token",
                  "type": "address"
                },
                {
                  "internalType": "uint256",
                  "name": "totalAmount",
                  "type": "uint256"
                },
                {
                  "internalType": "uint256",
                  "name": "amountReleased",
                  "type": "uint256"
                },
                {
                  "internalType": "uint256",
                  "name": "lastReleasedStep",
                  "type": "uint256"
                }
              ],
              "internalType": "struct ICliffVesting.VestingSchedule",
              "name": "schedule",
              "type": "tuple"
            },
            {
              "components": [
                {
                  "internalType": "uint256",
                  "name": "durationInHours",
                  "type": "uint256"
                },
                {
                  "internalType": "uint256",
                  "name": "percentage",
                  "type": "uint256"
                }
              ],
              "internalType": "struct IAtomicSwapBase.Release[]",
              "name": "release",
              "type": "tuple[]"
            },
            {
              "internalType": "address",
              "name": "beneficiary",
              "type": "address"
            },
            {
              "internalType": "uint256",
              "name": "scheduleId",
              "type": "uint256"
            }
          ],
          "indexed": true,
          "internalType": "struct ICliffVesting.VestingInfo",
          "name": "vesting",
          "type": "tuple"
        }
      ],
      "name": "NewVesting",
      "type": "event"
    },
    {
      "anonymous": false,
      "inputs": [
        {
          "indexed": true,
          "internalType": "address",
          "name": "previousOwner",
          "type": "address"
        },
        {
          "indexed": true,
          "internalType": "address",
          "name": "newOwner",
          "type": "address"
        }
      ],
      "name": "OwnershipTransferred",
      "type": "event"
    },
    {
      "anonymous": false,
      "inputs": [
        {
          "indexed": true,
          "internalType": "address",
          "name": "sender",
          "type": "address"
        },
        {
          "indexed": true,
          "internalType": "uint256",
          "name": "amount",
          "type": "uint256"
        }
      ],
      "name": "Received",
      "type": "event"
    },
    {
      "anonymous": false,
      "inputs": [
        {
          "indexed": true,
          "internalType": "address",
          "name": "beneficiary",
          "type": "address"
        },
        {
          "indexed": true,
          "internalType": "uint256",
          "name": "amount",
          "type": "uint256"
        }
      ],
      "name": "Released",
      "type": "event"
    },
    {
      "inputs": [
        {
          "internalType": "address",
          "name": "beneficiary",
          "type": "address"
        }
      ],
      "name": "getVestingScheduleCount",
      "outputs": [
        {
          "internalType": "uint256",
          "name": "",
          "type": "uint256"
        }
      ],
      "stateMutability": "view",
      "type": "function"
    },
    {
      "inputs": [
        {
          "internalType": "address",
          "name": "_admin",
          "type": "address"
        },
        {
          "internalType": "address",
          "name": "_treasury",
          "type": "address"
        },
        {
          "internalType": "uint256",
          "name": "_sellerFee",
          "type": "uint256"
        }
      ],
      "name": "initialize",
      "outputs": [],
      "stateMutability": "nonpayable",
      "type": "function"
    },
    {
      "inputs": [],
      "name": "owner",
      "outputs": [
        {
          "internalType": "address",
          "name": "",
          "type": "address"
        }
      ],
      "stateMutability": "view",
      "type": "function"
    },
    {
      "inputs": [
        {
          "internalType": "address",
          "name": "beneficiary",
          "type": "address"
        },
        {
          "internalType": "uint256",
          "name": "scheduleId",
          "type": "uint256"
        }
      ],
      "name": "release",
      "outputs": [],
      "stateMutability": "nonpayable",
      "type": "function"
    },
    {
      "inputs": [
        {
          "internalType": "address",
          "name": "",
          "type": "address"
        },
        {
          "internalType": "uint256",
          "name": "",
          "type": "uint256"
        },
        {
          "internalType": "uint256",
          "name": "",
          "type": "uint256"
        }
      ],
      "name": "releaseInfos",
      "outputs": [
        {
          "internalType": "uint256",
          "name": "durationInHours",
          "type": "uint256"
        },
        {
          "internalType": "uint256",
          "name": "percentage",
          "type": "uint256"
        }
      ],
      "stateMutability": "view",
      "type": "function"
    },
    {
      "inputs": [],
      "name": "renounceOwnership",
      "outputs": [],
      "stateMutability": "nonpayable",
      "type": "function"
    },
    {
      "inputs": [
        {
          "internalType": "address",
          "name": "beneficiary",
          "type": "address"
        },
        {
          "internalType": "address",
          "name": "token",
          "type": "address"
        },
        {
          "internalType": "uint256",
          "name": "totalAmount",
          "type": "uint256"
        },
        {
          "components": [
            {
              "internalType": "uint256",
              "name": "durationInHours",
              "type": "uint256"
            },
            {
              "internalType": "uint256",
              "name": "percentage",
              "type": "uint256"
            }
          ],
          "internalType": "struct IAtomicSwapBase.Release[]",
          "name": "releases",
          "type": "tuple[]"
        }
      ],
      "name": "startVesting",
      "outputs": [],
      "stateMutability": "nonpayable",
      "type": "function"
    },
    {
      "inputs": [
        {
          "internalType": "address",
          "name": "newOwner",
          "type": "address"
        }
      ],
      "name": "transferOwnership",
      "outputs": [],
      "stateMutability": "nonpayable",
      "type": "function"
    },
    {
      "inputs": [
        {
          "internalType": "address",
          "name": "",
          "type": "address"
        },
        {
          "internalType": "uint256",
          "name": "",
          "type": "uint256"
        }
      ],
      "name": "vestingSchedules",
      "outputs": [
        {
          "internalType": "address",
          "name": "from",
          "type": "address"
        },
        {
          "internalType": "uint256",
          "name": "start",
          "type": "uint256"
        },
        {
          "internalType": "address",
          "name": "token",
          "type": "address"
        },
        {
          "internalType": "uint256",
          "name": "totalAmount",
          "type": "uint256"
        },
        {
          "internalType": "uint256",
          "name": "amountReleased",
          "type": "uint256"
        },
        {
          "internalType": "uint256",
          "name": "lastReleasedStep",
          "type": "uint256"
        }
      ],
      "stateMutability": "view",
      "type": "function"
    },
    {
      "stateMutability": "payable",
      "type": "receive"
    }
  ],
  "bytecode": "0x608060405234801561001057600080fd5b50611a0d806100206000396000f3fe60806040526004361061008a5760003560e01c806345626bd61161005957806345626bd6146101a7578063715018a6146101e95780638da5cb5b14610200578063d20252a11461022b578063f2fde38b14610254576100d5565b80630357371d146100da57806307d0d916146101035780631794bb3c146101405780632819453f14610169576100d5565b366100d557343373ffffffffffffffffffffffffffffffffffffffff167f88a5966d370b9919b20f3e2c13ff65706f196a4e32cc2c12bf57088f8852587460405160405180910390a3005b600080fd5b3480156100e657600080fd5b5061010160048036038101906100fc91906110d8565b61027d565b005b34801561010f57600080fd5b5061012a60048036038101906101259190611118565b61061b565b6040516101379190611154565b60405180910390f35b34801561014c57600080fd5b506101676004803603810190610162919061116f565b610664565b005b34801561017557600080fd5b50610190600480360381019061018b91906111c2565b61083d565b60405161019e929190611215565b60405180910390f35b3480156101b357600080fd5b506101ce60048036038101906101c991906110d8565b61088b565b6040516101e09695949392919061124d565b60405180910390f35b3480156101f557600080fd5b506101fe610914565b005b34801561020c57600080fd5b50610215610928565b60405161022291906112ae565b60405180910390f35b34801561023757600080fd5b50610252600480360381019061024d9190611477565b610960565b005b34801561026057600080fd5b5061027b60048036038101906102769190611118565b610c76565b005b610285610cfc565b60008060008473ffffffffffffffffffffffffffffffffffffffff1673ffffffffffffffffffffffffffffffffffffffff168152602001908152602001600020600083815260200190815260200160002090506000600160008573ffffffffffffffffffffffffffffffffffffffff1673ffffffffffffffffffffffffffffffffffffffff16815260200190815260200160002060008481526020019081526020016000209050816001015442101561036a576040517f35549be800000000000000000000000000000000000000000000000000000000815260040160405180910390fd5b60008180549050148061038557508080549050826005015410155b156103bc576040517f8bdb538100000000000000000000000000000000000000000000000000000000815260040160405180910390fd5b600080836001015490506000846005015490505b838054905081101561049e57610e108482815481106103f2576103f16114fa565b5b90600052602060002090600202016000015461040e9190611558565b82610419919061159a565b915081421061049e57600061271085838154811061043a576104396114fa565b5b906000526020600020906002020160010154876003015461045b9190611558565b61046591906115fd565b90508084610473919061159a565b9350600182610482919061159a565b86600501819055505080806104969061162e565b9150506103d0565b50600082116104d9576040517f3507415000000000000000000000000000000000000000000000000000000000815260040160405180910390fd5b818460040160008282546104ed919061159a565b925050819055508360020160009054906101000a900473ffffffffffffffffffffffffffffffffffffffff1673ffffffffffffffffffffffffffffffffffffffff1673__$b9ebb88af43d68d18cc83c52d00a91a1a0$__6306cf2280909188856004546103e8600360009054906101000a900473ffffffffffffffffffffffffffffffffffffffff166040518763ffffffff1660e01b8152600401610597969594939291906116d9565b60006040518083038186803b1580156105af57600080fd5b505af41580156105c3573d6000803e3d6000fd5b50505050818673ffffffffffffffffffffffffffffffffffffffff167fb21fb52d5749b80f3182f8c6992236b5e5576681880914484d7f4c9b062e619e60405160405180910390a350505050610617610d53565b5050565b6000600260008373ffffffffffffffffffffffffffffffffffffffff1673ffffffffffffffffffffffffffffffffffffffff168152602001908152602001600020549050919050565b600061066e610d6c565b905060008160000160089054906101000a900460ff1615905060008260000160009054906101000a900467ffffffffffffffff1690506000808267ffffffffffffffff161480156106bc5750825b9050600060018367ffffffffffffffff161480156106f1575060003073ffffffffffffffffffffffffffffffffffffffff163b145b9050811580156106ff575080155b15610736576040517ff92ee8a900000000000000000000000000000000000000000000000000000000815260040160405180910390fd5b60018560000160006101000a81548167ffffffffffffffff021916908367ffffffffffffffff16021790555083156107865760018560000160086101000a81548160ff0219169083151502179055505b61078f88610d94565b86600360006101000a81548173ffffffffffffffffffffffffffffffffffffffff021916908373ffffffffffffffffffffffffffffffffffffffff1602179055508560048190555083156108335760008560000160086101000a81548160ff0219169083151502179055507fc7f505b2f371ae2175ee4913f4499e1f2633a7b5936321eed1cdaeb6115181d2600160405161082a9190611789565b60405180910390a15b5050505050505050565b6001602052826000526040600020602052816000526040600020818154811061086557600080fd5b906000526020600020906002020160009250925050508060000154908060010154905082565b6000602052816000526040600020602052806000526040600020600091509150508060000160009054906101000a900473ffffffffffffffffffffffffffffffffffffffff16908060010154908060020160009054906101000a900473ffffffffffffffffffffffffffffffffffffffff16908060030154908060040154908060050154905086565b61091c610e1a565b6109266000610ea1565b565b600080610933610f78565b90508060000160009054906101000a900473ffffffffffffffffffffffffffffffffffffffff1691505090565b60004290506000600260008773ffffffffffffffffffffffffffffffffffffffff1673ffffffffffffffffffffffffffffffffffffffff16815260200190815260200160002060008154809291906109b79061162e565b91905055905060006040518060c001604052803373ffffffffffffffffffffffffffffffffffffffff1681526020018481526020018773ffffffffffffffffffffffffffffffffffffffff1681526020018681526020016000815260200160008152509050806000808973ffffffffffffffffffffffffffffffffffffffff1673ffffffffffffffffffffffffffffffffffffffff168152602001908152602001600020600084815260200190815260200160002060008201518160000160006101000a81548173ffffffffffffffffffffffffffffffffffffffff021916908373ffffffffffffffffffffffffffffffffffffffff1602179055506020820151816001015560408201518160020160006101000a81548173ffffffffffffffffffffffffffffffffffffffff021916908373ffffffffffffffffffffffffffffffffffffffff160217905550606082015181600301556080820151816004015560a082015181600501559050506000600160008973ffffffffffffffffffffffffffffffffffffffff1673ffffffffffffffffffffffffffffffffffffffff1681526020019081526020016000206000848152602001908152602001600020905060005b8551811015610bf35781868281518110610b9957610b986114fa565b5b60200260200101519080600181540180825580915050600190039060005260206000209060020201600090919091909150600082015181600001556020820151816001015550508080610beb9061162e565b915050610b7c565b5060405180608001604052808381526020018681526020018973ffffffffffffffffffffffffffffffffffffffff16815260200184815250604051610c3891906119c0565b60405180910390207ffea6d95be8de2e4a5e17fafbc5f77b27a388d3f3784c2c0dee8f9f8b3e33419660405160405180910390a25050505050505050565b610c7e610e1a565b600073ffffffffffffffffffffffffffffffffffffffff168173ffffffffffffffffffffffffffffffffffffffff1603610cf05760006040517f1e4fbdf7000000000000000000000000000000000000000000000000000000008152600401610ce791906112ae565b60405180910390fd5b610cf981610ea1565b50565b6000610d06610fa0565b90506002816000015403610d46576040517f3ee5aeb500000000000000000000000000000000000000000000000000000000815260040160405180910390fd5b6002816000018190555050565b6000610d5d610fa0565b90506001816000018190555050565b60007ff0c57e16840df040f15088dc2f81fe391c3923bec73e23a9662efc9c229c6a00905090565b610d9c610fc8565b600073ffffffffffffffffffffffffffffffffffffffff168173ffffffffffffffffffffffffffffffffffffffff1603610e0e5760006040517f1e4fbdf7000000000000000000000000000000000000000000000000000000008152600401610e0591906112ae565b60405180910390fd5b610e1781610ea1565b50565b610e22611008565b73ffffffffffffffffffffffffffffffffffffffff16610e40610928565b73ffffffffffffffffffffffffffffffffffffffff1614610e9f57610e63611008565b6040517f118cdaa7000000000000000000000000000000000000000000000000000000008152600401610e9691906112ae565b60405180910390fd5b565b6000610eab610f78565b905060008160000160009054906101000a900473ffffffffffffffffffffffffffffffffffffffff169050828260000160006101000a81548173ffffffffffffffffffffffffffffffffffffffff021916908373ffffffffffffffffffffffffffffffffffffffff1602179055508273ffffffffffffffffffffffffffffffffffffffff168173ffffffffffffffffffffffffffffffffffffffff167f8be0079c531659141344cd1fd0a4f28419497f9722a3daafe3b4186f6b6457e060405160405180910390a3505050565b60007f9016d09d72d40fdae2fd8ceac6b6234c7706214fd39c1cd1e609a0528c199300905090565b60007f9b779b17422d0df92223018b32b4d1fa46e071723d6817e2486d003becc55f00905090565b610fd0611010565b611006576040517fd7e6bcf800000000000000000000000000000000000000000000000000000000815260040160405180910390fd5b565b600033905090565b600061101a610d6c565b60000160089054906101000a900460ff16905090565b6000604051905090565b600080fd5b600080fd5b600073ffffffffffffffffffffffffffffffffffffffff82169050919050565b600061106f82611044565b9050919050565b61107f81611064565b811461108a57600080fd5b50565b60008135905061109c81611076565b92915050565b6000819050919050565b6110b5816110a2565b81146110c057600080fd5b50565b6000813590506110d2816110ac565b92915050565b600080604083850312156110ef576110ee61103a565b5b60006110fd8582860161108d565b925050602061110e858286016110c3565b9150509250929050565b60006020828403121561112e5761112d61103a565b5b600061113c8482850161108d565b91505092915050565b61114e816110a2565b82525050565b60006020820190506111696000830184611145565b92915050565b6000806000606084860312156111885761118761103a565b5b60006111968682870161108d565b93505060206111a78682870161108d565b92505060406111b8868287016110c3565b9150509250925092565b6000806000606084860312156111db576111da61103a565b5b60006111e98682870161108d565b93505060206111fa868287016110c3565b925050604061120b868287016110c3565b9150509250925092565b600060408201905061122a6000830185611145565b6112376020830184611145565b9392505050565b61124781611064565b82525050565b600060c082019050611262600083018961123e565b61126f6020830188611145565b61127c604083018761123e565b6112896060830186611145565b6112966080830185611145565b6112a360a0830184611145565b979650505050505050565b60006020820190506112c3600083018461123e565b92915050565b600080fd5b6000601f19601f8301169050919050565b7f4e487b7100000000000000000000000000000000000000000000000000000000600052604160045260246000fd5b611317826112ce565b810181811067ffffffffffffffff82111715611336576113356112df565b5b80604052505050565b6000611349611030565b9050611355828261130e565b919050565b600067ffffffffffffffff821115611375576113746112df565b5b602082029050602081019050919050565b600080fd5b600080fd5b6000604082840312156113a6576113a561138b565b5b6113b0604061133f565b905060006113c0848285016110c3565b60008301525060206113d4848285016110c3565b60208301525092915050565b60006113f36113ee8461135a565b61133f565b9050808382526020820190506040840283018581111561141657611415611386565b5b835b8181101561143f578061142b8882611390565b845260208401935050604081019050611418565b5050509392505050565b600082601f83011261145e5761145d6112c9565b5b813561146e8482602086016113e0565b91505092915050565b600080600080608085870312156114915761149061103a565b5b600061149f8782880161108d565b94505060206114b08782880161108d565b93505060406114c1878288016110c3565b925050606085013567ffffffffffffffff8111156114e2576114e161103f565b5b6114ee87828801611449565b91505092959194509250565b7f4e487b7100000000000000000000000000000000000000000000000000000000600052603260045260246000fd5b7f4e487b7100000000000000000000000000000000000000000000000000000000600052601160045260246000fd5b6000611563826110a2565b915061156e836110a2565b925082820261157c816110a2565b9150828204841483151761159357611592611529565b5b5092915050565b60006115a5826110a2565b91506115b0836110a2565b92508282019050808211156115c8576115c7611529565b5b92915050565b7f4e487b7100000000000000000000000000000000000000000000000000000000600052601260045260246000fd5b6000611608826110a2565b9150611613836110a2565b925082611623576116226115ce565b5b828204905092915050565b6000611639826110a2565b91507fffffffffffffffffffffffffffffffffffffffffffffffffffffffffffffffff820361166b5761166a611529565b5b600182019050919050565b61167f81611064565b82525050565b61168e816110a2565b82525050565b6000819050919050565b6000819050919050565b60006116c36116be6116b984611694565b61169e565b6110a2565b9050919050565b6116d3816116a8565b82525050565b600060c0820190506116ee6000830189611676565b6116fb6020830188611676565b6117086040830187611685565b6117156060830186611685565b61172260808301856116ca565b61172f60a0830184611676565b979650505050505050565b6000819050919050565b600067ffffffffffffffff82169050919050565b600061177361176e6117698461173a565b61169e565b611744565b9050919050565b61178381611758565b82525050565b600060208201905061179e600083018461177a565b92915050565b6117ad81611064565b82525050565b60006117bf83836117a4565b60208301905092915050565b6117d4816110a2565b82525050565b60006117e683836117cb565b60208301905092915050565b60008201600082015161180584826117b3565b935050602082015161181784826117da565b935050604082015161182984826117b3565b935050606082015161183b84826117da565b935050608082015161184d84826117da565b93505060a082015161185f84826117da565b935050505050565b600061187383836117f2565b60c08301905092915050565b600081519050919050565b600081905092915050565b6000819050602082019050919050565b6000820160008201516118b884826117da565b93505060208201516118ca84826117da565b935050505050565b60006118de83836118a5565b60408301905092915050565b6000602082019050919050565b60006119028261187f565b61190c818561188a565b935061191783611895565b8060005b8381101561194857815161192f88826118d2565b975061193a836118ea565b92505060018101905061191b565b5085935050505092915050565b600061196183836118f7565b905092915050565b6000808301600083015161197d8582611867565b945050602083015161198f8582611955565b94505060408301516119a185826117b3565b94505060608301516119b385826117da565b9450508391505092915050565b60006119cc8284611969565b91508190509291505056fea2646970667358221220a4d932dca0ebb689137cd16a81da3c069a9378899396857666fb12a32840a69664736f6c63430008140033",
  "linkReferences": {
    "contracts/abstracts/libs/utils/TokenTransferHelper.sol": {
      "TokenTransferHelper": [
        {
          "length": 20,
          "start": 1361
        }
      ]
    }
  },
  "deployedLinkReferences": {
    "contracts/abstracts/libs/utils/TokenTransferHelper.sol": {
      "TokenTransferHelper": [
        {
          "length": 20,
          "start": 1329
        }
      ]
    }
  }
}